12292535000162010120253101202527022025CAMARA DE VEREADORES DE INDEPENDENCIA-RS                                        
100000000000000000000101000001141238100000000000000000208276399000004292925800001767595220000000000000ATIVO                                                                                                                                               S01 NPF00000000000000000000
110000000000000000000101000000097385900000000000000000208161199000004276414500001663709130000000000000ATIVO CIRCULANTE                                                                                                                                    S02 NP 00000000000000000000
111000000000000000000101000000043946400000000000000000035161199000002867921000000069214530000000000000CAIXA E EQUIVALENTES DE CAIXA                                                                                                                       S03 NPF00000000000000000000
111100000000000000000101000000043946400000000000000000035156375000002867438600000069214530000000000000CAIXA E EQUIVALENTES DE CAIXA EM MOEDA NACIONAL                                                                                                     S04 NPF00000000000000000000
111110000000000000000101000000043946400000000000000000035156375000002867438600000069214530000000000000CAIXA E EQUIVALENTES DE CAIXA EM MOEDA NACIONAL - CONSOLIDAO                                                                                        S05 NPF00000000000000000000
111111900000000000000101000000043946400000000000000000021119873000002155933700000000000000000000000000BANCOS CONTA MOVIMENTO - DEMAIS CONTAS                                                                                                              S06 NPF00000000000000000000
111111912000000000000101000000043946400000000000000000021119873000002155933700000000000000000000000000BANCO DO ESTADO DO RIO GRANDE DO SUL                                                                                                                S07 NPF00000000000000000000
111111912050000000000101000000043946400000000000000000021119873000002155933700000000000000000000000000BANRISUL GERAL CAMARA MOV 0001 1064/040801870-6                                                                                                     A08 SPF00000000150000000000
111115000000000000000101000000000000000000000000000000014036502000000711504900000069214530000000000000APLICAES FINANCEIRAS DE LIQUIDEZ IMEDIATA - USO GERAL                                                                                               S06 NPF00000000000000000000
111115003000000000000101000000000000000000000000000000014036502000000711504900000069214530000000000000FUNDOS DE INVESTIMENTO                                                                                                                              S07 NPF00000000000000000000
111115003220000000000101000000000000000000000000000000014036502000000711504900000069214530000000000000BANRISUL GERAL CAMARA APLIC 0001 1064/040801870-6                                                                                                   A08 SPF00000000150000000000
111300000000000000000101000000000000000000000000000000000004824000000000482400000000000000000000000000CAIXA E EQUIVALENTES DE CAIXA - VALORES RESTITUVEIS E VINCULADOS                                                                                    S04 NPP00000000000000000000
111310000000000000000101000000000000000000000000000000000004824000000000482400000000000000000000000000DEPSITOS RESTITUVEIS E VALORES VINCULADOS - CONSOLIDAO                                                                                              S05 NPF00000000000000000000
111310100000000000000101000000000000000000000000000000000004824000000000482400000000000000000000000000DEPSITOS CONSIGNADOS                                                                                                                                S06 NPF00000000000000000000
111310104000000000000101000000000000000000000000000000000004824000000000482400000000000000000000000000BANRISUL CM RETENCOES MOV 8001 1064/040801870-6                                                                                                     A07 SPF00000000186900000000
113000000000000000000101000000000000000000000000000000173000000000001408368500001589163150000000000000DEMAIS CRDITOS E VALORES A CURTO PRAZO                                                                                                              S03 NPP00000000000000000000
113800000000000000000101000000000000000000000000000000173000000000001408368500001589163150000000000000OUTROS CRDITOS A RECEBER E VALORES A CURTO PRAZO                                                                                                    S04 NPP00000000000000000000
113820000000000000000101000000000000000000000000000000173000000000001408368500001589163150000000000000OUTROS CRDITOS A RECEBER E VALORES A CURTO PRAZO - INTRA-OFSS                                                                                       S05 NPP00000000000000000000
113829900000000000000101000000000000000000000000000000173000000000001408368500001589163150000000000000OUTROS CRDITOS A RECEBER E VALORES DE  CURTO PRAZO - INTRA-OFSS                                                                                     S06 NPP00000000000000000000
113829901000000000000101000000000000000000000000000000173000000000001408368500001589163150000000000000DUODECIMO A RECEBER DO EXECUTIVO - INTRA-OFSS                                                                                                       A07 SPP00000000150000000000
115000000000000000000101000000052689500000000000000000000000000000000000000000000005268950000000000000ESTOQUES                                                                                                                                            S03 NPP00000000000000000000
115600000000000000000101000000052689500000000000000000000000000000000000000000000005268950000000000000ALMOXARIFADO                                                                                                                                        S04 NPP00000000000000000000
115610000000000000000101000000052689500000000000000000000000000000000000000000000005268950000000000000ALMOXARIFADO - CONSOLIDAO                                                                                                                           S05 NPP00000000000000000000
115619900000000000000101000000052689500000000000000000000000000000000000000000000005268950000000000000OUTROS - ALMOXARIFADO                                                                                                                               A06 SPP00000000150100000000
119000000000000000000101000000000750000000000000000000000000000000000000125000000000062500000000000000VARIAES PATRIMONIAIS DIMINUTIVAS PAGAS ANTECIPADAMENTE                                                                                              S03 NPF00000000000000000000
119300000000000000000101000000000750000000000000000000000000000000000000125000000000062500000000000000ASSINATURAS E ANUIDADES A APROPRIAR                                                                                                                 S04 NPF00000000000000000000
119310000000000000000101000000000000000000000000000000000000000000000000125000000000000000000000001250ASSINATURAS E ANUIDADES A APROPRIAR - CONSOLIDAO                                                                                                    A05 SPP00000000150000000000
119310000000000000000101000000000750000000000000000000000000000000000000000000000000075000000000000000ASSINATURAS E ANUIDADES A APROPRIAR - CONSOLIDAO                                                                                                    A05 SPP00000000150100000000
120000000000000000000101000001043852200000000000000000000115200000000016511300000103886090000000000000ATIVO NO CIRCULANTE                                                                                                                                 S02 NPF00000000000000000000
123000000000000000000101000001043852200000000000000000000115200000000016511300000103886090000000000000IMOBILIZADO                                                                                                                                         S03 NPP00000000000000000000
123100000000000000000101000001382113800000000000000000000115200000000005760000000138787380000000000000BENS MVEIS                                                                                                                                          S04 NPP00000000000000000000
123110000000000000000101000001382113800000000000000000000115200000000005760000000138787380000000000000BENS MVEIS- CONSOLIDAO                                                                                                                              S05 NPP00000000000000000000
123110100000000000000101000000257872500000000000000000000000000000000000000000000025787250000000000000MQUINAS APARELHOS EQUIPAMENTOS E FERRAMENTAS                                                                                                        S06 NPP00000000000000000000
123110199000000000000101000000257872500000000000000000000000000000000000000000000025787250000000000000OUTRAS MQUINAS APARELHOS EQUIPAMENTOS E FERRAMENTAS                                                                                                 A07 SPP00000000150100000000
123110200000000000000101000000634623800000000000000000000000000000000000000000000063462380000000000000BENS DE INFORMTICA                                                                                                                                  S06 NPP00000000000000000000
123110201000000000000101000000475888300000000000000000000000000000000000000000000047588830000000000000EQUIPAMENTOS DE PROCESSAMENTO DE DADOS                                                                                                              A07 SPP00000000150100000000
123110202000000000000101000000158735500000000000000000000000000000000000000000000015873550000000000000EQUIPAMENTOS DE TECNOLOGIA DA INFORMAO                                                                                                              A07 SPP00000000150100000000
123110300000000000000101000000253159500000000000000000000000000000000000000000000025315950000000000000MVEIS E UTENSLIOS                                                                                                                                   S06 NPP00000000000000000000
123110301000000000000101000000046233200000000000000000000000000000000000000000000004623320000000000000APARELHOS E UTENSLIOS DOMSTICOS                                                                                                                     A07 SPP00000000150100000000
123110303000000000000101000000206926300000000000000000000000000000000000000000000020692630000000000000MOBILIRIO EM GERAL                                                                                                                                  A07 SPP00000000150100000000
123110400000000000000101000000233128000000000000000000000000000000000000000000000023312800000000000000MATERIAIS CULTURAIS EDUCACIONAIS E DE COMUNICAO                                                                                                     S06 NPP00000000000000000000
123110405000000000000101000000139963800000000000000000000000000000000000000000000013996380000000000000EQUIPAMENTOS PARA UDIO VDEO E FOTO                                                                                                                  A07 SPP00000000150100000000
123110499000000000000101000000093164200000000000000000000000000000000000000000000009316420000000000000OUTROS MATERIAIS CULTURAIS EDUCACIONAIS E DE COMUNICAO                                                                                              A07 SPP00000000150100000000
123119900000000000000101000000003330000000000000000000000115200000000005760000000000909000000000000000DEMAIS BENS MVEIS                                                                                                                                   S06 NPP00000000000000000000
123119908000000000000101000000000000000000000000000000000057600000000005760000000000000000000000000000BENS MVEIS A CLASSIFICAR                                                                                                                            A07 SPP00000000150000000000
123119999000000000000101000000003330000000000000000000000057600000000000000000000000909000000000000000OUTROS BENS MVEIS                                                                                                                                   S07 NPP00000000000000000000
123119999020000000000101000000000000000000000000000000000057600000000000000000000000576000000000000000MATERIAL PERMANENTE CONTROLADO POR RELAO CARGA                                                                                                      A08 SPP00000000150000000000
123119999020000000000101000000003330000000000000000000000000000000000000000000000000333000000000000000MATERIAL PERMANENTE CONTROLADO POR RELAO CARGA                                                                                                      A08 SPP00000000150100000000
123200000000000000000101000000360000000000000000000000000000000000000000000000000036000000000000000000BENS IMVEIS                                                                                                                                         S04 NPP00000000000000000000
123210000000000000000101000000360000000000000000000000000000000000000000000000000036000000000000000000BENS IMVEIS- CONSOLIDAO                                                                                                                             S05 NPP00000000000000000000
123210100000000000000101000000360000000000000000000000000000000000000000000000000036000000000000000000BENS DE USO ESPECIAL                                                                                                                                S06 NPP00000000000000000000
123210104000000000000101000000360000000000000000000000000000000000000000000000000036000000000000000000TERRENOS/GLEBAS                                                                                                                                     A07 SPP00000000150100000000
123800000000000000000101000000000000000000069826160000000000000000000010751300000000000000000007090129- DEPRECIAO EXAUSTO E AMORTIZAO ACUMULADAS                                                                                                          S04 NPP00000000000000000000
123810000000000000000101000000000000000000069826160000000000000000000010751300000000000000000007090129- DEPRECIAO EXAUSTO E AMORTIZAO ACUMULADAS - CONSOLIDAO                                                                                             S05 NPP00000000000000000000
123810100000000000000101000000000000000000069826160000000000000000000010751300000000000000000007090129- DEPRECIAO ACUMULADA  BENS MVEIS                                                                                                                   S06 NPP00000000000000000000
123810101000000000000101000000000000000000000000000000000000000000000001554700000000000000000000015547- DEPRECIAO ACUMULADA DE MQUINAS APARELHOS EQUIPAMENTOS E FERRAMENTAS                                                                               A07 SPP00000000150000000000
123810101000000000000101000000000000000000013697960000000000000000000000000000000000000000000001369796- DEPRECIAO ACUMULADA DE MQUINAS APARELHOS EQUIPAMENTOS E FERRAMENTAS                                                                               A07 SPP00000000150100000000
123810102000000000000101000000000000000000000000000000000000000000000007052800000000000000000000070528- DEPRECIAO ACUMULADA DE BENS DE INFORMTICA                                                                                                         A07 SPP00000000150000000000
123810102000000000000101000000000000000000032648150000000000000000000000000000000000000000000003264815- DEPRECIAO ACUMULADA DE BENS DE INFORMTICA                                                                                                         A07 SPP00000000150100000000
123810103000000000000101000000000000000000000000000000000000000000000000316300000000000000000000003163- DEPRECIAO ACUMULADA DE MVEIS E UTENSLIOS                                                                                                          A07 SPP00000000150000000000
123810103000000000000101000000000000000000010338070000000000000000000000000000000000000000000001033807- DEPRECIAO ACUMULADA DE MVEIS E UTENSLIOS                                                                                                          A07 SPP00000000150100000000
123810104000000000000101000000000000000000000000000000000000000000000001827500000000000000000000018275- DEPRECIAO ACUMULADA DE MATERIAIS CULTURAIS EDUCACIONAIS E DE COMUNICAO                                                                            A07 SPP00000000150000000000
123810104000000000000101000000000000000000013141980000000000000000000000000000000000000000000001314198- DEPRECIAO ACUMULADA DE MATERIAIS CULTURAIS EDUCACIONAIS E DE COMUNICAO                                                                            A07 SPP00000000150100000000
200000000000000000000101000000000000000000114123810000275766879000027869308100000000000000000014338583PASSIVO E PATRIMNIO LQUIDO                                                                                                                          S01 NPF00000000000000000000
210000000000000000000101000000000000000000001774220000009843378000001276958000000000000000000003103624PASSIVO CIRCULANTE                                                                                                                                  S02 NPF00000000000000000000
211000000000000000000101000000000000000000001774220000001090787000000256903300000000000000000001655668OBRIGAES TRABALHISTAS PREVIDENCIRIAS E ASSISTENCIAIS A PAGAR A CURTO PRAZO                                                                          S03 NPF00000000000000000000
211100000000000000000101000000000000000000001774220000001090787000000256903300000000000000000001655668PESSOAL A PAGAR                                                                                                                                     S04 NPF00000000000000000000
211110000000000000000101000000000000000000001774220000001090787000000256903300000000000000000001655668PESSOAL A PAGAR - CONSOLIDAO                                                                                                                        S05 NPF00000000000000000000
211110100000000000000101000000000000000000001774220000001090787000000256903300000000000000000001655668PESSOAL A PAGAR                                                                                                                                     S06 NPF00000000000000000000
211110102000000000000101000000000000000000000000000000000000000000000060513500000000000000000000605135DCIMO TERCEIRO SALRIO                                                                                                                               S07 NPP00000000000000000000
211110102010000000000101000000000000000000000000000000000000000000000060513500000000000000000000605135DCIMO TERCEIRO SALRIO P                                                                                                                             A08 SPP00000000150000000000
211110103000000000000101000000000000000000001774220000001090787000000196389800000000000000000001050533FRIAS                                                                                                                                               S07 NPP00000000000000000000
211110103010000000000101000000000000000000000000000000001090787000000196389800000000000000000000873111FRIAS P                                                                                                                                             A08 SPP00000000150000000000
211110103010000000000101000000000000000000001774220000000000000000000000000000000000000000000000177422FRIAS P                                                                                                                                             A08 SPP00000000150100000000
213000000000000000000101000000000000000000000000000000008664082000001011203800000000000000000001447956FORNECEDORES E CONTAS A PAGAR A CURTO PRAZO                                                                                                         S03 NPF00000000000000000000
213100000000000000000101000000000000000000000000000000008664082000001011203800000000000000000001447956FORNECEDORES E CONTAS A PAGAR NACIONAIS A CURTO PRAZO                                                                                               S04 NPF00000000000000000000
213110000000000000000101000000000000000000000000000000008664082000001011203800000000000000000001447956FORNECEDORES E CONTAS A PAGAR NACIONAIS A CURTO PRAZO - CONSOLIDAO                                                                                  S05 NPF00000000000000000000
213110100000000000000101000000000000000000000000000000008664082000001011203800000000000000000001447956FORNECEDORES NACIONAIS                                                                                                                              S06 NPF00000000000000000000
213110101000000000000101000000000000000000000000000000008664082000001011203800000000000000000001447956FORNECEDORES NO PARCELADOS A PAGAR                                                                                                                  S07 NPF00000000000000000000
213110101010000000000101000000000000000000000000000000008224618000000967257400000000000000000001447956FORNECEDORES DO EXERCICIO                                                                                                                           A08 SPF00000000150000000000
213110101020000000000101000000000000000000000000000000000439464000000043946400000000000000000000000000FORNECEDORES DE EXERCICIOS ANTERIORES                                                                                                               S08 NPF00000000000000000000
213110101021800000000101000000000000000000000000000000000439464000000043946400000000000000000000000000RESTOS A PAGAR 2024                                                                                                                                 A09 SPF00000000150000000000
218000000000000000000101000000000000000000000000000000000088509000000008850900000000000000000000000000ADIANTAMENTO DE CLIENTES E DEMAIS OBRIGAES A CURTO PRAZO                                                                                            S03 NPF00000000000000000000
218800000000000000000101000000000000000000000000000000000088509000000008850900000000000000000000000000VALORES RESTITUVEIS                                                                                                                                 S04 NPF00000000000000000000
218810000000000000000101000000000000000000000000000000000083685000000008368500000000000000000000000000VALORES RESTITUVEIS - CONSOLIDAO                                                                                                                    S05 NPF00000000000000000000
218810400000000000000101000000000000000000000000000000000083685000000008368500000000000000000000000000DEPSITOS NO JUDICIAIS                                                                                                                               S06 NPF00000000000000000000
218810499000000000000101000000000000000000000000000000000083685000000008368500000000000000000000000000OUTROS DEPSITOS                                                                                                                                     A07 SPF00000000186900000000
218820000000000000000101000000000000000000000000000000000004824000000000482400000000000000000000000000VALORES RESTITUVEIS  INTRA OFSS                                                                                                                     S05 NPF00000000000000000000
218829901000000000000101000000000000000000000000000000000004824000000000482400000000000000000000000000OUTROS VALORES RESTITUVEIS                                                                                                                          S07 NPP00000000000000000000
218829901010000000000101000000000000000000000000000000000004824000000000482400000000000000000000000000DESCONTOS A RECOLHER AO TESOURO MUNICIPAL                                                                                                           A08 SPF00000000186900000000
230000000000000000000101000000000000000000112349590000265923501000026592350100000000000000000011234959PATRIMNIO LIQUIDO                                                                                                                                   S02 NPF00000000000000000000
237000000000000000000101000000000000000000112349590000265923501000026592350100000000000000000011234959RESULTADOS ACUMULADOS                                                                                                                               S03 NP 00000000000000000000
237100000000000000000101000000000000000000112349590000265923501000026592350100000000000000000011234959SUPERVITS OU DFICITS ACUMULADOS                                                                                                                     S04 NP 00000000000000000000
237110000000000000000101000039226084100000000000000000126490575000012649057500003922608410000000000000SUPERVITS OU DFICITS ACUMULADOS - CONSOLIDAO                                                                                                        S05 NP 00000000000000000000
237110100000000000000101000000000000000000000000000000000000000000012649057500000000000000000126490575SUPERVITS OU DFICITS DO EXERCCIO                                                                                                                    A06 SP 00000000150000000000
237110100000000000000101000012649057500000000000000000000000000000000000000000001264905750000000000000SUPERVITS OU DFICITS DO EXERCCIO                                                                                                                    A06 SP 00000000150100000000
237110200000000000000101000000000000000000000000000000126490575000000000000000001264905750000000000000SUPERVITS OU DFICITS DE EXERCCIOS ANTERIORES                                                                                                        A06 SP 00000000150000000000
237110200000000000000101000026577026600000000000000000000000000000000000000000002657702660000000000000SUPERVITS OU DFICITS DE EXERCCIOS ANTERIORES                                                                                                        A06 SP 00000000150100000000
237120000000000000000101000000000000000004898552950000133096013000013309601300000000000000000489855295SUPERVITS OU DFICITS ACUMULADOS - INTRA OFSS                                                                                                        S05 NP 00000000000000000000
237120100000000000000101000000000000000000000000000000133096013000000000000000001330960130000000000000SUPERVITS OU DFICITS DO EXERCCIO                                                                                                                    A06 SP 00000000150000000000
237120100000000000000101000000000000000001330960130000000000000000000000000000000000000000000133096013SUPERVITS OU DFICITS DO EXERCCIO                                                                                                                    A06 SP 00000000150100000000
237120200000000000000101000000000000000000000000000000000000000000013309601300000000000000000133096013SUPERVITS OU DFICITS DE EXERCCIOS ANTERIORES                                                                                                        A06 SP 00000000150000000000
237120200000000000000101000000000000000003567592820000000000000000000000000000000000000000000356759282SUPERVITS OU DFICITS DE EXERCCIOS ANTERIORES                                                                                                        A06 SP 00000000150100000000
237130000000000000000101000008635949500000000000000000006336913000000633691300000863594950000000000000SUPERVITS OU DFICITS ACUMULADOS - INTER OFSS - UNIO                                                                                                 S05 NP 00000000000000000000
237130100000000000000101000000000000000000000000000000000000000000000633691300000000000000000006336913SUPERVITS OU DFICITS DO EXERCCIO                                                                                                                    A06 SP 00000000150000000000
237130100000000000000101000000633691300000000000000000000000000000000000000000000063369130000000000000SUPERVITS OU DFICITS DO EXERCCIO                                                                                                                    A06 SP 00000000150100000000
237130200000000000000101000000000000000000000000000000006336913000000000000000000063369130000000000000SUPERVITS OU DFICITS DE EXERCCIOS ANTERIORES                                                                                                        A06 SP 00000000150000000000
237130200000000000000101000008002258200000000000000000000000000000000000000000000800225820000000000000SUPERVITS OU DFICITS DE EXERCCIOS ANTERIORES                                                                                                        A06 SP 00000000150100000000
300000000000000000000101000000000000000000000000000000025311553000000064880700000246627460000000000000VARIAO PATRIMONIAL DIMINUTIVA                                                                                                                       S01 NP 00000000000000000000
310000000000000000000101000000000000000000000000000000010175220000000064880700000095264130000000000000PESSOAL E ENCARGOS                                                                                                                                  S02 NP 00000000000000000000
311000000000000000000101000000000000000000000000000000009242102000000064880700000085932950000000000000REMUNERAO A PESSOAL                                                                                                                                 S03 NP 00000000000000000000
311100000000000000000101000000000000000000000000000000003840401000000064880700000031915940000000000000REMUNERAO A PESSOAL ATIVO CIVIL  ABRANGIDOS PELO RPPS                                                                                               S04 NP 00000000000000000000
311110000000000000000101000000000000000000000000000000003840401000000064880700000031915940000000000000REMUNERAO A PESSOAL ATIVO CIVIL  ABRANGIDOS PELO RPPS - CONSOLIDAO                                                                                  S05 NP 00000000000000000000
311110100000000000000101000000000000000000000000000000003840401000000064880700000031915940000000000000VENCIMENTOS E VANTAGENS FIXAS - PESSOAL CIVIL - RPPS                                                                                                S06 NP 00000000000000000000
311110101000000000000101000000000000000000000000000000002147523000000064880700000014987160000000000000VENCIMENTOS E SALRIOS                                                                                                                               A07 SP 00000000150000000000
311110106000000000000101000000000000000000000000000000000065675000000000000000000000656750000000000000ADICIONAL DE INSALUBRIDADE                                                                                                                          A07 SP 00000000150000000000
311110118000000000000101000000000000000000000000000000000028330000000000000000000000283300000000000000GRATIFICAO DE TEMPO DE SERVIO                                                                                                                       A07 SP 00000000150000000000
31111012200000000000010100000000000000000000000000000000009450700000000000000000000094507000000000000013 SALRIO                                                                                                                                           A07 SP 00000000150000000000
311110124000000000000101000000000000000000000000000000001504366000000000000000000015043660000000000000FRIAS  ABONO CONSTITUCIONAL                                                                                                                         A07 SP 00000000150000000000
311200000000000000000101000000000000000000000000000000005401701000000000000000000054017010000000000000REMUNERAO A PESSOAL ATIVO CIVIL  ABRANGIDOS PELO RGPS                                                                                               S04 NP 00000000000000000000
311210000000000000000101000000000000000000000000000000005401701000000000000000000054017010000000000000REMUNERAO A PESSOAL ATIVO CIVIL  ABRANGIDOS PELO RGPS - CONSOLIDAO                                                                                  S05 NP 00000000000000000000
311210100000000000000101000000000000000000000000000000005401701000000000000000000054017010000000000000VENCIMENTOS E VANTAGENS FIXAS - PESSOAL CIVIL - RGPS                                                                                                S06 NP 00000000000000000000
31121012200000000000010100000000000000000000000000000000051062800000000000000000000510628000000000000013 SALRIO                                                                                                                                           A07 SP 00000000150000000000
311210124000000000000101000000000000000000000000000000000045953000000000000000000000459530000000000000FRIAS - ABONO CONSTITUCIONAL                                                                                                                        A07 SP 00000000150000000000
311210128000000000000101000000000000000000000000000000000173040000000000000000000001730400000000000000REPRESENTAO MENSAL                                                                                                                                  A07 SP 00000000150000000000
311210131000000000000101000000000000000000000000000000004672080000000000000000000046720800000000000000SUBSDIOS                                                                                                                                            A07 SP 00000000150000000000
312000000000000000000101000000000000000000000000000000000933118000000000000000000009331180000000000000ENCARGOS PATRONAIS                                                                                                                                  S03 NP 00000000000000000000
312100000000000000000101000000000000000000000000000000000286393000000000000000000002863930000000000000ENCARGOS PATRONAIS - RPPS                                                                                                                           S04 NP 00000000000000000000
312120000000000000000101000000000000000000000000000000000286393000000000000000000002863930000000000000ENCARGOS PATRONAIS - RPPS - INTRA OFSS                                                                                                              S05 NP 00000000000000000000
312120100000000000000101000000000000000000000000000000000286393000000000000000000002863930000000000000CONTRIBUIO PATRONAL PARA O RPPS                                                                                                                     A06 SP 00000000150000000000
312200000000000000000101000000000000000000000000000000000646725000000000000000000006467250000000000000ENCARGOS PATRONAIS - RGPS                                                                                                                           S04 NP 00000000000000000000
312230000000000000000101000000000000000000000000000000000646725000000000000000000006467250000000000000ENCARGOS PATRONAIS - RGPS - INTER OFSS - UNIO                                                                                                       S05 NP 00000000000000000000
312230100000000000000101000000000000000000000000000000000646725000000000000000000006467250000000000000CONTRIBUIES PREVIDENCIRIAS - RGPS                                                                                                                   A06 SP 00000000150000000000
330000000000000000000101000000000000000000000000000000001052648000000000000000000010526480000000000000USO DE BENS SERVIOS E CONSUMO DE CAPITAL FIXO                                                                                                       S02 NP 00000000000000000000
331000000000000000000101000000000000000000000000000000000488702000000000000000000004887020000000000000USO DE MATERIAL DE CONSUMO                                                                                                                          S03 NP 00000000000000000000
331100000000000000000101000000000000000000000000000000000488702000000000000000000004887020000000000000CONSUMO DE MATERIAL                                                                                                                                 S04 NP 00000000000000000000
331110000000000000000101000000000000000000000000000000000488702000000000000000000004887020000000000000CONSUMO DE MATERIAL - CONSOLIDAO                                                                                                                    S05 NP 00000000000000000000
331110600000000000000101000000000000000000000000000000000345752000000000000000000003457520000000000000GNEROS ALIMENTAO                                                                                                                                    A06 SP 00000000150000000000
331111500000000000000101000000000000000000000000000000000016000000000000000000000000160000000000000000MATERIAL PARA FESTIVIDADES E HOMENAGENS                                                                                                             A06 SP 00000000150000000000
331111600000000000000101000000000000000000000000000000000099950000000000000000000000999500000000000000MATERIAL DE EXPEDIENTE                                                                                                                              A06 SP 00000000150000000000
331112400000000000000101000000000000000000000000000000000027000000000000000000000000270000000000000000MATERIAL PARA MANUTENO DE BENS IMVEIS E INSTALAES                                                                                                   A06 SP 00000000150000000000
332000000000000000000101000000000000000000000000000000000456433000000000000000000004564330000000000000SERVIOS                                                                                                                                             S03 NP 00000000000000000000
332300000000000000000101000000000000000000000000000000000456433000000000000000000004564330000000000000SERVIOS TERCEIROS - PJ                                                                                                                              S04 NP 00000000000000000000
332310000000000000000101000000000000000000000000000000000456433000000000000000000004564330000000000000SERVIOS TERCEIROS - PJ - CONSOLIDAO                                                                                                                 S05 NP 00000000000000000000
332310400000000000000101000000000000000000000000000000000017783000000000000000000000177830000000000000COMUNICAO                                                                                                                                           A06 SP 00000000150000000000
332310600000000000000101000000000000000000000000000000000105000000000000000000000001050000000000000000MANUTENO E CONSERVAO                                                                                                                                A06 SP 00000000150000000000
332311000000000000000101000000000000000000000000000000000063000000000000000000000000630000000000000000LOCAES                                                                                                                                              A06 SP 00000000150000000000
332311100000000000000101000000000000000000000000000000000029400000000000000000000000294000000000000000SERVIOS RELACIONADOS  TECNOLOGIA DA INFORMAO                                                                                                        A06 SP 00000000150000000000
332311400000000000000101000000000000000000000000000000000001250000000000000000000000012500000000000000ASSINATURAS DE PERIODICOS E ANUIDADES                                                                                                               A06 SP 00000000150000000000
332313600000000000000101000000000000000000000000000000000240000000000000000000000002400000000000000000SERVIOS DE UDIO VDEO E FOTO                                                                                                                         A06 SP 00000000150000000000
333000000000000000000101000000000000000000000000000000000107513000000000000000000001075130000000000000DEPRECIAO AMORTIZAO E EXAUSTO                                                                                                                       S03 NP 00000000000000000000
333100000000000000000101000000000000000000000000000000000107513000000000000000000001075130000000000000DEPRECIAO                                                                                                                                           S04 NP 00000000000000000000
333110000000000000000101000000000000000000000000000000000107513000000000000000000001075130000000000000DEPRECIAO - CONSOLIDAO                                                                                                                              S05 NP 00000000000000000000
333110100000000000000101000000000000000000000000000000000107513000000000000000000001075130000000000000DEPRECIAO DE IMOBILIZADO                                                                                                                            S06 NP 00000000000000000000
333110101000000000000101000000000000000000000000000000000107513000000000000000000001075130000000000000DEPRECIAO DE BENS MVEIS                                                                                                                             A07 SP 00000000150000000000
360000000000000000000101000000000000000000000000000000014083685000000000000000000140836850000000000000DESVALORIZAO E PERDA DE ATIVOS E INCORPORAO DE PASSIVOS                                                                                             S02 NP 00000000000000000000
365000000000000000000101000000000000000000000000000000014083685000000000000000000140836850000000000000DESINCORPORAO DE ATIVOS                                                                                                                             S03 NP 00000000000000000000
365100000000000000000101000000000000000000000000000000014083685000000000000000000140836850000000000000DESINCORPORAO DE ATIVOS                                                                                                                             S04 NP 00000000000000000000
365120000000000000000101000000000000000000000000000000014083685000000000000000000140836850000000000000DESINCORPORAO DE ATIVOS - INTRA OFSS                                                                                                                S05 NP 00000000000000000000
365120300000000000000101000000000000000000000000000000014083685000000000000000000140836850000000000000DESINCORPORAO DE CREDITOS A RECEBER - INTRA-OFSS                                                                                                    A06 SP 00000000150000000000
400000000000000000000101000000000000000000000000000000000000000000018708368500000000000000000187083685VARIAO PATRIMONIAL AUMENTATIVA                                                                                                                      S01 NP 00000000000000000000
450000000000000000000101000000000000000000000000000000000000000000001408368500000000000000000014083685TRANSFERNCIAS E DELEGAES RECEBIDAS                                                                                                                  S02 NP 00000000000000000000
451000000000000000000101000000000000000000000000000000000000000000001408368500000000000000000014083685TRANSFERNCIAS INTRAGOVERNAMENTAIS                                                                                                                   S03 NP 00000000000000000000
451100000000000000000101000000000000000000000000000000000000000000001408368500000000000000000014083685TRANSFERNCIAS RECEBIDAS PARA A EXECUO ORAMENTRIA                                                                                                    S04 NP 00000000000000000000
451120000000000000000101000000000000000000000000000000000000000000001408368500000000000000000014083685TRANSFERNCIAS RECEBIDAS PARA A EXECUO ORAMENTRIA - INTRA OFSS                                                                                       S05 NP 00000000000000000000
451120200000000000000101000000000000000000000000000000000000000000001408368500000000000000000014083685REPASSE RECEBIDO                                                                                                                                    A06 SP 00000000150000000000
490000000000000000000101000000000000000000000000000000000000000000017300000000000000000000000173000000OUTRAS VARIAES PATRIMONIAIS AUMENTATIVAS                                                                                                            S02 NP 00000000000000000000
499000000000000000000101000000000000000000000000000000000000000000017300000000000000000000000173000000DIVERSAS VARIAES PATRIMONIAIS AUMENTATIVAS                                                                                                          S03 NP 00000000000000000000
499900000000000000000101000000000000000000000000000000000000000000017300000000000000000000000173000000VARIAES PATRIMONIAIS AUMENTATIVAS DECORRENTES DE FATOS GERADORES DIVERSOS                                                                           S04 NP 00000000000000000000
499920000000000000000101000000000000000000000000000000000000000000017300000000000000000000000173000000VARIAES PATRIMONIAIS AUMENTATIVAS DECORRENTES DE FATOS GERADORES DIVERSOS - INTRA-OFSS                                                              S05 NP 00000000000000000000
499920100000000000000101000000000000000000000000000000000000000000017300000000000000000000000173000000DUODECIMO LEGISLATIVO - INTRA-OFSS                                                                                                                  A06 SP 00000000150000000000
500000000000000000000101000000043946400000000000000000185890435000000150185000001848280490000000000000CONTROLES DA APROVAO DO PLANEJAMENTO E ORAMENTO                                                                                                     S01 NO 00000000000000000000
520000000000000000000101000000000000000000000000000000185450971000000106238600001843885850000000000000ORAMENTO APROVADO                                                                                                                                   S02 NO 00000000000000000000
522000000000000000000101000000000000000000000000000000185450971000000106238600001843885850000000000000FIXAO DA DESPESA                                                                                                                                    S03 NO 00000000000000000000
522100000000000000000101000000000000000000000000000000173000000000000000000000001730000000000000000000DOTAO ORAMENTRIA                                                                                                                                    S04 NO 00000000000000000000
522110000000000000000101000000000000000000000000000000173000000000000000000000001730000000000000000000DOTAO INICIAL                                                                                                                                       S05 NO 00000000000000000000
522110100000000000000101000000000000000000000000000000173000000000000000000000001730000000000000000000CREDITO INICIAL                                                                                                                                     A06 SO 00000000150000000000
522900000000000000000101000000000000000000000000000000012450971000000106238600000113885850000000000000OUTROS CONTROLES DA DESPESA ORAMENTRIA                                                                                                              S04 NO 00000000000000000000
522920000000000000000101000000000000000000000000000000012450971000000106238600000113885850000000000000EMPENHOS POR EMISSO                                                                                                                                 S05 NO 00000000000000000000
522920100000000000000101000000000000000000000000000000012450971000000106238600000113885850000000000000EXECUO DA DESPESA POR NOTA DE EMPENHO                                                                                                               S06 NO 00000000000000000000
522920101000000000000101000000000000000000000000000000012450971000000106238600000113885850000000000000EMISSAO DE EMPENHOS                                                                                                                                 A07 SO 00000000150000000000
530000000000000000000101000000043946400000000000000000000439464000000043946400000004394640000000000000INSCRIO DE RESTOS A PAGAR                                                                                                                           S02 NO 00000000000000000000
531000000000000000000101000000043946400000000000000000000439464000000043946400000004394640000000000000INSCRIO DE RP NO PROCESSADOS                                                                                                                        S03 NO 00000000000000000000
531100000000000000000101000000000000000000000000000000000439464000000000000000000004394640000000000000RP NO PROCESSADOS INSCRITOS                                                                                                                         A04 SO 00000000150000000000
531700000000000000000101000000000000000000000000000000000000000000000043946400000000000000000000439464RP NO PROCESSADOS - INSCRIO NO EXERCCIO                                                                                                             A04 SO 00000000150000000000
531700000000000000000101000000043946400000000000000000000000000000000000000000000004394640000000000000RP NO PROCESSADOS - INSCRIO NO EXERCCIO                                                                                                             A04 SO 00000000150100000000
600000000000000000000101000000000000000000004394640000051688519000023607710400000000000000000184828049CONTROLES DA EXECUO DO PLANEJAMENTO E ORAMENTO                                                                                                      S01 NO 00000000000000000000
620000000000000000000101000000000000000000000000000000050370127000023475871200000000000000000184388585EXECUO DO ORAMENTO                                                                                                                                  S02 NO 00000000000000000000
622000000000000000000101000000000000000000000000000000050370127000023475871200000000000000000184388585EXECUO DA DESPESA                                                                                                                                   S03 NO 00000000000000000000
622100000000000000000101000000000000000000000000000000031410549000020441054900000000000000000173000000DISPONIBILIDADES DE CREDITO                                                                                                                         S04 NO 00000000000000000000
622110000000000000000101000000000000000000000000000000012450971000017406238600000000000000000161611415CREDITO DISPONVEL                                                                                                                                   A05 SO 00000000150000000000
622130000000000000000101000000000000000000000000000000018959578000003034816300000000000000000011388585CREDITO UTILIZADO                                                                                                                                   S05 NO 00000000000000000000
622130100000000000000101000000000000000000000000000000010734960000001351335700000000000000000002778397CREDITO EMPENHADO A LIQUIDAR                                                                                                                        A06 SO 00000000150000000000
622130300000000000000101000000000000000000000000000000008224618000000967257400000000000000000001447956CREDITO EMPENHADO LIQUIDADO A PAGAR                                                                                                                 A06 SO 00000000150000000000
622130400000000000000101000000000000000000000000000000000000000000000716223200000000000000000007162232CREDITO EMPENHADO LIQUIDADO PAGO                                                                                                                    A06 SO 00000000150000000000
622900000000000000000101000000000000000000000000000000018959578000003034816300000000000000000011388585OUTROS CONTROLES DA DESPESA ORAMENTRIA                                                                                                              S04 NO 00000000000000000000
622920000000000000000101000000000000000000000000000000018959578000003034816300000000000000000011388585EMISSO DE EMPENHO                                                                                                                                   S05 NO 00000000000000000000
622920100000000000000101000000000000000000000000000000018959578000003034816300000000000000000011388585EMPENHOS POR NOTA DE EMPENHO                                                                                                                        S06 NO 00000000000000000000
622920101000000000000101000000000000000000000000000000010734960000001351335700000000000000000002778397EMPENHOS A LIQUIDAR                                                                                                                                 A07 SO 00000000150000000000
622920103000000000000101000000000000000000000000000000008224618000000967257400000000000000000001447956EMPENHOS LIQUIDADOS A PAGAR                                                                                                                         A07 SO 00000000150000000000
622920104000000000000101000000000000000000000000000000000000000000000716223200000000000000000007162232EMPENHOS LIQUIDADOS PAGOS                                                                                                                           A07 SO 00000000150000000000
630000000000000000000101000000000000000000004394640000001318392000000131839200000000000000000000439464EXECUO DE RESTOS A PAGAR                                                                                                                            S02 NO 00000000000000000000
631000000000000000000101000000000000000000004394640000001318392000000131839200000000000000000000439464EXECUO DE RP NO PROCESSADOS                                                                                                                         S03 NO 00000000000000000000
631100000000000000000101000000000000000000000000000000000439464000000043946400000000000000000000000000RP NO PROCESSADOS A LIQUIDAR                                                                                                                        A04 SO 00000000150000000000
631300000000000000000101000000000000000000000000000000000439464000000043946400000000000000000000000000RP NO PROCESSADOS LIQUIDADOS A PAGAR                                                                                                                A04 SO 00000000150000000000
631400000000000000000101000000000000000000000000000000000000000000000043946400000000000000000000439464RP NO PROCESSADOS PAGOS                                                                                                                             A04 SO 00000000150000000000
631700000000000000000101000000000000000000004394640000000439464000000000000000000000000000000000000000RP NO PROCESSADOS - INSCRIO NO EXERCCIO                                                                                                             S04 NO 00000000000000000000
631710000000000000000101000000000000000000004394640000000439464000000000000000000000000000000000000000RP NO PROCESSADOS A LIQUIDAR - INSCRIO NO EXERCCIO                                                                                                  A05 SO 00000000150000000000
700000000000000000000101000000736716300000000000000000018168509000000692769900000186079730000000000000CONTROLES DEVEDORES                                                                                                                                 S01 NC 00000000000000000000
710000000000000000000101000000692769900000000000000000004080000000000692769900000040800000000000000000ATOS POTENCIAIS                                                                                                                                     S02 NC 00000000000000000000
712000000000000000000101000000692769900000000000000000004080000000000692769900000040800000000000000000ATOS POTENCIAIS PASSIVOS                                                                                                                            S03 NC 00000000000000000000
712300000000000000000101000000692769900000000000000000004080000000000692769900000040800000000000000000OBRIGAES CONTRATUAIS                                                                                                                                S04 NC 00000000000000000000
712310000000000000000101000000692769900000000000000000004080000000000692769900000040800000000000000000OBRIGAES CONTRATUAIS - CONSOLIDAO                                                                                                                   S05 NC 00000000000000000000
712310200000000000000101000000000000000000000000000000004080000000000692769900000000000000000002847699CONTRATOS DE SERVIOS                                                                                                                                A06 SC 00000000150000000000
712310200000000000000101000000692769900000000000000000000000000000000000000000000069276990000000000000CONTRATOS DE SERVIOS                                                                                                                                A06 SC 00000000150100000000
720000000000000000000101000000043946400000000000000000014088509000000000000000000145279730000000000000ADMINISTRAO FINANCEIRA                                                                                                                              S02 NC 00000000000000000000
721000000000000000000101000000043946400000000000000000014088509000000000000000000145279730000000000000DISPONIBILIDADES POR DESTINAO                                                                                                                       S03 NC 00000000000000000000
721100000000000000000101000000043946400000000000000000014088509000000000000000000145279730000000000000CONTROLE DA DISPONIBILIDADE DE RECURSOS                                                                                                             S04 NC 00000000000000000000
721110000000000000000101000000043946400000000000000000014083685000000000000000000145231490000000000000RECURSOS ORDINRIOS                                                                                                                                  S05 NC 00000000000000000000
721110500000000000000101000000043946400000000000000000014083685000000000000000000145231490000000000000DDR RECURSO ORDINRIOS - RECURSOS NO VINCULADOS DE IMPOSTOS                                                                                          A06 SC 00000000150000000000
721130000000000000000101000000000000000000000000000000000004824000000000000000000000048240000000000000RECURSOS EXTRA-ORAMENTRIOS                                                                                                                          S05 NC 00000000000000000000
721130869000000000000101000000000000000000000000000000000004824000000000000000000000048240000000000000DDR RECURSO VINCULADOS - OUTROS RECURSOS EXTRAORAMENTRIOS                                                                                           A07 SC 00000000186900000000
800000000000000000000101000000000000000000073671630000039554888000005079569800000000000000000018607973CONTROLES CREDORES                                                                                                                                  S01 NC 00000000000000000000
810000000000000000000101000000000000000000069276990000007260587000000441288800000000000000000004080000EXECUO DOS ATOS POTENCIAIS                                                                                                                          S02 NC 00000000000000000000
812000000000000000000101000000000000000000069276990000007260587000000441288800000000000000000004080000EXECUO DOS ATOS POTENCIAIS PASSIVOS                                                                                                                 S03 NC 00000000000000000000
812300000000000000000101000000000000000000069276990000007260587000000441288800000000000000000004080000EXECUO DE OBRIGAES CONTRATUAIS                                                                                                                      S04 NC 00000000000000000000
812310000000000000000101000000000000000000069276990000007260587000000441288800000000000000000004080000EXECUO DE OBRIGAES -CONSOLIDAO                                                                                                                      S05 NC 00000000000000000000
812310200000000000000101000000000000000000069276990000007260587000000441288800000000000000000004080000CONTRATOS DE SERVIOS                                                                                                                                S06 NC 00000000000000000000
812310201000000000000101000000000000000000000000000000000332888000000408000000000000000000000003747112A EXECUTAR                                                                                                                                          A07 SC 00000000150000000000
812310202000000000000101000000000000000000000000000000006927699000000033288800000065948110000000000000EXECUTADOS                                                                                                                                          A07 SC 00000000150000000000
812310202000000000000101000000000000000000069276990000000000000000000000000000000000000000000006927699EXECUTADOS                                                                                                                                          A07 SC 00000000150100000000
820000000000000000000101000000000000000000004394640000032294301000004638281000000000000000000014527973EXECUO DA ADMINISTRAO FINANCEIRA                                                                                                                    S02 NC 00000000000000000000
821000000000000000000101000000000000000000004394640000032294301000004638281000000000000000000014527973EXECUO DAS DISPONIBILIDADES POR DESTINAO                                                                                                            S03 NC 00000000000000000000
821100000000000000000101000000000000000000004394640000032294301000004638281000000000000000000014527973EXECUO DA DISPONIBILIDADE DE RECURSOS                                                                                                               S04 NC 00000000000000000000
821110000000000000000101000000000000000000000000000000012450971000001514607100000000000000000002695100DISPONIBILIDADE POR DESTINAO DE RECURSOS                                                                                                            S05 NC 00000000000000000000
821110100000000000000101000000000000000000000000000000012450971000001514607100000000000000000002695100RECURSOS DISPONVEIS PARA O EXERCCIO                                                                                                                 S06 NC 00000000000000000000
821110105000000000000101000000000000000000000000000000012450971000001514607100000000000000000002695100DDR DISPONVEIS PARA O EXERCCIO - RECURSOS NO VINCULADOS DE IMPOSTOS                                                                                 A07 SC 00000000150000000000
821120000000000000000101000000000000000000004394640000011174424000001351335700000000000000000002778397DISPONIBILIDADE POR DESTINAO DE RECURSOS COMPROMETIDA POR EMPENHO                                                                                   S05 NC 00000000000000000000
821120105000000000000101000000000000000000004394640000011174424000001351335700000000000000000002778397DDR COMPROMETIDA POR EMPENHO - RECURSOS NO VINCULADOS DE IMPOSTOS                                                                                   A07 SC 00000000150000000000
821130000000000000000101000000000000000000000000000000008668906000001011686200000000000000000001447956DISPONIBILIDADE POR DESTINAO DE RECURSOS COMPROMETIDA POR LIQUIDAO E ENTRADAS COMPENSATRIAS                                                         S05 NC 00000000000000000000
821130100000000000000101000000000000000000000000000000008664082000001011203800000000000000000001447956COMPROMETIDA POR LIQUIDAO                                                                                                                           S06 NC 00000000000000000000
821130105000000000000101000000000000000000000000000000008664082000001011203800000000000000000001447956DDR COMPROMETIDA POR LIQUIDAO - RECURSOS NO VINCULADOS DE IMPOSTOS                                                                                  A07 SC 00000000150000000000
821130200000000000000101000000000000000000000000000000000004824000000000482400000000000000000000000000COMPROMETIDA POR RETENES E CONSIGNAES                                                                                                               S06 NC 00000000000000000000
821130208690000000000101000000000000000000000000000000000004824000000000482400000000000000000000000000DDR COMPROMETIDA POR RETENES E CONSIGNAES - OUTROS RECURSOS EXTRAORAMENTRIOS                                                                        A08 SC 00000000186900000000
821140000000000000000101000000000000000000000000000000000000000000000760652000000000000000000007606520DISPONIBILIDADE POR DESTINAO DE RECURSOS UTILIZADA                                                                                                  S05 NC 00000000000000000000
821140100000000000000101000000000000000000000000000000000000000000000760169600000000000000000007601696UTILIZADA COM EXECUO ORAMENTRIA                                                                                                                     S06 NC 00000000000000000000
821140105000000000000101000000000000000000000000000000000000000000000760169600000000000000000007601696DDR UTILIZADA COM EXECUO ORAMENTRIA - RECURSOS NO VINCULADOS DE IMPOSTOS                                                                            A07 SC 00000000150000000000
821140208690000000000101000000000000000000000000000000000000000000000000482400000000000000000000004824DDR UTILIZADA COM EXECUO EXTRA ORAMENTRIA - OUTROS RECURSOS EXTRAORAMENTRIOS                                                                        A08 SC 00000000186900000000
FINALIZADOR0000000248