12292535000162010120253101202527022025CAMARA DE VEREADORES DE INDEPENDENCIA-RS                                        
0000000006FPSM - CONTRIBUICAO AO FAPS                                 12091144000180000000000000000000000000000000RUA SENADOR PINHEIRO                              INDEPENDENCIA                 RS989150000000000000000000000000000000000102
0000000038CREA - CONSREGDE ENGARQE AGRDO RGS                          92695790000195000000000000000000000000000000PORTO ALEGRE                                      PORTO ALEGRE                  RS904080000000000000000000000000000000000102
0000000052ANTONIO AVELINO FERREIRA                                    00046252240044000000000000000000000000000000MOTORISTA/VEREADOR                                INDEPENDENCIA                 RS989150000000000000000000000000000000000101
0000000077VIAAO OURO E PRATA S/A                                      92954106000142962042935000000000000000000000PIX EMAIL FATURAMENTOOUROEPRATACOM                PORTO ALEGRE                  RS900109085133758563000000000000000000000102
0000000149OI - BRASIL TELECOM SA- 51-074-6918NET                      76535764000224962845833000000000000000000000AVBORGES DE MEDEIROS512                           PORTO ALEGRE                  RS989150008000310800000000000000000000000102
0000000150JAIR CESAR SOUZA                                            00050056190034000000000000000000000000000000MOTORISTA                                         INDEPENDENCIA                 RS989150005599646188000000000000000000000101
0000000155INSS - CONTRIBUICAO AO INSS                                 29979036000140000000000000000000000000000000SEM ENDEREO                                       INDEPENDENCIA                 RS989150000000000000000000000000000000000102
0000000166ORIDES ZIMERMANN DE OLIVEIRA - ME                           87687463000151000000000000000000000000000000AVTRES DE MAIO 1023                               INDEPENDENCIA                 RS989150005596154923000000000000000000000102
0000000167ABASE SISTEMAS E SOLUOES LTDA                               93088649000197147002547400000000000000000000AVSENALBERTO PASQUALINI 347                       TRES DE MAIO                  RS989100003535490000000000000000000000000102
0000000187COTRIMAIO - COOP AGROPECUARIA AULTDA                        98042120004577198000336700000000000000000000AV TRES DE MAIO 1101                              INDEPENDENCIA                 RS989150005553912110000000000000000000000102
0000000208NELI TEREZINHA VARGAS DE OLIVEIRA - ME                      92596725000102000000000000000000000000000000AV TRES DE MAIO 1005                              INDEPENDENCIA                 RS989150003539148700000000000000000000000102
0000000209LOJAS QUERO-QUERO S/A                                       96418264002425147002125900000000000000000000RUA PADRE CACIQUE 1100                            TRES DE MAIO                  RS989100003535975000000000000000000000000102
0000000213FOLHA DE PGTO - SERVIDORES DIVERSOS                         87612826000190000000000000000000000000000000RUA SENADOR PINHEIRO 1348                         INDEPENDENCIA                 RS989150000000000000000000000000000000000102
0000000218SR - INDUSTRIA GRAFICA LTDA                                 94692555000195620019506000000000000000000000RUA DAHNE DE ABREU536                             HORIZONTINA                   RS989200003537146491540000000000000000000102
0000000222ADILAR MELLER                                               00056028326020000000000000000000000000000000MOTORISTA E VEREADOR                              INDEPENDENCIA                 RS989150000000000000000000000000000000000101
0000000223CORSAN - COMP RIOGRANDENSE DE SANEAMENTO                    92802784000190198000000000000000000000000000AV TRES DE MAIO 646/0                             INDEPENDENCIA                 RS989150001451321558100000000000000000000102
0000000240JOSE DA SILVA RICHTER  - PF                                 00048575828053000000000000000000000000000000AV TRES DE MAIO 1190 AP 5                         INDEPENDENCIA                 RS989150005599607415100000000000000000000101
0000000247FOLHA DE PAGTO - VEREADORES                                 12292535000162000000000000000000000000000000RUA SENADOR PINHEIR 1348                          INDEPENDENCIA                 RS989150000000000000000000000000000000000102
0000000266JORNAL SEMANAL LTDA                                         92152651000115147000000100000000000000000000RUA SANTO ANGELO N 413 SALA 4                     TRES DE MAIO                  RS989100005535351030000000000000000000000102
0000000315ADRIANA NASCIMENTO DO AMARAL                                00070899126049000000000000000000000000000000INDEPENDENCIA                                     INDEPENDENCIA                 RS989150000000000000000000000000000000000101
0000000317HOSPIDATA LTDA                                              89171417000120000000000000000000000000000000RUA FARIA SANTOS NO 47  CONJUNTO 505              PORTO ALEGRE CEP 90670-150    RS900000005133303499000000000000000000000102
0000000321ADALBERTO MARTINI                                           00095803629049000000000000000000000000000000MOTORISTA - RUA SANTO ANGELO                      INDEPENDENCIA                 RS989150005535391300000000000000000000000101
0000000340JOAILSON ROBERTO REDEL                                      00040963551000000000000000000000000000000000ESQUINA BUDEL NO 328                              INDEPENDENCIA                 RS989150009916665500000000000000000000000101
0000000368ADELIO JOS DUPONT                                           05045644000110198000842300000000000000000000AV IGNACIO PINTO 118                              INDEPENDENCIA                 RS989150005599613281000000000000000000000102
0000000373ARNALDO LOIR BOZZ                                           00036144878068000000000000000000000000000000RUA SOROCABA                                      INDEPENDENCIA                 RS989150000000000000000000000000000000000101
0000000410NATALINO FACCIN                                             94968120000120198000433900000000000000000000RUA SAO MIGUEL  716                               INDEPENDENCIA                 RS989150003539111300000000000000000000000102
0000000413SONIA CRISTINA TAVARES SOUTO                                00043883362034000000000000000000000000000000ENFERMEIRA                                        INDEPENDENCIA                 RS989150000000000000000000000000000000000101
0000000422CS RAUBER   CIA LTDA - ZUK PARAFUSOS                        04807758000197000000000000000392634000000000RUA JOAO MACLUF 276                               SANTA ROSA                    RS989000003512797900000000000000000000000102
0000000455HENRIQUE LUIZ GRESELE SZARESKI                              00035807369068000000000000000000000000000000SAO VALENTIM                                      INDEPENDENCIA                 RS989150000000000000000000000000000000000101
0000000475DIOMAR AUZANI                                               00024720755020000000000000000000000000000000VEREADOR                                          INDEPENDENCIA                 RS989150000000000000000000000000000000000101
0000000564ELIO VENITES                                                00019726937000198000252200000000000000000000AV TRES DE MAIO 970                               INDEPENDENCIA                 RS989150000000000000000000000000000000000101
0000000575BANCO BANRISUL                                              92702067021898000000000000000000000000000000RUA 3 DE MAIO                                     TRES DE MAIO                  RS989100000000000000000000000000000000000102
0000000664ARI NELSON F KEIST - ME                                     90717281000190198000263800000000000000000000AVENIDA TRES DE MAIO 997                          INDEPENDENCIA                 RS989150005535391168000000000000000000000102
0000000678VILSON MEURER - ME                                          91814285000150000000000000000000000000000000AV TRES DE MAIO                                   INDEPENDENCIA                 RS989150005535391147000000000000000000000102
0000000851EMBRATEL-EMPRESA BRASILEIRA DE TLECOMI                      33530486009851962042900000000000000000000000R ANDRADAS 1759                                   SANTA MARIA                   RS970100002222299210000000000000000000000102
0000000854UVERGSUNIAO VEREADORES DO RIO GDO SUL                       88993175000198000000000000000000000000000000PORTO ALEGRE                                      PORTO ALEGRE                  RS905500000000000000000000000000000000000102
0000000884MARCOS A LASCH-ELETRONICA DUMEL LASCH AUTO SOM              90351180000149147001778100000000000000000000R SANTA CRUZ 188                                  TRES DE MAIO                  RS989100005535351876000000000000000000000102
0000000921INSS DIVIDA                                                 29979036000140000000000000000000000000000000PORTO ALEGRE                                      PORTO ALEGRE                  RS904080000000000000000000000000000000000102
0000000942COOPMISTA DE CONSUMO E PROD CULTURAL LT                     01260317000120000000000000000000000000000000RUA SANTA  ROSA127 - SALA 04                      TRES DE MAIO                  RS989100000000000000000000000000000000000102
0000001169RIO GRANDE ENERGIA - RGE                                    02016439000138962636193000000000000000000000RUA SAO LUIS77                                    PORTO ALEGRE                  RS906201705432181083000000000000000000000102
0000001389GILMAR ROLIM DA SILVA                                       00067216765087000000000000000000000000000000RUA RIO BRANCO 116                                TRES DE MAIO                  RS989100000000000000000000000000000000000101
0000001390DOUGLAS MARTINI DE ARAUJO                                   01782694000129198000535100000000000000000000RUA SANTO ANGELO1177                              INDEPENDENCIA                 RS989150000000000000000000000000000000000102
0000001489AUTOMASSUL INFORMATICA LTDA                                 03683195000100147003667000000000000000000000AV SENADOR ALBERTO PASQUALINI N 347 LOJA 02       TRES DE MAIO                  RS989100001455353527400000000000000000000102
0000001567JERSON ROMEU DASSOW                                         87979704000136198000492400000000000000000000RUA SAO MIGUEL 713                                INDEPENDENCIA                 RS989150005391181000000000000000000000000102
0000001665MKS- PROVEDOR DE ACESSO A INTERNET                          03435851000155151990000000000000000000000000RUA MARECHAL FLORIANO 600 - S                     PALMEIRA DAS MISSOES          RS983000003742559935350000000000000000000102
0000001718ROBERTO AREND GASES                                         00781758000104110006198000000000000000000000RUA SINVAL SALDANHA168                            SANTA ROSA                    RS989000005535111199000000000000000000000102
0000001744JEFERSON LUIS SCHAKOFSKI                                    04286078000175000000000000000000000000000000R SANTA ROSA DE LIMA 789 SALA 1                   INDEPENDENCIA                 RS989150005535391260000000000000000000000102
0000001830ADELAR GARCIA MACHADO                                       00049907085049000000000000000000000000000000ASSESSOR PARLAMENTAR                              INDEPENDENCIA                 RS989150000000000000000000000000000000000101
0000001887LOJAS BECKER LTDA                                           04415928005904147003848700000000000000000000RUA PADRE CACIQUE N 928                           TRES DE MAIO                  RS989100005535352795000000000000000000000102
0000001953PEDRO ALEX DE LIMA - PF                                     00072811463020000000000000000000000000000000ESQUINA SCHOLTZ INTERIOR                          INDEPENDENCIA                 RS989150005599153431500000000000000000000101
0000001960SUSANA KOPPER                                               00051264200030000000000000000000000000000000SECRETARIA DO LEGISLATIVO                         INDEPENDENCIA                 RS989150000000000000000000000000000000000101
0000002037ASSOCIAAO MAE RAINHA - RDIO DE INDEPENDENCIA                01235876000180000000000000000000000000000000RUA SENADOR SALGADO FILHO 517                     INDEPENDENCIA                 RS989150000000000000000000000000000000000102
0000002055HPR INFORMTICA E ACESSRIOS LTDA                             94993250000113000000000000000000000000000000AV IPIRANGA 1200                                  CHIAPETTA                     RS987600005537841220000000000000000000000102
0000002066WNL -PRODUTOS E SOLUES EM INFORMATICA LTDA                  05203653000191147004109700000000000000000000AV URUGUAI 236                                    TRES DE MAIO                  RS989100005535354456000000000000000000000102
0000003665ELI TEREZINHA DE OLIVEIRA BORGES                            07039252000173000000000000000000000000000000AV TRES DE MAIO  679 SALA 01                      INDEPENDENCIA                 RS989150009959460000000000000000000000000102
0000003705FOLHA  PAG SERVIDORES DA CMARA DE VEREADORES                12292535000162000000000000000000000000000000RUA SENADOR PNHEIRO 1348                          INDEPENDENCIA                 RS989150003539129500000000000000000000000102
0000003719FRANCISCO CALEGARI  DE OLIVEIRA - PF                        00038804166053000000000000000000000000000000RUA DUQUE DE CAXIAS 1411                          INDEPENDENCIA                 RS989150005599681639500000000000000000000101
0000003725SERPLAMED SERVDE PLAN E ASSES EM MEDICINA TRAB              07131887000104000000000000000000000000000000RUA GUAPOR 650 SALA 06                            SANTA ROSA                    RS989000005535123157000000000000000000000102
0000003742LEANDRO NOGARA                                              07611894000103000000000000000000000000000000AV TRES DE MAIO 918                               INDEPENDENCIA                 RS989150005591582378000000000000000000000102
0000003802COMERCIO DE VIDROS CECCON LTDA                              04021650000174147003728600000000000000000000RUA HORIZONTINA 542                               TRES DE MAIO                  RS989100003535328100000000000000000000000102
0000003915RODRIGO TABORDA LIMA - PADARIA PAO DE MEL                   07500643000143198000883000000000000000000000AV TRES DE MAIO 582                               INDEPENDENCIA                 RS989150000000000000000000000000000000000102
0000003932FOLHA DE PAGAMENTO DOS SERVIDORES DA SADE                   87612826000290000000000000000000000000000000RUA SENADOR PINHEIRO 1348                         INDEPENDENCIA                 RS989150000000000000000000000000000000000102
0000003973CAMPOS E BORGES -VERA LUCIA CAMPOS ME                       08492294000128000000000000000000000000000000RUA SOROCABA 1336                                 INDEPENDENCIA                 RS989150009614467000000000000000000000000102
0000003985ELETROMAIO COM MATE ELETRIC E HIDR LTDA                     07194591000124000000000000000000000000000000RUA PADRE CACIQUE 1101                            TRES DE MAIO                  RS989100005535352395000000000000000000000102
0000004078IGAM - INST GAMA DE ASSESORIA  ORGO PBLICOS                 07675477000116000000000000000000000000000000PORTO ALEGRE-RS                                   PORTO ALEGRE                  RS901109000000000000000000000000000000000102
0000004091LOJAS BECKER LTDA - LOJA 20                                 04415928002050000000000000000000000000000000RUA PE CACIQUE 981                                TRES DE MAIO                  RS989100003535109900000000000000000000000102
0000004109JAIR AZILDO MASSUDA GRENZEL                                 00049907344087000000000000000000000000000000AV IGNCIO PINTO 480                               INDEPENDENCIA                 RS989150000000000000000000000000000000000101
0000004121TIAGO BRASIL DORNELES ME                                    08840262000176198000912800000000000000000000RUA SAO MIGUEL 998                                INDEPENDENCIA                 RS989150003539114400000000000000000000000102
0000004125SERVIMETRA - SERV EM MEDICINA E SEG DO TRABALHO             08791770000101000000000000000415590000000000AV AMRICA                                         SANTA ROSA                    RS989000005535127160000000000000000000000102
0000004195CARMELINO REBELATTO E CIA LTDA                              95814539000190000000000000000000000000000000TRAVESSA BUTANTA 40 E 44                          SANTA ROSA                    RS989000005535122653000000000000000000000102
0000004212INSTITUTO DE APOIO AO PODER PUBLICO - INLEGIS               08117028000115000000000000000000000000000000RUA XV DE NOVEMBRO 1525                           ALEGRIA                       RS989050000000000000000000000000000000000102
0000004290MARIA LUIZA KANIESKI                                        00077365178000000000000000000000000000000000AGENTE DE SADE                                    INDEPENDENCIA                 RS989150000000000000000000000000000000000101
0000004438ANDREIA LEMANSKI                                            00001030970076000000000000000000000000000000INDEPENDENCIA - RS                                INDEPENDENCIA                 RS989150000000000000000000000000000000000101
0000004442CRISTIANE FELDMANN FALABRETTI - FECOPEL                     05318549000576000000000000000000000000000000AV URUGUAI 200                                    TRES DE MAIO                  RS989100000000000000000000000000000000000102
0000004628JUNG E RIBEIRO LTDA ME                                      11355974000104000000000000000000000000000000AV TRES DE MAIO 860                               INDEPENDENCIA                 RS989150009918352500000000000000000000000102
0000004647SRA TRAVEL VIAGENS E TURISMO LTDA                           10994692000194000000000000000427110000000000RUA SANTOS DUMONT 559                             SANTA ROSA                    RS989000000000000000000000000000000000000102
0000004698PAULO RICARDO SARTORI                                       00058762922068000000000000000000000000000000CONSELHEIRO DA AGRICULTURA                        INDEPENDENCIA                 RS989150000000000000000000000000000000000101
0000004739SHOP PLANETA PURIFICADOR DE AGUA LTDA                       08276449000199000000000000000000000000000000RUA HORIZONTINA 1030                              TRES DE MAIO                  RS989100005535352311000000000000000000000102
0000004742ROSANE MARIA CEZAR FIM                                      00061958581020000000000000000000000000000000AGENTE DE SADE                                    INDEPENDENCIA                 RS989150000000000000000000000000000000000101
0000004748ASSOCIAO GAUCHADE INSTI DE PREVIDENCIA PBLICA               02672248000124000000000000000000000000000000RUA CINCO DE ABRIL 280                            NOVO HAMBURGO                 RS935252700000000000000000000000000000000102
0000004789ELISANDRO TIECHER WEISE                                     94356177000179000000000000000000000000000000RUA EXPED BERTOLDO BOEK N 571 SALA2               TRES DE MAIO                  RS989100009840608370000000000000000000000102
0000004824OI SA- EM RECUPERAO JUDICIAL                                76535764000143000000000000000000000000000000RUA DO LAVRADIO                                   RIO DE JANEIRO                RJ202300707131313179000000000000000000000102
0000004841MELLER E BOYARSKI EXTINTORES LTDA                           12920769000107000000000000000000000000000000RUA SAO JOAO 705                                  INDEPENDENCIA                 RS989150000000000000000000000000000000000102
0000004877EDSON VANDERLEI WANDSCHEER                                  12488911000199000000000000000000000000000000RUA PLANALTO                                      TRES DE MAIO                  RS989100000000000000000000000000000000000102
0000005045SAFEWEB- SEGURANA DA INFORMAAO                              01579286000174000000000000000000000000000000RUA PRINCESA ISABEL N729 SANTANA                  PORTO ALEGRE                  RS906200010000000000000000000000000000000102
0000005184BENOIT ELETRODOMESTICOS LTDA TRES DE MAIO                   87296026013438000000000000000000000000000000RUA HORIZONTINA N1048                             TRES DE MAIO                  RS989100003535209400000000000000000000000102
0000005208LUIZ VANDERLEI GOMES DA SILVA - ME                          14361803000186000000000000000000000000000000AVENIDA SANTA ROSA 672                            TRES DE MAIO                  RS989100000000000000000000000000000000000102
0000005228EDUARDO CISLAGUI  -   ME                                    14691050000177000000000000000000000000000000RUA SANTO CLIVATTI  N 100                         ARATIBA                       RS997700000000000000000000000000000000000102
0000005257OFICIO DE REGISTROS PUBLICOS - MADALENA M MAIC              00038474484049000000000000000344900000000000AV TRS DE MAIO                                    INDEPENDENCIA                 RS989150000000000000000000000000000000000101
0000005284TABELIONATO INDEP ROBERTO CARLOS PARCIANELLO                00052487032049000000000000000000000000000000AV TRES DE MAIO N 777                             INDEPENDENCIA                 RS989150000000000000000000000000000000000101
0000005294EMPREENDETUR AGENCIA E ASSES EM TURISMO LTDA-ME             10753900000163000000000000000000000000000000AV PRESIDENTE CASTELO BRANCO   610                CRISSIUMAL                    RS986400000000000000000000000000000000000102
0000005301BUTZKE CONTRUES LTDA - ME LOJA INDEPENDENCIA                93587293000136000000000000000000000000000000AV TRES DE MAIO 750                               INDEPENDENCIA                 RS989150005535391320000000000000000000000102
0000005304EDIPO LUIS MIQUELON - ME CASA DA CARNE                      17102327000177000000000000000000000000000000RUA ANISIO ARAUJO E SILVA  012 SALA 01            INDEPENDENCIA                 RS989150000000000000000000000000000000000102
0000005309ALINE FERNANDA ALMEIDA RODRIGUES - ME                       17185461000189000000000000000000000000000000AV TRES DE MAIO 952                               INDEPENDENCIA                 RS989150009712386600000000000000000000000102
0000005322JOO ADIR RODRIGUES MOREIRA                                  00059170921091000000000000000000000000000000RUA SO ROQUE 302                                  INDEPENDENCIA                 RS989150005535391295000000000000000000000101
0000005325CHARLES ALAIR MEINKE SERIGRAFIA-MEI                         17635464000177000000000000000000000000000000RUA ANISIO ARAUJO E SILVA 223                     INDEPENDENCIA                 RS989150005599686979200000000000000000000102
0000005338MARCOS SPENGLER                                             00096387300053000000000000000000000000000000RUA SO MIGUEL 775                                 INDEPENDENCIA                 RS989150000000000000000000000000000000000101
0000005359EMBRATEL- EMPBRASILEIRA DE TELECOMUNICAOES S A              33530486013379000000000000000000000000000000R MARECHAL FLORIANO N 249  COMPLEMENTO 267        PORTO ALEGRE                  RS908200500000000000000000000000000000000102
0000005393PATRICIA SOLANGE SCHACKEL MULLER                            00000705823008000000000000000000000000000000RUA SO JOO 99                                     INDEPENDENCIA                 RS989150000000000000000000000000000000000101
0000005394BELLA PRESENTES E UTILIDADES LTDA - ME                      18012618000137000000000000000000000000000000AV TRS DE MAIO 997                                INDEPENDENCIA                 RS989150005535391168000000000000000000000102
0000005443MARCIO DECKMANN - PF                                        00001567227040000000000000000812800000000000ESQUINA BUDEL S/N                                 INDEPENDENCIA                 RS989150005599992308900000000000000000000101
0000005462UNIO DOS VEREADORES DO BRASIL                               83594978000156000000000000000000000000000000Q SRTVS QD 01 - CENTRO EMPRES ASSIS SALA 502/504  BRASILIA VER CEP POR LOGRADOURDF700000000000000000000000000000000000000102
0000005494JT DA SILVA BRINQUEDOSRONI E ISAMARA TRATSCH                18536785000187000000000000000000000000000000AV TRES DE MAIO 1101 SALA 01                      INDEPENDENCIA                 RS989150000000000000000000000000000000000102
0000005498VANDERLEI ROQUE BERTOLDO - MEI                              18651431000183000000000000000000000000000000RUA SOROCABA 1400                                 INDEPENDENCIA                 RS989150000000000000000000000000000000000102
0000005503NOTA DEZ DISTRIB DE PROD PLSTICOS LTDA - ME                 18337327000119000000000000000000000000000000RUA GRAVATAI 323                                  GRAVATA                       RS949101000000000000000000000000000000000102
0000005506ANA PAULA R S SCHMIDT - MEI - INSS 16000997176              18912333000152000000000000000000000000000000RUA ANISIO ARAJO E SILVA 165                      INDEPENDENCIA                 RS989150005596255131000000000000000000000102
0000005529SUSANE CATIUSA B BOZZ                                       00001302657054000000000000000000000000000000RUA SOROCABA 1431                                 INDEPENDENCIA                 RS989150005596527552000000000000000000000101
0000005557HELENCO   WICHINHESKI LTDA - ME                             08990377000147000000000000000000000000000000AV  URUGUAI 400                                   TRES DE MAIO                  RS989100005535351036000000000000000000000102
0000005558LUIZ FERNANDO DALLA COSTA - MEI - INSS 10788093611          14897123000181000000000000000000000000000000RUA JOSINO FARIAS 1192                            INDEPENDENCIA                 RS989150000000000000000000000000000000000102
0000005608INSTITUTO TIRADENTES LTDA                                   10820834000105000000000000000000000000000000RUA JORGE TEOTONIO TEIXEIRA 50                    VICOSA                        MG365700000000000000000000000000000000000102
0000005644AIRTON LUIZ WILHELM   CIA LTDA                              08194464000198000000000000000000000000000000RUA SO LUCAS 171                                  TRES DE MAIO                  RS989100000000000000000000000000000000000102
0000005648ELFRIDA E FROHLICH DE LIMA- MEI- INSS 20925007751           17435422000192000000000000000000000000000000RUA MANOEL DA NOBREGA 397                         INDEPENDENCIA                 RS989150000000000000000000000000000000000102
0000005649JOSE OTAVIO TAVARES SOUTO COMUNICACOES                      14405434000186000000000000000339600000000000AV TRES DE MAIO N 952    SALA 02                  INDEPENDENCIA                 RS989150008454978300000000000000000000000102
0000005669ELISNGELA PALUDO-CAPACITAR   CONH-INSS43801813404           18068876000135000000000000000000000000000000R GENERAL CAMARA                                  PORTO ALEGRE - CENTRO         RS483200000000000000000000000000000000000102
0000005674ALEF FELIPE MEIER                                           00002919865013000000000000000000000000000000PASSE LIVRE ESTUDANTIL                            INDEPENDENCIA                 RS989150000000000000000000000000000000000101
0000005714PERFIL ENGENHARIA E IMOBILIARIA LTDA                        11462376000134000000000000000000000000000000AV BURICA                                         TRES DE MAIO                  RS989100000000000000000000000000000000000102
0000005740GRAFICA E EDITORA CASA MUNDO DA MIDIA LTDA                  05289241000116000000000000000000000000000000RUA DAHNE DE ABREU 577                            HORIZONTINA                   RS989200005535373005000000000000000000000102
0000005818ATMSUL COMERCIO DE ELETROELETRONICOS LTDA                   21745966000128000000000000000000000000000000AV SENADOR ALBERTO PASQUALINI 381 SALA 01         TRES DE MAIO                  RS989100003535493400000000000000000000000102
0000005820MATERIAIS PARA ESCRITRIO E INFORMTICAO SANTA ROS            20191731000179000000000000000000000000000000AVENIDA RIO BRANCO 657 SALA 01                    SANTA ROSA                    RS989000005535126611000000000000000000000102
0000005844JOSIANE CARDOSO CABRAL                                      00003640682050000000000000000000000000000000RUA SOROCABA 367                                  INDEPENDENCIA                 RS989150000000000000000000000000000000000101
0000005853MARLISA ADRIANA LIPPERT DA SILVA                            14841600000197000000000000000000000000000000RUA MARECHAL RONDON 1319                          INDEPENDENCIA                 RS989150005599306804000000000000000000000102
0000005963LEONIR DE FATIMA STECHMANN DA SILVA - MEI                   16601761000139000000000000000000000000000000RUA SANTO ANGELO 198                              INDEPENDENCIA                 RS989150009970942300000000000000000000000102
0000006087MAGALI CARINE BORGES MARTINS - MEI                          24150263000145000000000000000000000000000000AV TRES DE MAIO 257                               INDEPENDENCIA                 RS989150005596593288000000000000000000000102
0000006139ELI TEREZINHA DE OLIVEIRA BORGES PF                         00051775085015000000000000000000000000000000AV TRES DE MAIO 679                               INDEPENDENCIA                 RS989150009614025800000000000000000000000101
0000006202FABRICIO ARIEL DOCKORN                                      00093288514087000000000000000000000000000000AV TRES DE MAIO 257                               INDEPENDENCIA                 RS989150005599659328800000000000000000000101
0000006214JEISSON EZEQUIEL WISCHNESKI - ME                            24187564000143000000000000000000000000000000RUA HORIZONTINA 995 SALA 02                       TRES DE MAIO                  RS989100005535353429000000000000000000000102
0000006260BRASIL DE FREITAS NETO - PF                                 00059837926015000000000000000000000000000000ESQUINA ARAUJO S/N                                INDEPENDENCIA                 RS989150005599912966700000000000000000000101
0000006264NORMLIA LOTTERMANN EPP                                      20132150000166000000000000000000000000000000RUA PLANALTO 2100                                 TRES DE MAIO                  RS989100005535353283000000000000000000000102
0000006329SELONEI JOSE STOCHERO ME                                    11663734000177000000000000000000000000000000R JOSINO LIMA 85                                  PANAMBI                       RS982800005533751525685000000000000000000102
0000006331JOSE OTAVIO TAVARES SOUTO-PF                                00001035494043000000000000000000000000000000RUA MONTE CASTELO 354                             INDEPENDENCIA                 RS989150000000000000000000000000000000000101
0000006412DIEGO KREMER DOS SANTOS- SKYNET TELECOMUNICAES E            11149154000166184000791200000000000000000000R THOMAZIA DE CARVALHO N 1109                     CHIAPETTA                     RS987600005537841468000000000000000000000102
0000006424FACE CARD ADMINISTRADORA DE CARTES LTDA-ME                  21935659000100000000000000000000000000000000RUA TREZE DE MAIO 670 SALA 7 CENTRO               LIMEIRA                       SP134800131197033417000000000000000000000102
0000006531AR CONTADORES CERTIFICAO DIGITAL LTDA - ME                  03151200000133000000000000000000000000000000AV GETULIO VARGAS 774 SALLA 401                   PORTO ALEGRE                  RS901500015130257600000000000000000000000102
0000006583ISAIAS DIAS PIRES                                           17818505000160000000000000000000000000000000RUA MARECHAL CANDIDO RONDON 1410                  INDEPENDENCIA                 RS989150005599994563500000000000000000000102
0000006637TIAGO BRASIL DORNELES   CIA LTDA - ME                       10926435000115000000000000000000000000000000R EXPEDICIONARIO BERTOLDO BOECK 136               TRES DE MAIO                  RS989100003535245900000000000000000000000102
0000006684MARCIO MAKOSKI DO ROSRIO-MEI                                28871767000105000000000000000000000000000000RUA ANTONIO PRADO N 50                            INDEPENDENCIA                 RS989150009966521430000000000000000000000102
0000006698NELSON ADO BARROS PACHECO - MEI 12337898174                 28825878000185000000000000000000000000000000INDEPENDNECIA                                     INDEPENDENCIA                 RS989150005599996001600000000000000000000102
0000006799TABELIONATO INDEP MARCOS COSTA SALOMO                       00066999758034000000000000000000000000000000SENADOR SALGADO FILHO 635                         INDEPENDENCIA                 RS989150005599622319400000000000000000000101
0000006837DARLA ANTONIO BARASUOL - MEI                                29842206000140000000000000000000000000000000R PC AV TRES DE MAIO 904                          INDEPENDENCIA                 RS989150009972066500000000000000000000000102
0000006857IRINEU MAIER BOYARSKI JUNIOR-MEI                            30058029000195000000000000000000000000000000RUA SANTO ANGELO 521                              INDEPENDENCIA                 RS989150009648157200000000000000000000000102
0000006872INLEGIS CONSULTORIA E TREINAMENTO EIRELI                    30050141000180000000000000000000000000000000TV TUYUTY  N 53 APT 503                           PORTO ALEGRE                  RS900502705199915809000000000000000000000102
0000006901RONALDO F WENDLAND   CIA LTDA JOA E TICA SAFIRA             98037203000157000000000000000000000000000000AV URUGUAI   N 5050                               TRES DE MAIO                  RS989100000000000000000000000000000000000102
0000006978CLAUDIA BAUMGARTNER                                         29647965000152000000000000000000000000000000RUA SENADOR SALGADO FILHO N 696                   INDEPENDENCIA                 RS989150009626412000000000000000000000000102
0000007082FABIO AUGUSTO CAPPI SCHONARDIE 020690090-25                 3197183700010100000000000000000000000000000010 RUA SENADOR PINHEIRO 612                       INDEPENDENCIA                 RS989150003535391200000000000000000000000102
0000007100ADRIANO CESAR KAISEKAMP - FUNERARIA                         32049760000180000000000000000000000000000000AV TRES DE MAIO 729 SALA 01                       INDEPENDENCIA                 RS989150005599961726200000000000000000000102
0000007101LOJAS HOLZ LTDA                                             08283518001678000000000000000000000000000000RUA GETULIO VARGAS 470                            INDEPENDENCIA                 RS989150005535391307000000000000000000000102
0000007142MARJANA ALESSANDRA VERDUM - ODD SOLUOES ELTRICAS            30745273000126000000000000000000000000000000R SANTA CATARINA N 498                            SANTA ROSA                    RS987873940000000000000000000000000000000102
0000007185GILBERTO SCHONS ME                                          03902674000170000000000000000122734977000000RUA HORIZONTINA 1823                              TRES DE MAIO                  RS989100005535351500000000000000000000000102
0000007370MARCIO ANDR OHLWEILER - PLANETA AGUA                        31501235000190000000000000000000000000000000TRES DE MAIO                                      TRES DE MAIO                  RS989100009992520780000000000000000000000102
0000007401LUCIANO LUIS ROBERTI MEI                                    35535479000145000000000000000000000000000000RUA EXP FRANCISCO PERKOSKI 610CPF 002964200-00    INDEPENDENCIA                 RS989150005599181940000000000000000000000102
0000007456CLAUDIO GILMAR DE MORAES                                    00000196523052000000000000000000000000000000RUA DOS IMIGRANTE 175                             INDEPENDENCIA                 RS989150005599954573400000000000000000000101
0000007483FRANCISCO DE LIMA   CIA LTDA - ME   INFRASUL - SOLUCOES EM T35827355000133000000000000000000000000000000AV BURICA 677 SALA 01                             TRES DE MAIO                  RS989100005535353984000000000000000000000102
0000007707SALATIEL WEBER WPRODUTORA                                   19148925000102000000000000000000000000000000RUA JAGUARI 27                                    HORIZONTINA                   RS989200005599683432300000000000000000000102
0000007744ANA CAROLINA HAACK DE CASTRO ME                             38387883000107000000000000000000000000000000RUA ESEQUIEL FERREIRA BARBOSA 75                  PALMEIRA DAS MISSOES          RS983000005537427825000000000000000000000102
0000007750ANDRESSA GARCIA PUHL ME                                     39269843000123000000000000000000000000000000TRAVESSA EURICO OLIVEIRA 125                      INDEPENDENCIA                 RS989150005599992871100000000000000000000102
0000007782DOUGLAS RAFAEL LUNINK - ME                                  34435014000150000000000000000000000000000000RUA THEODOMIRO DE SOUZA 668                       CHIAPETTA                     RS987600005199647372700000000000000000000102
0000007874SAFETOPAY INTERMEDIAO DE NEGCIOS LTDA                       31037942000178000000000000000000000000000000RUA BARO DE SANTO ANGELO                          PORTO ALEGRE                  RS905100005126269201000000000000000000000102
0000007960JOSE DOUGLAS RODRIGUES MOREIRA PF                           00001400607078000000000000000000000000000000INDEPENDENCIA                                     INDEPENDENCIA                 RS989150005599608498800000000000000000000101
0000007967UNIVERSAL LOJA DE VARIEDADES EIRELI-A LEGITIMA 10           24164772000631000000000000000000000000000000RUA SO MIGUEL N 713                               INDEPENDENCIA                 RS989150005599077744000000000000000000000102
0000007968DEISE BOZ SCHAKOFSKI - PF                                   00002926967012000000000000000000000000000000RUA EXPEDICIONARIO FRANCISCO PERKOSKI 696         INDEPENDENCIA                 RS989150000000000000000000000000000000000101
0000007994ORTHOS URGE SERVIOS MDICOS E ODONT LTDA                     09193786000185000000000000000000000000000000PRAA BERLIM 44                                    SANTA ROSA                    RS987807715535113260000000000000000000000102
0000008034NICOLAS CORNLIUS- PF                                        00001700965050000000000000000000000000000000AV TRES DE MAIO N 50                              INDEPENDENCIA                 RS989150005599950550300000000000000000000101
0000008117NOGARRA MASTER UTILIDADES EIRELI- TOP 10                    42538295000102000000000000000000000000000000R SAO MIGUEL 713 - SALA 02                        INDEPENDENCIA                 RS989150009995185190000000000000000000000102
0000008145FUNDO ESPECIAL DE SEGURANCA PUBLICA                         14157326000131000000000000000000000000000000R VOLUNTARIOS DA PATRIA N 1358 ANDAR 8 ALA NORT   PORTO ALEGRE                  RS900102215132881914000000000000000000000102
0000008191MARCOS DE JESUS PAZ - MEI                                   44179447000145000000000000000000000000000000R SAO ROQUE                                       INDEPENDENCIA                 RS989150005597304743000000000000000000000102
0000008263PLANO DIGITAL CERTIFICAO LTDA -EPP                          22949096000171000000000000000000000000000000RUA TRES DE OUTUBRO N 415 SALA 203                TEUTONIA                      RS958900005137623012000000000000000000000102
0000008268ALINE ROBERTA DE LEON-PF                                    00002170796010000000000000000000000000000000RINCAO FACCIN                                     INDEPENDENCIA                 RS989150009962595080000000000000000000000101
0000008269GESICA EDUARDA KANIESKI-PF                                  00004311402007000000000000000000000000000000RUA SO MIGUEL 684                                 INDEPENDENCIA                 RS989150009968504070000000000000000000000101
0000008336ATICON TECNOLOGIA DA INFORMACAO LTDA                        04513934000188000000000000000000000000000000R SANTO ANGELO N 293                              INDEPENDENCIA                 RS989150000000000000000000000000000000000102
0000008367PLENARIA ASSESSORIA E GESTO DE EVENTOS LTDA                 18336780000100000000000000000000000000000000RUA JULIO DE CASTILHOS N1233                      ENCANTADO                     RS959600005596449022000000000000000000000102
0000008547ANDRIELI MAISA MAKOVSKI                                     00004645168037000000000000000000000000000000RUA H N 127                                       INDEPENDENCIA                 RS989150005599642936300000000000000000000101
0000008583ANDRIGO ROBERTI                                             24128172000103000000000000000000000000000000AV SANTA ROSA310 SALA 05                          TRES DE MAIO                  RS989100005535351517000000000000000000000102
0000008696LB TOMSCHKE - AGAP-ASSES E GEST ADMIN PUBLICA               21997099000118000000000000000000000000000000AV CASCAIS N 99 APT505 BLOCO A                    PORTO ALEGRE                  RS483200005132289854000000000000000000000102
0000008773VERLIN TECNOLOGIA DA INFORMAO LTDA FILIAL                   10894828000356000000000000000000000000000000R FRANCISCO SOUSA DOS SANTOS                      SERRA / JARDIM LIMOEIRO       ES291641530000000000000000000000000000000102
0000008794LUIS DA ROSA COSTA MEI                                      97211486000149000000000000000000000000000000RUA GENERAL COSTA E SILVA  573 SALA 01            INDEPENDENCIA                 RS989150005599674391600000000000000000000102
0000008803MASTERPLAN LTDA                                             10366026000101000000000000000551950000000000RUA PRESIDENTE COSTA E SILVA 60 COMERCIAL         CANDIDO GODOI                 RS989700005598431561500000000000000000000102
0000008860MORESCO   ANTUNES LTDA                                      23468106000110000000000000000000000000000000R EMILIO TAUCEDA                                  URUGUAIANA / TABAJARA BRITES  RS975043705534119625000000000000000000000102
0000008919KARINE LETICIA  EICHELBERGER                                23933152000142000000000000000000000000000000SO PAULO                                          TRES DE MAIO                  RS989100005597134847000000000000000000000102
0000009080JAQUELINE WITCZAK DE OLIVEIRA - PF                          00002635528020000000000000000000000000000000RUA MARECHAL CANDIDO RONDON 1866                  INDEPENDENCIA                 RS989150005599454644000000000000000000000101
0000009083KAIONARA MARIA SOARES                                       00004039830024000000000000000000000000000000RUA SANTA ROSA DE LIMA N827                       INDEPENDENCIA                 RS989150005599710667900000000000000000000101
0000009084MAIARA KEIST DAL FORNO                                      00001473374022000000000000000000000000000000RUA COSTA E SILVA N1099                           INDEPENDENCIA                 RS989150005599146448600000000000000000000101
0000009093GRAFICA E PERSONALIZADOS SCHLOSSER   ARAUJO LTDA            47782080000148000000000000000000000000000000AV URUGUAI                                        TRES DE MAIO                  RS989100009916303360000000000000000000000102
0000009109SQUADRA ASSESSORIA E CONSULTORIA LTDA                       18933882000103000000000000000000000000000000R 15 DE NOVEMBRO 649 SALA 3 E 4                   POMERODE                      SC891070004730524641000000000000000000000102
0000009133ADENILSON DORIGON                                           17614810000130000000000000000000000000000000ROD RS 332 SN KM 51                               ILOPOLIS                      RS959900005197187516000000000000000000000102
0000009170ACILDO RICHTER                                              00046251715049000000000000000000000000000000ZONA RURAL                                        INDEPENDENCIA                 RS989150000000000000000000000000000000000101
0000009426JULIANA PEREIRA MARIN                                       27706444000101000000000000000000000000000000AVENIDA AVENIDA URUGUAI 386                       TRES DE MAIO                  RS989100005597080309000000000000000000000102
0000009427MARTINHO NATAL SIGNOR - M M PROAUDIO - ME                   12952070000129000000000000000000000000000000RUA ESTRALA N163                                  PASSO FUNDO                   RS990251905499934006600000000000000000000102
0000009448AR MARKA SERVIOS DE CERTIFICACAO DIGITAL LTDA -ME           35856179000168000000000000000000000000000000RUA 7 DE SETEMBRO N 885 SALA 07                   TEUTONIA                      RS958900005195001232000000000000000000000102
0000009511CONTIGO SOLUCOES PARA GESTAO PUBLICA LTDA                   14065989000126000000000000000000000000000000R PRESIDENTE KENNEDY 281                          SAPIRANGA / CENTRO            RS938001405198876708000000000000000000000102
0000010079AR SMARTVIX SERVIOS DE CERTIFICAO DIGITAL LTDA              31331140000176000000000000000000000000000000R CONSTANTE SODRE                                 VITORIA                       ES290563100000000000000000000000000000000102
0000010416FERNANDA JESKE - PF                                         00003861812096000000000000000000000000000000RUA PLANALTO 515                                  TRES DE MAIO                  RS989100005598458179300000000000000000000101
0000010417RAYANA AUGUSTA SCHRER - PF                                  00003142588094000000000000000000000000000000RUA IPIRANGA 430                                  INDEPENDENCIA                 RS989150005599601801400000000000000000000101
0000010775KIMBERLY VICTRIA PERTILLE - PF                              00003045186033000000000000000000000000000000RUA ARTHUR JOS WERLANG N128                       SANTA ROSA                    RS987871445598451837200000000000000000000101
0000010784SOLANGE MARIA BOENO                                         57725870000145000000000000000000000000000000AV SANTA ROSA N310 SALA4 CENTRO                   TRES DE MAIO                  RS989100005599992192800000000000000000000102
0000010808DANTE COMERCIO DE BEBIDAS LTDA                              07421929000133000000000000000000000000000000AV INHACOR 1400 CENTRO                            SANTA ROSA / CENTRO           RS987808185535122447000000000000000000000102
0000010812DANIEL JUNIOR PLETSCH 03960797095                           48644749000106000000000000000000000000000000EST BEATO ROQUE 524                               BOA VISTA DO BURICA           RS989180005599596351000000000000000000000102
000001087558332417 MARCOS FELIPE DOLLIS                               58332417000131000000000000000000000000000000R PADRE CACIQUE 1049 CENTRO                       TRES DE MAIO                  RS989100005599727243600000000000000000000102
0000010910EDSOM MELLER - PF                                           00058598014087000000000000000000000000000000RUA SO JOO 705                                    INDEPENDENCIA                 RS989150005199543612100000000000000000000101
0000010911EVERALDO REDEL HEINSCH - PF                                 00058598049034000000000000000000000000000000RUA SENADOR PINHEIRO 1023                         INDEPENDENCIA                 RS989150005599725478000000000000000000000101
0000010935FORIGO PARK TUR LTDA                                        02509011000208000000000000000000000000000000RUA DOS ANDRADAS 930 CENTRO                       SANTO ANGELO                  RS988026205533140064000000000000000000000102
FINALIZADOR0000000200