12292535000162010120253101202527022025CAMARA DE VEREADORES DE INDEPENDENCIA-RS                                        
010104122000100002064319011010000000000000000202502000648280120250000000648807+0000000247                                                                                                                                                                     00000N                    000000000000000000000000REFERENTE A REMUNERAO DO MS DE JANEIRO DE 2025CAMARA - CCSSALARIO C/C                                                                                                                                                                                                                                                                                                                                           NSA00FX000000000000000000250000000000
010104122000100002064319011420000000000000000202502000649280120250000000413579+0000000247                                                                                                                                                                     00000N                    000000000000000000000000REFERENTE A REMUNERAO DO MS DE JANEIRO DE 2025CAMARA - CCSFRIAS INDENIZADAS                                                                                                                                                                                                                                                                                                                                     NSA00FX000000000000000000250000000000
010104122000100002064319011420000000000000000202502000649280120250000000413579-0000000247                                                                                                                                                                     00000N                    000000000000000000000000REFERENTE A REMUNERAO DO MS DE JANEIRO DE 2025CAMARA - CCSFRIAS INDENIZADAS                                                                                                                                                                                                                                                                                                                                     NSA00FX000000000000000000250000000000
010104122000100002064319011010000000000000000202502000648280120250000000648807-0000000247                                                                                                                                                                     00000N                    000000000000000000000000REFERENTE A REMUNERAO DO MS DE JANEIRO DE 2025CAMARA - CCSSALARIO C/C                                                                                                                                                                                                                                                                                                                                           NSA00FX000000000000000000250000000000
010104131000100002065339039930000000000000000202502000319150120250000000004500+0000002037                                                                                                                                                                     00000N                    000000000000000000000000COMUNICADOS NA RDIO COMUNITRIA DE INDEPENDNCIA REFERENTE AO FALECIMENTO DO EX-VEREADOR E EX-PRESIDENTE DA CMARA ANTNIO AVELINO FERREIRA CONF RD 219/2025DESPESA SEM EMPENHO PRVIO                                                                                                                                                                                                                               DPV08XX000000000000000000150000000000
010104122000100002064339039050000000000000000202502000598270120250000000007500+0000008803                                                                                                                                                                     00000S                    000000000000000000532023EXAME ADMISSIONAL PARA A ASSESSORA JURDICA DA CAMARA DE VEREADORESPROCESSO 53/2023 SRP                                                                                                                                                                                                                                                                                                                          PRE07XS876128260001900000150000000000
010104122000100002064339039200000000000000000202502000629270120250000000009500+0000005208                                                                                                                                                                     00000N                    000000000000000000000000DESLOCAMENTO E MO DE OBRA PARA AVALIAO DE AR-CONDICIONADO DO PLENRIO DA CMARA DE VEREADORES QUE TINHA APRESENTADO PROBLEMAS                                                                                                                                                                                                                                                                                     DPV01XX000000000000000000150000000000
010104122000100002064339039780000000000000000202502000631270120250000000009900+0000010875                                                                                                                                                                     00000N                    000000000000000000000000LAVAGEM E SECAGEM DE 08 BANDEIRAS DA CAMARA DE VEREADORES POIS AS MESMAS ENCONTRAM-SE SUJAS MOFADAS E MANCHADAS EM RAZO DO AMBIENTE MIDO                                                                                                                                                                                                                                                                        DPV01XX000000000000000000150000000000
010104122000100002064339039050000000000000000202502000133080120250000000015000+0000008803                                                                                                                                                                     00000S                    0000000000000000005320232 EXAMES ADMISSIONAIS PARA O DIRETOR GERAL E PARA A ASSESSORA DE BANCADA                                                                                                                                                                                                                                                                                                                                        PRE07XS876128260001900000150000000000
010104122000100002064339030990200000000000000202502000248140120250000000016000+0000007100                                                                                                                                                                     00000N                    000000000000000000000000DOAO DE UMA COROA DE FLOR CONFORME FOTO EM ANEXO PARA O VELRIO DO EX-VEREADOR E EX-PRESIDENTE DA CMARA ANTNIO AVELINO FERREIRA CONF RD 138/2025DESPESA SEM EMPENHO PRVIO                                                                                                                                                                                                                                        DPV08XX000000000000000000150000000000
010104122000100002064339030240000000000000000202502000131080120250000000027000+0000001744                                                                                                                                                                     00000N                    0000000000000000000000006 CPIAS DE CHAVE DA PORTA DE ENTRADA PRINCIPAL DO PALCIO DA PREFEITURA MUNICIPAL DE INDEPENDNCIA E ADQUIRIDO TAMBM UM NOVO CILINDRO DA PORTA DE ENTRADA DA CMARA DE VEREADORES ESTE CILINDRO VEM ACOMPANHADO DE DUAS CHAVES E FORAM FEITAS MAIS 4 CPIAS DESTA CHAVE LOGO FORAM ADQUIRIDAS 10 CHAVES NO TOTAL ADQUIRIDO TAMBM UMA NOVA FECHADURA PARA A GAVETA DA BANCADA DOS VEREADORES                         DPV01XX000000000000000000150000000000
010104122000100002064319011370000000000000000202502000654280120250000000028330+0000003705                                                                                                                                                                     00000N                    000000000000000000000000REFERENTE A REMUNERAO DO MS DE JANEIRO DE 2025CAMARA - ESTATUTARIOSANUENIOS                                                                                                                                                                                                                                                                                                                                     NSA00FX000000000000000000250000000000
010104122000100002064339030160000000000000000202502000401200120250000000028410+0000005394                                                                                                                                                                     00000N                    000000000000000000000000AQUISIO DE MATERIAIS DE EXPEDIENTE PARA USO DIRIO DA CMARA DE VEREADORES CONF RD 294/2025                                                                                                                                                                                                                                                                                                                       DPV08XX000000000000000000150000000000
010104122000100002064339039780000000000000000202502000630270120250000000029100+0000010875                                                                                                                                                                     00000N                    000000000000000000000000LAVAGEM DE 26 CORTINAS DA CAMARA DE VEREADORES POIS AS MESMAS ENCONTRAM-SE MOFADAS E MANCHADAS EM RAZO DO GRANDE PERODO DE TEMPO DESDE A LTIMA LAVAGEM E DO AMBIENTE MIDO                                                                                                                                                                                                                                       DPV01XX000000000000000000150000000000
010101031001500002063339040230000000000000000202502000132080120250000000029400+0000005649                                                                                                                                                                     00000N                    000000000000000000000000CERTIFICADO DIGITAL TIPO E-CPF A3 COM TOKEN COM VALIDADE PARA 1 ANO                                                                                                                                                                                                                                                                                                                                             DPV01XX000000000000000000150000000000
010104122000100002064339030150000000000000000202502000596270120250000000037000+0000007750                                                                                                                                                                     00000N                    000000000000000000000000PLACA EM AO ESCOVADO E ADESIVADO E ESTOJO CAMURA QUE SERO ENTREGUES EM HOMENAGEM A EMPRESA ROMAN F MANN   CIA LTDA EM SESSO SOLENE QUE OCORRER DIA 04/02/2025                                                                                                                                                                                                                                                   DPV01XX000000000000000000150000000000
010104122000100002064339039200000000000000000202502000134080120250000000055000+0000005963                                                                                                                                                                     00000N                    000000000000000000000000CONSERTO DE 5 CADEIRAS DE ESCRITRIO TROCAR ACENTO CONSERTO DO ENCOSTO E AJUSTE DE ALTURA CONSERTO DE RODINHAS                                                                                                                                                                                                                                                                                                   DPV01XX000000000000000000150000000000
010104122000100002064319011100000000000000000202502000656280120250000000065675+0000003705                                                                                                                                                                     00000N                    000000000000000000000000REFERENTE A REMUNERAO DO MS DE JANEIRO DE 2025CAMARA - ESTATUTARIOSINSALUBRIDADE                                                                                                                                                                                                                                                                                                                                NSA00FX000000000000000000250000000000
010104122000100002064319013020100000000000000202502001017310120250000000084345+0000000155                                                                                                                                                                     00000N                    000000000000000000000000CONTRIB PATRONAL AO INSS REF REMUNERAO DO MES DE JANEIRO DE 2025CAMARA - CCS                                                                                                                                                                                                                                                                                                                                    NSA00XX000000000000000000250000000000
010104122000100002064339030160000000000000000202502000187080120250000000099950+0000008860                                                                                                                                                                     00000S                    000000000000000000382023MATERIAL DE EXPEDIENTE PARA MANUTENO DOS TRABALHOS DA CAMARA DE VEREADORES - FOLHA DE OFCIO A4 PROCESSO DE LICITAO N489/2023 PREGO ELETRNICO N38/2023 SRP N49/2023                                                                                                                                                                                                                                              PRE07XS876128260001900000150000000000
010104131000100002065339039920000000000000000202502000318150120250000000100000+0000000266                                                                                                                                                                     00000N                    000000000000000000000000SERVIOS DE DIVULGAO DE PUBLICAES EVENTUAIS PARA A CMARA DE VEREADORES TAIS COMO EDITAIS NOTAS DE ESCLARECIMENTO NOTAS DE PESAR E NOTAS DE APOIO E TAMBM PUBLICAES EVENTUAIS PARA DATAS COMEMORATIVAS COMO PSCOA NATAL ANIVERSRIO DO MUNICPIO FEIRAS DENTRE OUTROS CONF RD 218/2025                                                                                                                              DPV08XX000000000000000000150000000000
010104122000100002064319011450000000000000000202502000653280120250000000125769+0000003705                                                                                                                                                                     00000N                    000000000000000000000000REFERENTE A REMUNERAO DO MS DE JANEIRO DE 2025CAMARA - ESTATUTARIOSFRIAS                                                                                                                                                                                                                                                                                                                                        NSA00FX000000000000000000250000000000
010104122000100002064319011420000000000000000202502000652280120250000000137860+0000003705                                                                                                                                                                     00000N                    000000000000000000000000REFERENTE A REMUNERAO DO MS DE JANEIRO DE 2025CAMARA - CCS1/3 FRIAS INDENIZADAS                                                                                                                                                                                                                                                                                                                                 NSA00FX000000000000000000250000000000
010104122000100002064319113080000000000000000202502001135310120250000000140518+0000000006                                                                                                                                                                     00000N                    000000000000000000000000CONTRIB AO FAPS PARTE PATRONAL 16 REF REMUNERAO DE JANEIRO DE 2025 CAMARA - ESTATUTARIOS                                                                                                                                                                                                                                                                                                                        NSA00XX000000000000000000250000000000
010104122000100002064319113200000000000000000202502001136310120250000000145875+0000000006                                                                                                                                                                     00000N                    000000000000000000000000CONTRIB AO FAPS PARTE PATRONAL 24 REF REMUNERAO DE JANEIRO DE 2025 PASSIVO ATUARIALCAMARA - ESTATUTARIOS                                                                                                                                                                                                                                                                                                        NSA00XX000000000000000000250000000000
010101031001500002063319011750000000000000000202502000658280120250000000173040+0000000247                                                                                                                                                                     00000N                    000000000000000000000000REFERENTE A REMUNERAO DO MS DE JANEIRO DE 2025CAMARA - VEREADORESREPRESENTAO                                                                                                                                                                                                                                                                                                                                    NSA00FX000000000000000000250000000000
010104122000100002064339039580100000000000000202502000127080120250000000250000+0000004824                                                                                                                                                                     00000N                    000000000000000000000000LIGAES TELEFNICAS REALIZADAS ATRAVS DA LINHA 553539-1295 DA CAMARA DE VEREADORESFATURA N REF MS                                                                                                                                                                                                                                                                                                                 DPV08XX000000000000000000150000000000
010104122000100002064339046010000000000000000202502001148310120250000000332888+0000006424                                                                                                                                                                     00000N                    000000000000000000022021VALE ALIMENTAO PARA OS SERVIDORES MUNICIPAIS CONF LEI 2734/17 E DECRETO N 72/17 CONF RELATRIO PARA EMPENHO E NF-E N 268645PROCESSO 103/21 EDITAL 031/2021 PREGO ELETRONICO 02/2021 CONTRATO N42/2021                                                                                                                                                                                                            PRE07XS876128260001900000250000000000
010104122000100002064449052120000000000000000202502000597270120250000000384970+0000005184                                                                                                                                                                     00000N                    000000000000000000012025MATERIAL PERMANENTE PARA MANUTENO DAS ATIVIDADES DE APOIO A CAMARA DE VEREADORESPROCESSO N 01/2025   DISPENSA N 01/2025   PATRIM N       PATRIM N                                                                                                                                                                                                                                                               PRD08XX000000000000000000150000000000
010104122000100002064319011420000000000000000202502000651280120250000000413579+0000003705                                                                                                                                                                     00000N                    000000000000000000000000REFERENTE A REMUNERAO DO MS DE JANEIRO DE 2025CAMARA - CCSFRIAS INDENIZADAS                                                                                                                                                                                                                                                                                                                                     NSA00FX000000000000000000250000000000
010104122000100002064339040060000000000000000202502000249140120250000000528660+0000000167                                                                                                                                                                     00000N                    000000000000000000382023LOCAO DE SISTEMA INFORMATIZADO DE GESTO CONTBIL E FINANCEIRA FOLHA DE PAGAMENTO E PORTAL DA TRANSPARNCIA PARA A CMARA MUNICIPAL CONF RD 162/2025PREGO 38/2023 CONTRATO 71/2023 E ADITIVO 002/2024                                                                                                                                                                                                               PRP01XS876128260001900000150000000000
010101031001500002063319013020300000000000000202502001016310120250000000562380+0000000155                                                                                                                                                                     00000N                    000000000000000000000000CONTRIB PATRONAL AO INSS REF REMUNERAO DO MES DE JANEIRO DE 2025VEREADORES                                                                                                                                                                                                                                                                                                                                      NSA00XX000000000000000000250000000000
010104131000100002065339039920000000000000000202502000317150120250000000638000+0000000266                                                                                                                                                                     00000N                    000000000000000000000000SERVIOS DE DIVULGAO DE NOTCIAS REFERENTES A CMARA DE VEREADORES EM FORMA DE COLUNA EM ESPAO QUINZENAL PARA O MAIOR CONHECIMENTO DO PBLICO DAS ATIVIDADES LEGISLATIVAS CONF RD 215/2025                                                                                                                                                                                                                          DPV08XX000000000000000000150000000000
010104122000100002064319011010000000000000000202502000650280120250000000648807+0000003705                                                                                                                                                                     00000N                    000000000000000000000000REFERENTE A REMUNERAO DO MS DE JANEIRO DE 2025CAMARA - CCSSALARIO C/C                                                                                                                                                                                                                                                                                                                                           NSA00FX000000000000000000250000000000
010104122000100002064339035010000000000000000202502000982300120250000000737640+0000006872                                                                                                                                                                     00000N                    000000000000000000012023ASSESSORIA TECNICA E JURIDICA ESPECIALIZADA PARA A CAMARA DE VEREADORESPERODO DE 010125 A 01072025 ADITIVO 01 AO CONTRATO 01/2023 EM ANEXOVALOR MENSAL R 122940                                                                                                                                                                                                                                                 PRI01XX000000000000000000150000000000
010104122000100002064319011010000000000000000202502000655280120250000000849909+0000003705                                                                                                                                                                     00000N                    000000000000000000000000REFERENTE A REMUNERAO DO MS DE JANEIRO DE 2025CAMARA - ESTATUTARIOSVENCIMENTO                                                                                                                                                                                                                                                                                                                                   NSA00FX000000000000000000250000000000
010101031001500002063319011740000000000000000202502000657280120250000004672080+0000000247                                                                                                                                                                     00000N                    000000000000000000000000REFERENTE A REMUNERAO DO MS DE JANEIRO DE 2025CAMARA - VEREADORESSUBSIDIOS                                                                                                                                                                                                                                                                                                                                      NSA00FX000000000000000000250000000000
010104122000100002064339030079900000000000000202402010581111220240000000012864+0000010808                                                                                                                                                                     00000N                    000000000000000000000000192 UNIDADES DE COPO DE 200ML COM GUA MINERAL PARA SESSO DE POSSE QUE OCORRER EM 1 DE JANEIRO DE 2025                                                                                                                                                                                                                                                                                                           DPV08XX000000000000000000050000000000
010104122000100002064339030150000000000000000202402010875171220240000000016000+0000005557                                                                                                                                                                     00000N                    000000000000000000000000ARRANJO DE FLORES NATURAIS PARA DECORAR A MESA DIRETORA NA SESSO DE POSSE QUE OCORRER DIA 1 DE JANEIRO DE 2025                                                                                                                                                                                                                                                                                                  DPV08XX000000000000000000050000000000
010104122000100002064339039160000000000000000202402011284201220240000000050000+0000006698                                                                                                                                                                     00000N                    000000000000000000000000INSTALAO ELTRICA DE LMPADAS LED TUBULARES PARA PROPORCIONAR AMBIENTES MAIS ILUMINADOS E CLAROS DE MODO A FACILITAR A REALIZAO DAS TAREFAS NA CMARA E INSTALAO DE CANALETAS NO FIO DO VENTILADOR PARA PROPORCIONAR MAIOR SEGURANA                                                                                                                                                                                DPV08XX000000000000000000050000000000
010101031001500002063449052440000000000000000202402010495021220240000000057600+0000009093                                                                                                                                                                     00000N                    000000000000000000000000CONFECO DE 9 TOTENS EM ACRLICO TRANSPARENTE COM ADESIVO RETROVERSO BRANCO CONTENDO A IDENTIFICAO DOS VEREADORES DA 14 LEGISLATURA                                                                                                                                                                                                                                                                               DPV08XX000000000000000000050000000000
010104122000100002064339039120000000000000000202402011283201220240000000063000+0000010812                                                                                                                                                                     00000N                    000000000000000000000000LOCAO MONTAGEM DESMONTAGEM E DESLOCAMENTO DE DOIS CLIMATIZADORES EVAPORATIVOS COM NVOA MARCA JOAPE MODELO 660 POTNCIA 100W CADA DE TAMANHO DA PARTE SUPERIOR ONDE ESTA EQUIPADA COM A HLICE ALTURA 735CM LARGURA 845CM COMPRIMENTO 406CM TOTALIZANDO COM O PEDESTAL ONDE FICA A RESERVA DE GUA 240M DE ALTURA ESSES CLIMATIZADORES TORNAM-SE NECESSRIOS PARA PROPORCIONAR UM AMBIENTE CLIMATIZADO E CONFORTVEL NDPV08XX000000000000000000050000000000
010104122000100002064339039590000000000000000202402011290231220240000000240000+0000005644                                                                                                                                                                     00000N                    000000000000000000000000SERVIO DE SONORIZAO E TELO 4X2 METROS E SOM PARA A EXIBIO DA SESSO DE POSSE DE PREFEITO VICE-PREFEITO E VEREADORES QUE OCORRER DIA 1 DE JANEIRO DE 2025 NA QUADRA COBERTA DA PRAA JOO SAFFI                                                                                                                                                                                                                     DPV08XX000000000000000000050000000000
FINALIZADOR0000000043