12292535000162010120253101202527022025CAMARA DE VEREADORES DE INDEPENDENCIA-RS                                        
020250200064800000000000000000217280120250000000648807+                                                                                                                                                                     000000000000000000000000000000REFERENTE A REMUNERAO DO MS DE JANEIRO DE 2025CAMARA - CCSSALARIO C/C                                                                                                                                                                                                                                                                                                                                           N00000000000000000000                    0000X000000000   X
020250200064900000000000000000218280120250000000413579+                                                                                                                                                                     000000000000000000000000000000REFERENTE A REMUNERAO DO MS DE JANEIRO DE 2025CAMARA - CCSFRIAS INDENIZADAS                                                                                                                                                                                                                                                                                                                                     N00000000000000000000                    0000X000000000   X
020250200064900000000000000000218280120250000000413579-                                                                                                                                                                     000000000000000000000000000000REFERENTE A REMUNERAO DO MS DE JANEIRO DE 2025CAMARA - CCSFRIAS INDENIZADAS                                                                                                                                                                                                                                                                                                                                     N00000000000000000000                    0000X000000000   X
020250200064800000000000000000217280120250000000648807-                                                                                                                                                                     000000000000000000000000000000REFERENTE A REMUNERAO DO MS DE JANEIRO DE 2025CAMARA - CCSSALARIO C/C                                                                                                                                                                                                                                                                                                                                           N00000000000000000000                    0000X000000000   X
020250200013100000000000000000172270120250000000027000+                                                                                                                                                                     0000000000000000000000000000006 CPIAS DE CHAVE DA PORTA DE ENTRADA PRINCIPAL DO PALCIO DA PREFEITURA MUNICIPAL DE INDEPENDNCIA E ADQUIRIDO TAMBM UM NOVO CILINDRO DA PORTA DE ENTRADA DA CMARA DE VEREADORES ESTE CILINDRO VEM ACOMPANHADO DE DUAS CHAVES E FORAM FEITAS MAIS 4 CPIAS DESTA CHAVE LOGO FORAM ADQUIRIDAS 10 CHAVES NO TOTAL ADQUIRIDO TAMBM UMA NOVA FECHADURA PARA A GAVETA DA BANCADA DOS VEREADORES                         N00000000000000000000                    0000S0000015241  X
020250200065400000000000000000223280120250000000028330+                                                                                                                                                                     000000000000000000000000000000REFERENTE A REMUNERAO DO MS DE JANEIRO DE 2025CAMARA - ESTATUTARIOSANUENIOS                                                                                                                                                                                                                                                                                                                                     N00000000000000000000                    0000X000000000   X
020250200013200000000000000000054100120250000000029400+                                                                                                                                                                     000000000000000000000000000000CERTIFICADO DIGITAL TIPO E-CPF A3 COM TOKEN COM VALIDADE PARA 1 ANO                                                                                                                                                                                                                                                                                                                                             N00000000000000000000                    0000S0000119470  X
020250200013400000000000000000173270120250000000055000+                                                                                                                                                                     000000000000000000000000000000CONSERTO DE 5 CADEIRAS DE ESCRITRIO TROCAR ACENTO CONSERTO DO ENCOSTO E AJUSTE DE ALTURA CONSERTO DE RODINHAS                                                                                                                                                                                                                                                                                                   N00000000000000000000                    0000S0000000270  X
020250200065600000000000000000225280120250000000065675+                                                                                                                                                                     000000000000000000000000000000REFERENTE A REMUNERAO DO MS DE JANEIRO DE 2025CAMARA - ESTATUTARIOSINSALUBRIDADE                                                                                                                                                                                                                                                                                                                                N00000000000000000000                    0000X000000000   X
020250200101700000000000000000574310120250000000084345+                                                                                                                                                                     000000000000000000000000000000CONTRIB PATRONAL AO INSS REF REMUNERAO DO MES DE JANEIRO DE 2025CAMARA - CCS                                                                                                                                                                                                                                                                                                                                    N00000000000000000000                    0000X000000000   X
020250200018700000000000000000171270120250000000099950+                                                                                                                                                                     000000000000000000000000000000MATERIAL DE EXPEDIENTE PARA MANUTENO DOS TRABALHOS DA CAMARA DE VEREADORES - FOLHA DE OFCIO A4 PROCESSO DE LICITAO N489/2023 PREGO ELETRNICO N38/2023 SRP N49/2023                                                                                                                                                                                                                                              N00000000000000000000                    0000S0000162320  X
020250200065300000000000000000222280120250000000125769+                                                                                                                                                                     000000000000000000000000000000REFERENTE A REMUNERAO DO MS DE JANEIRO DE 2025CAMARA - ESTATUTARIOSFRIAS                                                                                                                                                                                                                                                                                                                                        N00000000000000000000                    0000X000000000   X
020250200065200000000000000000221280120250000000137860+                                                                                                                                                                     000000000000000000000000000000REFERENTE A REMUNERAO DO MS DE JANEIRO DE 2025CAMARA - CCS1/3 FRIAS INDENIZADAS                                                                                                                                                                                                                                                                                                                                 N00000000000000000000                    0000X000000000   X
020250200113500000000000000000692310120250000000140518+                                                                                                                                                                     000000000000000000000000000000CONTRIB AO FAPS PARTE PATRONAL 16 REF REMUNERAO DE JANEIRO DE 2025 CAMARA - ESTATUTARIOS                                                                                                                                                                                                                                                                                                                        N00000000000000000000                    0000X000000000   X
020250200113600000000000000000693310120250000000145875+                                                                                                                                                                     000000000000000000000000000000CONTRIB AO FAPS PARTE PATRONAL 24 REF REMUNERAO DE JANEIRO DE 2025 PASSIVO ATUARIALCAMARA - ESTATUTARIOS                                                                                                                                                                                                                                                                                                        N00000000000000000000                    0000X000000000   X
020250200065800000000000000000227280120250000000173040+                                                                                                                                                                     000000000000000000000000000000REFERENTE A REMUNERAO DO MS DE JANEIRO DE 2025CAMARA - VEREADORESREPRESENTAO                                                                                                                                                                                                                                                                                                                                    N00000000000000000000                    0000X000000000   X
020250200012700000000000000000034090120250000000017783+                                                                                                                                                                     000000000000000000000000000000LIGAES TELEFNICAS REALIZADAS ATRAVS DA LINHA 553539-1295 DA CAMARA DE VEREADORESFATURA N REF MS                                                                                                                                                                                                                                                                                                                 N00000000000000000000                    0000S028456166U  X
020250200114800000000000000000718310120250000000332888+                                                                                                                                                                     000000000000000000000000000000VALE ALIMENTAO PARA OS SERVIDORES MUNICIPAIS CONF LEI 2734/17 E DECRETO N 72/17 CONF RELATRIO PARA EMPENHO E NF-E N 268645PROCESSO 103/21 EDITAL 031/2021 PREGO ELETRONICO 02/2021 CONTRATO N42/2021                                                                                                                                                                                                            S0000000000000000004249                  2021S0002686451  C
020250200065100000000000000000220280120250000000413579+                                                                                                                                                                     000000000000000000000000000000REFERENTE A REMUNERAO DO MS DE JANEIRO DE 2025CAMARA - CCSFRIAS INDENIZADAS                                                                                                                                                                                                                                                                                                                                     N00000000000000000000                    0000X000000000   X
020250200101600000000000000000573310120250000000562380+                                                                                                                                                                     000000000000000000000000000000CONTRIB PATRONAL AO INSS REF REMUNERAO DO MES DE JANEIRO DE 2025VEREADORES                                                                                                                                                                                                                                                                                                                                      N00000000000000000000                    0000X000000000   X
020250200065000000000000000000219280120250000000648807+                                                                                                                                                                     000000000000000000000000000000REFERENTE A REMUNERAO DO MS DE JANEIRO DE 2025CAMARA - CCSSALARIO C/C                                                                                                                                                                                                                                                                                                                                           N00000000000000000000                    0000X000000000   X
020250200065500000000000000000224280120250000000849909+                                                                                                                                                                     000000000000000000000000000000REFERENTE A REMUNERAO DO MS DE JANEIRO DE 2025CAMARA - ESTATUTARIOSVENCIMENTO                                                                                                                                                                                                                                                                                                                                   N00000000000000000000                    0000X000000000   X
020250200065700000000000000000226280120250000004672080+                                                                                                                                                                     000000000000000000000000000000REFERENTE A REMUNERAO DO MS DE JANEIRO DE 2025CAMARA - VEREADORESSUBSIDIOS                                                                                                                                                                                                                                                                                                                                      N00000000000000000000                    0000X000000000   X
020240201058100000000000000016143090120250000000012864+                                                                                                                                                                     000000000000000000000000000000192 UNIDADES DE COPO DE 200ML COM GUA MINERAL PARA SESSO DE POSSE QUE OCORRER EM 1 DE JANEIRO DE 2025                                                                                                                                                                                                                                                                                                           N00000000000000000000                    0000S0000044061  X
020240201087500000000000000016142090120250000000016000+                                                                                                                                                                     000000000000000000000000000000ARRANJO DE FLORES NATURAIS PARA DECORAR A MESA DIRETORA NA SESSO DE POSSE QUE OCORRER DIA 1 DE JANEIRO DE 2025                                                                                                                                                                                                                                                                                                  N00000000000000000000                    0000S0000000811  X
020240201128400000000000000016140090120250000000050000+                                                                                                                                                                     000000000000000000000000000000INSTALAO ELTRICA DE LMPADAS LED TUBULARES PARA PROPORCIONAR AMBIENTES MAIS ILUMINADOS E CLAROS DE MODO A FACILITAR A REALIZAO DAS TAREFAS NA CMARA E INSTALAO DE CANALETAS NO FIO DO VENTILADOR PARA PROPORCIONAR MAIOR SEGURANA                                                                                                                                                                                N00000000000000000000                    0000S0000000050  X
020240201049500000000000000016144090120250000000057600+                                                                                                                                                                     000000000000000000000000000000CONFECO DE 9 TOTENS EM ACRLICO TRANSPARENTE COM ADESIVO RETROVERSO BRANCO CONTENDO A IDENTIFICAO DOS VEREADORES DA 14 LEGISLATURA                                                                                                                                                                                                                                                                               N00000000000000000000                    0000S0000035541  X
020240201128300000000000000016141090120250000000063000+                                                                                                                                                                     000000000000000000000000000000LOCAO MONTAGEM DESMONTAGEM E DESLOCAMENTO DE DOIS CLIMATIZADORES EVAPORATIVOS COM NVOA MARCA JOAPE MODELO 660 POTNCIA 100W CADA DE TAMANHO DA PARTE SUPERIOR ONDE ESTA EQUIPADA COM A HLICE ALTURA 735CM LARGURA 845CM COMPRIMENTO 406CM TOTALIZANDO COM O PEDESTAL ONDE FICA A RESERVA DE GUA 240M DE ALTURA ESSES CLIMATIZADORES TORNAM-SE NECESSRIOS PARA PROPORCIONAR UM AMBIENTE CLIMATIZADO E CONFORTVEL NN00000000000000000000                    0000S000000061000X
020240201129000000000000000016145090120250000000240000+                                                                                                                                                                     000000000000000000000000000000SERVIO DE SONORIZAO E TELO 4X2 METROS E SOM PARA A EXIBIO DA SESSO DE POSSE DE PREFEITO VICE-PREFEITO E VEREADORES QUE OCORRER DIA 1 DE JANEIRO DE 2025 NA QUADRA COBERTA DA PRAA JOO SAFFI                                                                                                                                                                                                                     N00000000000000000000                    0000S0000002551  X
FINALIZADOR0000000029