12292535000162010120253101202527022025CAMARA DE VEREADORES DE INDEPENDENCIA-RS                                        
020250200065400000000000000762980300120250000000028330+                                                                                                                                                      000000021311010101000201000000021311010101000201REFERENTE A REMUNERAO DO MS DE JANEIRO DE 2025CAMARA - ESTATUTARIOSANUENIOS                                                                                                                                                                                                                                                                                                                                     00000000000000000408
020250200013200000000000000761177100120250000000029400+                                                                                                                                                      000000021311010101000201000000021311010101000201CERTIFICADO DIGITAL TIPO E-CPF A3 COM TOKEN COM VALIDADE PARA 1 ANO                                                                                                                                                                                                                                                                                                                                             00000000000000000025
020250200065600000000000000762982300120250000000065675+                                                                                                                                                      000000021311010101000201000000021311010101000201REFERENTE A REMUNERAO DO MS DE JANEIRO DE 2025CAMARA - ESTATUTARIOSINSALUBRIDADE                                                                                                                                                                                                                                                                                                                                00000000000000000410
020250200065300000000000000762979300120250000000125769+                                                                                                                                                      000000021311010101000201000000021311010101000201REFERENTE A REMUNERAO DO MS DE JANEIRO DE 2025CAMARA - ESTATUTARIOSFRIAS                                                                                                                                                                                                                                                                                                                                        00000000000000000407
020250200065200000000000000762978300120250000000137860+                                                                                                                                                      000000021311010101000201000000021311010101000201REFERENTE A REMUNERAO DO MS DE JANEIRO DE 2025CAMARA - CCS1/3 FRIAS INDENIZADAS                                                                                                                                                                                                                                                                                                                                 00000000000000000406
020250200065800000000000000762984300120250000000173040+                                                                                                                                                      000000021311010101000201000000021311010101000201REFERENTE A REMUNERAO DO MS DE JANEIRO DE 2025CAMARA - VEREADORESREPRESENTAO                                                                                                                                                                                                                                                                                                                                    00000000000000000412
020250200012700000000000000761176100120250000000017783+                                                                                                                                                      000000021311010101000201000000021311010101000201LIGAES TELEFNICAS REALIZADAS ATRAVS DA LINHA 553539-1295 DA CAMARA DE VEREADORESFATURA N REF MS                                                                                                                                                                                                                                                                                                                 00000000000000000024
020250200065100000000000000762977300120250000000413579+                                                                                                                                                      000000021311010101000201000000021311010101000201REFERENTE A REMUNERAO DO MS DE JANEIRO DE 2025CAMARA - CCSFRIAS INDENIZADAS                                                                                                                                                                                                                                                                                                                                     00000000000000000405
020250200065000000000000000762976300120250000000648807+                                                                                                                                                      000000021311010101000201000000021311010101000201REFERENTE A REMUNERAO DO MS DE JANEIRO DE 2025CAMARA - CCSSALARIO C/C                                                                                                                                                                                                                                                                                                                                           00000000000000000404
020250200065500000000000000762981300120250000000849909+                                                                                                                                                      000000021311010101000201000000021311010101000201REFERENTE A REMUNERAO DO MS DE JANEIRO DE 2025CAMARA - ESTATUTARIOSVENCIMENTO                                                                                                                                                                                                                                                                                                                                   00000000000000000409
020250200065700000000000000762983300120250000004672080+                                                                                                                                                      000000021311010101000201000000021311010101000201REFERENTE A REMUNERAO DO MS DE JANEIRO DE 2025CAMARA - VEREADORESSUBSIDIOS                                                                                                                                                                                                                                                                                                                                      00000000000000000411
020240201058100000000000000761180100120250000000012864+                                                                                                                                                      000000021311010101000201000000021311010101000201192 UNIDADES DE COPO DE 200ML COM GUA MINERAL PARA SESSO DE POSSE QUE OCORRER EM 1 DE JANEIRO DE 2025                                                                                                                                                                                                                                                                                                           00000000000000015914
020240201087500000000000000761181100120250000000016000+                                                                                                                                                      000000021311010101000201000000021311010101000201ARRANJO DE FLORES NATURAIS PARA DECORAR A MESA DIRETORA NA SESSO DE POSSE QUE OCORRER DIA 1 DE JANEIRO DE 2025                                                                                                                                                                                                                                                                                                  00000000000000015915
020240201128400000000000000761178100120250000000050000+                                                                                                                                                      000000021311010101000201000000021311010101000201INSTALAO ELTRICA DE LMPADAS LED TUBULARES PARA PROPORCIONAR AMBIENTES MAIS ILUMINADOS E CLAROS DE MODO A FACILITAR A REALIZAO DAS TAREFAS NA CMARA E INSTALAO DE CANALETAS NO FIO DO VENTILADOR PARA PROPORCIONAR MAIOR SEGURANA                                                                                                                                                                                00000000000000015912
020240201049500000000000000761179100120250000000057600+                                                                                                                                                      000000021311010101000201000000021311010101000201CONFECO DE 9 TOTENS EM ACRLICO TRANSPARENTE COM ADESIVO RETROVERSO BRANCO CONTENDO A IDENTIFICAO DOS VEREADORES DA 14 LEGISLATURA                                                                                                                                                                                                                                                                               00000000000000015913
020240201128300000000000000761182100120250000000063000+                                                                                                                                                      000000021311010101000201000000021311010101000201LOCAO MONTAGEM DESMONTAGEM E DESLOCAMENTO DE DOIS CLIMATIZADORES EVAPORATIVOS COM NVOA MARCA JOAPE MODELO 660 POTNCIA 100W CADA DE TAMANHO DA PARTE SUPERIOR ONDE ESTA EQUIPADA COM A HLICE ALTURA 735CM LARGURA 845CM COMPRIMENTO 406CM TOTALIZANDO COM O PEDESTAL ONDE FICA A RESERVA DE GUA 240M DE ALTURA ESSES CLIMATIZADORES TORNAM-SE NECESSRIOS PARA PROPORCIONAR UM AMBIENTE CLIMATIZADO E CONFORTVEL N00000000000000015916
020240201129000000000000000761183100120250000000240000+                                                                                                                                                      000000021311010101000201000000021311010101000201SERVIO DE SONORIZAO E TELO 4X2 METROS E SOM PARA A EXIBIO DA SESSO DE POSSE DE PREFEITO VICE-PREFEITO E VEREADORES QUE OCORRER DIA 1 DE JANEIRO DE 2025 NA QUADRA COBERTA DA PRAA JOO SAFFI                                                                                                                                                                                                                     00000000000000015917
FINALIZADOR0000000017