12292535000162010120253101202527022025CAMARA DE VEREADORES DE INDEPENDENCIA-RS                                        
201301001AQUISICAO DE VEICULO PARA O PODER LEGISLATIVO                                   02
201301002EDIFICAO DO IMVEL DO PODER LEGISLATIVO                                          02
201301068AQUISICAO DE EQUIPAMENTOS E MATERIAL PERMANENTE PARA A CAMARA DE VEREADORES     02
201302001MANUTENCAO DAS ATIVIDADES DO PODER LEGISLATIVO                                  02
201302095MANUTENO DAS ATIVIDADES PARLAMENTARES                                           02
201401001CONSTRUCAO DA SEDE PROPRIA DO PODER LEGISLATIVO                                 02
201402001MANUTENCAO DAS ATIVIDADES PARLAMENTARES                                         02
201402002MANUTENCAO DAS ATIVIDADES DE APOIO DA CAMARA                                    02
201900019AUXLIO-ALIMENTAO PARA SERVIDORES DA CMARA                                       02
201900034BENEFICIOS ESTATUTARIOS DOS SERVIDORES DA CAMARA                                02
201902001MANUTENO DAS ATIVIDADES DOS VEREADORES                                          02
201902002MANUTENO DAS ATIVIDADES DE APOIO DA CMARA                                       02
202100013BENEFCIOS ASSISTENCIAIS DO RPPS                                                 02
202100034BENEFICIOS ESTATUTARIOS DOS SERVIDORES DA CAMARA                                02
202100803AUXLIO-ALIMENTAO PARA SERVIDORES DA CMARA                                       02
202102001MANUTENO DAS ATIVIDADES DOS VEREADORES                                          02
202102002MANUTENO DAS ATIVIDADES DE APOIO DA CMARA                                       02
202102116PUBLICIDADE INSTITUCIONAL E DE UTILIDADE PBLICA                                 02
202202063MANUTENO DAS ATIVIDADES DOS VEREADORES                                          02
202202064MANUTENO DAS ATIVIDADES DE APOIO DA CMARA                                       02
202202065PUBLICIDADE INSTITUCIONAL E DE UTILIDADE PBLICA DO LEGISLATIVO                  02
202301080CONSTRUO DA CMARA DE VEREADORES                                                 02
202301108REALIZAO DE CONCURSO PBLICO PARA O PODER LEGISLATIVO                            02
202302063MANUTENCAO DAS ATIVIDADES DOS VEREADORES                                        02
202302064MANUTENCAO DAS ATIVIDADES DE APOIO DA CAMARA                                    02
202302065PUBLICIDADE INSTITUCIONAL E DE UTILIDADE PUBLICA DO LEGISLATIVO                 02
202401080CONSTRUO DA CMARA DE VEREADORES                                                 02
202401108REALIZAO DE CONCURSO PBLICO PARA O PODER LEGISLATIVO                            02
202402063MANUTENCAO DAS ATIVIDADES DOS VEREADORES                                        02
202402064MANUTENCAO DAS ATIVIDADES DE APOIO DA CAMARA                                    02
202402065PUBLICIDADE INSTITUCIONAL E DE UTILIDADE PUBLICA DO LEGISLATIVO                 02
202501080CONSTRUO DA CMARA DE VEREADORES                                                 02
202501108REALIZAO DE CONCURSO PBLICO PARA O PODER LEGISLATIVO                            02
202502063MANUTENCAO DAS ATIVIDADES DOS VEREADORES                                        02
202502064MANUTENCAO DAS ATIVIDADES DE APOIO DA CAMARA                                    02
202502065PUBLICIDADE INSTITUCIONAL E DE UTILIDADE PUBLICA DO LEGISLATIVO                 02
FINALIZADOR0000000036