12292535000162010120253101202527022025CAMARA DE VEREADORES DE INDEPENDENCIA-RS                                        
2005300000000000000DESPESAS CORRENTES                                                                                            S01
2005310000000000000PESSOAL E ENCARGOS SOCIAIS                                                                                    S02
2005319000000000000APLICACOES DIRETAS                                                                                            S03
2005319001000000000APOSENTADORIAS E REFORMAS                                                                                     S05
2005319001010000000PROVENTOS - PESSOAL CIVIL                                                                                     A06
200531900106000000013 SALARIO - PESSOAL CIVIL                                                                                    A06
2005319001990000000OUTRAS APOSENTADORIAS                                                                                         A06
2005319003000000000PENSOES                                                                                                       S05
2005319003010000000CIVIS                                                                                                         A06
200531900303000000013 SALARIO - PESSOAL CIVIL - PENSIONISTAS                                                                     A06
2005319003990000000OUTRAS PENSOES                                                                                                A06
2005319004000000000CONTRATACAO POR TEMPO DETERMINADO                                                                             S05
2005319004010000000PROFESSORES SUBSTITUTOS/VISITANTES                                                                            S06
2005319004010100000CONTRATACAO POR TEMPO DETERMINADO-PROFESSORES NO EFETIVO EXERCICIO DO MAGISTERIO 60 FUNDEF                    A07
2005319004010200000CONTRATACAO POR TEMPO DETERMINADO DE PROFESSORES                                                              A07
2005319004150000000OBRIGACOES PATRONAIS                                                                                          A06
2005319004990000000OUTRAS CONTRATACOES POR TEMPO DETERMINADO                                                                     S06
2005319004990100000CONTRATACAO POR TEMPO DETERMINADO DE PROFISSIONAIS DA SAUDE                                                   A07
2005319004990100100CONTRATAAO POR TEMPO DETERMINADO DA SADE - SERVIDORES                                                         A08
2005319004990100200CONTRATAAO POR TEMPO DETERMINADO P S F FED - SERVIDORES                                                       A08
2005319004990100300CONTRATAAO POR TEMPO DETERMINADO P A C S FED - SERVIDORES                                                     A08
2005319004990100400CONTRATAAO POR TEMPO DETERMINADO - PSF EST- SERVIDOR                                                          A08
2005319004990200000CONTRATAAO POR TEMPO DETERMINADO DE PROFISSIONAIS DA ASSIST SOCIAL                                            A07
2005319004990300000CONTRATAAO POR TEMPO DETERMINADO DE PROFISSIONAIS DE OUTRAS REAS                                              A07
200531900499040000013O SALRIO DE CONTRATAADOS                                                                                    S07
200531900499040010013O SALARIO CONTRATADOS SADE                                                                                  A08
200531900499040020013O SALRIO CONTRATADOS PSF FED                                                                                A08
200531900499040030013O SALRIO CONTRATADOS PACS FED                                                                               A08
200531900499040040013O SALARIO CONTRATADOS PSF EST                                                                               A08
200531900499040050013O SALARIO DEMAIS CONTRATADOS                                                                                A08
2005319005000000000OUTROS BENEFICIOS PREVIDENCIARIOS                                                                             S05
2005319005000100000OUTROS BENEFICIOS PREVIDENCIARIOS - PESSOAL ATIVO                                                             S07
2005319005000100100AUXILIO-DOENCA - PESSOAL ATIVO                                                                                A08
2005319005000100200AUXILIO-RECLUSAO - PESSOAL ATIVO                                                                              A08
2005319005000100300SALARIO MATERNIDADE - PESSOAL ATIVO                                                                           A08
2005319005000100400ESPECIFICACAO DAS DEMAIS CONTAS                                                                               A08
2005319005000200000OUTROS BENEFICIOS PREVIDENCIARIOS - PESSOAL INATIVO                                                           S07
2005319005000200100AUXILIO-DOENCA - PESSOAL INATIVO                                                                              A08
2005319005000200200AUXILIO-RECLUSAO - PESSOAL INATIVO                                                                            A08
2005319005000200300SALARIO MATERNIDADE - PESSOAL INATIVO                                                                         A08
2005319005000200400ESPECIFICACAO DAS DEMAIS CONTAS                                                                               A08
2005319005000300000OUTROS BENEFICIOS PREVIDENCIARIOS - PENSIONISTAS                                                              S07
2005319005000300100AUXILIO-DOENCA - PENSIONISTAS                                                                                 A08
2005319005000300200AUXILIO-RECLUSAO - PENSIONISTAS                                                                               A08
2005319005000300300SALARIO MATERNIDADE - PENSIONISTAS                                                                            A08
2005319005000300400ESPECIFICACAO DAS DEMAIS CONTAS                                                                               A08
2005319007000000000CONTRIBUICAO  A ENTIDADES FECHADAS DE PREVIDENCIA                                                             S05
2005319007010000000COMPLEMENTACAO DE PREVIDENCIA                                                                                 A06
2005319007030000000CONTRIBUICAO  PATRONAL PREVIDENCIA PRIVADA                                                                    A06
2005319007990000000OUTRAS CONTRIBUICOES                                                                                          A06
2005319008000000000OUTROS BENEFICIOS ASSISTENCIAIS                                                                               S05
2005319008010000000AUXILIO FUNERAL ATIVO CIVIL                                                                                   A06
2005319008030000000AUXILIO FUNERAL INATIVO CIVIL                                                                                 A06
2005319008050000000AUXILIO NATALIDADE ATIVO CIVIL                                                                                A06
2005319008070000000AUXILIO NATALIDADE INATIVO CIVIL                                                                              A06
2005319008090000000AUXILIO RECLUSAO ATIVO CIVIL                                                                                  A06
2005319008110000000AUXILIO RECLUSAO INATIVO CIVIL                                                                                A06
2005319008130000000AUXILIO FUNERAL PENSIONISTA CIVIL                                                                             A06
2005319008150000000AUXILIO RECLUSAO PENSIONISTA CIVIL                                                                            A06
2005319008180000000AUXILIO NATALIDADE PENSIONISTA CIVIL                                                                          A06
2005319008990000000OUTROS BENEFICIOS ASSISTENCIAIS                                                                               S06
2005319008990100000AUXILIO CRECHE                                                                                                A07
2005319008990200000ASSISTENCIA PRE-ESCOLAR                                                                                       A07
2005319008990300000AUXILIO INVALIDEZ                                                                                             A07
2005319008990400000CONTRIBUICAO DA ENTIDADE PARA O ATENDIMENTO A SAUDE DO SERVIDOR                                               A07
2005319008990500000ESPECIFICACAO DAS DEMAIS CONTAS                                                                               A07
2005319009000000000SALARIO-FAMILIA                                                                                               S05
2005319009010000000SALARIO FAMILIA - ATIVO PESSOAL CIVIL                                                                         S06
2005319009010100000SALARIO-FAMILIA DOS SERVIDORES                                                                                A07
2005319009010200000SALARIO-FAMILIA-PROFESORES NO EFETIVO EXERCICIO  DO MAGISTERIO 60 FUNDEF                                      A07
2005319009020000000SALARIO FAMILIA-INATIVO PESSOAL CIVIL                                                                         A06
2005319009050000000SALARIO FAMILIA-PENSIONISTA PESSOAL CIVIL                                                                     A06
2005319009990000000OUTROS SALARIOS-FAMILIA                                                                                       A06
2005319011000000000VENCIMENTOS E VANTAGENS FIXAS - PESSOAL CIVIL                                                                 S05
2005319011010000000VENCIMENTOS E SALARIOS                                                                                        A06
2005319011010100000VENCIMENTOS E VANTAGENS FIXAS                                                                                 S07
2005319011010100100VENCIMENTOS E VANTAGENS FIXAS - SERVIDORES                                                                    A08
2005319011010100200VENCIMENTOS E VANTAGENS FIXAS - P S F FE - SERVIDORES                                                         A08
2005319011010100300VENCIMENTOS E VANTAGENS FIXAS - P A C S - SERVIDORES                                                          A08
2005319011010100400VENCIMENTOS E VANTAGENS FIXAS- P S F EST - SERVIDORES                                                         A08
2005319011010200000VENCIMENTOS E VANTAGENS FIXAS-PROFESSORES NO EFETIVO EXERCICIO DO MAGISTERIO 60 FUNDEF                        A07
2005319011040000000ADICIONAL NOTURNO                                                                                             A06
2005319011050000000INCORPORACOES                                                                                                 A06
2005319011080000000ADIANTAMENTO PECUNIARIO                                                                                       A06
2005319011090000000ADICIONAL DE PERICULOSIDADE                                                                                   A06
2005319011100000000ADICIONAL DE INSALUBRIDADE                                                                                    A06
2005319011300000000ABONO PROVISORIO - PESSOAL CIVIL                                                                              A06
2005319011310000000GRATIFICACAO POR EXERCICIO DE CARGOS                                                                          A06
2005319011330000000GRATIFICACAO POR EXERCICIO DE FUNCOES                                                                         A06
2005319011370000000GRATIFICACAO DE TEMPO DE SERVICO                                                                              A06
2005319011420000000FERIAS INDENIZADAS                                                                                            A06
200531901143000000013 SALARIO                                                                                                    A06
2005319011440000000FERIAS - ABONO PECUNIARIO                                                                                     A06
2005319011450000000FERIAS - ABONO CONSTITUCIONAL                                                                                 A06
2005319011460000000FERIAS - PAGAMENTO ANTECIPADO                                                                                 A06
2005319011470000000LICENCA-PREMIO                                                                                                A06
2005319011490000000LICENCA CAPACITACAO                                                                                           A06
2005319011730000000REMUNERAAO PELA  PARTICIPACAO EM  ORGAOS DE  DELIBERACAO COLETIVA                                             S06
2005319011730100000REMUNERACAO DOS CONSELHEIROS TUTELARES                                                                        A07
2005319011730200000REMUNERACAO DOS INTEGRANTES DAS JARIS                                                                         A07
2005319011730300000ESPECIFICACAO DAS DEMAIS CONTAS                                                                               A07
2005319011740000000SUBSIDIOS                                                                                                     A06
2005319011750000000REPRESENTACAO MENSAL                                                                                          A06
2005319011990000000OUTRAS DESPESAS FIXAS - PESSOAL CIVIL                                                                         A06
2005319013000000000OBRIGACOES PATRONAIS                                                                                          S05
2005319013010000000FGTS                                                                                                          S06
2005319013010100000FGTS - SERVIDORES                                                                                             A07
2005319013010200000FGTS - PROFESSORES NO EFETIVO EXERCICIO DO MAGISTERIO 60 FUNDEF                                               A07
2005319013020000000CONTRIBUICOES PREVIDENCIARIAS - INSS                                                                          S06
2005319013020100000INSS - SERVIDORES                                                                                             A07
2005319013020200000INSS - PROFESSORES NO EFETIVO EXERCICIO DO MAGISTERIO 60 FUNDEF                                               A07
2005319013020300000INSS - AGENTES POLITICOS                                                                                      A07
2005319013020400000INSS SOBRE SESSAO EXTRAORDINARIA - AGENTES POLITICOS                                                          A07
2005319013020500000INSS SOBRE CONVOCACAO EXTRAORDINARIA - AGENTES POLITICOS                                                      A07
2005319013150000000MULTAS                                                                                                        A06
2005319013990000000OUTRAS OBRIGACOES PATRONAIS                                                                                   A06
2005319016000000000OUTRAS DESPESAS VARIAVEIS - PESSOAL CIVIL                                                                     S05
2005319016040000000CONVOCACAO EXTRAORDINARIA                                                                                     A06
2005319016320000000SUBSTITUICOES                                                                                                 A06
2005319016440000000SERVICOS EXTRAORDINARIOS                                                                                      A06
2005319016990000000OUTRAS DESPESAS VARIAVEIS - PESSOAL CIVIL                                                                     S06
2005319016990100000AJUDA DE CUSTO                                                                                                A07
2005319016990200000REMOCOES                                                                                                      A07
2005319016990300000SESSOES EXTRAORDINARIAS                                                                                       A07
2005319016990400000GRATIFICAAO MENSAL                                                                                            S07
2005319016990400100GRATIFICAAO MENSAL - PSF                                                                                      A08
2005319016990400200GRATIFICAAO MENSAL - PSF BUCAL                                                                                A08
2005319016990400300GRATIFICAAO MENSAL - PROG INVERNO GAUCHO C/SADE                                                               A08
200531901699040040013O SALRIO GRATIFICAAO DO PSF                                                                                 A08
200531901699040050013O SALRIO GRATIFICAAO PSF BUCAL                                                                              A08
200531901699040060013O SALRIO GRATIFICAAO DEMAIS                                                                                 A08
2005319016990500000AUXLIO A INCAPACITADO P/ACIDENTE                                                                              A07
2005319034000000000OUTRAS DESPESAS DE PESSOAL DECORRENTES DE  CONTRATOS DE TERCEIRIZACAO                                         S05
2005319034010000000SUBSTITUICAO  DE MAO-DE-OBRA  ART18 PAR1 LC 101                                                               A06
2005319036000000000OUTROS SERVICOS DE TERCEIROS - PESSOA FISICA                                                                  S05
2005319036000100000ESPECIFICACAO DAS CONTAS                                                                                      A07
2005319046000000000AUXILIO-ALIMENTACAO                                                                                           S05
2005319046000100000AUXILIO-ALIMENTACAO - PROFESSORES NO EFETIVO EXERCICIO DO MAGISTERIO 60 FUNDEF                                A07
2005319046000200000AUXILIO-ALIMENTACAO - SERVIDORES                                                                              A07
2005319047000000000OBRIGACOES TRIBUTARIAS E CONTRIBUTIVAS                                                                        S05
2005319047010000000CONTRIBUICAO PARA O PASEP                                                                                     S06
2005319047010100000PASEP-SERVIDORES                                                                                              A07
2005319047010200000PASEP- PROFESSORES NO EFETIVO EXERCICIO DO MAGISTERIO 60 FUNDEF                                               A07
2005319047020000000CONTRIBUICAO SUPLEMENTAR AO FGTS                                                                              A06
2005319047030000000PAGAMENTO DE PARCELAMENTO DE DIVIDAS COM ENCARGOS SOCIAIS                                                     A06
2005319047040000000ESPECIFICACAO DAS DEMAIS CONTAS                                                                               A06
2005319067000000000DEPOSITOS COMPULSORIOS                                                                                        S05
2005319067020000000DEPOSITOS JUDICIAIS                                                                                           A06
2005319067030000000DEPOSITOS PARA RECURSOS                                                                                       A06
2005319067990000000OUTROS DEPOSITOS COMPULSORIOS                                                                                 A06
2005319091000000000SENTENCAS JUDICIAIS                                                                                           S05
2005319091010000000PRECATORIOS - ATIVO CIVIL                                                                                     A06
2005319091060000000SENTENCAS JUDICIAIS DE PEQUENO VALOR                                                                          A06
2005319091230000000PRECATORIOS - INATIVO CIVIL                                                                                   A06
2005319091360000000PRECATORIOS - PENSIONISTA CIVIL                                                                               A06
2005319092000000000DESPESAS DE EXERCICIOS ANTERIORES                                                                             S05
2005319092010000000ATIVO CIVIL                                                                                                   A06
2005319092020000000INATIVO CIVIL                                                                                                 A06
2005319092040000000OUTRAS DESPESAS VARIAVEIS - CIVIL                                                                             A06
2005319092050000000OBRIGACOES PATRONAIS - ATIVO CIVIL                                                                            A06
2005319092060000000OBRIGACOES PATRONAIS - INATIVO CIVIL                                                                          A06
2005319092120000000PENSIONISTA CIVIL                                                                                             A06
2005319092230000000GRATIFICACAO POR TEMPO DE SERVICO-ANUENIO ATIVO CIVIL                                                         A06
2005319092240000000GRATIFICACAO POR  TEMPO DE SERVICO-ANUENIO INATIVO CIVIL                                                      A06
2005319092250000000GRATIFICACAO POR TEMPO DE SERVICO-ANUENIO PENSIONISTA  CIVIL                                                  A06
2005319092260000000RESSARCIMENTO DE DESPESAS DE PESSOAL REQUISITADO                                                              A06
2005319092910000000PRECATORIOS                                                                                                   A06
2005319092990000000OUTRAS DESPESAS DE EXERCICIOS ANTERIORES                                                                      A06
2005319094000000000INDENIZACOES TRABALHISTAS                                                                                     S05
2005319094010000000INDENIZACOES TRABALHISTAS - ATIVO CIVIL                                                                       S06
2005319094010100000INDENIZACAO PARA DEMISSAO DE SERVIDORES/ EMPREGADOS                                                           A07
2005319094010200000DESPESAS RELATIVAS A PROGRAMAS DE  DESLIGAMENTO VOLUNTARIO                                                    A07
2005319094010300000FERIAS E/OU AVISO PREVIO INDENIZADO                                                                           A07
2005319094010400000ESPECIFICACAO DAS DEMAIS CONTAS                                                                               A07
2005319094030000000INDENIZACOES TRABALHISTAS - INATIVO CIVIL                                                                     A06
2005319094130000000INDENIZACOES TRABALHISTAS - PENSIONISTA CIVIL                                                                 A06
2005319094990000000DIVERSAS INDENIZACOES TRABALHISTAS                                                                            A06
2005319096000000000RESSARCIMENTO DE DESPESAS  DE PESSOAL REQUISITADO                                                             S05
2005319096010000000PESSOAL REQUISITADO DE OUTROS ORGAOS                                                                          A06
2005320000000000000JUROS E ENCARGOS DA DIVIDA                                                                                    S02
2005329000000000000APLICACOES DIRETAS                                                                                            S03
2005329021000000000JUROS SOBRE A DIVIDA POR CONTRATO                                                                             S05
2005329021010000000JUROS DA DIVIDA CONTRATADA COM INSTITUICOES FINANCEIRAS                                                       A06
2005329021020000000JUROS DA DIVIDA CONTRATADA COM GOVERNOS                                                                       A06
2005329021030000000JUROS DA DIVIDA CONTRATADA NO EXTERIOR                                                                        A06
2005329021990000000OUTROS JUROS DA DIVIDA CONTRATADA                                                                             A06
2005329022000000000OUTROS ENCARGOS SOBRE A DIVIDA POR CONTRATO                                                                   S05
2005329022010000000ENCARGOS DA DIVIDA CONTRATADA COM INSTITUICOES FINANCEIRAS                                                    A06
2005329022020000000ENCARGOS DA DIVIDA CONTRATADA COM GOVERNOS                                                                    A06
2005329022990000000DIVERSOS ENCARGOS DA DIVIDA CONTRATADA                                                                        A06
2005329023000000000JUROS DESAGIOS E DESCONTOS DA DIVIDA MOBILIARIA                                                               S05
2005329023010000000JUROS                                                                                                         A06
2005329023020000000DESAGIOS                                                                                                      A06
2005329023030000000DESCONTOS                                                                                                     A06
2005329024000000000OUTROS ENCARGOS SOBRE A DIVIDA MOBILIARIA                                                                     S05
2005329024010000000ENCARGOS                                                                                                      A06
2005329025000000000ENCARGOS SOBRE OPERACOES DE CREDITO POR ANTECIPACAO  DA RECEITA                                               S05
2005329025010000000ENCARGOS SOBRE ADIANTAMENTOS BANCARIOS                                                                        A06
2005329032990200000MATERIAIS DE USO NA SADE                                                                                      S07
2005329091000000000SENTENCAS JUDICIAIS                                                                                           A05
2005329092000000000DESPESAS DE EXERCICIOS ANTERIORES                                                                             S05
2005329092010000000JUROS DA DIVIDA INTERNA                                                                                       A06
2005329092020000000ENCARGOS DA DIVIDA INTERNA                                                                                    A06
2005329092040000000ENCARGOS DA DIVIDA EXTERNA                                                                                    A06
2005329093000000000INDENIZACOES E RESTITUICOES                                                                                   S05
2005329093990000000OUTRAS INDENIZACOES E RESTITUICOES                                                                            A06
2005330000000000000OUTRAS DESPESAS CORRENTES                                                                                     S02
2005332000000000000TRANSFERENCIAS A UNIAO                                                                                        S03
2005332001000000000APOSENTADORIAS E REFORMAS                                                                                     S05
2005332001010000000COMPENSACAO PREVIDAPOSENTADORIAS ENTRE RPPS E RGPS                                                            A06
2005332003000000000PENSOES                                                                                                       S05
2005332003010000000COMPENSACAO PREVIDDE PENSOES ENTRE RPPS E RGPS                                                                A06
2005332039000000000OUTROS SERVICOS DE TERCEIROS - PESSOA JURIDICA                                                                S05
2005332039000100000PAGAMENTO DE LAUDEMIO                                                                                         A07
2005332041000000000CONTRIBUICOES                                                                                                 S05
2005332041990000000OUTRAS CONTRIBUICOES                                                                                          S06
2005332041990100000TRANSFERENCIAS FUNSET-FUNDO NACSEGURANCA EDUCTRANSITOLF 9503/97                                               A07
2005332041990200000TRANSFERENCIA VALORES A JUSTICA ELEITORAL                                                                     A07
2005332093000000000INDENIZACOES E RESTITUICOES                                                                                   S05
2005332093000100000RESTITUICAO DE TRANSFERENCIAS E CONVENIOS RECEBIDOS DA UNIAO                                                  A07
2005332093000200000ESPECIFICACAO DAS DEMAIS CONTAS                                                                               A07
2005333000000000000TRANSFERENCIAS A ESTADOS E AO DISTRITO FEDERAL                                                                S03
2005333041000000000CONTRIBUICOES                                                                                                 S05
2005333041390000000RIO GRANDE DO SUL                                                                                             S06
2005333041390100000COMPENSACAO FINANCEIRA 9 ART201 DA CF                                                                         A07
2005333041390200000PROGRAMA TROCA-TROCA                                                                                          A07
2005333041390300000TRANSFERENCIAS PARA GRUPAMENTOS DE INCENDIO                                                                   A07
2005333041390400000ESPECIFICACAO DAS DEMAIS CONTAS                                                                               A07
2005333043000000000SUBVENCOES SOCIAIS                                                                                            S05
2005333043390000000RIO GRANDE DO SUL                                                                                             S06
2005333043390100000ESPECIFICACAO DAS CONTAS                                                                                      A07
2005333093000000000INDENIZACOES E RESTITUICOES                                                                                   S05
2005333093390000000RIO GRANDE DO SUL                                                                                             S06
2005333093390100000RESTITUICAO DE TRANSFERENCIAS E CONVENIOS RECEBIDOS DO ESTADO                                                 A07
2005333093390200000RESTITUICAO DE IPVA                                                                                           A07
2005333093390300000ESPECIFICACAO DAS DEMAIS CONTAS                                                                               A07
2005334000000000000TRANSFERENCIAS A MUNICIPIOS                                                                                   S03
2005334041000000000CONTRIBUICOES                                                                                                 S05
2005334041390000000A MUNICIPIOS DO ESTADO DO RIO GRANDE DO SUL                                                                   S06
2005334041390100000COMPENSACAO FINANCEIRA 9 ART201 DA CF                                                                         A07
2005334041390200000CONTRIBUICOES A ESCOLAS MUNICIPAIS                                                                            A07
2005334041390300000CONTRIBUICOES MUNICIPIO POLO DA CONTRAPARTIDA CONVENIO C/UNIAO                                                A07
2005334041390400000TRANSFERENCIA A MUNICIPIO EMANCIPADO PARA ACERTO DE  CONTAS                                                   A07
2005334041390500000ESPECIFICACAO DAS DEMAIS CONTAS                                                                               A07
2005334093000000000INDENIZACOES E RESTITUICOES                                                                                   S05
2005334093990000000OUTRAS INDENIZACOES E RESTITUICOES                                                                            S06
2005334093990100000RESTITUICAO DE TRANSFERENCIAS E CONVENIOS RECEBIDOS DOS MUNICIPIOS                                            A07
2005334093990200000ESPECIFICACAO DAS DEMAIS CONTAS                                                                               A07
2005335000000000000TRANSFERENCIAS  A INSTITUICOES  PRIVADAS SEM FINS LUCRATIVOS                                                  S03
2005335041000000000CONTRIBUICOES                                                                                                 S05
2005335041010000000INSTITUICOES DE CARATER ASSISTENCIAL  CULTURAL E EDUCACIONAL                                                  S06
2005335041010100000PROGRAMA DINHEIRO DIRETO NAS ESCOLAS - PDDE                                                                   A07
2005335041010200000ESPECIFICACAO DAS DEMAIS CONTAS                                                                               A07
2005335041030000000INSTITUICOES DE PESQUISA  E DESENVOLVIMENTO TECNOLOGICO                                                       A06
2005335043000000000SUBVENCOES SOCIAIS                                                                                            S05
2005335043010000000INSTITUICOES DE CARATER ASSISTENCIAL  CULTURAL E EDUCACIONAL                                                  A06
2005335043990000000OUTRAS INSTITUIOES PRIVADAS                                                                                   A06
2005336000000000000TRANSFERENCIAS A INSTITUICOES  PRIVADAS COM FINS LUCRATIVOS                                                   S03
2005336041000000000CONTRIBUICOES                                                                                                 A05
2005337000000000000TRANSFERENCIAS  A INSTITUICOES MULTIGOVERNAMENTAIS                                                            S03
2005337041000000000CONTRIBUICOES                                                                                                 S05
2005337041990000000OUTRAS CONTRIBUICOES                                                                                          S06
2005337041990100000TRANSFERENCIA PARA O FUNDEF CONTRIBUICAO DO MUNICIPIO                                                         A07
2005337041990200000CONTRIBUICOES PARA MANUTENCAO DOS CONSORCIOS                                                                  A07
2005337041990300000ESPECIFICACAO DAS DEMAIS CONTAS                                                                               A07
2005339000000000000APLICACOES DIRETAS                                                                                            S03
2005339001000000000APOSENTADORIAS E REFORMAS                                                                                     S05
2005339001010000000PROVENTOS - PESSOAL CIVIL                                                                                     A06
200533900106000000013 SALARIO - PESSOAL CIVIL                                                                                    A06
2005339001990000000OUTRAS APOSENTADORIAS E REFORMAS                                                                              A06
2005339003000000000PENSOES                                                                                                       S05
2005339003010000000CIVIS                                                                                                         A06
200533900303000000013 SALARIO - PENSIONISTA CIVIL                                                                                A06
2005339003990000000OUTRAS PENSOES                                                                                                A06
2005339004000000000CONTRATACAO POR TEMPO DETERMINADO                                                                             S05
2005339004150000000OBRIGACOES PATRONAIS                                                                                          A06
2005339004990000000OUTRAS CONTRATACOES POR TEMPO DETERMINADO                                                                     A06
2005339005000000000OUTROS BENEFICIOS PREVIDENCIARIOS                                                                             S05
2005339005510000000AUXILIO-DOENCA                                                                                                S06
2005339005510100000PESSOAL ATIVO                                                                                                 A07
2005339005510200000PESSOAL INATIVO E PENSIONISTA                                                                                 A07
2005339005530000000AUXILIO-RECLUSAO                                                                                              S06
2005339005530100000PESSOAL ATIVO                                                                                                 A07
2005339005530200000PESSOAL INATIVO E PENSIONISTA                                                                                 A07
2005339005540000000AUXILIO-ACIDENTE                                                                                              S06
2005339005540100000PESSOAL ATIVO                                                                                                 A07
2005339005540200000PESSOAL INATIVO E PENSIONISTA                                                                                 A07
2005339005550000000SALARIO-FAMILIA DE SEGURADOS                                                                                  S06
2005339005550100000PESSOAL ATIVO                                                                                                 A07
2005339005550200000PESSOAL INATIVO E PENSIONISTA                                                                                 A07
2005339005560000000SALARIO-MATERNIDADE                                                                                           S06
2005339005560100000PESSOAL ATIVO                                                                                                 A07
2005339005560200000PESSOAL INATIVO E PENSIONISTA                                                                                 A07
2005339005990000000OUTROS BENEFICIOS PREVIDENCIARIOS                                                                             A06
2005339008000000000OUTROS BENEFICIOS ASSISTENCIAIS                                                                               S05
2005339008510000000AUXILIO-DOENCA                                                                                                A06
2005339008520000000AUXILIO-NATALIDADE                                                                                            A06
2005339008530000000AUXILIO-RECLUSAO                                                                                              A06
2005339008540000000AUXILIO-FUNERAL                                                                                               A06
2005339008550000000AUXILIO-CRECHE                                                                                                A06
2005339008990000000OUTROS BENEFICIOS ASSISTENCIAIS                                                                               S06
2005339008990100000ASSISTENCIA PRE-ESCOLAR                                                                                       A07
2005339008990200000AUXILIO-INVALIDEZ                                                                                             A07
2005339008990300000ESPECIFICACAO DAS DEMAIS CONTAS                                                                               A07
2005339009000000000SALARIO-FAMILIA                                                                                               S05
2005339009010000000SALARIO-FAMILIA - ATIVO PESSOAL CIVIL                                                                         A06
2005339009020000000SALARIO-FAMILIA - INATIVO PESSOAL CIVIL                                                                       A06
2005339009050000000SALARIO-FAMILIA - PENSIONISTA PESSOAL CIVIL                                                                   A06
2005339013000000000OBRIGACOES PATRONAIS                                                                                          S05
2005339013010000000FGTS                                                                                                          A06
2005339013020000000CONTRIBUICOES PREVIDENCIARIAS - INSS                                                                          A06
2005339013990000000OUTRAS OBRIGACOES PATRONAIS                                                                                   S06
2005339013990100000ESPECIFICACAO DAS CONTAS                                                                                      A07
2005339014000000000DIARIAS - PESSOAL CIVIL                                                                                       S05
2005339014140000000DIARIAS NO PAIS                                                                                               A06
2005339014160000000DIARIAS NO EXTERIOR                                                                                           A06
2005339014990000000OUTRAS DIARIAS                                                                                                A06
2005339018000000000AUXILIO FINANCEIRO A ESTUDANTES                                                                               S05
2005339018010000000BOLSAS DE ESTUDO NO PAIS                                                                                      A06
2005339018020000000BOLSAS DE ESTUDO NO EXTERIOR                                                                                  A06
2005339018030000000BOLSA ESCOLA - BENEFICIO                                                                                      A06
2005339018990000000OUTROS AUXILIOS FINANCEIROS A ESTUDANTES                                                                      A06
2005339020000000000AUXILIO FINANCEIRO A PESQUISADORES                                                                            S05
2005339020010000000AUXILIO A PESQUISADORES                                                                                       A06
2005339030000000000MATERIAL DE CONSUMO                                                                                           S05
2005339030010000000COMBUSTIVEIS E LUBRIFICANTES AUTOMOTIVOS                                                                      A06
2005339030020000000COMBUSTIVEIS E LUBRIFICANTES DE AVIACAO                                                                       A06
2005339030030000000COMBUSTIVEIS E LUBRIFICANTES  PARA  OUTRAS FINALIDADES                                                        A06
2005339030040000000GAS E OUTROS MATERIAIS ENGARRAFADOS                                                                           A06
2005339030050000000EXPLOSIVOS E MUNICOES                                                                                         A06
2005339030060000000ALIMENTOS PARA ANIMAIS                                                                                        A06
2005339030070000000GENEROS DE ALIMENTACAO                                                                                        A06
2005339030080000000ANIMAIS PARA PESQUISA E ABATE                                                                                 A06
2005339030090000000MATERIAL FARMACOLOGICO                                                                                        A06
2005339030100000000MATERIAL ODONTOLOGICO                                                                                         A06
2005339030110000000MATERIAL QUIMICO                                                                                              A06
2005339030120000000MATERIAL DE COUDELARIA OU DE USO ZOOTECNICO                                                                   A06
2005339030130000000MATERIAL DE CACA E PESCA                                                                                      A06
2005339030140000000MATERIAL EDUCATIVO E ESPORTIVO                                                                                A06
2005339030150000000MATERIAL PARA  FESTIVIDADES E HOMENAGENS                                                                      A06
2005339030160000000MATERIAL DE EXPEDIENTE                                                                                        A06
2005339030170000000MATERIAL DE PROCESSAMENTO DE DADOS                                                                            A06
2005339030180000000MATERIAIS E MEDICAMENTOS PARA  USO VETERINARIO                                                                A06
2005339030190000000MATERIAL DE ACONDICIONAMENTO E EMBALAGEM                                                                      A06
2005339030200000000MATERIAL DE CAMA MESA E BANHO                                                                                 A06
2005339030210000000MATERIAL DE COPA E COZINHA                                                                                    A06
2005339030220000000MATERIAL DE LIMPEZA E PRODUTOS  DE HIGIENIZACAO                                                               A06
2005339030230000000UNIFORMES TECIDOS E AVIAMENTOS                                                                                A06
2005339030240000000MATERIAL PARA  MANUTENCAO DE BENS IMOVEIS                                                                     A06
2005339030250000000MATERIAL PARA  MANUTENCAO DE BENS MOVEIS                                                                      A06
2005339030260000000MATERIAL ELETRICO E ELETRONICO                                                                                A06
2005339030270000000MATERIAL DE MANOBRA E PATRULHAMENTO                                                                           A06
2005339030280000000MATERIAL DE PROTECAO E SEGURANCA                                                                              A06
2005339030290000000MATERIAL PARA  AUDIO VIDEO E FOTO                                                                             A06
2005339030300000000MATERIAL PARA COMUNICACOES                                                                                    A06
2005339030310000000SEMENTES MUDAS DE PLANTAS E INSUMOS                                                                           A06
2005339030320000000SUPRIMENTO DE AVIACAO                                                                                         A06
2005339030330000000MATERIAL PARA  PRODUCAO INDUSTRIAL                                                                            A06
2005339030340000000SOBRESSAL MAQE MOTORES NAVIOS E EMBARCACOES                                                                   A06
2005339030350000000MATERIAL LABORATORIAL                                                                                         A06
2005339030360000000MATERIAL HOSPITALAR                                                                                           A06
2005339030370000000SOBRESSALENTES DE ARMAMENTO                                                                                   A06
2005339030380000000SUPRIMENTO DE PROTECAO AO VOO                                                                                 A06
2005339030390000000MATERIAL PARA  MANUTENCAO DE VEICULOS                                                                         A06
2005339030400000000MATERIAL BIOLOGICO                                                                                            A06
2005339030410000000MATERIAL PARA  UTILIZACAO EM GRAFICA                                                                          A06
2005339030420000000FERRAMENTAS                                                                                                   A06
2005339030430000000MATERIAL PARA  REABILITACAO PROFISSIONAL                                                                      A06
2005339030440000000MATERIAL DE SINALIZACAO VISUAL E OUTROS                                                                       A06
2005339030450000000MATERIAL TECNICO PARA  SELECAO E TREINAMENTO                                                                  A06
2005339030460000000MATERIAL BIBLIOGRAFICO                                                                                        A06
2005339030470000000AQUISICAO DE SOFTWARES DE BASE                                                                                A06
2005339030490000000BILHETES DE PASSAGEM                                                                                          A06
2005339030500000000BANDEIRAS FLAMULAS E INSIGNIAS                                                                                A06
2005339030510000000DISCOTECAS E FILMOTECAS NAO IMOBILIZAVEL                                                                      A06
2005339030960000000MATERIAL DE CONSUMO - PAGAMENTO  ANTECIPADO                                                                   A06
2005339030990000000OUTROS MATERIAIS DE CONSUMO                                                                                   S06
2005339030990100000MATERIAL P/CONSERVAAO RODOVIAS                                                                                A07
2005339030990300000MATERIAL P/CONSERVAAO DE REDES DE GUA                                                                         A07
2005339031000000000PREMIACOES CULTURAIS  ARTISTICAS  CIENTIFICAS  DESPORTIVAS  E OUTRAS                                          S05
2005339031010000000PREMIACOES CULTURAIS                                                                                          A06
2005339031020000000PREMIACOES ARTISTICAS                                                                                         A06
2005339031030000000PREMIACOES CIENTIFICAS                                                                                        A06
2005339031040000000PREMIACOES DESPORTIVAS                                                                                        A06
2005339031050000000ORDENS HONORIFICAS                                                                                            A06
2005339031990000000OUTRAS PREMIACOES                                                                                             A06
2005339032000000000MATERIAL DE DISTRIBUICAO GRATUITA                                                                             S05
2005339032030000000MATERIAL DESTINADO A ASSISTENCIA SOCIAL                                                                       A06
2005339032040000000MATERIAL EDUCACIONAL E CULTURAL                                                                               A06
2005339032050000000MERCADORIAS PARA DOACAO                                                                                       A06
2005339032070000000MATERIAL PARA CERIMONIAL                                                                                      A06
2005339032080000000MATERIAL PARA REABILITACAO PROFISSIONAL                                                                       A06
2005339032090000000MATERIAL PARA DIVULGACAO                                                                                      A06
2005339032960000000MATERIAL DE DISTRIBUICAO GRATUITA - PAGAMENTO ANTECIPADO                                                      A06
2005339032990000000OUTROS MATERIAIS DE DISTRIBUICAO GRATUITA                                                                     S06
2005339032990100000MEDICAMENTOS                                                                                                  A07
2005339032990200000OUTROS MATERIAIS P/SADE                                                                                       A07
2005339033000000000PASSAGENS E DESPESAS COM LOCOMOCAO                                                                            S05
2005339033010000000PASSAGENS PARA O PAIS                                                                                         A06
2005339033020000000PASSAGENS PARA O EXTERIOR                                                                                     A06
2005339033030000000LOCACAO DE MEIOS DE TRANSPORTE                                                                                A06
2005339033050000000LOCOMOCAO URBANA                                                                                              A06
2005339033080000000PEDAGIOS                                                                                                      A06
2005339033960000000PASSAGENS E DESPESAS COM LOCOMOCAO-PAGAMENTO ANTECIPADO                                                       A06
2005339033990000000OUTRAS DESPESAS COM LOCOMOCAO                                                                                 A06
2005339035000000000SERVICOS DE CONSULTORIA                                                                                       S05
2005339035010000000ASSESSORIA E CONSULTORIA TECNICA OU JURIDICA                                                                  A06
2005339035020000000AUDITORIA EXTERNA                                                                                             A06
2005339035960000000SERVICOS DE CONSULTORIA - PAGTO ANTECIPADO                                                                    A06
2005339035990000000OUTROS SERVICOS DE CONSULTORIA                                                                                A06
2005339036000000000OUTROS SERVICOS DE TERCEIROS - PESSOA FISICA                                                                  S05
2005339036010000000CONDOMINIOS                                                                                                   A06
2005339036020000000DIARIAS A COLABORADORES EVENTUAIS NO PAIS                                                                     A06
2005339036030000000DIARIAS A COLABORADORES EVENTUAIS NO EXTERIOR                                                                 A06
2005339036040000000COMISSOES E CORRETAGENS                                                                                       A06
2005339036050000000DIREITOS AUTORAIS                                                                                             A06
2005339036060000000SERVICOS TECNICOS PROFISSIONAIS                                                                               A06
2005339036070000000ESTAGIARIOS                                                                                                   A06
2005339036080000000BOLSA DE INICIACAO AO TRABALHO                                                                                A06
2005339036110000000PRO-LABORE A CONSULTORES EVENTUAIS                                                                            A06
2005339036130000000CONFERENCIAS E EXPOSICOES                                                                                     A06
2005339036140000000ARMAZENAGEM                                                                                                   A06
2005339036150000000LOCACAO DE IMOVEIS                                                                                            A06
2005339036160000000LOCACAO DE BENS MOVEIS E INTANGIVEIS                                                                          A06
2005339036180000000MANUTENCAO E CONSERVACAO  DE EQUIPAMENTOS                                                                     A06
2005339036200000000MANUTENCAO E CONSERVACAO  DE VEICULOS                                                                         A06
2005339036210000000MANUTENCAO E CONSERVACAO DE BENS MOVEIS DE OUTRAS NATUREZAS                                                   A06
2005339036220000000MANUTENCAO E CONSERVACAO  DE BENS IMOVEIS                                                                     A06
2005339036230000000FORNECIMENTO DE ALIMENTACAO                                                                                   A06
2005339036250000000SERVICOS DE LIMPEZA E CONSERVACAO                                                                             A06
2005339036260000000SERVICOS DOMESTICOS                                                                                           A06
2005339036270000000SERVICOS DE COMUNICACAO EM GERAL                                                                              A06
2005339036280000000SERVICO DE SELECAO E TREINAMENTO                                                                              A06
2005339036300000000SERVICOS MEDICOS E ODONTOLOGICOS                                                                              A06
2005339036310000000SERVICOS DE REABILITACAO PROFISSIONAL                                                                         A06
2005339036320000000SERVICOS DE ASSISTENCIA SOCIAL                                                                                A06
2005339036340000000SERVICOS DE PERICIAS MEDICAS POR BENEFICIOS                                                                   A06
2005339036350000000SERVICOS  DE APOIO ADMINISTRATIVOS TECNICO E OPERACIONAL                                                      A06
2005339036360000000SERVICOS DE CONSERVACAO E REBENEFICIAMENTO  DE MERCADORIAS                                                    A06
2005339036370000000CONFECCAO DE MATERIAL DE ACONDICIONAMENTO  E EMBALAGEM                                                        A06
2005339036380000000CONFECCAO DE UNIFORMES BANDEIRAS E FLAMULAS                                                                   A06
2005339036390000000FRETES E TRANSPORTES DE ENCOMENDAS                                                                            A06
2005339036420000000JUROS                                                                                                         A06
2005339036450000000JETONS A CONSELHEIROS                                                                                         A06
2005339036460000000DIARIAS A CONSELHEIROS                                                                                        A06
2005339036590000000SERVICOS DE AUDIO VIDEO E FOTO                                                                                A06
2005339036960000000OUTROS SERVICOS DE TERCEIROS PESSOA FISICA - PAGAMENTO ANTECIPADO                                             A06
2005339036990000000OUTROS SERVICOS                                                                                               S06
2005339036990100000SERVIOS REGISTRAISCARTORAIS E JUDICIRIOS                                                                      A07
2005339037000000000LOCACAO DE MAO-DE-OBRA                                                                                        S05
2005339037010000000APOIO ADMINISTRATIVO TECNICO E OPERACIONAL                                                                    A06
2005339037020000000LIMPEZA E CONSERVACAO                                                                                         A06
2005339037030000000VIGILANCIA OSTENSIVA                                                                                          A06
2005339037040000000MANUTENCAO E CONSERVACAO DE BENS IMOVEIS                                                                      A06
2005339037050000000SERVICOS DE COPA E COZINHA                                                                                    A06
2005339037060000000MANUTENCAO E CONSERVACAO DE BENS MOVEIS                                                                       A06
2005339037960000000LOCACAO DE MAO-DE-OBRA - PAGAMENTO  ANTECIPADO                                                                A06
2005339037990000000OUTRAS LOCACOES DE MAO DE OBRA                                                                                A06
2005339038000000000ARRENDAMENTO MERCANTIL                                                                                        S05
2005339038010000000MAQUINAS E APARELHOS                                                                                          A06
2005339038030000000VEICULOS RODOVIARIOS                                                                                          A06
2005339038040000000OUTROS BENS MOVEIS                                                                                            A06
2005339038050000000BENS IMOVEIS                                                                                                  A06
2005339038990000000OUTROS ARRENDAMENTOS                                                                                          A06
2005339039000000000OUTROS SERVICOS DE TERCEIROS-PESSOA JURIDICA                                                                  S05
2005339039010000000ASSINATURAS DE PERIODICOS E ANUIDADES                                                                         A06
2005339039020000000CONDOMINIOS                                                                                                   A06
2005339039030000000COMISSOES E CORRETAGENS                                                                                       A06
2005339039040000000DIREITOS AUTORAIS                                                                                             A06
2005339039050000000SERVICOS TECNICOS PROFISSIONAIS                                                                               S06
2005339039050100000SERVIOS DA EMATER                                                                                             A07
2005339039050200000SERVIOS DE ENSIMINAAO ARTIFICIAL                                                                              A07
2005339039080000000MANUTENCAO DE SOFTWARE                                                                                        A06
2005339039090000000ARMAZENAGEM                                                                                                   A06
2005339039100000000LOCACAO DE IMOVEIS                                                                                            A06
2005339039110000000LOCACAO DE SOFTWARES                                                                                          A06
2005339039120000000LOCACAO DE MAQUINAS E EQUIPAMENTOS                                                                            A06
2005339039140000000LOCACAO BENS MOVEIS  OUTRAS NATUREZAS E INTANGIVEIS                                                           A06
2005339039150000000TRIBUTOS A CONTA DO LOCATARIO                                                                                 A06
2005339039160000000MANUTENCAO E CONSERVACAO  DE BENS IMOVEIS                                                                     A06
2005339039170000000MANUTENCAO  E CONSERVACAO DE MAQUINAS E EQUIPAMENTOS                                                          A06
2005339039190000000MANUTENCAO E CONSERVACAO DE VEICULOS                                                                          A06
2005339039200000000MANUTENCAO E CONSERVACAO DE BENS MOVEIS DE OUTRAS NATUREZAS                                                   A06
2005339039210000000MANUTENCAO E CONSERVACAO  DE ESTRADAS E VIAS                                                                  A06
2005339039220000000EXPOSICOES CONGRESSOS E CONFERENCIAS                                                                          A06
2005339039230000000FESTIVIDADES E HOMENAGENS                                                                                     A06
2005339039370000000JUROS                                                                                                         A06
2005339039410000000FORNECIMENTO DE ALIMENTACAO                                                                                   A06
2005339039430000000SERVICOS DE ENERGIA ELETRICA                                                                                  A06
2005339039440000000SERVICOS DE AGUA E ESGOTO                                                                                     A06
2005339039450000000SERVICOS DE GAS                                                                                               A06
2005339039460000000SERVICOS DOMESTICOS                                                                                           A06
2005339039470000000SERVICOS DE COMUNICACAO EM GERAL                                                                              A06
2005339039480000000SERVICO DE SELECAO E TREINAMENTO                                                                              A06
2005339039490000000PRODUCOES JORNALISTICAS                                                                                       A06
2005339039500000000SERVICOS MEDICO-HOSPITALAR ODONTOLOGICOS  E LABORATORIAIS                                                     A06
2005339039510000000SERVICOS DE ANALISES E PESQUISAS CIENTIFICAS                                                                  A06
2005339039520000000SERVICOS DE REABILITACAO PROFISSIONAL                                                                         A06
2005339039530000000SERVICOS DE ASSISTENCIA SOCIAL                                                                                A06
2005339039540000000SERVICOS DE CRECHES E ASSISTENCIA  PRE-ESCOLAR                                                                A06
2005339039560000000SERVICOS DE PERICIAS MEDICAS P/ BENEFICIOS                                                                    A06
2005339039570000000SERVICOS DE PROCESSAMENTO  DE DADOS                                                                           A06
2005339039580000000SERVICOS DE TELECOMUNICACOES                                                                                  A06
2005339039590000000SERVICOS DE AUDIO VIDEO E FOTO                                                                                A06
2005339039610000000SERVICOS DE SOCORRO E SALVAMENTO                                                                              A06
2005339039630000000SERVICOS GRAFICOS                                                                                             A06
2005339039650000000SERVICOS DE APOIO AO ENSINO                                                                                   A06
2005339039660000000SERVICOS JUDICIARIOS                                                                                          A06
2005339039670000000SERVICOS FUNERARIOS                                                                                           A06
2005339039690000000SEGUROS EM GERAL                                                                                              A06
2005339039700000000CONFECCAO DE UNIFORMES BANDEIRAS E FLAMULAS                                                                   A06
2005339039710000000CONFECCAO DE MATERIAL DE ACONDICIONAMENTO  E EMBALAGEM                                                        A06
2005339039720000000VALE-TRANSPORTE                                                                                               A06
2005339039730000000TRANSPORTE DE SERVIDORES                                                                                      A06
2005339039740000000FRETES E TRANSPORTES  DE ENCOMENDAS                                                                           A06
2005339039770000000VIGILANCIA OSTENSIVA                                                                                          A06
2005339039780000000LIMPEZA E CONSERVACAO                                                                                         A06
2005339039790000000SERVICO  DE APOIO ADMINISTRATIVO TECNICO E OPERACIONAL                                                        A06
2005339039800000000HOSPEDAGENS                                                                                                   A06
2005339039810000000SERVICOS BANCARIOS                                                                                            A06
2005339039820000000SERVICOS DE CONTROLE AMBIENTAL                                                                                A06
2005339039830000000SERVICOS DE COPIAS E REPRODUCAO DE DOCUMENTOS                                                                 A06
2005339039900000000SERVICOS DE PUBLICIDADE LEGAL                                                                                 A06
2005339039920000000SERVICOS DE PUBLICIDADE INSTITUCIONAL                                                                         A06
2005339039930000000SERVICOS DE PUBLICIDADE DE UTILIDADE PUBLICA                                                                  A06
2005339039940000000AQUISICAO DE SOFTWARES DE APLICACAO                                                                           A06
2005339039950000000MANUTENCAO E CONSERVACAO DE EQUIPAMENTOS DE PROCESSAMENTO DE DADOS                                            A06
2005339039960000000OUTROS SERVDE TERCEIROS PESSOA JURIDICA- PAGAMENTO ANTECIPADO                                                 A06
2005339039970000000DESPESAS DE TELEPROCESSAMENTO                                                                                 A06
2005339039990000000OUTROS SERVICOS DE TERCEIROS-PESSOA JURIDICA                                                                  S06
2005339039990100000SERVIOS DE ESTAGIARIOS                                                                                        A07
2005339039990200000ASSOCIACOES FEDERACOES E CONFEDERACOES                                                                        A07
2005339039990300000TRANSPOSRTE ESCOLAR                                                                                           A07
2005339039990400000SERVIOS REGISTRAIS E CARTORIAIS                                                                               A07
2005339039990500000TAXAS/CUSTAS JUDICIAIS ESTATIZADAS                                                                            A07
2005339039990600000TRANSPORTE P/ESTUDOS CULTURAIS E ECONOMICOS                                                                   A07
2005339039990700000SERVIOS DE ARBITRAGEM DE JOGOS                                                                                A07
2005339041000000000CONTRIBUICOES                                                                                                 S05
2005339041000100000CONTRIBUICOES AS FORCAS AUXILIARES                                                                            A07
2005339046000000000AUXILIO-ALIMENTACAO                                                                                           S05
2005339046010000000INDENIZACAO AUXILIO-ALIMENTACAO                                                                               A06
2005339047000000000OBRIGACOES TRIBUTARIAS E CONTRIBUTIVAS                                                                        S05
2005339047120000000CONTRIBUICAO PARA  O PIS/PASEP                                                                                A06
2005339047140000000CPMF                                                                                                          A06
2005339047150000000MULTAS                                                                                                        A06
2005339047160000000JUROS                                                                                                         A06
2005339047180000000CONTRIBUICOES  PREVIDENCIARIAS-SERVICOS DE TERCEIROS                                                          A06
2005339047200000000OBRIGACOES PATRONAIS SOBRE SERVICOS DE  PESSOA JURIDICA                                                       A06
2005339047220000000CONTRIBUICAO PARA O  CUSTEIO DE ILUMINACAO PUBLICA                                                            A06
2005339047960000000OBRIGACOES TRIBUTARIAS - PAGAMENTO ANTECIPADO                                                                 A06
2005339047990000000OUTRAS OBRIGACOES TRIBUTARIAS E CONTRIBUTIVAS                                                                 A06
2005339048000000000OUTROS AUXILIOS FINANCEIROS A PESSOA FISICA                                                                   S05
2005339048010000000AUXILIO A PESSOAS FISICAS                                                                                     A06
2005339049000000000AUXILIO-TRANSPORTE                                                                                            S05
2005339049010000000INDENIZACAO AUXILIO-TRANSPORTE                                                                                A06
2005339067000000000DEPOSITOS COMPULSORIOS                                                                                        S05
2005339067010000000DEPOSITOS E CAUCOES                                                                                           A06
2005339067020000000DEPOSITOS JUDICIAIS                                                                                           A06
2005339067030000000DEPOSITOS PARA RECURSOS                                                                                       A06
2005339067990000000OUTROS DEPOSITOS COMPULSORIOS                                                                                 A06
2005339091000000000SENTENCAS JUDICIAIS                                                                                           S05
2005339091010000000SENTENCAS JUDICIAIS TRANSITADAS EM JULGADO                                                                    A06
2005339091020000000PRECATORIOS INCLUIDOS NA LEI DO ORCAMENTO                                                                     A06
2005339091030000000DECISOES JUDICIAIS                                                                                            A06
2005339091990000000DIVERSAS SENTENCAS                                                                                            A06
2005339092000000000DESPESAS DE EXERCICIOS ANTERIORES                                                                             S05
2005339092010000000APOSENTADORIAS E REFORMAS                                                                                     A06
2005339092030000000PENSOES                                                                                                       A06
2005339092040000000CONTRATACAO POR TEMPO DETERMINADO                                                                             A06
2005339092050000000OUTROS BENEFICIOS PREVIDENCIARIOS                                                                             A06
2005339092080000000OUTROS BENEFICIOS ASSISTENCIAIS                                                                               A06
2005339092140000000DIARIAS - PESSOAL CIVIL                                                                                       A06
2005339092180000000AUXILIO FINANCEIRO A ESTUDANTES                                                                               A06
2005339092310000000PREMIACOES CULTURAIS CIENTIFICAS  ARTISTICAS DESPORTIVAS E OUTRAS                                             A06
2005339092320000000MATERIAL DE DISTRIBUICAO GRATUITA                                                                             A06
2005339092330000000PASSAGENS E DESPESAS COM LOCOMOCAO                                                                            A06
2005339092360000000SERVICOS DE TERCEIROS - PESSOA FISICA                                                                         A06
2005339092370000000LOCACAO DE MAO-DE-OBRA                                                                                        A06
2005339092380000000ARRENDAMENTO MERCANTIL                                                                                        A06
2005339092390000000SERVICOS DE TERCEIROS - PESSOA JURIDICA                                                                       A06
2005339092460000000AUXILIO-ALIMENTACAO                                                                                           A06
2005339092470000000OBRIGACOES TRIBUTARIAS E CONTRIBUTIVAS                                                                        A06
2005339092490000000AUXILIO-TRANPORTE                                                                                             A06
2005339092850000000SERVICOS DE PUBLICIDADE LEGAL                                                                                 A06
2005339092880000000SERVICOS DE PUBLICIDADE INSTITUCIONAL                                                                         A06
2005339092890000000SERVICOS DE PUBLICIDADE DE UTILIDADE PUBLICA                                                                  A06
2005339092910000000SENTENCAS JUDICIAIS                                                                                           A06
2005339092920000000MATERIAL DE CONSUMO                                                                                           A06
2005339092930000000INDENIZACOES E RESTITUICOES                                                                                   A06
2005339092990000000OUTRAS DESPESAS CORRENTES                                                                                     A06
2005339093000000000INDENIZACOES E RESTITUICOES                                                                                   S05
2005339093010000000INDENIZACOES                                                                                                  S06
2005339093010100000INDENIZACAO IMOBILIARIA                                                                                       A07
2005339093010200000INDENIZACAO POR DANOS MATERIAIS A TERCEIROS                                                                   A07
2005339093010300000INDENIZACAO POR LOCACAO DE VEICULOS DE SERVIDORES                                                             A07
2005339093020000000RESTITUICOES                                                                                                  S06
2005339093020100000RESTITUICOES DE DESPESAS  EVENTUAIS COM ALIMENTACAO                                                           A07
2005339093020200000RESTITUICOES DE IMPOSTOS TAXAS E CONTRIBUICOES DE MELHORIA                                                    A07
2005339093020300000RESTITUICOES DO INSS AOS AGENTES POLITICOS                                                                    A07
2005339093030000000AJUDA DE CUSTO - PESSOAL CIVIL                                                                                A06
2005339093050000000INDENIZACAO DE TRANSPORTE - PESSOAL CIVIL                                                                     A06
2005339093070000000INDENIZACAO DE MORADIA - PESSOAL CIVIL                                                                        A06
2005339093080000000RESSARCIMENTO ASSISTENCIA MEDICA/ODONTOLOGICA                                                                 A06
2005339093990000000DIVERSAS INDENIZACOES E RESTITUICOES                                                                          A06
2005339095000000000INDENIZACAO PELA EXECUCAO TRABALHOS DE CAMPO                                                                  S05
2005339095010000000INDENIZACOES A SERVIDORES PELA EXECUCAO DE  TRABALHO DE  CAMPO                                                A06
2005400000000000000DESPESAS DE CAPITAL                                                                                           S01
2005440000000000000INVESTIMENTOS                                                                                                 S02
2005442000000000000TRANSFERENCIAS A UNIAO                                                                                        S03
2005442042000000000AUXILIOS                                                                                                      A05
2005442093000000000INDENIZACOES E RESTITUICOES                                                                                   S05
2005442093000100000RESTITUICAO DE CONVENIOS E TRANSFERENCIAS  RECEBIDAS UNIAO                                                    A07
2005443000000000000TRANSFERENCIAS A ESTADOS E DISTRITO FEDERAL                                                                   S03
2005443041000000000CONTRIBUICOES                                                                                                 S05
2005443041390000000RIO GRANDE DO SUL                                                                                             S06
2005443041390100000ESPECIFICACAO DAS CONTAS                                                                                      A07
2005443042000000000AUXILIOS                                                                                                      S05
2005443042390000000RIO GRANDE DO SUL                                                                                             S06
2005443042390100000ESPECIFICACAO DAS CONTAS                                                                                      A07
2005443093000000000INDENIZACOES E RESTITUICOES                                                                                   S05
2005443093000100000RESTITUICOES DE CONVENIOS E TRANSFERENCIAS RECEBIDAS DO  ESTADO                                               A07
2005444000000000000TRANSFERENCIAS A MUNICIPIOS                                                                                   S03
2005444041000000000CONTRIBUICOES                                                                                                 S05
2005444041390000000A MUNICIPIOS DO ESTADO DO RIO GRANDE DO SUL                                                                   S06
2005444041390100000ESPECIFICACAO DAS CONTAS                                                                                      A07
2005444042000000000AUXILIOS                                                                                                      S05
2005444042390000000A MUNICIPIOS DO ESTADO DO RIO GRANDE DO SUL                                                                   S06
2005444042390100000ESPECIFICACAO DAS CONTAS                                                                                      A07
2005444093000000000INDENIZACOES E RESTITUICOES                                                                                   S05
2005444093000100000RESTITUICOES DE CONVENIOS E TRANSFERENCIAS RECEBIDAS DOS MUNICIPIOS                                           A07
2005445000000000000TRANSFERENCIAS A INSTITUICOES  PRIVADAS  SEM  FINS LUCRATIVOS                                                 S03
2005445039000000000OUTROS SERVICOS DE TERCEIROS-PESSOA JURIDICA                                                                  S05
2005445039010000000INSTITUICOES DE CARATER ASSISTENCIAL CULTURAL  E EDUCACIONAL                                                  A06
2005445039020000000INSTITUICOES DE CARATER INDUSTRIAL                                                                            A06
2005445041000000000CONTRIBUICOES                                                                                                 S05
2005445041010000000INSTITUICOES DE CARATER ASSISTENCIAL CULTURAL OU EDUCACIONAL                                                  A06
2005445041020000000INSTITUICOES DE CARATER COMERCIAL OU FINANCEIRO                                                               A06
2005445041080000000ENTIDADES REPRESENTATIVAS DE CLASSE                                                                           A06
2005445042000000000AUXILIOS                                                                                                      S05
2005445042010000000INSTITUICOES DE CARATER ASSISTENCIAL OU CULTURAL                                                              A06
2005445042020000000INSTITUICOES DE PESQUISA E DESENVOLVIMENTO TECNOLOGICO                                                        A06
2005446000000000000TRANSFERENCIAS A INSTITUICOES PRIVADAS COM FINS LUCRATIVOS                                                    S03
2005446041000000000CONTRIBUICOES                                                                                                 S05
2005446041000100000ESPECIFICACAO DAS CONTAS                                                                                      A07
2005447000000000000TRANSFERENCIAS A INSTITUICOES MULTIGOVERNAMENTAIS                                                             S03
2005447041000000000CONTRIBUICOES                                                                                                 S05
2005447041990000000OUTRAS CONTRIBUICOES                                                                                          S06
2005447041990100000CONTRIBUICOES PARA CONSORCIOS                                                                                 A07
2005447042000000000AUXILIOS                                                                                                      S05
2005447042990000000OUTROS AUXILIOS                                                                                               A06
2005449000000000000APLICACOES DIRETAS                                                                                            S03
2005449014000000000DIARIAS - PESSOAL CIVIL                                                                                       S05
2005449014140000000DIARIAS NO PAIS                                                                                               A06
2005449014160000000DIARIAS NO EXTERIOR                                                                                           A06
2005449014990000000OUTRAS DIARIAS                                                                                                A06
2005449018000000000AUXILIO FINANCEIRO A ESTUDANTES                                                                               A05
2005449030000000000MATERIAL DE CONSUMO                                                                                           S05
2005449030160000000MATERIAL DE EXPEDIENTE                                                                                        A06
2005449030170000000MATERIAL DE PROCESSAMENTO DE DADOS                                                                            A06
2005449030250000000MATERIAL PARA  MANUTENCAO DE BENS MOVEIS                                                                      A06
2005449030290000000MATERIAL PARA  AUDIO VIDEO E FOTO                                                                             A06
2005449030390000000MATERIAL PARA  MANUTENCAO DE VEICULOS                                                                         A06
2005449030990000000OUTROS MATERIAIS DE CONSUMO                                                                                   A06
2005449035000000000SERVICOS DE CONSULTORIA                                                                                       S05
2005449035990000000OUTROS SERVICOS DE CONSULTORIA                                                                                A06
2005449036000000000OUTROS SERVICOS DE TERCEIROS - PESSOA FISICA                                                                  S05
2005449036990000000OUTROS SERVICOS DE TERCEIROS - PESSOA  FISICA                                                                 A06
2005449037000000000LOCACAO DE MAO-DE-OBRA                                                                                        S05
2005449037990000000OUTRAS LOCACOES DE MAO-DE-OBRA                                                                                A06
2005449039000000000OUTROS SERVICOS DE TERCEIROS- PESSOA JURIDICA                                                                 S05
2005449039990000000OUTROS SERVICOS                                                                                               A06
2005449042000000000AUXILIOS                                                                                                      A05
2005449051000000000OBRAS E INSTALACOES                                                                                           S05
2005449051800000000ESTUDOS E PROJETOS                                                                                            A06
2005449051910000000OBRAS EM ANDAMENTO                                                                                            A06
2005449051920000000INSTALACOES                                                                                                   A06
2005449051930000000BENFEITORIAS EM PROPRIEDADES DE TERCEIROS                                                                     A06
2005449051960000000ALMOXARIFADO DE OBRAS                                                                                         A06
2005449051990000000OUTRAS OBRAS E INSTALACOES                                                                                    A06
2005449052000000000EQUIPAMENTOS E MATERIAL PERMANENTE                                                                            S05
2005449052020000000AERONAVES                                                                                                     A06
2005449052040000000APARELHOS DE MEDICAO E ORIENTACAO                                                                             A06
2005449052060000000APARELHOS E EQUIPAMENTOS DE COMUNICACAO                                                                       A06
2005449052080000000APARELHOS EQUIPAMENTOS E UTENSILIOS MEDICOS ODONTOLOGICOS LABORATORIAIS E HOSPITALARES                        A06
2005449052100000000APARELHOS E EQUIPAMENTOS PARA  ESPORTES E DIVERSOES                                                           A06
2005449052120000000APARELHOS E UTENSILIOS DOMESTICOS                                                                             A06
2005449052140000000ARMAMENTOS                                                                                                    A06
2005449052180000000COLECOES E MATERIAIS BIBLIOGRAFICOS                                                                           A06
2005449052190000000DISCOTECAS E FILMOTECAS                                                                                       A06
2005449052200000000EMBARCACOES                                                                                                   A06
2005449052220000000EQUIPAMENTOS DE MANOBRA E PATRULHAMENTO                                                                       A06
2005449052240000000EQUIPAMENTO DE PROTECAO SEGURANCA E SOCORRO                                                                   A06
2005449052260000000INSTRUMENTOS MUSICAIS E ARTISTICOS                                                                            A06
2005449052280000000MAQUINAS E EQUIPAMENTOS  DE NATUREZA INDUSTRIAL                                                               A06
2005449052300000000MAQUINAS E EQUIPAMENTOS ENERGETICOS                                                                           A06
2005449052320000000MAQUINAS E EQUIPAMENTOS GRAFICOS                                                                              A06
2005449052330000000EQUIPAMENTOS PARA AUDIO VIDEO E FOTO                                                                          A06
2005449052340000000MAQUINAS  UTENSILIOS E EQUIPAMENTOS  DIVERSOS                                                                 A06
2005449052350000000EQUIPAMENTOS DE PROCESSAMENTO DE DADOS                                                                        A06
2005449052360000000MAQUINAS INSTALACOES E UTENSILIOS DE ESCRITORIO                                                               A06
2005449052380000000MAQUINAS FERRAMENTAS E UTENSILIOS DE OFICINA                                                                  A06
2005449052390000000EQUIPAMENTOS E UTENSILIOS HIDRAULICOS E ELETRICOS                                                             A06
2005449052400000000MAQUINAS E EQUIPAMENTOS AGRICOLAS  E RODOVIARIOS                                                              A06
2005449052420000000MOBILIARIO EM GERAL                                                                                           A06
2005449052440000000OBRAS DE ARTE E PECAS PARA EXPOSICAO                                                                          A06
2005449052460000000SEMOVENTES E EQUIPAMENTOS DE MONTARIA                                                                         A06
2005449052480000000VEICULOS DIVERSOS                                                                                             A06
2005449052500000000VEICULOS FERROVIARIOS                                                                                         A06
2005449052510000000PECAS NAO INCORPORAVEIS A IMOVEIS                                                                             A06
2005449052520000000VEICULOS DE TRACAO MECANICA                                                                                   A06
2005449052570000000ACESSORIOS PARA AUTOMOVEIS                                                                                    A06
2005449052580000000EQUIPAMENTOS DE MERGULHO E SALVAMENTO                                                                         A06
2005449052830000000EQUIPAMENTOS  E SISTEMAS DE PROTECAO E VIGILANCIA AMBIENTAL                                                   A06
2005449052960000000EQUIPAMENTO E MATERIAL PERMANENTE - PAGAMENTO ANTECIPADO                                                      A06
2005449052990000000OUTROS MATERIAIS PERMANENTES                                                                                  A06
2005449061000000000AQUISICAO DE IMOVEIS                                                                                          S05
2005449061010000000EDIFICIOS - REALIZACAO DE OBRAS                                                                               A06
2005449061030000000TERRENOS                                                                                                      A06
2005449061060000000SALAS E ESCRITORIOS                                                                                           A06
2005449061070000000CASAS E APARTAMENTOS                                                                                          A06
2005449061080000000ARMAZENS E SILOS                                                                                              A06
2005449061990000000OUTRAS AQUISICOES DE BENS IMOVEIS                                                                             A06
2005449091000000000SENTENCAS JUDICIAIS                                                                                           S05
2005449091030000000LIMINARES EM MANDADOS DE SEGURANCA                                                                            A06
2005449091050000000SENTENCAS JUDICIAIS TRANSITADAS EM JULGADO                                                                    A06
2005449091990000000DIVERSAS SENTENCAS                                                                                            A06
2005449092000000000DESPESAS DE EXERCICIOS ANTERIORES                                                                             S05
2005449092010000000OBRAS E INSTALACOES                                                                                           A06
2005449092020000000EQUIPAMENTOS E MATERIAL PERMANENTE                                                                            A06
2005449092920000000MATERIAL DE CONSUMO                                                                                           A06
2005449092990000000OUTRAS DESPESAS DE EXERCICIOS ANTERIORES                                                                      A06
2005449093000000000INDENIZACOES E RESTITUICOES                                                                                   S05
2005449093010000000INDENIZACAO                                                                                                   A06
2005449093020000000RESTITUICOES                                                                                                  A06
2005449093030000000BENS MOVEIS EM PODER DE TERCEIROS                                                                             A06
2005449093990000000DIVERSAS INDENIZACOES E RESTITUICOES                                                                          A06
2005450000000000000INVERSOES FINANCEIRAS                                                                                         S02
2005452000000000000TRANSFERENCIAS A UNIAO                                                                                        S03
2005452042000000000AUXILIOS                                                                                                      S05
2005452042990000000OUTROS AUXILIOS                                                                                               A06
2005452093000000000INDENIZACOES E RESTITUICOES                                                                                   S05
2005452093990000000OUTRAS INDENIZACOES E RESTITUICOES                                                                            S06
2005452093990100000RESTITUICAO DE CONVENIOS E TRANSFERENCIAS RECEBIDAS DA UNIAO                                                  A07
2005453000000000000TRANSFERENCIAS  A ESTADOS E AO DISTRITO FEDERAL                                                               S03
2005453041000000000CONTRIBUICOES                                                                                                 S05
2005453041390000000RIO GRANDE DO SUL                                                                                             S06
2005453041390100000ESPECIFICACAO DAS CONTAS                                                                                      A07
2005453042000000000AUXILIOS                                                                                                      S05
2005453042390000000RIO GRANDE DO SUL                                                                                             S06
2005453042390100000ESPECIFICACAO DAS CONTAS                                                                                      A07
