12292535000162010120253101202527022025CAMARA DE VEREADORES DE INDEPENDENCIA-RS                                        
712310200000000000000101000081819000000181819000000000000000000000101202500000000006927699C000000000000ENCERRAMENTO DA CONTA DE CONTROLE DOS CONTRATOS EXECUTADOS EM 2024 TENDO EM VISTA QUE TAL CONTA NO FOI ENCERRADA POR OCASIO DO ENCERRAMENTO DE 2024   0C 00000000150000000000
812310202000000000000101000081819000000181819000000000000000000000101202500000000006927699D000000000000ENCERRAMENTO DA CONTA DE CONTROLE DOS CONTRATOS EXECUTADOS EM 2024 TENDO EM VISTA QUE TAL CONTA NO FOI ENCERRADA POR OCASIO DO ENCERRAMENTO DE 2024   0C 00000000150000000000
631710000000000000000101000081820000000281820000000000000000000000201202500000000000050000D000000000000INSCRIO DE RESTOS A PAGAR 011284/2024                                                                                                                 0O 00000000150000000000
631710000000000000000101000081820000000281820000000000000000000000201202500000000000240000D000000000000INSCRIO DE RESTOS A PAGAR 011290/2024                                                                                                                 0O 00000000150000000000
631710000000000000000101000081820000000281820000000000000000000000201202500000000000063000D000000000000INSCRIO DE RESTOS A PAGAR 011283/2024                                                                                                                 0O 00000000150000000000
631710000000000000000101000081820000000281820000000000000000000000201202500000000000016000D000000000000INSCRIO DE RESTOS A PAGAR 010875/2024                                                                                                                 0O 00000000150000000000
631710000000000000000101000081820000000281820000000000000000000000201202500000000000057600D000000000000INSCRIO DE RESTOS A PAGAR 010495/2024                                                                                                                 0O 00000000150000000000
631710000000000000000101000081820000000281820000000000000000000000201202500000000000012864D000000000000INSCRIO DE RESTOS A PAGAR 010581/2024                                                                                                                 0O 00000000150000000000
237130200000000000000101000081820000000381820000000000000000000000201202500000000006336913D000000000000TRANSFERNCIA ENTRE CONTAS                                                                                                                             0P 00000000150000000000
622110000000000000000101000081820000000281820000000000000000000000201202500000000000050000C000000000000REFERENTE PROJ/ATV-DESPESA 2063 3190 07 00 00 000 CONTRIBUIO A ENTIDADES FECHADAS DE PREVIDNCIA                                                       0O 00000000150000000000
622110000000000000000101000081820000000281820000000000000000000000201202500000000000050000C000000000000REFERENTE PROJ/ATV-DESPESA 2064 3190 07 00 00 000 CONTRIBUIO A ENTIDADES FECHADAS DE PREVIDNCIA                                                       0O 00000000150000000000
622110000000000000000101000081820000000281820000000000000000000000201202500000000000100000C000000000000REFERENTE PROJ/ATV-DESPESA 2064 3190 16 00 00 000 OUTRAS DESPESAS VARIVEIS - PESSOAL CIVIL                                                            0O 00000000150000000000
622110000000000000000101000081820000000281820000000000000000000000201202500000000000500000C000000000000REFERENTE PROJ/ATV-DESPESA 2063 3390 46 00 00 000 AUXLIO-ALIMENTAO                                                                                    0O 00000000150000000000
622110000000000000000101000081820000000281820000000000000000000000201202500000000000500000C000000000000REFERENTE PROJ/ATV-DESPESA 2065 3390 30 00 00 000 MATERIAL DE CONSUMO                                                                                 0O 00000000150000000000
622110000000000000000101000081820000000281820000000000000000000000201202500000000000500000C000000000000REFERENTE PROJ/ATV-DESPESA 2063 3390 36 00 00 000 OUTROS SERVIOS DE TERCEIROS - PESSOA FSICA                                                          0O 00000000150000000000
622110000000000000000101000081820000000281820000000000000000000000201202500000000000500000C000000000000REFERENTE PROJ/ATV-DESPESA 2064 3390 36 00 00 000 OUTROS SERVIOS DE TERCEIROS - PESSOA FSICA                                                          0O 00000000150000000000
622110000000000000000101000081820000000281820000000000000000000000201202500000000000500000C000000000000REFERENTE PROJ/ATV-DESPESA 2063 3390 40 00 00 000 SERVIOS DE TECNOLOGIA DA INFORMAO E COMUNICAO - PJ                                                  0O 00000000150000000000
622110000000000000000101000081820000000281820000000000000000000000201202500000000000500000C000000000000REFERENTE PROJ/ATV-DESPESA 2063 4490 40 00 00 000 SERVIOS DE TECNOLOGIA DA INFORMAO E COMUNICAO - PJ                                                  0O 00000000150000000000
622110000000000000000101000081820000000281820000000000000000000000201202500000000000500000C000000000000REFERENTE PROJ/ATV-DESPESA 2064 4490 40 00 00 000 SERVIOS DE TECNOLOGIA DA INFORMAO E COMUNICAO - PJ                                                  0O 00000000150000000000
622110000000000000000101000081820000000281820000000000000000000000201202500000000000900000C000000000000REFERENTE PROJ/ATV-DESPESA 2065 3390 39 00 00 000 OUTROS SERVIOS DE TERCEIROS - PESSOA JURDICA                                                        0O 00000000150000000000
622110000000000000000101000081820000000281820000000000000000000000201202500000000001000000C000000000000REFERENTE PROJ/ATV-DESPESA 2063 3390 30 00 00 000 MATERIAL DE CONSUMO                                                                                 0O 00000000150000000000
622110000000000000000101000081820000000281820000000000000000000000201202500000000001000000C000000000000REFERENTE PROJ/ATV-DESPESA 2064 3390 93 00 00 000 INDENIZAES E RESTITUIES                                                                             0O 00000000150000000000
622110000000000000000101000081820000000281820000000000000000000000201202500000000001000000C000000000000REFERENTE PROJ/ATV-DESPESA 2065 3390 40 00 00 000 SERVIOS DE TECNOLOGIA DA INFORMAO E COMUNICAO - PJ                                                  0O 00000000150000000000
622110000000000000000101000081820000000281820000000000000000000000201202500000000002000000C000000000000REFERENTE PROJ/ATV-DESPESA 2064 3190 13 00 00 000 OBRIGAES PATRONAIS                                                                                  0O 00000000150000000000
622110000000000000000101000081820000000281820000000000000000000000201202500000000002000000C000000000000REFERENTE PROJ/ATV-DESPESA 2063 3390 08 00 00 000 OUTROS BENEFCIOS ASSISTENCIAIS DO SERVIDOR E DO MILITAR                                             0O 00000000150000000000
622110000000000000000101000081820000000281820000000000000000000000201202500000000003000000C000000000000REFERENTE PROJ/ATV-DESPESA 2064 3191 13 00 00 000 CONTRIBUIES PATRONAIS                                                                               0O 00000000150000000000
622110000000000000000101000081820000000281820000000000000000000000201202500000000005000000C000000000000REFERENTE PROJ/ATV-DESPESA 2064 3390 14 00 00 000 DIRIAS -  CIVIL                                                                                     0O 00000000150000000000
622110000000000000000101000081820000000281820000000000000000000000201202500000000005000000C000000000000REFERENTE PROJ/ATV-DESPESA 2063 3390 93 00 00 000 INDENIZAES E RESTITUIES                                                                             0O 00000000150000000000
622110000000000000000101000081820000000281820000000000000000000000201202500000000005000000C000000000000REFERENTE PROJ/ATV-DESPESA 2064 3390 40 00 00 000 SERVIOS DE TECNOLOGIA DA INFORMAO E COMUNICAO - PJ                                                  0O 00000000150000000000
622110000000000000000101000081820000000281820000000000000000000000201202500000000006000000C000000000000REFERENTE PROJ/ATV-DESPESA 2063 3390 39 00 00 000 OUTROS SERVIOS DE TERCEIROS - PESSOA JURDICA                                                        0O 00000000150000000000
622110000000000000000101000081820000000281820000000000000000000000201202500000000010000000C000000000000REFERENTE PROJ/ATV-DESPESA 2063 3390 14 00 00 000 DIRIAS -  CIVIL                                                                                     0O 00000000150000000000
622110000000000000000101000081820000000281820000000000000000000000201202500000000029000000C000000000000REFERENTE PROJ/ATV-DESPESA 2064 3190 11 00 00 000 VENCIMENTOS E VANTAGENS FIXAS - PESSOAL CIVIL                                                       0O 00000000150000000000
622110000000000000000101000081820000000281820000000000000000000000201202500000000067000000C000000000000REFERENTE PROJ/ATV-DESPESA 2063 3190 11 00 00 000 VENCIMENTOS E VANTAGENS FIXAS - PESSOAL CIVIL                                                       0O 00000000150000000000
622110000000000000000101000081820000000281820000000000000000000000201202500000000002300000C000000000000REFERENTE PROJ/ATV-DESPESA 2064 3390 08 00 00 000 OUTROS BENEFCIOS ASSISTENCIAIS DO SERVIDOR E DO MILITAR                                             0O 00000000150000000000
622110000000000000000101000081820000000281820000000000000000000000201202500000000002500000C000000000000REFERENTE PROJ/ATV-DESPESA 2064 3390 35 00 00 000 SERVIOS DE CONSULTORIA                                                                              0O 00000000150000000000
622110000000000000000101000081820000000281820000000000000000000000201202500000000004500000C000000000000REFERENTE PROJ/ATV-DESPESA 2064 3390 46 00 00 000 AUXLIO-ALIMENTAO                                                                                    0O 00000000150000000000
622110000000000000000101000081820000000281820000000000000000000000201202500000000004500000C000000000000REFERENTE PROJ/ATV-DESPESA 2064 4490 52 00 00 000 EQUIPAMENTOS E MATERIAL PERMANENTE                                                                  0O 00000000150000000000
622110000000000000000101000081820000000281820000000000000000000000201202500000000005500000C000000000000REFERENTE PROJ/ATV-DESPESA 2063 3190 13 00 00 000 OBRIGAES PATRONAIS                                                                                  0O 00000000150000000000
622110000000000000000101000081820000000281820000000000000000000000201202500000000002600000C000000000000REFERENTE PROJ/ATV-DESPESA 2063 4490 52 00 00 000 EQUIPAMENTOS E MATERIAL PERMANENTE                                                                  0O 00000000150000000000
622110000000000000000101000081820000000281820000000000000000000000201202500000000006700000C000000000000REFERENTE PROJ/ATV-DESPESA 2064 3390 39 00 00 000 OUTROS SERVIOS DE TERCEIROS - PESSOA JURDICA                                                        0O 00000000150000000000
622110000000000000000101000081820000000281820000000000000000000000201202500000000002800000C000000000000REFERENTE PROJ/ATV-DESPESA 2064 3390 30 00 00 000 MATERIAL DE CONSUMO                                                                                 0O 00000000150000000000
522110100000000000000101000081820000000281820000000000000000000000201202500000000000050000D000000000000REFERENTE PROJ/ATV-DESPESA 2063 3190 07 00 00 000 CONTRIBUIO A ENTIDADES FECHADAS DE PREVIDNCIA                                                       0O 00000000150000000000
522110100000000000000101000081820000000281820000000000000000000000201202500000000000050000D000000000000REFERENTE PROJ/ATV-DESPESA 2064 3190 07 00 00 000 CONTRIBUIO A ENTIDADES FECHADAS DE PREVIDNCIA                                                       0O 00000000150000000000
522110100000000000000101000081820000000281820000000000000000000000201202500000000000100000D000000000000REFERENTE PROJ/ATV-DESPESA 2064 3190 16 00 00 000 OUTRAS DESPESAS VARIVEIS - PESSOAL CIVIL                                                            0O 00000000150000000000
522110100000000000000101000081820000000281820000000000000000000000201202500000000000500000D000000000000REFERENTE PROJ/ATV-DESPESA 2063 3390 46 00 00 000 AUXLIO-ALIMENTAO                                                                                    0O 00000000150000000000
522110100000000000000101000081820000000281820000000000000000000000201202500000000000500000D000000000000REFERENTE PROJ/ATV-DESPESA 2065 3390 30 00 00 000 MATERIAL DE CONSUMO                                                                                 0O 00000000150000000000
522110100000000000000101000081820000000281820000000000000000000000201202500000000000500000D000000000000REFERENTE PROJ/ATV-DESPESA 2063 3390 36 00 00 000 OUTROS SERVIOS DE TERCEIROS - PESSOA FSICA                                                          0O 00000000150000000000
522110100000000000000101000081820000000281820000000000000000000000201202500000000000500000D000000000000REFERENTE PROJ/ATV-DESPESA 2064 3390 36 00 00 000 OUTROS SERVIOS DE TERCEIROS - PESSOA FSICA                                                          0O 00000000150000000000
522110100000000000000101000081820000000281820000000000000000000000201202500000000000500000D000000000000REFERENTE PROJ/ATV-DESPESA 2063 3390 40 00 00 000 SERVIOS DE TECNOLOGIA DA INFORMAO E COMUNICAO - PJ                                                  0O 00000000150000000000
522110100000000000000101000081820000000281820000000000000000000000201202500000000000500000D000000000000REFERENTE PROJ/ATV-DESPESA 2063 4490 40 00 00 000 SERVIOS DE TECNOLOGIA DA INFORMAO E COMUNICAO - PJ                                                  0O 00000000150000000000
522110100000000000000101000081820000000281820000000000000000000000201202500000000000500000D000000000000REFERENTE PROJ/ATV-DESPESA 2064 4490 40 00 00 000 SERVIOS DE TECNOLOGIA DA INFORMAO E COMUNICAO - PJ                                                  0O 00000000150000000000
522110100000000000000101000081820000000281820000000000000000000000201202500000000000900000D000000000000REFERENTE PROJ/ATV-DESPESA 2065 3390 39 00 00 000 OUTROS SERVIOS DE TERCEIROS - PESSOA JURDICA                                                        0O 00000000150000000000
522110100000000000000101000081820000000281820000000000000000000000201202500000000001000000D000000000000REFERENTE PROJ/ATV-DESPESA 2063 3390 30 00 00 000 MATERIAL DE CONSUMO                                                                                 0O 00000000150000000000
522110100000000000000101000081820000000281820000000000000000000000201202500000000001000000D000000000000REFERENTE PROJ/ATV-DESPESA 2064 3390 93 00 00 000 INDENIZAES E RESTITUIES                                                                             0O 00000000150000000000
522110100000000000000101000081820000000281820000000000000000000000201202500000000001000000D000000000000REFERENTE PROJ/ATV-DESPESA 2065 3390 40 00 00 000 SERVIOS DE TECNOLOGIA DA INFORMAO E COMUNICAO - PJ                                                  0O 00000000150000000000
522110100000000000000101000081820000000281820000000000000000000000201202500000000002000000D000000000000REFERENTE PROJ/ATV-DESPESA 2064 3190 13 00 00 000 OBRIGAES PATRONAIS                                                                                  0O 00000000150000000000
522110100000000000000101000081820000000281820000000000000000000000201202500000000002000000D000000000000REFERENTE PROJ/ATV-DESPESA 2063 3390 08 00 00 000 OUTROS BENEFCIOS ASSISTENCIAIS DO SERVIDOR E DO MILITAR                                             0O 00000000150000000000
522110100000000000000101000081820000000281820000000000000000000000201202500000000003000000D000000000000REFERENTE PROJ/ATV-DESPESA 2064 3191 13 00 00 000 CONTRIBUIES PATRONAIS                                                                               0O 00000000150000000000
522110100000000000000101000081820000000281820000000000000000000000201202500000000005000000D000000000000REFERENTE PROJ/ATV-DESPESA 2064 3390 14 00 00 000 DIRIAS -  CIVIL                                                                                     0O 00000000150000000000
522110100000000000000101000081820000000281820000000000000000000000201202500000000005000000D000000000000REFERENTE PROJ/ATV-DESPESA 2063 3390 93 00 00 000 INDENIZAES E RESTITUIES                                                                             0O 00000000150000000000
522110100000000000000101000081820000000281820000000000000000000000201202500000000005000000D000000000000REFERENTE PROJ/ATV-DESPESA 2064 3390 40 00 00 000 SERVIOS DE TECNOLOGIA DA INFORMAO E COMUNICAO - PJ                                                  0O 00000000150000000000
522110100000000000000101000081820000000281820000000000000000000000201202500000000006000000D000000000000REFERENTE PROJ/ATV-DESPESA 2063 3390 39 00 00 000 OUTROS SERVIOS DE TERCEIROS - PESSOA JURDICA                                                        0O 00000000150000000000
522110100000000000000101000081820000000281820000000000000000000000201202500000000010000000D000000000000REFERENTE PROJ/ATV-DESPESA 2063 3390 14 00 00 000 DIRIAS -  CIVIL                                                                                     0O 00000000150000000000
522110100000000000000101000081820000000281820000000000000000000000201202500000000029000000D000000000000REFERENTE PROJ/ATV-DESPESA 2064 3190 11 00 00 000 VENCIMENTOS E VANTAGENS FIXAS - PESSOAL CIVIL                                                       0O 00000000150000000000
522110100000000000000101000081820000000281820000000000000000000000201202500000000067000000D000000000000REFERENTE PROJ/ATV-DESPESA 2063 3190 11 00 00 000 VENCIMENTOS E VANTAGENS FIXAS - PESSOAL CIVIL                                                       0O 00000000150000000000
522110100000000000000101000081820000000281820000000000000000000000201202500000000002300000D000000000000REFERENTE PROJ/ATV-DESPESA 2064 3390 08 00 00 000 OUTROS BENEFCIOS ASSISTENCIAIS DO SERVIDOR E DO MILITAR                                             0O 00000000150000000000
522110100000000000000101000081820000000281820000000000000000000000201202500000000002500000D000000000000REFERENTE PROJ/ATV-DESPESA 2064 3390 35 00 00 000 SERVIOS DE CONSULTORIA                                                                              0O 00000000150000000000
522110100000000000000101000081820000000281820000000000000000000000201202500000000004500000D000000000000REFERENTE PROJ/ATV-DESPESA 2064 3390 46 00 00 000 AUXLIO-ALIMENTAO                                                                                    0O 00000000150000000000
522110100000000000000101000081820000000281820000000000000000000000201202500000000004500000D000000000000REFERENTE PROJ/ATV-DESPESA 2064 4490 52 00 00 000 EQUIPAMENTOS E MATERIAL PERMANENTE                                                                  0O 00000000150000000000
522110100000000000000101000081820000000281820000000000000000000000201202500000000005500000D000000000000REFERENTE PROJ/ATV-DESPESA 2063 3190 13 00 00 000 OBRIGAES PATRONAIS                                                                                  0O 00000000150000000000
522110100000000000000101000081820000000281820000000000000000000000201202500000000002600000D000000000000REFERENTE PROJ/ATV-DESPESA 2063 4490 52 00 00 000 EQUIPAMENTOS E MATERIAL PERMANENTE                                                                  0O 00000000150000000000
522110100000000000000101000081820000000281820000000000000000000000201202500000000006700000D000000000000REFERENTE PROJ/ATV-DESPESA 2064 3390 39 00 00 000 OUTROS SERVIOS DE TERCEIROS - PESSOA JURDICA                                                        0O 00000000150000000000
522110100000000000000101000081820000000281820000000000000000000000201202500000000002800000D000000000000REFERENTE PROJ/ATV-DESPESA 2064 3390 30 00 00 000 MATERIAL DE CONSUMO                                                                                 0O 00000000150000000000
237120100000000000000101000081820000000381820000000000000000000000201202500000000133096013D000000000000TRANSFERNCIA ENTRE CONTAS                                                                                                                             0P 00000000150000000000
237130100000000000000101000081820000000381820000000000000000000000201202500000000006336913C000000000000TRANSFERNCIA ENTRE CONTAS                                                                                                                             0P 00000000150000000000
631100000000000000000101000081820000000281820000000000000000000000201202500000000000050000C000000000000INSCRIO DE RESTOS A PAGAR 011284/2024                                                                                                                 0O 00000000150000000000
631100000000000000000101000081820000000281820000000000000000000000201202500000000000240000C000000000000INSCRIO DE RESTOS A PAGAR 011290/2024                                                                                                                 0O 00000000150000000000
631100000000000000000101000081820000000281820000000000000000000000201202500000000000063000C000000000000INSCRIO DE RESTOS A PAGAR 011283/2024                                                                                                                 0O 00000000150000000000
631100000000000000000101000081820000000281820000000000000000000000201202500000000000016000C000000000000INSCRIO DE RESTOS A PAGAR 010875/2024                                                                                                                 0O 00000000150000000000
631100000000000000000101000081820000000281820000000000000000000000201202500000000000057600C000000000000INSCRIO DE RESTOS A PAGAR 010495/2024                                                                                                                 0O 00000000150000000000
631100000000000000000101000081820000000281820000000000000000000000201202500000000000012864C000000000000INSCRIO DE RESTOS A PAGAR 010581/2024                                                                                                                 0O 00000000150000000000
531100000000000000000101000081820000000281820000000000000000000000201202500000000000050000D000000000000INSCRIO DE RESTOS A PAGAR 011284/2024                                                                                                                 0O 00000000150000000000
531100000000000000000101000081820000000281820000000000000000000000201202500000000000240000D000000000000INSCRIO DE RESTOS A PAGAR 011290/2024                                                                                                                 0O 00000000150000000000
531100000000000000000101000081820000000281820000000000000000000000201202500000000000063000D000000000000INSCRIO DE RESTOS A PAGAR 011283/2024                                                                                                                 0O 00000000150000000000
531100000000000000000101000081820000000281820000000000000000000000201202500000000000016000D000000000000INSCRIO DE RESTOS A PAGAR 010875/2024                                                                                                                 0O 00000000150000000000
531100000000000000000101000081820000000281820000000000000000000000201202500000000000057600D000000000000INSCRIO DE RESTOS A PAGAR 010495/2024                                                                                                                 0O 00000000150000000000
531100000000000000000101000081820000000281820000000000000000000000201202500000000000012864D000000000000INSCRIO DE RESTOS A PAGAR 010581/2024                                                                                                                 0O 00000000150000000000
531700000000000000000101000081820000000281820000000000000000000000201202500000000000050000C000000000000INSCRIO DE RESTOS A PAGAR 011284/2024                                                                                                                 0O 00000000150000000000
531700000000000000000101000081820000000281820000000000000000000000201202500000000000240000C000000000000INSCRIO DE RESTOS A PAGAR 011290/2024                                                                                                                 0O 00000000150000000000
531700000000000000000101000081820000000281820000000000000000000000201202500000000000063000C000000000000INSCRIO DE RESTOS A PAGAR 011283/2024                                                                                                                 0O 00000000150000000000
531700000000000000000101000081820000000281820000000000000000000000201202500000000000016000C000000000000INSCRIO DE RESTOS A PAGAR 010875/2024                                                                                                                 0O 00000000150000000000
531700000000000000000101000081820000000281820000000000000000000000201202500000000000057600C000000000000INSCRIO DE RESTOS A PAGAR 010495/2024                                                                                                                 0O 00000000150000000000
531700000000000000000101000081820000000281820000000000000000000000201202500000000000012864C000000000000INSCRIO DE RESTOS A PAGAR 010581/2024                                                                                                                 0O 00000000150000000000
113829901000000000000101000081820000000381820000000000000000000000201202500000000173000000D000000000000DUODCIMO A RECEBER NO EXERCCIO DE 2025 CFE DOTAO FIXADA NA LOA 2025                                                                                   0PP00000000150000000000
499920100000000000000101000081820000000381820000000000000000000000201202500000000173000000C000000000000DUODCIMO A RECEBER NO EXERCCIO DE 2025 CFE DOTAO FIXADA NA LOA 2025                                                                                   0P 00000000150000000000
237110100000000000000101000081820000000381820000000000000000000000201202500000000126490575C000000000000TRANSFERNCIA ENTRE CONTAS                                                                                                                             0P 00000000150000000000
237110200000000000000101000081820000000381820000000000000000000000201202500000000126490575D000000000000TRANSFERNCIA ENTRE CONTAS                                                                                                                             0P 00000000150000000000
237120200000000000000101000081820000000381820000000000000000000000201202500000000133096013C000000000000TRANSFERNCIA ENTRE CONTAS                                                                                                                             0P 00000000150000000000
622110000000000000000101000081826000000681826000000002025020001270801202500000000000250000D000000000000REFERENTE EMPENHO 000127/2025 - OI SA- EM RECUPERAO JUDICIAL                                                                                          1O 00000000150000000000
622110000000000000000101000081826000001281826000000002025020001330801202500000000000015000D000000000000REFERENTE EMPENHO 000133/2025 - MASTERPLAN LTDA                                                                                                       1O 00000000150000000000
622110000000000000000101000081826000001481826000000002025020001340801202500000000000055000D000000000000REFERENTE EMPENHO 000134/2025 - LEONIR DE FATIMA STECHMANN DA SILVA - MEI                                                                             1O 00000000150000000000
622110000000000000000101000081826000000881826000000002025020001310801202500000000000027000D000000000000REFERENTE EMPENHO 000131/2025 - JEFERSON SCHACOFSKI                                                                                                   1O 00000000150000000000
622110000000000000000101000081826000001081826000000002025020001320801202500000000000029400D000000000000REFERENTE EMPENHO 000132/2025 - JOSE OTAVIO TAVARES SOUTO COMUNICACOES                                                                                1O 00000000150000000000
622110000000000000000101000081826000001681826000000002025020001870801202500000000000099950D000000000000REFERENTE EMPENHO 000187/2025 - MORESCO   ANTUNES LTDA                                                                                                1O 00000000150000000000
622130100000000000000101000081826000000681826000000002025020001270801202500000000000250000C000000000000REFERENTE EMPENHO 000127/2025 - OI SA- EM RECUPERAO JUDICIAL                                                                                          1O 00000000150000000000
622130100000000000000101000081826000001281826000000002025020001330801202500000000000015000C000000000000REFERENTE EMPENHO 000133/2025 - MASTERPLAN LTDA                                                                                                       1O 00000000150000000000
622130100000000000000101000081826000001481826000000002025020001340801202500000000000055000C000000000000REFERENTE EMPENHO 000134/2025 - LEONIR DE FATIMA STECHMANN DA SILVA - MEI                                                                             1O 00000000150000000000
622130100000000000000101000081826000000881826000000002025020001310801202500000000000027000C000000000000REFERENTE EMPENHO 000131/2025 - JEFERSON SCHACOFSKI                                                                                                   1O 00000000150000000000
622130100000000000000101000081826000001081826000000002025020001320801202500000000000029400C000000000000REFERENTE EMPENHO 000132/2025 - JOSE OTAVIO TAVARES SOUTO COMUNICACOES                                                                                1O 00000000150000000000
622130100000000000000101000081826000001681826000000002025020001870801202500000000000099950C000000000000REFERENTE EMPENHO 000187/2025 - MORESCO   ANTUNES LTDA                                                                                                1O 00000000150000000000
622920101000000000000101000081826000000681826000000002025020001270801202500000000000250000C000000000000REFERENTE EMPENHO 000127/2025 - OI SA- EM RECUPERAO JUDICIAL                                                                                          1O 00000000150000000000
622920101000000000000101000081826000001281826000000002025020001330801202500000000000015000C000000000000REFERENTE EMPENHO 000133/2025 - MASTERPLAN LTDA                                                                                                       1O 00000000150000000000
622920101000000000000101000081826000001481826000000002025020001340801202500000000000055000C000000000000REFERENTE EMPENHO 000134/2025 - LEONIR DE FATIMA STECHMANN DA SILVA - MEI                                                                             1O 00000000150000000000
622920101000000000000101000081826000000881826000000002025020001310801202500000000000027000C000000000000REFERENTE EMPENHO 000131/2025 - JEFERSON SCHACOFSKI                                                                                                   1O 00000000150000000000
622920101000000000000101000081826000001081826000000002025020001320801202500000000000029400C000000000000REFERENTE EMPENHO 000132/2025 - JOSE OTAVIO TAVARES SOUTO COMUNICACOES                                                                                1O 00000000150000000000
622920101000000000000101000081826000001681826000000002025020001870801202500000000000099950C000000000000REFERENTE EMPENHO 000187/2025 - MORESCO   ANTUNES LTDA                                                                                                1O 00000000150000000000
522920101000000000000101000081826000000681826000000002025020001270801202500000000000250000D000000000000REFERENTE EMPENHO 000127/2025 - OI SA- EM RECUPERAO JUDICIAL                                                                                          1O 00000000150000000000
522920101000000000000101000081826000001281826000000002025020001330801202500000000000015000D000000000000REFERENTE EMPENHO 000133/2025 - MASTERPLAN LTDA                                                                                                       1O 00000000150000000000
522920101000000000000101000081826000001481826000000002025020001340801202500000000000055000D000000000000REFERENTE EMPENHO 000134/2025 - LEONIR DE FATIMA STECHMANN DA SILVA - MEI                                                                             1O 00000000150000000000
522920101000000000000101000081826000000881826000000002025020001310801202500000000000027000D000000000000REFERENTE EMPENHO 000131/2025 - JEFERSON SCHACOFSKI                                                                                                   1O 00000000150000000000
522920101000000000000101000081826000001081826000000002025020001320801202500000000000029400D000000000000REFERENTE EMPENHO 000132/2025 - JOSE OTAVIO TAVARES SOUTO COMUNICACOES                                                                                1O 00000000150000000000
522920101000000000000101000081826000001681826000000002025020001870801202500000000000099950D000000000000REFERENTE EMPENHO 000187/2025 - MORESCO   ANTUNES LTDA                                                                                                1O 00000000150000000000
821110105000000000000101000081826000000581826000000002025020001270801202500000000000250000D000000000000REFERENTE EMPENHO 000127/2025 - OI SA- EM RECUPERAO JUDICIAL                                                                                          1C 00000000150000000000
821110105000000000000101000081826000001181826000000002025020001330801202500000000000015000D000000000000REFERENTE EMPENHO 000133/2025 - MASTERPLAN LTDA                                                                                                       1C 00000000150000000000
821110105000000000000101000081826000001381826000000002025020001340801202500000000000055000D000000000000REFERENTE EMPENHO 000134/2025 - LEONIR DE FATIMA STECHMANN DA SILVA - MEI                                                                             1C 00000000150000000000
821110105000000000000101000081826000000781826000000002025020001310801202500000000000027000D000000000000REFERENTE EMPENHO 000131/2025 - JEFERSON SCHACOFSKI                                                                                                   1C 00000000150000000000
821110105000000000000101000081826000000981826000000002025020001320801202500000000000029400D000000000000REFERENTE EMPENHO 000132/2025 - JOSE OTAVIO TAVARES SOUTO COMUNICACOES                                                                                1C 00000000150000000000
821110105000000000000101000081826000001581826000000002025020001870801202500000000000099950D000000000000REFERENTE EMPENHO 000187/2025 - MORESCO   ANTUNES LTDA                                                                                                1C 00000000150000000000
821120105000000000000101000081826000000581826000000002025020001270801202500000000000250000C000000000000REFERENTE EMPENHO 000127/2025 - OI SA- EM RECUPERAO JUDICIAL                                                                                          1C 00000000150000000000
821120105000000000000101000081826000001181826000000002025020001330801202500000000000015000C000000000000REFERENTE EMPENHO 000133/2025 - MASTERPLAN LTDA                                                                                                       1C 00000000150000000000
821120105000000000000101000081826000001381826000000002025020001340801202500000000000055000C000000000000REFERENTE EMPENHO 000134/2025 - LEONIR DE FATIMA STECHMANN DA SILVA - MEI                                                                             1C 00000000150000000000
821120105000000000000101000081826000000781826000000002025020001310801202500000000000027000C000000000000REFERENTE EMPENHO 000131/2025 - JEFERSON SCHACOFSKI                                                                                                   1C 00000000150000000000
821120105000000000000101000081826000000981826000000002025020001320801202500000000000029400C000000000000REFERENTE EMPENHO 000132/2025 - JOSE OTAVIO TAVARES SOUTO COMUNICACOES                                                                                1C 00000000150000000000
821120105000000000000101000081826000001581826000000002025020001870801202500000000000099950C000000000000REFERENTE EMPENHO 000187/2025 - MORESCO   ANTUNES LTDA                                                                                                1C 00000000150000000000
332311400000000000000101000081826000000481826000000002024020052460801202500000000000001250D000000000000REFERENTE A PARCELA 7 ANTECIPADA DO EMPENHO 5246/2024                                                                                                 0P 00000000150000000000
119310000000000000000101000081826000000481826000000002024020052460801202500000000000001250C000000000000REFERENTE A PARCELA 7 ANTECIPADA DO EMPENHO 5246/2024                                                                                                 0PP00000000150000000000
123119908000000000000101000081827000001781827000000000000000000000901202500000000000057600C000000000000AJUSTE REF  LIQUIDAO DE EMPENHO 010495/2024 - GRAFICA E PERSONALIZADOS SCHLOSSER   ARAUJO LTDA POIS MATERIAIS NO SERO TOMBADOS DEVENDO SEREM CONTROLAD0PP00000000150000000000
123119999020000000000101000081827000001781827000000000000000000000901202500000000000057600D000000000000AJUSTE REF  LIQUIDAO DE EMPENHO 010495/2024 - GRAFICA E PERSONALIZADOS SCHLOSSER   ARAUJO LTDA POIS MATERIAIS NO SERO TOMBADOS DEVENDO SEREM CONTROLAD0PP00000000150000000000
331110600000000000000101000081827000002381827000000002024020105810901202500000000000012864D000000000000LIQUIDAO DE EMPENHO 010581/2024 - DANTE COMERCIO DE BEBIDAS LTDA                                                                                      1P 00000000150000000000
213110101010000000000101000081827000003881827000000002025020001270901202500000000000017783C000000000000LIQUIDAO DE EMPENHO 000127/2025 - OI SA- EM RECUPERAO JUDICIAL                                                                                        1PF00000000150000000000
331111500000000000000101000081827000002681827000000002024020108750901202500000000000016000D000000000000LIQUIDAO DE EMPENHO 010875/2024 - HELENCO   WICHINHESKI LTDA                                                                                          1P 00000000150000000000
332310400000000000000101000081827000003881827000000002025020001270901202500000000000017783D000000000000LIQUIDAO DE EMPENHO 000127/2025 - OI SA- EM RECUPERAO JUDICIAL                                                                                        1P 00000000150000000000
332310600000000000000101000081827000003281827000000002024020112840901202500000000000050000D000000000000LIQUIDAO DE EMPENHO 011284/2024 - NELSON ADO BARROS PACHECO                                                                                           1P 00000000150000000000
622130100000000000000101000081827000003781827000000002025020001270901202500000000000017783D000000000000LIQUIDAO DE EMPENHO 000127/2025 - OI SA- EM RECUPERAO JUDICIAL                                                                                        1O 00000000150000000000
622130300000000000000101000081827000003781827000000002025020001270901202500000000000017783C000000000000LIQUIDAO DE EMPENHO 000127/2025 - OI SA- EM RECUPERAO JUDICIAL                                                                                        1O 00000000150000000000
332311000000000000000101000081827000002981827000000002024020112830901202500000000000063000D000000000000LIQUIDAO DE EMPENHO 011283/2024 - DANIEL JUNIOR PLETSCH 03960797095                                                                                   1P 00000000150000000000
622920101000000000000101000081827000003781827000000002025020001270901202500000000000017783D000000000000LIQUIDAO DE EMPENHO 000127/2025 - OI SA- EM RECUPERAO JUDICIAL                                                                                        1O 00000000150000000000
123119908000000000000101000081827000002081827000000002024020104950901202500000000000057600D000000000000LIQUIDAO DE EMPENHO 010495/2024 - GRAFICA E PERSONALIZADOS SCHLOSSER   ARAUJO LTDA                                                                    1PP00000000150000000000
622920103000000000000101000081827000003781827000000002025020001270901202500000000000017783C000000000000LIQUIDAO DE EMPENHO 000127/2025 - OI SA- EM RECUPERAO JUDICIAL                                                                                        1O 00000000150000000000
332313600000000000000101000081827000003581827000000002024020112900901202500000000000240000D000000000000LIQUIDAO DE EMPENHO 011290/2024 - AIRTON LUIZ WILHELM   CIA LTDA                                                                                      1P 00000000150000000000
821120105000000000000101000081827000003081827000000002024020112840901202500000000000050000D000000000000LIQUIDAO DE EMPENHO 011284/2024 - NELSON ADO BARROS PACHECO                                                                                           1C 00000000150000000000
821120105000000000000101000081827000003381827000000002024020112900901202500000000000240000D000000000000LIQUIDAO DE EMPENHO 011290/2024 - AIRTON LUIZ WILHELM   CIA LTDA                                                                                      1C 00000000150000000000
821120105000000000000101000081827000002781827000000002024020112830901202500000000000063000D000000000000LIQUIDAO DE EMPENHO 011283/2024 - DANIEL JUNIOR PLETSCH 03960797095                                                                                   1C 00000000150000000000
821120105000000000000101000081827000002481827000000002024020108750901202500000000000016000D000000000000LIQUIDAO DE EMPENHO 010875/2024 - HELENCO   WICHINHESKI LTDA                                                                                          1C 00000000150000000000
821120105000000000000101000081827000001881827000000002024020104950901202500000000000057600D000000000000LIQUIDAO DE EMPENHO 010495/2024 - GRAFICA E PERSONALIZADOS SCHLOSSER   ARAUJO LTDA                                                                    1C 00000000150000000000
821120105000000000000101000081827000002181827000000002024020105810901202500000000000012864D000000000000LIQUIDAO DE EMPENHO 010581/2024 - DANTE COMERCIO DE BEBIDAS LTDA                                                                                      1C 00000000150000000000
821120105000000000000101000081827000003681827000000002025020001270901202500000000000017783D000000000000LIQUIDAO DE EMPENHO 000127/2025 - OI SA- EM RECUPERAO JUDICIAL                                                                                        1C 00000000150000000000
821130105000000000000101000081827000003081827000000002024020112840901202500000000000050000C000000000000LIQUIDAO DE EMPENHO 011284/2024 - NELSON ADO BARROS PACHECO                                                                                           1C 00000000150000000000
821130105000000000000101000081827000003381827000000002024020112900901202500000000000240000C000000000000LIQUIDAO DE EMPENHO 011290/2024 - AIRTON LUIZ WILHELM   CIA LTDA                                                                                      1C 00000000150000000000
821130105000000000000101000081827000002781827000000002024020112830901202500000000000063000C000000000000LIQUIDAO DE EMPENHO 011283/2024 - DANIEL JUNIOR PLETSCH 03960797095                                                                                   1C 00000000150000000000
821130105000000000000101000081827000002481827000000002024020108750901202500000000000016000C000000000000LIQUIDAO DE EMPENHO 010875/2024 - HELENCO   WICHINHESKI LTDA                                                                                          1C 00000000150000000000
821130105000000000000101000081827000001881827000000002024020104950901202500000000000057600C000000000000LIQUIDAO DE EMPENHO 010495/2024 - GRAFICA E PERSONALIZADOS SCHLOSSER   ARAUJO LTDA                                                                    1C 00000000150000000000
821130105000000000000101000081827000002181827000000002024020105810901202500000000000012864C000000000000LIQUIDAO DE EMPENHO 010581/2024 - DANTE COMERCIO DE BEBIDAS LTDA                                                                                      1C 00000000150000000000
821130105000000000000101000081827000003681827000000002025020001270901202500000000000017783C000000000000LIQUIDAO DE EMPENHO 000127/2025 - OI SA- EM RECUPERAO JUDICIAL                                                                                        1C 00000000150000000000
631100000000000000000101000081827000003181827000000002024020112840901202500000000000050000D000000000000LIQUIDAO DE EMPENHO 011284/2024 - NELSON ADO BARROS PACHECO                                                                                           1O 00000000150000000000
631100000000000000000101000081827000003481827000000002024020112900901202500000000000240000D000000000000LIQUIDAO DE EMPENHO 011290/2024 - AIRTON LUIZ WILHELM   CIA LTDA                                                                                      1O 00000000150000000000
631100000000000000000101000081827000002881827000000002024020112830901202500000000000063000D000000000000LIQUIDAO DE EMPENHO 011283/2024 - DANIEL JUNIOR PLETSCH 03960797095                                                                                   1O 00000000150000000000
631100000000000000000101000081827000002581827000000002024020108750901202500000000000016000D000000000000LIQUIDAO DE EMPENHO 010875/2024 - HELENCO   WICHINHESKI LTDA                                                                                          1O 00000000150000000000
631100000000000000000101000081827000001981827000000002024020104950901202500000000000057600D000000000000LIQUIDAO DE EMPENHO 010495/2024 - GRAFICA E PERSONALIZADOS SCHLOSSER   ARAUJO LTDA                                                                    1O 00000000150000000000
631100000000000000000101000081827000002281827000000002024020105810901202500000000000012864D000000000000LIQUIDAO DE EMPENHO 010581/2024 - DANTE COMERCIO DE BEBIDAS LTDA                                                                                      1O 00000000150000000000
631300000000000000000101000081827000003181827000000002024020112840901202500000000000050000C000000000000LIQUIDAO DE EMPENHO 011284/2024 - NELSON ADO BARROS PACHECO                                                                                           1O 00000000150000000000
631300000000000000000101000081827000003481827000000002024020112900901202500000000000240000C000000000000LIQUIDAO DE EMPENHO 011290/2024 - AIRTON LUIZ WILHELM   CIA LTDA                                                                                      1O 00000000150000000000
631300000000000000000101000081827000002881827000000002024020112830901202500000000000063000C000000000000LIQUIDAO DE EMPENHO 011283/2024 - DANIEL JUNIOR PLETSCH 03960797095                                                                                   1O 00000000150000000000
631300000000000000000101000081827000002581827000000002024020108750901202500000000000016000C000000000000LIQUIDAO DE EMPENHO 010875/2024 - HELENCO   WICHINHESKI LTDA                                                                                          1O 00000000150000000000
631300000000000000000101000081827000001981827000000002024020104950901202500000000000057600C000000000000LIQUIDAO DE EMPENHO 010495/2024 - GRAFICA E PERSONALIZADOS SCHLOSSER   ARAUJO LTDA                                                                    1O 00000000150000000000
631300000000000000000101000081827000002281827000000002024020105810901202500000000000012864C000000000000LIQUIDAO DE EMPENHO 010581/2024 - DANTE COMERCIO DE BEBIDAS LTDA                                                                                      1O 00000000150000000000
213110101021800000000101000081827000003281827000000002024020112840901202500000000000050000C000000000000LIQUIDAO DE EMPENHO 011284/2024 - NELSON ADO BARROS PACHECO                                                                                           1PF00000000150000000000
213110101021800000000101000081827000003581827000000002024020112900901202500000000000240000C000000000000LIQUIDAO DE EMPENHO 011290/2024 - AIRTON LUIZ WILHELM   CIA LTDA                                                                                      1PF00000000150000000000
213110101021800000000101000081827000002981827000000002024020112830901202500000000000063000C000000000000LIQUIDAO DE EMPENHO 011283/2024 - DANIEL JUNIOR PLETSCH 03960797095                                                                                   1PF00000000150000000000
213110101021800000000101000081827000002681827000000002024020108750901202500000000000016000C000000000000LIQUIDAO DE EMPENHO 010875/2024 - HELENCO   WICHINHESKI LTDA                                                                                          1PF00000000150000000000
213110101021800000000101000081827000002081827000000002024020104950901202500000000000057600C000000000000LIQUIDAO DE EMPENHO 010495/2024 - GRAFICA E PERSONALIZADOS SCHLOSSER   ARAUJO LTDA                                                                    1PF00000000150000000000
213110101021800000000101000081827000002381827000000002024020105810901202500000000000012864C000000000000LIQUIDAO DE EMPENHO 010581/2024 - DANTE COMERCIO DE BEBIDAS LTDA                                                                                      1PF00000000150000000000
451120200000000000000101000081828000004081828000000000000000000001001202500000000014000000C000000000000DUODECIMO DE JANEIRO DE 2025                                                                                                                          0P 00000000150000000000
721110500000000000000101000081828000003981828000000000000000000001001202500000000014000000D000000000000DUODECIMO DE JANEIRO DE 2025                                                                                                                          0C 00000000150000000000
821110105000000000000101000081828000003981828000000000000000000001001202500000000014000000C000000000000DUODECIMO DE JANEIRO DE 2025                                                                                                                          0C 00000000150000000000
821130208690000000000101000081828000003981828000000000000000000001001202500000000000004824D000000000000REFERENTE PGTO DESPESA EXTRA NRO 000001/2025 - BANRISUL C/RETENES TRANSF  4824                                                                        0C 00000000186900000000
821140208690000000000101000081828000003981828000000000000000000001001202500000000000004824C000000000000REFERENTE PGTO DESPESA EXTRA NRO 000001/2025 - BANRISUL C/RETENES TRANSF  4824                                                                        0C 00000000186900000000
218829901010000000000101000081828000004081828000000000000000000001001202500000000000004824D000000000000REFERENTE PGTO DESPESA EXTRA NRO 000001/2025 - BANRISUL C/RETENES TRANSF  4824                                                                        0PF00000000186900000000
213110101010000000000101000081828000006481828000000002025020001321001202500000000000029400C000000000000LIQUIDAO DE EMPENHO 000132/2025 - JOSE OTAVIO TAVARES SOUTO COMUNICACOES                                                                              1PF00000000150000000000
622130100000000000000101000081828000006381828000000002025020001321001202500000000000029400D000000000000LIQUIDAO DE EMPENHO 000132/2025 - JOSE OTAVIO TAVARES SOUTO COMUNICACOES                                                                              1O 00000000150000000000
622130300000000000000101000081828000006381828000000002025020001321001202500000000000029400C000000000000LIQUIDAO DE EMPENHO 000132/2025 - JOSE OTAVIO TAVARES SOUTO COMUNICACOES                                                                              1O 00000000150000000000
332311100000000000000101000081828000006481828000000002025020001321001202500000000000029400D000000000000LIQUIDAO DE EMPENHO 000132/2025 - JOSE OTAVIO TAVARES SOUTO COMUNICACOES                                                                              1P 00000000150000000000
622920101000000000000101000081828000006381828000000002025020001321001202500000000000029400D000000000000LIQUIDAO DE EMPENHO 000132/2025 - JOSE OTAVIO TAVARES SOUTO COMUNICACOES                                                                              1O 00000000150000000000
622920103000000000000101000081828000006381828000000002025020001321001202500000000000029400C000000000000LIQUIDAO DE EMPENHO 000132/2025 - JOSE OTAVIO TAVARES SOUTO COMUNICACOES                                                                              1O 00000000150000000000
821120105000000000000101000081828000006281828000000002025020001321001202500000000000029400D000000000000LIQUIDAO DE EMPENHO 000132/2025 - JOSE OTAVIO TAVARES SOUTO COMUNICACOES                                                                              1C 00000000150000000000
821130105000000000000101000081828000006281828000000002025020001321001202500000000000029400C000000000000LIQUIDAO DE EMPENHO 000132/2025 - JOSE OTAVIO TAVARES SOUTO COMUNICACOES                                                                              1C 00000000150000000000
213110101010000000000101000081828000006481828000000002025020001321001202500000000000029400D000000000000REFERENTE PAGAMENTO DO EMPENHO NRO 000132/2025 - JOSE OTAVIO TAVARES SOUTO COMUNICACOES                                                               1PF00000000150000000000
213110101010000000000101000081828000006181828000000002025020001271001202500000000000017783D000000000000REFERENTE PAGAMENTO DO EMPENHO NRO 000127/2025 - OI SA- EM RECUPERAO JUDICIAL                                                                         1PF00000000150000000000
622130300000000000000101000081828000006381828000000002025020001321001202500000000000029400D000000000000REFERENTE PAGAMENTO DO EMPENHO NRO 000132/2025 - JOSE OTAVIO TAVARES SOUTO COMUNICACOES                                                               1O 00000000150000000000
622130300000000000000101000081828000006081828000000002025020001271001202500000000000017783D000000000000REFERENTE PAGAMENTO DO EMPENHO NRO 000127/2025 - OI SA- EM RECUPERAO JUDICIAL                                                                         1O 00000000150000000000
622130400000000000000101000081828000006381828000000002025020001321001202500000000000029400C000000000000REFERENTE PAGAMENTO DO EMPENHO NRO 000132/2025 - JOSE OTAVIO TAVARES SOUTO COMUNICACOES                                                               1O 00000000150000000000
622130400000000000000101000081828000006081828000000002025020001271001202500000000000017783C000000000000REFERENTE PAGAMENTO DO EMPENHO NRO 000127/2025 - OI SA- EM RECUPERAO JUDICIAL                                                                         1O 00000000150000000000
622920103000000000000101000081828000006381828000000002025020001321001202500000000000029400D000000000000REFERENTE PAGAMENTO DO EMPENHO NRO 000132/2025 - JOSE OTAVIO TAVARES SOUTO COMUNICACOES                                                               1O 00000000150000000000
622920103000000000000101000081828000006081828000000002025020001271001202500000000000017783D000000000000REFERENTE PAGAMENTO DO EMPENHO NRO 000127/2025 - OI SA- EM RECUPERAO JUDICIAL                                                                         1O 00000000150000000000
622920104000000000000101000081828000006381828000000002025020001321001202500000000000029400C000000000000REFERENTE PAGAMENTO DO EMPENHO NRO 000132/2025 - JOSE OTAVIO TAVARES SOUTO COMUNICACOES                                                               1O 00000000150000000000
622920104000000000000101000081828000006081828000000002025020001271001202500000000000017783C000000000000REFERENTE PAGAMENTO DO EMPENHO NRO 000127/2025 - OI SA- EM RECUPERAO JUDICIAL                                                                         1O 00000000150000000000
821130105000000000000101000081828000005381828000000002024020112841001202500000000000050000D000000000000REFERENTE PAGAMENTO DO EMPENHO NRO 011284/2024 - NELSON ADO BARROS PACHECO - MEI 12337898174                                                          1C 00000000150000000000
821130105000000000000101000081828000005681828000000002024020112901001202500000000000240000D000000000000REFERENTE PAGAMENTO DO EMPENHO NRO 011290/2024 - AIRTON LUIZ WILHELM   CIA LTDA                                                                       1C 00000000150000000000
821130105000000000000101000081828000005081828000000002024020112831001202500000000000063000D000000000000REFERENTE PAGAMENTO DO EMPENHO NRO 011283/2024 - DANIEL JUNIOR PLETSCH 03960797095                                                                    1C 00000000150000000000
821130105000000000000101000081828000004781828000000002024020108751001202500000000000016000D000000000000REFERENTE PAGAMENTO DO EMPENHO NRO 010875/2024 - HELENCO   WICHINHESKI LTDA - ME                                                                      1C 00000000150000000000
821130105000000000000101000081828000004181828000000002024020104951001202500000000000057600D000000000000REFERENTE PAGAMENTO DO EMPENHO NRO 010495/2024 - GRAFICA E PERSONALIZADOS SCHLOSSER   ARAUJO LTDA                                                     1C 00000000150000000000
821130105000000000000101000081828000006281828000000002025020001321001202500000000000029400D000000000000REFERENTE PAGAMENTO DO EMPENHO NRO 000132/2025 - JOSE OTAVIO TAVARES SOUTO COMUNICACOES                                                               1C 00000000150000000000
821130105000000000000101000081828000004481828000000002024020105811001202500000000000012864D000000000000REFERENTE PAGAMENTO DO EMPENHO NRO 010581/2024 - DANTE COMERCIO DE BEBIDAS LTDA                                                                       1C 00000000150000000000
821130105000000000000101000081828000005981828000000002025020001271001202500000000000017783D000000000000REFERENTE PAGAMENTO DO EMPENHO NRO 000127/2025 - OI SA- EM RECUPERAO JUDICIAL                                                                         1C 00000000150000000000
821140105000000000000101000081828000005381828000000002024020112841001202500000000000050000C000000000000REFERENTE PAGAMENTO DO EMPENHO NRO 011284/2024 - NELSON ADO BARROS PACHECO - MEI 12337898174                                                          1C 00000000150000000000
821140105000000000000101000081828000005681828000000002024020112901001202500000000000240000C000000000000REFERENTE PAGAMENTO DO EMPENHO NRO 011290/2024 - AIRTON LUIZ WILHELM   CIA LTDA                                                                       1C 00000000150000000000
821140105000000000000101000081828000005081828000000002024020112831001202500000000000063000C000000000000REFERENTE PAGAMENTO DO EMPENHO NRO 011283/2024 - DANIEL JUNIOR PLETSCH 03960797095                                                                    1C 00000000150000000000
821140105000000000000101000081828000004781828000000002024020108751001202500000000000016000C000000000000REFERENTE PAGAMENTO DO EMPENHO NRO 010875/2024 - HELENCO   WICHINHESKI LTDA - ME                                                                      1C 00000000150000000000
821140105000000000000101000081828000004181828000000002024020104951001202500000000000057600C000000000000REFERENTE PAGAMENTO DO EMPENHO NRO 010495/2024 - GRAFICA E PERSONALIZADOS SCHLOSSER   ARAUJO LTDA                                                     1C 00000000150000000000
821140105000000000000101000081828000006281828000000002025020001321001202500000000000029400C000000000000REFERENTE PAGAMENTO DO EMPENHO NRO 000132/2025 - JOSE OTAVIO TAVARES SOUTO COMUNICACOES                                                               1C 00000000150000000000
821140105000000000000101000081828000004481828000000002024020105811001202500000000000012864C000000000000REFERENTE PAGAMENTO DO EMPENHO NRO 010581/2024 - DANTE COMERCIO DE BEBIDAS LTDA                                                                       1C 00000000150000000000
821140105000000000000101000081828000005981828000000002025020001271001202500000000000017783C000000000000REFERENTE PAGAMENTO DO EMPENHO NRO 000127/2025 - OI SA- EM RECUPERAO JUDICIAL                                                                         1C 00000000150000000000
631300000000000000000101000081828000005481828000000002024020112841001202500000000000050000D000000000000REFERENTE PAGAMENTO DO EMPENHO NRO 011284/2024 - NELSON ADO BARROS PACHECO - MEI 12337898174                                                          1O 00000000150000000000
631300000000000000000101000081828000005781828000000002024020112901001202500000000000240000D000000000000REFERENTE PAGAMENTO DO EMPENHO NRO 011290/2024 - AIRTON LUIZ WILHELM   CIA LTDA                                                                       1O 00000000150000000000
631300000000000000000101000081828000005181828000000002024020112831001202500000000000063000D000000000000REFERENTE PAGAMENTO DO EMPENHO NRO 011283/2024 - DANIEL JUNIOR PLETSCH 03960797095                                                                    1O 00000000150000000000
631300000000000000000101000081828000004881828000000002024020108751001202500000000000016000D000000000000REFERENTE PAGAMENTO DO EMPENHO NRO 010875/2024 - HELENCO   WICHINHESKI LTDA - ME                                                                      1O 00000000150000000000
631300000000000000000101000081828000004281828000000002024020104951001202500000000000057600D000000000000REFERENTE PAGAMENTO DO EMPENHO NRO 010495/2024 - GRAFICA E PERSONALIZADOS SCHLOSSER   ARAUJO LTDA                                                     1O 00000000150000000000
631300000000000000000101000081828000004581828000000002024020105811001202500000000000012864D000000000000REFERENTE PAGAMENTO DO EMPENHO NRO 010581/2024 - DANTE COMERCIO DE BEBIDAS LTDA                                                                       1O 00000000150000000000
631400000000000000000101000081828000005481828000000002024020112841001202500000000000050000C000000000000REFERENTE PAGAMENTO DO EMPENHO NRO 011284/2024 - NELSON ADO BARROS PACHECO - MEI 12337898174                                                          1O 00000000150000000000
631400000000000000000101000081828000005781828000000002024020112901001202500000000000240000C000000000000REFERENTE PAGAMENTO DO EMPENHO NRO 011290/2024 - AIRTON LUIZ WILHELM   CIA LTDA                                                                       1O 00000000150000000000
631400000000000000000101000081828000005181828000000002024020112831001202500000000000063000C000000000000REFERENTE PAGAMENTO DO EMPENHO NRO 011283/2024 - DANIEL JUNIOR PLETSCH 03960797095                                                                    1O 00000000150000000000
631400000000000000000101000081828000004881828000000002024020108751001202500000000000016000C000000000000REFERENTE PAGAMENTO DO EMPENHO NRO 010875/2024 - HELENCO   WICHINHESKI LTDA - ME                                                                      1O 00000000150000000000
631400000000000000000101000081828000004281828000000002024020104951001202500000000000057600C000000000000REFERENTE PAGAMENTO DO EMPENHO NRO 010495/2024 - GRAFICA E PERSONALIZADOS SCHLOSSER   ARAUJO LTDA                                                     1O 00000000150000000000
631400000000000000000101000081828000004581828000000002024020105811001202500000000000012864C000000000000REFERENTE PAGAMENTO DO EMPENHO NRO 010581/2024 - DANTE COMERCIO DE BEBIDAS LTDA                                                                       1O 00000000150000000000
721130869000000000000101000081828000005681828000000002024020112901001202500000000000004824D000000000000REFRETENO SOBRE PAGAMENTO EMPENHO 011290/2024 - AIRTON LUIZ WILHELM   CIA LTDA - BANRISUL C/CAMARA PIX  235176                                        1C 00000000186900000000
821130208690000000000101000081828000005681828000000002024020112901001202500000000000004824C000000000000REFRETENO SOBRE PAGAMENTO EMPENHO 011290/2024 - AIRTON LUIZ WILHELM   CIA LTDA - BANRISUL C/CAMARA PIX  235176                                        1C 00000000186900000000
213110101021800000000101000081828000005581828000000002024020112841001202500000000000050000D000000000000REFERENTE PAGAMENTO DO EMPENHO NRO 011284/2024 - NELSON ADO BARROS PACHECO - MEI 12337898174                                                          1PF00000000150000000000
213110101021800000000101000081828000005881828000000002024020112901001202500000000000240000D000000000000REFERENTE PAGAMENTO DO EMPENHO NRO 011290/2024 - AIRTON LUIZ WILHELM   CIA LTDA                                                                       1PF00000000150000000000
213110101021800000000101000081828000005281828000000002024020112831001202500000000000063000D000000000000REFERENTE PAGAMENTO DO EMPENHO NRO 011283/2024 - DANIEL JUNIOR PLETSCH 03960797095                                                                    1PF00000000150000000000
213110101021800000000101000081828000004981828000000002024020108751001202500000000000016000D000000000000REFERENTE PAGAMENTO DO EMPENHO NRO 010875/2024 - HELENCO   WICHINHESKI LTDA - ME                                                                      1PF00000000150000000000
213110101021800000000101000081828000004381828000000002024020104951001202500000000000057600D000000000000REFERENTE PAGAMENTO DO EMPENHO NRO 010495/2024 - GRAFICA E PERSONALIZADOS SCHLOSSER   ARAUJO LTDA                                                     1PF00000000150000000000
213110101021800000000101000081828000004681828000000002024020105811001202500000000000012864D000000000000REFERENTE PAGAMENTO DO EMPENHO NRO 010581/2024 - DANTE COMERCIO DE BEBIDAS LTDA                                                                       1PF00000000150000000000
218829901010000000000101000081828000005881828000000002024020112901001202500000000000004824C000000000000REFRETENO SOBRE PAGAMENTO EMPENHO 011290/2024 - AIRTON LUIZ WILHELM   CIA LTDA - BANRISUL C/CAMARA PIX  235176                                        1PF00000000186900000000
111310104000000000000101000081828000004081828000000000000000000001001202500000000000004824D000000000000ISSQN                                                                                                                                                 0PF00000000186900000000
111310104000000000000101000081828000004081828000000000000000000001001202500000000000004824C000000000000REFERENTE PGTO DESPESA EXTRA NRO 000001/2025 - BANRISUL C/RETENES TRANSF  4824                                                                        0PF00000000186900000000
111111912050000000000101000081828000004081828000000000000000000001001202500000000014000000D000000000000DUODECIMO DE JANEIRO DE 2025                                                                                                                          0PF00000000150000000000
111111912050000000000101000081828000004081828000000000000000000001001202500000000000004824C000000000000ISSQN                                                                                                                                                 0PF00000000150000000000
111111912050000000000101000081828000004081828000000000000000000001001202500000000013952817C000000000000VALOR APLICADO                                                                                                                                        0PF00000000150000000000
111115003220000000000101000081828000004081828000000000000000000001001202500000000013952817D000000000000VALOR APLICADO                                                                                                                                        0PF00000000150000000000
111111912050000000000101000081828000005581828000000002024020112841001202500000000000050000C000000000000REFERENTE PAGAMENTO DO EMPENHO NRO 011284/2024 - NELSON ADO BARROS PACHECO - MEI 12337898174                                                          1PF00000000150000000000
111111912050000000000101000081828000005881828000000002024020112901001202500000000000240000C000000000000REFERENTE PAGAMENTO DO EMPENHO NRO 011290/2024 - AIRTON LUIZ WILHELM   CIA LTDA                                                                       1PF00000000150000000000
111111912050000000000101000081828000005881828000000002024020112901001202500000000000004824D000000000000REFRETENO SOBRE PAGAMENTO EMPENHO 011290/2024 - AIRTON LUIZ WILHELM   CIA LTDA - BANRISUL C/CAMARA PIX  235176                                        1PF00000000150000000000
111111912050000000000101000081828000005281828000000002024020112831001202500000000000063000C000000000000REFERENTE PAGAMENTO DO EMPENHO NRO 011283/2024 - DANIEL JUNIOR PLETSCH 03960797095                                                                    1PF00000000150000000000
111111912050000000000101000081828000004981828000000002024020108751001202500000000000016000C000000000000REFERENTE PAGAMENTO DO EMPENHO NRO 010875/2024 - HELENCO   WICHINHESKI LTDA - ME                                                                      1PF00000000150000000000
111111912050000000000101000081828000004381828000000002024020104951001202500000000000057600C000000000000REFERENTE PAGAMENTO DO EMPENHO NRO 010495/2024 - GRAFICA E PERSONALIZADOS SCHLOSSER   ARAUJO LTDA                                                     1PF00000000150000000000
111111912050000000000101000081828000006481828000000002025020001321001202500000000000029400C000000000000REFERENTE PAGAMENTO DO EMPENHO NRO 000132/2025 - JOSE OTAVIO TAVARES SOUTO COMUNICACOES - BANRISUL C/CAMARA TITULO  29400                             1PF00000000150000000000
111111912050000000000101000081828000004681828000000002024020105811001202500000000000012864C000000000000REFERENTE PAGAMENTO DO EMPENHO NRO 010581/2024 - DANTE COMERCIO DE BEBIDAS LTDA                                                                       1PF00000000150000000000
111111912050000000000101000081828000006181828000000002025020001271001202500000000000017783C000000000000REFERENTE PAGAMENTO DO EMPENHO NRO 000127/2025 - OI SA- EM RECUPERAO JUDICIAL - BANRISUL C/CAMARA FATURA  17783                                       1PF00000000150000000000
622110000000000000000101000081832000006681832000000002025020002481401202500000000000016000D000000000000REFERENTE EMPENHO 000248/2025 - ADRIANO CESAR KAISEKAMP - FUNERARIA                                                                                   1O 00000000150000000000
622110000000000000000101000081832000006881832000000002025020002491401202500000000000528660D000000000000REFERENTE EMPENHO 000249/2025 - ABASE SISTEMAS E SOLUOES LTDA                                                                                         1O 00000000150000000000
622130100000000000000101000081832000006681832000000002025020002481401202500000000000016000C000000000000REFERENTE EMPENHO 000248/2025 - ADRIANO CESAR KAISEKAMP - FUNERARIA                                                                                   1O 00000000150000000000
622130100000000000000101000081832000006881832000000002025020002491401202500000000000528660C000000000000REFERENTE EMPENHO 000249/2025 - ABASE SISTEMAS E SOLUOES LTDA                                                                                         1O 00000000150000000000
622920101000000000000101000081832000006681832000000002025020002481401202500000000000016000C000000000000REFERENTE EMPENHO 000248/2025 - ADRIANO CESAR KAISEKAMP - FUNERARIA                                                                                   1O 00000000150000000000
622920101000000000000101000081832000006881832000000002025020002491401202500000000000528660C000000000000REFERENTE EMPENHO 000249/2025 - ABASE SISTEMAS E SOLUOES LTDA                                                                                         1O 00000000150000000000
522920101000000000000101000081832000006681832000000002025020002481401202500000000000016000D000000000000REFERENTE EMPENHO 000248/2025 - ADRIANO CESAR KAISEKAMP - FUNERARIA                                                                                   1O 00000000150000000000
522920101000000000000101000081832000006881832000000002025020002491401202500000000000528660D000000000000REFERENTE EMPENHO 000249/2025 - ABASE SISTEMAS E SOLUOES LTDA                                                                                         1O 00000000150000000000
821110105000000000000101000081832000006581832000000002025020002481401202500000000000016000D000000000000REFERENTE EMPENHO 000248/2025 - ADRIANO CESAR KAISEKAMP - FUNERARIA                                                                                   1C 00000000150000000000
821110105000000000000101000081832000006781832000000002025020002491401202500000000000528660D000000000000REFERENTE EMPENHO 000249/2025 - ABASE SISTEMAS E SOLUOES LTDA                                                                                         1C 00000000150000000000
821120105000000000000101000081832000006581832000000002025020002481401202500000000000016000C000000000000REFERENTE EMPENHO 000248/2025 - ADRIANO CESAR KAISEKAMP - FUNERARIA                                                                                   1C 00000000150000000000
821120105000000000000101000081832000006781832000000002025020002491401202500000000000528660C000000000000REFERENTE EMPENHO 000249/2025 - ABASE SISTEMAS E SOLUOES LTDA                                                                                         1C 00000000150000000000
622110000000000000000101000081833000007481833000000002025020003191501202500000000000004500D000000000000REFERENTE EMPENHO 000319/2025 - ASSOCIAAO MAE RAINHA - RDIO DE INDEPENDENCIA                                                                          1O 00000000150000000000
622110000000000000000101000081833000007281833000000002025020003181501202500000000000100000D000000000000REFERENTE EMPENHO 000318/2025 - JORNAL SEMANAL LTDA                                                                                                   1O 00000000150000000000
622110000000000000000101000081833000007081833000000002025020003171501202500000000000638000D000000000000REFERENTE EMPENHO 000317/2025 - JORNAL SEMANAL LTDA                                                                                                   1O 00000000150000000000
622130100000000000000101000081833000007481833000000002025020003191501202500000000000004500C000000000000REFERENTE EMPENHO 000319/2025 - ASSOCIAAO MAE RAINHA - RDIO DE INDEPENDENCIA                                                                          1O 00000000150000000000
622130100000000000000101000081833000007281833000000002025020003181501202500000000000100000C000000000000REFERENTE EMPENHO 000318/2025 - JORNAL SEMANAL LTDA                                                                                                   1O 00000000150000000000
622130100000000000000101000081833000007081833000000002025020003171501202500000000000638000C000000000000REFERENTE EMPENHO 000317/2025 - JORNAL SEMANAL LTDA                                                                                                   1O 00000000150000000000
622920101000000000000101000081833000007481833000000002025020003191501202500000000000004500C000000000000REFERENTE EMPENHO 000319/2025 - ASSOCIAAO MAE RAINHA - RDIO DE INDEPENDENCIA                                                                          1O 00000000150000000000
622920101000000000000101000081833000007281833000000002025020003181501202500000000000100000C000000000000REFERENTE EMPENHO 000318/2025 - JORNAL SEMANAL LTDA                                                                                                   1O 00000000150000000000
622920101000000000000101000081833000007081833000000002025020003171501202500000000000638000C000000000000REFERENTE EMPENHO 000317/2025 - JORNAL SEMANAL LTDA                                                                                                   1O 00000000150000000000
522920101000000000000101000081833000007481833000000002025020003191501202500000000000004500D000000000000REFERENTE EMPENHO 000319/2025 - ASSOCIAAO MAE RAINHA - RDIO DE INDEPENDENCIA                                                                          1O 00000000150000000000
522920101000000000000101000081833000007281833000000002025020003181501202500000000000100000D000000000000REFERENTE EMPENHO 000318/2025 - JORNAL SEMANAL LTDA                                                                                                   1O 00000000150000000000
522920101000000000000101000081833000007081833000000002025020003171501202500000000000638000D000000000000REFERENTE EMPENHO 000317/2025 - JORNAL SEMANAL LTDA                                                                                                   1O 00000000150000000000
821110105000000000000101000081833000007381833000000002025020003191501202500000000000004500D000000000000REFERENTE EMPENHO 000319/2025 - ASSOCIAAO MAE RAINHA - RDIO DE INDEPENDENCIA                                                                          1C 00000000150000000000
821110105000000000000101000081833000007181833000000002025020003181501202500000000000100000D000000000000REFERENTE EMPENHO 000318/2025 - JORNAL SEMANAL LTDA                                                                                                   1C 00000000150000000000
821110105000000000000101000081833000006981833000000002025020003171501202500000000000638000D000000000000REFERENTE EMPENHO 000317/2025 - JORNAL SEMANAL LTDA                                                                                                   1C 00000000150000000000
821120105000000000000101000081833000007381833000000002025020003191501202500000000000004500C000000000000REFERENTE EMPENHO 000319/2025 - ASSOCIAAO MAE RAINHA - RDIO DE INDEPENDENCIA                                                                          1C 00000000150000000000
821120105000000000000101000081833000007181833000000002025020003181501202500000000000100000C000000000000REFERENTE EMPENHO 000318/2025 - JORNAL SEMANAL LTDA                                                                                                   1C 00000000150000000000
821120105000000000000101000081833000006981833000000002025020003171501202500000000000638000C000000000000REFERENTE EMPENHO 000317/2025 - JORNAL SEMANAL LTDA                                                                                                   1C 00000000150000000000
622110000000000000000101000081838000007681838000000002025020004012001202500000000000028410D000000000000REFERENTE EMPENHO 000401/2025 - BELLA PRESENTES E UTILIDADES LTDA - ME                                                                                1O 00000000150000000000
622130100000000000000101000081838000007681838000000002025020004012001202500000000000028410C000000000000REFERENTE EMPENHO 000401/2025 - BELLA PRESENTES E UTILIDADES LTDA - ME                                                                                1O 00000000150000000000
622920101000000000000101000081838000007681838000000002025020004012001202500000000000028410C000000000000REFERENTE EMPENHO 000401/2025 - BELLA PRESENTES E UTILIDADES LTDA - ME                                                                                1O 00000000150000000000
522920101000000000000101000081838000007681838000000002025020004012001202500000000000028410D000000000000REFERENTE EMPENHO 000401/2025 - BELLA PRESENTES E UTILIDADES LTDA - ME                                                                                1O 00000000150000000000
821110105000000000000101000081838000007581838000000002025020004012001202500000000000028410D000000000000REFERENTE EMPENHO 000401/2025 - BELLA PRESENTES E UTILIDADES LTDA - ME                                                                                1C 00000000150000000000
821120105000000000000101000081838000007581838000000002025020004012001202500000000000028410C000000000000REFERENTE EMPENHO 000401/2025 - BELLA PRESENTES E UTILIDADES LTDA - ME                                                                                1C 00000000150000000000
622110000000000000000101000081845000009181845000000002025020005982701202500000000000007500D000000000000REFERENTE EMPENHO 000598/2025 - MASTERPLAN LTDA                                                                                                       1O 00000000150000000000
622110000000000000000101000081845000009381845000000002025020006292701202500000000000009500D000000000000REFERENTE EMPENHO 000629/2025 - LUIZ VANDERLEI GOMES DA SILVA - ME                                                                                    1O 00000000150000000000
622110000000000000000101000081845000009781845000000002025020006312701202500000000000009900D000000000000REFERENTE EMPENHO 000631/2025 - 58332417 MARCOS FELIPE DOLLIS                                                                                         1O 00000000150000000000
622110000000000000000101000081845000008781845000000002025020005962701202500000000000037000D000000000000REFERENTE EMPENHO 000596/2025 - ANDRESSA GARCIA PUHL ME                                                                                               1O 00000000150000000000
622110000000000000000101000081845000009581845000000002025020006302701202500000000000029100D000000000000REFERENTE EMPENHO 000630/2025 - 58332417 MARCOS FELIPE DOLLIS                                                                                         1O 00000000150000000000
622110000000000000000101000081845000008981845000000002025020005972701202500000000000384970D000000000000REFERENTE EMPENHO 000597/2025 - BENOIT ELETRODOMESTICOS LTDA TRES DE MAIO                                                                             1O 00000000150000000000
622130100000000000000101000081845000009181845000000002025020005982701202500000000000007500C000000000000REFERENTE EMPENHO 000598/2025 - MASTERPLAN LTDA                                                                                                       1O 00000000150000000000
622130100000000000000101000081845000009381845000000002025020006292701202500000000000009500C000000000000REFERENTE EMPENHO 000629/2025 - LUIZ VANDERLEI GOMES DA SILVA - ME                                                                                    1O 00000000150000000000
622130100000000000000101000081845000009781845000000002025020006312701202500000000000009900C000000000000REFERENTE EMPENHO 000631/2025 - 58332417 MARCOS FELIPE DOLLIS                                                                                         1O 00000000150000000000
622130100000000000000101000081845000008781845000000002025020005962701202500000000000037000C000000000000REFERENTE EMPENHO 000596/2025 - ANDRESSA GARCIA PUHL ME                                                                                               1O 00000000150000000000
622130100000000000000101000081845000009581845000000002025020006302701202500000000000029100C000000000000REFERENTE EMPENHO 000630/2025 - 58332417 MARCOS FELIPE DOLLIS                                                                                         1O 00000000150000000000
622130100000000000000101000081845000008981845000000002025020005972701202500000000000384970C000000000000REFERENTE EMPENHO 000597/2025 - BENOIT ELETRODOMESTICOS LTDA TRES DE MAIO                                                                             1O 00000000150000000000
622920101000000000000101000081845000009181845000000002025020005982701202500000000000007500C000000000000REFERENTE EMPENHO 000598/2025 - MASTERPLAN LTDA                                                                                                       1O 00000000150000000000
622920101000000000000101000081845000009381845000000002025020006292701202500000000000009500C000000000000REFERENTE EMPENHO 000629/2025 - LUIZ VANDERLEI GOMES DA SILVA - ME                                                                                    1O 00000000150000000000
622920101000000000000101000081845000009781845000000002025020006312701202500000000000009900C000000000000REFERENTE EMPENHO 000631/2025 - 58332417 MARCOS FELIPE DOLLIS                                                                                         1O 00000000150000000000
622920101000000000000101000081845000008781845000000002025020005962701202500000000000037000C000000000000REFERENTE EMPENHO 000596/2025 - ANDRESSA GARCIA PUHL ME                                                                                               1O 00000000150000000000
622920101000000000000101000081845000009581845000000002025020006302701202500000000000029100C000000000000REFERENTE EMPENHO 000630/2025 - 58332417 MARCOS FELIPE DOLLIS                                                                                         1O 00000000150000000000
622920101000000000000101000081845000008981845000000002025020005972701202500000000000384970C000000000000REFERENTE EMPENHO 000597/2025 - BENOIT ELETRODOMESTICOS LTDA TRES DE MAIO                                                                             1O 00000000150000000000
522920101000000000000101000081845000009181845000000002025020005982701202500000000000007500D000000000000REFERENTE EMPENHO 000598/2025 - MASTERPLAN LTDA                                                                                                       1O 00000000150000000000
522920101000000000000101000081845000009381845000000002025020006292701202500000000000009500D000000000000REFERENTE EMPENHO 000629/2025 - LUIZ VANDERLEI GOMES DA SILVA - ME                                                                                    1O 00000000150000000000
522920101000000000000101000081845000009781845000000002025020006312701202500000000000009900D000000000000REFERENTE EMPENHO 000631/2025 - 58332417 MARCOS FELIPE DOLLIS                                                                                         1O 00000000150000000000
522920101000000000000101000081845000008781845000000002025020005962701202500000000000037000D000000000000REFERENTE EMPENHO 000596/2025 - ANDRESSA GARCIA PUHL ME                                                                                               1O 00000000150000000000
522920101000000000000101000081845000009581845000000002025020006302701202500000000000029100D000000000000REFERENTE EMPENHO 000630/2025 - 58332417 MARCOS FELIPE DOLLIS                                                                                         1O 00000000150000000000
522920101000000000000101000081845000008981845000000002025020005972701202500000000000384970D000000000000REFERENTE EMPENHO 000597/2025 - BENOIT ELETRODOMESTICOS LTDA TRES DE MAIO                                                                             1O 00000000150000000000
821110105000000000000101000081845000009081845000000002025020005982701202500000000000007500D000000000000REFERENTE EMPENHO 000598/2025 - MASTERPLAN LTDA                                                                                                       1C 00000000150000000000
821110105000000000000101000081845000009281845000000002025020006292701202500000000000009500D000000000000REFERENTE EMPENHO 000629/2025 - LUIZ VANDERLEI GOMES DA SILVA - ME                                                                                    1C 00000000150000000000
821110105000000000000101000081845000009681845000000002025020006312701202500000000000009900D000000000000REFERENTE EMPENHO 000631/2025 - 58332417 MARCOS FELIPE DOLLIS                                                                                         1C 00000000150000000000
821110105000000000000101000081845000008681845000000002025020005962701202500000000000037000D000000000000REFERENTE EMPENHO 000596/2025 - ANDRESSA GARCIA PUHL ME                                                                                               1C 00000000150000000000
821110105000000000000101000081845000009481845000000002025020006302701202500000000000029100D000000000000REFERENTE EMPENHO 000630/2025 - 58332417 MARCOS FELIPE DOLLIS                                                                                         1C 00000000150000000000
821110105000000000000101000081845000008881845000000002025020005972701202500000000000384970D000000000000REFERENTE EMPENHO 000597/2025 - BENOIT ELETRODOMESTICOS LTDA TRES DE MAIO                                                                             1C 00000000150000000000
821120105000000000000101000081845000009081845000000002025020005982701202500000000000007500C000000000000REFERENTE EMPENHO 000598/2025 - MASTERPLAN LTDA                                                                                                       1C 00000000150000000000
821120105000000000000101000081845000009281845000000002025020006292701202500000000000009500C000000000000REFERENTE EMPENHO 000629/2025 - LUIZ VANDERLEI GOMES DA SILVA - ME                                                                                    1C 00000000150000000000
821120105000000000000101000081845000009681845000000002025020006312701202500000000000009900C000000000000REFERENTE EMPENHO 000631/2025 - 58332417 MARCOS FELIPE DOLLIS                                                                                         1C 00000000150000000000
821120105000000000000101000081845000008681845000000002025020005962701202500000000000037000C000000000000REFERENTE EMPENHO 000596/2025 - ANDRESSA GARCIA PUHL ME                                                                                               1C 00000000150000000000
821120105000000000000101000081845000009481845000000002025020006302701202500000000000029100C000000000000REFERENTE EMPENHO 000630/2025 - 58332417 MARCOS FELIPE DOLLIS                                                                                         1C 00000000150000000000
821120105000000000000101000081845000008881845000000002025020005972701202500000000000384970C000000000000REFERENTE EMPENHO 000597/2025 - BENOIT ELETRODOMESTICOS LTDA TRES DE MAIO                                                                             1C 00000000150000000000
213110101010000000000101000081845000008281845000000002025020001342701202500000000000055000C000000000000LIQUIDAO DE EMPENHO 000134/2025 - LEONIR DE FATIMA STECHMANN DA SILVA                                                                                 1PF00000000150000000000
213110101010000000000101000081845000007981845000000002025020001312701202500000000000027000C000000000000LIQUIDAO DE EMPENHO 000131/2025 - JEFERSON LUIS SCHAKOFSKI                                                                                            1PF00000000150000000000
213110101010000000000101000081845000008581845000000002025020001872701202500000000000099950C000000000000LIQUIDAO DE EMPENHO 000187/2025 - MORESCO   ANTUNES LTDA                                                                                              1PF00000000150000000000
331111600000000000000101000081845000008581845000000002025020001872701202500000000000099950D000000000000LIQUIDAO DE EMPENHO 000187/2025 - MORESCO   ANTUNES LTDA                                                                                              1P 00000000150000000000
332310600000000000000101000081845000008281845000000002025020001342701202500000000000055000D000000000000LIQUIDAO DE EMPENHO 000134/2025 - LEONIR DE FATIMA STECHMANN DA SILVA                                                                                 1P 00000000150000000000
622130100000000000000101000081845000008181845000000002025020001342701202500000000000055000D000000000000LIQUIDAO DE EMPENHO 000134/2025 - LEONIR DE FATIMA STECHMANN DA SILVA                                                                                 1O 00000000150000000000
622130100000000000000101000081845000007881845000000002025020001312701202500000000000027000D000000000000LIQUIDAO DE EMPENHO 000131/2025 - JEFERSON LUIS SCHAKOFSKI                                                                                            1O 00000000150000000000
622130100000000000000101000081845000008481845000000002025020001872701202500000000000099950D000000000000LIQUIDAO DE EMPENHO 000187/2025 - MORESCO   ANTUNES LTDA                                                                                              1O 00000000150000000000
331112400000000000000101000081845000007981845000000002025020001312701202500000000000027000D000000000000LIQUIDAO DE EMPENHO 000131/2025 - JEFERSON LUIS SCHAKOFSKI                                                                                            1P 00000000150000000000
622130300000000000000101000081845000008181845000000002025020001342701202500000000000055000C000000000000LIQUIDAO DE EMPENHO 000134/2025 - LEONIR DE FATIMA STECHMANN DA SILVA                                                                                 1O 00000000150000000000
622130300000000000000101000081845000007881845000000002025020001312701202500000000000027000C000000000000LIQUIDAO DE EMPENHO 000131/2025 - JEFERSON LUIS SCHAKOFSKI                                                                                            1O 00000000150000000000
622130300000000000000101000081845000008481845000000002025020001872701202500000000000099950C000000000000LIQUIDAO DE EMPENHO 000187/2025 - MORESCO   ANTUNES LTDA                                                                                              1O 00000000150000000000
622920101000000000000101000081845000008181845000000002025020001342701202500000000000055000D000000000000LIQUIDAO DE EMPENHO 000134/2025 - LEONIR DE FATIMA STECHMANN DA SILVA                                                                                 1O 00000000150000000000
622920101000000000000101000081845000007881845000000002025020001312701202500000000000027000D000000000000LIQUIDAO DE EMPENHO 000131/2025 - JEFERSON LUIS SCHAKOFSKI                                                                                            1O 00000000150000000000
622920101000000000000101000081845000008481845000000002025020001872701202500000000000099950D000000000000LIQUIDAO DE EMPENHO 000187/2025 - MORESCO   ANTUNES LTDA                                                                                              1O 00000000150000000000
622920103000000000000101000081845000008181845000000002025020001342701202500000000000055000C000000000000LIQUIDAO DE EMPENHO 000134/2025 - LEONIR DE FATIMA STECHMANN DA SILVA                                                                                 1O 00000000150000000000
622920103000000000000101000081845000007881845000000002025020001312701202500000000000027000C000000000000LIQUIDAO DE EMPENHO 000131/2025 - JEFERSON LUIS SCHAKOFSKI                                                                                            1O 00000000150000000000
622920103000000000000101000081845000008481845000000002025020001872701202500000000000099950C000000000000LIQUIDAO DE EMPENHO 000187/2025 - MORESCO   ANTUNES LTDA                                                                                              1O 00000000150000000000
821120105000000000000101000081845000008081845000000002025020001342701202500000000000055000D000000000000LIQUIDAO DE EMPENHO 000134/2025 - LEONIR DE FATIMA STECHMANN DA SILVA                                                                                 1C 00000000150000000000
821120105000000000000101000081845000007781845000000002025020001312701202500000000000027000D000000000000LIQUIDAO DE EMPENHO 000131/2025 - JEFERSON LUIS SCHAKOFSKI                                                                                            1C 00000000150000000000
821120105000000000000101000081845000008381845000000002025020001872701202500000000000099950D000000000000LIQUIDAO DE EMPENHO 000187/2025 - MORESCO   ANTUNES LTDA                                                                                              1C 00000000150000000000
821130105000000000000101000081845000008081845000000002025020001342701202500000000000055000C000000000000LIQUIDAO DE EMPENHO 000134/2025 - LEONIR DE FATIMA STECHMANN DA SILVA                                                                                 1C 00000000150000000000
821130105000000000000101000081845000007781845000000002025020001312701202500000000000027000C000000000000LIQUIDAO DE EMPENHO 000131/2025 - JEFERSON LUIS SCHAKOFSKI                                                                                            1C 00000000150000000000
821130105000000000000101000081845000008381845000000002025020001872701202500000000000099950C000000000000LIQUIDAO DE EMPENHO 000187/2025 - MORESCO   ANTUNES LTDA                                                                                              1C 00000000150000000000
622110000000000000000101000081846000009981846000000002025020006482801202500000000000648807D000000000000REFERENTE EMPENHO 000648/2025 - FOLHA DE PAGTO - VEREADORES                                                                                           1O 00000000150000000000
622110000000000000000101000081846000010581846000000002025020006502801202500000000000648807D000000000000REFERENTE EMPENHO 000650/2025 - FOLHA  PAG SERVIDORES DA CMARA DE VEREADORES                                                                          1O 00000000150000000000
622110000000000000000101000081846000012081846000000002025020006552801202500000000000849909D000000000000REFERENTE EMPENHO 000655/2025 - FOLHA  PAG SERVIDORES DA CMARA DE VEREADORES                                                                          1O 00000000150000000000
622110000000000000000101000081846000011781846000000002025020006542801202500000000000028330D000000000000REFERENTE EMPENHO 000654/2025 - FOLHA  PAG SERVIDORES DA CMARA DE VEREADORES                                                                          1O 00000000150000000000
622110000000000000000101000081846000012981846000000002025020006582801202500000000000173040D000000000000REFERENTE EMPENHO 000658/2025 - FOLHA DE PAGTO - VEREADORES                                                                                           1O 00000000150000000000
622110000000000000000101000081846000011181846000000002025020006522801202500000000000137860D000000000000REFERENTE EMPENHO 000652/2025 - FOLHA  PAG SERVIDORES DA CMARA DE VEREADORES                                                                          1O 00000000150000000000
