12292535000162010120253101202527022025CAMARA DE VEREADORES DE INDEPENDENCIA-RS                                        
20050101CAMARA MUNICIPAL E VEREADORES                                                   0212292535000162
20130101CAMARA MUNICIPAL E VEREADORES                                                   0212292535000162
20140101CAMARA DE VEREADORES                                                            0212292535000162
20180101CAMARA DE VEREADORES                                                            0212292535000162
20190101CAMARA DE VEREADORES                                                            0212292535000162
20210101CAMARA DE VEREADORES                                                            0212292535000162
20220101CAMARA DE VEREADORES                                                            0212292535000162
20230101CAMARA DE VEREADORES                                                            0212292535000162
20240101CAMARA DE VEREADORES                                                            0212292535000162
20250101CAMARA DE VEREADORES                                                            0212292535000162
FINALIZADOR0000000010