12091144000180010120253101202501022025FUNDO DE PREVIDENCIA SOCIAL RPPS                                                
100000000000000000000201000052520000000000534753590000RECEITAS CORRENTES                                                                                                                                                        S0100000005252000000000000000000000
120000000000000000000201000016710000000000000000000000CONTRIBUIES                                                                                                                                                               S0200000001671000000000000000000000
121000000000000000000201000016710000000000000000000000CONTRIBUIES SOCIAIS                                                                                                                                                       S0300000001671000000000000000000000
121500000000000000000201000016710000000000000000000000CONTRIBUIES PARA  REGIMES PRPRIOS DE PREVIDNCIA E SISTEMA DE PROTEO SOCIAL                                                                                                S0400000001671000000000000000000000
121501000000000000000201000016710000000000000000000000CONTRIBUIO DO SERVIDOR CIVIL                                                                                                                                              S0500000001671000000000000000000000
121501100000000000000201000016450000000000000000000000CONTRIBUIO DO SERVIDOR CIVIL ATIVO                                                                                                                                        S0600000001645000000000000000000000
121501110000000000000201000016450000000000000000000000CONTRIBUIO DO SERVIDOR CIVIL ATIVO - PRINCIPAL                                                                                                                            A0600000001645000000000180000000000
121501200000000000000201000000190000000000000000000000CONTRIBUIO DO SERVIDOR CIVIL INATIVO                                                                                                                                      S0600000000019000000000000000000000
121501210000000000000201000000190000000000000000000000CONTRIBUIO DO SERVIDOR CIVIL INATIVO - PRINCIPAL                                                                                                                          A0600000000019000000000180000000000
121501300000000000000201000000070000000000000000000000CONTRIBUIO DO SERVIDOR CIVIL - PENSIONISTAS                                                                                                                               S0600000000007000000000000000000000
121501310000000000000201000000070000000000000000000000CONTRIBUIO DO SERVIDOR CIVIL - PENSIONISTAS - PRINCIPAL                                                                                                                   A0600000000007000000000180000000000
130000000000000000000201000035810000000000534753590000RECEITA PATRIMONIAL                                                                                                                                                       S0200000003581000000000000000000000
132000000000000000000201000035810000000000534753590000VALORES MOBILIRIOS                                                                                                                                                        S0300000003581000000000000000000000
132100000000000000000201000035810000000000534753590000JUROS E CORREES MONETRIAS                                                                                                                                                 S0400000003581000000000000000000000
132101000000000000000201000000000000000000044353280000REMUNERAO DE DEPSITOS BANCRIOS                                                                                                                                            S0500000000000000000000000000000000
132101010000000000000201000000000000000000044353280000REMUNERAO DE DEPSITOS BANCRIOS - PRINCIPAL                                                                                                                                S0600000000000000000000000000000000
132101011500000000000201000000000000000000044353280000FPSM SICREDI TAXA SELIC FIC FIRF LP                                                                                                                                       A0700000000000000000000180000000000
132104000000000000000201000035810000000000490400310000REMUNERAO DOS RECURSOS DO REGIME PRPRIO DE PREVIDNCIA SOCIAL - RPPS                                                                                                       S0500000003581000000000000000000000
132104010000000000000201000035810000000000490400310000REMUNERAO DOS RECURSOS DO REGIME PRPRIO DE PREVIDNCIA SOCIAL - RPPS                                                                                                       S0600000003581000000000000000000000
132104010100000000000201000002570000000000000000000000FPSM CEF CAIXA BRASIL 2024 III TP RF                                                                                                                                      A0700000000257000000000180000000000
132104010200000000000201000004600000000000072027370000FPSM BB PREV RF IRF-M 1 TP                                                                                                                                                A0700000000460000000000180000000000
132104010300000000000201000000020000000000000000000000FPSM CAIXA FI BRASIL IDKA IPCA 2A TP RF LP                                                                                                                                A0700000000002000000000180000000000
132104010400000000000201000001990000000000000000000000FPSM SICREDI  FI INSTITUCIONAL RF IRF-M LP                                                                                                                                A0700000000199000000000180000000000
132104010500000000000201000000620000000000000000000000FPSM SICREDI FIC INSTITUCIONAL RF IMA-B                                                                                                                                   A0700000000062000000000180000000000
132104010600000000000201000004100000000000000000000000FPSM BB PREVID RF IMA-B 5 LP                                                                                                                                              A0700000000410000000000180000000000
132104010700000000000201000003900000000000000000000000FPSM BB PREV RF IDKA2 TP                                                                                                                                                  A0700000000390000000000180000000000
132104010800000000000201000003650000000000075095150000FPSM BB PREVID RF REFERENCIADO DI LP PERFIL                                                                                                                               A0700000000365000000000180000000000
132104010900000000000201000000550000000000003663430000REND TX ADM RPPS FPSM MOV 0050 3732-X/12116-9                                                                                                                             A0700000000055000000000180200000000
132104011000000000000201000006150000000000074949560000REND CEF FI BRASIL REFERENCIADO DI LP FPSM 0050 0521/006/00000295-1                                                                                                       A0700000000615000000000180000000000
132104011100000000000201000005440000000000071730360000FPSM SICREDI LIQUIDEZ EMPRESARIAL REF DI FI RF                                                                                                                            A0700000000544000000000180000000000
132104011200000000000201000000670000000000074949220000CEF FPSM FI BRASIL 2028 X TP RF                                                                                                                                           A0700000000067000000000180000000000
132104011300000000000201000000590000000000057019010000BANRISUL RPPS II FI RF - NTN-B 27                                                                                                                                         A0700000000059000000000180000000000
132104011400000000000201000000960000000000060966210000REND BB RF TP 2026 FPSM                                                                                                                                                   A0700000000096000000000180000000000
700000000000000000000201000040624000000000000000000000RECEITAS CORRENTES INTRAORAMENTRIAS                                                                                                                                       S0100000004062400000000000000000000
720000000000000000000201000040624000000000000000000000CONTRIBUIES                                                                                                                                                               S0200000004062400000000000000000000
721000000000000000000201000040624000000000000000000000CONTRIBUIES SOCIAIS                                                                                                                                                       S0300000004062400000000000000000000
721500000000000000000201000040624000000000000000000000CONTRIBUIES PARA  REGIMES PRPRIOS DE PREVIDNCIA E SISTEMA DE PROTEO SOCIAL                                                                                                S0400000004062400000000000000000000
721502000000000000000201000038104000000000000000000000CONTRIBUIO PATRONAL - SERVIDOR CIVIL                                                                                                                                      S0500000003810400000000000000000000
721502100000000000000201000038104000000000000000000000CONTRIBUIO PATRONAL - SERVIDOR CIVIL ATIVO                                                                                                                                S0600000003810400000000000000000000
721502110000000000000201000038104000000000000000000000CONTRIBUIO PATRONAL - SERVIDOR CIVIL ATIVO - PRINCIPAL                                                                                                                    S0600000003810400000000000000000000
721502110100000000000201000017484000000000000000000000CONTRIBUIO PATRONAL - SERVIDOR CIVIL ATIVO - NORMAL - PRINCIPAL                                                                                                           A0700000001748400000000180000000000
721502110200000000000201000018200000000000000000000000CONTRIBUIO PATRONAL - SERVIDOR CIVIL ATIVO - ALIQUOTA SUPLEMENTAR - PRINCIPAL                                                                                             A0700000001820000000000180000000000
721502110300000000000201000002420000000000000000000000CONTRIBUIO PATRONAL - SERVIDOR CIVIL ATIVO - TAXA DE ADMINISTRAO - PRINCIPAL                                                                                              A0700000000242000000000180200000000
721550000000000000000201000000590000000000000000000000CONTRIBUIO PATRONAL - SERVIDOR CIVIL INATIVO E PENSIONISTAS                                                                                                               S0500000000059000000000000000000000
721550100000000000000201000000480000000000000000000000CONTRIBUIO PATRONAL - SERVIDOR CIVIL - INATIVO                                                                                                                            S0600000000048000000000000000000000
721550110000000000000201000000190000000000000000000000CONTRIBUIO PATRONAL - SERVIDOR CIVIL - INATIVO                                                                                                                            A0600000000019000000000180000000000
721550120000000000000201000000290000000000000000000000CONTRIBUIO PATRONAL - SERVIDOR CIVIL - INATIVOS -ALIQUOTA SUPLEMENTAR - PRINCIPAL                                                                                         A0600000000029000000000180000000000
721550200000000000000201000000110000000000000000000000CONTRIBUIO PATRONAL - SERVIDOR CIVIL - PENSIONISTAS                                                                                                                       S0600000000011000000000000000000000
721550210000000000000201000000040000000000000000000000CONTRIBUIO PATRONAL - SERVIDOR CIVIL - PENSIONISTAS                                                                                                                       A0600000000004000000000180000000000
721550220000000000000201000000070000000000000000000000CONTRIBUIO PATRONAL - SERVIDOR CIVIL - PENSIONISTAS -ALIQUOTA SUPLEMENTAR - PRINCIPAL                                                                                     A0600000000007000000000180000000000
721551000000000000000201000001930000000000000000000000CONTRIBUIO PATRONAL - PARCELAMENTOS                                                                                                                                       S0500000000193000000000000000000000
721551100000000000000201000001930000000000000000000000CONTRIBUIO PATRONAL - SERVIDOR CIVIL ATIVO - PARCELAMENTOS                                                                                                                S0600000000193000000000000000000000
721551110000000000000201000001930000000000000000000000CONTRIBUIO PATRONAL - SERVIDOR CIVIL ATIVO - PARCELAMENTOS                                                                                                                A0600000000193000000000180000000000
FINALIZADOR0000000053