12091144000180010120253101202501022025FUNDO DE PREVIDENCIA SOCIAL RPPS                                                
500209272002000000002319001000000003700000000000000000000000000000000000000000000000000000000000000000000000000000000000000000000000000000002914022600000291402260000029140226000000000000000000000000000000370000000000000000000000000000000000000000000000000028000000
500209272002000000002319003000000000760000000000000000000000000000000000000000000000000000000000000000000000000000000000000000000000000000000615333600000061533360000006153336000000000000000000000000000000076000000000000000000000000000000000000000000000000028000000
500209272002000000002319113000000000040000000000000000000000000000000000000000000000000000000000000000000000000000000000000000000000000000000205678300000020567830000000000000000000000000000000000000000000004000000000000000000000000000000000000000000000000028000000
500209272002000000003319001000000000061000000000000000000000000000000000000000000000000000000000000000000000000000000000000000000000000000000047105600000004710560000000471056000000000000000000000000000000006100000000000000000000000000000000000000000000000028000000
500209272002000000003319003000000000052000000000000000000000000000000000000000000000000000000000000000000000000000000000000000000000000000000000000000000000000000000000000000000000000000000000000000000000005200000000000000000000000000000000000000000000000028000000
500209272002000000003319113000000000015000000000000000000000000000000000000000000000000000000000000000000000000000000000000000000000000000000000510500000000051050000000000000000000000000000000000000000000001500000000000000000000000000000000000000000000000028000000
500209272002000000004319001000000000195000000000000000000000000000000000000000000000000000000000000000000000000000000000000000000000000000000143637200000014363720000001436372000000000000000000000000000000019500000000000000000000000000000000000000000000000028000000
500209272002000000004319003000000000200000000000000000000000000000000000000000000000000000000000000000000000000000000000000000000000000000000131059000000013105900000001310590000000000000000000000000000000020000000000000000000000000000000000000000000000000028000000
500209272002000000004319113000000000001000000000000000000000000000000000000000000000000000000000000000000000000000000000000000000000000000000000000000000000000000000000000000000000000000000000000000000000000100000000000000000000000000000000000000000000000028000000
500209122002000000022339086000000001000000000000000000000000000000000000000000000000000000000000000000000000000000000000000000000000000000001817500000000001788580000000000000000000000000000000000000000000100000000000000000000000000000000000000000000000000028000000
500109122000100002066319011000000000045000000000000000000000000000000000000000000000000000000000000000000000000000000000000000000000000000000057948400000005794840000000579484000000000000000000000000000000004500000000000000000000000000000000000000000000000028020000
500109122000100002066339014000000000020000000000000000000000000000000000000000000000000000000000000000000000000000000000000000000000000000000000000000000000000000000000000000000000000000000000000000000000002000000000000000000000000000000000000000000000000028020000
500109122000100002066339030000000000000700000000000000000000000000000000000000000000000000000000000000000000000000000000000000000000000000000000000000000000000000000000000000000000000000000000000000000000000070000000000000000000000000000000000000000000000028020000
500109122000100002066339035000000000046300000000000000000000000000000000000000000000000000000000000000000000000000000000000000000000000000000047207400000000786790000000000000000000000000000000000000000000004630000000000000000000000000000000000000000000000028020000
500109122000100002066339036000000000030000000000000000000000000000000000000000000000000000000000000000000000000000000000000000000000000000000000000000000000000000000000000000000000000000000000000000000000003000000000000000000000000000000000000000000000000028020000
500109122000100002066339039000000000030000000000000000000000000000000000000000000000000000000000000000000000000000000000000000000000000000000000000000000000000000000000000000000000000000000000000000000000003000000000000000000000000000000000000000000000000028020000
500109122000100002066339040000000000024000000000000000000000000000000000000000000000000000000000000000000000000000000000000000000000000000000130000000000000000000000000000000000000000000000000000000000000002400000000000000000000000000000000000000000000000028020000
500109122000100002066319113000000000100000000000000000000000000000000000000000000000000000000000000000000000000000000000000000000000000000000000000000000000000000000000000000000000000000000000000000000000010000000000000000000000000000000000000000000000000028020000
500109122000100002066339093000000000001000000000000000000000000000000000000000000000000000000000000000000000000000000000000000000000000000000000000000000000000000000000000000000000000000000000000000000000000100000000000000000000000000000000000000000000000028020000
500999997000000009997999999000000002993400000000000000000000000000000000000000000000000000000000000000000000000000000000000000000000000000000000000000000000000000000000000000000000000000000000000000000000299340000000000000000000000000000000000000000000000028000000
FINALIZADOR0000000020