12091144000180010120253101202501022025FUNDO DE PREVIDENCIA SOCIAL RPPS                                                
100000000000000000005001000403928743300000000000000000154914284000009237049700041018312200000000000000ATIVO                                                                                                                                               S01 NPF00000000000000000000
110000000000000000005001000403928743300000000000000000154914284000009237049700041018312200000000000000ATIVO CIRCULANTE                                                                                                                                    S02 NP 00000000000000000000
111000000000000000005001000003342979900000000000000000039457407000003967054800000332166580000000000000CAIXA E EQUIVALENTES DE CAIXA                                                                                                                       S03 NPF00000000000000000000
111100000000000000005001000003342979900000000000000000039457407000003967054800000332166580000000000000CAIXA E EQUIVALENTES DE CAIXA EM MOEDA NACIONAL                                                                                                     S04 NPF00000000000000000000
111110000000000000005001000003342979900000000000000000039457407000003967054800000332166580000000000000CAIXA E EQUIVALENTES DE CAIXA EM MOEDA NACIONAL - CONSOLIDAO                                                                                        S05 NPF00000000000000000000
111110600000000000005001000000000000000000000000000000039091064000003909106400000000000000000000000000CONTA NICA RPPS                                                                                                                                     S06 NPF00000000000000000000
111110601050000000005002000000000000000000000000000000038511580000003851158000000000000000000000000000BB GERAL FPSM MOV 0050 3732-X/11698-X                                                                                                               A08 SPF00000000180000000000
111110604000000000005001000000000000000000000000000000000579484000000057948400000000000000000000000000BANCOS CONTA MOVIMENTO  TAXA DE ADMINISTRAO                                                                                                         S07 NPF00000000000000000000
111110604010000000005001000000000000000000000000000000000579484000000057948400000000000000000000000000BB TX ADM RPPS  12116-9 FPSM MOV 0050                                                                                                               A08 SPF00000000180200000000
111115200000000000005001000003342979900000000000000000000366343000000057948400000332166580000000000000APLICAES FINANCEIRAS DE LIQUIDEZ IMEDIATA - RPPS - TAXA DE ADMINISTRAO                                                                              S06 NPF00000000000000000000
111115201000000000005001000003342979900000000000000000000366343000000057948400000332166580000000000000BB TX ADM RPPS  12116-9 FPSM APLIC 802                                                                                                              A07 SPF00000000180200000000
112000000000000000005001000000000000000000000000000000000922380000000000000000000009223800000000000000CRDITOS A CURTO PRAZO                                                                                                                               S03 NPP00000000000000000000
112100000000000000005001000000000000000000000000000000000922380000000000000000000009223800000000000000CRDITOS TRIBUTRIOS A RECEBER                                                                                                                        S04 NPP00000000000000000000
112120000000000000005001000000000000000000000000000000000922380000000000000000000009223800000000000000CRDITOS TRIBUTRIOS A RECEBER - INTRA OFSS                                                                                                           S05 NPP00000000000000000000
112127100000000000005001000000000000000000000000000000000922380000000000000000000009223800000000000000CRDITOS PREVIDENCIRIOS PARCELADOS                                                                                                                   S06 NPP00000000000000000000
112127101000000000005001000000000000000000000000000000000922380000000000000000000009223800000000000000PARCELAMENTO LEI1623/2005 360 PARCELAS CURTO PRAZO                                                                                                  A07 SPP00000000000100000000
113000000000000000005001000000000000000000000000000000061425481000001418836900000472371120000000000000DEMAIS CRDITOS E VALORES A CURTO PRAZO                                                                                                              S03 NPP00000000000000000000
113600000000000000005001000000000000000000000000000000061425481000001418836900000472371120000000000000CRDITOS PREVIDENCIRIOS A RECEBER A CURTO PRAZO                                                                                                      S04 NPP00000000000000000000
113620000000000000005001000000000000000000000000000000061425481000001418836900000472371120000000000000CRDITOS PREVIDENCIRIOS A RECEBER A CURTO PRAZO - INTRA OFSS                                                                                         S05 NPP00000000000000000000
113620100000000000005001000000000000000000000000000000061425481000001418836900000472371120000000000000CONTRIBUIES PREVIDENCIRIAS A RECEBER - RPPS                                                                                                         S06 NPP00000000000000000000
113620101010000000005001000000000000000000000000000000016215268000000000000000000162152680000000000000CONTRIBUIO PATRONAL PARA O RPPS - ALQUOTA NORMAL                                                                                                    A08 SPP00000000000100000000
113620101020000000005001000000000000000000000000000000016833475000000000000000000168334750000000000000CONTRIBUIO PATRONAL - ALQUOTA SUPLEMENTAR                                                                                                           A08 SPP00000000000100000000
113620102000000000005001000000000000000000000000000000028376738000001418836900000141883690000000000000CONTRIBUIES DO RPPS A RECEBER - SERVIDOR APOSENTADO E PENSIONISTA - FUNDO EM CAPITALIZAO                                                            A07 SPP00000000000100000000
114000000000000000005001000400585763400000000000000000053109016000003851158000040204550700000000000000INVESTIMENTOS E APLICAES TEMPORRIAS A CURTO PRAZO                                                                                                   S03 NPP00000000000000000000
114400000000000000005001000400585763400000000000000000053109016000003851158000040204550700000000000000INVESTIMENTOS E APLICAES TEMPORRIAS DE CURTO PRAZO - RPPS                                                                                           S04 NPP00000000000000000000
114410000000000000005001000400585763400000000000000000053109016000003851158000040204550700000000000000INVESTIMENTOS E APLICAES TEMPORRIAS DE CURTO PRAZO DO RPPS - CONSOLIDAO                                                                             S05 NPP00000000000000000000
114410100000000000005001000331914077000000000000000000045599501000000000000000033647402710000000000000APLICAES EM SEGMENTO DE RENDA FIXA - RPPS - FUNDO EM CAPITALIZAO                                                                                    S06 NPP00000000000000000000
114410102000000000005001000154356451900000000000000000024834888000000000000000015683994070000000000000FUNDOS DE INVESTIMENTO QUE APLICAM EXCLUSIVAMENTE EM TTULOS DE EMISSO DO TESOURO NACIONAL OU COMPROMISSADAS LASTREADAS NESSES TTULOS                S07 NPP00000000000000000000
114410102020000000005002000057334178900000000000000000007202737000000000000000005805445260000000000000BB PREV RF IRF-M1 TP FPSM APLIC 0050 3732-X/11698-X                                                                                                 A08 SPF00000000180000000000
114410102030000000005002000029302884700000000000000000007494922000000000000000003005237690000000000000CEF FPSM FI BRASIL 2028 X TP RF APLIC 800 0521/006295-1                                                                                             A08 SPF00000000180000000000
114410102060000000005002000025618781000000000000000000005701901000000000000000002618897110000000000000BANRISUL RPPS II FI RF - NTN-B 27 FPSM APLIC 800 1064/040839800-6                                                                                   A08 SPF00000000180000000000
114410102070000000005002000042100607300000000000000000004435328000000000000000004254414010000000000000SICREDI TAXA SELIC FIC FIRF LP FPSM APLIC 800 0306/11359-8                                                                                          A08 SPF00000000180000000000
114410103000000000005001000040247408600000000000000000006096621000000000000000004085707070000000000000FUNDOS DE INVESTIMENTO EM NDICE DE MERCADO DE RENDA FIXA                                                                                            S07 NPF00000000000000000000
114410103020000000005002000040247408600000000000000000006096621000000000000000004085707070000000000000BB RF TP 2026 FPSM APLIC 800 3732-X/11698-X                                                                                                         A08 SPF00000000180000000000
114410105000000000005001000137310216500000000000000000014667992000000000000000013877701570000000000000FUNDOS DE INVESTIMENTO EM RENDA FIXA                                                                                                                S07 NPF00000000000000000000
114410105030000000005002000069542667400000000000000000007494956000000000000000007029216300000000000000CEF FI BRASIL REFERENCIADO DI LP FPSM 0050 0521/006/00000295-1                                                                                      A08 SPF00000000180000000000
114410105040000000005002000067767549100000000000000000007173036000000000000000006848485270000000000000SICREDI LIQUIDEZ EMPRESARIAL REF DI FI RF FPSM 0050 0306/11359-8                                                                                    A08 SPF00000000180000000000
114419901000000000005002000068671686400000000000000000007509515000003851158000006557147990000000000000BB PREVID RF REFERENCIADO DI LP PERFIL FPSM APLIC 0050 3732-X/11698-X                                                                               A07 SPF00000000180000000000
200000000000000000005001000000000000000000699396070004202199964000420777239600000000000000000075512039PASSIVO E PATRIMNIO LQUIDO                                                                                                                          S01 NPF00000000000000000000
210000000000000000005001000000000000000000000000000000039447989000004502042100000000000000000005572432PASSIVO CIRCULANTE                                                                                                                                  S02 NPF00000000000000000000
211000000000000000005001000000000000000000000000000000000000000000000325300700000000000000000003253007OBRIGAES TRABALHISTAS PREVIDENCIRIAS E ASSISTENCIAIS A PAGAR A CURTO PRAZO                                                                          S03 NPF00000000000000000000
211100000000000000005001000000000000000000000000000000000000000000000325300700000000000000000003253007PESSOAL A PAGAR                                                                                                                                     S04 NPF00000000000000000000
211110000000000000005001000000000000000000000000000000000000000000000325300700000000000000000003253007PESSOAL A PAGAR - CONSOLIDAO                                                                                                                        S05 NPF00000000000000000000
211110100000000000005001000000000000000000000000000000000000000000000325300700000000000000000003253007PESSOAL A PAGAR                                                                                                                                     S06 NPF00000000000000000000
211110102000000000005001000000000000000000000000000000000000000000000325300700000000000000000003253007DCIMO TERCEIRO SALRIO                                                                                                                               S07 NPP00000000000000000000
211110102010000000005001000000000000000000000000000000000000000000000325300700000000000000000003253007DCIMO TERCEIRO SALRIO P                                                                                                                             A08 SPP00000000000100000000
213000000000000000005001000000000000000000000000000000039447989000004176741400000000000000000002319425FORNECEDORES E CONTAS A PAGAR A CURTO PRAZO                                                                                                         S03 NPF00000000000000000000
213100000000000000005001000000000000000000000000000000039447989000004176741400000000000000000002319425FORNECEDORES E CONTAS A PAGAR NACIONAIS A CURTO PRAZO                                                                                               S04 NPF00000000000000000000
213110000000000000005001000000000000000000000000000000039447989000004176741400000000000000000002319425FORNECEDORES E CONTAS A PAGAR NACIONAIS A CURTO PRAZO - CONSOLIDAO                                                                                  S05 NPF00000000000000000000
213110100000000000005001000000000000000000000000000000039447989000004176741400000000000000000002319425FORNECEDORES NACIONAIS                                                                                                                              S06 NPF00000000000000000000
213110101000000000005001000000000000000000000000000000039447989000004176741400000000000000000002319425FORNECEDORES NO PARCELADOS A PAGAR                                                                                                                  S07 NPF00000000000000000000
213110101010000000005001000000000000000000000000000000000356925000004110925100000000000000000040752326FORNECEDORES DO EXERCICIO                                                                                                                           A08 SPF00000000180000000000
213110101010000000005001000000000000000000000000000000000000000000000065816300000000000000000000658163FORNECEDORES DO EXERCICIO                                                                                                                           A08 SPF00000000180200000000
213110101010000000005001000000000000000000000000000000038511580000000000000000000385115800000000000000FORNECEDORES DO EXERCICIO                                                                                                                           A08 SPF00000000280000000000
213110101010000000005001000000000000000000000000000000000579484000000000000000000005794840000000000000FORNECEDORES DO EXERCICIO                                                                                                                           A08 SPF00000000280200000000
230000000000000000005001000000000000000000699396070004162751975000416275197500000000000000000069939607PATRIMNIO LIQUIDO                                                                                                                                   S02 NPF00000000000000000000
237000000000000000005001000000000000000000699396070004162751975000416275197500000000000000000069939607RESULTADOS ACUMULADOS                                                                                                                               S03 NP 00000000000000000000
237100000000000000005001000000000000000000699396070004162751975000416275197500000000000000000069939607SUPERVITS OU DFICITS ACUMULADOS                                                                                                                     S04 NP 00000000000000000000
237110000000000000005001000571718270200000000000000003684622187000368462218700057171827020000000000000SUPERVITS OU DFICITS ACUMULADOS - CONSOLIDAO                                                                                                        S05 NP 00000000000000000000
237110100000000000005001000000000000000000000000000000000000000000032402315100000000000000000324023151SUPERVITS OU DFICITS DO EXERCCIO                                                                                                                    A06 SP 00000000000100000000
237110100000000000005001000032402315100000000000000000000000000000000000000000003240231510000000000000SUPERVITS OU DFICITS DO EXERCCIO                                                                                                                    A06 SP 00000000150100000000
237110200000000000005001000000000000000000000000000003684622187000000000000000036846221870000000000000SUPERVITS OU DFICITS DE EXERCCIOS ANTERIORES                                                                                                        A06 SP 00000000000100000000
237110200000000000005001000203256051500000000000000000000000000000000000000000020325605150000000000000SUPERVITS OU DFICITS DE EXERCCIOS ANTERIORES                                                                                                        A06 SP 00000000150100000000
237110300000000000005001000336059903600000000000000000000000000000336059903600000000000000000000000000AJUSTES DE EXERCCIOS ANTERIORES                                                                                                                     S06 NP 00000000000000000000
237110301000000000005001000000000000000000000000000000000000000000336059903600000000000000003360599036AJUSTES DE EXERCICIOS ANTERIORES - PERMANENTE                                                                                                       A07 SP 00000000000100000000
237110301000000000005001000336059903600000000000000000000000000000000000000000033605990360000000000000AJUSTES DE EXERCICIOS ANTERIORES - PERMANENTE                                                                                                       A07 SP 00000000150100000000
237120000000000000005001000000000000000059133188960000423913836000042391383600000000000000005913318896SUPERVITS OU DFICITS ACUMULADOS - INTRA OFSS                                                                                                        S05 NP 00000000000000000000
237120100000000000005001000000000000000000000000000000423913836000000000000000004239138360000000000000SUPERVITS OU DFICITS DO EXERCCIO                                                                                                                    A06 SP 00000000000100000000
237120100000000000005001000000000000000004239138360000000000000000000000000000000000000000000423913836SUPERVITS OU DFICITS DO EXERCCIO                                                                                                                    A06 SP 00000000150100000000
237120200000000000005001000000000000000000000000000000000000000000042391383600000000000000000423913836SUPERVITS OU DFICITS DE EXERCCIOS ANTERIORES                                                                                                        A06 SP 00000000000100000000
237120200000000000005001000000000000000054894050600000000000000000000000000000000000000000005489405060SUPERVITS OU DFICITS DE EXERCCIOS ANTERIORES                                                                                                        A06 SP 00000000150100000000
237130000000000000005001000011740877700000000000000000048113906000004811390600001174087770000000000000SUPERVITS OU DFICITS ACUMULADOS - INTER OFSS - UNIO                                                                                                 S05 NP 00000000000000000000
237130100000000000005001000000000000000000000000000000000000000000004811390600000000000000000048113906SUPERVITS OU DFICITS DO EXERCCIO                                                                                                                    A06 SP 00000000000100000000
237130100000000000005001000004811390600000000000000000000000000000000000000000000481139060000000000000SUPERVITS OU DFICITS DO EXERCCIO                                                                                                                    A06 SP 00000000150100000000
237130200000000000005001000000000000000000000000000000048113906000000000000000000481139060000000000000SUPERVITS OU DFICITS DE EXERCCIOS ANTERIORES                                                                                                        A06 SP 00000000000100000000
237130200000000000005001000006929487100000000000000000000000000000000000000000000692948710000000000000SUPERVITS OU DFICITS DE EXERCCIOS ANTERIORES                                                                                                        A06 SP 00000000150100000000
237140000000000000005001000000309389000000000000000000003093890000000309389000000030938900000000000000SUPERVITS OU DFICITS ACUMULADOS - INTER OFSS - ESTADO                                                                                               S05 NP 00000000000000000000
237140100000000000005001000000000000000000000000000000000000000000000309389000000000000000000003093890SUPERVITS OU DFICITS DO EXERCCIO                                                                                                                    A06 SP 00000000000100000000
237140100000000000005001000000309389000000000000000000000000000000000000000000000030938900000000000000SUPERVITS OU DFICITS DO EXERCCIO                                                                                                                    A06 SP 00000000150100000000
237140200000000000005001000000000000000000000000000000003093890000000000000000000030938900000000000000SUPERVITS OU DFICITS DE EXERCCIOS ANTERIORES                                                                                                        A06 SP 00000000000100000000
237150000000000000005001000000569392000000000000000000003008156000000300815600000056939200000000000000SUPERVITS OU DFICITS ACUMULADOS - INTER OFSS - MUNICPIO                                                                                             S05 NP 00000000000000000000
237150100000000000005001000000000000000000000000000000000000000000000300815600000000000000000003008156SUPERVITS OU DFICITS DO EXERCCIO                                                                                                                    A06 SP 00000000000100000000
237150100000000000005001000000300815600000000000000000000000000000000000000000000030081560000000000000SUPERVITS OU DFICITS DO EXERCCIO                                                                                                                    A06 SP 00000000150100000000
237150200000000000005001000000000000000000000000000000003008156000000000000000000030081560000000000000SUPERVITS OU DFICITS DE EXERCCIOS ANTERIORES                                                                                                        A06 SP 00000000000100000000
237150200000000000005001000000268576400000000000000000000000000000000000000000000026857640000000000000SUPERVITS OU DFICITS DE EXERCCIOS ANTERIORES                                                                                                        A06 SP 00000000150100000000
300000000000000000005001000000000000000000000000000000045020421000000035692500000446634960000000000000VARIAO PATRIMONIAL DIMINUTIVA                                                                                                                       S01 NP 00000000000000000000
310000000000000000005001000000000000000000000000000000005671820000000035692500000053148950000000000000PESSOAL E ENCARGOS                                                                                                                                  S02 NP 00000000000000000000
311000000000000000005001000000000000000000000000000000003253007000000000000000000032530070000000000000REMUNERAO A PESSOAL                                                                                                                                 S03 NP 00000000000000000000
311100000000000000005001000000000000000000000000000000003253007000000000000000000032530070000000000000REMUNERAO A PESSOAL ATIVO CIVIL  ABRANGIDOS PELO RPPS                                                                                               S04 NP 00000000000000000000
311110000000000000005001000000000000000000000000000000003253007000000000000000000032530070000000000000REMUNERAO A PESSOAL ATIVO CIVIL  ABRANGIDOS PELO RPPS - CONSOLIDAO                                                                                  S05 NP 00000000000000000000
311110100000000000005001000000000000000000000000000000003253007000000000000000000032530070000000000000VENCIMENTOS E VANTAGENS FIXAS - PESSOAL CIVIL - RPPS                                                                                                S06 NP 00000000000000000000
31111012200000000000500100000000000000000000000000000000325300700000000000000000003253007000000000000013 SALRIO                                                                                                                                           A07 SP 00000000000100000000
312000000000000000005001000000000000000000000000000000002418813000000035692500000020618880000000000000ENCARGOS PATRONAIS                                                                                                                                  S03 NP 00000000000000000000
312100000000000000005001000000000000000000000000000000002418813000000035692500000020618880000000000000ENCARGOS PATRONAIS - RPPS                                                                                                                           S04 NP 00000000000000000000
312120000000000000005001000000000000000000000000000000002418813000000035692500000020618880000000000000ENCARGOS PATRONAIS - RPPS - INTRA OFSS                                                                                                              S05 NP 00000000000000000000
312120100000000000005001000000000000000000000000000000002418813000000035692500000020618880000000000000CONTRIBUIO PATRONAL PARA O RPPS                                                                                                                     A06 SP 00000000000100000000
320000000000000000005001000000000000000000000000000000038511580000000000000000000385115800000000000000BENEFCIOS PREVIDENCIRIOS E ASSISTENCIAIS                                                                                                            S02 NP 00000000000000000000
321000000000000000005001000000000000000000000000000000031047654000000000000000000310476540000000000000APOSENTADORIAS E REFORMAS                                                                                                                           S03 NP 00000000000000000000
321100000000000000005001000000000000000000000000000000031047654000000000000000000310476540000000000000APOSENTADORIAS - RPPS                                                                                                                               S04 NP 00000000000000000000
321110000000000000005001000000000000000000000000000000031047654000000000000000000310476540000000000000APOSENTADORIAS - RPPS - CONSOLIDAO                                                                                                                  S05 NP 00000000000000000000
321110100000000000005001000000000000000000000000000000031047654000000000000000000310476540000000000000PROVENTOS - PESSOAL CIVIL                                                                                                                           S06 NP 00000000000000000000
321110101000000000005001000000000000000000000000000000006393434000000000000000000063934340000000000000APOSENTADORIAS POR TEMPO DE CONTRIBUIO                                                                                                              A07 SP 00000000000100000000
321110102000000000005001000000000000000000000000000000002074764000000000000000000020747640000000000000APOSENTADORIAS COMPULSRIAS                                                                                                                          A07 SP 00000000000100000000
321110103000000000005001000000000000000000000000000000004325310000000000000000000043253100000000000000APOSENTADORIAS POR INVALIDEZ                                                                                                                        A07 SP 00000000000100000000
321110107000000000005001000000000000000000000000000000016299361000000000000000000162993610000000000000APOSENTADORIAS PROFESSOR                                                                                                                            A07 SP 00000000000100000000
321110199000000000005001000000000000000000000000000000001954785000000000000000000019547850000000000000OUTRAS APOSENTADORIAS ESPECIAIS                                                                                                                     A07 SP 00000000000100000000
322000000000000000005001000000000000000000000000000000007463926000000000000000000074639260000000000000PENSES                                                                                                                                              S03 NP 00000000000000000000
322100000000000000005001000000000000000000000000000000007463926000000000000000000074639260000000000000PENSES - RPPS                                                                                                                                       S04 NP 00000000000000000000
322110000000000000005001000000000000000000000000000000007463926000000000000000000074639260000000000000PENSES - RPPS - CONSOLIDAO                                                                                                                          S05 NP 00000000000000000000
322110100000000000005001000000000000000000000000000000007463926000000000000000000074639260000000000000PROVENTOS DE PENSES                                                                                                                                 A06 SP 00000000000100000000
330000000000000000005001000000000000000000000000000000000658163000000000000000000006581630000000000000USO DE BENS SERVIOS E CONSUMO DE CAPITAL FIXO                                                                                                       S02 NP 00000000000000000000
332000000000000000005001000000000000000000000000000000000658163000000000000000000006581630000000000000SERVIOS                                                                                                                                             S03 NP 00000000000000000000
332200000000000000005001000000000000000000000000000000000658163000000000000000000006581630000000000000SERVIOS TERCEIROS - PF                                                                                                                              S04 NP 00000000000000000000
332210000000000000005001000000000000000000000000000000000658163000000000000000000006581630000000000000SERVIOS TERCEIROS - PF - CONSOLIDAO                                                                                                                 S05 NP 00000000000000000000
332210100000000000005001000000000000000000000000000000000078679000000000000000000000786790000000000000CONSULTORIA E ASSESSORIA                                                                                                                            A06 SP 00000000000100000000
332213100000000000005001000000000000000000000000000000000579484000000000000000000005794840000000000000JETONS E GRATIFICAES A CONSELHEIROS                                                                                                                 A06 SP 00000000000100000000
390000000000000000005001000000000000000000000000000000000178858000000000000000000001788580000000000000OUTRAS VARIAES PATRIMONIAIS DIMINUTIVAS                                                                                                             S02 NP 00000000000000000000
399000000000000000005001000000000000000000000000000000000178858000000000000000000001788580000000000000DIVERSAS VARIAES PATRIMONIAIS DIMINUTIVAS                                                                                                           S03 NP 00000000000000000000
399700000000000000005001000000000000000000000000000000000178858000000000000000000001788580000000000000COMPENSAES AO RGPS                                                                                                                                  S04 NP 00000000000000000000
399740000000000000005001000000000000000000000000000000000092938000000000000000000000929380000000000000COMPENSAES AO RPPS - INTER OFSS - ESTADO                                                                                                            A05 SP 00000000000100000000
399750000000000000005001000000000000000000000000000000000085920000000000000000000000859200000000000000COMPENSAES AO RPPS - INTER OFSS - MUNICPIO                                                                                                          A05 SP 00000000000100000000
400000000000000000005001000000000000000000000000000000014188369000011582322000000000000000000101634851VARIAO PATRIMONIAL AUMENTATIVA                                                                                                                      S01 NP 00000000000000000000
420000000000000000005001000000000000000000000000000000014188369000006142548100000000000000000047237112CONTRIBUIES                                                                                                                                         S02 NP 00000000000000000000
421000000000000000005001000000000000000000000000000000014188369000006142548100000000000000000047237112CONTRIBUIES SOCIAIS                                                                                                                                 S03 NP 00000000000000000000
421100000000000000005001000000000000000000000000000000014188369000006142548100000000000000000047237112CONTRIBUIES SOCIAIS - RPPS E MILITARES                                                                                                              S04 NP 00000000000000000000
421110000000000000005001000000000000000000000000000000014188369000002837673800000000000000000014188369CONTRIBUIES SOCIAIS - RPPS E MILITARES - CONSOLIDAO                                                                                                 S05 NP 00000000000000000000
421110200000000000005001000000000000000000000000000000014188369000002837673800000000000000000014188369CONTRIBUIO DO SEGURADO AO RPPS                                                                                                                      S06 NP 00000000000000000000
421110201000000000005001000000000000000000000000000000014188369000002837673800000000000000000014188369CONTRIBUIO DO SERVIDOR - RPPS                                                                                                                       A07 SP 00000000000100000000
421120000000000000005001000000000000000000000000000000000000000000003304874300000000000000000033048743CONTRIBUIES SOCIAIS - RPPS E MILITARES - INTRA OFSS                                                                                                 S05 NP 00000000000000000000
421120100000000000005001000000000000000000000000000000000000000000001621526800000000000000000016215268CONTRIBUIES PATRONAIS AO RPPS                                                                                                                       S06 NP 00000000000000000000
421120101000000000005001000000000000000000000000000000000000000000001520360700000000000000000015203607CONTRIBUIO PATRONAL DE SERVIDOR ATIVO - RPPS                                                                                                        A07 SP 00000000000100000000
421120199000000000005001000000000000000000000000000000000000000000000101166100000000000000000001011661OUTRAS CONTRIBUIES PATRONAIS AO RPPS                                                                                                                A07 SP 00000000000100000000
421120300000000000005001000000000000000000000000000000000000000000001683347500000000000000000016833475CONTRIBUIO PREVIDENCIRIA PARA AMORTIZAO DO DFICIT ATUARIAL                                                                                          A06 SP 00000000000100000000
440000000000000000005001000000000000000000000000000000000000000000005439773900000000000000000054397739VARIAES PATRIMONIAIS AUMENTATIVAS FINANCEIRAS                                                                                                       S02 NP 00000000000000000000
442000000000000000005001000000000000000000000000000000000000000000000092238000000000000000000000922380JUROS E ENCARGOS DE MORA                                                                                                                            S03 NP 00000000000000000000
442500000000000000005001000000000000000000000000000000000000000000000092238000000000000000000000922380JUROS E ENCARGOS DE MORA SOBRE CRDITOS PREVIDENCIRIOS                                                                                               S04 NP 00000000000000000000
442520000000000000005001000000000000000000000000000000000000000000000092238000000000000000000000922380JUROS E ENCARGOS DE MORA SOBRE CRDITOS PREVIDENCIRIOS  INTRA OFSS                                                                                   S05 NP 00000000000000000000
442520100000000000005001000000000000000000000000000000000000000000000092238000000000000000000000922380MULTAS E JUROS SOBRE CONTRIBUIES PREVIDENCIRIAS  INTRA OFSS                                                                                         S06 NP 00000000000000000000
442520199000000000005001000000000000000000000000000000000000000000000092238000000000000000000000922380DEMAIS MULTAS E JUROS SOBRE CONTRIBUIES PREVIDENCIRIAS                                                                                              A07 SP 00000000000100000000
445000000000000000005001000000000000000000000000000000000000000000005347535900000000000000000053475359REMUNERAO DE DEPSITOS BANCRIOS E APLICAES FINANCEIRAS                                                                                               S03 NP 00000000000000000000
445100000000000000005001000000000000000000000000000000000000000000005347535900000000000000000053475359REMUNERAO DE DEPSITOS BANCRIOS                                                                                                                      S04 NP 00000000000000000000
445110000000000000005001000000000000000000000000000000000000000000005347535900000000000000000053475359REMUNERAO DE DEPSITOS BANCRIOS - CONSOLIDAO                                                                                                         S05 NP 00000000000000000000
445110300000000000005001000000000000000000000000000000000000000000005347535900000000000000000053475359REMUNERAO DOS INVESTIMENTOS DO REGIME PRPRIO DE PREVIDNCIA SOCIAL                                                                                   A06 SP 00000000000100000000
500000000000000000005001000000112500000000000000000001925461951000000148192500019251050260000000000000CONTROLES DA APROVAO DO PLANEJAMENTO E ORAMENTO                                                                                                     S01 NO 00000000000000000000
520000000000000000005001000000000000000000000000000001924336951000000035692500019239800260000000000000ORAMENTO APROVADO                                                                                                                                   S02 NO 00000000000000000000
521000000000000000005001000000000000000000000000000000931440000000000000000000009314400000000000000000PREVISO DA RECEITA                                                                                                                                  S03 NO 00000000000000000000
521100000000000000005001000000000000000000000000000000931440000000000000000000009314400000000000000000PREVISO INICIAL DA RECEITA                                                                                                                          S04 NO 00000000000000000000
521110000000000000005001000000000000000000000000000000931440000000000000000000009314400000000000000000PREVISAO INICIAL DA RECEITA  BRUTA                                                                                                                  A05 SO 00000000000100000000
522000000000000000005001000000000000000000000000000000992896951000000035692500009925400260000000000000FIXAO DA DESPESA                                                                                                                                    S03 NO 00000000000000000000
522100000000000000005001000000000000000000000000000000931440000000000000000000009314400000000000000000DOTAO ORAMENTRIA                                                                                                                                    S04 NO 00000000000000000000
522110000000000000005001000000000000000000000000000000931440000000000000000000009314400000000000000000DOTAO INICIAL                                                                                                                                       S05 NO 00000000000000000000
522110100000000000005001000000000000000000000000000000931440000000000000000000009314400000000000000000CREDITO INICIAL                                                                                                                                     A06 SO 00000000000100000000
522900000000000000005001000000000000000000000000000000061456951000000035692500000611000260000000000000OUTROS CONTROLES DA DESPESA ORAMENTRIA                                                                                                              S04 NO 00000000000000000000
522920000000000000005001000000000000000000000000000000061456951000000035692500000611000260000000000000EMPENHOS POR EMISSO                                                                                                                                 S05 NO 00000000000000000000
522920100000000000005001000000000000000000000000000000061456951000000035692500000611000260000000000000EXECUO DA DESPESA POR NOTA DE EMPENHO                                                                                                               S06 NO 00000000000000000000
522920101000000000005001000000000000000000000000000000061456951000000035692500000611000260000000000000EMISSAO DE EMPENHOS                                                                                                                                 A07 SO 00000000000100000000
530000000000000000005001000000112500000000000000000000001125000000000112500000000011250000000000000000INSCRIO DE RESTOS A PAGAR                                                                                                                           S02 NO 00000000000000000000
531000000000000000005001000000112500000000000000000000001125000000000112500000000011250000000000000000INSCRIO DE RP NO PROCESSADOS                                                                                                                        S03 NO 00000000000000000000
531100000000000000005001000000000000000000000000000000001125000000000000000000000011250000000000000000RP NO PROCESSADOS INSCRITOS                                                                                                                         A04 SO 00000000000100000000
531700000000000000005001000000000000000000000000000000000000000000000112500000000000000000000001125000RP NO PROCESSADOS - INSCRIO NO EXERCCIO                                                                                                             A04 SO 00000000000100000000
531700000000000000005001000000112500000000000000000000000000000000000000000000000011250000000000000000RP NO PROCESSADOS - INSCRIO NO EXERCCIO                                                                                                             A04 SO 00000000150100000000
600000000000000000005001000000000000000000011250000000279201966000220318199200000000000000001925105026CONTROLES DA EXECUO DO PLANEJAMENTO E ORAMENTO                                                                                                      S01 NO 00000000000000000000
620000000000000000005001000000000000000000000000000000278076966000220205699200000000000000001923980026EXECUO DO ORAMENTO                                                                                                                                  S02 NO 00000000000000000000
621000000000000000005001000000000000000000000000000000053475359000098491535900000000000000000931440000EXECUO DA RECEITA                                                                                                                                   S03 NO 00000000000000000000
621100000000000000005001000000000000000000000000000000053475359000093144000000000000000000000877964641RECEITA A REALIZAR                                                                                                                                  A04 SO 00000000000100000000
621200000000000000005001000000000000000000000000000000000000000000005347535900000000000000000053475359RECEITA REALIZADA                                                                                                                                   A04 SO 00000000000100000000
622000000000000000005001000000000000000000000000000000224601607000121714163300000000000000000992540026EXECUO DA DESPESA                                                                                                                                   S03 NO 00000000000000000000
622100000000000000005001000000000000000000000000000000143029279000107446927900000000000000000931440000DISPONIBILIDADES DE CREDITO                                                                                                                         S04 NO 00000000000000000000
622110000000000000005001000000000000000000000000000000061456951000093179692500000000000000000870339974CREDITO DISPONVEL                                                                                                                                   A05 SO 00000000000100000000
622130000000000000005001000000000000000000000000000000081572328000014267235400000000000000000061100026CREDITO UTILIZADO                                                                                                                                   S05 NO 00000000000000000000
622130100000000000005001000000000000000000000000000000041466176000005946231800000000000000000017996142CREDITO EMPENHADO A LIQUIDAR                                                                                                                        A06 SO 00000000180000000000
622130100000000000005001000000000000000000000000000000000658163000000235155800000000000000000001693395CREDITO EMPENHADO A LIQUIDAR                                                                                                                        A06 SO 00000000180200000000
622130300000000000005001000000000000000000000000000000039447989000004176741400000000000000000002319425CREDITO EMPENHADO LIQUIDADO A PAGAR                                                                                                                 A06 SO 00000000000100000000
622130400000000000005001000000000000000000000000000000000000000000003909106400000000000000000039091064CREDITO EMPENHADO LIQUIDADO PAGO                                                                                                                    A06 SO 00000000000100000000
622900000000000000005001000000000000000000000000000000081572328000014267235400000000000000000061100026OUTROS CONTROLES DA DESPESA ORAMENTRIA                                                                                                              S04 NO 00000000000000000000
622920000000000000005001000000000000000000000000000000081572328000014267235400000000000000000061100026EMISSO DE EMPENHO                                                                                                                                   S05 NO 00000000000000000000
622920100000000000005001000000000000000000000000000000081572328000014267235400000000000000000061100026EMPENHOS POR NOTA DE EMPENHO                                                                                                                        S06 NO 00000000000000000000
622920101000000000005001000000000000000000000000000000042124339000006181387600000000000000000019689537EMPENHOS A LIQUIDAR                                                                                                                                 A07 SO 00000000000100000000
622920103000000000005001000000000000000000000000000000039447989000004176741400000000000000000002319425EMPENHOS LIQUIDADOS A PAGAR                                                                                                                         A07 SO 00000000000100000000
622920104000000000005001000000000000000000000000000000000000000000003909106400000000000000000039091064EMPENHOS LIQUIDADOS PAGOS                                                                                                                           A07 SO 00000000000100000000
630000000000000000005001000000000000000000011250000000001125000000000112500000000000000000000001125000EXECUO DE RESTOS A PAGAR                                                                                                                            S02 NO 00000000000000000000
631000000000000000005001000000000000000000011250000000001125000000000112500000000000000000000001125000EXECUO DE RP NO PROCESSADOS                                                                                                                         S03 NO 00000000000000000000
631100000000000000005001000000000000000000000000000000000000000000000112500000000000000000000001125000RP NO PROCESSADOS A LIQUIDAR                                                                                                                        A04 SO 00000000180200000000
631700000000000000005001000000000000000000011250000000001125000000000000000000000000000000000000000000RP NO PROCESSADOS - INSCRIO NO EXERCCIO                                                                                                             S04 NO 00000000000000000000
631710000000000000005001000000000000000000011250000000001125000000000000000000000000000000000000000000RP NO PROCESSADOS A LIQUIDAR - INSCRIO NO EXERCCIO                                                                                                  A05 SO 00000000180200000000
700000000000000000005001000404885886100000000000000000053475359000000640517800040959290420000000000000CONTROLES DEVEDORES                                                                                                                                 S01 NC 00000000000000000000
710000000000000000005001000000957142800000000000000000000000000000000640517800000031662500000000000000ATOS POTENCIAIS                                                                                                                                     S02 NC 00000000000000000000
712000000000000000005001000000957142800000000000000000000000000000000640517800000031662500000000000000ATOS POTENCIAIS PASSIVOS                                                                                                                            S03 NC 00000000000000000000
712300000000000000005001000000957142800000000000000000000000000000000640517800000031662500000000000000OBRIGAES CONTRATUAIS                                                                                                                                S04 NC 00000000000000000000
712310000000000000005001000000957142800000000000000000000000000000000640517800000031662500000000000000OBRIGAES CONTRATUAIS - CONSOLIDAO                                                                                                                   S05 NC 00000000000000000000
712310200000000000005001000000000000000000000000000000000000000000000640517800000000000000000006405178CONTRATOS DE SERVIOS                                                                                                                                A06 SC 00000000000100000000
712310200000000000005001000000957142800000000000000000000000000000000000000000000095714280000000000000CONTRATOS DE SERVIOS                                                                                                                                A06 SC 00000000150100000000
720000000000000000005001000403928743300000000000000000053475359000000000000000040927627920000000000000ADMINISTRAO FINANCEIRA                                                                                                                              S02 NC 00000000000000000000
721000000000000000005001000403928743300000000000000000053475359000000000000000040927627920000000000000DISPONIBILIDADES POR DESTINAO                                                                                                                       S03 NC 00000000000000000000
721100000000000000005001000403928743300000000000000000053475359000000000000000040927627920000000000000CONTROLE DA DISPONIBILIDADE DE RECURSOS                                                                                                             S04 NC 00000000000000000000
721120000000000000005001000403928743300000000000000000053475359000000000000000040927627920000000000000RECURSOS VINCULADOS                                                                                                                                 S05 NC 00000000000000000000
721120800000000000005001000400585763400000000000000000053109016000000000000000040589666500000000000000DDR RECURSO VINCULADOS - RECURSOS VINCULADOS AO RPPS - FUNDO EM CAPITALIZAO PLANO PREVIDENCIRIO                                                     A06 SC 00000000180000000000
721120802000000000005001000003342979900000000000000000000366343000000000000000000337961420000000000000DDR RECURSO VINCULADOS - RECURSOS VINCULADOS AO RPPS - TAXA DE ADMINISTRAO                                                                          A07 SC 00000000180200000000
800000000000000000005001000000000000000040488588610004187574569000423464475000000000000000004095929042CONTROLES CREDORES                                                                                                                                  S01 NC 00000000000000000000
810000000000000000005001000000000000000000095714280000006483857000000007867900000000000000000003166250EXECUO DOS ATOS POTENCIAIS                                                                                                                          S02 NC 00000000000000000000
812000000000000000005001000000000000000000095714280000006483857000000007867900000000000000000003166250EXECUO DOS ATOS POTENCIAIS PASSIVOS                                                                                                                 S03 NC 00000000000000000000
812300000000000000005001000000000000000000095714280000006483857000000007867900000000000000000003166250EXECUO DE OBRIGAES CONTRATUAIS                                                                                                                      S04 NC 00000000000000000000
812310000000000000005001000000000000000000095714280000006483857000000007867900000000000000000003166250EXECUO DE OBRIGAES -CONSOLIDAO                                                                                                                      S05 NC 00000000000000000000
812310200000000000005001000000000000000000095714280000006483857000000007867900000000000000000003166250CONTRATOS DE SERVIOS                                                                                                                                S06 NC 00000000000000000000
812310201000000000005001000000000000000000000000000000000078679000000000000000000000786790000000000000A EXECUTAR                                                                                                                                          A07 SC 00000000000100000000
812310201000000000005001000000000000000000031662500000000000000000000000000000000000000000000003166250A EXECUTAR                                                                                                                                          A07 SC 00000000150100000000
812310202000000000005001000000000000000000000000000000006405178000000007867900000063264990000000000000EXECUTADOS                                                                                                                                          A07 SC 00000000000100000000
812310202000000000005001000000000000000000064051780000000000000000000000000000000000000000000006405178EXECUTADOS                                                                                                                                          A07 SC 00000000150100000000
820000000000000000005001000000000000000040392874330004181090712000423456607100000000000000004092762792EXECUO DA ADMINISTRAO FINANCEIRA                                                                                                                    S02 NC 00000000000000000000
821000000000000000005001000000000000000040392874330004181090712000423456607100000000000000004092762792EXECUO DAS DISPONIBILIDADES POR DESTINAO                                                                                                            S03 NC 00000000000000000000
821100000000000000005001000000000000000040392874330004181090712000423456607100000000000000004092762792EXECUO DA DISPONIBILIDADE DE RECURSOS                                                                                                               S04 NC 00000000000000000000
821110000000000000005001000000000000000040380614330004099518384000409189371700000000000000004030436766DISPONIBILIDADE POR DESTINAO DE RECURSOS                                                                                                            S05 NC 00000000000000000000
821110100000000000005001000000000000000040380614330004099518384000005383228400000076246670000000000000RECURSOS DISPONVEIS PARA O EXERCCIO                                                                                                                 S06 NC 00000000000000000000
821110108000000000005001000000000000000040057566340004064862027000005346594100000056394520000000000000DDR DISPONVEIS PARA O EXERCCIO - RECURSOS VINCULADOS AO RPPS - FUNDO EM CAPITALIZAO PLANO PREVIDENCIRIO                                             A07 SC 00000000180000000000
821110108020000000005001000000000000000000323047990000034656357000000036634300000019852150000000000000DDR DISPONVEIS PARA O EXERCCIO - RECURSOS VINCULADOS AO RPPS - TAXA DE ADMINISTRAO                                                                  A08 SC 00000000180200000000
821110200000000000005001000000000000000000000000000000000000000000403806143300000000000000004038061433RECURSOS DE EXERCCIOS ANTERIORES                                                                                                                    S06 NC 00000000000000000000
821110208000000000005001000000000000000000000000000000000000000000400575663400000000000000004005756634DDR DISPONVEIS PARA O EXERCCIO - RECURSOS VINCULADOS AO RPPS - FUNDO EM CAPITALIZAO PLANO PREVIDENCIRIO - SUPERAVIT                                 A07 SC 00000000180000000000
821110208020000000005001000000000000000000000000000000000000000000003230479900000000000000000032304799DDR DISPONVEIS PARA O EXERCCIO - RECURSOS VINCULADOS AO RPPS - TAXA DE ADMINISTRAO - SUPERAVIT                                                      A08 SC 00000000180200000000
821120000000000000005001000000000000000000011250000000042124339000006181387600000000000000000020814537DISPONIBILIDADE POR DESTINAO DE RECURSOS COMPROMETIDA POR EMPENHO                                                                                   S05 NC 00000000000000000000
821120108000000000005001000000000000000000000000000000041466176000005946231800000000000000000017996142DDR COMPROMETIDA POR EMPENHO - RECURSOS VINCULADOS AO RPPS - FUNDO EM CAPITALIZAO PLANO PREVIDENCIRIO                                               A07 SC 00000000180000000000
821120108020000000005001000000000000000000011250000000000658163000000235155800000000000000000002818395DDR COMPROMETIDA POR EMPENHO - RECURSOS VINCULADOS AO RPPS - TAXA DE ADMINISTRAO                                                                    A08 SC 00000000180200000000
821130000000000000005001000000000000000000001010000000039447989000004176741400000000000000000002420425DISPONIBILIDADE POR DESTINAO DE RECURSOS COMPROMETIDA POR LIQUIDAO E ENTRADAS COMPENSATRIAS                                                         S05 NC 00000000000000000000
821130100000000000005001000000000000000000001010000000039447989000004176741400000000000000000002420425COMPROMETIDA POR LIQUIDAO                                                                                                                           S06 NC 00000000000000000000
821130100500800000005001000000000000000000001010000000000000000000000000000000000000000000000000101000DDR COMPROMETIDA POR LIQUIDAO - RPPS                                                                                                                A09 SC 00000000180000000000
821130108000000000005001000000000000000000000000000000038868505000004110925100000000000000000002240746DDR COMPROMETIDA POR LIQUIDAO - RECURSOS VINCULADOS AO RPPS - FUNDO EM CAPITALIZAO PLANO PREVIDENCIRIO                                              A07 SC 00000000180000000000
821130108020000000005001000000000000000000000000000000000579484000000065816300000000000000000000078679DDR COMPROMETIDA POR LIQUIDAO - RECURSOS VINCULADOS AO RPPS - TAXA DE ADMINISTRAO                                                                   A08 SC 00000000180200000000
821140000000000000005001000000000000000000000000000000000000000000003909106400000000000000000039091064DISPONIBILIDADE POR DESTINAO DE RECURSOS UTILIZADA                                                                                                  S05 NC 00000000000000000000
821140100000000000005001000000000000000000000000000000000000000000003909106400000000000000000039091064UTILIZADA COM EXECUO ORAMENTRIA                                                                                                                     S06 NC 00000000000000000000
821140108000000000005001000000000000000000000000000000000000000000003851158000000000000000000038511580DDR UTILIZADA COM EXECUO ORAMENTRIA - RECURSOS VINCULADOS AO RPPS - FUNDO EM CAPITALIZAO PLANO PREVIDENCIRIO                                        A07 SC 00000000180000000000
821140108020000000005001000000000000000000000000000000000000000000000057948400000000000000000000579484DDR UTILIZADA COM EXECUO ORAMENTRIA - RECURSOS VINCULADOS AO RPPS - TAXA DE ADMINISTRAO                                                             A08 SC 00000000180200000000
FINALIZADOR0000000230