12091144000180010120253101202501022025FUNDO DE PREVIDENCIA SOCIAL RPPS                                                
100000000000000000000201000044375500000004863958480000RECEITAS CORRENTES                                                                                                                                                        S01000000000000000
120000000000000000000201000015190500000001631923650000CONTRIBUIES                                                                                                                                                               S02000000000000000
121000000000000000000201000015190500000001631923650000CONTRIBUIES SOCIAIS                                                                                                                                                       S03000000000000000
121500000000000000000201000015190500000001631923650000CONTRIBUIES PARA  REGIMES PRPRIOS DE PREVIDNCIA E SISTEMA DE PROTEO SOCIAL                                                                                                S04000000000000000
121501000000000000000201000015190500000001631923650000CONTRIBUIO DO SERVIDOR CIVIL                                                                                                                                              S05000000000000000
121501100000000000000201000014950000000001582861720000CONTRIBUIO DO SERVIDOR CIVIL ATIVO                                                                                                                                        S06000000000000000
121501110000000000005001000014950000000001582861720000CONTRIBUIO DO SERVIDOR CIVIL ATIVO - PRINCIPAL                                                                                                                            A06000000008000000
121501200000000000000201000000175500000000039572370000CONTRIBUIO DO SERVIDOR CIVIL INATIVO                                                                                                                                      S06000000000000000
121501210000000000005001000000175500000000039572370000CONTRIBUIO DO SERVIDOR CIVIL INATIVO - PRINCIPAL                                                                                                                          A06000000008000000
121501300000000000000201000000065000000000009489560000CONTRIBUIO DO SERVIDOR CIVIL - PENSIONISTAS                                                                                                                               S06000000000000000
121501310000000000005001000000065000000000009489560000CONTRIBUIO DO SERVIDOR CIVIL - PENSIONISTAS - PRINCIPAL                                                                                                                   A06000000008000000
130000000000000000000201000029185000000003085281470000RECEITA PATRIMONIAL                                                                                                                                                       S02000000000000000
132000000000000000000201000029185000000003085281470000VALORES MOBILIRIOS                                                                                                                                                        S03000000000000000
132100000000000000000201000029185000000003085281470000JUROS E CORREES MONETRIAS                                                                                                                                                 S04000000000000000
132101000000000000000201000000000000000000021959820000REMUNERAO DE DEPSITOS BANCRIOS                                                                                                                                            S05000000000000000
132101010000000000000201000000000000000000021959820000REMUNERAO DE DEPSITOS BANCRIOS - PRINCIPAL                                                                                                                                S06000000000000000
132101011500000000005001000000000000000000021959820000FPSM SICREDI TAXA SELIC FIC FIRF LP                                                                                                                                       A07000000008000000
132104000000000000000201000029185000000003063321650000REMUNERAO DOS RECURSOS DO REGIME PRPRIO DE PREVIDNCIA SOCIAL - RPPS                                                                                                       S05000000000000000
132104010000000000000201000029185000000003063321650000REMUNERAO DOS RECURSOS DO REGIME PRPRIO DE PREVIDNCIA SOCIAL - RPPS                                                                                                       S06000000000000000
132104010100000000005001000002320000000000198397090000FPSM CEF CAIXA BRASIL 2024 III TP RF                                                                                                                                      A07000000008000000
132104010200000000005001000004150000000000240483870000FPSM BB PREV RF IRF-M 1 TP                                                                                                                                                A07000000008000000
132104010300000000005001000000020000000000000000000000FPSM CAIXA FI BRASIL IDKA IPCA 2A TP RF LP                                                                                                                                A07000000008000000
132104010400000000005001000001400000000000186995920000FPSM SICREDI  FI INSTITUCIONAL RF IRF-M LP                                                                                                                                A07000000008000000
132104010500000000005001000000560000000000000000000000FPSM SICREDI FIC INSTITUCIONAL RF IMA-B                                                                                                                                   A07000000008000000
132104010600000000005001000003700000000000325911230000FPSM BB PREVID RF IMA-B 5 LP                                                                                                                                              A07000000008000000
132104010700000000005001000003520000000000304130460000FPSM BB PREV RF IDKA2 TP                                                                                                                                                  A07000000008000000
132104010800000000005001000003300000000000220603890000FPSM BB PREVID RF REFERENCIADO DI LP PERFIL                                                                                                                               A07000000008000000
132104010900000000005001000000500000000000027106400000REND TX ADM RPPS FPSM MOV 0050 3732-X/12116-9                                                                                                                             A07000000008020000
132104011000000000005001000005550000000000608249740000REND CEF FI BRASIL REFERENCIADO DI LP FPSM 0050 0521/006/00000295-1                                                                                                       A07000000008000000
132104011100000000005001000004165000000000665007830000FPSM SICREDI LIQUIDEZ EMPRESARIAL REF DI FI RF                                                                                                                            A07000000008000000
132104011200000000005001000000000000000000070395990000CEF FPSM FI BRASIL 2028 X TP RF                                                                                                                                           A07000000008000000
132104011300000000005001000000000000000000073617310000BANRISUL RPPS II FI RF - NTN-B 27                                                                                                                                         A07000000008000000
132104011400000000005001000000000000000000142421920000REND BB RF TP 2026 FPSM                                                                                                                                                   A07000000008000000
190000000000000000000201000000000000000000146753360000OUTRAS RECEITAS CORRENTES                                                                                                                                                 S02000000000000000
199000000000000000000201000000000000000000146753360000DEMAIS RECEITAS CORRENTES                                                                                                                                                 S03000000000000000
199900000000000000000201000000000000000000146753360000OUTRAS RECEITAS CORRENTES                                                                                                                                                 S04000000000000000
199903000000000000000201000000000000000000146753360000COMPENSAES FINANCEIRAS ENTRE OS REGIMES DE PREVIDNCIA                                                                                                                     S05000000000000000
199903010000000000000201000000000000000000146753360000COMPENSAES FINANCEIRAS ENTRE OS REGIMES DE PREVIDNCIA - PRINCIPAL                                                                                                         S06000000000000000
199903010100000000005001000000000000000000001060860000COMPENSAO PREVIDENCIRIA RECEBIDO DO RPPS DE TRS DE MAIO RS                                                                                                                A07000000008000000
199903010200000000005001000000000000000000145692500000COMPENSAO PREVIDENCIRIA RECEBIDA DO RGPS INSS                                                                                                                             A07000000008000000
700000000000000000000201000044703000000004639245470000RECEITAS CORRENTES INTRAORAMENTRIAS                                                                                                                                       S01000000000000000
720000000000000000000201000042563000000004639245470000CONTRIBUIES                                                                                                                                                               S02000000000000000
721000000000000000000201000042563000000004639245470000CONTRIBUIES SOCIAIS                                                                                                                                                       S03000000000000000
721500000000000000000201000042563000000004639245470000CONTRIBUIES PARA  REGIMES PRPRIOS DE PREVIDNCIA E SISTEMA DE PROTEO SOCIAL                                                                                                S04000000000000000
721502000000000000000201000040453000000004327975580000CONTRIBUIO PATRONAL - SERVIDOR CIVIL                                                                                                                                      S05000000000000000
721502100000000000000201000040453000000004327975580000CONTRIBUIO PATRONAL - SERVIDOR CIVIL ATIVO                                                                                                                                S06000000000000000
721502110000000000000201000040453000000004327975580000CONTRIBUIO PATRONAL - SERVIDOR CIVIL ATIVO - PRINCIPAL                                                                                                                    S06000000000000000
721502110100000000005001000014783000000001497461520000CONTRIBUIO PATRONAL - SERVIDOR CIVIL ATIVO - NORMAL - PRINCIPAL                                                                                                           A07000000008000000
721502110200000000005001000025670000000002519550600000CONTRIBUIO PATRONAL - SERVIDOR CIVIL ATIVO - ALIQUOTA SUPLEMENTAR - PRINCIPAL                                                                                             A07000000008000000
721502110300000000005001000000000000000000310963460000CONTRIBUIO PATRONAL - SERVIDOR CIVIL ATIVO - TAXA DE ADMINISTRAO - PRINCIPAL                                                                                              A07000000008020000
721550000000000000000201000000190000000000126791850000CONTRIBUIO PATRONAL - SERVIDOR CIVIL INATIVO E PENSIONISTAS                                                                                                               S05000000000000000
721550100000000000000201000000110000000000102368010000CONTRIBUIO PATRONAL - SERVIDOR CIVIL - INATIVO                                                                                                                            S06000000000000000
721550110000000000005001000000110000000000045225590000CONTRIBUIO PATRONAL - SERVIDOR CIVIL - INATIVO                                                                                                                            A06000000008000000
721550120000000000005001000000000000000000057142420000CONTRIBUIO PATRONAL - SERVIDOR CIVIL - INATIVOS -ALIQUOTA SUPLEMENTAR - PRINCIPAL                                                                                         A06000000008000000
721550200000000000000201000000080000000000024423840000CONTRIBUIO PATRONAL - SERVIDOR CIVIL - PENSIONISTAS                                                                                                                       S06000000000000000
721550210000000000005001000000080000000000010845230000CONTRIBUIO PATRONAL - SERVIDOR CIVIL - PENSIONISTAS                                                                                                                       A06000000008000000
721550220000000000005001000000000000000000013578610000CONTRIBUIO PATRONAL - SERVIDOR CIVIL - PENSIONISTAS -ALIQUOTA SUPLEMENTAR - PRINCIPAL                                                                                     A06000000008000000
721551000000000000000201000001920000000000184478040000CONTRIBUIO PATRONAL - PARCELAMENTOS                                                                                                                                       S05000000000000000
721551100000000000000201000001920000000000184478040000CONTRIBUIO PATRONAL - SERVIDOR CIVIL ATIVO - PARCELAMENTOS                                                                                                                S06000000000000000
721551110000000000005001000001920000000000184478040000CONTRIBUIO PATRONAL - SERVIDOR CIVIL ATIVO - PARCELAMENTOS                                                                                                                A06000000008000000
760000000000000000000201000002140000000000000000000000RECEITA DE SERVIOS                                                                                                                                                        S02000000000000000
761000000000000000000201000002140000000000000000000000SERVIOS ADMINISTRATIVOS E COMERCIAIS GERAIS                                                                                                                               S03000000000000000
761100000000000000000201000002140000000000000000000000SERVIOS ADMINISTRATIVOS E COMERCIAIS GERAIS                                                                                                                               S04000000000000000
761150000000000000005001000002140000000000000000000000SERVIOS DE ADMINISTRAO PREVIDENCIRIA                                                                                                                                      S05000000000000000
761150900000000000005001000002140000000000000000000000OUTROS SERVIOS DE ADMINISTRAO PREVIDENCIRIA                                                                                                                               S06000000000000000
761150910000000000005001000002140000000000000000000000OUTROS SERVIOS DE ADMINISTRAO PREVIDENCIRIA - PRINCIPAL                                                                                                                   A06000000008020000
9000000000000000000002010000000000000-0000176851800000R  DEDUES DA RECEITA                                                                                                                                                      S01000000000000000
9100000000000000000002010000000000000-0000176851800000RECEITAS CORRENTES                                                                                                                                                        S02000000000000000
9130000000000000000002010000000000000-0000176851800000RRECEITA PATRIMONIAL                                                                                                                                                      S03000000000000000
9132000000000000000002010000000000000-0000176851800000RVALORES MOBILIRIOS                                                                                                                                                       S04000000000000000
9132100000000000000002010000000000000-0000176851800000RJUROS E CORREES MONETRIAS                                                                                                                                                S05000000000000000
9132104000000000000002010000000000000-0000176851800000RREMUNERAO DOS RECURSOS DO REGIME PRPRIO DE PREVIDNCIA SOCIAL - RPPS                                                                                                      S06000000000000000
9132104010000000000002010000000000000-0000176851800000RREMUNERAO DOS RECURSOS DO REGIME PRPRIO DE PREVIDNCIA SOCIAL - RPPS                                                                                                      S07000000000000000
9132104010400000000050010000000000000-0000084850400000RFPSM SICREDI  FI INSTITUCIONAL RF IRF-M LP                                                                                                                               A08109000008000000
9132104010600000000050010000000000000-0000016241680000RFPSM BB PREVID RF IMA-B 5 LP                                                                                                                                             A08109000008000000
9132104010700000000050010000000000000-0000012353130000RFPSM BB PREV RF IDKA2 TP                                                                                                                                                 A08109000008000000
9132104011200000000050010000000000000-0000051667380000RCEF FPSM FI BRASIL 2028 X TP RF                                                                                                                                          A08109000008000000
9132104011300000000050010000000000000-0000011739210000RBANRISUL RPPS II FI RF - NTN-B 27                                                                                                                                        A08109000008000000
FINALIZADOR0000000078