12091144000180010120253101202501022025FUNDO DE PREVIDENCIA SOCIAL RPPS                                                
5001091220001000020663190117399010000000000004856640000048566400000485664000006720800000128774200000981139000004856640000048566400000485664000006720800000128774200000981139000004856640000048566400000485664000006720800000128774200000981139000008020000
5001091220001000020663191130800000000000000002690510000000000000000000000000000000000000000000000000000000000002690510000000000000000000000000000000000000000000000000000000000002690510000000000000000000000000000000000000000000000000000000000008020000
5001091220001000020663191131001000000000000000000000000043417000000452893000004341660000043416400002315619000000000000000043417000000452893000004341660000043416400002315619000000000000000021708500000452894000004341680000043416400002532701000008020000
5001091220001000020663191131002000000000000000000000000010393800000103938000001039380000010393800000582213000000000000000010393800000103938000001039380000010393800000582213000000000000000005196900000103938000001039380000010393800000634182000008020000
5001091220001000020663191132000000000000000004035750000000000000000000000000000000000000000000000000000000000004035750000000000000000000000000000000000000000000000000000000000004035750000000000000000000000000000000000000000000000000000000000008020000
5001091220001000020663191132101000000000000003478830000041745200000534346000006512380000065124100002403906000003478830000041745200000534346000006512380000065124100002403906000000000000000055660800000417454000006512380000065123800002729528000008020000
5001091220001000020663191132102000000000000003247460000038968600000300880000001559010000015590200000604401000003247460000038968600000300880000001559010000015590200000604401000000000000000051958900000417773000001559000000015590200000682352000008020000
5001091220001000020663390141400000000000000000000000000000000000000000000000001566990000001600800000487508000000000000000000000000000000000000001566990000001600800000487508000000000000000000000000000000000000001566990000001600800000487508000008020000
5001091220001000020663390350100000000000000004309780000000000000000472074-00000025350000000000000000028849000000760550000015211000000152110000001556960000015735800000236037000000760550000015211000000152110000001556960000015735800000236037000008020000
5001091220001000020663390390500000000000000000000000000075000000000000000000011250000000000000000000000000000000000000000000000000000000000000000000000000075000000000000000000000000000000000000000000000000000000000000000075000000000000000000008020000
5001091220001000020663390394800000000000000000000000000000000000000000000000001966500000006880000000298080000000000000000000000000000000000000000284000000023705000000298080000000000000000000000000000000000000000284000000023705000000298080000008020000
50010912200010000206633904006000000000000000063630700000000000000000000000000064282200000000000-0000188317000000909010000018180200000181802000001818020000018180200000272703000000909010000018180200000181802000001818020000018180200000272703000008020000
5001091220001000020663390930500000000000000000000000000000000000000000000000000250000000000000000000012000000000000000000000000000000000000000000250000000000000000000012000000000000000000000000000000000000000000250000000000000000000012000000008020000
50020912200200000002233908601000000000000002600000000000000000000000000000003717273500000083591-0000656761000098255900000184867600001825546000391357610000112509200008838900000089144270000275983900000912773000181787320002299489400008838900000008000000
5002091220020000000223390860200000000000000019500000000017782200000103338000000516690000016718200000727470000011714440000095637800000103338000000516690000016718200000727470000011411010000098672100000051669000001033380000016718200000727470000008000000
50020912200200000002233908603000000000000000188500000000000000000000000000000143649000000000000-0000207248000007289600000017690600000176906000015249430000024876700000257760000006405070000026535900000088453000016133960000024876700000257760000008000000
5002092720020000000023190010100000000000000524898170005389428600054538466000547431290005461330600055178882000524898170005389428600054538466000547431290005461330600055178882000524898170005388808200054544670000547431290005461330600055178882000008001111
5002092720020000000023190010600000000000000000000000000000000000000000000000000000000000000000000025474123000000000000000000000000000000000000000000000000000000000025474123000000000000000000000000000000000000000000000000000000000025474123000008001111
5002092720020000000023190014300000000000000000000000000000000000000000000000000000000000000000000001648300000000000000000000000000000000000000000000000000000000000001648300000000000000000000000000000000000000000000000000000000000001648300000008001111
5002092720020000000023190030100000000000000111592020001115920200010522323000116001700001156186000011753412000111592020001115920200010522323000116001700001156186000011753412000111592020001115920200010522323000116001700001156186000011753412000008001111
5002092720020000000023190030300000000000000000000000000000000000000000000000000000000000000000000005611659000000000000000000000000000000000000000000000000000000000005611659000000000000000000000000000000000000000000000000000000000005611659000008001111
5002092720020000000033190010100000000000000008972500000089725000000897250000008972500000089725000000897250000008972500000089725000000897250000008972500000089725000000897250000008972500000089725000000897250000008972500000089725000000897250000008001121
5002092720020000000033190010600000000000000000000000000000000000000000000000000000000000000000000000448625000000000000000000000000000000000000000000000000000000000000448625000000000000000000000000000000000000000000000000000000000000448625000008001121
5002092720020000000043190010100000000000000029853640000304952600003017400000024996550000271376600002713766000029853640000304952600003017400000024996550000271376600002713766000029853640000304952600003017400000024996550000271376600002713766000008001111
5002092720020000000043190010600000000000000000000000000000000000000000000000000000000000000000000001356883000000000000000000000000000000000000000000000000000000000001356883000000000000000000000000000000000000000000000000000000000001356883000008001111
5002092720020000000043190030100000000000000029375560000293755600002937556000029375560000301301900002484782000029375560000293755600002937556000029375560000301301900002484782000029375560000293755600002937556000029375560000301301900002484782000008001111
5002092720020000000043190030300000000000000000000000000000000000000000000000000000000000000000000001242391000000000000000000000000000000000000000000000000000000000001242391000000000000000000000000000000000000000000000000000000000001242391000008001111
FINALIZADOR0000000027