12091144000180010120253101202501022025FUNDO DE PREVIDENCIA SOCIAL RPPS                                                
100000000000000000005001000834654911800000000000000007686348721000734354958600086893482530000000000000ATIVO                                                                                                                                               S01 NPF
110000000000000000005001000368760457600000000000000007676987866000730685720500040577352370000000000000ATIVO CIRCULANTE                                                                                                                                    S02 NP 
111000000000000000005001000002436587400000000000000003599257540000359019361500000334297990000000000000CAIXA E EQUIVALENTES DE CAIXA                                                                                                                       S03 NPF
111100000000000000005001000002436587400000000000000003599103113000359003918800000334297990000000000000CAIXA E EQUIVALENTES DE CAIXA EM MOEDA NACIONAL                                                                                                     S04 NPF
111110000000000000005001000002436587400000000000000003599103113000359003918800000334297990000000000000CAIXA E EQUIVALENTES DE CAIXA EM MOEDA NACIONAL - CONSOLIDAO                                                                                        S05 NPF
111110600000000000005001000000000000000000000000000003578385279000357838527900000000000000000000000000CONTA NICA RPPS                                                                                                                                     S06 NPF
111110601010000000005001000000000000000000000000000000250000000000025000000000000000000000000000000000BANRISUL RPPS- MOV 0800 1064/040839800-6                                                                                                            A08 SPF
111110601020000000001201000000000000000000000000000000606422869000060642286900000000000000000000000000CEF GERAL FPSM MOV 0050 0521/006295-1                                                                                                               A08 SPF
111110601050000000001201000000000000000000000000000002679057728000267905772800000000000000000000000000BB GERAL FPSM MOV 0050 3732-X/11698-X                                                                                                               A08 SPF
111110604000000000005001000000000000000000000000000000042904682000004290468200000000000000000000000000BANCOS CONTA MOVIMENTO  TAXA DE ADMINISTRAO                                                                                                         S07 NPF
111110604010000000001201000000000000000000000000000000042904682000004290468200000000000000000000000000BB TX ADM RPPS  12116-9 FPSM MOV 0050                                                                                                               A08 SPF
111115200000000000005001000002436587400000000000000000020717834000001165390900000334297990000000000000APLICAES FINANCEIRAS DE LIQUIDEZ IMEDIATA - RPPS - TAXA DE ADMINISTRAO                                                                              S06 NPF
111115201000000000001201000002436587400000000000000000020717834000001165390900000334297990000000000000BB TX ADM RPPS  12116-9 FPSM APLIC 802                                                                                                              A07 SPF
111300000000000000005001000000000000000000000000000000000154427000000015442700000000000000000000000000CAIXA E EQUIVALENTES DE CAIXA - VALORES RESTITUVEIS E VINCULADOS                                                                                    S04 NPP
111310000000000000005001000000000000000000000000000000000154427000000015442700000000000000000000000000DEPSITOS RESTITUVEIS E VALORES VINCULADOS - CONSOLIDAO                                                                                              S05 NPF
111310100000000000005001000000000000000000000000000000000154427000000015442700000000000000000000000000DEPSITOS CONSIGNADOS                                                                                                                                S06 NPF
111310101000000000001201000000000000000000000000000000000154427000000015442700000000000000000000000000BB FPSM RETENCOES MOV 8001 3732-X/12116-9                                                                                                           A07 SPF
112000000000000000005001000001844780400000000000000000018447804000001844780400000184478040000000000000CRDITOS A CURTO PRAZO                                                                                                                               S03 NPP
112100000000000000005001000001844780400000000000000000018447804000001844780400000184478040000000000000CRDITOS TRIBUTRIOS A RECEBER                                                                                                                        S04 NPP
112120000000000000005001000001844780400000000000000000018447804000001844780400000184478040000000000000CRDITOS TRIBUTRIOS A RECEBER - INTRA OFSS                                                                                                           S05 NPP
112127100000000000005001000001844780400000000000000000018447804000001844780400000184478040000000000000CRDITOS PREVIDENCIRIOS PARCELADOS                                                                                                                   S06 NPP
112127101000000000005001000001844780400000000000000000018447804000001844780400000184478040000000000000PARCELAMENTO LEI1623/2005 360 PARCELAS CURTO PRAZO                                                                                                  A07 SPP
113000000000000000005001000000000000000000000000000000609188152000060918815200000000000000000000000000DEMAIS CRDITOS E VALORES A CURTO PRAZO                                                                                                              S03 NPP
113600000000000000005001000000000000000000000000000000609188152000060918815200000000000000000000000000CRDITOS PREVIDENCIRIOS A RECEBER A CURTO PRAZO                                                                                                      S04 NPP
113620000000000000005001000000000000000000000000000000609188152000060918815200000000000000000000000000CRDITOS PREVIDENCIRIOS A RECEBER A CURTO PRAZO - INTRA OFSS                                                                                         S05 NPP
113620100000000000005001000000000000000000000000000000609188152000060918815200000000000000000000000000CONTRIBUIES PREVIDENCIRIAS A RECEBER - RPPS                                                                                                         S06 NPP
113620101010000000005001000000000000000000000000000000186699570000018669957000000000000000000000000000CONTRIBUIO PATRONAL PARA O RPPS - ALQUOTA NORMAL                                                                                                    A08 SPP
113620101020000000005001000000000000000000000000000000259296217000025929621700000000000000000000000000CONTRIBUIO PATRONAL - ALQUOTA SUPLEMENTAR                                                                                                           A08 SPP
113620102000000000005001000000000000000000000000000000163192365000016319236500000000000000000000000000CONTRIBUIES DO RPPS A RECEBER - SERVIDOR APOSENTADO E PENSIONISTA - FUNDO EM CAPITALIZAO                                                            A07 SPP
114000000000000000005001000364479089800000000000000003450094370000308902763400040058576340000000000000INVESTIMENTOS E APLICAES TEMPORRIAS A CURTO PRAZO                                                                                                   S03 NPP
114400000000000000005001000364479089800000000000000003450094370000308902763400040058576340000000000000INVESTIMENTOS E APLICAES TEMPORRIAS DE CURTO PRAZO - RPPS                                                                                           S04 NPP
114410000000000000005001000364479089800000000000000003450094370000308902763400040058576340000000000000INVESTIMENTOS E APLICAES TEMPORRIAS DE CURTO PRAZO DO RPPS - CONSOLIDAO                                                                             S05 NPP
114410100000000000005001000335310535700000000000000002267570925000230153551200033191407700000000000000APLICAES EM SEGMENTO DE RENDA FIXA - RPPS - FUNDO EM CAPITALIZAO                                                                                    S06 NPP
114410102000000000005001000170515627900000000000000001400880515000156247227500015435645190000000000000FUNDOS DE INVESTIMENTO QUE APLICAM EXCLUSIVAMENTE EM TTULOS DE EMISSO DO TESOURO NACIONAL OU COMPROMISSADAS LASTREADAS NESSES TTULOS                S07 NPP
114410102010000000001201000027800231300000000000000000028420556000030642286900000000000000000000000000CEF CAIXA FI BRASIL 2024 III TP RF FPSM APLIC0050 0521/006295-1                                                                                     A08 SPF
114410102020000000001201000024929340200000000000000000324048387000000000000000005733417890000000000000BB PREV RF IRF-M1 TP FPSM APLIC 0050 3732-X/11698-X                                                                                                 A08 SPF
114410102030000000005001000000000000000000000000000000307039599000001401075200002930288470000000000000CEF FPSM FI BRASIL 2028 X TP RF APLIC 800 0521/006295-1                                                                                             A08 SPF
114410102040000000001201000071095667700000000000000000032591123000074354780000000000000000000000000000BB PREVID RF IMA-B 5 LP FPSM 0050 3732-X/11698-X                                                                                                    A08 SPF
114410102050000000001201000046690388700000000000000000030413046000049731693300000000000000000000000000BB PREV RF IDKA2 TP FPSM 0050 3732-X/11698-X                                                                                                        A08 SPF
114410102060000000005001000000000000000000000000000000257361731000000117392100002561878100000000000000BANRISUL RPPS II FI RF - NTN-B 27 FPSM APLIC 800 1064/040839800-6                                                                                   A08 SPF
114410102070000000005001000000000000000000000000000000421006073000000000000000004210060730000000000000SICREDI TAXA SELIC FIC FIRF LP FPSM APLIC 800 0306/11359-8                                                                                          A08 SPF
114410103000000000005001000040859553900000000000000000432941784000043906323700004024740860000000000000FUNDOS DE INVESTIMENTO EM NDICE DE MERCADO DE RENDA FIXA                                                                                            S07 NPF
114410103010000000001201000040859553900000000000000000018699592000042729513100000000000000000000000000SICREDI INSTITUCIONAL IRF-M FI RF LP                                                                                                                A08 SPF
114410103020000000005001000000000000000000000000000000414242192000001176810600004024740860000000000000BB RF TP 2026 FPSM APLIC 800 3732-X/11698-X                                                                                                         A08 SPF
114410105000000000005001000123935353900000000000000000433748626000030000000000013731021650000000000000FUNDOS DE INVESTIMENTO EM RENDA FIXA                                                                                                                S07 NPF
114410105030000000001201000062817883100000000000000000367247843000030000000000006954266740000000000000CEF FI BRASIL REFERENCIADO DI LP FPSM 0050 0521/006/00000295-1                                                                                      A08 SPF
114410105040000000001201000061117470800000000000000000066500783000000000000000006776754910000000000000SICREDI LIQUIDEZ EMPRESARIAL REF DI FI RF FPSM 0050 0306/11359-8                                                                                    A08 SPF
114419901000000000001201000029168554100000000000000001182523445000078749212200006867168640000000000000BB PREVID RF REFERENCIADO DI LP PERFIL FPSM APLIC 0050 3732-X/11698-X                                                                               A07 SPF
120000000000000000005001000465894454200000000000000000009360855000003669238100046316130160000000000000ATIVO NO CIRCULANTE                                                                                                                                 S02 NPF
121000000000000000005001000465894454200000000000000000009360855000003669238100046316130160000000000000ATIVO REALIZVEL A LONGO PRAZO                                                                                                                       S03 NPP
121100000000000000005001000465894454200000000000000000009360855000003669238100046316130160000000000000CRDITOS A LONGO PRAZO                                                                                                                               S04 NPP
121120000000000000005001000465894454200000000000000000009360855000003669238100046316130160000000000000CRDITOS A LONGO PRAZO - INTRA OFSS                                                                                                                  S05 NPP
121120600000000000005001000019221467400000000000000000009360855000001844780400001831277250000000000000CRDITOS PREVIDENCIRIOS DO RPPS                                                                                                                      S06 NPP
121120604010000000005001000019221467400000000000000000009360855000001844780400001831277250000000000000PARCELAMENTO LEI1623/2005 360 PARCELAS LONGO PRAZO                                                                                                  A08 SPP
121120800000000000005001000446672986800000000000000000000000000000001824457700044484852910000000000000CRDITOS PARA AMORTIZAO DE DEFICIT ATUARIAL - FUNDO EM CAPITALIZAO - INTRA OFSS                                                                      S06 NP 
121120802000000000005001000446672986800000000000000000000000000000001824457700044484852910000000000000VALOR ATUAL DA CONTRIBUIO PATRONAL SUPLEMENTAR PARA COBERTURA DO DEFICIT ATUARIAL                                                                   A07 SPP
200000000000000000005001000000000000000083465491180008909167000000925196613500000000000000008689348253PASSIVO E PATRIMNIO LQUIDO                                                                                                                          S01 NPF
210000000000000000005001000000000000000000001010000000598278795000059827879500000000000000000000101000PASSIVO CIRCULANTE                                                                                                                                  S02 NPF
211000000000000000005001000000000000000000000000000000553018599000055301859900000000000000000000000000OBRIGAES TRABALHISTAS PREVIDENCIRIAS E ASSISTENCIAIS A PAGAR A CURTO PRAZO                                                                          S03 NPF
211100000000000000005001000000000000000000000000000000074070783000007407078300000000000000000000000000PESSOAL A PAGAR                                                                                                                                     S04 NPF
211110000000000000005001000000000000000000000000000000074070783000007407078300000000000000000000000000PESSOAL A PAGAR - CONSOLIDAO                                                                                                                        S05 NPF
211110100000000000005001000000000000000000000000000000074070783000007407078300000000000000000000000000PESSOAL A PAGAR                                                                                                                                     S06 NPF
211110101000000000005001000000000000000000000000000000004155121000000415512100000000000000000000000000SALRIOS REMUNERAES E BENEFCIOS                                                                                                                      S07 NPF
211110101020000000005001000000000000000000000000000000004155121000000415512100000000000000000000000000SALRIOS REMUNERAES E BENEFCIOS F                                                                                                                    A08 SPF
211110102000000000005001000000000000000000000000000000069915662000006991566200000000000000000000000000DCIMO TERCEIRO SALRIO                                                                                                                               S07 NPP
211110102010000000005001000000000000000000000000000000035781981000003578198100000000000000000000000000DCIMO TERCEIRO SALRIO P                                                                                                                             A08 SPP
211110102020000000005001000000000000000000000000000000034133681000003413368100000000000000000000000000DCIMO TERCEIRO SALRIO F                                                                                                                             A08 SPF
211200000000000000005001000000000000000000000000000000466941257000046694125700000000000000000000000000BENEFCIOS PREVIDENCIRIOS A PAGAR                                                                                                                    S04 NPF
211210000000000000005001000000000000000000000000000000398049969000039804996900000000000000000000000000BENEFCIOS PREVIDENCIRIOS A PAGAR - CONSOLIDAO                                                                                                       S05 NPF
211210100000000000005001000000000000000000000000000000398049969000039804996900000000000000000000000000BENEFCIOS PREVIDENCIRIOS A PAGAR                                                                                                                    S06 NPF
211210102000000000005001000000000000000000000000000000398049969000039804996900000000000000000000000000BENEFCIOS PREVIDENCIRIOS A PAGAR F                                                                                                                  A07 SPF
211230000000000000005001000000000000000000000000000000062683156000006268315600000000000000000000000000BENEFCIOS PREVIDENCIRIOS A PAGAR - INTER OFSS - UNIO                                                                                                S05 NPF
211230500000000000005001000000000000000000000000000000062683156000006268315600000000000000000000000000COMPENSAO FINANCEIRA ENTRE REGIMES PREVIDENCIRIOS                                                                                                   S06 NPF
211230501000000000005001000000000000000000000000000000062683156000006268315600000000000000000000000000OBRIGAES DO RPPS JUNTO AO RGPS                                                                                                                      S07 NPP
211230501020000000005001000000000000000000000000000000062683156000006268315600000000000000000000000000COMPENSAO PREVIDENCIRIA PARA COM O RGPS F                                                                                                           A08 SPF
211240000000000000005001000000000000000000000000000000003093890000000309389000000000000000000000000000BENEFCIOS PREVIDENCIRIOS A PAGAR - INTER OFSS - ESTADO                                                                                              S05 NPF
211240500000000000005001000000000000000000000000000000003093890000000309389000000000000000000000000000COMPENSAO FINANCEIRA ENTRE REGIMES PREVIDENCIRIOS                                                                                                   S06 NPF
211240501000000000005001000000000000000000000000000000003093890000000309389000000000000000000000000000OBRIGAES DO RPPS JUNTO AO RPPS DE ESTADO                                                                                                            S07 NPP
211240501020000000005001000000000000000000000000000000003093890000000309389000000000000000000000000000OBRIGAES DO RPPS JUNTO AO RPPS DE ESTADO A PAGAR F                                                                                                  A08 SPF
211250000000000000005001000000000000000000000000000000003114242000000311424200000000000000000000000000BENEFCIOS PREVIDENCIRIOS A PAGAR - INTER OFSS - MUNICPIO                                                                                            S05 NPF
211250500000000000005001000000000000000000000000000000003114242000000311424200000000000000000000000000COMPENSAO FINANCEIRA ENTRE REGIMES PREVIDENCIRIOS                                                                                                   S06 NPF
211250501000000000005001000000000000000000000000000000003114242000000311424200000000000000000000000000CRDITOS DO RPPS JUNTO AO RPPS DE MUNICPIO                                                                                                           S07 NPP
211250501020000000005001000000000000000000000000000000003114242000000311424200000000000000000000000000CRDITOS DO RPPS JUNTO AO RPPS DE MUNICPIO A PAGAR F                                                                                                 A08 SPF
211400000000000000005001000000000000000000000000000000012006559000001200655900000000000000000000000000ENCARGOS SOCIAIS A PAGAR                                                                                                                            S04 NPF
211420000000000000005001000000000000000000000000000000012006559000001200655900000000000000000000000000ENCARGOS SOCIAIS A PAGAR-INTRA OFSS                                                                                                                 S05 NPF
211420100000000000005001000000000000000000000000000000012006559000001200655900000000000000000000000000CONTRIBUIO A REGIME PRPRIO DE PREVIDNCIA RPPS                                                                                                       S06 NPF
211420102000000000005001000000000000000000000000000000012006559000001200655900000000000000000000000000CONTRIBUIO A REGIME PRPRIO DE PREVIDNCIA RPPS F                                                                                                     A07 SPF
213000000000000000005001000000000000000000001010000000044445554000004444555400000000000000000000101000FORNECEDORES E CONTAS A PAGAR A CURTO PRAZO                                                                                                         S03 NPF
213100000000000000005001000000000000000000001010000000044445554000004444555400000000000000000000101000FORNECEDORES E CONTAS A PAGAR NACIONAIS A CURTO PRAZO                                                                                               S04 NPF
213110000000000000005001000000000000000000001010000000044445554000004444555400000000000000000000101000FORNECEDORES E CONTAS A PAGAR NACIONAIS A CURTO PRAZO - CONSOLIDAO                                                                                  S05 NPF
213110100000000000005001000000000000000000001010000000044445554000004444555400000000000000000000101000FORNECEDORES NACIONAIS                                                                                                                              S06 NPF
213110101000000000005001000000000000000000001010000000044445554000004444555400000000000000000000101000FORNECEDORES NO PARCELADOS A PAGAR                                                                                                                  S07 NPF
213110101010000000005001000000000000000000000000000000040709554000004070955400000000000000000000000000FORNECEDORES DO EXERCICIO                                                                                                                           A08 SPF
213110101020000000005001000000000000000000001010000000003736000000000373600000000000000000000000101000FORNECEDORES DE EXERCICIOS ANTERIORES                                                                                                               S08 NPF
213110101021600000005001000000000000000000001010000000000000000000000000000000000000000000000000101000RESTOS A PAGAR 2022                                                                                                                                 A09 SPF
213110101021700000005001000000000000000000000000000000003635000000000363500000000000000000000000000000RESTOS A PAGAR 2023                                                                                                                                 A09 SPF
213110101021800000005001000000000000000000000000000000000101000000000010100000000000000000000000000000RESTOS A PAGAR 2024                                                                                                                                 A09 SPF
218000000000000000005001000000000000000000000000000000000814642000000081464200000000000000000000000000ADIANTAMENTO DE CLIENTES E DEMAIS OBRIGAES A CURTO PRAZO                                                                                            S03 NPF
218800000000000000005001000000000000000000000000000000000154427000000015442700000000000000000000000000VALORES RESTITUVEIS                                                                                                                                 S04 NPF
218820000000000000005001000000000000000000000000000000000154427000000015442700000000000000000000000000VALORES RESTITUVEIS  INTRA OFSS                                                                                                                     S05 NPF
218829901000000000005001000000000000000000000000000000000154427000000015442700000000000000000000000000OUTROS VALORES RESTITUVEIS                                                                                                                          S07 NPP
218829901020000000005001000000000000000000000000000000000154427000000015442700000000000000000000000000IR RETIDO A RECOLHER NO TESOURO MUNICIPAL                                                                                                           A08 SPF
218900000000000000005001000000000000000000000000000000000660215000000066021500000000000000000000000000OUTRAS OBRIGAES A CURTO PRAZO                                                                                                                       S04 NPF
218910000000000000005001000000000000000000000000000000000660215000000066021500000000000000000000000000OUTRAS OBRIGAES A CURTO PRAZO - CONSOLIDAO                                                                                                          S05 NPF
218910200000000000005001000000000000000000000000000000000660215000000066021500000000000000000000000000DIRIAS A PAGAR                                                                                                                                      A06 SPF
220000000000000000005001000000000000000077479871620000730627732000149350142400000000000000008510860854PASSIVO NO-CIRCULANTE                                                                                                                               S02 NPF
227000000000000000005001000000000000000077479871620000730627732000149350142400000000000000008510860854PROVISES A LONGO PRAZO                                                                                                                              S03 NPP
227200000000000000005001000000000000000077479871620000730627732000149350142400000000000000008510860854PROVISES MATEMTICAS PREVIDENCIRIAS A LONGO PRAZO                                                                                                    S04 NPP
227210000000000000005001000000000000000077479871620000730627732000149350142400000000000000008510860854PROVISES MATEMTICAS PREVIDENCIRIAS A LONGO PRAZO - CONSOLIDAO                                                                                       S05 NPP
227210300000000000005001000000000000000049186700500000236478919000044293826000000000000000005125129391RPPS - FUNDO EM CAPITALIZAO - PROVISOES DE BENEFICIOS CONCEDIDOS                                                                                    S06 NPP
227210301000000000005001000000000000000050532638060000000000000000034974611700000000000000005403009923APOSENTADORIAS/PENSES CONCEDIDAS DO FUNDO EM CAPITALIZAO DO RPPS                                                                                    A07 SPP
227210303000000000005001000003441443800000000000000000085345123000000000000000001197595610000000000000- CONTRIBUIES DO APOSENTADO PARA O FUNDO EM CAPITALIZAO DO RPPS                                                                                     A07 SPP
227210304000000000005001000000698717500000000000000000020614152000000000000000000276013270000000000000- CONTRIBUIES DO PENSIONISTA PARA O FUNDO EM CAPITALIZAOO DO RPPS                                                                                   A07 SPP
227210305000000000005001000005206318900000000000000000000000000000005206318900000000000000000000000000- COMPENSAO PREVIDENCIRIA DO FUNDO EM CAPITALIZAO DO RPPS                                                                                           A07 SPP
227210399000000000005001000004112895400000000000000000130519644000004112895400001305196440000000000000- OUTRAS DEDUES                                                                                                                                     A07 SPP
227210400000000000005001000000000000000028293171120000494148813000105056316400000000000000003385731463RPPS - FUNDO EM CAPITALIZAO - PROVISOES DE BENEFICIOS A CONCEDER                                                                                    S06 NPP
227210401000000000005001000000000000000062290766760000000000000000086532567200000000000000007094402348APOSENTADORIAS/PENSES A CONCEDER DO FUNDO EM CAPITALIZAO DO RPPS                                                                                    A07 SPP
227210402000000000005001000121531796300000000000000000000000000000016845548400010468624790000000000000- CONTRIBUIES DO ENTE PARA O FUNDO EM CAPITALIZAO DO RPPS                                                                                           A07 SPP
227210403000000000005001000183983298500000000000000000494148813000000000000000023339817980000000000000- CONTRIBUIES DO SERVIDOR E FUTURO APOSENTADO/PENSIONISTA PARA O FUNDO EM CAPITALIZAO DO RPPS                                                       A07 SPP
227210404000000000005001000034460861600000000000000000000000000000001678200800003278266080000000000000- COMPENSAO PREVIDENCIRIA DO FUNDO EM CAPITALIZAO DO RPPS                                                                                           A07 SPP
230000000000000000005001000000000000000005984609560007580260473000716018591600000000000000000178386399PATRIMNIO LIQUIDO                                                                                                                                   S02 NPF
236000000000000000005001000000000000000005741960820000465749290000000000000000000000000000000108446792DEMAIS RESERVAS                                                                                                                                     S03 NPF
236200000000000000005001000000000000000005741960820000465749290000000000000000000000000000000108446792RESERVAS ATUARIAIS                                                                                                                                  S04 NP 
236210000000000000005001000000000000000005741960820000465749290000000000000000000000000000000108446792RESERVA ATUARIAL - CONSOLIDAO                                                                                                                       S05 NP 
236210100000000000005001000000000000000005741960820000465749290000000000000000000000000000000108446792RESERVAS ATUARIAIS - FUNDO EM CAPITALIZAO                                                                                                           S06 NP 
236210101000000000005001000000000000000005741960820000465749290000000000000000000000000000000108446792RESERVA ATUARIAL PARA CONTINGNCIAS                                                                                                                  A07 SP 
237000000000000000005001000000000000000000242648740007114511183000716018591600000000000000000069939607RESULTADOS ACUMULADOS                                                                                                                               S03 NP 
237100000000000000005001000000000000000000242648740007114511183000716018591600000000000000000069939607SUPERVITS OU DFICITS ACUMULADOS                                                                                                                     S04 NP 
237110000000000000005001000203256051500000000000000005510713796000182609160900057171827020000000000000SUPERVITS OU DFICITS ACUMULADOS - CONSOLIDAO                                                                                                        S05 NP 
237110100000000000005001000122385145300000000000000000926263307000182609160900003240231510000000000000SUPERVITS OU DFICITS DO EXERCCIO                                                                                                                    A06 SP 
237110200000000000005001000080870906200000000000000001223851453000000000000000020325605150000000000000SUPERVITS OU DFICITS DE EXERCCIOS ANTERIORES                                                                                                        A06 SP 
237110300000000000005001000000000000000000000000000003360599036000000000000000033605990360000000000000AJUSTES DE EXERCCIOS ANTERIORES                                                                                                                     S06 NP 
237110301000000000005001000000000000000000000000000003360599036000000000000000033605990360000000000000AJUSTES DE EXERCICIOS ANTERIORES - PERMANENTE                                                                                                       A07 SP 
237120000000000000005001000000000000000021288060240001519554008000530406688000000000000000005913318896SUPERVITS OU DFICITS ACUMULADOS - INTRA OFSS                                                                                                        S05 NP 
237120100000000000005001000000000000000014886302460001519554008000045483759800000000000000000423913836SUPERVITS OU DFICITS DO EXERCCIO                                                                                                                    A06 SP 
237120200000000000005001000000000000000006401757780000000000000000484922928200000000000000005489405060SUPERVITS OU DFICITS DE EXERCCIOS ANTERIORES                                                                                                        A06 SP 
237130000000000000005001000006929487100000000000000000075349483000002723557700001174087770000000000000SUPERVITS OU DFICITS ACUMULADOS - INTER OFSS - UNIO                                                                                                 S05 NP 
237130100000000000005001000001266632700000000000000000062683156000002723557700000481139060000000000000SUPERVITS OU DFICITS DO EXERCCIO                                                                                                                    A06 SP 
237130200000000000005001000005662854400000000000000000012666327000000000000000000692948710000000000000SUPERVITS OU DFICITS DE EXERCCIOS ANTERIORES                                                                                                        A06 SP 
237140000000000000005001000000000000000000000000000000003093890000000000000000000030938900000000000000SUPERVITS OU DFICITS ACUMULADOS - INTER OFSS - ESTADO                                                                                               S05 NP 
237140100000000000005001000000000000000000000000000000003093890000000000000000000030938900000000000000SUPERVITS OU DFICITS DO EXERCCIO                                                                                                                    A06 SP 
237150000000000000005001000000268576400000000000000000005800006000000279185000000056939200000000000000SUPERVITS OU DFICITS ACUMULADOS - INTER OFSS - MUNICPIO                                                                                             S05 NP 
237150100000000000005001000000268576400000000000000000003114242000000279185000000030081560000000000000SUPERVITS OU DFICITS DO EXERCCIO                                                                                                                    A06 SP 
237150200000000000005001000000000000000000000000000000002685764000000000000000000026857640000000000000SUPERVITS OU DFICITS DE EXERCCIOS ANTERIORES                                                                                                        A06 SP 
300000000000000000005001000000000000000000000000000001031332992000103133299200000000000000000000000000VARIAO PATRIMONIAL DIMINUTIVA                                                                                                                       S01 NP 
310000000000000000005001000000000000000000000000000000048461166000004846116600000000000000000000000000PESSOAL E ENCARGOS                                                                                                                                  S02 NP 
311000000000000000005001000000000000000000000000000000035781981000003578198100000000000000000000000000REMUNERAO A PESSOAL                                                                                                                                 S03 NP 
311100000000000000005001000000000000000000000000000000035781981000003578198100000000000000000000000000REMUNERAO A PESSOAL ATIVO CIVIL  ABRANGIDOS PELO RPPS                                                                                               S04 NP 
311110000000000000005001000000000000000000000000000000035781981000003578198100000000000000000000000000REMUNERAO A PESSOAL ATIVO CIVIL  ABRANGIDOS PELO RPPS - CONSOLIDAO                                                                                  S05 NP 
311110100000000000005001000000000000000000000000000000035781981000003578198100000000000000000000000000VENCIMENTOS E VANTAGENS FIXAS - PESSOAL CIVIL - RPPS                                                                                                S06 NP 
31111012200000000000500100000000000000000000000000000003578198100000357819810000000000000000000000000013 SALRIO                                                                                                                                           A07 SP 
312000000000000000005001000000000000000000000000000000012679185000001267918500000000000000000000000000ENCARGOS PATRONAIS                                                                                                                                  S03 NP 
312100000000000000005001000000000000000000000000000000012679185000001267918500000000000000000000000000ENCARGOS PATRONAIS - RPPS                                                                                                                           S04 NP 
312120000000000000005001000000000000000000000000000000012679185000001267918500000000000000000000000000ENCARGOS PATRONAIS - RPPS - INTRA OFSS                                                                                                              S05 NP 
312120100000000000005001000000000000000000000000000000012679185000001267918500000000000000000000000000CONTRIBUIO PATRONAL PARA O RPPS                                                                                                                     A06 SP 
320000000000000000005001000000000000000000000000000000432825057000043282505700000000000000000000000000BENEFCIOS PREVIDENCIRIOS E ASSISTENCIAIS                                                                                                            S02 NP 
321000000000000000005001000000000000000000000000000000347820863000034782086300000000000000000000000000APOSENTADORIAS E REFORMAS                                                                                                                           S03 NP 
321100000000000000005001000000000000000000000000000000347820863000034782086300000000000000000000000000APOSENTADORIAS - RPPS                                                                                                                               S04 NP 
321110000000000000005001000000000000000000000000000000347820863000034782086300000000000000000000000000APOSENTADORIAS - RPPS - CONSOLIDAO                                                                                                                  S05 NP 
321110100000000000005001000000000000000000000000000000347820863000034782086300000000000000000000000000PROVENTOS - PESSOAL CIVIL                                                                                                                           S06 NP 
321110101000000000005001000000000000000000000000000000082430043000008243004300000000000000000000000000APOSENTADORIAS POR TEMPO DE CONTRIBUIO                                                                                                              A07 SP 
321110102000000000005001000000000000000000000000000000008241537000000824153700000000000000000000000000APOSENTADORIAS COMPULSRIAS                                                                                                                          A07 SP 
321110103000000000005001000000000000000000000000000000055594434000005559443400000000000000000000000000APOSENTADORIAS POR INVALIDEZ                                                                                                                        A07 SP 
321110105000000000005001000000000000000000000000000000000464609000000046460900000000000000000000000000APOSENTADORIAS ESPECIAIS - AGENTES NOCIVOS                                                                                                          A07 SP 
321110107000000000005001000000000000000000000000000000178745940000017874594000000000000000000000000000APOSENTADORIAS PROFESSOR                                                                                                                            A07 SP 
321110199000000000005001000000000000000000000000000000022344300000002234430000000000000000000000000000OUTRAS APOSENTADORIAS ESPECIAIS                                                                                                                     A07 SP 
322000000000000000005001000000000000000000000000000000085004194000008500419400000000000000000000000000PENSES                                                                                                                                              S03 NP 
322100000000000000005001000000000000000000000000000000085004194000008500419400000000000000000000000000PENSES - RPPS                                                                                                                                       S04 NP 
322110000000000000005001000000000000000000000000000000085004194000008500419400000000000000000000000000PENSES - RPPS - CONSOLIDAO                                                                                                                          S05 NP 
322110100000000000005001000000000000000000000000000000085004194000008500419400000000000000000000000000PROVENTOS DE PENSES                                                                                                                                 A06 SP 
330000000000000000005001000000000000000000000000000000012026876000001202687600000000000000000000000000USO DE BENS SERVIOS E CONSUMO DE CAPITAL FIXO                                                                                                       S02 NP 
332000000000000000005001000000000000000000000000000000012026876000001202687600000000000000000000000000SERVIOS                                                                                                                                             S03 NP 
332100000000000000005001000000000000000000000000000000000660215000000066021500000000000000000000000000DIRIAS                                                                                                                                              S04 NP 
332110000000000000005001000000000000000000000000000000000660215000000066021500000000000000000000000000DIRIAS - CONSOLIDAO                                                                                                                                 S05 NP 
332110100000000000005001000000000000000000000000000000000660215000000066021500000000000000000000000000DIRIAS PESSOAL CIVIL                                                                                                                                A06 SP 
332200000000000000005001000000000000000000000000000000004426802000000442680200000000000000000000000000SERVIOS TERCEIROS - PF                                                                                                                              S04 NP 
332210000000000000005001000000000000000000000000000000004426802000000442680200000000000000000000000000SERVIOS TERCEIROS - PF - CONSOLIDAO                                                                                                                 S05 NP 
332210100000000000005001000000000000000000000000000000000028849000000002884900000000000000000000000000CONSULTORIA E ASSESSORIA                                                                                                                            A06 SP 
332213100000000000005001000000000000000000000000000000004397953000000439795300000000000000000000000000JETONS E GRATIFICAES A CONSELHEIROS                                                                                                                 A06 SP 
332300000000000000005001000000000000000000000000000000006939859000000693985900000000000000000000000000SERVIOS TERCEIROS - PJ                                                                                                                              S04 NP 
332310000000000000005001000000000000000000000000000000006939859000000693985900000000000000000000000000SERVIOS TERCEIROS - PJ - CONSOLIDAO                                                                                                                 S05 NP 
332310100000000000005001000000000000000000000000000000000900517000000090051700000000000000000000000000CONSULTORIA E ASSESSORIA                                                                                                                            A06 SP 
332311100000000000005001000000000000000000000000000000001090812000000109081200000000000000000000000000SERVIOS RELACIONADOS  TECNOLOGIA DA INFORMAO                                                                                                        A06 SP 
332313000000000000005001000000000000000000000000000000000563530000000056353000000000000000000000000000SELEO E TREINAMENTO                                                                                                                                 A06 SP 
332315100000000000005001000000000000000000000000000000004385000000000438500000000000000000000000000000SERVIOS TCNICOS PROFISSIONAIS                                                                                                                       A06 SP 
360000000000000000005001000000000000000000000000000000023202982000002320298200000000000000000000000000DESVALORIZAO E PERDA DE ATIVOS E INCORPORAO DE PASSIVOS                                                                                             S02 NP 
361000000000000000005001000000000000000000000000000000023202982000002320298200000000000000000000000000REAVALIAO REDUO A VALOR RECUPERVEL E AJUSTE PARA PERDAS                                                                                             S03 NP 
361700000000000000005001000000000000000000000000000000023202982000002320298200000000000000000000000000VARIAO PATRIMONIAL DIMINUTIVA COM AJUSTE DE PERDAS DE CRDITOS E DE INVESTIMENTOS E APLICAES TEMPORRIOS                                              S04 NP 
361710000000000000005001000000000000000000000000000000023202982000002320298200000000000000000000000000VARIAO PATRIMONIAL DIMINUTIVA COM AJUSTE DE PERDAS DE CRDITOS E DE INVESTIMENTOS E APLICAES TEMPORRIOS - CONSOLIDAO                                 S05 NP 
361710100000000000005001000000000000000000000000000000005254635000000525463500000000000000000000000000AJUSTE PARA PERDAS EM CRDITOS TRIBUTRIOS                                                                                                            A06 SP 
361710800000000000005001000000000000000000000000000000017948347000001794834700000000000000000000000000DESVALORIZAO A VALOR JUSTO DOS INVESTIMENTOS TEMPORRIOS DO RPPS                                                                                     S06 NP 
361710801000000000005001000000000000000000000000000000017685180000001768518000000000000000000000000000DESVALORIZAO DE INVESTIMENTOS DO RPPS COM EXECUO ORAMENTRIA                                                                                         A07 SP 
361710802000000000005001000000000000000000000000000000000263167000000026316700000000000000000000000000DESVALORIZAO DE INVESTIMENTOS DO RPPS SEM EXECUO ORAMENTRIA                                                                                         A07 SP 
390000000000000000005001000000000000000000000000000000514816911000051481691100000000000000000000000000OUTRAS VARIAES PATRIMONIAIS DIMINUTIVAS                                                                                                             S02 NP 
397000000000000000005001000000000000000000000000000000445888623000044588862300000000000000000000000000VPD DE CONSTITUIO DE PROVISES                                                                                                                       S03 NP 
397200000000000000005001000000000000000000000000000000445888623000044588862300000000000000000000000000VPD DE PROVISES MATEMTICAS PREVIDNCIRIAS A LONGO PRAZO                                                                                              S04 NP 
397210000000000000005001000000000000000000000000000000427644046000042764404600000000000000000000000000VPD DE PROVISES MATEMTICAS PREVIDNCIRIAS A LONGO PRAZO - CONSOLIDAO                                                                                 A05 SP 
397220000000000000005001000000000000000000000000000000018244577000001824457700000000000000000000000000VPD DE PROVISES MATEMTICAS PREVIDNCIRIAS A LONGO PRAZO - INTRA-OFSS                                                                                 A05 SP 
399000000000000000005001000000000000000000000000000000068928288000006892828800000000000000000000000000DIVERSAS VARIAES PATRIMONIAIS DIMINUTIVAS                                                                                                           S03 NP 
399600000000000000005001000000000000000000000000000000000037000000000003700000000000000000000000000000INDENIZAES RESTITUIES E RESSARCIMENTOS                                                                                                              S04 NP 
399610000000000000005001000000000000000000000000000000000037000000000003700000000000000000000000000000INDENIZAES RESTITUIES E RESSARCIMENTOS - CONSOLIDAO                                                                                                 A05 SP 
399700000000000000005001000000000000000000000000000000068891288000006889128800000000000000000000000000COMPENSAES AO RGPS                                                                                                                                  S04 NP 
399730000000000000005001000000000000000000000000000000062683156000006268315600000000000000000000000000COMPENSAES AO RGPS - INTER OFSS - UNIO                                                                                                              A05 SP 
399740000000000000005001000000000000000000000000000000003093890000000309389000000000000000000000000000COMPENSAES AO RPPS - INTER OFSS - ESTADO                                                                                                            A05 SP 
399750000000000000005001000000000000000000000000000000003114242000000311424200000000000000000000000000COMPENSAES AO RPPS - INTER OFSS - MUNICPIO                                                                                                          A05 SP 
400000000000000000005001000000000000000000000000000001080333937000108033393700000000000000000000000000VARIAO PATRIMONIAL AUMENTATIVA                                                                                                                      S01 NP 
420000000000000000005001000000000000000000000000000000608669108000060866910800000000000000000000000000CONTRIBUIES                                                                                                                                         S02 NP 
421000000000000000005001000000000000000000000000000000608669108000060866910800000000000000000000000000CONTRIBUIES SOCIAIS                                                                                                                                 S03 NP 
421100000000000000005001000000000000000000000000000000608669108000060866910800000000000000000000000000CONTRIBUIES SOCIAIS - RPPS E MILITARES                                                                                                              S04 NP 
421110000000000000005001000000000000000000000000000000163192365000016319236500000000000000000000000000CONTRIBUIES SOCIAIS - RPPS E MILITARES - CONSOLIDAO                                                                                                 S05 NP 
421110200000000000005001000000000000000000000000000000163192365000016319236500000000000000000000000000CONTRIBUIO DO SEGURADO AO RPPS                                                                                                                      S06 NP 
421110201000000000005001000000000000000000000000000000163192365000016319236500000000000000000000000000CONTRIBUIO DO SERVIDOR - RPPS                                                                                                                       A07 SP 
421120000000000000005001000000000000000000000000000000445476743000044547674300000000000000000000000000CONTRIBUIES SOCIAIS - RPPS E MILITARES - INTRA OFSS                                                                                                 S05 NP 
421120100000000000005001000000000000000000000000000000186430516000018643051600000000000000000000000000CONTRIBUIES PATRONAIS AO RPPS                                                                                                                       S06 NP 
421120101000000000005001000000000000000000000000000000183244464000018324446400000000000000000000000000CONTRIBUIO PATRONAL DE SERVIDOR ATIVO - RPPS                                                                                                        A07 SP 
421120199000000000005001000000000000000000000000000000003186052000000318605200000000000000000000000000OUTRAS CONTRIBUIES PATRONAIS AO RPPS                                                                                                                A07 SP 
421120300000000000005001000000000000000000000000000000259046227000025904622700000000000000000000000000CONTRIBUIO PREVIDENCIRIA PARA AMORTIZAO DO DFICIT ATUARIAL                                                                                          A06 SP 
440000000000000000005001000000000000000000000000000000326469849000032646984900000000000000000000000000VARIAES PATRIMONIAIS AUMENTATIVAS FINANCEIRAS                                                                                                       S02 NP 
442000000000000000005001000000000000000000000000000000009360855000000936085500000000000000000000000000JUROS E ENCARGOS DE MORA                                                                                                                            S03 NP 
442500000000000000005001000000000000000000000000000000009360855000000936085500000000000000000000000000JUROS E ENCARGOS DE MORA SOBRE CRDITOS PREVIDENCIRIOS                                                                                               S04 NP 
442520000000000000005001000000000000000000000000000000009360855000000936085500000000000000000000000000JUROS E ENCARGOS DE MORA SOBRE CRDITOS PREVIDENCIRIOS  INTRA OFSS                                                                                   S05 NP 
442520100000000000005001000000000000000000000000000000009360855000000936085500000000000000000000000000MULTAS E JUROS SOBRE CONTRIBUIES PREVIDENCIRIAS  INTRA OFSS                                                                                         S06 NP 
442520199000000000005001000000000000000000000000000000009360855000000936085500000000000000000000000000DEMAIS MULTAS E JUROS SOBRE CONTRIBUIES PREVIDENCIRIAS                                                                                              A07 SP 
445000000000000000005001000000000000000000000000000000317108994000031710899400000000000000000000000000REMUNERAO DE DEPSITOS BANCRIOS E APLICAES FINANCEIRAS                                                                                               S03 NP 
445100000000000000005001000000000000000000000000000000317108994000031710899400000000000000000000000000REMUNERAO DE DEPSITOS BANCRIOS                                                                                                                      S04 NP 
445110000000000000005001000000000000000000000000000000317108994000031710899400000000000000000000000000REMUNERAO DE DEPSITOS BANCRIOS - CONSOLIDAO                                                                                                         S05 NP 
445110300000000000005001000000000000000000000000000000317108994000031710899400000000000000000000000000REMUNERAO DOS INVESTIMENTOS DO REGIME PRPRIO DE PREVIDNCIA SOCIAL                                                                                   A06 SP 
490000000000000000005001000000000000000000000000000000145194980000014519498000000000000000000000000000OUTRAS VARIAES PATRIMONIAIS AUMENTATIVAS                                                                                                            S02 NP 
497000000000000000005001000000000000000000000000000000130519644000013051964400000000000000000000000000REVERSO DE PROVISES E AJUSTES DE PERDAS                                                                                                             S03 NP 
497100000000000000005001000000000000000000000000000000130519644000013051964400000000000000000000000000REVERSO DE PROVISES                                                                                                                                 S04 NP 
497110000000000000005001000000000000000000000000000000130519644000013051964400000000000000000000000000REVERSO DE PROVISES  CONSOLIDAO                                                                                                                     S05 NP 
497110200000000000005001000000000000000000000000000000130519644000013051964400000000000000000000000000REVERSO DE PROVISES MATEMTICAS PREVIDENCIRIAS A LONGO PRAZO                                                                                         A06 SP 
499000000000000000005001000000000000000000000000000000014675336000001467533600000000000000000000000000DIVERSAS VARIAES PATRIMONIAIS AUMENTATIVAS                                                                                                          S03 NP 
499100000000000000005001000000000000000000000000000000014675336000001467533600000000000000000000000000COMPENSAO FINANCEIRA ENTRE RGPS/RPPS                                                                                                                S04 NP 
499130000000000000005001000000000000000000000000000000014569250000001456925000000000000000000000000000COMPENSAO FINANCEIRA ENTRE RGPS/RPPS - INTER OFSS - UNIO                                                                                            S05 NP 
499130100000000000005001000000000000000000000000000000014569250000001456925000000000000000000000000000COMPENSAES FINANCEIRAS ENTRE O REGIME GERAL E OS REGIMES PRPRIOS DE PREVIDNCIA DOS SERVIDORES                                                       A06 SP 
499150000000000000005001000000000000000000000000000000000106086000000010608600000000000000000000000000COMPENSAO FINANCEIRA ENTRE RGPS/RPPS - INTER OFSS - MUNICPIO                                                                                        S05 NP 
499150100000000000005001000000000000000000000000000000000106086000000010608600000000000000000000000000RPPS TRS DE MAIO RS                                                                                                                                 A06 SP 
500000000000000000005001000000389193500000000000000002494142894000249680882900000012260000000000000000CONTROLES DA APROVAO DO PLANEJAMENTO E ORAMENTO                                                                                                     S01 NO 
520000000000000000005001000000000000000000000000000002485389959000248538995900000000000000000000000000ORAMENTO APROVADO                                                                                                                                   S02 NO 
521000000000000000005001000000000000000000000000000000890785000000089078500000000000000000000000000000PREVISO DA RECEITA                                                                                                                                  S03 NO 
521100000000000000005001000000000000000000000000000000890785000000089078500000000000000000000000000000PREVISO INICIAL DA RECEITA                                                                                                                          S04 NO 
521110000000000000005001000000000000000000000000000000890785000000089078500000000000000000000000000000PREVISAO INICIAL DA RECEITA  BRUTA                                                                                                                  A05 SO 
522000000000000000005001000000000000000000000000000001594604959000159460495900000000000000000000000000FIXAO DA DESPESA                                                                                                                                    S03 NO 
522100000000000000005001000000000000000000000000000001009415400000100941540000000000000000000000000000DOTAO ORAMENTRIA                                                                                                                                    S04 NO 
522110000000000000005001000000000000000000000000000000890785000000089078500000000000000000000000000000DOTAO INICIAL                                                                                                                                       S05 NO 
522110100000000000005001000000000000000000000000000000890785000000089078500000000000000000000000000000CREDITO INICIAL                                                                                                                                     A06 SO 
522120000000000000005001000000000000000000000000000000029657600000002965760000000000000000000000000000DOTAO ADICIONAL POR TIPO DE CREDITO                                                                                                                 S05 NO 
522120100000000000005001000000000000000000000000000000029657600000002965760000000000000000000000000000CREDITO ADICIONAL  SUPLEMENTAR                                                                                                                      A06 SO 
522130000000000000005001000000000000000000000000000000059315200000005931520000000000000000000000000000DOTAO ADICIONAL POR FONTE                                                                                                                           S05 NO 
522130300000000000005001000000000000000000000000000000029657600000002965760000000000000000000000000000ANULAO DE DOTAO                                                                                                                                     A06 SO 
522139900000000000005001000000000000000000000000000000029657600000002965760000000000000000000000000000VALOR GLOBAL DA DOTAO ADICIONAL POR FONTE                                                                                                           A06 SO 
522190000000000000005001000000000000000000000000000000029657600000002965760000000000000000000000000000CANCELAMENTO/REMANEJAMENTO DE DOTAO                                                                                                                 S05 NO 
522190400000000000005001000000000000000000000000000000029657600000002965760000000000000000000000000000- CANCELAMENTO DE DOTAES                                                                                                                            A06 SO 
522900000000000000005001000000000000000000000000000000585189559000058518955900000000000000000000000000OUTROS CONTROLES DA DESPESA ORAMENTRIA                                                                                                              S04 NO 
522920000000000000005001000000000000000000000000000000585189559000058518955900000000000000000000000000EMPENHOS POR EMISSO                                                                                                                                 S05 NO 
522920100000000000005001000000000000000000000000000000585189559000058518955900000000000000000000000000EXECUO DA DESPESA POR NOTA DE EMPENHO                                                                                                               S06 NO 
522920101000000000005001000000000000000000000000000000572352880000057235288000000000000000000000000000EMISSAO DE EMPENHOS                                                                                                                                 A07 SO 
522920102000000000005001000000000000000000000000000000000126153000000012615300000000000000000000000000REFORO DE EMPENHOS                                                                                                                                  A07 SO 
522920103000000000005001000000000000000000000000000000012710526000001271052600000000000000000000000000- ANULAO DE EMPENHOS                                                                                                                                A07 SO 
530000000000000000005001000000389193500000000000000000008752935000001141887000000012260000000000000000INSCRIO DE RESTOS A PAGAR                                                                                                                           S02 NO 
531000000000000000005001000000379093500000000000000000008550935000001121687000000011250000000000000000INSCRIO DE RP NO PROCESSADOS                                                                                                                        S03 NO 
531100000000000000005001000000000000000000000000000000003790935000000379093500000000000000000000000000RP NO PROCESSADOS INSCRITOS                                                                                                                         A04 SO 
531200000000000000005001000000000000000000000000000000003635000000000363500000000000000000000000000000RP NO PROCESSADOS - EXERCCIOS ANTERIORES                                                                                                            A04 SO 
531700000000000000005001000000379093500000000000000000001125000000000379093500000011250000000000000000RP NO PROCESSADOS - INSCRIO NO EXERCCIO                                                                                                             A04 SO 
532000000000000000005001000000010100000000000000000000000202000000000020200000000001010000000000000000INSCRIO DE RP PROCESSADOS                                                                                                                           S03 NO 
532200000000000000005001000000010100000000000000000000000202000000000020200000000001010000000000000000RP PROCESSADOS - EXERCCIOS ANTERIORES                                                                                                               A04 SO 
600000000000000000005001000000000000000000038919350006264194329000626152839400000000000000000001226000CONTROLES DA EXECUO DO PLANEJAMENTO E ORAMENTO                                                                                                      S01 NO 
620000000000000000005001000000000000000000000000000006248061524000624806152400000000000000000000000000EXECUO DO ORAMENTO                                                                                                                                  S02 NO 
621000000000000000005001000000000000000000000000000001935487664000193548766400000000000000000000000000EXECUO DA RECEITA                                                                                                                                   S03 NO 
621100000000000000005001000000000000000000000000000000958901242000095890124200000000000000000000000000RECEITA A REALIZAR                                                                                                                                  A04 SO 
621200000000000000005001000000000000000000000000000000958901242000095890124200000000000000000000000000RECEITA REALIZADA                                                                                                                                   A04 SO 
621300000000000000005001000000000000000000000000000000017685180000001768518000000000000000000000000000- DEDUES DA RECEITA ORAMENTRIA                                                                                                                      S04 NO 
621390000000000000005001000000000000000000000000000000017685180000001768518000000000000000000000000000- OUTRAS DEDUES DA RECEITA REALIZADA                                                                                                                A05 SO 
622000000000000000005001000000000000000000000000000004312573860000431257386000000000000000000000000000EXECUO DA DESPESA                                                                                                                                   S03 NO 
622100000000000000005001000000000000000000000000000002622882053000262288205300000000000000000000000000DISPONIBILIDADES DE CREDITO                                                                                                                         S04 NO 
622110000000000000005001000000000000000000000000000000933190246000093319024600000000000000000000000000CREDITO DISPONVEL                                                                                                                                   A05 SO 
622130000000000000005001000000000000000000000000000001689691807000168969180700000000000000000000000000CREDITO UTILIZADO                                                                                                                                   S05 NO 
622130100000000000005001000000000000000000000000000000572479033000057247903300000000000000000000000000CREDITO EMPENHADO A LIQUIDAR                                                                                                                        A06 SO 
622130300000000000005001000000000000000000000000000000558606387000055860638700000000000000000000000000CREDITO EMPENHADO LIQUIDADO A PAGAR                                                                                                                 A06 SO 
622130400000000000005001000000000000000000000000000000558606387000055860638700000000000000000000000000CREDITO EMPENHADO LIQUIDADO PAGO                                                                                                                    A06 SO 
622900000000000000005001000000000000000000000000000001689691807000168969180700000000000000000000000000OUTROS CONTROLES DA DESPESA ORAMENTRIA                                                                                                              S04 NO 
622920000000000000005001000000000000000000000000000001689691807000168969180700000000000000000000000000EMISSO DE EMPENHO                                                                                                                                   S05 NO 
622920100000000000005001000000000000000000000000000001689691807000168969180700000000000000000000000000EMPENHOS POR NOTA DE EMPENHO                                                                                                                        S06 NO 
622920101000000000005001000000000000000000000000000000572479033000057247903300000000000000000000000000EMPENHOS A LIQUIDAR                                                                                                                                 A07 SO 
622920103000000000005001000000000000000000000000000000558606387000055860638700000000000000000000000000EMPENHOS LIQUIDADOS A PAGAR                                                                                                                         A07 SO 
622920104000000000005001000000000000000000000000000000558606387000055860638700000000000000000000000000EMPENHOS LIQUIDADOS PAGOS                                                                                                                           A07 SO 
630000000000000000005001000000000000000000038919350000016132805000001346687000000000000000000001226000EXECUO DE RESTOS A PAGAR                                                                                                                            S02 NO 
631000000000000000005001000000000000000000037909350000016132805000001346687000000000000000000001125000EXECUO DE RP NO PROCESSADOS                                                                                                                         S03 NO 
631100000000000000005001000000000000000000000000000000003790935000000379093500000000000000000000000000RP NO PROCESSADOS A LIQUIDAR                                                                                                                        A04 SO 
631300000000000000005001000000000000000000000000000000003635000000000363500000000000000000000000000000RP NO PROCESSADOS LIQUIDADOS A PAGAR                                                                                                                A04 SO 
631400000000000000005001000000000000000000000000000000003635000000000363500000000000000000000000000000RP NO PROCESSADOS PAGOS                                                                                                                             A04 SO 
631700000000000000005001000000000000000000037909350000004915935000000225000000000000000000000001125000RP NO PROCESSADOS - INSCRIO NO EXERCCIO                                                                                                             S04 NO 
631710000000000000005001000000000000000000037909350000004915935000000225000000000000000000000001125000RP NO PROCESSADOS A LIQUIDAR - INSCRIO NO EXERCCIO                                                                                                  A05 SO 
631900000000000000005001000000000000000000000000000000000155935000000015593500000000000000000000000000RP NO PROCESSADOS CANCELADOS                                                                                                                        S04 NO 
631990000000000000005001000000000000000000000000000000000155935000000015593500000000000000000000000000OUTROS CANCELAMENTOS DE RP                                                                                                                          A05 SO 
632000000000000000005001000000000000000000001010000000000000000000000000000000000000000000000000101000EXECUO DE RP PROCESSADOS                                                                                                                            S03 NO 
632100000000000000005001000000000000000000001010000000000000000000000000000000000000000000000000101000RP PROCESSADOS A PAGAR                                                                                                                              A04 SO 
700000000000000000005001000367685320000000000000000001272929340000058892500800043608575320000000000000CONTROLES DEVEDORES                                                                                                                                 S01 NC 
710000000000000000005001000000769642800000000000000000001875000000000000000000000095714280000000000000ATOS POTENCIAIS                                                                                                                                     S02 NC 
712000000000000000005001000000769642800000000000000000001875000000000000000000000095714280000000000000ATOS POTENCIAIS PASSIVOS                                                                                                                            S03 NC 
712300000000000000005001000000769642800000000000000000001875000000000000000000000095714280000000000000OBRIGAES CONTRATUAIS                                                                                                                                S04 NC 
712310000000000000005001000000769642800000000000000000001875000000000000000000000095714280000000000000OBRIGAES CONTRATUAIS - CONSOLIDAO                                                                                                                   S05 NC 
712310200000000000005001000000769642800000000000000000001875000000000000000000000095714280000000000000CONTRATOS DE SERVIOS                                                                                                                                A06 SC 
720000000000000000005001000366915677200000000000000000959055669000058892500800040392874330000000000000ADMINISTRAO FINANCEIRA                                                                                                                              S02 NC 
721000000000000000005001000366915677200000000000000000959055669000058892500800040392874330000000000000DISPONIBILIDADES POR DESTINAO                                                                                                                       S03 NC 
721100000000000000005001000366915677200000000000000000959055669000058892500800040392874330000000000000CONTROLE DA DISPONIBILIDADE DE RECURSOS                                                                                                             S04 NC 
721120000000000000005001000366915677200000000000000000958901242000058877058100040392874330000000000000RECURSOS VINCULADOS                                                                                                                                 S05 NC 
721120800000000000005001000364479089800000000000000000925094256000056402752000040058576340000000000000DDR RECURSO VINCULADOS - RPPS PLANO PREVIDENCIRIO                                                                                                   A06 SC 
721120802000000000005001000002436587400000000000000000033806986000002474306100000334297990000000000000DDR RECURSO VINCULADOS - RPPS TAXA DE ADMINISTRAO                                                                                                   A07 SC 
721130000000000000005001000000000000000000000000000000000154427000000015442700000000000000000000000000RECURSOS EXTRA-ORAMENTRIOS                                                                                                                          S05 NC 
721130869000000000005001000000000000000000000000000000000154427000000015442700000000000000000000000000DDR RECURSO VINCULADOS - OUTROS RECURSOS EXTRAORAMENTRIOS                                                                                           A07 SC 
790000000000000000005001000000000000000000000000000000311998671000000000000000003119986710000000000000OUTROS CONTROLES                                                                                                                                    S02 NC 
795000000000000000005001000000000000000000000000000000311998671000000000000000003119986710000000000000CONTROLES DO RPPS                                                                                                                                   S03 NC 
795100000000000000005001000000000000000000000000000000311998671000000000000000003119986710000000000000CONTROLES PARA CONSOLIDAO DO RPPS                                                                                                                   S04 NC 
795120000000000000005001000000000000000000000000000000311998671000000000000000003119986710000000000000CONTROLES DA PMP DO RPPS                                                                                                                            A05 SC 
800000000000000000005001000000000000000036768532000002305613168000298961750000000000000000004360857532CONTROLES CREDORES                                                                                                                                  S01 NC 
810000000000000000005001000000000000000000076964280000006405178000000828017800000000000000000009571428EXECUO DOS ATOS POTENCIAIS                                                                                                                          S02 NC 
812000000000000000005001000000000000000000076964280000006405178000000828017800000000000000000009571428EXECUO DOS ATOS POTENCIAIS PASSIVOS                                                                                                                 S03 NC 
812300000000000000005001000000000000000000076964280000006405178000000828017800000000000000000009571428EXECUO DE OBRIGAES CONTRATUAIS                                                                                                                      S04 NC 
812310000000000000005001000000000000000000076964280000006405178000000828017800000000000000000009571428EXECUO DE OBRIGAES -CONSOLIDAO                                                                                                                      S05 NC 
812310200000000000005001000000000000000000076964280000006405178000000828017800000000000000000009571428CONTRATOS DE SERVIOS                                                                                                                                S06 NC 
812310201000000000005001000000000000000000076964280000006405178000000187500000000000000000000003166250A EXECUTAR                                                                                                                                          A07 SC 
812310202000000000005001000000000000000000000000000000000000000000000640517800000000000000000006405178EXECUTADOS                                                                                                                                          A07 SC 
820000000000000000005001000000000000000036691567720002299207990000266933865100000000000000004039287433EXECUO DA ADMINISTRAO FINANCEIRA                                                                                                                    S02 NC 
821000000000000000005001000000000000000036691567720002299207990000266933865100000000000000004039287433EXECUO DAS DISPONIBILIDADES POR DESTINAO                                                                                                            S03 NC 
821100000000000000005001000000000000000036691567720002299207990000266933865100000000000000004039287433EXECUO DA DISPONIBILIDADE DE RECURSOS                                                                                                               S04 NC 
821110000000000000005001000000000000000036652648370000599008227000097180482300000000000000004038061433DISPONIBILIDADE POR DESTINAO DE RECURSOS                                                                                                            S05 NC 
821110108000000000005001000000000000000036445339630000576478944000093770161500000000000000004005756634DDR  DISPONVEIS PARA O EXERCCIO - RPPS PLANO PREVIDENCIRIO                                                                                          A07 SC 
821110108020000000005001000000000000000000207308740000022529283000003410320800000000000000000032304799DDR  DISPONVEIS PARA O EXERCCIO - RPPS TAXA DE ADMINISTRAO                                                                                          A08 SC 
821120000000000000005001000000000000000000037909350000575144968000057247903300000000000000000001125000DISPONIBILIDADE POR DESTINAO DE RECURSOS COMPROMETIDA POR EMPENHO                                                                                   S05 NC 
821120108000000000005001000000000000000000001559350000550105685000054994975000000000000000000000000000DDR COMPROMETIDA POR EMPENHO - RPPS PLANO PREVIDENCIRIO                                                                                             A07 SC 
821120108020000000005001000000000000000000036350000000025039283000002252928300000000000000000001125000DDR COMPROMETIDA POR EMPENHO - RPPS TAXA DE ADMINISTRAO                                                                                             A08 SC 
821130000000000000005001000000000000000000001010000000562395814000056239581400000000000000000000101000DISPONIBILIDADE POR DESTINAO DE RECURSOS COMPROMETIDA POR LIQUIDAO E ENTRADAS COMPENSATRIAS                                                         S05 NC 
821130100000000000005001000000000000000000001010000000562241387000056224138700000000000000000000101000COMPROMETIDA POR LIQUIDAO                                                                                                                           S06 NC 
821130100500800000005001000000000000000000001010000000000000000000000000000000000000000000000000101000DDR COMPROMETIDA POR LIQUIDAO - RPPS                                                                                                                A09 SC 
821130108000000000005001000000000000000000000000000000537498326000053749832600000000000000000000000000DDR COMPROMETIDA POR LIQUIDAO - RPPS PLANO PREVIDENCIRIO                                                                                            A07 SC 
821130108020000000005001000000000000000000000000000000024743061000002474306100000000000000000000000000DDR COMPROMETIDA POR LIQUIDAO - RPPS TAXA DE ADMINISTRAO                                                                                            A08 SC 
821130208690000000005001000000000000000000000000000000000154427000000015442700000000000000000000000000DDR COMPROMETIDA POR RETENES E CONSIGNAES - OUTROS RECURSOS EXTRAORAMENTRIOS                                                                        A08 SC 
821140000000000000005001000000000000000000000000000000562658981000056265898100000000000000000000000000DISPONIBILIDADE POR DESTINAO DE RECURSOS UTILIZADA                                                                                                  S05 NC 
821140100000000000005001000000000000000000000000000000562504554000056250455400000000000000000000000000UTILIZADA COM EXECUO ORAMENTRIA                                                                                                                     S06 NC 
821140108000000000005001000000000000000000000000000000537761493000053776149300000000000000000000000000DDR UTILIZADA COM EXECUO ORAMENTRIA - RPPS PLANO PREVIDENCIRIO                                                                                      A07 SC 
821140108020000000005001000000000000000000000000000000024743061000002474306100000000000000000000000000DDR UTILIZADA COM EXECUO ORAMENTRIA - RPPS TAXA DE ADMINISTRAO                                                                                      A08 SC 
821140208690000000005001000000000000000000000000000000000154427000000015442700000000000000000000000000DDR UTILIZADA COM EXECUO EXTRA ORAMENTRIA - OUTROS RECURSOS EXTRAORAMENTRIOS                                                                        A08 SC 
890000000000000000005001000000000000000000000000000000000000000000031199867100000000000000000311998671OUTROS CONTROLES                                                                                                                                    S02 NC 
895000000000000000005001000000000000000000000000000000000000000000031199867100000000000000000311998671CONTROLES DO RPPS                                                                                                                                   S03 NC 
895100000000000000005001000000000000000000000000000000000000000000031199867100000000000000000311998671CONTROLES PARA CONSOLIDAO DO RPPS                                                                                                                   S04 NC 
895120000000000000005001000000000000000000000000000000000000000000031199867100000000000000000311998671CONTROLES DA PMP DO RPPS - PUC                                                                                                                      A05 SC 
FINALIZADOR0000000348