12091144000180010120253101202501022025FUNDO DE PREVIDENCIA SOCIAL RPPS                                                
100000000000000000005001000035388204400002982000360000397659685000034414572800025943567250002514589192000108193623100010152376420000477854946000041472530800027806590900002756651680
110000000000000000005001000035388204400002982000360000397659685000034414572800025943567250002514589192000108193623100010152376420000477854946000041472530800027712982350002719959299
111000000000000000005001000015097500200001504091590000173009276000017521239400013857391130001383723804000050778730300005063302480000223213877000022030256900011585329690001154215441
111100000000000000005001000015097063900001504047960000172950150000017515326800013857303870001383715078000050777721400005063201590000223169151000022025784300011585055720001154188044
111110000000000000005001000015097063900001504047960000172950150000017515326800013857303870001383715078000050777721400005063201590000223169151000022025784300011585055720001154188044
111110600000000000005001000014982823100001498282310000170865648000017086564800013830624580001383062458000050510048200005051004820000217627883000021762788300011519005770001151900577
111110601010000000005001000000000000000000000000000000000000000000000000000000002500000000000250000000000000000000000000000000000000000000000000000000000000000000000000000000000000
111110601020000000001201000000794631000000079463100000000000000000000000000000003000000000000300000000000029847655900002984765590000000000000000000000000000000000000000000000000000
111110601050000000001201000013984456700001398445670000163348839000016334883900008285575720000828557572000020184998800002018499880000208562395000020856239500011368943670001136894367
111110604000000000005001000000203735400000020373540000007516809000000751680900000045048860000004504886000000477393500000047739350000009065488000000906548800000150062100000015006210
111110604010000000001201000000203735400000020373540000007516809000000751680900000045048860000004504886000000477393500000047739350000009065488000000906548800000150062100000015006210
111115200000000000005001000000114240800000005765650000002084502000000428762000000026679290000000652620000000267673200000012196770000005541268000000262996000000066049950000002287467
111115201000000000001201000000114240800000005765650000002084502000000428762000000026679290000000652620000000267673200000012196770000005541268000000262996000000066049950000002287467
111300000000000000005001000000000436300000000043630000000059126000000005912600000000087260000000008726000000001008900000000100890000000044726000000004472600000000273970000000027397
111310000000000000005001000000000436300000000043630000000059126000000005912600000000087260000000008726000000001008900000000100890000000044726000000004472600000000273970000000027397
111310100000000000005001000000000436300000000043630000000059126000000005912600000000087260000000008726000000001008900000000100890000000044726000000004472600000000273970000000027397
111310101000000000001201000000000436300000000043630000000059126000000005912600000000087260000000008726000000001008900000000100890000000044726000000004472600000000273970000000027397
112000000000000000005001000000000000000000184478040000000000000000000000000000000000000000000000000000000000000000000000000000000000000000000000000000000000000184478040000000000000
112100000000000000005001000000000000000000184478040000000000000000000000000000000000000000000000000000000000000000000000000000000000000000000000000000000000000184478040000000000000
112120000000000000005001000000000000000000184478040000000000000000000000000000000000000000000000000000000000000000000000000000000000000000000000000000000000000184478040000000000000
112127100000000000005001000000000000000000184478040000000000000000000000000000000000000000000000000000000000000000000000000000000000000000000000000000000000000184478040000000000000
112127101000000000005001000000000000000000184478040000000000000000000000000000000000000000000000000000000000000000000000000000000000000000000000000000000000000184478040000000000000
113000000000000000005001000008177427400000402315390000093289298000008773516400001069572800000105591682000009786932400000975086560000098097993000009786619900001311999830000180254912
113600000000000000005001000008177427400000402315390000093289298000008773516400001069572800000105591682000009786932400000975086560000098097993000009786619900001311999830000180254912
113620000000000000005001000008177427400000402315390000093289298000008773516400001069572800000105591682000009786932400000975086560000098097993000009786619900001311999830000180254912
113620100000000000005001000008177427400000402315390000093289298000008773516400001069572800000105591682000009786932400000975086560000098097993000009786619900001311999830000180254912
113620101010000000005001000002396141900000119204550000027812269000002589860400000316910480000031286426000002918641200000288914570000029010343000002912975400000450380790000059572874
113620101020000000005001000003661476900000178806830000041376723000003917886500000475365720000046929639000004330939200000433371860000043703604000004341249500000467551570000068557349
113620102000000000005001000002119808600000104304010000024100306000002265769500000277296600000027375617000002537352000000252800130000025384046000002532395000000394067470000052124689
114000000000000000005001000012113276800000891115340000131361111000008119817000011016603320001025273706000047627960400004113987380000156543076000009655654000014631174790001385488946
114400000000000000005001000012113276800000891115340000131361111000008119817000011016603320001025273706000047627960400004113987380000156543076000009655654000014631174790001385488946
114410000000000000005001000012113276800000891115340000131361111000008119817000011016603320001025273706000047627960400004113987380000156543076000009655654000014631174790001385488946
114410100000000000005001000005860718000000079463100000041938414000000525463500009960752460000702307816000036883333300003188255120000048868830000000034649600007532479220001266854743
114410102000000000005001000002335437300000079463100000017726624000000285948100005752076100000400898039000003798960700003070574060000017808908000000034649600007287933930000843364543
114410102010000000001201000000510716500000079463100000004704027000000000000000000057377750000000000000000001287158900002984765590000000000000000000000000000000000000000000000000000
114410102020000000001201000000401832900000000000000000003473518000000000000000000034780480000000000000000000430898200000000000000000004292496000000000000000003044770140000000000000
114410102030000000005001000000000000000000000000000000000000000000000000000000003006348720000000898039000000537267500000085808470000001032052000000034649600000000000000000004185370
114410102040000000001201000000881352100000000000000000005409065000000162416800000085576400000400000000000000470638700000000000000000003702961000000000000000000014015490000341923632
114410102050000000001201000000541535800000000000000000004140014000000123531300000062166150000000000000000000675885300000000000000000006298105000000000000000000015841010000496081620
114410102060000000005001000000000000000000000000000000000000000000000000000000002505826600000000000000000000397112100000000000000000002483294000000000000000000003246560000001173921
114410102070000000005001000000000000000000000000000000000000000000000000000000000000000000000000000000000000000000000000000000000000000000000000000000000000004210060730000000000000
114410103000000000005001000000488109500000000000000000001940321000000239515400004038776520000001409777000001285669300000117681060000007349427000000000000000000020365960000423490200
114410103010000000001201000000488109500000000000000000001940321000000239515400000024463400000001409777000000757685900000000000000000001854977000000000000000000000000000000423490200
114410103020000000005001000000000000000000000000000000000000000000000000000000004014313120000000000000000000527983400000117681060000005494450000000000000000000020365960000000000000
114410105000000000005001000003037171200000000000000000022271469000000000000000000169899840000300000000000031798703300000000000000000023710495000000000000000000224179330000000000000
114410105030000000001201000001950834500000000000000000011449048000000000000000000067235950000300000000000030638324000000000000000000011929518000000000000000000112540970000000000000
114410105040000000001201000001086336700000000000000000010822421000000000000000000102663890000000000000000001160379300000000000000000011780977000000000000000000111638360000000000000
114419901000000000001201000006252558800000811652240000089422697000007594353500001055850860000322965890000010744627100000925732260000107674246000009621004400007098695570000118634203
120000000000000000005001000000000000000000000000000000000000000000000000000000000000000000000000000000000000000000000000000000000000000000000000000000000000000093608550000036692381
121000000000000000005001000000000000000000000000000000000000000000000000000000000000000000000000000000000000000000000000000000000000000000000000000000000000000093608550000036692381
121100000000000000005001000000000000000000000000000000000000000000000000000000000000000000000000000000000000000000000000000000000000000000000000000000000000000093608550000036692381
121120000000000000005001000000000000000000000000000000000000000000000000000000000000000000000000000000000000000000000000000000000000000000000000000000000000000093608550000036692381
121120600000000000005001000000000000000000000000000000000000000000000000000000000000000000000000000000000000000000000000000000000000000000000000000000000000000093608550000018447804
121120604010000000005001000000000000000000000000000000000000000000000000000000000000000000000000000000000000000000000000000000000000000000000000000000000000000093608550000018447804
121120800000000000005001000000000000000000000000000000000000000000000000000000000000000000000000000000000000000000000000000000000000000000000000000000000000000000000000000018244577
121120802000000000005001000000000000000000000000000000000000000000000000000000000000000000000000000000000000000000000000000000000000000000000000000000000000000000000000000018244577
200000000000000000005001000281032862300028179851110003442401524000344745416400000751924550000082286044000009514823600001221045420000100229972000008451307300023858661900002697623201
210000000000000000005001000008249483300000901513210000081802488000008685512800000751924550000082286044000009514823600001221045420000100229972000008451307300001634108110000132368687
211000000000000000005001000004663296800000542894560000077774450000008282709000000748498170000081943406000009459055000001215468560000098843028000008312612900001603277860000129285662
211100000000000000005001000000024283200000061967320000000485664000000656206400000004856640000006532564000000067208000000068114800000001287742000000744064200000708968010000040527301
211110000000000000005001000000024283200000061967320000000485664000000656206400000004856640000006532564000000067208000000068114800000001287742000000744064200000708968010000040527301
211110100000000000005001000000024283200000061967320000000485664000000656206400000004856640000006532564000000067208000000068114800000001287742000000744064200000708968010000040527301
211110101000000000005001000000024283200000002428320000000485664000000048566400000004856640000000485664000000067208000000006720800000001287742000000128774200000009811390000000981139
211110101020000000005001000000024283200000002428320000000485664000000048566400000004856640000000485664000000067208000000006720800000001287742000000128774200000009811390000000981139
211110102000000000005001000000000000000000059539000000000000000000000607640000000000000000000006046900000000000000000000061394000000000000000000000615290000000699156620000039546162
211110102010000000005001000000000000000000059539000000000000000000000607640000000000000000000006046900000000000000000000061394000000000000000000000615290000000357819810000005412481
211110102020000000005001000000000000000000000000000000000000000000000000000000000000000000000000000000000000000000000000000000000000000000000000000000000000000341336810000034133681
211200000000000000005001000004639013600000474200950000075943535000007491978000000729720940000074018785000009257322600001133901330000096210044000007434024200000828522220000082852222
211210000000000000005001000003569410100000356941010000071931616000007193782000000719191990000071912995000007267776000000726777600000072799201000007279920100000730280920000073028092
211210100000000000005001000003569410100000356941010000071931616000007193782000000719191990000071912995000007267776000000726777600000072799201000007279920100000730280920000073028092
211210102000000000005001000003569410100000356941010000071931616000007193782000000719191990000071912995000007267776000000726777600000072799201000007279920100000730280920000073028092
211230000000000000005001000000891442700000098255900000002759839000000184867600000009127730000001825546000001817873200000391357610000023078485000000120868300000088389000000008838900
211230500000000000005001000000891442700000098255900000002759839000000184867600000009127730000001825546000001817873200000391357610000023078485000000120868300000088389000000008838900
211230501000000000005001000000891442700000098255900000002759839000000184867600000009127730000001825546000001817873200000391357610000023078485000000120868300000088389000000008838900
211230501020000000005001000000891442700000098255900000002759839000000184867600000009127730000001825546000001817873200000391357610000023078485000000120868300000088389000000008838900
211240000000000000005001000000114110100000011714440000000986721000000095637800000000516690000000103338000000010333800000000516690000000083591000000008359100000007274700000000727470
211240500000000000005001000000114110100000011714440000000986721000000095637800000000516690000000103338000000010333800000000516690000000083591000000008359100000007274700000000727470
211240501000000000005001000000114110100000011714440000000986721000000095637800000000516690000000103338000000010333800000000516690000000083591000000008359100000007274700000000727470
211240501020000000005001000000114110100000011714440000000986721000000095637800000000516690000000103338000000010333800000000516690000000083591000000008359100000007274700000000727470
211250000000000000005001000000064050700000007289600000000265359000000017690600000000884530000000176906000000161339600000015249430000000248767000000024876700000002577600000000257760
211250500000000000005001000000064050700000007289600000000265359000000017690600000000884530000000176906000000161339600000015249430000000248767000000024876700000002577600000000257760
211250501000000000005001000000064050700000007289600000000265359000000017690600000000884530000000176906000000161339600000015249430000000248767000000024876700000002577600000000257760
211250501020000000005001000000064050700000007289600000000265359000000017690600000000884530000000176906000000161339600000015249430000000248767000000024876700000002577600000000257760
211400000000000000005001000000000000000000006726290000001345251000000134524600000013920590000001392057000000134524400000013452430000001345242000000134524500000065787630000005906139
211420000000000000005001000000000000000000006726290000001345251000000134524600000013920590000001392057000000134524400000013452430000001345242000000134524500000065787630000005906139
211420100000000000005001000000000000000000006726290000001345251000000134524600000013920590000001392057000000134524400000013452430000001345242000000134524500000065787630000005906139
211420102000000000005001000000000000000000006726290000001345251000000134524600000013920590000001392057000000134524400000013452430000001345242000000134524500000065787630000005906139
213000000000000000005001000003585750200000358575020000003968912000000396891200000003339120000000333912000000039089800000003908980000001326210000000132621000000025681200000002568120
213100000000000000005001000003585750200000358575020000003968912000000396891200000003339120000000333912000000039089800000003908980000001326210000000132621000000025681200000002568120
213110000000000000005001000003585750200000358575020000003968912000000396891200000003339120000000333912000000039089800000003908980000001326210000000132621000000025681200000002568120
213110100000000000005001000003585750200000358575020000003968912000000396891200000003339120000000333912000000039089800000003908980000001326210000000132621000000025681200000002568120
213110101000000000005001000003585750200000358575020000003968912000000396891200000003339120000000333912000000039089800000003908980000001326210000000132621000000025681200000002568120
213110101010000000005001000003585750200000358575020000000333912000000033391200000003339120000000333912000000039089800000003908980000001326210000000132621000000024671200000002467120
213110101020000000005001000000000000000000000000000000003635000000000363500000000000000000000000000000000000000000000000000000000000000000000000000000000000000001010000000000101000
213110101021600000005001000000000000000000000000000000000000000000000000000000000000000000000000000000000000000000000000000000000000000000000000000000000000000000000000000000000000
213110101021700000005001000000000000000000000000000000003635000000000363500000000000000000000000000000000000000000000000000000000000000000000000000000000000000000000000000000000000
213110101021800000005001000000000000000000000000000000000000000000000000000000000000000000000000000000000000000000000000000000000000000000000000000000000000000001010000000000101000
218000000000000000005001000000000436300000000043630000000059126000000005912600000000087260000000008726000000016678800000001667880000000060734000000006073400000005149050000000514905
218800000000000000005001000000000436300000000043630000000059126000000005912600000000087260000000008726000000001008900000000100890000000044726000000004472600000000273970000000027397
218820000000000000005001000000000436300000000043630000000059126000000005912600000000087260000000008726000000001008900000000100890000000044726000000004472600000000273970000000027397
218829901000000000005001000000000436300000000043630000000059126000000005912600000000087260000000008726000000001008900000000100890000000044726000000004472600000000273970000000027397
218829901020000000005001000000000436300000000043630000000059126000000005912600000000087260000000008726000000001008900000000100890000000044726000000004472600000000273970000000027397
218900000000000000005001000000000000000000000000000000000000000000000000000000000000000000000000000000000000015669900000001566990000000016008000000001600800000004875080000000487508
218910000000000000005001000000000000000000000000000000000000000000000000000000000000000000000000000000000000015669900000001566990000000016008000000001600800000004875080000000487508
218910200000000000005001000000000000000000000000000000000000000000000000000000000000000000000000000000000000015669900000001566990000000016008000000001600800000004875080000000487508
220000000000000000005001000000000000000000000000000000000000000000000000000000000000000000000000000000000000000000000000000000000000000000000000000000000000007306277320001493501424
227000000000000000005001000000000000000000000000000000000000000000000000000000000000000000000000000000000000000000000000000000000000000000000000000000000000007306277320001493501424
227200000000000000005001000000000000000000000000000000000000000000000000000000000000000000000000000000000000000000000000000000000000000000000000000000000000007306277320001493501424
227210000000000000005001000000000000000000000000000000000000000000000000000000000000000000000000000000000000000000000000000000000000000000000000000000000000007306277320001493501424
227210300000000000005001000000000000000000000000000000000000000000000000000000000000000000000000000000000000000000000000000000000000000000000000000000000000002364789190000442938260
227210301000000000005001000000000000000000000000000000000000000000000000000000000000000000000000000000000000000000000000000000000000000000000000000000000000000000000000000349746117
227210303000000000005001000000000000000000000000000000000000000000000000000000000000000000000000000000000000000000000000000000000000000000000000000000000000000853451230000000000000
227210304000000000005001000000000000000000000000000000000000000000000000000000000000000000000000000000000000000000000000000000000000000000000000000000000000000206141520000000000000
227210305000000000005001000000000000000000000000000000000000000000000000000000000000000000000000000000000000000000000000000000000000000000000000000000000000000000000000000052063189
227210399000000000005001000000000000000000000000000000000000000000000000000000000000000000000000000000000000000000000000000000000000000000000000000000000000001305196440000041128954
227210400000000000005001000000000000000000000000000000000000000000000000000000000000000000000000000000000000000000000000000000000000000000000000000000000000004941488130001050563164
227210401000000000005001000000000000000000000000000000000000000000000000000000000000000000000000000000000000000000000000000000000000000000000000000000000000000000000000000865325672
227210402000000000005001000000000000000000000000000000000000000000000000000000000000000000000000000000000000000000000000000000000000000000000000000000000000000000000000000168455484
227210403000000000005001000000000000000000000000000000000000000000000000000000000000000000000000000000000000000000000000000000000000000000000000000000000000004941488130000000000000
227210404000000000005001000000000000000000000000000000000000000000000000000000000000000000000000000000000000000000000000000000000000000000000000000000000000000000000000000016782008
230000000000000000005001000272783379000027278337900003360599036000336059903600000000000000000000000000000000000000000000000000000000000000000000000000000000014918276470001071753090
236000000000000000005001000000000000000000000000000000000000000000000000000000000000000000000000000000000000000000000000000000000000000000000000000000000000004657492900000000000000
236200000000000000005001000000000000000000000000000000000000000000000000000000000000000000000000000000000000000000000000000000000000000000000000000000000000004657492900000000000000
236210000000000000005001000000000000000000000000000000000000000000000000000000000000000000000000000000000000000000000000000000000000000000000000000000000000004657492900000000000000
236210100000000000005001000000000000000000000000000000000000000000000000000000000000000000000000000000000000000000000000000000000000000000000000000000000000004657492900000000000000
236210101000000000005001000000000000000000000000000000000000000000000000000000000000000000000000000000000000000000000000000000000000000000000000000000000000004657492900000000000000
237000000000000000005001000272783379000027278337900003360599036000336059903600000000000000000000000000000000000000000000000000000000000000000000000000000000010260783570001071753090
237100000000000000005001000272783379000027278337900003360599036000336059903600000000000000000000000000000000000000000000000000000000000000000000000000000000010260783570001071753090
237110000000000000005001000122385145300012238514530003360599036000000000000000000000000000000000000000000000000000000000000000000000000000000000000000000000009262633070000602240156
237110100000000000005001000000000000000012238514530000000000000000000000000000000000000000000000000000000000000000000000000000000000000000000000000000000000009262633070000602240156
237110200000000000005001000122385145300000000000000000000000000000000000000000000000000000000000000000000000000000000000000000000000000000000000000000000000000000000000000000000000
237110300000000000005001000000000000000000000000000003360599036000000000000000000000000000000000000000000000000000000000000000000000000000000000000000000000000000000000000000000000
237110301000000000005001000000000000000000000000000003360599036000000000000000000000000000000000000000000000000000000000000000000000000000000000000000000000000000000000000000000000
237120000000000000005001000148863024600014886302460000000000000000336059903600000000000000000000000000000000000000000000000000000000000000000000000000000000000309237620000454837598
237120100000000000005001000148863024600000000000000000000000000000000000000000000000000000000000000000000000000000000000000000000000000000000000000000000000000309237620000454837598
237120200000000000005001000000000000000014886302460000000000000000336059903600000000000000000000000000000000000000000000000000000000000000000000000000000000000000000000000000000000
237130000000000000005001000001266632700000126663270000000000000000000000000000000000000000000000000000000000000000000000000000000000000000000000000000000000000626831560000014569250
237130100000000000005001000000000000000000126663270000000000000000000000000000000000000000000000000000000000000000000000000000000000000000000000000000000000000626831560000014569250
237130200000000000005001000001266632700000000000000000000000000000000000000000000000000000000000000000000000000000000000000000000000000000000000000000000000000000000000000000000000
237140000000000000005001000000000000000000000000000000000000000000000000000000000000000000000000000000000000000000000000000000000000000000000000000000000000000030938900000000000000
237140100000000000005001000000000000000000000000000000000000000000000000000000000000000000000000000000000000000000000000000000000000000000000000000000000000000030938900000000000000
237150000000000000005001000000268576400000026857640000000000000000000000000000000000000000000000000000000000000000000000000000000000000000000000000000000000000031142420000000106086
237150100000000000005001000000000000000000026857640000000000000000000000000000000000000000000000000000000000000000000000000000000000000000000000000000000000000031142420000000106086
237150200000000000005001000000268576400000000000000000000000000000000000000000000000000000000000000000000000000000000000000000000000000000000000000000000000000000000000000000000000
300000000000000000005001000009014695800000000000000000097305272000000525463500000845851340000000000000000012209445300000000000000000084814843000000000000000005523863320001026078357
310000000000000000005001000000729915500000000000000000007421646000000000000000000074389570000000000000000000748464300000000000000000007498145000000000000000000113186200000048461166
311000000000000000005001000000595390000000000000000000006076400000000000000000000060469000000000000000000000613940000000000000000000006152900000000000000000000054124810000035781981
311100000000000000005001000000595390000000000000000000006076400000000000000000000060469000000000000000000000613940000000000000000000006152900000000000000000000054124810000035781981
311110000000000000005001000000595390000000000000000000006076400000000000000000000060469000000000000000000000613940000000000000000000006152900000000000000000000054124810000035781981
311110100000000000005001000000595390000000000000000000006076400000000000000000000060469000000000000000000000613940000000000000000000006152900000000000000000000054124810000035781981
311110122000000000005001000000595390000000000000000000006076400000000000000000000060469000000000000000000000613940000000000000000000006152900000000000000000000054124810000035781981
312000000000000000005001000000134525500000000000000000001345246000000000000000000013920570000000000000000000134524300000000000000000001345245000000000000000000059061390000012679185
312100000000000000005001000000134525500000000000000000001345246000000000000000000013920570000000000000000000134524300000000000000000001345245000000000000000000059061390000012679185
312120000000000000005001000000134525500000000000000000001345246000000000000000000013920570000000000000000000134524300000000000000000001345245000000000000000000059061390000012679185
312120100000000000005001000000134525500000000000000000001345246000000000000000000013920570000000000000000000134524300000000000000000001345245000000000000000000059061390000012679185
320000000000000000005001000007046918900000000000000000071937820000000000000000000719129950000000000000000007267776000000000000000000072799201000000000000000000730280920000432825057
321000000000000000005001000005637243100000000000000000057841062000000000000000000584531160000000000000000005814003400000000000000000058224322000000000000000000587898980000347820863
321100000000000000005001000005637243100000000000000000057841062000000000000000000584531160000000000000000005814003400000000000000000058224322000000000000000000587898980000347820863
321110000000000000005001000005637243100000000000000000057841062000000000000000000584531160000000000000000005814003400000000000000000058224322000000000000000000587898980000347820863
321110100000000000005001000005637243100000000000000000057841062000000000000000000584531160000000000000000005814003400000000000000000058224322000000000000000000587898980000347820863
321110101000000000005001000001256790200000000000000000013706053000000000000000000153441220000000000000000001346896800000000000000000015174124000000000000000000121688740000082430043
321110102000000000005001000000167468700000000000000000000000000000000000000000000003878860000000000000000000194995800000000000000000000329090000000000000000000038999160000008241537
321110103000000000005001000000807792000000000000000000010341972000000000000000000081752620000000000000000001032017400000000000000000008175262000000000000000000105038440000055594434
321110105000000000005001000000046460900000000000000000000000000000000000000000000000000000000000000000000000000000000000000000000000000000000000000000000000000000000000000000464609
321110107000000000005001000002986326300000000000000000030068987000000000000000000308217960000000000000000002867688400000000000000000030821796000000000000000000284932140000178745940
321110199000000000005001000000372405000000000000000000003724050000000000000000000037240500000000000000000000372405000000000000000000003724050000000000000000000037240500000022344300
322000000000000000005001000001409675800000000000000000014096758000000000000000000134598790000000000000000001453772600000000000000000014574879000000000000000000142381940000085004194
322100000000000000005001000001409675800000000000000000014096758000000000000000000134598790000000000000000001453772600000000000000000014574879000000000000000000142381940000085004194
322110000000000000005001000001409675800000000000000000014096758000000000000000000134598790000000000000000001453772600000000000000000014574879000000000000000000142381940000085004194
322110100000000000005001000001409675800000000000000000014096758000000000000000000134598790000000000000000001453772600000000000000000014574879000000000000000000142381940000085004194
330000000000000000005001000000065262000000000000000000004454576000000000000000000008195760000000000000000000119467700000000000000000002629960000000000000000000022754670000012026876
332000000000000000005001000000065262000000000000000000004454576000000000000000000008195760000000000000000000119467700000000000000000002629960000000000000000000022754670000012026876
332100000000000000005001000000000000000000000000000000000000000000000000000000000000000000000000000000000000015669900000000000000000000016008000000000000000000004875080000000660215
332110000000000000005001000000000000000000000000000000000000000000000000000000000000000000000000000000000000015669900000000000000000000016008000000000000000000004875080000000660215
332110100000000000005001000000000000000000000000000000000000000000000000000000000000000000000000000000000000015669900000000000000000000016008000000000000000000004875080000000660215
332200000000000000005001000000048566400000000000000000000485664000000000000000000004856640000000000000000000067208000000000000000000001287742000000000000000000010099880000004426802
332210000000000000005001000000048566400000000000000000000485664000000000000000000004856640000000000000000000067208000000000000000000001287742000000000000000000010099880000004426802
332210100000000000005001000000000000000000000000000000000000000000000000000000000000000000000000000000000000000000000000000000000000000000000000000000000000000000288490000000028849
332213100000000000005001000000048566400000000000000000000485664000000000000000000004856640000000000000000000067208000000000000000000001287742000000000000000000009811390000004397953
332300000000000000005001000000016695600000000000000000003968912000000000000000000003339120000000000000000000036589800000000000000000001326210000000000000000000007779710000006939859
332310000000000000005001000000016695600000000000000000003968912000000000000000000003339120000000000000000000036589800000000000000000001326210000000000000000000007779710000006939859
332310100000000000005001000000007605500000000000000000000152110000000000000000000001521100000000000000000000015569600000000000000000000157358000000000000000000002071880000000900517
332311100000000000005001000000009090100000000000000000000181802000000000000000000001818020000000000000000000018180200000000000000000000181802000000000000000000002727030000001090812
332313000000000000005001000000000000000000000000000000000000000000000000000000000000000000000000000000000000002840000000000000000000000237050000000000000000000002980800000000563530
332315100000000000005001000000000000000000000000000000003635000000000000000000000000000000000000000000000000000000000000000000000000000750000000000000000000000000000000000004385000
360000000000000000005001000000000000000000000000000000010509270000000525463500000023078160000000000000000000000000000000000000000000000346496000000000000000000100394000000017948347
361000000000000000005001000000000000000000000000000000010509270000000525463500000023078160000000000000000000000000000000000000000000000346496000000000000000000100394000000017948347
361700000000000000005001000000000000000000000000000000010509270000000525463500000023078160000000000000000000000000000000000000000000000346496000000000000000000100394000000017948347
361710000000000000005001000000000000000000000000000000010509270000000525463500000023078160000000000000000000000000000000000000000000000346496000000000000000000100394000000017948347
361710100000000000005001000000000000000000000000000000005254635000000525463500000000000000000000000000000000000000000000000000000000000000000000000000000000000000000000000000000000
361710800000000000005001000000000000000000000000000000005254635000000000000000000023078160000000000000000000000000000000000000000000000346496000000000000000000100394000000017948347
361710801000000000005001000000000000000000000000000000005254635000000000000000000020446490000000000000000000000000000000000000000000000346496000000000000000000100394000000017685180
361710802000000000005001000000000000000000000000000000000000000000000000000000000002631670000000000000000000000000000000000000000000000000000000000000000000000000000000000000263167
390000000000000000005001000001172599400000000000000000002981960000000000000000000021057900000000000000000004073737300000000000000000001541041000000000000000004557247530000514816911
397000000000000000005001000000000000000000000000000000000000000000000000000000000000000000000000000000000000000000000000000000000000000000000000000000000000004458886230000445888623
397200000000000000005001000000000000000000000000000000000000000000000000000000000000000000000000000000000000000000000000000000000000000000000000000000000000004458886230000445888623
397210000000000000005001000000000000000000000000000000000000000000000000000000000000000000000000000000000000000000000000000000000000000000000000000000000000004276440460000427644046
397220000000000000005001000000000000000000000000000000000000000000000000000000000000000000000000000000000000000000000000000000000000000000000000000000000000000182445770000018244577
399000000000000000005001000001172599400000000000000000002981960000000000000000000021057900000000000000000004073737300000000000000000001541041000000000000000000098361300000068928288
399600000000000000005001000000000000000000000000000000000000000000000000000000000000000000000000000000000000002500000000000000000000000000000000000000000000000000120000000000037000
399610000000000000005001000000000000000000000000000000000000000000000000000000000000000000000000000000000000002500000000000000000000000000000000000000000000000000120000000000037000
399700000000000000005001000001172599400000000000000000002981960000000000000000000021057900000000000000000004071237300000000000000000001541041000000000000000000098241300000068891288
399730000000000000005001000000982559000000000000000000001848676000000000000000000018255460000000000000000003913576100000000000000000001208683000000000000000000088389000000062683156
399740000000000000005001000000117144400000000000000000000956378000000000000000000001033380000000000000000000005166900000000000000000000083591000000000000000000007274700000003093890
399750000000000000005001000000072896000000000000000000000176906000000000000000000001769060000000000000000000152494300000000000000000000248767000000000000000000002577600000003114242
400000000000000000005001000000000000000001381724780000000000000000014051195400000000000000000157259078000000858084700001704175830000000000000000016366138000010717530900000310311464
420000000000000000005001000000000000000000817742740000000000000000009295834400000000000000000106957280000000000000000000978693240000000000000000009790990300006086691080000131199983
421000000000000000005001000000000000000000817742740000000000000000009295834400000000000000000106957280000000000000000000978693240000000000000000009790990300006086691080000131199983
421100000000000000005001000000000000000000817742740000000000000000009295834400000000000000000106957280000000000000000000978693240000000000000000009790990300006086691080000131199983
421110000000000000005001000000000000000000211980860000000000000000002410030600000000000000000027729660000000000000000000253735200000000000000000002538404600001631923650000039406747
421110200000000000005001000000000000000000211980860000000000000000002410030600000000000000000027729660000000000000000000253735200000000000000000002538404600001631923650000039406747
421110201000000000005001000000000000000000211980860000000000000000002410030600000000000000000027729660000000000000000000253735200000000000000000002538404600001631923650000039406747
421120000000000000005001000000000000000000605761880000000000000000006885803800000000000000000079227620000000000000000000724958040000000000000000007252585700004454767430000091793236
421120100000000000005001000000000000000000239614190000000000000000002754321500000000000000000031691048000000000000000000291864120000000000000000002901034300001864305160000045038079
421120101000000000005001000000000000000000239614190000000000000000002700510700000000000000000031134217000000000000000000286483080000000000000000002847224100001832444640000044023172
421120199000000000005001000000000000000000000000000000000000000000000053810800000000000000000000556831000000000000000000005381040000000000000000000053810200000031860520000001014907
421120300000000000005001000000000000000000366147690000000000000000004131482300000000000000000047536572000000000000000000433093920000000000000000004351551400002590462270000046755157
440000000000000000005001000000000000000000563982040000000000000000004755251600000000000000000050301798000000858084700000725482590000000000000000005107723500003178890020000048591837
442000000000000000005001000000000000000000000000000000000000000000000000000000000000000000000000000000000000000000000000000000000000000000000000000000000000000093608550000009360855
442500000000000000005001000000000000000000000000000000000000000000000000000000000000000000000000000000000000000000000000000000000000000000000000000000000000000093608550000009360855
442520000000000000005001000000000000000000000000000000000000000000000000000000000000000000000000000000000000000000000000000000000000000000000000000000000000000093608550000009360855
442520100000000000005001000000000000000000000000000000000000000000000000000000000000000000000000000000000000000000000000000000000000000000000000000000000000000093608550000009360855
442520199000000000005001000000000000000000000000000000000000000000000000000000000000000000000000000000000000000000000000000000000000000000000000000000000000000093608550000009360855
445000000000000000005001000000000000000000563982040000000000000000004755251600000000000000000050301798000000858084700000725482590000000000000000005107723500003085281470000039230982
445100000000000000005001000000000000000000563982040000000000000000004755251600000000000000000050301798000000858084700000725482590000000000000000005107723500003085281470000039230982
445110000000000000005001000000000000000000563982040000000000000000004755251600000000000000000050301798000000858084700000725482590000000000000000005107723500003085281470000039230982
445110300000000000005001000000000000000000563982040000000000000000004755251600000000000000000050301798000000858084700000725482590000000000000000005107723500003085281470000039230982
490000000000000000005001000000000000000000000000000000000000000000000000109400000000000000000000000000000000000000000000000000000000000000000000001467424200001451949800000130519644
497000000000000000005001000000000000000000000000000000000000000000000000000000000000000000000000000000000000000000000000000000000000000000000000000000000000001305196440000130519644
497100000000000000005001000000000000000000000000000000000000000000000000000000000000000000000000000000000000000000000000000000000000000000000000000000000000001305196440000130519644
497110000000000000005001000000000000000000000000000000000000000000000000000000000000000000000000000000000000000000000000000000000000000000000000000000000000001305196440000130519644
497110200000000000005001000000000000000000000000000000000000000000000000000000000000000000000000000000000000000000000000000000000000000000000000000000000000001305196440000130519644
499000000000000000005001000000000000000000000000000000000000000000000000109400000000000000000000000000000000000000000000000000000000000000000000001467424200000146753360000000000000
499100000000000000005001000000000000000000000000000000000000000000000000109400000000000000000000000000000000000000000000000000000000000000000000001467424200000146753360000000000000
499130000000000000005001000000000000000000000000000000000000000000000000000000000000000000000000000000000000000000000000000000000000000000000000001456925000000145692500000000000000
499130100000000000005001000000000000000000000000000000000000000000000000000000000000000000000000000000000000000000000000000000000000000000000000001456925000000145692500000000000000
499150000000000000005001000000000000000000000000000000000000000000000000109400000000000000000000000000000000000000000000000000000000000000000000000010499200000001060860000000000000
499150100000000000005001000000000000000000000000000000000000000000000000109400000000000000000000000000000000000000000000000000000000000000000000000010499200000001060860000000000000
500000000000000000005001000188856332800000037909350000074696552000000000000000000743661280000000000000000016708956300000515899500000076436019000000066825000002129913040002440759694
520000000000000000005001000188477239300000000000000000074696552000000000000000000743661280000000000000000016708956300000515899500000076436019000000066825000002080293040002433131759
521000000000000000005001000089078500000000000000000000000000000000000000000000000000000000000000000000000000000000000000000000000000000000000000000000000000000000000000000890785000
521100000000000000005001000089078500000000000000000000000000000000000000000000000000000000000000000000000000000000000000000000000000000000000000000000000000000000000000000890785000
521110000000000000005001000089078500000000000000000000000000000000000000000000000000000000000000000000000000000000000000000000000000000000000000000000000000000000000000000890785000
522000000000000000005001000099398739300000000000000000074696552000000000000000000743661280000000000000000016708956300000515899500000076436019000000066825000002080293040001542346759
522100000000000000005001000089078500000000000000000000000000000000000000000000000000000000000000000000000004000000000000400000000000000600000000000060000000000780304000000968815400
522110000000000000005001000089078500000000000000000000000000000000000000000000000000000000000000000000000000000000000000000000000000000000000000000000000000000000000000000890785000
522110100000000000005001000089078500000000000000000000000000000000000000000000000000000000000000000000000000000000000000000000000000000000000000000000000000000000000000000890785000
522120000000000000005001000000000000000000000000000000000000000000000000000000000000000000000000000000000002000000000000000000000000000300000000000000000000000093576000000029657600
522120100000000000005001000000000000000000000000000000000000000000000000000000000000000000000000000000000002000000000000000000000000000300000000000000000000000093576000000029657600
522130000000000000005001000000000000000000000000000000000000000000000000000000000000000000000000000000000002000000000000200000000000000300000000000030000000000390152000000039015200
522130300000000000005001000000000000000000000000000000000000000000000000000000000000000000000000000000000002000000000000000000000000000300000000000000000000000093576000000029657600
522139900000000000005001000000000000000000000000000000000000000000000000000000000000000000000000000000000000000000000000200000000000000000000000000030000000000296576000000009357600
522190000000000000005001000000000000000000000000000000000000000000000000000000000000000000000000000000000000000000000000200000000000000000000000000030000000000296576000000009357600
522190400000000000005001000000000000000000000000000000000000000000000000000000000000000000000000000000000000000000000000200000000000000000000000000030000000000296576000000009357600
522900000000000000005001000010320239300000000000000000074696552000000000000000000743661280000000000000000012708956300000115899500000075836019000000006825000001299989040000573531359
522920000000000000005001000010320239300000000000000000074696552000000000000000000743661280000000000000000012708956300000115899500000075836019000000006825000001299989040000573531359
522920100000000000005001000010320239300000000000000000074696552000000000000000000743661280000000000000000012708956300000115899500000075836019000000006825000001299989040000573531359
522920101000000000005001000010320239300000000000000000074570399000000000000000000743661280000000000000000012708956300000000000000000075836019000000000000000001172883780000572352880
522920102000000000005001000000000000000000000000000000000126153000000000000000000000000000000000000000000000000000000000000000000000000000000000000000000000000000000000000000126153
522920103000000000005001000000000000000000000000000000000000000000000000000000000000000000000000000000000000000000000000115899500000000000000000000006825000000127105260000001052326
530000000000000000005001000000379093500000037909350000000000000000000000000000000000000000000000000000000000000000000000000000000000000000000000000000000000000049620000000007627935
531000000000000000005001000000379093500000037909350000000000000000000000000000000000000000000000000000000000000000000000000000000000000000000000000000000000000047600000000007425935
531100000000000000005001000000379093500000000000000000000000000000000000000000000000000000000000000000000000000000000000000000000000000000000000000000000000000000000000000003790935
531200000000000000005001000000000000000000000000000000000000000000000000000000000000000000000000000000000000000000000000000000000000000000000000000000000000000036350000000003635000
531700000000000000005001000000000000000000037909350000000000000000000000000000000000000000000000000000000000000000000000000000000000000000000000000000000000000011250000000000000000
532000000000000000005001000000000000000000000000000000000000000000000000000000000000000000000000000000000000000000000000000000000000000000000000000000000000000002020000000000202000
532200000000000000005001000000000000000000000000000000000000000000000000000000000000000000000000000000000000000000000000000000000000000000000000000000000000000002020000000000202000
600000000000000000005001000055559386600024403662590000532564935000060726148700005351325510000609498679000077109362500008865932380000597049987000067281775600032727593650001044990975
620000000000000000005001000055164699600024364193890000525294935000059999148700005351325510000609498679000077109362500008865932380000597049987000067281775600032678434300001042740975
621000000000000000005001000011507754700010058625470000140212455000014021245500001579381290000157938129000017863776200001786377620000163776082000016377608200011798456890000289060689
621100000000000000005001000011507754700008907850000000134957820000000525463500001558934800000002044649000017005691500000085808470000163429586000000034649600002194858940000051889615
621200000000000000005001000000000000000001150775470000000000000000013495782000000000000000000155893480000000858084700001700569150000000000000000016342958600009503203950000219485894
621300000000000000005001000000000000000000000000000000005254635000000000000000000020446490000000000000000000000000000000000000000000000346496000000000000000000100394000000017685180
621390000000000000005001000000000000000000000000000000005254635000000000000000000020446490000000000000000000000000000000000000000000000346496000000000000000000100394000000017685180
622000000000000000005001000043656944900014305568420000385082480000045977903200003771944220000451560550000059245586300007079554760000433273905000050904167400020879977410000753680286
622100000000000000005001000026988592100011606709210000229889516000022988951600002257802750000225780275000036977271300003697727130000254704962000025470496200012728486660000382063666
622110000000000000005001000010320239300008907850000000074696552000000000000000000743661280000000000000000014708956300000315899500000076136019000000036825000004576995910000010447046
622130000000000000005001000016668352800002698859210000155192964000022988951600001514141470000225780275000022268315000003381827630000178568943000025433671200008151490750000371616620
622130100000000000005001000008419305800001032023930000077084602000007469655200000762304180000074366128000012754500300001270895630000078383697000007583601900001290422550000117288378
622130300000000000005001000008249047000000841930580000078108362000007708460200000751837290000076230418000009513814700001159550530000100185246000007831544700001275004330000126827809
622130400000000000005001000000000000000000824904700000000000000000007810836200000000000000000075183729000000000000000000951381470000000000000000010018524600005586063870000127500433
622900000000000000005001000016668352800002698859210000155192964000022988951600001514141470000225780275000022268315000003381827630000178568943000025433671200008151490750000371616620
622920000000000000005001000016668352800002698859210000155192964000022988951600001514141470000225780275000022268315000003381827630000178568943000025433671200008151490750000371616620
622920100000000000005001000016668352800002698859210000155192964000022988951600001514141470000225780275000022268315000003381827630000178568943000025433671200008151490750000371616620
622920101000000000005001000008419305800001032023930000077084602000007469655200000762304180000074366128000012754500300001270895630000078383697000007583601900001290422550000117288378
622920103000000000005001000008249047000000841930580000078108362000007708460200000751837290000076230418000009513814700001159550530000100185246000007831544700001275004330000126827809
622920104000000000005001000000000000000000824904700000000000000000007810836200000000000000000075183729000000000000000000951381470000000000000000010018524600005586063870000127500433
630000000000000000005001000000394687000000039468700000007270000000000727000000000000000000000000000000000000000000000000000000000000000000000000000000000000000049159350000002250000
631000000000000000005001000000394687000000039468700000007270000000000727000000000000000000000000000000000000000000000000000000000000000000000000000000000000000049159350000002250000
631100000000000000005001000000015593500000037909350000003635000000000000000000000000000000000000000000000000000000000000000000000000000000000000000000000000000000000000000000000000
631300000000000000005001000000000000000000000000000000003635000000000363500000000000000000000000000000000000000000000000000000000000000000000000000000000000000000000000000000000000
631400000000000000005001000000000000000000000000000000000000000000000363500000000000000000000000000000000000000000000000000000000000000000000000000000000000000036350000000000000000
631700000000000000005001000000379093500000000000000000000000000000000000000000000000000000000000000000000000000000000000000000000000000000000000000000000000000011250000000002250000
631710000000000000005001000000379093500000000000000000000000000000000000000000000000000000000000000000000000000000000000000000000000000000000000000000000000000011250000000002250000
631900000000000000005001000000000000000000001559350000000000000000000000000000000000000000000000000000000000000000000000000000000000000000000000000000000000000001559350000000000000
631990000000000000005001000000000000000000001559350000000000000000000000000000000000000000000000000000000000000000000000000000000000000000000000000000000000000001559350000000000000
632000000000000000005001000000000000000000000000000000000000000000000000000000000000000000000000000000000000000000000000000000000000000000000000000000000000000000000000000000000000
632100000000000000005001000000000000000000000000000000000000000000000000000000000000000000000000000000000000000000000000000000000000000000000000000000000000000000000000000000000000
700000000000000000005001000011508191000000000000000000135766946000000525463500001559022060000002044649000017119200400000085808470000163474312000000034649600005315119620000572698381
710000000000000000005001000000000000000000000000000000000750000000000000000000000000000000000000000000000000112500000000000000000000000000000000000000000000000000000000000000000000
712000000000000000005001000000000000000000000000000000000750000000000000000000000000000000000000000000000000112500000000000000000000000000000000000000000000000000000000000000000000
712300000000000000005001000000000000000000000000000000000750000000000000000000000000000000000000000000000000112500000000000000000000000000000000000000000000000000000000000000000000
712310000000000000005001000000000000000000000000000000000750000000000000000000000000000000000000000000000000112500000000000000000000000000000000000000000000000000000000000000000000
712310200000000000005001000000000000000000000000000000000750000000000000000000000000000000000000000000000000112500000000000000000000000000000000000000000000000000000000000000000000
720000000000000000005001000011508191000000000000000000135016946000000525463500001559022060000002044649000017006700400000085808470000163474312000000034649600002195132910000572698381
721000000000000000005001000011508191000000000000000000135016946000000525463500001559022060000002044649000017006700400000085808470000163474312000000034649600002195132910000572698381
721100000000000000005001000011508191000000000000000000135016946000000525463500001559022060000002044649000017006700400000085808470000163474312000000034649600002195132910000572698381
721120000000000000005001000011507754700000000000000000134957820000000525463500001558934800000002044649000017005691500000085808470000163429586000000034649600002194858940000572543954
721120800000000000005001000011318645800000000000000000131361111000000525463500001516665360000002044649000016603493900000085808470000156543076000000034649600002063021360000547800893
721120802000000000005001000000189108900000000000000000003596709000000000000000000042269440000000000000000000402197600000000000000000006886510000000000000000000131837580000024743061
721130000000000000005001000000000436300000000000000000000059126000000000000000000000087260000000000000000000001008900000000000000000000044726000000000000000000000273970000000154427
721130869000000000005001000000000436300000000000000000000059126000000000000000000000087260000000000000000000001008900000000000000000000044726000000000000000000000273970000000154427
790000000000000000005001000000000000000000000000000000000000000000000000000000000000000000000000000000000000000000000000000000000000000000000000000000000000003119986710000000000000
795000000000000000005001000000000000000000000000000000000000000000000000000000000000000000000000000000000000000000000000000000000000000000000000000000000000003119986710000000000000
795100000000000000005001000000000000000000000000000000000000000000000000000000000000000000000000000000000000000000000000000000000000000000000000000000000000003119986710000000000000
795120000000000000005001000000000000000000000000000000000000000000000000000000000000000000000000000000000000000000000000000000000000000000000000000000000000003119986710000000000000
800000000000000000005001000027021317500003852950850000246442189000037695450000002284307290000382288286000035870114700005213123040000255885344000041901316000009459405840000904754165
810000000000000000005001000000016695600000001669560000003968912000000471891200000003339120000000333912000000033749800000014624980000001089160000000108916000000005087400000000508740
812000000000000000005001000000016695600000001669560000003968912000000471891200000003339120000000333912000000033749800000014624980000001089160000000108916000000005087400000000508740
812300000000000000005001000000016695600000001669560000003968912000000471891200000003339120000000333912000000033749800000014624980000001089160000000108916000000005087400000000508740
812310000000000000005001000000016695600000001669560000003968912000000471891200000003339120000000333912000000033749800000014624980000001089160000000108916000000005087400000000508740
812310200000000000005001000000016695600000001669560000003968912000000471891200000003339120000000333912000000033749800000014624980000001089160000000108916000000005087400000000508740
812310201000000000005001000000016695600000000000000000003968912000000075000000000003339120000000000000000000033749800000011250000000001089160000000000000000000005087400000000000000
812310202000000000005001000000000000000000001669560000000000000000000396891200000000000000000000333912000000000000000000003374980000000000000000000108916000000000000000000000508740
820000000000000000005001000027004621900003851281290000242473277000037223558800002280968170000381954374000035836364900005198498060000254796184000041792400000009454318440000592246754
821000000000000000005001000027004621900003851281290000242473277000037223558800002280968170000381954374000035836364900005198498060000254796184000041792400000009454318440000592246754
821100000000000000005001000027004621900003851281290000242473277000037223558800002280968170000381954374000035836364900005198498060000254796184000041792400000009454318440000592246754
821110000000000000005001000010320239300001152334820000079951187000013495782000000766739440000155893480000013567041000001816468650000076182515000016349783600001273277780000220575340
821110108000000000005001000010030418900001133423930000077370277000013136111100000743241490000151666536000013150691600001776223540000073396470000015654307600001195769430000207166145
821110108020000000005001000000289820400000018910890000002580910000000359670900000023497950000004226944000000416349400000040245110000002786045000000695476000000077508350000013409195
821120000000000000005001000008434899300001032023930000080719602000007469655200000762304180000074366128000012754500300001270895630000078383697000007583601900001279172550000117288378
821120108000000000005001000008235111800001003041890000074919780000007211564200000740187850000072016333000012497754800001229260690000074340242000007304997400001194982120000109537543
821120108020000000005001000000199787500000028982040000005799822000000258091000000022116330000002349795000000256745500000041634940000004043455000000278604500000084190430000007750835
821130000000000000005001000008249483300000841974210000081802488000008077872800000751924550000076239144000009514823600001159651420000100229972000007836017300001275278300000126855206
821130100000000000005001000008249047000000841930580000081743362000008071960200000751837290000076230418000009513814700001159550530000100185246000007831544700001275004330000126827809
821130100500800000005001000000000000000000000000000000000000000000000000000000000000000000000000000000000000000000000000000000000000000000000000000000000000000000000000000000000000
821130108000000000005001000008116522400000821951830000075943535000007491978000000729720940000074018785000009257322600001133901330000096210044000007434024200001186342030000118634203
821130108020000000005001000000132524600000019978750000005799827000000579982200000022116350000002211633000000256492100000025649200000003975202000000397520500000088662300000008193606
821130208690000000005001000000000436300000000043630000000059126000000005912600000000087260000000008726000000001008900000000100890000000044726000000004472600000000273970000000027397
821140000000000000005001000000000000000000824948330000000000000000008180248800000000000000000075455622000000000000000000951482360000000000000000010022997200005626589810000127527830
821140100000000000005001000000000000000000824904700000000000000000008174336200000000000000000075446896000000000000000000951381470000000000000000010018524600005625045540000127500433
821140108000000000005001000000000000000000811652240000000000000000007594353500000000000000000073235261000000000000000000925732260000000000000000009621004400005377614930000118634203
821140108020000000005001000000000000000000013252460000000000000000000579982700000000000000000002211635000000000000000000025649210000000000000000000397520200000247430610000008866230
821140208690000000005001000000000000000000000043630000000000000000000005912600000000000000000000008726000000000000000000000100890000000000000000000004472600000001544270000000027397
890000000000000000005001000000000000000000000000000000000000000000000000000000000000000000000000000000000000000000000000000000000000000000000000000000000000000000000000000311998671
895000000000000000005001000000000000000000000000000000000000000000000000000000000000000000000000000000000000000000000000000000000000000000000000000000000000000000000000000311998671
895100000000000000005001000000000000000000000000000000000000000000000000000000000000000000000000000000000000000000000000000000000000000000000000000000000000000000000000000311998671
895120000000000000005001000000000000000000000000000000000000000000000000000000000000000000000000000000000000000000000000000000000000000000000000000000000000000000000000000311998671
FINALIZADOR0000000348