12091144000180010120253101202501022025FUNDO DE PREVIDENCIA SOCIAL RPPS                                                
0000000006FPSM - CONTRIBUICAO AO FAPS                                 12091144000180000000000000000000000000000000RUA SENADOR PINHEIRO                              INDEPENDENCIA                 RS989150000000000000000000000000000000000102
0000000070JOSE MARSCHNER                                              00049907239020000000000000000000000000000000OPERARIO                                          INDEPENDENCIA                 RS989150000000000000000000000000000000000101
0000000077VIAAO OURO E PRATA S/A                                      92954106000142962042935000000000000000000000PIX EMAIL FATURAMENTOOUROEPRATACOM                PORTO ALEGRE                  RS900109085133758563000000000000000000000102
0000000155INSS - CONTRIBUICAO AO INSS                                 29979036000140000000000000000000000000000000SEM ENDEREO                                       INDEPENDENCIA                 RS989150000000000000000000000000000000000102
0000000167ABASE SISTEMAS E SOLUOES LTDA                               93088649000197147002547400000000000000000000AVSENALBERTO PASQUALINI 347                       TRES DE MAIO                  RS989100003535490000000000000000000000000102
0000000213FOLHA DE PGTO - SERVIDORES DIVERSOS                         87612826000190000000000000000000000000000000RUA SENADOR PINHEIRO 1348                         INDEPENDENCIA                 RS989150000000000000000000000000000000000102
0000000375MARINA ANDREIA TRAESEL                                      00097334723015000000000000000000000000000000INDEPENDENCIA                                     INDEPENDENCIA                 RS989150000000000000000000000000000000000101
0000001960SUSANA KOPPER                                               00051264200030000000000000000000000000000000SECRETARIA DO LEGISLATIVO                         INDEPENDENCIA                 RS989150000000000000000000000000000000000101
0000001969DULCE TEIXEIRA PEREIRA                                      00046251880082000000000000000000000000000000PROFESSORA MUNICIPAL                              INDEPENDENCIA                 RS989150000000000000000000000000000000000101
0000003792FRANCIELE A N SCHRAMEIER                                    00000791721051000000000000000000000000000000ESCRITURRIO                                       INDEPENDENCIA                 RS989150000000000000000000000000000000000101
0000003812IPERGS                                                      92829100000143000000000000000000000000000000AV BORGES DE MEDEIROS 1945 /1O ANDAR              PORTO ALEGRE                  RS900300005132255823000000000000000000000102
0000004349SANDRA VENITES PF                                           00098725114034000000000000000000000000000000RUA ANISIO DE ARAJO E SILVA 156                   INDEPENDENCIA                 RS989150000000000000000000000000000000000101
0000004451CRISTIANA ALICE SCHONINGER                                  00001852843020000000000000000000000000000000AUXILIAR DE ESCRITURARIO                          INDEPENDENCIA                 RS989150005599916787200000000000000000000101
0000004508CLAUDIA DE SA KEMPF                                         00001328321002000000000000000000000000000000INDEPENDNCIA                                      INDEPENDENCIA                 RS989150000000000000000000000000000000000101
0000004738CRISTIAN BORGES MLLER                                       00001579052096000000000000000000000000000000RUA SENADOR PINHEIRO 1348                         INDEPENDENCIA                 RS989150000000000000000000000000000000000101
0000004918RGIS GIARDELI ZANELLA                                       00000268085013000000000000000000000000000000INSTRUTOR DE INFORMTICA                           INDEPENDENCIA                 RS989150000000000000000000000000000000000101
0000004967NERI OLIVEIRA QUITAISKI                                     00074649493072000000000000000000000000000000AUXILIAR DE ESCRITURARIO                          INDEPENDENCIA                 RS989150000000000000000000000000000000000101
0000005044DPM EDUCACAO LTDA                                           13021017000177000000000000000000000000000000AV PERNAMBUCO 1001 TERREO                         PORTO ALEGRE                  RS902400045130273400000000000000000000000102
0000005067VERIDIANE KREMER - PF                                       00098148729034000000000000000000000000000000RUA MANOEL DA NOBREGA N 629                       INDEPENDENCIA                 RS989150005599726443600000000000000000000101
0000005113ELIANE NEUMANN PAIM                                         00000295901080000000000000000000000000000000RUA DUQUE DE CAXIAS 1224                          INDEPENDENCIA                 RS989150000000000000000000000000000000000101
0000005288ANBIMA ASSOC BR ENTMERC FINAN FILIAL 7                      34271171000762000000000000000000000000000000AV NAES UNIDAS 8501 21 ANDAR                      SAO PAULO                     SP542507000000000000000000000000000000000102
0000005393PATRICIA SOLANGE SCHACKEL MULLER                            00000705823008000000000000000000000000000000RUA SO JOO 99                                     INDEPENDENCIA                 RS989150000000000000000000000000000000000101
0000005471IRINEU ANTONIO SCHMIDT                                      00001114769096000000000000000000000000000000RUA PARAGUAI 06                                   SANTA ROSA                    RS989000000000000000000000000000000000000101
0000005504BRPREV AUDITORIA E CONSULTORIA ATUARIAL LTDA ME             18615216000127000000000000000000000000000000ESTRADA CHAPU DO SOL                              PORTO ALEGRE                  RS917870305133757720000000000000000000000102
0000005512JEDIELSON MASSUDA DA SILVA                                  00001622246055000000000000000000000000000000RUA MANOEL DA NOBREGA 628                         INDEPENDENCIA                 RS989150000000000000000000000000000000000101
0000006653EDUARDO P PINTO TREINAMENTO - ME                            27569726000104000000000000000000000000000000AV ANDRE DA ROCHA 279 APTO 5                      PORTO ALEGRE                  RS900501615130236030000000000000000000000102
0000006799TABELIONATO INDEP MARCOS COSTA SALOMO                       00066999758034000000000000000000000000000000SENADOR SALGADO FILHO 635                         INDEPENDENCIA                 RS989150005599622319400000000000000000000101
0000006989GESTOR UM - CONSULTORIA FINANCEIRA LTDA                     27298119000149000000000000000000000000000000AV PROTASIO ALVES 2854                            PORTO ALEGRE                  RS900029005199610345000000000000000000000102
0000007948LUMENS ASSESSORIA E CONSULTORIA ATUARIAL LTDA               18934959000160000000000000000000000000000000RUA DOUTOR BARCELOS                               CANOAS / CENTRO               RS923102005130614412000000000000000000000102
0000008240MARLO MIGUEL KOCHME-ME                                      28082318000188000000000000000000000000000000RUA ALBINO SELIG 53                               SANTANA DO ACARAU             CE621500005499905776300000000000000000000102
0000008726INSTITUTO TOTUM DE DESENVOLVIMENTO E GESTAO EMPRESARIAL LTDA05773229000182000000000000000000000000000000AV PAULISTA 2439 ANDAR 13                         SAO PAULO / BELA VISTA        SP131130001133729590000000000000000000000102
0000008799BMP TREINAMENTOS LTDA                                       46831415000108000000000000000000000000000000AVENIDA GETULIO VARGAS 1151 LOJA 1212             PORTO ALEGRE                  RS901500050000000000000000000000000000000102
0000009388FMPSS- FUNDO DE CAMPO VERDE MT                              00309037000104000000000000000000000000000000R RIO DE JANEIRO                                  CAMPO VERDE                   MT788400006634191500000000000000000000000102
0000010096FAPS TRES DE MAIO RS                                        11426769000192000000000000000000000000000000R MINAS GERAIS 46                                 TRES DE MAIO                  RS989100005535358437000000000000000000000102
0000010572GESTOR UM EDUCAO LTDA                                       54084848000175000000000000000000000000000000AV PROTASIO ALVES 2854 PETROPOLIS                 PORTO ALEGRE                  RS904100065130131821000000000000000000000102
0000010588COORD GERAL ORAMENTO FINAN E CONTABILIDADE                  16727230000197000000000000000000000000000000ESPLANADA DOS MINISTRIOS BLOCO K                  BRASILIA                      DF700409086120204106000000000000000000000102
FINALIZADOR0000000036