12091144000180010120253101202501022025FUNDO DE PREVIDENCIA SOCIAL RPPS                                                
1111106010500000000050020000000013732X0000000000000011698X230000180000000000
1111106040100000000050010000000013732X00000000000000121169230000180200000000
1111152010000000000050010000000013732X00000000000000121169330000180200000000
1144101020200000000050020000000013732X0000000000000011698X330000180000000000
1144101020300000000050020000001040052100000000006000002951330000180000000000
1144101020600000000050020000000410106400000000000408398006330000180000000000
1144101020700000000050020000007480030600000000000000113598230000180000000000
1144101030200000000050020000000013732X0000000000000011698X330000180000000000
1144101050300000000050020000001040052100000000006000002951330000180000000000
1144101050400000000050020000007480030600000000000000113598330000180000000000
1144199010000000000050020000000013732X0000000000000011698X330000180000000000
FINALIZADOR0000000011