12091144000180010120253101202501022025FUNDO DE PREVIDENCIA SOCIAL RPPS                                                
500209272002000000002319113100200000000000000202501001120280120250000000211829+0000000006                                                                                                                                                                     00000N                    000000000000000000000000CONTRIB AO FAPS PARTE PATRONAL 16 REF REMUNERAO DE JANEIRO DE 2025FAPS-INATIVOS-VL-REAL                                                                                                                                                                                                                                                                                                                         NSA00XX000000000000000000280000000000
500209272002000000002319113100200000000000000202501001121280120250000000145096+0000000006                                                                                                                                                                     00000N                    000000000000000000000000CONTRIB AO FAPS PARTE PATRONAL 16 REF REMUNERAO DE JANEIRO DE 2025FAPS-INATIVOS-GERAL-TEMPO-CONT                                                                                                                                                                                                                                                                                                                NSA00XX000000000000000000280000000000
500209272002000000002319113100200000000000000202501001120310120250000000211829-0000000006                                                                                                                                                                     00000N                    000000000000000000000000CONTRIB AO FAPS PARTE PATRONAL 16 REF REMUNERAO DE JANEIRO DE 2025FAPS-INATIVOS-VL-REAL                                                                                                                                                                                                                                                                                                                         NSA00XX000000000000000000280000000000
500209272002000000002319113100200000000000000202501001121310120250000000145096-0000000006                                                                                                                                                                     00000N                    000000000000000000000000CONTRIB AO FAPS PARTE PATRONAL 16 REF REMUNERAO DE JANEIRO DE 2025FAPS-INATIVOS-GERAL-TEMPO-CONT                                                                                                                                                                                                                                                                                                                NSA00XX000000000000000000280000000000
500209272002000000002319113100100000000000000202501001116280120250000000002209+0000000006                                                                                                                                                                     00000N                    000000000000000000000000CONTRIB AO FAPS PARTE PATRONAL 16 REF REMUNERAO DE JANEIRO DE 2025FAPS-INATIVOS-GERAL-INVALIDEZ-VLREAL                                                                                                                                                                                                                                                                                                          NSA00XX000000000000000000280000000000
500209272002000000002319113210100000000000000202501001125280120250000000002293+0000000006                                                                                                                                                                     00000N                    000000000000000000000000CONTRIB AO FAPS PARTE PATRONAL 24 REF REMUNERAO DE JANEIRO DE 2025PASSIVO ATUARIALFAPS-INATIVOS-GERAL-INVALIDEZ-VL-REAL                                                                                                                                                                                                                                                                                         NSA00XX000000000000000000280000000000
500209272002000000003319113100100000000000000202501001117280120250000000002505+0000000006                                                                                                                                                                     00000N                    000000000000000000000000CONTRIB AO FAPS PARTE PATRONAL 16 REF REMUNERAO DE JANEIRO DE 2025FAPS-INATIVOS-GERAL-TEMPCONT-CAMARA                                                                                                                                                                                                                                                                                                           NSA00XX000000000000000000280000000000
500209272002000000003319113210100000000000000202501001126280120250000000002600+0000000006                                                                                                                                                                     00000N                    000000000000000000000000CONTRIB AO FAPS PARTE PATRONAL 24 REF REMUNERAO DE JANEIRO DE 2025PASSIVO ATUARIALFAPS-INATIVOS-GERAL-TEMPCONT-CAMARA                                                                                                                                                                                                                                                                                           NSA00XX000000000000000000280000000000
500209272002000000002319113100100000000000000202501001118280120250000000018184+0000000006                                                                                                                                                                     00000N                    000000000000000000000000CONTRIB AO FAPS PARTE PATRONAL 16 REF REMUNERAO DE JANEIRO DE 2025FAPS-INATIVOS-GERAL-TEMPCONTRIB                                                                                                                                                                                                                                                                                                               NSA00XX000000000000000000280000000000
500209272002000000002319113210100000000000000202501001127280120250000000018877+0000000006                                                                                                                                                                     00000N                    000000000000000000000000CONTRIB AO FAPS PARTE PATRONAL 24 REF REMUNERAO DE JANEIRO DE 2025PASSIVO ATUARIALFAPS-INATIVOS-GERAL-TEMPCONTRIB                                                                                                                                                                                                                                                                                               NSA00XX000000000000000000280000000000
500209272002000000002319113100100000000000000202501001115280120250000000020281+0000000006                                                                                                                                                                     00000N                    000000000000000000000000CONTRIB AO FAPS PARTE PATRONAL 16 REF REMUNERAO DE JANEIRO DE 2025FAPS-INATIVOS-PROFESSOR-INVALIDEZ                                                                                                                                                                                                                                                                                                             NSA00XX000000000000000000280000000000
500209272002000000002319113210100000000000000202501001124280120250000000021054+0000000006                                                                                                                                                                     00000N                    000000000000000000000000CONTRIB AO FAPS PARTE PATRONAL 24 REF REMUNERAO DE JANEIRO DE 2025PASSIVO ATUARIALFAPS-INATIVOS-PROFESSOR-INVALIDEZ                                                                                                                                                                                                                                                                                             NSA00XX000000000000000000280000000000
500209272002000000002319113100200000000000000202501001133280120250000000028228+0000000006                                                                                                                                                                     00000N                    000000000000000000000000CONTRIB AO FAPS PARTE PATRONAL 16 REF REMUNERAO DE JANEIRO DE 2025FAPS-PENSIONISTAS                                                                                                                                                                                                                                                                                                                             NSA00XX000000000000000000280000000000
500209272002000000002319113210200000000000000202501001130280120250000000029304+0000000006                                                                                                                                                                     00000N                    000000000000000000000000CONTRIB AO FAPS PARTE PATRONAL 24 REF REMUNERAO DE JANEIRO DE 2025PASSIVO ATUARIALFAPS-PENSIONISTAS                                                                                                                                                                                                                                                                                                             NSA00XX000000000000000000280000000000
500209272002000000002319113100200000000000000202501001134280120250000000059766+0000000006                                                                                                                                                                     00000N                    000000000000000000000000CONTRIB AO FAPS PARTE PATRONAL 16 REF REMUNERAO DE JANEIRO DE 2025FAPS-PENSIONISTAS-DO-TESOURO-RPPS                                                                                                                                                                                                                                                                                                             NSA00XX000000000000000000280000000000
500209272002000000002319113210200000000000000202501001131280120250000000062044+0000000006                                                                                                                                                                     00000N                    000000000000000000000000CONTRIB AO FAPS PARTE PATRONAL 24 REF REMUNERAO DE JANEIRO DE 2025PASSIVO ATUARIALFAPS-PENSIONISTAS-DO-TESOURO-RPPS                                                                                                                                                                                                                                                                                             NSA00XX000000000000000000280000000000
500209272002000000002319113100200000000000000202501001132280120250000000110404+0000000006                                                                                                                                                                     00000N                    000000000000000000000000CONTRIB AO FAPS PARTE PATRONAL 16 REF REMUNERAO DE JANEIRO DE 2025FAPS-PENSIONISTAS-VL-REAL-RPPS                                                                                                                                                                                                                                                                                                                NSA00XX000000000000000000280000000000
500209272002000000002319113210200000000000000202501001129280120250000000114613+0000000006                                                                                                                                                                     00000N                    000000000000000000000000CONTRIB AO FAPS PARTE PATRONAL 24 REF REMUNERAO DE JANEIRO DE 2025PASSIVO ATUARIALFAPS-PENSIONISTAS-VL-REAL-RPPS                                                                                                                                                                                                                                                                                                NSA00XX000000000000000000280000000000
500209272002000000002319113100100000000000000202501001114280120250000000139768+0000000006                                                                                                                                                                     00000N                    000000000000000000000000CONTRIB AO FAPS PARTE PATRONAL 16 REF REMUNERAO DE JANEIRO DE 2025FAPS-INATIVOS-GERAL-TEMPO-CONTR                                                                                                                                                                                                                                                                                                               NSA00XX000000000000000000280000000000
500209272002000000002319113210100000000000000202501001123280120250000000145096+0000000006                                                                                                                                                                     00000N                    000000000000000000000000CONTRIB AO FAPS PARTE PATRONAL 24 REF REMUNERAO DE JANEIRO DE 2025PASSIVO ATUARIALFAPS-INATIVOS-GERAL-TEMPO-CONT                                                                                                                                                                                                                                                                                                NSA00XX000000000000000000280000000000
500209272002000000002319003010000000000000000202501000672280120250000000151800+0000000213                                                                                                                                                                     00000N                    000000000000000000000000REMUNERAO REFERENTE AO MS DE JANEIRO DE 2025FAPS-PENSIONISTAS-TRESOURO-VLREALPROVENTOSPARCELA AUTONOMA                                                                                                                                                                                                                                                                                                          NSA00FX000000000000000000280011110000
500209272002000000002319001010000000000000000202501000669280120250000000192560+0000000213                                                                                                                                                                     00000N                    000000000000000000000000REMUNERAO REFERENTE AO MS DE JANEIRO DE 2025FAPS-INATIVOS-PROFESSOR-INVALIDEZ-VLREALPROVENTOS                                                                                                                                                                                                                                                                                                                   NSA00FX000000000000000000280011110000
500209122002000000022339086030000000000000000202501000245140120250000000200000+0000010096                                                                                                                                                                     00000N                    000000000000000000000000COMPENSAO PREVIDENCIRIA ENTRE O REGIME PRPRIO DE PREVIDNCIA SOCIAL RPPS DE INDEPENDNCIA E O FUNDO MUNICIPAL DE PREVIDNCIA SOCIAL DE TRS DE MAIO REFERENTE AO TEMPO DE CONTRIBUIO DE SERVIDOR QUE FOI COMPUTADO EM MAIS DE UM REGIME DE PREVIDNCIA VALOR MENSAL  PAGO DE ACORDO COM OS VALORES CONSTANTES NO RELATRIO DO COMPREVCF RD 154/2025                                                                   NSA00XX000000000000000000280000000000
500209272002000000002319113100100000000000000202501001113280120250000000204050+0000000006                                                                                                                                                                     00000N                    000000000000000000000000CONTRIB AO FAPS PARTE PATRONAL 16 REF REMUNERAO DE JANEIRO DE 2025FAPS-INATIVOS-VL-REAL                                                                                                                                                                                                                                                                                                                         NSA00XX000000000000000000280000000000
500209272002000000002319113210100000000000000202501001122280120250000000211829+0000000006                                                                                                                                                                     00000N                    000000000000000000000000CONTRIB AO FAPS PARTE PATRONAL 24 REF REMUNERAO DE JANEIRO DE 2025PASSIVO ATUARIALFAPS-INATIVOS-VLREAL                                                                                                                                                                                                                                                                                                          NSA00XX000000000000000000280000000000
500209272002000000002319001010000000000000000202501000663280120250000000224070+0000000213                                                                                                                                                                     00000N                    000000000000000000000000REMUNERAO REFERENTE AO MS DE JANEIRO DE 2025FAPS-INATIVOS-GERAL ESPECIAL VLREALPROVENTOS                                                                                                                                                                                                                                                                                                                        NSA00FX000000000000000000280011110000
500209272002000000004319001010000000000000000202501000677280120250000000328431+0000000213                                                                                                                                                                     00000N                    000000000000000000000000REMUNERAO REFERENTE AO MS DE JANEIRO DE 2025FAPS-INATIVOS-DO-TESOUROPROVENTOS                                                                                                                                                                                                                                                                                                                                   NSA00FX000000000000000000280011110000
500209272002000000002319001010000000000000000202501000664280120250000000349085+0000000213                                                                                                                                                                     00000N                    000000000000000000000000REMUNERAO REFERENTE AO MS DE JANEIRO DE 2025FAPS-INATIVOS-GERAL -IDADEPROVENTOSPARCELA AUTONOMA                                                                                                                                                                                                                                                                                                                 NSA00FX000000000000000000280011110000
500209272002000000002319113100100000000000000202501001119280120250000000426266+0000000006                                                                                                                                                                     00000N                    000000000000000000000000CONTRIB AO FAPS PARTE PATRONAL 16 REF REMUNERAO DE JANEIRO DE 2025FAPS-INATIVOS-PROFESSOR-TEMPO-CONTRIB                                                                                                                                                                                                                                                                                                         NSA00XX000000000000000000280000000000
500209272002000000002319113210100000000000000202501001128280120250000000442517+0000000006                                                                                                                                                                     00000N                    000000000000000000000000CONTRIB AO FAPS PARTE PATRONAL 24 REF REMUNERAO DE JANEIRO DE 2025PASSIVO ATUARIALFAPS-INATIVOS-PROFESSOR-TEMP-CONTR                                                                                                                                                                                                                                                                                            NSA00XX000000000000000000280000000000
500209272002000000003319001010000000000000000202501000676280120250000000471056+0000000213                                                                                                                                                                     00000N                    000000000000000000000000REMUNERAO REFERENTE AO MS DE JANEIRO DE 2025FAPS-INATIVOS-GERAL-TEMPCONT-CAMARAPROVENTOS                                                                                                                                                                                                                                                                                                                        NSA00FX000000000000000000280011210000
500109122000100002066339035010000000000000000202501000242140120250000000472074+0000006989                                                                                                                                                                     00000N                    000000000000000002182023CONTRATAO DE ASSESSORIA FINANCEIRA PARA AUXILIAR NO GERENCIAMENTO DA CARTEIRA DO RPPS CONF RD 143/2025CONTRATO N 62/2023 E TERMO ADITIVO N 01/2024 VIGENTE AT 20/06/2025PROCESSO 218/2023 DISPENSA 05/2023                                                                                                                                                                                                      PRD01XX000000000000000000280200000000
500209272002000000004319003010000000000000000202501000675280120250000000481654+0000000213                                                                                                                                                                     00000N                    000000000000000000000000REMUNERAO REFERENTE AO MS DE JANEIRO DE 2025FAPS-PENSIONISTAS-DO-TESOUROPROVENTOSPARCELA AUTONOMAOUTROS PAGAMENTOS                                                                                                                                                                                                                                                                                              NSA00FX000000000000000000280011110000
500109122000100002066319011739900100000000000202501000679280120250000000579484+0000000213                                                                                                                                                                     00000N                    000000000000000000000000REMUNERAO REFERENTE AO MES DE JANEIRO DE 2024JETON RPPS                                                                                                                                                                                                                                                                                                                                                         NSA00FX000000000000000000280200000000
500209272002000000002319003010000000000000000202501000671280120250000000806696+0000000213                                                                                                                                                                     00000N                    000000000000000000000000REMUNERAO REFERENTE AO MS DE JANEIRO DE 2025FAPS-PENSIONISTASPROVENTOS                                                                                                                                                                                                                                                                                                                                          NSA00FX000000000000000000280011110000
500209272002000000004319003010000000000000000202501000674280120250000000828936+0000000213                                                                                                                                                                     00000N                    000000000000000000000000REMUNERAO REFERENTE AO MS DE JANEIRO DE 2025FAPS-PENSIONISTAS-DO-TESOURO-RPPSPROVENTOS                                                                                                                                                                                                                                                                                                                          NSA00FX000000000000000000280011110000
500209122002000000022339086030000000000000000202501000244140120250000000975000+0000009388                                                                                                                                                                     00000N                    000000000000000000000000COMPENSAO PREVIDENCIRIA ENTRE O REGIME PRPRIO DE PREVIDNCIA SOCIAL RPPS DE INDEPENDNCIA E O FUNDO MUNICIPAL DE PREVIDNCIA SOCIAL DE CAMPO VERDE- MT REFERENTE AO TEMPO DE CONTRIBUIO DE UM SERVIDOR QUE FOI COMPUTADO EM MAIS DE UM REGIME DE PREVIDNCIA VALOR MENSAL  PAGO DE ACORDO COM OS VALORES CONSTANTES NO RELATRIO DO COMPREVCF RD 152/2025                                                            NSA00XX000000000000000000280000000000
500209272002000000002319001010000000000000000202501000662280120250000001037554+0000000213                                                                                                                                                                     00000N                    000000000000000000000000REMUNERAO REFERENTE AO MS DE JANEIRO DE 2025FAPS-INATIVOS-PROFESSOR-INVALIDEZANUENIOS INATIVOSVENCIMENTO                                                                                                                                                                                                                                                                                                        NSA00FX000000000000000000280011110000
500209272002000000004319001010000000000000000202501000678280120250000001107941+0000000213                                                                                                                                                                     00000N                    000000000000000000000000REMUNERAO REFERENTE AO MS DE JANEIRO DE 2025FAPS-INATIVOS-DO-TESOURO-PISOANUENIOS INATIVOSVENCIMENTO                                                                                                                                                                                                                                                                                                            NSA00FX000000000000000000280011110000
500209272002000000002319003010000000000000000202501000670280120250000001145425+0000000213                                                                                                                                                                     00000N                    000000000000000000000000REMUNERAO REFERENTE AO MS DE JANEIRO DE 2025FAPS-PENSIONISTAS-VLREAL-RPPSPROVENTOS                                                                                                                                                                                                                                                                                                                              NSA00FX000000000000000000280011110000
500109122000100002066339040060000000000000000202501000243140120250000001300000+0000000167                                                                                                                                                                     00000N                    000000000000000000382023SISTEMA DE GESTO CONTBIL COMPRAS E LICITAES FOLHA DE PAGAMENTO E PORTAL DE TRANSPARNCIA PARA MANTER AS ATIVIDADES DO RPPSCONF RD 139/2025TERMO ADITIVO 002 AO CONTRATO N 71/2023PROCESSO 38/2023 PREGO PRESENCIAL 08/2023                                                                                                                                                                                       PRP01XX000000000000000000280200000000
500209272002000000002319001010000000000000000202501000661280120250000001328949+0000000213                                                                                                                                                                     00000N                    000000000000000000000000REMUNERAO REFERENTE AO MS DE JANEIRO DE 2025FAPS-INATIVOS-GERAL-TEMPO-CONTRIB-RPPSPROVENTOS                                                                                                                                                                                                                                                                                                                     NSA00FX000000000000000000280011110000
500209272002000000002319001010000000000000000202501000665280120250000001725679+0000000213                                                                                                                                                                     00000N                    000000000000000000000000REMUNERAO REFERENTE AO MS DE JANEIRO DE 2025FAPS-INATIVOS-GERAL -IDADE-VLREALPROVENTOSPARCELA AUTONOMA                                                                                                                                                                                                                                                                                                          NSA00FX000000000000000000280011110000
500209272002000000002319001010000000000000000202501000659280120250000001730715+0000000213                                                                                                                                                                     00000N                    000000000000000000000000REMUNERAO REFERENTE AO MS DE JANEIRO DE 2025FAPS-INATIVOS-GERAL-ESPECI-VLREAL-RPPSPROVENTOS                                                                                                                                                                                                                                                                                                                     NSA00FX000000000000000000280011110000
500209272002000000002319001010000000000000000202501000666280120250000001883199+0000000213                                                                                                                                                                     00000N                    000000000000000000000000REMUNERAO REFERENTE AO MS DE JANEIRO DE 2025FAPS-INATIVOS-GERAL -INVALIDEZPROVENTOSPARCELA AUTONOMA                                                                                                                                                                                                                                                                                                             NSA00FX000000000000000000280011110000
500209122002000000022339086020000000000000000202501000246140120250000002000000+0000003812                                                                                                                                                                     00000N                    000000000000000000000000COMPENSAO PREVIDENCIRIA ENTRE O REGIME PRPRIO DE PREVIDNCIA SOCIAL RPPS DE INDEPENDNCIA E O INSTITUTO DE PREVIDNCIA DO ESTADO DO RIO GRANDE DO SUL-IPERGS REFERENTE AO TEMPO DE CONTRIBUIO DE SERVIDORES QUE FORAM COMPUTADO EM MAIS DE UM REGIME DE PREVIDNCIA VALOR MENSAL  PAGO DE ACORDO COM OS VALORES CONSTANTES NO RELATRIO DO COMPREVCF RD 155/2025                                                     NSA00XX000000000000000000280000000000
500209272002000000002319001010000000000000000202501000660280120250000002442111+0000000213                                                                                                                                                                     00000N                    000000000000000000000000REMUNERAO REFERENTE AO MS DE JANEIRO DE 2025FAPS-INATIVOS-GERAL-INVALID-VLREALPROVENTOSPARCELA AUTONOMA                                                                                                                                                                                                                                                                                                         NSA00FX000000000000000000280011110000
500209272002000000002319001010000000000000000202501000667280120250000003157057+0000000213                                                                                                                                                                     00000N                    000000000000000000000000REMUNERAO REFERENTE AO MS DE JANEIRO DE 2025FAPS-INATIVOS-GERAL -TEMPO-CONTRIBPROVENTOS                                                                                                                                                                                                                                                                                                                         NSA00FX000000000000000000280011110000
500209272002000000002319003010000000000000000202501000673280120250000004049415+0000000213                                                                                                                                                                     00000N                    000000000000000000000000REMUNERAO REFERENTE AO MS DE JANEIRO DE 2025FAPS-PENSIONISTAS-VLREALPROVENTOSPARCELA AUTONOMA                                                                                                                                                                                                                                                                                                                   NSA00FX000000000000000000280011110000
500209122002000000022339086010000000000000000202501000247140120250000015000000+0000010588                                                                                                                                                                     00000N                    000000000000000000000000COMPENSAO PREVIDENCIRIA ENTRE O REGIME PRPRIO DE PREVIDNCIA SOCIAL RPPS DE INDEPENDNCIA E O REGIME GERAL DE PREVIDNCIA SOCIAL- INSS REFERENTE AO TEMPO DE CONTRIBUIO DE SERVIDORES QUE FORAM COMPUTADOS EM MAIS DE UM REGIME DE PREVIDNCIA VALOR MENSAL  PAGO DE ACORDO COM OS VALORES CONSTANTES NO RELATRIO DO COMPREVCF RD 156/2025                                                                          NSA00XX000000000000000000280000000000
500209272002000000002319001010000000000000000202501000668280120250000015069247+0000000213                                                                                                                                                                     00000N                    000000000000000000000000REMUNERAO REFERENTE AO MS DE JANEIRO DE 2025FAPS-INATIVOS-PROFESSOR-TEMP-CONTRANUENIOS INATIVOSVENCIMENTO                                                                                                                                                                                                                                                                                                       NSA00FX000000000000000000280011110000
500109122000100002066339039050000000000000000202401007172210820240000001125000+0000007948                                                                                                                                                                     00000N                    000000000000000000332024PRESTAO DE SERVIO COM NOTRIA ESPECIALIZAO PARA ELABORAO DO RELTRIO DE AVALIAO ATUARIAL ANUAL DRAA CONF RD 5688 EM ANEXOCONTRATO 85/2024PROCESSO N 483/2024  INEXIGIBILIDADE N 33/2024                                                                                                                                                                                                                           PRI08XX000000000000000000080200000000
120109272002000000002319003010000000005000000202201008374191220220000000020200-0000000213                                                                                                                                                                     00000N                    000000000000000000000000REMUNERAO REFERENTE AO MS DE NOVEMBRO DE 2022FAPS-PENSIONISTAS-VLREAL13 SALARIOPARCELA AUTONOMAPROVENTOS                                                                                                                                                                                                                                                                                                        NSA00FX000000000000000000080000000000
120109272002000000002319003010000000005000000202201008374251120220000003994158+0000000213                                                                                                                                                                     00000N                    000000000000000000000000REMUNERAO REFERENTE AO MS DE NOVEMBRO DE 2022FAPS-PENSIONISTAS-VLREAL13 SALARIOPARCELA AUTONOMAPROVENTOS                                                                                                                                                                                                                                                                                                        NSA00FX000000000000000000080000000000
FINALIZADOR0000000054