12091144000180010120253101202501022025FUNDO DE PREVIDENCIA SOCIAL RPPS                                                
020250100112000000000000000000677310120250000000211829+                                                                                                                                                                     000000000000000000000000000000CONTRIB AO FAPS PARTE PATRONAL 16 REF REMUNERAO DE JANEIRO DE 2025FAPS-INATIVOS-VL-REAL                                                                                                                                                                                                                                                                                                                         N00000000000000000000                    0000X000000000   X
020250100112100000000000000000678310120250000000145096+                                                                                                                                                                     000000000000000000000000000000CONTRIB AO FAPS PARTE PATRONAL 16 REF REMUNERAO DE JANEIRO DE 2025FAPS-INATIVOS-GERAL-TEMPO-CONT                                                                                                                                                                                                                                                                                                                N00000000000000000000                    0000X000000000   X
020250100112000000000000000000677310120250000000211829-                                                                                                                                                                     000000000000000000000000000000CONTRIB AO FAPS PARTE PATRONAL 16 REF REMUNERAO DE JANEIRO DE 2025FAPS-INATIVOS-VL-REAL                                                                                                                                                                                                                                                                                                                         N00000000000000000000                    0000X000000000   X
020250100112100000000000000000678310120250000000145096-                                                                                                                                                                     000000000000000000000000000000CONTRIB AO FAPS PARTE PATRONAL 16 REF REMUNERAO DE JANEIRO DE 2025FAPS-INATIVOS-GERAL-TEMPO-CONT                                                                                                                                                                                                                                                                                                                N00000000000000000000                    0000X000000000   X
020250100111600000000000000000673310120250000000002209+                                                                                                                                                                     000000000000000000000000000000CONTRIB AO FAPS PARTE PATRONAL 16 REF REMUNERAO DE JANEIRO DE 2025FAPS-INATIVOS-GERAL-INVALIDEZ-VLREAL                                                                                                                                                                                                                                                                                                          N00000000000000000000                    0000X000000000   X
020250100112500000000000000000682310120250000000002293+                                                                                                                                                                     000000000000000000000000000000CONTRIB AO FAPS PARTE PATRONAL 24 REF REMUNERAO DE JANEIRO DE 2025PASSIVO ATUARIALFAPS-INATIVOS-GERAL-INVALIDEZ-VL-REAL                                                                                                                                                                                                                                                                                         N00000000000000000000                    0000X000000000   X
020250100111700000000000000000674310120250000000002505+                                                                                                                                                                     000000000000000000000000000000CONTRIB AO FAPS PARTE PATRONAL 16 REF REMUNERAO DE JANEIRO DE 2025FAPS-INATIVOS-GERAL-TEMPCONT-CAMARA                                                                                                                                                                                                                                                                                                           N00000000000000000000                    0000X000000000   X
020250100112600000000000000000683310120250000000002600+                                                                                                                                                                     000000000000000000000000000000CONTRIB AO FAPS PARTE PATRONAL 24 REF REMUNERAO DE JANEIRO DE 2025PASSIVO ATUARIALFAPS-INATIVOS-GERAL-TEMPCONT-CAMARA                                                                                                                                                                                                                                                                                           N00000000000000000000                    0000X000000000   X
020250100111800000000000000000675310120250000000018184+                                                                                                                                                                     000000000000000000000000000000CONTRIB AO FAPS PARTE PATRONAL 16 REF REMUNERAO DE JANEIRO DE 2025FAPS-INATIVOS-GERAL-TEMPCONTRIB                                                                                                                                                                                                                                                                                                               N00000000000000000000                    0000X000000000   X
020250100112700000000000000000684310120250000000018877+                                                                                                                                                                     000000000000000000000000000000CONTRIB AO FAPS PARTE PATRONAL 24 REF REMUNERAO DE JANEIRO DE 2025PASSIVO ATUARIALFAPS-INATIVOS-GERAL-TEMPCONTRIB                                                                                                                                                                                                                                                                                               N00000000000000000000                    0000X000000000   X
020250100111500000000000000000672310120250000000020281+                                                                                                                                                                     000000000000000000000000000000CONTRIB AO FAPS PARTE PATRONAL 16 REF REMUNERAO DE JANEIRO DE 2025FAPS-INATIVOS-PROFESSOR-INVALIDEZ                                                                                                                                                                                                                                                                                                             N00000000000000000000                    0000X000000000   X
020250100112400000000000000000681310120250000000021054+                                                                                                                                                                     000000000000000000000000000000CONTRIB AO FAPS PARTE PATRONAL 24 REF REMUNERAO DE JANEIRO DE 2025PASSIVO ATUARIALFAPS-INATIVOS-PROFESSOR-INVALIDEZ                                                                                                                                                                                                                                                                                             N00000000000000000000                    0000X000000000   X
020250100113300000000000000000690310120250000000028228+                                                                                                                                                                     000000000000000000000000000000CONTRIB AO FAPS PARTE PATRONAL 16 REF REMUNERAO DE JANEIRO DE 2025FAPS-PENSIONISTAS                                                                                                                                                                                                                                                                                                                             N00000000000000000000                    0000X000000000   X
020250100113000000000000000000687310120250000000029304+                                                                                                                                                                     000000000000000000000000000000CONTRIB AO FAPS PARTE PATRONAL 24 REF REMUNERAO DE JANEIRO DE 2025PASSIVO ATUARIALFAPS-PENSIONISTAS                                                                                                                                                                                                                                                                                                             N00000000000000000000                    0000X000000000   X
020250100113400000000000000000691310120250000000059766+                                                                                                                                                                     000000000000000000000000000000CONTRIB AO FAPS PARTE PATRONAL 16 REF REMUNERAO DE JANEIRO DE 2025FAPS-PENSIONISTAS-DO-TESOURO-RPPS                                                                                                                                                                                                                                                                                                             N00000000000000000000                    0000X000000000   X
020250100113100000000000000000688310120250000000062044+                                                                                                                                                                     000000000000000000000000000000CONTRIB AO FAPS PARTE PATRONAL 24 REF REMUNERAO DE JANEIRO DE 2025PASSIVO ATUARIALFAPS-PENSIONISTAS-DO-TESOURO-RPPS                                                                                                                                                                                                                                                                                             N00000000000000000000                    0000X000000000   X
020250100113200000000000000000689310120250000000110404+                                                                                                                                                                     000000000000000000000000000000CONTRIB AO FAPS PARTE PATRONAL 16 REF REMUNERAO DE JANEIRO DE 2025FAPS-PENSIONISTAS-VL-REAL-RPPS                                                                                                                                                                                                                                                                                                                N00000000000000000000                    0000X000000000   X
020250100112900000000000000000686310120250000000114613+                                                                                                                                                                     000000000000000000000000000000CONTRIB AO FAPS PARTE PATRONAL 24 REF REMUNERAO DE JANEIRO DE 2025PASSIVO ATUARIALFAPS-PENSIONISTAS-VL-REAL-RPPS                                                                                                                                                                                                                                                                                                N00000000000000000000                    0000X000000000   X
020250100111400000000000000000671310120250000000139768+                                                                                                                                                                     000000000000000000000000000000CONTRIB AO FAPS PARTE PATRONAL 16 REF REMUNERAO DE JANEIRO DE 2025FAPS-INATIVOS-GERAL-TEMPO-CONTR                                                                                                                                                                                                                                                                                                               N00000000000000000000                    0000X000000000   X
020250100112300000000000000000680310120250000000145096+                                                                                                                                                                     000000000000000000000000000000CONTRIB AO FAPS PARTE PATRONAL 24 REF REMUNERAO DE JANEIRO DE 2025PASSIVO ATUARIALFAPS-INATIVOS-GERAL-TEMPO-CONT                                                                                                                                                                                                                                                                                                N00000000000000000000                    0000X000000000   X
020250100067200000000000000000241280120250000000151800+                                                                                                                                                                     000000000000000000000000000000REMUNERAO REFERENTE AO MS DE JANEIRO DE 2025FAPS-PENSIONISTAS-TRESOURO-VLREALPROVENTOSPARCELA AUTONOMA                                                                                                                                                                                                                                                                                                          N00000000000000000000                    0000X000000000   X
020250100066900000000000000000238280120250000000192560+                                                                                                                                                                     000000000000000000000000000000REMUNERAO REFERENTE AO MS DE JANEIRO DE 2025FAPS-INATIVOS-PROFESSOR-INVALIDEZ-VLREALPROVENTOS                                                                                                                                                                                                                                                                                                                   N00000000000000000000                    0000X000000000   X
020250100024500000000000000000177270120250000000011526+                                                                                                                                                                     000000000000000000000000000000COMPENSAO PREVIDENCIRIA ENTRE O REGIME PRPRIO DE PREVIDNCIA SOCIAL RPPS DE INDEPENDNCIA E O FUNDO MUNICIPAL DE PREVIDNCIA SOCIAL DE TRS DE MAIO REFERENTE AO TEMPO DE CONTRIBUIO DE SERVIDOR QUE FOI COMPUTADO EM MAIS DE UM REGIME DE PREVIDNCIA VALOR MENSAL  PAGO DE ACORDO COM OS VALORES CONSTANTES NO RELATRIO DO COMPREVCF RD 154/2025                                                                   N00000000000000000000                    0000X000000000   X
020250100111300000000000000000670310120250000000204050+                                                                                                                                                                     000000000000000000000000000000CONTRIB AO FAPS PARTE PATRONAL 16 REF REMUNERAO DE JANEIRO DE 2025FAPS-INATIVOS-VL-REAL                                                                                                                                                                                                                                                                                                                         N00000000000000000000                    0000X000000000   X
020250100112200000000000000000679310120250000000211829+                                                                                                                                                                     000000000000000000000000000000CONTRIB AO FAPS PARTE PATRONAL 24 REF REMUNERAO DE JANEIRO DE 2025PASSIVO ATUARIALFAPS-INATIVOS-VLREAL                                                                                                                                                                                                                                                                                                          N00000000000000000000                    0000X000000000   X
020250100066300000000000000000232280120250000000224070+                                                                                                                                                                     000000000000000000000000000000REMUNERAO REFERENTE AO MS DE JANEIRO DE 2025FAPS-INATIVOS-GERAL ESPECIAL VLREALPROVENTOS                                                                                                                                                                                                                                                                                                                        N00000000000000000000                    0000X000000000   X
020250100067700000000000000000246280120250000000328431+                                                                                                                                                                     000000000000000000000000000000REMUNERAO REFERENTE AO MS DE JANEIRO DE 2025FAPS-INATIVOS-DO-TESOUROPROVENTOS                                                                                                                                                                                                                                                                                                                                   N00000000000000000000                    0000X000000000   X
020250100066400000000000000000233280120250000000349085+                                                                                                                                                                     000000000000000000000000000000REMUNERAO REFERENTE AO MS DE JANEIRO DE 2025FAPS-INATIVOS-GERAL -IDADEPROVENTOSPARCELA AUTONOMA                                                                                                                                                                                                                                                                                                                 N00000000000000000000                    0000X000000000   X
020250100111900000000000000000676310120250000000426266+                                                                                                                                                                     000000000000000000000000000000CONTRIB AO FAPS PARTE PATRONAL 16 REF REMUNERAO DE JANEIRO DE 2025FAPS-INATIVOS-PROFESSOR-TEMPO-CONTRIB                                                                                                                                                                                                                                                                                                         N00000000000000000000                    0000X000000000   X
020250100112800000000000000000685310120250000000442517+                                                                                                                                                                     000000000000000000000000000000CONTRIB AO FAPS PARTE PATRONAL 24 REF REMUNERAO DE JANEIRO DE 2025PASSIVO ATUARIALFAPS-INATIVOS-PROFESSOR-TEMP-CONTR                                                                                                                                                                                                                                                                                            N00000000000000000000                    0000X000000000   X
020250100067600000000000000000245280120250000000471056+                                                                                                                                                                     000000000000000000000000000000REMUNERAO REFERENTE AO MS DE JANEIRO DE 2025FAPS-INATIVOS-GERAL-TEMPCONT-CAMARAPROVENTOS                                                                                                                                                                                                                                                                                                                        N00000000000000000000                    0000X000000000   X
020250100024200000000000000000174270120250000000078679+                                                                                                                                                                     000000000000000000000000000000CONTRATAO DE ASSESSORIA FINANCEIRA PARA AUXILIAR NO GERENCIAMENTO DA CARTEIRA DO RPPS CONF RD 143/2025CONTRATO N 62/2023 E TERMO ADITIVO N 01/2024 VIGENTE AT 20/06/2025PROCESSO 218/2023 DISPENSA 05/2023                                                                                                                                                                                                      S0000000000000000006270                  2023S0000004690  C
020250100067500000000000000000244280120250000000481654+                                                                                                                                                                     000000000000000000000000000000REMUNERAO REFERENTE AO MS DE JANEIRO DE 2025FAPS-PENSIONISTAS-DO-TESOUROPROVENTOSPARCELA AUTONOMAOUTROS PAGAMENTOS                                                                                                                                                                                                                                                                                              N00000000000000000000                    0000X000000000   X
020250100067900000000000000000248280120250000000579484+                                                                                                                                                                     000000000000000000000000000000REMUNERAO REFERENTE AO MES DE JANEIRO DE 2024JETON RPPS                                                                                                                                                                                                                                                                                                                                                         N00000000000000000000                    0000X000000000   X
020250100067100000000000000000240280120250000000806696+                                                                                                                                                                     000000000000000000000000000000REMUNERAO REFERENTE AO MS DE JANEIRO DE 2025FAPS-PENSIONISTASPROVENTOS                                                                                                                                                                                                                                                                                                                                          N00000000000000000000                    0000X000000000   X
020250100067400000000000000000243280120250000000828936+                                                                                                                                                                     000000000000000000000000000000REMUNERAO REFERENTE AO MS DE JANEIRO DE 2025FAPS-PENSIONISTAS-DO-TESOURO-RPPSPROVENTOS                                                                                                                                                                                                                                                                                                                          N00000000000000000000                    0000X000000000   X
020250100024400000000000000000176270120250000000074394+                                                                                                                                                                     000000000000000000000000000000COMPENSAO PREVIDENCIRIA ENTRE O REGIME PRPRIO DE PREVIDNCIA SOCIAL RPPS DE INDEPENDNCIA E O FUNDO MUNICIPAL DE PREVIDNCIA SOCIAL DE CAMPO VERDE- MT REFERENTE AO TEMPO DE CONTRIBUIO DE UM SERVIDOR QUE FOI COMPUTADO EM MAIS DE UM REGIME DE PREVIDNCIA VALOR MENSAL  PAGO DE ACORDO COM OS VALORES CONSTANTES NO RELATRIO DO COMPREVCF RD 152/2025                                                            N00000000000000000000                    0000X000000000   X
020250100066200000000000000000231280120250000001037554+                                                                                                                                                                     000000000000000000000000000000REMUNERAO REFERENTE AO MS DE JANEIRO DE 2025FAPS-INATIVOS-PROFESSOR-INVALIDEZANUENIOS INATIVOSVENCIMENTO                                                                                                                                                                                                                                                                                                        N00000000000000000000                    0000X000000000   X
020250100067800000000000000000247280120250000001107941+                                                                                                                                                                     000000000000000000000000000000REMUNERAO REFERENTE AO MS DE JANEIRO DE 2025FAPS-INATIVOS-DO-TESOURO-PISOANUENIOS INATIVOSVENCIMENTO                                                                                                                                                                                                                                                                                                            N00000000000000000000                    0000X000000000   X
020250100067000000000000000000239280120250000001145425+                                                                                                                                                                     000000000000000000000000000000REMUNERAO REFERENTE AO MS DE JANEIRO DE 2025FAPS-PENSIONISTAS-VLREAL-RPPSPROVENTOS                                                                                                                                                                                                                                                                                                                              N00000000000000000000                    0000X000000000   X
020250100066100000000000000000230280120250000001328949+                                                                                                                                                                     000000000000000000000000000000REMUNERAO REFERENTE AO MS DE JANEIRO DE 2025FAPS-INATIVOS-GERAL-TEMPO-CONTRIB-RPPSPROVENTOS                                                                                                                                                                                                                                                                                                                     N00000000000000000000                    0000X000000000   X
020250100066500000000000000000234280120250000001725679+                                                                                                                                                                     000000000000000000000000000000REMUNERAO REFERENTE AO MS DE JANEIRO DE 2025FAPS-INATIVOS-GERAL -IDADE-VLREALPROVENTOSPARCELA AUTONOMA                                                                                                                                                                                                                                                                                                          N00000000000000000000                    0000X000000000   X
020250100065900000000000000000228280120250000001730715+                                                                                                                                                                     000000000000000000000000000000REMUNERAO REFERENTE AO MS DE JANEIRO DE 2025FAPS-INATIVOS-GERAL-ESPECI-VLREAL-RPPSPROVENTOS                                                                                                                                                                                                                                                                                                                     N00000000000000000000                    0000X000000000   X
020250100066600000000000000000235280120250000001883199+                                                                                                                                                                     000000000000000000000000000000REMUNERAO REFERENTE AO MS DE JANEIRO DE 2025FAPS-INATIVOS-GERAL -INVALIDEZPROVENTOSPARCELA AUTONOMA                                                                                                                                                                                                                                                                                                             N00000000000000000000                    0000X000000000   X
020250100024600000000000000000175270120250000000092938+                                                                                                                                                                     000000000000000000000000000000COMPENSAO PREVIDENCIRIA ENTRE O REGIME PRPRIO DE PREVIDNCIA SOCIAL RPPS DE INDEPENDNCIA E O INSTITUTO DE PREVIDNCIA DO ESTADO DO RIO GRANDE DO SUL-IPERGS REFERENTE AO TEMPO DE CONTRIBUIO DE SERVIDORES QUE FORAM COMPUTADO EM MAIS DE UM REGIME DE PREVIDNCIA VALOR MENSAL  PAGO DE ACORDO COM OS VALORES CONSTANTES NO RELATRIO DO COMPREVCF RD 155/2025                                                     N00000000000000000000                    0000X000000000   X
020250100066000000000000000000229280120250000002442111+                                                                                                                                                                     000000000000000000000000000000REMUNERAO REFERENTE AO MS DE JANEIRO DE 2025FAPS-INATIVOS-GERAL-INVALID-VLREALPROVENTOSPARCELA AUTONOMA                                                                                                                                                                                                                                                                                                         N00000000000000000000                    0000X000000000   X
020250100066700000000000000000236280120250000003157057+                                                                                                                                                                     000000000000000000000000000000REMUNERAO REFERENTE AO MS DE JANEIRO DE 2025FAPS-INATIVOS-GERAL -TEMPO-CONTRIBPROVENTOS                                                                                                                                                                                                                                                                                                                         N00000000000000000000                    0000X000000000   X
020250100067300000000000000000242280120250000004049415+                                                                                                                                                                     000000000000000000000000000000REMUNERAO REFERENTE AO MS DE JANEIRO DE 2025FAPS-PENSIONISTAS-VLREALPROVENTOSPARCELA AUTONOMA                                                                                                                                                                                                                                                                                                                   N00000000000000000000                    0000X000000000   X
020250100066800000000000000000237280120250000015069247+                                                                                                                                                                     000000000000000000000000000000REMUNERAO REFERENTE AO MS DE JANEIRO DE 2025FAPS-INATIVOS-PROFESSOR-TEMP-CONTRANUENIOS INATIVOSVENCIMENTO                                                                                                                                                                                                                                                                                                       N00000000000000000000                    0000X000000000   X
020220100837400000000000000000000191220220000000020200-                                                                                                                                                                     000000000000000000000000000000REMUNERAO REFERENTE AO MS DE NOVEMBRO DE 2022FAPS-PENSIONISTAS-VLREAL13 SALARIOPARCELA AUTONOMAPROVENTOS                                                                                                                                                                                                                                                                                                        N00000000000000000000                    0000X000000000   X
020220100837400000000000000012587251120220000003994158+                                                                                                                                                                     000000000000000000000000000000REMUNERAO REFERENTE AO MS DE NOVEMBRO DE 2022FAPS-PENSIONISTAS-VLREAL13 SALARIOPARCELA AUTONOMAPROVENTOS                                                                                                                                                                                                                                                                                                        N00000000000000000000                    0000X000000000   X
FINALIZADOR0000000051