12091144000180010120253101202501022025FUNDO DE PREVIDENCIA SOCIAL RPPS                                                
020250100067200000000000000762999300120250000000151800+                                                                                                                                                      000000021311010101000201000000021311010101000201REMUNERAO REFERENTE AO MS DE JANEIRO DE 2025FAPS-PENSIONISTAS-TRESOURO-VLREALPROVENTOSPARCELA AUTONOMA                                                                                                                                                                                                                                                                                                          00000000000000000427
020250100066900000000000000762996300120250000000192560+                                                                                                                                                      000000021311010101000201000000021311010101000201REMUNERAO REFERENTE AO MS DE JANEIRO DE 2025FAPS-INATIVOS-PROFESSOR-INVALIDEZ-VLREALPROVENTOS                                                                                                                                                                                                                                                                                                                   00000000000000000424
020250100066300000000000000762990300120250000000224070+                                                                                                                                                      000000021311010101000201000000021311010101000201REMUNERAO REFERENTE AO MS DE JANEIRO DE 2025FAPS-INATIVOS-GERAL ESPECIAL VLREALPROVENTOS                                                                                                                                                                                                                                                                                                                        00000000000000000418
020250100067700000000000000763004300120250000000328431+                                                                                                                                                      000000021311010101000201000000021311010101000201REMUNERAO REFERENTE AO MS DE JANEIRO DE 2025FAPS-INATIVOS-DO-TESOUROPROVENTOS                                                                                                                                                                                                                                                                                                                                   00000000000000000432
020250100066400000000000000762991300120250000000349085+                                                                                                                                                      000000021311010101000201000000021311010101000201REMUNERAO REFERENTE AO MS DE JANEIRO DE 2025FAPS-INATIVOS-GERAL -IDADEPROVENTOSPARCELA AUTONOMA                                                                                                                                                                                                                                                                                                                 00000000000000000419
020250100067600000000000000763003300120250000000471056+                                                                                                                                                      000000021311010101000201000000021311010101000201REMUNERAO REFERENTE AO MS DE JANEIRO DE 2025FAPS-INATIVOS-GERAL-TEMPCONT-CAMARAPROVENTOS                                                                                                                                                                                                                                                                                                                        00000000000000000431
020250100067500000000000000763002300120250000000481654+                                                                                                                                                      000000021311010101000201000000021311010101000201REMUNERAO REFERENTE AO MS DE JANEIRO DE 2025FAPS-PENSIONISTAS-DO-TESOUROPROVENTOSPARCELA AUTONOMAOUTROS PAGAMENTOS                                                                                                                                                                                                                                                                                              00000000000000000430
020250100067900000000000000762985300120250000000579484+                                                                                                                                                      000000021311010101000201000000021311010101000201REMUNERAO REFERENTE AO MES DE JANEIRO DE 2024JETON RPPS                                                                                                                                                                                                                                                                                                                                                         00000000000000000413
020250100067100000000000000762998300120250000000806696+                                                                                                                                                      000000021311010101000201000000021311010101000201REMUNERAO REFERENTE AO MS DE JANEIRO DE 2025FAPS-PENSIONISTASPROVENTOS                                                                                                                                                                                                                                                                                                                                          00000000000000000426
020250100067400000000000000763001300120250000000828936+                                                                                                                                                      000000021311010101000201000000021311010101000201REMUNERAO REFERENTE AO MS DE JANEIRO DE 2025FAPS-PENSIONISTAS-DO-TESOURO-RPPSPROVENTOS                                                                                                                                                                                                                                                                                                                          00000000000000000429
020250100066200000000000000762989300120250000001037554+                                                                                                                                                      000000021311010101000201000000021311010101000201REMUNERAO REFERENTE AO MS DE JANEIRO DE 2025FAPS-INATIVOS-PROFESSOR-INVALIDEZANUENIOS INATIVOSVENCIMENTO                                                                                                                                                                                                                                                                                                        00000000000000000417
020250100067800000000000000763005300120250000001107941+                                                                                                                                                      000000021311010101000201000000021311010101000201REMUNERAO REFERENTE AO MS DE JANEIRO DE 2025FAPS-INATIVOS-DO-TESOURO-PISOANUENIOS INATIVOSVENCIMENTO                                                                                                                                                                                                                                                                                                            00000000000000000433
020250100067000000000000000762997300120250000001145425+                                                                                                                                                      000000021311010101000201000000021311010101000201REMUNERAO REFERENTE AO MS DE JANEIRO DE 2025FAPS-PENSIONISTAS-VLREAL-RPPSPROVENTOS                                                                                                                                                                                                                                                                                                                              00000000000000000425
020250100066100000000000000762988300120250000001328949+                                                                                                                                                      000000021311010101000201000000021311010101000201REMUNERAO REFERENTE AO MS DE JANEIRO DE 2025FAPS-INATIVOS-GERAL-TEMPO-CONTRIB-RPPSPROVENTOS                                                                                                                                                                                                                                                                                                                     00000000000000000416
020250100066500000000000000762992300120250000001725679+                                                                                                                                                      000000021311010101000201000000021311010101000201REMUNERAO REFERENTE AO MS DE JANEIRO DE 2025FAPS-INATIVOS-GERAL -IDADE-VLREALPROVENTOSPARCELA AUTONOMA                                                                                                                                                                                                                                                                                                          00000000000000000420
020250100065900000000000000762986300120250000001730715+                                                                                                                                                      000000021311010101000201000000021311010101000201REMUNERAO REFERENTE AO MS DE JANEIRO DE 2025FAPS-INATIVOS-GERAL-ESPECI-VLREAL-RPPSPROVENTOS                                                                                                                                                                                                                                                                                                                     00000000000000000414
020250100066600000000000000762993300120250000001883199+                                                                                                                                                      000000021311010101000201000000021311010101000201REMUNERAO REFERENTE AO MS DE JANEIRO DE 2025FAPS-INATIVOS-GERAL -INVALIDEZPROVENTOSPARCELA AUTONOMA                                                                                                                                                                                                                                                                                                             00000000000000000421
020250100066000000000000000762987300120250000002442111+                                                                                                                                                      000000021311010101000201000000021311010101000201REMUNERAO REFERENTE AO MS DE JANEIRO DE 2025FAPS-INATIVOS-GERAL-INVALID-VLREALPROVENTOSPARCELA AUTONOMA                                                                                                                                                                                                                                                                                                         00000000000000000415
020250100066700000000000000762994300120250000003157057+                                                                                                                                                      000000021311010101000201000000021311010101000201REMUNERAO REFERENTE AO MS DE JANEIRO DE 2025FAPS-INATIVOS-GERAL -TEMPO-CONTRIBPROVENTOS                                                                                                                                                                                                                                                                                                                         00000000000000000422
020250100067300000000000000763000300120250000004049415+                                                                                                                                                      000000021311010101000201000000021311010101000201REMUNERAO REFERENTE AO MS DE JANEIRO DE 2025FAPS-PENSIONISTAS-VLREALPROVENTOSPARCELA AUTONOMA                                                                                                                                                                                                                                                                                                                   00000000000000000428
020250100066800000000000000762995300120250000015069247+                                                                                                                                                      000000021311010101000201000000021311010101000201REMUNERAO REFERENTE AO MS DE JANEIRO DE 2025FAPS-INATIVOS-PROFESSOR-TEMP-CONTRANUENIOS INATIVOSVENCIMENTO                                                                                                                                                                                                                                                                                                       00000000000000000423
020220100837400000000000000658275291120220000003994158+                                                                                                                                                      000000021311010101000201000000021311010101000201REMUNERAO REFERENTE AO MS DE NOVEMBRO DE 2022FAPS-PENSIONISTAS-VLREAL13 SALARIOPARCELA AUTONOMAPROVENTOS                                                                                                                                                                                                                                                                                                        00000000000000011914
020220100837400000000000000658545291120220000000121200-                                                                                                                                                      000000021311010101000201000000021311010101000201REMUNERAO REFERENTE AO MS DE NOVEMBRO DE 2022FAPS-PENSIONISTAS-VLREAL13 SALARIOPARCELA AUTONOMAPROVENTOS                                                                                                                                                                                                                                                                                                        00000000000000012587
FINALIZADOR0000000023