12091144000180010120253101202501022025FUNDO DE PREVIDENCIA SOCIAL RPPS                                                
1000000000000000000002010000031603566000003522503900000403698380000029841467000004380195800000338754570000048128122000004111930300000345227020000056552725000003091798800000604376830000000000000000000
1200000000000000000002010000000000000000001043040100000107676850000011890010000001221029600000151653210000012564339000001271567400000126578460000012666104000001271794200000394067470000000000000000000
1210000000000000000002010000000000000000001043040100000107676850000011890010000001221029600000151653210000012564339000001271567400000126578460000012666104000001271794200000394067470000000000000000000
1215000000000000000002010000000000000000001043040100000107676850000011890010000001221029600000151653210000012564339000001271567400000126578460000012666104000001271794200000394067470000000000000000000
1215010000000000000002010000000000000000001043040100000107676850000011890010000001221029600000151653210000012564339000001271567400000126578460000012666104000001271794200000394067470000000000000000000
1215011000000000000002010000000000000000001019498100000105322650000011654590000001197487600000149135170000012328919000001248025400000124224260000012430684000001248252200000368711380000000000000000000
1215011100000000000050010000000000000000001019498100000105322650000011654590000001197487600000149135170000012328919000001248025400000124224260000012430684000001248252200000368711380000000000008000000
1215012000000000000002010000000000000000000019146800000001914680000000191468000000019146800000002078520000000191468000000019146800000001914680000000191468000000019146800000020261730000000000000000000
1215012100000000000050010000000000000000000019146800000001914680000000191468000000019146800000002078520000000191468000000019146800000001914680000000191468000000019146800000020261730000000000008000000
1215013000000000000002010000000000000000000004395200000000439520000000043952000000004395200000000439520000000043952000000004395200000000439520000000043952000000004395200000005094360000000000000000000
1215013100000000000050010000000000000000000004395200000000439520000000043952000000004395200000000439520000000043952000000004395200000000439520000000043952000000004395200000005094360000000000008000000
1300000000000000000002010000031603566000002479463800000296010590000017951457000003159166200000187101360000035563783000002840362900000218648560000029212379000001820004600000210309360000000000000000000
1320000000000000000002010000031603566000002479463800000296010590000017951457000003159166200000187101360000035563783000002840362900000218648560000029212379000001820004600000210309360000000000000000000
1321000000000000000002010000031603566000002479463800000296010590000017951457000003159166200000187101360000035563783000002840362900000218648560000029212379000001820004600000210309360000000000000000000
1321010000000000000002010000000000000000000000000000000000000000000000000000000000000000000000000000000000000000000000000000000000000000000000000000000000000000000000000000021959820000000000000000000
1321010100000000000002010000000000000000000000000000000000000000000000000000000000000000000000000000000000000000000000000000000000000000000000000000000000000000000000000000021959820000000000000000000
1321010115000000000050010000000000000000000000000000000000000000000000000000000000000000000000000000000000000000000000000000000000000000000000000000000000000000000000000000021959820000000000008000000
1321040000000000000002010000031603566000002479463800000296010590000017951457000003159166200000187101360000035563783000002840362900000218648560000029212379000001820004600000188349540000000000000000000
1321040100000000000002010000031603566000002479463800000296010590000017951457000003159166200000187101360000035563783000002840362900000218648560000029212379000001820004600000188349540000000000000000000
1321040101000000000050010000003069733000000203743200000025174080000002186619000000247136300000032664120000002776962000000151378000000000000000000000000000000000000000000000000000000000000000008000000
1321040102000000000050010000002155386000000186294300000020349940000001438524000000191177300000015662750000002357781000000195120100000021142940000002178202000000146463400000030123800000000000008000000
1321040103000000000050010000000000000000000000000000000000000000000000000000000000000000000000000000000000000000000000000000000000000000000000000000000000000000000000000000000000000000000000008000000
1321040104000000000050010000002972460000000190863500000019403210000000000000000000244634000000000000000000004868756000000270810300000011487910000000706186000000000000000000000000000000000000008000000
1321040105000000000050010000000000000000000000000000000000000000000000000000000000000000000000000000000000000000000000000000000000000000000000000000000000000000000000000000000000000000000000008000000
1321040106000000000050010000004693848000000411967300000054090650000000000000000000742814500000011294950000002967533000000173885400000012786000000002424361000000114982900000002517200000000000008000000
1321040107000000000050010000003323572000000209178600000041400140000000000000000000498792600000012286890000003676347000000308250600000023312040000003966901000000155436500000000297360000000000008000000
1321040108000000000050010000002939939000000236273200000024924070000002695049000000255943600000012837120000000912387000000080129100000007182940000000994403000000092947000000033712690000000000008000000
1321040109000000000050010000000235447000000019921600000002156150000000211031000000019313000000001902740000000245648000000023215900000002288410000000266867000000024259700000002498150000000000008020000
1321040110000000000050010000006301307000000526072800000056248640000005824184000000375304700000029705480000003556925000000434975600000057492770000006180241000000553855900000057155380000000000008000000
1321040111000000000050010000005911874000000495149300000052263710000005596050000000520563000000050607590000005882900000000572089300000055486940000006232283000000537747300000057863630000000000008000000
1321040112000000000050010000000000000000000000000000000000000000000000000000000000063487200000000000000000003245145000000212753000000000000000000001032052000000000000000000000000000000000000008000000
1321040113000000000050010000000000000000000000000000000000000000000000000000000000000000000000005826600000002263990000000170713100000007847640000001698530000000032465600000000000000000000000008000000
1321040114000000000050010000000000000000000000000000000000000000000000000000000000000000000000014313120000002809409000000247042500000019620970000003532353000000161846300000004181330000000000008000000
1900000000000000000002010000000000000000000000000000000000010940000000000000000000000000000000000000000000000000000000000000000000000000000000000014674242000000000000000000000000000000000000000000000
1990000000000000000002010000000000000000000000000000000000010940000000000000000000000000000000000000000000000000000000000000000000000000000000000014674242000000000000000000000000000000000000000000000
1999000000000000000002010000000000000000000000000000000000010940000000000000000000000000000000000000000000000000000000000000000000000000000000000014674242000000000000000000000000000000000000000000000
1999030000000000000002010000000000000000000000000000000000010940000000000000000000000000000000000000000000000000000000000000000000000000000000000014674242000000000000000000000000000000000000000000000
1999030100000000000002010000000000000000000000000000000000010940000000000000000000000000000000000000000000000000000000000000000000000000000000000014674242000000000000000000000000000000000000000000000
1999030101000000000050010000000000000000000000000000000000010940000000000000000000000000000000000000000000000000000000000000000000000000000000000000104992000000000000000000000000000000000000008000000
1999030102000000000050010000000000000000000000000000000000000000000000000000000000000000000000000000000000000000000000000000000000000000000000000014569250000000000000000000000000000000000000008000000
7000000000000000000002010000018447804000002980113800000307750500000033971465000003488657300000433294920000035898128000003633051500000361652890000036188870000003633698700000917932360000000000000000000
7200000000000000000002010000018447804000002980113800000307750500000033971465000003488657300000433294920000035898128000003633051500000361652890000036188870000003633698700000917932360000000000000000000
7210000000000000000002010000018447804000002980113800000307750500000033971465000003488657300000433294920000035898128000003633051500000361652890000036188870000003633698700000917932360000000000000000000
7215000000000000000002010000018447804000002980113800000307750500000033971465000003488657300000433294920000035898128000003633051500000361652890000036188870000003633698700000917932360000000000000000000
7215020000000000000002010000000000000000002912851200000301024210000033298843000003421394900000426100570000035225506000003565789300000354926680000035516249000003566436300000858870970000000000000000000
7215021000000000000002010000000000000000002912851200000301024210000033298843000003421394900000426100570000035225506000003565789300000354926680000035516249000003566436300000858870970000000000000000000
7215021100000000000002010000000000000000002912851200000301024210000033298843000003421394900000426100570000035225506000003565789300000354926680000035516249000003566436300000858870970000000000000000000
7215021101000000000050010000000000000000001019497800000105358430000011592690000001197487800000149111760000012328923000001248025900000110027250000011010035000001105595200000326586930000000000008000000
7215021102000000000050010000000000000000001747710800000180614570000020041211000002052837400000255660380000021135308000002139474000000212956030000021309752000002139861900000437468500000000000008000000
7215021103000000000050010000000000000000000145642600000015051210000001664942000000171069700000021328430000001761275000000178289400000031943400000003196462000000320979200000094815540000000000008020000
7215500000000000000002010000000000000000000067262600000006726290000000672622000000067262400000007194350000000672622000000067262200000006726210000000672621000000067262400000059061390000000000000000000
7215501000000000000002010000000000000000000054704900000005470520000000547045000000054704700000005938580000000547045000000054704500000005470440000000547044000000054704700000047195250000000000000000000
7215501100000000000050010000000000000000000021882000000002188230000000218823000000021882300000002375470000000218822000000021882200000002188200000000218820000000021882000000023156190000000000008000000
7215501200000000000050010000000000000000000032822900000003282290000000328222000000032822400000003563110000000328223000000032822300000003282240000000328224000000032822700000024039060000000000008000000
7215502000000000000002010000000000000000000012557700000001255770000000125577000000012557700000001255770000000125577000000012557700000001255770000000125577000000012557700000011866140000000000000000000
7215502100000000000050010000000000000000000005023100000000502310000000050231000000005023100000000502310000000050231000000005023100000000502310000000050231000000005023100000005822130000000000008000000
7215502200000000000050010000000000000000000007534600000000753460000000075346000000007534600000000753460000000075346000000007534600000000753460000000075346000000007534600000006044010000000000008000000
7215510000000000000002010000018447804000000000000000000000000000000000000000000000000000000000000000000000000000000000000000000000000000000000000000000000000000000000000000000000000000000000000000000
7215511000000000000002010000018447804000000000000000000000000000000000000000000000000000000000000000000000000000000000000000000000000000000000000000000000000000000000000000000000000000000000000000000
7215511100000000000050010000018447804000000000000000000000000000000000000000000000000000000000000000000000000000000000000000000000000000000000000000000000000000000000000000000000000000000000008000000
7600000000000000000002010000000000000000000000000000000000000000000000000000000000000000000000000000000000000000000000000000000000000000000000000000000000000000000000000000000000000000000000000000000
7610000000000000000002010000000000000000000000000000000000000000000000000000000000000000000000000000000000000000000000000000000000000000000000000000000000000000000000000000000000000000000000000000000
7611000000000000000002010000000000000000000000000000000000000000000000000000000000000000000000000000000000000000000000000000000000000000000000000000000000000000000000000000000000000000000000000000000
7611500000000000000050010000000000000000000000000000000000000000000000000000000000000000000000000000000000000000000000000000000000000000000000000000000000000000000000000000000000000000000000000000000
7611509000000000000050010000000000000000000000000000000000000000000000000000000000000000000000000000000000000000000000000000000000000000000000000000000000000000000000000000000000000000000000000000000
7611509100000000000050010000000000000000000000000000000000000000000000000000000000000000000000000000000000000000000000000000000000000000000000000000000000000000000000000000000000000000000000008020000
900000000000000000000201000000000000000000000000000000000000000-0000052546350000000000000-00000204464900000000000000000000000000-0000003464960000000000000-000002929041-0000071103590000000000000000000
910000000000000000000201000000000000000000000000000000000000000-0000052546350000000000000-00000204464900000000000000000000000000-0000003464960000000000000-000002929041-0000071103590000000000000000000
913000000000000000000201000000000000000000000000000000000000000-0000052546350000000000000-00000204464900000000000000000000000000-0000003464960000000000000-000002929041-0000071103590000000000000000000
913200000000000000000201000000000000000000000000000000000000000-0000052546350000000000000-00000204464900000000000000000000000000-0000003464960000000000000-000002929041-0000071103590000000000000000000
913210000000000000000201000000000000000000000000000000000000000-0000052546350000000000000-00000204464900000000000000000000000000-0000003464960000000000000-000002929041-0000071103590000000000000000000
913210400000000000000201000000000000000000000000000000000000000-0000052546350000000000000-00000204464900000000000000000000000000-0000003464960000000000000-000002929041-0000071103590000000000000000000
913210401000000000000201000000000000000000000000000000000000000-0000052546350000000000000-00000204464900000000000000000000000000-0000003464960000000000000-000002929041-0000071103590000000000000000000
913210401040000000005001000000000000000000000000000000000000000-0000023951540000000000000-0000014097770000000000000000000000000000000000000000000000000000-000002738591-0000019415181090000000008000000
913210401060000000005001000000000000000000000000000000000000000-000001624168000000000000000000000000000000000000000000000000000000000000000000000000000000000000000000000000000000001090000000008000000
913210401070000000005001000000000000000000000000000000000000000-000001235313000000000000000000000000000000000000000000000000000000000000000000000000000000000000000000000000000000001090000000008000000
91321040112000000000500100000000000000000000000000000000000000000000000000000000000000000-00000063487200000000000000000000000000-0000003464960000000000000-000000190450-0000039949201090000000008000000
91321040113000000000500100000000000000000000000000000000000000000000000000000000000000000000000000000000000000000000000000000000000000000000000000000000000000000000000-0000011739211090000000008000000
FINALIZADOR0000000078