12091144000180010120253101202501022025FUNDO DE PREVIDENCIA SOCIAL RPPS                                                
10000000000000000000020100000534753590000000000000000000000000000000000000000000000000000000000000000000000000000000000000000000000000000000000000000000000000000000000000000000000000008528292200008528292200008528292200008528292200008528292200009878539000000000000000000000000
12000000000000000000020100000000000000000000000000000000000000000000000000000000000000000000000000000000000000000000000000000000000000000000000000000000000000000000000000000000000000002559960000002559960000002559960000002559960000002559960000003910200000000000000000000000000
12100000000000000000020100000000000000000000000000000000000000000000000000000000000000000000000000000000000000000000000000000000000000000000000000000000000000000000000000000000000000002559960000002559960000002559960000002559960000002559960000003910200000000000000000000000000
12150000000000000000020100000000000000000000000000000000000000000000000000000000000000000000000000000000000000000000000000000000000000000000000000000000000000000000000000000000000000002559960000002559960000002559960000002559960000002559960000003910200000000000000000000000000
12150100000000000000020100000000000000000000000000000000000000000000000000000000000000000000000000000000000000000000000000000000000000000000000000000000000000000000000000000000000000002559960000002559960000002559960000002559960000002559960000003910200000000000000000000000000
12150110000000000000020100000000000000000000000000000000000000000000000000000000000000000000000000000000000000000000000000000000000000000000000000000000000000000000000000000000000000002520000000002520000000002520000000002520000000002520000000003850000000000000000000000000000
12150111000000000000020100000000000000000000000000000000000000000000000000000000000000000000000000000000000000000000000000000000000000000000000000000000000000000000000000000000000000002520000000002520000000002520000000002520000000002520000000003850000000000000000180000000000
12150120000000000000020100000000000000000000000000000000000000000000000000000000000000000000000000000000000000000000000000000000000000000000000000000000000000000000000000000000000000000029200000000029200000000029200000000029200000000029200000000044000000000000000000000000000
12150121000000000000020100000000000000000000000000000000000000000000000000000000000000000000000000000000000000000000000000000000000000000000000000000000000000000000000000000000000000000029200000000029200000000029200000000029200000000029200000000044000000000000000180000000000
12150130000000000000020100000000000000000000000000000000000000000000000000000000000000000000000000000000000000000000000000000000000000000000000000000000000000000000000000000000000000000010760000000010760000000010760000000010760000000010760000000016200000000000000000000000000
12150131000000000000020100000000000000000000000000000000000000000000000000000000000000000000000000000000000000000000000000000000000000000000000000000000000000000000000000000000000000000010760000000010760000000010760000000010760000000010760000000016200000000000000180000000000
13000000000000000000020100000534753590000000000000000000000000000000000000000000000000000000000000000000000000000000000000000000000000000000000000000000000000000000000000000000000000005968332200005968332200005968332200005968332200005968332200005968339000000000000000000000000
13200000000000000000020100000534753590000000000000000000000000000000000000000000000000000000000000000000000000000000000000000000000000000000000000000000000000000000000000000000000000005968332200005968332200005968332200005968332200005968332200005968339000000000000000000000000
13210000000000000000020100000534753590000000000000000000000000000000000000000000000000000000000000000000000000000000000000000000000000000000000000000000000000000000000000000000000000005968332200005968332200005968332200005968332200005968332200005968339000000000000000000000000
13210100000000000000020100000044353280000000000000000000000000000000000000000000000000000000000000000000000000000000000000000000000000000000000000000000000000000000000000000000000000000000000000000000000000000000000000000000000000000000000000000000000000000000000000000000000
13210101000000000000020100000044353280000000000000000000000000000000000000000000000000000000000000000000000000000000000000000000000000000000000000000000000000000000000000000000000000000000000000000000000000000000000000000000000000000000000000000000000000000000000000000000000
13210101150000000000020100000044353280000000000000000000000000000000000000000000000000000000000000000000000000000000000000000000000000000000000000000000000000000000000000000000000000000000000000000000000000000000000000000000000000000000000000000000000000000000000180000000000
13210400000000000000020100000490400310000000000000000000000000000000000000000000000000000000000000000000000000000000000000000000000000000000000000000000000000000000000000000000000000005968332200005968332200005968332200005968332200005968332200005968339000000000000000000000000
13210401000000000000020100000490400310000000000000000000000000000000000000000000000000000000000000000000000000000000000000000000000000000000000000000000000000000000000000000000000000005968332200005968332200005968332200005968332200005968332200005968339000000000000000000000000
13210401010000000000020100000000000000000000000000000000000000000000000000000000000000000000000000000000000000000000000000000000000000000000000000000000000000000000000000000000000000000428333200000428333200000428333200000428333200000428333200000428334000000000000180000000000
13210401020000000000020100000072027370000000000000000000000000000000000000000000000000000000000000000000000000000000000000000000000000000000000000000000000000000000000000000000000000000766666600000766666600000766666600000766666600000766666600000766667000000000000180000000000
13210401030000000000020100000000000000000000000000000000000000000000000000000000000000000000000000000000000000000000000000000000000000000000000000000000000000000000000000000000000000000003333200000003333200000003333200000003333200000003333200000003334000000000000180000000000
13210401040000000000020100000000000000000000000000000000000000000000000000000000000000000000000000000000000000000000000000000000000000000000000000000000000000000000000000000000000000000331666600000331666600000331666600000331666600000331666600000331667000000000000180000000000
13210401050000000000020100000000000000000000000000000000000000000000000000000000000000000000000000000000000000000000000000000000000000000000000000000000000000000000000000000000000000000103333200000103333200000103333200000103333200000103333200000103334000000000000180000000000
13210401060000000000020100000000000000000000000000000000000000000000000000000000000000000000000000000000000000000000000000000000000000000000000000000000000000000000000000000000000000000683333200000683333200000683333200000683333200000683333200000683334000000000000180000000000
13210401070000000000020100000000000000000000000000000000000000000000000000000000000000000000000000000000000000000000000000000000000000000000000000000000000000000000000000000000000000000650000000000650000000000650000000000650000000000650000000000650000000000000000180000000000
13210401080000000000020100000075095150000000000000000000000000000000000000000000000000000000000000000000000000000000000000000000000000000000000000000000000000000000000000000000000000000608333200000608333200000608333200000608333200000608333200000608334000000000000180000000000
13210401090000000000020100000003663430000000000000000000000000000000000000000000000000000000000000000000000000000000000000000000000000000000000000000000000000000000000000000000000000000091666600000091666600000091666600000091666600000091666600000091667000000000000180200000000
13210401100000000000020100000074949560000000000000000000000000000000000000000000000000000000000000000000000000000000000000000000000000000000000000000000000000000000000000000000000000001025000000001025000000001025000000001025000000001025000000001025000000000000000180000000000
13210401110000000000020100000071730360000000000000000000000000000000000000000000000000000000000000000000000000000000000000000000000000000000000000000000000000000000000000000000000000000906666600000906666600000906666600000906666600000906666600000906667000000000000180000000000
13210401120000000000020100000074949220000000000000000000000000000000000000000000000000000000000000000000000000000000000000000000000000000000000000000000000000000000000000000000000000000111666600000111666600000111666600000111666600000111666600000111667000000000000180000000000
13210401130000000000020100000057019010000000000000000000000000000000000000000000000000000000000000000000000000000000000000000000000000000000000000000000000000000000000000000000000000000098333200000098333200000098333200000098333200000098333200000098334000000000000180000000000
13210401140000000000020100000060966210000000000000000000000000000000000000000000000000000000000000000000000000000000000000000000000000000000000000000000000000000000000000000000000000000160000000000160000000000160000000000160000000000160000000000160000000000000000180000000000
70000000000000000000020100000000000000000000000000000000000000000000000000000000000000000000000000000000000000000000000000000000000000000000000000000000000000000000000000000000000000006530339800006530339800006530339800006530339800006530339800007972301000000000000000000000000
72000000000000000000020100000000000000000000000000000000000000000000000000000000000000000000000000000000000000000000000000000000000000000000000000000000000000000000000000000000000000006530339800006530339800006530339800006530339800006530339800007972301000000000000000000000000
72100000000000000000020100000000000000000000000000000000000000000000000000000000000000000000000000000000000000000000000000000000000000000000000000000000000000000000000000000000000000006530339800006530339800006530339800006530339800006530339800007972301000000000000000000000000
72150000000000000000020100000000000000000000000000000000000000000000000000000000000000000000000000000000000000000000000000000000000000000000000000000000000000000000000000000000000000006530339800006530339800006530339800006530339800006530339800007972301000000000000000000000000
72150200000000000000020100000000000000000000000000000000000000000000000000000000000000000000000000000000000000000000000000000000000000000000000000000000000000000000000000000000000000006117333200006117333200006117333200006117333200006117333200007517334000000000000000000000000
72150210000000000000020100000000000000000000000000000000000000000000000000000000000000000000000000000000000000000000000000000000000000000000000000000000000000000000000000000000000000006117333200006117333200006117333200006117333200006117333200007517334000000000000000000000000
72150211000000000000020100000000000000000000000000000000000000000000000000000000000000000000000000000000000000000000000000000000000000000000000000000000000000000000000000000000000000006117333200006117333200006117333200006117333200006117333200007517334000000000000000000000000
72150211010000000000020100000000000000000000000000000000000000000000000000000000000000000000000000000000000000000000000000000000000000000000000000000000000000000000000000000000000000002914000000002914000000002914000000002914000000002914000000002914000000000000000180000000000
72150211020000000000020100000000000000000000000000000000000000000000000000000000000000000000000000000000000000000000000000000000000000000000000000000000000000000000000000000000000000002800000000002800000000002800000000002800000000002800000000004200000000000000000180000000000
72150211030000000000020100000000000000000000000000000000000000000000000000000000000000000000000000000000000000000000000000000000000000000000000000000000000000000000000000000000000000000403333200000403333200000403333200000403333200000403333200000403334000000000000180200000000
72155000000000000000020100000000000000000000000000000000000000000000000000000000000000000000000000000000000000000000000000000000000000000000000000000000000000000000000000000000000000000091340000000091340000000091340000000091340000000091340000000133300000000000000000000000000
72155010000000000000020100000000000000000000000000000000000000000000000000000000000000000000000000000000000000000000000000000000000000000000000000000000000000000000000000000000000000000073200000000073200000000073200000000073200000000073200000000114000000000000000000000000000
72155011000000000000020100000000000000000000000000000000000000000000000000000000000000000000000000000000000000000000000000000000000000000000000000000000000000000000000000000000000000000029200000000029200000000029200000000029200000000029200000000044000000000000000180000000000
72155012000000000000020100000000000000000000000000000000000000000000000000000000000000000000000000000000000000000000000000000000000000000000000000000000000000000000000000000000000000000044000000000044000000000044000000000044000000000044000000000070000000000000000180000000000
72155020000000000000020100000000000000000000000000000000000000000000000000000000000000000000000000000000000000000000000000000000000000000000000000000000000000000000000000000000000000000018140000000018140000000018140000000018140000000018140000000019300000000000000000000000000
72155021000000000000020100000000000000000000000000000000000000000000000000000000000000000000000000000000000000000000000000000000000000000000000000000000000000000000000000000000000000000006140000000006140000000006140000000006140000000006140000000009300000000000000180000000000
72155022000000000000020100000000000000000000000000000000000000000000000000000000000000000000000000000000000000000000000000000000000000000000000000000000000000000000000000000000000000000012000000000012000000000012000000000012000000000012000000000010000000000000000180000000000
72155100000000000000020100000000000000000000000000000000000000000000000000000000000000000000000000000000000000000000000000000000000000000000000000000000000000000000000000000000000000000321666600000321666600000321666600000321666600000321666600000321667000000000000000000000000
72155110000000000000020100000000000000000000000000000000000000000000000000000000000000000000000000000000000000000000000000000000000000000000000000000000000000000000000000000000000000000321666600000321666600000321666600000321666600000321666600000321667000000000000000000000000
72155111000000000000020100000000000000000000000000000000000000000000000000000000000000000000000000000000000000000000000000000000000000000000000000000000000000000000000000000000000000000321666600000321666600000321666600000321666600000321666600000321667000000000000180000000000
FINALIZADOR0000000053