12091144000180010120253101202501022025FUNDO DE PREVIDENCIA SOCIAL RPPS                                                
2018300000000000000DESPESAS CORRENTES                                                                                            S01
2018310000000000000PESSOAL E ENCARGOS SOCIAIS                                                                                    S02
2018313000000000000TRANSFERENCIAS A ESTADOS E AO DISTRITO FEDERAL                                                                S03
2018313013000000000OBRIGAES PATRONAIS                                                                                            S05
2018313013400000000ENCARGOS DE PESSOAL REQUISITADOS DE OUTROS ENTES                                                              S06
2018313013400100000CONTRIBUIO PATRONAL PARA O RPPS DO ESTADO                                                                     A07
2018314000000000000TRANSFERENCIAS A MUNICIPIOS                                                                                   S03
2018314013000000000OBRIGAES PATRONAIS                                                                                            S05
2018314013400000000ENCARGOS DE PESSOAL REQUISITADO DE OUTROS ENTES                                                               S06
2018314013400100000CONTRIBUIO PATRONAL PARA RPPS DE OUTRO MUNICIPIO                                                              A07
2018315000000000000TRANSFERNCIAS A INSTITUIES PRIVADAS SEM FINS LUCRATIVOS                                                       S03
2018315011000000000VENCIMENTOS E VANTAGENS FIXAS - PESSOAL CIVIL                                                                 S05
2018315011990000000OUTRAS DESPESAS FIXAS - PESSOAL CIVIL                                                                         S06
2018315011991000000TRANSFERENCIAS DE RECURSOS PARA COBERTURA DE DESPESAS COM PESSOAL CONTRATADO ATRAVS DE INSTITUIES             A07
2018315013000000000OBRIGAES PATRONAIS                                                                                            S05
2018315013010000000FGTS                                                                                                          A06
2018315013020000000INSS                                                                                                          A06
2018317100000000000TRANSFERNCIAS A CONSRCIOS PBLICOS                                                                             S04
2018317170000000000RATEIO PELA PARTICIPAO EM CONSRCIO PBLICO                                                                     S05
2018317170010000000COFRON                                                                                                        A06
2018317170020000000CISMISSOES                                                                                                    A06
2018317170030000000CIGRES                                                                                                        A06
2018319000000000000APLICAES DIRETAS                                                                                              S03
2018319001000000000APOSENTADORIAS DO RPPS RESERVA REMUNERADA E REFORMAS DOS MILITARES                                            S05
2018319001010000000PROVENTOS - PESSOAL CIVIL                                                                                     A06
201831900106000000013 SALARIO - APOSENTADOS - PESSOAL CIVIL                                                                      A06
2018319001990000000OUTRAS APOSENTADORIAS                                                                                         A06
2018319003000000000PENSES DO RPPS E DO MILITAR                                                                                   S05
2018319003010000000PENSES - PESSOAL CIVIL                                                                                        A06
201831900303000000013 SALARIO - PESSOAL CIVIL - PENSIONISTAS                                                                     A06
2018319003990000000OUTRAS PENSOES                                                                                                A06
2018319004000000000CONTRATAO POR TEMPO DETERMINADO                                                                               S05
2018319004010000000PROFESSORES SUBSTITUTOS/VISITANTES                                                                            S06
2018319004010200000CONTRATACAO POR TEMPO DETERMINADO DE PROFESSORES                                                              A07
2018319004150000000OBRIGACOES PATRONAIS                                                                                          S06
2018319004150100000INSS DE PESSOAL CONTRATADO TEMPORARIAMENTE                                                                    A07
2018319004150200000FGTS DE PESSOAL CONTRATADO TEMPORARIAMENTE                                                                    A07
2018319004990000000OUTRAS CONTRATACOES POR TEMPO DETERMINADO                                                                     S06
2018319004990100000CONTRATACAO POR TEMPO DETERMINADO DE PROFISSIONAIS DA SAUDE                                                   A07
2018319004999900000OUTRAS CONTRATACOES POR TEMPO DETERMINADO                                                                     A07
2018319005000000000OUTROS BENEFCIOS PREVIDENCIRIOS DO SERVIDOR OU DO MILITAR                                                     S05
2018319005000100000OUTROS BENEFICIOS PREVIDENCIARIOS - PESSOAL ATIVO                                                             S07
2018319005000100100AUXILIO-DOENCA - PESSOAL ATIVO                                                                                A08
2018319005000100200AUXILIO-RECLUSAO - PESSOAL ATIVO                                                                              A08
2018319005000100300SALARIO MATERNIDADE - PESSOAL ATIVO                                                                           A08
2018319005000100400AUXILIO-ACIDENTE                                                                                              A08
2018319005000100500SALARIO-FAMILIA DE SEGURADOS                                                                                  A08
2018319005000100600ABONO ANUAL  13 SALARIO                                                                                       A08
2018319005000109900OUTROS BENEFICIOS PREVIDENCIARIOS                                                                             A08
2018319005000200000OUTROS BENEFICIOS PREVIDENCIARIOS - PESSOAL INATIVO                                                           S07
2018319005000200100AUXILIO-DOENCA - PESSOAL INATIVO                                                                              A08
2018319005000200200AUXILIO-RECLUSAO - PESSOAL INATIVO                                                                            A08
2018319005000200300SALARIO MATERNIDADE - PESSOAL INATIVO                                                                         A08
2018319005000200400AUXILIO-ACIDENTE                                                                                              A08
2018319005000200500SALARIO-FAMILIA DE SEGURADOS                                                                                  A08
2018319005000200600ABONO ANUAL  13 SALARIO                                                                                       A08
2018319005000209900OUTROS BENEFICIOS PREVIDENCIARIOS                                                                             A08
2018319005000300000OUTROS BENEFICIOS PREVIDENCIARIOS - PENSIONISTAS                                                              S07
2018319005000300100AUXILIO-DOENCA - PENSIONISTAS                                                                                 A08
2018319005000300200AUXILIO-RECLUSAO - PENSIONISTAS                                                                               A08
2018319005000300300SALARIO MATERNIDADE - PENSIONISTAS                                                                            A08
2018319005000300400AUXILIO-ACIDENTE                                                                                              A08
2018319005000300600ABONO ANUAL  13 SALARIO                                                                                       A08
2018319005000309900OUTROS BENEFICIOS PREVIDENCIARIOS                                                                             A08
2018319007000000000CONTRIBUIO A ENTIDADES FECHADAS DE PREVIDNCIA                                                                 S05
2018319007010000000COMPLEMENTACAO DE PREVIDENCIA                                                                                 A06
2018319007030000000CONTRIBUICAO  PATRONAL PREVIDENCIA PRIVADA                                                                    A06
2018319007990000000OUTRAS CONTRIBUICOES                                                                                          A06
2018319008000000000OUTROS BENEFCIOS ASSISTENCIAIS DO SERVIDOR E DO MILITAR                                                       S05
2018319008010000000AUXILIO FUNERAL ATIVO CIVIL                                                                                   A06
2018319008030000000AUXILIO FUNERAL INATIVO CIVIL                                                                                 A06
2018319008050000000AUXILIO NATALIDADE ATIVO CIVIL                                                                                A06
2018319008070000000AUXILIO NATALIDADE INATIVO CIVIL                                                                              A06
2018319008090000000AUXILIO RECLUSAO ATIVO CIVIL                                                                                  A06
2018319008110000000AUXILIO RECLUSAO INATIVO CIVIL                                                                                A06
2018319008130000000AUXILIO FUNERAL PENSIONISTA CIVIL                                                                             A06
2018319008150000000AUXILIO RECLUSAO PENSIONISTA CIVIL                                                                            A06
2018319008180000000AUXILIO NATALIDADE PENSIONISTA CIVIL                                                                          A06
2018319008990000000OUTROS BENEFICIOS ASSISTENCIAIS                                                                               S06
2018319008990100000AUXILIO CRECHE                                                                                                A07
2018319008990200000ASSISTENCIA PRE-ESCOLAR                                                                                       A07
2018319008990300000AUXILIO INVALIDEZ                                                                                             A07
2018319008990400000CONTRIBUICAO DA ENTIDADE PARA O ATENDIMENTO A SAUDE DO SERVIDOR                                               A07
2018319009000000000SALRIO-FAMLIA                                                                                                 S05
2018319009010000000SALARIO FAMILIA - ATIVO PESSOAL CIVIL                                                                         A06
2018319009020000000SALARIO FAMILIA-INATIVO PESSOAL CIVIL                                                                         A06
2018319009050000000SALARIO FAMILIA-PENSIONISTA PESSOAL CIVIL                                                                     A06
2018319009990000000OUTROS SALARIOS-FAMILIA                                                                                       A06
2018319011000000000VENCIMENTOS E VANTAGENS FIXAS - PESSOAL CIVIL                                                                 S05
2018319011010000000VENCIMENTOS E SALARIOS                                                                                        S06
2018319011010100000VENCIMENTOS E VANTAGENS FIXAS - SERVIDORES                                                                    A07
2018319011040000000ADICIONAL NOTURNO                                                                                             A06
2018319011050000000INCORPORACOES                                                                                                 A06
2018319011070000000ABONO DE PERMANENCIA                                                                                          A06
2018319011080000000ADIANTAMENTO PECUNIARIO                                                                                       A06
2018319011090000000ADICIONAL DE PERICULOSIDADE                                                                                   A06
2018319011100000000ADICIONAL DE INSALUBRIDADE                                                                                    A06
2018319011110000000ADICIONAL DE ATIVIDADES PENOSAS                                                                               A06
2018319011300000000ABONO PROVISORIO - PESSOAL CIVIL                                                                              A06
2018319011310000000GRATIFICACAO POR EXERCICIO DE CARGOS                                                                          A06
2018319011330000000GRATIFICACAO POR EXERCICIO DE FUNCOES                                                                         A06
2018319011370000000GRATIFICACAO DE TEMPO DE SERVICO                                                                              A06
2018319011400000000GRATIFICACOES ESPECIAIS                                                                                       A06
2018319011420000000FERIAS INDENIZADAS                                                                                            A06
201831901143000000013 SALARIO                                                                                                    A06
2018319011440000000FERIAS - ABONO PECUNIARIO                                                                                     A06
2018319011450000000FERIAS - ABONO CONSTITUCIONAL                                                                                 A06
2018319011460000000FERIAS - PAGAMENTO ANTECIPADO                                                                                 A06
2018319011470000000LICENCA-PREMIO                                                                                                A06
2018319011480000000LICENA PRMIO INDENIZADA                                                                                       A06
2018319011490000000LICENCA CAPACITACAO                                                                                           A06
2018319011730000000REMUNERAO PELA  PARTICIPACAO EM  ORGAOS DE  DELIBERACAO COLETIVA                                              S06
2018319011730100000REMUNERACAO DOS CONSELHEIROS TUTELARES                                                                        A07
2018319011730200000REMUNERACAO DOS INTEGRANTES DAS JARIS                                                                         A07
2018319011739900000REMUNERACOES PELA PARTICIPACAO EM OUTROS ORGAOS DE DELIBERACAO COLETIVA                                       S07
2018319011739900100JETON CONSELHO RPPS                                                                                           A08
2018319011740000000SUBSIDIOS                                                                                                     A06
2018319011750000000REPRESENTACAO MENSAL                                                                                          A06
2018319011990000000OUTRAS DESPESAS FIXAS - PESSOAL CIVIL                                                                         S06
2018319011991100000MAIS MEDICOS                                                                                                  A07
2018319013000000000OBRIGAES PATRONAIS                                                                                            S05
2018319013010000000FGTS                                                                                                          S06
2018319013010100000FGTS - SERVIDORES                                                                                             A07
2018319013020000000CONTRIBUICOES PREVIDENCIARIAS - INSS                                                                          S06
2018319013020100000INSS - SERVIDORES                                                                                             A07
2018319013020300000INSS - AGENTES POLITICOS                                                                                      A07
2018319013020400000INSS SOBRE SESSAO EXTRAORDINARIA - AGENTES POLITICOS                                                          A07
2018319013020500000INSS SOBRE CONVOCACAO EXTRAORDINARIA - AGENTES POLITICOS                                                      A07
2018319013150000000MULTAS                                                                                                        A06
2018319013400000000ENCARGOS DE PESSOAL REQUISITADO DE OUTROS ENTES                                                               A06
2018319013990000000OUTRAS OBRIGACOES PATRONAIS                                                                                   S06
2018319013990100000ENCARGO PATRONAL SOBRE SERVICOS DE MEI                                                                        A07
2018319016000000000OUTRAS DESPESAS VARIVEIS - PESSOAL CIVIL                                                                      S05
2018319016040000000CONVOCACAO EXTRAORDINARIA                                                                                     A06
2018319016320000000SUBSTITUICOES                                                                                                 A06
2018319016440000000SERVICOS EXTRAORDINARIOS                                                                                      S06
2018319016440100000HORAS EXTRAORDINARIAS                                                                                         A07
2018319016440200000HORA-MAQUINA                                                                                                  A07
2018319016440300000PLANTAO MEDICO/ENFERMAGEM                                                                                     A07
2018319016440400000PLANTAO MOTORISTA                                                                                             A07
2018319016990000000OUTRAS DESPESAS VARIAVEIS - PESSOAL CIVIL                                                                     S06
2018319016990100000AJUDA DE CUSTO                                                                                                A07
2018319016990200000REMOCOES                                                                                                      A07
2018319016990300000SESSOES EXTRAORDINARIAS                                                                                       A07
2018319034000000000OUTRAS DESPESAS DE PESSOAL DECORRENTES DE  CONTRATOS DE TERCEIRIZAO                                           S05
2018319034010000000SUBSTITUICAO  DE MAO-DE-OBRA  ART18 PAR1 LC 101                                                               A06
2018319046000000000AUXILIO-ALIMENTACAO                                                                                           S05
2018319046000200000AUXILIO-ALIMENTACAO - SERVIDORES                                                                              A07
2018319047000000000OBRIGAES TRIBUTRIAS E CONTRIBUTIVAS                                                                           S05
2018319047000200000CONTRIBUICAO SUPLEMENTAR AO FGTS                                                                              A07
2018319047000300000PAGAMENTO DE PARCELAMENTO DE DIVIDAS COM ENCARGOS SOCIAIS                                                     A07
2018319067000000000DEPSITOS COMPULSRIOS                                                                                          S05
2018319067020000000DEPOSITOS JUDICIAIS                                                                                           A06
2018319067030000000DEPOSITOS PARA RECURSOS                                                                                       A06
2018319067990000000OUTROS DEPOSITOS COMPULSORIOS                                                                                 A06
2018319091000000000SENTENCAS JUDICIAIS                                                                                           S05
2018319091010000000PRECATORIOS - ATIVO CIVIL                                                                                     A06
2018319091060000000SENTENCAS JUDICIAIS DE PEQUENO VALOR                                                                          A06
2018319091230000000PRECATORIOS - INATIVO CIVIL                                                                                   A06
2018319091360000000PRECATORIOS - PENSIONISTA CIVIL                                                                               A06
2018319091990000000OUTRAS SENTENCAS JUDICIAIS                                                                                    A06
2018319092000000000DESPESAS DE EXERCICIOS ANTERIORES                                                                             S05
2018319092010000000ATIVO CIVIL                                                                                                   A06
2018319092020000000INATIVO CIVIL                                                                                                 A06
2018319092040000000OUTRAS DESPESAS VARIAVEIS - CIVIL                                                                             A06
2018319092050000000OBRIGACOES PATRONAIS - ATIVO CIVIL                                                                            A06
2018319092060000000OBRIGACOES PATRONAIS - INATIVO CIVIL                                                                          A06
2018319092120000000PENSIONISTA CIVIL                                                                                             A06
2018319092230000000GRATIFICACAO POR TEMPO DE SERVICO-ANUENIO ATIVO CIVIL                                                         A06
2018319092240000000GRATIFICACAO POR  TEMPO DE SERVICO-ANUENIO INATIVO CIVIL                                                      A06
2018319092250000000GRATIFICACAO POR TEMPO DE SERVICO-ANUENIO PENSIONISTA  CIVIL                                                  A06
2018319092260000000RESSARCIMENTO DE DESPESAS DE PESSOAL REQUISITADO                                                              A06
2018319092910000000PRECATORIOS                                                                                                   A06
2018319092990000000OUTRAS DESPESAS DE EXERCICIOS ANTERIORES                                                                      A06
2018319094000000000INDENIZAES E RESTITUIES TRABALHISTAS                                                                          S05
2018319094010000000INDENIZACOES TRABALHISTAS - ATIVO CIVIL                                                                       S06
2018319094010100000INDENIZACAO PARA DEMISSAO DE SERVIDORES/ EMPREGADOS                                                           A07
2018319094010200000DESPESAS RELATIVAS A PROGRAMAS DE  DESLIGAMENTO VOLUNTARIO                                                    A07
2018319094010300000FRIAS  AVISO PREVIO E/OU 13 SALRIO  INDENIZADOS                                                               A07
2018319094030000000INDENIZACOES TRABALHISTAS - INATIVO CIVIL                                                                     A06
2018319094130000000INDENIZACOES TRABALHISTAS - PENSIONISTA CIVIL                                                                 A06
2018319094990000000DIVERSAS INDENIZACOES TRABALHISTAS                                                                            A06
2018319094993000000ENCARGOS SOBRE INDENIZACOES TRABALHISTAS                                                                      A07
2018319096000000000RESSARCIMENTO DE DESPESAS DE PESSOAL REQUISITADO                                                              S05
2018319096010000000PESSOAL REQUISITADO DE OUTROS ORGAOS                                                                          A06
2018319100000000000APLICAO DIRETA DECORRENTE DE OPERAO ENTRE RGOS FUNDOS E ENTIDADES INTEGRANTES DOS ORAMENTOS                   S04
2018319113000000000OBRIGAES PATRONAIS                                                                                            S05
2018319113030000000CONTRIBUIO PATRONAL PARA O RPPS                                                                               S06
2018319113030100000CONTRIBUICOES PATRONAIS PARA O RPPS - ATIVO CIVIL                                                             A07
2018319113030200000CONTRIBUICOES PATRONAIS PARA O RPPS - INATIVO CIVIL                                                           A07
2018319113030300000CONTRIBUICOES PATRONAIS PARA O RPPS - PENSIONISTA                                                             A07
2018319113030400000CONTRIBUICOES PATRONAIS PARA O RPPS - VEREADORES                                                              A07
2018319113080000000PLANO DE SEGURIDADE  SOCIAL DO SERVIDOR - PESSOAL  ATIVO                                                      S06
2018319113080100000CONTRIBUICAO PATRONAL PARA O ATENDIMENTO A SAUDE DO SERVIDOR ATIVO                                            A07
2018319113080200000CONTRIBUICAO PATRONAL PARA A ASSISTENCIA SOCIAL DO SERVIDOR ATIVO                                             A07
2018319113100000000PLANO DE SEGURIDADE  SOCIAL DO SERVIDOR - PESSOAL  INATIVO                                                    S06
2018319113100100000CONTRIBUICAO PATRONAL PARA O ATENDIMENTO A SAUDE DO SERVIDOR INATIVO                                          A07
2018319113100200000CONTRIBUICAO PATRONAL PARA A ASSISTENCIA SOCIAL DO SERVIDOR INATIVO                                           A07
2018319113120000000PLANO DE SEGURIDADE  SOCIAL DO PENSIONISTA                                                                    S06
2018319113120100000CONTRIBUICAO PATRONAL PARA O ATENDIMENTO A SAUDE DO PENSIONISTA                                               A07
2018319113120200000CONTRIBUICAO PATRONAL PARA A ASSISTENCIA SOCIAL DO PENSIONISTA                                                A07
2018319113150000000MULTAS                                                                                                        S06
2018319113150100000MULTAS SOBRE A CONTRIBUIO PATRONAL PARA O RPPS                                                                A07
2018319113150200000MULTAS SOBRE A CONTRIBUIO PATRONAL PARA O PLANO DE SEGURIDADE  SOCIAL DO SERVIDOR                             A07
2018319113170000000JUROS                                                                                                         S06
2018319113170100000JUROS SOBRE A CONTRIBUIO PATRONAL PARA O RPPS                                                                 A07
2018319113170200000JUROS SOBRE A CONTRIBUIO PATRONAL PARA O PLANO DE SEGURIDADE  SOCIAL DO SERVIDOR                              A07
2018319113400000000ENCARGOS DE PESSOAL REQUISITADO DE OUTROS ENTES                                                               A06
2018319113990000000OUTRAS OBRIGACOES PATRONAIS                                                                                   S06
2018319113990100000AMORTIZAO DO PASSIVO ATUARIAL COM O RPPS - ALQUOTA SUPLEMENTAR                                                A07
2018319192000000000DESPESAS DE EXERCICIOS ANTERIORES                                                                             S05
2018319192050000000OBRIGACOES PATRONAIS - ATIVO CIVIL                                                                            A06
2018319192060000000OBRIGACOES PATRONAIS - INATIVO CIVIL                                                                          A06
2018319192130000000MULTAS                                                                                                        A06
2018319192170000000JUROS                                                                                                         A06
2018319192260000000RESSARCIMENTO DE DESPESAS DE PESSOAL REQUISITADO                                                              A06
2018319192990000000OUTRAS DESPESAS DE EXERCICIOS ANTERIORES                                                                      A06
2018319196000000000RESSARCIMENTO DE DESPESAS DE PESSOAL REQUISITADO - OPERAES INTRA-ORAMENTARIAS                                 S05
2018319196010000000PESSOAL REQUISITADO DE OUTROS ORGOS                                                                           A06
2018320000000000000JUROS E ENCARGOS DA DIVIDA                                                                                    S02
2018329000000000000APLICAES DIRETAS                                                                                              S03
2018329021000000000JUROS SOBRE A DVIDA POR CONTRATO                                                                              S05
2018329021010000000JUROS DA DIVIDA CONTRATADA COM INSTITUICOES FINANCEIRAS                                                       S06
2018329021010100000JUROS DO CAMINHO DA ESCOLA                                                                                    A07
2018329021020000000JUROS DA DIVIDA CONTRATADA COM GOVERNOS                                                                       S06
2018329021020100000JUROS DA DIVIDA CONTRATADA COM A UNIAO                                                                        A07
2018329021020200000JUROS DA DIVIDA CONTRATADA COM O ESTADO                                                                       A07
2018329021030000000JUROS DA DIVIDA CONTRATADA NO EXTERIOR                                                                        A06
2018329021990000000OUTROS JUROS DA DIVIDA CONTRATADA                                                                             A06
2018329022000000000OUTROS ENCARGOS SOBRE A DVIDA POR CONTRATO                                                                    S05
2018329022010000000ENCARGOS DA DIVIDA CONTRATADA COM INSTITUICOES FINANCEIRAS                                                    A06
2018329022020000000ENCARGOS DA DIVIDA CONTRATADA COM GOVERNOS                                                                    S06
2018329022020100000ENCARGOS DA DIVIDA CONTRATADA COM A UNIAO                                                                     A07
2018329022020200000ENCARGOS DA DIVIDA CONTRATADA COM O ESTADO                                                                    A07
2018329022990000000DIVERSOS ENCARGOS DA DIVIDA CONTRATADA                                                                        A06
2018329023000000000JUROS DESGIOS E DESCONTOS DA DVIDA MOBILIRIA                                                                  S05
2018329023010000000JUROS                                                                                                         A06
2018329023020000000DESAGIOS                                                                                                      A06
2018329023030000000DESCONTOS                                                                                                     A06
2018329024000000000OUTROS ENCARGOS SOBRE A DVIDA MOBILIRIA                                                                       S05
2018329024010000000ENCARGOS                                                                                                      A06
2018329025000000000ENCARGOS SOBRE OPERAES DE CRDITO POR ANTECIPAO DA RECEITA                                                     S05
2018329025010000000ENCARGOS SOBRE ADIANTAMENTOS BANCARIOS                                                                        A06
2018329091000000000SENTENCAS JUDICIAIS                                                                                           A05
2018329092000000000DESPESAS DE EXERCICIOS ANTERIORES                                                                             S05
2018329092010000000JUROS DA DIVIDA INTERNA                                                                                       A06
2018329092020000000ENCARGOS DA DIVIDA INTERNA                                                                                    A06
2018329092040000000ENCARGOS DA DIVIDA EXTERNA                                                                                    A06
2018329093000000000INDENIZAES E RESTITUIES                                                                                       S05
2018329093990000000OUTRAS INDENIZACOES E RESTITUICOES                                                                            A06
2018330000000000000OUTRAS DESPESAS CORRENTES                                                                                     S02
2018332000000000000TRANSFERENCIAS A UNIAO                                                                                        S03
2018332001000000000APOSENTADORIAS RESERVA REMUNERADA E REFORMAS                                                                  S05
2018332001010000000COMPENSACAO PREVIDAPOSENTADORIAS ENTRE RPPS E RGPS                                                            S06
2018332001010100000COMPENSACAO PREVIDENCIARIA - APOSENTADORIAS ENTRE PM E RGPS                                                   A07
2018332001010200000COMPENSACAO PREVIDENCIARIA - APOSENTADORIAS ENTRE RPPS E RGPS                                                 A07
2018332003000000000PENSOES                                                                                                       S05
2018332003010000000COMPENSACAO PREVIDDE PENSOES ENTRE RPPS E RGPS                                                                S06
2018332003010100000COMPENSACAO PREVIDENCIARIA - PENSOES ENTRE PM E RGPS                                                          A07
2018332003010200000COMPENSACAO PREVIDENCIARIA - PENSOES ENTRE RPPS E RGPS                                                        A07
2018332039000000000OUTROS SERVICOS DE TERCEIROS - PESSOA JURIDICA                                                                S05
2018332039000100000PAGAMENTO DE LAUDEMIO                                                                                         A07
2018332041000000000CONTRIBUICOES                                                                                                 S05
2018332041990000000OUTRAS CONTRIBUICOES                                                                                          S06
2018332041990100000TRANSFERENCIAS FUNSET-FUNDO NACSEGURANCA EDUCTRANSITOLF 9503/97                                               A07
2018332041990200000TRANSFERENCIA VALORES A JUSTICA ELEITORAL                                                                     A07
2018332093000000000INDENIZAES E RESTITUIES                                                                                       S05
2018332093000100000RESTITUICAO DE TRANSFERENCIAS E CONVENIOS RECEBIDOS DA UNIAO                                                  A07
2018332200000000000EXECUO ORAMENTRIA DELEGADA  UNIO                                                                              S04
2018332230000000000MATERIAL DE CONSUMO                                                                                           A05
2018332239000000000OUTROS SERVICOS DE TERCEIROS - PESSOA JURIDICA                                                                A05
2018333000000000000TRANSFERENCIAS A ESTADOS E AO DISTRITO FEDERAL                                                                S03
2018333041000000000CONTRIBUICOES                                                                                                 S05
2018333041390000000RIO GRANDE DO SUL                                                                                             S06
2018333041390100000COMPENSACAO FINANCEIRA 9 ART201 DA CF                                                                         A07
2018333041390200000PROGRAMA TROCA-TROCA                                                                                          A07
2018333041390300000TRANSFERENCIAS PARA GRUPAMENTOS DE INCENDIO                                                                   A07
2018333043000000000SUBVENCOES SOCIAIS                                                                                            S05
2018333043390000000RIO GRANDE DO SUL                                                                                             A06
2018333047000000000OBRIGACOES TRIBUTARIAS E CONTRIBUTIVAS                                                                        S05
2018333047990000000OUTRAS OBRIGACOES TRIBUTARIAS E CONTRIBUTIVAS                                                                 A06
2018333093000000000INDENIZAES E RESTITUIES                                                                                       S05
2018333093390000000RIO GRANDE DO SUL                                                                                             S06
2018333093390100000RESTITUICAO DE TRANSFERENCIAS E CONVENIOS RECEBIDOS DO ESTADO                                                 A07
2018333093390200000RESTITUICAO DE IPVA                                                                                           A07
2018333100000000000TRANSFERNCIAS A ESTADOS E AO DISTRITO FEDERAL - FUNDO A FUNDO                                                 S04
2018333141000000000CONTRIBUIES                                                                                                   A05
2018333200000000000EXECUO ORAMENTRIA DELEGADA A ESTADOS E AO DISTRITO FEDERAL                                                    S04
2018333230000000000MATERIAL DE CONSUMO                                                                                           A05
2018333239000000000OUTROS SERVIOS DE TERCEIROS - PESSOA JURDICA                                                                  A05
2018334000000000000TRANSFERENCIAS A MUNICIPIOS                                                                                   S03
2018334041000000000CONTRIBUICOES                                                                                                 S05
2018334041390000000A MUNICIPIOS DO ESTADO DO RIO GRANDE DO SUL                                                                   S06
2018334041390100000COMPENSACAO FINANCEIRA 9 ART201 DA CF                                                                         A07
2018334041390200000CONTRIBUICOES A ESCOLAS MUNICIPAIS                                                                            A07
2018334041390300000CONTRIBUICOES MUNICIPIO POLO DA CONTRAPARTIDA CONVENIO C/UNIAO                                                A07
2018334041390400000TRANSFERENCIA A MUNICIPIO EMANCIPADO PARA ACERTO DE  CONTAS                                                   A07
2018334047000000000OBRIGAES TRIBUTARIAS E CONTRIBUTIVAS                                                                          S05
2018334047990000000OUTRAS OBRIGAES TRIBUTARIAS E CONTRIBUTIVAS                                                                   S06
2018334047990100000CONTRIBUIO PATRONAL PARA  RPPS DE OUTRO MUNICIPIO                                                             A07
2018334093000000000INDENIZACOES E RESTITUICOES                                                                                   S05
2018334093990000000OUTRAS INDENIZACOES E RESTITUICOES                                                                            S06
2018334093990100000RESTITUICAO DE TRANSFERENCIAS E CONVENIOS RECEBIDOS DOS MUNICIPIOS                                            A07
2018334200000000000EXECUO ORAMENTRIA DELEGADA A MUNICPIOS                                                                        S04
2018334239000000000OUTROS SERVIOS DE TERCEIROS - PESSOA JURDICA                                                                  A05
2018335000000000000TRANSFERNCIAS A INSTITUIES PRIVADAS SEM FINS LUCRATIVOS                                                       S03
2018335041000000000CONTRIBUICOES                                                                                                 S05
2018335041010000000INSTITUICOES DE CARATER ASSISTENCIAL  CULTURAL E EDUCACIONAL                                                  S06
2018335041010100000PROGRAMA DINHEIRO DIRETO NAS ESCOLAS - PDDE                                                                   A07
2018335041030000000INSTITUICOES DE PESQUISA  E DESENVOLVIMENTO TECNOLOGICO                                                       A06
2018335041080000000ENTIDADES REPRESENTATIVAS DE CLASSE                                                                           A06
2018335041990000000OUTRAS INSTITUICOES PRIVADAS                                                                                  A06
2018335043000000000SUBVENCOES SOCIAIS                                                                                            S05
2018335043010000000INSTITUICOES DE CARATER ASSISTENCIAL  CULTURAL E EDUCACIONAL                                                  A06
2018335043990000000OUTRAS INSTITUICOES PRIVADAS                                                                                  A06
2018335092000000000DESPESAS DE EXERCICIOS ANTERIORES                                                                             S05
2018335092990000000OUTRAS DESPESAS DE EXERCICIOS ANTERIORES                                                                      A06
2018335093000000000INDENIZAES E RESTITUIES                                                                                       S05
2018335093020000000RESTITUICOES                                                                                                  S06
2018335093020100000RESTITUIES A ENTIDADES PRIVADAS SEM FINS LUCRATIVOS                                                           A07
2018336000000000000TRANSFERNCIAS A INSTITUIES PRIVADAS COM FINS LUCRATIVOS                                                       S03
2018336045000000000SUBVENES ECONMICAS                                                                                            A05
2018337000000000000TRANSFERNCIAS A INSTITUIES MULTIGOVERNAMENTAIS                                                                S03
2018337041000000000CONTRIBUICOES                                                                                                 S05
2018337041990000000OUTRAS CONTRIBUICOES                                                                                          S06
2018337100000000000TRANSFERNCIAS A CONSRCIOS PBLICOS                                                                             S04
2018337170000000000RATEIO PELA PARTICIPAO EM CONSRCIO PBLICO                                                                     S05
2018337170010000000COFRON                                                                                                        A06
2018337170020000000CISMISSOES                                                                                                    A06
2018337170030000000CIGRES                                                                                                        A06
2018337200000000000EXECUO ORAMENTRIA DELEGADA A CONSRCIOS PBLICOS                                                                S04
2018337239000000000OUTROS SERVIOS DE TERCEIROS - PESSOA JURDICA                                                                  A05
2018339000000000000APLICAES DIRETAS                                                                                              S03
2018339014000000000DIRIAS -  CIVIL                                                                                               S05
2018339014140000000DIARIAS NO PAIS                                                                                               A06
2018339014160000000DIARIAS NO EXTERIOR                                                                                           A06
2018339014990000000OUTRAS DIARIAS                                                                                                A06
2018339018000000000AUXLIO FINANCEIRO A ESTUDANTES                                                                                S05
2018339018010000000BOLSAS DE ESTUDO NO PAIS                                                                                      A06
2018339018020000000BOLSAS DE ESTUDO NO EXTERIOR                                                                                  A06
2018339018030000000BOLSA ESCOLA - BENEFICIO                                                                                      A06
2018339018990000000OUTROS AUXILIOS FINANCEIROS A ESTUDANTES                                                                      A06
2018339020000000000AUXLIO FINANCEIRO A PESQUISADORES                                                                             S05
2018339020010000000AUXILIO A PESQUISADORES                                                                                       A06
2018339030000000000MATERIAL DE CONSUMO                                                                                           S05
2018339030010000000COMBUSTIVEIS E LUBRIFICANTES AUTOMOTIVOS                                                                      A06
2018339030020000000COMBUSTIVEIS E LUBRIFICANTES DE AVIACAO                                                                       A06
2018339030030000000COMBUSTIVEIS E LUBRIFICANTES  PARA  OUTRAS FINALIDADES                                                        A06
2018339030040000000GAS E OUTROS MATERIAIS ENGARRAFADOS                                                                           A06
2018339030050000000EXPLOSIVOS E MUNICOES                                                                                         A06
2018339030060000000ALIMENTOS PARA ANIMAIS                                                                                        A06
2018339030070000000GENEROS DE ALIMENTACAO                                                                                        S06
2018339030070100000MERENDA ESCOLAR                                                                                               S07
2018339030070100100MERENDA ESCOLAR ADQUIRIDA DA AGRICULTURA FAMILIAR                                                             A08
2018339030070100200MERENDA ESCOLAR ADQUIRIDAS DE OUTRAS FONTES                                                                   A08
2018339030079900000OUTROS GENEROS DE ALIMENTACAO                                                                                 A07
2018339030080000000ANIMAIS PARA PESQUISA E ABATE                                                                                 A06
2018339030090000000MATERIAL FARMACOLOGICO                                                                                        A06
2018339030100000000MATERIAL ODONTOLOGICO                                                                                         A06
2018339030110000000MATERIAL QUIMICO                                                                                              A06
2018339030120000000MATERIAL DE COUDELARIA OU DE USO ZOOTECNICO                                                                   A06
2018339030130000000MATERIAL DE CACA E PESCA                                                                                      A06
2018339030140000000MATERIAL EDUCATIVO E ESPORTIVO                                                                                A06
2018339030150000000MATERIAL PARA  FESTIVIDADES E HOMENAGENS                                                                      A06
2018339030160000000MATERIAL DE EXPEDIENTE                                                                                        A06
2018339030170000000MATERIAL DE PROCESSAMENTO DE DADOS                                                                            A06
2018339030180000000MATERIAIS E MEDICAMENTOS PARA  USO VETERINARIO                                                                A06
2018339030190000000MATERIAL DE ACONDICIONAMENTO E EMBALAGEM                                                                      A06
2018339030200000000MATERIAL DE CAMA MESA E BANHO                                                                                 A06
2018339030210000000MATERIAL DE COPA E COZINHA                                                                                    A06
2018339030220000000MATERIAL DE LIMPEZA E PRODUTOS  DE HIGIENIZACAO                                                               A06
2018339030230000000UNIFORMES TECIDOS E AVIAMENTOS                                                                                A06
2018339030240000000MATERIAL PARA  MANUTENCAO DE BENS IMOVEIS / INSTALAES                                                         A06
2018339030250000000MATERIAL PARA  MANUTENCAO DE BENS MOVEIS                                                                      A06
2018339030260000000MATERIAL ELETRICO E ELETRONICO                                                                                A06
2018339030270000000MATERIAL DE MANOBRA E PATRULHAMENTO                                                                           A06
2018339030280000000MATERIAL DE PROTECAO E SEGURANCA                                                                              A06
2018339030290000000MATERIAL PARA  AUDIO VIDEO E FOTO                                                                             A06
2018339030300000000MATERIAL PARA COMUNICACOES                                                                                    A06
2018339030310000000SEMENTES MUDAS DE PLANTAS E INSUMOS                                                                           A06
2018339030320000000SUPRIMENTO DE AVIACAO                                                                                         A06
2018339030330000000MATERIAL PARA  PRODUCAO INDUSTRIAL                                                                            A06
2018339030340000000SOBRESSAL MAQE MOTORES NAVIOS E EMBARCACOES                                                                   A06
2018339030350000000MATERIAL LABORATORIAL                                                                                         A06
2018339030360000000MATERIAL HOSPITALAR                                                                                           A06
2018339030370000000SOBRESSALENTES DE ARMAMENTO                                                                                   A06
2018339030380000000SUPRIMENTO DE PROTECAO AO VOO                                                                                 A06
2018339030390000000MATERIAL PARA  MANUTENCAO DE VEICULOS                                                                         A06
2018339030400000000MATERIAL BIOLOGICO                                                                                            A06
2018339030410000000MATERIAL PARA  UTILIZACAO EM GRAFICA                                                                          A06
2018339030420000000FERRAMENTAS                                                                                                   A06
2018339030430000000MATERIAL PARA  REABILITACAO PROFISSIONAL                                                                      A06
2018339030440000000MATERIAL DE SINALIZACAO VISUAL E OUTROS                                                                       A06
2018339030450000000MATERIAL TECNICO PARA  SELECAO E TREINAMENTO                                                                  A06
2018339030460000000MATERIAL BIBLIOGRAFICO                                                                                        A06
2018339030490000000BILHETES DE PASSAGEM                                                                                          A06
2018339030500000000BANDEIRAS FLAMULAS E INSIGNIAS                                                                                A06
2018339030510000000DISCOTECAS E FILMOTECAS NAO IMOBILIZAVEL                                                                      A06
2018339030540000000MATERIAL PARA MANUTENO E CONSERVAO DE ESTRADAS E VIAS                                                         A06
2018339030960000000MATERIAL DE CONSUMO - PAGAMENTO  ANTECIPADO                                                                   A06
2018339030990000000OUTROS MATERIAIS DE CONSUMO                                                                                   S06
2018339030990100000MATERIAL PARA MANUTENCAO DE MAQUINAS E EQUIPAMENTOS                                                           A07
2018339030990200000MATERIAIS PARA DOACAO                                                                                         A07
2018339030990300000MATERIAL PARA SUBSTITUICAO EM BENS DE TERCEIROS DANIFICADOS PELO MUNICIPIO                                    A07
2018339031000000000PREMIAES CULTURAIS ARTSTICAS CIENTFICAS DESPORTIVAS E OUTRAS                                                  S05
2018339031010000000PREMIACOES CULTURAIS                                                                                          A06
2018339031020000000PREMIACOES ARTISTICAS                                                                                         A06
2018339031030000000PREMIACOES CIENTIFICAS                                                                                        A06
2018339031040000000PREMIACOES DESPORTIVAS                                                                                        A06
2018339031050000000ORDENS HONORIFICAS                                                                                            A06
2018339031990000000OUTRAS PREMIACOES                                                                                             A06
2018339032000000000MATERIAL BEM OU SERVIO PARA DISTRIBUIO GRATUITA                                                               S05
2018339032010000000SERVICOS PRESTADOS GRATUITAMENTE                                                                              A06
2018339032020000000MATERIAL DE SAUDE DISTRIBUIDO GRATUITAMENTE                                                                   S06
2018339032020100000MEDICAMENTOS                                                                                                  A07
2018339032020200000MATERIAL HOSPITALAR                                                                                           A07
2018339032020300000OUTROS MATERIAIS DE DISTRIBUICAO GRATUITA                                                                     A07
2018339032030000000MATERIAL DESTINADO A ASSISTENCIA SOCIAL                                                                       S06
2018339032030100000MEDICAMENTOS                                                                                                  A07
2018339032030200000OUTROS MATERIAIS DE DISTRIBUICAO GRATUITA                                                                     A07
2018339032040000000MATERIAL EDUCACIONAL E CULTURAL                                                                               A06
2018339032050000000MERCADORIAS PARA DOACAO                                                                                       A06
2018339032070000000MATERIAL PARA CERIMONIAL                                                                                      A06
2018339032080000000MATERIAL PARA REABILITACAO PROFISSIONAL                                                                       A06
2018339032090000000MATERIAL PARA DIVULGACAO                                                                                      A06
2018339032100000000CONSULTAS E EXAMES PAGOS POR ADIANTAMENTO                                                                     A06
2018339032110000000SERVIOS PRESTADOS GRATUITAMENTE                                                                               A06
2018339032960000000MATERIAL DE DISTRIBUICAO GRATUITA - PAGAMENTO ANTECIPADO                                                      A06
2018339032990000000OUTROS MATERIAIS DE DISTRIBUICAO GRATUITA                                                                     A06
2018339033000000000PASSAGENS E DESPESAS COM LOCOMOO                                                                              S05
2018339033010000000PASSAGENS PARA O PAIS                                                                                         A06
2018339033020000000PASSAGENS PARA O EXTERIOR                                                                                     A06
2018339033030000000LOCACAO DE MEIOS DE TRANSPORTE                                                                                A06
2018339033050000000LOCOMOCAO URBANA                                                                                              A06
2018339033080000000PEDAGIOS                                                                                                      A06
2018339033960000000PASSAGENS E DESPESAS COM LOCOMOCAO-PAGAMENTO ANTECIPADO                                                       A06
2018339033990000000OUTRAS DESPESAS COM LOCOMOCAO                                                                                 A06
2018339035000000000SERVICOS DE CONSULTORIA                                                                                       S05
2018339035010000000ASSESSORIA E CONSULTORIA TECNICA OU JURIDICA                                                                  A06
2018339035020000000AUDITORIA EXTERNA                                                                                             A06
2018339035040000000CONSULTORIA EM TECNOCLOGIA DA INFORMAO                                                                        A06
2018339035960000000SERVICOS DE CONSULTORIA - PAGTO ANTECIPADO                                                                    A06
2018339035990000000OUTROS SERVICOS DE CONSULTORIA                                                                                A06
2018339036000000000OUTROS SERVIOS DE TERCEIROS - PESSOA FSICA                                                                    S05
2018339036010000000CONDOMINIOS                                                                                                   A06
2018339036020000000DIARIAS A COLABORADORES EVENTUAIS NO PAIS                                                                     A06
2018339036030000000DIARIAS A COLABORADORES EVENTUAIS NO EXTERIOR                                                                 A06
2018339036040000000COMISSOES E CORRETAGENS                                                                                       A06
2018339036050000000DIREITOS AUTORAIS                                                                                             A06
2018339036060000000SERVICOS TECNICOS PROFISSIONAIS                                                                               A06
2018339036070000000ESTAGIARIOS                                                                                                   A06
2018339036080000000BOLSA DE INICIACAO AO TRABALHO                                                                                A06
2018339036110000000PRO-LABORE A CONSULTORES EVENTUAIS                                                                            A06
2018339036130000000CONFERENCIAS E EXPOSICOES E ESPETCULOS                                                                        A06
2018339036140000000ARMAZENAGEM                                                                                                   A06
2018339036150000000LOCACAO DE IMOVEIS                                                                                            A06
2018339036160000000LOCACAO DE BENS MOVEIS E INTANGIVEIS                                                                          A06
2018339036180000000MANUTENCAO E CONSERVACAO  DE EQUIPAMENTOS                                                                     A06
2018339036200000000MANUTENCAO E CONSERVACAO  DE VEICULOS                                                                         A06
2018339036210000000MANUTENCAO E CONSERVACAO DE BENS MOVEIS DE OUTRAS NATUREZAS                                                   A06
2018339036220000000MANUTENCAO E CONSERVACAO  DE BENS IMOVEIS                                                                     A06
2018339036230000000FORNECIMENTO DE ALIMENTACAO                                                                                   A06
2018339036250000000SERVICOS DE LIMPEZA E CONSERVACAO                                                                             A06
2018339036260000000SERVICOS DOMESTICOS                                                                                           A06
2018339036270000000SERVICOS DE COMUNICACAO EM GERAL                                                                              A06
2018339036280000000SERVICO DE SELECAO E TREINAMENTO                                                                              A06
2018339036290000000HONORARIOS ADVOCATICIOS - ONUS DA SUCUMBENCIA                                                                 A06
2018339036300000000SERVICOS MEDICOS E ODONTOLOGICOS                                                                              A06
2018339036310000000SERVICOS DE REABILITACAO PROFISSIONAL                                                                         A06
2018339036320000000SERVICOS DE ASSISTENCIA SOCIAL                                                                                A06
2018339036340000000SERVICOS DE PERICIAS MEDICAS POR BENEFICIOS                                                                   A06
2018339036350000000SERVICOS  DE APOIO ADMINISTRATIVOS TECNICO E OPERACIONAL                                                      A06
2018339036360000000SERVICOS DE CONSERVACAO E REBENEFICIAMENTO  DE MERCADORIAS                                                    A06
2018339036370000000CONFECCAO DE MATERIAL DE ACONDICIONAMENTO  E EMBALAGEM                                                        A06
2018339036380000000CONFECCAO DE UNIFORMES BANDEIRAS E FLAMULAS                                                                   A06
2018339036390000000FRETES E TRANSPORTES DE ENCOMENDAS                                                                            A06
2018339036420000000JUROS                                                                                                         A06
2018339036450000000JETONS A CONSELHEIROS                                                                                         A06
2018339036460000000DIARIAS A CONSELHEIROS                                                                                        A06
2018339036540000000MANUTENO E CONSERVAO DE EQUIPAMENTO DE PROCESSAMENTO DE DADOS                                                 A06
2018339036570000000SERVIOS TCNICOS DE PROFISSIONAIS DE TI                                                                        A06
2018339036590000000SERVICOS DE AUDIO VIDEO E FOTO                                                                                A06
2018339036960000000OUTROS SERVICOS DE TERCEIROS PESSOA FISICA - PAGAMENTO ANTECIPADO                                             A06
2018339036990000000OUTROS SERVICOS                                                                                               S06
2018339036990100000SERVICOS NOTARIAIS                                                                                            A07
2018339037000000000LOCAO DE MO-DE-OBRA                                                                                           S05
2018339037010000000APOIO ADMINISTRATIVO TECNICO E OPERACIONAL                                                                    A06
2018339037020000000LIMPEZA E CONSERVACAO                                                                                         A06
2018339037030000000VIGILANCIA OSTENSIVA                                                                                          A06
2018339037040000000MANUTENCAO E CONSERVACAO DE BENS IMOVEIS                                                                      A06
2018339037050000000SERVICOS DE COPA E COZINHA                                                                                    A06
2018339037060000000MANUTENCAO E CONSERVACAO DE BENS MOVEIS                                                                       A06
2018339037090000000MANUTENO DE SOFTWARE                                                                                          A06
2018339037270000000SUPORTE A INFRAESTRUTURA DE TI                                                                                A06
2018339037280000000SUPORTE A USURIO DE TI                                                                                        A06
2018339037960000000LOCACAO DE MAO-DE-OBRA - PAGAMENTO  ANTECIPADO                                                                A06
2018339037990000000OUTRAS LOCACOES DE MAO DE OBRA                                                                                A06
2018339038000000000ARRENDAMENTO MERCANTIL                                                                                        S05
2018339038010000000MAQUINAS E APARELHOS                                                                                          A06
2018339038030000000VEICULOS RODOVIARIOS                                                                                          A06
2018339038040000000OUTROS BENS MOVEIS                                                                                            A06
2018339038050000000BENS IMOVEIS                                                                                                  A06
2018339038990000000OUTROS ARRENDAMENTOS                                                                                          A06
2018339039000000000OUTROS SERVIOS DE TERCEIROS - PESSOA JURDICA                                                                  S05
2018339039010000000ASSINATURAS DE PERIODICOS E ANUIDADES                                                                         A06
2018339039020000000CONDOMINIOS                                                                                                   A06
2018339039030000000COMISSOES CORRETAGENS E CUSTODIAS                                                                             A06
2018339039040000000DIREITOS AUTORAIS                                                                                             A06
2018339039050000000SERVICOS TECNICOS PROFISSIONAIS                                                                               A06
2018339039080000000MANUTENO DE SOFTWARE                                                                                          A06
2018339039090000000ARMAZENAGEM                                                                                                   A06
2018339039100000000LOCACAO DE IMOVEIS                                                                                            A06
2018339039110000000LOCAO DE SOFTWARES                                                                                            A06
2018339039120000000LOCACAO DE MAQUINAS E EQUIPAMENTOS                                                                            A06
2018339039140000000LOCACAO BENS MOVEIS  OUTRAS NATUREZAS E INTANGIVEIS                                                           A06
2018339039150000000TRIBUTOS A CONTA DO LOCATARIO                                                                                 A06
2018339039160000000MANUTENCAO E CONSERVACAO  DE BENS IMOVEIS                                                                     A06
2018339039170000000MANUTENCAO  E CONSERVACAO DE MAQUINAS E EQUIPAMENTOS                                                          A06
2018339039190000000MANUTENCAO E CONSERVACAO DE VEICULOS                                                                          A06
2018339039200000000MANUTENCAO E CONSERVACAO DE BENS MOVEIS DE OUTRAS NATUREZAS                                                   A06
2018339039210000000MANUTENCAO E CONSERVACAO  DE ESTRADAS E VIAS                                                                  A06
2018339039220000000EXPOSICOES CONGRESSOS E CONFERENCIAS                                                                          A06
2018339039230000000FESTIVIDADES E HOMENAGENS                                                                                     A06
2018339039250000000TAXA DE ADMINISTRAO                                                                                           A06
2018339039260000000DESENVOLVIMENTO DE SOFTWARE                                                                                   A06
2018339039270000000SUPORTE DE INFRAESTRUTURA                                                                                     A06
2018339039280000000SUPORTE A USURIOS DE TECNOLOGIA DA INFORMAO                                                                   A06
2018339039290000000HONORARIOS ADVOCATICIOS - ONUS DA SUCUMBENCIA                                                                 A06
2018339039300000000HOSPEDAGEM DE SISTEMAS                                                                                        A06
2018339039310000000LOCAO DE EQUIPAMENTOS DE PROCESSAMENTO DE DADOS                                                               A06
2018339039370000000JUROS                                                                                                         A06
2018339039410000000FORNECIMENTO DE ALIMENTACAO                                                                                   A06
2018339039430000000SERVICOS DE ENERGIA ELETRICA                                                                                  A06
2018339039440000000SERVICOS DE AGUA E ESGOTO                                                                                     A06
2018339039450000000SERVICOS DE GAS                                                                                               A06
2018339039460000000SERVICOS DOMESTICOS                                                                                           A06
2018339039470000000SERVICOS DE COMUNICACAO EM GERAL                                                                              A06
2018339039480000000SERVICO DE SELECAO E TREINAMENTO                                                                              A06
2018339039490000000PRODUCOES JORNALISTICAS                                                                                       A06
2018339039500000000SERVICOS MEDICO-HOSPITALAR ODONTOLOGICOS  E LABORATORIAIS                                                     A06
2018339039510000000SERVICOS DE ANALISES E PESQUISAS CIENTIFICAS                                                                  A06
2018339039520000000SERVICOS DE REABILITACAO PROFISSIONAL                                                                         A06
2018339039530000000SERVICOS DE ASSISTENCIA SOCIAL                                                                                A06
2018339039540000000SERVICOS DE CRECHES E ASSISTENCIA  PRE-ESCOLAR                                                                A06
2018339039560000000SERVICOS DE PERICIAS MEDICAS P/ BENEFICIOS                                                                    A06
2018339039570000000SERVICOS DE PROCESSAMENTO  DE DADOS                                                                           A06
2018339039580000000SERVICOS DE TELECOMUNICACOES                                                                                  S06
2018339039580100000TELEFONE                                                                                                      A07
2018339039580200000INTERNET                                                                                                      A07
2018339039580300000OUTROS SERVICOS DE TELECOMUNICACOES                                                                           A07
2018339039590000000SERVICOS DE AUDIO VIDEO E FOTO                                                                                A06
2018339039610000000SERVICOS DE SOCORRO E SALVAMENTO                                                                              A06
2018339039630000000SERVICOS GRAFICOS E EDITORIAIS                                                                                A06
2018339039650000000SERVICOS DE APOIO AO ENSINO                                                                                   A06
2018339039660000000SERVICOS JUDICIARIOS                                                                                          A06
2018339039670000000SERVICOS FUNERARIOS                                                                                           A06
2018339039690000000SEGUROS EM GERAL                                                                                              A06
2018339039700000000CONFECCAO DE UNIFORMES BANDEIRAS E FLAMULAS                                                                   A06
2018339039710000000CONFECCAO DE MATERIAL DE ACONDICIONAMENTO  E EMBALAGEM                                                        A06
2018339039720000000VALE-TRANSPORTE                                                                                               A06
2018339039730000000TRANSPORTE DE SERVIDORES                                                                                      A06
2018339039740000000FRETES E TRANSPORTES  DE ENCOMENDAS                                                                           A06
2018339039770000000VIGILANCIA OSTENSIVA E MONITORADA                                                                             A06
2018339039780000000LIMPEZA E CONSERVACAO                                                                                         A06
2018339039790000000SERVICO  DE APOIO ADMINISTRATIVO TECNICO E OPERACIONAL                                                        A06
2018339039800000000HOSPEDAGENS                                                                                                   A06
2018339039810000000SERVICOS BANCARIOS                                                                                            A06
2018339039820000000SERVICOS DE CONTROLE AMBIENTAL                                                                                A06
2018339039830000000SERVICOS DE COPIAS E REPRODUCAO DE DOCUMENTOS                                                                 A06
2018339039900000000SERVICOS DE PUBLICIDADE LEGAL                                                                                 A06
2018339039920000000SERVICOS DE PUBLICIDADE INSTITUCIONAL                                                                         A06
2018339039930000000SERVICOS DE PUBLICIDADE DE UTILIDADE PUBLICA                                                                  A06
2018339039950000000MANUTENCAO E CONSERVACAO DE EQUIPAMENTOS DE PROCESSAMENTO DE DADOS                                            A06
2018339039960000000OUTROS SERVDE TERCEIROS PESSOA JURIDICA- PAGAMENTO ANTECIPADO                                                 A06
2018339039970000000DESPESAS DE TELEPROCESSAMENTO                                                                                 A06
2018339039990000000OUTROS SERVICOS DE TERCEIROS-PESSOA JURIDICA                                                                  S06
2018339039990100000SERVIOS DE ESTAGIARIOS                                                                                        A07
2018339039990200000ASSOCIACOES FEDERACOES E CONFEDERACOES                                                                        A07
2018339039990300000TRANSPORTE ESCOLAR                                                                                            A07
2018339039990400000MULTAS DE TRANSITO                                                                                            A07
2018339039990500000MANUTENCAO E CONSERVACAO  DA REDE DE ILUMINACAO PUBLICA                                                       A07
2018339039990600000MULTA CONTRATUAL                                                                                              A07
2018339039990700000TRANSPORTE DE CIDADAOS                                                                                        A07
2018339039990800000INSCRICOES EM EVENTOS ESPORTIVOS                                                                              A07
2018339039990900000INGRESSOS EM PARQUES E EVENTOS                                                                                A07
2018339039991000000LICENCA DE SOFTWARE                                                                                           A07
2018339041000000000CONTRIBUIES                                                                                                   S05
2018339041000100000CONTRIBUICOES AS FORCAS AUXILIARES                                                                            A07
2018339045000000000SUBVENES ECONMICAS                                                                                            S05
2018339045990000000OUTRAS SUBVENES ECONMICAS                                                                                     A06
2018339046000000000AUXLIO-ALIMENTAO                                                                                              S05
2018339046010000000INDENIZACAO AUXILIO-ALIMENTACAO                                                                               A06
2018339047000000000OBRIGAES TRIBUTRIAS E CONTRIBUTIVAS                                                                           S05
2018339047020000000IMPOSTO SOBRE PROPRIEDADE PREDIAL E TERRITORIAL URBANA - IPTU                                                 A06
2018339047030000000IMPOSTO DE RENDA                                                                                              A06
2018339047080000000IMPOSTO SOBRE SERVIOS DE QUALQUER NATUREZA - ISSQN                                                            A06
2018339047100000000TAXAS                                                                                                         A06
2018339047120000000CONTRIBUICAO PARA  O PIS/PASEP                                                                                A06
2018339047140000000CPMF                                                                                                          A06
2018339047150000000MULTAS                                                                                                        A06
2018339047160000000JUROS                                                                                                         A06
2018339047180000000CONTRIBUICOES  PREVIDENCIARIAS-SERVICOS DE TERCEIROS                                                          A06
2018339047200000000OBRIGACOES PATRONAIS SOBRE SERVICOS DE  PESSOA JURIDICA                                                       A06
2018339047220000000CONTRIBUICAO PARA O  CUSTEIO DE ILUMINACAO PUBLICA                                                            A06
2018339047960000000OBRIGACOES TRIBUTARIAS - PAGAMENTO ANTECIPADO                                                                 A06
2018339047990000000OUTRAS OBRIGACOES TRIBUTARIAS E CONTRIBUTIVAS                                                                 A06
2018339048000000000OUTROS AUXLIOS FINANCEIROS A PESSOAS FSICAS                                                                   S05
2018339048010000000AUXILIO A PESSOAS FISICAS                                                                                     S06
2018339048010100000DIVERSOS AUXILIOS A PESSOAS FISICAS                                                                           A07
2018339048010200000AUXILIO PARA INCENTIVO A TRANSFERENCIA DE VEICULOS                                                            A07
2018339048010300000AUXILIO PARA PROGRAMAS HABITACIONAIS                                                                          A07
2018339048010400000AUXILIO PROGRAMA MAIS MEDICOS LEI 2482/14                                                                     A07
2018339049000000000AUXILIO-TRANSPORTE                                                                                            S05
2018339049010000000INDENIZACAO AUXILIO-TRANSPORTE                                                                                A06
2018339062000000000AQUISIO DE PRODUTOS PARA REVENDA                                                                              A05
2018339067000000000DEPSITOS COMPULSRIOS                                                                                          S05
2018339067010000000DEPOSITOS E CAUCOES                                                                                           A06
2018339067020000000DEPOSITOS JUDICIAIS                                                                                           A06
2018339067030000000DEPOSITOS PARA RECURSOS                                                                                       A06
2018339067990000000OUTROS DEPOSITOS COMPULSORIOS                                                                                 A06
2018339091000000000SENTENCAS JUDICIAIS                                                                                           S05
2018339091010000000SENTENCAS JUDICIAIS TRANSITADAS EM JULGADO                                                                    A06
2018339091020000000PRECATORIOS INCLUIDOS NA LEI DO ORCAMENTO                                                                     A06
2018339091030000000DECISOES JUDICIAIS                                                                                            A06
2018339091990000000DIVERSAS SENTENCAS                                                                                            A06
2018339092000000000DESPESAS DE EXERCICIOS ANTERIORES                                                                             S05
2018339092140000000DIARIAS - PESSOAL CIVIL                                                                                       A06
2018339092180000000AUXILIO FINANCEIRO A ESTUDANTES                                                                               A06
2018339092310000000PREMIACOES CULTURAIS CIENTIFICAS  ARTISTICAS DESPORTIVAS E OUTRAS                                             A06
2018339092320000000MATERIAL BEM OU SERVIO PARA DISTRIBUIO GRATUITA                                                               A06
2018339092330000000PASSAGENS E DESPESAS COM LOCOMOCAO                                                                            A06
2018339092360000000SERVICOS DE TERCEIROS - PESSOA FISICA                                                                         A06
2018339092370000000LOCACAO DE MAO-DE-OBRA                                                                                        A06
2018339092380000000ARRENDAMENTO MERCANTIL                                                                                        A06
2018339092390000000SERVICOS DE TERCEIROS - PESSOA JURIDICA                                                                       A06
2018339092460000000AUXILIO-ALIMENTACAO                                                                                           A06
2018339092470000000OBRIGACOES TRIBUTARIAS E CONTRIBUTIVAS                                                                        A06
2018339092490000000AUXILIO-TRANPORTE                                                                                             A06
2018339092850000000SERVICOS DE PUBLICIDADE LEGAL                                                                                 A06
2018339092880000000SERVICOS DE PUBLICIDADE INSTITUCIONAL                                                                         A06
2018339092890000000SERVICOS DE PUBLICIDADE DE UTILIDADE PUBLICA                                                                  A06
2018339092910000000SENTENCAS JUDICIAIS                                                                                           A06
2018339092920000000MATERIAL DE CONSUMO                                                                                           A06
2018339092930000000INDENIZACOES E RESTITUICOES                                                                                   A06
2018339092990000000OUTRAS DESPESAS CORRENTES                                                                                     A06
2018339093000000000INDENIZACOES E RESTITUICOES                                                                                   S05
2018339093010000000INDENIZACOES                                                                                                  S06
2018339093010100000INDENIZACAO IMOBILIARIA                                                                                       A07
2018339093010200000INDENIZACAO POR DANOS MATERIAIS A TERCEIROS                                                                   A07
2018339093010300000INDENIZACAO POR LOCACAO DE VEICULOS DE SERVIDORES                                                             A07
2018339093020000000RESTITUICOES                                                                                                  S06
2018339093020100000RESTITUICOES DE DESPESAS  EVENTUAIS COM ALIMENTACAO                                                           A07
2018339093020200000RESTITUICOES DE IMPOSTOS TAXAS E CONTRIBUICOES DE MELHORIA                                                    A07
2018339093020300000RESTITUICOES DO INSS AOS AGENTES POLITICOS                                                                    A07
2018339093030000000AJUDA DE CUSTO - PESSOAL CIVIL                                                                                A06
2018339093050000000INDENIZACAO DE TRANSPORTE - PESSOAL CIVIL                                                                     A06
2018339093070000000INDENIZACAO DE MORADIA - PESSOAL CIVIL                                                                        A06
2018339093080000000RESSARCIMENTO ASSISTENCIA MEDICA/ODONTOLOGICA                                                                 A06
2018339093990000000DIVERSAS INDENIZACOES E RESTITUICOES                                                                          S06
2018339093990100000RESTITUICAO DE COPIAS E IMPRESSAO DE DOCUMENTOS                                                               A07
2018339093990200000INDENIZACAO POR HIDROMETRO DANIFICADO                                                                         A07
2018339093990300000DESPESAS COM CURSOS TREINAMENTOS E SIMILARES                                                                  A07
2018339093990400000RESTITUICAO DE RECURSOS DE CONVENIOS                                                                          A07
2018339095000000000INDENIZAO PELA EXECUO DE TRABALHOS DE CAMPO                                                                   S05
2018339095010000000INDENIZACOES A SERVIDORES PELA EXECUCAO DE  TRABALHO DE  CAMPO                                                A06
2018339100000000000APLICAO DIRETA DECORRENTE DE OPERAO ENTRE RGOS FUNDOS E ENTIDADES INTEGRANTES DOS ORAMENTOS                   S04
2018339130000000000MATERIAL DE CONSUMO - OPERAES INTRA-ORAMENTARIAS                                                              A05
2018339139000000000OUTROS SERVICOS DE TERCEIROS-PESSOA JURIDICA - OPERAES INTRA-ORAMENTARIAS                                     S05
2018339139020000000CONDOMINIOS                                                                                                   A06
2018339139100000000LOCAO DE IMOVEIS                                                                                              A06
2018339139440000000SERVIO DE AGUA E ESGOTO                                                                                       A06
2018339139470000000SERVIO DE COMUNICAO EM GERAL                                                                                  A06
2018339139500000000SERVIOS MEDICO-HOSPITALAR ODONTOLOGICO E LABORATORIAIS                                                        A06
2018339139990000000OUTROS SERVIOS DE TERCEIROS - PESSOA JURIDICA                                                                 A06
2018339147000000000OBRIGAES TRIBUTRIAS E CONTRIBUTIVAS  OPERAES INTRA-ORAMENTRIAS                                                S05
2018339147900000000IMPOSTO SOBRE PROPRIEDADE PREDIAL E TERRITORIAL URBANA - IPTU                                                 A06
2018339192000000000DESPESAS DE EXERCICIOS ANTERIORES                                                                             S05
2018339192390000000SERVIOS DE TERCEIROS - PESSOA JURIDICA                                                                        A06
2018339192470000000OBRIGAES TRIBUTARIAS E CONTRIBUTIVAS                                                                          A06
2018339192930000000INDENIZAES E RESTITUIES                                                                                       A06
2018339193000000000INDENIZAES E RESTITUIES                                                                                       S05
2018339193010000000INDENIZAES                                                                                                    A06
2018339193020000000RESTITUIES                                                                                                    A06
2018339197000000000AMORITZAO DO PASSIVO ATUARIAL COM O RPPS - APORTE PERIDICO                                                    A05
2018339300000000000APLICAO DIRETA DECORRENTE DE OPERAO DE RGOS FUNDOS E ENTIDADES INTEGRANTES DOS ORAMENTOS FIS                  S04
2018339330000000000MATERIAL DE CONSUMO                                                                                           S05
2018339330090000000MATERIAL FARMACOLOGICO                                                                                        A06
2018339332000000000MATERIAL BEM OU SERVIO PARA DISTRIBUIO GRATUITA                                                               S05
2018339332010000000MATERIAL FARMACOLOGICO                                                                                        A06
2018339332020000000MATERIAL HOSPITALAR                                                                                           A06
2018339332030000000MATERIAL ODONTOLOGICO                                                                                         A06
2018339339000000000OUTROS SERVIOS DE TERCEIROS - PESSOA JURDICA                                                                  A05
2018339400000000000APLICAO DIRETA DECORRENTE DE OPERAO DE RGOS FUNDOS E ENTIDADES INTEGRANTES DOS ORAMENTOS FIS                  S04
2018339430000000000MATERIAL DE CONSUMO                                                                                           A05
2018339439000000000OUTROS SERVIOS DE TERCEIROS - PESSOA JURDICA                                                                  A05
2018339500000000000APLICACAO DIRETA  1 E 2 ART 24 LC 141/2012                                                                    S04
2018339593000000000INDENIZACOES E RESTITUICOES                                                                                   S05
2018339593080000000RESSARCIMENTO ASSISTENCIA MEDICA/ODONTOLOGICA                                                                 A06
2018400000000000000DESPESAS DE CAPITAL                                                                                           S01
2018440000000000000INVESTIMENTOS                                                                                                 S02
2018442000000000000TRANSFERENCIAS A UNIAO                                                                                        S03
2018442042000000000AUXLIOS                                                                                                       A05
2018442093000000000INDENIZAES E RESTITUIES                                                                                       S05
2018442093000100000RESTITUICAO DE CONVENIOS E TRANSFERENCIAS  RECEBIDAS UNIAO                                                    A07
2018442200000000000EXECUO ORAMENTRIA DELEGADA  UNIO                                                                              S04
2018442251000000000OBRAS E INSTALAES                                                                                             A05
2018442252000000000EQUIPAMENTOS E MATERIAL PERMANENTE                                                                            A05
2018443000000000000TRANSFERENCIAS A ESTADOS E DISTRITO FEDERAL                                                                   S03
2018443041000000000CONTRIBUICOES                                                                                                 S05
2018443041390000000RIO GRANDE DO SUL                                                                                             A06
2018443042000000000AUXILIOS                                                                                                      S05
2018443042390000000RIO GRANDE DO SUL                                                                                             A06
2018443093000000000INDENIZACOES E RESTITUICOES                                                                                   S05
2018443093000100000RESTITUICOES DE CONVENIOS E TRANSFERENCIAS RECEBIDAS DO  ESTADO                                               A07
2018443100000000000TRANSFERNCIAS A ESTADOS E AO DISTRITO FEDERAL - FUNDO A FUNDO                                                 S04
2018443142000000000AUXLIOS                                                                                                       A05
2018443200000000000EXECUO ORAMENTRIA DELEGADA A ESTADOS E AO DISTRITO FEDERAL                                                    S04
2018443251000000000OBRAS E INSTALAES                                                                                             A05
2018443252000000000EQUIPAMENTOS E MATERIAL PERMANENTE                                                                            A05
2018444000000000000TRANSFERENCIAS A MUNICIPIOS                                                                                   S03
2018444041000000000CONTRIBUICOES                                                                                                 S05
2018444041390000000A MUNICIPIOS DO ESTADO DO RIO GRANDE DO SUL                                                                   A06
2018444042000000000AUXILIOS                                                                                                      S05
2018444042390000000A MUNICIPIOS DO ESTADO DO RIO GRANDE DO SUL                                                                   A06
2018444093000000000INDENIZACOES E RESTITUICOES                                                                                   S05
2018444093000100000RESTITUICOES DE CONVENIOS E TRANSFERENCIAS RECEBIDAS DOS MUNICIPIOS                                           A07
2018444200000000000EXECUO ORAMENTRIA DELEGADA A MUNICPIOS                                                                        S04
2018444251000000000OBRAS E INSTALAES                                                                                             A05
2018445000000000000TRANSFERNCIAS A INSTITUIES PRIVADAS SEM FINS LUCRATIVOS                                                       S03
2018445039000000000OUTROS SERVICOS DE TERCEIROS-PESSOA JURIDICA                                                                  S05
2018445039010000000INSTITUICOES DE CARATER ASSISTENCIAL CULTURAL  E EDUCACIONAL                                                  A06
2018445039020000000INSTITUICOES DE CARATER INDUSTRIAL                                                                            A06
2018445041000000000CONTRIBUICOES                                                                                                 S05
2018445041010000000INSTITUICOES DE CARATER ASSISTENCIAL CULTURAL OU EDUCACIONAL                                                  A06
2018445041020000000INSTITUICOES DE CARATER COMERCIAL OU FINANCEIRO                                                               A06
2018445041080000000ENTIDADES REPRESENTATIVAS DE CLASSE                                                                           A06
2018445041990000000OUTRAS INSTITUICOES PRIVADAS                                                                                  A06
2018445042000000000AUXILIOS                                                                                                      S05
2018445042010000000INSTITUICOES DE CARATER ASSISTENCIAL OU CULTURAL                                                              A06
2018445042020000000INSTITUICOES DE PESQUISA E DESENVOLVIMENTO TECNOLOGICO                                                        A06
2018445042990000000OUTRAS INSTITUICOES PRIVADAS                                                                                  A06
2018447000000000000TRANSFERNCIAS A INSTITUIES MULTIGOVERNAMENTAIS                                                                S03
2018447041000000000CONTRIBUICOES                                                                                                 S05
2018447041990000000OUTRAS CONTRIBUICOES                                                                                          A06
2018447042000000000AUXILIOS                                                                                                      S05
2018447042990000000OUTROS AUXILIOS                                                                                               A06
2018447100000000000TRANSFERNCIAS A CONSRCIOS PBLICOS                                                                             S04
2018447170000000000RATEIO PELA PARTICIPAO EM CONSRCIO PBLICO                                                                     S05
2018447170010000000COFRON                                                                                                        A06
2018447170020000000CISMISSOES                                                                                                    A06
