12091144000180010120253101202501022025FUNDO DE PREVIDENCIA SOCIAL RPPS                                                
812310202000000000005001000081819000000181819000000000000000000000101202500000000006405178D000000000000ENCERRAMENTO DA CONTA DE CONTROLE DE CONTRATOS EXECUTADOS EM 2024 TENDO EM VISTA QUE ISSO NO FOI FEITO NO ENCERRAMENTO DO EXERCCIO                    0C 00000000150000000000
712310200000000000005001000081819000000181819000000000000000000000101202500000000006405178C000000000000ENCERRAMENTO DA CONTA DE CONTROLE DE CONTRATOS EXECUTADOS EM 2024 TENDO EM VISTA QUE ISSO NO FOI FEITO NO ENCERRAMENTO DO EXERCCIO                    0C 00000000150000000000
522110100000000000005001000081820000000381820000000000000000000000201202500000000000070000D000000000000REFERENTE PROJ/ATV-DESPESA 2066 3390 30 00 00 000 MATERIAL DE CONSUMO                                                                                 0O 00000000150000000000
622110000000000000005001000081820000000381820000000000000000000000201202500000000000070000C000000000000REFERENTE PROJ/ATV-DESPESA 2066 3390 30 00 00 000 MATERIAL DE CONSUMO                                                                                 0O 00000000150000000000
522110100000000000005001000081820000000381820000000000000000000000201202500000000000100000D000000000000REFERENTE PROJ/ATV-DESPESA 0004 3191 13 00 00 000 CONTRIBUIES PATRONAIS                                                                               0O 00000000150000000000
522110100000000000005001000081820000000381820000000000000000000000201202500000000000100000D000000000000REFERENTE PROJ/ATV-DESPESA 2066 3390 93 00 00 000 INDENIZAES E RESTITUIES                                                                             0O 00000000150000000000
622110000000000000005001000081820000000381820000000000000000000000201202500000000000100000C000000000000REFERENTE PROJ/ATV-DESPESA 0004 3191 13 00 00 000 CONTRIBUIES PATRONAIS                                                                               0O 00000000150000000000
622110000000000000005001000081820000000381820000000000000000000000201202500000000000100000C000000000000REFERENTE PROJ/ATV-DESPESA 2066 3390 93 00 00 000 INDENIZAES E RESTITUIES                                                                             0O 00000000150000000000
521110000000000000005001000081820000000381820000000000000000000000201202500000000000200000D000000000000REFERENTE RECEITA 413210401030000 FPSM CAIXA FI BRASIL IDKA IPCA 2A TP RF LP                                                                          0O 00000000150000000000
621100000000000000005001000081820000000381820000000000000000000000201202500000000000200000C000000000000REFERENTE RECEITA 413210401030000 FPSM CAIXA FI BRASIL IDKA IPCA 2A TP RF LP                                                                          0O 00000000150000000000
521110000000000000005001000081820000000381820000000000000000000000201202500000000000400000D000000000000REFERENTE RECEITA 472155021000000 CONTRIBUIO PATRONAL - SERVIDOR CIVIL - PENSIONISTAS                                                                 0O 00000000150000000000
621100000000000000005001000081820000000381820000000000000000000000201202500000000000400000C000000000000REFERENTE RECEITA 472155021000000 CONTRIBUIO PATRONAL - SERVIDOR CIVIL - PENSIONISTAS                                                                 0O 00000000150000000000
521110000000000000005001000081820000000381820000000000000000000000201202500000000000700000D000000000000REFERENTE RECEITA 412150131000000 CONTRIBUIO DO SERVIDOR CIVIL - PENSIONISTAS - PRINCIPAL                                                             0O 00000000150000000000
521110000000000000005001000081820000000381820000000000000000000000201202500000000000700000D000000000000REFERENTE RECEITA 472155022000000 CONTRIBUIO PATRONAL - SERVIDOR CIVIL - PENSIONISTAS -ALIQUOTA SUPLEMENTAR - PRINCIPAL                               0O 00000000150000000000
621100000000000000005001000081820000000381820000000000000000000000201202500000000000700000C000000000000REFERENTE RECEITA 412150131000000 CONTRIBUIO DO SERVIDOR CIVIL - PENSIONISTAS - PRINCIPAL                                                             0O 00000000150000000000
621100000000000000005001000081820000000381820000000000000000000000201202500000000000700000C000000000000REFERENTE RECEITA 472155022000000 CONTRIBUIO PATRONAL - SERVIDOR CIVIL - PENSIONISTAS -ALIQUOTA SUPLEMENTAR - PRINCIPAL                               0O 00000000150000000000
522110100000000000005001000081820000000381820000000000000000000000201202500000000002000000D000000000000REFERENTE PROJ/ATV-DESPESA 2066 3390 14 00 00 000 DIRIAS -  CIVIL                                                                                     0O 00000000150000000000
622110000000000000005001000081820000000381820000000000000000000000201202500000000002000000C000000000000REFERENTE PROJ/ATV-DESPESA 2066 3390 14 00 00 000 DIRIAS -  CIVIL                                                                                     0O 00000000150000000000
522110100000000000005001000081820000000381820000000000000000000000201202500000000003000000D000000000000REFERENTE PROJ/ATV-DESPESA 2066 3390 36 00 00 000 OUTROS SERVIOS DE TERCEIROS - PESSOA FSICA                                                          0O 00000000150000000000
522110100000000000005001000081820000000381820000000000000000000000201202500000000003000000D000000000000REFERENTE PROJ/ATV-DESPESA 2066 3390 39 00 00 000 OUTROS SERVIOS DE TERCEIROS - PESSOA JURDICA                                                        0O 00000000150000000000
622110000000000000005001000081820000000381820000000000000000000000201202500000000003000000C000000000000REFERENTE PROJ/ATV-DESPESA 2066 3390 36 00 00 000 OUTROS SERVIOS DE TERCEIROS - PESSOA FSICA                                                          0O 00000000150000000000
622110000000000000005001000081820000000381820000000000000000000000201202500000000003000000C000000000000REFERENTE PROJ/ATV-DESPESA 2066 3390 39 00 00 000 OUTROS SERVIOS DE TERCEIROS - PESSOA JURDICA                                                        0O 00000000150000000000
522110100000000000005001000081820000000381820000000000000000000000201202500000000004000000D000000000000REFERENTE PROJ/ATV-DESPESA 0002 3191 13 00 00 000 CONTRIBUIES PATRONAIS                                                                               0O 00000000150000000000
622110000000000000005001000081820000000381820000000000000000000000201202500000000004000000C000000000000REFERENTE PROJ/ATV-DESPESA 0002 3191 13 00 00 000 CONTRIBUIES PATRONAIS                                                                               0O 00000000150000000000
522110100000000000005001000081820000000381820000000000000000000000201202500000000010000000D000000000000REFERENTE PROJ/ATV-DESPESA 2066 3191 13 00 00 000 CONTRIBUIES PATRONAIS                                                                               0O 00000000150000000000
622110000000000000005001000081820000000381820000000000000000000000201202500000000010000000C000000000000REFERENTE PROJ/ATV-DESPESA 2066 3191 13 00 00 000 CONTRIBUIES PATRONAIS                                                                               0O 00000000150000000000
522110100000000000005001000081820000000381820000000000000000000000201202500000000020000000D000000000000REFERENTE PROJ/ATV-DESPESA 0004 3190 03 00 00 000 PENSES                                                                                              0O 00000000150000000000
622110000000000000005001000081820000000381820000000000000000000000201202500000000020000000C000000000000REFERENTE PROJ/ATV-DESPESA 0004 3190 03 00 00 000 PENSES                                                                                              0O 00000000150000000000
521110000000000000005001000081820000000381820000000000000000000000201202500000000039000000D000000000000REFERENTE RECEITA 413210401070000 FPSM BB PREV RF IDKA2 TP                                                                                            0O 00000000150000000000
621100000000000000005001000081820000000381820000000000000000000000201202500000000039000000C000000000000REFERENTE RECEITA 413210401070000 FPSM BB PREV RF IDKA2 TP                                                                                            0O 00000000150000000000
521110000000000000005001000081820000000381820000000000000000000000201202500000000041000000D000000000000REFERENTE RECEITA 413210401060000 FPSM BB PREVID RF IMA-B 5 LP                                                                                        0O 00000000150000000000
621100000000000000005001000081820000000381820000000000000000000000201202500000000041000000C000000000000REFERENTE RECEITA 413210401060000 FPSM BB PREVID RF IMA-B 5 LP                                                                                        0O 00000000150000000000
521110000000000000005001000081820000000381820000000000000000000000201202500000000046000000D000000000000REFERENTE RECEITA 413210401020000 FPSM BB PREV RF IRF-M 1 TP                                                                                          0O 00000000150000000000
621100000000000000005001000081820000000381820000000000000000000000201202500000000046000000C000000000000REFERENTE RECEITA 413210401020000 FPSM BB PREV RF IRF-M 1 TP                                                                                          0O 00000000150000000000
522110100000000000005001000081820000000381820000000000000000000000201202500000000076000000D000000000000REFERENTE PROJ/ATV-DESPESA 0002 3190 03 00 00 000 PENSES                                                                                              0O 00000000150000000000
622110000000000000005001000081820000000381820000000000000000000000201202500000000076000000C000000000000REFERENTE PROJ/ATV-DESPESA 0002 3190 03 00 00 000 PENSES                                                                                              0O 00000000150000000000
522110100000000000005001000081820000000381820000000000000000000000201202500000000100000000D000000000000REFERENTE PROJ/ATV-DESPESA 0022 3390 86 00 00 000 COMPENSAES A REGIMES DE PREVIDNCIA                                                                  0O 00000000150000000000
622110000000000000005001000081820000000381820000000000000000000000201202500000000100000000C000000000000REFERENTE PROJ/ATV-DESPESA 0022 3390 86 00 00 000 COMPENSAES A REGIMES DE PREVIDNCIA                                                                  0O 00000000150000000000
522110100000000000005001000081820000000381820000000000000000000000201202500000000006100000D000000000000REFERENTE PROJ/ATV-DESPESA 0003 3190 01 00 00 000 APOSENTADORIAS DO RPPS RESERVA REMUNERADA E REFORMAS DOS MILITARES                                  0O 00000000150000000000
622110000000000000005001000081820000000381820000000000000000000000201202500000000006100000C000000000000REFERENTE PROJ/ATV-DESPESA 0003 3190 01 00 00 000 APOSENTADORIAS DO RPPS RESERVA REMUNERADA E REFORMAS DOS MILITARES                                  0O 00000000150000000000
522110100000000000005001000081820000000381820000000000000000000000201202500000000005200000D000000000000REFERENTE PROJ/ATV-DESPESA 0003 3190 03 00 00 000 PENSES                                                                                              0O 00000000150000000000
622110000000000000005001000081820000000381820000000000000000000000201202500000000005200000C000000000000REFERENTE PROJ/ATV-DESPESA 0003 3190 03 00 00 000 PENSES                                                                                              0O 00000000150000000000
521110000000000000005001000081820000000381820000000000000000000000201202500000000006200000D000000000000REFERENTE RECEITA 413210401050000 FPSM SICREDI FIC INSTITUCIONAL RF IMA-B                                                                             0O 00000000150000000000
621100000000000000005001000081820000000381820000000000000000000000201202500000000006200000C000000000000REFERENTE RECEITA 413210401050000 FPSM SICREDI FIC INSTITUCIONAL RF IMA-B                                                                             0O 00000000150000000000
521110000000000000005001000081820000000381820000000000000000000000201202500000000024200000D000000000000REFERENTE RECEITA 472150211030000 CONTRIBUIO PATRONAL - SERVIDOR CIVIL ATIVO - TAXA DE ADMINISTRAO - PRINCIPAL                                        0O 00000000150000000000
621100000000000000005001000081820000000381820000000000000000000000201202500000000024200000C000000000000REFERENTE RECEITA 472150211030000 CONTRIBUIO PATRONAL - SERVIDOR CIVIL ATIVO - TAXA DE ADMINISTRAO - PRINCIPAL                                        0O 00000000150000000000
521110000000000000005001000081820000000381820000000000000000000000201202500000000019300000D000000000000REFERENTE RECEITA 472155111000000 CONTRIBUIO PATRONAL - SERVIDOR CIVIL ATIVO - PARCELAMENTOS                                                          0O 00000000150000000000
621100000000000000005001000081820000000381820000000000000000000000201202500000000019300000C000000000000REFERENTE RECEITA 472155111000000 CONTRIBUIO PATRONAL - SERVIDOR CIVIL ATIVO - PARCELAMENTOS                                                          0O 00000000150000000000
522110100000000000005001000081820000000381820000000000000000000000201202500000000002400000D000000000000REFERENTE PROJ/ATV-DESPESA 2066 3390 40 00 00 000 SERVIOS DE TECNOLOGIA DA INFORMAO E COMUNICAO - PJ                                                  0O 00000000150000000000
622110000000000000005001000081820000000381820000000000000000000000201202500000000002400000C000000000000REFERENTE PROJ/ATV-DESPESA 2066 3390 40 00 00 000 SERVIOS DE TECNOLOGIA DA INFORMAO E COMUNICAO - PJ                                                  0O 00000000150000000000
521110000000000000005001000081820000000381820000000000000000000000201202500000000054400000D000000000000REFERENTE RECEITA 413210401110000 FPSM SICREDI LIQUIDEZ EMPRESARIAL REF DI FI RF                                                                      0O 00000000150000000000
621100000000000000005001000081820000000381820000000000000000000000201202500000000054400000C000000000000REFERENTE RECEITA 413210401110000 FPSM SICREDI LIQUIDEZ EMPRESARIAL REF DI FI RF                                                                      0O 00000000150000000000
522110100000000000005001000081820000000381820000000000000000000000201202500000000001500000D000000000000REFERENTE PROJ/ATV-DESPESA 0003 3191 13 00 00 000 CONTRIBUIES PATRONAIS                                                                               0O 00000000150000000000
622110000000000000005001000081820000000381820000000000000000000000201202500000000001500000C000000000000REFERENTE PROJ/ATV-DESPESA 0003 3191 13 00 00 000 CONTRIBUIES PATRONAIS                                                                               0O 00000000150000000000
522110100000000000005001000081820000000381820000000000000000000000201202500000000004500000D000000000000REFERENTE PROJ/ATV-DESPESA 2066 3190 11 00 00 000 VENCIMENTOS E VANTAGENS FIXAS - PESSOAL CIVIL                                                       0O 00000000150000000000
622110000000000000005001000081820000000381820000000000000000000000201202500000000004500000C000000000000REFERENTE PROJ/ATV-DESPESA 2066 3190 11 00 00 000 VENCIMENTOS E VANTAGENS FIXAS - PESSOAL CIVIL                                                       0O 00000000150000000000
521110000000000000005001000081820000000381820000000000000000000000201202500000000005500000D000000000000REFERENTE RECEITA 413210401090000 REND TX ADM RPPS FPSM MOV 0050 3732-X/12116-9                                                                       0O 00000000150000000000
621100000000000000005001000081820000000381820000000000000000000000201202500000000005500000C000000000000REFERENTE RECEITA 413210401090000 REND TX ADM RPPS FPSM MOV 0050 3732-X/12116-9                                                                       0O 00000000150000000000
522110100000000000005001000081820000000381820000000000000000000000201202500000000019500000D000000000000REFERENTE PROJ/ATV-DESPESA 0004 3190 01 00 00 000 APOSENTADORIAS DO RPPS RESERVA REMUNERADA E REFORMAS DOS MILITARES                                  0O 00000000150000000000
622110000000000000005001000081820000000381820000000000000000000000201202500000000019500000C000000000000REFERENTE PROJ/ATV-DESPESA 0004 3190 01 00 00 000 APOSENTADORIAS DO RPPS RESERVA REMUNERADA E REFORMAS DOS MILITARES                                  0O 00000000150000000000
521110000000000000005001000081820000000381820000000000000000000000201202500000000036500000D000000000000REFERENTE RECEITA 413210401080000 FPSM BB PREVID RF REFERENCIADO DI LP PERFIL                                                                         0O 00000000150000000000
621100000000000000005001000081820000000381820000000000000000000000201202500000000036500000C000000000000REFERENTE RECEITA 413210401080000 FPSM BB PREVID RF REFERENCIADO DI LP PERFIL                                                                         0O 00000000150000000000
521110000000000000005001000081820000000381820000000000000000000000201202500000000061500000D000000000000REFERENTE RECEITA 413210401100000 REND CEF FI BRASIL REFERENCIADO DI LP FPSM 0050 0521/006/00000295-1                                                 0O 00000000150000000000
621100000000000000005001000081820000000381820000000000000000000000201202500000000061500000C000000000000REFERENTE RECEITA 413210401100000 REND CEF FI BRASIL REFERENCIADO DI LP FPSM 0050 0521/006/00000295-1                                                 0O 00000000150000000000
521110000000000000005001000081820000000381820000000000000000000000201202500000000009600000D000000000000REFERENTE RECEITA 413210401140000 REND BB RF TP 2026 FPSM                                                                                             0O 00000000150000000000
621100000000000000005001000081820000000381820000000000000000000000201202500000000009600000C000000000000REFERENTE RECEITA 413210401140000 REND BB RF TP 2026 FPSM                                                                                             0O 00000000150000000000
522110100000000000005001000081820000000381820000000000000000000000201202500000000004630000D000000000000REFERENTE PROJ/ATV-DESPESA 2066 3390 35 00 00 000 SERVIOS DE CONSULTORIA                                                                              0O 00000000150000000000
622110000000000000005001000081820000000381820000000000000000000000201202500000000004630000C000000000000REFERENTE PROJ/ATV-DESPESA 2066 3390 35 00 00 000 SERVIOS DE CONSULTORIA                                                                              0O 00000000150000000000
521110000000000000005001000081820000000381820000000000000000000000201202500000000006700000D000000000000REFERENTE RECEITA 413210401120000 CEF FPSM FI BRASIL 2028 X TP RF                                                                                     0O 00000000150000000000
621100000000000000005001000081820000000381820000000000000000000000201202500000000006700000C000000000000REFERENTE RECEITA 413210401120000 CEF FPSM FI BRASIL 2028 X TP RF                                                                                     0O 00000000150000000000
521110000000000000005001000081820000000381820000000000000000000000201202500000000025700000D000000000000REFERENTE RECEITA 413210401010000 FPSM CEF CAIXA BRASIL 2024 III TP RF                                                                                0O 00000000150000000000
621100000000000000005001000081820000000381820000000000000000000000201202500000000025700000C000000000000REFERENTE RECEITA 413210401010000 FPSM CEF CAIXA BRASIL 2024 III TP RF                                                                                0O 00000000150000000000
521110000000000000005001000081820000000381820000000000000000000000201202500000000001900000D000000000000REFERENTE RECEITA 472155011000000 CONTRIBUIO PATRONAL - SERVIDOR CIVIL - INATIVO                                                                      0O 00000000150000000000
521110000000000000005001000081820000000381820000000000000000000000201202500000000001900000D000000000000REFERENTE RECEITA 412150121000000 CONTRIBUIO DO SERVIDOR CIVIL INATIVO - PRINCIPAL                                                                    0O 00000000150000000000
621100000000000000005001000081820000000381820000000000000000000000201202500000000001900000C000000000000REFERENTE RECEITA 472155011000000 CONTRIBUIO PATRONAL - SERVIDOR CIVIL - INATIVO                                                                      0O 00000000150000000000
621100000000000000005001000081820000000381820000000000000000000000201202500000000001900000C000000000000REFERENTE RECEITA 412150121000000 CONTRIBUIO DO SERVIDOR CIVIL INATIVO - PRINCIPAL                                                                    0O 00000000150000000000
521110000000000000005001000081820000000381820000000000000000000000201202500000000002900000D000000000000REFERENTE RECEITA 472155012000000 CONTRIBUIO PATRONAL - SERVIDOR CIVIL - INATIVOS -ALIQUOTA SUPLEMENTAR - PRINCIPAL                                   0O 00000000150000000000
621100000000000000005001000081820000000381820000000000000000000000201202500000000002900000C000000000000REFERENTE RECEITA 472155012000000 CONTRIBUIO PATRONAL - SERVIDOR CIVIL - INATIVOS -ALIQUOTA SUPLEMENTAR - PRINCIPAL                                   0O 00000000150000000000
521110000000000000005001000081820000000381820000000000000000000000201202500000000005900000D000000000000REFERENTE RECEITA 413210401130000 BANRISUL RPPS II FI RF - NTN-B 27                                                                                   0O 00000000150000000000
621100000000000000005001000081820000000381820000000000000000000000201202500000000005900000C000000000000REFERENTE RECEITA 413210401130000 BANRISUL RPPS II FI RF - NTN-B 27                                                                                   0O 00000000150000000000
521110000000000000005001000081820000000381820000000000000000000000201202500000000019900000D000000000000REFERENTE RECEITA 413210401040000 FPSM SICREDI  FI INSTITUCIONAL RF IRF-M LP                                                                          0O 00000000150000000000
621100000000000000005001000081820000000381820000000000000000000000201202500000000019900000C000000000000REFERENTE RECEITA 413210401040000 FPSM SICREDI  FI INSTITUCIONAL RF IRF-M LP                                                                          0O 00000000150000000000
522110100000000000005001000081820000000381820000000000000000000000201202500000000370000000D000000000000REFERENTE PROJ/ATV-DESPESA 0002 3190 01 00 00 000 APOSENTADORIAS DO RPPS RESERVA REMUNERADA E REFORMAS DOS MILITARES                                  0O 00000000150000000000
622110000000000000005001000081820000000381820000000000000000000000201202500000000370000000C000000000000REFERENTE PROJ/ATV-DESPESA 0002 3190 01 00 00 000 APOSENTADORIAS DO RPPS RESERVA REMUNERADA E REFORMAS DOS MILITARES                                  0O 00000000150000000000
521110000000000000005001000081820000000381820000000000000000000000201202500000000182000000D000000000000REFERENTE RECEITA 472150211020000 CONTRIBUIO PATRONAL - SERVIDOR CIVIL ATIVO - ALIQUOTA SUPLEMENTAR - PRINCIPAL                                       0O 00000000150000000000
621100000000000000005001000081820000000381820000000000000000000000201202500000000182000000C000000000000REFERENTE RECEITA 472150211020000 CONTRIBUIO PATRONAL - SERVIDOR CIVIL ATIVO - ALIQUOTA SUPLEMENTAR - PRINCIPAL                                       0O 00000000150000000000
531100000000000000005001000081820000000381820000000000000000000000201202500000000001125000D000000000000INSCRIO DE RESTOS A PAGAR 007172/2024                                                                                                                 0O 00000000150000000000
631710000000000000005001000081820000000381820000000000000000000000201202500000000001125000D000000000000INSCRIO DE RESTOS A PAGAR 007172/2024                                                                                                                 0O 00000000180200000000
531700000000000000005001000081820000000381820000000000000000000000201202500000000001125000C000000000000INSCRIO DE RESTOS A PAGAR 007172/2024                                                                                                                 0O 00000000150000000000
631100000000000000005001000081820000000381820000000000000000000000201202500000000001125000C000000000000INSCRIO DE RESTOS A PAGAR 007172/2024                                                                                                                 0O 00000000180200000000
522110100000000000005001000081820000000381820000000000000000000000201202500000000299340000D000000000000REFERENTE PROJ/ATV-DESPESA 9997 9999 99 99 01 003 RESERVA DO RPPS                                                                                     0O 00000000150000000000
622110000000000000005001000081820000000381820000000000000000000000201202500000000299340000C000000000000REFERENTE PROJ/ATV-DESPESA 9997 9999 99 99 01 003 RESERVA DO RPPS                                                                                     0O 00000000150000000000
521110000000000000005001000081820000000381820000000000000000000000201202500000000164500000D000000000000REFERENTE RECEITA 412150111000000 CONTRIBUIO DO SERVIDOR CIVIL ATIVO - PRINCIPAL                                                                      0O 00000000150000000000
621100000000000000005001000081820000000381820000000000000000000000201202500000000164500000C000000000000REFERENTE RECEITA 412150111000000 CONTRIBUIO DO SERVIDOR CIVIL ATIVO - PRINCIPAL                                                                      0O 00000000150000000000
521110000000000000005001000081820000000381820000000000000000000000201202500000000174840000D000000000000REFERENTE RECEITA 472150211010000 CONTRIBUIO PATRONAL - SERVIDOR CIVIL ATIVO - NORMAL - PRINCIPAL                                                     0O 00000000150000000000
621100000000000000005001000081820000000381820000000000000000000000201202500000000174840000C000000000000REFERENTE RECEITA 472150211010000 CONTRIBUIO PATRONAL - SERVIDOR CIVIL ATIVO - NORMAL - PRINCIPAL                                                     0O 00000000150000000000
237130200000000000005001000081820000000481820000000000000000000000201202500000000048113906D000000000000TRANSFERNCIA ENTRE CONTAS                                                                                                                             0P 00000000150000000000
237130100000000000005001000081820000000481820000000000000000000000201202500000000048113906C000000000000TRANSFERNCIA ENTRE CONTAS                                                                                                                             0P 00000000150000000000
237150200000000000005001000081820000000481820000000000000000000000201202500000000003008156D000000000000TRANSFERNCIA ENTRE CONTAS                                                                                                                             0P 00000000150000000000
237150100000000000005001000081820000000481820000000000000000000000201202500000000003008156C000000000000TRANSFERNCIA ENTRE CONTAS                                                                                                                             0P 00000000150000000000
237140200000000000005001000081820000000481820000000000000000000000201202500000000003093890D000000000000TRANSFERNCIA ENTRE CONTAS                                                                                                                             0P 00000000150000000000
237140100000000000005001000081820000000481820000000000000000000000201202500000000003093890C000000000000TRANSFERNCIA ENTRE CONTAS                                                                                                                             0P 00000000150000000000
821110108020000000005001000081820000000281820000000000000000000000201202500000000032304799D000000000000TRANSFRENCIA DE SALDOS DE SUPERAVIT DO EXERCCIO ANTERIOR                                                                                              0C 00000000180200000000
821110208020000000005001000081820000000281820000000000000000000000201202500000000032304799C000000000000TRANSFRENCIA DE SALDOS DE SUPERAVIT DO EXERCCIO ANTERIOR                                                                                              0C 00000000180200000000
821110108000000000005001000081820000000281820000000000000000000000201202500000004005756634D000000000000TRANSFRENCIA DE SALDOS DE SUPERAVIT DO EXERCCIO ANTERIOR                                                                                              0C 00000000180000000000
821110208000000000005001000081820000000281820000000000000000000000201202500000004005756634C000000000000TRANSFRENCIA DE SALDOS DE SUPERAVIT DO EXERCCIO ANTERIOR                                                                                              0C 00000000180000000000
237120100000000000005001000081820000000481820000000000000000000000201202500000000423913836D000000000000TRANSFERNCIA ENTRE CONTAS                                                                                                                             0P 00000000150000000000
237120200000000000005001000081820000000481820000000000000000000000201202500000000423913836C000000000000TRANSFERNCIA ENTRE CONTAS                                                                                                                             0P 00000000150000000000
237110200000000000005001000081820000000481820000000000000000000000201202500000003360599036D000000000000TRANSFERNCIA ENTRE CONTAS                                                                                                                             0P 00000000150000000000
237110301000000000005001000081820000000481820000000000000000000000201202500000003360599036C000000000000TRANSFERNCIA ENTRE CONTAS                                                                                                                             0P 00000000150000000000
237110200000000000005001000081820000000481820000000000000000000000201202500000000324023151D000000000000TRANSFERNCIA ENTRE CONTAS                                                                                                                             0P 00000000150000000000
237110100000000000005001000081820000000481820000000000000000000000201202500000000324023151C000000000000TRANSFERNCIA ENTRE CONTAS                                                                                                                             0P 00000000150000000000
112127101000000000005001000081831000000581831000000000000000000001301202500000000000922380D000000000000ATUALIZAO DO VALOR A RECEBER EM 2025 DA DVIDA PARCELADA DO EXECUTIVO COM O RPPS EM VIRTUDE DA LEI N 3281/2025 QUE CONCEDEU 5 DE AUMENTO NO PADRO REFER0PP00000000150000000000
442520199000000000005001000081831000000581831000000000000000000001301202500000000000922380C000000000000ATUALIZAO DO VALOR A RECEBER EM 2025 DA DVIDA PARCELADA DO EXECUTIVO COM O RPPS EM VIRTUDE DA LEI N 3281/2025 QUE CONCEDEU 5 DE AUMENTO NO PADRO REFER0P 00000000150000000000
522920101000000000005001000081832000001381832000000002025010002451401202500000000000200000D000000000000REFERENTE EMPENHO 000245/2025 - FAPS TRES DE MAIO RS                                                                                                  1O 00000000150000000000
622110000000000000005001000081832000001381832000000002025010002451401202500000000000200000D000000000000REFERENTE EMPENHO 000245/2025 - FAPS TRES DE MAIO RS                                                                                                  1O 00000000150000000000
821110108000000000005001000081832000001281832000000002025010002451401202500000000000200000D000000000000REFERENTE EMPENHO 000245/2025 - FAPS TRES DE MAIO RS                                                                                                  1C 00000000180000000000
622130100000000000005001000081832000001381832000000002025010002451401202500000000000200000C000000000000REFERENTE EMPENHO 000245/2025 - FAPS TRES DE MAIO RS                                                                                                  1O 00000000180000000000
622920101000000000005001000081832000001381832000000002025010002451401202500000000000200000C000000000000REFERENTE EMPENHO 000245/2025 - FAPS TRES DE MAIO RS                                                                                                  1O 00000000150000000000
821120108000000000005001000081832000001281832000000002025010002451401202500000000000200000C000000000000REFERENTE EMPENHO 000245/2025 - FAPS TRES DE MAIO RS                                                                                                  1C 00000000180000000000
522920101000000000005001000081832000001581832000000002025010002461401202500000000002000000D000000000000REFERENTE EMPENHO 000246/2025 - IPERGS                                                                                                                1O 00000000150000000000
622110000000000000005001000081832000001581832000000002025010002461401202500000000002000000D000000000000REFERENTE EMPENHO 000246/2025 - IPERGS                                                                                                                1O 00000000150000000000
821110108000000000005001000081832000001481832000000002025010002461401202500000000002000000D000000000000REFERENTE EMPENHO 000246/2025 - IPERGS                                                                                                                1C 00000000180000000000
622130100000000000005001000081832000001581832000000002025010002461401202500000000002000000C000000000000REFERENTE EMPENHO 000246/2025 - IPERGS                                                                                                                1O 00000000180000000000
622920101000000000005001000081832000001581832000000002025010002461401202500000000002000000C000000000000REFERENTE EMPENHO 000246/2025 - IPERGS                                                                                                                1O 00000000150000000000
821120108000000000005001000081832000001481832000000002025010002461401202500000000002000000C000000000000REFERENTE EMPENHO 000246/2025 - IPERGS                                                                                                                1C 00000000180000000000
522920101000000000005001000081832000001781832000000002025010002471401202500000000015000000D000000000000REFERENTE EMPENHO 000247/2025 - COORD GERAL ORAMENTO FINAN E CONTABILIDADE                                                                            1O 00000000150000000000
622110000000000000005001000081832000001781832000000002025010002471401202500000000015000000D000000000000REFERENTE EMPENHO 000247/2025 - COORD GERAL ORAMENTO FINAN E CONTABILIDADE                                                                            1O 00000000150000000000
821110108000000000005001000081832000001681832000000002025010002471401202500000000015000000D000000000000REFERENTE EMPENHO 000247/2025 - COORD GERAL ORAMENTO FINAN E CONTABILIDADE                                                                            1C 00000000180000000000
622130100000000000005001000081832000001781832000000002025010002471401202500000000015000000C000000000000REFERENTE EMPENHO 000247/2025 - COORD GERAL ORAMENTO FINAN E CONTABILIDADE                                                                            1O 00000000180000000000
622920101000000000005001000081832000001781832000000002025010002471401202500000000015000000C000000000000REFERENTE EMPENHO 000247/2025 - COORD GERAL ORAMENTO FINAN E CONTABILIDADE                                                                            1O 00000000150000000000
821120108000000000005001000081832000001681832000000002025010002471401202500000000015000000C000000000000REFERENTE EMPENHO 000247/2025 - COORD GERAL ORAMENTO FINAN E CONTABILIDADE                                                                            1C 00000000180000000000
522920101000000000005001000081832000001181832000000002025010002441401202500000000000975000D000000000000REFERENTE EMPENHO 000244/2025 - FMPSS- FUNDO DE CAMPO VERDE MT                                                                                        1O 00000000150000000000
622110000000000000005001000081832000001181832000000002025010002441401202500000000000975000D000000000000REFERENTE EMPENHO 000244/2025 - FMPSS- FUNDO DE CAMPO VERDE MT                                                                                        1O 00000000150000000000
821110108000000000005001000081832000001081832000000002025010002441401202500000000000975000D000000000000REFERENTE EMPENHO 000244/2025 - FMPSS- FUNDO DE CAMPO VERDE MT                                                                                        1C 00000000180000000000
622130100000000000005001000081832000001181832000000002025010002441401202500000000000975000C000000000000REFERENTE EMPENHO 000244/2025 - FMPSS- FUNDO DE CAMPO VERDE MT                                                                                        1O 00000000180000000000
622920101000000000005001000081832000001181832000000002025010002441401202500000000000975000C000000000000REFERENTE EMPENHO 000244/2025 - FMPSS- FUNDO DE CAMPO VERDE MT                                                                                        1O 00000000150000000000
821120108000000000005001000081832000001081832000000002025010002441401202500000000000975000C000000000000REFERENTE EMPENHO 000244/2025 - FMPSS- FUNDO DE CAMPO VERDE MT                                                                                        1C 00000000180000000000
522920101000000000005001000081832000000981832000000002025010002431401202500000000001300000D000000000000REFERENTE EMPENHO 000243/2025 - ABASE SISTEMAS E SOLUOES LTDA                                                                                         1O 00000000150000000000
622110000000000000005001000081832000000981832000000002025010002431401202500000000001300000D000000000000REFERENTE EMPENHO 000243/2025 - ABASE SISTEMAS E SOLUOES LTDA                                                                                         1O 00000000150000000000
821110108020000000005001000081832000000881832000000002025010002431401202500000000001300000D000000000000REFERENTE EMPENHO 000243/2025 - ABASE SISTEMAS E SOLUOES LTDA                                                                                         1C 00000000180200000000
622130100000000000005001000081832000000981832000000002025010002431401202500000000001300000C000000000000REFERENTE EMPENHO 000243/2025 - ABASE SISTEMAS E SOLUOES LTDA                                                                                         1O 00000000180200000000
622920101000000000005001000081832000000981832000000002025010002431401202500000000001300000C000000000000REFERENTE EMPENHO 000243/2025 - ABASE SISTEMAS E SOLUOES LTDA                                                                                         1O 00000000150000000000
821120108020000000005001000081832000000881832000000002025010002431401202500000000001300000C000000000000REFERENTE EMPENHO 000243/2025 - ABASE SISTEMAS E SOLUOES LTDA                                                                                         1C 00000000180200000000
522920101000000000005001000081832000000781832000000002025010002421401202500000000000472074D000000000000REFERENTE EMPENHO 000242/2025 - GESTOR UM - CONSULTORIA FINANCEIRA LTDA                                                                               1O 00000000150000000000
622110000000000000005001000081832000000781832000000002025010002421401202500000000000472074D000000000000REFERENTE EMPENHO 000242/2025 - GESTOR UM - CONSULTORIA FINANCEIRA LTDA                                                                               1O 00000000150000000000
821110108020000000005001000081832000000681832000000002025010002421401202500000000000472074D000000000000REFERENTE EMPENHO 000242/2025 - GESTOR UM - CONSULTORIA FINANCEIRA LTDA                                                                               1C 00000000180200000000
622130100000000000005001000081832000000781832000000002025010002421401202500000000000472074C000000000000REFERENTE EMPENHO 000242/2025 - GESTOR UM - CONSULTORIA FINANCEIRA LTDA                                                                               1O 00000000180200000000
622920101000000000005001000081832000000781832000000002025010002421401202500000000000472074C000000000000REFERENTE EMPENHO 000242/2025 - GESTOR UM - CONSULTORIA FINANCEIRA LTDA                                                                               1O 00000000150000000000
821120108020000000005001000081832000000681832000000002025010002421401202500000000000472074C000000000000REFERENTE EMPENHO 000242/2025 - GESTOR UM - CONSULTORIA FINANCEIRA LTDA                                                                               1C 00000000180200000000
399750000000000000005001000081845000002681845000000002025010002452701202500000000000011526D000000000000LIQUIDAO DE EMPENHO 000245/2025 - FAPS TRES DE MAIO RS                                                                                                1P 00000000150000000000
622130100000000000005001000081845000002581845000000002025010002452701202500000000000011526D000000000000LIQUIDAO DE EMPENHO 000245/2025 - FAPS TRES DE MAIO RS                                                                                                1O 00000000180000000000
622920101000000000005001000081845000002581845000000002025010002452701202500000000000011526D000000000000LIQUIDAO DE EMPENHO 000245/2025 - FAPS TRES DE MAIO RS                                                                                                1O 00000000150000000000
821120108000000000005001000081845000002481845000000002025010002452701202500000000000011526D000000000000LIQUIDAO DE EMPENHO 000245/2025 - FAPS TRES DE MAIO RS                                                                                                1C 00000000180000000000
213110101010000000005001000081845000002681845000000002025010002452701202500000000000011526C000000000000LIQUIDAO DE EMPENHO 000245/2025 - FAPS TRES DE MAIO RS                                                                                                1PF00000000180000000000
622130300000000000005001000081845000002581845000000002025010002452701202500000000000011526C000000000000LIQUIDAO DE EMPENHO 000245/2025 - FAPS TRES DE MAIO RS                                                                                                1O 00000000150000000000
622920103000000000005001000081845000002581845000000002025010002452701202500000000000011526C000000000000LIQUIDAO DE EMPENHO 000245/2025 - FAPS TRES DE MAIO RS                                                                                                1O 00000000150000000000
821130108000000000005001000081845000002481845000000002025010002452701202500000000000011526C000000000000LIQUIDAO DE EMPENHO 000245/2025 - FAPS TRES DE MAIO RS                                                                                                1C 00000000180000000000
399740000000000000005001000081845000002981845000000002025010002462701202500000000000092938D000000000000LIQUIDAO DE EMPENHO 000246/2025 - IPERGS                                                                                                              1P 00000000150000000000
622130100000000000005001000081845000002881845000000002025010002462701202500000000000092938D000000000000LIQUIDAO DE EMPENHO 000246/2025 - IPERGS                                                                                                              1O 00000000180000000000
622920101000000000005001000081845000002881845000000002025010002462701202500000000000092938D000000000000LIQUIDAO DE EMPENHO 000246/2025 - IPERGS                                                                                                              1O 00000000150000000000
821120108000000000005001000081845000002781845000000002025010002462701202500000000000092938D000000000000LIQUIDAO DE EMPENHO 000246/2025 - IPERGS                                                                                                              1C 00000000180000000000
213110101010000000005001000081845000002981845000000002025010002462701202500000000000092938C000000000000LIQUIDAO DE EMPENHO 000246/2025 - IPERGS                                                                                                              1PF00000000180000000000
622130300000000000005001000081845000002881845000000002025010002462701202500000000000092938C000000000000LIQUIDAO DE EMPENHO 000246/2025 - IPERGS                                                                                                              1O 00000000150000000000
622920103000000000005001000081845000002881845000000002025010002462701202500000000000092938C000000000000LIQUIDAO DE EMPENHO 000246/2025 - IPERGS                                                                                                              1O 00000000150000000000
821130108000000000005001000081845000002781845000000002025010002462701202500000000000092938C000000000000LIQUIDAO DE EMPENHO 000246/2025 - IPERGS                                                                                                              1C 00000000180000000000
332210100000000000005001000081845000002081845000000002025010002422701202500000000000078679D000000000000LIQUIDAO DE EMPENHO 000242/2025 - GESTOR UM                                                                                                           1P 00000000150000000000
622130100000000000005001000081845000001981845000000002025010002422701202500000000000078679D000000000000LIQUIDAO DE EMPENHO 000242/2025 - GESTOR UM                                                                                                           1O 00000000180200000000
622920101000000000005001000081845000001981845000000002025010002422701202500000000000078679D000000000000LIQUIDAO DE EMPENHO 000242/2025 - GESTOR UM                                                                                                           1O 00000000150000000000
821120108020000000005001000081845000001881845000000002025010002422701202500000000000078679D000000000000LIQUIDAO DE EMPENHO 000242/2025 - GESTOR UM                                                                                                           1C 00000000180200000000
812310201000000000005001000081845000001881845000000002025010002422701202500000000000078679D000000000000REFERENTE LIQUIDAO EMPENHO 242/2025 - CONTRATO 62 DE 2023 - GESTOR UM                                                                                 1C 00000000150000000000
213110101010000000005001000081845000002081845000000002025010002422701202500000000000078679C000000000000LIQUIDAO DE EMPENHO 000242/2025 - GESTOR UM                                                                                                           1PF00000000180200000000
622130300000000000005001000081845000001981845000000002025010002422701202500000000000078679C000000000000LIQUIDAO DE EMPENHO 000242/2025 - GESTOR UM                                                                                                           1O 00000000150000000000
622920103000000000005001000081845000001981845000000002025010002422701202500000000000078679C000000000000LIQUIDAO DE EMPENHO 000242/2025 - GESTOR UM                                                                                                           1O 00000000150000000000
821130108020000000005001000081845000001881845000000002025010002422701202500000000000078679C000000000000LIQUIDAO DE EMPENHO 000242/2025 - GESTOR UM                                                                                                           1C 00000000180200000000
812310202000000000005001000081845000001881845000000002025010002422701202500000000000078679C000000000000REFERENTE LIQUIDAO EMPENHO 242/2025 - CONTRATO 62 DE 2023 - GESTOR UM                                                                                 1C 00000000150000000000
399750000000000000005001000081845000002381845000000002025010002442701202500000000000074394D000000000000LIQUIDAO DE EMPENHO 000244/2025 - FMPSS- FUNDO DE CAMPO VERDE MT                                                                                      1P 00000000150000000000
622130100000000000005001000081845000002281845000000002025010002442701202500000000000074394D000000000000LIQUIDAO DE EMPENHO 000244/2025 - FMPSS- FUNDO DE CAMPO VERDE MT                                                                                      1O 00000000180000000000
622920101000000000005001000081845000002281845000000002025010002442701202500000000000074394D000000000000LIQUIDAO DE EMPENHO 000244/2025 - FMPSS- FUNDO DE CAMPO VERDE MT                                                                                      1O 00000000150000000000
821120108000000000005001000081845000002181845000000002025010002442701202500000000000074394D000000000000LIQUIDAO DE EMPENHO 000244/2025 - FMPSS- FUNDO DE CAMPO VERDE MT                                                                                      1C 00000000180000000000
213110101010000000005001000081845000002381845000000002025010002442701202500000000000074394C000000000000LIQUIDAO DE EMPENHO 000244/2025 - FMPSS- FUNDO DE CAMPO VERDE MT                                                                                      1PF00000000180000000000
622130300000000000005001000081845000002281845000000002025010002442701202500000000000074394C000000000000LIQUIDAO DE EMPENHO 000244/2025 - FMPSS- FUNDO DE CAMPO VERDE MT                                                                                      1O 00000000150000000000
622920103000000000005001000081845000002281845000000002025010002442701202500000000000074394C000000000000LIQUIDAO DE EMPENHO 000244/2025 - FMPSS- FUNDO DE CAMPO VERDE MT                                                                                      1O 00000000150000000000
821130108000000000005001000081845000002181845000000002025010002442701202500000000000074394C000000000000LIQUIDAO DE EMPENHO 000244/2025 - FMPSS- FUNDO DE CAMPO VERDE MT                                                                                      1C 00000000180000000000
522920101000000000005001000081846000012081846000000002025010011262801202500000000000002600D000000000000REFERENTE EMPENHO 001126/2025 - FPSM - CONTRIBUICAO AO FAPS                                                                                           1O 00000000150000000000
622110000000000000005001000081846000012081846000000002025010011262801202500000000000002600D000000000000REFERENTE EMPENHO 001126/2025 - FPSM - CONTRIBUICAO AO FAPS                                                                                           1O 00000000150000000000
821110108000000000005001000081846000011981846000000002025010011262801202500000000000002600D000000000000REFERENTE EMPENHO 001126/2025 - FPSM - CONTRIBUICAO AO FAPS                                                                                           1C 00000000180000000000
622130100000000000005001000081846000012081846000000002025010011262801202500000000000002600C000000000000REFERENTE EMPENHO 001126/2025 - FPSM - CONTRIBUICAO AO FAPS                                                                                           1O 00000000180000000000
622920101000000000005001000081846000012081846000000002025010011262801202500000000000002600C000000000000REFERENTE EMPENHO 001126/2025 - FPSM - CONTRIBUICAO AO FAPS                                                                                           1O 00000000150000000000
821120108000000000005001000081846000011981846000000002025010011262801202500000000000002600C000000000000REFERENTE EMPENHO 001126/2025 - FPSM - CONTRIBUICAO AO FAPS                                                                                           1C 00000000180000000000
522920101000000000005001000081846000010281846000000002025010011172801202500000000000002505D000000000000REFERENTE EMPENHO 001117/2025 - FPSM - CONTRIBUICAO AO FAPS                                                                                           1O 00000000150000000000
622110000000000000005001000081846000010281846000000002025010011172801202500000000000002505D000000000000REFERENTE EMPENHO 001117/2025 - FPSM - CONTRIBUICAO AO FAPS                                                                                           1O 00000000150000000000
821110108000000000005001000081846000010181846000000002025010011172801202500000000000002505D000000000000REFERENTE EMPENHO 001117/2025 - FPSM - CONTRIBUICAO AO FAPS                                                                                           1C 00000000180000000000
622130100000000000005001000081846000010281846000000002025010011172801202500000000000002505C000000000000REFERENTE EMPENHO 001117/2025 - FPSM - CONTRIBUICAO AO FAPS                                                                                           1O 00000000180000000000
622920101000000000005001000081846000010281846000000002025010011172801202500000000000002505C000000000000REFERENTE EMPENHO 001117/2025 - FPSM - CONTRIBUICAO AO FAPS                                                                                           1O 00000000150000000000
821120108000000000005001000081846000010181846000000002025010011172801202500000000000002505C000000000000REFERENTE EMPENHO 001117/2025 - FPSM - CONTRIBUICAO AO FAPS                                                                                           1C 00000000180000000000
522920101000000000005001000081846000010081846000000002025010011162801202500000000000002209D000000000000REFERENTE EMPENHO 001116/2025 - FPSM - CONTRIBUICAO AO FAPS                                                                                           1O 00000000150000000000
622110000000000000005001000081846000010081846000000002025010011162801202500000000000002209D000000000000REFERENTE EMPENHO 001116/2025 - FPSM - CONTRIBUICAO AO FAPS                                                                                           1O 00000000150000000000
821110108000000000005001000081846000009981846000000002025010011162801202500000000000002209D000000000000REFERENTE EMPENHO 001116/2025 - FPSM - CONTRIBUICAO AO FAPS                                                                                           1C 00000000180000000000
622130100000000000005001000081846000010081846000000002025010011162801202500000000000002209C000000000000REFERENTE EMPENHO 001116/2025 - FPSM - CONTRIBUICAO AO FAPS                                                                                           1O 00000000180000000000
622920101000000000005001000081846000010081846000000002025010011162801202500000000000002209C000000000000REFERENTE EMPENHO 001116/2025 - FPSM - CONTRIBUICAO AO FAPS                                                                                           1O 00000000150000000000
821120108000000000005001000081846000009981846000000002025010011162801202500000000000002209C000000000000REFERENTE EMPENHO 001116/2025 - FPSM - CONTRIBUICAO AO FAPS                                                                                           1C 00000000180000000000
522920101000000000005001000081846000011881846000000002025010011252801202500000000000002293D000000000000REFERENTE EMPENHO 001125/2025 - FPSM - CONTRIBUICAO AO FAPS                                                                                           1O 00000000150000000000
622110000000000000005001000081846000011881846000000002025010011252801202500000000000002293D000000000000REFERENTE EMPENHO 001125/2025 - FPSM - CONTRIBUICAO AO FAPS                                                                                           1O 00000000150000000000
821110108000000000005001000081846000011781846000000002025010011252801202500000000000002293D000000000000REFERENTE EMPENHO 001125/2025 - FPSM - CONTRIBUICAO AO FAPS                                                                                           1C 00000000180000000000
622130100000000000005001000081846000011881846000000002025010011252801202500000000000002293C000000000000REFERENTE EMPENHO 001125/2025 - FPSM - CONTRIBUICAO AO FAPS                                                                                           1O 00000000180000000000
622920101000000000005001000081846000011881846000000002025010011252801202500000000000002293C000000000000REFERENTE EMPENHO 001125/2025 - FPSM - CONTRIBUICAO AO FAPS                                                                                           1O 00000000150000000000
821120108000000000005001000081846000011781846000000002025010011252801202500000000000002293C000000000000REFERENTE EMPENHO 001125/2025 - FPSM - CONTRIBUICAO AO FAPS                                                                                           1C 00000000180000000000
522920101000000000005001000081846000007081846000000002025010006722801202500000000000151800D000000000000REFERENTE EMPENHO 000672/2025 - FOLHA DE PGTO - SERVIDORES DIVERSOS                                                                                   1O 00000000150000000000
622110000000000000005001000081846000007081846000000002025010006722801202500000000000151800D000000000000REFERENTE EMPENHO 000672/2025 - FOLHA DE PGTO - SERVIDORES DIVERSOS                                                                                   1O 00000000150000000000
821110108000000000005001000081846000006981846000000002025010006722801202500000000000151800D000000000000REFERENTE EMPENHO 000672/2025 - FOLHA DE PGTO - SERVIDORES DIVERSOS                                                                                   1C 00000000180000000000
622130100000000000005001000081846000007081846000000002025010006722801202500000000000151800C000000000000REFERENTE EMPENHO 000672/2025 - FOLHA DE PGTO - SERVIDORES DIVERSOS                                                                                   1O 00000000180000000000
622920101000000000005001000081846000007081846000000002025010006722801202500000000000151800C000000000000REFERENTE EMPENHO 000672/2025 - FOLHA DE PGTO - SERVIDORES DIVERSOS                                                                                   1O 00000000150000000000
821120108000000000005001000081846000006981846000000002025010006722801202500000000000151800C000000000000REFERENTE EMPENHO 000672/2025 - FOLHA DE PGTO - SERVIDORES DIVERSOS                                                                                   1C 00000000180000000000
522920101000000000005001000081846000013281846000000002025010011322801202500000000000110404D000000000000REFERENTE EMPENHO 001132/2025 - FPSM - CONTRIBUICAO AO FAPS                                                                                           1O 00000000150000000000
622110000000000000005001000081846000013281846000000002025010011322801202500000000000110404D000000000000REFERENTE EMPENHO 001132/2025 - FPSM - CONTRIBUICAO AO FAPS                                                                                           1O 00000000150000000000
821110108000000000005001000081846000013181846000000002025010011322801202500000000000110404D000000000000REFERENTE EMPENHO 001132/2025 - FPSM - CONTRIBUICAO AO FAPS                                                                                           1C 00000000180000000000
622130100000000000005001000081846000013281846000000002025010011322801202500000000000110404C000000000000REFERENTE EMPENHO 001132/2025 - FPSM - CONTRIBUICAO AO FAPS                                                                                           1O 00000000180000000000
622920101000000000005001000081846000013281846000000002025010011322801202500000000000110404C000000000000REFERENTE EMPENHO 001132/2025 - FPSM - CONTRIBUICAO AO FAPS                                                                                           1O 00000000150000000000
821120108000000000005001000081846000013181846000000002025010011322801202500000000000110404C000000000000REFERENTE EMPENHO 001132/2025 - FPSM - CONTRIBUICAO AO FAPS                                                                                           1C 00000000180000000000
522920101000000000005001000081846000012881846000000002025010011302801202500000000000029304D000000000000REFERENTE EMPENHO 001130/2025 - FPSM - CONTRIBUICAO AO FAPS                                                                                           1O 00000000150000000000
622110000000000000005001000081846000012881846000000002025010011302801202500000000000029304D000000000000REFERENTE EMPENHO 001130/2025 - FPSM - CONTRIBUICAO AO FAPS                                                                                           1O 00000000150000000000
821110108000000000005001000081846000012781846000000002025010011302801202500000000000029304D000000000000REFERENTE EMPENHO 001130/2025 - FPSM - CONTRIBUICAO AO FAPS                                                                                           1C 00000000180000000000
622130100000000000005001000081846000012881846000000002025010011302801202500000000000029304C000000000000REFERENTE EMPENHO 001130/2025 - FPSM - CONTRIBUICAO AO FAPS                                                                                           1O 00000000180000000000
622920101000000000005001000081846000012881846000000002025010011302801202500000000000029304C000000000000REFERENTE EMPENHO 001130/2025 - FPSM - CONTRIBUICAO AO FAPS                                                                                           1O 00000000150000000000
821120108000000000005001000081846000012781846000000002025010011302801202500000000000029304C000000000000REFERENTE EMPENHO 001130/2025 - FPSM - CONTRIBUICAO AO FAPS                                                                                           1C 00000000180000000000
522920101000000000005001000081846000012681846000000002025010011292801202500000000000114613D000000000000REFERENTE EMPENHO 001129/2025 - FPSM - CONTRIBUICAO AO FAPS                                                                                           1O 00000000150000000000
622110000000000000005001000081846000012681846000000002025010011292801202500000000000114613D000000000000REFERENTE EMPENHO 001129/2025 - FPSM - CONTRIBUICAO AO FAPS                                                                                           1O 00000000150000000000
821110108000000000005001000081846000012581846000000002025010011292801202500000000000114613D000000000000REFERENTE EMPENHO 001129/2025 - FPSM - CONTRIBUICAO AO FAPS                                                                                           1C 00000000180000000000
622130100000000000005001000081846000012681846000000002025010011292801202500000000000114613C000000000000REFERENTE EMPENHO 001129/2025 - FPSM - CONTRIBUICAO AO FAPS                                                                                           1O 00000000180000000000
622920101000000000005001000081846000012681846000000002025010011292801202500000000000114613C000000000000REFERENTE EMPENHO 001129/2025 - FPSM - CONTRIBUICAO AO FAPS                                                                                           1O 00000000150000000000
821120108000000000005001000081846000012581846000000002025010011292801202500000000000114613C000000000000REFERENTE EMPENHO 001129/2025 - FPSM - CONTRIBUICAO AO FAPS                                                                                           1C 00000000180000000000
522920101000000000005001000081846000012481846000000002025010011282801202500000000000442517D000000000000REFERENTE EMPENHO 001128/2025 - FPSM - CONTRIBUICAO AO FAPS                                                                                           1O 00000000150000000000
622110000000000000005001000081846000012481846000000002025010011282801202500000000000442517D000000000000REFERENTE EMPENHO 001128/2025 - FPSM - CONTRIBUICAO AO FAPS                                                                                           1O 00000000150000000000
821110108000000000005001000081846000012381846000000002025010011282801202500000000000442517D000000000000REFERENTE EMPENHO 001128/2025 - FPSM - CONTRIBUICAO AO FAPS                                                                                           1C 00000000180000000000
622130100000000000005001000081846000012481846000000002025010011282801202500000000000442517C000000000000REFERENTE EMPENHO 001128/2025 - FPSM - CONTRIBUICAO AO FAPS                                                                                           1O 00000000180000000000
622920101000000000005001000081846000012481846000000002025010011282801202500000000000442517C000000000000REFERENTE EMPENHO 001128/2025 - FPSM - CONTRIBUICAO AO FAPS                                                                                           1O 00000000150000000000
821120108000000000005001000081846000012381846000000002025010011282801202500000000000442517C000000000000REFERENTE EMPENHO 001128/2025 - FPSM - CONTRIBUICAO AO FAPS                                                                                           1C 00000000180000000000
522920101000000000005001000081846000013481846000000002025010011332801202500000000000028228D000000000000REFERENTE EMPENHO 001133/2025 - FPSM - CONTRIBUICAO AO FAPS                                                                                           1O 00000000150000000000
622110000000000000005001000081846000013481846000000002025010011332801202500000000000028228D000000000000REFERENTE EMPENHO 001133/2025 - FPSM - CONTRIBUICAO AO FAPS                                                                                           1O 00000000150000000000
821110108000000000005001000081846000013381846000000002025010011332801202500000000000028228D000000000000REFERENTE EMPENHO 001133/2025 - FPSM - CONTRIBUICAO AO FAPS                                                                                           1C 00000000180000000000
622130100000000000005001000081846000013481846000000002025010011332801202500000000000028228C000000000000REFERENTE EMPENHO 001133/2025 - FPSM - CONTRIBUICAO AO FAPS                                                                                           1O 00000000180000000000
622920101000000000005001000081846000013481846000000002025010011332801202500000000000028228C000000000000REFERENTE EMPENHO 001133/2025 - FPSM - CONTRIBUICAO AO FAPS                                                                                           1O 00000000150000000000
821120108000000000005001000081846000013381846000000002025010011332801202500000000000028228C000000000000REFERENTE EMPENHO 001133/2025 - FPSM - CONTRIBUICAO AO FAPS                                                                                           1C 00000000180000000000
522920101000000000005001000081846000010881846000000002025010011202801202500000000000211829D000000000000REFERENTE EMPENHO 001120/2025 - FPSM - CONTRIBUICAO AO FAPS                                                                                           1O 00000000150000000000
622110000000000000005001000081846000010881846000000002025010011202801202500000000000211829D000000000000REFERENTE EMPENHO 001120/2025 - FPSM - CONTRIBUICAO AO FAPS                                                                                           1O 00000000150000000000
821110108000000000005001000081846000010781846000000002025010011202801202500000000000211829D000000000000REFERENTE EMPENHO 001120/2025 - FPSM - CONTRIBUICAO AO FAPS                                                                                           1C 00000000180000000000
522920101000000000005001000081846000011281846000000002025010011222801202500000000000211829D000000000000REFERENTE EMPENHO 001122/2025 - FPSM - CONTRIBUICAO AO FAPS                                                                                           1O 00000000150000000000
622110000000000000005001000081846000011281846000000002025010011222801202500000000000211829D000000000000REFERENTE EMPENHO 001122/2025 - FPSM - CONTRIBUICAO AO FAPS                                                                                           1O 00000000150000000000
821110108000000000005001000081846000011181846000000002025010011222801202500000000000211829D000000000000REFERENTE EMPENHO 001122/2025 - FPSM - CONTRIBUICAO AO FAPS                                                                                           1C 00000000180000000000
622130100000000000005001000081846000010881846000000002025010011202801202500000000000211829C000000000000REFERENTE EMPENHO 001120/2025 - FPSM - CONTRIBUICAO AO FAPS                                                                                           1O 00000000180000000000
622920101000000000005001000081846000010881846000000002025010011202801202500000000000211829C000000000000REFERENTE EMPENHO 001120/2025 - FPSM - CONTRIBUICAO AO FAPS                                                                                           1O 00000000150000000000
821120108000000000005001000081846000010781846000000002025010011202801202500000000000211829C000000000000REFERENTE EMPENHO 001120/2025 - FPSM - CONTRIBUICAO AO FAPS                                                                                           1C 00000000180000000000
622130100000000000005001000081846000011281846000000002025010011222801202500000000000211829C000000000000REFERENTE EMPENHO 001122/2025 - FPSM - CONTRIBUICAO AO FAPS                                                                                           1O 00000000180000000000
622920101000000000005001000081846000011281846000000002025010011222801202500000000000211829C000000000000REFERENTE EMPENHO 001122/2025 - FPSM - CONTRIBUICAO AO FAPS                                                                                           1O 00000000150000000000
821120108000000000005001000081846000011181846000000002025010011222801202500000000000211829C000000000000REFERENTE EMPENHO 001122/2025 - FPSM - CONTRIBUICAO AO FAPS                                                                                           1C 00000000180000000000
522920101000000000005001000081846000008581846000000002025010006772801202500000000000328431D000000000000REFERENTE EMPENHO 000677/2025 - FOLHA DE PGTO - SERVIDORES DIVERSOS                                                                                   1O 00000000150000000000
622110000000000000005001000081846000008581846000000002025010006772801202500000000000328431D000000000000REFERENTE EMPENHO 000677/2025 - FOLHA DE PGTO - SERVIDORES DIVERSOS                                                                                   1O 00000000150000000000
821110108000000000005001000081846000008481846000000002025010006772801202500000000000328431D000000000000REFERENTE EMPENHO 000677/2025 - FOLHA DE PGTO - SERVIDORES DIVERSOS                                                                                   1C 00000000180000000000
622130100000000000005001000081846000008581846000000002025010006772801202500000000000328431C000000000000REFERENTE EMPENHO 000677/2025 - FOLHA DE PGTO - SERVIDORES DIVERSOS                                                                                   1O 00000000180000000000
622920101000000000005001000081846000008581846000000002025010006772801202500000000000328431C000000000000REFERENTE EMPENHO 000677/2025 - FOLHA DE PGTO - SERVIDORES DIVERSOS                                                                                   1O 00000000150000000000
821120108000000000005001000081846000008481846000000002025010006772801202500000000000328431C000000000000REFERENTE EMPENHO 000677/2025 - FOLHA DE PGTO - SERVIDORES DIVERSOS                                                                                   1C 00000000180000000000
522920101000000000005001000081846000007681846000000002025010006742801202500000000000828936D000000000000REFERENTE EMPENHO 000674/2025 - FOLHA DE PGTO - SERVIDORES DIVERSOS                                                                                   1O 00000000150000000000
622110000000000000005001000081846000007681846000000002025010006742801202500000000000828936D000000000000REFERENTE EMPENHO 000674/2025 - FOLHA DE PGTO - SERVIDORES DIVERSOS                                                                                   1O 00000000150000000000
821110108000000000005001000081846000007581846000000002025010006742801202500000000000828936D000000000000REFERENTE EMPENHO 000674/2025 - FOLHA DE PGTO - SERVIDORES DIVERSOS                                                                                   1C 00000000180000000000
622130100000000000005001000081846000007681846000000002025010006742801202500000000000828936C000000000000REFERENTE EMPENHO 000674/2025 - FOLHA DE PGTO - SERVIDORES DIVERSOS                                                                                   1O 00000000180000000000
622920101000000000005001000081846000007681846000000002025010006742801202500000000000828936C000000000000REFERENTE EMPENHO 000674/2025 - FOLHA DE PGTO - SERVIDORES DIVERSOS                                                                                   1O 00000000150000000000
821120108000000000005001000081846000007581846000000002025010006742801202500000000000828936C000000000000REFERENTE EMPENHO 000674/2025 - FOLHA DE PGTO - SERVIDORES DIVERSOS                                                                                   1C 00000000180000000000
522920101000000000005001000081846000013081846000000002025010011312801202500000000000062044D000000000000REFERENTE EMPENHO 001131/2025 - FPSM - CONTRIBUICAO AO FAPS                                                                                           1O 00000000150000000000
622110000000000000005001000081846000013081846000000002025010011312801202500000000000062044D000000000000REFERENTE EMPENHO 001131/2025 - FPSM - CONTRIBUICAO AO FAPS                                                                                           1O 00000000150000000000
821110108000000000005001000081846000012981846000000002025010011312801202500000000000062044D000000000000REFERENTE EMPENHO 001131/2025 - FPSM - CONTRIBUICAO AO FAPS                                                                                           1C 00000000180000000000
622130100000000000005001000081846000013081846000000002025010011312801202500000000000062044C000000000000REFERENTE EMPENHO 001131/2025 - FPSM - CONTRIBUICAO AO FAPS                                                                                           1O 00000000180000000000
622920101000000000005001000081846000013081846000000002025010011312801202500000000000062044C000000000000REFERENTE EMPENHO 001131/2025 - FPSM - CONTRIBUICAO AO FAPS                                                                                           1O 00000000150000000000
821120108000000000005001000081846000012981846000000002025010011312801202500000000000062044C000000000000REFERENTE EMPENHO 001131/2025 - FPSM - CONTRIBUICAO AO FAPS                                                                                           1C 00000000180000000000
522920101000000000005001000081846000009481846000000002025010011132801202500000000000204050D000000000000REFERENTE EMPENHO 001113/2025 - FPSM - CONTRIBUICAO AO FAPS                                                                                           1O 00000000150000000000
622110000000000000005001000081846000009481846000000002025010011132801202500000000000204050D000000000000REFERENTE EMPENHO 001113/2025 - FPSM - CONTRIBUICAO AO FAPS                                                                                           1O 00000000150000000000
821110108000000000005001000081846000009381846000000002025010011132801202500000000000204050D000000000000REFERENTE EMPENHO 001113/2025 - FPSM - CONTRIBUICAO AO FAPS                                                                                           1C 00000000180000000000
622130100000000000005001000081846000009481846000000002025010011132801202500000000000204050C000000000000REFERENTE EMPENHO 001113/2025 - FPSM - CONTRIBUICAO AO FAPS                                                                                           1O 00000000180000000000
622920101000000000005001000081846000009481846000000002025010011132801202500000000000204050C000000000000REFERENTE EMPENHO 001113/2025 - FPSM - CONTRIBUICAO AO FAPS                                                                                           1O 00000000150000000000
821120108000000000005001000081846000009381846000000002025010011132801202500000000000204050C000000000000REFERENTE EMPENHO 001113/2025 - FPSM - CONTRIBUICAO AO FAPS                                                                                           1C 00000000180000000000
522920101000000000005001000081846000011681846000000002025010011242801202500000000000021054D000000000000REFERENTE EMPENHO 001124/2025 - FPSM - CONTRIBUICAO AO FAPS                                                                                           1O 00000000150000000000
622110000000000000005001000081846000011681846000000002025010011242801202500000000000021054D000000000000REFERENTE EMPENHO 001124/2025 - FPSM - CONTRIBUICAO AO FAPS                                                                                           1O 00000000150000000000
821110108000000000005001000081846000011581846000000002025010011242801202500000000000021054D000000000000REFERENTE EMPENHO 001124/2025 - FPSM - CONTRIBUICAO AO FAPS                                                                                           1C 00000000180000000000
622130100000000000005001000081846000011681846000000002025010011242801202500000000000021054C000000000000REFERENTE EMPENHO 001124/2025 - FPSM - CONTRIBUICAO AO FAPS                                                                                           1O 00000000180000000000
622920101000000000005001000081846000011681846000000002025010011242801202500000000000021054C000000000000REFERENTE EMPENHO 001124/2025 - FPSM - CONTRIBUICAO AO FAPS                                                                                           1O 00000000150000000000
821120108000000000005001000081846000011581846000000002025010011242801202500000000000021054C000000000000REFERENTE EMPENHO 001124/2025 - FPSM - CONTRIBUICAO AO FAPS                                                                                           1C 00000000180000000000
522920101000000000005001000081846000007981846000000002025010006752801202500000000000481654D000000000000REFERENTE EMPENHO 000675/2025 - FOLHA DE PGTO - SERVIDORES DIVERSOS                                                                                   1O 00000000150000000000
622110000000000000005001000081846000007981846000000002025010006752801202500000000000481654D000000000000REFERENTE EMPENHO 000675/2025 - FOLHA DE PGTO - SERVIDORES DIVERSOS                                                                                   1O 00000000150000000000
821110108000000000005001000081846000007881846000000002025010006752801202500000000000481654D000000000000REFERENTE EMPENHO 000675/2025 - FOLHA DE PGTO - SERVIDORES DIVERSOS                                                                                   1C 00000000180000000000
622130100000000000005001000081846000007981846000000002025010006752801202500000000000481654C000000000000REFERENTE EMPENHO 000675/2025 - FOLHA DE PGTO - SERVIDORES DIVERSOS                                                                                   1O 00000000180000000000
622920101000000000005001000081846000007981846000000002025010006752801202500000000000481654C000000000000REFERENTE EMPENHO 000675/2025 - FOLHA DE PGTO - SERVIDORES DIVERSOS                                                                                   1O 00000000150000000000
821120108000000000005001000081846000007881846000000002025010006752801202500000000000481654C000000000000REFERENTE EMPENHO 000675/2025 - FOLHA DE PGTO - SERVIDORES DIVERSOS                                                                                   1C 00000000180000000000
522920101000000000005001000081846000008281846000000002025010006762801202500000000000471056D000000000000REFERENTE EMPENHO 000676/2025 - FOLHA DE PGTO - SERVIDORES DIVERSOS                                                                                   1O 00000000150000000000
622110000000000000005001000081846000008281846000000002025010006762801202500000000000471056D000000000000REFERENTE EMPENHO 000676/2025 - FOLHA DE PGTO - SERVIDORES DIVERSOS                                                                                   1O 00000000150000000000
821110108000000000005001000081846000008181846000000002025010006762801202500000000000471056D000000000000REFERENTE EMPENHO 000676/2025 - FOLHA DE PGTO - SERVIDORES DIVERSOS                                                                                   1C 00000000180000000000
622130100000000000005001000081846000008281846000000002025010006762801202500000000000471056C000000000000REFERENTE EMPENHO 000676/2025 - FOLHA DE PGTO - SERVIDORES DIVERSOS                                                                                   1O 00000000180000000000
622920101000000000005001000081846000008281846000000002025010006762801202500000000000471056C000000000000REFERENTE EMPENHO 000676/2025 - FOLHA DE PGTO - SERVIDORES DIVERSOS                                                                                   1O 00000000150000000000
821120108000000000005001000081846000008181846000000002025010006762801202500000000000471056C000000000000REFERENTE EMPENHO 000676/2025 - FOLHA DE PGTO - SERVIDORES DIVERSOS                                                                                   1C 00000000180000000000
522920101000000000005001000081846000006181846000000002025010006692801202500000000000192560D000000000000REFERENTE EMPENHO 000669/2025 - FOLHA DE PGTO - SERVIDORES DIVERSOS                                                                                   1O 00000000150000000000
622110000000000000005001000081846000006181846000000002025010006692801202500000000000192560D000000000000REFERENTE EMPENHO 000669/2025 - FOLHA DE PGTO - SERVIDORES DIVERSOS                                                                                   1O 00000000150000000000
821110108000000000005001000081846000006081846000000002025010006692801202500000000000192560D000000000000REFERENTE EMPENHO 000669/2025 - FOLHA DE PGTO - SERVIDORES DIVERSOS                                                                                   1C 00000000180000000000
622130100000000000005001000081846000006181846000000002025010006692801202500000000000192560C000000000000REFERENTE EMPENHO 000669/2025 - FOLHA DE PGTO - SERVIDORES DIVERSOS                                                                                   1O 00000000180000000000
622920101000000000005001000081846000006181846000000002025010006692801202500000000000192560C000000000000REFERENTE EMPENHO 000669/2025 - FOLHA DE PGTO - SERVIDORES DIVERSOS                                                                                   1O 00000000150000000000
821120108000000000005001000081846000006081846000000002025010006692801202500000000000192560C000000000000REFERENTE EMPENHO 000669/2025 - FOLHA DE PGTO - SERVIDORES DIVERSOS                                                                                   1C 00000000180000000000
522920101000000000005001000081846000010681846000000002025010011192801202500000000000426266D000000000000REFERENTE EMPENHO 001119/2025 - FPSM - CONTRIBUICAO AO FAPS                                                                                           1O 00000000150000000000
622110000000000000005001000081846000010681846000000002025010011192801202500000000000426266D000000000000REFERENTE EMPENHO 001119/2025 - FPSM - CONTRIBUICAO AO FAPS                                                                                           1O 00000000150000000000
821110108000000000005001000081846000010581846000000002025010011192801202500000000000426266D000000000000REFERENTE EMPENHO 001119/2025 - FPSM - CONTRIBUICAO AO FAPS                                                                                           1C 00000000180000000000
622130100000000000005001000081846000010681846000000002025010011192801202500000000000426266C000000000000REFERENTE EMPENHO 001119/2025 - FPSM - CONTRIBUICAO AO FAPS                                                                                           1O 00000000180000000000
622920101000000000005001000081846000010681846000000002025010011192801202500000000000426266C000000000000REFERENTE EMPENHO 001119/2025 - FPSM - CONTRIBUICAO AO FAPS                                                                                           1O 00000000150000000000
821120108000000000005001000081846000010581846000000002025010011192801202500000000000426266C000000000000REFERENTE EMPENHO 001119/2025 - FPSM - CONTRIBUICAO AO FAPS                                                                                           1C 00000000180000000000
522920101000000000005001000081846000013681846000000002025010011342801202500000000000059766D000000000000REFERENTE EMPENHO 001134/2025 - FPSM - CONTRIBUICAO AO FAPS                                                                                           1O 00000000150000000000
622110000000000000005001000081846000013681846000000002025010011342801202500000000000059766D000000000000REFERENTE EMPENHO 001134/2025 - FPSM - CONTRIBUICAO AO FAPS                                                                                           1O 00000000150000000000
821110108000000000005001000081846000013581846000000002025010011342801202500000000000059766D000000000000REFERENTE EMPENHO 001134/2025 - FPSM - CONTRIBUICAO AO FAPS                                                                                           1C 00000000180000000000
622130100000000000005001000081846000013681846000000002025010011342801202500000000000059766C000000000000REFERENTE EMPENHO 001134/2025 - FPSM - CONTRIBUICAO AO FAPS                                                                                           1O 00000000180000000000
622920101000000000005001000081846000013681846000000002025010011342801202500000000000059766C000000000000REFERENTE EMPENHO 001134/2025 - FPSM - CONTRIBUICAO AO FAPS                                                                                           1O 00000000150000000000
821120108000000000005001000081846000013581846000000002025010011342801202500000000000059766C000000000000REFERENTE EMPENHO 001134/2025 - FPSM - CONTRIBUICAO AO FAPS                                                                                           1C 00000000180000000000
522920101000000000005001000081846000009681846000000002025010011142801202500000000000139768D000000000000REFERENTE EMPENHO 001114/2025 - FPSM - CONTRIBUICAO AO FAPS                                                                                           1O 00000000150000000000
622110000000000000005001000081846000009681846000000002025010011142801202500000000000139768D000000000000REFERENTE EMPENHO 001114/2025 - FPSM - CONTRIBUICAO AO FAPS                                                                                           1O 00000000150000000000
821110108000000000005001000081846000009581846000000002025010011142801202500000000000139768D000000000000REFERENTE EMPENHO 001114/2025 - FPSM - CONTRIBUICAO AO FAPS                                                                                           1C 00000000180000000000
622130100000000000005001000081846000009681846000000002025010011142801202500000000000139768C000000000000REFERENTE EMPENHO 001114/2025 - FPSM - CONTRIBUICAO AO FAPS                                                                                           1O 00000000180000000000
622920101000000000005001000081846000009681846000000002025010011142801202500000000000139768C000000000000REFERENTE EMPENHO 001114/2025 - FPSM - CONTRIBUICAO AO FAPS                                                                                           1O 00000000150000000000
821120108000000000005001000081846000009581846000000002025010011142801202500000000000139768C000000000000REFERENTE EMPENHO 001114/2025 - FPSM - CONTRIBUICAO AO FAPS                                                                                           1C 00000000180000000000
522920101000000000005001000081846000004381846000000002025010006632801202500000000000224070D000000000000REFERENTE EMPENHO 000663/2025 - FOLHA DE PGTO - SERVIDORES DIVERSOS                                                                                   1O 00000000150000000000
622110000000000000005001000081846000004381846000000002025010006632801202500000000000224070D000000000000REFERENTE EMPENHO 000663/2025 - FOLHA DE PGTO - SERVIDORES DIVERSOS                                                                                   1O 00000000150000000000
821110108000000000005001000081846000004281846000000002025010006632801202500000000000224070D000000000000REFERENTE EMPENHO 000663/2025 - FOLHA DE PGTO - SERVIDORES DIVERSOS                                                                                   1C 00000000180000000000
622130100000000000005001000081846000004381846000000002025010006632801202500000000000224070C000000000000REFERENTE EMPENHO 000663/2025 - FOLHA DE PGTO - SERVIDORES DIVERSOS                                                                                   1O 00000000180000000000
622920101000000000005001000081846000004381846000000002025010006632801202500000000000224070C000000000000REFERENTE EMPENHO 000663/2025 - FOLHA DE PGTO - SERVIDORES DIVERSOS                                                                                   1O 00000000150000000000
821120108000000000005001000081846000004281846000000002025010006632801202500000000000224070C000000000000REFERENTE EMPENHO 000663/2025 - FOLHA DE PGTO - SERVIDORES DIVERSOS                                                                                   1C 00000000180000000000
522920101000000000005001000081846000012281846000000002025010011272801202500000000000018877D000000000000REFERENTE EMPENHO 001127/2025 - FPSM - CONTRIBUICAO AO FAPS                                                                                           1O 00000000150000000000
622110000000000000005001000081846000012281846000000002025010011272801202500000000000018877D000000000000REFERENTE EMPENHO 001127/2025 - FPSM - CONTRIBUICAO AO FAPS                                                                                           1O 00000000150000000000
821110108000000000005001000081846000012181846000000002025010011272801202500000000000018877D000000000000REFERENTE EMPENHO 001127/2025 - FPSM - CONTRIBUICAO AO FAPS                                                                                           1C 00000000180000000000
622130100000000000005001000081846000012281846000000002025010011272801202500000000000018877C000000000000REFERENTE EMPENHO 001127/2025 - FPSM - CONTRIBUICAO AO FAPS                                                                                           1O 00000000180000000000
622920101000000000005001000081846000012281846000000002025010011272801202500000000000018877C000000000000REFERENTE EMPENHO 001127/2025 - FPSM - CONTRIBUICAO AO FAPS                                                                                           1O 00000000150000000000
821120108000000000005001000081846000012181846000000002025010011272801202500000000000018877C000000000000REFERENTE EMPENHO 001127/2025 - FPSM - CONTRIBUICAO AO FAPS                                                                                           1C 00000000180000000000
522920101000000000005001000081846000009881846000000002025010011152801202500000000000020281D000000000000REFERENTE EMPENHO 001115/2025 - FPSM - CONTRIBUICAO AO FAPS                                                                                           1O 00000000150000000000
622110000000000000005001000081846000009881846000000002025010011152801202500000000000020281D000000000000REFERENTE EMPENHO 001115/2025 - FPSM - CONTRIBUICAO AO FAPS                                                                                           1O 00000000150000000000
821110108000000000005001000081846000009781846000000002025010011152801202500000000000020281D000000000000REFERENTE EMPENHO 001115/2025 - FPSM - CONTRIBUICAO AO FAPS                                                                                           1C 00000000180000000000
622130100000000000005001000081846000009881846000000002025010011152801202500000000000020281C000000000000REFERENTE EMPENHO 001115/2025 - FPSM - CONTRIBUICAO AO FAPS                                                                                           1O 00000000180000000000
622920101000000000005001000081846000009881846000000002025010011152801202500000000000020281C000000000000REFERENTE EMPENHO 001115/2025 - FPSM - CONTRIBUICAO AO FAPS                                                                                           1O 00000000150000000000
821120108000000000005001000081846000009781846000000002025010011152801202500000000000020281C000000000000REFERENTE EMPENHO 001115/2025 - FPSM - CONTRIBUICAO AO FAPS                                                                                           1C 00000000180000000000
522920101000000000005001000081846000010481846000000002025010011182801202500000000000018184D000000000000REFERENTE EMPENHO 001118/2025 - FPSM - CONTRIBUICAO AO FAPS                                                                                           1O 00000000150000000000
622110000000000000005001000081846000010481846000000002025010011182801202500000000000018184D000000000000REFERENTE EMPENHO 001118/2025 - FPSM - CONTRIBUICAO AO FAPS                                                                                           1O 00000000150000000000
821110108000000000005001000081846000010381846000000002025010011182801202500000000000018184D000000000000REFERENTE EMPENHO 001118/2025 - FPSM - CONTRIBUICAO AO FAPS                                                                                           1C 00000000180000000000
622130100000000000005001000081846000010481846000000002025010011182801202500000000000018184C000000000000REFERENTE EMPENHO 001118/2025 - FPSM - CONTRIBUICAO AO FAPS                                                                                           1O 00000000180000000000
622920101000000000005001000081846000010481846000000002025010011182801202500000000000018184C000000000000REFERENTE EMPENHO 001118/2025 - FPSM - CONTRIBUICAO AO FAPS                                                                                           1O 00000000150000000000
821120108000000000005001000081846000010381846000000002025010011182801202500000000000018184C000000000000REFERENTE EMPENHO 001118/2025 - FPSM - CONTRIBUICAO AO FAPS                                                                                           1C 00000000180000000000
522920101000000000005001000081846000009181846000000002025010006792801202500000000000579484D000000000000REFERENTE EMPENHO 000679/2025 - FOLHA DE PGTO - SERVIDORES DIVERSOS                                                                                   1O 00000000150000000000
622110000000000000005001000081846000009181846000000002025010006792801202500000000000579484D000000000000REFERENTE EMPENHO 000679/2025 - FOLHA DE PGTO - SERVIDORES DIVERSOS                                                                                   1O 00000000150000000000
821110108020000000005001000081846000009081846000000002025010006792801202500000000000579484D000000000000REFERENTE EMPENHO 000679/2025 - FOLHA DE PGTO - SERVIDORES DIVERSOS                                                                                   1C 00000000180200000000
622130100000000000005001000081846000009181846000000002025010006792801202500000000000579484C000000000000REFERENTE EMPENHO 000679/2025 - FOLHA DE PGTO - SERVIDORES DIVERSOS                                                                                   1O 00000000180200000000
622920101000000000005001000081846000009181846000000002025010006792801202500000000000579484C000000000000REFERENTE EMPENHO 000679/2025 - FOLHA DE PGTO - SERVIDORES DIVERSOS                                                                                   1O 00000000150000000000
821120108020000000005001000081846000009081846000000002025010006792801202500000000000579484C000000000000REFERENTE EMPENHO 000679/2025 - FOLHA DE PGTO - SERVIDORES DIVERSOS                                                                                   1C 00000000180200000000
522920101000000000005001000081846000004681846000000002025010006642801202500000000000349085D000000000000REFERENTE EMPENHO 000664/2025 - FOLHA DE PGTO - SERVIDORES DIVERSOS                                                                                   1O 00000000150000000000
622110000000000000005001000081846000004681846000000002025010006642801202500000000000349085D000000000000REFERENTE EMPENHO 000664/2025 - FOLHA DE PGTO - SERVIDORES DIVERSOS                                                                                   1O 00000000150000000000
821110108000000000005001000081846000004581846000000002025010006642801202500000000000349085D000000000000REFERENTE EMPENHO 000664/2025 - FOLHA DE PGTO - SERVIDORES DIVERSOS                                                                                   1C 00000000180000000000
622130100000000000005001000081846000004681846000000002025010006642801202500000000000349085C000000000000REFERENTE EMPENHO 000664/2025 - FOLHA DE PGTO - SERVIDORES DIVERSOS                                                                                   1O 00000000180000000000
622920101000000000005001000081846000004681846000000002025010006642801202500000000000349085C000000000000REFERENTE EMPENHO 000664/2025 - FOLHA DE PGTO - SERVIDORES DIVERSOS                                                                                   1O 00000000150000000000
821120108000000000005001000081846000004581846000000002025010006642801202500000000000349085C000000000000REFERENTE EMPENHO 000664/2025 - FOLHA DE PGTO - SERVIDORES DIVERSOS                                                                                   1C 00000000180000000000
522920101000000000005001000081846000011081846000000002025010011212801202500000000000145096D000000000000REFERENTE EMPENHO 001121/2025 - FPSM - CONTRIBUICAO AO FAPS                                                                                           1O 00000000150000000000
622110000000000000005001000081846000011081846000000002025010011212801202500000000000145096D000000000000REFERENTE EMPENHO 001121/2025 - FPSM - CONTRIBUICAO AO FAPS                                                                                           1O 00000000150000000000
