12091144000180010120253101202501022025FUNDO DE PREVIDENCIA SOCIAL RPPS                                                
20181201FPSM - RPPS                                                                     0587612826000190
20191201FPSM - RPPS                                                                     0587612826000190
20201201FPSM - RPPS                                                                     0587612826000190
20221201FPSM - RPPS                                                                     0587612826000190
20241201FPSM - RPPS                                                                     0587612826000190
20245001FPSM - ADMINISTRACAO                                                            0587612826000190
20245002FPSM - BENEFICIOS                                                               0587612826000190
20245009FPSM - RESERVAS                                                                 0587612826000190
20255001FPSM - ADMINISTRACAO                                                            0587612826000190
20255002FPSM - BENEFICIOS                                                               0587612826000190
20255009FPSM - RESERVAS                                                                 0587612826000190
FINALIZADOR0000000011