87612826000190010120253101202501022025PREFEITURA MUNICIPAL INDEPENDENCIA                                              
110104122000100000011337170000000000007092000000000000000000000005500000000000000000000000000000000000000000000000000000000000000000000000000076286400000000000000000000000000000000000000000000000000000000000764200000000000000000000000000000000000000000000025000000
110104122000100000011447170000000000001748000000000000000000000000000000000000000000000000000000000000000000000000000000000000000000000000000000000000000000000000000000000000000000000000000000000000000000000174800000000000000000000000000000000000000000000025000000
110104122000100000011317170000000000015996000000000000000000000012110000000000000000000000000000000000000000000000000000000000000000000000000172060800000000000000000000000000000000000000000000000000000000001720700000000000000000000000000000000000000000000025000000
040104129000400000031339031000000000018000000000000000000000000000000000000000000000000000000000000000000000000000000000000000000000000000000000000000000000000000000000000000000000000000000000000000000000001800000000000000000000000000000000000000000000000025000000
070104122000100002001449040000000000000500000000000000000000000000000000000000000000000000000000000000000000000000000000000000000000000000000000000000000000000000000000000000000000000000000000000000000000000050000000000000000000000000000000000000000000000025000000
070104122000100002001449052000000000011615000000000000000000000000000000000000000000000000000000000000000000000000000000000000000000000000000007700000000000770000000000000000000000000000000000000000000000001161500000000000000000000000000000000000000000000015000000
070104122000100002001319007000000000000500000000000000000000000000000000000000000000000000000000000000000000000000000000000000000000000000000000000000000000000000000000000000000000000000000000000000000000000050000000000000000000000000000000000000000000000015000000
070104122000100002001319011000000000941000000000000000000000000000000000000000000000000000000000000000000000000000000000000000000000000000000651885100000065188510000006518851000000000000000000000000000000094100000000000000000000000000000000000000000000000025000000
070104122000100002001319013000000000018000000000000000000000000000000000000000000000000000000000000000000000000000000000000000000000000000000006523600000000652360000000000000000000000000000000000000000000001800000000000000000000000000000000000000000000000025000000
070104122000100002001319016000000000030000000000000000000000000000000000000000000000000000000000000000000000000000000000000000000000000000000009577400000000957740000000095774000000000000000000000000000000003000000000000000000000000000000000000000000000000015000000
070104122000100002001339008000000000033900000000000000000000000000000000000000000000000000000000000000000000000000000000000000000000000000000001861500000000186150000000018615000000000000000000000000000000003390000000000000000000000000000000000000000000000015000000
070104122000100002001339014000000000004300000000000000000000000000000000000000000000000000000000000000000000000000000000000000000000000000000000000000000000000000000000000000000000000000000000000000000000000430000000000000000000000000000000000000000000000015000000
070104122000100002001339030000000000015000000000000000000000000000000000000000000000000000000000000000000000000000000000000000000000000000000018314400000001126280000000002000000000000000000000000000000000001500000000000000000000000000000000000000000000000015000000
070104122000100002001339036000000000000500000000000000000000000000000000000000000000000000000000000000000000000000000000000000000000000000000000000000000000000000000000000000000000000000000000000000000000000050000000000000000000000000000000000000000000000025000000
070104122000100002001339039000000000033710000000000000000000000000000000000000000000000000000000000000000000000000000000000000000000000000000187832000000000000000000000000000000000000000000000000000000000003371000000000000000000000000000000000000000000000015000000
070104122000100002001339040000000000001400000000000000000000000000000000000000000000000000000000000000000000000000000000000000000000000000000000000000000000000000000000000000000000000000000000000000000000000140000000000000000000000000000000000000000000000015000000
070104122000100002001339046000000000220000000000000000000000000000000000000000000000000000000000000000000000000000000000000000000000000000000178393200000017839320000000000000000000000000000000000000000000022000000000000000000000000000000000000000000000000025000000
070104122000100002001319113000000000280000000000000000000000000000000000000000000000000000000000000000000000000000000000000000000000000000000162870900000016287090000000000000000000000000000000000000000000028000000000000000000000000000000000000000000000000025000000
070104122000100002001339093000000000000500000000000000000000000000000000000000000000000000000000000000000000000000000000000000000000000000000000000000000000000000000000000000000000000000000000000000000000000050000000000000000000000000000000000000000000000015000000
090104122000100002010449040000000000000500000000000000000000000000000000000000000000000000000000000000000000000000000000000000000000000000000000000000000000000000000000000000000000000000000000000000000000000050000000000000000000000000000000000000000000000025000000
090104122000100002010449052000000000001290000000000000000000000010000000000000000000000000000000000000000000000000000000000000000000000000000021990000000000000000000000000000000000000000000000000000000000000229000000000000000000000000000000000000000000000015000000
090104122000100002010319004000000000011000000000000000000000000000000000000000000000000000000000000000000000000000000000000000000000000000000000000000000000000000000000000000000000000000000000000000000000001100000000000000000000000000000000000000000000000015000000
090104122000100002010319007000000000001000000000000000000000000000000000000000000000000000000000000000000000000000000000000000000000000000000000000000000000000000000000000000000000000000000000000000000000000100000000000000000000000000000000000000000000000015000000
090104122000100002010319011000000000368000000000000000000000000000000000000000000000000000000000000000000000000000000000000000000000000000000309372300000030937230000003093723000000000000000000000000000000036800000000000000000000000000000000000000000000000025000000
090104122000100002010319013000000000008000000000000000000000000000000000000000000000000000000000000000000000000000000000000000000000000000000006523600000000652360000000000000000000000000000000000000000000000800000000000000000000000000000000000000000000000025000000
090104122000100002010319016000000000006000000000000000000000000000000000000000000000000000000000000000000000000000000000000000000000000000000005056900000000505690000000050569000000000000000000000000000000000600000000000000000000000000000000000000000000000015000000
090104122000100002010339008000000000017960000000000000000000000000000000000000000000000000000000000000000000000000000000000000000000000000000000000000000000000000000000000000000000000000000000000000000000001796000000000000000000000000000000000000000000000015000000
090104122000100002010339014000000000004717820000000000000000000000000000000000000000000000000000000000007000000000000000000000000000000000000008816200000000881620000000088162000000000000000000000000000000000541782000000000000000000000000000000000000000000015000000
090104122000100002010339030000000000004005900000000000000000000000000000000000000000000000000000000000000000000000000000000000000000000000000008229800000000056940000000000000000000000000000000000000000000000400590000000000000000000000000000000000000000000015000000
090104122000100002010339036000000000000500000000000000000000000000000000000000000000000000000000000000000000000000000000000000000000000000000000000000000000000000000000000000000000000000000000000000000000000050000000000000000000000000000000000000000000000025000000
090104122000100002010339039000000000013000000000000000000000000240000000000000000000000000000000000000000000000000000000000000000000000000000369505000000000000000000000000000000000000000000000000000000000003700000000000000000000000000000000000000000000000015000000
090104122000100002010339040000000000006200000000000000000000000000000000000000000000000000000000000000000000000000000000000000000000000000000000000000000000000000000000000000000000000000000000000000000000000620000000000000000000000000000000000000000000000015000000
090104122000100002010339046000000000087000000000000000000000000000000000000000000000000000000000000000000000000000000000000000000000000000000050359200000005035920000000000000000000000000000000000000000000008700000000000000000000000000000000000000000000000025000000
090104122000100002010319094000000000003000000000000000000000000000000000000000000000000000000000000000000000000000000000000000000000000000000000000000000000000000000000000000000000000000000000000000000000000300000000000000000000000000000000000000000000000015000000
090104122000100002010319113000000000126000000000000000000000000000000000000000000000000000000000000000000000000000000000000000000000000000000073240100000007324010000000000000000000000000000000000000000000012600000000000000000000000000000000000000000000000025000000
090104122000100002010339093000000000002500000000000000000000000000000000000000000000000000000000000000000000000000000000000000000000000000000011092000000001109200000000000000000000000000000000000000000000000250000000000000000000000000000000000000000000000015000000
050104122000100002022449040000000000001100000000000000000000000000000000000000000000000000000000000000000000000000000000000000000000000000000000000000000000000000000000000000000000000000000000000000000000000110000000000000000000000000000000000000000000000015000000
050104122000100002022449052000000000003944040000000000000000000000000000000000000000000000000000000000000000000000000000000000000000000000000000000000000000000000000000000000000000000000000000000000000000000394404000000000000000000000000000000000000000000025000000
050104122000100002022319007000000000001000000000000000000000000000000000000000000000000000000000000000000000000000000000000000000000000000000000000000000000000000000000000000000000000000000000000000000000000100000000000000000000000000000000000000000000000015000000
050104122000100002022319011000000000510000000000000000000000000000000000000000000000000000000000000000000000000000000000000000000000000000000329182800000032918280000003291828000000000000000000000000000000051000000000000000000000000000000000000000000000000025000000
050104122000100002022319013000000000018000000000000000000000000000000000000000000000000000000000000000000000000000000000000000000000000000000000000000000000000000000000000000000000000000000000000000000000001800000000000000000000000000000000000000000000000025000000
050104122000100002022319016000000000004600000000000000000000000000000000000000000000000000000000000000000000000000000000000000000000000000000000150800000000015080000000001508000000000000000000000000000000000460000000000000000000000000000000000000000000000015000000
050104122000100002022339008000000000002000000000000000000000000000000000000000000000000000000000000000000000000000000000000000000000000000000000000000000000000000000000000000000000000000000000000000000000000200000000000000000000000000000000000000000000000015000000
050104122000100002022339014000000000005400000000000000000000000000000000000000000000000000000000000000000000000000000000000000000000000000000000000000000000000000000000000000000000000000000000000000000000000540000000000000000000000000000000000000000000000025000000
050104122000100002022339030000000000000500000000000000000000000000000000000000000000000000000000000000000000000000000000000000000000000000000005000000000000000000000000000000000000000000000000000000000000000050000000000000000000000000000000000000000000000025000000
050104122000100002022339035000000000002200000000000000000000000250000000000000000000000000000000000000000000000000000000000000000000000000000259730000000000000000000000000000000000000000000000000000000000002720000000000000000000000000000000000000000000000025000000
050104122000100002022339036000000000000500000000000000000000000000000000000000000000000000000000000000000000000000000000000000000000000000000000000000000000000000000000000000000000000000000000000000000000000050000000000000000000000000000000000000000000000025000000
050104122000100002022339039000000000019295000000000000000000000000000000000000000000000000000000000000150000000000000000000000000000000000000005250000000000000000000000000000000000000000000000000000000000003429500000000000000000000000000000000000000000000015000000
050104122000100002022339040000000000050410000000000000000000000000000000000000000000000000000000000000500000000000000000000000000000000000000000000000000000000000000000000000000000000000000000000000000000010041000000000000000000000000000000000000000000000015000000
050104122000100002022339046000000000081000000000000000000000000000000000000000000000000000000000000000000000000000000000000000000000000000000075113200000007511320000000000000000000000000000000000000000000008100000000000000000000000000000000000000000000000025000000
050104122000100002022319113000000000120000000000000000000000000000000000000000000000000000000000000000000000000000000000000000000000000000000094137400000009413740000000000000000000000000000000000000000000012000000000000000000000000000000000000000000000000025000000
050104122000100002022339093000000000001150000000000000000000000000000000000000000000000000000000000000000000000000000000000000000000000000000000000000000000000000000000000000000000000000000000000000000000000115000000000000000000000000000000000000000000000015000000
100104122000100002050449040000000000002200000000000000000000000000000000000000000000000000000000000000000000000000000000000000000000000000000000000000000000000000000000000000000000000000000000000000000000000220000000000000000000000000000000000000000000000015000000
100104122000100002050449052000000000007921670000000000000000000000000000000000000000000000000000000000000000000000000000000000000000000000000000000000000000000000000000000000000000000000000000000000000000000792167000000000000000000000000000000000000000000025000000
100104122000100002050319004000000000035000000000000000000000000000000000000000000000000000000000000000000000000000000000000000000000000000000000000000000000000000000000000000000000000000000000000000000000003500000000000000000000000000000000000000000000000015000000
100104122000100002050319007000000000000500000000000000000000000000000000000000000000000000000000000000000000000000000000000000000000000000000000000000000000000000000000000000000000000000000000000000000000000050000000000000000000000000000000000000000000000015000000
100104122000100002050319011000000000703000000000000000000000000000000000000000000000000000000000000000000000000000000000000000000000000000000647275100000064727510000006472751000000000000000000000000000000070300000000000000000000000000000000000000000000000025000000
100104122000100002050319013000000000010000000000000000000000000000000000000000000000000000000000000000000000000000000000000000000000000000000000000000000000000000000000000000000000000000000000000000000000001000000000000000000000000000000000000000000000000025000000
100104122000100002050319016000000000020000000000000000000000000000000000000000000000000000000000000000000000000000000000000000000000000000000032138600000003213860000000321386000000000000000000000000000000002000000000000000000000000000000000000000000000000015000000
100104122000100002050339008000000000020000000000000000000000000000000000000000000000000000000000000000000000000000000000000000000000000000000000000000000000000000000000000000000000000000000000000000000000002000000000000000000000000000000000000000000000000015000000
100104122000100002050339014000000000006100000000000000000000000000000000000000000000000000000000000000000000000000000000000000000000000000000000000000000000000000000000000000000000000000000000000000000000000610000000000000000000000000000000000000000000000015000000
100104122000100002050339030000000000046496660000000000000000000000000000000000000000000000000000000000020000000000000000000000000000000000000072507000000000989550000000000000000000000000000000000000000000004849666000000000000000000000000000000000000000000015000000
100104122000100002050339036000000000000500000000000000000000000000000000000000000000000000000000000000000000000000000000000000000000000000000001646500000000000000000000000000000000000000000000000000000000000050000000000000000000000000000000000000000000000025000000
100104122000100002050339039000000000024204000000000000000000000000000000000000000000000000000000000000000000000000000000000000000000000000000080333400000000000000000000000000000000000000000000000000000000002420400000000000000000000000000000000000000000000015000000
100104122000100002050339040000000000009650000000000000000000000000000000000000000000000000000000000000000000000000000000000000000000000000000000000000000000000000000000000000000000000000000000000000000000000965000000000000000000000000000000000000000000000015000000
100104122000100002050339046000000000105000000000000000000000000000000000000000000000000000000000000000000000000000000000000000000000000000000088770000000008877000000000000000000000000000000000000000000000010500000000000000000000000000000000000000000000000025000000
100104122000100002050319094000000000001000000000000000000000000000000000000000000000000000000000000000000000000000000000000000000000000000000000000000000000000000000000000000000000000000000000000000000000000100000000000000000000000000000000000000000000000015000000
100104122000100002050319113000000000220000000000000000000000000000000000000000000000000000000000000000000000000000000000000000000000000000000145497300000014549730000000000000000000000000000000000000000000022000000000000000000000000000000000000000000000000025000000
100104122000100002050339093000000000003700000000000000000000000000000000000000000000000000000000000000000000000000000000000000000000000000000007460000000000000000000000000000000000000000000000000000000000000370000000000000000000000000000000000000000000000015000000
030104122000100002067449052000000000003100000000000000000000000000000000000000000000000000000000000000000000000000000000000000000000000000000000000000000000000000000000000000000000000000000000000000000000000310000000000000000000000000000000000000000000000025000000
030104122000100002067319007000000000000500000000000000000000000000000000000000000000000000000000000000000000000000000000000000000000000000000000000000000000000000000000000000000000000000000000000000000000000050000000000000000000000000000000000000000000000015000000
030104122000100002067319011000000000097000000000000000000000000000000000000000000000000000000000000000000000000000000000000000000000000000000076364400000007636440000000763644000000000000000000000000000000009700000000000000000000000000000000000000000000000025000000
030104122000100002067319016000000000000500000000000000000000000000000000000000000000000000000000000000000000000000000000000000000000000000000000000000000000000000000000000000000000000000000000000000000000000050000000000000000000000000000000000000000000000015000000
030104122000100002067339008000000000001000000000000000000000000000000000000000000000000000000000000000000000000000000000000000000000000000000000000000000000000000000000000000000000000000000000000000000000000100000000000000000000000000000000000000000000000015000000
030104122000100002067339030000000000019535000000000000000000000000000000000000000000000000000000000000000000000000000000000000000000000000000036616000000000000000000000000000000000000000000000000000000000001953500000000000000000000000000000000000000000000015000000
030104122000100002067339036000000000000500000000000000000000000000000000000000000000000000000000000000000000000000000000000000000000000000000000000000000000000000000000000000000000000000000000000000000000000050000000000000000000000000000000000000000000000025000000
030104122000100002067339039000000000006500000000000000000000000000000000000000000000000000000000000000000000000000000000000000000000000000000000000000000000000000000000000000000000000000000000000000000000000650000000000000000000000000000000000000000000000015010000
030104122000100002067339039000000000043200000000000000000000000500000000000000000000000000000000000000000000000000000000000000000000000000000880800000000000000000000000000000000000000000000000000000000000009320000000000000000000000000000000000000000000000015000000
030104122000100002067339046000000000026000000000000000000000000000000000000000000000000000000000000000000000000000000000000000000000000000000016217200000001621720000000000000000000000000000000000000000000002600000000000000000000000000000000000000000000000025000000
030104122000100002067319113000000000032000000000000000000000000000000000000000000000000000000000000000000000000000000000000000000000000000000018954300000001895430000000000000000000000000000000000000000000003200000000000000000000000000000000000000000000000025000000
030104122000100002068449040000000000001000000000000000000000000000000000000000000000000000000000000000000000000000000000000000000000000000000000000000000000000000000000000000000000000000000000000000000000000100000000000000000000000000000000000000000000000015000000
030104122000100002068449052000000000001000000000000000000000000000000000000000000000000000000000000000000000000000000000000000000000000000000000000000000000000000000000000000000000000000000000000000000000000100000000000000000000000000000000000000000000000015000000
030104122000100002068319007000000000001000000000000000000000000000000000000000000000000000000000000000000000000000000000000000000000000000000000000000000000000000000000000000000000000000000000000000000000000100000000000000000000000000000000000000000000000015000000
030104122000100002068319011000000000496000000000000000000000000000000000000000000000000000000000000000000000000000000000000000000000000000000392608500000039260850000003926085000000000000000000000000000000049600000000000000000000000000000000000000000000000025000000
030104122000100002068319013000000000013000000000000000000000000000000000000000000000000000000000000000000000000000000000000000000000000000000006523600000000652360000000000000000000000000000000000000000000001300000000000000000000000000000000000000000000000025000000
030104122000100002068319016000000000004600000000000000000000000000000000000000000000000000000000000000000000000000000000000000000000000000000000000000000000000000000000000000000000000000000000000000000000000460000000000000000000000000000000000000000000000015000000
030104122000100002068339008000000000001000000000000000000000000000000000000000000000000000000000000000000000000000000000000000000000000000000000650000000000065000000000006500000000000000000000000000000000000100000000000000000000000000000000000000000000000015000000
030104122000100002068339014000000000004300000000000000000000000000000000000000000000000000000000000000000000000000000000000000000000000000000000000000000000000000000000000000000000000000000000000000000000000430000000000000000000000000000000000000000000000015000000
030104122000100002068339030000000000007300000000000000000000000000000000000000000000000000000000000000000000000000000000000000000000000000000030901000000000000000000000000000000000000000000000000000000000000730000000000000000000000000000000000000000000000015000000
030104122000100002068339036000000000014500000000000000000000000000000000000000000000000000000000000000000000000000000000000000000000000000000040000000000000304770000000000000000000000000000000000000000000001450000000000000000000000000000000000000000000000015000000
030104122000100002068339039000000000026000000000000000000000000000000000000000000000000000000000000000000000000000000000000000000000000000000000000000000000000000000000000000000000000000000000000000000000002600000000000000000000000000000000000000000000000015010000
030104122000100002068339039000000000165942770000000000000000000000000000000000000000000000000000000000000000000000000000000000000000000000000365800000000000000000000000000000000000000000000000000000000000016594277000000000000000000000000000000000000000000025000000
030104122000100002068339040000000000053640000000000000000000000000000000000000000000000000000000000000370000000000000000000000000000000000000018000000000000000000000000000000000000000000000000000000000000009064000000000000000000000000000000000000000000000015000000
030104122000100002068339046000000000062000000000000000000000000000000000000000000000000000000000000000000000000000000000000000000000000000000054627200000005462720000000000000000000000000000000000000000000006200000000000000000000000000000000000000000000000025000000
030104122000100002068319113000000000075000000000000000000000000000000000000000000000000000000000000000000000000000000000000000000000000000000069126800000006912680000000000000000000000000000000000000000000007500000000000000000000000000000000000000000000000025000000
030104122000100002068339093000000000000770000000000000000000000000000000000000000000000000000000000000000000000000000000000000000000000000000000000000000000000000000000000000000000000000000000000000000000000077000000000000000000000000000000000000000000000015000000
030104131000100002069449040000000000000500000000000000000000000000000000000000000000000000000000000000000000000000000000000000000000000000000000000000000000000000000000000000000000000000000000000000000000000050000000000000000000000000000000000000000000000025000000
030104131000100002069449052000000000010600000000000000000000000000000000000000000000000000000000000000000000000000000000000000000000000000000001700000000000000000000000000000000000000000000000000000000000001060000000000000000000000000000000000000000000000015000000
030104131000100002069319007000000000001000000000000000000000000000000000000000000000000000000000000000000000000000000000000000000000000000000000000000000000000000000000000000000000000000000000000000000000000100000000000000000000000000000000000000000000000015000000
030104131000100002069319011000000000128000000000000000000000000000000000000000000000000000000000000000000000000000000000000000000000000000000112425000000011242500000001124250000000000000000000000000000000012800000000000000000000000000000000000000000000000025000000
030104131000100002069319016000000000002000000000000000000000000000000000000000000000000000000000000000000000000000000000000000000000000000000000000000000000000000000000000000000000000000000000000000000000000200000000000000000000000000000000000000000000000015000000
030104131000100002069339008000000000001000000000000000000000000000000000000000000000000000000000000000000000000000000000000000000000000000000000000000000000000000000000000000000000000000000000000000000000000100000000000000000000000000000000000000000000000015000000
030104131000100002069339014000000000000500000000000000000000000000000000000000000000000000000000000000000000000000000000000000000000000000000000000000000000000000000000000000000000000000000000000000000000000050000000000000000000000000000000000000000000000025000000
030104131000100002069339030000000000000500000000000000000000000000000000000000000000000000000000000000000000000000000000000000000000000000000000000000000000000000000000000000000000000000000000000000000000000050000000000000000000000000000000000000000000000025000000
030104131000100002069339035000000000027100000000000000000000000000000000000000000000000000000000000000000000000000000000000000000000000000000191974000000000000000000000000000000000000000000000000000000000002710000000000000000000000000000000000000000000000015000000
030104131000100002069339036000000000000500000000000000000000000000000000000000000000000000000000000000000000000000000000000000000000000000000000000000000000000000000000000000000000000000000000000000000000000050000000000000000000000000000000000000000000000025000000
030104131000100002069339039000000000000500000000000000000000000000000000000000000000000000000000000000000000000000000000000000000000000000000000000000000000000000000000000000000000000000000000000000000000000050000000000000000000000000000000000000000000000015000000
030104131000100002069339040000000000215400000000000000000000001533837900000000000000000000000000000000000000000000000000000000000000000000002494345000000000658000000000000000000000000000000000000000000000036878379000000000000000000000000000000000000000000015000000
030104131000100002069339046000000000017000000000000000000000000000000000000000000000000000000000000000000000000000000000000000000000000000000014083600000001408360000000000000000000000000000000000000000000001700000000000000000000000000000000000000000000000025000000
030104131000100002069319113000000000050000000000000000000000000000000000000000000000000000000000000000000000000000000000000000000000000000000023506700000002350670000000000000000000000000000000000000000000005000000000000000000000000000000000000000000000000025000000
030104131000100002069339093000000000000500000000000000000000000000000000000000000000000000000000000000000000000000000000000000000000000000000000000000000000000000000000000000000000000000000000000000000000000050000000000000000000000000000000000000000000000025000000
030104131000100002070339030000000000000500000000000000000000000000000000000000000000000000000000000000000000000000000000000000000000000000000000000000000000000000000000000000000000000000000000000000000000000050000000000000000000000000000000000000000000000025000000
030104131000100002070339036000000000000500000000000000000000000000000000000000000000000000000000000000000000000000000000000000000000000000000000000000000000000000000000000000000000000000000000000000000000000050000000000000000000000000000000000000000000000025000000
030104131000100002070339039000000000037080000000000000000000000000000000000000000000000000000000000000000000000000000000000000000000000000000240000000000001976980000000000000000000000000000000000000000000003708000000000000000000000000000000000000000000000015000000
030104131000100002070339040000000000010300000000000000000000000000000000000000000000000000000000000000050000000000000000000000000000000000000000000000000000000000000000000000000000000000000000000000000000001530000000000000000000000000000000000000000000000015000000
030104131000100002071339030000000000000500000000000000000000000000000000000000000000000000000000000000000000000000000000000000000000000000000000000000000000000000000000000000000000000000000000000000000000000050000000000000000000000000000000000000000000000015000000
030104131000100002071339039000000000016300000000000000000000000000000000000000000000000000000000000000000000000000000000000000000000000000000000000000000000000000000000000000000000000000000000000000000000001630000000000000000000000000000000000000000000000015000000
060104122000100002072449040000000000000500000000000000000000000000000000000000000000000000000000000000000000000000000000000000000000000000000000000000000000000000000000000000000000000000000000000000000000000050000000000000000000000000000000000000000000000015000000
060104122000100002072449052000000000006400000000000000000000000000000000000000000000000000000000000000000000000000000000000000000000000000000003850000000000385000000000000000000000000000000000000000000000000640000000000000000000000000000000000000000000000015000000
060104122000100002072319007000000000000500000000000000000000000000000000000000000000000000000000000000000000000000000000000000000000000000000000000000000000000000000000000000000000000000000000000000000000000050000000000000000000000000000000000000000000000015000000
060104122000100002072319011000000000671000000000000000000000000000000000000000000000000000000000000000000000000000000000000000000000000000000427593900000042759390000004275939000000000000000000000000000000067100000000000000000000000000000000000000000000000025000000
060104122000100002072319013000000000012000000000000000000000000000000000000000000000000000000000000000000000000000000000000000000000000000000000000000000000000000000000000000000000000000000000000000000000001200000000000000000000000000000000000000000000000025000000
060104122000100002072319016000000000070000000000000000000000000000000000000000000000000000000000000000000000000000000000000000000000000000000024713400000002471340000000247134000000000000000000000000000000007000000000000000000000000000000000000000000000000015000000
060104122000100002072339008000000000001000000000000000000000000000000000000000000000000000000000000000000000000000000000000000000000000000000000650000000000065000000000006500000000000000000000000000000000000100000000000000000000000000000000000000000000000015000000
060104122000100002072339014000000000000500000000000000000000000000000000000000000000000000000000000000000000000000000000000000000000000000000000000000000000000000000000000000000000000000000000000000000000000050000000000000000000000000000000000000000000000025000000
060104122000100002072339030000000000007850000000000000000000000000000000000000000000000000000000000000000000000000000000000000000000000000000007335500000000125000000000012500000000000000000000000000000000000785000000000000000000000000000000000000000000000015000000
060104122000100002072339036000000000000500000000000000000000000000000000000000000000000000000000000000000000000000000000000000000000000000000000000000000000000000000000000000000000000000000000000000000000000050000000000000000000000000000000000000000000000015000000
060104122000100002072339039000000000034010000000000000000000000000000000000000000000000000000000000000000000000000000000000000000000000000000285000000000000000000000000000000000000000000000000000000000000003401000000000000000000000000000000000000000000000015000000
060104122000100002072339040000000000003500000000000000000000000000000000000000000000000000000000000000000000000000000000000000000000000000000000000000000000000000000000000000000000000000000000000000000000000350000000000000000000000000000000000000000000000015000000
060104122000100002072339046000000000135000000000000000000000000000000000000000000000000000000000000000000000000000000000000000000000000000000097305200000009730520000000000000000000000000000000000000000000013500000000000000000000000000000000000000000000000025000000
060104122000100002072319113000000000185000000000000000000000000000000000000000000000000000000000000000000000000000000000000000000000000000000114161500000011416150000000000000000000000000000000000000000000018500000000000000000000000000000000000000000000000025000000
060104122000100002072339093000000000000500000000000000000000000000000000000000000000000000000000000000000000000000000000000000000000000000000000000000000000000000000000000000000000000000000000000000000000000050000000000000000000000000000000000000000000000015000000
040104123000100002075449040000000000000500000000000000000000000000000000000000000000000000000000000000000000000000000000000000000000000000000000000000000000000000000000000000000000000000000000000000000000000050000000000000000000000000000000000000000000000015000000
040104123000100002075449052000000000015395000000000000000000000000000000000000000000000000000000000000000000000000000000000000000000000000000000000000000000000000000000000000000000000000000000000000000000001539500000000000000000000000000000000000000000000015000000
040104123000100002075319007000000000001000000000000000000000000000000000000000000000000000000000000000000000000000000000000000000000000000000000000000000000000000000000000000000000000000000000000000000000000100000000000000000000000000000000000000000000000015000000
040104123000100002075319011000000000695000000000000000000000000000000000000000000000000000000000000000000000000000000000000000000000000000000567302800000056730280000005673028000000000000000000000000000000069500000000000000000000000000000000000000000000000025000000
040104123000100002075319013000000000008000000000000000000000000000000000000000000000000000000000000000000000000000000000000000000000000000000006523600000000652360000000000000000000000000000000000000000000000800000000000000000000000000000000000000000000000025000000
040104123000100002075319016000000000011000000000000000000000000000000000000000000000000000000000000000000000000000000000000000000000000000000032746500000003274650000000327465000000000000000000000000000000001100000000000000000000000000000000000000000000000015000000
040104123000100002075339008000000000001000000000000000000000000000000000000000000000000000000000000000000000000000000000000000000000000000000000000000000000000000000000000000000000000000000000000000000000000100000000000000000000000000000000000000000000000015000000
040104123000100002075339014000000000006600000000000000000000000000000000000000000000000000000000000000000000000000000000000000000000000000000000000000000000000000000000000000000000000000000000000000000000000660000000000000000000000000000000000000000000000015000000
040104123000100002075339030000000000003535000000000000000000000000000000000000000000000000000000000000000000000000000000000000000000000000000000000000000000000000000000000000000000000000000000000000000000000353500000000000000000000000000000000000000000000015000000
040104123000100002075339035000000000000500000000000000000000000000000000000000000000000000000000000000000000000000000000000000000000000000000000000000000000000000000000000000000000000000000000000000000000000050000000000000000000000000000000000000000000000025000000
040104123000100002075339036000000000000500000000000000000000000000000000000000000000000000000000000000000000000000000000000000000000000000000000000000000000000000000000000000000000000000000000000000000000000050000000000000000000000000000000000000000000000025000000
040104123000100002075339039000000000000500000000000000000000000000000000000000000000000000000000000000000000000000000000000000000000000000000000000000000000000000000000000000000000000000000000000000000000000050000000000000000000000000000000000000000000000025010000
040104123000100002075339039000000000033350000000000000000000000000000000000000000000000000000000000000000000000000000000000000000000000000000007340000000000000000000000000000000000000000000000000000000000003335000000000000000000000000000000000000000000000015000000
040104123000100002075339040000000000005500000000000000000000000000000000000000000000000000000000000000020000000000000000000000000000000000000003610000000000361000000000036100000000000000000000000000000000000750000000000000000000000000000000000000000000000015000000
040104123000100002075339046000000000060000000000000000000000000000000000000000000000000000000000000000000000000000000000000000000000000000000047799200000004779920000000000000000000000000000000000000000000006000000000000000000000000000000000000000000000000025000000
040104123000100002075319113000000000190000000000000000000000000000000000000000000000000000000000000000000000000000000000000000000000000000000113392100000011339210000000000000000000000000000000000000000000019000000000000000000000000000000000000000000000000025000000
040104123000100002075339093000000000000950000000000000000000000000000000000000000000000000000000000000000000000000000000000000000000000000000000000000000000000000000000000000000000000000000000000000000000000095000000000000000000000000000000000000000000000015000000
040104129000100002076339030000000000000500000000000000000000000000000000000000000000000000000000000000000000000000000000000000000000000000000000000000000000000000000000000000000000000000000000000000000000000050000000000000000000000000000000000000000000000025000000
040104129000100002076339031000000000000500000000000000000000000000000000000000000000000000000000000000000000000000000000000000000000000000000000000000000000000000000000000000000000000000000000000000000000000050000000000000000000000000000000000000000000000015000000
040104129000100002076339032000000000000500000000000000000000000000000000000000000000000000000000000000000000000000000000000000000000000000000000000000000000000000000000000000000000000000000000000000000000000050000000000000000000000000000000000000000000000015000000
040104129000100002076339039000000000000500000000000000000000000000000000000000000000000000000000000000000000000000000000000000000000000000000000000000000000000000000000000000000000000000000000000000000000000050000000000000000000000000000000000000000000000025000000
040104129000100002077449040000000000000500000000000000000000000000000000000000000000000000000000000000000000000000000000000000000000000000000000000000000000000000000000000000000000000000000000000000000000000050000000000000000000000000000000000000000000000025000000
040104129000100002077449052000000000006200000000000000000000000000000000000000000000000000000000000000000000000000000000000000000000000000000000000000000000000000000000000000000000000000000000000000000000000620000000000000000000000000000000000000000000000015000000
040104129000100002077319007000000000000500000000000000000000000000000000000000000000000000000000000000000000000000000000000000000000000000000000000000000000000000000000000000000000000000000000000000000000000050000000000000000000000000000000000000000000000015000000
040104129000100002077319011000000000030000000000000000000000000000000000000000000000000000000000000000000000000000000000000000000000000000000028000000000002800000000000280000000000000000000000000000000000003000000000000000000000000000000000000000000000000027010000
040104129000100002077319011000000000360000000000000000000000000000000000000000000000000000000000000000000000000000000000000000000000000000000203690100000020369010000002036901000000000000000000000000000000036000000000000000000000000000000000000000000000000025000000
040104129000100002077319013000000000001100000000000000000000000000000000000000000000000000000000000000000000000000000000000000000000000000000000000000000000000000000000000000000000000000000000000000000000000110000000000000000000000000000000000000000000000025000000
040104129000100002077319016000000000010000000000000000000000000000000000000000000000000000000000000000000000000000000000000000000000000000000000000000000000000000000000000000000000000000000000000000000000001000000000000000000000000000000000000000000000000015000000
040104129000100002077339008000000000001000000000000000000000000000000000000000000000000000000000000000000000000000000000000000000000000000000000000000000000000000000000000000000000000000000000000000000000000100000000000000000000000000000000000000000000000015000000
040104129000100002077339014000000000003865000000000000000000000000000000000000000000000000000000000000000000000000000000000000000000000000000000000000000000000000000000000000000000000000000000000000000000000386500000000000000000000000000000000000000000000015000000
040104129000100002077339030000000000002000000000000000000000000000000000000000000000000000000000000000000000000000000000000000000000000000000000000000000000000000000000000000000000000000000000000000000000000200000000000000000000000000000000000000000000000017010000
040104129000100002077339030000000000008800000000000000000000000000000000000000000000000000000000000000000000000000000000000000000000000000000003555900000000000000000000000000000000000000000000000000000000000880000000000000000000000000000000000000000000000015000000
040104129000100002077339035000000000013500000000000000000000000000000000000000000000000000000000000000000000000000000000000000000000000000000019000000000000000000000000000000000000000000000000000000000000001350000000000000000000000000000000000000000000000015000000
040104129000100002077339036000000000000500000000000000000000000000000000000000000000000000000000000000000000000000000000000000000000000000000000000000000000000000000000000000000000000000000000000000000000000050000000000000000000000000000000000000000000000015000000
040104129000100002077339039000000000001000000000000000000000000000000000000000000000000000000000000000000000000000000000000000000000000000000000000000000000000000000000000000000000000000000000000000000000000100000000000000000000000000000000000000000000000017010000
040104129000100002077339039000000000006400000000000000000000000000000000000000000000000000000000000000000000000000000000000000000000000000000000000000000000000000000000000000000000000000000000000000000000000640000000000000000000000000000000000000000000000015000000
040104129000100002077339040000000000002900000000000000000000000000000000000000000000000000000000000000000000000000000000000000000000000000000000000000000000000000000000000000000000000000000000000000000000000290000000000000000000000000000000000000000000000025010000
040104129000100002077339046000000000041000000000000000000000000000000000000000000000000000000000000000000000000000000000000000000000000000000021765600000002176560000000000000000000000000000000000000000000004100000000000000000000000000000000000000000000000025000000
040104129000100002077319113000000000110000000000000000000000000000000000000000000000000000000000000000000000000000000000000000000000000000000045876300000004587630000000000000000000000000000000000000000000011000000000000000000000000000000000000000000000000025000000
040104129000100002077339093000000000000500000000000000000000000000000000000000000000000000000000000000000000000000000000000000000000000000000000000000000000000000000000000000000000000000000000000000000000000050000000000000000000000000000000000000000000000025000000
020104122000100002078449040000000000001100000000000000000000000000000000000000000000000000000000000000000000000000000000000000000000000000000000000000000000000000000000000000000000000000000000000000000000000110000000000000000000000000000000000000000000000015000000
020104122000100002078449052000000000000500000000000000000000000000000000000000000000000000000000000000000000000000000000000000000000000000000000000000000000000000000000000000000000000000000000000000000000000050000000000000000000000000000000000000000000000025000000
020104122000100002078319007000000000000500000000000000000000000000000000000000000000000000000000000000000000000000000000000000000000000000000000000000000000000000000000000000000000000000000000000000000000000050000000000000000000000000000000000000000000000025000000
020104122000100002078319011000000000455000000000000000000000000000000000000000000000000000000000000000000000000000000000000000000000000000000285568500000028556850000002855685000000000000000000000000000000045500000000000000000000000000000000000000000000000025000000
020104122000100002078319013000000000042000000000000000000000000000000000000000000000000000000000000000000000000000000000000000000000000000000052335500000005233550000000000000000000000000000000000000000000004200000000000000000000000000000000000000000000000025000000
020104122000100002078319016000000000001000000000000000000000000000000000000000000000000000000000000000000000000000000000000000000000000000000000000000000000000000000000000000000000000000000000000000000000000100000000000000000000000000000000000000000000000015000000
020104122000100002078339008000000000001000000000000000000000000000000000000000000000000000000000000000000000000000000000000000000000000000000000000000000000000000000000000000000000000000000000000000000000000100000000000000000000000000000000000000000000000015000000
020104122000100002078339014000000000005960000000000000000000000000000000000000000000000000000000000000000000000000000000000000000000000000000033093300000003309330000000330933000000000000000000000000000000000596000000000000000000000000000000000000000000000025000000
020104122000100002078339030000000000000850000000000000000000000000000000000000000000000000000000000000000000000000000000000000000000000000000003700000000000000000000000000000000000000000000000000000000000000085000000000000000000000000000000000000000000000025000000
020104122000100002078339036000000000000500000000000000000000000000000000000000000000000000000000000000000000000000000000000000000000000000000000000000000000000000000000000000000000000000000000000000000000000050000000000000000000000000000000000000000000000025000000
020104122000100002078339039000000000010308000000000000000000000000000000000000000000000000000000000000016000000000000000000000000000000000000027022400000002702240000000270224000000000000000000000000000000001190800000000000000000000000000000000000000000000015000000
020104122000100002078339040000000000000500000000000000000000000010000000000000000000000000000000000000000000000000000000000000000000000000000013850000000001385000000000138500000000000000000000000000000000000150000000000000000000000000000000000000000000000025000000
020104122000100002078339046000000000008500000000000000000000000000000000000000000000000000000000000000000000000000000000000000000000000000000000000000000000000000000000000000000000000000000000000000000000000850000000000000000000000000000000000000000000000025000000
020104122000100002078319113000000000000500000000000000000000000000000000000000000000000000000000000000000000000000000000000000000000000000000000000000000000000000000000000000000000000000000000000000000000000050000000000000000000000000000000000000000000000025000000
020104122000100002078339093000000000000500000000000000000000000006000000000000000000000000000000000000000000000000000000000000000000000000000010404800000001040480000000104048000000000000000000000000000000000110000000000000000000000000000000000000000000000015000000
020104122000100002080335041000000000054300000000000000000000000000000000000000000000000000000000000000000000000000000000000000000000000000000218326800000001819390000000181939000000000000000000000000000000005430000000000000000000000000000000000000000000000015000000
020304122000100002081449040000000000000500000000000000000000000000000000000000000000000000000000000000000000000000000000000000000000000000000000000000000000000000000000000000000000000000000000000000000000000050000000000000000000000000000000000000000000000025000000
020304122000100002081449052000000000000500000000000000000000000000000000000000000000000000000000000000000000000000000000000000000000000000000000000000000000000000000000000000000000000000000000000000000000000050000000000000000000000000000000000000000000000025000000
020304122000100002081319007000000000001000000000000000000000000000000000000000000000000000000000000000000000000000000000000000000000000000000000000000000000000000000000000000000000000000000000000000000000000100000000000000000000000000000000000000000000000015000000
020304122000100002081319011000000000170000000000000000000000000000000000000000000000000000000000000000000000000000000000000000000000000000000117012600000011701260000001170126000000000000000000000000000000017000000000000000000000000000000000000000000000000025000000
020304122000100002081319013000000000016000000000000000000000000000000000000000000000000000000000000000000000000000000000000000000000000000000000000000000000000000000000000000000000000000000000000000000000001600000000000000000000000000000000000000000000000025000000
020304122000100002081339008000000000001000000000000000000000000000000000000000000000000000000000000000000000000000000000000000000000000000000000000000000000000000000000000000000000000000000000000000000000000100000000000000000000000000000000000000000000000015000000
020304122000100002081339014000000000000500000000000000000000000000000000000000000000000000000000000000000000000000000000000000000000000000000000000000000000000000000000000000000000000000000000000000000000000050000000000000000000000000000000000000000000000025000000
020304122000100002081339030000000000000500000000000000000000000000000000000000000000000000000000000000000000000000000000000000000000000000000000000000000000000000000000000000000000000000000000000000000000000050000000000000000000000000000000000000000000000025000000
020304122000100002081339035000000000054900000000000000000000000064014000000000000000000000000000000000000000000000000000000000000000000000000578179500000000000000000000000000000000000000000000000000000000006130140000000000000000000000000000000000000000000015000000
020304122000100002081339036000000000000500000000000000000000000000000000000000000000000000000000000000000000000000000000000000000000000000000000000000000000000000000000000000000000000000000000000000000000000050000000000000000000000000000000000000000000000025000000
020304122000100002081339039000000000000500000000000000000000000000000000000000000000000000000000000000000000000000000000000000000000000000000000000000000000000000000000000000000000000000000000000000000000000050000000000000000000000000000000000000000000000015000000
020304122000100002081339040000000000003850000000000000000000000000000000000000000000000000000000000000030000000000000000000000000000000000000000000000000000000000000000000000000000000000000000000000000000000685000000000000000000000000000000000000000000000015000000
020304122000100002081339046000000000017000000000000000000000000000000000000000000000000000000000000000000000000000000000000000000000000000000000000000000000000000000000000000000000000000000000000000000000001700000000000000000000000000000000000000000000000025000000
020304122000100002081339093000000000000500000000000000000000000000000000000000000000000000000000000000000000000000000000000000000000000000000000000000000000000000000000000000000000000000000000000000000000000050000000000000000000000000000000000000000000000025000000
020304124000100002082449040000000000001100000000000000000000000000000000000000000000000000000000000000000000000000000000000000000000000000000000000000000000000000000000000000000000000000000000000000000000000110000000000000000000000000000000000000000000000015000000
020304124000100002082449052000000000006900000000000000000000000000000000000000000000000000000000000000016800000000000000000000000000000000000000000000000000000000000000000000000000000000000000000000000000000858000000000000000000000000000000000000000000000015000000
020304124000100002082319007000000000001000000000000000000000000000000000000000000000000000000000000000000000000000000000000000000000000000000000000000000000000000000000000000000000000000000000000000000000000100000000000000000000000000000000000000000000000015000000
020304124000100002082319011000000000232000000000000000000000000000000000000000000000000000000000000000000000000000000000000000000000000000000146834600000014683460000001468346000000000000000000000000000000023200000000000000000000000000000000000000000000000025000000
020304124000100002082319016000000000001000000000000000000000000000000000000000000000000000000000000000000000000000000000000000000000000000000000000000000000000000000000000000000000000000000000000000000000000100000000000000000000000000000000000000000000000015000000
020304124000100002082339008000000000001000000000000000000000000000000000000000000000000000000000000000000000000000000000000000000000000000000000000000000000000000000000000000000000000000000000000000000000000100000000000000000000000000000000000000000000000015000000
020304124000100002082339014000000000008000000000000000000000000000000000000000000000000000000000000000000000000000000000000000000000000000000018281600000001828160000000182816000000000000000000000000000000000800000000000000000000000000000000000000000000000015000000
020304124000100002082339030000000000005000000000000000000000000000000000000000000000000000000000000000000000000000000000000000000000000000000000000000000000000000000000000000000000000000000000000000000000000500000000000000000000000000000000000000000000000025000000
020304124000100002082339036000000000000500000000000000000000000000000000000000000000000000000000000000000000000000000000000000000000000000000000000000000000000000000000000000000000000000000000000000000000000050000000000000000000000000000000000000000000000015000000
020304124000100002082339039000000000000500000000000000000000000016800000000000000000000000000000000000000000000000000000000000000000000000000021800000000000000000000000000000000000000000000000000000000000000218000000000000000000000000000000000000000000000025000000
020304124000100002082339040000000000003400000000000000000000000000000000000000000000000000000000000000030000000000000000000000000000000000000000000000000000000000000000000000000000000000000000000000000000000640000000000000000000000000000000000000000000000015000000
020304124000100002082339046000000000009000000000000000000000000000000000000000000000000000000000000000000000000000000000000000000000000000000006401600000000640160000000000000000000000000000000000000000000000900000000000000000000000000000000000000000000000025000000
020304124000100002082319113000000000051000000000000000000000000000000000000000000000000000000000000000000000000000000000000000000000000000000031085500000003108550000000000000000000000000000000000000000000005100000000000000000000000000000000000000000000000025000000
020304124000100002082339093000000000002500000000000000000000000000000000000000000000000000000000000000000000000000000000000000000000000000000010950400000001095040000000000000000000000000000000000000000000000250000000000000000000000000000000000000000000000015000000
020104243000100002108339014000000000000500000000000000000000000000000000000000000000000000000000000000000000000000000000000000000000000000000000000000000000000000000000000000000000000000000000000000000000000050000000000000000000000000000000000000000000000025000000
020104243000100002108339030000000000000500000000000000000000000000000000000000000000000000000000000000000000000000000000000000000000000000000000000000000000000000000000000000000000000000000000000000000000000050000000000000000000000000000000000000000000000025000000
020104243000100002108339036000000000000500000000000000000000000000000000000000000000000000000000000000000000000000000000000000000000000000000000000000000000000000000000000000000000000000000000000000000000000050000000000000000000000000000000000000000000000025000000
020104243000100002108339039000000000000500000000000000000000000000000000000000000000000000000000000000000000000000000000000000000000000000000000000000000000000000000000000000000000000000000000000000000000000050000000000000000000000000000000000000000000000025000000
020104243000100002108339093000000000000500000000000000000000000000000000000000000000000000000000000000000000000000000000000000000000000000000000000000000000000000000000000000000000000000000000000000000000000050000000000000000000000000000000000000000000000025000000
040104122000100002130449040000000000000500000000000000000000000000000000000000000000000000000000000000000000000000000000000000000000000000000000000000000000000000000000000000000000000000000000000000000000000050000000000000000000000000000000000000000000000025000000
040104122000100002130449052000000000000500000000000000000000000000000000000000000000000000000000000000000000000000000000000000000000000000000000000000000000000000000000000000000000000000000000000000000000000050000000000000000000000000000000000000000000000025000000
040104122000100002130319007000000000000500000000000000000000000000000000000000000000000000000000000000000000000000000000000000000000000000000000000000000000000000000000000000000000000000000000000000000000000050000000000000000000000000000000000000000000000015000000
040104122000100002130319011000000000225000000000000000000000000000000000000000000000000000000000000000000000000000000000000000000000000000000052153500000005215350000000521535000000000000000000000000000000022500000000000000000000000000000000000000000000000025000000
040104122000100002130319013000000000008000000000000000000000000000000000000000000000000000000000000000000000000000000000000000000000000000000000000000000000000000000000000000000000000000000000000000000000000800000000000000000000000000000000000000000000000025000000
040104122000100002130319016000000000001000000000000000000000000000000000000000000000000000000000000000000000000000000000000000000000000000000000000000000000000000000000000000000000000000000000000000000000000100000000000000000000000000000000000000000000000015000000
040104122000100002130339008000000000000500000000000000000000000000000000000000000000000000000000000000000000000000000000000000000000000000000000000000000000000000000000000000000000000000000000000000000000000050000000000000000000000000000000000000000000000025000000
040104122000100002130339014000000000002450000000000000000000000000000000000000000000000000000000000000000000000000000000000000000000000000000000000000000000000000000000000000000000000000000000000000000000000245000000000000000000000000000000000000000000000015000000
040104122000100002130339030000000000004900000000000000000000000000000000000000000000000000000000000000000000000000000000000000000000000000000001750000000000175000000000000000000000000000000000000000000000000490000000000000000000000000000000000000000000000015000000
040104122000100002130339036000000000000500000000000000000000000000000000000000000000000000000000000000000000000000000000000000000000000000000000000000000000000000000000000000000000000000000000000000000000000050000000000000000000000000000000000000000000000025000000
040104122000100002130339039000000000000500000000000000000000000015840000000000000000000000000000000000000000000000000000000000000000000000000015840000000000000000000000000000000000000000000000000000000000000208400000000000000000000000000000000000000000000025000000
040104122000100002130339040000000000014900000000000000000000000000000000000000000000000000000000000000115840000000000000000000000000000000000000000000000000000000000000000000000000000000000000000000000000002648400000000000000000000000000000000000000000000015000000
040104122000100002130339046000000000026000000000000000000000000000000000000000000000000000000000000000000000000000000000000000000000000000000000000000000000000000000000000000000000000000000000000000000000002600000000000000000000000000000000000000000000000015000000
040104122000100002130319113000000000032000000000000000000000000000000000000000000000000000000000000000000000000000000000000000000000000000000000000000000000000000000000000000000000000000000000000000000000003200000000000000000000000000000000000000000000000025000000
040104122000100002130339093000000000001000000000000000000000000000000000000000000000000000000000000000000000000000000000000000000000000000000000000000000000000000000000000000000000000000000000000000000000000100000000000000000000000000000000000000000000000015000000
130104121000100002132449040000000000002200000000000000000000000000000000000000000000000000000000000000000000000000000000000000000000000000000000000000000000000000000000000000000000000000000000000000000000000220000000000000000000000000000000000000000000000015000000
130104121000100002132449052000000000030380000000000000000000000000000000000000000000000000000000000000303800000000000000000000000000000000000000000000000000000000000000000000000000000000000000000000000000006076000000000000000000000000000000000000000000000015000000
130104121000100002132319007000000000000500000000000000000000000000000000000000000000000000000000000000000000000000000000000000000000000000000000000000000000000000000000000000000000000000000000000000000000000050000000000000000000000000000000000000000000000015000000
130104121000100002132319011000000000353000000000000000000000000000000000000000000000000000000000000000000000000000000000000000000000000000000236985500000023698550000002369855000000000000000000000000000000035300000000000000000000000000000000000000000000000025000000
130104121000100002132319013000000000021000000000000000000000000000000000000000000000000000000000000000000000000000000000000000000000000000000009741900000000974190000000000000000000000000000000000000000000002100000000000000000000000000000000000000000000000025000000
130104121000100002132319016000000000000500000000000000000000000000000000000000000000000000000000000000000000000000000000000000000000000000000000000000000000000000000000000000000000000000000000000000000000000050000000000000000000000000000000000000000000000015000000
130104121000100002132339008000000000000500000000000000000000000000000000000000000000000000000000000000000000000000000000000000000000000000000000000000000000000000000000000000000000000000000000000000000000000050000000000000000000000000000000000000000000000015000000
130104121000100002132339014000000000001450000000000000000000000053800000000000000000000000000000000000000000000000000000000000000000000000000058480400000005848040000000584804000000000000000000000000000000000683000000000000000000000000000000000000000000000015000000
130104121000100002132339030000000000003500000000000000000000000000000000000000000000000000000000000000000000000000000000000000000000000000000000000000000000000000000000000000000000000000000000000000000000000350000000000000000000000000000000000000000000000015000000
130104121000100002132339036000000000000500000000000000000000000000000000000000000000000000000000000000005000000000000000000000000000000000000000000000000000000000000000000000000000000000000000000000000000000100000000000000000000000000000000000000000000000015000000
130104121000100002132339039000000000003000000000000000000000000255000000000000000000000000000000000000000000000000000000000000000000000000000282660000000000000000000000000000000000000000000000000000000000002850000000000000000000000000000000000000000000000015000000
130104121000100002132339040000000000000500000000000000000000000000000000000000000000000000000000000000000000000000000000000000000000000000000000000000000000000000000000000000000000000000000000000000000000000050000000000000000000000000000000000000000000000025000000
130104121000100002132339046000000000042000000000000000000000000000000000000000000000000000000000000000000000000000000000000000000000000000000025180000000002518000000000000000000000000000000000000000000000004200000000000000000000000000000000000000000000000025000000
130104121000100002132319094000000000000500000000000000000000000000000000000000000000000000000000000000000000000000000000000000000000000000000000000000000000000000000000000000000000000000000000000000000000000050000000000000000000000000000000000000000000000015000000
130104121000100002132319113000000000055000000000000000000000000000000000000000000000000000000000000000000000000000000000000000000000000000000052653200000005265320000000000000000000000000000000000000000000005500000000000000000000000000000000000000000000000025000000
130104121000100002132339093000000000001500000000000000000000000000000000000000000000000000000000000000000000000000000000000000000000000000000011280800000001128080000000112808000000000000000000000000000000000150000000000000000000000000000000000000000000000015000000
020105122000200002079449040000000000000500000000000000000000000000000000000000000000000000000000000000000000000000000000000000000000000000000000000000000000000000000000000000000000000000000000000000000000000050000000000000000000000000000000000000000000000025000000
020105122000200002079449052000000000000500000000000000000000000000000000000000000000000000000000000000000000000000000000000000000000000000000000000000000000000000000000000000000000000000000000000000000000000050000000000000000000000000000000000000000000000025000000
020105122000200002079319011000000000020000000000000000000000000000000000000000000000000000000000000000000000000000000000000000000000000000000012877400000001287740000000128774000000000000000000000000000000002000000000000000000000000000000000000000000000000025000000
020105122000200002079339014000000000000500000000000000000000000000000000000000000000000000000000000000000000000000000000000000000000000000000000000000000000000000000000000000000000000000000000000000000000000050000000000000000000000000000000000000000000000025000000
020105122000200002079339030000000000000500000000000000000000000000000000000000000000000000000000000000000000000000000000000000000000000000000000000000000000000000000000000000000000000000000000000000000000000050000000000000000000000000000000000000000000000015000000
020105122000200002079339036000000000000500000000000000000000000000000000000000000000000000000000000000000000000000000000000000000000000000000000000000000000000000000000000000000000000000000000000000000000000050000000000000000000000000000000000000000000000025000000
020105122000200002079339039000000000000500000000000000000000000000000000000000000000000000000000000000000000000000000000000000000000000000000000000000000000000000000000000000000000000000000000000000000000000050000000000000000000000000000000000000000000000025000000
020105122000200002079339040000000000000500000000000000000000000000000000000000000000000000000000000000000000000000000000000000000000000000000000000000000000000000000000000000000000000000000000000000000000000050000000000000000000000000000000000000000000000025000000
020105122000200002079339093000000000000500000000000000000000000000000000000000000000000000000000000000000000000000000000000000000000000000000000000000000000000000000000000000000000000000000000000000000000000050000000000000000000000000000000000000000000000025000000
100506182001400000019335041000000000007000000000000000000000000000000000000000000000000000000000000000000000000000000000000000000000000000000000000000000000000000000000000000000000000000000000000000000000000700000000000000000000000000000000000000000000000025000000
110106181001400000024335041000000000024000000000000000000000000000000000000000000000000000000000000000000000000000000000000000000000000000000000000000000000000000000000000000000000000000000000000000000000002400000000000000000000000000000000000000000000000015000000
100506182001400002060449052000000000017000000000000000000000000000000000000000000000000000000000000000000000000000000000000000000000000000000000000000000000000000000000000000000000000000000000000000000000001700000000000000000000000000000000000000000000000015010000
100506182001400002060339030000000000015100000000000000000000000000000000000000000000000000000000000000000000000000000000000000000000000000000000000000000000000000000000000000000000000000000000000000000000001510000000000000000000000000000000000000000000000015000000
100506182001400002060339032000000000005000000000000000000000000000000000000000000000000000000000000000000000000000000000000000000000000000000000000000000000000000000000000000000000000000000000000000000000000500000000000000000000000000000000000000000000000015000000
100506182001400002060339039000000000016500000000000000000000000000000000000000000000000000000000000000000000000000000000000000000000000000000000000000000000000000000000000000000000000000000000000000000000001650000000000000000000000000000000000000000000000015000000
090208334001100001145339039000000000000000000000000000000000000000000000000000000000000000000000000000000000000000000000000000000000000000000000000000000000000000000000000000000000000000000000000000000000000000000000000000000000000000000000000000000000000026650000
090208334001100001145339039000000000005000000000000000000000000000000000000000000000000000000000000000000000000000000000000000000000000000000000000000000000000000000000000000000000000000000000000000000000000500000000000000000000000000000000000000000000000025000000
090208334001100001146339039000000000002940000000000000000000000000000000000000000000000000000000000000000000000000000000000000000000000000000000000000000000000000000000000000000000000000000000000000000000000294000000000000000000000000000000000000000000000025000000
090208241001100002011449052000000000000500000000000000000000000000000000000000000000000000000000000000005000000000000000000000000000000000000000000000000000000000000000000000000000000000000000000000000000000100000000000000000000000000000000000000000000000025000000
090208241001100002011449052000000000004600000000000000000000000000000000000000000000000000000000000000000000000000000000000000000000000000000000000000000000000000000000000000000000000000000000000000000000000460000000000000000000000000000000000000000000000016600000
090208241001100002011339030000000000004600000000000000000000000000000000000000000000000000000000000000000000000000000000000000000000000000000000000000000000000000000000000000000000000000000000000000000000000460000000000000000000000000000000000000000000000016600000
090208241001100002011339030000000000003950000000000000000000000000000000000000000000000000000000000000000000000000000000000000000000000000000000000000000000000000000000000000000000000000000000000000000000000395000000000000000000000000000000000000000000000015000000
090208241001100002011339030000000000045500000000000000000000000000000000000000000000000000000000000000000000000000000000000000000000000000000000000000000000000000000000000000000000000000000000000000000000004550000000000000000000000000000000000000000000000026600000
090208241001100002011339031000000000000500000000000000000000000000000000000000000000000000000000000000000000000000000000000000000000000000000000000000000000000000000000000000000000000000000000000000000000000050000000000000000000000000000000000000000000000025000000
090208241001100002011339032000000000000500000000000000000000000000000000000000000000000000000000000000000000000000000000000000000000000000000000000000000000000000000000000000000000000000000000000000000000000050000000000000000000000000000000000000000000000025000000
090208241001100002011339036000000000000800000000000000000000000000000000000000000000000000000000000000000000000000000000000000000000000000000000000000000000000000000000000000000000000000000000000000000000000080000000000000000000000000000000000000000000000015000000
090208241001100002011339039000000000100000000000000000000000001000000000000000000000000000000000000000000000000000000000000000000000000000001962675700000004029000000000402900000000000000000000000000000000020000000000000000000000000000000000000000000000000025000000
090208241001100002011339039000000000012000000000000000000000000000000000000000000000000000000000000000000000000000000000000000000000000000000007890000000000000000000000000000000000000000000000000000000000001200000000000000000000000000000000000000000000000016600000
090208244001100002012449052000000000000500000000000000000000000000000000000000000000000000000000000000000000000000000000000000000000000000000000000000000000000000000000000000000000000000000000000000000000000050000000000000000000000000000000000000000000000025000000
090208244001100002012339030000000000000500000000000000000000000000000000000000000000000000000000000000000000000000000000000000000000000000000000000000000000000000000000000000000000000000000000000000000000000050000000000000000000000000000000000000000000000025000000
090208244001100002012339036000000000000500000000000000000000000000000000000000000000000000000000000000000000000000000000000000000000000000000000000000000000000000000000000000000000000000000000000000000000000050000000000000000000000000000000000000000000000025000000
090208244001100002012339039000000000010200000000000000000000000030000000000000000000000000000000000000000000000000000000000000000000000000000130000000000000000000000000000000000000000000000000000000000000001320000000000000000000000000000000000000000000000015000000
090208242001100002013449052000000000000500000000000000000000000000000000000000000000000000000000000000000000000000000000000000000000000000000000000000000000000000000000000000000000000000000000000000000000000050000000000000000000000000000000000000000000000025000000
090208242001100002013339030000000000000500000000000000000000000000000000000000000000000000000000000000000000000000000000000000000000000000000000000000000000000000000000000000000000000000000000000000000000000050000000000000000000000000000000000000000000000025000000
090208242001100002013339032000000000000500000000000000000000000000000000000000000000000000000000000000000000000000000000000000000000000000000000000000000000000000000000000000000000000000000000000000000000000050000000000000000000000000000000000000000000000025000000
090208242001100002013339036000000000000500000000000000000000000000000000000000000000000000000000000000000000000000000000000000000000000000000000000000000000000000000000000000000000000000000000000000000000000050000000000000000000000000000000000000000000000025000000
090208242001100002013339039000000000000500000000000000000000000000000000000000000000000000000000000000000000000000000000000000000000000000000000000000000000000000000000000000000000000000000000000000000000000050000000000000000000000000000000000000000000000025000000
090208243001100002014449052000000000000500000000000000000000000000000000000000000000000000000000000000005000000000000000000000000000000000000000000000000000000000000000000000000000000000000000000000000000000100000000000000000000000000000000000000000000000025000000
090208243001100002014339030000000000002200000000000000000000000000000000000000000000000000000000000000000000000000000000000000000000000000000000000000000000000000000000000000000000000000000000000000000000000220000000000000000000000000000000000000000000000015000000
090208243001100002014339030000000000042800000000000000000000000000000000000000000000000000000000000000000000000000000000000000000000000000000000000000000000000000000000000000000000000000000000000000000000004280000000000000000000000000000000000000000000000016600000
090208243001100002014339032000000000000600000000000000000000000000000000000000000000000000000000000000000000000000000000000000000000000000000000000000000000000000000000000000000000000000000000000000000000000060000000000000000000000000000000000000000000000015000000
090208243001100002014339036000000000000500000000000000000000000000000000000000000000000000000000000000000000000000000000000000000000000000000000000000000000000000000000000000000000000000000000000000000000000050000000000000000000000000000000000000000000000025000000
090208243001100002014339039000000000032050000000000000000000000000000000000000000000000000000000000000190000000000000000000000000000000000000000000000000000000000000000000000000000000000000000000000000000005105000000000000000000000000000000000000000000000015000000
090208244001100002015339032000000000071883000000000000000000000000000000000000000000000000000000000000250000000000000000000000000000000000000066752500000003954900000000120490000000000000000000000000000000009688300000000000000000000000000000000000000000000015000000
090208244001100002015339033000000000000500000000000000000000000000000000000000000000000000000000000000000000000000000000000000000000000000000000000000000000000000000000000000000000000000000000000000000000000050000000000000000000000000000000000000000000000025000000
090208244001100002016449052000000000000500000000000000000000000000000000000000000000000000000000000000000000000000000000000000000000000000000000000000000000000000000000000000000000000000000000000000000000000050000000000000000000000000000000000000000000000025000000
090208244001100002016449052000000000001395000000000000000000000000000000000000000000000000000000000000000000000000000000000000000000000000000000000000000000000000000000000000000000000000000000000000000000000139500000000000000000000000000000000000000000000026600000
090208244001100002016339014000000000005470000000000000000000000000000000000000000000000000000000000000000000000000000000000000000000000000000007312600000000731260000000073126000000000000000000000000000000000547000000000000000000000000000000000000000000000026600000
090208244001100002016339030000000000001000000000000000000000000000000000000000000000000000000000000000000000000000000000000000000000000000000000000000000000000000000000000000000000000000000000000000000000000100000000000000000000000000000000000000000000000016600000
090208244001100002016339030000000000008200000000000000000000000000000000000000000000000000000000000000000000000000000000000000000000000000000026410000000001363000000000136300000000000000000000000000000000000820000000000000000000000000000000000000000000000026600000
090208244001100002016339032000000000000500000000000000000000000000000000000000000000000000000000000000000000000000000000000000000000000000000000000000000000000000000000000000000000000000000000000000000000000050000000000000000000000000000000000000000000000025000000
090208244001100002016339036000000000000500000000000000000000000000000000000000000000000000000000000000000000000000000000000000000000000000000000000000000000000000000000000000000000000000000000000000000000000050000000000000000000000000000000000000000000000026600000
090208244001100002016339036000000000000500000000000000000000000000000000000000000000000000000000000000000000000000000000000000000000000000000000000000000000000000000000000000000000000000000000000000000000000050000000000000000000000000000000000000000000000025000000
090208244001100002016339039000000000000500000000000000000000000000000000000000000000000000000000000000000000000000000000000000000000000000000000000000000000000000000000000000000000000000000000000000000000000050000000000000000000000000000000000000000000000025000000
090208244001100002016339039000000000004000000000000000000000000000000000000000000000000000000000000000000000000000000000000000000000000000000000000000000000000000000000000000000000000000000000000000000000000400000000000000000000000000000000000000000000000016600000
090208244001100002016339039000000000011100000000000000000000000000000000000000000000000000000000000000000000000000000000000000000000000000000011160000000001116000000000111600000000000000000000000000000000001110000000000000000000000000000000000000000000000026600000
090208244001100002016339093000000000000500000000000000000000000000000000000000000000000000000000000000000000000000000000000000000000000000000000000000000000000000000000000000000000000000000000000000000000000050000000000000000000000000000000000000000000000025000000
090208244001100002016339093000000000004335000000000000000000000000000000000000000000000000000000000000000000000000000000000000000000000000000000000000000000000000000000000000000000000000000000000000000000000433500000000000000000000000000000000000000000000026600000
090208244001100002017449052000000000000500000000000000000000000000000000000000000000000000000000000000000000000000000000000000000000000000000000000000000000000000000000000000000000000000000000000000000000000050000000000000000000000000000000000000000000000025000000
090208244001100002017339030000000000005400000000000000000000000000000000000000000000000000000000000000000000000000000000000000000000000000000000000000000000000000000000000000000000000000000000000000000000000540000000000000000000000000000000000000000000000015000000
090208244001100002017339030000000000012000000000000000000000000000000000000000000000000000000000000000000000000000000000000000000000000000000000000000000000000000000000000000000000000000000000000000000000001200000000000000000000000000000000000000000000000016600000
090208244001100002017339032000000000000500000000000000000000000000000000000000000000000000000000000000000000000000000000000000000000000000000000000000000000000000000000000000000000000000000000000000000000000050000000000000000000000000000000000000000000000025000000
090208244001100002017339036000000000000500000000000000000000000000000000000000000000000000000000000000000000000000000000000000000000000000000000000000000000000000000000000000000000000000000000000000000000000050000000000000000000000000000000000000000000000025000000
090208244001100002017339039000000000000500000000000000000000000000000000000000000000000000000000000000000000000000000000000000000000000000000000000000000000000000000000000000000000000000000000000000000000000050000000000000000000000000000000000000000000000025000000
090208244001100002017339039000000000015000000000000000000000000000000000000000000000000000000000000000000000000000000000000000000000000000000000000000000000000000000000000000000000000000000000000000000000001500000000000000000000000000000000000000000000000016600000
090208244001100002018449040000000000000500000000000000000000000000000000000000000000000000000000000000000000000000000000000000000000000000000000000000000000000000000000000000000000000000000000000000000000000050000000000000000000000000000000000000000000000015000000
090208244001100002018449052000000000000500000000000000000000000000000000000000000000000000000000000000000000000000000000000000000000000000000000000000000000000000000000000000000000000000000000000000000000000050000000000000000000000000000000000000000000000026600000
090208244001100002018449052000000000005000000000000000000000000000000000000000000000000000000000000000000000000000000000000000000000000000000000000000000000000000000000000000000000000000000000000000000000000500000000000000000000000000000000000000000000000016600000
090208244001100002018449052000000000008000000000000000000000000000000000000000000000000000000000000000070000000000000000000000000000000000000000000000000000000000000000000000000000000000000000000000000000001500000000000000000000000000000000000000000000000025000000
090208244001100002018319004000000000060000000000000000000000000000000000000000000000000000000000000000000000000000000000000000000000000000000000000000000000000000000000000000000000000000000000000000000000006000000000000000000000000000000000000000000000000015000000
090208244001100002018319007000000000001000000000000000000000000000000000000000000000000000000000000000000000000000000000000000000000000000000000000000000000000000000000000000000000000000000000000000000000000100000000000000000000000000000000000000000000000015000000
090208244001100002018319011000000000020500000000000000000000000000000000000000000000000000000000000000000000000000000000000000000000000000000000000000000000000000000000000000000000000000000000000000000000002050000000000000000000000000000000000000000000000026600000
090208244001100002018319011000000000177000000000000000000000000000000000000000000000000000000000000000000000000000000000000000000000000000000100309900000010030990000001003099000000000000000000000000000000017700000000000000000000000000000000000000000000000025000000
090208244001100002018319013000000000012000000000000000000000000000000000000000000000000000000000000000000000000000000000000000000000000000000000000000000000000000000000000000000000000000000000000000000000001200000000000000000000000000000000000000000000000025000000
090208244001100002018319016000000000002000000000000000000000000000000000000000000000000000000000000000000000000000000000000000000000000000000002779100000000277910000000027791000000000000000000000000000000000200000000000000000000000000000000000000000000000015000000
090208244001100002018339008000000000004000000000000000000000000000000000000000000000000000000000000000000000000000000000000000000000000000000024013700000002401370000000240137000000000000000000000000000000000400000000000000000000000000000000000000000000000015000000
090208244001100002018339014000000000003500000000000000000000000000000000000000000000000000000000000000000000000000000000000000000000000000000000000000000000000000000000000000000000000000000000000000000000000350000000000000000000000000000000000000000000000016600000
090208244001100002018339030000000000000500000000000000000000000000000000000000000000000000000000000000000000000000000000000000000000000000000000000000000000000000000000000000000000000000000000000000000000000050000000000000000000000000000000000000000000000026600000
090208244001100002018339030000000000009000000000000000000000000000000000000000000000000000000000000000000000000000000000000000000000000000000008640000000000000000000000000000000000000000000000000000000000000900000000000000000000000000000000000000000000000016600000
090208244001100002018339030000000000019600000000000000000000000000000000000000000000000000000000000000008000000000000000000000000000000000000007146000000000000000000000000000000000000000000000000000000000002040000000000000000000000000000000000000000000000015000000
090208244001100002018339036000000000003000000000000000000000000000000000000000000000000000000000000000017700000000000000000000000000000000000000000000000000000000000000000000000000000000000000000000000000000477000000000000000000000000000000000000000000000015000000
090208244001100002018339039000000000000500000000000000000000000000000000000000000000000000000000000000000000000000000000000000000000000000000000000000000000000000000000000000000000000000000000000000000000000050000000000000000000000000000000000000000000000016600000
090208244001100002018339039000000000008220000000000000000000000025700000000000000000000000000000000000003000000000000000000000000000000000000104755000000000000000000000000000000000000000000000000000000000001109000000000000000000000000000000000000000000000015000000
090208244001100002018339040000000000000500000000000000000000000000000000000000000000000000000000000000000000000000000000000000000000000000000000000000000000000000000000000000000000000000000000000000000000000050000000000000000000000000000000000000000000000025000000
090208244001100002018339046000000000021000000000000000000000000000000000000000000000000000000000000000000000000000000000000000000000000000000014083600000001408360000000000000000000000000000000000000000000002100000000000000000000000000000000000000000000000015000000
090208244001100002018319094000000000000500000000000000000000000000000000000000000000000000000000000000000000000000000000000000000000000000000000000000000000000000000000000000000000000000000000000000000000000050000000000000000000000000000000000000000000000015000000
090208244001100002018319113000000000072000000000000000000000000000000000000000000000000000000000000000000000000000000000000000000000000000000030829700000003082970000000000000000000000000000000000000000000007200000000000000000000000000000000000000000000000025000000
090208244001100002018339339000000000009120000000000000000000000000000000000000000000000000000000000000000000000000000000000000000000000000000000000000000000000000000000000000000000000000000000000000000000000912000000000000000000000000000000000000000000000015000000
090208334001100002021339030000000000000500000000000000000000000000000000000000000000000000000000000000000000000000000000000000000000000000000000000000000000000000000000000000000000000000000000000000000000000050000000000000000000000000000000000000000000000025000000
090208334001100002021339032000000000000500000000000000000000000000000000000000000000000000000000000000000000000000000000000000000000000000000000000000000000000000000000000000000000000000000000000000000000000050000000000000000000000000000000000000000000000025000000
090208334001100002021339033000000000000500000000000000000000000000000000000000000000000000000000000000000000000000000000000000000000000000000000000000000000000000000000000000000000000000000000000000000000000050000000000000000000000000000000000000000000000025000000
090208334001100002021339036000000000000500000000000000000000000000000000000000000000000000000000000000000000000000000000000000000000000000000000000000000000000000000000000000000000000000000000000000000000000050000000000000000000000000000000000000000000000025000000
090208334001100002021339039000000000000500000000000000000000000000000000000000000000000000000000000000000000000000000000000000000000000000000000000000000000000000000000000000000000000000000000000000000000000050000000000000000000000000000000000000000000000025000000
090408243001100002107449040000000000000500000000000000000000000000000000000000000000000000000000000000000000000000000000000000000000000000000000000000000000000000000000000000000000000000000000000000000000000050000000000000000000000000000000000000000000000025000000
090408243001100002107449052000000000000900000000000000000000000010000000000000000000000000000000000000000000000000000000000000000000000000000018490000000000000000000000000000000000000000000000000000000000000190000000000000000000000000000000000000000000000015000000
090408243001100002107319004000000000028000000000000000000000000000000000000000000000000000000000000000000000000000000000000000000000000000000000000000000000000000000000000000000000000000000000000000000000002800000000000000000000000000000000000000000000000015000000
090408243001100002107319007000000000001000000000000000000000000000000000000000000000000000000000000000000000000000000000000000000000000000000000000000000000000000000000000000000000000000000000000000000000000100000000000000000000000000000000000000000000000015000000
090408243001100002107319011000000000201000000000000000000000000000000000000000000000000000000000000000000000000000000000000000000000000000000148930800000014893080000001489308000000000000000000000000000000020100000000000000000000000000000000000000000000000025000000
090408243001100002107319013000000000042000000000000000000000000000000000000000000000000000000000000000000000000000000000000000000000000000000029786100000002978610000000000000000000000000000000000000000000004200000000000000000000000000000000000000000000000025000000
090408243001100002107319016000000000001000000000000000000000000000000000000000000000000000000000000000000000000000000000000000000000000000000000000000000000000000000000000000000000000000000000000000000000000100000000000000000000000000000000000000000000000015000000
090408243001100002107339008000000000000500000000000000000000000000000000000000000000000000000000000000000000000000000000000000000000000000000000000000000000000000000000000000000000000000000000000000000000000050000000000000000000000000000000000000000000000015000000
090408243001100002107339014000000000008000000000000000000000000000000000000000000000000000000000000000000000000000000000000000000000000000000000000000000000000000000000000000000000000000000000000000000000000800000000000000000000000000000000000000000000000015000000
090408243001100002107339030000000000009800000000000000000000000000000000000000000000000000000000000000010000000000000000000000000000000000000020807800000000000000000000000000000000000000000000000000000000001080000000000000000000000000000000000000000000000015000000
090408243001100002107339036000000000000500000000000000000000000000000000000000000000000000000000000000000000000000000000000000000000000000000000000000000000000000000000000000000000000000000000000000000000000050000000000000000000000000000000000000000000000025000000
090408243001100002107339039000000000015300000000000000000000000000000000000000000000000000000000000000050000000000000000000000000000000000000074420000000000169600000000016960000000000000000000000000000000002030000000000000000000000000000000000000000000000015000000
090408243001100002107339040000000000002300000000000000000000000000000000000000000000000000000000000000000000000000000000000000000000000000000000000000000000000000000000000000000000000000000000000000000000000230000000000000000000000000000000000000000000000015000000
090408243001100002107339046000000000050000000000000000000000000000000000000000000000000000000000000000000000000000000000000000000000000000000042678000000004267800000000000000000000000000000000000000000000005000000000000000000000000000000000000000000000000025000000
090408243001100002107319094000000000005000000000000000000000000000000000000000000000000000000000000000000000000000000000000000000000000000000000000000000000000000000000000000000000000000000000000000000000000500000000000000000000000000000000000000000000000015000000
090408243001100002107339093000000000003800000000000000000000000000000000000000000000000000000000000000000000000000000000000000000000000000000000000000000000000000000000000000000000000000000000000000000000000380000000000000000000000000000000000000000000000015000000
110109271000000000032319003000000000011000000000000000000000000000000000000000000000000000000000000000000000000000000000000000000000000000000008096000000000809600000000080960000000000000000000000000000000001100000000000000000000000000000000000000000000000025000000
080110122000500000020317170000000000017157000000000000000000000004479600000000000000000000000000000000000000000000000000000000000000000000000176049600000000000000000000000000000000000000000000000000000000001760496000000000000000000000000000000000000000000015000000
080110301000600001070339048000000000052800000000000000000000000000000000000000000000000000000000000000000000000000000000000000000000000000000528000000000000000000000000000000000000000000000000000000000000005280000000000000000000000000000000000000000000000015000000
080110301000500001155339030000000000000000000000000000000000000000000000000000000000000000000000000000000000000000000000000000000000000000000000000000000000000000000000000000000000000000000000000000000000000000000000000000000000000000000000000000000000000016210000
080110301000500001155339039000000000000000000000000000000000000000000000000000000000000000000000000000000000000000000000000000000000000000000000000000000000000000000000000000000000000000000000000000000000000000000000000000000000000000000000000000000000000016210000
080110301000500001155339039000000000000000000000000000000000000000000000000000000000000000000000000000000000000000000000000000000000000000000000000000000000000000000000000000000000000000000000000000000000000000000000000000000000000000000000000000000000000025000000
080110122000500002084449040000000000000500000000000000000000000000000000000000000000000000000000000000000000000000000000000000000000000000000000000000000000000000000000000000000000000000000000000000000000000050000000000000000000000000000000000000000000000025000000
080110122000500002084449052000000000014000000000000000000000000000000000000000000000000000000000000000000000000000000000000000000000000000000000000000000000000000000000000000000000000000000000000000000000001400000000000000000000000000000000000000000000000015000000
080110122000500002084319007000000000001000000000000000000000000000000000000000000000000000000000000000000000000000000000000000000000000000000000000000000000000000000000000000000000000000000000000000000000000100000000000000000000000000000000000000000000000015000000
080110122000500002084319008000000000002000000000000000000000000000000000000000000000000000000000000000000000000000000000000000000000000000000000000000000000000000000000000000000000000000000000000000000000000200000000000000000000000000000000000000000000000015000000
080110122000500002084319011000000000452000000000000000000000000000000000000000000000000000000000000000000000000000000000000000000000000000000418572800000041857280000004185728000000000000000000000000000000045200000000000000000000000000000000000000000000000025000000
080110122000500002084319013000000000020000000000000000000000000000000000000000000000000000000000000000000000000000000000000000000000000000000012378800000001237880000000000000000000000000000000000000000000002000000000000000000000000000000000000000000000000025000000
080110122000500002084319016000000000002500000000000000000000000000000000000000000000000000000000000000000000000000000000000000000000000000000000000000000000000000000000000000000000000000000000000000000000000250000000000000000000000000000000000000000000000015000000
080110122000500002084339014000000000006000000000000000000000000000000000000000000000000000000000000000000000000000000000000000000000000000000000000000000000000000000000000000000000000000000000000000000000000600000000000000000000000000000000000000000000000015000000
080110122000500002084339030000000000023786000000000000000000000000000000000000000000000000000000000000050000000000000000000000000000000000000061766000000000205000000000000000000000000000000000000000000000002878600000000000000000000000000000000000000000000015000000
