87612826000190010120253101202501022025PREFEITURA MUNICIPAL INDEPENDENCIA                                              
100000000000000000000201000757341072000003571470090000RECEITAS CORRENTES                                                                                                                                                        S0100000075734107200000000000000000
110000000000000000000201000047840000000000286947150000IMPOSTOS TAXAS E CONTRIBUIES DE MELHORIA                                                                                                                                  S0200000004784000000000000000000000
111000000000000000000201000043880000000000276040800000IMPOSTOS                                                                                                                                                                  S0300000004388000000000000000000000
111200000000000000000201000019940000000000050824300000IMPOSTOS SOBRE O PATRIMNIO                                                                                                                                                S0400000001994000000000000000000000
111250000000000000000201000007440000000000008881300000IMPOSTO SOBRE A PROPRIEDADE PREDIAL E TERRITORIAL URBANA                                                                                                                  S0500000000744000000000000000000000
111250010000000000000201000005730000000000004732410000IMPOSTO SOBRE A PROPRIEDADE PREDIAL E TERRITORIAL URBANA  - PRINCIPAL                                                                                                     A0600000000573000000000150000000000
111250020000000000000201000000030000000000000000000000IMPOSTO SOBRE A PROPRIEDADE PREDIAL E TERRITORIAL URBANA - MULTAS E JUROS DE MORA                                                                                         A0600000000003000000000150000000000
111250030000000000000201000001250000000000003095440000IMPOSTO SOBRE A PROPRIEDADE PREDIAL E TERRITORIAL URBANA - DIVIDA ATIVA                                                                                                   A0600000000125000000000150000000000
111250040000000000000201000000430000000000001053450000IMPOSTO SOBRE A PROPRIEDADE PREDIAL E TERRITORIAL URBANA - MULTAS E JUROS DE MORA DIVIDA ATIVA                                                                            A0600000000043000000000150000000000
111253000000000000000201000012500000000000041943000000IMPOSTOS SOBRE TRANSMISSO INTER VIVOS DE BENS IMVEIS E DE DIREITOS REAIS SOBRE IMVEIS                                                                                     S0500000001250000000000000000000000
111253010000000000000201000012500000000000041943000000IMPOSTOS SOBRE TRANSMISSO INTER VIVOS DE BENS IMVEIS E DE DIREITOS REAIS SOBRE IMVEIS - PRINCIPAL                                                                         A0600000001250000000000150000000000
111300000000000000000201000014670000000000131298020000IMPOSTOS SOBRE A RENDA E PROVENTOS DE QUALQUER NATUREZA                                                                                                                   S0400000001467000000000000000000000
111303000000000000000201000014670000000000131298020000IMPOSTO SOBRE A RENDA - RETIDO NA FONTE                                                                                                                                   S0500000001467000000000000000000000
111303100000000000000201000013740000000000129400800000IMPOSTO SOBRE A RENDA - RETIDO NA FONTE - TRABALHO                                                                                                                        S0600000001374000000000000000000000
111303110000000000000201000013740000000000129400800000IMPOSTO SOBRE A RENDA - RETIDO NA FONTE - TRABALHO - PRINCIPAL                                                                                                            S0600000001374000000000000000000000
111303110100000000000201000009550000000000100644420000IRRF SOBRE RENDIMENTOS DO TRABALHO - PREFEITURA                                                                                                                           A0700000000955000000000150000000000
111303110200000000000201000000610000000000003608910000IRRF SOBRE RENDIMENTOS DO TRABALHO - CAMARA                                                                                                                               A0700000000061000000000150000000000
111303110300000000000201000003540000000000025147470000IRRF SOBRE RENDIMENTOS DO TRABALHO - RPPS                                                                                                                                 A0700000000354000000000150000000000
111303110400000000000201000000040000000000000000000000IRRF COFRON                                                                                                                                                               A0700000000004000000000150000000000
111303400000000000000201000000930000000000001897220000IMPOSTO SOBRE A RENDA - RETIDO NA FONTE - OUTROS RENDIMENTOS                                                                                                              S0600000000093000000000000000000000
111303410000000000000201000000930000000000001897220000IMPOSTO SOBRE A RENDA - RETIDO NA FONTE - OUTROS RENDIMENTOS - PRINCIPAL                                                                                                  S0600000000093000000000000000000000
111303410100000000000201000000910000000000001848330000IRRF SOBRE OUTROS RENDIMENTOS - PREFEITURA                                                                                                                                A0700000000091000000000150000000000
111303410200000000000201000000010000000000000000000000IRRF SOBRE OUTROS RENDIMENTOS - CAMARA                                                                                                                                    A0700000000001000000000150000000000
111303410300000000000201000000010000000000000000000000IRRF SOBRE OUTROS RENDIMENTOS - RPPS                                                                                                                                      A0700000000001000000000150000000000
111303410400000000000201000000000000000000000048890000IRRF SOBRE CARTO-COMBUSTVEL                                                                                                                                               A0700000000000000000000150000000000
111400000000000000000201000009270000000000093918480000IMPOSTOS SOBRE A PRODUO E CIRCULAO DE MERCADORIAS E SERVIOS                                                                                                               S0400000000927000000000000000000000
111451000000000000000201000009270000000000093918480000IMPOSTOS SOBRE SERVIOS                                                                                                                                                    S0500000000927000000000000000000000
111451100000000000000201000009270000000000093918480000IMPOSTO SOBRE SERVIOS DE QUALQUER NATUREZA - ISSQN                                                                                                                        S0600000000927000000000000000000000
111451110000000000000201000009180000000000093396530000IMPOSTO SOBRE SERVIOS DE QUALQUER NATUREZA - ISSQN - PRINCIPAL                                                                                                            A0600000000918000000000150000000000
111451120000000000000201000000050000000000000521950000IMPOSTO SOBRE SERVIOS DE QUALQUER NATUREZA - ISSQN - MULTAS E JUROS DE MORA                                                                                               A0600000000005000000000150000000000
111451130000000000000201000000030000000000000000000000IMPOSTO SOBRE SERVIOS DE QUALQUER NATUREZA - ISSQN  - DIVIDA ATIVA                                                                                                        A0600000000003000000000150000000000
111451140000000000000201000000010000000000000000000000IMPOSTO SOBRE SERVIOS DE QUALQUER NATUREZA - ISSQN - MULTAS E JUROS DE MORA DIVIDA ATIVA                                                                                  A0600000000001000000000150000000000
112000000000000000000201000003960000000000008691830000TAXAS                                                                                                                                                                     S0300000000396000000000000000000000
112100000000000000000201000001100000000000006033580000TAXAS PELO EXERCCIO DO PODER DE POLCIA                                                                                                                                    S0400000000110000000000000000000000
112101000000000000000201000001010000000000005429050000TAXAS DE INSPEO CONTROLE E FISCALIZAO                                                                                                                                     S0500000000101000000000000000000000
112101010000000000000201000000940000000000004225750000TAXAS DE INSPEO CONTROLE E FISCALIZAO - PRINCIPAL                                                                                                                         S0600000000094000000000000000000000
112101010100000000000201000000490000000000000065000000TAXA DE VISTORIA - PRINCIPAL                                                                                                                                              A0700000000049000000000150100000000
112101010200000000000201000000010000000000000000000000TAXA DE APROVAO DE LOTEAMENTO/FRACIONAMENTO - PRINCIPAL                                                                                                                   A0700000000001000000000150100000000
112101010300000000000201000000090000000000001513000000TAXA DE APROVAO DE PROJETOS DE CONSTRUO CIVIL - PRINCIPAL                                                                                                                 A0700000000009000000000150100000000
112101010400000000000201000000080000000000001130000000TAXA DE LICENA AMBIENTAL - PRINCIPAL                                                                                                                                      A0700000000008000000000175900000000
112101010500000000000201000000160000000000001115750000TAXA DE EXPEDIENTE - PRINCIPAL                                                                                                                                            A0700000000016000000000150100000000
112101010600000000000201000000110000000000000402000000ALVAR DE LICENA E LOCALIZAO - PRINCIPAL                                                                                                                                   A0700000000011000000000150100000000
112101020000000000000201000000000000000000000015300000TAXAS DE INSPEO CONTROLE E FISCALIZAO  - MULTAS E JUROS DE MORA                                                                                                           S0600000000000000000000000000000000
112101020400000000000201000000000000000000000015300000TAXA DE LICENA AMBIENTAL - MULTA E JUROS DE MORA                                                                                                                          A0700000000000000000000175900000000
112101030000000000000201000000050000000000001080000000TAXAS DE INSPEO CONTROLE E FISCALIZAO - DIVIDA ATIVA                                                                                                                      S0600000000005000000000000000000000
112101030100000000000201000000050000000000001080000000TAXA DE VISTORIA - DVIDA ATIVA                                                                                                                                            A0700000000005000000000150100000000
112101040000000000000201000000020000000000000108000000TAXAS DE INSPEO CONTROLE E FISCALIZAO - MULTAS E JUROS DE MORA DIVIDA ATIVA                                                                                               S0600000000002000000000000000000000
112101040100000000000201000000020000000000000108000000TAXA DE VISTORIA - MULTA E JUROS DE MORA DA DVIDA ATIVA                                                                                                                   A0700000000002000000000150100000000
112150000000000000000201000000090000000000000604530000TAXA DE FISCALIZAO DE VIGILNCIA SANITRIA                                                                                                                                  S0500000000009000000000000000000000
112150010000000000000201000000090000000000000355880000TAXA DE FISCALIZAO DE VIGILNCIA SANITRIA - PRINCIPAL                                                                                                                      A0600000000009000000000150100000000
112150030000000000000201000000000000000000000218380000TAXA DE FISCALIZAO DE VIGILNCIA SANITRIA - DIVIDA ATIVA                                                                                                                   A0600000000000000000000150100000000
112150040000000000000201000000000000000000000030270000TAXA DE FISCALIZAO DE VIGILNCIA SANITRIA - MULTAS E JUROS DE MORA DIVIDA ATIVA                                                                                            A0600000000000000000000150100000000
112200000000000000000201000002860000000000002658250000TAXAS PELA PRESTAO DE SERVIOS                                                                                                                                             S0400000000286000000000000000000000
112253000000000000000201000002860000000000002658250000TAXA PELA PRESTAO DE SERVIOS DE LIMPEZA PBLICA E MANEJO DE RESDUOS SLIDOS                                                                                                 S0500000000286000000000000000000000
112253010000000000000201000002680000000000001752870000TAXA PELA PRESTAO DE SERVIOS DE LIMPEZA PBLICA E MANEJO DE RESDUOS SLIDOS - PRINCIPAL                                                                                     A0600000000268000000000150100000000
112253030000000000000201000000170000000000000763780000TAXA PELA PRESTAO DE SERVIOS DE LIMPEZA PBLICA E MANEJO DE RESDUOS SLIDOS - DVIDA ATIVA                                                                                   A0600000000017000000000150100000000
112253040000000000000201000000010000000000000141600000TAXA PELA PRESTAO DE SERVIOS DE LIMPEZA PBLICA E MANEJO DE RESDUOS SLIDOS - MJM DA DVIDA ATIVA                                                                            A0600000000001000000000150100000000
113000000000000000000201000000000000000000002214520000CONTRIBUIO DE MELHORIA                                                                                                                                                    S0300000000000000000000000000000000
113100000000000000000201000000000000000000002214520000CONTRIBUIO DE MELHORIA                                                                                                                                                    S0400000000000000000000000000000000
113153000000000000000201000000000000000000002214520000CONTRIBUIO DE MELHORIA PARA PAVIMENTAO E OBRAS COMPLEMENTARES                                                                                                             S0500000000000000000000000000000000
113153010000000000000201000000000000000000001903630000CONTRIBUIO DE MELHORIA PARA PAVIMENTAO E OBRAS COMPLEMENTARES - PRINCIPAL                                                                                                 A0600000000000000000000150100000000
113153030000000000000201000000000000000000000310890000CONTRIBUIO DE MELHORIA PARA PAVIMENTAO E OBRAS COMPLEMENTARES - DIVIDA ATIVA                                                                                              A0600000000000000000000150100000000
120000000000000000000201000003000000000000023786780000CONTRIBUIES                                                                                                                                                               S0200000000300000000000000000000000
124000000000000000000201000003000000000000023786780000CONTRIBUIO PARA O CUSTEIO DO SERVIO DE ILUMINAO PBLICA                                                                                                                    S0300000000300000000000000000000000
124100000000000000000201000003000000000000023786780000CONTRIBUIO PARA O CUSTEIO DO SERVIO DE ILUMINAO PBLICA                                                                                                                    S0400000000300000000000000000000000
124150000000000000000201000003000000000000023786780000CONTRIBUIO PARA O CUSTEIO DO SERVIO DE ILUMINAO PBLICA                                                                                                                    S0500000000300000000000000000000000
124150010000000000000201000003000000000000023786780000CONTRIBUIO PARA O CUSTEIO DO SERVIO DE ILUMINAO PBLICA - PRINCIPAL                                                                                                        A0600000000300000000000175100000000
130000000000000000000201000010150000000000090992690000RECEITA PATRIMONIAL                                                                                                                                                       S0200000001015000000000000000000000
131000000000000000000201000002710000000000023251470000EXPLORAO DO PATRIMNIO IMOBILIRIO DO ESTADO                                                                                                                                S0300000000271000000000000000000000
131100000000000000000201000002710000000000023251470000EXPLORAO DO PATRIMNIO IMOBILIRIO DO ESTADO                                                                                                                                S0400000000271000000000000000000000
131101000000000000000201000002710000000000023251470000ALUGUIS ARRENDAMENTOS FOROS LAUDMIOS TARIFAS DE OCUPAO                                                                                                                    S0500000000271000000000000000000000
131101100000000000000201000002710000000000023251470000ALUGUIS E ARRENDAMENTOS                                                                                                                                                   S0600000000271000000000000000000000
131101110000000000000201000002710000000000023251470000ALUGUIS E ARRENDAMENTOS - PRINCIPAL                                                                                                                                       A0600000000271000000000150100000000
132000000000000000000201000007440000000000067741220000VALORES MOBILIRIOS                                                                                                                                                        S0300000000744000000000000000000000
132100000000000000000201000007440000000000067741220000JUROS E CORREES MONETRIAS                                                                                                                                                 S0400000000744000000000000000000000
132101000000000000000201000007440000000000067741220000REMUNERAO DE DEPSITOS BANCRIOS                                                                                                                                            S0500000000744000000000000000000000
132101010000000000000201000007440000000000067741220000REMUNERAO DE DEPSITOS BANCRIOS - PRINCIPAL                                                                                                                                S0600000000744000000000000000000000
132101010100000000000201000000930000000000027013530000REMUNERAO DE DEPSITOS DE RECURSOS VINCULADOS                                                                                                                              S0700000000093000000000000000000000
132101010102000000000201000000320000000000002270870000REMUNERAO DE DEPSITOS  BANCRIOS DE RECURSOS VINCULADOS - FUNDEB                                                                                                           S0800000000032000000000000000000000
132101010102010000000201000000320000000000002270870000RENDIMENTOS DO FUNDEB - IMPOSTOS E TRANSFERNCIAS DE IMPOSTOS                                                                                                              A1000000000032000000000154000000000
132101010103000000000201000000070000000000006477200000REMUNERAO DE DEPSITOS  BANCRIOS DE RECURSOS VINCULADOS - FUNDO DE SADE                                                                                                    S0800000000007000000000000000000000
132101010103020000000201000000000000000000000174650000REND UBS AMIGA IDOSO PSES1097/2023                                                                                                                                        A1000000000000000000000162100000000
132101010103030000000201000000000000000000000235710000REND MATPERM PSES1098/2023                                                                                                                                                A1000000000000000000000162100000000
132101010103040000000201000000030000000000000000000000RENDIMENTOS ATENO BSICA FEDERAL RV4500                                                                                                                                    A1000000000003000000000160000000000
132101010103050000000201000000010000000000000122960000RENDIMENTOS VISA FF RV4502                                                                                                                                                A1000000000001000000000160000000000
132101010103060000000201000000010000000000000001580000RENDIMENTOS ASSISTNCIA FARMACUTICA FF RV4503                                                                                                                              A1000000000001000000000160000000000
132101010103090000000201000000000000000000000000620000RENDIMENTOS FARMCIA BSICA FE RV4050                                                                                                                                       A1000000000000000000000162100000000
132101010103100000000201000000000000000000001781470000REND REFORMA UBS PORT SES 369 E 653/24                                                                                                                                    A1000000000000000000000162100000000
132101010103110000000201000000000000000000000052400000REND DST PSES1099/2023                                                                                                                                                    A1000000000000000000000162100000000
132101010103160000000201000000000000000000000240000000PRTESE DENTRIA PORTSES 82/2024 E 110/2024                                                                                                                                 A1000000000000000000000162100000000
132101010103170000000201000000000000000000002374810000REND ESTRUT ATENCAO PRIMARIA SAUDE INVEST                                                                                                                                 A1000000000000000000000160131100000
132101010103300000000201000000000000000000000041940000REND TRANSFERNCIA FEDERAL PARA PISO DA ENFERMAGEM                                                                                                                         A1000000000000000000000160500000000
132101010103340000000201000000000000000000000144090000REND TRANSFORMAO DIGITAL NO SUS                                                                                                                                           A1000000000000000000000160000000000
132101010103550000000201000000000000000000000027000000REND SEG ALIMENT NUTRIC SAUDE IMPLEMENTACAO RV4505                                                                                                                        A1000000000000000000000160100000000
132101010103580000000201000000000000000000000104920000REND COVID-19 SAUDE MENTAL PORTSES506/2020 RV4011                                                                                                                         A1000000000000000000000162100000000
132101010103600000000201000000000000000000000036120000REND ESTRUT/ADEQ ASSIST ODONT APS RV4505 PORT GM/MS 3473/2020                                                                                                             A1000000000000000000000160100000000
132101010103610000000201000000000000000000000349970000REND ESTRUT ATENCAO BASICA EMENDA 28620016 PORT MS/GM 961/2020 RV4505                                                                                                     A1000000000000000000000160100000000
132101010103770000000201000000000000000000000075600000REND EMENDA RELATOR 81000293 VEICULO RV 4505 PORT1687                                                                                                                     A1000000000000000000000160100000000
132101010103780000000201000000000000000000000019780000REND EQUIP ODONTO PSF/UBS REDE BEM CUIDAR PORT SES/RS 395/2022 RV4293                                                                                                     A1000000000000000000000163200000000
132101010103800000000201000000000000000000000025140000REND ESTRUT REDE APS PORT2090 EMENDA RELATOR                                                                                                                              A1000000000000000000000160100000000
132101010103830000000201000000000000000000000048060000RENDIMENTOS NOTA FISCAL GAUCHA PROGRAMA SOLIDARIEDADE RV4300                                                                                                              A1000000000000000000000162100000000
132101010103840000000201000000000000000000000018090000REND CASTRAO DE ANIMAIS - PROJETO MELHORES AMIGOS CONVFPE4758/2022-SICDHAS                                                                                                A1000000000000000000000163200000000
1321010101038400000002010000000000000-0000000018090000REND CASTRAO DE ANIMAIS - PROJETO MELHORES AMIGOS CONVFPE4758/2022-SICDHAS                                                                                                A1010900000000000000000163200000000
132101010103850000000201000000010000000000000009310000REND CONTRAP CASTRAO DE ANIMAIS - PROJETO MELHORES AMIGOS CONVFPE4758/2022-SICDHAS                                                                                        A1000000000001000000000150000000000
1321010101038500000002010000000100000-0000000009310000REND CONTRAP CASTRAO DE ANIMAIS - PROJETO MELHORES AMIGOS CONVFPE4758/2022-SICDHAS                                                                                        A1010900000001000000000150000000000
132101010103860000000201000000000000000000000534850000REND BB GERAL FMS MOV 0040 3732-X/10062-5                                                                                                                                 A1000000000000000000000150010020000
132101010103870000000201000000000000000000000085530000REND FARMCIA FEDERAL CALAMIDADE MP 1218/2024                                                                                                                              A1000000000000000000000160031010000
132101010106000000000201000000000000000000000013000000REMUNERAO DE DEPSITOS  BANCRIOS DE RECURSOS VINCULADOS - CONTRIBUIO DE INTERVENO NO DOMNIO ECONMICO - CIDE                                                                A0800000000000000000000175000000000
132101010107000000000201000000010000000000001318030000REMUNERAO DE DEPSITOS  BANCRIOS DE RECURSOS VINCULADOS - FUNDO NACIONAL DE ASSISTNCIA SOCIAL - FNAS                                                                       S0800000000001000000000000000000000
132101010107030000000201000000010000000000000113930000RENDIMENTOS GBF IGD-BF RV1038                                                                                                                                             A1000000000001000000000166000000000
132101010107050000000201000000000000000000000000600000RENDIMENTOS OASF/FEAS RV1103                                                                                                                                              A1000000000000000000000166500000000
132101010107060000000201000000000000000000000570570000REND CONVENIO STDP-RS 2478/2023                                                                                                                                           A1000000000000000000000166500000000
132101010107080000000201000000000000000000000003910000REND COVID-19/SUAS PORT MC 751/2022 RV1019                                                                                                                                A1000000000000000000000166000000000
132101010107120000000201000000000000000000000231890000REND CONVENIO STDP-RS 949/2023                                                                                                                                            A1000000000000000000000166500000000
132101010107130000000201000000000000000000000008540000REND-SIGTV- ESTRUT REDE SV SUAS-CUSTEIO                                                                                                                                   A1000000000000000000000166031100000
132101010107140000000201000000000000000000000151090000REND INCREMENTO TEMP PSB MP1218/24                                                                                                                                        A1000000000000000000000166031010000
132101010107150000000201000000000000000000000237500000REND FEAS PISO GACHO REGULAR                                                                                                                                              A1000000000000000000000166100000000
132101010108000000000201000000300000000000001585030000REMUNERAO DE DEPSITOS  BANCRIOS DE RECURSOS VINCULADOS - FUNDO NACIONAL DE DESENVOLVIMENTO DA EDUCAO - FNDE                                                               S0800000000030000000000000000000000
132101010108010000000201000000010000000000000000000000RENDIMENTOS PNAE                                                                                                                                                          A1000000000001000000000155200000000
132101010108020000000201000000060000000000000140750000RENDIMENTOS QSE RV1014                                                                                                                                                    A1000000000006000000000155000000000
132101010108030000000201000000010000000000000000000000RENDIMENTOS PNATE RV1016                                                                                                                                                  A1000000000001000000000155300000000
132101010108040000000201000000150000000000000765880000REND EDUC INF NOVAS TURMAS RV1003                                                                                                                                         A1000000000015000000000156900000000
132101010108050000000201000000000000000000000016660000REND FNDE/PAR/MOBILIARIO 2023                                                                                                                                             A1000000000000000000000156900000000
132101010108060000000201000000070000000000000661740000REND ESCOLA TEMPO INTEGRAL                                                                                                                                                A1000000000007000000000156900000000
132101010199000000000201000000230000000000015349400000REMUNERAO DE OUTROS DEPSITOS  BANCRIOS DE RECURSOS VINCULADOS                                                                                                             S0800000000023000000000000000000000
132101010199010000000201000000060000000000000649870000RENDIMENTOS FMDMA RV1005                                                                                                                                                  A1000000000006000000000175900000000
132101010199020000000201000000000000000000000080500000REND PAVIMENTA RS/ETAPA 2 70109 CONVENIO FPE 2023/5253                                                                                                                    A1000000000000000000000170100000000
132101010199030000000201000000040000000000000402300000REND CONTRAP PAVIMENTA RS/ETAPA 2 70109 CONVENIO FPE 2023/5253                                                                                                            A1000000000004000000000150000000000
132101010199040000000201000000000000000000000779530000RENDIMENTOS IR DOAO FUNDICA RV1050                                                                                                                                        A1000000000000000000000175900000000
132101010199050000000201000000000000000000000803960000REND INVESTIMENTO EMENIND 28610007                                                                                                                                        A1000000000000000000000170631100000
132101010199060000000201000000000000000000000517940000REND INVESTIMENTO EMENIND 30770001                                                                                                                                        A1000000000000000000000170631100000
132101010199100000000201000000000000000000001419670000POUP PAVIMENTAO URBANA SICONV917782/2021                                                                                                                                  A1000000000000000000000170000000000
132101010199110000000201000000000000000000000024600000REND PIT FE - PROGRAMA DE INTEGRAO TRIBUTRIA RV1112                                                                                                                       A1000000000000000000000170100000000
132101010199130000000201000000000000000000000132960000POUP CONTRAP PAVIMENTAO URBANA SICONV917782/2021                                                                                                                          A1000000000000000000000150000000000
132101010199170000000201000000000000000000000296520000REND CUSTEIO EMENDIND32980001                                                                                                                                             A1000000000000000000000170631100000
132101010199180000000201000000000000000000000741300000REND INVESTIMENTO EMENDIND3666011                                                                                                                                         A1000000000000000000000170631100000
132101010199190000000201000000000000000000001482580000REND INVESTIMENTO EMENDIND24070001                                                                                                                                        A1000000000000000000000170631100000
132101010199200000000201000000000000000000001333970000REND PAVIMENTACAO ECOVILLA CONV FPE 456/2022 FE                                                                                                                           A1000000000000000000000170100000000
132101010199210000000201000000000000000000000402300000REND PAVIMENTA RS FE RV1212                                                                                                                                               A1000000000000000000000170100000000
132101010199220000000201000000000000000000000030680000REND CONTRAPARTIDA PAVIMENTA RS FE RV1212                                                                                                                                 A1000000000000000000000150000000000
132101010199250000000201000000000000000000000110400000REND TRANSF ESP PAVIMENT CIDADE-BUDEL-ALEGRIA EMEND IND 36660001 RV1028                                                                                                   A1000000000000000000000170031100000
132101010199300000000201000000040000000000000000000000RENDIMENTOS PEATE RS RV1017                                                                                                                                               A1000000000004000000000157100000000
132101010199310000000201000000000000000000000496290000REND CONSTR POO TUBULAR PROFUNDO PROG AVANAR RS CONVFPE2268/22                                                                                                            A1000000000000000000000170100000000
132101010199320000000201000000030000000000000118590000REND CIP                                                                                                                                                                  A1000000000003000000000175100000000
132101010199330000000201000000060000000000000044550000REND FEP                                                                                                                                                                  A1000000000006000000000170400000000
132101010199370000000201000000000000000000000633550000REND PAV AREA INDUSTRIAL TRANSFESPEMENDAIND41210001 1030BR 70601                                                                                                          A1000000000000000000000170631100000
132101010199390000000201000000000000000000000303750000REND CONSTRUO DE CISTERNAS CONVFPE2411/2022                                                                                                                               A1000000000000000000000170100000000
132101010199400000000201000000000000000000000004860000REND LC195/22 LEI PAULO GUSTAVO ART5                                                                                                                                      A1000000000000000000000171500000000
132101010199410000000201000000000000000000000001790000REND LC195/22 LEI PAULO GUSTAVO ART8                                                                                                                                      A1000000000000000000000171600000000
132101010199440000000201000000000000000000000000070000REND CFEM-PRODUO MINERAL                                                                                                                                                  A1000000000000000000000170800000000
132101010199450000000201000000000000000000002053700000REND PAVIMENTACAO ESTRADAS RURAIS EMENDA IMPOSITIVA 28610005/2023                                                                                                         A1000000000000000000000170631100000
132101010199460000000201000000000000000000000223480000REND COLHEDORA DE FORRAGENS CONV FPE 1447/2023-SDR/RS                                                                                                                     A1000000000000000000000170100000000
132101010199500000000201000000000000000000002168100000REND INVESTIMENTO EMENDIND90480002                                                                                                                                        A1000000000000000000000170631100000
132101010199600000000201000000000000000000000091590000REND SNA                                                                                                                                                                  A1000000000000000000000150000000000
132101010200000000000201000006510000000000040727690000REMUNERAO DE DEPSITOS DE RECURSOS NO VINCULADOS                                                                                                                           S0700000000651000000000000000000000
132101010299000000000201000006510000000000040727690000REMUNERAO DE OUTROS DEPSITOS  BANCRIOS DE RECURSOS NO VINCULADOS                                                                                                          S0800000000651000000000000000000000
132101010299010000000201000001880000000000006041370000RENDIMENTOS PODER EXECUTIVO - BB                                                                                                                                          A1000000000188000000000150000000000
132101010299020000000201000001110000000000015180650000RENDIMENTOS PODER EXECUTIVO - BANRISUL                                                                                                                                    A1000000000111000000000150000000000
132101010299050000000201000000430000000000000836850000RENDIMENTOS PODER LEGISLATIVO - BANRISUL                                                                                                                                  A1000000000043000000000150000000000
132101010299070000000201000002770000000000014480250000RENDIMENTOS PODER EXECUTIVO - SICREDI                                                                                                                                     A1000000000277000000000150000000000
132101010299080000000201000000010000000000000129010000REND CONTRAP CONSTR POO TUBULAR PROFUNDO PROG AVANAR RS CONVFPE2268/22                                                                                                    A1000000000001000000000150000000000
132101010299100000000201000000210000000000002840500000REND FR501 BB                                                                                                                                                             A1000000000021000000000150100000000
132101010299120000000201000000000000000000000038610000RENDIMENTOS FR502 BANRISUL                                                                                                                                                A1000000000000000000000150200000000
132101010299140000000201000000010000000000000011630000REND CONTRAP CONVENIO STDP-RS 949/2023                                                                                                                                    A1000000000001000000000150000000000
132101010299160000000201000000010000000000000089820000REND CONTRAP COLHEDORA DE FORRAGENS CONV FPE 1447/2023-SDR/RS                                                                                                             A1000000000001000000000150000000000
132101010299170000000201000000010000000000000146180000REND CONTRAP CONVENIO STDP-RS 2478/2023                                                                                                                                   A1000000000001000000000150000000000
132101010299320000000201000000070000000000000932820000REND CONTRAP PAVIMENTACAO ECOVILLA CONV FPE 456/2022 FE                                                                                                                   A1000000000007000000000150000000000
160000000000000000000201000000560000000000000375000000RECEITA DE SERVIOS                                                                                                                                                        S0200000000056000000000000000000000
161000000000000000000201000000560000000000000375000000SERVIOS ADMINISTRATIVOS E COMERCIAIS GERAIS                                                                                                                               S0300000000056000000000000000000000
161100000000000000000201000000560000000000000375000000SERVIOS ADMINISTRATIVOS E COMERCIAIS GERAIS                                                                                                                               S0400000000056000000000000000000000
161101000000000000000201000000560000000000000375000000SERVIOS ADMINISTRATIVOS E COMERCIAIS GERAIS PRESTADOS POR ENTIDADES E RGOS PBLICOS EM GERAL                                                                               S0500000000056000000000000000000000
161101010000000000000201000000540000000000000375000000SERVIOS ADMINISTRATIVOS E COMERCIAIS GERAIS PRESTADOS POR ENTIDADES E RGOS PBLICOS EM GERAL - PRINCIPAL                                                                   S0600000000054000000000000000000000
161101010100000000000201000000540000000000000375000000SERVIOS DE MQUINAS - PRINCIPAL                                                                                                                                            A0700000000054000000000150100000000
161101030000000000000201000000020000000000000000000000SERVIOS ADMINISTRATIVOS E COMERCIAIS GERAIS PRESTADOS POR ENTIDADES E RGOS PBLICOS EM GERAL - DVIDA ATIVA                                                                 S0600000000002000000000000000000000
161101030100000000000201000000020000000000000000000000SERVIOS DE MQUINAS - DVIDA ATIVA                                                                                                                                          A0700000000002000000000150100000000
170000000000000000000201000693711072000003152056070000TRANSFERNCIAS CORRENTES                                                                                                                                                   S0200000069371107200000000000000000
171000000000000000000201000354200080000001372640430000TRANSFERNCIAS DA UNIO E DE SUAS ENTIDADES                                                                                                                                 S0300000035420008000000000000000000
171100000000000000000201000323700080000001126273100000TRANSFERNCIAS DECORRENTES DE PARTICIPAO NA RECEITA DA UNIO                                                                                                                S0400000032370008000000000000000000
171151000000000000000201000319409200000001113929950000COTA-PARTE DO FUNDO DE PARTICIPAO DOS MUNICPIOS - FPM                                                                                                                     S0500000031940920000000000000000000
171151100000000000000201000299561600000001113929950000COTA-PARTE DO FUNDO DE PARTICIPAO DOS MUNICPIOS - COTA MENSAL                                                                                                             S0600000029956160000000000000000000
171151110000000000000201000149780800000001392412380000COTA-PARTE DO FUNDO DE PARTICIPAO DOS MUNICPIOS - COTA MENSAL                                                                                                             A0600000014978080000000150000000000
1711511100000000000002010001497808000-0000278482430000COTA-PARTE DO FUNDO DE PARTICIPAO DOS MUNICPIOS - COTA MENSAL                                                                                                             A0610500014978080000000150000000000
171151200000000000000201000019847600000000000000000000COTA-PARTE DO FUNDO DE PARTICIPAO DOS MUNICPIOS - COTAS EXTRAORDINRIAS                                                                                                    S0600000001984760000000000000000000
171151210000000000000201000019847600000000000000000000COTA-PARTE DO FUNDO DE PARTICIPAO DOS MUNICPIOS - COTAS EXTRAORDINRIAS                                                                                                    S0600000001984760000000000000000000
171151210100000000000201000006768450000000000000000000COTA-EXTRA DO FPM EM JULHO                                                                                                                                                A0700000000676845000000150000000000
171151210200000000000201000005863980000000000000000000COTA-EXTRA DO FPM EM SETEMBRO                                                                                                                                             A0700000000586398000000150000000000
171151210300000000000201000007215170000000000000000000COTA-EXTRA DO FPM EM DEZEMBRO                                                                                                                                             A0700000000721517000000150000000000
171152000000000000000201000004290880000000012343150000COTA-PARTE DO IMPOSTO SOBRE A PROPRIEDADE TERRITORIAL RURAL                                                                                                               S0500000000429088000000000000000000
171152010000000000000201000002145440000000015428930000COTA-PARTE DO IMPOSTO SOBRE A PROPRIEDADE TERRITORIAL RURAL                                                                                                               A0600000000214544000000150000000000
1711520100000000000002010000021454400-0000003085780000COTA-PARTE DO IMPOSTO SOBRE A PROPRIEDADE TERRITORIAL RURAL                                                                                                               A0610500000214544000000150000000000
171200000000000000000201000002260000000000025855160000TRANSFERNCIAS DAS COMPENSAES FINANCEIRAS PELA EXPLORAO DE RECURSOS NATURAIS                                                                                               S0400000000226000000000000000000000
171251000000000000000201000000000000000000000028630000COTA-PARTE DA COMPENSAO FINANCEIRA PELA EXPLORAO DE RECURSOS MINERAIS - CFEM                                                                                              S0500000000000000000000000000000000
171251010000000000000201000000000000000000000028630000COTA-PARTE DA COMPENSAO FINANCEIRA PELA EXPLORAO DE RECURSOS MINERAIS - CFEM                                                                                              A0600000000000000000000170800000000
171252000000000000000201000002260000000000025826530000COTA-PARTE DA COMPENSAO FINANCEIRA PELA PRODUO DE PETRLEO                                                                                                                 S0500000000226000000000000000000000
171252400000000000000201000002260000000000025826530000COTA-PARTE DO FUNDO ESPECIAL DO PETRLEO  FEP                                                                                                                              S0600000000226000000000000000000000
171252410000000000000201000002260000000000025826530000COTA-PARTE DO FUNDO ESPECIAL DO PETRLEO  FEP                                                                                                                              A0600000000226000000000170400000000
171300000000000000000201000016780000000000150977430000TRANSFERNCIAS DE RECURSOS DO SISTEMA NICO DE SADE  SUS                                                                                                                    S0400000001678000000000000000000000
171350000000000000000201000016780000000000150977430000TRANSFERNCIAS DE RECURSOS DO SISTEMA NICO DE SADE  SUS  REPASSES FUNDO A FUNDO - BLOCO DE MANUTENO DAS AES E SERVIOS PBLICOS DE SADE                                      S0500000001678000000000000000000000
171350100000000000000201000013760000000000119780730000TRANSFERNCIAS DE RECURSOS DO BLOCO DE MANUTENO DAS AES E SERVIOS PBLICOS DE SADE  ATENO PRIMRIA                                                                           S0600000001376000000000000000000000
171350110000000000000201000013760000000000119780730000TRANSFERNCIAS DE RECURSOS DO BLOCO DE MANUTENO DAS AES E SERVIOS PBLICOS DE SADE  ATENO PRIMRIA                                                                           S0600000001376000000000000000000000
171350110100000000000201000004120000000000048576000000TRANSFERNCIA FEDERAL PARA O PISO DOS ACS                                                                                                                                  A0700000000412000000000160400000000
171350110200000000000201000009640000000000070860380000PISO DA ATENO PRIMRIA EM SADE                                                                                                                                             A0700000000964000000000160000000000
171350110600000000000201000000000000000000000144350000EXAME PR-NATAL REDE ALYNE PORT5530/24                                                                                                                                     A0700000000000000000000160000000000
171350110700000000000201000000000000000000000200000000TESTE RPIDO GRAVIDEZ REDE ALYNE PORT5534/24                                                                                                                               A0700000000000000000000160000000000
171350200000000000000201000000090000000000000735830000TRANSFERNCIAS DE RECURSOS DO BLOCO DE MANUTENO DAS AES E SERVIOS PBLICOS DE SADE  ATENO ESPECIALIZADA                                                                     S0600000000009000000000000000000000
171350210000000000000201000000090000000000000735830000TRANSFERNCIAS DE RECURSOS DO BLOCO DE MANUTENO DAS AES E SERVIOS PBLICOS DE SADE  ATENO ESPECIALIZADA                                                                     S0600000000009000000000000000000000
171350210100000000000201000000090000000000000735830000MAC ATENO ESPECIALIZADA                                                                                                                                                   A0700000000009000000000160000000000
171350300000000000000201000001480000000000010794010000TRANSFERNCIAS DE RECURSOS DO BLOCO DE MANUTENO DAS AES E SERVIOS PBLICOS DE SADE  VIGILNCIA EM SADE                                                                       S0600000000148000000000000000000000
171350310000000000000201000001480000000000010794010000TRANSFERNCIAS DE RECURSOS DO BLOCO DE MANUTENO DAS AES E SERVIOS PBLICOS DE SADE  VIGILNCIA EM SADE                                                                       S0600000000148000000000000000000000
171350310100000000000201000000830000000000009108000000TRANSFERNCIA FEDERAL PARA O PISO DOS ACE                                                                                                                                  A0700000000083000000000160400000000
171350310200000000000201000000090000000000000000000000VIGLNCIA SANITRIA                                                                                                                                                         A0700000000009000000000160000000000
171350310300000000000201000000560000000000001686010000INCENTIVO VIGILANCIA EM SAUDE - CUSTEIO                                                                                                                                   A0700000000056000000000160000000000
171350400000000000000201000000530000000000016174640000TRANSFERNCIAS DE RECURSOS DO BLOCO DE MANUTENO DAS AES E SERVIOS PBLICOS DE SADE  ASSISTNCIA FARMACUTICA                                                                  S0600000000053000000000000000000000
171350410000000000000201000000530000000000016174640000TRANSFERNCIAS DE RECURSOS DO BLOCO DE MANUTENO DAS AES E SERVIOS PBLICOS DE SADE  ASSISTNCIA FARMACUTICA                                                                  S0600000000053000000000000000000000
171350410100000000000201000000530000000000004043660000FARMCIA BSICA                                                                                                                                                             A0700000000053000000000160000000000
171350410200000000000201000000000000000000012130980000FARMCIA FEDERAL CALAMIDADE MP 1218/2024                                                                                                                                   A0700000000000000000000160031010000
171350500000000000000201000000920000000000003492220000TRANSFERNCIAS DE RECURSOS DO BLOCO DE MANUTENO DAS AES E SERVIOS PBLICOS DE SADE  GESTO DO SUS                                                                            S0600000000092000000000000000000000
171350510000000000000201000000920000000000003492220000TRANSFERNCIAS DE RECURSOS DO BLOCO DE MANUTENO DAS AES E SERVIOS PBLICOS DE SADE  GESTO DO SUS                                                                            S0600000000092000000000000000000000
171350510100000000000201000000920000000000003492220000TRANSFERNCIA FEDERAL PARA PISO DA ENFERMAGEM                                                                                                                              A0700000000092000000000160500000000
171400000000000000000201000008300000000000059545470000TRANSFERNCIAS DE RECURSOS DO FUNDO NACIONAL DO DESENVOLVIMENTO DA EDUCAO  FNDE                                                                                            S0400000000830000000000000000000000
171450000000000000000201000004400000000000059545470000TRANSFERNCIAS DOSALRIO-EDUCAO                                                                                                                                            S0500000000440000000000000000000000
171450010000000000000201000004400000000000059545470000TRANSFERNCIAS DOSALRIO-EDUCAO                                                                                                                                            A0600000000440000000000155000000000
171452000000000000000201000001250000000000000000000000TRANSFERNCIAS REFERENTES AO PROGRAMA NACIONAL DE ALIMENTAO ESCOLAR  PNAE                                                                                                  S0500000000125000000000000000000000
171452010000000000000201000001250000000000000000000000TRANSFERNCIAS REFERENTES AO PROGRAMA NACIONAL DE ALIMENTAO ESCOLAR  PNAE - PRINCIPAL                                                                                      A0600000000125000000000155200000000
171453000000000000000201000000580000000000000000000000TRANSFERNCIAS REFERENTES AO PROGRAMA NACIONAL DE APOIO AO TRANSPORTE DO ESCOLAR  PNATE                                                                                    S0500000000058000000000000000000000
171453010000000000000201000000580000000000000000000000TRANSFERNCIAS REFERENTES AO PROGRAMA NACIONAL DE APOIO AO TRANSPORTE DO ESCOLAR  PNATE                                                                                    A0600000000058000000000155300000000
171499000000000000000201000002070000000000000000000000OUTRAS TRANSFERNCIAS DIRETAS DO FUNDO NACIONAL DO DESENVOLVIMENTO DA EDUCAO - FNDE                                                                                        S0500000000207000000000000000000000
171499010000000000000201000002070000000000000000000000OUTRAS TRANSFERNCIAS DIRETAS DO FUNDO NACIONAL DO DESENVOLVIMENTO DA EDUCAO - FNDE                                                                                        S0600000000207000000000000000000000
171499010100000000000201000001350000000000000000000000NOVAS TURMAS FNDE                                                                                                                                                         A0700000000135000000000156900000000
171499010200000000000201000000720000000000000000000000ESCOLA TEMPO INTEGRAL                                                                                                                                                     A0700000000072000000000156900000000
171600000000000000000201000002110000000000003456000000TRANSFERNCIAS DE RECURSOS DO FUNDO NACIONAL DE ASSISTNCIA SOCIAL  FNAS                                                                                                    S0400000000211000000000000000000000
171650000000000000000201000002110000000000003456000000TRANSFERNCIAS DE RECURSOS DO FUNDO NACIONAL DE ASSISTNCIA SOCIAL  FNAS                                                                                                    S0500000000211000000000000000000000
171650010000000000000201000002110000000000003456000000TRANSFERNCIAS DE RECURSOS DO FUNDO NACIONAL DE ASSISTNCIA SOCIAL  FNAS                                                                                                    S0600000000211000000000000000000000
171650010200000000000201000001200000000000000000000000SCFV                                                                                                                                                                      A0700000000120000000000166000000000
171650010300000000000201000000470000000000000000000000PAIF                                                                                                                                                                      A0700000000047000000000166000000000
171650010400000000000201000000300000000000003456000000IGD/BF                                                                                                                                                                    A0700000000030000000000166000000000
171650010600000000000201000000140000000000000000000000PROCAD-SUAS                                                                                                                                                               A0700000000014000000000166000000000
171900000000000000000201000001050000000000006533270000OUTRAS TRANSFERNCIAS DE RECURSOS DA UNIO E DE SUAS ENTIDADES                                                                                                              S0400000000105000000000000000000000
171958000000000000000201000001050000000000006533270000TRANSFERNCIA OBRIGATRIA DECORRENTE DA LEI COMPLEMENTAR N 176/2020                                                                                                         S0500000000105000000000000000000000
171958010000000000000201000001050000000000006533270000TRANSFERNCIA OBRIGATRIA DECORRENTE DA LEI COMPLEMENTAR N 176/2020                                                                                                         A0600000000105000000000150100000000
172000000000000000000201000269442992000001124607580000TRANSFERNCIAS DOS ESTADOS E DO DISTRITO FEDERAL E DE SUAS ENTIDADES                                                                                                       S0300000026944299200000000000000000
172100000000000000000201000260402992000001088922840000PARTICIPAO NA RECEITA DOS ESTADOS E DISTRITO FEDERAL                                                                                                                      S0400000026040299200000000000000000
172150000000000000000201000234812448000000837074240000COTA-PARTE DO ICMS                                                                                                                                                        S0500000023481244800000000000000000
172150010000000000000201000117406224000001046342810000COTA-PARTE DO ICMS                                                                                                                                                        A0600000011740622400000150000000000
1721500100000000000002010001174062240-0000209268570000COTA-PARTE DO ICMS                                                                                                                                                        A0610500011740622400000150000000000
172151000000000000000201000022952160000000237937970000COTA-PARTE DO IPVA                                                                                                                                                        S0500000002295216000000000000000000
172151010000000000000201000011476080000000297422500000COTA-PARTE DO IPVA                                                                                                                                                        A0600000001147608000000150000000000
1721510100000000000002010000114760800-0000059484530000COTA-PARTE DO IPVA                                                                                                                                                        A0610500001147608000000150000000000
172152000000000000000201000002568384000000011309380000COTA-PARTE DO IPI - MUNICPIOS                                                                                                                                             S0500000000256838400000000000000000
172152010000000000000201000001284192000000014136730000COTA-PARTE DO IPI - MUNICPIOS                                                                                                                                             A0600000000128419200000150000000000
1721520100000000000002010000012841920-0000002827350000COTA-PARTE DO IPI - MUNICPIOS                                                                                                                                             A0610500000128419200000150000000000
172153000000000000000201000000070000000000002601250000COTA-PARTE DA CONTRIBUIO DE INTERVENO NO DOMNIO ECONMICO                                                                                                                  S0500000000007000000000000000000000
172153010000000000000201000000070000000000002601250000COTA-PARTE DA CONTRIBUIO DE INTERVENO NO DOMNIO ECONMICO                                                                                                                  A0600000000007000000000175000000000
172300000000000000000201000005550000000000029684740000TRANSFERNCIAS DE RECURSOS DO SISTEMA NICO DE SADE  SUS                                                                                                                    S0400000000555000000000000000000000
172350000000000000000201000005550000000000029684740000TRANSFERNCIAS DE RECURSOS DO SISTEMA NICO DE SADE  SUS                                                                                                                    S0500000000555000000000000000000000
172350010000000000000201000005550000000000029684740000TRANSFERNCIAS DE RECURSOS DO SISTEMA NICO DE SADE  SUS                                                                                                                    S0600000000555000000000000000000000
172350010100000000000201000002550000000000015622260000PIAPS - SOCIODEMOGRFICO                                                                                                                                                   A0700000000255000000000162100000000
172350010200000000000201000002000000000000009777860000PIAPS - INCENTIVO APS                                                                                                                                                     A0700000000200000000000162100000000
172350010300000000000201000000500000000000002964000000PIAPS - PIM                                                                                                                                                               A0700000000050000000000162100000000
172350010400000000000201000000500000000000001320620000PIAPS - FARMCIA BSICA                                                                                                                                                     A0700000000050000000000162100000000
172400000000000000000201000003490000000000006000000000TRANSFERNCIAS DE CONVNIOS DOS ESTADOS E DF E DE SUAS ENTIDADES                                                                                                            S0400000000349000000000000000000000
172451000000000000000201000003150000000000000000000000TRANSFERNCIAS DE CONVNIOS DOS ESTADOS DESTINADAS A PROGRAMAS DE EDUCAO                                                                                                    S0500000000315000000000000000000000
172451010100000000000201000003150000000000000000000000TRANSFERNCIAS DE CONVNIOS PARA O TRANSPORTE ESCOLAR                                                                                                                       S0700000000315000000000000000000000
172451010101000000000201000003150000000000000000000000TE PEATE RS                                                                                                                                                               A0800000000315000000000157100000000
172499000000000000000201000000340000000000006000000000OUTRAS TRANSFERNCIAS DE CONVNIOS DOS ESTADOS E DF E DE SUAS ENTIDADES                                                                                                     S0500000000034000000000000000000000
172499010000000000000201000000340000000000006000000000OUTRAS TRANSFERNCIAS DE CONVNIOS DOS ESTADOS E DF E DE SUAS ENTIDADES - PRINCIPAL                                                                                         S0600000000034000000000000000000000
172499019900000000000201000000340000000000006000000000OUTRAS TRANSFERNCIAS DE CONVNIOS DOS ESTADOS E DF E DE SUAS ENTIDADES                                                                                                     S0700000000034000000000000000000000
172499019901000000000201000000330000000000006000000000PIT FE - PROGRAMA DE INTEGRAO TRIBUTRIA                                                                                                                                   A0800000000033000000000170100000000
172499019902000000000201000000010000000000000000000000COTA-PARTE DAS MULTAS DE TRNSITO - PRINCIPAL                                                                                                                              A0800000000001000000000175200000000
175000000000000000000201000070068000000000654808060000TRANSFERNCIAS DE OUTRAS INSTITUIES PBLICAS                                                                                                                                S0300000007006800000000000000000000
175100000000000000000201000070068000000000654808060000TRANSFERNCIAS DE RECURSOS DO FUNDO DE MANUTENO E DESENVOLVIMENTO DA EDUCAO BSICA E DE VALORIZAO DOS PROFISSIONAIS DA EDUCAO - FUNDEB                                      S0400000007006800000000000000000000
175150000000000000000201000070068000000000654808060000TRANSFERNCIAS DE RECURSOS DO FUNDO DE MANUTENO E DESENVOLVIMENTO DA EDUCAO BSICA E DE VALORIZAO DOS PROFISSIONAIS DA EDUCAO  FUNDEB                                       S0500000007006800000000000000000000
175150010000000000000201000070068000000000654808060000TRANSFERNCIAS DE RECURSOS DO FUNDO DE MANUTENO E DESENVOLVIMENTO DA EDUCAO BSICA E DE VALORIZAO DOS PROFISSIONAIS DA EDUCAO  FUNDEB                                       S0600000007006800000000000000000000
175150010100000000000201000070068000000000654808060000TRANSFERNCIAS DO FUNDEB - IMPOSTOS E TRANSFERNCIAS DE IMPOSTOS                                                                                                            A0700000007006800000000154000000000
190000000000000000000201000002080000000000017312400000OUTRAS RECEITAS CORRENTES                                                                                                                                                 S0200000000208000000000000000000000
192000000000000000000201000002080000000000016630000000INDENIZAES RESTITUIES E RESSARCIMENTOS                                                                                                                                    S0300000000208000000000000000000000
192100000000000000000201000000000000000000003531050000INDENIZAES                                                                                                                                                                S0400000000000000000000000000000000
192101000000000000000201000000000000000000003531050000INDENIZAES POR DANOS CAUSADOS AO PATRIMNIO PBLICO                                                                                                                         S0500000000000000000000000000000000
192101010000000000000201000000000000000000003531050000INDENIZAES POR DANOS CAUSADOS AO PATRIMNIO PBLICO - PRINCIPAL                                                                                                             A0600000000000000000000150100000000
192200000000000000000201000002080000000000013098950000RESTITUIES                                                                                                                                                                S0400000000208000000000000000000000
192202000000000000000201000001320000000000009811680000RESTITUIO DE BENEFCIOS NO DESEMBOLSADOS                                                                                                                                   S0500000000132000000000000000000000
192202010000000000000201000001320000000000009811680000RESTITUIO DE BENEFCIOS NO DESEMBOLSADOS - PRINCIPAL                                                                                                                       S0600000000132000000000000000000000
192202010100000000000201000001320000000000009811680000PARTICIPAO DOS SERVIDORES NO AUXLIO-ALIMENTAO - PRINCIPAL                                                                                                                 A0700000000132000000000150100000000
192206000000000000000201000000000000000000000459970000RESTITUIO DE DESPESAS DE EXERCCIOS ANTERIORES                                                                                                                             S0500000000000000000000000000000000
192206300000000000000201000000000000000000000459970000RESTITUIO DE DESPESAS PRIMRIAS DE EXERCCIOS ANTERIORES                                                                                                                    S0600000000000000000000000000000000
192206310000000000000201000000000000000000000459970000RESTITUIO DE DESPESAS PRIMRIAS DE EXERCCIOS ANTERIORES - PRINCIPAL                                                                                                        A0600000000000000000000150100000000
192299000000000000000201000000760000000000002827300000OUTRAS RESTITUIES                                                                                                                                                         S0500000000076000000000000000000000
192299010000000000000201000000760000000000000000000000OUTRAS RESTITUIES - PRINCIPAL                                                                                                                                             S0600000000076000000000000000000000
192299010200000000000201000000760000000000000000000000PROGRAMA TROCA-TROCA - PRINCIPAL                                                                                                                                          A0700000000076000000000150100000000
192299030000000000000201000000000000000000002827300000OUTRAS RESTITUIES - DVIDA ATIVA                                                                                                                                           S0600000000000000000000000000000000
192299030100000000000201000000000000000000002827300000PROGRAMA TROCA-TROCA - DIVIDA ATIVA                                                                                                                                       A0700000000000000000000150100000000
199000000000000000000201000000000000000000000682400000DEMAIS RECEITAS CORRENTES                                                                                                                                                 S0300000000000000000000000000000000
199900000000000000000201000000000000000000000682400000OUTRAS RECEITAS CORRENTES                                                                                                                                                 S0400000000000000000000000000000000
199999000000000000000201000000000000000000000682400000OUTRAS RECEITAS                                                                                                                                                           S0500000000000000000000000000000000
199999300000000000000201000000000000000000000682400000OUTRAS RECEITAS NO ARRECADADAS E NO PROJETADAS PELA RFB - FINANCEIRAS                                                                                                     S0600000000000000000000000000000000
199999310000000000000201000000000000000000000682400000OUTRAS RECEITAS NO ARRECADADAS E NO PROJETADAS PELA RFB - FINANCEIRAS - PRINCIPAL                                                                                         S0600000000000000000000000000000000
199999310100000000000201000000000000000000000682400000DESCONTOS FINANCEIROS RECEBIDOS - PRINCIPAL                                                                                                                               A0700000000000000000000150100000000
FINALIZADOR0000000297