87612826000190010120253101202501022025PREFEITURA MUNICIPAL INDEPENDENCIA                                              
100000000000000000000201000476267278300051671224030000RECEITAS CORRENTES                                                                                                                                                        S01000000000000000
110000000000000000000201000046740000000005240742690000IMPOSTOS TAXAS E CONTRIBUIES DE MELHORIA                                                                                                                                  S02000000000000000
111000000000000000000201000042760000000004791654190000IMPOSTOS                                                                                                                                                                  S03000000000000000
111200000000000000000201000020650000000002210999560000IMPOSTOS SOBRE O PATRIMNIO                                                                                                                                                S04000000000000000
111250000000000000000201000008150000000000792201340000IMPOSTO SOBRE A PROPRIEDADE PREDIAL E TERRITORIAL URBANA                                                                                                                  S05000000000000000
111250010000000000000201000006510000000000671022880000IMPOSTO SOBRE A PROPRIEDADE PREDIAL E TERRITORIAL URBANA  - PRINCIPAL                                                                                                     A06000000005000000
111250020000000000000201000000030000000000006034130000IMPOSTO SOBRE A PROPRIEDADE PREDIAL E TERRITORIAL URBANA - MULTAS E JUROS DE MORA                                                                                         A06000000005000000
111250030000000000000201000001200000000000086713310000IMPOSTO SOBRE A PROPRIEDADE PREDIAL E TERRITORIAL URBANA - DIVIDA ATIVA                                                                                                   A06000000005000000
111250040000000000000201000000410000000000028431020000IMPOSTO SOBRE A PROPRIEDADE PREDIAL E TERRITORIAL URBANA - MULTAS E JUROS DE MORA DIVIDA ATIVA                                                                            A06000000005000000
111253000000000000000201000012500000000001418798220000IMPOSTOS SOBRE TRANSMISSO INTER VIVOS DE BENS IMVEIS E DE DIREITOS REAIS SOBRE IMVEIS                                                                                     S05000000000000000
111253010000000000000201000012500000000001418798220000IMPOSTOS SOBRE TRANSMISSO INTER VIVOS DE BENS IMVEIS E DE DIREITOS REAIS SOBRE IMVEIS - PRINCIPAL                                                                         A06000000005000000
111300000000000000000201000013230000000001553158830000IMPOSTOS SOBRE A RENDA E PROVENTOS DE QUALQUER NATUREZA                                                                                                                   S04000000000000000
111303000000000000000201000013230000000001553158830000IMPOSTO SOBRE A RENDA - RETIDO NA FONTE                                                                                                                                   S05000000000000000
111303100000000000000201000012450000000001405902760000IMPOSTO SOBRE A RENDA - RETIDO NA FONTE - TRABALHO                                                                                                                        S06000000000000000
111303110000000000000201000012450000000001405902760000IMPOSTO SOBRE A RENDA - RETIDO NA FONTE - TRABALHO - PRINCIPAL                                                                                                            S06000000000000000
111303110100000000000201000008680000000001074354230000IRRF SOBRE RENDIMENTOS DO TRABALHO - PREFEITURA                                                                                                                           A07000000005000000
111303110200000000000201000000550000000000041177930000IRRF SOBRE RENDIMENTOS DO TRABALHO - CAMARA                                                                                                                               A07000000005000000
111303110300000000000201000003220000000000286561450000IRRF SOBRE RENDIMENTOS DO TRABALHO - RPPS                                                                                                                                 A07000000005000000
111303110400000000000201000000000000000000003809150000IRRF COFRON                                                                                                                                                               A07000000005000000
111303400000000000000201000000780000000000147256070000IMPOSTO SOBRE A RENDA - RETIDO NA FONTE - OUTROS RENDIMENTOS                                                                                                              S06000000000000000
111303410000000000000201000000780000000000147256070000IMPOSTO SOBRE A RENDA - RETIDO NA FONTE - OUTROS RENDIMENTOS - PRINCIPAL                                                                                                  S06000000000000000
111303410100000000000201000000760000000000143797830000IRRF SOBRE OUTROS RENDIMENTOS - PREFEITURA                                                                                                                                A07000000005000000
111303410200000000000201000000010000000000000713180000IRRF SOBRE OUTROS RENDIMENTOS - CAMARA                                                                                                                                    A07000000005000000
111303410300000000000201000000010000000000001544270000IRRF SOBRE OUTROS RENDIMENTOS - RPPS                                                                                                                                      A07000000005000000
111303410400000000000201000000000000000000001200790000IRRF SOBRE CARTO-COMBUSTVEL                                                                                                                                               A07000000005000000
111400000000000000000201000008880000000001027495800000IMPOSTOS SOBRE A PRODUO E CIRCULAO DE MERCADORIAS E SERVIOS                                                                                                               S04000000000000000
111451000000000000000201000008880000000001027495800000IMPOSTOS SOBRE SERVIOS                                                                                                                                                    S05000000000000000
111451100000000000000201000008880000000001027495800000IMPOSTO SOBRE SERVIOS DE QUALQUER NATUREZA - ISSQN                                                                                                                        S06000000000000000
111451110000000000000201000008800000000001018869700000IMPOSTO SOBRE SERVIOS DE QUALQUER NATUREZA - ISSQN - PRINCIPAL                                                                                                            A06000000005000000
111451120000000000000201000000050000000000005220490000IMPOSTO SOBRE SERVIOS DE QUALQUER NATUREZA - ISSQN - MULTAS E JUROS DE MORA                                                                                               A06000000005000000
111451130000000000000201000000020000000000003101550000IMPOSTO SOBRE SERVIOS DE QUALQUER NATUREZA - ISSQN  - DIVIDA ATIVA                                                                                                        A06000000005000000
111451140000000000000201000000010000000000000304060000IMPOSTO SOBRE SERVIOS DE QUALQUER NATUREZA - ISSQN - MULTAS E JUROS DE MORA DIVIDA ATIVA                                                                                  A06000000005000000
112000000000000000000201000003980000000000414231890000TAXAS                                                                                                                                                                     S03000000000000000
112100000000000000000201000000980000000000137903560000TAXAS PELO EXERCCIO DO PODER DE POLCIA                                                                                                                                    S04000000000000000
112101000000000000000201000000950000000000126507640000TAXAS DE INSPEO CONTROLE E FISCALIZAO                                                                                                                                     S05000000000000000
112101010000000000000201000000880000000000116518370000TAXAS DE INSPEO CONTROLE E FISCALIZAO - PRINCIPAL                                                                                                                         S06000000000000000
112101010100000000000201000000470000000000062160630000TAXA DE VISTORIA - PRINCIPAL                                                                                                                                              A07000000005010000
112101010200000000000201000000010000000000001008000000TAXA DE APROVAO DE LOTEAMENTO/FRACIONAMENTO - PRINCIPAL                                                                                                                   A07000000005010000
112101010300000000000201000000080000000000011135630000TAXA DE APROVAO DE PROJETOS DE CONSTRUO CIVIL - PRINCIPAL                                                                                                                 A07000000005010000
112101010400000000000201000000070000000000009760000000TAXA DE LICENA AMBIENTAL - PRINCIPAL                                                                                                                                      A07000000007590000
112101010500000000000201000000140000000000018798290000TAXA DE EXPEDIENTE - PRINCIPAL                                                                                                                                            A07000000005010000
112101010600000000000201000000110000000000012801580000ALVAR DE LICENA E LOCALIZAO - PRINCIPAL                                                                                                                                   A07000000005010000
112101010700000000000201000000000000000000000854240000TAXA DE SERVIOS CADASTRAIS - PRINCIPAL                                                                                                                                    A07000000005010000
112101020000000000000201000000000000000000000789970000TAXAS DE INSPEO CONTROLE E FISCALIZAO  - MULTAS E JUROS DE MORA                                                                                                           S06000000000000000
112101020100000000000201000000000000000000000649800000TAXA DE VISTORIA - MULTA E JUROS DE MORA                                                                                                                                  A07000000005010000
112101020400000000000201000000000000000000000094720000TAXA DE LICENA AMBIENTAL - MULTA E JUROS DE MORA                                                                                                                          A07000000007590000
112101020600000000000201000000000000000000000004780000ALVAR DE LICENA E LOCALIZAO - MULTA DE JUROS DE MORA                                                                                                                      A07000000005010000
112101020700000000000201000000000000000000000040670000TAXA DE SERVIOS CADASTRAIS - MULTA E JUROS DE MORA                                                                                                                        A07000000005010000
112101030000000000000201000000050000000000006196620000TAXAS DE INSPEO CONTROLE E FISCALIZAO - DIVIDA ATIVA                                                                                                                      S06000000000000000
112101030100000000000201000000050000000000005948500000TAXA DE VISTORIA - DVIDA ATIVA                                                                                                                                            A07000000005010000
112101030500000000000201000000000000000000000009000000TAXA DE EXPEDIENTE - DVIDA ATIVA                                                                                                                                          A07000000005010000
112101030600000000000201000000000000000000000239120000ALVAR DE LICENA E LOCALIZAO - DVIDA ATIVA                                                                                                                                 A07000000005010000
112101040000000000000201000000020000000000003002680000TAXAS DE INSPEO CONTROLE E FISCALIZAO - MULTAS E JUROS DE MORA DIVIDA ATIVA                                                                                               S06000000000000000
112101040100000000000201000000020000000000002870390000TAXA DE VISTORIA - MULTA E JUROS DE MORA DA DVIDA ATIVA                                                                                                                   A07000000005010000
112101040500000000000201000000000000000000000007950000TAXA DE EXPEDIENTE - MULTA E JUROS DE MORA DA DVIDA ATIVA                                                                                                                 A07000000005010000
112101040600000000000201000000000000000000000124340000ALVAR DE LICENA E LOCALIZAO - MULTA E JUROS DE MORA DA DVIDA ATIVA                                                                                                        A07000000005010000
112150000000000000000201000000030000000000011395920000TAXA DE FISCALIZAO DE VIGILNCIA SANITRIA                                                                                                                                  S05000000000000000
112150010000000000000201000000030000000000011317260000TAXA DE FISCALIZAO DE VIGILNCIA SANITRIA - PRINCIPAL                                                                                                                      A06000000005010000
112150020000000000000201000000000000000000000078660000TAXA DE FISCALIZAO DE VIGILNCIA SANITRIA  - MULTAS E JUROS DE MORA                                                                                                        A06000000005010000
112200000000000000000201000003000000000000276328330000TAXAS PELA PRESTAO DE SERVIOS                                                                                                                                             S04000000000000000
112201000000000000000201000000000000000000204278400000TAXAS PELA PRESTAO DE SERVIOS EM GERAL                                                                                                                                    S05000000000000000
112201010000000000000201000000000000000000204181810000TAXAS PELA PRESTAO DE SERVIOS EM GERAL - PRINCIPAL                                                                                                                        S06000000000000000
112201010100000000000201000000000000000000204181810000TAXA DE COLETA DE LIXO - PRINCIPAL                                                                                                                                        A07000000005010000
112201030000000000000201000000000000000000000089090000TAXAS PELA PRESTAO DE SERVIOS EM GERAL - DIVIDA ATIVA                                                                                                                     S06000000000000000
112201030100000000000201000000000000000000000089090000TAXA DE COLETA DE LIXO - DVIDA ATIVA                                                                                                                                      A07000000005010000
112201040000000000000201000000000000000000000007500000TAXAS PELA PRESTAO DE SERVIOS EM GERAL - MULTAS E JUROS DE MORA DIVIDA ATIVA                                                                                              S06000000000000000
112201040100000000000201000000000000000000000007500000TAXA DE COLETA DE LIXO - MULTA E JUROS DE MORA DA DVIDA ATIVA                                                                                                             A07000000005010000
112253000000000000000201000003000000000000072049930000TAXA PELA PRESTAO DE SERVIOS DE LIMPEZA PBLICA E MANEJO DE RESDUOS SLIDOS                                                                                                 S05000000000000000
112253010000000000000201000003000000000000046746290000TAXA PELA PRESTAO DE SERVIOS DE LIMPEZA PBLICA E MANEJO DE RESDUOS SLIDOS - PRINCIPAL                                                                                     A06000000005010000
112253030000000000000201000000000000000000023665010000TAXA PELA PRESTAO DE SERVIOS DE LIMPEZA PBLICA E MANEJO DE RESDUOS SLIDOS - DVIDA ATIVA                                                                                   A06000000005010000
112253040000000000000201000000000000000000001638630000TAXA PELA PRESTAO DE SERVIOS DE LIMPEZA PBLICA E MANEJO DE RESDUOS SLIDOS - MJM DA DVIDA ATIVA                                                                            A06000000005010000
113000000000000000000201000000000000000000034856610000CONTRIBUIO DE MELHORIA                                                                                                                                                    S03000000000000000
113100000000000000000201000000000000000000034856610000CONTRIBUIO DE MELHORIA                                                                                                                                                    S04000000000000000
113153000000000000000201000000000000000000034856610000CONTRIBUIO DE MELHORIA PARA PAVIMENTAO E OBRAS COMPLEMENTARES                                                                                                             S05000000000000000
113153010000000000000201000000000000000000034856610000CONTRIBUIO DE MELHORIA PARA PAVIMENTAO E OBRAS COMPLEMENTARES - PRINCIPAL                                                                                                 A06000000005010000
120000000000000000000201000003000000000000299724600000CONTRIBUIES                                                                                                                                                               S02000000000000000
124000000000000000000201000003000000000000299724600000CONTRIBUIO PARA O CUSTEIO DO SERVIO DE ILUMINAO PBLICA                                                                                                                    S03000000000000000
124100000000000000000201000003000000000000299724600000CONTRIBUIO PARA O CUSTEIO DO SERVIO DE ILUMINAO PBLICA                                                                                                                    S04000000000000000
124150000000000000000201000003000000000000299724600000CONTRIBUIO PARA O CUSTEIO DO SERVIO DE ILUMINAO PBLICA                                                                                                                    S05000000000000000
124150010000000000000201000003000000000000299724600000CONTRIBUIO PARA O CUSTEIO DO SERVIO DE ILUMINAO PBLICA - PRINCIPAL                                                                                                        A06000000007510000
130000000000000000000201000008350000000001180902820000RECEITA PATRIMONIAL                                                                                                                                                       S02000000000000000
131000000000000000000201000002600000000000291483190000EXPLORAO DO PATRIMNIO IMOBILIRIO DO ESTADO                                                                                                                                S03000000000000000
131100000000000000000201000002600000000000291483190000EXPLORAO DO PATRIMNIO IMOBILIRIO DO ESTADO                                                                                                                                S04000000000000000
131101000000000000000201000002600000000000291483190000ALUGUIS ARRENDAMENTOS FOROS LAUDMIOS TARIFAS DE OCUPAO                                                                                                                    S05000000000000000
131101100000000000000201000002600000000000291483190000ALUGUIS E ARRENDAMENTOS                                                                                                                                                   S06000000000000000
131101110000000000000201000002600000000000291060930000ALUGUIS E ARRENDAMENTOS - PRINCIPAL                                                                                                                                       A06000000005010000
131101130000000000000201000000000000000000000228070000ALUGUIS E ARRENDAMENTOS - DVIDA ATIVA                                                                                                                                     A06000000005010000
131101140000000000000201000000000000000000000194190000ALUGUIS E ARRENDAMENTOS - MULTA E JUROS DE MORA DA DVIDA ATIVA                                                                                                            A06000000005010000
132000000000000000000201000005750000000000889419630000VALORES MOBILIRIOS                                                                                                                                                        S03000000000000000
132100000000000000000201000005750000000000889419630000JUROS E CORREES MONETRIAS                                                                                                                                                 S04000000000000000
132101000000000000000201000005750000000000889419630000REMUNERAO DE DEPSITOS BANCRIOS                                                                                                                                            S05000000000000000
132101010000000000000201000005750000000000889419630000REMUNERAO DE DEPSITOS BANCRIOS - PRINCIPAL                                                                                                                                S06000000000000000
132101010100000000000201000000250000000000322334590000REMUNERAO DE DEPSITOS DE RECURSOS VINCULADOS                                                                                                                              S07000000000000000
132101010102000000000201000000250000000000033570210000REMUNERAO DE DEPSITOS  BANCRIOS DE RECURSOS VINCULADOS - FUNDEB                                                                                                           S08000000000000000
132101010102010000000201000000250000000000033570210000RENDIMENTOS DO FUNDEB - IMPOSTOS E TRANSFERNCIAS DE IMPOSTOS                                                                                                              A10000000005400000
132101010103000000000201000000000000000000054896140000REMUNERAO DE DEPSITOS  BANCRIOS DE RECURSOS VINCULADOS - FUNDO DE SADE                                                                                                    S08000000000000000
132101010103020000000201000000000000000000001606620000REND UBS AMIGA IDOSO PSES1097/2023                                                                                                                                        A10000000006210000
132101010103030000000201000000000000000000004926560000REND MATPERM PSES1098/2023                                                                                                                                                A10000000006210000
132101010103040000000201000000000000000000003470970000RENDIMENTOS ATENO BSICA FEDERAL RV4500                                                                                                                                    A10000000006000000
132101010103050000000201000000000000000000001094030000RENDIMENTOS VISA FF RV4502                                                                                                                                                A10000000006000000
132101010103060000000201000000000000000000001310530000RENDIMENTOS ASSISTNCIA FARMACUTICA FF RV4503                                                                                                                              A10000000006000000
132101010103070000000201000000000000000000000247620000REND INCENTIVO VIGILANCIA EM SAUDE - CUSTEIO                                                                                                                              A10000000006000000
132101010103080000000201000000000000000000000400210000REND AUXILIO ENCHENTES APS PORT SES322/2024                                                                                                                               A10000000006213201
132101010103090000000201000000000000000000000180170000RENDIMENTOS FARMCIA BSICA FE RV4050                                                                                                                                       A10000000006210000
132101010103100000000201000000000000000000002126040000REND REFORMA UBS PORT SES 369 E 653/24                                                                                                                                    A10000000006210000
132101010103110000000201000000000000000000000485140000REND DST PSES1099/2023                                                                                                                                                    A10000000006210000
132101010103120000000201000000000000000000000322620000REND ARBOVIROSES/ONDAS DE CALOR PORTSES150/2024                                                                                                                           A10000000006210000
132101010103130000000201000000000000000000004104460000REND VEICULO TRANSPORTE SANITARIO - EMENDA 151 - PORTSES160/24                                                                                                            A10000000006213210
132101010103170000000201000000000000000000000972350000REND ESTRUT ATENCAO PRIMARIA SAUDE INVEST                                                                                                                                 A10000000006013110
132101010103280000000201000000000000000000000000000000REND REDES SAUD/LINHAS CUIDADO DENGUE ZIKA CHIKINGUNYA                                                                                                                    A10000000006210000
132101010103290000000201000000000000000000004703470000REND INCREMENTO TEMP CUSTEIO AP PORT MS/GM 4358/2022                                                                                                                      A10000000006003110
132101010103300000000201000000000000000000000385650000REND TRANSFERNCIA FEDERAL PARA PISO DA ENFERMAGEM                                                                                                                         A10000000006050000
132101010103310000000201000000000000000000000888870000REND ALIENAO DE BESN DA SADE                                                                                                                                              A10000000006590000
132101010103320000000201000000000000000000013372920000REND INCREMENTO TEMPORARIO CUSTEIO EMENDAINDIV28730001/2023                                                                                                               A10000000006003110
132101010103340000000201000000000000000000000982820000REND TRANSFORMAO DIGITAL NO SUS                                                                                                                                           A10000000006000000
132101010103550000000201000000000000000000000725780000REND SEG ALIMENT NUTRIC SAUDE IMPLEMENTACAO RV4505                                                                                                                        A10000000006010000
132101010103580000000201000000000000000000000964560000REND COVID-19 SAUDE MENTAL PORTSES506/2020 RV4011                                                                                                                         A10000000006210000
132101010103600000000201000000000000000000000825310000REND ESTRUT/ADEQ ASSIST ODONT APS RV4505 PORT GM/MS 3473/2020                                                                                                             A10000000006010000
132101010103610000000201000000000000000000003393120000REND ESTRUT ATENCAO BASICA EMENDA 28620016 PORT MS/GM 961/2020 RV4505                                                                                                     A10000000006010000
132101010103770000000201000000000000000000000734520000REND EMENDA RELATOR 81000293 VEICULO RV 4505 PORT1687                                                                                                                     A10000000006010000
132101010103780000000201000000000000000000000181890000REND EQUIP ODONTO PSF/UBS REDE BEM CUIDAR PORT SES/RS 395/2022 RV4293                                                                                                     A10000000006320000
132101010103790000000201000000000000000000003334280000REND EMENDA 81000312 INCREMENTO TEMPORRIO CUSTEIO ATENO PRIMRIA                                                                                                           A10000000006003110
132101010103800000000201000000000000000000000242930000REND ESTRUT REDE APS PORT2090 EMENDA RELATOR                                                                                                                              A10000000006010000
132101010103820000000201000000000000000000000039800000REND INCENTIVO P/ CONTROLE DA TUBERCULOSE PMCT                                                                                                                            A10000000006210000
132101010103830000000201000000000000000000000162280000RENDIMENTOS NOTA FISCAL GAUCHA PROGRAMA SOLIDARIEDADE RV4300                                                                                                              A10000000006210000
132101010103840000000201000000000000000000002014340000REND CASTRAO DE ANIMAIS - PROJETO MELHORES AMIGOS CONVFPE4758/2022-SICDHAS                                                                                                A10000000006320000
132101010103850000000201000000000000000000000696280000REND CONTRAP CASTRAO DE ANIMAIS - PROJETO MELHORES AMIGOS CONVFPE4758/2022-SICDHAS                                                                                        A10000000005000000
132101010106000000000201000000000000000000000390290000REMUNERAO DE DEPSITOS  BANCRIOS DE RECURSOS VINCULADOS - CONTRIBUIO DE INTERVENO NO DOMNIO ECONMICO - CIDE                                                                A08000000007500000
132101010107000000000201000000000000000000014215770000REMUNERAO DE DEPSITOS  BANCRIOS DE RECURSOS VINCULADOS - FUNDO NACIONAL DE ASSISTNCIA SOCIAL - FNAS                                                                       S08000000000000000
132101010107010000000201000000000000000000000587600000RENDIMENTOS PAIF - PSB PBFI FMAS RV1064                                                                                                                                   A10000000006600000
132101010107020000000201000000000000000000000517940000RENDIMENTOS SCFV - PSB SCFV FMAS RV1021                                                                                                                                   A10000000006600000
132101010107030000000201000000000000000000001154190000RENDIMENTOS GBF IGD-BF RV1038                                                                                                                                             A10000000006600000
132101010107050000000201000000000000000000000765720000RENDIMENTOS OASF/FEAS RV1103                                                                                                                                              A10000000006650000
132101010107060000000201000000000000000000005245400000REND CONVENIO STDP-RS 2478/2023                                                                                                                                           A10000000006650000
132101010107080000000201000000000000000000000223020000REND COVID-19/SUAS PORT MC 751/2022 RV1019                                                                                                                                A10000000006600000
132101010107110000000201000000000000000000000122530000REND PROCAD-SUAS                                                                                                                                                          A10000000006600000
132101010107120000000201000000000000000000004159990000REND CONVENIO STDP-RS 949/2023                                                                                                                                            A10000000006650000
132101010107130000000201000000000000000000001156070000REND-SIGTV- ESTRUT REDE SV SUAS-CUSTEIO                                                                                                                                   A10000000006603110
132101010107140000000201000000000000000000000253140000REND INCREMENTO TEMP PSB MP1218/24                                                                                                                                        A10000000006603101
132101010107150000000201000000000000000000000030170000REND FEAS PISO GACHO REGULAR                                                                                                                                              A10000000006610000
132101010108000000000201000000000000000000034101560000REMUNERAO DE DEPSITOS  BANCRIOS DE RECURSOS VINCULADOS - FUNDO NACIONAL DE DESENVOLVIMENTO DA EDUCAO - FNDE                                                               S08000000000000000
132101010108010000000201000000000000000000001045570000RENDIMENTOS PNAE                                                                                                                                                          A10000000005520000
132101010108020000000201000000000000000000006520260000RENDIMENTOS QSE RV1014                                                                                                                                                    A10000000005500000
132101010108030000000201000000000000000000000675510000RENDIMENTOS PNATE RV1016                                                                                                                                                  A10000000005530000
132101010108040000000201000000000000000000016934680000REND EDUC INF NOVAS TURMAS RV1003                                                                                                                                         A10000000005690000
132101010108050000000201000000000000000000000291540000REND FNDE/PAR/MOBILIARIO 2023                                                                                                                                             A10000000005690000
132101010108060000000201000000000000000000008634000000REND ESCOLA TEMPO INTEGRAL                                                                                                                                                A10000000005690000
132101010199000000000201000000000000000000185160620000REMUNERAO DE OUTROS DEPSITOS  BANCRIOS DE RECURSOS VINCULADOS                                                                                                             S08000000000000000
132101010199010000000201000000000000000000006935530000RENDIMENTOS FMDMA RV1005                                                                                                                                                  A10000000007590000
132101010199020000000201000000000000000000007797200000REND PAVIMENTA RS/ETAPA 2 70109 CONVENIO FPE 2023/5253                                                                                                                    A10000000007010000
132101010199030000000201000000000000000000006394470000REND CONTRAP PAVIMENTA RS/ETAPA 2 70109 CONVENIO FPE 2023/5253                                                                                                            A10000000005000000
132101010199040000000201000000000000000000005174650000RENDIMENTOS IR DOAO FUNDICA RV1050                                                                                                                                        A10000000007590000
132101010199050000000201000000000000000000008811370000REND INVESTIMENTO EMENIND 28610007                                                                                                                                        A10000000007063110
132101010199060000000201000000000000000000005124120000REND INVESTIMENTO EMENIND 30770001                                                                                                                                        A10000000007063110
132101010199070000000201000000000000000000007101490000REND INVESTIMENTO EMENIND 28620008                                                                                                                                        A10000000007063110
132101010199080000000201000000000000000000003124660000REND INVESTIMENTO EMENIND32980001                                                                                                                                         A10000000007063110
132101010199090000000201000000000000000000000407080000REND PAVIMENTAO URBANA SICONV917782/2021                                                                                                                                  A10000000007000000
132101010199100000000201000000000000000000006983510000POUP PAVIMENTAO URBANA SICONV917782/2021                                                                                                                                  A10000000007000000
132101010199110000000201000000000000000000000192350000REND PIT FE - PROGRAMA DE INTEGRAO TRIBUTRIA RV1112                                                                                                                       A10000000007010000
132101010199130000000201000000000000000000000633920000POUP CONTRAP PAVIMENTAO URBANA SICONV917782/2021                                                                                                                          A10000000005000000
132101010199150000000201000000000000000000000741990000REND ESCAVAO DE MICROAUDES - AVANAR RS                                                                                                                                    A10000000007010000
132101010199170000000201000000000000000000000145850000REND CUSTEIO EMENDIND32980001                                                                                                                                             A10000000007063110
132101010199180000000201000000000000000000000364630000REND INVESTIMENTO EMENDIND3666011                                                                                                                                         A10000000007063110
132101010199190000000201000000000000000000000729260000REND INVESTIMENTO EMENDIND24070001                                                                                                                                        A10000000007063110
132101010199200000000201000000000000000000018027110000REND PAVIMENTACAO ECOVILLA CONV FPE 456/2022 FE                                                                                                                           A10000000007010000
132101010199210000000201000000000000000000009184400000REND PAVIMENTA RS FE RV1212                                                                                                                                               A10000000007010000
132101010199220000000201000000000000000000000472160000REND CONTRAPARTIDA PAVIMENTA RS FE RV1212                                                                                                                                 A10000000005000000
132101010199250000000201000000000000000000001158640000REND TRANSF ESP PAVIMENT CIDADE-BUDEL-ALEGRIA EMEND IND 36660001 RV1028                                                                                                   A10000000007003110
132101010199300000000201000000000000000000004913310000RENDIMENTOS PEATE RS RV1017                                                                                                                                               A10000000005710000
132101010199310000000201000000000000000000004562460000REND CONSTR POO TUBULAR PROFUNDO PROG AVANAR RS CONVFPE2268/22                                                                                                            A10000000007010000
132101010199320000000201000000000000000000004010260000REND CIP                                                                                                                                                                  A10000000007510000
132101010199330000000201000000000000000000007216240000REND FEP                                                                                                                                                                  A10000000007040000
132101010199370000000201000000000000000000009221710000REND PAV AREA INDUSTRIAL TRANSFESPEMENDAIND41210001 1030BR 70601                                                                                                          A10000000007063110
132101010199390000000201000000000000000000003992290000REND CONSTRUO DE CISTERNAS CONVFPE2411/2022                                                                                                                               A10000000007010000
132101010199400000000201000000000000000000003668590000REND LC195/22 LEI PAULO GUSTAVO ART5                                                                                                                                      A10000000007150000
132101010199410000000201000000000000000000001357780000REND LC195/22 LEI PAULO GUSTAVO ART8                                                                                                                                      A10000000007160000
132101010199440000000201000000000000000000000070020000REND CFEM-PRODUO MINERAL                                                                                                                                                  A10000000007080000
132101010199450000000201000000000000000000020615940000REND PAVIMENTACAO ESTRADAS RURAIS EMENDA IMPOSITIVA 28610005/2023                                                                                                         A10000000007063110
132101010199460000000201000000000000000000003679840000REND COLHEDORA DE FORRAGENS CONV FPE 1447/2023-SDR/RS                                                                                                                     A10000000007010000
132101010199470000000201000000000000000000026708530000REND DEFESA CIVIL PORTCM19/2023                                                                                                                                           A10000000007490000
132101010199480000000201000000000000000000004630360000REND CONSTRUO DE PONTE COLNIA MEDEIROS-GIRU                                                                                                                               A10000000007020000
132101010199490000000201000000000000000000000034800000REND MULTA DE TRNSITO                                                                                                                                                     A10000000007520000
132101010199500000000201000000000000000000000974100000REND INVESTIMENTO EMENDIND90480002                                                                                                                                        A10000000007063110
132101010200000000000201000005500000000000567085040000REMUNERAO DE DEPSITOS DE RECURSOS NO VINCULADOS                                                                                                                           S07000000000000000
132101010299000000000201000005500000000000567085040000REMUNERAO DE OUTROS DEPSITOS  BANCRIOS DE RECURSOS NO VINCULADOS                                                                                                          S08000000000000000
132101010299010000000201000001700000000000145697040000RENDIMENTOS PODER EXECUTIVO - BB                                                                                                                                          A10000000005000000
132101010299020000000201000001000000000000096857270000RENDIMENTOS PODER EXECUTIVO - BANRISUL                                                                                                                                    A10000000005000000
132101010299050000000201000000300000000000059486680000RENDIMENTOS PODER LEGISLATIVO - BANRISUL                                                                                                                                  A10000000005000000
132101010299070000000201000002500000000000220008400000RENDIMENTOS PODER EXECUTIVO - SICREDI                                                                                                                                     A10000000005000000
132101010299080000000201000000000000000000001194630000REND CONTRAP CONSTR POO TUBULAR PROFUNDO PROG AVANAR RS CONVFPE2268/22                                                                                                    A10000000005000000
132101010299100000000201000000000000000000028240600000REND FR501 BB                                                                                                                                                             A10000000005010000
132101010299120000000201000000000000000000002989120000RENDIMENTOS FR502 BANRISUL                                                                                                                                                A10000000005020000
132101010299140000000201000000000000000000000882280000REND CONTRAP CONVENIO STDP-RS 949/2023                                                                                                                                    A10000000005000000
132101010299160000000201000000000000000000001494770000REND CONTRAP COLHEDORA DE FORRAGENS CONV FPE 1447/2023-SDR/RS                                                                                                             A10000000005000000
132101010299170000000201000000000000000000001410960000REND CONTRAP CONVENIO STDP-RS 2478/2023                                                                                                                                   A10000000005000000
132101010299320000000201000000000000000000008823290000REND CONTRAP PAVIMENTACAO ECOVILLA CONV FPE 456/2022 FE                                                                                                                   A10000000005000000
160000000000000000000201000000370000000000060007870000RECEITA DE SERVIOS                                                                                                                                                        S02000000000000000
161000000000000000000201000000370000000000060007870000SERVIOS ADMINISTRATIVOS E COMERCIAIS GERAIS                                                                                                                               S03000000000000000
161100000000000000000201000000370000000000060007870000SERVIOS ADMINISTRATIVOS E COMERCIAIS GERAIS                                                                                                                               S04000000000000000
161101000000000000000201000000370000000000060007870000SERVIOS ADMINISTRATIVOS E COMERCIAIS GERAIS PRESTADOS POR ENTIDADES E RGOS PBLICOS EM GERAL                                                                               S05000000000000000
161101010000000000000201000000370000000000058173250000SERVIOS ADMINISTRATIVOS E COMERCIAIS GERAIS PRESTADOS POR ENTIDADES E RGOS PBLICOS EM GERAL - PRINCIPAL                                                                   S06000000000000000
161101010100000000000201000000370000000000058173250000SERVIOS DE MQUINAS - PRINCIPAL                                                                                                                                            A07000000005010000
161101020000000000000201000000000000000000000118700000SERVIOS ADMINISTRATIVOS E COMERCIAIS GERAIS PRESTADOS POR ENTIDADES E RGOS PBLICOS EM GERAL - MULTA E JUROS DE MORA                                                       S06000000000000000
161101020100000000000201000000000000000000000118700000SERVIOS DE MQUINAS - MULTA E JUROS DE MORA                                                                                                                                A07000000005010000
161101030000000000000201000000000000000000001603710000SERVIOS ADMINISTRATIVOS E COMERCIAIS GERAIS PRESTADOS POR ENTIDADES E RGOS PBLICOS EM GERAL - DVIDA ATIVA                                                                 S06000000000000000
161101030100000000000201000000000000000000001603710000SERVIOS DE MQUINAS - DVIDA ATIVA                                                                                                                                          A07000000005010000
161101040000000000000201000000000000000000000112210000SERVIOS ADMINISTRATIVOS E COMERCIAIS GERAIS PRESTADOS POR ENTIDADES E RGOS PBLICOS EM GERAL - MULTA E JUROS DE MORA DA DVIDA ATIVA                                        S06000000000000000
161101040100000000000201000000000000000000000112210000SERVIOS DE MQUINA - MULTA E JUROS DA DVIDA ATIVA                                                                                                                          A07000000005010000
170000000000000000000201000414447278300044287745670000TRANSFERNCIAS CORRENTES                                                                                                                                                   S02000000000000000
171000000000000000000201000198585000000020670689750000TRANSFERNCIAS DA UNIO E DE SUAS ENTIDADES                                                                                                                                 S03000000000000000
171100000000000000000201000173300000000017398987900000TRANSFERNCIAS DECORRENTES DE PARTICIPAO NA RECEITA DA UNIO                                                                                                                S04000000000000000
171151000000000000000201000171000000000016917535540000COTA-PARTE DO FUNDO DE PARTICIPAO DOS MUNICPIOS - FPM                                                                                                                     S05000000000000000
171151100000000000000201000155000000000015334476550000COTA-PARTE DO FUNDO DE PARTICIPAO DOS MUNICPIOS - COTA MENSAL                                                                                                             S06000000000000000
171151110000000000000201000155000000000015334476550000COTA-PARTE DO FUNDO DE PARTICIPAO DOS MUNICPIOS - COTA MENSAL                                                                                                             A06000000005000000
171151200000000000000201000016000000000001583058990000COTA-PARTE DO FUNDO DE PARTICIPAO DOS MUNICPIOS - COTAS EXTRAORDINRIAS                                                                                                    S06000000000000000
171151210000000000000201000016000000000001583058990000COTA-PARTE DO FUNDO DE PARTICIPAO DOS MUNICPIOS - COTAS EXTRAORDINRIAS                                                                                                    S06000000000000000
171151210100000000000201000006800000000000632894030000COTA-EXTRA DO FPM EM JULHO                                                                                                                                                A07000000005000000
171151210200000000000201000002000000000000276229630000COTA-EXTRA DO FPM EM SETEMBRO                                                                                                                                             A07000000005000000
171151210300000000000201000007200000000000673935330000COTA-EXTRA DO FPM EM DEZEMBRO                                                                                                                                             A07000000005000000
171152000000000000000201000002300000000000481452360000COTA-PARTE DO IMPOSTO SOBRE A PROPRIEDADE TERRITORIAL RURAL                                                                                                               S05000000000000000
171152010000000000000201000002300000000000481452360000COTA-PARTE DO IMPOSTO SOBRE A PROPRIEDADE TERRITORIAL RURAL                                                                                                               A06000000005000000
171200000000000000000201000001620000000000305857100000TRANSFERNCIAS DAS COMPENSAES FINANCEIRAS PELA EXPLORAO DE RECURSOS NATURAIS                                                                                               S04000000000000000
171251000000000000000201000000000000000000001368190000COTA-PARTE DA COMPENSAO FINANCEIRA PELA EXPLORAO DE RECURSOS MINERAIS - CFEM                                                                                              S05000000000000000
171251010000000000000201000000000000000000001368190000COTA-PARTE DA COMPENSAO FINANCEIRA PELA EXPLORAO DE RECURSOS MINERAIS - CFEM                                                                                              A06000000007080000
171252000000000000000201000001620000000000304488910000COTA-PARTE DA COMPENSAO FINANCEIRA PELA PRODUO DE PETRLEO                                                                                                                 S05000000000000000
171252400000000000000201000001620000000000304488910000COTA-PARTE DO FUNDO ESPECIAL DO PETRLEO  FEP                                                                                                                              S06000000000000000
171252410000000000000201000001620000000000304488910000COTA-PARTE DO FUNDO ESPECIAL DO PETRLEO  FEP                                                                                                                              A06000000007040000
171300000000000000000201000014470000000001789177010000TRANSFERNCIAS DE RECURSOS DO SISTEMA NICO DE SADE  SUS                                                                                                                    S04000000000000000
171350000000000000000201000014470000000001789177010000TRANSFERNCIAS DE RECURSOS DO SISTEMA NICO DE SADE  SUS  REPASSES FUNDO A FUNDO - BLOCO DE MANUTENO DAS AES E SERVIOS PBLICOS DE SADE                                      S05000000000000000
171350100000000000000201000013020000000001509442480000TRANSFERNCIAS DE RECURSOS DO BLOCO DE MANUTENO DAS AES E SERVIOS PBLICOS DE SADE  ATENO PRIMRIA                                                                           S06000000000000000
171350110000000000000201000013020000000001509442480000TRANSFERNCIAS DE RECURSOS DO BLOCO DE MANUTENO DAS AES E SERVIOS PBLICOS DE SADE  ATENO PRIMRIA                                                                           S06000000000000000
171350110100000000000201000003380000000000587392000000TRANSFERNCIA FEDERAL PARA O PISO DOS ACS                                                                                                                                  A07000000006040000
171350110200000000000201000009640000000000922050480000PISO DA ATENO PRIMRIA EM SADE                                                                                                                                             A07000000006000000
171350200000000000000201000000090000000000008829960000TRANSFERNCIAS DE RECURSOS DO BLOCO DE MANUTENO DAS AES E SERVIOS PBLICOS DE SADE  ATENO ESPECIALIZADA                                                                     S06000000000000000
171350210000000000000201000000090000000000008829960000TRANSFERNCIAS DE RECURSOS DO BLOCO DE MANUTENO DAS AES E SERVIOS PBLICOS DE SADE  ATENO ESPECIALIZADA                                                                     S06000000000000000
171350210100000000000201000000090000000000008829960000MAC ATENO ESPECIALIZADA                                                                                                                                                   A07000000006000000
171350300000000000000201000000830000000000143887210000TRANSFERNCIAS DE RECURSOS DO BLOCO DE MANUTENO DAS AES E SERVIOS PBLICOS DE SADE  VIGILNCIA EM SADE                                                                       S06000000000000000
171350310000000000000201000000830000000000143887210000TRANSFERNCIAS DE RECURSOS DO BLOCO DE MANUTENO DAS AES E SERVIOS PBLICOS DE SADE  VIGILNCIA EM SADE                                                                       S06000000000000000
171350310100000000000201000000830000000000067460000000TRANSFERNCIA FEDERAL PARA O PISO DOS ACE                                                                                                                                  A07000000006040000
171350310200000000000201000000000000000000012000000000VIGLNCIA SANITRIA                                                                                                                                                         A07000000006000000
171350310300000000000201000000000000000000064427210000INCENTIVO VIGILANCIA EM SAUDE - CUSTEIO                                                                                                                                   A07000000006000000
171350400000000000000201000000530000000000059267930000TRANSFERNCIAS DE RECURSOS DO BLOCO DE MANUTENO DAS AES E SERVIOS PBLICOS DE SADE  ASSISTNCIA FARMACUTICA                                                                  S06000000000000000
171350410000000000000201000000530000000000059267930000TRANSFERNCIAS DE RECURSOS DO BLOCO DE MANUTENO DAS AES E SERVIOS PBLICOS DE SADE  ASSISTNCIA FARMACUTICA                                                                  S06000000000000000
171350410100000000000201000000530000000000059267930000FARMCIA BSICA                                                                                                                                                             A07000000006000000
171350500000000000000201000000000000000000067749430000TRANSFERNCIAS DE RECURSOS DO BLOCO DE MANUTENO DAS AES E SERVIOS PBLICOS DE SADE  GESTO DO SUS                                                                            S06000000000000000
171350510000000000000201000000000000000000067749430000TRANSFERNCIAS DE RECURSOS DO BLOCO DE MANUTENO DAS AES E SERVIOS PBLICOS DE SADE  GESTO DO SUS                                                                            S06000000000000000
171350510100000000000201000000000000000000049224630000TRANSFERNCIA FEDERAL PARA PISO DA ENFERMAGEM                                                                                                                              A07000000006050000
171350510200000000000201000000000000000000018524800000TRANSFORMAO DIGITAL NO SUS                                                                                                                                                A07000000006000000
171400000000000000000201000006040000000000797358970000TRANSFERNCIAS DE RECURSOS DO FUNDO NACIONAL DO DESENVOLVIMENTO DA EDUCAO  FNDE                                                                                            S04000000000000000
171450000000000000000201000004400000000000414146150000TRANSFERNCIAS DOSALRIO-EDUCAO                                                                                                                                            S05000000000000000
171450010000000000000201000004400000000000414146150000TRANSFERNCIAS DOSALRIO-EDUCAO                                                                                                                                            A06000000005500000
171452000000000000000201000001060000000000125397800000TRANSFERNCIAS REFERENTES AO PROGRAMA NACIONAL DE ALIMENTAO ESCOLAR  PNAE                                                                                                  S05000000000000000
171452010000000000000201000001060000000000125397800000TRANSFERNCIAS REFERENTES AO PROGRAMA NACIONAL DE ALIMENTAO ESCOLAR  PNAE - PRINCIPAL                                                                                      A06000000005520000
171453000000000000000201000000580000000000050510460000TRANSFERNCIAS REFERENTES AO PROGRAMA NACIONAL DE APOIO AO TRANSPORTE DO ESCOLAR  PNATE                                                                                    S05000000000000000
171453010000000000000201000000580000000000050510460000TRANSFERNCIAS REFERENTES AO PROGRAMA NACIONAL DE APOIO AO TRANSPORTE DO ESCOLAR  PNATE                                                                                    A06000000005530000
171499000000000000000201000000000000000000207304560000OUTRAS TRANSFERNCIAS DIRETAS DO FUNDO NACIONAL DO DESENVOLVIMENTO DA EDUCAO - FNDE                                                                                        S05000000000000000
171499010000000000000201000000000000000000207304560000OUTRAS TRANSFERNCIAS DIRETAS DO FUNDO NACIONAL DO DESENVOLVIMENTO DA EDUCAO - FNDE                                                                                        S06000000000000000
171499010100000000000201000000000000000000135458000000NOVAS TURMAS FNDE                                                                                                                                                         A07000000005690000
171499010200000000000201000000000000000000071846560000ESCOLA TEMPO INTEGRAL                                                                                                                                                     A07000000005690000
171600000000000000000201000002105000000000259200850000TRANSFERNCIAS DE RECURSOS DO FUNDO NACIONAL DE ASSISTNCIA SOCIAL  FNAS                                                                                                    S04000000000000000
171650000000000000000201000002105000000000259200850000TRANSFERNCIAS DE RECURSOS DO FUNDO NACIONAL DE ASSISTNCIA SOCIAL  FNAS                                                                                                    S05000000000000000
171650010000000000000201000002105000000000259200850000TRANSFERNCIAS DE RECURSOS DO FUNDO NACIONAL DE ASSISTNCIA SOCIAL  FNAS                                                                                                    S06000000000000000
171650010200000000000201000001200000000000054160140000SCFV                                                                                                                                                                      A07000000006600000
171650010300000000000201000000470000000000049038030000PAIF                                                                                                                                                                      A07000000006600000
171650010400000000000201000000300000000000035800000000IGD/BF                                                                                                                                                                    A07000000006600000
171650010600000000000201000000135000000000000000000000PROCAD-SUAS                                                                                                                                                               A07000000006600000
171650010700000000000201000000000000000000100000000000SIGTV- ESTRUT REDE SV SUAS-CUSTEIO                                                                                                                                        A07000000006603110
171650010800000000000201000000000000000000020202680000INCREMENTO TEMP PSB MP1218/24                                                                                                                                             A07000000006603101
171900000000000000000201000001050000000000120107920000OUTRAS TRANSFERNCIAS DE RECURSOS DA UNIO E DE SUAS ENTIDADES                                                                                                              S04000000000000000
171957000000000000000201000000000000000000040000000000TRANSFERNCIA ESPECIAL DA UNIO                                                                                                                                             S05000000000000000
171957010000000000000201000000000000000000040000000000TRANSFERNCIA ESPECIAL DA UNIO                                                                                                                                             S06000000000000000
171957010100000000000201000000000000000000040000000000CUSTEIO EMENDIND32980001                                                                                                                                                  A07000000007063110
171958000000000000000201000001050000000000080107920000TRANSFERNCIA OBRIGATRIA DECORRENTE DA LEI COMPLEMENTAR N 176/2020                                                                                                         S05000000000000000
171958010000000000000201000001050000000000080107920000TRANSFERNCIA OBRIGATRIA DECORRENTE DA LEI COMPLEMENTAR N 176/2020                                                                                                         A06000000005010000
172000000000000000000201000160662278300016803035300000TRANSFERNCIAS DOS ESTADOS E DO DISTRITO FEDERAL E DE SUAS ENTIDADES                                                                                                       S03000000000000000
172100000000000000000201000151490000000015681090440000PARTICIPAO NA RECEITA DOS ESTADOS E DISTRITO FEDERAL                                                                                                                      S04000000000000000
172150000000000000000201000136000000000014099839090000COTA-PARTE DO ICMS                                                                                                                                                        S05000000000000000
172150010000000000000201000136000000000014099839090000COTA-PARTE DO ICMS                                                                                                                                                        A06000000005000000
172151000000000000000201000013860000000001391896940000COTA-PARTE DO IPVA                                                                                                                                                        S05000000000000000
172151010000000000000201000013860000000001391896940000COTA-PARTE DO IPVA                                                                                                                                                        A06000000005000000
172152000000000000000201000001560000000000178221590000COTA-PARTE DO IPI - MUNICPIOS                                                                                                                                             S05000000000000000
172152010000000000000201000001560000000000178221590000COTA-PARTE DO IPI - MUNICPIOS                                                                                                                                             A06000000005000000
172153000000000000000201000000070000000000011132820000COTA-PARTE DA CONTRIBUIO DE INTERVENO NO DOMNIO ECONMICO                                                                                                                  S05000000000000000
172153010000000000000201000000070000000000011132820000COTA-PARTE DA CONTRIBUIO DE INTERVENO NO DOMNIO ECONMICO                                                                                                                  A06000000007500000
172300000000000000000201000005550000000000543293650000TRANSFERNCIAS DE RECURSOS DO SISTEMA NICO DE SADE  SUS                                                                                                                    S04000000000000000
172350000000000000000201000005550000000000543293650000TRANSFERNCIAS DE RECURSOS DO SISTEMA NICO DE SADE  SUS                                                                                                                    S05000000000000000
172350010000000000000201000005550000000000543293650000TRANSFERNCIAS DE RECURSOS DO SISTEMA NICO DE SADE  SUS                                                                                                                    S06000000000000000
172350010100000000000201000002550000000000174925020000PIAPS - SOCIODEMOGRFICO                                                                                                                                                   A07000000006210000
172350010200000000000201000002000000000000107755850000PIAPS - INCENTIVO APS                                                                                                                                                     A07000000006210000
172350010300000000000201000000500000000000029003000000PIAPS - PIM                                                                                                                                                               A07000000006210000
172350010400000000000201000000500000000000014526820000PIAPS - FARMCIA BSICA                                                                                                                                                     A07000000006210000
172350010500000000000201000000000000000000004615980000PROGRAMA SOLIDARIEDADE NFG RV 062110                                                                                                                                      A07000000006210000
172350010700000000000201000000000000000000000600000000INCENTIVO P/ CONTROLE DA TUBERCULOSE PMCT                                                                                                                                 A07000000006210000
172350010800000000000201000000000000000000025000000000ARBOVIROSES/ONDAS DE CALOR PORTSES150/2024                                                                                                                                A07000000006210000
172350010900000000000201000000000000000000015879000000AUXILIO ENCHENTES APS PORT SES322/2024                                                                                                                                    A07000000006213201
172350011000000000000201000000000000000000170427980000REFORMA UBS PORT SES 369 E 653/24                                                                                                                                         A07000000006210000
172350011100000000000201000000000000000000000560000000PRTESE DENTRIA PORTSES 82/2024 E 110/2024                                                                                                                                 A07000000006210000
172400000000000000000201000003622278300000372323970000TRANSFERNCIAS DE CONVNIOS DOS ESTADOS E DF E DE SUAS ENTIDADES                                                                                                            S04000000000000000
172451000000000000000201000003150000000000279025300000TRANSFERNCIAS DE CONVNIOS DOS ESTADOS DESTINADAS A PROGRAMAS DE EDUCAO                                                                                                    S05000000000000000
172451010100000000000201000003150000000000279025300000TRANSFERNCIAS DE CONVNIOS PARA O TRANSPORTE ESCOLAR                                                                                                                       S07000000000000000
172451010101000000000201000003150000000000279025300000TE PEATE RS                                                                                                                                                               A08000000005710000
172499000000000000000201000000472278300000093298670000OUTRAS TRANSFERNCIAS DE CONVNIOS DOS ESTADOS E DF E DE SUAS ENTIDADES                                                                                                     S05000000000000000
172499010000000000000201000000472278300000093298670000OUTRAS TRANSFERNCIAS DE CONVNIOS DOS ESTADOS E DF E DE SUAS ENTIDADES - PRINCIPAL                                                                                         S06000000000000000
172499010200000000000201000000041252900000000000000000REVISAO DE BENEFCIOS DE PRESTAO CONTINUADA - BPC                                                                                                                          A07000000006650000
172499010700000000000201000000096025400000009602540000PROGRAMA OASF - ORIENTAO E APOIO SCIO-FAMILIAR                                                                                                                            A07000000006650000
172499019900000000000201000000335000000000083696130000OUTRAS TRANSFERNCIAS DE CONVNIOS DOS ESTADOS E DF E DE SUAS ENTIDADES                                                                                                     S07000000000000000
172499019901000000000201000000330000000000033000000000PIT FE - PROGRAMA DE INTEGRAO TRIBUTRIA                                                                                                                                   A08000000007010000
172499019902000000000201000000005000000000000696130000COTA-PARTE DAS MULTAS DE TRNSITO - PRINCIPAL                                                                                                                              A08000000007520000
172499019907000000000201000000000000000000050000000000CONVENIO STDP-RS 949/2023                                                                                                                                                 A08000000006650000
172900000000000000000201000000000000000000206327240000OUTRAS TRANSFERNCIAS DOS ESTADOS E DISTRITO FEDERAL                                                                                                                       S04000000000000000
172951000000000000000201000000000000000000022973950000TRANSFERNCIAS DE ESTADOS DESTINADAS  ASSISTNCIA SOCIAL                                                                                                                    S05000000000000000
172951010000000000000201000000000000000000022973950000TRANSFERNCIAS DE ESTADOS DESTINADAS  ASSISTNCIA SOCIAL                                                                                                                    S06000000000000000
172951010200000000000201000000000000000000022973950000FEAS PISO GACHO REGULAR                                                                                                                                                   A07000000006610000
172953000000000000000201000000000000000000183353290000COTA-PARTE DE COMPENSAES DE IMPOSTOS                                                                                                                                      S05000000000000000
172953010000000000000201000000000000000000183353290000COTA-PARTE DE COMPENSAES DE IMPOSTOS - PRINCIPAL                                                                                                                          S06000000000000000
172953010100000000000201000000000000000000183353290000COTA-PARTE PERDAS 0502 ICMS LC 194/2022                                                                                                                                   A07000000005020000
174000000000000000000201000000000000000000037000000000TRANSFERNCIAS DE INSTITUIES PRIVADAS                                                                                                                                      S03000000000000000
174100000000000000000201000000000000000000037000000000TRANSFERNCIAS DE INSTITUIES PRIVADAS                                                                                                                                      S04000000000000000
174199000000000000000201000000000000000000037000000000OUTRAS TRANSFERNCIAS DE INSTITUIES PRIVADAS                                                                                                                               S05000000000000000
174199010100000000000201000000000000000000037000000000DOAES EM BENEFCIO DE CRIANAS E ADOLESCENTES - PJ                                                                                                                          A07000000007590000
175000000000000000000201000055200000000006729745720000TRANSFERNCIAS DE OUTRAS INSTITUIES PBLICAS                                                                                                                                S03000000000000000
175100000000000000000201000055200000000006729745720000TRANSFERNCIAS DE RECURSOS DO FUNDO DE MANUTENO E DESENVOLVIMENTO DA EDUCAO BSICA E DE VALORIZAO DOS PROFISSIONAIS DA EDUCAO - FUNDEB                                      S04000000000000000
175150000000000000000201000055200000000006729745720000TRANSFERNCIAS DE RECURSOS DO FUNDO DE MANUTENO E DESENVOLVIMENTO DA EDUCAO BSICA E DE VALORIZAO DOS PROFISSIONAIS DA EDUCAO  FUNDEB                                       S05000000000000000
175150010000000000000201000055200000000006729745720000TRANSFERNCIAS DE RECURSOS DO FUNDO DE MANUTENO E DESENVOLVIMENTO DA EDUCAO BSICA E DE VALORIZAO DOS PROFISSIONAIS DA EDUCAO  FUNDEB                                       S06000000000000000
175150010100000000000201000055200000000006729745720000TRANSFERNCIAS DO FUNDEB - IMPOSTOS E TRANSFERNCIAS DE IMPOSTOS                                                                                                            A07000000005400000
179000000000000000000201000000000000000000047274900000DEMAIS TRANSFERNCIAS CORRENTES                                                                                                                                            S03000000000000000
179100000000000000000201000000000000000000047274900000TRANSFERNCIAS DE PESSOAS FSICAS                                                                                                                                           S04000000000000000
179199000000000000000201000000000000000000047274900000OUTRAS TRANSFERNCIAS DE PESSOAS FSICAS                                                                                                                                    S05000000000000000
179199010100000000000201000000000000000000047274900000DOAES EM BENEFCIO DE CRIANAS E ADOLESCENTES - PF                                                                                                                          A07000000007590000
190000000000000000000201000003360000000000602100380000OUTRAS RECEITAS CORRENTES                                                                                                                                                 S02000000000000000
192000000000000000000201000001960000000000237265360000INDENIZAES RESTITUIES E RESSARCIMENTOS                                                                                                                                    S03000000000000000
192100000000000000000201000000000000000000039445280000INDENIZAES                                                                                                                                                                S04000000000000000
192101000000000000000201000000000000000000009445280000INDENIZAES POR DANOS CAUSADOS AO PATRIMNIO PBLICO                                                                                                                         S05000000000000000
192101010000000000000201000000000000000000009445280000INDENIZAES POR DANOS CAUSADOS AO PATRIMNIO PBLICO - PRINCIPAL                                                                                                             A06000000005010000
192199000000000000000201000000000000000000030000000000OUTRAS INDENIZAES                                                                                                                                                         S05000000000000000
192199010000000000000201000000000000000000030000000000OUTRAS INDENIZAES - PRINCIPAL                                                                                                                                             A06000000005010000
192200000000000000000201000001960000000000197820080000RESTITUIES                                                                                                                                                                S04000000000000000
192201000000000000000201000000000000000000002592370000RESTITUIO DE CONVNIOS                                                                                                                                                     S05000000000000000
192201100000000000000201000000000000000000002592370000RESTITUIO DE CONVNIOS - PRIMRIAS                                                                                                                                          S06000000000000000
192201110000000000000201000000000000000000002592370000RESTITUIO DE CONVNIOS - PRIMRIAS - PRINCIPAL                                                                                                                              A06000000005010000
192202000000000000000201000001200000000000118943620000RESTITUIO DE BENEFCIOS NO DESEMBOLSADOS                                                                                                                                   S05000000000000000
192202010000000000000201000001200000000000118943620000RESTITUIO DE BENEFCIOS NO DESEMBOLSADOS - PRINCIPAL                                                                                                                       S06000000000000000
192202010100000000000201000001200000000000118943620000PARTICIPAO DOS SERVIDORES NO AUXLIO-ALIMENTAO - PRINCIPAL                                                                                                                 A07000000005010000
192206000000000000000201000000000000000000002430570000RESTITUIO DE DESPESAS DE EXERCCIOS ANTERIORES                                                                                                                             S05000000000000000
192206300000000000000201000000000000000000002430570000RESTITUIO DE DESPESAS PRIMRIAS DE EXERCCIOS ANTERIORES                                                                                                                    S06000000000000000
192206310000000000000201000000000000000000002430570000RESTITUIO DE DESPESAS PRIMRIAS DE EXERCCIOS ANTERIORES - PRINCIPAL                                                                                                        A06000000005010000
192299000000000000000201000000760000000000073853520000OUTRAS RESTITUIES                                                                                                                                                         S05000000000000000
192299010000000000000201000000760000000000073606120000OUTRAS RESTITUIES - PRINCIPAL                                                                                                                                             S06000000000000000
192299010200000000000201000000760000000000073606120000PROGRAMA TROCA-TROCA - PRINCIPAL                                                                                                                                          A07000000005010000
192299020000000000000201000000000000000000000247400000OUTRAS RESTITUIES - MULTA E JUROS DE MORA                                                                                                                                 S06000000000000000
192299020100000000000201000000000000000000000247400000PROGRAMA TROCA-TROCA - MULTAS E JUROS DE MORA                                                                                                                             A07000000005010000
193000000000000000000201000000000000000000040824000000BENS DIREITOS E VALORES INCORPORADOS AO PATRIMNIO PBLICO                                                                                                                  S03000000000000000
193100000000000000000201000000000000000000040824000000BENS DIREITOS E VALORES INCORPORADOS AO PATRIMNIO PBLICO                                                                                                                  S04000000000000000
193105000000000000000201000000000000000000040824000000RECEITAS RECONHECIDAS POR FORA DE DECISES JUDICIAIS E DE TRIBUNAIS ADMINISTRATIVOS                                                                                        S05000000000000000
193105010000000000000201000000000000000000040824000000RECEITAS RECONHECIDAS POR FORA DE DECISES JUDICIAIS E DE TRIBUNAIS ADMINISTRATIVOS - PRINCIPAL                                                                            A06000000005010000
199000000000000000000201000001400000000000324011020000DEMAIS RECEITAS CORRENTES                                                                                                                                                 S03000000000000000
199900000000000000000201000001400000000000324011020000OUTRAS RECEITAS CORRENTES                                                                                                                                                 S04000000000000000
199999000000000000000201000001400000000000324011020000OUTRAS RECEITAS                                                                                                                                                           S05000000000000000
199999200000000000000201000000000000000000000000700000OUTRAS RECEITAS NO ARRECADADAS E NO PROJETADAS PELA RFB - PRIMRIAS                                                                                                        S06000000000000000
199999210000000000000201000000000000000000000000700000OUTRAS RECEITAS NO ARRECADADAS E NO PROJETADAS PELA RFB - PRIMRIAS - PRINCIPAL                                                                                            S06000000000000000
199999219900000000000201000000000000000000000000700000OUTRAS RECEITAS NO ARRECADADAS E NO PROJETADAS PELA RFB - PRIMRIAS                                                                                                        S07000000000000000
199999219901000000000201000000000000000000000000700000AJUSTE POR DIFERENA ENTRE RETENES PREVIDENCIARIA E A DARF DA DCTFWEB                                                                                                      A08000000005010000
199999300000000000000201000001400000000000324010320000OUTRAS RECEITAS NO ARRECADADAS E NO PROJETADAS PELA RFB - FINANCEIRAS                                                                                                     S06000000000000000
199999310000000000000201000001400000000000324010320000OUTRAS RECEITAS NO ARRECADADAS E NO PROJETADAS PELA RFB - FINANCEIRAS - PRINCIPAL                                                                                         S06000000000000000
199999310100000000000201000001400000000000324010320000DESCONTOS FINANCEIROS RECEBIDOS - PRINCIPAL                                                                                                                               A07000000005010000
200000000000000000000201000007164620000002213441290000RECEITAS DE CAPITAL                                                                                                                                                       S01000000000000000
240000000000000000000201000007164620000002213441290000TRANSFERNCIAS DE CAPITAL                                                                                                                                                  S02000000000000000
241000000000000000000201000007164620000001788855000000TRANSFERNCIAS DA UNIO E DE SUAS ENTIDADES                                                                                                                                 S03000000000000000
241100000000000000000201000000000000000000250000000000TRANSFERNCIAS DE RECURSOS DO SISTEMA NICO DE SADE - SUS                                                                                                                   S04000000000000000
241151000000000000000201000000000000000000250000000000TRANSFERNCIAS DE RECURSOS DO SISTEMA NICO DE SADE  SUS - FUNDO A FUNDO - BLOCO DE ESTRUTURAO DA REDE DE SERVIOS PBLICOS DE SADE                                           S05000000000000000
241151110000000000000201000000000000000000250000000000TRANSFERNCIAS DE RECURSOS DO BLOCO DE ESTRUTURAO DA REDE DE SERVIOS PBLICOS DE SADE - ATENO PRIMRIA                                                                       S06000000000000000
241151110100000000000201000000000000000000250000000000ESTRUT ATENCAO PRIMARIA SAUDE INVEST                                                                                                                                      A07000000006013110
241400000000000000000201000007164620000000998856000000TRANSFERNCIAS DE CONVNIOS DA UNIO E DE SUAS ENTIDADES                                                                                                                     S04000000000000000
241499000000000000000201000007164620000000998856000000OUTRAS TRANSFERNCIAS DE CONVNIOS DA UNIO E DE SUAS ENTIDADES                                                                                                              S05000000000000000
241499010000000000000201000007164620000000998856000000OUTRAS TRANSFERNCIAS DE CONVNIOS DA UNIO E DE SUAS ENTIDADES                                                                                                              S06000000000000000
241499010100000000000201000002388560000000238856000000PAVIMENTAO URBANA SICONV917782/2021                                                                                                                                       A07000000007000000
241499010200000000000201000002388560000000000000000000PAVIMENTAO URBANA SICONV917495/2021                                                                                                                                       A07000000007000000
241499010300000000000201000002387500000000000000000000PAV ESTR VICINAIS SICONVPROP018872/2023                                                                                                                                   A07000000007000000
241499010400000000000201000000000000000000250000000000INVESTIMENTO EMENIND 28610007                                                                                                                                             A07000000007063110
241499010500000000000201000000000000000000150000000000INVESTIMENTO EMENIND 30770001                                                                                                                                             A07000000007063110
241499010600000000000201000000000000000000250000000000INVESTIMENTO EMENIND 28620008                                                                                                                                             A07000000007063110
241499010700000000000201000000000000000000110000000000INVESTIMENTO EMENIND32980001                                                                                                                                              A07000000007063110
241900000000000000000201000000000000000000539999000000OUTRAS TRANSFERNCIAS DE RECURSOS DA UNIO E DE SUAS ENTIDADES                                                                                                              S04000000000000000
241951000000000000000201000000000000000000539999000000TRANSFERNCIA ESPECIAL DA UNIO                                                                                                                                             S05000000000000000
241951010000000000000201000000000000000000539999000000TRANSFERNCIA ESPECIAL DA UNIO                                                                                                                                             S06000000000000000
241951010200000000000201000000000000000000100000000000INVESTIMENTO EMENDIND3666011                                                                                                                                              A07000000007063110
241951010300000000000201000000000000000000199999000000INVESTIMENTO EMENDIND24070001                                                                                                                                             A07000000007063110
241951010400000000000201000000000000000000240000000000INVESTIMENTO EMENDIND90480002                                                                                                                                             A07000000007063110
242000000000000000000201000000000000000000283775960000TRANSFERNCIAS DOS ESTADOS E DO DISTRITO FEDERAL E DE SUAS ENTIDADES                                                                                                       S03000000000000000
242100000000000000000201000000000000000000100000000000TRANSFERNCIAS DE RECURSOS DO SISTEMA NICO DE SADE  SUSDOS ESTADOS E DF                                                                                                   S04000000000000000
242150000000000000000201000000000000000000100000000000TRANSFERNCIAS DE RECURSOS DO SISTEMA NICO DE SADE  SUS                                                                                                                    S05000000000000000
242150010000000000000201000000000000000000100000000000TRANSFERNCIAS DE RECURSOS DO SISTEMA NICO DE SADE  SUS                                                                                                                    S06000000000000000
242150010200000000000201000000000000000000100000000000VEICULO TRANSPORTE SANITARIO - EMENDA 151 - PORTSES160/24                                                                                                                 A07000000006213210
242200000000000000000201000000000000000000183775960000TRANSFERNCIAS DE CONVNIOS DOS ESTADOS E DF E DE SUAS ENTIDADES                                                                                                            S04000000000000000
242254000000000000000201000000000000000000183775960000TRANSFERNCIAS DE CONVNIOS DOS ESTADOS DESTINADAS A PROGRAMAS DE INFRAESTRUTURA EM TRANSPORTE                                                                              S05000000000000000
242254010000000000000201000000000000000000183775960000TRANSFERNCIAS DE CONVNIOS DOS ESTADOS DESTINADAS A PROGRAMAS DE INFRAESTRUTURA EM TRANSPORTE                                                                              S06000000000000000
242254010200000000000201000000000000000000183775960000PAVIMENTA RS/ETAPA 2                                                                                                                                                      A07000000007010000
243000000000000000000201000000000000000000140810330000TRANSFERNCIAS DOS MUNICPIOS E DE SUAS ENTIDADES                                                                                                                           S03000000000000000
243200000000000000000201000000000000000000140810330000TRANSFERNCIAS DE CONVNIOS DOS MUNICPIOS E DE SUAS ENTIDADES                                                                                                               S04000000000000000
243299000000000000000201000000000000000000140810330000OUTRAS TRANSFERNCIAS DE CONVNIOS DOS MUNICPIOS E DE SUAS ENTIDADES                                                                                                        S05000000000000000
243299010000000000000201000000000000000000140810330000OUTRAS TRANSFERNCIAS DE CONVNIOS DOS MUNICPIOS E DE SUAS ENTIDADES                                                                                                        S06000000000000000
243299010100000000000201000000000000000000140810330000CONSTRUO DE PONTE COLNIA MEDEIROS-GIRU                                                                                                                                    A07000000007020000
900000000000000000000201-000628340000-0006556359390000R  DEDUES DA RECEITA                                                                                                                                                      S01000000000000000
910000000000000000000201-000628340000-0006547087840000RECEITAS CORRENTES                                                                                                                                                        S02000000000000000
911000000000000000000201-000010900000-0000185279740000IMPOSTOS TAXAS E CONTRIBUIES DE MELHORIA                                                                                                                                  S03000000000000000
911100000000000000000201-000010900000-0000142294490000IMPOSTOS                                                                                                                                                                  S04000000000000000
911120000000000000000201-000010900000-0000142042830000IMPOSTOS SOBRE O PATRIMNIO                                                                                                                                                S05000000000000000
911125000000000000000201-000010900000-0000121498830000IMPOSTO SOBRE A PROPRIEDADE PREDIAL E TERRITORIAL URBANA                                                                                                                  S06000000000000000
911125001000000000000201-000010200000-0000121498830000R IMPOSTO SOBRE A PROPRIEDADE PREDIAL E TERRITORIAL URBANA  - PRINCIPAL                                                                                                   A07109000005000000
911125004000000000000201-00000070000000000000000000000IMPOSTO SOBRE A PROPRIEDADE PREDIAL E TERRITORIAL URBANA - MULTAS E JUROS DE MORA DIVIDA ATIVA                                                                            A07103000005000000
9111253000000000000002010000000000000-0000020544000000IMPOSTOS SOBRE TRANSMISSO INTER VIVOS DE BENS IMVEIS E DE DIREITOS REAIS SOBRE IMVEIS                                                                                     S06000000000000000
