87612826000190010120253101202501022025PREFEITURA MUNICIPAL INDEPENDENCIA                                              
100000000000000000005001000314594011500000000000000027910223503002097700846900100791551490000000000000ATIVO                                                                                                                                               S01 NPF
110000000000000000005001000096762645000000000000000019734128671001986677903300008349760880000000000000ATIVO CIRCULANTE                                                                                                                                    S02 NP 
111000000000000000005001000077898266400000000000000019076013268001921465162500006403443070000000000000CAIXA E EQUIVALENTES DE CAIXA                                                                                                                       S03 NPF
111100000000000000005001000077898266400000000000000018069311669001819938607600006489082570000000000000CAIXA E EQUIVALENTES DE CAIXA EM MOEDA NACIONAL                                                                                                     S04 NPF
111110000000000000005001000077898266400000000000000018069311669001819938607600006489082570000000000000CAIXA E EQUIVALENTES DE CAIXA EM MOEDA NACIONAL - CONSOLIDAO                                                                                        S05 NPF
111111900000000000005001000010366857500000000000000013540650471001362660848600000177105600000000000000BANCOS CONTA MOVIMENTO - DEMAIS CONTAS                                                                                                              S06 NPF
111111902000000000005001000006761805000000000000000008598497240000864854337800000175719120000000000000BANCO DO BRASIL                                                                                                                                     S07 NPF
111111902010000000000201000006479115500000000000000003433393055000349818421000000000000000000000000000BB GERAL PREF MOV 0001 3732-X/7132-3                                                                                                                A08 SPF
111111902020000000000201000000000000000000000000000001691753554000169175355400000000000000000000000000BB FPM PREF MOV 0001 3732-X/7129-3                                                                                                                  A08 SPF
111111902030000000000201000000000000000000000000000000008010792000000801079200000000000000000000000000BB ADO LC 176/2020 PREF MOV 0001 3732-X/283141-4                                                                                                    A08 SPF
111111902040000000000201000000000000000000000000000000058613538000005861353800000000000000000000000000BB FEP PREF MOV 0704 3732-X/4015-0                                                                                                                  A08 SPF
111111902050000000000201000000000000000000000000000000048145236000004814523600000000000000000000000000BB ITR PREF MOV 0001 3732-X/7385-7                                                                                                                  A08 SPF
111111902060000000000201000000000000000000000000000000000254883000000025488300000000000000000000000000BB CFEM PREF MOV 70801 3732-X/11636-X                                                                                                               A08 SPF
111111902070000000000801000000000000000000000000000000404762248000039409742300000106648250000000000000BB GERAL FMS MOV 0040 3732-X/10062-5                                                                                                                A08 SPF
111111902090000000000902000000000000000000000000000000020000000000002000000000000000000000000000000000BB SIGTV- ESTRUT REDE SV SUAS-CUSTEIO MOV 66008 3732-X/12824-4                                                                                      A08 SPF
111111902100000000000801000000000000000000000000000000010581656000001058165600000000000000000000000000BB INCENTIVO VIG SAUDE - CUSTEIO FMS MOV 60011 3732-X/11473-1                                                                                       A08 SPF
111111902110000000000201000000000000000000000000000000379489438000037718149900000023079390000000000000BB MDE PREF MOV 0020 3732-X/5011-3                                                                                                                  A08 SPF
111111902120000000000201000000000000000000000000000000009960915000000996091500000000000000000000000000BB PNATE-TE PREF MOV 1016 3732-X/7767-4                                                                                                             A08 SPF
111111902130000000000201000000000000000000000000000000080400344000008040034400000000000000000000000000BB QSE PREF MOV 0550 3732-X/7684-8                                                                                                                  A08 SPF
111111902140000000000201000000000000000000000000000000002261662000000226166200000000000000000000000000BB CIDE PREF MOV 0750 3732-X/7827-1                                                                                                                 A08 SPF
111111902150000000000801000000000000000000000000000000833011216000083301121600000000000000000000000000BB FUNDEB PREF MOV 0031 3732-X/11552-5                                                                                                              A08 SPF
111111902160000000000602000000000000000000000000000000010081125000001008112500000000000000000000000000BB PAVIM AREA INDUSTRIAL EMENDA IND 41210001 MOV 70601 1030 3732-X/12204-1                                                                          A08 SPF
111111902170000000000701000000000000000000000000000000040176138000004017613800000000000000000000000000BB INVESTIMENTO EMENIND 28610007 MOV 70603 3732-X/12834-1                                                                                           A08 SPF
111111902180000000001001000000000000000000000000000000023602000000002360200000000000000000000000000000BB INVESTIMENTO EMEN IND 30770001 MOV 70604 3732-X/12831-7                                                                                          A08 SPF
111111902190000000000801000000000000000000000000000000016859696000001685969600000000000000000000000000BB CUSTEIO SUS EMENDAINDIV28730001/2023 MOV 60008 3732-X/11473-1                                                                                    A08 SPF
111111902200000000000701000000000000000000000000000000051231846000005123184600000000000000000000000000BB INVESTIMENTO EMEN IND 28620008 MOV 70605 3732-X/12833-3                                                                                          A08 SPF
111111902210000000000201000000000000000000000000000000025340810000002534081000000000000000000000000000BB MERENDA ESCOLAR - PNAE MOV 0552 3732-X/9622-9                                                                                                    A08 SPF
111111902220000000000902000000000000000000000000000000000706790000000070679000000000000000000000000000BB PROCAD-SUAS FMAS MOV 66007 3732-X/12485-0                                                                                                        A08 SPF
111111902230000000000801000000000000000000000000000000006087231000000608723100000000000000000000000000BB INCR TEMP CUSTEIO AP PORTMS/GM 4358/22 E 627/2023 FMS MOV 60007 3732-X/11173-1                                                                   A08 SPF
111111902250000000000201000000000000000000000000000000143920597000014392059700000000000000000000000000BB ARRECADACAO PREF MOV 0001 3732-X/12340-4                                                                                                         A08 SPF
111111902260000000000801000000000000000000000000000000000544400000000054440000000000000000000000000000BB IMPLEM SEG ALIM NUTR SAU FMS MOV 4505 3732-X/11482-0                                                                                             A08 SPF
111111902270000000000701000000000000000000000000000000022559658000002255965800000000000000000000000000BB INVESTIMENTO EMENIND32980001 MOV 70606 3732-X/12839-2                                                                                            A08 SPF
111111902280000000001001000000000000000000000000000000010000000000001000000000000000000000000000000000BB INVESTIMENTO EMENDIND3666011 MOV 70608 3732-X/12829-5                                                                                            A08 SPF
111111902290000000000502000000000000000000000000000000470529757000046609617400000044335830000000000000BB FUNDEB SMECDT MOV 540 3732-X/13035-4                                                                                                             A08 SPF
111111902300000000000701000000000000000000000000000000004000000000000400000000000000000000000000000000BB CUSTEIO EMENDIND32980001 MOV 70607 3732-X/12839-2                                                                                                A08 SPF
111111902310000000000801000000000000000000000000000000001852480000000185248000000000000000000000000000BB TRANSF DIGITAL SUS FMS MOV 60010 3732-X/11473-1                                                                                                  A08 SPF
111111902330000000000701000000000000000000000000000000019999900000001999990000000000000000000000000000BB INVESTIMENTO EMENDIND24070001 MOV 70609 3732-X/12835-X                                                                                           A08 SPF
111111902340000000000301000000000000000000000000000000204613474000020461347400000000000000000000000000BB FR501 PREF 0001 3732-X/12350-1                                                                                                                   A08 SPF
111111902350000000001001000000000000000000000000000000024000000000002400000000000000000000000000000000BB INVESTIMENTO EMENDIND90480002 MOV 70610 3732-X/12832-5                                                                                           A08 SPF
111111902370000000000502000000000000000000000000000000032287778000003228777800000000000000000000000000BB EDUC INF NOVAS TURMAS MOV 1003 3732-X/12018-9                                                                                                    A08 SPF
111111902380000000000801000000000000000000000000000000025000000000002500000000000000000000000000000000BB EMENDA ESTRUT ATENCAO PRIMARIA SAUDE INVEST FMS MOV 60106 3732-X/11482-0                                                                         A08 SPF
111111902390000000000902000000000000000000000000000000001386372000000122080700000001655650000000000000BB COVID-19/SUAS PORT MC 751/2022 MOV 1019 3732-X/11143-0                                                                                           A08 SPF
111111902420000000000201000000000000000000000000000000036893947000003689394700000000000000000000000000BB SNA PREF MOV 0001 3732-X/8928-1                                                                                                                  A08 SPF
111111902430000000000503000000000000000000000000000000005615265000000561526500000000000000000000000000BB LC195/22 LEI PAULO GUSTAVO ART5 MOV 715 3732-X/12627-6                                                                                           A08 SPF
111111902440000000000503000000000000000000000000000000002256125000000225612500000000000000000000000000BB LC195/22 LEI PAULO GUSTAVO ART8 MOV 716 3732-X/12628-4                                                                                           A08 SPF
111111902450000000000801000000000000000000000000000000000694900000000069490000000000000000000000000000BB IRF-M 1 ESTRUT/ADEQ ASSIST ODONT APS RV4505 PORT GM/MS 3473/2020 APLIC 3732-X/11482-2BB IRF-M 1 ESTRUT/ADEQ ASSIST ODONT APS RV4505 PORT GM/MS 34A08 SPF
111111902460000000000801000000000000000000000000000000058739200000005873920000000000000000000000000000BB PISO ACS FMS MOV 604 3732-X/11473-1                                                                                                              A08 SPF
111111902470000000000501000000000000000000000000000000000187119000000018711900000000000000000000000000BB FNDE/PAR/MOBILIARIO 2023 MOV 56903 3732-X/12652-7                                                                                                A08 SPF
111111902480000000000801000000000000000000000000000000010260586000001026058600000000000000000000000000BB PISO ENFERMAGEM MOV 60500 3732-X/12645-4                                                                                                         A08 SPF
111111902500000000000502000000000000000000000000000000014759339000001475933900000000000000000000000000BB ESCOLA TEMPO INTEGRAL MOV 56904 3732-X/12707-8                                                                                                   A08 SPF
111111902550000000000801000000000000000000000000000000004134407000000413440700000000000000000000000000BB EMENDA 81000312 INCREMENTO TEMP AP MOV 4500 3732-X/11473-1                                                                                       A08 SPF
111111902560000000000701000000266392100000000000000000055662083000005832600400000000000000000000000000BB CIP PREF MOV 0001 3732-X/7641-4                                                                                                                  A08 SPF
111111902570000000000902000000000000000000000000000000009243995000000924399500000000000000000000000000BB PAIF - PSB PBFI FMAS MOV 066006 3732-X/11143-0                                                                                                   A08 SPF
111111902580000000000902000000000000000000000000000000010213430000001021343000000000000000000000000000BB SCFV-  PSB FMAS MOV 066005 3732-X/11143-0                                                                                                        A08 SPF
111111902590000000000902000000000000000000000000000000007821695000000782169500000000000000000000000000BB GBF IGDBF FMAS MOV 1038 3732-X/11141-4                                                                                                           A08 SPF
111111902600000000000602000000000000000000000000000000002205944000000220594400000000000000000000000000BB PAVIMENT CIDADE-BUDEL-ALEGRIA EMEND IND 36660001 MOV 1028 3732-X/12204-1                                                                         A08 SPF
111111902640000000000202000000000000000000000000000000021427490000002142749000000000000000000000000000BB IR DOACAO FUNDICA MOV 1050 3732-X/11012-4                                                                                                        A08 SPF
111111902690000000000801000000000000000000000000000000001776399000000177639900000000000000000000000000BB LEILAO SAUDE MOV FR659 3732-X/6851-9                                                                                                             A08 SPF
111111902720000000005001000000016297400000000000000000210317082000021048005600000000000000000000000000BB BLOCO DE CUSTEIO SUS MOV 4000 FMS 3732-X/11473-1                                                                                                 S08 NPF
111111902720100000000801000000000000000000000000000000183417303000018341730300000000000000000000000000BB CUSTEIO ATENCAO BASICA FMS MOV 4500 3732-X/11473-1                                                                                               A09 SPF
111111902720300000000801000000000000000000000000000000011185406000001118540600000000000000000000000000BB CUSTEIO ASSIST FARMACEUTICA FMS MOV 4503 3732-X/11473-1                                                                                          A09 SPF
111111902720400000000801000000000000000000000000000000002035662000000203566200000000000000000000000000BB CUSTEIO VISA MOV FMS 4502 3732-X/11473-1                                                                                                         A09 SPF
111111902720600000000801000000000000000000000000000000000882996000000088299600000000000000000000000000BB CUSTEIO MAC FMS MOV 4501 3732-X/11473-1                                                                                                          A09 SPF
111111902721400000000801000000016297400000000000000000000000000000000016297400000000000000000000000000BB FORM PROFISS TEC SAU PORT1981 FMS MOV 4504 3732-X/11473-1                                                                                        A09 SPF
111111902721500000000801000000000000000000000000000000012795715000001279571500000000000000000000000000BB PISO ACE MOV FMS 60402 3732-X/11473-1                                                                                                            A09 SPF
111111902760000000000602000000000000000000000000000000028849377000002884937700000000000000000000000000BB PONTE MEDEIROS/GIRUA MOV 70201 3732-X/12778-7                                                                                                    A08 SPF
111111902770000000000902000000000000000000000000000000002020268000000202026800000000000000000000000000BB MOV INCREMENTO TEMP PSB MP1218/24 FMAS 66009 3732-X/12841-4                                                                                      A08 SPF
111111903000000000005001000000000000000000000000000000052922381000005292238100000000000000000000000000CAIXA ECONMICA FEDERAL                                                                                                                              S07 NPF
111111903080000000000702000000000000000000000000000000048518988000004851898800000000000000000000000000CEF RECURSO PAV URB SICONV917782/2021 70004 0521/00647287-9                                                                                         A08 SPF
111111903090000000000702000000000000000000000000000000004403393000000440339300000000000000000000000000CEF CONTRAPMOV PAV URB SICONV917782/2021  70004 0521/00647287-9                                                                                     A08 SPF
111111912000000000005001000003605052500000000000000004483000031000451891190800000001386480000000000000BANCO DO ESTADO DO RIO GRANDE DO SUL                                                                                                                S07 NPF
111111912010000000000801000000736392500000000000000000339858656000034722258100000000000000000000000000BANRISUL GERAL FMS MOV 0040 1064/040288190-2                                                                                                        A08 SPF
111111912020000000000201000000000000000000000000000003598697480000359869748000000000000000000000000000BANRISUL GERAL PREF MOV 0001 1064/040131530-6                                                                                                       A08 SPF
111111912030000000000201000000000000000000000000000000000152706000000015270600000000000000000000000000BANRISUL MULTA DE TRANSITO PREF MOV 1114 944/040188130-5                                                                                            A08 SPF
111111912060000000000801000000000000000000000000000000001012627000000101262700000000000000000000000000BANRISUL NFG FMS MOV 4300 1064/040830240-8                                                                                                          A08 SPF
111111912070000000000201000000000000000000000000000000056498626000005649862600000000000000000000000000BANRISUL PEATERS MOV 057101 C/040197060-6                                                                                                           A08 SPF
111111912080000000000201000002868660000000000000000000117695914000014638251400000000000000000000000000BANRISUL MDE PREF MOV 0020 1064/040240210-9                                                                                                         A08 SPF
111111912090000000000401000000000000000000000000000000006624180000000662418000000000000000000000000000BANRISUL PIT PREF MOV 1112 0944/040131530-6                                                                                                         A08 SPF
111111912100000000001005000000000000000000000000000000043075712000004307571200000000000000000000000000BANRISUL MOV DEFESA CIVIL PORT CM 19/2                                                                                                              A08 SPF
111111912120000000000801000000000000000000000000000000002280429000000228042900000000000000000000000000BANRISUL FARMACIA BASICA FMS MOV 4050 1064/040287221-0                                                                                              A08 SPF
111111912130000000000801000000000000000000000000000000003128053000000312805300000000000000000000000000BANRISUL CASTRAO MELHORES AMIGOS MOV 62303 1064/040836810-7                                                                                         A08 SPF
111111912140000000000801000000000000000000000000000000000731947000000073194700000000000000000000000000BANRISUL CONTRAP CASTRAO MELHORES AMIGOS MOV 62303 1064/040836810-7                                                                                 A08 SPF
111111912150000000000801000000000000000000000000000000003235356000000323535600000000000000000000000000BANRISUL AUXILIO ENCHENTES APS PORT SES322/2024 MOV  62118 1064/040287224-5                                                                         A08 SPF
111111912170000000000801000000000000000000000000000000005053804000000505380400000000000000000000000000BANRISUL ARBOVIROSES/ONDAS DE CALOR PORTSES150/24 MOV 62116 1064/040802760-1                                                                        A08 SPF
111111912180000000000701000000000000000000000000000000055534029000005553402900000000000000000000000000BANRISUL PAVIMENTA RS ETAPA 2 MOV 70109 1064/040131530-6                                                                                            A08 SPF
111111912210000000000701000000000000000000000000000000027196266000002719626600000000000000000000000000BANRISUL CONTRAP PAVIMENTA RS ETAPA 2 MOV 70109 1064/040131530-6                                                                                    A08 SPF
111111912220000000000801000000000000000000000000000000020535370000002053537000000000000000000000000000BANRISUL VEICULO EMENDA 151 PORTSES160/24 MOV 62117 1064/040839210-5                                                                                A08 SPF
111111912250000000000601000000000000000000000000000000015146590000001514659000000000000000000000000000BANRISUL PAVIMENTACAO ECOVILLA CONV FPE 456/2022 MOV 1213 1064/040836340-7                                                                          A08 SPF
111111912260000000000601000000000000000000000000000000001238730000000123873000000000000000000000000000BANRISUL CONTRAP PAVIMENTACAO ECOVILLA CONV FPE 456/2022 MOV 0001 1064/040836340-7                                                                  A08 SPF
111111912280000000001004000000000000000000000000000000002982657000000298265700000000000000000000000000BANRISUL GERAL FMDMA MOV 1005 1064/040285540-5                                                                                                      A08 SPF
111111912290000000000603000000000000000000000000000000013936040000001393604000000000000000000000000000BANRISUL PAVIMENTA RS PREF MOV 1212 1064/040835690-7                                                                                                A08 SPF
111111912300000000000603000000000000000000000000000000000881169000000088116900000000000000000000000000BANRISUL CONTRAPARTIDA PAVIMENTA RS PREF MOV 0001 1064/040835690-7                                                                                  A08 SPF
111111912310000000000801000000000000000000000000000000000123980000000012398000000000000000000000000000BANRISUL TUBERCULOSE FMS MOV 62115 1064/040802760-1                                                                                                 A08 SPF
111111912320000000000902000000000000000000000000000000002109508000000197086000000001386480000000000000BANRISUL OASF FEAS FMAS MOV 1103 1064/040806820-0                                                                                                   A08 SPF
111111912350000000000201000000000000000000000000000000033110517000003311051700000000000000000000000000BANRISUL MOV LC194/2022 PREF  502 1064/040131530-6                                                                                                  A08 SPF
111111912360000000001002000000000000000000000000000000003928824000000392882400000000000000000000000000BANRISUL CISTERNAS CONVFPE2411/2022 MOV 70107 1064/040837210-4                                                                                      A08 SPF
111111912370000000000902000000000000000000000000000000013254400000001325440000000000000000000000000000BANRISUL CONVENIO STDP-RS 949/2023 MOV 66503 1064/040837860-9                                                                                       A08 SPF
111111912380000000000902000000000000000000000000000000001998200000000199820000000000000000000000000000BANRISUL CONTRAP CONVENIO STDP-RS 949/2023 MOV 500 1064/040837860-9                                                                                 A08 SPF
111111912390000000001001000000000000000000000000000000005774223000000577422300000000000000000000000000BANRISUL COLHEDORA DE FORRAGENS CONV FPE 1447/2023-SDR/RS MOV 70108 1064/040838800-0                                                                A08 SPF
111111912400000000001001000000000000000000000000000000002524177000000252417700000000000000000000000000BANRISUL CONTRAP COLHED FORR CONV FPE 1447/2023-SDR/RS MOV 500 1064/040838800-0                                                                     A08 SPF
111111912410000000000801000000000000000000000000000000000056000000000005600000000000000000000000000000BANRISUL PRTESE DENTRIA PORTSES 82/2024 E 110/2024 FMS MOV 62120 1064/040287220-2                                                                   A08 SPF
111111912440000000000801000000000000000000000000000000017042798000001704279800000000000000000000000000BANRISUL C/MOV REFORMA UBS PORT SES 369 E 653/24  62119 1064/040839230-6                                                                            A08 SPF
111111912460000000000801000000000000000000000000000000017492502000001749250200000000000000000000000000BANRISUL PIAPS SOCIODEMOGRAFICO MOV 4011 1064/040287229-6                                                                                           A08 SPF
111111912470000000000801000000000000000000000000000000010791740000001079174000000000000000000000000000BANRISUL PIAPS INCENTIVO APS MOV 4090 1064/040804700-9                                                                                              A08 SPF
111111912490000000000801000000000000000000000000000000002900300000000290030000000000000000000000000000BANRISUL PIAPS PIM MOV 4160 1064/040287223-7                                                                                                        A08 SPF
111111912510000000001001000000000000000000000000000000001568510000000156851000000000000000000000000000BANRISUL ESCAVAO DE MICROAUDES - AVANAR RS MOV 1064/040836530-2                                                                                     A08 SPF
111111912520000000000201000000000000000000000000000000049312800000004931280000000000000000000000000000BANRISUL FR501 MOV 0001 1064/040131530-6                                                                                                            A08 SPF
111111912530000000000801000000000000000000000000000000003217816000000321781600000000000000000000000000BANRISUL MOV MATPERM PSES1098/2023 62113 1064/040287223-7                                                                                           A08 SPF
111111912540000000000902000000000000000000000000000000002297395000000229739500000000000000000000000000BANRISUL FEAS PISO GACHO REGULAR MOV 66102 1064/040806820-0                                                                                         A08 SPF
111111999000000000005001000000000000000000000000000000406230819000040623081900000000000000000000000000DEMAIS CONTAS BANCRIAS                                                                                                                              S07 NPF
111111999010000000005001000000000000000000000000000000406230819000040623081900000000000000000000000000SICREDI                                                                                                                                             S08 NPF
111111999010100000000201000000000000000000000000000000406230819000040623081900000000000000000000000000SICREDI PREF MOV 0001 0306/07878-4                                                                                                                  A09 SPF
111113000000000000005001000000000000000000000000000000215800508000021580050800000000000000000000000000REDE BANCRIA - ARRECADAO                                                                                                                            S06 NPF
111113001000000000000401000000000000000000000000000000215800508000021580050800000000000000000000000000SICREDI ARRECADACAO 0001 0306/14941-0                                                                                                               A07 SPF
111115000000000000005001000067531408900000000000000004312860690000435697708200006311976970000000000000APLICAES FINANCEIRAS DE LIQUIDEZ IMEDIATA - USO GERAL                                                                                               S06 NPF
111115002000000000005001000000000000000000000000000000026815533000000075499700000260605360000000000000POUPANA                                                                                                                                             S07 NPF
111115002030000000000702000000000000000000000000000000024583951000000068877900000238951720000000000000CEF POUPANA PAV URB SICONV917782/2021  70004 0521/00647287-9                                                                                        A08 SPF
111115002040000000000702000000000000000000000000000000002231582000000006621800000021653640000000000000CEF CONTRAP POUPANA PAV URB SICONV917782/2021  70004 0521/00647287-9                                                                                A08 SPF
111115003000000000005001000065740998700000000000000004258602871000432060006100005954127970000000000000FUNDOS DE INVESTIMENTO                                                                                                                              S07 NPF
111115003010000000000201000005204875400000000000000001484881556000148186284200000550674680000000000000BB GERAL PREF APLIC 0001 3732-X/7132-3                                                                                                              A08 SPF
111115003020000000000602000000336069800000000000000000000115864000000218556600000012909960000000000000BB  RF CP PLENO PAVIMENT CIDADE-BUDEL-ALEGRIA EMEND IND 36660001 APLIC 1028 3732-X/12204-1                                                          A08 SPF
111115003030000000000201000000000000000000000000000000038154884000003815488400000000000000000000000000BB QSE PREF APLIC 0550 3732-X/7684-8                                                                                                                A08 SPF
111115003060000000000201000004008682400000000000000001200581491000113524494000001054233750000000000000BANRISUL GERAL PREF APLIC 0001 944/040131530-6                                                                                                      A08 SPF
111115003070000000000502000000000000000000000000000000383226944000038322694400000000000000000000000000BB FUNDEB PREF APLIC 0031 3732-X/11552-5                                                                                                            A08 SPF
111115003080000000000201000000000000000000000000000000028393861000002839386100000000000000000000000000BANRISUL PEATERS APLIC 057101 C/040197060-6                                                                                                         A08 SPF
111115003090000000000201000000000000000000000000000000004786182000000478618200000000000000000000000000BB PNATE PREF APLIC 1016 3732-X/7767-4                                                                                                              A08 SPF
111115003100000000000601000002574370000000000000000000002061594000000000000000000278052940000000000000BB PAV RURAL EMENDA IMPOS 28610005/2023 APLIC 70602 3732-X/12597-0                                                                                  A08 SPF
111115003110000000000502000000000000000000000000000000012644337000001264433700000000000000000000000000BB APLIC - MERENDA ESCOLAR - PNAE  0552 3732-X/9622-9                                                                                               A08 SPF
111115003120000000000801000000000000000000000000000000000064494000000006449400000000000000000000000000BANRISUL TUBERCULOSE FMS APLIC 62115 1064/040802760-1                                                                                               A08 SPF
111115003130000000000801000000000000000000000000000000004138935000000413893500000000000000000000000000BB APLIC CLASSICO INCENTIVO VIG SAUDE - CUSTEIO FMS 60011 3732-X/11473-1                                                                            A08 SPF
111115003140000000000902000000000000000000000000000000010115607000001000000000000001156070000000000000BB SIGTV- ESTRUT REDE SV SUAS-CUSTEIO APLIC 66008 3732-X/12824-4                                                                                    A08 SPF
111115003170000000000201000025098113900000000000000000287981087000039604618400001429160420000000000000SICREDI PREF APLIC 0001 0306/07878-4                                                                                                                A08 SPF
111115003190000000000801000001550261100000000000000000001337292000001683990300000000000000000000000000BB  CP ABSOLUTO CUSTEIO SUS EMENDAINDIV28730001/2023 APLIC 60008 3732-X/11473-1                                                                     A08 SPF
111115003192400000001001000000435082900000000000000000000456246000000000000000000048070750000000000000BANRISUL APLIC CONSTR POO TUBULAR PROFUNDO CONVFPE2268/22 APLIC 70105 1064/040836800-6                                                              A09 SPF
111115003200000000001001000000123169000000000000000000000119463000000000000000000013511530000000000000BANRISUL CONTRAP APLIC POO CONVFPE2268/22  70105 1064/040836800-6                                                                                   A08 SPF
111115003240000000000801000000310405300000000000000000000225434000000312805300000002014340000000000000BANRISUL APLICCASTRAO MELHORES AMIGOS  62303 1064/040836810-7                                                                                       A08 SPF
111115003250000000000801000000000000000000000000000000001627921000000162792100000000000000000000000000BANRISUL APLIC AUXILIO ENCHENTES APS PORT SES322/2024  062118 1064/040287224-5                                                                      A08 SPF
111115003260000000000401000000000000000000000000000000003323035000000332303500000000000000000000000000BANRISUL PIT PREF APLIC 1112 0944/040131530-6                                                                                                       A08 SPF
111115003270000000000201000000000000000000000000000000001141180000000114118000000000000000000000000000BB CIDE PREF APLIC 1018 3732-X/7827-1                                                                                                               A08 SPF
111115003290000000000801000000166948000000000000000000000088887000000175836700000000000000000000000000BB LEILAO SAUDE CP AUTOMATICO APLIC FR659 3732-X/6851-9                                                                                             A08 SPF
111115003320000000000801000000077436900000000000000000000069628000000073194700000001120500000000000000BANRISUL CONTRAP APLIC CASTRAO MELHORES AMIGOS 62303 1064/040836810-7                                                                               A08 SPF
111115003330000000000801000000150063900000000000000000000160662000000000000000000016613010000000000000BANRISUL APLIC UBS AMIGA IDOSO PSES1097/2023  62112 1064/040287220-2                                                                                A08 SPF
111115003340000000000801000000000000000000000000000000000810389000000081038900000000000000000000000000BANRISUL FARMACIA BASICA FMS APLIC 4050 1064/040287221-0                                                                                            A08 SPF
111115003350000000000801000000500207700000000000000000000492656000000321160000000022831330000000000000BANRISUL APLIC MATPERM PSES1098/2023 62113 1064/040287220-2                                                                                         A08 SPF
111115003360000000000801000000050019500000000000000000000048514000000000000000000005487090000000000000BANRISUL APLIC DST PSES1099/2023  62114 1064/040287220-2                                                                                            A08 SPF
111115003370000000001005000004006719300000000000000000002670853000004273804600000000000000000000000000BANRISUL -APLIC- DEFESA CIVIL PORTCM19/2023 74902 1064/040838770-5                                                                                  A08 SPF
111115003380000000001001000000145257400000000000000000000074199000000152677300000000000000000000000000BANRISUL ESCAVAO DE MICROAUDES - AVANAR RS APLIC 1064/040836530-2                                                                                   A08 SPF
111115003390000000000701000000000000000000000000000000019157316000001837759500000007797210000000000000BANRISUL APLIC PAVIMENTA RS ETAPA 2  70109 1064/040131530-6                                                                                         A08 SPF
111115003400000000000801000000076968100000000000000000000072578000000054440000000002978590000000000000BB IMPLEM SEG ALIM NUTR SAU FMS APLIC 4505 3732-X/11482-0                                                                                           A08 SPF
111115003410000000000902000000500207700000000000000000000524540000000000000000000055266170000000000000BANRISUL-APLIC- CONVENIO STDP-RS 2478/2023  66504 1064/040838600-8                                                                                  A08 SPF
111115003420000000000902000000164904000000000000000000000141096000000000000000000017901360000000000000BANRISUL- APLIC- CONTRAP CONVENIO STDP-RS 2478/2023  500 1064/040838600-8                                                                           A08 SPF
111115003430000000000602000001604076900000000000000000000922171000000992123400000070417060000000000000BB  RF CP ABSOLUTO PAVIM AREA INDUSTRIAL EMENDA IND 41210001 APLIC 70601 1030 3732-X/12204-1                                                        A08 SPF
111115003440000000000201000000588269400000000000000000000000000000000588269400000000000000000000000000BB COVID-19DIFERENCIADO PORT MS/GM 1666/2020 FMS APLIC 4511 3732-X/11473-1                                                                          A08 SPF
111115003450000000000801000000091980900000000000000000000096456000000000000000000010162650000000000000BANRISUL COVID-19 SAUDE MENTAL PORTSES506/2020 APLIC 4011 1064/040802490-4                                                                          A08 SPF
111115003460000000000902000000062786000000000000000000000012253000000064011300000000000000000000000000BB PROCAD-SUAS FMAS APLIC 66007 3732-X/12485-0                                                                                                      A08 SPF
111115003470000000000701000000000000000000000000000000015954109000001174071600000042133930000000000000BANRISUL APLIC CONTRAP PAVIMENTA RS ETAPA 2  70109 1064/040131530-6                                                                                 A08 SPF
111115003500000000001004000000660447100000000000000000001680425000000199559100000062893050000000000000BANRISUL GERAL FMDMA APLIC 1005 1064/040285540-5                                                                                                    A08 SPF
111115003510000000000801000000089990900000000000000000000082531000000069490000000002875400000000000000BB IRF-M 1 ESTRUT/ADEQ ASSIST ODONT APS RV4505 PORT GM/MS 3473/2020 APLIC 3732-X/11482-2                                                            A08 SPF
111115003520000000000701000000000000000000000000000000025881137000001499618400000108849530000000000000BB INVESTIMENTO EMENIND 28610007 APLIC 70603 3732-X/12834-1                                                                                         A08 SPF
111115003530000000000801000000375313200000000000000000000339312000000000000000000040924440000000000000BB RFCP PLENOESTRUT AB EMENDA 28620016 PORT MS/GM 961/2020 RV4505 FMS APLIC 4505 3732-X/11482-0                                                     A08 SPF
111115003540000000000801000000000000000000000000000000010410446000001041044600000000000000000000000000BANRISUL APLIC  VEICULO EMENDA 151 PORTSES160/24 062117 1064/040839210-5                                                                            A08 SPF
111115003550000000001001000000000000000000000000000000015512412000000850000000000070124120000000000000BB INVESTIMENTO EMEN IND 30770001 APLIC 70604 3732-X/12831-7                                                                                        A08 SPF
111115003560000000000701000000000000000000000000000000025710149000002571014900000000000000000000000000BB INVESTIMENTO EMEN IND 28620008 APLIC 70605 3732-X/12833-3                                                                                        A08 SPF
111115003570000000000902000000000000000000000000000000001089600000000108960000000000000000000000000000BANRISUL OASF FEAS FMAS APLIC 1103 1064/040806820-0                                                                                                 A08 SPF
111115003580000000000502000001189788500000000000000000015239268000001862470100000085124520000000000000BB EDUC INF NOVAS TURMAS APLIC 1003 3732-X/12018-9                                                                                                  A08 SPF
111115003660000000000701000000000000000000000000000000011312466000001131246600000000000000000000000000BB INVESTIMENTO EMENIND32980001 APLIC 70606 3732-X/12839-2                                                                                          A08 SPF
111115003690000000000502000000000000000000000000000000219349636000021934963600000000000000000000000000BB FUNDEB SMECDT APLIC 540 3732-X/13035-4                                                                                                           A08 SPF
111115003700000000000902000000136397400000000000000000000022302000000138627600000000000000000000000000COVID-19/SUASSIMPLES SOLIDEZ PORT MC 751/2022 APLIC 1019 3732-X/11143-0                                                                             A08 SPF
111115003710000000000702000000000000000000000000000000023926308000002392630800000000000000000000000000CEF APLIC RECURSO PAV URB SICONV917782/2021 70004 0521/006647287-9                                                                                  A08 SPF
111115003720000000000702000000000000000000000000000000002168190000000216819000000000000000000000000000CEF APLIC CONTRAP PAV URB SICONV917782/2021  70004 0521/00647287-9                                                                                  A08 SPF
111115003730000000000601000002613326700000000000000000001802711000001501513800000129208400000000000000BANRISUL PAVIMENTACAO ECOVILLA CONV FPE 456/2022 APLIC 1213 1064/040836340-7                                                                        A08 SPF
111115003740000000000601000001009009600000000000000000000882329000000120265000000097697750000000000000BANRISUL CONTRAP PAVIMENTACAO ECOVILLA CONV FPE 456/2022 APLIC 1213 1064/040836340-7                                                                A08 SPF
111115003750000000000801000000000000000000000000000000017255402000000000000000000172554020000000000000BANRISUL C/APLIC REFORMA UBS PORT SES 369 E 653/24  62119 1064/040839230-6                                                                          A08 SPF
111115003760000000000902000000000000000000000000000000002045582000000000000000000020455820000000000000BB APLIC INCREMENTO TEMP PSB MP1218/24 FMAS  66009 3732-X/12841-4                                                                                   A08 SPF
111115003780000000000902000000000000000000000000000000004326328000000432632800000000000000000000000000BBCP AUTOMATICO PAIF - PSB PBFI FMAS APLIC 066006 3732-X/11143-0                                                                                    A08 SPF
111115003790000000000902000000000000000000000000000000004786717000000478671700000000000000000000000000BBSIMPLES AGIL SCFV- PSB FMAS APLIC 066005 3732-X/11143-0                                                                                           A08 SPF
111115003800000000000801000000379882000000000000000000000333428000000413224800000000000000000000000000BB APLIC SOLIDEZ ABSOLUTO EMENDA 81000312 INCREMENTO TEMP AP 3732-X/11473-1                                                                         A08 SPF
111115003810000000000801000000027699500000000000000000000024293000000000000000000003012880000000000000BB ESTRUT RF CP CLASSICO REDE SERV APS PORT2090 EMENDRELAT FMS APLIC 4505 3732-X/11482-0                                                            A08 SPF
111115003830000000000902000000201723900000000000000000003695419000000421809600000014945620000000000000BB GBF IGDBF FMAS APLIC 1038 3732-X/11141-4                                                                                                         A08 SPF
111115003840000000000202000001317071300000000000000000008944955000001300000000000091156680000000000000BB IR DOACAO APLIC FUNDICA 1050 3732-X/11012-4                                                                                                      A08 SPF
111115003890000000000801000000053863300000000000000000000477826000000055102900000004654300000000000000BANRISUL NFG FMS APLIC 4300 1064/040830240-8                                                                                                        A08 SPF
111115003910000000000701000000000000000000000000000000004014585000000000000000000040145850000000000000BB CUSTEIO EMENDIND32980001 APLIC 70607 3732-X/12839-2                                                                                              A08 SPF
111115003920000000000603000001683888300000000000000000000918440000001386068500000038966380000000000000BANRISUL PAVIMENTA RS PREF APLIC 1212 1064/040835690-7                                                                                              A08 SPF
111115003930000000000603000000113796900000000000000000000047216000000086389100000003212940000000000000BANRISUL CONTRAPARTIDA PAVIMENTA RS PREF APLIC 0001 1064/040835690-7                                                                                A08 SPF
111115003960000000000801000000076674000000000000000000000073452000000000000000000008401920000000000000BB EMENDA RELATOR RF CP ABSOLUTO 81000293 VEICULO PORT1687 FMS APLIC 4505 3732-X/11482-0                                                            A08 SPF
111115003970000000000801000000017344900000000000000000000018189000000000000000000001916380000000000000BANRISUL EQUIP ODONTO UBS PORT SES/RS 395/22 APLIC 4293 1064/040836820-4                                                                            A08 SPF
111115003980000000005001000000625027200000000000000000101841392000010782423700000002674270000000000000BB BLOCO CUSTEIO SUS FMS APLIC 4000 3732-X/11473-1                                                                                                  S08 NPF
111115003980100000000801000000000000000000000000000000091209139000009120913900000000000000000000000000BB APLIC CP PLENO CUSTEIO ATENCAO BASICA FMS 060001 3732-X/11473-1                                                                                  A09 SPF
111115003980200000000801000000560575000000000000000000000470347000000607609700000000000000000000000000BB APLIIC SOLIDEZ PLENO CUSTEIO AP PORT MS/GM 4358/2022 E 627/2023 60007 3732-X/11473-1                                                             A09 SPF
111115003980300000000801000000000000000000000000000000005200878000000520087800000000000000000000000000BB APLIC SIMPLES AGIL CUSTEIO  ASSIST FARMACEUTICA FMS  060004 3732-X/11473-1                                                                       A09 SPF
111115003980900000000801000000064452200000000000000000004961028000000533812300000002674270000000000000BB PISO ENFERMAGEM APLIC 60500 3732-X/12645-4                                                                                                       A09 SPF
111115003990000000005001000007342878500000000000000000247716711000018996146000001311840360000000000000BB BLOCO INVESTIMENTO SUS FMS APLIC 4000 3732-X/11482-0                                                                                             S08 NPF
111115003990200000000501000000038130500000000000000000000029154000000018490000000002255590000000000000BB FNDE/PAR/MOBILIARIO 2023 APLIC 56903 3732-X/12652-7                                                                                              A09 SPF
111115003990500000000201000000000000000000000000000000025421719000002542171900000000000000000000000000BB CIP PREF APLIC 0001 3732-X/7641-4                                                                                                                A09 SPF
111115003990600000000201000000000000000000000000000000027192713000002719271300000000000000000000000000BB FEP PREF APLIC 0704 3732-X/4015-0                                                                                                                A09 SPF
111115003990700000000201000005087545000000000000000000090412774000010237725600000389109680000000000000BB FR501 APLIC PREF 0001 3732-X/12350-1                                                                                                             A09 SPF
111115003991100000000201000000000000000000000000000000014967175000001459998800000003671870000000000000BANRISUL APLIC LC194/2022 PREF  502 1064/040131530-6                                                                                                A09 SPF
111115003991200000001002000000634988900000000000000000000399229000000380700000000029421180000000000000BANRISUL CISTERNAS CONVFPE2411/2022 APLIC 70107 1064/040837210-4                                                                                    A09 SPF
111115003991300000000503000000524939500000000000000000000431679000000561526500000000658090000000000000BB LC195/22 LEI PAULO GUSTAVO ART5 APLIC 715 3732-X/12627-6                                                                                         A09 SPF
111115003991400000000503000000212071100000000000000000000159635000000225612500000000242210000000000000BB LC195/22 LEI PAULO GUSTAVO ART8 APLIC 716 3732-X/12628-4                                                                                         A09 SPF
111115003991500000000201000000000000000000000000000000000118440000000011844000000000000000000000000000BB CFEM PREF APLIC 70801 3732-X/11636-X                                                                                                             A09 SPF
111115003991600000000502000000724495500000000000000000008048056000000755469500000077383160000000000000BB ESCOLA TEMPO INTEGRAL APLIC 56904 3732-X/12707-8                                                                                                 A09 SPF
111115003991700000001001000000000000000000000000000000010036463000000000000000000100364630000000000000BB INVESTIMENTO EMENDIND3666011 APLIC 70608 3732-X/12829-5                                                                                          A09 SPF
111115003991800000000801000000120708000000000000000000001232203000000083335900000016059240000000000000BB APLIC SIMPLES SOLIDEZ CUSTEIO VISA FMS 60003 3732-X/11473-1                                                                                      A09 SPF
111115003992000000000701000000000000000000000000000000020072826000000000000000000200728260000000000000BB INVESTIMENTO EMENDIND24070001 APLIC 70609 3732-X/12835-X                                                                                         A09 SPF
111115003992100000001001000000000000000000000000000000024097410000000000000000000240974100000000000000BB INVESTIMENTO EMENDIND90480002 APLIC 70610 3732-X/12832-5                                                                                         A09 SPF
111115003992200000000801000000000000000000000000000000025097235000000000000000000250972350000000000000BB EMENDA ESTRUT ATENCAO PRIMARIA SAUDE INVEST FMS APLIC 60106 3732-X/11482-0                                                                       A09 SPF
111115005000000000000902000000508446900000000000000000005415999000000825440000000022460680000000000000BANRISUL CONVENIO STDP-RS 949/2023 APLIC 66503 1064/040837860-9                                                                                     A07 SPF
111115006000000000000902000000203173400000000000000000000088228000000199820000000001217620000000000000BANRISUL CONTRAP CONVENIO STDP-RS 949/2023 APLIC 500 1064/040837860-9                                                                               A07 SPF
111115007000000000001001000000750239300000000000000000000367984000000570575400000021646230000000000000BANRISUL APLIC COLHEDORA DE FORRAGENS CONV FPE 1447/2023-SDR/RS 70108 1064/040838800-0                                                              A07 SPF
111115008000000000001001000000328550600000000000000000000149477000000249424600000009407370000000000000BANRISUL APLIC CONTRAP COLHEDORA DE FORRAGENS CONV FPE 1447/2023-SDR/RS 500 1064/040838800-0                                                        A07 SPF
111115009000000000000801000000000000000000000000000000002542262000000254226200000000000000000000000000BANRISUL ARBOVIROSES/ONDAS DE CALOR PORTSES150/24 APLIC 62116 1064/040802760-1                                                                      A07 SPF
111115010000000000000602000000000000000000000000000000014544069000001454406900000000000000000000000000BB PONTE MEDEIROS/GIRUA APLIC 70201 3732-X/12778-7                                                                                                  A07 SPF
111115011000000000000801000000000000000000000000000000001950762000000000000000000019507620000000000000BB TRANSF DIGITAL SUS FMS APLIC 60010 3732-X/11473-1                                                                                                A07 SPF
111115012000000000000703000000000000000000000000000000000083093000000008309300000000000000000000000000BANRISUL APLIC MULTA DE TRANSITO PREF  752 944/040188130-5                                                                                          A07 SPF
111115013000000000000902000000000000000000000000000000002300412000000000000000000023004120000000000000BANRISUL FEAS PISO GACHO REGULAR APLIC 66102 1064/040806820-0                                                                                       A07 SPF
111300000000000000005001000000000000000000000000000001015265549000101526554900000000000000000000000000CAIXA E EQUIVALENTES DE CAIXA - VALORES RESTITUVEIS E VINCULADOS                                                                                    S04 NPP
111310000000000000005001000000000000000000000000000001015265549000101526554900000000000000000000000000DEPSITOS RESTITUVEIS E VALORES VINCULADOS - CONSOLIDAO                                                                                              S05 NPF
111310100000000000005001000000000000000000000000000001015265549000101526554900000000000000000000000000DEPSITOS CONSIGNADOS                                                                                                                                S06 NPF
111310102000000000000201000000000000000000000000000000338381149000033838114900000000000000000000000000BB RETENCOES PREF MOV 8001 3732-X/7132-3                                                                                                            A07 SPF
111310103000000000000201000000000000000000000000000000557057575000055705757500000000000000000000000000BANRISUL RETENCOES MOV 8001 1064/040131530-6                                                                                                        A07 SPF
111310105000000000000201000000000000000000000000000000119826825000011982682500000000000000000000000000SICREDI PREF RETENCAO 8001 0306/07878-4                                                                                                             A07 SPF
112000000000000000005001000005628911300000000000000000255365585000023663884100000750158570000000000000CRDITOS A CURTO PRAZO                                                                                                                               S03 NPP
112100000000000000005001000002566905600000000000000000106999265000011683169400000158366270000000000000CRDITOS TRIBUTRIOS A RECEBER                                                                                                                        S04 NPP
112110000000000000005001000002566905600000000000000000106999265000011683169400000158366270000000000000CRDITOS TRIBUTRIOS A RECEBER - CONSOLIDAO                                                                                                           S05 NPP
112110100000000000005001000001197557500000000000000000077357505000007968127600000096518040000000000000IMPOSTOS                                                                                                                                            S06 NPP
112110105000000000005001000001057281100000000000000000076836015000007827851200000091303140000000000000IPTU                                                                                                                                                A07 SPP
112110107000000000005001000000140276400000000000000000000521490000000140276400000005214900000000000000ISS                                                                                                                                                 A07 SPP
112110200000000000005001000000507803100000000000000000029641760000002947377700000052460140000000000000TAXAS                                                                                                                                               S06 NPP
112110201000000000005001000000087394100000000000000000001272307000000082125500000013249930000000000000TAXAS PELO EXERCCIO DO PODER DE POLCIA                                                                                                              A07 SPP
112110202000000000005001000000420409000000000000000000028369453000002865252200000039210210000000000000TAXAS PELA PRESTAO DE SERVIOS                                                                                                                       A07 SPP
112110300000000000005001000000861545000000000000000000000000000000000767664100000009388090000000000000CONTRIBUIES DE MELHORIA                                                                                                                             S06 NPP
112110301000000000005001000000861545000000000000000000000000000000000767664100000009388090000000000000CONTRIBUIES DE MELHORIA                                                                                                                             A07 SPP
112300000000000000005001000001408103300000000000000000061258652000003245862900000428810560000000000000CRDITOS DE TRANSFERNCIAS A RECEBER                                                                                                                  S04 NPP
112340000000000000005001000000000000000000000000000000061258652000001837759600000428810560000000000000CRDITOS DE TRANSFERNCIAS A RECEBER - INTER OFSS - ESTADO                                                                                            S05 NPP
112340800000000000005001000000000000000000000000000000061258652000001837759600000428810560000000000000CRDITOS DECORRENTES DE TRANSFERNCIAS DE CONVNIOS                                                                                                    S06 NPP
112340802000000000005001000000000000000000000000000000061258652000001837759600000428810560000000000000PAVIMENTA RS/ETAPA 2 70109                                                                                                                          A07 SPP
112350000000000000005001000001408103300000000000000000000000000000001408103300000000000000000000000000CRDITOS DE TRANSFERNCIAS A RECEBER - INTER OFSS - MUNICPIO                                                                                          S05 NPP
112350100000000000005001000001408103300000000000000000000000000000001408103300000000000000000000000000TERMO DE CONVNIO S/NR PONTE INDEP/GIRUA COLONIA MEDEIROS                                                                                            A06 SPP
112500000000000000005001000001710000000000000000000000035762046000003316204600000197000000000000000000DVIDA ATIVA TRIBUTRIA                                                                                                                               S04 NPP
112510000000000000005001000001710000000000000000000000035762046000003316204600000197000000000000000000DVIDA ATIVA TRIBUTRIA - CONSOLIDAO                                                                                                                  S05 NPP
112510100000000000005001000001640000000000000000000000024473695000002367369500000172000000000000000000DVIDA ATIVA TRIBUTRIA DOS IMPOSTOS                                                                                                                  S06 NPP
112510105000000000005001000001610000000000000000000000022166564000002146656400000168000000000000000000DVIDA ATIVA DO IPTU                                                                                                                                 S07 NPP
112510105010000000005001000001610000000000000000000000000411486000001651148600000000000000000000000000COBRANA ADMINISTRATIVA                                                                                                                              A08 SPP
112510105030000000005001000000000000000000000000000000021755078000000495507800000168000000000000000000IPTU CP                                                                                                                                             A08 SPP
112510107000000000005001000000030000000000000000000000002307131000000220713100000004000000000000000000DVIDA ATIVA DO ISS                                                                                                                                  S07 NPP
112510107010000000005001000000030000000000000000000000000241996000000054199600000000000000000000000000COBRANA ADMINISTRATIVA                                                                                                                              A08 SPP
112510107030000000005001000000000000000000000000000000001621288000000122128800000004000000000000000000ISSQN CP                                                                                                                                            A08 SPP
112510107040000000005001000000000000000000000000000000000443847000000044384700000000000000000000000000ISSQN - FIXO CP                                                                                                                                     A08 SPP
112510200000000000005001000000070000000000000000000000011288351000000948835100000025000000000000000000DVIDA ATIVA TRIBUTRIA DAS TAXAS                                                                                                                     S06 NPP
112510201000000000005001000000070000000000000000000000004847844000000484784400000007000000000000000000DVIDA ATIVA DAS TAXAS PELO EXERCCIO DO PODER DE POLCIA                                                                                              S07 NPP
112510201010000000005001000000070000000000000000000000000014186000000071418600000000000000000000000000COBRANA ADMINISTRATIVA                                                                                                                              A08 SPP
112510201030000000005001000000000000000000000000000000003010485000000231048500000007000000000000000000TAXA DE VISTORIA CP                                                                                                                                 A08 SPP
112510201040000000005001000000000000000000000000000000000074008000000007400800000000000000000000000000VISTORIA SANITARIA CP                                                                                                                               A08 SPP
112510201050000000005001000000000000000000000000000000000300654000000030065400000000000000000000000000ALVARA LICENCA E LOCALIZACAO CP                                                                                                                     A08 SPP
112510201060000000005001000000000000000000000000000000000026790000000002679000000000000000000000000000TAXA LICENCA AMBIENTAL CP                                                                                                                           A08 SPP
112510201070000000005001000000000000000000000000000000000125967000000012596700000000000000000000000000TAXA DE LICENCA DE LOCALIZACAO CP                                                                                                                   A08 SPP
112510201080000000005001000000000000000000000000000000001295754000000129575400000000000000000000000000TAXA DE FISCALIZACAO CP                                                                                                                             A08 SPP
112510202000000000005001000000000000000000000000000000006440507000000464050700000018000000000000000000DVIDA ATIVA DAS TAXAS PELA PRESTAO DE SERVIOS                                                                                                       S07 NPP
112510202010000000005001000000000000000000000000000000003612884000000361288400000000000000000000000000COBRANA ADMINISTRATIVA                                                                                                                              A08 SPP
112510202030000000005001000000000000000000000000000000000003910000000000391000000000000000000000000000CERTIDAO CP                                                                                                                                         A08 SPP
112510202040000000005001000000000000000000000000000000000014794000000001479400000000000000000000000000TAXA DE EXPEDIENTE CP                                                                                                                               A08 SPP
112510202050000000005001000000000000000000000000000000002808919000000100891900000018000000000000000000TAXA DE COLETA DE LIXO CP                                                                                                                           A08 SPP
112600000000000000005001000000000000000000000000000000051345622000005114562200000002000000000000000000DVIDA ATIVA NO TRIBUTRIA                                                                                                                            S04 NPP
112610000000000000005001000000000000000000000000000000051345622000005114562200000002000000000000000000DVIDA ATIVA NO TRIBUTRIA  - CONSOLIDAO                                                                                                              S05 NPP
112610100000000000005001000000000000000000000000000000001913004000000191300400000000000000000000000000DVIDA ATIVA NO TRIBUTRIA                                                                                                                            S06 NPP
112610102000000000005001000000000000000000000000000000001913004000000191300400000000000000000000000000DIVIDA ATIVA NAO TRIBUTARIA - EXCETO TITULO DO TCE/RS                                                                                               A07 SPP
112619900000000000005001000000000000000000000000000000049432618000004923261800000002000000000000000000DEMAIS VALORES INSCRITOS EM DVIDA ATIVA NO TRIBUTRIA                                                                                                S06 NPP
112619902000000000005001000000000000000000000000000000023831790000002363179000000002000000000000000000SERV MAQUINA CP                                                                                                                                     A07 SPP
112619903000000000005001000000000000000000000000000000011738630000001173863000000000000000000000000000STT - MILHO CP                                                                                                                                      A07 SPP
112619904000000000005001000000000000000000000000000000001983447000000198344700000000000000000000000000CALCARIO CP                                                                                                                                         A07 SPP
112619905000000000005001000000000000000000000000000000002916149000000291614900000000000000000000000000HABITACAO CP                                                                                                                                        A07 SPP
112619906000000000005001000000000000000000000000000000000049324000000004932400000000000000000000000000PROGRAMA PSICULTURA CP                                                                                                                              A07 SPP
112619907000000000005001000000000000000000000000000000001978977000000197897700000000000000000000000000CLARO TELEFONE CP                                                                                                                                   A07 SPP
112619908000000000005001000000000000000000000000000000000102331000000010233100000000000000000000000000INDENIZACOES E RESTITUICOES CP                                                                                                                      A07 SPP
112619909000000000005001000000000000000000000000000000000277226000000027722600000000000000000000000000VIVO TELEFONE CP                                                                                                                                    A07 SPP
112619910000000000005001000000000000000000000000000000004189536000000418953600000000000000000000000000MULTAS E JUROS PREVISTOS EM CONTRATO CP                                                                                                             A07 SPP
112619911000000000005001000000000000000000000000000000000882453000000088245300000000000000000000000000VIVO TELEFONE 2008 CP                                                                                                                               A07 SPP
112619912000000000005001000000000000000000000000000000000833943000000083394300000000000000000000000000CLARO TELEFONE 2008 CP                                                                                                                              A07 SPP
112619913000000000005001000000000000000000000000000000000022799000000002279900000000000000000000000000TELEFONE CELULAR CP                                                                                                                                 A07 SPP
112619914000000000005001000000000000000000000000000000000048124000000004812400000000000000000000000000MULTA AUTO DE INFRACAO CP                                                                                                                           A07 SPP
112619915000000000005001000000000000000000000000000000000202159000000020215900000000000000000000000000STT - MILHO TRANSGENICO CP                                                                                                                          A07 SPP
112619916000000000005001000000000000000000000000000000000375730000000037573000000000000000000000000000GLOSA EM PRESTACAO DE CONTAS CP                                                                                                                     A07 SPP
112900000000000000005001000000000000000000005609760000000000000000000304085000000000000000000003601826- AJUSTE DE PERDAS DE CRDITOS A CURTO PRAZO                                                                                                         S04 NPP
112910000000000000005001000000000000000000005609760000000000000000000304085000000000000000000003601826- AJUSTE DE PERDAS DE CRDITOS A CURTO PRAZO - CONSOLIDAO                                                                                            S05 NPP
112910400000000000005001000000000000000000005609760000000000000000000304085000000000000000000003601826- PERDAS ESTIMADAS EM CRDITOS DE DVIDA ATIVA TRIBUTRIA                                                                                              S06 NPP
112910401000000000005001000000000000000000005609760000000000000000000243506200000000000000000002996038- PERDAS ESTIMADAS EM CRDITOS DE DVIDA ATIVA TRIBUTRIA - IMPOSTOS                                                                                   S07 NPP
112910401050000000005001000000000000000000004583030000000000000000000243506200000000000000000002893365- PERDAS ESTIMADAS EM CRDITOS DE DVIDA ATIVA TRIBUTRIA - IPTU                                                                                       A08 SPP
112910401070000000005001000000000000000000001026730000000000000000000000000000000000000000000000102673- PERDAS ESTIMADAS EM CRDITOS DE DVIDA ATIVA TRIBUTRIA - ISS                                                                                        A08 SPP
112910402000000000005001000000000000000000000000000000000000000000000060578800000000000000000000605788- PERDAS ESTIMADAS EM CRDITOS DE DVIDA ATIVA TRIBUTRIA - TAXAS                                                                                      A07 SPP
113000000000000000005001000002226212200000000000000000129863018000014731922900000048059110000000000000DEMAIS CRDITOS E VALORES A CURTO PRAZO                                                                                                              S03 NPP
113100000000000000005001000000103000000000000000000000124042517000012487251700000002000000000000000000ADIANTAMENTOS CONCEDIDOS                                                                                                                            S04 NPP
113110000000000000005001000000103000000000000000000000124042517000012487251700000002000000000000000000ADIANTAMENTOS CONCEDIDOS - CONSOLIDAO                                                                                                               S05 NPP
113110100000000000005001000000000000000000000000000000120312517000012031251700000000000000000000000000ADIANTAMENTOS CONCEDIDOS A PESSOAL                                                                                                                  S06 NPP
113110101000000000005001000000000000000000000000000000075953110000007595311000000000000000000000000000SALRIOS E ORDENADOS - ADIANTAMENTOS                                                                                                                 A07 SPF
1131101040000000000050010000000000000000000000000000000399001340000039900134000000000000000000000000001/3 DE FRIAS - ADIANTAMENTO                                                                                                                         A07 SPF
113110199000000000005001000000000000000000000000000000004459273000000445927300000000000000000000000000OUTROS ADIANTAMENTOS A PESSOAL                                                                                                                      A07 SPF
113110200000000000005001000000103000000000000000000000003730000000000456000000000002000000000000000000SUPRIMENTO DE FUNDOS                                                                                                                                S06 NPP
113110201000000000005001000000000000000000000000000000000350000000000035000000000000000000000000000000JAIRO JOSE MELLER                                                                                                                                   A07 SPP
113110202000000000005001000000020000000000000000000000000300000000000050000000000000000000000000000000ADALBERTO MARTINI                                                                                                                                   A07 SPP
113110203000000000005001000000010000000000000000000000000400000000000050000000000000000000000000000000PEDRO NELCI MACHADO                                                                                                                                 A07 SPP
113110204000000000005001000000020000000000000000000000000000000000000020000000000000000000000000000000VERIDIANA NOGARA                                                                                                                                    A07 SPP
113110210000000000005001000000023000000000000000000000000230000000000046000000000000000000000000000000JAIR CESAR SOUZA                                                                                                                                    A07 SPP
113110211000000000005001000000010000000000000000000000000200000000000030000000000000000000000000000000ANDERSON DIEGO SALAZAR                                                                                                                              A07 SPP
113110215000000000005001000000000000000000000000000000000800000000000080000000000000000000000000000000ELI OLIVEIRA BAIOTTO                                                                                                                                A07 SPP
113110218000000000005001000000020000000000000000000000000200000000000020000000000002000000000000000000CELSON SIDINEI SCHULTZ FONSECA                                                                                                                      A07 SPP
113110219000000000005001000000000000000000000000000000001200000000000120000000000000000000000000000000VANDERLEIA APARECIDA DARONCO CAUDURO                                                                                                                A07 SPP
113110226000000000005001000000000000000000000000000000000050000000000005000000000000000000000000000000CANDIDA SCHOTINGER                                                                                                                                  A07 SPP
113200000000000000005001000000000000000000000000000000002585272000000258527200000000000000000000000000TRIBUTOS A RECUPERAR/COMPENSAR                                                                                                                      S04 NPP
113230000000000000005001000000000000000000000000000000002585272000000258527200000000000000000000000000TRIBUTOS A RECUPERAR/COMPENSAR - INTER OFSS - UNIO                                                                                                  S05 NPP
113230600000000000005001000000000000000000000000000000002585272000000258527200000000000000000000000000CONTRIBUIO AO RGPS A COMPENSAR                                                                                                                      S06 NPF
113230601000000000005001000000000000000000000000000000002100275000000210027500000000000000000000000000SALRIO-MATERNIDADE A COMPENSAR                                                                                                                      A07 SPF
113230603000000000005001000000000000000000000000000000000484997000000048499700000000000000000000000000SALRIO-FAMLIA A COMPENSAR                                                                                                                           A07 SPF
113400000000000000005001000000260531700000000000000000002365036000000124290000000037274530000000000000CRDITOS POR DANOS AO PATRIMNIO                                                                                                                      S04 NPP
113410000000000000005001000000260531700000000000000000002365036000000124290000000037274530000000000000CRDITOS POR DANOS AO PATRIMNIO - CONSOLIDAO                                                                                                         S05 NPP
113410100000000000005001000000260531700000000000000000002365036000000124290000000037274530000000000000CRDITOS POR DANOS AO PATRIMONIO DECORRENTES DE PROCESSOS ADMINISTRATIVOS                                                                            S06 NPP
113410103000000000005001000000000000000000000000000000000384426000000000000000000003844260000000000000CRDITOS A RECEBER DECORRENTES DE DOLO M-F OU FRAUDE                                                                                                 A07 SPP
113410105000000000005001000000045243700000000000000000001980610000000047025300000019627940000000000000CRDITOS A RECEBER POR IRREGULARIDADES DE TERCEIROS EM PRESTAO DE SERVIOS                                                                            S07 NPP
113410105010000000005001000000012000000000000000000000000017816000000013781600000000000000000000000000S SCHNEIDER EIRELI CONTRATO 11/2021 PORTSIND38/2022                                                                                                 A08 SPP
113410105030000000005001000000033243700000000000000000000000000000000033243700000000000000000000000000CONSTRUTORA BOA VISTA EIRELI-ME PORTSIND25/2023-PA                                                                                                  A08 SPP
113410105060000000005001000000000000000000000000000000001962794000000000000000000019627940000000000000GESSELMAR AVELINO BOLICO EPP                                                                                                                        A08 SPP
113410199000000000005001000000215288000000000000000000000000000000000077264700000013802330000000000000OUTROS CRDITOS POR DANO AO PATRIMNIO - CRDITOS ADMINISTRATIVOS                                                                                      S07 NPP
113410199010000000005001000000001041300000000000000000000000000000000001041300000000000000000000000000JAIR CESAR SOUZA MULTA DE TRANSITO PORTSIND51/2022-PA                                                                                               A08 SPP
113410199030000000005001000000018325500000000000000000000000000000000018325500000000000000000000000000ANTONIO AVELINO FERREIRA PORTSIND34/2022-PA E 20/2023-PA                                                                                            A08 SPP
113410199040000000005001000000002082500000000000000000000000000000000002082500000000000000000000000000ANTONIO AVELINO FERREIRA PORTSIND45/2023-PA                                                                                                         A08 SPP
113410199060000000005001000000149919900000000000000000000000000000000040329400000010959050000000000000ADRIANA NASCIMENTO DO AMARAL INSCRIO 4935                                                                                                           A08 SPP
113410199200000000005001000000043918800000000000000000000000000000000015486000000002843280000000000000PEDRO MACHADO PORTSIND64/2022-PA DANOS EM VEICULO                                                                                                   A08 SPP
113800000000000000005001000001862680500000000000000000000870193000001861854000000008784580000000000000OUTROS CRDITOS A RECEBER E VALORES A CURTO PRAZO                                                                                                    S04 NPP
113810000000000000005001000001862680500000000000000000000870193000001861854000000008784580000000000000OUTROS CRDITOS A RECEBER E VALORES A CURTO PRAZO - CONSOLIDAO                                                                                       S05 NPP
113810100000000000005001000001845426500000000000000000000000000000001845426500000000000000000000000000ALUGUIS A RECEBER                                                                                                                                   A06 SPP
113819900000000000005001000000017254000000000000000000000870193000000016427500000008784580000000000000OUTROS CRDITOS A RECEBER E VALORES DE CURTO PRAZO                                                                                                   S06 NPP
113819901000000000005001000000000000000000000000000000000778853000000000000000000007788530000000000000STT-MILHO A RECEBER                                                                                                                                 A07 SPP
113819902000000000005001000000017254000000000000000000000091340000000016427500000000996050000000000000SERVIOS DE MQUINA A RECEBER                                                                                                                         A07 SPP
115000000000000000005001000008132054900000000000000000149150500000017166788300000588031660000000000000ESTOQUES                                                                                                                                            S03 NPP
115600000000000000005001000008132054900000000000000000149150500000017166788300000588031660000000000000ALMOXARIFADO                                                                                                                                        S04 NPP
115610000000000000005001000008132054900000000000000000149150500000017166788300000588031660000000000000ALMOXARIFADO - CONSOLIDAO                                                                                                                           S05 NPP
115610500000000000005001000000000000000000000000000000000336370000000033637000000000000000000000000000MEDICAMENTOS E MATERIAIS HOSPITALARES                                                                                                               A06 SPP
115619900000000000005001000008132054900000000000000000148814130000017133151300000588031660000000000000OUTROS - ALMOXARIFADO                                                                                                                               A06 SPP
119000000000000000005001000002877200200000000000000000115172350000009650145500000474428970000000000000VARIAES PATRIMONIAIS DIMINUTIVAS PAGAS ANTECIPADAMENTE                                                                                              S03 NPF
119100000000000000005001000000141847500000000000000000002113074000000256394100000009676080000000000000PRMIOS DE SEGUROS A APROPRIAR                                                                                                                       S04 NPF
119119900000000000005001000000141847500000000000000000002113074000000256394100000009676080000000000000VPD PAGA ANTECIPADAMENTE -OUTROS PRMIOS DE SEGUROS A APROPRIAR                                                                                      A06 SPP
119200000000000000005001000000000000000000000000000000005948668000000594866800000000000000000000000000VPD FINANCEIRAS A APROPRIAR                                                                                                                         S04 NPF
119210000000000000005001000000000000000000000000000000005948668000000594866800000000000000000000000000VPD FINANCEIRAS A APROPRIAR - CONSOLIDAO                                                                                                            S05 NPF
119210100000000000005001000000000000000000000000000000005948668000000594866800000000000000000000000000RENDIMENTOS FINANCEIROS DO LEGISLATIVO ANTECIPADOS COMO DUODECIMO                                                                                   A06 SPF
119300000000000000005001000000005428700000000000000000000540438000000050032700000000943980000000000000ASSINATURAS E ANUIDADES A APROPRIAR                                                                                                                 S04 NPF
119310000000000000005001000000005428700000000000000000000540438000000050032700000000943980000000000000ASSINATURAS E ANUIDADES A APROPRIAR - CONSOLIDAO                                                                                                    A05 SPP
119400000000000000005001000000125335500000000000000000000000000000000031998000000009333750000000000000ALUGUEIS PAGOS A APROPRIAR                                                                                                                          S04 NPF
119410000000000000005001000000125335500000000000000000000000000000000031998000000009333750000000000000ALUGUEIS PAGOS A APROPRIAR - CONSOLIDAO                                                                                                             S05 NPP
119410100000000000005001000000125335500000000000000000000000000000000031998000000009333750000000000000LOCAO DE REA PARA RETIRADA DE CASCALHO                                                                                                              A06 SPP
119800000000000000005001000002604588500000000000000000106570170000008716853900000454475160000000000000DEMAIS VPD A APROPRIAR                                                                                                                              S04 NPF
119810000000000000005001000002604588500000000000000000106570170000008716853900000454475160000000000000DEMAIS VPD A APROPRIAR - CONSOLIDAO                                                                                                                 S05 NPP
119810100000000000005001000002604588500000000000000000098742457000008712353900000376648030000000000000PARCELAS DE PARCERIAS PAGAS A APROPRIAR                                                                                                             S06 NPP
119810101000000000005001000000148260000000000000000000041500000000001846000000000245226000000000000000APAE DE INDEPENDENCIA                                                                                                                               S07 NPP
119810101060000000005001000000000000000000000000000000018500000000001697740000000015226000000000000000TERMO DE FOMENTO 002/2024 APAE INDEPENDENCIA                                                                                                        A08 SPP
119810101070000000005001000000000000000000000000000000013000000000000000000000000130000000000000000000TERMO DE FOMENTO 003/2024 APAE INDEPENDENCIA - PROJETO MOVER                                                                                        A08 SPP
119810101080000000005001000000148260000000000000000000000000000000000148260000000000000000000000000000TERMO DE FOMENTO 001/2023 APAE INDEPENDENCIA                                                                                                        A08 SPP
119810101110000000005001000000000000000000000000000000010000000000000000000000000100000000000000000000TERMO DE FOMENTO 009/2024 APAE INDEPENDENCIA- EMENDA 202428610005/2024                                                                              A08 SPP
119810102000000000005001000000000000000000000000000000000500000000000050000000000000000000000000000000ASSOCIACAO DE BOMBEIROS VOLUNTARIOS DE TRES DE MAIO                                                                                                 S07 NPP
119810102010000000005001000000000000000000000000000000000500000000000050000000000000000000000000000000TERMO DE FOMENTO 008/2024 ASSOC BOMBEIROS VOLUNT T MAIO                                                                                             A08 SPP
119810103000000000005001000000419772200000000000000000005000000000000919772200000000000000000000000000CTG SENTINELA DO RIO GRANDE                                                                                                                         S07 NPP
119810103010000000005001000000419772200000000000000000000000000000000419772200000000000000000000000000TERMO DE FOMENTO 004/2023 - CTG SENTINELA DO RIO GRANDE                                                                                             A08 SPP
119810103020000000005001000000000000000000000000000000005000000000000500000000000000000000000000000000TERMO DE FOMENTO 005/2024 - CTG SENTINELA DO RIO GRANDE                                                                                             A08 SPP
119810104000000000005001000000436000000000000000000000005394400000000548960000000042648000000000000000ACISAPI                                                                                                                                             S07 NPP
119810104010000000005001000000370000000000000000000000000000000000000370000000000000000000000000000000TERMO DE FOMENTO 007/2023 - ACISAPI                                                                                                                 A08 SPP
119810104020000000005001000000066000000000000000000000000000000000000066000000000000000000000000000000TERMO DE FOMENTO 009/2023 - ACISAPI                                                                                                                 A08 SPP
119810104030000000005001000000000000000000000000000000003700000000000000000000000037000000000000000000TERMO DE FOMENTO 007/2024 - ACISAPI                                                                                                                 A08 SPP
119810104040000000005001000000000000000000000000000000001694400000000112960000000005648000000000000000TERMO DE FOMENTO 006/2024 - ACISAPI                                                                                                                 A08 SPP
119810105000000000005001000000000000000000000000000000002400000000000000000000000024000000000000000000CONSEPRO                                                                                                                                            S07 NPP
119810105020000000005001000000000000000000000000000000002400000000000000000000000024000000000000000000TERMO DE FOMENTO 001/2024 - CONSEPRO                                                                                                                A08 SPP
119810106000000000005001000001313200000000000000000000041239728000005093508400000034366440000000000000HSVP - HOSPITAL SAO VICENTE DE PAULO TRES DE MAIO                                                                                                   S07 NP 
119810106020000000005001000001313200000000000000000000041239728000005093508400000034366440000000000000TERMO DE CONVENIO 02/2022 - HSVP                                                                                                                    A08 SPP
119810107000000000005001000000207356300000000000000000000000000000000207356300000000000000000000000000ASCADI - ASSOC ACADEMICOS INDEPENDENCIA                                                                                                             S07 NPP
119810107020000000005001000000207356300000000000000000000000000000000207356300000000000000000000000000TERMO DE FOMENTO 005/2023 - ASCADI                                                                                                                  A08 SPP
119810108000000000005001000000080000000000000000000000002708329000000046757000000030407590000000000000ONG AMOR ANIMAL                                                                                                                                     S07 NPP
119810108010000000005001000000080000000000000000000000000000000000000025923700000005407630000000000000TERMO DE FOMENTO 010/2023 ONG AMOR ANIMAL                                                                                                           A08 SPP
119810108020000000005001000000000000000000000000000000002708329000000020833300000024999960000000000000TERMO DE FOMENTO 004/2024 ONG AMOR ANIMAL                                                                                                           A08 SPP
119811200000000000005001000000000000000000000000000000000045000000000004500000000000000000000000000000INSCRIES PAGAS ANTECIPADAMENTE                                                                                                                      A06 SPP
119811600000000000005001000000000000000000000000000000007782713000000000000000000077827130000000000000LEI PAULO GUSTAVO                                                                                                                                   S06 NPP
119811601000000000005001000000000000000000000000000000005550445000000000000000000055504450000000000000TERMO DE EXECUO CULTURAL N 01/2024 NATHAN SANTOS ROLIM                                                                                              A07 SPP
119811602000000000005001000000000000000000000000000000002232268000000000000000000022322680000000000000TERMO DE EXECUO CULTURAL N 02/2024 NATHAN SANTOS ROLIM                                                                                              A07 SPP
120000000000000000005001000217831366500000000000000008176094832000111022943600092441790610000000000000ATIVO NO CIRCULANTE                                                                                                                                 S02 NPF
121000000000000000005001000000438090000000000000000000148120545000015025585700000022455880000000000000ATIVO REALIZVEL A LONGO PRAZO                                                                                                                       S03 NPP
121100000000000000005001000000130876800000000000000000122568379000012183787200000020392750000000000000CRDITOS A LONGO PRAZO                                                                                                                               S04 NPP
121110000000000000005001000000130876800000000000000000122568379000012183787200000020392750000000000000CRDITOS A LONGO PRAZO - CONSOLIDAO                                                                                                                  S05 NPP
121110400000000000005001000002590955700000000000000000059073813000005430138800000306819820000000000000DVIDA ATIVA TRIBUTRIA                                                                                                                               S06 NPP
121110401000000000005001000002590955700000000000000000059073813000005430138800000306819820000000000000CRDITOS NO PREVIDENCIRIOS INSCRITOS                                                                                                                 S07 NPP
121110401050000000005001000001360237100000000000000000035036874000003291798000000157212650000000000000DVIDA ATIVA DO IPTU                                                                                                                                 S08 NPP
