87612826000190010120253101202501022025PREFEITURA MUNICIPAL INDEPENDENCIA                                              
100000000000000000005001001472921596900000000000000001082438962000090529616800149063587630000000000000ATIVO                                                                                                                                               S01 NPF00000000050000000000
110000000000000000005001000085342389200000000000000001058169209000087419855800010373945430000000000000ATIVO CIRCULANTE                                                                                                                                    S02 NP 00000000050000000000
111000000000000000005001000064890825700000000000000001026114841000083097436200008440487360000000000000CAIXA E EQUIVALENTES DE CAIXA                                                                                                                       S03 NPF00000000050000000000
111100000000000000005001000064890825700000000000000000952522909000077379840400008276327620000000000000CAIXA E EQUIVALENTES DE CAIXA EM MOEDA NACIONAL                                                                                                     S04 NPF00000000050000000000
111110000000000000005001000064890825700000000000000000952522909000077379840400008276327620000000000000CAIXA E EQUIVALENTES DE CAIXA EM MOEDA NACIONAL - CONSOLIDAO                                                                                        S05 NPF00000000050000000000
111111900000000000005001000001771056000000000000000000674783381000069236192300000001320180000000000000BANCOS CONTA MOVIMENTO - DEMAIS CONTAS                                                                                                              S06 NPF00000000050000000000
111111902000000000005001000001757191200000000000000000444863219000046232711300000001080180000000000000BANCO DO BRASIL                                                                                                                                     S07 NPF00000000050000000000
111111902010000000000201000000000000000000000000000000125980762000012598076200000000000000000000000000BB GERAL PREF MOV 0001 3732-X/7132-3                                                                                                                A08 SPF00000000150000000000
111111902020000000000201000000000000000000000000000000139241238000013924123800000000000000000000000000BB FPM PREF MOV 0001 3732-X/7129-3                                                                                                                  A08 SPF00000000150000000000
111111902030000000000201000000000000000000000000000000000653327000000065332700000000000000000000000000BB ADO LC 176/2020 PREF MOV 0001 3732-X/283141-4                                                                                                    A08 SPF00000000150100000000
111111902040000000000201000000000000000000000000000000002582653000000258265300000000000000000000000000BB FEP PREF MOV 0704 3732-X/4015-0                                                                                                                  A08 SPF00000000170400000000
111111902050000000000201000000000000000000000000000000001542893000000154289300000000000000000000000000BB ITR PREF MOV 0001 3732-X/7385-7                                                                                                                  A08 SPF00000000150000000000
111111902060000000000201000000000000000000000000000000000002863000000000286300000000000000000000000000BB CFEM PREF MOV 70801 3732-X/11636-X                                                                                                               A08 SPF00000000170800000000
111111902070000000000801000001066482500000000000000000018538662000002920348700000000000000000000000000BB GERAL FMS MOV 0040 3732-X/10062-5                                                                                                                A08 SPF00000000150000000000
111111902100000000000801000000000000000000000000000000000168601000000016860100000000000000000000000000BB INCENTIVO VIG SAUDE - CUSTEIO FMS MOV 60011 3732-X/11473-1                                                                                       A08 SPF00000000160000000000
111111902110000000000201000000230793900000000000000000018019588000002032752700000000000000000000000000BB MDE PREF MOV 0020 3732-X/5011-3                                                                                                                  A08 SPF00000000150000000000
111111902130000000000201000000000000000000000000000000005954547000000595454700000000000000000000000000BB QSE PREF MOV 0550 3732-X/7684-8                                                                                                                  A08 SPF00000000155000000000
111111902140000000000201000000000000000000000000000000000260125000000026012500000000000000000000000000BB CIDE PREF MOV 0750 3732-X/7827-1                                                                                                                 A08 SPF00000000175000000000
111111902250000000000201000000000000000000000000000000004308478000000430847800000000000000000000000000BB ARRECADACAO PREF MOV 0001 3732-X/12340-4                                                                                                         A08 SPF00000000150000000000
111111902290000000000502000000443358300000000000000000098409546000010284312900000000000000000000000000BB FUNDEB SMECDT MOV 540 3732-X/13035-4                                                                                                             A08 SPF00000000154000000000
111111902340000000000301000000000000000000000000000000006790039000000679003900000000000000000000000000BB FR501 PREF 0001 3732-X/12350-1                                                                                                                   A08 SPF00000000150100000000
111111902390000000000902000000016556500000000000000000000000000000000016556500000000000000000000000000BB COVID-19/SUAS PORT MC 751/2022 MOV 1019 3732-X/11143-0                                                                                           A08 SPF00000000166000000000
111111902420000000000201000000000000000000000000000000004083032000000408303200000000000000000000000000BB SNA PREF MOV 0001 3732-X/8928-1                                                                                                                  A08 SPF00000000150000000000
111111902460000000000801000000000000000000000000000000004857600000000485760000000000000000000000000000BB PISO ACS FMS MOV 604 3732-X/11473-1                                                                                                              A08 SPF00000000160400000000
111111902480000000000801000000000000000000000000000000000698444000000069844400000000000000000000000000BB PISO ENFERMAGEM MOV 60500 3732-X/12645-4                                                                                                         A08 SPF00000000160500000000
111111902560000000000701000000000000000000000000000000002378678000000237867800000000000000000000000000BB CIP PREF MOV 0001 3732-X/7641-4                                                                                                                  A08 SPF00000000175100000000
111111902590000000000902000000000000000000000000000000000669823000000066982300000000000000000000000000BB GBF IGDBF FMAS MOV 1038 3732-X/11141-4                                                                                                           A08 SPF00000000166000000000
111111902720000000005001000000000000000000000000000000009722320000000961430200000001080180000000000000BB BLOCO DE CUSTEIO SUS MOV 4000 FMS 3732-X/11473-1                                                                                                 S08 NPF00000000050000000000
111111902720100000000801000000000000000000000000000000007086038000000708603800000000000000000000000000BB CUSTEIO ATENCAO BASICA FMS MOV 4500 3732-X/11473-1                                                                                               A09 SPF00000000160000000000
111111902720300000000801000000000000000000000000000000000404366000000040436600000000000000000000000000BB CUSTEIO ASSIST FARMACEUTICA FMS MOV 4503 3732-X/11473-1                                                                                          A09 SPF00000000160000000000
111111902720600000000801000000000000000000000000000000000073583000000000000000000000735830000000000000BB CUSTEIO MAC FMS MOV 4501 3732-X/11473-1                                                                                                          A09 SPF00000000160000000000
111111902721500000000801000000000000000000000000000000000910800000000091080000000000000000000000000000BB PISO ACE MOV FMS 60402 3732-X/11473-1                                                                                                            A09 SPF00000000160400000000
111111902721600000000801000000000000000000000000000000001213098000000121309800000000000000000000000000BB FARMCIA FEDERAL CALAMIDADE MP 1218/2024 MOV FMS 60012 3732-X/12847-3                                                                             A09 SPF00000000160000000000
111111902721700000000801000000000000000000000000000000000014435000000000000000000000144350000000000000BB EXAME PR-NATAL REDE ALYNE PORT5530/24 MOV FMS 60013 3732-X/11473-1                                                                               A09 SPF00000000160000000000
111111902721800000000801000000000000000000000000000000000020000000000000000000000000200000000000000000BB TESTE RPIDO GRAVIDEZ REDE ALYNE PORT5534/24 MOV FMS 60014 3732-X/11473-1                                                                         A09 SPF00000000160000000000
111111912000000000005001000000013864800000000000000000229920162000023003481000000000240000000000000000BANCO DO ESTADO DO RIO GRANDE DO SUL                                                                                                                S07 NPF00000000050000000000
111111912010000000000801000000000000000000000000000000003350462000000335046200000000000000000000000000BANRISUL GERAL FMS MOV 0040 1064/040288190-2                                                                                                        A08 SPF00000000150000000000
111111912020000000000201000000000000000000000000000000222217168000022221716800000000000000000000000000BANRISUL GERAL PREF MOV 0001 1064/040131530-6                                                                                                       A08 SPF00000000150000000000
111111912080000000000201000000000000000000000000000000000049304000000004930400000000000000000000000000BANRISUL MDE PREF MOV 0020 1064/040240210-9                                                                                                         A08 SPF00000000150000000000
111111912090000000000401000000000000000000000000000000000880000000000088000000000000000000000000000000BANRISUL PIT PREF MOV 1112 0944/040131530-6                                                                                                         A08 SPF00000000170100000000
111111912120000000000801000000000000000000000000000000000132062000000013206200000000000000000000000000BANRISUL FARMACIA BASICA FMS MOV 4050 1064/040287221-0                                                                                              A08 SPF00000000162100000000
111111912130000000000801000000000000000000000000000000000203243000000020324300000000000000000000000000BANRISUL CASTRAO MELHORES AMIGOS MOV 62303 1064/040836810-7                                                                                         A08 SPF00000000163200000000
111111912140000000000801000000000000000000000000000000000112981000000011298100000000000000000000000000BANRISUL CONTRAP CASTRAO MELHORES AMIGOS MOV 62303 1064/040836810-7                                                                                 A08 SPF00000000150000000000
111111912280000000001004000000000000000000000000000000000114530000000011453000000000000000000000000000BANRISUL GERAL FMDMA MOV 1005 1064/040285540-5                                                                                                      A08 SPF00000000175900000000
111111912320000000000902000000013864800000000000000000000000000000000013864800000000000000000000000000BANRISUL OASF FEAS FMAS MOV 1103 1064/040806820-0                                                                                                   A08 SPF00000000166500000000
111111912410000000000801000000000000000000000000000000000024000000000000000000000000240000000000000000BANRISUL PRTESE DENTRIA PORTSES 82/2024 E 110/2024 FMS MOV 62120 1064/040287220-2                                                                   A08 SPF00000000162100000000
111111912460000000000801000000000000000000000000000000001562226000000156222600000000000000000000000000BANRISUL PIAPS SOCIODEMOGRAFICO MOV 4011 1064/040287229-6                                                                                           A08 SPF00000000162100000000
111111912470000000000801000000000000000000000000000000000977786000000097778600000000000000000000000000BANRISUL PIAPS INCENTIVO APS MOV 4090 1064/040804700-9                                                                                              A08 SPF00000000162100000000
111111912490000000000801000000000000000000000000000000000296400000000029640000000000000000000000000000BANRISUL PIAPS PIM MOV 4160 1064/040287223-7                                                                                                        A08 SPF00000000162100000000
111113000000000000005001000000000000000000000000000000010049572000001004957200000000000000000000000000REDE BANCRIA - ARRECADAO                                                                                                                            S06 NPF00000000050000000000
111113001000000000000401000000000000000000000000000000010049572000001004957200000000000000000000000000SICREDI ARRECADACAO 0001 0306/14941-0                                                                                                               A07 SPF00000000150000000000
111115000000000000005001000063119769700000000000000000267689956000007138690900008275007440000000000000APLICAES FINANCEIRAS DE LIQUIDEZ IMEDIATA - USO GERAL                                                                                               S06 NPF00000000050000000000
111115002000000000005001000002606053600000000000000000000155263000000000000000000262157990000000000000POUPANA                                                                                                                                             S07 NPF00000000050000000000
111115002030000000000702000002389517200000000000000000000141967000000000000000000240371390000000000000CEF POUPANA PAV URB SICONV917782/2021  70004 0521/00647287-9                                                                                        A08 SPF00000000170000000000
111115002040000000000702000000216536400000000000000000000013296000000000000000000021786600000000000000CEF CONTRAP POUPANA PAV URB SICONV917782/2021  70004 0521/00647287-9                                                                                A08 SPF00000000150000000000
111115003000000000005001000059541279700000000000000000251408700000006066859900007861528980000000000000FUNDOS DE INVESTIMENTO                                                                                                                              S07 NPF00000000050000000000
111115003010000000000201000005506746800000000000000000058341054000000202838600001113801360000000000000BB GERAL PREF APLIC 0001 3732-X/7132-3                                                                                                              A08 SPF00000000150000000000
111115003020000000000602000000129099600000000000000000000011040000000000000000000013020360000000000000BB  RF CP PLENO PAVIMENT CIDADE-BUDEL-ALEGRIA EMEND IND 36660001 APLIC 1028 3732-X/12204-1                                                          A08 SPF00000000170000000000
111115003030000000000201000000000000000000000000000000005968622000000000000000000059686220000000000000BB QSE PREF APLIC 0550 3732-X/7684-8                                                                                                                A08 SPF00000000155000000000
111115003060000000000201000010542337500000000000000000106641721000002337174800001886933480000000000000BANRISUL GERAL PREF APLIC 0001 944/040131530-6                                                                                                      A08 SPF00000000150000000000
111115003100000000000601000002780529400000000000000000000205370000000000000000000280106640000000000000BB PAV RURAL EMENDA IMPOS 28610005/2023 APLIC 70602 3732-X/12597-0                                                                                  A08 SPF00000000170600000000
111115003140000000000902000000011560700000000000000000000000854000000000000000000001164610000000000000BB SIGTV- ESTRUT REDE SV SUAS-CUSTEIO APLIC 66008 3732-X/12824-4                                                                                    A08 SPF00000000166000000000
111115003170000000000201000014291604200000000000000000001448025000000000000000001443640670000000000000SICREDI PREF APLIC 0001 0306/07878-4                                                                                                                A08 SPF00000000150000000000
111115003192400000001001000000480707500000000000000000000049629000000000000000000048567040000000000000BANRISUL APLIC CONSTR POO TUBULAR PROFUNDO CONVFPE2268/22 APLIC 70105 1064/040836800-6                                                              A09 SPF00000000170100000000
111115003200000000001001000000135115300000000000000000000012901000000000000000000013640540000000000000BANRISUL CONTRAP APLIC POO CONVFPE2268/22  70105 1064/040836800-6                                                                                   A08 SPF00000000150000000000
111115003240000000000801000000020143400000000000000000000001809000000020324300000000000000000000000000BANRISUL APLICCASTRAO MELHORES AMIGOS  62303 1064/040836810-7                                                                                       A08 SPF00000000163200000000
111115003260000000000401000000000000000000000000000000000602460000000028000000000003224600000000000000BANRISUL PIT PREF APLIC 1112 0944/040131530-6                                                                                                       A08 SPF00000000170100000000
111115003270000000000201000000000000000000000000000000000258824000000000000000000002588240000000000000BB CIDE PREF APLIC 1018 3732-X/7827-1                                                                                                               A08 SPF00000000175000000000
111115003320000000000801000000011205000000000000000000000000931000000011298100000000000000000000000000BANRISUL CONTRAP APLIC CASTRAO MELHORES AMIGOS 62303 1064/040836810-7                                                                               A08 SPF00000000150000000000
111115003330000000000801000000166130100000000000000000000017465000000000000000000016787660000000000000BANRISUL APLIC UBS AMIGA IDOSO PSES1097/2023  62112 1064/040287220-2                                                                                A08 SPF00000000162100000000
111115003340000000000801000000000000000000000000000000000132124000000000000000000001321240000000000000BANRISUL FARMACIA BASICA FMS APLIC 4050 1064/040287221-0                                                                                            A08 SPF00000000162100000000
111115003350000000000801000000228313300000000000000000000023571000000000000000000023067040000000000000BANRISUL APLIC MATPERM PSES1098/2023 62113 1064/040287220-2                                                                                         A08 SPF00000000162100000000
111115003360000000000801000000054870900000000000000000000005240000000000000000000005539490000000000000BANRISUL APLIC DST PSES1099/2023  62114 1064/040287220-2                                                                                            A08 SPF00000000162100000000
111115003390000000000701000000077972100000000000000000000008050000000000000000000007877710000000000000BANRISUL APLIC PAVIMENTA RS ETAPA 2  70109 1064/040131530-6                                                                                         A08 SPF00000000170100000000
111115003400000000000801000000029785900000000000000000000002700000000000000000000003005590000000000000BB IMPLEM SEG ALIM NUTR SAU FMS APLIC 4505 3732-X/11482-0                                                                                           A08 SPF00000000160100000000
111115003410000000000902000000552661700000000000000000000057057000000000000000000055836740000000000000BANRISUL-APLIC- CONVENIO STDP-RS 2478/2023  66504 1064/040838600-8                                                                                  A08 SPF00000000166500000000
111115003420000000000902000000179013600000000000000000000014618000000000000000000018047540000000000000BANRISUL- APLIC- CONTRAP CONVENIO STDP-RS 2478/2023  500 1064/040838600-8                                                                           A08 SPF00000000150000000000
111115003430000000000602000000704170600000000000000000000063355000000000000000000071050610000000000000BB  RF CP ABSOLUTO PAVIM AREA INDUSTRIAL EMENDA IND 41210001 APLIC 70601 1030 3732-X/12204-1                                                        A08 SPF00000000170600000000
111115003450000000000801000000101626500000000000000000000010492000000000000000000010267570000000000000BANRISUL COVID-19 SAUDE MENTAL PORTSES506/2020 APLIC 4011 1064/040802490-4                                                                          A08 SPF00000000162100000000
111115003470000000000701000000421339300000000000000000000040230000000000000000000042536230000000000000BANRISUL APLIC CONTRAP PAVIMENTA RS ETAPA 2  70109 1064/040131530-6                                                                                 A08 SPF00000000150000000000
111115003500000000001004000000628930500000000000000000000179517000000000000000000064688220000000000000BANRISUL GERAL FMDMA APLIC 1005 1064/040285540-5                                                                                                    A08 SPF00000000175900000000
111115003510000000000801000000028754000000000000000000000003612000000000000000000002911520000000000000BB IRF-M 1 ESTRUT/ADEQ ASSIST ODONT APS RV4505 PORT GM/MS 3473/2020 APLIC 3732-X/11482-0                                                            A08 SPF00000000160100000000
111115003520000000000701000001088495300000000000000000000080396000000000000000000109653490000000000000BB INVESTIMENTO EMENIND 28610007 APLIC 70603 3732-X/12834-1                                                                                         A08 SPF00000000170600000000
111115003530000000000801000000409244400000000000000000000034997000000000000000000041274410000000000000BB RFCP PLENOESTRUT AB EMENDA 28620016 PORT MS/GM 961/2020 RV4505 FMS APLIC 4505 3732-X/11482-0                                                     A08 SPF00000000160100000000
111115003550000000001001000000701241200000000000000000000051794000000000000000000070642060000000000000BB INVESTIMENTO EMEN IND 30770001 APLIC 70604 3732-X/12831-7                                                                                        A08 SPF00000000170600000000
111115003570000000000902000000000000000000000000000000000138708000000000000000000001387080000000000000BANRISUL OASF FEAS FMAS APLIC 1103 1064/040806820-0                                                                                                 A08 SPF00000000166500000000
111115003580000000000502000000851245200000000000000000000076588000000000000000000085890400000000000000BB EDUC INF NOVAS TURMAS APLIC 1003 3732-X/12018-9                                                                                                  A08 SPF00000000156900000000
111115003690000000000502000000000000000000000000000000063309148000003292874000000303804080000000000000BB FUNDEB SMECDT APLIC 540 3732-X/13035-4                                                                                                           A08 SPF00000000154000000000
111115003700000000000902000000000000000000000000000000000165956000000000000000000001659560000000000000COVID-19/SUAS APLICCP AUTOMATICO PORT MC 751/2022 1019 3732-X/11143-0                                                                               A08 SPF00000000166000000000
111115003730000000000601000001292084000000000000000000000133397000000000000000000130542370000000000000BANRISUL PAVIMENTACAO ECOVILLA CONV FPE 456/2022 APLIC 1213 1064/040836340-7                                                                        A08 SPF00000000170100000000
111115003740000000000601000000976977500000000000000000000093282000000000000000000098630570000000000000BANRISUL CONTRAP PAVIMENTACAO ECOVILLA CONV FPE 456/2022 APLIC 1213 1064/040836340-7                                                                A08 SPF00000000150000000000
111115003750000000000801000001725540200000000000000000000178147000000000000000000174335490000000000000BANRISUL C/APLIC REFORMA UBS PORT SES 369 E 653/24  62119 1064/040839230-6                                                                          A08 SPF00000000162100000000
111115003760000000000902000000204558200000000000000000000015109000000000000000000020606910000000000000BB APLIC INCREMENTO TEMP PSB MP1218/24 FMAS  66009 3732-X/12841-4                                                                                   A08 SPF00000000166000000000
111115003810000000000801000000030128800000000000000000000002514000000000000000000003038020000000000000BB ESTRUT RF CP CLASSICO REDE SERV APS PORT2090 EMENDRELAT FMS APLIC 4505 3732-X/11482-0                                                            A08 SPF00000000160100000000
111115003830000000000902000000149456200000000000000000000356993000000032102600000015305290000000000000BB GBF IGDBF FMAS APLIC 1038 3732-X/11141-4                                                                                                         A08 SPF00000000166000000000
111115003840000000000202000000911566800000000000000000000077953000000000000000000091936210000000000000BB IR DOACAO APLIC FUNDICA 1050 3732-X/11012-4                                                                                                      A08 SPF00000000175900000000
111115003890000000000801000000046543000000000000000000000004806000000000000000000004702360000000000000BANRISUL NFG FMS APLIC 4300 1064/040830240-8                                                                                                        A08 SPF00000000162100000000
111115003910000000000701000000401458500000000000000000000029652000000000000000000040442370000000000000BB CUSTEIO EMENDIND32980001 APLIC 70607 3732-X/12839-2                                                                                              A08 SPF00000000170600000000
111115003920000000000603000000389663800000000000000000000040230000000000000000000039368680000000000000BANRISUL PAVIMENTA RS PREF APLIC 1212 1064/040835690-7                                                                                              A08 SPF00000000170100000000
111115003930000000000603000000032129400000000000000000000003068000000000000000000003243620000000000000BANRISUL CONTRAPARTIDA PAVIMENTA RS PREF APLIC 0001 1064/040835690-7                                                                                A08 SPF00000000150000000000
111115003960000000000801000000084019200000000000000000000007560000000000000000000008477520000000000000BB EMENDA RELATOR RF CP ABSOLUTO 81000293 VEICULO PORT1687 FMS APLIC 4505 3732-X/11482-0                                                            A08 SPF00000000160100000000
111115003970000000000801000000019163800000000000000000000001978000000000000000000001936160000000000000BANRISUL EQUIP ODONTO UBS PORT SES/RS 395/22 APLIC 4293 1064/040836820-4                                                                            A08 SPF00000000163200000000
111115003980000000005001000000026742700000000000000000000757940000000034922200000006761450000000000000BB BLOCO CUSTEIO SUS FMS APLIC 4000 3732-X/11473-1                                                                                                  S08 NPF00000000050000000000
111115003980300000000801000000000000000000000000000000000404524000000000000000000004045240000000000000BB APLIC SIMPLES AGIL CUSTEIO  ASSIST FARMACEUTICA FMS  060004 3732-X/11473-1                                                                       A09 SPF00000000160000000000
111115003980900000000801000000026742700000000000000000000353416000000034922200000002716210000000000000BB PISO ENFERMAGEM APLIC 60500 3732-X/12645-4                                                                                                       A09 SPF00000000160500000000
111115003990000000005001000013118403600000000000000000011747213000000107325300001418579960000000000000BB BLOCO INVESTIMENTO SUS FMS APLIC 4000 3732-X/11482-0                                                                                             S08 NPF00000000050000000000
111115003990200000000501000000022555900000000000000000000001666000000000000000000002272250000000000000BB FNDE/PAR/MOBILIARIO 2023 APLIC 56903 3732-X/12652-7                                                                                              A09 SPF00000000156900000000
111115003990500000000201000000000000000000000000000000002390537000000000000000000023905370000000000000BB CIP PREF APLIC 0001 3732-X/7641-4                                                                                                                A09 SPF00000000175100000000
111115003990600000000201000000000000000000000000000000002561282000000000000000000025612820000000000000BB FEP PREF APLIC 0704 3732-X/4015-0                                                                                                                A09 SPF00000000170400000000
111115003990700000000201000003891096800000000000000000006000836000000107325300000438385510000000000000BB FR501 APLIC PREF 0001 3732-X/12350-1                                                                                                             A09 SPF00000000150100000000
111115003991100000000201000000036718700000000000000000000003861000000000000000000003710480000000000000BANRISUL APLIC LC194/2022 PREF  502 1064/040131530-6                                                                                                A09 SPF00000000150200000000
111115003991200000001002000000294211800000000000000000000030375000000000000000000029724930000000000000BANRISUL CISTERNAS CONVFPE2411/2022 APLIC 70107 1064/040837210-4                                                                                    A09 SPF00000000170100000000
111115003991300000000503000000006580900000000000000000000000486000000000000000000000662950000000000000BB LC195/22 LEI PAULO GUSTAVO ART5 APLIC 715 3732-X/12627-6                                                                                         A09 SPF00000000171500000000
111115003991400000000503000000002422100000000000000000000000179000000000000000000000244000000000000000BB LC195/22 LEI PAULO GUSTAVO ART8 APLIC 716 3732-X/12628-4                                                                                         A09 SPF00000000171600000000
111115003991500000000201000000000000000000000000000000000002842000000000000000000000028420000000000000BB CFEM PREF APLIC 70801 3732-X/11636-X                                                                                                             A09 SPF00000000170800000000
111115003991600000000502000000773831600000000000000000000066174000000000000000000078044900000000000000BB ESCOLA TEMPO INTEGRAL APLIC 56904 3732-X/12707-8                                                                                                 A09 SPF00000000156900000000
111115003991700000001001000001003646300000000000000000000074130000000000000000000101105930000000000000BB INVESTIMENTO EMENDIND3666011 APLIC 70608 3732-X/12829-5                                                                                          A09 SPF00000000170600000000
111115003991800000000801000000160592400000000000000000000012296000000000000000000016182200000000000000BB APLIC SIMPLES SOLIDEZ CUSTEIO VISA FMS 60003 3732-X/11473-1                                                                                      A09 SPF00000000160000000000
111115003992000000000701000002007282600000000000000000000148258000000000000000000202210840000000000000BB INVESTIMENTO EMENDIND24070001 APLIC 70609 3732-X/12835-X                                                                                         A09 SPF00000000170600000000
111115003992100000001001000002409741000000000000000000000216810000000000000000000243142200000000000000BB INVESTIMENTO EMENDIND90480002 APLIC 70610 3732-X/12832-5                                                                                         A09 SPF00000000170600000000
111115003992200000000801000002509723500000000000000000000237481000000000000000000253347160000000000000BB EMENDA ESTRUT ATENCAO PRIMARIA SAUDE INVEST FMS APLIC 60106 3732-X/11482-0                                                                       A09 SPF00000000160100000000
111115005000000000000902000000224606800000000000000000000023189000000000000000000022692570000000000000BANRISUL CONVENIO STDP-RS 949/2023 APLIC 66503 1064/040837860-9                                                                                     A07 SPF00000000166500000000
111115006000000000000902000000012176200000000000000000000001163000000000000000000001229250000000000000BANRISUL CONTRAP CONVENIO STDP-RS 949/2023 APLIC 500 1064/040837860-9                                                                               A07 SPF00000000150000000000
111115007000000000001001000000216462300000000000000000000022348000000000000000000021869710000000000000BANRISUL APLIC COLHEDORA DE FORRAGENS CONV FPE 1447/2023-SDR/RS 70108 1064/040838800-0                                                              A07 SPF00000000170100000000
111115008000000000001001000000094073700000000000000000000008982000000000000000000009497190000000000000BANRISUL APLIC CONTRAP COLHEDORA DE FORRAGENS CONV FPE 1447/2023-SDR/RS 500 1064/040838800-0                                                        A07 SPF00000000150000000000
111115011000000000000801000000195076200000000000000000000014409000000000000000000019651710000000000000BB TRANSF DIGITAL SUS FMS APLIC 60010 3732-X/11473-1                                                                                                A07 SPF00000000160000000000
111115013000000000000902000000230041200000000000000000000023750000000000000000000023241620000000000000BANRISUL FEAS PISO GACHO REGULAR APLIC 66102 1064/040806820-0                                                                                       A07 SPF00000000166100000000
111115014000000000000801000000000000000000000000000000010718310000001071831000000000000000000000000000BB GERAL FMS APLIC 0040 3732-X/10062-5                                                                                                              A07 SPF00000000150000000000
111115015000000000000801000000000000000000000000000000001221651000000000000000000012216510000000000000BB FARMCIA FEDERAL CALAMIDADE MP 1218/2024 APLIC FMS 60012 3732-X/12847-3                                                                           A07 SPF00000000160000000000
111115018000000000000401000000000000000000000000000000004092191000000000000000000040921910000000000000BB SNA PREF APLIC 0001 3732-X/8928-1                                                                                                                A07 SPF00000000150000000000
111300000000000000005001000000000000000000000000000000073591932000005717595800000164159740000000000000CAIXA E EQUIVALENTES DE CAIXA - VALORES RESTITUVEIS E VINCULADOS                                                                                    S04 NPP00000000050000000000
111310000000000000005001000000000000000000000000000000073591932000005717595800000164159740000000000000DEPSITOS RESTITUVEIS E VALORES VINCULADOS - CONSOLIDAO                                                                                              S05 NPF00000000050000000000
111310100000000000005001000000000000000000000000000000073591932000005717595800000164159740000000000000DEPSITOS CONSIGNADOS                                                                                                                                S06 NPF00000000050000000000
111310102000000000000201000000000000000000000000000000017528876000000111290200000164159740000000000000BB RETENCOES PREF MOV 8001 3732-X/7132-3                                                                                                            A07 SPF00000000186900000000
111310103000000000000201000000000000000000000000000000045311471000004531147100000000000000000000000000BANRISUL RETENCOES MOV 8001 1064/040131530-6                                                                                                        A07 SPF00000000186900000000
111310105000000000000201000000000000000000000000000000010751585000001075158500000000000000000000000000SICREDI PREF RETENCAO 8001 0306/07878-4                                                                                                             A07 SPF00000000186900000000
112000000000000000005001000009346366100000000000000000005652812000001736892900000817475440000000000000CRDITOS A CURTO PRAZO                                                                                                                               S03 NPP00000000050000000000
112100000000000000005001000003428443100000000000000000000622640000001643710700000184699640000000000000CRDITOS TRIBUTRIOS A RECEBER                                                                                                                        S04 NPP00000000050000000000
112110000000000000005001000001583662700000000000000000000622640000001643710700000000221600000000000000CRDITOS TRIBUTRIOS A RECEBER - CONSOLIDAO                                                                                                           S05 NPP00000000050000000000
112110100000000000005001000000965180400000000000000000000591551000001024335500000000000000000000000000IMPOSTOS                                                                                                                                            S06 NPP00000000050000000000
112110105000000000005001000000000000000000000000000000000591551000000972186500000000000000000009130314IPTU                                                                                                                                                A07 SPP00000000000100000000
112110105000000000005001000000913031400000000000000000000000000000000000000000000091303140000000000000IPTU                                                                                                                                                A07 SPP00000000150100000000
112110107000000000005001000000000000000000000000000000000000000000000052149000000000000000000000521490ISS                                                                                                                                                 A07 SPP00000000000100000000
112110107000000000005001000000052149000000000000000000000000000000000000000000000005214900000000000000ISS                                                                                                                                                 A07 SPP00000000150100000000
112110200000000000005001000000524601400000000000000000000000000000000522385400000000221600000000000000TAXAS                                                                                                                                               S06 NPP00000000050000000000
112110201000000000005001000000000000000000000000000000000000000000000130283300000000000000000001302833TAXAS PELO EXERCCIO DO PODER DE POLCIA                                                                                                              A07 SPP00000000000100000000
112110201000000000005001000000132499300000000000000000000000000000000000000000000013249930000000000000TAXAS PELO EXERCCIO DO PODER DE POLCIA                                                                                                              A07 SPP00000000150100000000
112110202000000000005001000000000000000000000000000000000000000000000392102100000000000000000003921021TAXAS PELA PRESTAO DE SERVIOS                                                                                                                       A07 SPP00000000000100000000
112110202000000000005001000000392102100000000000000000000000000000000000000000000039210210000000000000TAXAS PELA PRESTAO DE SERVIOS                                                                                                                       A07 SPP00000000150100000000
112110300000000000005001000000093880900000000000000000000031089000000096989800000000000000000000000000CONTRIBUIES DE MELHORIA                                                                                                                             S06 NPP00000000050000000000
112110301000000000005001000000000000000000000000000000000031089000000096989800000000000000000000938809CONTRIBUIES DE MELHORIA                                                                                                                             A07 SPP00000000000100000000
112110301000000000005001000000093880900000000000000000000000000000000000000000000009388090000000000000CONTRIBUIES DE MELHORIA                                                                                                                             A07 SPP00000000150100000000
112120000000000000005001000001844780400000000000000000000000000000000000000000000184478040000000000000CRDITOS TRIBUTRIOS A RECEBER - INTRA OFSS                                                                                                           S05 NPP00000000050000000000
112127100000000000005001000001844780400000000000000000000000000000000000000000000184478040000000000000CRDITOS PREVIDENCIRIOS PARCELADOS                                                                                                                   S06 NPP00000000050000000000
112127101000000000005001000001844780400000000000000000000000000000000000000000000184478040000000000000PARCELAMENTO LEI1623/2005 360 PARCELAS CURTO PRAZO                                                                                                  A07 SPP00000000150100000000
112300000000000000005001000004288105600000000000000000000000000000000000000000000428810560000000000000CRDITOS DE TRANSFERNCIAS A RECEBER                                                                                                                  S04 NPP00000000050000000000
112340000000000000005001000004288105600000000000000000000000000000000000000000000428810560000000000000CRDITOS DE TRANSFERNCIAS A RECEBER - INTER OFSS - ESTADO                                                                                            S05 NPP00000000050000000000
112340800000000000005001000004288105600000000000000000000000000000000000000000000428810560000000000000CRDITOS DECORRENTES DE TRANSFERNCIAS DE CONVNIOS                                                                                                    S06 NPP00000000050000000000
112340802000000000005001000004288105600000000000000000000000000000000000000000000428810560000000000000PAVIMENTA RS/ETAPA 2 70109                                                                                                                          A07 SPP00000000150100000000
112500000000000000005001000001970000000000000000000000003613669000000064909200000226645770000000000000DVIDA ATIVA TRIBUTRIA                                                                                                                               S04 NPP00000000050000000000
112510000000000000005001000001970000000000000000000000003613669000000064909200000226645770000000000000DVIDA ATIVA TRIBUTRIA - CONSOLIDAO                                                                                                                  S05 NPP00000000050000000000
112510100000000000005001000001720000000000000000000000002440716000000041488900000192258270000000000000DVIDA ATIVA TRIBUTRIA DOS IMPOSTOS                                                                                                                  S06 NPP00000000050000000000
112510105000000000005001000001680000000000000000000000002252931000000041488900000186380420000000000000DVIDA ATIVA DO IPTU                                                                                                                                 S07 NPP00000000050000000000
112510105030000000005001000000000000000000000000000000002252931000000041488900000018380420000000000000IPTU CP                                                                                                                                             A08 SPP00000000000100000000
112510105030000000005001000001680000000000000000000000000000000000000000000000000168000000000000000000IPTU CP                                                                                                                                             A08 SPP00000000150100000000
112510107000000000005001000000040000000000000000000000000187785000000000000000000005877850000000000000DVIDA ATIVA DO ISS                                                                                                                                  S07 NPP00000000050000000000
112510107030000000005001000000000000000000000000000000000157826000000000000000000001578260000000000000ISSQN CP                                                                                                                                            A08 SPP00000000000100000000
112510107030000000005001000000040000000000000000000000000000000000000000000000000004000000000000000000ISSQN CP                                                                                                                                            A08 SPP00000000150100000000
112510107040000000005001000000000000000000000000000000000029959000000000000000000000299590000000000000ISSQN - FIXO CP                                                                                                                                     A08 SPP00000000000100000000
112510200000000000005001000000250000000000000000000000001120625000000023420300000033864220000000000000DVIDA ATIVA TRIBUTRIA DAS TAXAS                                                                                                                     S06 NPP00000000050000000000
112510201000000000005001000000070000000000000000000000000621517000000014366500000011778520000000000000DVIDA ATIVA DAS TAXAS PELO EXERCCIO DO PODER DE POLCIA                                                                                              S07 NPP00000000050000000000
112510201030000000005001000000000000000000000000000000000452063000000011880000000003332630000000000000TAXA DE VISTORIA CP                                                                                                                                 A08 SPP00000000000100000000
112510201030000000005001000000070000000000000000000000000000000000000000000000000007000000000000000000TAXA DE VISTORIA CP                                                                                                                                 A08 SPP00000000150100000000
112510201040000000005001000000000000000000000000000000000024865000000002486500000000000000000000000000VISTORIA SANITARIA CP                                                                                                                               A08 SPP00000000000100000000
112510201050000000005001000000000000000000000000000000000014103000000000000000000000141030000000000000ALVARA LICENCA E LOCALIZACAO CP                                                                                                                     A08 SPP00000000000100000000
112510201060000000005001000000000000000000000000000000000001538000000000000000000000015380000000000000TAXA LICENCA AMBIENTAL CP                                                                                                                           A08 SPP00000000000100000000
112510201070000000005001000000000000000000000000000000000003717000000000000000000000037170000000000000TAXA DE LICENCA DE LOCALIZACAO CP                                                                                                                   A08 SPP00000000000100000000
112510201080000000005001000000000000000000000000000000000125231000000000000000000001252310000000000000TAXA DE FISCALIZACAO CP                                                                                                                             A08 SPP00000000000100000000
112510202000000000005001000000180000000000000000000000000499108000000009053800000022085700000000000000DVIDA ATIVA DAS TAXAS PELA PRESTAO DE SERVIOS                                                                                                       S07 NPP00000000050000000000
112510202030000000005001000000000000000000000000000000000000214000000000000000000000002140000000000000CERTIDAO CP                                                                                                                                         A08 SPP00000000000100000000
112510202040000000005001000000000000000000000000000000000000700000000000000000000000007000000000000000TAXA DE EXPEDIENTE CP                                                                                                                               A08 SPP00000000000100000000
112510202050000000005001000000000000000000000000000000000498194000000009053800000004076560000000000000TAXA DE COLETA DE LIXO CP                                                                                                                           A08 SPP00000000000100000000
112510202050000000005001000000180000000000000000000000000000000000000000000000000018000000000000000000TAXA DE COLETA DE LIXO CP                                                                                                                           A08 SPP00000000150100000000
112510300000000000005001000000000000000000000000000000000052328000000000000000000000523280000000000000DVIDA ATIVA DAS CONTRIBUIES DE MELHORIA                                                                                                             S06 NPP00000000050000000000
112510301000000000005001000000000000000000000000000000000052328000000000000000000000523280000000000000DVIDA ATIVA DAS CONTRIBUIES DE MELHORIA                                                                                                             S07 NPP00000000050000000000
112510301010000000005001000000000000000000000000000000000052328000000000000000000000523280000000000000COBRANA ADMINISTRATIVA                                                                                                                              A08 SPP00000000000100000000
112600000000000000005001000000020000000000000000000000001416503000000028273000000013337730000000000000DVIDA ATIVA NO TRIBUTRIA                                                                                                                            S04 NPP00000000050000000000
112610000000000000005001000000020000000000000000000000001416503000000028273000000013337730000000000000DVIDA ATIVA NO TRIBUTRIA  - CONSOLIDAO                                                                                                              S05 NPP00000000050000000000
112610100000000000005001000000000000000000000000000000000007198000000000000000000000071980000000000000DVIDA ATIVA NO TRIBUTRIA                                                                                                                            S06 NPP00000000050000000000
112610102000000000005001000000000000000000000000000000000007198000000000000000000000071980000000000000DIVIDA ATIVA NAO TRIBUTARIA - EXCETO TITULO DO TCE/RS                                                                                               A07 SPP00000000000100000000
112619900000000000005001000000020000000000000000000000001409305000000028273000000013265750000000000000DEMAIS VALORES INSCRITOS EM DVIDA ATIVA NO TRIBUTRIA                                                                                                S06 NPP00000000050000000000
112619902000000000005001000000000000000000000000000000000072117000000000000000000000721170000000000000SERV MAQUINA CP                                                                                                                                     A07 SPP00000000000100000000
112619902000000000005001000000020000000000000000000000000000000000000000000000000002000000000000000000SERV MAQUINA CP                                                                                                                                     A07 SPP00000000150100000000
112619903000000000005001000000000000000000000000000000000613396000000028273000000003306660000000000000STT - MILHO CP                                                                                                                                      A07 SPP00000000000100000000
112619904000000000005001000000000000000000000000000000000103833000000000000000000001038330000000000000CALCARIO CP                                                                                                                                         A07 SPP00000000000100000000
112619905000000000005001000000000000000000000000000000000070273000000000000000000000702730000000000000HABITACAO CP                                                                                                                                        A07 SPP00000000000100000000
112619906000000000005001000000000000000000000000000000000002504000000000000000000000025040000000000000PROGRAMA PSICULTURA CP                                                                                                                              A07 SPP00000000000100000000
112619907000000000005001000000000000000000000000000000000101133000000000000000000001011330000000000000CLARO TELEFONE CP                                                                                                                                   A07 SPP00000000000100000000
112619908000000000005001000000000000000000000000000000000005453000000000000000000000054530000000000000INDENIZACOES E RESTITUICOES CP                                                                                                                      A07 SPP00000000000100000000
112619909000000000005001000000000000000000000000000000000014136000000000000000000000141360000000000000VIVO TELEFONE CP                                                                                                                                    A07 SPP00000000000100000000
112619910000000000005001000000000000000000000000000000000332642000000000000000000003326420000000000000MULTAS E JUROS PREVISTOS EM CONTRATO CP                                                                                                             A07 SPP00000000000100000000
112619911000000000005001000000000000000000000000000000000045477000000000000000000000454770000000000000VIVO TELEFONE 2008 CP                                                                                                                               A07 SPP00000000000100000000
112619912000000000005001000000000000000000000000000000000042366000000000000000000000423660000000000000CLARO TELEFONE 2008 CP                                                                                                                              A07 SPP00000000000100000000
112619913000000000005001000000000000000000000000000000000001159000000000000000000000011590000000000000TELEFONE CELULAR CP                                                                                                                                 A07 SPP00000000000100000000
112619914000000000005001000000000000000000000000000000000002579000000000000000000000025790000000000000MULTA AUTO DE INFRACAO CP                                                                                                                           A07 SPP00000000000100000000
112619916000000000005001000000000000000000000000000000000002237000000000000000000000022370000000000000GLOSA EM PRESTACAO DE CONTAS CP                                                                                                                     A07 SPP00000000000100000000
112900000000000000005001000000000000000000036018260000000000000000000000000000000000000000000003601826- AJUSTE DE PERDAS DE CRDITOS A CURTO PRAZO                                                                                                         S04 NPP00000000050000000000
112910000000000000005001000000000000000000036018260000000000000000000000000000000000000000000003601826- AJUSTE DE PERDAS DE CRDITOS A CURTO PRAZO - CONSOLIDAO                                                                                            S05 NPP00000000050000000000
112910400000000000005001000000000000000000036018260000000000000000000000000000000000000000000003601826- PERDAS ESTIMADAS EM CRDITOS DE DVIDA ATIVA TRIBUTRIA                                                                                              S06 NPP00000000050000000000
112910401000000000005001000000000000000000029960380000000000000000000000000000000000000000000002996038- PERDAS ESTIMADAS EM CRDITOS DE DVIDA ATIVA TRIBUTRIA - IMPOSTOS                                                                                   S07 NPP00000000050000000000
112910401050000000005001000000000000000000028933650000000000000000000000000000000000000000000002893365- PERDAS ESTIMADAS EM CRDITOS DE DVIDA ATIVA TRIBUTRIA - IPTU                                                                                       A08 SPP00000000150100000000
112910401070000000005001000000000000000000001026730000000000000000000000000000000000000000000000102673- PERDAS ESTIMADAS EM CRDITOS DE DVIDA ATIVA TRIBUTRIA - ISS                                                                                        A08 SPP00000000150100000000
112910402000000000005001000000000000000000006057880000000000000000000000000000000000000000000000605788- PERDAS ESTIMADAS EM CRDITOS DE DVIDA ATIVA TRIBUTRIA - TAXAS                                                                                      A07 SPP00000000150100000000
113000000000000000005001000000480591100000000000000000013819362000001359283700000050324360000000000000DEMAIS CRDITOS E VALORES A CURTO PRAZO                                                                                                              S03 NPP00000000050000000000
113100000000000000005001000000020000000000000000000000011851585000001075158500000013000000000000000000ADIANTAMENTOS CONCEDIDOS                                                                                                                            S04 NPP00000000050000000000
113110000000000000005001000000020000000000000000000000011851585000001075158500000013000000000000000000ADIANTAMENTOS CONCEDIDOS - CONSOLIDAO                                                                                                               S05 NPP00000000050000000000
113110100000000000005001000000000000000000000000000000010751585000001075158500000000000000000000000000ADIANTAMENTOS CONCEDIDOS A PESSOAL                                                                                                                  S06 NPP00000000050000000000
113110101000000000005001000000000000000000000000000000002036065000000203606500000000000000000000000000SALRIOS E ORDENADOS - ADIANTAMENTOS                                                                                                                 A07 SPF00000000186900000000
1131101040000000000050010000000000000000000000000000000081360360000008136036000000000000000000000000001/3 DE FRIAS - ADIANTAMENTO                                                                                                                         A07 SPF00000000186900000000
113110199000000000005001000000000000000000000000000000000579484000000057948400000000000000000000000000OUTROS ADIANTAMENTOS A PESSOAL                                                                                                                      A07 SPF00000000186900000000
113110200000000000005001000000020000000000000000000000001100000000000000000000000013000000000000000000SUPRIMENTO DE FUNDOS                                                                                                                                S06 NPP00000000050000000000
113110202000000000005001000000000000000000000000000000000100000000000000000000000001000000000000000000ADALBERTO MARTINI                                                                                                                                   A07 SPP00000000000100000000
113110204000000000005001000000000000000000000000000000000100000000000000000000000001000000000000000000VERIDIANA NOGARA                                                                                                                                    A07 SPP00000000000100000000
113110210000000000005001000000000000000000000000000000000100000000000000000000000001000000000000000000JAIR CESAR SOUZA                                                                                                                                    A07 SPP00000000000100000000
113110211000000000005001000000000000000000000000000000000100000000000000000000000001000000000000000000ANDERSON DIEGO SALAZAR                                                                                                                              A07 SPP00000000000100000000
113110218000000000005001000000020000000000000000000000000000000000000000000000000002000000000000000000CELSON SIDINEI SCHULTZ FONSECA                                                                                                                      A07 SPP00000000150100000000
113110227000000000005001000000000000000000000000000000000100000000000000000000000001000000000000000000FABIO MARCELO DE PAULA PAVLAK                                                                                                                       A07 SPP00000000000100000000
113110228000000000005001000000000000000000000000000000000100000000000000000000000001000000000000000000JORGE LUIS DOS SANTOS                                                                                                                               A07 SPP00000000000100000000
113110229000000000005001000000000000000000000000000000000500000000000000000000000005000000000000000000VIVIANE KEIST                                                                                                                                       A07 SPP00000000000100000000
113200000000000000005001000000000000000000000000000000000004983000000000000000000000049830000000000000TRIBUTOS A RECUPERAR/COMPENSAR                                                                                                                      S04 NPP00000000050000000000
113230000000000000005001000000000000000000000000000000000004983000000000000000000000049830000000000000TRIBUTOS A RECUPERAR/COMPENSAR - INTER OFSS - UNIO                                                                                                  S05 NPP00000000050000000000
113230600000000000005001000000000000000000000000000000000004983000000000000000000000049830000000000000CONTRIBUIO AO RGPS A COMPENSAR                                                                                                                      S06 NPF00000000050000000000
113230603000000000005001000000000000000000000000000000000004983000000000000000000000049830000000000000SALRIO-FAMLIA A COMPENSAR                                                                                                                           A07 SPF00000000186900000000
113400000000000000005001000000372745300000000000000000000000000000000000000000000037274530000000000000CRDITOS POR DANOS AO PATRIMNIO                                                                                                                      S04 NPP00000000050000000000
113410000000000000005001000000372745300000000000000000000000000000000000000000000037274530000000000000CRDITOS POR DANOS AO PATRIMNIO - CONSOLIDAO                                                                                                         S05 NPP00000000050000000000
113410100000000000005001000000372745300000000000000000000000000000000000000000000037274530000000000000CRDITOS POR DANOS AO PATRIMONIO DECORRENTES DE PROCESSOS ADMINISTRATIVOS                                                                            S06 NPP00000000050000000000
113410103000000000005001000000038442600000000000000000000000000000000000000000000003844260000000000000CRDITOS A RECEBER DECORRENTES DE DOLO M-F OU FRAUDE                                                                                                 A07 SPP00000000150100000000
113410105000000000005001000000196279400000000000000000000000000000000000000000000019627940000000000000CRDITOS A RECEBER POR IRREGULARIDADES DE TERCEIROS EM PRESTAO DE SERVIOS                                                                            S07 NPP00000000050000000000
113410105060000000005001000000196279400000000000000000000000000000000000000000000019627940000000000000GESSELMAR AVELINO BOLICO EPP                                                                                                                        A08 SPP00000000150100000000
113410199000000000005001000000138023300000000000000000000000000000000000000000000013802330000000000000OUTROS CRDITOS POR DANO AO PATRIMNIO - CRDITOS ADMINISTRATIVOS                                                                                      S07 NPP00000000050000000000
113410199060000000005001000000109590500000000000000000000000000000000000000000000010959050000000000000ADRIANA NASCIMENTO DO AMARAL INSCRIO 4935                                                                                                           A08 SPP00000000150100000000
113410199200000000005001000000028432800000000000000000000000000000000000000000000002843280000000000000PEDRO MACHADO PORTSIND64/2022-PA DANOS EM VEICULO                                                                                                   A08 SPP00000000150100000000
113800000000000000005001000000087845800000000000000000001962794000000284125200000000000000000000000000OUTROS CRDITOS A RECEBER E VALORES A CURTO PRAZO                                                                                                    S04 NPP00000000050000000000
113810000000000000005001000000087845800000000000000000001962794000000284125200000000000000000000000000OUTROS CRDITOS A RECEBER E VALORES A CURTO PRAZO - CONSOLIDAO                                                                                       S05 NPP00000000050000000000
113810700000000000005001000000000000000000000000000000001962794000000196279400000000000000000000000000CRDITOS A RECEBER DECORRENTES DE INFRAES LEGAIS E CONTRATUAIS                                                                                       A06 SPP00000000000100000000
113819900000000000005001000000087845800000000000000000000000000000000087845800000000000000000000000000OUTROS CRDITOS A RECEBER E VALORES DE CURTO PRAZO                                                                                                   S06 NPP00000000050000000000
113819901000000000005001000000000000000000000000000000000000000000000077885300000000000000000000778853STT-MILHO A RECEBER                                                                                                                                 A07 SPP00000000000100000000
113819901000000000005001000000077885300000000000000000000000000000000000000000000007788530000000000000STT-MILHO A RECEBER                                                                                                                                 A07 SPP00000000150100000000
113819902000000000005001000000000000000000000000000000000000000000000009960500000000000000000000099605SERVIOS DE MQUINA A RECEBER                                                                                                                         A07 SPP00000000000100000000
113819902000000000005001000000009960500000000000000000000000000000000000000000000000996050000000000000SERVIOS DE MQUINA A RECEBER                                                                                                                         A07 SPP00000000150100000000
115000000000000000005001000005880316600000000000000000010898509000000743579500000622658800000000000000ESTOQUES                                                                                                                                            S03 NPP00000000050000000000
115600000000000000005001000005880316600000000000000000010898509000000743579500000622658800000000000000ALMOXARIFADO                                                                                                                                        S04 NPP00000000050000000000
115610000000000000005001000005880316600000000000000000010898509000000743579500000622658800000000000000ALMOXARIFADO - CONSOLIDAO                                                                                                                           S05 NPP00000000050000000000
115619900000000000005001000000000000000000000000000000010898509000000743579500000034627140000000000000OUTROS - ALMOXARIFADO                                                                                                                               A06 SPP00000000000100000000
115619900000000000005001000005880316600000000000000000000000000000000000000000000588031660000000000000OUTROS - ALMOXARIFADO                                                                                                                               A06 SPP00000000150100000000
119000000000000000005001000004744289700000000000000000001683685000000482663500000442999470000000000000VARIAES PATRIMONIAIS DIMINUTIVAS PAGAS ANTECIPADAMENTE                                                                                              S03 NPF00000000050000000000
119100000000000000005001000000096760800000000000000000000000000000000020888500000007587230000000000000PRMIOS DE SEGUROS A APROPRIAR                                                                                                                       S04 NPF00000000050000000000
119119900000000000005001000000000000000000000000000000000000000000000020888500000000000000000000208885VPD PAGA ANTECIPADAMENTE -OUTROS PRMIOS DE SEGUROS A APROPRIAR                                                                                      A06 SPP00000000000100000000
119119900000000000005001000000096760800000000000000000000000000000000000000000000009676080000000000000VPD PAGA ANTECIPADAMENTE -OUTROS PRMIOS DE SEGUROS A APROPRIAR                                                                                      A06 SPP00000000150100000000
119200000000000000005001000000000000000000000000000000000083685000000008368500000000000000000000000000VPD FINANCEIRAS A APROPRIAR                                                                                                                         S04 NPF00000000050000000000
119210000000000000005001000000000000000000000000000000000083685000000008368500000000000000000000000000VPD FINANCEIRAS A APROPRIAR - CONSOLIDAO                                                                                                            S05 NPF00000000050000000000
119210100000000000005001000000000000000000000000000000000083685000000008368500000000000000000000000000RENDIMENTOS FINANCEIROS DO LEGISLATIVO ANTECIPADOS COMO DUODECIMO                                                                                   A06 SPF00000000000100000000
119300000000000000005001000000009439800000000000000000000000000000000002000000000000743980000000000000ASSINATURAS E ANUIDADES A APROPRIAR                                                                                                                 S04 NPF00000000050000000000
119310000000000000005001000000000000000000000000000000000000000000000002000000000000000000000000020000ASSINATURAS E ANUIDADES A APROPRIAR - CONSOLIDAO                                                                                                    A05 SPP00000000000100000000
119310000000000000005001000000009439800000000000000000000000000000000000000000000000943980000000000000ASSINATURAS E ANUIDADES A APROPRIAR - CONSOLIDAO                                                                                                    A05 SPP00000000150100000000
119400000000000000005001000000093337500000000000000000000000000000000002666500000009067100000000000000ALUGUEIS PAGOS A APROPRIAR                                                                                                                          S04 NPF00000000050000000000
119410000000000000005001000000093337500000000000000000000000000000000002666500000009067100000000000000ALUGUEIS PAGOS A APROPRIAR - CONSOLIDAO                                                                                                             S05 NPP00000000050000000000
119410100000000000005001000000000000000000000000000000000000000000000002666500000000000000000000026665LOCAO DE REA PARA RETIRADA DE CASCALHO                                                                                                              A06 SPP00000000000100000000
119410100000000000005001000000093337500000000000000000000000000000000000000000000009333750000000000000LOCAO DE REA PARA RETIRADA DE CASCALHO                                                                                                              A06 SPP00000000150100000000
119800000000000000005001000004544751600000000000000000001600000000000448740000000425601160000000000000DEMAIS VPD A APROPRIAR                                                                                                                              S04 NPF00000000050000000000
119810000000000000005001000004544751600000000000000000001600000000000448740000000425601160000000000000DEMAIS VPD A APROPRIAR - CONSOLIDAO                                                                                                                 S05 NPP00000000050000000000
119810100000000000005001000003766480300000000000000000001600000000000448740000000347774030000000000000PARCELAS DE PARCERIAS PAGAS A APROPRIAR                                                                                                             S06 NPP00000000050000000000
119810101000000000005001000002452260000000000000000000001600000000000152260000000246000000000000000000APAE DE INDEPENDENCIA                                                                                                                               S07 NPP00000000050000000000
119810101060000000005001000000000000000000000000000000000000000000000152260000000000000000000001522600TERMO DE FOMENTO 002/2024 APAE INDEPENDENCIA                                                                                                        A08 SPP00000000000100000000
119810101060000000005001000000152260000000000000000000000000000000000000000000000015226000000000000000TERMO DE FOMENTO 002/2024 APAE INDEPENDENCIA                                                                                                        A08 SPP00000000150100000000
119810101070000000005001000001300000000000000000000000000000000000000000000000000130000000000000000000TERMO DE FOMENTO 003/2024 APAE INDEPENDENCIA - PROJETO MOVER                                                                                        A08 SPP00000000150100000000
119810101110000000005001000001000000000000000000000000000000000000000000000000000100000000000000000000TERMO DE FOMENTO 009/2024 APAE INDEPENDENCIA- EMENDA 202428610005/2024                                                                              A08 SPP00000000150100000000
119810101120000000005001000000000000000000000000000000001600000000000000000000000016000000000000000000TERMO DE FOMENTO 001/2025 APAE INDEPENDENCIA                                                                                                        A08 SPP00000000000100000000
119810104000000000005001000000426480000000000000000000000000000000000056480000000037000000000000000000ACISAPI                                                                                                                                             S07 NPP00000000050000000000
119810104030000000005001000000370000000000000000000000000000000000000000000000000037000000000000000000TERMO DE FOMENTO 007/2024 - ACISAPI                                                                                                                 A08 SPP00000000150100000000
119810104040000000005001000000000000000000000000000000000000000000000056480000000000000000000000564800TERMO DE FOMENTO 006/2024 - ACISAPI                                                                                                                 A08 SPP00000000000100000000
119810104040000000005001000000056480000000000000000000000000000000000000000000000005648000000000000000TERMO DE FOMENTO 006/2024 - ACISAPI                                                                                                                 A08 SPP00000000150100000000
119810105000000000005001000000240000000000000000000000000000000000000240000000000000000000000000000000CONSEPRO                                                                                                                                            S07 NPP00000000050000000000
119810105020000000005001000000000000000000000000000000000000000000000240000000000000000000000002400000TERMO DE FOMENTO 001/2024 - CONSEPRO                                                                                                                A08 SPP00000000000100000000
119810105020000000005001000000240000000000000000000000000000000000000000000000000024000000000000000000TERMO DE FOMENTO 001/2024 - CONSEPRO                                                                                                                A08 SPP00000000150100000000
119810106000000000005001000000343664400000000000000000000000000000000000000000000034366440000000000000HSVP - HOSPITAL SAO VICENTE DE PAULO TRES DE MAIO                                                                                                   S07 NP 00000000050000000000
119810106020000000005001000000343664400000000000000000000000000000000000000000000034366440000000000000TERMO DE CONVENIO 02/2022 - HSVP                                                                                                                    A08 SPP00000000150100000000
119810108000000000005001000000304075900000000000000000000000000000000000000000000030407590000000000000ONG AMOR ANIMAL                                                                                                                                     S07 NPP00000000050000000000
119810108010000000005001000000054076300000000000000000000000000000000000000000000005407630000000000000TERMO DE FOMENTO 010/2023 ONG AMOR ANIMAL                                                                                                           A08 SPP00000000150100000000
119810108020000000005001000000249999600000000000000000000000000000000000000000000024999960000000000000TERMO DE FOMENTO 004/2024 ONG AMOR ANIMAL                                                                                                           A08 SPP00000000150100000000
119811600000000000005001000000778271300000000000000000000000000000000000000000000077827130000000000000TERMOS DE EXECUO CULTURAL                                                                                                                           S06 NPP00000000050000000000
119811601000000000005001000000555044500000000000000000000000000000000000000000000055504450000000000000TERMO DE EXECUO CULTURAL N 01/2024 NATHAN SANTOS ROLIM                                                                                              A07 SPP00000000150100000000
119811602000000000005001000000223226800000000000000000000000000000000000000000000022322680000000000000TERMO DE EXECUO CULTURAL N 02/2024 NATHAN SANTOS ROLIM                                                                                              A07 SPP00000000150100000000
120000000000000000005001001387579207700000000000000000024269753000003109761000138689642200000000000000ATIVO NO CIRCULANTE                                                                                                                                 S02 NPF00000000050000000000
121000000000000000005001000463385860400000000000000000021699920000000000000000046555585240000000000000ATIVO REALIZVEL A LONGO PRAZO                                                                                                                       S03 NPP00000000050000000000
121100000000000000005001000463365229100000000000000000021699920000000000000000046553522110000000000000CRDITOS A LONGO PRAZO                                                                                                                               S04 NPP00000000050000000000
121110000000000000005001000000203927500000000000000000021699920000000000000000000237391950000000000000CRDITOS A LONGO PRAZO - CONSOLIDAO                                                                                                                  S05 NPP00000000050000000000
121110400000000000005001000003068198200000000000000000015814467000000000000000000464964490000000000000DVIDA ATIVA TRIBUTRIA                                                                                                                               S06 NPP00000000050000000000
121110401000000000005001000003068198200000000000000000014875658000000000000000000455576400000000000000CRDITOS NO PREVIDENCIRIOS INSCRITOS                                                                                                                 S07 NPP00000000050000000000
121110401050000000005001000001572126500000000000000000009130314000000000000000000248515790000000000000DVIDA ATIVA DO IPTU                                                                                                                                 S08 NPP00000000050000000000
121110401050300000005001000000000000000000000000000000009130314000000000000000000091303140000000000000IPTU LP                                                                                                                                             A09 SPP00000000000100000000
121110401050300000005001000001572126500000000000000000000000000000000000000000000157212650000000000000IPTU LP                                                                                                                                             A09 SPP00000000150100000000
121110401070000000005001000000246889500000000000000000000521490000000000000000000029903850000000000000DVIDA ATIVA DO ISS                                                                                                                                  S08 NPP00000000050000000000
121110401070300000005001000000000000000000000000000000000410885000000000000000000004108850000000000000ISSQN LP                                                                                                                                            A09 SPP00000000000100000000
121110401070300000005001000000202504800000000000000000000000000000000000000000000020250480000000000000ISSQN LP                                                                                                                                            A09 SPP00000000150100000000
121110401070400000005001000000000000000000000000000000000110605000000000000000000001106050000000000000ISSQN - FIXO LP                                                                                                                                     A09 SPP00000000000100000000
121110401070400000005001000000044384700000000000000000000000000000000000000000000004438470000000000000ISSQN - FIXO LP                                                                                                                                     A09 SPP00000000150100000000
121110401090000000005001000001249182200000000000000000005223854000000000000000000177156760000000000000DVIDA ATIVA DAS TAXAS                                                                                                                               S08 NPP00000000050000000000
121110401090100000005001000000772209400000000000000000000000000000000000000000000077220940000000000000TAXA DE VISTORIA LP                                                                                                                                 A09 SPP00000000150100000000
121110401090200000005001000000007307500000000000000000000000000000000000000000000000730750000000000000TAXA DE VISTORIA SANITRIA LP                                                                                                                        A09 SPP00000000150100000000
121110401090300000005001000000025980200000000000000000000000000000000000000000000002598020000000000000ALVAR DE LICENA E LOCALIZAO LP                                                                                                                      A09 SPP00000000150100000000
121110401090400000005001000000002627100000000000000000000000000000000000000000000000262710000000000000TAXA DE LICENA AMBIENTAL LP                                                                                                                         A09 SPP00000000150100000000
121110401090500000005001000000008962100000000000000000000000000000000000000000000000896210000000000000TAXA DE LICENA DE LOCALIZAO LP                                                                                                                      A09 SPP00000000150100000000
121110401090600000005001000000000000000000000000000000001302833000000000000000000013028330000000000000TAXA DE FISCALIZAO LP                                                                                                                               A09 SPP00000000000100000000
121110401090600000005001000000120118700000000000000000000000000000000000000000000012011870000000000000TAXA DE FISCALIZAO LP                                                                                                                               A09 SPP00000000150100000000
121110401090700000005001000000000382600000000000000000000000000000000000000000000000038260000000000000CERTIDO LP                                                                                                                                          A09 SPP00000000150100000000
121110401090800000005001000000001297000000000000000000000000000000000000000000000000129700000000000000TAXA DE EXPEDIENTE LP                                                                                                                               A09 SPP00000000150100000000
121110401090900000005001000000000000000000000000000000003921021000000000000000000039210210000000000000TAXA DE COLETA DE LIXO LP                                                                                                                           A09 SPP00000000000100000000
121110401090900000005001000000310297600000000000000000000000000000000000000000000031029760000000000000TAXA DE COLETA DE LIXO LP                                                                                                                           A09 SPP00000000150100000000
121110407000000000005001000000000000000000000000000000000938809000000000000000000009388090000000000000DEMAIS DVIDAS ATIVAS TRIBUTRIAS                                                                                                                     S07 NPP00000000050000000000
121110407010000000005001000000000000000000000000000000000938809000000000000000000009388090000000000000DVIDA ATIVA DA CONTRIBUIO DE MELHORIA                                                                                                               A08 SPP00000000000100000000
121110500000000000005001000007732097000000000000000000005885453000000000000000000832064230000000000000DVIDA ATIVA NO TRIBUTRIA                                                                                                                            S06 NPP00000000050000000000
121110504000000000005001000002594530900000000000000000002741647000000000000000000286869560000000000000DEMAIS VALORES INSCRITOS EM DVIDA ATIVA NO TRIBUTRIA                                                                                                S07 NPP00000000050000000000
121110504010000000005001000000121981600000000000000000000000000000000000000000000012198160000000000000SERV MAQUINAS LP                                                                                                                                    A08 SPP00000000150100000000
121110504020000000005001000000000000000000000000000000000778853000000000000000000007788530000000000000STT - MILHO LP                                                                                                                                      A08 SPP00000000000100000000
121110504020000000005001000001144680400000000000000000000000000000000000000000000114468040000000000000STT - MILHO LP                                                                                                                                      A08 SPP00000000150100000000
121110504030000000005001000000196829700000000000000000000000000000000000000000000019682970000000000000CALCARIO LP                                                                                                                                         A08 SPP00000000150100000000
121110504040000000005001000000265227900000000000000000000000000000000000000000000026522790000000000000HABITACAO LP                                                                                                                                        A08 SPP00000000150100000000
121110504050000000005001000000004891900000000000000000000000000000000000000000000000489190000000000000PROGRAMA PSICULTURA LP                                                                                                                              A08 SPP00000000150100000000
121110504060000000005001000000196213800000000000000000000000000000000000000000000019621380000000000000CLARO TELEFONE LP                                                                                                                                   A08 SPP00000000150100000000
121110504070000000005001000000010060600000000000000000000000000000000000000000000001006060000000000000INDENIZACOES E RESTITUICOES LP                                                                                                                      A08 SPP00000000150100000000
121110504080000000005001000000027582500000000000000000000000000000000000000000000002758250000000000000VIVO TELEFONE LP                                                                                                                                    A08 SPP00000000150100000000
121110504090000000005001000000000000000000000000000000001962794000000000000000000019627940000000000000MULTAS E JUROS PREVISTOS EM CONTRATO LP                                                                                                             A08 SPP00000000000100000000
121110504090000000005001000000413199900000000000000000000000000000000000000000000041319990000000000000MULTAS E JUROS PREVISTOS EM CONTRATO LP                                                                                                             A08 SPP00000000150100000000
121110504100000000005001000000087266700000000000000000000000000000000000000000000008726670000000000000VIVO TELEFONE 2008 LP                                                                                                                               A08 SPP00000000150100000000
121110504110000000005001000000082707000000000000000000000000000000000000000000000008270700000000000000CLARO TELEFONE 2008 LP                                                                                                                              A08 SPP00000000150100000000
121110504120000000005001000000002260400000000000000000000000000000000000000000000000226040000000000000TELEFONE CELULAR LP                                                                                                                                 A08 SPP00000000150100000000
121110504130000000005001000000004726600000000000000000000000000000000000000000000000472660000000000000MULTA AUTO DE INFRACAO LP                                                                                                                           A08 SPP00000000150100000000
121110504150000000005001000000036901900000000000000000000000000000000000000000000003690190000000000000GLOSA EM PRESTACAO DE CONTAS LP                                                                                                                     A08 SPP00000000150100000000
121110530000000000005001000005137566100000000000000000002659775000000000000000000540354360000000000000INSCRIO DE CERTIDO DE DECISO - TTULO EXECUTIVO DO TCE/RS                                                                                            S07 NPP00000000050000000000
121110530010000000005001000000000000000000000000000000001835847000000000000000000018358470000000000000NILSON DAL FORNO LP                                                                                                                                 A08 SPP00000000000100000000
121110530010000000005001000003620545200000000000000000000000000000000000000000000362054520000000000000NILSON DAL FORNO LP                                                                                                                                 A08 SPP00000000150100000000
121110530020000000005001000000000000000000000000000000000823928000000000000000000008239280000000000000GILBERTO MARASCA TITULO EXECUTIVO TCERS 0803/2018 LP                                                                                                A08 SPP00000000000100000000
121110530020000000005001000001517020900000000000000000000000000000000000000000000151702090000000000000GILBERTO MARASCA TITULO EXECUTIVO TCERS 0803/2018 LP                                                                                                A08 SPP00000000150100000000
121110599000000000005001000000000000000000000000000000000484031000000000000000000004840310000000000000DIVIDA ATIVA NAO TRIBUTARIA - LONGO PRAZO - EXCETO TITULO EXECUTIVO TCE/RS                                                                          A07 SPP00000000000100000000
121119900000000000005001000000000000000001059636770000000000000000000000000000000000000000000105963677- AJUSTE DE PERDAS DE CRDITOS A LONGO PRAZO                                                                                                         S06 NPP00000000050000000000
121119904000000000005001000000000000000000291299150000000000000000000000000000000000000000000029129915- AJUSTE DE PERDAS DE DVIDA ATIVA TRIBUTRIA                                                                                                         S07 NPP00000000050000000000
121119904050000000005001000000000000000000157212650000000000000000000000000000000000000000000015721265- AJUSTE PARA PERDAS DA DVIDA ATIVA DO IPTU                                                                                                         A08 SPP00000000150100000000
121119904070000000005001000000000000000000021284040000000000000000000000000000000000000000000002128404- AJUSTE PARA PERDAS DA DVIDA ATIVA DO ISS                                                                                                          A08 SPP00000000150100000000
121119904090000000005001000000000000000000112802460000000000000000000000000000000000000000000011280246- AJUSTE PARA PERDAS DA DVIDA ATIVA DAS TAXAS                                                                                                       A08 SPP00000000150100000000
121119905000000000005001000000000000000000768337620000000000000000000000000000000000000000000076833762- AJUSTE DE PERDAS DE DVIDA ATIVA NO TRIBUTRIA                                                                                                      A07 SPP00000000150100000000
121120000000000000005001000463161301600000000000000000000000000000000000000000046316130160000000000000CRDITOS A LONGO PRAZO - INTRA OFSS                                                                                                                  S05 NPP00000000050000000000
121120600000000000005001000018312772500000000000000000000000000000000000000000001831277250000000000000CRDITOS PREVIDENCIRIOS DO RPPS                                                                                                                      S06 NPP00000000050000000000
121120604010000000005001000018312772500000000000000000000000000000000000000000001831277250000000000000PARCELAMENTO LEI1623/2005 360 PARCELAS LONGO PRAZO                                                                                                  A08 SPP00000000150100000000
121120800000000000005001000444848529100000000000000000000000000000000000000000044484852910000000000000CRDITOS PARA AMORTIZAO DE DEFICIT ATUARIAL - FUNDO EM CAPITALIZAO - INTRA OFSS                                                                      S06 NP 00000000050000000000
121120802000000000005001000444848529100000000000000000000000000000000000000000044484852910000000000000VALOR ATUAL DA CONTRIBUIO PATRONAL SUPLEMENTAR PARA COBERTURA DO DEFICIT ATUARIAL                                                                   A07 SPP00000000150100000000
121200000000000000005001000000020631300000000000000000000000000000000000000000000002063130000000000000DEMAIS CRDITOS E VALORES A LONGO PRAZO                                                                                                              S04 NPP00000000050000000000
121210000000000000005001000000020631300000000000000000000000000000000000000000000002063130000000000000DEMAIS CRDITOS E VALORES A LONGO PRAZO - CONSOLIDAO                                                                                                 S05 NPP00000000050000000000
121210200000000000005001000000020631300000000000000000000000000000000000000000000002063130000000000000TRIBUTOS A RECUPERAR/COMPENSAR                                                                                                                      S06 NPP00000000050000000000
