87612826000190010120253101202501022025PREFEITURA MUNICIPAL INDEPENDENCIA                                              
100000000000000000005001000283612957500025454536300009268012038000264928496200031587751950003148953965000378784801800037139369990003412337625000334478087200054471210520005574598041
110000000000000000005001000277370562700024771606710002522562495000256684659900029872712100003105925627000368252136700036485773080003273707838000319753635300044943601340004870732475
111000000000000000005001000260143742800024051741560002445326721000249243591100028797802610003013414542000362016568300035746446200003157378755000311359487000043804883700004615387526
111100000000000000005001000246472655600022684632840002330080098000237718928800027266206270002875624427000346466569400034191124870003001080004000295742958100040821386900004301567009
111110000000000000005001000246472655600022684632840002330080098000237718928800027266206270002875624427000346466569400034191124870003001080004000295742958100040821386900004301567009
111111900000000000005001000174453952700018480393920001808336447000180786564800020736454360002074047369000248544170400024854619240002205560432000220373512100032231269250003207459032
111111902000000000005001000112166741500011891224910001093512225000109305887200014371119410001437509213000144057205100014405922710001362078381000136030124300021435552270002127959288
111111902010000000000201000039457493600004593660910000384995204000038499520400006246767080000624676708000059608233700005960823370000537183712000053718371200008958801580000895880158
111111902020000000000201000030872157900003087215790000227231955000022723195500002806506330000280650633000028065078900002806507890000235580043000023558004300003589185550000358918555
111111902030000000000201000000133513200000013351320000001335132000000133513200000013351320000001335132000000133513200000013351320000001335132000000133513200000013351320000001335132
111111902040000000000201000000494720200000049472020000004858578000000485857800000024678000000002467800000000816984800000081698480000018470675000001847067500000196994350000019699435
111111902050000000000201000000200153200000020015320000002182949000000218294900000009987060000000998706000000039346800000003934680000038927851000003892785100000036407300000003640730
111111902060000000000201000000009603800000000960380000000007316000000000731600000000077080000000007708000000000000000000000000000000000000000000000000000000000001438210000000143821
111111902070000000000801000005177666600000517766660000059852659000005985265900000589740870000058974087000005861365200000586136520000059368967000005936896700001161762170000105511392
111111902090000000000902000000000000000000000000000000000000000000000000000000000100000000000010000000000001000000000000100000000000000000000000000000000000000000000000000000000000
111111902100000000000801000000000000000000000000000000000000000000000000000000000090257500000009025750000000051912300000005191230000000323994000000032399400000007127890000000712789
111111902110000000000201000003418680900000341868090000046497353000004649735300000476493320000047649332000006413690900000641369090000037051208000003705120800001499678270000147659888
111111902120000000000201000000000000000000000000000000002554867000000255486700000013439410000001343941000000379233300000037923330000001184861000000118486100000010849130000001084913
111111902130000000000201000000940660900000094066090000010478650000001047865000000138082330000013808233000001326411900000132641190000016449673000001644967300000169930600000016993060
111111902140000000000201000000023912600000002391260000000244068000000024406800000000000000000000000000000000023680100000002368010000000393287000000039328700000011483800000001148380
111111902150000000000801000018009692200001800969220000202801256000020280125600001986444890000198644489000019964464800001996446480000051823901000005182390100000000000000000000000000
111111902160000000000602000000528494100000052849410000000515832000000051583200000000000000000000000000000000309335200000030933520000001187000000000118700000000000000000000000000000
111111902170000000000701000000000000000000000000000000000000000000000000000000000000000000000000000000000002500000000000250000000000000000000000000000000000000151761380000015176138
111111902180000000001001000000000000000000000000000000000000000000000000000000000000000000000000000000000001500000000000150000000000000000000000000000000000000086020000000008602000
111111902190000000000801000000000000000000000000000000000336226000000033622600000000000000000000000000000000000000000000000000000000000000000000000000000000000165234700000016523470
111111902200000000000701000000000000000000000000000000000000000000000000000000000000000000000000000000000002500000000000250000000000000000000000000000000000000262318460000026231846
111111902210000000000201000000113454000000011345400000005055640000000505564000000065423890000006542389000000467116600000046711660000005600718000000560071800000023363570000002336357
111111902220000000000902000000008705500000000870550000000619735000000056750200000000000000000000032013000000000000000000000202200000000000000000000000000000000000000000000000000000
111111902230000000000801000000000000000000000000000000000000000000000000000000000000000000000000000000000000000000000000000000000000001532834000000153283400000045543970000004554397
111111902250000000000201000001024720500000102472050000023159093000002315909300000332715190000033271519000002101060600000210106060000032734483000003273448300000234976910000023497691
111111902260000000000801000000000000000000000000000000000000000000000000000000000000000000000000000000000000000000000000000000000000000000000000000000000000000005444000000000544400
111111902270000000000701000000000000000000000000000000000000000000000000000000000000000000000000000000000001100000000000110000000000000000000000000000000000000115596580000011559658
111111902280000000001001000000000000000000000000000000000000000000000000000000000000000000000000000000000000000000000000000000000000000000000000000000000000000100000000000010000000
111111902290000000000502000000000000000000000000000000000000000000000000000000000000000000000000000000000000000000000000000000000000227380710000022738071000002431490470000238715464
111111902300000000000701000000000000000000000000000000000000000000000000000000000000000000000000000000000000000000000000000000000000000000000000000000000000000040000000000004000000
111111902310000000000801000000000000000000000000000000001852480000000185248000000000000000000000000000000000000000000000000000000000000000000000000000000000000000000000000000000000
111111902330000000000701000000000000000000000000000000000000000000000000000000000000000000000000000000000000000000000000000000000000000000000000000000000000000199999000000019999900
111111902340000000000301000003976240600000397624060000019385286000001938528600000567122800000056712280000002150703400000215070340000017876080000001787608000000493703880000049370388
111111902350000000001001000000000000000000000000000000000000000000000000000000000000000000000000000000000000000000000000000000000000000000000000000000000000000240000000000024000000
111111902370000000000502000001354580000000135458000000001393000000000139300000000045269300000004526930000000337292400000033729240000005444769000000544476900000040043550000004004355
111111902380000000000801000000000000000000000000000000000000000000000000000000000000000000000000000000000000000000000000000000000000000000000000000000000000000250000000000025000000
111111902390000000000902000000056008400000005600840000000826288000000040936000000000000000000000218093000000000000000000000000000000000000000000000000680900000000000000000000026461
111111902420000000000201000000817703000000081770300000008245048000000824504800000044887010000004488701000000476546900000047654690000005640152000000564015200000055775470000005577547
111111902430000000000503000000000000000000000000000000000000000000000000000000000000000000000000000000000000000000000000000000000000005615265000000561526500000000000000000000000000
111111902440000000000503000000000000000000000000000000000000000000000000000000000000000000000000000000000000000000000000000000000000002256125000000225612500000000000000000000000000
111111902450000000000801000000000000000000000000000000000000000000000000000000000000000000000000000000000000000000000000000000000000000000000000000000000000000006949000000000694900
111111902460000000000801000000903680000000090368000000009036800000000903680000000090368000000009036800000000903680000000090368000000009036800000000903680000000135552000000013555200
111111902470000000000501000000000000000000000000000000000000000000000000000000000000000000000000000000000000000000000000000000000000000000000000000000000000000001871190000000187119
111111902480000000000801000000140374600000014037460000001544182000000154418200000021481380000002148138000000167628200000016762820000001414768000000141476800000020734700000002073470
111111902500000000000502000000000000000000000000000000000576000000000057600000000076006560000007600656000000083200000000008320000000002439569000000243956900000033111140000003311114
111111902550000000000801000000000000000000000000000000000000000000000000000000000000000000000000000000000000000000000000000000000000000000000000000000000000000041344070000004134407
111111902560000000000701000000705517200000097190930000009892919000000989291900000117998850000011799885000000491669500000049166950000008612132000000861213200000133852800000013385280
111111902570000000000902000000048000000000004800000000001707161000000170716100000013609220000001360922000000208069400000020806940000000828018000000034801800000027872000000003267200
111111902580000000000902000000053013300000005301330000001539213000000153921300000027410450000002741045000000169619200000016961920000000723863000000019372900000029829840000003513118
111111902590000000000902000000165586800000016558680000000721392000000072139200000017266080000001726608000000131697900000013169790000001020640000000102064000000013802080000001380208
111111902600000000000602000000220594400000022059440000000000000000000000000000000000000000000000000000000000000000000000000000000000000000000000000000000000000000000000000000000000
111111902640000000000202000000170000000000017000000000013000000000001300000000000000000000000000000000000000000000000000000000000000002957490000000295749000000037700000000003770000
111111902690000000000801000000000000000000000000000000000000000000000000000000000000000000000000000000000000099637000000009963700000000773813000000000000000000000062160000000780029
111111902720000000005001000003141814000000314181400000036984910000003700071800000455735490000045720715000003411032900000341103290000030909848000003090984800000313203060000031320306
111111902720100000000801000002946547600000294654760000032566009000003256600900000355469240000035546924000003015785600000301578560000028801282000002880128200000268797560000026879756
111111902720300000000801000000066590400000006659040000002107761000000210776100000042189050000004218905000000267650700000026765070000000067000000000006700000000014493290000001449329
111111902720400000000801000000000000000000000000000000000511000000000051100000000004582070000000458207000000056400000000005640000000000200000000000020000000000003024550000000302455
111111902720600000000801000000014716600000001471660000000147166000000000000000000001471660000000294332000000014716600000001471660000000147166000000014716600000001471660000000147166
111111902721400000000801000000000000000000000000000000000000000000000016297400000000000000000000000000000000000000000000000000000000000000000000000000000000000000000000000000000000
111111902721500000000801000000113959400000011395940000001652974000000165297400000052023470000005202347000000056480000000005648000000001694400000000169440000000025416000000002541600
111111902760000000000602000000000000000000000000000000014081033000001408103300000000000000000000000000000001265000000000126500000000000000000000000000000000000021183440000002118344
111111902770000000000902000000000000000000000000000000000000000000000000000000000000000000000000000000000000000000000000000000000000000000000000000000000000000020202680000002020268
111111903000000000005001000000000000000000000000000000000000000000000000000000000000000000000000000000000005210758000000521075800000000000000000000000000000000008148010000000814801
111111903080000000000702000000000000000000000000000000000000000000000000000000000000000000000000000000000004777120000000477712000000000000000000000000000000000007477880000000747788
111111903090000000000702000000000000000000000000000000000000000000000000000000000000000000000000000000000000433638000000043363800000000000000000000000000000000000670130000000067013
111111912000000000005001000062226449600006583092850000711247982000071123053600006355281970000635532858000072578485200007257848520000710533734000071048556100010776407700001077568816
111111912010000000000801000003231511700000396790420000056508083000005650808300000589625300000058962530000006205115400000620511540000064561360000006456136000000654604120000065460412
111111912020000000000201000055573467100005557346710000554886487000055488648700004704836960000470483696000055544618400005554461840000583509950000058350995000008786364920000878636492
111111912030000000000201000000000573600000000000000000000017446000000000000000000000407090000000063891000000001572200000000157220000000024000000000002400000000000490930000000049093
111111912060000000000801000000000000000000000000000000000551029000000055102900000000000000000000000000000000000000000000000000000000000000000000000000000000000004615980000000461598
111111912070000000000201000000279025300000027902530000009585200000000958520000000076375200000007637520000001102947400000110294740000009396860000000939686000000160593190000016059319
111111912080000000000201000001925961400000479462140000022814256000002281425600000192588610000019258861000002881392700000288139270000011518290000001151829000000160309660000016030966
111111912090000000000401000000115586400000011558640000000920000000000092000000000009135910000000913591000000150054600000015005460000000900000000000090000000000012341790000001234179
111111912100000000001005000000206883000000020688300000008771072000000877107200000031007550000003100755000000338756600000033875660000007974351000000797435100000177731380000017773138
111111912120000000000801000000013206200000001320620000000264124000000026412400000002641240000000264124000000108553200000010855320000000267261000000026454700000002673260000000270040
111111912130000000000801000000015400000000001540000000000000000000000000000000000002975000000000297500000000129950000000012995000000001363000000000136300000000000140530000000014053
111111912140000000000801000000000000000000000000000000000000000000000000000000000000000000000000000000000000000000000000000000000000000165000000000016500000000005669470000000566947
111111912150000000000801000000000000000000000000000000000000000000000000000000000015879000000001587900000000164745600000016474560000000000000000000000000000000000000000000000000000
111111912170000000000801000000000000000000000000000000004385661000000438566100000006681430000000649622000000000000000000000000000000000000000000000001852100000000000000000000000000
111111912180000000000701000000000000000000000000000000000000000000000000000000000183775960000018377596000001837759600000183775960000000000000000000000000000000187788370000018778837
111111912210000000000701000000000000000000000000000000000000000000000000000000000153146620000015314662000000000000000000000000000000000000000000000000000000000118816040000011881604
111111912220000000000801000000000000000000000000000000010000000000001000000000000000000000000000000000000001053537000000105353700000000000000000000000000000000000000000000000000000
111111912250000000000601000000361094500000036109450000000000000000000000000000000067425880000006742588000000479305700000047930570000000000000000000000000000000000000000000000000000
111111912260000000000601000000092981800000009298180000000000000000000000000000000000000000000000000000000000030891200000003089120000000000000000000000000000000000000000000000000000
111111912280000000001004000000001860000000000186000000000185700000000018570000000004656230000000465623000000067405800000006740580000000236100000000023610000000014025760000001402576
111111912290000000000603000000000000000000000000000000001915842000000191584200000094948020000009494802000000252539600000025253960000000000000000000000000000000000000000000000000000
111111912300000000000603000000000000000000000000000000000881169000000088116900000000000000000000000000000000000000000000000000000000000000000000000000000000000000000000000000000000
111111912310000000000801000000006000000000000600000000000000000000000000000000000000000000000000000000000000000000000000000000000000000063980000000000000000000000000000000000063980
111111912320000000000902000000096025400000009602540000000053407000000005340700000000000000000000000000000000005340700000000534070000000640101000000064010100000004023390000000263691
111111912350000000000201000000000000000000000000000000000000000000000000000000000000000000000000000000000000000000000000000000000000018335329000001833532900000147751880000014775188
111111912360000000001002000000000000000000000000000000003928824000000392882400000000000000000000000000000000000000000000000000000000000000000000000000000000000000000000000000000000
111111912370000000000902000000000000000000000000000000000000000000000000000000000123194000000012319400000000000000000000000000000000000935000000000093500000000000000000000000000000
111111912380000000000902000000000000000000000000000000000000000000000000000000000019982000000001998200000000000000000000000000000000000000000000000000000000000000000000000000000000
111111912390000000001001000000000000000000000000000000005774223000000577422300000000000000000000000000000000000000000000000000000000000000000000000000000000000000000000000000000000
111111912400000000001001000000000000000000000000000000002524177000000252417700000000000000000000000000000000000000000000000000000000000000000000000000000000000000000000000000000000
111111912410000000000801000000000000000000000000000000000000000000000000000000000000000000000000000000000000000000000000000000000000000000000000000000000000000000560000000000056000
111111912440000000000801000000000000000000000000000000000000000000000000000000000000000000000000000000000000000000000000000000000000000000000000000000000000000170427980000017042798
111111912460000000000801000000158789400000015878940000003175788000000317578800000031501200000003150120000000320145600000032014560000003175788000000317578800000032014560000003201456
111111912470000000000801000000098179700000009817970000001968736000000196873600000019719160000001971916000000195814700000019581470000001955572000000195557200000019555720000001955572
111111912490000000000801000000026000000000002600000000000513500000000051350000000005135000000000513500000000050700000000005070000000000513500000000051350000000005928000000000592800
111111912510000000001001000000000000000000000000000000000000000000000000000000000007804530000000780453000000078805700000007880570000000000000000000000000000000000000000000000000000
111111912520000000000201000000023904100000002390410000021623258000002162325800000011840080000001184008000001578533500000157853350000004998292000000499829200000054828660000005482866
111111912530000000000801000000000000000000000000000000000000000000000000000000000000000000000000000000000000000000000000000000000000000000000000000000000000000032178160000003217816
111111912540000000000902000000000000000000000000000000000000000000000000000000000000000000000000000000000000000000000000000000000000000000000000000000000000000022973950000002297395
111111999000000000005001000000060761600000006076160000003576240000000357624000000010052980000001005298000026697722100002669772210000132948317000013294831700000011161270000001116127
111111999010000000005001000000060761600000006076160000003576240000000357624000000010052980000001005298000026697722100002669772210000132948317000013294831700000011161270000001116127
111111999010100000000201000000060761600000006076160000003576240000000357624000000010052980000001005298000026697722100002669772210000132948317000013294831700000011161270000001116127
111113000000000000005001000002505691500000250569150000039787930000003978793000000881604180000088160418000001890365300000189036530000022494659000002249465900000213969330000021396933
111113001000000000000401000002505691500000250569150000039787930000003978793000000881604180000088160418000001890365300000189036530000022494659000002249465900000213969330000021396933
111115000000000000005001000069513011400003953669770000481955721000052953571000005648147730000713416640000096032033700009147469100000773024913000073119980100008376148320001072711044
111115002000000000005001000000000000000000000000000000000000000000000000000000000000000000000000000000000002620354000000000000000000000299808000000000000000000003121850000000754997
111115002030000000000702000000000000000000000000000000000000000000000000000000000000000000000000000000000002402288800000000000000000000274858000000000000000000002862050000000688779
111115002040000000000702000000000000000000000000000000000000000000000000000000000000000000000000000000000000218065200000000000000000000024950000000000000000000000259800000000066218
111115003000000000005001000069482959700003953669770000463134503000051945388900005593585540000703428599000093383091100009022469100000772575477000073024080100008348738290001069862885
111115003010000000000201000028695788300001081626120000145412620000016271243200002261803940000334785976000025427616300002895330970000268919074000023564752200003031354220000351021203
111115003020000000000602000000002655700000021855660000000017379000000000000000000000165300000000000000000000001831800000000000000000000018535000000000000000000000185450000000000000
111115003030000000000201000000947537000000000000000000006282785000000421652300000062979540000007426832000000656351200000066445450000006320665000000964266400000032145980000010224320
111115003060000000000201000022073564400001641559600000155848851000018248601800001114416230000154851073000014805419000001381967490000294631927000014733453900002698692560000348220601
111115003070000000000502000010631931600000567827730000089878508000009254782700000824314890000114074455000009571521700000881262230000008882414000003169566600000000000000000000000000
111115003080000000000201000000279025300000000000000000005637207000000397203900000056526030000002049028000000570582500000054366920000005731746000000377465600000028762270000013161446
111115003090000000000201000000000000000000000000000000002297734000000002800000000000216290000001327981000000243986600000012298490000000018980000000114708600000000079730000001053266
111115003100000000000601000000034764300000000000000000000336671000000000000000000003181560000000000000000000035173500000000000000000000355100000000000000000000003522890000000000000
111115003110000000000502000000113743700000000000000000002277255000000275878100000034659490000003046829000000229301500000023561010000003454906000000215326800000000157750000002329358
111115003120000000000801000000006002500000000000000000000001519000000000051400000000009480000000000000000000000108000000000000000000000000922000000006398000000000000000000000000000
111115003130000000000801000000000000000000000000000000000000000000000000000000000039759210000003943806000000016301400000001951290000000000000000000000000000000000000000000000000000
111115003140000000000902000000000000000000000000000000000000000000000000000000000101025030000000000000000000001016300000100000000000000001476000000000000000000000014650000000000000
111115003170000000000201000000429825800000000000000000003680953000000000000000000034838600000000000000000027066703400002659802470000003418088000013006593700000024328940000000000000
111115003190000000000801000000024481900000000000000000000236369000000033622600000002253650000000000000000000024961800000000000000000000252148000000000000000000001289730000016503677
111115003192400000001001000000007451700000000000000000000074088000000000000000000000698990000000000000000000007959100000000000000000000081559000000000000000000000765920000000000000
111115003200000000001001000000001967600000000000000000000019472000000000000000000000181960000000000000000000002076200000000000000000000021310000000000000000000000200470000000000000
111115003240000000000801000000005139500000001540000000000050249000000000000000000000437150000000297500000000003948000000012995000000000027374000000136300000000000132210000000014053
111115003250000000000801000000000000000000000000000000000000000000000000000000000016064160000000000000000000002150500000016279210000000000000000000000000000000000000000000000000000
111115003260000000000401000000060284200000005558640000000601700000000032000000000003124740000000613300000000089816000000006000000000000304828000000060000000000006030310000000633871
111115003270000000000201000000023929200000000000000000000245730000000000000000000000058390000000000000000000024342100000000000000000000400729000000000000000000000061690000001141180
111115003290000000000801000000002254500000000000000000000021833000000000000000000000206330000000000000000000001936900000009845540000000004507000000077381300000000000000000000000000
111115003320000000000801000000001237000000000000000000000012242000000000000000000000114400000000000000000000001305300000000000000000000012955000000016500000000000075680000000566947
111115003330000000000801000000002606300000000000000000000025609000000000000000000000249330000000000000000000002906400000000000000000000028699000000000000000000000262940000000000000
111115003340000000000801000000013238600000000000000000000268349000000000000000000002722990000000000000000000013735500000008103890000000000000000000000000000000000000000000000000000
111115003350000000000801000000008567100000000000000000000085179000000000000000000000803610000000000000000000009150500000000000000000000093767000000000000000000000561730000003211600
111115003360000000000801000000000799000000000000000000000007908000000000000000000000073890000000000000000000000843200000000000000000000008654000000000000000000000081410000000000000
111115003370000000001005000000068454800000020254300000000634855000000864317400000004715410000003042199000000049028500000033673620000000375601000000788674300000000140230000017773138
111115003380000000001001000000002487800000000000000000000024736000000000000000000000230520000000738716000000000153300000007880570000000000000000000000000000000000000000000000000000
111115003390000000000701000000000000000000000000000000000000000000000000000000000184134730000000000000000000032073500000000000000000000328667000000000000000000000944410000018377595
111115003400000000000801000000001208100000000000000000000011804000000000000000000000112630000000000000000000001257200000000000000000000012589000000000000000000000122690000000544400
111115003410000000000902000000008567100000000000000000000085179000000000000000000000803610000000000000000000009150500000000000000000000093767000000000000000000000880570000000000000
111115003420000000000902000000002355400000000000000000000022977000000000000000000000218500000000000000000000002416300000000000000000000024301000000000000000000000242510000000000000
111115003430000000000602000000022802100000052060430000000167065000000050705000000001544350000000000000000000015707900000030211410000000109262000000118700000000001063090000000000000
111115003440000000000201000000000000000000058826940000000000000000000000000000000000000000000000000000000000000000000000000000000000000000000000000000000000000000000000000000000000
111115003450000000000801000000001575400000000000000000000015663000000000000000000000147770000000000000000000001682700000000000000000000017242000000000000000000000161930000000000000
111115003460000000000902000000000839600000000870550000000003857000000055305800000000000000000000000000000000000000000000000000000000000000000000000000000000000000000000000000000000
111115003470000000000701000000000000000000000000000000000000000000000000000000000153423510000000000000000000024712000000000000000000000253629000000000000000000001110090000011740716
111115003500000000001004000000013177800000000100000000000299210000000000000000000004402520000000132857000000024801300000005475580000000360560000000000000000000002006120000001305176
111115003510000000000801000000001450500000000000000000000012539000000000000000000000125550000000000000000000001555500000000000000000000015495000000000000000000000118820000000694900
111115003520000000000701000000000000000000000000000000000000000000000000000000000000000000000000000000000002529942300000000000000000000331533000000000000000000002501810000014996184
111115003530000000000801000000005621200000000000000000000055089000000000000000000000524010000000000000000000005806800000000000000000000058756000000000000000000000587860000000000000
111115003540000000000801000000000000000000000000000000010133970000000000000000000001574310000000000000000000011904500000104104460000000000000000000000000000000000000000000000000000
111115003550000000001001000000000000000000000000000000000000000000000000000000000000000000000000000000000001517965400000000000000000000198919000000000000000000001338390000008500000
111115003560000000000701000000000000000000000000000000000000000000000000000000000000000000000000000000000002529942300000000000000000000331533000000000000000000000791930000025710149
111115003570000000000902000000097377800000000000000000000015792000000005277400000000145530000000000000000000006946900000000000000000000014383000000063679300000000016250000000400033
111115003580000000000502000001379442800000000000000000000384114000000139300000000003425250000004526930000000028950500000033696410000000257387000000538966200000001713090000003945468
111115003660000000000701000000000000000000000000000000000000000000000000000000000000000000000000000000000001113174600000000000000000000145875000000000000000000000348450000011312466
111115003690000000000502000000000000000000000000000000000000000000000000000000000000000000000000000000000000000000000000000000000000113380850000010644690300001059687860000112902733
111115003700000000000902000000001609900000005599880000000006203000000082628800000000000000000000000000000000000000000000000000000000000000000000000000000000000000000000000000000000
111115003710000000000702000000000000000000000000000000000000000000000000000000000000000000000000000000000002392533700000238856000000000000546000000000000000000000004250000000040708
111115003720000000000702000000000000000000000000000000000000000000000000000000000000000000000000000000000000216819000000021681900000000000000000000000000000000000000000000000000000
111115003730000000000601000000040296300000036109450000000383813000000000000000000003548700000006662636000000023597300000047415570000000219221000000000000000000002058710000000000000
111115003740000000000601000000015078200000009027360000000145306000000000000000000001357800000000000000000000015141800000002999140000000154083000000000000000000001449600000000000000
111115003750000000000801000000000000000000000000000000000000000000000000000000000000000000000000000000000000000000000000000000000000000000000000000000000000000172554020000000000000
111115003760000000000902000000000000000000000000000000000000000000000000000000000000000000000000000000000000000000000000000000000000000000000000000000000000000020455820000000000000
111115003780000000000902000000048000000000000000000000000967188000000074279000000009364130000000398818000000095922500000011176030000000012042000000034723500000009714600000001719882
111115003790000000000902000000053013300000000000000000001071093000000047714900000010581130000001678371000000104809100000006314590000000011557000000019286100000010677300000001806877
111115003800000000000801000000006134600000000000000000000060213000000000000000000000573220000000000000000000006406900000000000000000000064852000000000000000000000256260000004132248
111115003810000000000801000000000403600000000000000000000003947000000000000000000000037500000000000000000000000415300000000000000000000004204000000000000000000000042030000000000000
111115003830000000000902000000034006500000013224460000000659165000000008134800000007169790000001026608000000065864100000006704190000000659386000000038050900000006611830000000736766
111115003840000000000202000000191068200000000000000000000112951000001300000000000000297550000000000000000000003297300000000000000000003011807000000000000000000038467870000000000000
111115003890000000000801000000000922500000000000000000000003171000000055102900000000000000000000000000000000000000000000000000000000000000000000000000000000000004654300000000000000
111115003910000000000701000000000000000000000000000000000000000000000000000000000000000000000000000000000000000000000000000000000000000000000000000000000000000040145850000000000000
111115003920000000000603000000028840000000000000000000000267455000000191584200000001639720000009419447000000007041500000025253960000000066112000000000000000000000620860000000000000
111115003930000000000603000000001817800000000000000000000009940000000086389100000000043260000000000000000000000493800000000000000000000005067000000000000000000000047670000000000000
111115003960000000000801000000001210800000000000000000000011914000000000000000000000113890000000000000000000001261400000000000000000000012743000000000000000000000126840000000000000
111115003970000000000801000000000297100000000000000000000002953000000000000000000000027870000000000000000000000317300000000000000000000003251000000000000000000000030540000000000000
111115003980000000005001000001598879000000156999870000019111503000001728259400000215397600000020191846000001593992700000187452530000015486486000001698378000000137749260000018920777
111115003980100000000801000001483078700000146835280000016484687000001614988900000176724440000017560216000001484414600000153870360000014675608000001467656200000127014670000012751908
111115003980200000000801000000009260300000000000000000000084010000000000000000000000796810000000000000000000008801400000000000000000000086723000000153283400000000393160000004543263
111115003980300000000801000000067044000000000000000000001762791000000036310000000027183840000001549000000000003773700000026460730000000008809000000006700000000000027170000000575705
111115003980900000000801000000039496000000010164590000000780015000000076960500000010692510000001082630000000097003000000007121440000000715346000000070738400000010314260000001049901
111115003990000000005001000002489226300000280628780000015130628000002318554200000427020000000033193391000002136960700000129363180000043563408000002636218400001000588050000066221147
111115003990200000000501000000000514900000000000000000000004987000000000000000000000047120000000000000000000000521000000000000000000000005259000000000000000000000038370000000184900
111115003990500000000201000000569335500000020175390000005328893000000440549600000053665850000005849244000000259067800000002209870000004226273000000413484700000022159350000008793606
111115003990600000000201000000491984400000000000000000004889920000000000000000000025766360000000000000000000650203400000015980000000006231114000001193414700000020731650000013660566
111115003990700000000201000001383873700000260453390000004175340000001428604600000270621130000026671740000001169737400000099213310000017733393000000000000000000159058170000025452800
111115003991100000000201000000000000000000000000000000000000000000000000000000000000000000000000000000000000000000000000000000000000014736637000000000000000000002305380000014599988
111115003991200000001002000000010875500000000000000000000102186000000380700000000000427800000000000000000000004871300000000000000000000049917000000000000000000000468780000000000000
111115003991300000000503000000007649200000000000000000000074796000000000000000000000710670000000000000000000007869500000000000000000000129795000000561526500000000008340000000000000
111115003991400000000503000000002863800000000000000000000027734000000000000000000000262090000000000000000000002897600000000000000000000047771000000225612500000000003070000000000000
111115003991500000000201000000009630200000000000000000000008638000000000000000000000090390000000000000000000000149900000000000000000000001513000000000000000000000014490000000118440
111115003991600000000502000000010851100000000000000000000102503000000057600000000073240680000000416000000000019838500000008320000000000181950000000242180000000001326390000003308895
111115003991700000001001000000000000000000000000000000000000000000000000000000000000000000000000000000000000000000000000000000000000000000000000000000000000000100364630000000000000
111115003991800000000801000000001648000000000000000000000415631000000011100000000002187910000000256407000000021804300000003640000000000219786000000000000000000001434720000000101952
111115003992000000000701000000000000000000000000000000000000000000000000000000000000000000000000000000000000000000000000000000000000000000000000000000000000000200728260000000000000
111115003992100000001001000000000000000000000000000000000000000000000000000000000000000000000000000000000000000000000000000000000000000000000000000000000000000240974100000000000000
111115003992200000000801000000000000000000000000000000000000000000000000000000000000000000000000000000000000000000000000000000000000000000000000000000000000000250972350000000000000
111115005000000000000902000000008708200000000000000000000086582000000000000000000051127710000007319400000000005315300000000000000000000040624000000093500000000000357870000000000000
111115006000000000000902000000003245600000000000000000000032120000000000000000000000180540000001998200000000000187100000000000000000000001921000000000000000000000018060000000000000
111115007000000000001001000000012849400000000000000000000100959000000570575400000000314750000000000000000000003584000000000000000000000036726000000000000000000000344900000000000000
111115008000000000001001000000005248500000000000000000000041073000000249424600000000126680000000000000000000001445600000000000000000000014837000000000000000000000139580000000000000
111115009000000000000801000000000000000000000000000000002539988000000188182100000000022740000000660441000000000000000000000000000000000000000000000000000000000000000000000000000000
111115010000000000000602000000000000000000000000000000014166361000000000000000000001920930000000000000000000013898100000125000000000000029526000000000000000000000171080000002044069
111115011000000000000801000000000000000000000000000000001854135000000000000000000000223210000000000000000000002467700000000000000000000024913000000000000000000000247160000000000000
111115012000000000000703000000000000000000000000000000000000000000000000000000000000645630000000010000000000001690800000000000000000000001081000000002400000000000005410000000049093
111115013000000000000902000000000000000000000000000000000000000000000000000000000000000000000000000000000000000000000000000000000000000000000000000000000000000023004120000000000000
111300000000000000005001000013671087200001367108720000115246623000011524662300001531596340000137790115000015549998900001555321330000156298751000015616528900002983496800000313820517
111310000000000000005001000013671087200001367108720000115246623000011524662300001531596340000137790115000015549998900001555321330000156298751000015616528900002983496800000313820517
111310100000000000005001000013671087200001367108720000115246623000011524662300001531596340000137790115000015549998900001555321330000156298751000015616528900002983496800000313820517
111310102000000000000201000002947012000000294701200000030396442000003039644200000684659940000053096475000006390162500000639337690000064750254000006461679200000813967140000096867551
111310103000000000000201000008606442700000860644270000076637620000007663762000000790603320000079060332000008120508000000812050800000081773573000008177357300001523165430000152316543
111310105000000000000201000002117632500000211763250000008212561000000821256100000056333080000005633308000001039328400000103932840000009774924000000977492400000646364230000064636423
112000000000000000005001000010898104600000221667210000000505247000001415950400000615080130000051076256000000000000300000222549760000069588998000004129142300000147822780000085689961
112100000000000000005001000010354210100000193602090000000000000000001098102500000000000000000048418974000000000000000000014957690000000000000000000135212000000034571640000035223597
112110000000000000005001000010354210100000193602090000000000000000001098102500000000000000000048418974000000000000000000014957690000000000000000000135212000000034571640000035223597
112110100000000000005001000007517264800000143348640000000000000000001098102500000000000000000048418974000000000000000000014957690000000000000000000135212000000021848570000003098524
112110105000000000005001000007517264800000129321000000000000000000001098102500000000000000000048418974000000000000000000014957690000000000000000000135212000000016633670000003098524
112110107000000000005001000000000000000000014027640000000000000000000000000000000000000000000000000000000000000000000000000000000000000000000000000000000000000005214900000000000000
112110200000000000005001000002836945300000050253450000000000000000000000000000000000000000000000000000000000000000000000000000000000000000000000000000000000000012723070000024448432
112110201000000000005001000000000000000000008212550000000000000000000000000000000000000000000000000000000000000000000000000000000000000000000000000000000000000012723070000000000000
112110202000000000005001000002836945300000042040900000000000000000000000000000000000000000000000000000000000000000000000000000000000000000000000000000000000000000000000000024448432
112110300000000000005001000000000000000000000000000000000000000000000000000000000000000000000000000000000000000000000000000000000000000000000000000000000000000000000000000007676641
112110301000000000005001000000000000000000000000000000000000000000000000000000000000000000000000000000000000000000000000000000000000000000000000000000000000000000000000000007676641
112300000000000000005001000000000000000000000000000000000000000000000000000000000612586520000000000000000000000000000000183775960000000000000000000000000000000000000000000014081033
112340000000000000005001000000000000000000000000000000000000000000000000000000000612586520000000000000000000000000000000183775960000000000000000000000000000000000000000000000000000
112340800000000000005001000000000000000000000000000000000000000000000000000000000612586520000000000000000000000000000000183775960000000000000000000000000000000000000000000000000000
112340802000000000005001000000000000000000000000000000000000000000000000000000000612586520000000000000000000000000000000183775960000000000000000000000000000000000000000000000000000
112350000000000000005001000000000000000000000000000000000000000000000000000000000000000000000000000000000000000000000000000000000000000000000000000000000000000000000000000014081033
112350100000000000005001000000000000000000000000000000000000000000000000000000000000000000000000000000000000000000000000000000000000000000000000000000000000000000000000000014081033
112500000000000000005001000000352624100000026471200000000504947000000316627900000002493610000002657282000000000000300000023393850000020635407000001504345000000108460870000007308530
112510000000000000005001000000352624100000026471200000000504947000000316627900000002493610000002657282000000000000300000023393850000020635407000001504345000000108460870000007308530
112510100000000000005001000000000072800000021443340000000464413000000267468400000001883410000002024244000000000000000000018937720000013977851000001071274800000098423620000004223913
112510105000000000005001000000000072800000021244600000000223291000000239496200000001874670000002004370000000000000000000018837270000012021207000000937940500000097338710000003679640
112510105010000000005001000000000072800000021244600000000223291000000239496200000001874670000002004370000000000000000000018837270000000000000000000810396700000000000000000000000000
112510105030000000005001000000000000000000000000000000000000000000000000000000000000000000000000000000000000000000000000000000000000012021207000000127543800000097338710000003679640
112510107000000000005001000000000000000000000198740000000241122000000027972200000000008740000000019874000000000000000000000100450000001956644000000133334300000001084910000000544273
112510107010000000005001000000000000000000000198740000000241122000000027972200000000008740000000019874000000000000000000000100450000000000000000000021248100000000000000000000000000
112510107030000000005001000000000000000000000000000000000000000000000000000000000000000000000000000000000000000000000000000000000000001522022000000112086200000000992660000000100426
112510107040000000005001000000000000000000000000000000000000000000000000000000000000000000000000000000000000000000000000000000000000000434622000000000000000000000092250000000443847
112510200000000000005001000000352551300000005027860000000040534000000049159500000000610200000000633038000000000000300000004456130000006657556000000433070200000010037250000003084617
112510201000000000005001000000000000000000000962670000000012482000000018671800000000017040000000049210000000000000000000001449000000003956596000000187745700000008770620000002493292
112510201010000000005001000000000000000000000962670000000012482000000018671800000000017040000000049210000000000000000000001449000000000000000000000023709100000000000000000000000000
112510201030000000005001000000000000000000000000000000000000000000000000000000000000000000000000000000000000000000000000000000000000002212696000000160402000000007977890000000706465
112510201040000000005001000000000000000000000000000000000000000000000000000000000000000000000000000000000000000000000000000000000000000072141000000000000000000000018670000000074008
112510201050000000005001000000000000000000000000000000000000000000000000000000000000000000000000000000000000000000000000000000000000000291644000000000000000000000090100000000300654
112510201060000000005001000000000000000000000000000000000000000000000000000000000000000000000000000000000000000000000000000000000000000025751000000000000000000000010390000000026790
112510201070000000005001000000000000000000000000000000000000000000000000000000000000000000000000000000000000000000000000000000000000000088066000000003634600000000379010000000089621
112510201080000000005001000000000000000000000000000000000000000000000000000000000000000000000000000000000000000000000000000000000000001266298000000000000000000000294560000001295754
112510202000000000005001000000352551300000004065190000000028052000000030487700000000593160000000583828000000000000300000003007130000002700960000000245324500000001266630000000591325
112510202010000000005001000000352551300000004065190000000028052000000030487700000000593160000000583828000000000000300000003007130000000000000000000201694700000000000000000000000000
112510202030000000005001000000000000000000000000000000000000000000000000000000000000000000000000000000000000000000000000000000000000000003743000000000000000000000001670000000003910
112510202040000000005001000000000000000000000000000000000000000000000000000000000000000000000000000000000000000000000000000000000000000014434000000000169500000000003600000000013099
112510202050000000005001000000000000000000000000000000000000000000000000000000000000000000000000000000000000000000000000000000000000002682783000000043460300000001261360000000574316
112600000000000000005001000000191270400000001593920000000000300000000001220000000000000000000000000000000000000000000000000422260000048953591000002489585300000004790270000026035951
112610000000000000005001000000191270400000001593920000000000300000000001220000000000000000000000000000000000000000000000000422260000048953591000002489585300000004790270000026035951
112610100000000000005001000000191270400000001593920000000000300000000001220000000000000000000000000000000000000000000000000422260000000000000000000169918600000000000000000000000000
112610102000000000005001000000191270400000001593920000000000300000000001220000000000000000000000000000000000000000000000000422260000000000000000000169918600000000000000000000000000
112619900000000000005001000000000000000000000000000000000000000000000000000000000000000000000000000000000000000000000000000000000000048953591000002319666700000004790270000026035951
112619902000000000005001000000000000000000000000000000000000000000000000000000000000000000000000000000000000000000000000000000000000023810980000002299450800000000208100000000637282
112619903000000000005001000000000000000000000000000000000000000000000000000000000000000000000000000000000000000000000000000000000000011553487000000000000000000001851430000011738630
112619904000000000005001000000000000000000000000000000000000000000000000000000000000000000000000000000000000000000000000000000000000001953152000000000000000000000302950000001983447
112619905000000000005001000000000000000000000000000000000000000000000000000000000000000000000000000000000000000000000000000000000000002884550000000000000000000000315990000002916149
112619906000000000005001000000000000000000000000000000000000000000000000000000000000000000000000000000000000000000000000000000000000000048512000000000000000000000008120000000049324
112619907000000000005001000000000000000000000000000000000000000000000000000000000000000000000000000000000000000000000000000000000000001944243000000000000000000000347340000001978977
112619908000000000005001000000000000000000000000000000000000000000000000000000000000000000000000000000000000000000000000000000000000000098881000000000000000000000034500000000102331
112619909000000000005001000000000000000000000000000000000000000000000000000000000000000000000000000000000000000000000000000000000000000273430000000000000000000000037960000000277226
112619910000000000005001000000000000000000000000000000000000000000000000000000000000000000000000000000000000000000000000000000000000004070137000000000000000000001193990000004189536
112619911000000000005001000000000000000000000000000000000000000000000000000000000000000000000000000000000000000000000000000000000000000862878000000000000000000000195750000000882453
112619912000000000005001000000000000000000000000000000000000000000000000000000000000000000000000000000000000000000000000000000000000000820057000000000000000000000138860000000833943
112619913000000000005001000000000000000000000000000000000000000000000000000000000000000000000000000000000000000000000000000000000000000022408000000000000000000000003910000000022799
112619914000000000005001000000000000000000000000000000000000000000000000000000000000000000000000000000000000000000000000000000000000000046407000000000000000000000017170000000048124
112619915000000000005001000000000000000000000000000000000000000000000000000000000000000000000000000000000000000000000000000000000000000202159000000020215900000000000000000000000000
112619916000000000005001000000000000000000000000000000000000000000000000000000000000000000000000000000000000000000000000000000000000000362310000000000000000000000134200000000375730
112900000000000000005001000000000000000000000000000000000000000000000000000000000000000000000000000000000000000000000000000000000000000000000000000000000000000000000000000003040850
112910000000000000005001000000000000000000000000000000000000000000000000000000000000000000000000000000000000000000000000000000000000000000000000000000000000000000000000000003040850
112910400000000000005001000000000000000000000000000000000000000000000000000000000000000000000000000000000000000000000000000000000000000000000000000000000000000000000000000003040850
112910401000000000005001000000000000000000000000000000000000000000000000000000000000000000000000000000000000000000000000000000000000000000000000000000000000000000000000000002435062
112910401050000000005001000000000000000000000000000000000000000000000000000000000000000000000000000000000000000000000000000000000000000000000000000000000000000000000000000002435062
112910401070000000005001000000000000000000000000000000000000000000000000000000000000000000000000000000000000000000000000000000000000000000000000000000000000000000000000000000000000
112910402000000000005001000000000000000000000000000000000000000000000000000000000000000000000000000000000000000000000000000000000000000000000000000000000000000000000000000000605788
113000000000000000005001000002237207300000223467460000009547823000000877336100000068688970000006709692000001180738200000117365730000010896053000001095635600000683707900000086796501
113100000000000000005001000002227632500000220063250000009442561000000856256100000062181220000006218122000001119328400000111932840000010255802000001025580200000646564230000066636423
113110000000000000005001000002227632500000220063250000009442561000000856256100000062181220000006218122000001119328400000111932840000010255802000001025580200000646564230000066636423
113110100000000000005001000002117632500000211763250000008212561000000821256100000060681220000006068122000001039328400000103932840000009825802000000982580200000646364230000064636423
113110101000000000005001000000699274200000069927420000005276057000000527605700000041171110000004117111000000447024200000044702420000006834390000000683439000000482625680000048262568
113110104000000000005001000001369791900000136979190000002450840000000245084000000014653470000001465347000000525096200000052509620000001703670000000170367000000153313960000015331396
113110199000000000005001000000048566400000004856640000000485664000000048566400000004856640000000485664000000067208000000006720800000001287742000000128774200000010424590000001042459
113110200000000000005001000000110000000000008300000000001230000000000035000000000001500000000000150000000000080000000000008000000000000430000000000043000000000000200000000002000000
113110201000000000005001000000015000000000000000000000000200000000000015000000000000000000000000000000000000000000000000000000000000000000000000000000000000000000000000000000200000
113110202000000000005001000000015000000000002000000000000000000000000000000000000001500000000000150000000000000000000000000000000000000000000000000000000000000000000000000000150000
113110203000000000005001000000020000000000001000000000000200000000000020000000000000000000000000000000000000000000000000000000000000000000000000000000000000000000000000000000200000
113110204000000000005001000000000000000000000000000000000000000000000000000000000000000000000000000000000000000000000000000000000000000000000000000000000000000000000000000000200000
113110210000000000005001000000000000000000002300000000000230000000000000000000000000000000000000000000000000000000000000000000000000000000000000000000000000000000000000000000230000
113110211000000000005001000000000000000000001000000000000200000000000000000000000000000000000000000000000000000000000000000000000000000000000000000000000000000000000000000000200000
113110215000000000005001000000000000000000000000000000000400000000000000000000000000000000000000000000000000040000000000004000000000000000000000000000000000000000000000000000400000
113110218000000000005001000000020000000000002000000000000000000000000000000000000000000000000000000000000000000000000000000000000000000000000000000000000000000000000000000000000000
113110219000000000005001000000040000000000000000000000000000000000000000000000000000000000000000000000000000040000000000004000000000000400000000000040000000000000000000000000400000
113110226000000000005001000000000000000000000000000000000000000000000000000000000000000000000000000000000000000000000000000000000000000030000000000003000000000000200000000000020000
113200000000000000005001000000009574800000000523200000000105262000000008933800000006507750000000457840000000061409800000005045740000000640251000000068764900000004791380000000793551
113230000000000000005001000000009574800000000523200000000105262000000008933800000006507750000000457840000000061409800000005045740000000640251000000068764900000004791380000000793551
113230600000000000005001000000009574800000000523200000000105262000000008933800000006507750000000457840000000061409800000005045740000000640251000000068764900000004791380000000793551
113230601000000000005001000000000000000000000000000000000000000000000000000000000005639190000000355060000000052558800000004177180000000566786000000060012200000004439820000000727375
113230603000000000005001000000009574800000000523200000000105262000000008933800000000868560000000102780000000008851000000000868560000000073465000000008752700000000351560000000066176
113400000000000000005001000000000000000000001238260000000000000000000012146200000000000000000000033730000000000000000000000387150000000000000000000001290500000023650360000000912262
113410000000000000005001000000000000000000001238260000000000000000000012146200000000000000000000033730000000000000000000000387150000000000000000000001290500000023650360000000912262
113410100000000000005001000000000000000000001238260000000000000000000012146200000000000000000000033730000000000000000000000387150000000000000000000001290500000023650360000000912262
113410103000000000005001000000000000000000000000000000000000000000000000000000000000000000000000000000000000000000000000000000000000000000000000000000000000000003844260000000000000
113410105000000000005001000000000000000000000000000000000000000000000000000000000000000000000000000000000000000000000000000000000000000000000000000000000000000019806100000000470253
113410105010000000005001000000000000000000000000000000000000000000000000000000000000000000000000000000000000000000000000000000000000000000000000000000000000000000178160000000137816
113410105030000000005001000000000000000000000000000000000000000000000000000000000000000000000000000000000000000000000000000000000000000000000000000000000000000000000000000000332437
113410105060000000005001000000000000000000000000000000000000000000000000000000000000000000000000000000000000000000000000000000000000000000000000000000000000000019627940000000000000
113410199000000000005001000000000000000000001238260000000000000000000012146200000000000000000000033730000000000000000000000387150000000000000000000001290500000000000000000000442009
113410199010000000005001000000000000000000000000000000000000000000000001041300000000000000000000000000000000000000000000000000000000000000000000000000000000000000000000000000000000
113410199030000000005001000000000000000000000980160000000000000000000008523900000000000000000000000000000000000000000000000000000000000000000000000000000000000000000000000000000000
113410199040000000005001000000000000000000000000000000000000000000000000000000000000000000000000020825000000000000000000000000000000000000000000000000000000000000000000000000000000
113410199060000000005001000000000000000000000000000000000000000000000000000000000000000000000000000000000000000000000000000000000000000000000000000000000000000000000000000000403294
113410199200000000005001000000000000000000000258100000000000000000000002581000000000000000000000012905000000000000000000000387150000000000000000000001290500000000000000000000038715
113800000000000000005001000000000000000000001642750000000000000000000000000000000000000000000000000000000000000000000000000000000000000000000000000000000000000008701930000018454265
113810000000000000005001000000000000000000001642750000000000000000000000000000000000000000000000000000000000000000000000000000000000000000000000000000000000000008701930000018454265
113810100000000000005001000000000000000000000000000000000000000000000000000000000000000000000000000000000000000000000000000000000000000000000000000000000000000000000000000018454265
113819900000000000005001000000000000000000001642750000000000000000000000000000000000000000000000000000000000000000000000000000000000000000000000000000000000000008701930000000000000
113819901000000000005001000000000000000000000000000000000000000000000000000000000000000000000000000000000000000000000000000000000000000000000000000000000000000007788530000000000000
113819902000000000005001000000000000000000001642750000000000000000000000000000000000000000000000000000000000000000000000000000000000000000000000000000000000000000913400000000000000
115000000000000000005001000003108473500000175312870000033242096000003512860200000276090180000026806800000002621553600000345573670000017718954000002185501400000132801610000035788813
115600000000000000005001000003108473500000175312870000033242096000003512860200000276090180000026806800000002621553600000345573670000017718954000002185501400000132801610000035788813
115610000000000000005001000003108473500000175312870000033242096000003512860200000276090180000026806800000002621553600000345573670000017718954000002185501400000132801610000035788813
115610500000000000005001000000000000000000000000000000000000000000000000000000000000000000000000000000000000000000000000000000000000000319800000000031980000000000165700000000016570
115619900000000000005001000003108473500000175312870000033242096000003512860200000276090180000026806800000002621553600000345573670000017399154000002153521400000132635910000035772243
119000000000000000005001000000983034500000099417610000033940608000001634922100000115050210000007918337000002433276300000053837720000018125078000000983869000000174385350000047069674
119100000000000000005001000000028614000000005366610000000370882000000037263100000002420420000000443872000000042903900000004085830000000494548000000046967200000002904230000000332522
119119900000000000005001000000028614000000005366610000000370882000000037263100000002420420000000443872000000042903900000004085830000000494548000000046967200000002904230000000332522
119200000000000000005001000000032995600000003299560000000617206000000061720600000008700250000000870025000000130719300000013071930000001640507000000164050700000011837810000001183781
119210000000000000005001000000032995600000003299560000000617206000000061720600000008700250000000870025000000130719300000013071930000001640507000000164050700000011837810000001183781
119210100000000000005001000000032995600000003299560000000617206000000061720600000008700250000000870025000000130719300000013071930000001640507000000164050700000011837810000001183781
119300000000000000005001000000024940500000003036920000000171033000000010796600000000000000000000011466000000012000000000000314660000000000000000000002573700000000000000000000020000
119310000000000000005001000000024940500000003036920000000171033000000010796600000000000000000000011466000000012000000000000314660000000000000000000002573700000000000000000000020000
119400000000000000005001000000000000000000000533300000000000000000000005333000000000000000000000053330000000000000000000000533300000000000000000000005333000000000000000000000053330
119410000000000000005001000000000000000000000533300000000000000000000005333000000000000000000000053330000000000000000000000533300000000000000000000005333000000000000000000000053330
119410100000000000005001000000000000000000000533300000000000000000000005333000000000000000000000053330000000000000000000000533300000000000000000000005333000000000000000000000053330
119800000000000000005001000000896484400000087181220000032781487000001519808800000103929540000006539644000002247653100000035832000000015990023000000764944400000159643310000045480041
119810000000000000005001000000896484400000087181220000032781487000001519808800000103929540000006539644000002247653100000035832000000015990023000000764944400000159643310000045480041
119810100000000000005001000000891984400000086731220000032781487000001519808800000103929540000006539644000002247653100000035832000000008207310000000764944400000159643310000045480041
119810101000000000005001000000308320000000014826000000016083200000000462480000000031030000000003103000000001154160000000030832000000003083200000000308320000000046058000000003083200
119810101060000000005001000000308320000000000000000000003083200000000462480000000031030000000003103000000000154160000000030832000000003083200000000308320000000046058000000003083200
119810101070000000005001000000000000000000000000000000013000000000000000000000000000000000000000000000000000000000000000000000000000000000000000000000000000000000000000000000000000
119810101080000000005001000000000000000000014826000000000000000000000000000000000000000000000000000000000000000000000000000000000000000000000000000000000000000000000000000000000000
119810101110000000005001000000000000000000000000000000000000000000000000000000000000000000000000000000000001000000000000000000000000000000000000000000000000000000000000000000000000
119810102000000000005001000000000000000000000000000000000500000000000000000000000000000000000000000000000000000000000000005000000000000000000000000000000000000000000000000000000000
119810102010000000005001000000000000000000000000000000000500000000000000000000000000000000000000000000000000000000000000005000000000000000000000000000000000000000000000000000000000
119810103000000000005001000000000000000000041977220000005000000000000000000000000000000000000000000000000000000000000000000000000000000000000000000000000000000000000000000005000000
119810103010000000005001000000000000000000041977220000000000000000000000000000000000000000000000000000000000000000000000000000000000000000000000000000000000000000000000000000000000
119810103020000000005001000000000000000000000000000000005000000000000000000000000000000000000000000000000000000000000000000000000000000000000000000000000000000000000000000005000000
119810104000000000005001000000000000000000006600000000003700000000000370000000000000000000000000000000000000000000000000000000000000001270800000000112960000000004236000000000000000
119810104010000000005001000000000000000000000000000000000000000000000370000000000000000000000000000000000000000000000000000000000000000000000000000000000000000000000000000000000000
119810104020000000005001000000000000000000006600000000000000000000000000000000000000000000000000000000000000000000000000000000000000000000000000000000000000000000000000000000000000
119810104030000000005001000000000000000000000000000000003700000000000000000000000000000000000000000000000000000000000000000000000000000000000000000000000000000000000000000000000000
119810104040000000005001000000000000000000000000000000000000000000000000000000000000000000000000000000000000000000000000000000000000001270800000000112960000000004236000000000000000
119810105000000000005001000000240000000000000000000000000000000000000000000000000000000000000000000000000000000000000000000000000000000000000000000000000000000000000000000000000000
119810105020000000005001000000240000000000000000000000000000000000000000000000000000000000000000000000000000000000000000000000000000000000000000000000000000000000000000000000000000
119810106000000000005001000000343664400000000000000000006873288000000687328800000068732880000003436644000001030993200000000000000000003436644000000343664400000103099320000037188508
119810106020000000005001000000343664400000000000000000006873288000000687328800000068732880000003436644000001030993200000000000000000003436644000000343664400000103099320000037188508
119810107000000000005001000000000000000000020735630000000000000000000000000000000000000000000000000000000000000000000000000000000000000000000000000000000000000000000000000000000000
119810107020000000005001000000000000000000020735630000000000000000000000000000000000000000000000000000000000000000000000000000000000000000000000000000000000000000000000000000000000
119810108000000000005001000000000000000000002592370000000624999000000000000000000004166660000000000000000000062499900000000000000000000416666000000000000000000006249990000000208333
119810108010000000005001000000000000000000002592370000000000000000000000000000000000000000000000000000000000000000000000000000000000000000000000000000000000000000000000000000000000
119810108020000000005001000000000000000000000000000000000624999000000000000000000004166660000000000000000000062499900000000000000000000416666000000000000000000006249990000000208333
119811200000000000005001000000004500000000000450000000000000000000000000000000000000000000000000000000000000000000000000000000000000000000000000000000000000000000000000000000000000
119811600000000000005001000000000000000000000000000000000000000000000000000000000000000000000000000000000000000000000000000000000000007782713000000000000000000000000000000000000000
119811601000000000005001000000000000000000000000000000000000000000000000000000000000000000000000000000000000000000000000000000000000005550445000000000000000000000000000000000000000
119811602000000000005001000000000000000000000000000000000000000000000000000000000000000000000000000000000000000000000000000000000000002232268000000000000000000000000000000000000000
120000000000000000005001000006242394800000682929590006745449543000008243836300001715039850000043028338000010532665100000653596910000138629787000014724451900009527609180000703865566
121000000000000000005001000001811802900000058402790000000000000000000050524400000000000000000000249357000000027329800000002732980000098079288000011334556700000316499300000030042112
121100000000000000005001000001783482600000057214110000000000000000000000000000000000000000000000000000000000027329800000000000000000072810325000008607434900000316499300000030042112
121110000000000000005001000001783482600000057214110000000000000000000000000000000000000000000000000000000000027329800000000000000000072810325000008607434900000316499300000030042112
121110400000000000005001000001711277100000038087070000000000000000000000000000000000000000000000000000000000026779000000000000000000039481411000004148141100000022118410000009011270
121110401000000000005001000001711277100000038087070000000000000000000000000000000000000000000000000000000000026779000000000000000000039481411000004148141100000022118410000009011270
121110401050000000005001000001065153300000002717710000000000000000000000000000000000000000000000000000000000020160400000000000000000024183737000002418373700000000000000000008462472
121110401050100000005001000001065153300000002717710000000000000000000000000000000000000000000000000000000000020160400000000000000000000000000000002418373700000000000000000000000000
121110401050300000005001000000000000000000000000000000000000000000000000000000000000000000000000000000000000000000000000000000000000024183737000000000000000000000000000000008462472
121110401070000000005001000000140363800000000000000000000000000000000000000000000000000000000000000000000000000101700000000000000000002985258000000398525800000004836370000000000000
121110401070100000005001000000140363800000000000000000000000000000000000000000000000000000000000000000000000000101700000000000000000000000000000000298525800000000000000000000000000
121110401070300000005001000000000000000000000000000000000000000000000000000000000000000000000000000000000000000000000000000000000000002985258000000100000000000000397900000000000000
121110401070400000005001000000000000000000000000000000000000000000000000000000000000000000000000000000000000000000000000000000000000000000000000000000000000000004438470000000000000
121110401090000000005001000000000000000000000000000000000000000000000000000000000000000000000000000000000000000000000000000000000000012312416000000100000000000017282040000000548798
121110401090100000005001000000000000000000000000000000000000000000000000000000000000000000000000000000000000000000000000000000000000009270892000000100000000000000000000000000548798
121110401090200000005001000000000000000000000000000000000000000000000000000000000000000000000000000000000000000000000000000000000000000000000000000000000000000000730750000000000000
121110401090300000005001000000000000000000000000000000000000000000000000000000000000000000000000000000000000000000000000000000000000000000000000000000000000000002598020000000000000
121110401090400000005001000000000000000000000000000000000000000000000000000000000000000000000000000000000000000000000000000000000000000000000000000000000000000000262710000000000000
121110401090500000005001000000000000000000000000000000000000000000000000000000000000000000000000000000000000000000000000000000000000000000000000000000000000000000896210000000000000
121110401090600000005001000000000000000000000000000000000000000000000000000000000000000000000000000000000000000000000000000000000000000000000000000000000000000012011870000000000000
121110401090700000005001000000000000000000000000000000000000000000000000000000000000000000000000000000000000000000000000000000000000000000000000000000000000000000038260000000000000
121110401090800000005001000000000000000000000000000000000000000000000000000000000000000000000000000000000000000000000000000000000000000000000000000000000000000000129700000000000000
121110401090900000005001000000000000000000000000000000000000000000000000000000000000000000000000000000000000000000000000000000000000003041524000000000000000000000614520000000000000
121110401100000000005001000000082945400000000114320000000000000000000000000000000000000000000000000000000000002230200000000000000000000000000000000927089200000000000000000000000000
121110401100100000005001000000082945400000000114320000000000000000000000000000000000000000000000000000000000002230200000000000000000000000000000000927089200000000000000000000000000
121110401110000000005001000000422814600000035255040000000000000000000000000000000000000000000000000000000000004286700000000000000000000000000000000304152400000000000000000000000000
121110401110100000005001000000422814600000035255040000000000000000000000000000000000000000000000000000000000004286700000000000000000000000000000000304152400000000000000000000000000
121110500000000000005001000000072205500000019127040000000000000000000000000000000000000000000000000000000000000550800000000000000000027328914000004459293800000263972390000000522435
121110504000000000005001000000000000000000000000000000000000000000000000000000000000000000000000000000000000000000000000000000000000022592938000002200000000000253523710000000000000
121110504010000000005001000000000000000000000000000000000000000000000000000000000000000000000000000000000000000000000000000000000000022592938000002200000000000006268780000000000000
121110504020000000005001000000000000000000000000000000000000000000000000000000000000000000000000000000000000000000000000000000000000000000000000000000000000000114468040000000000000
121110504030000000005001000000000000000000000000000000000000000000000000000000000000000000000000000000000000000000000000000000000000000000000000000000000000000019682970000000000000
121110504040000000005001000000000000000000000000000000000000000000000000000000000000000000000000000000000000000000000000000000000000000000000000000000000000000026522790000000000000
121110504050000000005001000000000000000000000000000000000000000000000000000000000000000000000000000000000000000000000000000000000000000000000000000000000000000000489190000000000000
121110504060000000005001000000000000000000000000000000000000000000000000000000000000000000000000000000000000000000000000000000000000000000000000000000000000000019621380000000000000
121110504070000000005001000000000000000000000000000000000000000000000000000000000000000000000000000000000000000000000000000000000000000000000000000000000000000001006060000000000000
121110504080000000005001000000000000000000000000000000000000000000000000000000000000000000000000000000000000000000000000000000000000000000000000000000000000000002758250000000000000
121110504090000000005001000000000000000000000000000000000000000000000000000000000000000000000000000000000000000000000000000000000000000000000000000000000000000041319990000000000000
121110504100000000005001000000000000000000000000000000000000000000000000000000000000000000000000000000000000000000000000000000000000000000000000000000000000000008726670000000000000
121110504110000000005001000000000000000000000000000000000000000000000000000000000000000000000000000000000000000000000000000000000000000000000000000000000000000008270700000000000000
121110504120000000005001000000000000000000000000000000000000000000000000000000000000000000000000000000000000000000000000000000000000000000000000000000000000000000226040000000000000
121110504130000000005001000000000000000000000000000000000000000000000000000000000000000000000000000000000000000000000000000000000000000000000000000000000000000000472660000000000000
121110504150000000005001000000000000000000000000000000000000000000000000000000000000000000000000000000000000000000000000000000000000000000000000000000000000000003690190000000000000
121110530000000000005001000000000000000000000000000000000000000000000000000000000000000000000000000000000000000000000000000000000000004735976000000000000000000010448680000000522435
121110530010000000005001000000000000000000000000000000000000000000000000000000000000000000000000000000000000000000000000000000000000002815016000000000000000000005156740000000257838
121110530020000000005001000000000000000000000000000000000000000000000000000000000000000000000000000000000000000000000000000000000000001920960000000000000000000005291940000000264597
121110599000000000005001000000072205500000019127040000000000000000000000000000000000000000000000000000000000000550800000000000000000000000000000002259293800000000000000000000000000
121119900000000000005001000000000000000000000000000000000000000000000000000000000000000000000000000000000000000000000000000000000000006000000000000000000000000030408500000020508407
121119904000000000005001000000000000000000000000000000000000000000000000000000000000000000000000000000000000000000000000000000000000006000000000000000000000000030408500000012545765
121119904050000000005001000000000000000000000000000000000000000000000000000000000000000000000000000000000000000000000000000000000000006000000000000000000000000024350620000009467464
121119904070000000005001000000000000000000000000000000000000000000000000000000000000000000000000000000000000000000000000000000000000000000000000000000000000000000000000000000772965
121119904090000000005001000000000000000000000000000000000000000000000000000000000000000000000000000000000000000000000000000000000000000000000000000000000000000006057880000002305336
121119905000000000005001000000000000000000000000000000000000000000000000000000000000000000000000000000000000000000000000000000000000000000000000000000000000000000000000000007962642
121200000000000000005001000000028320300000001188680000000000000000000050524400000000000000000000249357000000000000000000002732980000025268963000002727121800000000000000000000000000
121210000000000000005001000000028320300000001188680000000000000000000050524400000000000000000000249357000000000000000000002732980000025268963000002727121800000000000000000000000000
121210200000000000005001000000000000000000000000000000000000000000000000000000000000000000000000000000000000000000000000000000000000000000000000000000000000000000000000000000000000
121210211010000000005001000000000000000000000000000000000000000000000000000000000000000000000000000000000000000000000000000000000000000000000000000000000000000000000000000000000000
121219800000000000005001000000028320300000001188680000000000000000000050524400000000000000000000249357000000000000000000002732980000025268963000002727121800000000000000000000000000
121219899000000000005001000000028320300000001188680000000000000000000050524400000000000000000000249357000000000000000000002732980000025268963000002727121800000000000000000000000000
121219899020000000005001000000028320300000001188680000000000000000000050524400000000000000000000249357000000000000000000002732980000025268963000002727121800000000000000000000000000
122000000000000000005001000000036942300000091310920000004015437000000000000000000027595330000000000000000000275990800000000000000000002778422000000000000000000041472790000006809830
122100000000000000005001000000036942300000091310920000004015437000000000000000000027595330000000000000000000275990800000000000000000002778422000000000000000000041472790000006809830
122110000000000000005001000000036942300000091310920000004015437000000000000000000027595330000000000000000000275990800000000000000000002778422000000000000000000041472790000006809830
122110100000000000005001000000036942300000091310920000004015437000000000000000000027595330000000000000000000275990800000000000000000002778422000000000000000000041472790000006809830
122110107000000000005001000000036942300000091310920000004015437000000000000000000027595330000000000000000000275990800000000000000000002778422000000000000000000041472790000006809830
122110107010000000005001000000022854900000091310920000003760231000000000000000000025039520000000000000000000250395200000000000000000002503952000000000000000000037559280000006809830
122110107020000000005001000000014087400000000000000000000255206000000000000000000002555810000000000000000000025595600000000000000000000274470000000000000000000003913510000000000000
122110200000000000005001000000000000000000000000000000000000000000000000000000000000000000000000000000000000000000000000000000000000000000000000000000000000000000000000000000000000
122110201000000000005001000000000000000000000000000000000000000000000000000000000000000000000000000000000000000000000000000000000000000000000000000000000000000000000000000000000000
122110201040000000005001000000000000000000000000000000000000000000000000000000000000000000000000000000000000000000000000000000000000000000000000000000000000000000000000000000000000
122110201050000000005001000000000000000000000000000000000000000000000000000000000000000000000000000000000000000000000000000000000000000000000000000000000000000000000000000000000000
123000000000000000005001000004393649600000533215880006741434106000008193311900001687444520000042778981000010229344500000650863930000037772077000003389895200009169637090000667013624
123100000000000000005001000001458763600000068086430000106810875000005139203000000167948060000010631719000005112463400000364367360000012005538000000602976900001844467700000150801344
123110000000000000005001000001458763600000068086430000106810875000005139203000000167948060000010631719000005112463400000364367360000012005538000000602976900001844467700000150801344
123110100000000000005001000000095118000000000000000000025418531000000012923100000013789500000000341516000000151314000000005049750000000486720000000000000000000130835330000005691721
123110101000000000005001000000000000000000000000000000000000000000000000000000000000000000000000000000000000000000000000000000000000000000000000000000000000000000000000000000000000
123110102000000000005001000000000000000000000000000000000000000000000000000000000005530000000000000000000000004799000000001053000000000000000000000000000000000000000000000000075800
123110103000000000005001000000071698000000000000000000000153300000000000000000000002909500000000000000000000015250000000002150000000000046720000000000000000000008249000000001393949
123110104000000000005001000000000000000000000000000000000129231000000012923100000000000000000000000000000000000000000000000000000000000000000000000000000000000000000000000000000000
123110105000000000005001000000000000000000000000000000000000000000000000000000000000000000000000000000000000000000000000000249000000000000000000000000000000000011364000000000918300
123110106000000000005001000000000000000000000000000000000000000000000000000000000000000000000000000000000000027500000000000000000000000000000000000000000000000000000000000000000000
123110107000000000005001000000000000000000000000000000000000000000000000000000000000000000000000000000000000000000000000001055250000000000000000000000000000000000000000000000029500
123110109000000000005001000000000000000000000000000000000000000000000000000000000000000000000000000000000000005765000000000282000000000358000000000000000000000000000000000000039500
123110119000000000005001000000020470000000000000000000023030000000000000000000000000000000000000000000000000098000000000000000000000000082000000000000000000000085000000000000266700
123110120000000000005001000000000000000000000000000000000000000000000000000000000000000000000000000000000000000000000000000000000000000000000000000000000000000000000000000000000000
123110121000000000005001000000000000000000000000000000001380000000000000000000000005350000000000000000000000000000000000000000000000000000000000000000000000000000269970000000030000
123110199000000000005001000000002950000000000000000000000726000000000000000000000000000000000000341516000000000000000000000260500000000000000000000000000000000025952360000002937972
123110200000000000005001000000155400000000000000000000003685080000000030622000000048586000000001276300000000116680000000014171820000003543769000000002800000000327526250000027092575
123110201000000000005001000000155400000000000000000000003685080000000030622000000048586000000000240300000000116680000000014171820000003543769000000002800000000293340620000023674012
123110202000000000005001000000000000000000000000000000000000000000000000000000000000000000000001036000000000000000000000000000000000000000000000000000000000000034185630000003418563
123110300000000000005001000000416998000000000899170000007337768000000068375000000025649030000000010550000000182624000000001470990000001971280000000000000000000289809930000025832201
123110301000000000005001000000185345900000000000000000002394830000000000000000000010106030000000000000000000161829000000000000000000000765580000000000000000000078568000000006268400
123110302000000000005001000000001000000000000050000000000000000000000000000000000000000000000000000000000000000000000000000000000000000000000000000000000000000000000000000000005000
123110303000000000005001000000131553100000000849170000004942938000000068375000000014988000000000010550000000020795000000001004000000001205700000000000000000000211241930000019558801
123110304000000000005001000000099099000000000000000000000000000000000000000000000000555000000000000000000000000000000000000466990000000000000000000000000000000000000000000000000000
123110400000000000005001000000020680000000001034000000000000000000000000000000000000000000000000000000000000074930000000000160000000000000000000000000000000000010382500000001283478
123110404000000000005001000000000000000000000000000000000000000000000000000000000000000000000000000000000000074930000000000000000000000000000000000000000000000000000000000000013900
123110405000000000005001000000020680000000001034000000000000000000000000000000000000000000000000000000000000000000000000000160000000000000000000000000000000000000000000000001269578
123110499000000000005001000000000000000000000000000000000000000000000000000000000000000000000000000000000000000000000000000000000000000000000000000000000000000010382500000000000000
123110500000000000005001000000000000000000000000000000012932667000000000000000000000000000000000000000000001702450000000000000000000000000000000000000000000000176900000000000000000
123110501000000000005001000000000000000000000000000000000000000000000000000000000000000000000000000000000000000000000000000000000000000000000000000000000000000000000000000000000000
123110503000000000005001000000000000000000000000000000012932667000000000000000000000000000000000000000000001702450000000000000000000000000000000000000000000000176900000000000000000
123119900000000000005001000000770567600000066153260000057436829000005027282900000079923530000009003353000002884465400000343514800000006003769000000600176900000909013690000090901369
123119908000000000005001000000770567600000066153260000057436829000005027282900000079923530000009003353000002882145400000343514800000006003769000000600176900000891860450000090901369
123119999000000000005001000000000000000000000000000000000000000000000000000000000000000000000000000000000000002320000000000000000000000000000000000000000000000017153240000000000000
123119999010000000005001000000000000000000000000000000000000000000000000000000000000000000000000000000000000000000000000000000000000000000000000000000000000000000000000000000000000
123119999020000000005001000000000000000000000000000000000000000000000000000000000000000000000000000000000000002320000000000000000000000000000000000000000000000017153240000000000000
123200000000000000005001000002929036000000000000000006634317011000000000000000001504909080000001160524000004942482900000000000000000025766539000000000000000006768139990000438563868
123210000000000000005001000002929036000000000000000006634317011000000000000000001504909080000001160524000004942482900000000000000000025766539000000000000000006768139990000438563868
123210100000000000005001000000000000000000000000000000012259966000000000000000000050000000000000000000000000000000000000000000000000000000000000000000000000000000000000000000000000
123210103000000000005001000000000000000000000000000000012259966000000000000000000000000000000000000000000000000000000000000000000000000000000000000000000000000000000000000000000000
123210104000000000005001000000000000000000000000000000000000000000000000000000000050000000000000000000000000000000000000000000000000000000000000000000000000000000000000000000000000
123210400000000000005001000000000000000000000000000000010000000000000000000000000000000000000000000000000000000000000000000000000000000000000000000000000000000000000000000000000000
123210413000000000005001000000000000000000000000000000010000000000000000000000000000000000000000000000000000000000000000000000000000000000000000000000000000000000000000000000000000
123210500000000000005001000000000000000000000000000006590908653000000000000000000000000000000000000000000002171520300000000000000000003584988000000000000000004081632890000020686145
123210501000000000005001000000000000000000000000000001641011874000000000000000000000000000000000000000000000000000000000000000000000000000000000000000000000003963682520000017786145
123210502000000000005001000000000000000000000000000000000000000000000000000000000000000000000000000000000000000000000000000000000000000000000000000000000000000029000000000002900000
123210503000000000005001000000000000000000000000000004949896779000000000000000000000000000000000000000000000000000000000000000000000000000000000000000000000000000000000000000000000
123210504000000000005001000000000000000000000000000000000000000000000000000000000000000000000000000000000002171520300000000000000000000000000000000000000000000044017110000000000000
123210506000000000005001000000000000000000000000000000000000000000000000000000000000000000000000000000000000000000000000000000000000003584988000000000000000000044933260000000000000
123210600000000000005001000002929036000000000000000000021148392000000000000000001454909080000001160524000002770962600000000000000000022181551000000000000000002686507100000417877723
123210601000000000005001000002929036000000000000000000021148392000000000000000001454909080000001160524000002770962600000000000000000022181551000000000000000002686507100000417877723
123210601030000000005001000000290000000000000000000000000000000000000000000000000000000000000000000000000000000000000000000000000000000000000000000000000000000000000000000002900000
123210601040000000005001000000000000000000000000000000000000000000000000000000000000000000000000000000000000000000000000000000000000000000000000000000000000000034917950000000000000
123210601200100000005001000002639036000000000000000000021148392000000000000000001454909080000001160524000002770962600000000000000000022181551000000000000000002651589150000414977723
123800000000000000005001000000005850000000465129450000000306220000003054108900000004227380000029950738000000174398200000286496570000000000000000002786918300000052149770000027160449
123810000000000000005001000000005850000000465129450000000306220000003054108900000004227380000029950738000000174398200000286496570000000000000000002786918300000052149770000027160449
123810100000000000005001000000005850000000276650700000000306220000002690166600000004227380000026202146000000174398200000249010650000000000000000002412059100000052149770000023282107
123810101000000000005001000000000000000000075747990000000000000000000718412700000001758980000007026530000000031229300000066196140000000000000000000637917500000020118770000006536517
123810102000000000005001000000000000000000031948280000000306220000000333717500000002403000000003190086000000136122500000031835930000000000000000000301209700000023872590000002935329
123810103000000000005001000000005850000000017978520000000000000000000184156000000000065400000001747117000000006298800000017222210000000000000000000167120900000008037770000001545640
123810104000000000005001000000000000000000003801460000000000000000000037896000000000000000000000377814000000000747600000003737480000000000000000000060707500000000120640000000363440
123810105000000000005001000000000000000000147174450000000000000000001415984400000000000000000013860599000000000000000000130018890000000000000000001245103500000000000000000011901181
123810200000000000005001000000000000000000188478750000000000000000000363942300000000000000000003748592000000000000000000037485920000000000000000000374859200000000000000000003878342
123810201000000000005001000000000000000000188478750000000000000000000363942300000000000000000003748592000000000000000000037485920000000000000000000374859200000000000000000003878342
123810201010000000005001000000000000000000188478750000000000000000000363942300000000000000000003748592000000000000000000037485920000000000000000000374859200000000000000000003878342
123900000000000000005001000000000000000000000000000000000000000000000000000000000010360000000001036000000000000000000000000000000000000000000000000000000000000504879630000050487963
123910000000000000005001000000000000000000000000000000000000000000000000000000000010360000000001036000000000000000000000000000000000000000000000000000000000000504879630000050487963
123910100000000000005001000000000000000000000000000000000000000000000000000000000010360000000001036000000000000000000000000000000000000000000000000000000000000504879630000050487963
123910101000000000005001000000000000000000000000000000000000000000000000000000000000000000000000000000000000000000000000000000000000000000000000000000000000000021294000000002129400
123910102000000000005001000000000000000000000000000000000000000000000000000000000010360000000001036000000000000000000000000000000000000000000000000000000000000242913630000024291363
123910103000000000005001000000000000000000000000000000000000000000000000000000000000000000000000000000000000000000000000000000000000000000000000000000000000000240672000000024067200
200000000000000000005001001209719869900123674808520000849039203000084915275400009567047010000945046550000087878196000008593637420000839550944000078548346100070631635530013811126735
210000000000000000005001000064648668600009176056290000849028790000084905052100009379140510000928886845000087878196000008593637420000839550944000078548346100016116061360001440069549
211000000000000000005001000017120659600002063025290000335059105000036376020100003640320940000395105708000036319841100003876910820000358546849000038474558900007726637400000646509223
211100000000000000005001000013423568000001547849850000265616573000028983373600002805629700000310824878000028619930100003104022650000281398535000030737760500006135932460000507790373
211110000000000000005001000013423568000001547849850000265616573000028983373600002805629700000310824878000028619930100003104022650000281398535000030737760500006135932460000507790373
211110100000000000005001000013217268000001527219850000265616573000028983373600002775087120000307770620000028257531700003067782810000279857686000030583675600006121391700000490176592
211110101000000000005001000011351662500001135166250000255556899000025555689900002727027280000272702728000026900684500002690068450000269881426000026988142600002847114420000284711442
211110101020000000005001000011351662500001135166250000255556899000025555689900002727027280000272702728000026900684500002690068450000269881426000026988142600002847114420000284711442
211110102000000000005001000000034759000000208968950000001117514000002249405700000006007940000024799097000000041759600000234491980000002849838000002465031900002501151940000139158960
211110102010000000005001000000017379500000207231000000000558757000002193530000000003003970000024498700000000020879800000232404000000001424919000002322540000001250575970000014101363
211110102020000000005001000000017379500000001737950000000558757000000055875700000003003970000000300397000000020879800000002087980000001424919000000142491900001250575970000125057597
211110103000000000005001000001830846500000183084650000008942160000001178278000000042051900000010268795000001315087600000143222380000007126422000001130501100000773125340000066306190
211110103010000000005001000001389517200000138951720000004471080000000731170000000021025950000008166200000000657543800000077468000000003563211000000774180000000386562670000027649923
211110103020000000005001000000441329300000044132930000004471080000000447108000000021025950000002102595000000657543800000065754380000003563211000000356321100000386562670000038656267
211110500000000000005001000000206300000000020630000000000000000000000000000000000000000000000000000000000000000000000000000000000000000000000000000000000000000000000000000016159705
211110503000000000005001000000206300000000020630000000000000000000000000000000000000000000000000000000000000000000000000000000000000000000000000000000000000000000000000000016159705
211110503020000000005001000000000000000000000000000000000000000000000000000000000000000000000000000000000000000000000000000000000000000000000000000000000000000000000000000001329614
211110503030000000005001000000000000000000000000000000000000000000000000000000000000000000000000000000000000000000000000000000000000000000000000000000000000000000000000000013953078
211110503040000000005001000000000000000000000000000000000000000000000000000000000000000000000000000000000000000000000000000000000000000000000000000000000000000000000000000000877013
211110503060000000005001000000103150000000010315000000000000000000000000000000000000000000000000000000000000000000000000000000000000000000000000000000000000000000000000000000000000
211110503990000000005001000000103150000000010315000000000000000000000000000000000000000000000000000000000000000000000000000000000000000000000000000000000000000000000000000000000000
211110600000000000005001000000000000000000000000000000000000000000000000000000000030542580000003054258000000362398400000036239840000001540849000000154084900000014540760000001454076
211110602000000000005001000000000000000000000000000000000000000000000000000000000030542580000003054258000000362398400000036239840000001540849000000154084900000014540760000001454076
211200000000000000005001000000007530700000000753070000000150614000000015061400000001506140000000150614000000015061400000001506140000000150614000000015061400000002259210000000225921
211210000000000000005001000000007530700000000753070000000150614000000015061400000001506140000000150614000000015061400000001506140000000150614000000015061400000002259210000000225921
211210100000000000005001000000007530700000000753070000000150614000000015061400000001506140000000150614000000015061400000001506140000000150614000000015061400000002259210000000225921
211210102000000000005001000000007530700000000753070000000150614000000015061400000001506140000000150614000000015061400000001506140000000150614000000015061400000002259210000000225921
211400000000000000005001000003689560900000514422370000069291918000007377585100000833185100000084130216000007684849600000771382030000076997700000007721737000001588445730000138492929
211420000000000000005001000003689560800000484315080000063163830000006727535800000764786470000077274354000007030959900000706846860000070555633000007072732800001457801670000128790250
