87612826000190010120253101202501022025PREFEITURA MUNICIPAL INDEPENDENCIA                                              
0000000001VILMAR MELLER CHRISCHON - MEI INSS 1145837574-3             02641889000111198000861000000000000000000000AV TRES DE MAIO 1148 CPF 460319010-72             INDEPENDENCIA                 RS989150005591032639000000000000000000000102
0000000002A EUDES BALBINOT -CULTURAL COM DE LIVROS                    00629913000171113009831900000000000000000000RUA MATHEUS PRADO BECK 339                        SANTO ANGELO                  RS988032305531318870000000000000000000000102
0000000003JC SANTOS   CIA LTDA                                        02020355000178198000541600000000000000000000AV TRES DE MAIO 177                               INDEPENDENCIA                 RS989150003539127000000000000000000000000102
0000000004IRIA MARTINI DE ARAUJO - ME                                 00000000000000198000027940000000000000000000RUA SANTO ANGELO 1177                             INDEPENDENCIA                 RS989150000000000000000000000000000000000101
0000000005NEIVA CATARINA FAURO                                        00076167607087000000000000000000000000000000AGENTE DE SAUDE                                   INDEPENDENCIA                 RS989150000000000000000000000000000000000101
0000000006FPSM - CONTRIBUICAO AO FAPS                                 12091144000180000000000000000000000000000000RUA SENADOR PINHEIRO                              INDEPENDENCIA                 RS989150000000000000000000000000000000000102
0000000007TELET SA                                                    01655694000168962701912000000000000000000000RUA GILBERTO LASTE  52 - MEZANINO                 PORTO ALEGRE                  RS908500001234000000000000000000000000000102
0000000008IRAMIR DE ALMEIDA MORAES                                    00005749603091000000000000000000000000000000RUA ANTUNES RIBAS  1514                           SANTO ANGELO                  RS988050000000000000000000000000000000000101
0000000009LONI DOMENIGHI - DIARIAS                                    00004418266003000000000000000000000000000000PROFESSORA                                        SUPERVISORA DO ENSINO         RS483200000000000000000000000000000000000101
0000000011OFCIO DE REGISTRO DE IMOVEIS - JOS DELMAR MOTTA             89921159000152000000000000000000000000000000AVURUGUAI561                                      TRES DE MAIO                  RS989100003535213800000000000000000000000102
0000000012ERONI MAICA DA SILVA                                        00065928970072000000000000000000000000000000TECNICO DE ENFERMAGEM -  SAUDE PUBLICA            INDEPENDENCIA                 RS483200000000000000000000000000000000000101
0000000013JUSTIA DO TRABALHO DA 4A REGIAO                             00000000000000000000000000000000000000000000RUA SANTOS DUMONT 496                             SANTA ROSA                    RS989000000000000000000000000000000000000101
0000000014AGRITECH LAVRALE S/A                                        88658984000124290038200000000000000000000000RUA SINIMBU1072                                   CAXIAS DO SUL                 RS950200001454322824400000000000000000000102
0000000015COMERCIAL DE PECAS LTDA - RODIS                             93086270000148110004285400000000000000000000AVINHACORA - SALA 03                              SANTA ROSA                    RS989000003512460083830000000000000000000102
0000000016FRIOBOHN TINTAS E REFRIGERACAO LTDA                         90097858000109147003317500000000000000000000RUA HORIZONTINA726                                TRES DE MAIO                  RS989100005351892961310000000000000000000102
0000000017MARIA I SARTOR DECKER E CIA LTDA                            74090275000108147003013300000000000000000000AVENIDA URUGUAI468                                TRES DE MAIO                  RS989100000000000000000000000000000000000102
0000000018FLAVIO JORGE HUBER                                          02707094000169147003515100000000000000000000AVENIDA URUGUAI439                                TRES DE MAIO                  RS989100003535103800000000000000000000000102
0000000020TANDER INDUSTRIA E COM DE CONFECOES LTDA                    00000000000000000000000000000000000000000000ARATIBA                                           ARATIBA                       RS997700000000000000000000000000000000000101
0000000021COM ATACADISTA E VAR DE ARTIGOS-PABRUAN                     00366218000164620021365000000000000000000000RUA URUGUAI960                                    HORIZONTINA                   RS989200003537106200000000000000000000000102
0000000024VEPPO   CIA LTDA                                            92660760000143000000000000000000000000000000LARGO VESPASIANO JULIO VEPPO S/NO                 PORO ALEGRE                   RS904080005132280699350000000000000000000102
0000000025LABORATORIO DE PATOLOGIA NOROESTE LTDA                      01934699000120374385000000000000000000000000RUA FERNANDO FERRARI222                           SANTA ROSA                    RS989000005126330000000000000000000000000102
0000000027MECDE CAMINHOES E MAQPESADAS CEL LTDA                       03583031000100110007509400000000000000000000RUA SANTOS DUMONT291                              SANTA ROSA                    RS989000005125434000000000000000000000000102
0000000028PAULO PERES                                                 00006298028072000000000000000000000000000000                                                  SANTA ROSA                    RS989000000000000000000000000000000000000101
0000000029TESOURO NACIONAL                                            25003300001997000000000000000000000000000000BRASILIA                                          BRASILIA                      DF989150000000000000000000000000000000000102
0000000030UNIJUI -UNIVERSIDADE REGNOROESTE RGS                        11111111000100000000000000000000000000000000RUA SUBURBIOS                                     SANTA ROSA                    RS989000000000000000000000000000000000000102
0000000031ACESSOCAR COMERCIO DE PEAS E SERVIOS LTDA                   95771424000166252567200000000000000000000000AC PLINIO ARLINDO DE NES 3501 LETRA D             CHAPEC                        SC898010704933110500000000000000000000000102
0000000032WILKOMM   WILKOMM LTDA                                      93212595000120147002452400000000000000000000RUA SANTA DOLORES N  28                           TRES DE MAIO                  RS989100003535108500000000000000000000000102
0000000033LEONIR ANTONIO SCHIAVO                                      90520099000145147001833800000000000000000000AVURUGUAI343                                      TRES DE MAIO                  RS989100003535213100000000000000000000000102
0000000036MADEIREIRA MARX LTDA -ME                                    93562247000182198000342100000000000000000000FLOR DE MAIO                                      INDEPENDENCIA                 RS989150009975775400000000000000000000000102
0000000038CREA - CONSREGDE ENGARQE AGRDO RGS                          92695790000195000000000000000000000000000000PORTO ALEGRE                                      PORTO ALEGRE                  RS904080000000000000000000000000000000000102
0000000039MJB - MOACIR JOSE BACKES - ME                               91500405000144147002056100000000000000000000AVENIDA PLANALTO1194                              TRES DE MAIO                  RS989100003535158400000000000000000000000102
0000000041AIRTON JOSE BERTAIOLLI         - INSS 10104471104           00017007771068000000000000000000000000000000RUA OSVALDO CRUZ381                               TRES DE MAIO                  RS989100000000000000000000000000000000000101
0000000042GILBERTO OLINDO NICHEL                                      87011789000164000000000000000000000000000000RUA SAO JOS 36                                    BOA VISTA DO BURICA           RS989180005553538129200000000000000000000102
0000000043ELOI JOSE FOLETTO                                           02510973000104000000000000000000000000000000AV TRES DE MAIO 1223  2O3O E 4O ANDARES           INDEPENDENCIA                 RS989150003539122300000000000000000000000102
0000000046CARPENEDO E CIA LTDA                                        95818399000129110000551700000000000000000000RUA PALMEIRA345                                   SANTA ROSA                    RS989000005535125400000000000000000000000102
0000000047HSVP -ASSOCIAAO DE LITERATURA E BENEFICIENCIA               92962869000720000000000000000111030340000000RUA OSVALDO CRUZ381                               TRES DE MAIO                  RS989100003535100000000000000000000000000102
0000000048CLINICA SAO VICENTE LTDA                                    90478561000193000000000000000000000000000000RUA OSVALDO CRUZ381                               TRES DE MAIO                  RS989100005535351950000000000000000000000102
0000000049DARI DOS SANTOS MELLER                                      00004864395004000000000000000000000000000000RUA SAO JOAO 705                                  INDEPENDENCIA                 RS989150009946238600000000000000000000000101
0000000050CARLOS BORGES MASSUDA E OU/HORTENCIA                        00076167127034198102966100000000000000000000LAJEADO PESSEGUEIRO                               INDEPENDENCIA                 RS989150000000000000000000000000000000000101
0000000051IOB INFORMACOES OBJETIVAS PUBLICACAOES JURIDICAS            43217850000159000000000000000960525505000000RUA PERNAMBUCO2810                                PORTO ALEGRE                  RS902400009513323660000000000000000000000102
0000000052ANTONIO AVELINO FERREIRA                                    00046252240044000000000000000000000000000000MOTORISTA/VEREADOR                                INDEPENDENCIA                 RS989150000000000000000000000000000000000101
0000000053DANIEL BARROS DE MELLO - DIARIAS                            00006348467015000000000000000000000000000000VEREADOR                                          INDEPENDENCIA                 RS989150000000000000000000000000000000000101
0000000054TESOURO DO ESTADO                                           00000000000000000000000000000000000000000000                                                                                  997400000000000000000000000000000000000101
0000000055MARTA ELISA REMBOLO DO NASCIMENTO                           00093696507091000000000000000000000000000000ASSISTENTE SOCIAL                                 INDEPENDENCIA                 RS989150000000000000000000000000000000000101
0000000057HMLINCK-HOSPITALAR E INDUSTRIAL                             00660664000187110006138700000000000000000000RUA CRISTOVAO LEOPOLDO MEINERT                    SANTA ROSA                    RS989000003512832100000000000000000000000102
0000000058VANDERLEIA APARECIDA DARONCO CAUDURO                        00090064224015000000000000000000000000000000PROFESSORA                                        INDENPENDENCIA                RS989150000000000000000000000000000000000101
0000000059LUCIANA DAL SOTTO FREITAS                                   00024726664034000000000000000000000000000000PROFESSORA                                        INDEPENDENCIA                 RS989150000000000000000000000000000000000101
0000000060ALTO URUGUAI PLANE ASSTECAGROPECUARIA                       90477340000109000000000000000000000000000000AVENIDA SANTA ROSA101                             TRES DE MAIO                  RS989100000000000000000000000000000000000102
0000000061LINHA MEDICA -EQUIPAMENTOS P/MEDICINA                       68780709000196000000000000000000000000000000RUA IRMAO JOSE OTAO182                            PORTO ALEGRE                  RS997400003112125000000000000000000000000102
0000000062ANDREA LANGNER                                              00093385471087000000000000000000000000000000PROFESSORA                                        INDEPENDENCIA                 RS989150000000000000000000000000000000000101
0000000063ANA MARIA DE LIMA                                           00000067837085000000000000000000000000000000PROFESSORA                                        INDEPEDENCIA                  RS989150000000000000000000000000000000000101
0000000064AMUFRON - ASSOC MUNIC FRONT NOROESTE EX AMGSR               87689006000104000000000000000000000000000000RUA BUENOS AIRES 25                               SANTA ROSA                    RS989000005535125774000000000000000000000102
0000000065DIFREMEL DISTRIBUIDORA DE MEDICAMENTOS                      93686650000134490023371000000000000000000000RUA MURICIO CARDOSO1491                           FREDERICO WESTPHALEN          RS984000005537444377000000000000000000000102
0000000067MULTIFARMA COMMEDICAMENTOS LTDA                             03134249000188962806234000000000000000000000RUA ITAPEVA90                                     PORTO ALEGRE                  RS901500040000000000000000000000000000000102
0000000068AUTO POSTO HUBNER LTDA                                      88794490000196147001123600000000000000000000RUA HORIZONTINA 1085                              TRES DE MAIO                  RS989100005535351461000000000000000000000102
0000000069COUTINHO E BAMBERG LTDA                                     04344080000153147003819300000000000000000000RUA BERTOLDO BOECK 61                             TRES DE MAIO                  RS989100003535134900000000000000000000000102
0000000070JOSE MARSCHNER                                              00049907239020000000000000000000000000000000OPERARIO                                          INDEPENDENCIA                 RS989150000000000000000000000000000000000101
0000000071GILBERTO LUIS BAIOTTO-DIARIAS                               00026236974004000000000000000000000000000000VEREADOR                                          INDEPENDENCIA                 RS989150000000000000000000000000000000000101
0000000073CPERGS-SINDICATO-CENTRO DOS PROFRGS                         92908144000169000000000000000000000000000000AVENIDA ALBERTO BINS480                           PORTO ALEGRE                  RS900301403535194251221000000000000000000102
0000000074PEDRO ADELAR STURMER                                        00840219000107000000000000000000000000000000RUA RUI BARBOSA10                                 HUMAITA                       RS986700000000000000000000000000000000000102
0000000076ESTAAO RODOVIARIA DE TRES DE MAIO LTDA                      98040629000160000000000000000000000000000000RUA PAADRE CACIQUE 874                            TRES DE MAIO                  RS989100003535148400000000000000000000000102
0000000077VIAAO OURO E PRATA S/A                                      92954106000142962042935000000000000000000000PIX EMAIL FATURAMENTOOUROEPRATACOM                PORTO ALEGRE                  RS900109085133758563000000000000000000000102
0000000078HERCULES APARECIDO DE MORAES - INSS 11265429256             00005419324890000000000000000000000000000000INSS 11265429256                                  IJUI                          RS987000003332513300000000000000000000000101
0000000079ESA - ESTRUTURAS METALICAS LTDA                             91635144000170147002086300000000000000000000RUA HORIZONTINA1882                               TRES DE MAIO                  RS989100005535351952000000000000000000000102
0000000080ROMAR F MANN    CIA LTDA                                    90316407000115000000000000000000000000000000RUA ANISIO DE ARAUJO E SILVA                      INDEPENDENCIA                 RS989150003539400000000000000000000000000102
0000000081ANTONIO AVELINO FERREIRA- NO USAR                           00046252240044000000000000000000000000000000MOTORISTA                                         INDEPENDENCIA                 RS989150000000000000000000000000000000000101
0000000082RGE-ILUMINACAO PUBLICA - DVIDA                              02016439000138962636193000000000000000000000RUA SAO LUIZ77                                    PORTO ALEGRE                  RS906201700000000000000000000000000000000102
0000000083ENIO BACKES                                                 00059171332049000000000000000000000000000000AGENTE DE SAUDE                                   INDEPENDENCIA                 RS989150000000000000000000000000000000000101
0000000084CELIANE CRISTIANE DEBESAITIS                                00098201972015000000000000000000000000000000AVENIDA TRS DE MAIO N 65                          INDEPENDENCIA                 RS989150000000000000000000000000000000000101
0000000085CLEONICE DOS SANTOS                                         03842232000185254056717000000000000000000000RUA PEDRO DA SILVA MACIEL364                      CHAPECO    SANTA CATARINA     SC898140654999679080000000000000000000000102
0000000086CONTRIBUIAO AO FUNDEF                                       87612826000270000000000000000000000000000000RUA SENADOR PINHEIRO 1348                         INDEPENDENCIA                 RS989150000000000000000000000000000000000102
0000000087PRESIDENCIA DO TRIBUNAL DE JUSTIA                           89522064000166000000000000000000000000000000PORTO ALEGRE                                      PORTO ALEGRE                  RS904080000000000000000000000000000000000102
0000000088ADALBERTO V WACHTER   CIA LTDA- SER DO BETAO                87807616000157147001525800000000000000000000RUA FARRAPOS N 1671                               TRES DE MAIO                  RS989100005535351200000000000000000000000102
0000000089JOSE BORGES MACHADO                                         00030909503087000000000000000000000000000000OPERADOR DE MAQUINAS                              INDEPENDENCIA                 RS989150000000000000000000000000000000000101
0000000090MASTER JET COMDE SUPRPARA INFORMATICA                       04370237000115110007852200000000000000000000AV TUPARENDI 1796                                 SANTA ROSA                    RS989000003512239600000000000000000000000102
0000000091MIRIANE RAQUEL LAMBERTY TAVARES                             04572299000100173000846900000000000000000000AVTRES PASSOS250                                  BOA VISTA DO BURICA           RS989180003538151099910000000000000000000102
0000000092HELGA PORSCH - NEUROLOGISTA-INSS 11371020781                00063436027049000000000000000000000000000000RUA SETE DE SETEMBRO345/62                        IJUI                          RS987000000000000000000000000000000000000101
0000000094PATOLOGIA NOROESTE                                          00000000000000000000000000000000000000000000AA                                                SANTA ROSA                    RS989000000000000000000000000000000000000101
0000000096JOSE LEMANSKI BOYARSKI                                      00020432534091198101748500000000000000000000LAJEADO PESSEGUEIRINHO                            INDEPENDENCIA                 RS989150000000000000000000000000000000000101
0000000097RODRIGO GRAEFF ME                                           01651518000158407000059200000000000000000000RUA BORGES DE MADEIROS N 189                      SO JOS DO INHACOR             RS989580005535381102962300000000000000000102
0000000099ROBERTO ANTNIO PACHECO                                      01723442000129000000000000000000000000000000RUA OTVIO CORREA 55 - PORTO ALEGRE                PORTO ALEGRE                  RS900000000000000000000000000000000000000102
0000000100SANDRA VERDUM VIEGAS                                        00000000000000000000000000000000000000000000RUA OSVALDO CRUZ                                  TRES DE MAIO                  RS989100000000000000000000000000000000000101
0000000101DANILO BARCELOS MOTTA                                       00037576577053000000000000000000000000000000INSS 117110851265                                 TRES DE MAIO                  RS989100000000000000000000000000000000000101
0000000102LABORATORIO IMUNOLOGIA DE TRANSPLANTE                       92815000000168000000000000000000000000000000AVENIDA INDEPENDENCIA75                           PORTO ALEGRE                  RS900350000000000000000000000000000000000102
0000000103GENEX - INSTITUTO DE EXAMES GENETICOS LTDA                  93019644000102000000000000000000000000000000RUA CARLOS GOMES403 SALA 703                      PORTO ALEGRE                  RS904800003328927500000000000000000000000102
0000000104JOSE SADI DA SILVA                                          00037305417068000000000000000000000000000000MOTORISTA                                         INDEPENDENCIA                 RS989150000000000000000000000000000000000101
0000000105LINCK SA - EQUIPAMENTOS RODOVIARIOS E INDUSTRIAIS           00000000000000000000000000000000000000000000AVENIDA DOS ESTADOS111                            PORTO ALEGRE                  RS902000000000000000000000000000000000000101
0000000106SC PIRES - VASSOURAS PIRES                                  03777351000100902100091100000000000000000000RUA SAO SEBASTIAO550                              FRANCISCO BELTRAO - PARANA    PR856020004652454412700000000000000000000102
0000000107RODRIGO BETTIN                                              00066127483034000000000000000000000000000000RUA OSVALDO CRUZ381                               TRES DE MAIO                  RS989100000000000000000000000000000000000101
0000000108DITEC CONSULTORIA                                           02501760000108000000000000000000000000000000PORTO ALEGRE                                      PORTO ALEGRE                  RS989150000000000000000000000000000000000102
0000000109NOELY BORGES MENEGUETTI                                     00000000000000000000000000000000000000000000AUXILIAR DE ALIMENTAAO E HIGIENE CLT              INDEPENDENCIA                 RS989150000000000000000000000000000000000101
0000000110LUCIANA DO CARMO FONSECA DE BARROS                          00071187456004000000000000000000000000000000PROFESSORA                                        INDEPENDENCIA                 RS989150000000000000000000000000000000000101
0000000111MILTON FROHLICH DOS SANTOS                                  00029033780020000000000000000000000000000000RUA SENADOR PINHEIRO 1348                         INDEPENDENCIA                 RS989150000000000000000000000000000000000101
0000000113ANTONIO MAURI BORGES PEIXOTO                                00037627864020000000000000000000000000000000SECRETARIO DE OBRAS E VIACAO                      INDEPENDENCIA                 RS989150000000000000000000000000000000000101
0000000114ANTONIO ZIMMERMANN MOROGINSKI                               00025948140015000000000000000000000000000000CHEFE DE TURMA                                    INDEPENDENCIA                 RS989150000000000000000000000000000000000101
0000000115FISCONET ASSESSORAMENTO FISCAL LTDA                         03716758000119000000000000000000000000000000RUA DOM PEDRO1024                                 PORTO ALEGRE                  RS905500000000000000000000000000000000000102
0000000116SONDASUL CONSULTORIA AMB LTDA - ALCIONE TOMASI              91053736000183000000000000000145236424000000RUA IJUI279                                       TRES DE MAIO                  RS989100003535855799970000000000000000000102
0000000117ASSEDISA - ASSDOS SECRETARIOS E DIRMUNDE SAUDE              00000000000000000000000000000000000000000000PORTO ALEGRE                                      PORTO ALEGRE                  RS900200000000000000000000000000000000000101
0000000118LUIS ANTONIO KERBER                                         00035697326068000000000000000000000000000000RUA SANTA ROSA980                                 SANTA ROSA                    RS989000000000000000000000000000000000000101
0000000119VALDEMAR SIQUEIRA DA SILVA-ME                               92605344000142198000310300000000000000000000AV TRES DE MAIO 301                               INDEPENDENCIA                 RS989150009146436500000000000000000000000102
0000000120IJUIDIESEL COME TRANSPDE COMBUSLTDA                         87414082000107650033639000000000000000000000IJUI                                              IJUI                          RS987000003332852042800000000000000000000102
0000000122ELIAMAR STEFANI ANDRETTA                                    00090077300025000000000000000000000000000000AGENTE MUNICIPAL DE SAUDE                         INDEPENDENCIA                 RS989150000000000000000000000000000000000101
0000000124ANA LUCIA PIRES DE BARROS                                   00077279301053000000000000000000000000000000AGENTE MUNCIPAL DE SAUDE                          INDEPEDENCIA                  RS989150000000000000000000000000000000000101
0000000125SALDANHA BOIARSKI BORGES                                    00048575771000000000000000000000000000000000AVTRES DE MAIO                                    INDEPENDENCIA                 RS989150009959460000000000000000000000000101
0000000126MAURO KOWALCZUK - UNIAO RETIFICADORA DE MOTORES             03586581000183110007491800000000000000000000RUA BORGES FORTES950 - FUNDOS                     SANTA ROSA                    RS989000003512567700000000000000000000000102
0000000127SUELI DA SILVA BARROS                                       00053970152020000000000000000000000000000000AGENTE EPIDEMIOLOGICO- PIM                        INDEPENDENCIA                 RS989150000000000000000000000000000000000101
0000000128OPHTALMOS FORMULAS OFICINAIS LTDA                           00000000000000000000000000000000000000000000RUA DONA LAURA228                                 PORTO ALEGRE                  PO915200000000000000000000000000000000000101
0000000129JOSE MARCIO DE SOUZA                                        00064783065004000000000000000381039000000000RUA CRISTOVAO LEOPOLDO MEINERTZ286                SANTA ROSA                    RS989000003512848999810000000000000000000101
0000000130DARCI PLANER-EPP                                            92820877000147147002342000000000000000000000RUA PADRE CACIQUE1136                             INDEPENDENCIA                 RS989150005352101000000000000000000000000102
0000000131IRACILDO BINICHESKI                                         00019322020059000000000000000000000000000000TRES DE MAIO                                      TRES DE MAIO                  RS989100000000000000000000000000000000000101
0000000132KURTZ KOCHHANN   CIA LTDA                                   98041577000146147001294100000000000000000000AV SANTA ROSA 848                                 TRES DE MAIO                  RS989100005553519740000000000000000000000102
0000000133CORREIO-EMPRESA BRASDE CORREIOS E TEL NO USAR               34028316509804962055271000000000000000000000AVENIDA TRES DE MAIO 1177                         INDEPENDENCIA                 RS989150005535391230000000000000000000000102
0000000134GRAFICA VILANI LTDA                                         00117983000140147003047800000000000000000000RSANTO ANGELO 455                                 TRES DE MAIO                  RS989100005352080000000000000000000000000102
0000000135P E GERARRDI   CIA LTDA                                     98036213000178147001301800000000000000000000AVENIDA SANTA ROSA 763                            TRES DE MAIO                  RS989100005351052000000000000000000000000102
0000000136JACINTO MATTE-ME                                            95304660000146198000437100000000000000000000AV TRES DE MAIO 1254                              INDEPENDENCIA                 RS989150009967812600000000000000000000000102
0000000137MARLI NABINGER WEDDIGEN-RECUPERADORA DE PARABRISAS          05900970000167000000000000000000000000000000AV SANTA ROSA N 1170 - FUNDOS SALA 01             TRES DE MAIO                  RS989100005535351271000000000000000000000102
0000000138ROQUE LUIZ TRATSCH - DIARIAS                                00016278348004000000000000000000000000000000SECRETARIO DA EDUCACAO                            INDEPENDENCIA                 RS989150000000000000000000000000000000000101
0000000139JOAO SZARESKI ZDANSKI                                       00016280938034198100062000000000000000000000SAO VALENTIM                                      INDEPENDENCIA                 RS989150000000000000000000000000000000000101
0000000140MARINA VEICULOS LTDA                                        94089398000128250081849000000000000000000000AVFLORES DA CUNHA311                              CARAZINHO                     RS995000005433299700000000000000000000000102
0000000141ASSMUNIC GRANDE STA ROSA                                    00000000000000000000000000000000000000000000A                                                 SANTA ROSA                    RS989000003512577400000000000000000000000101
0000000142ANA PAULA SIQUEIRA MELLER                                   04801201000149198000846600000000000000000000AV TRES DE MAIO 1096 - SALA 01                    INDEPENDENCIA                 RS989150000000000000000000000000000000000102
0000000143RICARDO KUBITZ LTDA - HIDRULICA KUBITZ                      05343028000145110009042500000000000000000000RUA HENRIQUE GASSEN 623                           SANTA ROSA                    RS989000003512561820000000000000000000000102
0000000144AIRTON SCHULTZ                                              00097161900000000000000000000000000000000000ESQUINA BOA VISTA- INTERIOR MUNIC INDEPENDENCIA   INDEPENDENCIA                 RS989150000000000000000000000000000000000101
0000000145CONTRIBUICAO AO ICMS                                        00000000000000000000000000000000000000000000                                                                                  997400000000000000000000000000000000000101
0000000147BRASIL DISTRIBUIDORA E COM LTDA ME                          04960726000127000000000000000126968000000000AVJOSE BRAMBILA NR 527                            CACHOERINHA                   RS949450000000000000000000000000000000000102
0000000149OI - BRASIL TELECOM SA- 51-074-6918NET                      76535764000224962845833000000000000000000000AVBORGES DE MEDEIROS512                           PORTO ALEGRE                  RS989150008000310800000000000000000000000102
0000000150JAIR CESAR SOUZA                                            00050056190034000000000000000000000000000000MOTORISTA                                         INDEPENDENCIA                 RS989150005599646188000000000000000000000101
0000000152RUDOLPHO BALDUINO E OLINDA ZOLLMANN                         00000000000000000000000000000000000000000000                                                                                  997400000000000000000000000000000000000101
0000000153VALMIR RICHTER                                              00051774771004000000000000000000000000000000SERVIDOR DA CAMARA DE VEREADORES                  INDEPENDENCIA                 RS989150000000000000000000000000000000000101
0000000154JURANDIR HETTWER - INSS 10959390151                         00020025351087000000000000000000000000000000INSS 10959390151                                  TRES DE MAIO                  RS989100000000000000000000000000000000000101
0000000155INSS - CONTRIBUICAO AO INSS                                 29979036000140000000000000000000000000000000SEM ENDEREO                                       INDEPENDENCIA                 RS989150000000000000000000000000000000000102
0000000156PAULO BAES                                                  00016327080006000000000000000000000000000000SANTA ROSA                                        SANTA ROSA                    RS989000000000000000000000000000000000000101
0000000158PAULO RICARDO TOMASI - CARTORIO TOMASI                      00009034323072000000000000000000000000000000RUA SANTO ANGELO 561 SALA 201                     TRES DE MAIO                  RS989100005535351202000000000000000000000101
0000000159ORLANDO BOTTON                                              00000000000000000000000000000000000000000000ESQUINA BUDEL                                     INDEPEDENCIA                  RS989150000000000000000000000000000000000101
0000000160MARIO DAL ROSS E IRENE ZDAL ROSS                            00000000000000000000000000000000000000000000ESQUINA MOTTA                                     INDEPENDENCIA                 RS989150000000000000000000000000000000000101
0000000161SENO BARTZ STROHSCHOEN  - PF                                00013934651020000000000000000000000000000000AV TRES DE MAIO                                   INDEPENDENCIA                 RS989150009963164700000000000000000000000101
0000000163GUIDO DECKMANN                                              90494451000115198000254900000000000000000000ESQUINA BUDEL                                     INDEPENDENCIA                 RS989150000000000000000000000000000000000102
0000000164RADIO COLONIAL LTDA                                         98036148000180147900014800000000000000000000RUA BRUNO DOCKKHORN18                             TRES DE MAIO                  RS989100003535102210720000000000000000000102
0000000165PETROBRAS DISTRIBUIDORA S/A                                 34274233000102000000000000000000000000000000RUA                                               PORTO ALEGRE                  RS904800000000000000000000000000000000000102
0000000166ORIDES ZIMERMANN DE OLIVEIRA - ME                           87687463000151000000000000000000000000000000AVTRES DE MAIO 1023                               INDEPENDENCIA                 RS989150005596154923000000000000000000000102
0000000167ABASE SISTEMAS E SOLUOES LTDA                               93088649000197147002547400000000000000000000AVSENALBERTO PASQUALINI 347                       TRES DE MAIO                  RS989100003535490000000000000000000000000102
0000000168COPYJUI-EQUIPAMENTOS E SISTEMAS REPROGRAFICOS LTDA          04526960000140650103173000000000000000000000RUA FLORIANO PEIXOTO372                           IJUI                          RS987000003332774100000000000000000000000102
0000000169PREVER SERVICOS DE CARDIOLOGIA E PSICOLOGIA                 02825165000128000000000000000000000000000000RUA SANTA ROSA326                                 SANTA ROSA                    RS989000000000000000000000000000000000000102
0000000170SERVIOS REGISTRAIS DE TRES DE MAIO                          00000000000000000000000000000000000000000000AV URUGUAI 561                                    TRES DE MAIO                  RS989100000000000000000000000000000000000101
0000000171ALBERY DA SILVA CORACINI                                    00019321082034000000000000000000000000000000OPERADOR DE MAQUINAS                              INDEPENDENCIA                 RS989150000000000000000000000000000000000101
0000000172ELISANGELA BITTENCOURT SOUZA ME                             02663695000117000000000000000000000000000000RUA ALDO RANGEL 261                               GRAVATA                       RS941100005149767590000000000000000000000102
0000000173COMERCIO DE EXTINTORES HORIZONTINA LTDA                     01013974000172620022191000000000000000000000RUA OSVALDO CRUZ 40                               HORIZONTINA                   RS989200005535373877000000000000000000000102
0000000174JOAO ALCINDO PAVELACKI                                      00035012706072000000000000000000000000000000SAO MIGUEL                                        INDEPENDENCIA                 RS989150000000000000000000000000000000000101
0000000176JOSE LALY SIQUEIRA DA SILVA                                 00027519988015000000000000000000000000000000OPERARIO                                          INDEPENDENCIA                 RS989150000000000000000000000000000000000101
0000000177FAMURS - FEDERACAO DAS ASSOC MUN DO RGS                     88733811000142000000000000000000000000000000RUA MARCLIO DIAS  574                             PORTO ALEGRE                  RS900029005132313833000000000000000000000102
0000000178THOME COMERCIO DE PNEUS LTDA LTDA                           87693255000165147000991600000000000000000000BR 472 - KM 31                                    TRES DE MAIO                  RS989100005535351580000000000000000000000102
0000000179ONRIO M DA ROCHATESTAMENTO ANA T VOLF GOMES                 00000000000000000000000000000000000000000000CANELA                                            INDEPENDENCIA                 RS989150000000000000000000000000000000000101
0000000180JOAO RAUL RODRIGUES - ONORIO MARTINS DA ROCHA               00000000000000000000000000000000000000000000RUA SANTO ANGELO                                  TRES DE MAIO                  RS989100000000000000000000000000000000000101
0000000181ALCINDO ROSANELLI HEINSCH                                   00009091564091000000000000000000000000000000RU COSTA E SILVA 593                              INDEPENDENCIA                 RS989150000000000000000000000000000000000101
0000000182NERY DE ARAJO E SILVA                                       00016279573087198102417100000000000000000000INDEPENDENCIA                                     INDEPENDENCIA                 RS989150005599681393200000000000000000000101
0000000183SERVIO DE REGISTRO DE IMVEIS                                00000000000000000000000000000000000000000000RUA ANTUNES RIBAS                                 SANTO ANGELO                  RS989150000000000000000000000000000000000101
0000000184HILDO RISTOF                                                89674816000104147001327100000000000000000000RUA SANTA MARIA477                                TRES DE MAIO                  RS989100005351249000000000000000000000000102
0000000186MARCOS JOCEMAR MELLER DOMENIGHI                             00065928903049000000000000000000000000000000TESOUREIRO                                        INDEPENDENCIA                 RS989150000000000000000000000000000000000101
0000000187COTRIMAIO - COOP AGROPECUARIA AULTDA                        98042120004577198000336700000000000000000000AV TRES DE MAIO 1101                              INDEPENDENCIA                 RS989150005553912110000000000000000000000102
0000000188FERRAMENTAS GERAIS COM IMPORTACAO LTDA                      92664028000141000000000000000000000000000000VOLUNTARIOS DA PATRIA 3223                        PORTO ALEGRE                  RS900100010000000000000000000000000000000102
0000000189ADAO SILVA DE LIMA                                          00019954522034000000000000000000000000000000RUA MANOEL DA NOBREGA                             INDEPENDENCIA                 RS989150009962262260000000000000000000000101
0000000190ENIO TARCISIO PAVLAK TIECHER-DIARIAS                        00051775255034000000000000000000000000000000CONSELHEIRO TUTELAR                               INDEPENDENCIA                 RS989150000000000000000000000000000000000101
0000000191VANESSA MOUSQUER DOS SANTOS                                 00000000000000000000000000000000000000000000CHEFE DE TURMA                                    INDEPENDENCIA                 RS989150000000000000000000000000000000000101
0000000192FUNDO ESTADUAL DE APOIO AO SETOR PRIMRIO - FEASP            00000000000000000000000000000000000000000000AV GETLIO VARGAS 1384                             PORTO ALEGRE                  RS900120000000000000000000000000000000000101
0000000193GRINKE COM DE EQUIP ELETRNICOS LTDA                         04860493000190000000000000000000000000000000RUA HENRIQUE KOPF133                              IJU                           RS987000005533338433000000000000000000000102
0000000194BAZAR GARRAFA LTDA                                          98036643000190147000075700000000000000000000TRAVESSA PEDRO GARRAFA 106                        TRES DE MAIO                  RS989100005553514800000000000000000000000102
0000000195UNIAO SUL BRESILEIRA DA IASD                                79080602001802850083709000000000000000000000RUA BENJAMIM CONSTANT790                          IJUI                          RS987000005533328900000000000000000000000102
0000000196NELCI ZIMERMANN PESSINA                                     91759506000134147002139800000000000000000000RUA SAO PAULO285                                  TRES DE MAIO                  RS989100005535352025000000000000000000000102
0000000197SADE MVEL - PRESTADORA DE SERVIOS LTDA                      02900236000100000000000000000000000000000000AV/RUA URUGUAI 1693                               HORIZONTINA                   RS989200000000000000000000000000000000000102
0000000198LABOR DE ANLISES CLNICAS ADOLPHO LUTZ S/C LTDA              89393953000251000000000000000222710000000000RUA FERNANDO FERRARI100                           SANTA ROSA                    RS989000005535125340000000000000000000000102
0000000199OLIMPIO NUNES CAVALHEIRO                                    89889760000105198000219000000000000000000000RUA SAO JOAO 1468                                 INDEPENDENCIA                 RS989150003539113600000000000000000000000102
0000000200MABOTOLLI   CIA LTDA                                        03156129000181110007254000000000000000000000AV EXPEDICIONRIO WEBER 2627                       SANTA ROSA                    RS989000003511778800000000000000000000000102
0000000201JAIRO ROBERTO GLIENKE                                       00000000000000000000000000000000000000000000RUA HORIZONTINA 770                               TRES DE MAIO                  RS989100000000000000000000000000000000000101
0000000202DARCI MULLER   CIA LTDA - COPYSERV                          00000000000000000000000000000000000000000000RUA FIORAVANTE PIVA 373                           CARAZINHO                     RS995000000000000000000000000000000000000101
0000000203LUIZ ZULMIR MIRANDA JUNIOR - ME                             04950842000165000000000000000000000000000000RUA ITA 398                                       XANXERE                       SC898200000000000000000000000000000000000102
0000000204VANDIR MIETH E CIA LTDA                                     89394332000101110002397300000000000000000000AVINHACORA 119                                    SANTA ROSA                    RS989000005122020000000000000000000000000102
0000000206ONORIO B ZART E/OU MARIA JANICE ZART                        00017468493049246100521900000000000000000000ESPIRITO SANTO                                    ALEGRIA                       RS989050000000000000000000000000000000000101
0000000207DISTRIBDEPRODUTOS D PETROLEO IPIRANGA/SA                    92689256000176000000000000000000000000000000AV DOLORES A CALDAS 090                           PORTO ALEGRE                  RS901500000000000000000000000000000000000102
0000000208NELI TEREZINHA VARGAS DE OLIVEIRA - ME                      92596725000102000000000000000000000000000000AV TRES DE MAIO 1005                              INDEPENDENCIA                 RS989150003539148700000000000000000000000102
0000000209LOJAS QUERO-QUERO S/A                                       96418264002425147002125900000000000000000000RUA PADRE CACIQUE 1100                            TRES DE MAIO                  RS989100003535975000000000000000000000000102
0000000210ANGELA STASIAKI ZAWASKI                                     00059783745034000000000000000000000000000000PROFESSORA - RUA PRESIDENTE GETULIO VARGAS        INDEPENDENCIA                 RS989150000000000000000000000000000000000101
0000000211AGILBERTO MAFASIOLLI                                        87689212000106110001837600000000000000000000RODOVIA RS 344 KM 41 - SN                         SANTA ROSA                    RS989000005122533000000000000000000000000102
0000000212SIRLEI FTIMA L KOWALSKI                                     00049907760030000000000000000000000000000000ESCOLA PRESIDENTE GETULIO VARGAS                  INDEPENDENCIA                 RS989150000000000000000000000000000000000101
0000000213FOLHA DE PGTO - SERVIDORES DIVERSOS                         87612826000190000000000000000000000000000000RUA SENADOR PINHEIRO 1348                         INDEPENDENCIA                 RS989150000000000000000000000000000000000102
0000000214ABONO FAMILIA - ORCAMENTARIO                                00000000000000000000000000000000000000000000                                                                                  997400000000000000000000000000000000000101
0000000215IVO MIGUEL Z PAVLAK- DIRIAS                                 00019955952091000000000000000000000000000000MOTORISTA                                         INDEPENDENCIA                 RS989150000000000000000000000000000000000101
0000000216SUELI SCHIMITZ                                              00000000000000000000000000000000000000000000TELEFONISTA                                       INDEPENDENCIA                 RS989150000000000000000000000000000000000101
0000000217EMATER - RS                                                 89161475000173000000000000000000000000000000PORTO ALEGRE                                      PORTO ALEGRE                  RS900501609991177920000000000000000000000102
0000000218SR - INDUSTRIA GRAFICA LTDA                                 94692555000195620019506000000000000000000000RUA DAHNE DE ABREU536                             HORIZONTINA                   RS989200003537146491540000000000000000000102
0000000219COMERCIO DE MEDICAMENTOS SANTI LTDA                         00715762000174000000000000000000000000000000AV URUGUAI 440 SALA A                             TRES DE MAIO                  RS989100005535351417000000000000000000000102
0000000220VIVIAN DARONCO CAUDURO   CIA LTDA                           03061096000196198000859800000000000000000000AV TRES DE MAIO 720                               INDEPENDENCIA                 RS989150003539119600000000000000000000000102
0000000221BANCO CAIXA ECONOMICA FEDERAL                               00360305052171000000000000000000000000000000TRES DE MAIO                                      TRES DE MAIO                  RS989100000000000000000000000000000000000102
0000000222ADILAR MELLER                                               00056028326020000000000000000000000000000000MOTORISTA E VEREADOR                              INDEPENDENCIA                 RS989150000000000000000000000000000000000101
0000000223CORSAN - COMP RIOGRANDENSE DE SANEAMENTO                    92802784000190198000000000000000000000000000AV TRES DE MAIO 646/0                             INDEPENDENCIA                 RS989150001451321558100000000000000000000102
0000000224CERTHIL -LUZ-  COOP DISTENERGIA ENTRE RIOS LTDA             98042963000152000000000000000000000000000000AVAVAI 960SICREDI AG 0306 C/30162-0               TRES DE MAIO                  RS989100005553515000000000000000000000000102
0000000225ALCIDES CORREA DA SILVA                                     00023327618020000000000000000000000000000000AV TRES DE MAIO                                   INDEPENDENCIA                 RS989150000000000000000000000000000000000101
0000000226JORGE TABORDA WITCZAK                                       00051775727068000000000000000000000000000000RUA SANTO ANGELO 421                              INDEPENDENCIA                 RS989150005599312234000000000000000000000101
0000000227ASSOCIAAO EDUCACIONAL LINHA BRASIL                          91589390000132840018622000000000000000000000RS 235 - KM 14 - LINHA BRASIL                     NOVA PETRPOLIS                RS951500005429880660000000000000000000000102
0000000228ELCI DE FATIMA SILVA MACHADO - DIARIAS                      00065164423049000000000000000000000000000000CONSELHEIRA TUTELAR                               INDEPENDENCIA                 RS989150000000000000000000000000000000000101
0000000229TORNEARIA KUBITZ LTDA                                       93880359000181000000000000000242160000000000AV TUPARENDI 646                                  SANTA ROSA                    RS989000003512240535112100000000000000000102
0000000230IRMAOS PRIEBE LTDA                                          00000000000000000000000000000000000000000000                                                                                  997400000000000000000000000000000000000101
0000000231CONTRIBUICAO AO PASEP- CODIGO 3703                          87612826000190000000000000000000000000000000                                                  IND                           RS989150000000000000000000000000000000000102
0000000232EMPRESA JORNALSTICA ALTO URUGUAI LTDA                       89674881000130000000000000000301002180000000RUA SAO PEDRO 17                                  HORIZONTINA                   RS989200005535371702000000000000000000000102
0000000233ATIVA ASSESSORIA E CONSULTORIA                              01390716000105000000000000000000000000000000RUA SANTA ROSA 1025                               HORIZONTINA                   RS989200000000000000000000000000000000000102
0000000234GERALDO BOHNENBERGER   CIA  LTDA                            87625695000185198000177100000000000000000000AV TRES DE MAIO 618                               INDEPENDENCIA                 RS989150009145180600000000000000000000000102
0000000235ORLANDO BORK SCHULTZ                                        00014469430030198101055300000000000000000000LAJEADO PESSEGUEIRO                               INDEPENDENCIA                 RS989150000000000000000000000000000000000101
0000000236ASSOCIAAO HOSPITALAR CARIDADE SANTA ROSA                    95815668000101110001430300000000000000000000RUA DR FRANCISCO TIMM656                          SANTA ROSA                    RS989000003512505000000000000000000000000102
0000000237LUCELIA FERRAZ BUENO RICHTER                                00000296894060000000000000000000000000000000AUXILIAR DE ESCRITURARIO                          INDEPENDENCIA                 RS989150000000000000000000000000000000000101
0000000238CENTRO INTEGRADO DE TERAPIAS NATURAIS                       04266592000149000000000000000000000000000000RUA DUQUE DE CAXIAS 478                           CAIBI                         SC898880000000000000000000000000000000000102
0000000239LINO EDUARDO THIELE - ME                                    02700042000160110007064500000000000000000000RUA FRANCISCO TIMM 114                            SANTA ROSA                    RS989000003512481100000000000000000000000102
0000000240JOSE DA SILVA RICHTER  - PF                                 00048575828053000000000000000000000000000000AV TRES DE MAIO 1190 AP 5                         INDEPENDENCIA                 RS989150005599607415100000000000000000000101
0000000241ZUK COMERCIAL DE ROLAMENTOS LTDA                            73355703000106110005597200000000000000000000RUA JOAO MACLUF252                                SANTA ROSA                    RS989000003512138800000000000000000000000102
0000000242MERCADO DE FERROS KIPPER LTDA                               91026831000198147001905900000000000000000000RUA CONSOLATA13                                   TRES DE MAIO                  RS989100005351445000000000000000000000000102
0000000243OSVALDO B ZIMMERMANN-ME                                     94117579000110198000398700000000000000000000RUA SANTA ROSA DE LIMA N 834                      INDEPENDENCIA                 RS989150005535391391000000000000000000000102
0000000245CHAFARIZ COMERCIAL DE FERRAGENS LTDA                        89675367000119110002470800000000000000000000AV BORGES DE MEDEIROS 616                         SANTA ROSA                    RS989000005551264330000000000000000000000102
0000000246ALESSANDRO KRAULICH   CIA LTDA                              01634935000192110007283400000000000000000000AV INHACOR 747                                    SANTA ROSA                    RS989000005535124820000000000000000000000102
0000000247FOLHA DE PAGTO - VEREADORES                                 12292535000162000000000000000000000000000000RUA SENADOR PINHEIR 1348                          INDEPENDENCIA                 RS989150000000000000000000000000000000000102
0000000248DENTAL NOSSA SENHORA APARECIDA                              05747347000116000000000000000000000000000000RUA GENERAL VITORINO131                           PORTO ALEGRE                  RS904080005132244600000000000000000000000102
0000000249FGTS - CONTRIBUICAO AO FGTS                                 00000000000000000000000000000000000000000000NENHUM                                            NENHUM                        RS989150000000000000000000000000000000000101
0000000250GRAMEIRA PROAMBI LTDA                                       95201257000118147002937200000000000000000000ESTRADA VICINAL S/NO VILA CONSOLATA               TRES DE MAIO                  RS989100005581149949000000000000000000000102
0000000251RUI T LEWISKI - NO UTILIZAR                                 95243762000125147002956900000000000000000000AV SANTA ROSA 442                                 TRES DE MAIO                  RS483200005535351293000000000000000000000102
0000000252LANZANOVA   CIA LTDA                                        98036031000105147000307100000000000000000000RMATO GROSSO 367                                  TRES DE MAIO                  RS989100003535112400000000000000000000000102
0000000253PREFEITURA MUNICIPAL DE GIRU                                00000000000000000000000000000000000000000000RUA INDEPENDENCIA 90                              GIRU                          RS988700005533611946000000000000000000000101
0000000254IRMAOS NOGARA - ZEFERINO NOGARA                             06149444000170000000000000000308100000000000ESQUINA ARAJO                                     INDEPENDENCIA                 RS989150000000000000000000000000000000000102
0000000255AVIPAL S/A -AVICULTURA E AGROPECURIA                        92776665009670110009379300000000000000000000AV TUPARENDI 1019                                 SANTA ROSA                    RS989000005535126500000000000000000000000102
0000000256JOSE VALMOR PIPPER                                          00033622450053000000000000000000000000000000MOTORISTA                                         INDEPENDENCIA                 RS989150000000000000000000000000000000000101
0000000257VERONI JANETE SIQUEIRA                                      00000000000000000000000000000000000000000000CONSELHEIRA TUTELAR                               INDEPENDENCIA                 RS989150000000000000000000000000000000000101
0000000258NERCI OLIVEIRA DE ALMEIDA                                   00046187316053000000000000000000000000000000ENCARREGADO DO ALMOXARIFADO DO SETOR DE OBRAS     INDEPENDENCIA                 RS989150000000000000000000000000000000000101
0000000259CORAG- COMP RIOGRDE ARTES GRAFICAS                          87161501000138960511008000000000000000000000R CORONEL APARICIO BORGES NO 2199                 PORTO ALEGRE                  RS906800005132889756000000000000000000000102
0000000260RUDY JOAO MASSUDA CORNELIUS   CIA LTDA                      89674253000154198000155000000000000000000000AVENIDA TRES DE MAIO50                            INDEPENDENCIA                 RS989150000000000000000000000000000000000102
0000000261JOCEMARI ANGELA BORGES                                      00000000000000000000000000000000000000000000PRIMEIRA DAMA                                     INDEPENDENCIA                 RS989150000000000000000000000000000000000101
0000000262IVETE ESTRAPASSON                                           00000000000000000000000000000000000000000000ENFERMEIRA PSF                                    INDEPENDENCIA                 RS989150000000000000000000000000000000000101
0000000263ALBANO FRANCISCO DA SILVEIRA                                00000640271049000000000000000000000000000000EX-ASSESSOR JURIDICO                              INDEPENDENCIA                 RS855000000000000000000000000000000000000101
0000000264DPM BORBA PAUSE   PERIN - ADVOGADOS - OAB RS 7512           92885888000105000000000000000474223000000000AV PERNAMBUCO 1001                                PORTO ALEGRE                  RS902400051451302734000000000000000000000102
0000000266JORNAL SEMANAL LTDA                                         92152651000115147000000100000000000000000000RUA SANTO ANGELO N 413 SALA 4                     TRES DE MAIO                  RS989100005535351030000000000000000000000102
0000000267SAVICZKI   KEHRWALD LTDA                                    00000000000000000000000000000000000000000000RUA CHAFARIZ643                                   HORIZONTINA                   RS989200000000000000000000000000000000000101
0000000268CHICO PECAS COME REPSLTDA                                   00000000000000000000000000000000000000000000SANTA                                             SANTA ROSA                    RS980000000000000000000000000000000000000101
0000000270ASCAM - RS - ASSOC SERVIDORES DE CMARAS DO RS               97262950000126000000000000000000000000000000AV LOUREIRO DA SILVA 255                          PORTO ALEGRE                  RS989150000000000000000000000000000000000102
0000000273TS INDUSTRIA E COMERCIO DE COMPUTADORES LTDA                92154962000113000000000000000000000000000000RUA ALMIRANTE CABRAL 63                           SANTA ROSA                    RS989000003512566000000000000000000000000102
0000000274JOSE LUIS AREND DA SILVA-EPP                                91529974000112147002068500000000000000000000RSAO ROQUE 62                                     TRES DE MAIO                  RS989100000000000000000000000000000000000102
0000000275VERA RR TESCHE-ME                                           91080499000140000000000000000000000000000000RUA SANTO ANGELO 455/201                          TRES DE MAIO                  RS989100005351417000000000000000000000000102
0000000276COLBACKES COMERCIO DE COLCHOES LTDA                         01587751000119147003358200000000000000000000RUA PE CACIQUE 845 SALA 02                        TRES DE MAIO                  RS989100003535148200000000000000000000000102
0000000279ARCELIO ALBERTO PREISSLER                                   00096440384015000000000000000000000000000000CHEFE DO SETOR DE PARQUES E JARDINS               INDEPENDENCIA                 RS989150000000000000000000000000000000000101
0000000280BRONSTRUP   LIMA LTDA - GRFICA TUCUNDUVA                    94102365000170150000784300000000000000000000RUA IRA 347                                       TUCUNDUVA                     RS989300003542132200000000000000000000000102
0000000281DAL FORNO - PRESTADORA DE SERVICOS LTDA                     02516967000156000000000000000000000000000000RUA GETULIO VARGAS231DIRCEU DE OLIVEIRA REIS      INDEPENDENCIA                 RS989150003539146100000000000000000000000102
0000000282VALDELIRIO SANTOS ROSA                                      00044160771068000000000000000000000000000000CARPINTEIRO                                       INDEPENDENCIA                 RS989150000000000000000000000000000000000101
0000000283FECOPEL-SUPR PARA INFORMATICA E ESCTLTDA                    87793063000635000000000000000000000000000000R CRISTOVAO COLOMBO 206                           SANTA ROSA                    RS989000003512661100000000000000000000000102
0000000284ELDO RAFAEL FISCHER                                         87692422000153147001037000000000000000000000R SANTA CLARA 208                                 TRES DE MAIO                  RS989100005553517530000000000000000000000102
0000000285PLANTERRA PAVIMENTACOES LTDA                                89077887000120110002801000000000000000000000EST RS 344 4001 KM 41                             SANTA ROSA                    RS989000005535126644000000000000000000000102
0000000286JOSE DAVID ZIMMERMANN DE OLIVEIRA                           00019441193020000000000000000000000000000000INDEPENDNCIA                                      INDEPENDENCIA                 RS989150000000000000000000000000000000000101
0000000287INSTIRMISSDE NS CONSOLADORA COLGIO CRISTO R                 00000000000000000000000000000000000000000000RUA ARNOLDO SCHENEIDER 1095                       HORIZONTINA                   RS989200003537101400000000000000000000000101
0000000288LURDEMAR PERIPOLLI THOMAZI                                  06202502000182000000000000000000000000000000RUA JOSINO FARIAS                                 INDEPENDENCIA                 RS989150000000000000000000000000000000000102
0000000289MILTON DE OLIVEIRA FREITAS                                  00025320866020000000000000000000000000000000MOTORISTA                                         INDEPENDENCIA                 RS989150000000000000000000000000000000000101
0000000290SIMIONATO   CIA LTDA                                        68781558000195147002898800000000000000000000RUA HORIZONTINA 1048 - SALA 01                    TRES DE MAIO                  RS989100003535142600000000000000000000000102
0000000291TONI V MANHABOSCO                                           94497914000153147003430900000000000000000000RUA SAO PAULO 113                                 TRES DE MAIO                  RS989100003535899800000000000000000000000102
0000000292ALICE DELSA F FOLETTO-EPP                                   94615127000169198000421500000000000000000000AV TRES DE MAIO 1125                              INDEPENDENCIA                 RS989150005391110000000000000000000000000102
0000000293SINOGAR LTDA                                                91497727000181000000000000000000000000000000AVSANTA ROSA 310                                  TRES DE MAIO                  RS989100003535206500000000000000000000000102
0000000294ARNOLDO SONEBORN BONMANN                                    00006347223000000000000000000000000000000000ESQUINA ARAJO                                     INDEPENDENCIA                 RS989150000000000000000000000000000000000101
0000000296ANDRE POZZEBON                                              00077279085091000000000000000000000000000000PROFESSOR MUNICIPAL                               INDEPENDENCIA                 RS989150000000000000000000000000000000000101
0000000297ADAO ANTUNES DE OLIVEIRA                                    00000000000000000000000000000000000000000000                                                                                  997400000000000000000000000000000000000101
0000000300COSTA PNEUS LTDA                                            93774966000167147002605500000000000000000000RUA IVAGACI 917                                   TRES DE MAIO                  RS989100003535200800000000000000000000000102
0000000301CLARICE MARIA SCHWAN-ME                                     97108245000179147003010900000000000000000000RUA SAO ROQUE 92                                  TRES DE MAIO                  RS989100003535187200000000000000000000000102
0000000302TEREZA LUNDIM DOS REIS - DIRIAS                             00038805502049000000000000000000000000000000PROFESSORA MUNICIPAL                              INDEPENDENCIA                 RS989150000000000000000000000000000000000101
0000000303EDMILSO AMAURI WITKOSKI                                     06050855000103390124664000000000000000000000AV FARRAPOS 374 - AP01                            ERECHIM                       RS997000005499626837000000000000000000000102
0000000304ADEMIR ZUSE- SZ AUTO PEAS                                   02946109000141000000000000000000000000000000AV SANTA ROSA  1170                               TRES DE MAIO                  RS989100000000000000000000000000000000000102
0000000305CEBRAP                                                      04933992000160000000000000000000000000000000RUA GENERAL CMARA  432 SALAS 604 E 904 - CENTRO   PORTO ALEGRE VER CEP POR LOGRARS900000000000000000000000000000000000000102
0000000307VULCANIZADORA HLIO - OTT E OTT LTDA                         00000000000000000000000000000000000000000000RS 342 KM 01                                      TRES DE MAIO                  RS989100000000000000000000000000000000000101
0000000308VILMAR ANTONIO OKASZESKI-MEI - INSS 11622713480             12849681000146000000000000000279600000000000RUA COSTA E SILVA  NO 546                         INDEPENDENCIA                 RS989150009634082000000000000000000000000102
0000000309ESTAAO RODOVIRIA SAO LEOPOLDO                               96740121000149000000000000000000000000000000AV DOM JOAO BECKER  S/N                           SAO LEOPOLDO VER CEP POR LOGRARS930000000000000000000000000000000000000102
0000000310OURO E PRATA  S/A                                           00000000000000000000000000000000000000000000SANTA ROSA                                        SANTA ROSA                    RS989150005134998000000000000000000000000101
0000000311COPERMAC-COMERCIO E REPRESENTACOES LTDA                     91330589000141110005362700000000000000000000AV BURIC 447                                      SANTA ROSA                    RS989000005125655000000000000000000000000102
0000000312RETIFICADORA UNIAO LTDA                                     95820262000109110000060400000000000000000000RUA GALBORGES FORTES950                           SANTA ROSA                    RS989000003512567700000000000000000000000102
0000000313JOAO EDCIO GRAEF                                            00018995519053000000000000000000000000000000RUA SAO JOAO                                      INDEPENDENCIA                 RS989150000000000000000000000000000000000101
0000000315ADRIANA NASCIMENTO DO AMARAL                                00070899126049000000000000000000000000000000INDEPENDENCIA                                     INDEPENDENCIA                 RS989150000000000000000000000000000000000101
0000000316MARGITT LILI HERING GRENZEL-AGROP CASA DO COLONO            06122633000159000000000000000000000000000000RUA ANSIO ARAJO E SILVA NO 46                     INDEPENDENCIA                 RS989150009944316700000000000000000000000102
0000000317HOSPIDATA LTDA                                              89171417000120000000000000000000000000000000RUA FARIA SANTOS NO 47  CONJUNTO 505              PORTO ALEGRE CEP 90670-150    RS900000005133303499000000000000000000000102
0000000318GILNEI INFORMTICA   CIA LTDA - ME                           03346101000107000000000000000000000000000000RUA DO COMRCIO 1653 SALA 01                       IJUI                          RS987000008124747500000000000000000000000102
0000000319BOMBAS INJETORAS TRESMAIENSE LTDA                           92571652000102147002224600000000000000000000RUA HORIZONTINA1135                               TRES DE MAIO                  RS989100005535391320960000000000000000000102
0000000321ADALBERTO MARTINI                                           00095803629049000000000000000000000000000000MOTORISTA - RUA SANTO ANGELO                      INDEPENDENCIA                 RS989150005535391300000000000000000000000101
0000000322ESCRITORIO LINHARES                                         93671071000105000000000000000000000000000000RUA SANTO ANGELO 1177                             INDEPENDENCIA                 RS989150005391250000000000000000000000000102
0000000323GERMANO BERG                                                00000000000000000000000000000000000000000000AV SENADOR ALBERTO PASQUALINI 378                 TRES DE MAIO                  RS989100000000000000000000000000000000000101
0000000325LOJAS COLOMBO S/A                                           89848543007856147001511800000000000000000000AV URUGUAI 636                                    TRES DE MAIO                  RS989100005535351585000000000000000000000102
0000000326FACCINI   CIA LTDA                                          87058673000180000000000000000000000000000000RODOVIA BR 158 S/NO KM 200                        CRUZ ALTA  CEP 98045-030      RS980000005533227646000000000000000000000102
0000000327BOGO ENCADERNACOES LTDA                                     88968102000146142113440600000000000000000000AV URUGUAI  55                                    TRES DE MAIO                  RS989100003535151700000000000000000000000102
0000000328TCHETURBO PROVEDOR DE INTERNET LTDA                         06089278000163000000000000000000000000000000RUA PRESIDENTE KENNEDY 909  SALA 402              FREDERICO WESTPHALEN          RS984000000000000000000000000000000000000102
0000000329FUNDIAO SANTA ROSA LTDA - FUNDISA                           95816955000128000000000000000000000000000000AV TUPARENDI 588                                  SANTA ROSA                    RS989000003512684000000000000000000000000102
0000000330RAQUEL FELTRACO - PF  OFICIO DE REGISTROS PBLICOS           00046048685068000000000000000000000000000000AV TRES DE MAIO                                   INDEPENDENCIA                 RS989150000000000000000000000000000000000101
0000000331ELERI WOMMER LTDA                                           05519803000170000000000000000000000000000000RUA SARANDI 643                                   PALMEIRA DAS MISSOES          RS983000005537421396000000000000000000000102
0000000332ADEMAR BNEMANN                                              00059838043087000000000000000000000000000000RUA SENADOR PINHEIRO ESQ C/ RUA MONTE CASTELO     INDEPENDENCIA                 RS989150000000000000000000000000000000000101
0000000333HEINSCH   KEIST LTDA                                        04763127000113000000000000000000000000000000RUA ANSIO ARAJO E SILVA 046                       INDEPENDENCIA                 RS989150000000000000000000000000000000000102
0000000334RTM RESIDUOS ESPECIAIS LTDA                                 04523298000175000000000000000109027463400000AV BORGES DE MEDEIROS N 1699                      SANTA MARIA                   RS970150905530263667000000000000000000000102
0000000335FR COMERCIO DE MOVEIS E DECORAES LTDA                       06049342000182000000000000000000000000000000RUA SANTO ANGELO 413 SALA02                       TRES DE MAIO                  RS989100005535353505000000000000000000000102
0000000337CARLOS ERNANI BOMM-ME                                       04553782000147000000000000000000000000000000RUA DR MARURI 1133                                CONCORDIA                     SC897000000000000000000000000000000000000102
0000000339FUNDEFLOR-SECAGRICE ABASTERS                                00000000000000000000000000000000000000000000                                                                                  997400000000000000000000000000000000000101
0000000340JOAILSON ROBERTO REDEL                                      00040963551000000000000000000000000000000000ESQUINA BUDEL NO 328                              INDEPENDENCIA                 RS989150009916665500000000000000000000000101
0000000341PAULO SERGIO ZOTTES                                         00025330683068000000000000000000000000000000RUA PLANALTO 666                                  SANTA ROSA                    RS989000000000000000000000000000000000000101
0000000342ABRASCAM - ASSOCIAAO BRAS DE CM MUNIC                       95583613000105000000000000000000000000000000AV LOUREIRO DA SILVA 255                          PORTO ALEGRE VER CEP POR LOGRARS904080005132204395000000000000000000000102
0000000343LUAR COMERCIAL ELETRICA E HIDRAULICA LTDA                   94211232000132110004891700000000000000000000AV TUPARENDI 465                                  SANTA ROSA                    RS989000005535125464000000000000000000000102
0000000345ANAMIR DE FATIMA GARCIA                                     00065928679068000000000000000000000000000000RUA JOSINO FARIAS                                 INDEPENDENCIA                 RS989150000000000000000000000000000000000101
0000000346CLEBER JAIR MORAES                                          06016294000207198000868700000000000000000000RUA SAO MIGUEL 952  SALA 02                       INDEPENDENCIA                 RS989150000000000000000000000000000000000102
0000000347FLVIA BORGES BOMFIM DE LIMA                                 00001180015070000000000000000000000000000000RUA JOSINO FARIAS                                 INDEPENDENCIA                 RS989150000000000000000000000000000000000101
0000000348FASOLETO-COMERCIAL DE PECAS LTDA                            90452756000164147001802800000000000000000000AV URUGUAI 160                                    TRES DE MAIO                  RS989100005553514440000000000000000000000102
0000000349ADPP-ASSESSORIA DE DESENVOLV PESSOAL E PROFISSION           05787179000192000000000000000000000000000000AV CARLOS CORREA BORGES 1424                      MARINGA 87060-000             PR870000004425935875500000000000000000000102
0000000351MRCIO EL ALMMAR MLLER                                       00047145323087000000000000000000000000000000RUA 14 DE JULHO NO 149 SALA 406                   IJUI                          RS987000005533334400000000000000000000000101
0000000352RENATO EL AMMAR- SERVIOS MDICOS - NO UTILIZAR               02709253000164000000000000000000000000000000RUA 14 DE JULHO  NO  149                          IJUI                          RS987000005533277779360000000000000000000102
0000000353HONORINA BELARMINO WODNOW  -  GASES   GASES                 07111880000112110009613000000000000000000000RUATUITI 2136 - VILA BEATRIZCP 222                SANTA ROSA                    RS989000003511119916430000000000000000000102
0000000354COMERCIO DE INSUMOS AGRICOLAS LTDA - AGRO CONESUL           03918564000104198000593900000000000000000000AV TRES DE MAIO 729                               INDEPENDENCIA                 RS989150005535391254000000000000000000000102
0000000355TECNOTORK - RECUPERADORA DE MQUINAS LTDA                    01856549000145000000000000000000000000000000RUA BORGES DE MEDEIROS1253                        SANTA ROSA                    RS989000005535124623000000000000000000000102
0000000358JOSE ALMIRO DE BARROS-DIRIAS                                00026239760072000000000000000000000000000000RUA SAO JOAO                                      INDEPENDENCIA                 RS989150000000000000000000000000000000000101
0000000359SENAT- IJUI SERVIO NACIONAL APREND DO TRANSPOR              73471963012900000000000000000000000000000000ENTROC DA RS 342 C/RS 522 POSTO 44 S/N            IJUI                          RS987000000000000000000000000000000000000102
0000000360MARIA DO CARMO TOMASI- DOCAR ACESSORIOS                     06965025000106147004283200000000000000000000AV SANTA ROSA 311                                 TRES DE MAIO                  RS989100005535351997000000000000000000000102
0000000361AUTO PEAS FISCHER LTDA-PROC ELIANE T Z FISCHER              92044973000140147002165700000000000000000000AV PLANALTO 1254                                  TRES DE MAIO                  RS989100005553515350000000000000000000000102
0000000363VISUAL JET - SUPRIMENTOS PARA INFORMATICA                   00752188000160110009619900000000000000000000RUA CAXIAS 224                                    SANTA ROSA                    RS989000005535122719000000000000000000000102
0000000364TNIA PORSCH- ENFERMEIRA                                     00049470043049000000000000000000000000000000ENFEIMEIRA                                        TRES DE MAIO                  RS483200000000000000000000000000000000000101
0000000365KUBITZ COMRCIO DE PEAS LTDA                                 05761043000103000000000000000000000000000000AV TUPARENDI  646                                 SANTA ROSA                    RS989000005535122424000000000000000000000102
0000000366OSMAR E ARNEMANN   FILHO LTDA                               09201075000162000000000000000000000000000000RUA SANTA CLARA 15                                TRES DE MAIO                  RS989100000000000000000000000000000000000102
0000000367MECNICA ROSSO LTDA                                          93923191000144000000000000000000000000000000RUA SENADOR PINHEIRO 533                          TRES DE MAIO                  RS989100005535351878000000000000000000000102
0000000368ADELIO JOS DUPONT                                           05045644000110198000842300000000000000000000AV IGNACIO PINTO 118                              INDEPENDENCIA                 RS989150005599613281000000000000000000000102
0000000369VISAO CLINICA E CIRURGIA DE OLHOS S/C LTDA                  00652163000159000000000000000000000000000000R CORONEL BORDINI NO 414                          PORTO ALEGRE CEP90440-002     RS900000005133370505000000000000000000000102
0000000371OAB - SUBSEAO DE TRES DE MAIO                               89019584008100000000000000000000000000000000AV URUGUAI                                        TRES DE MAIO                  RS989100000000000000000000000000000000000102
0000000372MARCO FABIANO SCHEREN- MDICO                                00072522364049000000000000000000000000000000INDEPENDENCIA                                     INDEPENDENCIA                 RS989150000000000000000000000000000000000101
0000000373ARNALDO LOIR BOZZ                                           00036144878068000000000000000000000000000000RUA SOROCABA                                      INDEPENDENCIA                 RS989150000000000000000000000000000000000101
0000000374TNIA MOUSQUER BERNARDI                                      00095324194034000000000000000000000000000000RUA SANTO ANGELO                                  INDEPENDENCIA                 RS989150000000000000000000000000000000000101
0000000375MARINA ANDREIA TRAESEL                                      00097334723015000000000000000000000000000000INDEPENDENCIA                                     INDEPENDENCIA                 RS989150000000000000000000000000000000000101
0000000376GILBERTO FELDEN                                             00064548449000000000000000000000000000000000INDEPENDENCIA                                     INDEPENDENCIA                 RS989150000000000000000000000000000000000101
0000000378VILSON EDUARDO BOLZAN                                       88505540000178000000000000000000000000000000AV URUGUAI 538                                    TRES DE MAIO                  RS989100005535351552000000000000000000000102
0000000379BIOTECNO INDUSTRIA E COMERCIO LTDA                          04470103000176000000000000000000000000000000RUA PALMEIRA 99                                   SANTA ROSA / CENTRO           RS987807565535130686000000000000000000000102
0000000380ROSANE MARISTELA FAURO SCHERER                              00037306790072000000000000000000000000000000RUA IPIRANGA NO 430                               INDEPENDENCIA                 RS989150000000000000000000000000000000000101
0000000381EXTINSOLDA MAQUINAS E FERRAMENTAS LTDA                      90150376000175110003085600000000000000000000RGUAPOR N 1371                                    SANTA ROSA                    RS989000005126577000000000000000000000000102
0000000383KARINA DE MATTOS KEMPF                                      00001196768005000000000000000000000000000000RUA SAO JOAO                                      INDEPENDENCIA                 RS989150000000000000000000000000000000000101
0000000384SAR - SERVIO DE ANESTEOLOGIA E RECUPERAAO                   89880959000172000000000000000000000000000000PASSO FUNDO                                       PASSO FUNDO CEP 99070-000     RS990000005431161396430000000000000000000102
0000000386ESAPP - ESCOLA DE APOIO TEC AS ADM PBLICAS E PARL           05003600000127000000000000000000000000000000PORTO ALEGRE                                      PORTO ALEGRE VER CEP POR LOGRARS900000005132117215000000000000000000000102
0000000387OLEMAR JOS CAYE-CLARICE MACHADO CAYE                        02163660000119246000200300000000000000000000ESQUINA ROLIM                                     ALEGRIA                       RS989050005599981078000000000000000000000102
0000000388NERI BORGES DAS CHAGAS                                      00038799707004000000000000000000000000000000INDEPENDENCIA                                     INDEPENDENCIA                 RS989150000000000000000000000000000000000101
0000000389LARA MELISSA WEBER DE FREITAS                               00092494005000000000000000000000000000000000RUA SANTO ANGELO 293                              INDEPENDENCIA                 RS989150009999587440000000000000000000000101
0000000390SANDRA DE SOUZA KACIAVA - ASSISTENTE SOCIAL                 00090105940097000000000000000000000000000000AV TRES DE MAIO                                   INDEPENDENCIA                 RS989150000000000000000000000000000000000101
0000000391JOSE ROSARIO DOS SANTOS OU ADELINA RDO                      00000000000000000000000000000000000000000000RINCAO FARIAS                                     INDEPENDENCIA                 RS989150000000000000000000000000000000000101
0000000392VANDERLEI STECHMANN DA SILVA                                00540648000150198000498300000000000000000000AV TRES DE MAIO 811                               INDEPENDENCIA                 RS989150000000000000000000000000000000000102
0000000393JOS T FACCHIN DA COSTA                                      05773223000105000000000000000000000000000000RUA FERNANDO FERRARI 315 - APTO 08                SANTA ROSA                    RS989000005535125222000000000000000000000102
0000000394CARLOS ALBERTO DE MORAIS                                    00017901596015000000000000000000000000000000AV TRES DE MAIO                                   INDEPENDENCIA                 RS989150000000000000000000000000000000000101
0000000395CONSTRUMAIO MATERIAIS DE CONSTRUAO LTDA                     02537811000151147003492900000000000000000000RUA PADRE CACIQUE 1335                            TRES DE MAIO                  RS989100005535358136000000000000000000000102
0000000396RICOHPEL - SOLUES CORPORATIVAS LTDA                         07818169000100000000000000000000000000000000RUA SANTA ROA N 282                               HORIZONTINA                   RS989200005535371582000000000000000000000102
0000000397IRINEO ISIDORO CLASSMANN - CLASSMANN JIAS                   94274073000115147002704300000000000000000000RUA SANTO NGELO N 475 SALA 05                     TRES DE MAIO                  RS989100005535352344000000000000000000000102
0000000398METOR METALURGICA E TORNEARIA LTDA                          05159147000142000000000000000000000000000000RUA SAO ROMUALDO 249                              TRES DE MAIO                  RS989100005535353137000000000000000000000102
0000000399MIRNA MEURER SCHRAIBER                                      00031315712091000000000000000000000000000000RUA PRESIDENTE GETLIO VARGAS                      INDEPENDENCIA                 RS989150000000000000000000000000000000000101
0000000400MRCIO L CAMPANARO                                           03181860000167000000000000000000000000000000AV INHACOR 735                                    SANTA ROSA                    RS989000005535125155000000000000000000000102
0000000401MIQUELLA MOREIRA DA CRUZ                                    00001413698093000000000000000000000000000000RUA SANTA ROSA DE LIMA                            INDEPENDENCIA                 RS989150000000000000000000000000000000000101
0000000402DORNELES   MASLONEK LTDA                                    07182854000185405880000000000000000000000000RUA CARLOS HEINZE 357                             SANTA ROSA                    RS989000005535125753000000000000000000000102
0000000403OLIVA SALETE TIECHER MELLER                                 07222704000158000000000000000000000000000000RUA CRISTOVAO COLOMBO 65 SALA 1                   INDEPENDENCIA                 RS989150005535391104000000000000000000000102
0000000404VDR - TRANSPORTES                                           04209527000181000000000000000000000000000000SANTA ROSA                                        SANTA ROSA                    RS989000000000000000000000000000000000000102
0000000405BANCO DO BRASIL   - CAMINHO DA ESCOLA                       00000000337668000000000000000000000000000000AV TRES DE MAIO                                   INDEPENDENCIA                 RS989150000000000000000000000000000000000102
0000000408SERVISUL - SERVICOS EQUIP ESCRITORIO L                      74169434000156110005695200000000000000000000R BUENOS AIRES 534                                SANTA ROSA                    RS989000005124685000000000000000000000000102
0000000410NATALINO FACCIN                                             94968120000120198000433900000000000000000000RUA SAO MIGUEL  716                               INDEPENDENCIA                 RS989150003539111300000000000000000000000102
0000000412YEZZO DO BRASIL COMPONENTES AUTOMOTIVOS LTDA                03016677000106000000000000000000000000000000ESTRADA DO EMB N 1241 MOINHO VELHO                COTIA                         SP670000001146133688000000000000000000000102
0000000413SONIA CRISTINA TAVARES SOUTO                                00043883362034000000000000000000000000000000ENFERMEIRA                                        INDEPENDENCIA                 RS989150000000000000000000000000000000000101
0000000415ASSRIOGRANDTECEM ADMINISTRACAO FAZ MU                       87671822000182000000000000000000000000000000RUA 20 DE SETEMBRO 2100 APTO 701 - CENTRO         CAXIAS DO SUL                 RS950200005499727697000000000000000000000102
0000000417CLINICA NEUROIJUI LTDA                                      04449366000113741073000000000000000000000000RUA DR PESTANA 67 SALA 13                         IJUI                          RS987000005533327544000000000000000000000102
0000000418SUL SERRA S/A   - TRANSPORTES E TURISMO                     98106339000171000000000000000000000000000000RUA TENENTE PORTELA 33                            TRES PASSOS                   RS986000000000000000000000000000000000000102
0000000422CS RAUBER   CIA LTDA - ZUK PARAFUSOS                        04807758000197000000000000000392634000000000RUA JOAO MACLUF 276                               SANTA ROSA                    RS989000003512797900000000000000000000000102
0000000425RUBENS LUIZ SAUER                                           00000000000000000000000000000000000000000000TRES DE MAIO                                      TRES DE MAIO                  RS989100000000000000000000000000000000000101
0000000426DIRCEU SOARES CABRAL - DIARIAS                              00005556910049000000000000000000000000000000VEREADOR                                          INDEPENDENCIA                 RS989150000000000000000000000000000000000101
0000000427CARMELITA SEGUER SAUER                                      00000000000000000000000000000000000000000000TRES DE MAIO                                      TRES DE MAIO                  RS989100000000000000000000000000000000000101
0000000428JANETE FATIMA BORGES MACHADO                                00000000000000000000000000000000000000000000SECRETRIA DA SADE                                 INDEPENDENCIA                 RS989150000000000000000000000000000000000101
0000000429NOEMI ELIZABETE MALDANER MARTINI ME                         93673598000160173000476500000000000000000000RUA GETULIO VARGAS 157                            BOA VISTA DO BURICA           RS989180003538149800000000000000000000000102
0000000430JEFERSON J M BECCON - ME                                    94747888000174110008968000000246670000000000AV EXPEDICIONRIO WEBER 225                        SANTA ROSA                    RS989000005535126614400000000000000000000102
0000000431JORGE ANTONIO OLIVEIRA DUARTE                               01309018000132280010214000000000000000000000AV RIO BRANCO 337                                 CATUIPE                       RS987700003336108800000000000000000000000102
0000000432PLINIO BASTOS KASPRCZAK                                     00040719430097000000000000000121036407000000TRAVESSA NATAL 555                                TRES DE MAIO                  RS989100005599432896000000000000000000000101
0000000433VALDIR BOLES HEINSCH - INSS N 1706770324-5                  00013230581091000000000000000000000000000000RUA SANTA ROSA DE LIMA NO 709                     INDEPENDENCIA                 RS989150000000000000000000000000000000000101
0000000434MUNICIPIO DE INDEPENDENCIA PREFEITURA MUNICIPAL             87612826000190000000000000000000000000000000RUA SENADOR PINHEIRO 1348                         INDEPENDENCIA                 RS989150003539420000000000000000000000000102
0000000435Z PNEUS COMRCIO DE PNEUS LTDA                               05788055000121173001096000000000000000000000RUA SAO JOS 134                                   BOA VISTA DO BURICA           RS989180005535382040000000000000000000000102
0000000439JOAO ANDREJESKI MOREIRA                                     00034686991072000000000000000000000000000000ESQUINA BUDEL S/N                                 INDEPENDENCIA                 RS989150000000000000000000000000000000000101
0000000440GERSON ANDRIGHETTI   CIA LTDA                               00113633000106000000000000000000000000000000RUA SEQUICENTENRIO N 268                          TUPARENDI                     RS989400000000000000000000000000000000000102
0000000441GHIGGI MAQUINAS RODOVIRIAS LTDA                             02748296000159000000000000000712738000000000RUA CRUZ ALTA 126                                 IJUI                          RS987000003332989582860000000000000000000102
0000000442SINDICATO DOS TRABALHADORES RURAIS DE INDEPEND              87687455000105000000000000000000000000000000RUA PRESIDENTE GETULIO VARGAS 358                 INDEPENDENCIA                 RS989150003539118200000000000000000000000102
0000000443FILTROBOM COMRCIO DE AUTOPEAS LTDA                          88761499000109440016347000000000000000000000BR KM 351 N 2816                                  ESTRELA                       RS958800005137122544200000000000000000000102
0000000446ASSOCIAO DO CORPO DE BOMBEIROS VOLUNTARIOS TM               02074368000120000000000000000000000000000000RUA MINAS GERAIS                                  TRES DE MAIO                  RS989100000000000000000000000000000000000102
0000000447MARIA INES MARTINI - DIARIAS                                00035522577053000000000000000000000000000000CHEFE DO SETOR DE SAUDE PREVENTIVA                INDEPENDENCIA                 RS989150000000000000000000000000000000000101
0000000448EVARISTO I C FURIAN                                         04045417000121000000000000000000000000000000AV SANTA ROSA  985                                TRES DE MAIO                  RS989100005535351160000000000000000000000102
0000000449CHIM   CARVALHO INFORMTICA LTDA                             05158866000149140041119000000000000000000000AV SENADOR ALBERTO PASQUALINE 245                 TRES DE MAIO                  RS989100003535284600000000000000000000000102
0000000450NERCI JOS MUCHA                                             00041098080068000000000000000000000000000000SECRETARIO DA FAZENDA  - RUA SAO MIGUEL 141       INDEPENDENCIA                 RS989150005599952095500000000000000000000101
0000000451COFRON MENSALIDADE                                          94188208000120000000000000000000000000000000RUA BUENOS AIRES 25                               SANTA ROSA                    RS989000005535125774000000000000000000000102
0000000452CARLA MACHADO                                               00000979305047000000000000000000000000000000BAIRO CIDADE ALTA                                 INDEPENDENCIA                 RS989150000000000000000000000000000000000101
0000000453MAIRA MATIAS                                                00000344943089000000000000000000000000000000INEPENDENCIA                                      INDEPENDENCIA                 RS989150000000000000000000000000000000000101
0000000454FUNDACAO HOSPITALAR CRISTO REI                              92466994000154000000000000000000000000000000R SAO MIGUEL 231                                  INDEPENDENCIA                 RS989150005553911180000000000000000000000102
0000000455HENRIQUE LUIZ GRESELE SZARESKI                              00035807369068000000000000000000000000000000SAO VALENTIM                                      INDEPENDENCIA                 RS989150000000000000000000000000000000000101
0000000456ALEAN-TUR EMPRESA E TURISMO LTDA                            02471966000132198000552100000000000000000000AV TRES DE MAIO 1190                              INDEPENDENCIA                 RS989150005535391127000000000000000000000102
0000000461HERMES E MARASQUIM LTDA -FILIAL                             94762432000264198000482700000000000000000000AVTRES DE MAIO1190                                INDEPENDENCIA                 RS989150003539110891220000000000000000000102
0000000467INDUSTRIA DE ACUMULADORES BURICA LTDA                       92237700000112147002285800000000000000000000RUA FREDERICO WILLIG 220                          TRES DE MAIO                  RS989100005351511000000000000000000000000102
0000000469JM DA SILVA - HOSPITAL SANTO ANTONIO                        87693388000131147001007800000000000000000000RUA OSVALDO CRUZ911                               TRES DE MAIO                  RS989100005351311183800000000000000000000102
0000000475DIOMAR AUZANI                                               00024720755020000000000000000000000000000000VEREADOR                                          INDEPENDENCIA                 RS989150000000000000000000000000000000000101
0000000480CENTROSUL-COMIMPORTACAO E EXPORTACAO LT                     02233656000180109023712700000000000000000000RUA PASCOAL GOMES LIBRELOTTO 20                   SANTA MARIA                   RS970652905530259900000000000000000000000102
0000000481CHICO PEAS LTDA                                             91968032000130000000000000000000000000000000AV RIO GRANDE DO SUL NO 768                       SANTA ROSA                    RS989000005535126807680000000000000000000102
0000000484NESTOR A HENKES   CIA LTDA                                  90944901000124147001402200000000000000000000R PE CACIQUE 813                                  TRES DE MAIO                  RS989100005351361000000000000000000000000102
0000000498EROTILDES LUNDIN                                            00000000000000000000000000000000000000000000                                                  INDEPENDENCIA                 RS989150000000000000000000000000000000000101
0000000499IVO DE ANDRADE                                              00018283284053000000000000000000000000000000                                                  INDEPENDENCIA                 RS989150000000000000000000000000000000000101
0000000500EVANDRO KRUMMENAUER-ME                                      00907633000188198000514900000000000000000000RODOVIA PRESIDENTE KENNEDY-KM                     INDEPENDENCIA                 RS989150005598407083600000000000000000000102
0000000508DISTINTA COMERCIO DE TINTAS LTDA                            89392484000175110002320500000000000000000000ROLAVO BILAC 66                                   SANTA ROSA                    RS989000003512555400000000000000000000000102
0000000511DOUGLAS ROGERIO MELLER                                      00768498000137198000506800000000000000000000RODRS 342 KM 09 N 1952                            INDEPENDENCIA                 RS989150000000000000000000000000000000000102
0000000516JOAO BOYARSKI LEMANSKI                                      00000000000000000000000000000000000000000000                                                  INDEPENDENCIA                 RS997400000000000000000000000000000000000101
0000000518LUIS MAYER                                                  00040958167087000000000000000000000000000000CHEFE DE MATERIAL DE FERRAMENTAS                  INDEPENDENCIA                 RS989150000000000000000000000000000000000101
0000000521TABELIONATO IND CLUDIA PARCIANELLO NAO UTILIZAR             00046067477068000000000000000000000000000000AV 3 DE MAIO                                      INDEPENDENCIA                 RS989150003539119700000000000000000000000101
0000000530CEEE - DIVIDA/646                                           00000000000000000000000000000000000000000000                                                  SANTA ROSA                    RS988000000000000000000000000000000000000101
0000000532SIRLEI ROSANELLI SEITENFUS - DIARIAS                        00056028407020000000000000000000000000000000ESCRITURRIO                                       INDEPENDENCIA                 RS989150000000000000000000000000000000000101
0000000542ZERO HORA EDITORA JORNALISTICA LTDA                         92821701000100000000000000000000000000000000AVIPIRANGA 1075                                   PORTO ALEGRE                  RS901600105122344000000000000000000000000102
0000000552LAR BOM PASTOR DE IVAGACI E ESCOLA PROFISSIONAL             87685616000121000000000000000000000000000000VILA IVAGACI                                      BOA VISTA DO BURICA           RS989180000000000000000000000000000000000102
0000000554CONDECOI-CONSDE DESENVCOMUNITARIO IND                       92466002000199000000000000000000000000000000RUA GETULIO VARGAS 358                            INDEPENDENCIA                 RS989150000000000000000000000000000000000102
0000000555HOSPITAL DE CARIDADE DE IJUI                                90730508000138650001834000000000000000000000AV DAVID JOSE MARTINS 152                         IJUI                          RS987000005533319300000000000000000000000102
0000000557HARTEPPEL DISTRIBUIDORA DE PAPEIS LTDA                      00771930000149147003201200000000000000000000RPADRE CACIQUE 1110                               TRES DE MAIO                  RS989100005553519000000000000000000000000102
0000000564ELIO VENITES                                                00019726937000198000252200000000000000000000AV TRES DE MAIO 970                               INDEPENDENCIA                 RS989150000000000000000000000000000000000101
0000000575BANCO BANRISUL                                              92702067021898000000000000000000000000000000RUA 3 DE MAIO                                     TRES DE MAIO                  RS989100000000000000000000000000000000000102
0000000578FIDENE - FUNDDE INTREGDESEDNOROESTE                         90738014000108650067770000000000000000000000RUA 15 DE NOVEMBRO N 593 4 ANDAR                  IJUI                          RS987000005533318400000000000000000000000102
0000000589COMERCIO DE TECIDOS TRES PASSOS LTDA                        00000000000000000000000000000000000000000000                                                                                  997400000000000000000000000000000000000101
0000000610MARLENE BANDEIRA   CIA LTDA                                 93636090000192147002574100000000000000000000AVURUGUAI 520                                     TRES DE MAIO                  RS989100003535224400000000000000000000000102
0000000619ALVAIR JOSE MIRESKI                                         94797685000192147002845700000000000000000000RSANTO ANGELO 1038                                TRES DE MAIO                  RS989100005553524150000000000000000000000102
0000000625AUTO MAQUINAS OURO VERDE LTDA                               87693297000104147000994000000000000000000000RUA HORIZONTINA1163                               TRES DE MAIO                  RS989100003535105000000000000000000000000102
0000000629DIRCEU DE OLIVEIRA REIS - DIARIAS                           00035804718053000000000000000000000000000000CHEFE DO SETOR PESSOAL                            INDEPENDENCIA                 RS989150000000000000000000000000000000000101
0000000650GLEI AMARO LINHARES                                         00025321374015000000000000000000000000000000                                                  INDEPENDENCIA                 RS989150000000000000000000000000000000000101
