87612826000190010120253101202501022025PREFEITURA MUNICIPAL INDEPENDENCIA                                              
1111119020100000000002010000000013732X00000000000000071323210000150000000000
1111119020200000000002010000000013732X00000000000000071293210000150000000000
1111119020300000000002010000000013732X00000000000002831414210000150100000000
1111119020400000000002010000000013732X00000000000000040150210000170400000000
1111119020500000000002010000000013732X00000000000000073857210000150000000000
1111119020600000000002010000000013732X0000000000000011636X210000170800000000
1111119020700000000008010000000013732X00000000000000100625210000150000000000
1111119021000000000008010000000013732X00000000000000114731210000160000000000
1111119021100000000002010000000013732X00000000000000050113210000150000000000
1111119021300000000002010000000013732X00000000000000076848210000155000000000
1111119021400000000002010000000013732X00000000000000078271210000175000000000
1111119022500000000002010000000013732X00000000000000123404210000150000000000
1111119022900000000005020000000013732X00000000000000130354210000154000000000
1111119023400000000003010000000013732X00000000000000123501210000150100000000
1111119023900000000009020000000013732X00000000000000111430210000166000000000
1111119024200000000002010000000013732X00000000000000089281210000150000000000
1111119024600000000008010000000013732X00000000000000114731210000160400000000
1111119024800000000008010000000013732X00000000000000126454210000160500000000
1111119025600000000007010000000013732X00000000000000007641210000175100000000
1111119025900000000009020000000013732X00000000000000111414210000166000000000
1111119027201000000008010000000013732X00000000000000114731210000160000000000
1111119027203000000008010000000013732X00000000000000114731210000160000000000
1111119027206000000008010000000013732X00000000000000114731210000160000000000
1111119027215000000008010000000013732X00000000000000114731210000160400000000
1111119027216000000008010000000013732X00000000000000128473210000160000000000
1111119027217000000008010000000013732X00000000000000114731210000160000000000
1111119027218000000008010000000013732X00000000000000114731210000160000000000
1111119120100000000008010000000410106400000000000402881902210000150000000000
1111119120200000000002010000000410106400000000000401315306210000150000000000
1111119120800000000002010000000410106400000000000402402109210000150000000000
1111119120900000000004010000000410094400000000000401315306210000170100000000
1111119121200000000008010000000410106400000000000402872210210000162100000000
1111119121300000000008010000000410106400000000000408368107210000163200000000
1111119121400000000008010000000410106400000000000408368107210000150000000000
1111119122800000000010040000000410106400000000000402855405210000175900000000
1111119123200000000009020000000410106400000000000408068200210000166500000000
1111119124100000000008010000000410106400000000000402872202210000162100000000
1111119124600000000008010000000410106400000000000402872296210000162100000000
1111119124700000000008010000000410106400000000000402872245210000162100000000
1111119124900000000008010000000410106400000000000402872237210000162100000000
1111130010000000000004010000007480030600000000000000149410210000150000000000
1111150020300000000007020000001040052100000000006006472879310000170000000000
1111150020400000000007020000001040052100000000006006472879310000150000000000
1111150030100000000002010000000013732X00000000000000071323310000150000000000
1111150030200000000006020000000013732X00000000000000122041310000170000000000
1111150030300000000002010000000013732X00000000000000076848310000155000000000
1111150030600000000002010000000410106400000000000401315306310000150000000000
1111150031000000000006010000000013732X00000000000000125970310000170600000000
1111150031400000000009020000000013732X00000000000000128244310000166000000000
1111150031700000000002010000007480030600000000000000078784310000150000000000
1111150031924000000010010000000410106400000000000408368006310000170100000000
1111150032000000000010010000000410106400000000000408368006310000150000000000
1111150032400000000008010000000410106400000000000408368107310000163200000000
1111150032600000000004010000000410094400000000000401315306310000170100000000
1111150032700000000002010000000013732X00000000000000078271310000175000000000
1111150033200000000008010000000410106400000000000408368107310000150000000000
1111150033300000000008010000000410106400000000000402872202310000162100000000
1111150033400000000008010000000410106400000000000402872210310000162100000000
1111150033500000000008010000000410106400000000000402872202310000162100000000
1111150033600000000008010000000410106400000000000402872202310000162100000000
1111150033900000000007010000000410106400000000000408390706310000170100000000
1111150034000000000008010000000013732X00000000000000114820310000160100000000
1111150034100000000009020000000410106400000000000408386008310000166500000000
1111150034200000000009020000000410106400000000000408386008310000150000000000
1111150034300000000006020000000013732X00000000000000122041310000170600000000
1111150034500000000008010000000410106400000000000408024904310000162100000000
1111150034700000000007010000000410106400000000000408390706310000150000000000
1111150035000000000010040000000410106400000000000402855405310000175900000000
1111150035100000000008010000000013732X00000000000000114820310000160100000000
1111150035200000000007010000000013732X00000000000000128341310000170600000000
1111150035300000000008010000000013732X00000000000000114820310000160100000000
1111150035500000000010010000000013732X00000000000000128317310000170600000000
1111150035700000000009020000000410106400000000000408068200310000166500000000
1111150035800000000005020000000013732X00000000000000120189310000156900000000
1111150036900000000005020000000013732X00000000000000130354310000154000000000
1111150037000000000009020000000013732X00000000000000111430310000166000000000
1111150037300000000006010000000410106400000000000408363407310000170100000000
1111150037400000000006010000000410106400000000000408363407310000150000000000
1111150037500000000008010000000410106400000000000408392306310000162100000000
1111150037600000000009020000000013732X00000000000000128414310000166000000000
1111150038100000000008010000000013732X00000000000000114820310000160100000000
1111150038300000000009020000000013732X00000000000000111414310000166000000000
1111150038400000000002020000000013732X00000000000000110124310000175900000000
1111150038900000000008010000000410106400000000000408302408310000162100000000
1111150039100000000007010000000013732X00000000000000128392310000170600000000
1111150039200000000006030000000410106400000000000408356907310000170100000000
1111150039300000000006030000000410106400000000000408356907310000150000000000
1111150039600000000008010000000013732X00000000000000114820310000160100000000
1111150039700000000008010000000410106400000000000408368204310000163200000000
1111150039803000000008010000000013732X00000000000000114731310000160000000000
1111150039809000000008010000000013732X00000000000000126454310000160500000000
1111150039902000000005010000000013732X00000000000000126527310000156900000000
1111150039905000000002010000000013732X00000000000000076414310000175100000000
1111150039906000000002010000000013732X00000000000000040150310000170400000000
1111150039907000000002010000000013732X00000000000000123501310000150100000000
1111150039911000000002010000000410106400000000000401315306310000150200000000
1111150039912000000010020000000410106400000000000408372104310000170100000000
1111150039913000000005030000000013732X00000000000000126276310000171500000000
1111150039914000000005030000000013732X00000000000000126284310000171600000000
1111150039915000000002010000000013732X0000000000000011636X310000170800000000
1111150039916000000005020000000013732X00000000000000127078310000156900000000
1111150039917000000010010000000013732X00000000000000128295310000170600000000
1111150039918000000008010000000013732X00000000000000114731310000160000000000
1111150039920000000007010000000013732X0000000000000012835X310000170600000000
1111150039921000000010010000000013732X00000000000000128325310000170600000000
1111150039922000000008010000000013732X00000000000000114820310000160100000000
1111150050000000000009020000000410106400000000000408378609310000166500000000
1111150060000000000009020000000410106400000000000408378609310000150000000000
1111150070000000000010010000000410106400000000000408388000310000170100000000
1111150080000000000010010000000410106400000000000408388000310000150000000000
1111150110000000000008010000000013732X00000000000000114731310000160000000000
1111150130000000000009020000000410106400000000000408068200310000166100000000
1111150140000000000008010000000013732X00000000000000100625310000150000000000
1111150150000000000008010000000013732X00000000000000128473310000160000000000
1111150180000000000004010000000013732X00000000000000089281310000150000000000
1113101020000000000002010000000013732X00000000000000071323210000186900000000
1113101030000000000002010000000410106400000000000401315306210000186900000000
1113101050000000000002010000007480030600000000000000078784210000186900000000
FINALIZADOR0000000118