87612826000190010120253101202501022025PREFEITURA MUNICIPAL INDEPENDENCIA                                              
3279/2025           1311202410/2025             28012025000000188607600000038086951100000000000000000000000000000000000000000002500250028012025
3279/2025           1311202410/2025             28012025000000021000000000000000001100000000000000000000000000000000000000000002632000028012025
3279/2025           1311202410/2025             28012025000000000500000000000000001100000000000000000000000000000000000000000002708000028012025
3279/2025           131120242/2025              03012025000000033450000000072761001100000000000000000000000000000000000000000002500250003012025
3279/2025           131120243/2025              09012025000000510000000000042447961100000000000000000000000000000000000000000002500250009012025
3279/2025           131120246/2025              15012025000000750000000000051000001100000000000000000000000000000000000000000002500250015012025
3279/2025           131120248/2025              20012025000002347802000000000000001100000000000000000000000000000000000000000001706000020012025
3279/2025           131120248/2025              20012025000000126220400000027399321100000000000000000000000000000000000000000002500250020012025
3279/2025           1311202410/2025             28012025000000152500000000015250001500000000000000000000000000000000000000000001500150000000000
3279/2025           131120242/2025              03012025000000095640000000009564001500000000000000000000000000000000000000000001500150000000000
3279/2025           131120243/2025              09012025000001613479600000161347961500000000000000000000000000000000000000000001500150000000000
3279/2025           131120246/2025              15012025000000209600800000020960081500000000000000000000000000000000000000000001500150000000000
3279/2025           131120248/2025              20012025000000130202000000013020201500000000000000000000000000000000000000000001500150000000000
FINALIZADOR0000000013