87612826000190010120253101202501022025PREFEITURA MUNICIPAL INDEPENDENCIA                                              
020304124000100002082339014140000000000000000202500000570240120250000000109689+0000000347                                                                                                                                                                     00000N                    0000000000000000000000002/5 DIRIAS  PORTO ALEGRE  NOS DIAS 28 E 29 DE JANEIRO PARA PARTICIPAR DE CAPACITAO SOBRE OS PARECERES OBRIGATRIOS DO CONTROLE INTERNO NAS PRESTAES DE CONTAS ANUAIS CONFORME FOLDER EM ANEXO CONF SD 83/2025                                                                                                                                                                                                    NSA00IX000000000000000000150000000000
020304124000100002082339014140000000000000000202500000570240120250000000109689-0000000347                                                                                                                                                                     00000N                    0000000000000000000000002/5 DIRIAS  PORTO ALEGRE  NOS DIAS 28 E 29 DE JANEIRO PARA PARTICIPAR DE CAPACITAO SOBRE OS PARECERES OBRIGATRIOS DO CONTROLE INTERNO NAS PRESTAES DE CONTAS ANUAIS CONFORME FOLDER EM ANEXO CONF SD 83/2025                                                                                                                                                                                                    NSA00IX000000000000000000150000000000
030104122000100002068339039920000000000000000202500000230140120250000000240000+0000008327                                                                                                                                                                     00000N                    000000000000000000000000SERVIOS DE CONSOLIDAO DA LEGISLAO MUNICIPAL DE MODO INFORMATIZADO PARA UTILIZAO VIA INTERNET LEIS MUNICIPAIS LEI ORGNICA E EMENDAS A LOM NA FORMA DE UM PORTAL DE LEGISLAO DO SITE OFICIAL DA PREFEITURA MUNICIPAL COM QUALIDADE VIA CELULAR TABLET OU QUALQUER DISPOSITIVO PERMITINDO O ACOMPANHAMENTO DE TODA A LEGISLAO DO MUNICPIO PARA O EXERCCIO DE 2025 CONF RD 140/2025                                 NSA00XX000000000000000000250000000000
030104122000100002068339039920000000000000000202500000230140120250000000240000-0000008327                                                                                                                                                                     00000N                    000000000000000000000000SERVIOS DE CONSOLIDAO DA LEGISLAO MUNICIPAL DE MODO INFORMATIZADO PARA UTILIZAO VIA INTERNET LEIS MUNICIPAIS LEI ORGNICA E EMENDAS A LOM NA FORMA DE UM PORTAL DE LEGISLAO DO SITE OFICIAL DA PREFEITURA MUNICIPAL COM QUALIDADE VIA CELULAR TABLET OU QUALQUER DISPOSITIVO PERMITINDO O ACOMPANHAMENTO DE TODA A LEGISLAO DO MUNICPIO PARA O EXERCCIO DE 2025 CONF RD 140/2025                                 NSA00XX000000000000000000250000000000
050212782000200002035339030390000000000000000202500000285230120250000001203200-0000008265                                                                                                                                                                     00000S                    000000000000000000332024AQUISIO DE PNEUS PARA OS VECULOS DA FROTA DO TRANSPORTE ESCOLAR CON RD 193/2025PROCESSO DE LICITAO N 226/2024 PREGO ELETRNICO N 33/2024 SRP N 19/2024                                                                                                                                                                                                                                                           PCE08XX000000000000000000150010010000
050212782000200002035339030390000000000000000202500000285140120250000001203200+0000008265                                                                                                                                                                     00000S                    000000000000000000332024AQUISIO DE PNEUS PARA OS VECULOS DA FROTA DO TRANSPORTE ESCOLAR CON RD 193/2025PROCESSO DE LICITAO N 226/2024 PREGO ELETRNICO N 33/2024 SRP N 19/2024                                                                                                                                                                                                                                                           PCE08XX000000000000000000150010010000
060326782001700002073339030010000000000000000202500000544220120250000005859000+0000010336                                                                                                                                                                     00000N                    000000000000000000582024AQUISIO DE COMBUSTVEIS PARA O ABASTECIMENTO DAS MQUINAS E VECULOS DA SECRETARIA MUNICIPAL DE OBRAS E VIAO- MANUTENO DE ESTRADAS RURAIS CONF RD 422/2025PROCESSO DE LICITAO N 391/2024  PREGO ELETRNICO N 58/2024                                                                                                                                                                                                PCE08XX000000000000000000150000000000
060326782001700002073339030010000000000000000202500000544310120250000005859000-0000010336                                                                                                                                                                     00000N                    000000000000000000582024AQUISIO DE COMBUSTVEIS PARA O ABASTECIMENTO DAS MQUINAS E VECULOS DA SECRETARIA MUNICIPAL DE OBRAS E VIAO- MANUTENO DE ESTRADAS RURAIS CONF RD 422/2025PROCESSO DE LICITAO N 391/2024  PREGO ELETRNICO N 58/2024                                                                                                                                                                                                PCE08XX000000000000000000150000000000
070215452001000002005339039670000000000000000202500000349160120250000000043000+0000000224                                                                                                                                                                     00000N                    000000000000000000000000PAGAMENTO DE PRESTAO DE SERVIO DE ENERGIA ELTRICA QUE SER UTILIZADA NO CEMITRIO MUNICIPAL DURANTE O ANO DE 2025 CONF RD 267/2025                                                                                                                                                                                                                                                                                NSA00XX000000000000000000150000000000
070215452001000002005339039670000000000000000202500000349160120250000000043000-0000000224                                                                                                                                                                     00000N                    000000000000000000000000PAGAMENTO DE PRESTAO DE SERVIO DE ENERGIA ELTRICA QUE SER UTILIZADA NO CEMITRIO MUNICIPAL DURANTE O ANO DE 2025 CONF RD 267/2025                                                                                                                                                                                                                                                                                NSA00XX000000000000000000150000000000
070215452001000002006339039430000000000000000202500000107070120250000000300000+0000001169                                                                                                                                                                     00000N                    000000000000000000000000ENERGIA ELTRICA - TAXA DE ADMINISTRAO - CIP - REF AO EXERCCIO 2025MS                                                                                                                                                                                                                                                                                                                                            DPV08XX000000000000000000275100000000
070215452001000002006339039430000000000000000202500000107090120250000000300000-0000001169                                                                                                                                                                     00000N                    000000000000000000000000ENERGIA ELTRICA - TAXA DE ADMINISTRAO - CIP - REF AO EXERCCIO 2025MS                                                                                                                                                                                                                                                                                                                                            DPV08XX000000000000000000275100000000
070215452001700002002339030160000000000000000202500000313150120250000000012000+0000009208                                                                                                                                                                     00000S                    000000000000000000482024AQUISIO DE LIVROS DE BORDO PARA REGISTRO DE HISTRICO DOS VECULOS DA SECRETARIA MUNICIPAL DE SERVIOS URBANOS E TRNSITO CONF RD 209/2025           PROCESSO DE LICITAO N 327/2024 PREGO ELETRNICO N 48/2024 SRP N 29/2024                                                                                                                                                                                         PCE08XX000000000000000000150000000000
070215452001700002002339030160000000000000000202500000313150120250000000012000-0000009208                                                                                                                                                                     00000S                    000000000000000000482024AQUISIO DE LIVROS DE BORDO PARA REGISTRO DE HISTRICO DOS VECULOS DA SECRETARIA MUNICIPAL DE SERVIOS URBANOS E TRNSITO CONF RD 209/2025           PROCESSO DE LICITAO N 327/2024 PREGO ELETRNICO N 48/2024 SRP N 29/2024                                                                                                                                                                                         PCE08XX000000000000000000150000000000
070215452001700002002339030010000000000000000202500000545220120250000001093750+0000010336                                                                                                                                                                     00000N                    000000000000000000582024AQUISIO DE COMBUSTVEIS PARA O ABASTECIMENTO DAS MQUINAS E VECULOS DA SECRETARIA MUNICIPAL DE SERVIOS URBANOS E TRNSITO MANUTENO DAS VIAS URBANAS CONF RD 423/2025PROCESSO DE LICITAO N 391/2024  PREGO ELETRNICO N 58/2024                                                                                                                                                                                      PCE08XX000000000000000000150000000000
070215452001700002002339030010000000000000000202500000545280120250000001093750-0000010336                                                                                                                                                                     00000N                    000000000000000000582024AQUISIO DE COMBUSTVEIS PARA O ABASTECIMENTO DAS MQUINAS E VECULOS DA SECRETARIA MUNICIPAL DE SERVIOS URBANOS E TRNSITO MANUTENO DAS VIAS URBANAS CONF RD 423/2025PROCESSO DE LICITAO N 391/2024  PREGO ELETRNICO N 58/2024                                                                                                                                                                                      PCE08XX000000000000000000150000000000
080110303000800002094337170010000000000000000202500000635270120250000001825740+0000000451                                                                                                                                                                     00000N                    000000000000000000000000COFRON MENSALIDADE DE SERVIOS DE UROLOGIA ONCOLOGIA/HEMATOLOGIA CONTRATO DE RATEIO 02/2023 VIGENCIA P/2025ONCOLOGIA/HEMATOLOGIA VALOR MENSAL DE R 86554  UROLOGIA VALOR MENSAL DE R 65591   TOTAL MENSAL R 152145                                                                                                                                                                                               NSA00XX000000000000000000250010020000
080110303000800002094337170010000000000000000202500000218140120250000009304654+0000000451                                                                                                                                                                     00000N                    000000000000000000000000CONTRATO DE RATEIO N 03/2023 COM VIGNCIA AT 01/11/2025 PARA RATEIO DAS DESPESAS DA UPA/SAMU REGIONAL POR MEIO DO COFRON CONF RD148/2025 UPA VALOR MENSAL DE R 779193  SAMU VALOR MENSAL DE R 148175                                                                                                                                                                                                             NSA00XX000000000000000000250010020000
080110303000800002094337170010000000000000000202500000978300120250000001918152+0000000451                                                                                                                                                                     00000N                    000000000000000000000000COFRON MENSALIDADE DE SERVIOS DE ONCOLOGIA/HEMATOLOGIA E UROLOGIACONTRATO DE RATEIO 02/2023 ADITIVO 03/2025 VIGENCIA ANO 2025UROLOGIA R 69165ONCOLOGIA/HEMATOLOGIA R 90681TOTAL MENSAL R 159846                                                                                                                                                                                                                 NSA00XX000000000000000000250010020000
080110303000800002094337170010000000000000000202500000978300120250000001918152-0000000451                                                                                                                                                                     00000N                    000000000000000000000000COFRON MENSALIDADE DE SERVIOS DE ONCOLOGIA/HEMATOLOGIA E UROLOGIACONTRATO DE RATEIO 02/2023 ADITIVO 03/2025 VIGENCIA ANO 2025UROLOGIA R 69165ONCOLOGIA/HEMATOLOGIA R 90681TOTAL MENSAL R 159846                                                                                                                                                                                                                 NSA00XX000000000000000000250010020000
080110303000800002094337170010000000000000000202500000218290120250000009304654-0000000451                                                                                                                                                                     00000N                    000000000000000000000000CONTRATO DE RATEIO N 03/2023 COM VIGNCIA AT 01/11/2025 PARA RATEIO DAS DESPESAS DA UPA/SAMU REGIONAL POR MEIO DO COFRON CONF RD148/2025 UPA VALOR MENSAL DE R 779193  SAMU VALOR MENSAL DE R 148175                                                                                                                                                                                                             NSA00XX000000000000000000250010020000
080110303000800002094337170010000000000000000202500000635290120250000001825740-0000000451                                                                                                                                                                     00000N                    000000000000000000000000COFRON MENSALIDADE DE SERVIOS DE UROLOGIA ONCOLOGIA/HEMATOLOGIA CONTRATO DE RATEIO 02/2023 VIGENCIA P/2025ONCOLOGIA/HEMATOLOGIA VALOR MENSAL DE R 86554  UROLOGIA VALOR MENSAL DE R 65591   TOTAL MENSAL R 152145                                                                                                                                                                                               NSA00XX000000000000000000250010020000
080110122000500002084339030220000000000000000202500000475220120250000000028200-0000009887                                                                                                                                                                     00000S                    000000000000000000702024AQUISIO DE MATERIAIS DE HIGIENE E LIMPEZA PARA A SECRETARIA DE SADE DISTRIBUIR ENTRE AS UNIDADES DE SADE CONF RD 356/2025PROCESSO DE LICITAO N 496/2024 PREGO ELETRNICO N 70/2024 SRP N 44/2024                                                                                                                                                                                                                 PCE08XX000000000000000000150010020000
080110122000500002084339030220000000000000000202500000474220120250000000000220-0000007843                                                                                                                                                                     00000S                    000000000000000000702024AQUISIO DE MATERIAIS DE HIGIENE E LIMPEZA PARA A SECRETARIA DE SADE DISTRIBUIR ENTRE AS UNIDADES DE SADE CONF RD 357/2025PROCESSO DE LICITAO N 496/2024 PREGO ELETRNICO N 70/2024 SRP N 44/2024                                                                                                                                                                                                                 PCE08XX000000000000000000150010020000
080110122000500002084339030220000000000000000202500000473220120250000000034950-0000010660                                                                                                                                                                     00000S                    000000000000000000702024AQUISIO DE MATERIAIS DE HIGIENE E LIMPEZA PARA A SECRETARIA DE SADE DISTRIBUIR ENTRE AS UNIDADES DE SADE CONF RD 358/2025PROCESSO DE LICITAO N 496/2024 PREGO ELETRNICO N 70/2024 SRP N 44/2024                                                                                                                                                                                                                 PCE08XX000000000000000000150010020000
080110122000500002084339030220000000000000000202500000476220120250000000029150-0000009531                                                                                                                                                                     00000S                    000000000000000000702024AQUISIO DE MATERIAIS DE HIGIENE E LIMPEZA PARA A SECRETARIA DE SADE DISTRIBUIR ENTRE AS UNIDADES DE SADE CONF RD 355/2025PROCESSO DE LICITAO N 496/2024 PREGO ELETRNICO N 70/2024 SRP N 44/2024                                                                                                                                                                                                                 PCE08XX000000000000000000150010020000
080110122000500002084339030220000000000000000202500000477220120250000000039060-0000010656                                                                                                                                                                     00000S                    000000000000000000702024AQUISIO DE MATERIAIS DE HIGIENE E LIMPEZA PARA A SECRETARIA DE SADE DISTRIBUIR ENTRE AS UNIDADES DE SADE CONF RD 354/2025PROCESSO DE LICITAO N 496/2024 PREGO ELETRNICO N 70/2024 SRP N 44/2024                                                                                                                                                                                                                 PCE08XX000000000000000000150010020000
080110122000500002084339030369900000000000000202500000478220120250000000015980-0000010768                                                                                                                                                                     00000S                    000000000000000000802024AQUISIO DE MATERIAL AMBULATORIAL E HOSPITALAR PARA SECRETARIA DE SADE CONFRD 374/2025PROCESSO DE LICITAO N 623/2024  PREGO ELETRNICO N 80/2024SRP N 51/2024                                                                                                                                                                                                                                                     PCE08XX000000000000000000150010020000
080110122000500002084339030369900000000000000202500000479220120250000000071280-0000010688                                                                                                                                                                     00000S                    000000000000000000802024AQUISIO DE MATERIAL AMBULATORIAL E HOSPITALAR PARA SECRETARIA DE SADE CONFRD 369/2025PROCESSO DE LICITAO N 623/2024  PREGO ELETRNICO N 80/2024SRP N 51/2024                                                                                                                                                                                                                                                     PCE08XX000000000000000000150010020000
080110122000500002084339030369900000000000000202500000480220120250000000054000-0000009067                                                                                                                                                                     00000S                    000000000000000000802024AQUISIO DE MATERIAL AMBULATORIAL E HOSPITALAR PARA SECRETARIA DE SADE CONFRD 370/2025PROCESSO DE LICITAO N 623/2024  PREGO ELETRNICO N 80/2024SRP N 51/2024                                                                                                                                                                                                                                                     PCE08XX000000000000000000150010020000
080110122000500002084339030220000000000000000202500000473210120250000000034950+0000010660                                                                                                                                                                     00000S                    000000000000000000702024AQUISIO DE MATERIAIS DE HIGIENE E LIMPEZA PARA A SECRETARIA DE SADE DISTRIBUIR ENTRE AS UNIDADES DE SADE CONF RD 358/2025PROCESSO DE LICITAO N 496/2024 PREGO ELETRNICO N 70/2024 SRP N 44/2024                                                                                                                                                                                                                 PCE08XX000000000000000000150010020000
080110122000500002084339030220000000000000000202500000474210120250000000000220+0000007843                                                                                                                                                                     00000S                    000000000000000000702024AQUISIO DE MATERIAIS DE HIGIENE E LIMPEZA PARA A SECRETARIA DE SADE DISTRIBUIR ENTRE AS UNIDADES DE SADE CONF RD 357/2025PROCESSO DE LICITAO N 496/2024 PREGO ELETRNICO N 70/2024 SRP N 44/2024                                                                                                                                                                                                                 PCE08XX000000000000000000150010020000
080110122000500002084339030220000000000000000202500000475210120250000000028200+0000009887                                                                                                                                                                     00000S                    000000000000000000702024AQUISIO DE MATERIAIS DE HIGIENE E LIMPEZA PARA A SECRETARIA DE SADE DISTRIBUIR ENTRE AS UNIDADES DE SADE CONF RD 356/2025PROCESSO DE LICITAO N 496/2024 PREGO ELETRNICO N 70/2024 SRP N 44/2024                                                                                                                                                                                                                 PCE08XX000000000000000000150010020000
080110122000500002084339030220000000000000000202500000476210120250000000029150+0000009531                                                                                                                                                                     00000S                    000000000000000000702024AQUISIO DE MATERIAIS DE HIGIENE E LIMPEZA PARA A SECRETARIA DE SADE DISTRIBUIR ENTRE AS UNIDADES DE SADE CONF RD 355/2025PROCESSO DE LICITAO N 496/2024 PREGO ELETRNICO N 70/2024 SRP N 44/2024                                                                                                                                                                                                                 PCE08XX000000000000000000150010020000
080110122000500002084339030220000000000000000202500000477210120250000000039060+0000010656                                                                                                                                                                     00000S                    000000000000000000702024AQUISIO DE MATERIAIS DE HIGIENE E LIMPEZA PARA A SECRETARIA DE SADE DISTRIBUIR ENTRE AS UNIDADES DE SADE CONF RD 354/2025PROCESSO DE LICITAO N 496/2024 PREGO ELETRNICO N 70/2024 SRP N 44/2024                                                                                                                                                                                                                 PCE08XX000000000000000000150010020000
080110122000500002084339030369900000000000000202500000478210120250000000015980+0000010768                                                                                                                                                                     00000S                    000000000000000000802024AQUISIO DE MATERIAL AMBULATORIAL E HOSPITALAR PARA SECRETARIA DE SADE CONFRD 374/2025PROCESSO DE LICITAO N 623/2024  PREGO ELETRNICO N 80/2024SRP N 51/2024                                                                                                                                                                                                                                                     PCE08XX000000000000000000150010020000
080110122000500002084339030369900000000000000202500000479210120250000000071280+0000010688                                                                                                                                                                     00000S                    000000000000000000802024AQUISIO DE MATERIAL AMBULATORIAL E HOSPITALAR PARA SECRETARIA DE SADE CONFRD 369/2025PROCESSO DE LICITAO N 623/2024  PREGO ELETRNICO N 80/2024SRP N 51/2024                                                                                                                                                                                                                                                     PCE08XX000000000000000000150010020000
080110122000500002084339030369900000000000000202500000480210120250000000054000+0000009067                                                                                                                                                                     00000S                    000000000000000000802024AQUISIO DE MATERIAL AMBULATORIAL E HOSPITALAR PARA SECRETARIA DE SADE CONFRD 370/2025PROCESSO DE LICITAO N 623/2024  PREGO ELETRNICO N 80/2024SRP N 51/2024                                                                                                                                                                                                                                                     PCE08XX000000000000000000150010020000
100220608000400002052339039990200000000000000202500000270140120250000000132000+0000000064                                                                                                                                                                     00000N                    000000000000000000000000MENSALIDADE PARA MANUTENO DO COMIT DE GERENCIAMENTO DAS BACIAS HIDROGRFICAS DOS RIOS TURVO - SANTA ROSA - SANTO CRISTO 12 MESES CONF RD 178/2025                                                                                                                                                                                                                                                                NSA00XX000000000000000000150000000000
100220608000400002052339039990200000000000000202500000270140120250000000132000-0000000064                                                                                                                                                                     00000N                    000000000000000000000000MENSALIDADE PARA MANUTENO DO COMIT DE GERENCIAMENTO DAS BACIAS HIDROGRFICAS DOS RIOS TURVO - SANTA ROSA - SANTO CRISTO 12 MESES CONF RD 178/2025                                                                                                                                                                                                                                                                NSA00XX000000000000000000150000000000
110128845000000000030339093990400000000000000202500000645280120250000000008566+0000001078                                                                                                                                                                     00000N                    000000000000000000000000RESTITUIO DO SALDO DO CONVNIO N 4758/2022 DO PROJETO CASTRAO - MELHORES AMIGOS CFE MEMO 02/2025-SECPLAN                                                                                                                                                                                                                                                                                                         NSA00XX000000000000000000263200000000
110128845000000000030339093990400000000000000202500000645280120250000000008566-0000001078                                                                                                                                                                     00000N                    000000000000000000000000RESTITUIO DO SALDO DO CONVNIO N 4758/2022 DO PROJETO CASTRAO - MELHORES AMIGOS CFE MEMO 02/2025-SECPLAN                                                                                                                                                                                                                                                                                                         NSA00XX000000000000000000263200000000
090408243001100002107339030220000000000000000202500000452210120250000000001140+0000010651                                                                                                                                                                     00000S                    000000000000000000702024MATERIAIS DE HIGIENE E LIMPEZA PARA MANUTENO DO PRDIO DO CONSELHO TUTELAR CONF RD 336/2025PROCESSO DE LICITAO N 496/2024 PREGO ELETRNICO N 70/2024 SRP N 44/2024                                                                                                                                                                                                                                                PCE08XX000000000000000000150000000000
100104122000100002050319016449900100000000000202500000734280120250000000001365+0000000213                                                                                                                                                                     00000N                    000000000000000000000000REFERENTE A REMUNERAO DO MES DE JANEIRO DE 2025OBRAS-ESTATUTARIOSHORAS EXTRAS AGRICULTURA                                                                                                                                                                                                                                                                                                                       NSA00FX000000000000000000150000000000
080110301000600002092339030240000000000000000202500000214100120250000000001400+0000004313                                                                                                                                                                     00000N                    000000000000000000082025AQUISIO DE CANO SANFONADO PARA MANUTENO DO ESF 01PROCESSO DE LICITAO N 12/2025 DISPENSA N 08/2025                                                                                                                                                                                                                                                                                                               PRD08XX000000000000000000250010020000
050104122000100002022319016449900100000000000202500000731280120250000000001508+0000000213                                                                                                                                                                     00000N                    000000000000000000000000REFERENTE A REMUNERAO DO MES DE JANEIRO DE 2025OBRAS-ESTATUTARIOSHORAS EXTRAS EDUCAO                                                                                                                                                                                                                                                                                                                            NSA00FX000000000000000000150000000000
070215452001700002002339030390000000000000000202500001145310120250000000001600+0000009098                                                                                                                                                                     00000S                    00000000000000000048202404 UN DE ADESIVO PARA IDENTIFICAO DOS VECULOS DA SECRETARIA DE SERVIOS URBANOS E TRANSITO        PROCESSO DE LICITAO N 327/2024  PREGO ELETRNICO N 48/2024 SRP N 29/2024                                                                                                                                                                                                                                        PCE08XX000000000000000000150000000000
090408243001100002107339030160000000000000000202500000556230120250000000001629+0000007764                                                                                                                                                                     00000S                    000000000000000000832024AQUISIO DE MATERIAL DE EXPEDIENTE PARA MANUTENO DAS ATIVIDADES REALIZADAS NO CONSELHO TUTELAR CONF RD 427/2025     PROCESSO DE LICITAO N 636/2024 PREGO ELETRNICO N 83/2024 SRP N 52/2024                                                                                                                                                                                                                       PCE08XX000000000000000000150000000000
090208244001100002018339030220000000000000000202500000454210120250000000001710+0000010651                                                                                                                                                                     00000S                    000000000000000000702024MATERIAIS DE HIGIENE E LIMPEZA PARA MANUTENO DO PRDIO DO CRAS CONF RD 335/2025PROCESSO DE LICITAO N 496/2024 PREGO ELETRNICO N 70/2024 SRP N 44/2024                                                                                                                                                                                                                                                            PCE08XX000000000000000000150000000000
100417511001200001021449030240000000000000000202500000616270120250000000001890+0000009505                                                                                                                                                                     00000S                    000000000000000000602024LAMINA SERRA FERRO SIMPLES PARA SECRETARIA DE AGRICULTURA E ABASTECIMENTO PARA AMPLIAO DA REDE DE AGUA RURAL PROCESSO DE LICITAO N 405/2024 PREGO ELETRNICO N 60/2024 SRP N 37/2024                                                                                                                                                                                                                             PCE08XX000000000000000000150000000000
030104122000100002067339030240000000000000000202500000575240120250000000002000+0000007401                                                                                                                                                                     00000N                    000000000000000000000000AQUISIO DE UM CONJUNTO DE VLVULA PARA CONSERTO DE VAZAMENTO DE GUA NO PRDIO DA PREFEITURA MUNICIPAL CONF RD 441/2025                                                                                                                                                                                                                                                                                            NSA00XX000000000000000000150000000000
070104122000100002001339030990100000000000000202500000172090120250000000002000+0000004298                                                                                                                                                                     00000N                    000000000000000000000000ABRAADEIRAS E EMENDAS PARA CONSERTO DA MANGUEIRA DA LAVAGEM DA SECRETARIA MUNICIPAL DE SERVIOS URBANOS E TRNSITO                                                                                                                                                                                                                                                                                                NSA00XX000000000000000000150000000000
090208244001100002018339030220000000000000000202500000455210120250000000002200+0000007843                                                                                                                                                                     00000S                    000000000000000000702024MATERIAIS DE HIGIENE E LIMPEZA PARA MANUTENO DO PRDIO DO CRAS CONF RD 334/2025PROCESSO DE LICITAO N 496/2024 PREGO ELETRNICO N 70/2024 SRP N 44/2024                                                                                                                                                                                                                                                            PCE08XX000000000000000000150000000000
080110301000600002092319016440100100000000000202500000912280120250000000002247+0000000213                                                                                                                                                                     00000N                    000000000000000000000000REFERENTE A REMUNERAO DO MES DE JANEIRO DE 2025SAUDE-PSF01-ESTATUTARIOSHORAS EXTRAS SAUDE                                                                                                                                                                                                                                                                                                                       NSA00FX000000000000000000150010020000
090408243001100002107339030220000000000000000202500000449210120250000000002350+0000007843                                                                                                                                                                     00000S                    000000000000000000702024MATERIAIS DE HIGIENE E LIMPEZA PARA MANUTENO DO PRDIO DO CONSELHO TUTELAR CONF RD 332/2025PROCESSO DE LICITAO N 496/2024 PREGO ELETRNICO N 70/2024 SRP N 44/2024                                                                                                                                                                                                                                                PCE08XX000000000000000000150000000000
060326782001700002073339030390000000000000000202500001144310120250000000002400+0000009098                                                                                                                                                                     00000S                    00000000000000000048202406 UN DE ADESIVO PARA IDENTIFICAO DOS VECULOS DA SECRETARIA DE OBRAS E VIAO           PROCESSO DE LICITAO N 327/2024  PREGO ELETRNICO N 48/2024 SRP N 29/2024                                                                                                                                                                                                                                                   PCE08XX000000000000000000150000000000
090408243001100002107339030220000000000000000202500000450210120250000000002760+0000007835                                                                                                                                                                     00000S                    000000000000000000702024MATERIAIS DE HIGIENE E LIMPEZA PARA MANUTENO DO PRDIO DO CONSELHO TUTELAR CONF RD 333/2025PROCESSO DE LICITAO N 496/2024 PREGO ELETRNICO N 70/2024 SRP N 44/2024                                                                                                                                                                                                                                                PCE08XX000000000000000000150000000000
100104122000100002050339030160000000000000000202500000578240120250000000002880+0000009969                                                                                                                                                                     00000S                    000000000000000000482024AQUISIO DE UM CARIMBO ENTINTADO AUTOMTICO PARA O SECRETRIO DE AGRICULTURA E ABASTECIMENTO CONF RD 443/2025PROCESSO DE LICITAO N 327/2024 PREGO ELETRNICO N 48/2024 SRP N 29/2024                                                                                                                                                                                                                                PCE08XX000000000000000000150000000000
060104122000100002072319016449900100000000000202500000750280120250000000003473+0000000213                                                                                                                                                                     00000N                    000000000000000000000000REFERENTE A REMUNERAO DO MES DE JANEIRO DE 2025AGRICULTURA-ESTATUTARIOSHORAS EXTRAS SEC OBRAS                                                                                                                                                                                                                                                                                                                   NSA00FX000000000000000000150000000000
060326782001700002073339030280000000000000000202500000385170120250000000003750+0000010838                                                                                                                                                                     00000S                    000000000000000000872024AQUISIO DE EPIS E OUTROS MATERIAIS UTILIZADOS PELOS SERVIDORES DA SECRETARIA DE OBRAS E VIAO CONF RD 278/2025LUVAS MULTITATOPROCESSO DE LICITAO N 726/2024 PREGO ELETRNICO N 87/2024 SRP N 54/2024                                                                                                                                                                                                              PCE08XX000000000000000000150000000000
060104122000100002072339030220000000000000000202500000496210120250000000003885+0000010656                                                                                                                                                                     00000S                    000000000000000000702024AQUISIO DE MATERIAIS DE LIMPEZA PARA UTILIZAO DOS SERVIDORES DA SECRETARIA MUNICIPAL DE OBRAS E VIAO CONF RD 378/2025  PROCESSO DE LICITAO N 496/2024 PREGO ELETRNICO N 70/2024 SRP N 44/2024                                                                                                                                                                                                                   PCE08XX000000000000000000150000000000
070215452001700002002339030990100000000000000202500000376170120250000000003900+0000005965                                                                                                                                                                     00000S                    000000000000000000042024AQUISIO DE TIP TOP N 4 PARA A RETROESCAVADEIRA N 70 DA SECRETARIA MUNICIPAL DE SERVIOS URBANOS E TRNSITO CONF RD 272/2025  PROCESSO DE LICITAO N 32/2024 PREGO ELETRNICO N 04/2024 SRP N 03/2024                                                                                                                                                                                                                PCE08XX000000000000000000150000000000
100220608000400002056339030990100000000000000202500000297150120250000000003900+0000005965                                                                                                                                                                     00000S                    000000000000000000042024AQUISIO DE TIP TOP N 4 PARA REPAROS NOS PNEUS DA PATRULHA AGRCOLA CONF RD 217/2025 PROCESSO DE LICITAO N 32/2024  PREGO ELETRNICO N 04/2024 SRP N 03/2024                                                                                                                                                                                                                                                       PCE08XX000000000000000000150000000000
090408243001100002107339030220000000000000000202500000451210120250000000004030+0000010664                                                                                                                                                                     00000S                    000000000000000000702024MATERIAIS DE HIGIENE E LIMPEZA PARA MANUTENO DO PRDIO DO CONSELHO TUTELAR CONF RD 338/2025PROCESSO DE LICITAO N 496/2024 PREGO ELETRNICO N 70/2024 SRP N 44/2024                                                                                                                                                                                                                                                PCE08XX000000000000000000150000000000
070104122000100002001339030220000000000000000202500000033060120250000000004116+0000009531                                                                                                                                                                     00000S                    000000000000000000702024MATERIAIS DE LIMPEZA PARA MANUTENO DA SECRETARIA MUNICIPAL DE SERVIOS URBANOS E TRNSITO           PROCESSO DE LICITAO N 496/2024 PREGO ELETRNICO N 70/2024 SRP N 44/2024                                                                                                                                                                                                                                        PCE08XX000000000000000000150000000000
070104122000100002001339030220000000000000000202500000036060120250000000004180+0000010658                                                                                                                                                                     00000S                    000000000000000000702024MATERIAIS DE LIMPEZA PARA MANUTENO DA SECRETARIA MUNICIPAL DE SERVIOS URBANOS E TRNSITO           PROCESSO DE LICITAO N 496/2024 PREGO ELETRNICO N 70/2024 SRP N 44/2024                                                                                                                                                                                                                                        PCE08XX000000000000000000150000000000
060104122000100002072339030220000000000000000202500000495210120250000000004250+0000007843                                                                                                                                                                     00000S                    000000000000000000702024AQUISIO DE MATERIAIS DE LIMPEZA PARA UTILIZAO DOS SERVIDORES DA SECRETARIA MUNICIPAL DE OBRAS E VIAO CONF RD 377/2025  PROCESSO DE LICITAO N 496/2024 PREGO ELETRNICO N 70/2024 SRP N 44/2024                                                                                                                                                                                                                   PCE08XX000000000000000000150000000000
090208244001100002016339030240000000000000000202500000472210120250000000004300+0000010271                                                                                                                                                                     00000S                    000000000000000000302024AQUISIO DE UM ASSENTO SANITRIO QUE SER COLOCADO NO BANHEIRO DA SALA DO CADASTRO NICO CONF RD 353/2025   PROCESSO DE LICITAO N 210/2024 PREGO ELETRNICO N 30/2024 SRP N 16/2024                                                                                                                                                                                                                                  PCE08XX000000000000000000266000000000
050212365000200002033339030280000000000000000202500000467210120250000000004340+0000010838                                                                                                                                                                     00000S                    000000000000000000872024AQUISIO DE EQUIPAMENTOS DE PROTEO INDIVIDUAL PARA OS SERVIDORES DA EMEI MUNDO ENCANTADO CONF RD 343/2025PROCESSO DE LICITAO N 726/2024 PREGO ELETRNICO N 87/2024 SRP N 54/2024                                                                                                                                                                                                                                  PCE08XX000000000000000000150010010000
070215452001000002004339030990100000000000000202500000469210120250000000004850+0000007798                                                                                                                                                                     00000S                    000000000000000000712024AQUISIO DE FIO QUADRADO 3MM PARA MANUTENO DE EQUIPAMENTOS MOTORIZADOS DE JARDINAGEM PARA SECRETARIA DE SERVIOS URBANOS E TRNSITO- MANUTENO DA LIMPEZA URBANA CONF RD349/2025PROCESSO DE LICITAO N 519/2024 PREGO ELETRNICO N 71/2024 SRP N 45/2024                                                                                                                                                              PCE08XX000000000000000000150000000000
110128846000000000007339047120100000000000000202500000643270120250000000005000+0000000231                                                                                                                                                                     00000N                    000000000000000000000000RETENO AO PASEP 1 R CFEM                                                                                                                                                                                                                                                                                                                                                                                        NSA00XX000000000000000000270800000000
080110301000600002105339014140000000000000000202500000288150120250000000005336+0000004876                                                                                                                                                                     00000N                    000000000000000000000000025 DE DIRIA A IJU PARA LEVAR PACIENTE PARA REALIZAR EXAME CONF SD 46/2025                                                                                                                                                                                                                                                                                                                                      NSA00IX000000000000000000150010020000
080110301000600002105339014140000000000000000202500000290150120250000000005336+0000010335                                                                                                                                                                     00000N                    000000000000000000000000025 DIRIA A SANTO NGELO PARA LEVAR PACIENTES PARA REALIZAR CONSULTAS EM SANTA ROSA E SANTO NGELO CONF SD 47/2025                                                                                                                                                                                                                                                                                                NSA00IX000000000000000000150010020000
080110301000600002105339014140000000000000000202500000291150120250000000005336+0000004616                                                                                                                                                                     00000N                    000000000000000000000000025 DE DIRIA A SANTA ROSA PARA LEVAR PACIENTES PARA HEMODILISE CONF SD 50/2025                                                                                                                                                                                                                                                                                                                                  NSA00IX000000000000000000150010020000
080110301000600002105339014140000000000000000202500000292150120250000000005336+0000000150                                                                                                                                                                     00000N                    000000000000000000000000025 DE DIRIA A SANTA ROSA PARA LEVAR PACIENTES PARA CONSULTAS E EXAMES CONF SD 49/2025                                                                                                                                                                                                                                                                                                                          NSA00IX000000000000000000150010020000
080110301000600002105339014140000000000000000202500000037060120250000000005336+0000004616                                                                                                                                                                     00000N                    000000000000000000000000025 DIARIA A SANTA ROSA NO DIA 06012025 PARA LEVAR OS PACIENTES DA LISTA PARA HEMODIALISE                                                                                                                                                                                                                                                                                                                       NSA00IX000000000000000000150010020000
080110301000600002105339014140000000000000000202500000188100120250000000005336+0000000150                                                                                                                                                                     00000N                    000000000000000000000000025 DIARIA A SANTA ROSA NO DIA 11012025 PARA LEVAR OS PACIENTES DA LISTA PARA HEMODIALISE                                                                                                                                                                                                                                                                                                                       NSA00IX000000000000000000150010020000
080110301000600002105339014140000000000000000202500000189100120250000000005336+0000004876                                                                                                                                                                     00000N                    000000000000000000000000025 DIARIA A SANTA ROSA NO DIA 10012025 PARA LEVAR OS PACIENTES DA LISTA PARA HEMODIALISE                                                                                                                                                                                                                                                                                                                       NSA00IX000000000000000000150010020000
080110301000600002105339014140000000000000000202500000190100120250000000005336+0000004616                                                                                                                                                                     00000N                    000000000000000000000000025 DIARIA A SANTA ROSA NO DIA 10012025 PARA LEVAR O VEICULO ONIX PARA REVISO                                                                                                                                                                                                                                                                                                                                   NSA00IX000000000000000000150010020000
080110301000600002105339014140000000000000000202500000191100120250000000005336+0000000150                                                                                                                                                                     00000N                    000000000000000000000000025 DIARIA A SANTA ROSA NO DIA 10012025 LEVAR OS PACIENTES DA LISTA EM ANEXO PARA CONSULTAS E EXAMES                                                                                                                                                                                                                                                                                                            NSA00IX000000000000000000150010020000
080110301000600002105339014140000000000000000202500000352160120250000000005336+0000005713                                                                                                                                                                     00000N                    000000000000000000000000025 DE DIRIA  SANTA ROSA PARA LEVAR PACIENTES PARA  HEMODILISE CONF SD 53/2025                                                                                                                                                                                                                                                                                                                                  NSA00IX000000000000000000150010020000
080110301000600002105339014140000000000000000202500000353160120250000000005336+0000001342                                                                                                                                                                     00000N                    000000000000000000000000025 DE DIRIA  SANTA ROSA PARA LEVAR PACIENTES PARA CONSULTAS E EXAMES CONF SD 54/2025                                                                                                                                                                                                                                                                                                                           NSA00IX000000000000000000150010020000
080110301000600002105339014140000000000000000202500000088070120250000000005336+0000007133                                                                                                                                                                     00000N                    000000000000000000000000025 DIARIA A SANTA ROSA NO DIA 07012025 LEVAR PACIENTE PARA CONSULTA BUSCAR EM CASA PACIENTE CADEIRANTE                                                                                                                                                                                                                                                                                                         NSA00IX000000000000000000150010020000
080110301000600002105339014140000000000000000202500000089070120250000000005336+0000005713                                                                                                                                                                     00000N                    000000000000000000000000025 DIARIA A SANTA ROSA NO DIA 07012025 PARA LEVAR OS PACIENTES DA LISTA PARA CONSULTAS                                                                                                                                                                                                                                                                                                                         NSA00IX000000000000000000150010020000
080110301000600002105339014140000000000000000202500000091070120250000000005336+0000000150                                                                                                                                                                     00000N                    000000000000000000000000025 DIARIA A SANTA ROSA NO DIA 07012025 PARA LEVAR OS PACIENTES DA LISTA PARA HEMODIALISE E PARA RADIOTERAPIA                                                                                                                                                                                                                                                                                                   NSA00IX000000000000000000150010020000
080110301000600002105339014140000000000000000202500000111080120250000000005336+0000000150                                                                                                                                                                     00000N                    000000000000000000000000025 DIARIA A SANTA ROSA NO DIA 08012025 PARA LEVAR OS PACINETES DA LISTA EM ANEXO PARA CONSULTAS E EXAMES                                                                                                                                                                                                                                                                                                       NSA00IX000000000000000000150010020000
080110301000600002105339014140000000000000000202500000112080120250000000005336+0000004616                                                                                                                                                                     00000N                    000000000000000000000000025 DIARIA A IJUI NO DIA 08012025 PARA LEVAR PACIENTE PARA CONSULTA                                                                                                                                                                                                                                                                                                                                             NSA00IX000000000000000000150010020000
080110301000600002105339014140000000000000000202500000113080120250000000005336+0000007133                                                                                                                                                                     00000N                    000000000000000000000000025 DIARIA A SANTA ROSA NO DIA 08012025 PARA LEVAR OS PACIENTES DA LISTA PARA CONSULTAS E EXAMES                                                                                                                                                                                                                                                                                                                NSA00IX000000000000000000150010020000
080110301000600002105339014140000000000000000202500000114080120250000000005336+0000001342                                                                                                                                                                     00000N                    000000000000000000000000025 DIARIA A SANTA ROSA NO DIA 08012025 PARA LEVAR OS PACIENTES DA LISTA PARA HEMODIALISE                                                                                                                                                                                                                                                                                                                       NSA00IX000000000000000000150010020000
080110301000600002105339014140000000000000000202500000115080120250000000005336+0000005713                                                                                                                                                                     00000N                    000000000000000000000000025 DIARIA A GIRU NO DIA 08012025 PARA LEVAR PACIENTE PARA REABILITAO FISICA                                                                                                                                                                                                                                                                                                                                    NSA00IX000000000000000000150010020000
080110301000600002105339014140000000000000000202500000235140120250000000005336+0000005713                                                                                                                                                                     00000N                    000000000000000000000000025 DE DIRIA  SANTA ROSA PARA BUSCAR A PACIENTE G T DE ALTA MEDICA CONF SD35/2025                                                                                                                                                                                                                                                                                                                               NSA00IX000000000000000000150010020000
080110301000600002105339014140000000000000000202500000236140120250000000005336+0000007133                                                                                                                                                                     00000N                    000000000000000000000000025 DE DIRIA  SANTA ROSA PARA LEVAR PACIENTES PARA HEMODILISE CONF SD40/2025                                                                                                                                                                                                                                                                                                                                    NSA00IX000000000000000000150010020000
080110301000600002105339014140000000000000000202500000240140120250000000005336+0000000150                                                                                                                                                                     00000N                    000000000000000000000000025 DE DIRIA A SANTA ROSA PARA LEVAR PACIENTES PARA CONSULTAS E EXAMES EM SANTA ROSA CONF SD 38/2025                                                                                                                                                                                                                                                                                                            NSA00IX000000000000000000150010020000
080110301000600002105339014140000000000000000202500000241140120250000000005336+0000004876                                                                                                                                                                     00000N                    000000000000000000000000025 DE DIRIA A IJU PARA LEVAR PACIENTES PARA CURATIVO E EXAME CONF SD 39/2025                                                                                                                                                                                                                                                                                                                                   NSA00IX000000000000000000150010020000
080110301000600002105339014140000000000000000202500000250140120250000000005336+0000007133                                                                                                                                                                     00000N                    000000000000000000000000025 DE DIRIA A SANTA ROSA PARA LEVAR PACIENTES PARA CONSULTAS E EXAMES CONF SD 45/2025                                                                                                                                                                                                                                                                                                                          NSA00IX000000000000000000150010020000
080110301000600002105339014140000000000000000202500000251140120250000000005336+0000000150                                                                                                                                                                     00000N                    000000000000000000000000025 DE DIRIA  SANTA ROSA PARA LEVAR PACIENTES PARA HEMODILISE E RADIOTERAPIA CONF SD 42/2025                                                                                                                                                                                                                                                                                                                    NSA00IX000000000000000000150010020000
080110301000600002105339014140000000000000000202500000252140120250000000005336+0000001342                                                                                                                                                                     00000N                    000000000000000000000000025 DE DIRIA  IJU PARA LEVAR PACIENTE PARA REALIZAR EXAME CONF SD 44/2025                                                                                                                                                                                                                                                                                                                                       NSA00IX000000000000000000150010020000
080110301000600002105339014140000000000000000202500000253140120250000000005336+0000005713                                                                                                                                                                     00000N                    000000000000000000000000025 DE DIRIA A SANTO NGELO PARA LEVAR PACIENTE PARA REALIZAR CONSULTA CONF SD 43/2025                                                                                                                                                                                                                                                                                                                           NSA00IX000000000000000000150010020000
080110301000600002105339014140000000000000000202500000148090120250000000005336+0000004876                                                                                                                                                                     00000N                    000000000000000000000000025 DIARIA A SANTA ROSA NO DIA 09012025 PARA BUSCAR PACIENTE APS REALIZAR QUIMIOTERAPIA                                                                                                                                                                                                                                                                                                                         NSA00IX000000000000000000150010020000
080110301000600002105339014140000000000000000202500000150090120250000000005336+0000000150                                                                                                                                                                     00000N                    000000000000000000000000025 DIARIA A SANTA ROSA NO DIA 09012025 PARA LEVAR OS PACIENTES DA LISTA PARA HEMODIALISE                                                                                                                                                                                                                                                                                                                       NSA00IX000000000000000000150010020000
080110301000600002105339014140000000000000000202500000151090120250000000005336+0000005713                                                                                                                                                                     00000N                    000000000000000000000000025 DIARIA A IJUI NO DIA 09012025 PARA LEVAR AS PACIENTES DA LISTA PARA CONSULTAS                                                                                                                                                                                                                                                                                                                               NSA00IX000000000000000000150010020000
080110301000600002105339014140000000000000000202500000003020120250000000005336+0000004295                                                                                                                                                                     00000N                    000000000000000000000000025 DIARIA A SANTO ANGELO NO DIA 02012025 PARA LEVAR PACIENTE PARA CONSULTA                                                                                                                                                                                                                                                                                                                                     NSA00IX000000000000000000150010020000
080110301000600002105339014140000000000000000202500000004020120250000000005336+0000005713                                                                                                                                                                     00000N                    000000000000000000000000025 DIARIA A IJUI E SANTA ROSA NO DIA 02012025 PARA LEVAR PACIENTE PARA EXAME EM IJUI E PACIENTES PARA HEMODIALISE EM SANTA ROSA                                                                                                                                                                                                                                                                                NSA00IX000000000000000000150010020000
080110301000600002105339014140000000000000000202500000005020120250000000005336+0000004876                                                                                                                                                                     00000N                    000000000000000000000000025 DIARIA A SANTA ROSA NO DIA 02012025 PARA LEVAR PACIENTE PARA CONSULTA                                                                                                                                                                                                                                                                                                                                       NSA00IX000000000000000000150010020000
080110301000600002105339014140000000000000000202500000007020120250000000005336+0000000150                                                                                                                                                                     00000N                    000000000000000000000000025 DIARIA A SANTA ROSA NO DIA 02012025 PARA LEVAR PACIENTE PARA QUIMIOTERAPIA                                                                                                                                                                                                                                                                                                                                  NSA00IX000000000000000000150010020000
080110301000600002105339014140000000000000000202500000008030120250000000005336+0000001342                                                                                                                                                                     00000N                    000000000000000000000000025 DIARIA A SANTA ROSA NO DIA 03012025 PARA LEVAR OS PACIENTES DA LISTA PARA HEMODIALISE                                                                                                                                                                                                                                                                                                                       NSA00IX000000000000000000150010020000
080110301000600002105339014140000000000000000202500000010030120250000000005336+0000007133                                                                                                                                                                     00000N                    000000000000000000000000025 DIARIA A IJUI NO DIA 03012025 PARA LEVAR OS PACIENTES DA LISTA PARA CONSULTAS                                                                                                                                                                                                                                                                                                                               NSA00IX000000000000000000150010020000
080110301000600002105339014140000000000000000202500000012030120250000000005336+0000000150                                                                                                                                                                     00000N                    000000000000000000000000025 DIARIA A SANTA ROSA NO DIA 05012025 PARA LEVAR OS PACIENTES DA LISTA PARA HEMODIALISE                                                                                                                                                                                                                                                                                                                       NSA00IX000000000000000000150010020000
080110301000600002105339014140000000000000000202500000013030120250000000005336+0000005713                                                                                                                                                                     00000N                    000000000000000000000000025 DIARIA A SANTA ROSA NO DIA 04012025 PARA LEVAR OS PACIENTES DA LISTA PARA HEMODIALISE                                                                                                                                                                                                                                                                                                                       NSA00IX000000000000000000150010020000
060326782001700002073339030390000000000000000202500000169090120250000000005600+0000008372                                                                                                                                                                     00000N                    000000000000000000000000PINO CENTRO DO FEIXE DE MOLAS TRASEIRO PARA CONSERTO DO CAMINHO N 111 PLACA IZZ-1A39 DA MANUTENO DE ESTRADAS                                                                                                                                                                                                                                                                                                    NSA00XX000000000000000000150000000000
080110301000600002105339014140000000000000000202500000935280120250000000005602+0000005713                                                                                                                                                                     00000N                    000000000000000000000000025 DIARIA A IJUI NO DIA 28012025 PARA LEVAR OS PACIENTES DA LISTA PARA CONSULTAS                                                                                                                                                                                                                                                                                                                               NSA00IX000000000000000000150010020000
080110301000600002105339014140000000000000000202500000936280120250000000005602+0000000150                                                                                                                                                                     00000N                    000000000000000000000000025 DIARIA A SANTA ROSA NO DIA 28012025 PARA LEVAR PACIENTES DA LISTA NA HEMODIALISE                                                                                                                                                                                                                                                                                                                            NSA00IX000000000000000000150010020000
080110301000600002105339014140000000000000000202500000537220120250000000005602+0000000150                                                                                                                                                                     00000N                    000000000000000000000000025 DE DIRIA  SANTA ROSA PARA LEVAR PACIENTES PARA CONSULTAS E EXAMES CONF SD 74/2025                                                                                                                                                                                                                                                                                                                           NSA00IX000000000000000000150010020000
080110301000600002105339014140000000000000000202500000538220120250000000005602+0000000321                                                                                                                                                                     00000N                    000000000000000000000000025 DE DIRIA  SANTA ROSA PARA LEVAR PACIENTE PARA QUIMIOTERAPIA E CONSULTA CONF SD 72/2025                                                                                                                                                                                                                                                                                                                      NSA06IX000000000000000000150010020000
080110301000600002105339014140000000000000000202500000539220120250000000005602+0000004876                                                                                                                                                                     00000N                    000000000000000000000000025 DE DIRIA  SANTA ROSA PARA LEVAR PACIENTES PARA HEMODILISE CONF SD 73/2025                                                                                                                                                                                                                                                                                                                                   NSA06IX000000000000000000150010020000
080110301000600002105339014140000000000000000202500000548220120250000000005602+0000010335                                                                                                                                                                     00000N                    000000000000000000000000025 DE DIRIA A IJU PARA LEVAR PACIENTE PARA REALIZAR PROCEDIMENTOCONF SD 77/2025                                                                                                                                                                                                                                                                                                                                NSA00IX000000000000000000150010020000
080110301000600002105339014140000000000000000202500000369170120250000000005602+0000004616                                                                                                                                                                     00000N                    000000000000000000000000025 DE DIRIA  SANTA ROSA PARA LEVAR PACIENTE PARA CONSULTA CONF SD 60/2025                                                                                                                                                                                                                                                                                                                                      NSA00IX000000000000000000150010020000
080110301000600002105339014140000000000000000202500000370170120250000000005602+0000000150                                                                                                                                                                     00000N                    000000000000000000000000025 DE DIRIA  SANTA ROSA PARA LEVAR PACIENTES PARA CONSULTAS E EXAMES CONF SD 57/2025                                                                                                                                                                                                                                                                                                                           NSA00IX000000000000000000150010020000
080110301000600002105339014140000000000000000202500000371170120250000000005602+0000000321                                                                                                                                                                     00000N                    000000000000000000000000025 DE DIRIA  PARA LEVAR PACIENTES PARA CONSULTAS EM IJU E LEVAR PACIENTES PARA HEMODILISE EM SANTA ROSA CONF SD 58/2025                                                                                                                                                                                                                                                                                        NSA00IX000000000000000000150010020000
080110301000600002105339014140000000000000000202500000372170120250000000005602+0000000150                                                                                                                                                                     00000N                    000000000000000000000000025 DE DIRIA   SANTA ROSA NO DIA 18/01/2025 SBADO LEVAR PACIENTES PARA HEMODILISE CONF SD 59/2025                                                                                                                                                                                                                                                                                                               NSA00IX000000000000000000150010020000
080110301000600002105339014140000000000000000202500000559230120250000000005602+0000000321                                                                                                                                                                     00000N                    000000000000000000000000025 DE DIRIA  SANTA ROSA PARA LEVAR PACIENTES PARA CONSULTAS E EXAMES CONF SD 80/2025                                                                                                                                                                                                                                                                                                                           NSA00IX000000000000000000150010020000
080110301000600002105339014140000000000000000202500000561230120250000000005602+0000005713                                                                                                                                                                     00000N                    000000000000000000000000025 DE DIRIA PARA LEVAR PACIENTES EM SANTA ROSA PARA HEMODILISE E LEVAR PACIENTE PARA CONSULTA EM SANTO NGELO CONF SD 78/2025                                                                                                                                                                                                                                                                                   NSA00IX000000000000000000150010020000
080110301000600002105339014140000000000000000202500000952290120250000000005602+0000010335                                                                                                                                                                     00000N                    000000000000000000000000025 DIARIA A SANTA ROSA NO DIA 29012025 PARA LEVAR PACIENTE DA LISTA PARA HEMODIALISE EXTRA                                                                                                                                                                                                                                                                                                                     NSA00IX000000000000000000150010020000
080110301000600002105339014140000000000000000202500000565240120250000000005602+0000004876                                                                                                                                                                     00000N                    000000000000000000000000025 DE DIRIA A IJU PARA LEVAR PACIENTES PARA A REALIZAO DE EXAMES E PACIENTE PARA CONSULTA                                                                                                                                                                                                                                                                                                                      NSA00IX000000000000000000150010020000
080110301000600002105339014140000000000000000202500000954290120250000000005602+0000004758                                                                                                                                                                     00000N                    000000000000000000000000025 DIARIA A IJUI NO DIA 29012025 PARA LEVAR OS PACIENTES DA LISTA PARA CONSULTAS                                                                                                                                                                                                                                                                                                                               NSA00IX000000000000000000150010020000
080110301000600002105339014140000000000000000202500000566240120250000000005602+0000010335                                                                                                                                                                     00000N                    000000000000000000000000025 DE DIRIA A GIRU PARA LEVAR PACIENTES PARA A REALIZAO DE EXAMES E CONSULTAS                                                                                                                                                                                                                                                                                                                                  NSA00IX000000000000000000150010020000
080110301000600002105339014140000000000000000202500000567240120250000000005602+0000005713                                                                                                                                                                     00000N                    000000000000000000000000025 DE DIRIA A SANTA ROSA PARA LEVAR PACIENTES PARA HEMODILISE CONF SD 86/2025                                                                                                                                                                                                                                                                                                                                  NSA00IX000000000000000000150010020000
080110301000600002105339014140000000000000000202500000956290120250000000005602+0000000150                                                                                                                                                                     00000N                    000000000000000000000000025 DIARIA A GIRU NO DIA 29012025 PARA LEVAR OS PACIENTES DA LISTA EM ANEXO PARA CONSULTAS E EXAMES                                                                                                                                                                                                                                                                                                             NSA00IX000000000000000000150010020000
080110301000600002105339014140000000000000000202500000568240120250000000005602+0000005713                                                                                                                                                                     00000N                    000000000000000000000000025 DE DIRIA  SANTA ROSA NO DIA 25/01/2025 SBADO PARA LEVAR PACIENTES PARA HEMODILISE CONF SD 87/2025                                                                                                                                                                                                                                                                                                           NSA00IX000000000000000000150010020000
080110301000600002105339014140000000000000000202500000957290120250000000005602+0000004876                                                                                                                                                                     00000N                    000000000000000000000000025 DIARIA A SANTA ROSA NO DIA 29012025 PARA LEVAR PACIENTE NA HEMODIALISE                                                                                                                                                                                                                                                                                                                                      NSA00IX000000000000000000150010020000
080110301000600002105339014140000000000000000202500000402200120250000000005602+0000004758                                                                                                                                                                     00000N                    000000000000000000000000025 DE DIRIA  SANTA ROSA PARA LEVAR PACIENTE  PARA QUIMIOTERAPIA CONF SD 63/2025                                                                                                                                                                                                                                                                                                                                NSA00IX000000000000000000150010020000
080110301000600002105339014140000000000000000202500000403200120250000000005602+0000000150                                                                                                                                                                     00000N                    000000000000000000000000025 DE DIRIA  SANTA ROSA PARA LEVAR PACIENTES  PARA CONSULTAS E EXAMES CONF SD 64/2025                                                                                                                                                                                                                                                                                                                          NSA00IX000000000000000000150010020000
080110301000600002105339014140000000000000000202500000969300120250000000005602+0000000321                                                                                                                                                                     00000N                    000000000000000000000000025 DIARIA A SANTA ROSA NO DIA 30012025 PARA LEVAR OS PACINTES DA LISTA PARA CONSULTAS                                                                                                                                                                                                                                                                                                                          NSA00IX000000000000000000150010020000
080110301000600002105339014140000000000000000202500000970300120250000000005602+0000000150                                                                                                                                                                     00000N                    000000000000000000000000025 DIARIA A SANTA ROSA NO DIA 30012025 PARA LEVAR OS PACIENTES DA LISTA PARA HEMODIALISE                                                                                                                                                                                                                                                                                                                       NSA00IX000000000000000000150010020000
