87612826000190010120253101202501022025PREFEITURA MUNICIPAL INDEPENDENCIA                                              
020250000073400000000000000000307280120250000000001365+                                                                                                                                                                     000000000000000000000000000000REFERENTE A REMUNERAO DO MES DE JANEIRO DE 2025OBRAS-ESTATUTARIOSHORAS EXTRAS AGRICULTURA                                                                                                                                                                                                                                                                                                                       N00000000000000000000                    0000X000000000   X
020250000021400000000000000000130240120250000000001400+                                                                                                                                                                     000000000000000000000000000000AQUISIO DE CANO SANFONADO PARA MANUTENO DO ESF 01PROCESSO DE LICITAO N 12/2025 DISPENSA N 08/2025                                                                                                                                                                                                                                                                                                               N00000000000000000000                    0000S000008473001X
020250000073100000000000000000304280120250000000001508+                                                                                                                                                                     000000000000000000000000000000REFERENTE A REMUNERAO DO MES DE JANEIRO DE 2025OBRAS-ESTATUTARIOSHORAS EXTRAS EDUCAO                                                                                                                                                                                                                                                                                                                            N00000000000000000000                    0000X000000000   X
020250000017200000000000000000045100120250000000002000+                                                                                                                                                                     000000000000000000000000000000ABRAADEIRAS E EMENDAS PARA CONSERTO DA MANGUEIRA DA LAVAGEM DA SECRETARIA MUNICIPAL DE SERVIOS URBANOS E TRNSITO                                                                                                                                                                                                                                                                                                N00000000000000000000                    0000S0000148891  X
020250000091200000000000000000485280120250000000002247+                                                                                                                                                                     000000000000000000000000000000REFERENTE A REMUNERAO DO MES DE JANEIRO DE 2025SAUDE-PSF01-ESTATUTARIOSHORAS EXTRAS SAUDE                                                                                                                                                                                                                                                                                                                       N00000000000000000000                    0000X000000000   X
020250000075000000000000000000323280120250000000003473+                                                                                                                                                                     000000000000000000000000000000REFERENTE A REMUNERAO DO MES DE JANEIRO DE 2025AGRICULTURA-ESTATUTARIOSHORAS EXTRAS SEC OBRAS                                                                                                                                                                                                                                                                                                                   N00000000000000000000                    0000X000000000   X
020250000037600000000000000000156240120250000000003900+                                                                                                                                                                     000000000000000000000000000000AQUISIO DE TIP TOP N 4 PARA A RETROESCAVADEIRA N 70 DA SECRETARIA MUNICIPAL DE SERVIOS URBANOS E TRNSITO CONF RD 272/2025  PROCESSO DE LICITAO N 32/2024 PREGO ELETRNICO N 04/2024 SRP N 03/2024                                                                                                                                                                                                                N00000000000000000000                    0000S000002518001X
020250000029700000000000000000545300120250000000003900+                                                                                                                                                                     000000000000000000000000000000AQUISIO DE TIP TOP N 4 PARA REPAROS NOS PNEUS DA PATRULHA AGRCOLA CONF RD 217/2025 PROCESSO DE LICITAO N 32/2024  PREGO ELETRNICO N 04/2024 SRP N 03/2024                                                                                                                                                                                                                                                       N00000000000000000000                    0000S0000025341  X
020250000047200000000000000000193270120250000000004300+                                                                                                                                                                     000000000000000000000000000000AQUISIO DE UM ASSENTO SANITRIO QUE SER COLOCADO NO BANHEIRO DA SALA DO CADASTRO NICO CONF RD 353/2025   PROCESSO DE LICITAO N 210/2024 PREGO ELETRNICO N 30/2024 SRP N 16/2024                                                                                                                                                                                                                                  N00000000000000000000                    0000S0000002142  X
020250000046900000000000000000146240120250000000004850+                                                                                                                                                                     000000000000000000000000000000AQUISIO DE FIO QUADRADO 3MM PARA MANUTENO DE EQUIPAMENTOS MOTORIZADOS DE JARDINAGEM PARA SECRETARIA DE SERVIOS URBANOS E TRNSITO- MANUTENO DA LIMPEZA URBANA CONF RD349/2025PROCESSO DE LICITAO N 519/2024 PREGO ELETRNICO N 71/2024 SRP N 45/2024                                                                                                                                                              N00000000000000000000                    0000S000001910002X
020250000064300000000000000000252270120250000000000028+                                                                                                                                                                     000000000000000000000000000000RETENO AO PASEP 1 R CFEM                                                                                                                                                                                                                                                                                                                                                                                        N00000000000000000000                    0000X000000000   X
020250000001300000000000000000012060120250000000005336+                                                                                                                                                                     000000000000000000000000000000025 DIARIA A SANTA ROSA NO DIA 04012025 PARA LEVAR OS PACIENTES DA LISTA PARA HEMODIALISE                                                                                                                                                                                                                                                                                                                       N00000000000000000000                    0000X000000000   X
020250000028800000000000000000067160120250000000005336+                                                                                                                                                                     000000000000000000000000000000025 DE DIRIA A IJU PARA LEVAR PACIENTE PARA REALIZAR EXAME CONF SD 46/2025                                                                                                                                                                                                                                                                                                                                      N00000000000000000000                    0000X000000000   X
020250000029000000000000000000069160120250000000005336+                                                                                                                                                                     000000000000000000000000000000025 DIRIA A SANTO NGELO PARA LEVAR PACIENTES PARA REALIZAR CONSULTAS EM SANTA ROSA E SANTO NGELO CONF SD 47/2025                                                                                                                                                                                                                                                                                                N00000000000000000000                    0000X000000000   X
020250000029100000000000000000070160120250000000005336+                                                                                                                                                                     000000000000000000000000000000025 DE DIRIA A SANTA ROSA PARA LEVAR PACIENTES PARA HEMODILISE CONF SD 50/2025                                                                                                                                                                                                                                                                                                                                  N00000000000000000000                    0000X000000000   X
020250000029200000000000000000071160120250000000005336+                                                                                                                                                                     000000000000000000000000000000025 DE DIRIA A SANTA ROSA PARA LEVAR PACIENTES PARA CONSULTAS E EXAMES CONF SD 49/2025                                                                                                                                                                                                                                                                                                                          N00000000000000000000                    0000X000000000   X
020250000003700000000000000000015060120250000000005336+                                                                                                                                                                     000000000000000000000000000000025 DIARIA A SANTA ROSA NO DIA 06012025 PARA LEVAR OS PACIENTES DA LISTA PARA HEMODIALISE                                                                                                                                                                                                                                                                                                                       N00000000000000000000                    0000X000000000   X
020250000018800000000000000000041100120250000000005336+                                                                                                                                                                     000000000000000000000000000000025 DIARIA A SANTA ROSA NO DIA 11012025 PARA LEVAR OS PACIENTES DA LISTA PARA HEMODIALISE                                                                                                                                                                                                                                                                                                                       N00000000000000000000                    0000X000000000   X
020250000018900000000000000000042100120250000000005336+                                                                                                                                                                     000000000000000000000000000000025 DIARIA A SANTA ROSA NO DIA 10012025 PARA LEVAR OS PACIENTES DA LISTA PARA HEMODIALISE                                                                                                                                                                                                                                                                                                                       N00000000000000000000                    0000X000000000   X
020250000019000000000000000000043100120250000000005336+                                                                                                                                                                     000000000000000000000000000000025 DIARIA A SANTA ROSA NO DIA 10012025 PARA LEVAR O VEICULO ONIX PARA REVISO                                                                                                                                                                                                                                                                                                                                   N00000000000000000000                    0000X000000000   X
020250000019100000000000000000044100120250000000005336+                                                                                                                                                                     000000000000000000000000000000025 DIARIA A SANTA ROSA NO DIA 10012025 LEVAR OS PACIENTES DA LISTA EM ANEXO PARA CONSULTAS E EXAMES                                                                                                                                                                                                                                                                                                            N00000000000000000000                    0000X000000000   X
020250000035200000000000000000075170120250000000005336+                                                                                                                                                                     000000000000000000000000000000025 DE DIRIA  SANTA ROSA PARA LEVAR PACIENTES PARA  HEMODILISE CONF SD 53/2025                                                                                                                                                                                                                                                                                                                                  N00000000000000000000                    0000X000000000   X
020250000035300000000000000000076170120250000000005336+                                                                                                                                                                     000000000000000000000000000000025 DE DIRIA  SANTA ROSA PARA LEVAR PACIENTES PARA CONSULTAS E EXAMES CONF SD 54/2025                                                                                                                                                                                                                                                                                                                           N00000000000000000000                    0000X000000000   X
020250000008800000000000000000020070120250000000005336+                                                                                                                                                                     000000000000000000000000000000025 DIARIA A SANTA ROSA NO DIA 07012025 LEVAR PACIENTE PARA CONSULTA BUSCAR EM CASA PACIENTE CADEIRANTE                                                                                                                                                                                                                                                                                                         N00000000000000000000                    0000X000000000   X
020250000008900000000000000000021070120250000000005336+                                                                                                                                                                     000000000000000000000000000000025 DIARIA A SANTA ROSA NO DIA 07012025 PARA LEVAR OS PACIENTES DA LISTA PARA CONSULTAS                                                                                                                                                                                                                                                                                                                         N00000000000000000000                    0000X000000000   X
020250000009100000000000000000023080120250000000005336+                                                                                                                                                                     000000000000000000000000000000025 DIARIA A SANTA ROSA NO DIA 07012025 PARA LEVAR OS PACIENTES DA LISTA PARA HEMODIALISE E PARA RADIOTERAPIA                                                                                                                                                                                                                                                                                                   N00000000000000000000                    0000X000000000   X
020250000011100000000000000000024080120250000000005336+                                                                                                                                                                     000000000000000000000000000000025 DIARIA A SANTA ROSA NO DIA 08012025 PARA LEVAR OS PACINETES DA LISTA EM ANEXO PARA CONSULTAS E EXAMES                                                                                                                                                                                                                                                                                                       N00000000000000000000                    0000X000000000   X
020250000011200000000000000000025080120250000000005336+                                                                                                                                                                     000000000000000000000000000000025 DIARIA A IJUI NO DIA 08012025 PARA LEVAR PACIENTE PARA CONSULTA                                                                                                                                                                                                                                                                                                                                             N00000000000000000000                    0000X000000000   X
020250000011300000000000000000026080120250000000005336+                                                                                                                                                                     000000000000000000000000000000025 DIARIA A SANTA ROSA NO DIA 08012025 PARA LEVAR OS PACIENTES DA LISTA PARA CONSULTAS E EXAMES                                                                                                                                                                                                                                                                                                                N00000000000000000000                    0000X000000000   X
020250000011400000000000000000027080120250000000005336+                                                                                                                                                                     000000000000000000000000000000025 DIARIA A SANTA ROSA NO DIA 08012025 PARA LEVAR OS PACIENTES DA LISTA PARA HEMODIALISE                                                                                                                                                                                                                                                                                                                       N00000000000000000000                    0000X000000000   X
020250000011500000000000000000028080120250000000005336+                                                                                                                                                                     000000000000000000000000000000025 DIARIA A GIRU NO DIA 08012025 PARA LEVAR PACIENTE PARA REABILITAO FISICA                                                                                                                                                                                                                                                                                                                                    N00000000000000000000                    0000X000000000   X
020250000023500000000000000000055140120250000000005336+                                                                                                                                                                     000000000000000000000000000000025 DE DIRIA  SANTA ROSA PARA BUSCAR A PACIENTE G T DE ALTA MEDICA CONF SD35/2025                                                                                                                                                                                                                                                                                                                               N00000000000000000000                    0000X000000000   X
020250000023600000000000000000056140120250000000005336+                                                                                                                                                                     000000000000000000000000000000025 DE DIRIA  SANTA ROSA PARA LEVAR PACIENTES PARA HEMODILISE CONF SD40/2025                                                                                                                                                                                                                                                                                                                                    N00000000000000000000                    0000X000000000   X
020250000024000000000000000000060140120250000000005336+                                                                                                                                                                     000000000000000000000000000000025 DE DIRIA A SANTA ROSA PARA LEVAR PACIENTES PARA CONSULTAS E EXAMES EM SANTA ROSA CONF SD 38/2025                                                                                                                                                                                                                                                                                                            N00000000000000000000                    0000X000000000   X
020250000024100000000000000000061140120250000000005336+                                                                                                                                                                     000000000000000000000000000000025 DE DIRIA A IJU PARA LEVAR PACIENTES PARA CURATIVO E EXAME CONF SD 39/2025                                                                                                                                                                                                                                                                                                                                   N00000000000000000000                    0000X000000000   X
020250000025000000000000000000062140120250000000005336+                                                                                                                                                                     000000000000000000000000000000025 DE DIRIA A SANTA ROSA PARA LEVAR PACIENTES PARA CONSULTAS E EXAMES CONF SD 45/2025                                                                                                                                                                                                                                                                                                                          N00000000000000000000                    0000X000000000   X
020250000025100000000000000000063140120250000000005336+                                                                                                                                                                     000000000000000000000000000000025 DE DIRIA  SANTA ROSA PARA LEVAR PACIENTES PARA HEMODILISE E RADIOTERAPIA CONF SD 42/2025                                                                                                                                                                                                                                                                                                                    N00000000000000000000                    0000X000000000   X
020250000025200000000000000000064140120250000000005336+                                                                                                                                                                     000000000000000000000000000000025 DE DIRIA  IJU PARA LEVAR PACIENTE PARA REALIZAR EXAME CONF SD 44/2025                                                                                                                                                                                                                                                                                                                                       N00000000000000000000                    0000X000000000   X
020250000025300000000000000000065140120250000000005336+                                                                                                                                                                     000000000000000000000000000000025 DE DIRIA A SANTO NGELO PARA LEVAR PACIENTE PARA REALIZAR CONSULTA CONF SD 43/2025                                                                                                                                                                                                                                                                                                                           N00000000000000000000                    0000X000000000   X
020250000014800000000000000000036090120250000000005336+                                                                                                                                                                     000000000000000000000000000000025 DIARIA A SANTA ROSA NO DIA 09012025 PARA BUSCAR PACIENTE APS REALIZAR QUIMIOTERAPIA                                                                                                                                                                                                                                                                                                                         N00000000000000000000                    0000X000000000   X
020250000015000000000000000000038090120250000000005336+                                                                                                                                                                     000000000000000000000000000000025 DIARIA A SANTA ROSA NO DIA 09012025 PARA LEVAR OS PACIENTES DA LISTA PARA HEMODIALISE                                                                                                                                                                                                                                                                                                                       N00000000000000000000                    0000X000000000   X
020250000015100000000000000000039090120250000000005336+                                                                                                                                                                     000000000000000000000000000000025 DIARIA A IJUI NO DIA 09012025 PARA LEVAR AS PACIENTES DA LISTA PARA CONSULTAS                                                                                                                                                                                                                                                                                                                               N00000000000000000000                    0000X000000000   X
020250000000300000000000000000002060120250000000005336+                                                                                                                                                                     000000000000000000000000000000025 DIARIA A SANTO ANGELO NO DIA 02012025 PARA LEVAR PACIENTE PARA CONSULTA                                                                                                                                                                                                                                                                                                                                     N00000000000000000000                    0000X000000000   X
020250000000400000000000000000003060120250000000005336+                                                                                                                                                                     000000000000000000000000000000025 DIARIA A IJUI E SANTA ROSA NO DIA 02012025 PARA LEVAR PACIENTE PARA EXAME EM IJUI E PACIENTES PARA HEMODIALISE EM SANTA ROSA                                                                                                                                                                                                                                                                                N00000000000000000000                    0000X000000000   X
020250000000500000000000000000004060120250000000005336+                                                                                                                                                                     000000000000000000000000000000025 DIARIA A SANTA ROSA NO DIA 02012025 PARA LEVAR PACIENTE PARA CONSULTA                                                                                                                                                                                                                                                                                                                                       N00000000000000000000                    0000X000000000   X
020250000000700000000000000000006060120250000000005336+                                                                                                                                                                     000000000000000000000000000000025 DIARIA A SANTA ROSA NO DIA 02012025 PARA LEVAR PACIENTE PARA QUIMIOTERAPIA                                                                                                                                                                                                                                                                                                                                  N00000000000000000000                    0000X000000000   X
020250000000800000000000000000007030120250000000005336+                                                                                                                                                                     000000000000000000000000000000025 DIARIA A SANTA ROSA NO DIA 03012025 PARA LEVAR OS PACIENTES DA LISTA PARA HEMODIALISE                                                                                                                                                                                                                                                                                                                       N00000000000000000000                    0000X000000000   X
020250000001000000000000000000009030120250000000005336+                                                                                                                                                                     000000000000000000000000000000025 DIARIA A IJUI NO DIA 03012025 PARA LEVAR OS PACIENTES DA LISTA PARA CONSULTAS                                                                                                                                                                                                                                                                                                                               N00000000000000000000                    0000X000000000   X
020250000001200000000000000000011060120250000000005336+                                                                                                                                                                     000000000000000000000000000000025 DIARIA A SANTA ROSA NO DIA 05012025 PARA LEVAR OS PACIENTES DA LISTA PARA HEMODIALISE                                                                                                                                                                                                                                                                                                                       N00000000000000000000                    0000X000000000   X
020250000016900000000000000000118230120250000000005600+                                                                                                                                                                     000000000000000000000000000000PINO CENTRO DO FEIXE DE MOLAS TRASEIRO PARA CONSERTO DO CAMINHO N 111 PLACA IZZ-1A39 DA MANUTENO DE ESTRADAS                                                                                                                                                                                                                                                                                                    N00000000000000000000                    0000S0000386691  X
020250000093500000000000000000510280120250000000005602+                                                                                                                                                                     000000000000000000000000000000025 DIARIA A IJUI NO DIA 28012025 PARA LEVAR OS PACIENTES DA LISTA PARA CONSULTAS                                                                                                                                                                                                                                                                                                                               N00000000000000000000                    0000X000000000   X
020250000093600000000000000000511280120250000000005602+                                                                                                                                                                     000000000000000000000000000000025 DIARIA A SANTA ROSA NO DIA 28012025 PARA LEVAR PACIENTES DA LISTA NA HEMODIALISE                                                                                                                                                                                                                                                                                                                            N00000000000000000000                    0000X000000000   X
020250000053700000000000000000098220120250000000005602+                                                                                                                                                                     000000000000000000000000000000025 DE DIRIA  SANTA ROSA PARA LEVAR PACIENTES PARA CONSULTAS E EXAMES CONF SD 74/2025                                                                                                                                                                                                                                                                                                                           N00000000000000000000                    0000X000000000   X
020250000053800000000000000000099220120250000000005602+                                                                                                                                                                     000000000000000000000000000000025 DE DIRIA  SANTA ROSA PARA LEVAR PACIENTE PARA QUIMIOTERAPIA E CONSULTA CONF SD 72/2025                                                                                                                                                                                                                                                                                                                      N00000000000000000000                    0000X000000000   X
020250000053900000000000000000100220120250000000005602+                                                                                                                                                                     000000000000000000000000000000025 DE DIRIA  SANTA ROSA PARA LEVAR PACIENTES PARA HEMODILISE CONF SD 73/2025                                                                                                                                                                                                                                                                                                                                   N00000000000000000000                    0000X000000000   X
020250000054800000000000000000101230120250000000005602+                                                                                                                                                                     000000000000000000000000000000025 DE DIRIA A IJU PARA LEVAR PACIENTE PARA REALIZAR PROCEDIMENTOCONF SD 77/2025                                                                                                                                                                                                                                                                                                                                N00000000000000000000                    0000X000000000   X
020250000036900000000000000000080170120250000000005602+                                                                                                                                                                     000000000000000000000000000000025 DE DIRIA  SANTA ROSA PARA LEVAR PACIENTE PARA CONSULTA CONF SD 60/2025                                                                                                                                                                                                                                                                                                                                      N00000000000000000000                    0000X000000000   X
020250000037000000000000000000081170120250000000005602+                                                                                                                                                                     000000000000000000000000000000025 DE DIRIA  SANTA ROSA PARA LEVAR PACIENTES PARA CONSULTAS E EXAMES CONF SD 57/2025                                                                                                                                                                                                                                                                                                                           N00000000000000000000                    0000X000000000   X
020250000037100000000000000000082170120250000000005602+                                                                                                                                                                     000000000000000000000000000000025 DE DIRIA  PARA LEVAR PACIENTES PARA CONSULTAS EM IJU E LEVAR PACIENTES PARA HEMODILISE EM SANTA ROSA CONF SD 58/2025                                                                                                                                                                                                                                                                                        N00000000000000000000                    0000X000000000   X
020250000037200000000000000000083170120250000000005602+                                                                                                                                                                     000000000000000000000000000000025 DE DIRIA   SANTA ROSA NO DIA 18/01/2025 SBADO LEVAR PACIENTES PARA HEMODILISE CONF SD 59/2025                                                                                                                                                                                                                                                                                                               N00000000000000000000                    0000X000000000   X
020250000055900000000000000000132240120250000000005602+                                                                                                                                                                     000000000000000000000000000000025 DE DIRIA  SANTA ROSA PARA LEVAR PACIENTES PARA CONSULTAS E EXAMES CONF SD 80/2025                                                                                                                                                                                                                                                                                                                           N00000000000000000000                    0000X000000000   X
020250000056100000000000000000134240120250000000005602+                                                                                                                                                                     000000000000000000000000000000025 DE DIRIA PARA LEVAR PACIENTES EM SANTA ROSA PARA HEMODILISE E LEVAR PACIENTE PARA CONSULTA EM SANTO NGELO CONF SD 78/2025                                                                                                                                                                                                                                                                                   N00000000000000000000                    0000X000000000   X
020250000095200000000000000000552290120250000000005602+                                                                                                                                                                     000000000000000000000000000000025 DIARIA A SANTA ROSA NO DIA 29012025 PARA LEVAR PACIENTE DA LISTA PARA HEMODIALISE EXTRA                                                                                                                                                                                                                                                                                                                     N00000000000000000000                    0000X000000000   X
020250000056500000000000000000135240120250000000005602+                                                                                                                                                                     000000000000000000000000000000025 DE DIRIA A IJU PARA LEVAR PACIENTES PARA A REALIZAO DE EXAMES E PACIENTE PARA CONSULTA                                                                                                                                                                                                                                                                                                                      N00000000000000000000                    0000X000000000   X
020250000095400000000000000000554290120250000000005602+                                                                                                                                                                     000000000000000000000000000000025 DIARIA A IJUI NO DIA 29012025 PARA LEVAR OS PACIENTES DA LISTA PARA CONSULTAS                                                                                                                                                                                                                                                                                                                               N00000000000000000000                    0000X000000000   X
020250000056600000000000000000136240120250000000005602+                                                                                                                                                                     000000000000000000000000000000025 DE DIRIA A GIRU PARA LEVAR PACIENTES PARA A REALIZAO DE EXAMES E CONSULTAS                                                                                                                                                                                                                                                                                                                                  N00000000000000000000                    0000X000000000   X
020250000056700000000000000000137240120250000000005602+                                                                                                                                                                     000000000000000000000000000000025 DE DIRIA A SANTA ROSA PARA LEVAR PACIENTES PARA HEMODILISE CONF SD 86/2025                                                                                                                                                                                                                                                                                                                                  N00000000000000000000                    0000X000000000   X
020250000095600000000000000000556290120250000000005602+                                                                                                                                                                     000000000000000000000000000000025 DIARIA A GIRU NO DIA 29012025 PARA LEVAR OS PACIENTES DA LISTA EM ANEXO PARA CONSULTAS E EXAMES                                                                                                                                                                                                                                                                                                             N00000000000000000000                    0000X000000000   X
020250000056800000000000000000138240120250000000005602+                                                                                                                                                                     000000000000000000000000000000025 DE DIRIA  SANTA ROSA NO DIA 25/01/2025 SBADO PARA LEVAR PACIENTES PARA HEMODILISE CONF SD 87/2025                                                                                                                                                                                                                                                                                                           N00000000000000000000                    0000X000000000   X
020250000095700000000000000000557290120250000000005602+                                                                                                                                                                     000000000000000000000000000000025 DIARIA A SANTA ROSA NO DIA 29012025 PARA LEVAR PACIENTE NA HEMODIALISE                                                                                                                                                                                                                                                                                                                                      N00000000000000000000                    0000X000000000   X
020250000040200000000000000000086200120250000000005602+                                                                                                                                                                     000000000000000000000000000000025 DE DIRIA  SANTA ROSA PARA LEVAR PACIENTE  PARA QUIMIOTERAPIA CONF SD 63/2025                                                                                                                                                                                                                                                                                                                                N00000000000000000000                    0000X000000000   X
020250000040300000000000000000087200120250000000005602+                                                                                                                                                                     000000000000000000000000000000025 DE DIRIA  SANTA ROSA PARA LEVAR PACIENTES  PARA CONSULTAS E EXAMES CONF SD 64/2025                                                                                                                                                                                                                                                                                                                          N00000000000000000000                    0000X000000000   X
020250000096900000000000000000558310120250000000005602+                                                                                                                                                                     000000000000000000000000000000025 DIARIA A SANTA ROSA NO DIA 30012025 PARA LEVAR OS PACINTES DA LISTA PARA CONSULTAS                                                                                                                                                                                                                                                                                                                          N00000000000000000000                    0000X000000000   X
020250000097000000000000000000559310120250000000005602+                                                                                                                                                                     000000000000000000000000000000025 DIARIA A SANTA ROSA NO DIA 30012025 PARA LEVAR OS PACIENTES DA LISTA PARA HEMODIALISE                                                                                                                                                                                                                                                                                                                       N00000000000000000000                    0000X000000000   X
020250000040500000000000000000089200120250000000005602+                                                                                                                                                                     000000000000000000000000000000025 DE DIRIA A SANTA ROSA PARA LEVAR PACIENTES PARA CONSULTA CONSULTAS E EXAMES EM IJUI E PACIENTES PARA HEMODIALISE EM SANTA ROSA CONF SD 66/2025                                                                                                                                                                                                                                                              N00000000000000000000                    0000X000000000   X
020250000042500000000000000000091210120250000000005602+                                                                                                                                                                     000000000000000000000000000000025 DE DIRIA A IJU PARA LEVAR PACIENTE PARA CONSULTA CONF RD 71/2025                                                                                                                                                                                                                                                                                                                                            N00000000000000000000                    0000X000000000   X
020250000042600000000000000000092210120250000000005602+                                                                                                                                                                     000000000000000000000000000000025 DE DIRIA  SANTA ROSA  PARA LEVAR PACIENTES PARA HEMODILISE CONF RD 70/2025                                                                                                                                                                                                                                                                                                                                  N00000000000000000000                    0000X000000000   X
020250000098900000000000000000563310120250000000005602+                                                                                                                                                                     000000000000000000000000000000025 DIARIA A SANTA ROSA NO DIA 01022025 PARA LEVAR OS PACIENTES DA LISTA PARA HEMODIALISE                                                                                                                                                                                                                                                                                                                       N00000000000000000000                    0000X000000000   X
020250000099000000000000000000564310120250000000005602+                                                                                                                                                                     000000000000000000000000000000025 DIARIA A IJUI NO DIA 31012025 PARA LEVAR OS PACIENTES DA LISTA PARA CONSULTAS                                                                                                                                                                                                                                                                                                                               N00000000000000000000                    0000X000000000   X
020250000042800000000000000000094210120250000000005602+                                                                                                                                                                     000000000000000000000000000000025 DE DIRIA PARA LEVAR PACIENTES PARA EXAMES E CONSULTAS EM IJU E DEMAIS PACIENTES PARA CONSULTAS E EXAMES EM SANTA ROSA CONF SD 68/2025                                                                                                                                                                                                                                                                       N00000000000000000000                    0000X000000000   X
020250000099200000000000000000566310120250000000005602+                                                                                                                                                                     000000000000000000000000000000025 DIARIA A SANTA ROSA E IJUI NO DIA 31012025 PARA LEVAR PACIENTE PARA CONSULTA/AVALIAO EM IJUI E PACIENTES PARA HEMODIALISE EM SANTA ROSA                                                                                                                                                                                                                                                                     N00000000000000000000                    0000X000000000   X
020250000099300000000000000000567310120250000000005602+                                                                                                                                                                     000000000000000000000000000000025 DIARIA A SANTO ANGELO E SANTA ROSA NO DIA 31012025 PARA LEVAR PACIENTE PARA CONSULTA EM SANTO ANGELO LEVAR PACIENTE PARA EXAME EM SANTA ROSA                                                                                                                                                                                                                                                                N00000000000000000000                    0000X000000000   X
020250000059900000000000000000178270120250000000005602+                                                                                                                                                                     000000000000000000000000000000025 DIARIA A SANTA ROSA NO DIA 27012025 PARA LEVAR OS PACIENTES DA LISTA PARA HEMODIALISE EXTRA E PACIENTES PARA CONSULTAS                                                                                                                                                                                                                                                                                      N00000000000000000000                    0000X000000000   X
020250000060000000000000000000179270120250000000005602+                                                                                                                                                                     000000000000000000000000000000025 DIARIA A SANTA ROSA NO DIA 27012025 PARA TRANSFERENCIA DA PACINENTE DO HSVP AO VIDA E SAUDE E LEVAR PACIENTES PARA HEMODIALISE                                                                                                                                                                                                                                                                              N00000000000000000000                    0000X000000000   X
020250000060300000000000000000182270120250000000005602+                                                                                                                                                                     000000000000000000000000000000025 DIARIA A GIRU E SANTA ROSA NO DIA 27012025 PARA LEVAR OS PACIENTES DA LISTA EM ANEXO PARA CONSULTAS E EXAMES                                                                                                                                                                                                                                                                                                N00000000000000000000                    0000X000000000   X
020250000062800000000000000000195270120250000000005602+                                                                                                                                                                     000000000000000000000000000000025 DIRIA  HORIZONTINA NO DIA 27012025 PARA LEVAR USURIO DO CRAS PARA PERCIA MDICA NO INSS DA CIDADE DE HORIZONTINA                                                                                                                                                                                                                                                                                             N00000000000000000000                    0000X000000000   X
020250000071600000000000000000289280120250000000005615+                                                                                                                                                                     000000000000000000000000000000REFERENTE A REMUNERAO DO MES DE JANEIRO DE 2025SERVIOS URBANOS - ESTATUTARIOSAUXILIO DOENA                                                                                                                                                                                                                                                                                                                      N00000000000000000000                    0000X000000000   X
020250000020500000000000000000109230120250000000005694+                                                                                                                                                                     000000000000000000000000000000ALMOO PARA OS SERVIDORES QUE TRABALHARO NO BRECH BENEFICENTE DO CRAS NO DIA 09/01/2025 CNDIDA SCHOTINGER ELIANE PAIM  E FABIANE KOCHHANNPROCESSO DE LICITAO N 25/2024 PREGO ELETRNICO N 03/2024 SRP N 02/2024                                                                                                                                                                                                   N00000000000000000000                    0000S000003690003X
020250000075700000000000000000330280120250000000005853+                                                                                                                                                                     000000000000000000000000000000REFERENTE A REMUNERAO DO MES DE JANEIRO DE 2025PLANEJAMENTO -ESTATUTARIOSADICIONAL NOTURNO                                                                                                                                                                                                                                                                                                                      N00000000000000000000                    0000X000000000   X
020250000093300000000000000000505280120250000000006500+                                                                                                                                                                     000000000000000000000000000000REFERENTE A REMUNERAO DO MES DE JANEIRO DE 2025 MUNICIPIO-INATIVOS-GERAL-INVALID-VLREALSALARIO FAMILIA                                                                                                                                                                                                                                                                                                          N00000000000000000000                    0000X000000000   X
020250000072700000000000000000300280120250000000006500+                                                                                                                                                                     000000000000000000000000000000REFERENTE A REMUNERAO DO MES DE JANEIRO DE 2025OBRAS-ESTATUTARIOSSALARIO FAMILIA                                                                                                                                                                                                                                                                                                                                N00000000000000000000                    0000X000000000   X
020250000032000000000000000000187270120250000000007100+                                                                                                                                                                     000000000000000000000000000000AQUISIO DE MSCARAS PARA UTILIZAO PELOS OPERRIOS QUE REALIZAM SERVIO DE LAVAGEM E ENGRAXAMENTO DE VECULOS DO MUNICPIO CONF RD 210/2025           PROCESSO DE LICITAO N 623/2024 PREGO ELETRNICO N 80/2024 SRP N 51/2024                                                                                                                                                                                          N00000000000000000000                    0000S0000241041  X
020250000082500000000000000000398280120250000000007726+                                                                                                                                                                     000000000000000000000000000000REFERENTE A REMUNERAO DO MES DE JANEIRO DE 2025EDUCTRANSPORTE-ESTATUTHORAS PLANTO MOTORISTAS                                                                                                                                                                                                                                                                                                                    N00000000000000000000                    0000X000000000   X
020250000078000000000000000000353280120250000000008190+                                                                                                                                                                     000000000000000000000000000000REFERENTE A REMUNERAO DO MES DE JANEIRO DE 2025ASSISTENCIA -MOTORISTA-ESTATUTARIOANUENIOS                                                                                                                                                                                                                                                                                                                       N00000000000000000000                    0000X000000000   X
020250000072900000000000000000302280120250000000008207+                                                                                                                                                                     000000000000000000000000000000REFERENTE A REMUNERAO DO MES DE JANEIRO DE 2025OBRAS-ESTATUTARIOSHORAS EXTRAS SAUDE                                                                                                                                                                                                                                                                                                                             N00000000000000000000                    0000X000000000   X
020250000074800000000000000000321280120250000000008369+                                                                                                                                                                     000000000000000000000000000000REFERENTE A REMUNERAO DO MES DE JANEIRO DE 2025AGRICULTURA-ESTATUTARIOS1/3 FERIAS PROPORCIONAIS                                                                                                                                                                                                                                                                                                                 N00000000000000000000                    0000X000000000   X
020250000026700000000000000000112230120250000000008911+                                                                                                                                                                     000000000000000000000000000000AQUISIO DE MATERIAIS DE EXPEDIENTE PARA A SECRETARIA DA AGRICULTURA CONF RD 177/2025PROCESSO DE LICITAO N 636/2024 PREGO ELETRNICO N 83/2024 SRP N 52/2024                                                                                                                                                                                                                                                      N00000000000000000000                    0000S000003023002X
020250000026300000000000000000528300120250000000009000+                                                                                                                                                                     000000000000000000000000000000SERVIO DE LIMPEZA COMPLETA DE AR CONDICIONADO PARA SALA DOS MOTORISTAS DO TRANSPORTE ESCOLAR CONF RD 172/2025 01 UNIDADEPROCESSO DE LICITAO N 583/2024 PREGO ELETRNICO N 76/2024 SRP N 49/2024                                                                                                                                                                                                                  N00000000000000000000                    0000S0000000930  X
020250000055400000000000000000104230120250000000009009+                                                                                                                                                                     000000000000000000000000000000AFERIO DO TACGRAFO DO NIBUS PLACA JBN0B54 DO TRANSPORTE ESCOLAR CONF RD 429/2025                                                                                                                                                                                                                                                                                                                                N00000000000000000000                    0000X000000000   X
020250000028200000000000000000114230120250000000009412+                                                                                                                                                                     000000000000000000000000000000AQUISIO DE MATERIAIS DE EXPEDIENTE PARA UTILIZAO NOS SERVIOS ADMINISTRATIVOS DA SECRETARIA MUNICIPAL DE SERVIOS URBANOS E TRNSITO CONF RD 190/2025          PROCESSO DE LICITAO N 636/2024 PREGO ELETRNICO N 83/2024 SRP N 52/2024                                                                                                                                                                              N00000000000000000000                    0000S000003024002X
020250000097700000000000000000560300120250000000009509+                                                                                                                                                                     000000000000000000000000000000SERVIOS NOTARIAIS REFERENTE COPIA DE MATRCULA DE IMVEIS PARA ATENDER A DEMANDA DO PROGRAMA DE PROTEO DO RIO BURIC LEI N 3126 DE 21 DE DEZEMBRO DE 2022  RECIBO N 68858-A ANEXODESPESA SEM EMPENHO PREVIO                                                                                                                                                                                                        N00000000000000000000                    0000N000000000   X
020250000015500000000000000000164240120250000000009856+                                                                                                                                                                     000000000000000000000000000000RESSARCIMENTO DE DESPESA COM DESLOCAMENTO PARA A SECRETRIA DE SADE A QUAL PARTICIPAR DE REUNIO DA 14 EM SANTA ROSA/RS NO DIA 07/01/25 NO PERODO DA TARDE                                                                                                                                                                                                                                                        N00000000000000000000                    0000X000000000   X
020250000032700000000000000000165240120250000000009856+                                                                                                                                                                     000000000000000000000000000000RESSARCIMENTO REFERENTE A DESLOCAMENTO COM VECULO PRPRIO PARA A SECRETRIA DE SADE QUE PARTICIPAR NO DIA 15/01/25 NO PERODO DA TARDE DE REUNIO DA CIR JUNTO A 14 CRS EM SANTA ROSA-RS CONFORME LEI MUNICIPAL N 2917/19 E DECRETO N 06/2024 CONF RD 233/2025DESPESA SEM EMPENHO PRVIO                                                                                                                             N00000000000000000000                    0000X000000000   X
020250000019300000000000000000053100120250000000009997+                                                                                                                                                                     000000000000000000000000000000SERVIOS DE LICENA DE USO PRODUTO PROCERGS APLICATIVO PARA GESTO ADMINISTRATIVA DE RECURSOS DE MULTAS DETRNSITOSISTEMA EML - EMULAO DE TERMINAL                                                                                                                                                                                                                                                                  N00000000000000000000                    0000S000158922U  X
020250000086300000000000000000436280120250000000010000+                                                                                                                                                                     000000000000000000000000000000REFERENTE A REMUNERAO DO MES DE JANEIRO DE 2025SAUDE-SECRETARIA-ESTATUTARIOSGARTIFICAO PSF                                                                                                                                                                                                                                                                                                                      N00000000000000000000                    0000X000000000   X
020250000064600000000000000000506280120250000000010000+                                                                                                                                                                     000000000000000000000000000000CONTRIBUIO PATRONAL 20 SOBRE LIQUIDAO DE SERVIOS PRESTADOS POR MEINE 11284/2024VALOR R 50000DATA DA LIQUIDAO 09012024NIT 1233789817-4NELSON ADO BARROS PACHECO-MEICNPJ  28825878/0001-85                                                                                                                                                                                                                        N00000000000000000000                    0000X000000000   X
020250000026800000000000000000107230120250000000010044+                                                                                                                                                                     000000000000000000000000000000AQUISIO DE MATERIAIS DE EXPEDIENTE PARA A SECRETARIA DA AGRICULTURA CONF RD 176/2025PROCESSO DE LICITAO N 636/2024 PREGO ELETRNICO N 83/2024 SRP N 52/2024                                                                                                                                                                                                                                                      N00000000000000000000                    0000S0000140921  X
020250000101400000000000000000571310120250000000010591+                                                                                                                                                                     000000000000000000000000000000CONTRIBUIO AO FGTS REF REMUNERAO DE JANEIRO/2025734 - 3 - SECRETARIA DE SAUDE - PPI R 256197581 - 8 - AGENTES DE SAUDE PSF01 - R 289877601 - 1 - SAUDE-PSF01 - CLT - INGUE - R 10591581 - 8 - AGENTES DE SAUDE PSF02 - R 97150                                                                                                                                                                                  N00000000000000000000                    0000X000000000   X
020250000028900000000000000000068160120250000000010671+                                                                                                                                                                     000000000000000000000000000000050 DIRIA A PASSO FUNDO PARA LEVAR PACIENTE PARA REALIZAR CONSULTA CONF SD 48/2025                                                                                                                                                                                                                                                                                                                              N00000000000000000000                    0000X000000000   X
020250000003800000000000000000016060120250000000010671+                                                                                                                                                                     000000000000000000000000000000050 DIARIA A PASSO FUNDO NO DIA 06012025 PARA LEVAR PACIENTE PARA RADIOTERAPIA                                                                                                                                                                                                                                                                                                                                  N00000000000000000000                    0000X000000000   X
020250000035000000000000000000073170120250000000010671+                                                                                                                                                                     000000000000000000000000000000050 DIRIA A PASSO FUNDO PARA LEVAR PACIENTE PARA EXAME E CONSULTA CONF SD 51/2025                                                                                                                                                                                                                                                                                                                               N00000000000000000000                    0000X000000000   X
020250000035100000000000000000074170120250000000010671+                                                                                                                                                                     000000000000000000000000000000050 DIRIA  SO BORJA PARA LEVAR PACIENTES PARA  CONSULTAS CONF SD 52/2025                                                                                                                                                                                                                                                                                                                                        N00000000000000000000                    0000X000000000   X
020250000009000000000000000000022070120250000000010671+                                                                                                                                                                     000000000000000000000000000000050 DIARIA A SANTA MARIA NO DIA 07012025 PARA LEVAR PACIENTE PARA CONSULTA E LEVAR MATERIAL DA VIGILANCIA EPIDEMIOLOGICA                                                                                                                                                                                                                                                                                        N00000000000000000000                    0000X000000000   X
020250000023700000000000000000057140120250000000010671+                                                                                                                                                                     000000000000000000000000000000050 DE DIRIA A PASSO FUNDO PARA SERVIDORA ACOMPANHAR A TRANSFERNCIA DE PACIENTE DE PASSO FUNDO AT O HSVP DE TRS DE MAIO CONF SD41/2025                                                                                                                                                                                                                                                                          N00000000000000000000                    0000X000000000   X
020250000023800000000000000000058140120250000000010671+                                                                                                                                                                     000000000000000000000000000000050 DIRIA A PASSO FUNDO PARA LEVAR PACIENTES PARA CONSULTAS E EXAMES EM IJU E PARA BUSCAR PACIENTE DE PASSO FUNDO AT O HSVP DE TRS DE MAIO CONF SD 37/2025                                                                                                                                                                                                                                                      N00000000000000000000                    0000X000000000   X
020250000023900000000000000000059140120250000000010671+                                                                                                                                                                     000000000000000000000000000000050 DIRIA A PASSO FUNDO PARA LEVAR PACIENTE PARA CONSULTA EM PASSO FUNDO CONF SD 36/2025                                                                                                                                                                                                                                                                                                                        N00000000000000000000                    0000X000000000   X
020250000000600000000000000000005060120250000000010671+                                                                                                                                                                     000000000000000000000000000000050 DIARIA A PASSO FUNDO NO DIA 02012025 PARA LEVAR PACIENTE PARA RADIOTERAPIA                                                                                                                                                                                                                                                                                                                                  N00000000000000000000                    0000X000000000   X
020250000001100000000000000000010060120250000000010671+                                                                                                                                                                     000000000000000000000000000000050 DIARIA A PASSO FUNDO NO DIA 03012025 PARA BUSCAR PACIENTE DE ALTA MEDICA                                                                                                                                                                                                                                                                                                                                    N00000000000000000000                    0000X000000000   X
020250000016500000000000000000210280120250000000010800+                                                                                                                                                                     00000000000000000000000000000001 TOKEN PARA CERTIFICADO DIGITAL  E-CPF A3 PARA O SECRETRIO DA FAZENDA                                                                                                                                                                                                                                                                                                                                         N00000000000000000000                    0000S0000179371  X
020250000016400000000000000000209280120250000000010800+                                                                                                                                                                     00000000000000000000000000000001 TOKEN PARA CERTIFICADO DIGITAL  E-CPF A3 PARA A SECRETRIA DA SADE                                                                                                                                                                                                                                                                                                                                            N00000000000000000000                    0000S0000179371  X
020250000093700000000000000000512280120250000000011204+                                                                                                                                                                     000000000000000000000000000000050 DIARIA A PASSO FUNDO NO DIA 28012025 PARA LEVAR OS PACIENTES DA LISTA PARA CONSULTAS                                                                                                                                                                                                                                                                                                                        N00000000000000000000                    0000X000000000   X
020250000056000000000000000000133240120250000000011204+                                                                                                                                                                     000000000000000000000000000000050 DIRIA PARA LEVAR PACIENTE A IJU E BUSCAR PACIENTE DE ALTA MDICA EM PASSO FUNDO CONF SD 79/2025                                                                                                                                                                                                                                                                                                              N00000000000000000000                    0000X000000000   X
020250000095500000000000000000555290120250000000011204+                                                                                                                                                                     000000000000000000000000000000050 DIARIA A PASSO FUNDO NO DIA 29012025 PARA LEVAR PACIENTE PARA EXAME E CONSULTA                                                                                                                                                                                                                                                                                                                              N00000000000000000000                    0000X000000000   X
020250000039900000000000000000084200120250000000011204+                                                                                                                                                                     000000000000000000000000000000050 DIRIA A PASSO FUNDO PARA BUSCAR PACIENTE APS ALTA MEDICA E RADIOTERAPIA CONF SD 56/2025                                                                                                                                                                                                                                                                                                                     N00000000000000000000                    0000X000000000   X
020250000040400000000000000000088200120250000000011204+                                                                                                                                                                     000000000000000000000000000000050 DIRIA A PASSO FUNDO PARA LEVAR PACIENTE  PARA RADIOTERAPIA CONF SD 65/2025                                                                                                                                                                                                                                                                                                                                  N00000000000000000000                    0000X000000000   X
020250000042700000000000000000093210120250000000011204+                                                                                                                                                                     000000000000000000000000000000050 DE DIRIA A PASSO FUNDO  PARA LEVAR PACIENTE PARA EXAME CONF RD 69/2025                                                                                                                                                                                                                                                                                                                                      N00000000000000000000                    0000X000000000   X
020250000075400000000000000000327280120250000000011726+                                                                                                                                                                     000000000000000000000000000000REFERENTE A REMUNERAO DO MES DE JANEIRO DE 2025PLANEJAMENTO -ESTATUTARIOSANUENIOS                                                                                                                                                                                                                                                                                                                               N00000000000000000000                    0000X000000000   X
020250000083200000000000000000405280120250000000012304+                                                                                                                                                                     000000000000000000000000000000REFERENTE A REMUNERAO DO MES DE JANEIRO DE 2025EDUCOPERRIO ESPECIALIZADO-ESTATANUENIOS                                                                                                                                                                                                                                                                                                                          N00000000000000000000                    0000X000000000   X
020250000003100000000000000000049100120250000000012500+                                                                                                                                                                     000000000000000000000000000000GS DE COZINHA GLP 13KG PARA USO DOS SERVIDORES DA SECRETARIA DE OBRAS E VIAO           PROCESSO DE LICITAO N 373/2024 PREGO ELETRNICO N 54/2024 SRP N 32/2024                                                                                                                                                                                                                                                   N00000000000000000000                    0000S0000005621  X
020250000071700000000000000000290280120250000000013000+                                                                                                                                                                     000000000000000000000000000000REFERENTE A REMUNERAO DO MES DE JANEIRO DE 2025SERVIOS URBANOS - ESTATUTARIOSSALARIO FAMILIA                                                                                                                                                                                                                                                                                                                    N00000000000000000000                    0000X000000000   X
020250000084500000000000000000418280120250000000013510+                                                                                                                                                                     000000000000000000000000000000REFERENTE A REMUNERAO DO MES DE JANEIRO DE 2025EDUC AUXALIMHIGIENE-INFANTIL-CLT13 SALARIO                                                                                                                                                                                                                                                                                                                       N00000000000000000000                    0000X000000000   X
020250000081400000000000000000387280120250000000015483+                                                                                                                                                                     000000000000000000000000000000REFERENTE A REMUNERAO DO MES DE JANEIRO DE 2025EDUCPROFESSOR-FUNDA-FINAIS-ESTATHORAS EXTRAS EDUCAO                                                                                                                                                                                                                                                                                                              N00000000000000000000                    0000X000000000   X
020250000090300000000000000000476280120250000000016349+                                                                                                                                                                     000000000000000000000000000000REFERENTE A REMUNERAO DO MES DE JANEIRO DE 2025SAUDE-PSF01- BUCAL-ESTATUTARIOSVENCIMENTO                                                                                                                                                                                                                                                                                                                        N00000000000000000000                    0000X000000000   X
020250000102600000000000000000583310120250000000017212+                                                                                                                                                                     000000000000000000000000000000CONTRIB PATRONAL AO INSS REF REMUNERAO DO MES DE JANEIRO DE 2025EDUC - AUX ALIM E HIGIENE - CLT                                                                                                                                                                                                                                                                                                                 N00000000000000000000                    0000X000000000   X
020250000012200000000000000000194270120250000000017500+                                                                                                                                                                     000000000000000000000000000000MATERIAL DE EXPEDIENTE - CADERNOS DE PROTOCOLO PARA CONTROLE DE EMPRSTIMOS DE LICITAES E CONTROLE DOS PROCESSOS CRIADOS PELO SETOR DE COMPRAS           PROCESSO DE LICITAO N 327/2024 PREGO ELETRNICO N 48/2024 SRP N 29/2024                                                                                                                                                                                  N00000000000000000000                    0000S0000030382  X
020250000073300000000000000000306280120250000000018078+                                                                                                                                                                     000000000000000000000000000000REFERENTE A REMUNERAO DO MES DE JANEIRO DE 2025OBRAS-ESTATUTARIOSHORAS EXTRAS SEC OBRAS                                                                                                                                                                                                                                                                                                                         N00000000000000000000                    0000X000000000   X
020250000093800000000000000000513280120250000000018282+                                                                                                                                                                     000000000000000000000000000000050 DIARIA A CANOAS NO DIA 28012025 PARA LEVAR FAMILIARES DE PACIENTE INTERNADO EM CLINICA PSIQUIATRICA PARA VISITA E TRATAR ASSUNTOS RELACIONADOS AO SEU TRATAMENTO                                                                                                                                                                                                                                            N00000000000000000000                    0000X000000000   X
020250000040600000000000000000090200120250000000018282+                                                                                                                                                                     000000000000000000000000000000050 DIRIA A ERECHIM PARA LEVAR PACIENTE PARA CONSULTA CONF SD 67/2025                                                                                                                                                                                                                                                                                                                                           N00000000000000000000                    0000X000000000   X
020250000070900000000000000000282280120250000000018383+                                                                                                                                                                     000000000000000000000000000000REFERENTE A REMUNERAO DO MES DE JANEIRO DE 2025ADMINISTRAO-INFORMTICA-ESTATANUENIOS                                                                                                                                                                                                                                                                                                                             N00000000000000000000                    0000X000000000   X
020250000044100000000000000000150240120250000000019100+                                                                                                                                                                     000000000000000000000000000000CONSERTO DE PNEU DA PATROLA 83 DA MANUTENO DE ESTRADAS RURAIS CONF RD 322/2025PROCESSO DE LICITAO N 32/2024 PREGO ELETRNICO N 04/2024 SRP N 03/2024                                                                                                                                                                                                                                                             N00000000000000000000                    0000S0000011261  X
