87612826000190010120253101202501022025PREFEITURA MUNICIPAL INDEPENDENCIA                                              
020250000073400000000000000762795300120250000000001365+                                                                                                                                                      000000021311010101000201000000021311010101000201REFERENTE A REMUNERAO DO MES DE JANEIRO DE 2025OBRAS-ESTATUTARIOSHORAS EXTRAS AGRICULTURA                                                                                                                                                                                                                                                                                                                       00000000000000000223
020250000073100000000000000762792300120250000000001508+                                                                                                                                                      000000021311010101000201000000021311010101000201REFERENTE A REMUNERAO DO MES DE JANEIRO DE 2025OBRAS-ESTATUTARIOSHORAS EXTRAS EDUCAO                                                                                                                                                                                                                                                                                                                            00000000000000000220
020250000017200000000000000761205100120250000000002000+                                                                                                                                                      000000021311010101000201000000021311010101000201ABRAADEIRAS E EMENDAS PARA CONSERTO DA MANGUEIRA DA LAVAGEM DA SECRETARIA MUNICIPAL DE SERVIOS URBANOS E TRNSITO                                                                                                                                                                                                                                                                                                00000000000000000032
020250000091200000000000000762931300120250000000002247+                                                                                                                                                      000000021311010101000201000000021311010101000201REFERENTE A REMUNERAO DO MES DE JANEIRO DE 2025SAUDE-PSF01-ESTATUTARIOSHORAS EXTRAS SAUDE                                                                                                                                                                                                                                                                                                                       00000000000000000359
020250000075000000000000000762811300120250000000003473+                                                                                                                                                      000000021311010101000201000000021311010101000201REFERENTE A REMUNERAO DO MES DE JANEIRO DE 2025AGRICULTURA-ESTATUTARIOSHORAS EXTRAS SEC OBRAS                                                                                                                                                                                                                                                                                                                   00000000000000000239
020250000047200000000000000762712300120250000000004300+                                                                                                                                                      000000021311010101000201000000021311010101000201AQUISIO DE UM ASSENTO SANITRIO QUE SER COLOCADO NO BANHEIRO DA SALA DO CADASTRO NICO CONF RD 353/2025   PROCESSO DE LICITAO N 210/2024 PREGO ELETRNICO N 30/2024 SRP N 16/2024                                                                                                                                                                                                                                  00000000000000000144
020250000064300000000000000762055270120250000000000028+                                                                                                                                                      000000021311010101000201000000021311010101000201RETENO AO PASEP 1 R CFEM                                                                                                                                                                                                                                                                                                                                                                                        00000000000000000089
020250000001000000000000000760944080120250000000005336+                                                                                                                                                      000000021311010101000201000000021311010101000201025 DIARIA A IJUI NO DIA 03012025 PARA LEVAR OS PACIENTES DA LISTA PARA CONSULTAS                                                                                                                                                                                                                                                                                                                               00000000000000000004
020250000000300000000000000760946080120250000000005336+                                                                                                                                                      000000021311010101000201000000021311010101000201025 DIARIA A SANTO ANGELO NO DIA 02012025 PARA LEVAR PACIENTE PARA CONSULTA                                                                                                                                                                                                                                                                                                                                     00000000000000000006
020250000000800000000000000760947080120250000000005336+                                                                                                                                                      000000021311010101000201000000021311010101000201025 DIARIA A SANTA ROSA NO DIA 03012025 PARA LEVAR OS PACIENTES DA LISTA PARA HEMODIALISE                                                                                                                                                                                                                                                                                                                       00000000000000000007
020250000003700000000000000760949080120250000000005336+                                                                                                                                                      000000021311010101000201000000021311010101000201025 DIARIA A SANTA ROSA NO DIA 06012025 PARA LEVAR OS PACIENTES DA LISTA PARA HEMODIALISE                                                                                                                                                                                                                                                                                                                       00000000000000000009
020250000000500000000000000760951080120250000000005336+                                                                                                                                                      000000021311010101000201000000021311010101000201025 DIARIA A SANTA ROSA NO DIA 02012025 PARA LEVAR PACIENTE PARA CONSULTA                                                                                                                                                                                                                                                                                                                                       00000000000000000011
020250000000400000000000000760953080120250000000005336+                                                                                                                                                      000000021311010101000201000000021311010101000201025 DIARIA A IJUI E SANTA ROSA NO DIA 02012025 PARA LEVAR PACIENTE PARA EXAME EM IJUI E PACIENTES PARA HEMODIALISE EM SANTA ROSA                                                                                                                                                                                                                                                                                00000000000000000013
020250000001300000000000000760954080120250000000005336+                                                                                                                                                      000000021311010101000201000000021311010101000201025 DIARIA A SANTA ROSA NO DIA 04012025 PARA LEVAR OS PACIENTES DA LISTA PARA HEMODIALISE                                                                                                                                                                                                                                                                                                                       00000000000000000014
020250000000700000000000000760956080120250000000005336+                                                                                                                                                      000000021311010101000201000000021311010101000201025 DIARIA A SANTA ROSA NO DIA 02012025 PARA LEVAR PACIENTE PARA QUIMIOTERAPIA                                                                                                                                                                                                                                                                                                                                  00000000000000000016
020250000015000000000000000761212100120250000000005336+                                                                                                                                                      000000021311010101000201000000021311010101000201025 DIARIA A SANTA ROSA NO DIA 09012025 PARA LEVAR OS PACIENTES DA LISTA PARA HEMODIALISE                                                                                                                                                                                                                                                                                                                       00000000000000000036
020250000001200000000000000760957080120250000000005336+                                                                                                                                                      000000021311010101000201000000021311010101000201025 DIARIA A SANTA ROSA NO DIA 05012025 PARA LEVAR OS PACIENTES DA LISTA PARA HEMODIALISE                                                                                                                                                                                                                                                                                                                       00000000000000000017
020250000011100000000000000761213100120250000000005336+                                                                                                                                                      000000021311010101000201000000021311010101000201025 DIARIA A SANTA ROSA NO DIA 08012025 PARA LEVAR OS PACINETES DA LISTA EM ANEXO PARA CONSULTAS E EXAMES                                                                                                                                                                                                                                                                                                       00000000000000000037
020250000009100000000000000761214100120250000000005336+                                                                                                                                                      000000021311010101000201000000021311010101000201025 DIARIA A SANTA ROSA NO DIA 07012025 PARA LEVAR OS PACIENTES DA LISTA PARA HEMODIALISE E PARA RADIOTERAPIA                                                                                                                                                                                                                                                                                                   00000000000000000038
020250000018800000000000000761215100120250000000005336+                                                                                                                                                      000000021311010101000201000000021311010101000201025 DIARIA A SANTA ROSA NO DIA 11012025 PARA LEVAR OS PACIENTES DA LISTA PARA HEMODIALISE                                                                                                                                                                                                                                                                                                                       00000000000000000039
020250000019100000000000000761216100120250000000005336+                                                                                                                                                      000000021311010101000201000000021311010101000201025 DIARIA A SANTA ROSA NO DIA 10012025 LEVAR OS PACIENTES DA LISTA EM ANEXO PARA CONSULTAS E EXAMES                                                                                                                                                                                                                                                                                                            00000000000000000040
020250000015100000000000000761217100120250000000005336+                                                                                                                                                      000000021311010101000201000000021311010101000201025 DIARIA A IJUI NO DIA 09012025 PARA LEVAR AS PACIENTES DA LISTA PARA CONSULTAS                                                                                                                                                                                                                                                                                                                               00000000000000000041
020250000008900000000000000761218100120250000000005336+                                                                                                                                                      000000021311010101000201000000021311010101000201025 DIARIA A SANTA ROSA NO DIA 07012025 PARA LEVAR OS PACIENTES DA LISTA PARA CONSULTAS                                                                                                                                                                                                                                                                                                                         00000000000000000042
020250000011500000000000000761219100120250000000005336+                                                                                                                                                      000000021311010101000201000000021311010101000201025 DIARIA A GIRU NO DIA 08012025 PARA LEVAR PACIENTE PARA REABILITAO FISICA                                                                                                                                                                                                                                                                                                                                    00000000000000000043
020250000018900000000000000761221100120250000000005336+                                                                                                                                                      000000021311010101000201000000021311010101000201025 DIARIA A SANTA ROSA NO DIA 10012025 PARA LEVAR OS PACIENTES DA LISTA PARA HEMODIALISE                                                                                                                                                                                                                                                                                                                       00000000000000000045
020250000014800000000000000761222100120250000000005336+                                                                                                                                                      000000021311010101000201000000021311010101000201025 DIARIA A SANTA ROSA NO DIA 09012025 PARA BUSCAR PACIENTE APS REALIZAR QUIMIOTERAPIA                                                                                                                                                                                                                                                                                                                         00000000000000000046
020250000019000000000000000761223100120250000000005336+                                                                                                                                                      000000021311010101000201000000021311010101000201025 DIARIA A SANTA ROSA NO DIA 10012025 PARA LEVAR O VEICULO ONIX PARA REVISO                                                                                                                                                                                                                                                                                                                                   00000000000000000047
020250000011200000000000000761224100120250000000005336+                                                                                                                                                      000000021311010101000201000000021311010101000201025 DIARIA A IJUI NO DIA 08012025 PARA LEVAR PACIENTE PARA CONSULTA                                                                                                                                                                                                                                                                                                                                             00000000000000000048
020250000011300000000000000761225100120250000000005336+                                                                                                                                                      000000021311010101000201000000021311010101000201025 DIARIA A SANTA ROSA NO DIA 08012025 PARA LEVAR OS PACIENTES DA LISTA PARA CONSULTAS E EXAMES                                                                                                                                                                                                                                                                                                                00000000000000000049
020250000008800000000000000761226100120250000000005336+                                                                                                                                                      000000021311010101000201000000021311010101000201025 DIARIA A SANTA ROSA NO DIA 07012025 LEVAR PACIENTE PARA CONSULTA BUSCAR EM CASA PACIENTE CADEIRANTE                                                                                                                                                                                                                                                                                                         00000000000000000050
020250000011400000000000000761228100120250000000005336+                                                                                                                                                      000000021311010101000201000000021311010101000201025 DIARIA A SANTA ROSA NO DIA 08012025 PARA LEVAR OS PACIENTES DA LISTA PARA HEMODIALISE                                                                                                                                                                                                                                                                                                                       00000000000000000052
020250000029000000000000000762018170120250000000005336+                                                                                                                                                      000000021311010101000201000000021311010101000201025 DIRIA A SANTO NGELO PARA LEVAR PACIENTES PARA REALIZAR CONSULTAS EM SANTA ROSA E SANTO NGELO CONF SD 47/2025                                                                                                                                                                                                                                                                                                00000000000000000056
020250000025000000000000000762019170120250000000005336+                                                                                                                                                      000000021311010101000201000000021311010101000201025 DE DIRIA A SANTA ROSA PARA LEVAR PACIENTES PARA CONSULTAS E EXAMES CONF SD 45/2025                                                                                                                                                                                                                                                                                                                          00000000000000000057
020250000023600000000000000762020170120250000000005336+                                                                                                                                                      000000021311010101000201000000021311010101000201025 DE DIRIA  SANTA ROSA PARA LEVAR PACIENTES PARA HEMODILISE CONF SD40/2025                                                                                                                                                                                                                                                                                                                                    00000000000000000058
020250000029100000000000000762021170120250000000005336+                                                                                                                                                      000000021311010101000201000000021311010101000201025 DE DIRIA A SANTA ROSA PARA LEVAR PACIENTES PARA HEMODILISE CONF SD 50/2025                                                                                                                                                                                                                                                                                                                                  00000000000000000059
020250000025200000000000000762024170120250000000005336+                                                                                                                                                      000000021311010101000201000000021311010101000201025 DE DIRIA  IJU PARA LEVAR PACIENTE PARA REALIZAR EXAME CONF SD 44/2025                                                                                                                                                                                                                                                                                                                                       00000000000000000062
020250000035300000000000000762025170120250000000005336+                                                                                                                                                      000000021311010101000201000000021311010101000201025 DE DIRIA  SANTA ROSA PARA LEVAR PACIENTES PARA CONSULTAS E EXAMES CONF SD 54/2025                                                                                                                                                                                                                                                                                                                           00000000000000000063
020250000028800000000000000762026170120250000000005336+                                                                                                                                                      000000021311010101000201000000021311010101000201025 DE DIRIA A IJU PARA LEVAR PACIENTE PARA REALIZAR EXAME CONF SD 46/2025                                                                                                                                                                                                                                                                                                                                      00000000000000000064
020250000024100000000000000762027170120250000000005336+                                                                                                                                                      000000021311010101000201000000021311010101000201025 DE DIRIA A IJU PARA LEVAR PACIENTES PARA CURATIVO E EXAME CONF SD 39/2025                                                                                                                                                                                                                                                                                                                                   00000000000000000065
020250000025300000000000000762030170120250000000005336+                                                                                                                                                      000000021311010101000201000000021311010101000201025 DE DIRIA A SANTO NGELO PARA LEVAR PACIENTE PARA REALIZAR CONSULTA CONF SD 43/2025                                                                                                                                                                                                                                                                                                                           00000000000000000068
020250000023500000000000000762031170120250000000005336+                                                                                                                                                      000000021311010101000201000000021311010101000201025 DE DIRIA  SANTA ROSA PARA BUSCAR A PACIENTE G T DE ALTA MEDICA CONF SD35/2025                                                                                                                                                                                                                                                                                                                               00000000000000000069
020250000035200000000000000762032170120250000000005336+                                                                                                                                                      000000021311010101000201000000021311010101000201025 DE DIRIA  SANTA ROSA PARA LEVAR PACIENTES PARA  HEMODILISE CONF SD 53/2025                                                                                                                                                                                                                                                                                                                                  00000000000000000070
020250000024000000000000000762033170120250000000005336+                                                                                                                                                      000000021311010101000201000000021311010101000201025 DE DIRIA A SANTA ROSA PARA LEVAR PACIENTES PARA CONSULTAS E EXAMES EM SANTA ROSA CONF SD 38/2025                                                                                                                                                                                                                                                                                                            00000000000000000071
020250000025100000000000000762034170120250000000005336+                                                                                                                                                      000000021311010101000201000000021311010101000201025 DE DIRIA  SANTA ROSA PARA LEVAR PACIENTES PARA HEMODILISE E RADIOTERAPIA CONF SD 42/2025                                                                                                                                                                                                                                                                                                                    00000000000000000072
020250000029200000000000000762035170120250000000005336+                                                                                                                                                      000000021311010101000201000000021311010101000201025 DE DIRIA A SANTA ROSA PARA LEVAR PACIENTES PARA CONSULTAS E EXAMES CONF SD 49/2025                                                                                                                                                                                                                                                                                                                          00000000000000000073
020250000056500000000000000762071280120250000000005602+                                                                                                                                                      000000021311010101000201000000021311010101000201025 DE DIRIA A IJU PARA LEVAR PACIENTES PARA A REALIZAO DE EXAMES E PACIENTE PARA CONSULTA                                                                                                                                                                                                                                                                                                                      00000000000000000103
020250000053900000000000000762073280120250000000005602+                                                                                                                                                      000000021311010101000201000000021311010101000201025 DE DIRIA  SANTA ROSA PARA LEVAR PACIENTES PARA HEMODILISE CONF SD 73/2025                                                                                                                                                                                                                                                                                                                                   00000000000000000105
020250000042500000000000000762074280120250000000005602+                                                                                                                                                      000000021311010101000201000000021311010101000201025 DE DIRIA A IJU PARA LEVAR PACIENTE PARA CONSULTA CONF RD 71/2025                                                                                                                                                                                                                                                                                                                                            00000000000000000106
020250000059900000000000000762075280120250000000005602+                                                                                                                                                      000000021311010101000201000000021311010101000201025 DIARIA A SANTA ROSA NO DIA 27012025 PARA LEVAR OS PACIENTES DA LISTA PARA HEMODIALISE EXTRA E PACIENTES PARA CONSULTAS                                                                                                                                                                                                                                                                                      00000000000000000107
020250000040200000000000000762076280120250000000005602+                                                                                                                                                      000000021311010101000201000000021311010101000201025 DE DIRIA  SANTA ROSA PARA LEVAR PACIENTE  PARA QUIMIOTERAPIA CONF SD 63/2025                                                                                                                                                                                                                                                                                                                                00000000000000000108
020250000060000000000000000762077280120250000000005602+                                                                                                                                                      000000021311010101000201000000021311010101000201025 DIARIA A SANTA ROSA NO DIA 27012025 PARA TRANSFERENCIA DA PACINENTE DO HSVP AO VIDA E SAUDE E LEVAR PACIENTES PARA HEMODIALISE                                                                                                                                                                                                                                                                              00000000000000000109
020250000054800000000000000762078280120250000000005602+                                                                                                                                                      000000021311010101000201000000021311010101000201025 DE DIRIA A IJU PARA LEVAR PACIENTE PARA REALIZAR PROCEDIMENTOCONF SD 77/2025                                                                                                                                                                                                                                                                                                                                00000000000000000110
020250000056600000000000000762079280120250000000005602+                                                                                                                                                      000000021311010101000201000000021311010101000201025 DE DIRIA A GIRU PARA LEVAR PACIENTES PARA A REALIZAO DE EXAMES E CONSULTAS                                                                                                                                                                                                                                                                                                                                  00000000000000000111
020250000042800000000000000762080280120250000000005602+                                                                                                                                                      000000021311010101000201000000021311010101000201025 DE DIRIA PARA LEVAR PACIENTES PARA EXAMES E CONSULTAS EM IJU E DEMAIS PACIENTES PARA CONSULTAS E EXAMES EM SANTA ROSA CONF SD 68/2025                                                                                                                                                                                                                                                                       00000000000000000112
020250000055900000000000000762085280120250000000005602+                                                                                                                                                      000000021311010101000201000000021311010101000201025 DE DIRIA  SANTA ROSA PARA LEVAR PACIENTES PARA CONSULTAS E EXAMES CONF SD 80/2025                                                                                                                                                                                                                                                                                                                           00000000000000000117
020250000053800000000000000762086280120250000000005602+                                                                                                                                                      000000021311010101000201000000021311010101000201025 DE DIRIA  SANTA ROSA PARA LEVAR PACIENTE PARA QUIMIOTERAPIA E CONSULTA CONF SD 72/2025                                                                                                                                                                                                                                                                                                                      00000000000000000118
020250000037100000000000000762087280120250000000005602+                                                                                                                                                      000000021311010101000201000000021311010101000201025 DE DIRIA  PARA LEVAR PACIENTES PARA CONSULTAS EM IJU E LEVAR PACIENTES PARA HEMODILISE EM SANTA ROSA CONF SD 58/2025                                                                                                                                                                                                                                                                                        00000000000000000119
020250000036900000000000000762089280120250000000005602+                                                                                                                                                      000000021311010101000201000000021311010101000201025 DE DIRIA  SANTA ROSA PARA LEVAR PACIENTE PARA CONSULTA CONF SD 60/2025                                                                                                                                                                                                                                                                                                                                      00000000000000000121
020250000056800000000000000762090280120250000000005602+                                                                                                                                                      000000021311010101000201000000021311010101000201025 DE DIRIA  SANTA ROSA NO DIA 25/01/2025 SBADO PARA LEVAR PACIENTES PARA HEMODILISE CONF SD 87/2025                                                                                                                                                                                                                                                                                                           00000000000000000122
020250000056700000000000000762091280120250000000005602+                                                                                                                                                      000000021311010101000201000000021311010101000201025 DE DIRIA A SANTA ROSA PARA LEVAR PACIENTES PARA HEMODILISE CONF SD 86/2025                                                                                                                                                                                                                                                                                                                                  00000000000000000123
020250000056100000000000000762092280120250000000005602+                                                                                                                                                      000000021311010101000201000000021311010101000201025 DE DIRIA PARA LEVAR PACIENTES EM SANTA ROSA PARA HEMODILISE E LEVAR PACIENTE PARA CONSULTA EM SANTO NGELO CONF SD 78/2025                                                                                                                                                                                                                                                                                   00000000000000000124
020250000040500000000000000762093280120250000000005602+                                                                                                                                                      000000021311010101000201000000021311010101000201025 DE DIRIA A SANTA ROSA PARA LEVAR PACIENTES PARA CONSULTA CONSULTAS E EXAMES EM IJUI E PACIENTES PARA HEMODIALISE EM SANTA ROSA CONF SD 66/2025                                                                                                                                                                                                                                                              00000000000000000125
020250000060300000000000000762096280120250000000005602+                                                                                                                                                      000000021311010101000201000000021311010101000201025 DIARIA A GIRU E SANTA ROSA NO DIA 27012025 PARA LEVAR OS PACIENTES DA LISTA EM ANEXO PARA CONSULTAS E EXAMES                                                                                                                                                                                                                                                                                                00000000000000000128
020250000037200000000000000762097280120250000000005602+                                                                                                                                                      000000021311010101000201000000021311010101000201025 DE DIRIA   SANTA ROSA NO DIA 18/01/2025 SBADO LEVAR PACIENTES PARA HEMODILISE CONF SD 59/2025                                                                                                                                                                                                                                                                                                               00000000000000000129
020250000037000000000000000762098280120250000000005602+                                                                                                                                                      000000021311010101000201000000021311010101000201025 DE DIRIA  SANTA ROSA PARA LEVAR PACIENTES PARA CONSULTAS E EXAMES CONF SD 57/2025                                                                                                                                                                                                                                                                                                                           00000000000000000130
020250000040300000000000000762099280120250000000005602+                                                                                                                                                      000000021311010101000201000000021311010101000201025 DE DIRIA  SANTA ROSA PARA LEVAR PACIENTES  PARA CONSULTAS E EXAMES CONF SD 64/2025                                                                                                                                                                                                                                                                                                                          00000000000000000131
020250000042600000000000000762100280120250000000005602+                                                                                                                                                      000000021311010101000201000000021311010101000201025 DE DIRIA  SANTA ROSA  PARA LEVAR PACIENTES PARA HEMODILISE CONF RD 70/2025                                                                                                                                                                                                                                                                                                                                  00000000000000000132
020250000053700000000000000762109280120250000000005602+                                                                                                                                                      000000021311010101000201000000021311010101000201025 DE DIRIA  SANTA ROSA PARA LEVAR PACIENTES PARA CONSULTAS E EXAMES CONF SD 74/2025                                                                                                                                                                                                                                                                                                                           00000000000000000139
020250000062800000000000000762063280120250000000005602+                                                                                                                                                      000000021311010101000201000000021311010101000201025 DIRIA  HORIZONTINA NO DIA 27012025 PARA LEVAR USURIO DO CRAS PARA PERCIA MDICA NO INSS DA CIDADE DE HORIZONTINA                                                                                                                                                                                                                                                                                             00000000000000000095
020250000071600000000000000762778300120250000000005615+                                                                                                                                                      000000021311010101000201000000021311010101000201REFERENTE A REMUNERAO DO MES DE JANEIRO DE 2025SERVIOS URBANOS - ESTATUTARIOSAUXILIO DOENA                                                                                                                                                                                                                                                                                                                      00000000000000000206
020250000075700000000000000762818300120250000000005853+                                                                                                                                                      000000021311010101000201000000021311010101000201REFERENTE A REMUNERAO DO MES DE JANEIRO DE 2025PLANEJAMENTO -ESTATUTARIOSADICIONAL NOTURNO                                                                                                                                                                                                                                                                                                                      00000000000000000246
020250000093300000000000000762857300120250000000006500+                                                                                                                                                      000000021311010101000201000000021311010101000201REFERENTE A REMUNERAO DO MES DE JANEIRO DE 2025 MUNICIPIO-INATIVOS-GERAL-INVALID-VLREALSALARIO FAMILIA                                                                                                                                                                                                                                                                                                          00000000000000000285
020250000072700000000000000762789300120250000000006500+                                                                                                                                                      000000021311010101000201000000021311010101000201REFERENTE A REMUNERAO DO MES DE JANEIRO DE 2025OBRAS-ESTATUTARIOSSALARIO FAMILIA                                                                                                                                                                                                                                                                                                                                00000000000000000217
020250000082500000000000000762899300120250000000007726+                                                                                                                                                      000000021311010101000201000000021311010101000201REFERENTE A REMUNERAO DO MES DE JANEIRO DE 2025EDUCTRANSPORTE-ESTATUTHORAS PLANTO MOTORISTAS                                                                                                                                                                                                                                                                                                                    00000000000000000327
020250000078000000000000000762840300120250000000008190+                                                                                                                                                      000000021311010101000201000000021311010101000201REFERENTE A REMUNERAO DO MES DE JANEIRO DE 2025ASSISTENCIA -MOTORISTA-ESTATUTARIOANUENIOS                                                                                                                                                                                                                                                                                                                       00000000000000000268
020250000072900000000000000762896300120250000000008207+                                                                                                                                                      000000021311010101000201000000021311010101000201REFERENTE A REMUNERAO DO MES DE JANEIRO DE 2025OBRAS-ESTATUTARIOSHORAS EXTRAS SAUDE                                                                                                                                                                                                                                                                                                                             00000000000000000324
020250000074800000000000000762809300120250000000008369+                                                                                                                                                      000000021311010101000201000000021311010101000201REFERENTE A REMUNERAO DO MES DE JANEIRO DE 2025AGRICULTURA-ESTATUTARIOS1/3 FERIAS PROPORCIONAIS                                                                                                                                                                                                                                                                                                                 00000000000000000237
020250000032700000000000000762082280120250000000009856+                                                                                                                                                      000000021311010101000201000000021311010101000201RESSARCIMENTO REFERENTE A DESLOCAMENTO COM VECULO PRPRIO PARA A SECRETRIA DE SADE QUE PARTICIPAR NO DIA 15/01/25 NO PERODO DA TARDE DE REUNIO DA CIR JUNTO A 14 CRS EM SANTA ROSA-RS CONFORME LEI MUNICIPAL N 2917/19 E DECRETO N 06/2024 CONF RD 233/2025DESPESA SEM EMPENHO PRVIO                                                                                                                             00000000000000000114
020250000015500000000000000762083280120250000000009856+                                                                                                                                                      000000021311010101000201000000021311010101000201RESSARCIMENTO DE DESPESA COM DESLOCAMENTO PARA A SECRETRIA DE SADE A QUAL PARTICIPAR DE REUNIO DA 14 EM SANTA ROSA/RS NO DIA 07/01/25 NO PERODO DA TARDE                                                                                                                                                                                                                                                        00000000000000000115
020250000019300000000000000761211100120250000000009997+                                                                                                                                                      000000021311010101000201000000021311010101000201SERVIOS DE LICENA DE USO PRODUTO PROCERGS APLICATIVO PARA GESTO ADMINISTRATIVA DE RECURSOS DE MULTAS DETRNSITOSISTEMA EML - EMULAO DE TERMINAL                                                                                                                                                                                                                                                                  00000000000000000035
020250000086300000000000000762904300120250000000010000+                                                                                                                                                      000000021311010101000201000000021311010101000201REFERENTE A REMUNERAO DO MES DE JANEIRO DE 2025SAUDE-SECRETARIA-ESTATUTARIOSGARTIFICAO PSF                                                                                                                                                                                                                                                                                                                      00000000000000000332
020250000003800000000000000760945080120250000000010671+                                                                                                                                                      000000021311010101000201000000021311010101000201050 DIARIA A PASSO FUNDO NO DIA 06012025 PARA LEVAR PACIENTE PARA RADIOTERAPIA                                                                                                                                                                                                                                                                                                                                  00000000000000000005
020250000000600000000000000760948080120250000000010671+                                                                                                                                                      000000021311010101000201000000021311010101000201050 DIARIA A PASSO FUNDO NO DIA 02012025 PARA LEVAR PACIENTE PARA RADIOTERAPIA                                                                                                                                                                                                                                                                                                                                  00000000000000000008
020250000001100000000000000760955080120250000000010671+                                                                                                                                                      000000021311010101000201000000021311010101000201050 DIARIA A PASSO FUNDO NO DIA 03012025 PARA BUSCAR PACIENTE DE ALTA MEDICA                                                                                                                                                                                                                                                                                                                                    00000000000000000015
020250000009000000000000000761220100120250000000010671+                                                                                                                                                      000000021311010101000201000000021311010101000201050 DIARIA A SANTA MARIA NO DIA 07012025 PARA LEVAR PACIENTE PARA CONSULTA E LEVAR MATERIAL DA VIGILANCIA EPIDEMIOLOGICA                                                                                                                                                                                                                                                                                        00000000000000000044
020250000023700000000000000762017170120250000000010671+                                                                                                                                                      000000021311010101000201000000021311010101000201050 DE DIRIA A PASSO FUNDO PARA SERVIDORA ACOMPANHAR A TRANSFERNCIA DE PACIENTE DE PASSO FUNDO AT O HSVP DE TRS DE MAIO CONF SD41/2025                                                                                                                                                                                                                                                                          00000000000000000055
020250000023900000000000000762022170120250000000010671+                                                                                                                                                      000000021311010101000201000000021311010101000201050 DIRIA A PASSO FUNDO PARA LEVAR PACIENTE PARA CONSULTA EM PASSO FUNDO CONF SD 36/2025                                                                                                                                                                                                                                                                                                                        00000000000000000060
020250000028900000000000000762023170120250000000010671+                                                                                                                                                      000000021311010101000201000000021311010101000201050 DIRIA A PASSO FUNDO PARA LEVAR PACIENTE PARA REALIZAR CONSULTA CONF SD 48/2025                                                                                                                                                                                                                                                                                                                              00000000000000000061
020250000035100000000000000762028170120250000000010671+                                                                                                                                                      000000021311010101000201000000021311010101000201050 DIRIA  SO BORJA PARA LEVAR PACIENTES PARA  CONSULTAS CONF SD 52/2025                                                                                                                                                                                                                                                                                                                                        00000000000000000066
020250000023800000000000000762029170120250000000010671+                                                                                                                                                      000000021311010101000201000000021311010101000201050 DIRIA A PASSO FUNDO PARA LEVAR PACIENTES PARA CONSULTAS E EXAMES EM IJU E PARA BUSCAR PACIENTE DE PASSO FUNDO AT O HSVP DE TRS DE MAIO CONF SD 37/2025                                                                                                                                                                                                                                                      00000000000000000067
020250000035000000000000000762036170120250000000010671+                                                                                                                                                      000000021311010101000201000000021311010101000201050 DIRIA A PASSO FUNDO PARA LEVAR PACIENTE PARA EXAME E CONSULTA CONF SD 51/2025                                                                                                                                                                                                                                                                                                                               00000000000000000074
020250000016500000000000000762062280120250000000010800+                                                                                                                                                      00000002131101010100020100000002131101010100020101 TOKEN PARA CERTIFICADO DIGITAL  E-CPF A3 PARA O SECRETRIO DA FAZENDA                                                                                                                                                                                                                                                                                                                                         00000000000000000094
020250000016400000000000000762105280120250000000010800+                                                                                                                                                      00000002131101010100020100000002131101010100020101 TOKEN PARA CERTIFICADO DIGITAL  E-CPF A3 PARA A SECRETRIA DA SADE                                                                                                                                                                                                                                                                                                                                            00000000000000000137
020250000056000000000000000762072280120250000000011204+                                                                                                                                                      000000021311010101000201000000021311010101000201050 DIRIA PARA LEVAR PACIENTE A IJU E BUSCAR PACIENTE DE ALTA MDICA EM PASSO FUNDO CONF SD 79/2025                                                                                                                                                                                                                                                                                                              00000000000000000104
020250000039900000000000000762081280120250000000011204+                                                                                                                                                      000000021311010101000201000000021311010101000201050 DIRIA A PASSO FUNDO PARA BUSCAR PACIENTE APS ALTA MEDICA E RADIOTERAPIA CONF SD 56/2025                                                                                                                                                                                                                                                                                                                     00000000000000000113
020250000040400000000000000762088280120250000000011204+                                                                                                                                                      000000021311010101000201000000021311010101000201050 DIRIA A PASSO FUNDO PARA LEVAR PACIENTE  PARA RADIOTERAPIA CONF SD 65/2025                                                                                                                                                                                                                                                                                                                                  00000000000000000120
020250000042700000000000000762094280120250000000011204+                                                                                                                                                      000000021311010101000201000000021311010101000201050 DE DIRIA A PASSO FUNDO  PARA LEVAR PACIENTE PARA EXAME CONF RD 69/2025                                                                                                                                                                                                                                                                                                                                      00000000000000000126
020250000075400000000000000762815300120250000000011726+                                                                                                                                                      000000021311010101000201000000021311010101000201REFERENTE A REMUNERAO DO MES DE JANEIRO DE 2025PLANEJAMENTO -ESTATUTARIOSANUENIOS                                                                                                                                                                                                                                                                                                                               00000000000000000243
020250000083200000000000000762844300120250000000012304+                                                                                                                                                      000000021311010101000201000000021311010101000201REFERENTE A REMUNERAO DO MES DE JANEIRO DE 2025EDUCOPERRIO ESPECIALIZADO-ESTATANUENIOS                                                                                                                                                                                                                                                                                                                          00000000000000000272
020250000003100000000000000761200100120250000000012500+                                                                                                                                                      000000021311010101000201000000021311010101000201GS DE COZINHA GLP 13KG PARA USO DOS SERVIDORES DA SECRETARIA DE OBRAS E VIAO           PROCESSO DE LICITAO N 373/2024 PREGO ELETRNICO N 54/2024 SRP N 32/2024                                                                                                                                                                                                                                                   00000000000000000030
020250000071700000000000000762779300120250000000013000+                                                                                                                                                      000000021311010101000201000000021311010101000201REFERENTE A REMUNERAO DO MES DE JANEIRO DE 2025SERVIOS URBANOS - ESTATUTARIOSSALARIO FAMILIA                                                                                                                                                                                                                                                                                                                    00000000000000000207
020250000084500000000000000762889300120250000000013510+                                                                                                                                                      000000021311010101000201000000021311010101000201REFERENTE A REMUNERAO DO MES DE JANEIRO DE 2025EDUC AUXALIMHIGIENE-INFANTIL-CLT13 SALARIO                                                                                                                                                                                                                                                                                                                       00000000000000000317
020250000081400000000000000762864300120250000000015483+                                                                                                                                                      000000021311010101000201000000021311010101000201REFERENTE A REMUNERAO DO MES DE JANEIRO DE 2025EDUCPROFESSOR-FUNDA-FINAIS-ESTATHORAS EXTRAS EDUCAO                                                                                                                                                                                                                                                                                                              00000000000000000292
020250000090300000000000000762729300120250000000016349+                                                                                                                                                      000000021311010101000201000000021311010101000201REFERENTE A REMUNERAO DO MES DE JANEIRO DE 2025SAUDE-PSF01- BUCAL-ESTATUTARIOSVENCIMENTO                                                                                                                                                                                                                                                                                                                        00000000000000000157
020250000073300000000000000762794300120250000000018078+                                                                                                                                                      000000021311010101000201000000021311010101000201REFERENTE A REMUNERAO DO MES DE JANEIRO DE 2025OBRAS-ESTATUTARIOSHORAS EXTRAS SEC OBRAS                                                                                                                                                                                                                                                                                                                         00000000000000000222
020250000040600000000000000762070280120250000000018282+                                                                                                                                                      000000021311010101000201000000021311010101000201050 DIRIA A ERECHIM PARA LEVAR PACIENTE PARA CONSULTA CONF SD 67/2025                                                                                                                                                                                                                                                                                                                                           00000000000000000102
020250000070900000000000000762771300120250000000018383+                                                                                                                                                      000000021311010101000201000000021311010101000201REFERENTE A REMUNERAO DO MES DE JANEIRO DE 2025ADMINISTRAO-INFORMTICA-ESTATANUENIOS                                                                                                                                                                                                                                                                                                                             00000000000000000199
020250000019200000000000000761145100120250000000002601+                                                                                                                                                      000000021311010101000201000000021311010101000201RETENO AO PASEP 1 CIDE                                                                                                                                                                                                                                                                                                                                                                                          00000000000000000023
020250000073500000000000000762796300120250000000020312+                                                                                                                                                      000000021311010101000201000000021311010101000201REFERENTE A REMUNERAO DO MES DE JANEIRO DE 2025OBRAS-ESTATUTARIOSHORAS EXTRAS ASSISTENCIA                                                                                                                                                                                                                                                                                                                       00000000000000000224
020250000083600000000000000762880300120250000000021418+                                                                                                                                                      000000021311010101000201000000021311010101000201REFERENTE A REMUNERAO DO MES DE JANEIRO DE 2025EDUC ARIENTADOR - ESTAT- FUNDANUENIOS                                                                                                                                                                                                                                                                                                                            00000000000000000308
020250000084400000000000000762888300120250000000021622+                                                                                                                                                      000000021311010101000201000000021311010101000201REFERENTE A REMUNERAO DO MES DE JANEIRO DE 2025EDUC AUXALIMHIGIENE-INFANTIL-CLTANUENIOS                                                                                                                                                                                                                                                                                                                         00000000000000000316
020250000015300000000000000761206100120250000000021650+                                                                                                                                                      00000002131101010100020100000002131101010100020101 PASSAGEM DE TRANSPORTE RODOVIRIO INTERMUNICIPAL COM DESTINO DE TRS DE MAIO A SO LEOPOLDO/RS PARA USURIA DA POLTICA DE ASSISTNCIA SOCIAL DESTE MUNICPIO O DESLOCAMENTO SE FAR NECESSRIO TENDO EM VISTA QUE JANETE NECESSITA COMPARECER EM UMA PERCIA MDICA JUDICIAL AGENDADA NA CIDADE DE SO LEOPOLDOCONFORME BENEFCIO PREVISTO NA LEI MUNICIPAL N 2777/2017 ART 41 O GRUPO FAMILIAR ATENDE AOS CRITRIOS ESTAB00000000000000000033
020250000072200000000000000762784300120250000000024770+                                                                                                                                                      000000021311010101000201000000021311010101000201REFERENTE A REMUNERAO DO MES DE JANEIRO DE 2025SERVIOS URBANOS - ESTATUTARIOSHORA EXTRAS SEC SERV URBANOS                                                                                                                                                                                                                                                                                                       00000000000000000212
020250000074600000000000000762807300120250000000025107+                                                                                                                                                      000000021311010101000201000000021311010101000201REFERENTE A REMUNERAO DO MES DE JANEIRO DE 2025AGRICULTURA-ESTATUTARIOSFERIAS PROPORCIONAIS                                                                                                                                                                                                                                                                                                                     00000000000000000235
020250000016800000000000000762068280120250000000025300+                                                                                                                                                      00000002131101010100020100000002131101010100020101 CERTIFICADO DIGITAL  E-CPF A3 PARA O SECRETRIO DA FAZENDA                                                                                                                                                                                                                                                                                                                                                    00000000000000000100
020250000016700000000000000762108280120250000000025300+                                                                                                                                                      00000002131101010100020100000002131101010100020101 CERTIFICADO DIGITAL  E-CPF A3 PARA A SECRETRIA DE SADE                                                                                                                                                                                                                                                                                                                                                       00000000000000000138
020250000086400000000000000762905300120250000000025752+                                                                                                                                                      000000021311010101000201000000021311010101000201REFERENTE A REMUNERAO DO MES DE JANEIRO DE 2025SAUDE-SECRETARIA-ESTATUTARIOSADICIONAL NOTURNO                                                                                                                                                                                                                                                                                                                   00000000000000000333
020250000084000000000000000762884300120250000000026000+                                                                                                                                                      000000021311010101000201000000021311010101000201REFERENTE A REMUNERAO DO MES DE JANEIRO DE 2025EDUC AUXALIMHIGIENE-EST-INFANTILSALARIO FAMILIA                                                                                                                                                                                                                                                                                                                  00000000000000000312
020250000085000000000000000762894300120250000000026313+                                                                                                                                                      000000021311010101000201000000021311010101000201REFERENTE A REMUNERAO DO MES DE JANEIRO DE 2025EDUC AUXALIMHIGIENE-INFANTIL-CLT1/3 FERIAS PROPORCIONAIS                                                                                                                                                                                                                                                                                                         00000000000000000322
020250000077200000000000000762832300120250000000027791+                                                                                                                                                      000000021311010101000201000000021311010101000201REFERENTE A REMUNERAO DO MES DE JANEIRO DE 2025ASSISTENCIA -CRAS-ESTAT-VINCULADOHORAS EXTRAS ASSISTENCIA                                                                                                                                                                                                                                                                                                        00000000000000000260
020250000073000000000000000762791300120250000000029122+                                                                                                                                                      000000021311010101000201000000021311010101000201REFERENTE A REMUNERAO DO MES DE JANEIRO DE 2025OBRAS-ESTATUTARIOSGRAT TRANSPESCOLAR                                                                                                                                                                                                                                                                                                                             00000000000000000219
020250000016100000000000000762103280120250000000030000+                                                                                                                                                      000000021311010101000201000000021311010101000201RESSARCIMENTO DE REALIZAO DE EXAME MDICO CONFORME LEI MUNICIPAL N2619/15                                                                                                                                                                                                                                                                                                                                        00000000000000000135
020250000077900000000000000762839300120250000000030257+                                                                                                                                                      000000021311010101000201000000021311010101000201REFERENTE A REMUNERAO DO MES DE JANEIRO DE 2025ASSISTENCIA -ESTATUTARIOHORAS EXTRAS ASSISTENCIA                                                                                                                                                                                                                                                                                                                 00000000000000000267
020250000070300000000000000762765300120250000000030579+                                                                                                                                                      000000021311010101000201000000021311010101000201REFERENTE A REMUNERAO DO MES DE JANEIRO DE 2025ADMINISTRAO-LIMPZ-E-COZINHA-ESTATUTARIOSFRIAS                                                                                                                                                                                                                                                                                                                    00000000000000000193
020250000016600000000000000762061280120250000000032400+                                                                                                                                                      00000002131101010100020100000002131101010100020103 TOKEN PARA CERTIFICADO DIGITAL  E-CPF A3 PARA O PREFEITO E VICE-PREFEITO                                                                                                                                                                                                                                                                                                                                     00000000000000000093
020250000083400000000000000762846300120250000000033739+                                                                                                                                                      000000021311010101000201000000021311010101000201REFERENTE A REMUNERAO DO MES DE JANEIRO DE 2025EDUCOPERRIO ESPECIALIZADO-ESTATINSALUBRIDADE                                                                                                                                                                                                                                                                                                                     00000000000000000274
020250000036100000000000000762715300120250000000035000+                                                                                                                                                      000000021311010101000201000000021311010101000201CARGA DE GS PARA O AR CONDICIONADO DO VECULO GRAND SIENA  DA SECRETARIA MUNICIPAL DE ASSISTNCIA SOCIAL/CRAS CONF RD 252/2025PROCESSO DE LICITAO N 73/2024  PREGO ELETRNICO N 13/2024 SRP N 06/2024                                                                                                                                                                                                              00000000000000000147
020250000070800000000000000762770300120250000000035755+                                                                                                                                                      000000021311010101000201000000021311010101000201REFERENTE A REMUNERAO DO MES DE JANEIRO DE 2025ADMINISTRAO-INFORMTICA-ESTATFRIAS                                                                                                                                                                                                                                                                                                                                00000000000000000198
020250000088700000000000000762919300120250000000036550+                                                                                                                                                      000000021311010101000201000000021311010101000201REFERENTE A REMUNERAO DO MES DE JANEIRO DE 2025SAUDE-PIM-ESTATUTARIOSHORAS EXTRAS EDUCAO                                                                                                                                                                                                                                                                                                                        00000000000000000347
020250000078400000000000000762843300120250000000039019+                                                                                                                                                      000000021311010101000201000000021311010101000201REFERENTE A REMUNERAO DO MES DE JANEIRO DE 2025ASSISTENCIA -MOTORISTA-ESTATUTARIOINSALUBRIDADE                                                                                                                                                                                                                                                                                                                  00000000000000000271
020250000070400000000000000762766300120250000000039746+                                                                                                                                                      000000021311010101000201000000021311010101000201REFERENTE A REMUNERAO DO MES DE JANEIRO DE 2025ADMINISTRAO-LIMPZ-E-COZINHA-ESTATUTARIOSANUENIOS                                                                                                                                                                                                                                                                                                                 00000000000000000194
020250000008700000000000000761232100120250000000044000+                                                                                                                                                      000000021311010101000201000000021311010101000201RESSARCIMENTO DE REALIZAO DE CONSULTA MDICA CONFORME LEI MUNICIPAL N2619/15                                                                                                                                                                                                                                                                                                                                     00000000000000000053
020250000085100000000000000762895300120250000000044528+                                                                                                                                                      000000021311010101000201000000021311010101000201REFERENTE A REMUNERAO DO MES DE JANEIRO DE 2025EDUC AUXALIMHIGIENE-INFANTIL-CLTINSALUBRIDADE                                                                                                                                                                                                                                                                                                                    00000000000000000323
020250000018600000000000000762104280120250000000045000+                                                                                                                                                      000000021311010101000201000000021311010101000201RESSARCIMENTO DE REALIZAO DE EXAME MDICO CONFORME LEI MUNICIPAL N2619/15                                                                                                                                                                                                                                                                                                                                        00000000000000000136
020250000036200000000000000762713300120250000000045000+                                                                                                                                                      000000021311010101000201000000021311010101000201CONSERTO DO AR CONDICIONADO DO VECULO GRAND SIENA  DA SECRETARIA MUNICIPAL DE ASSISTNCIA SOCIAL/CRAS CONF RD 253/2025PROCESSO DE LICITAO N 73/2024  PREGO ELETRNICO N 13/2024 SRP N 06/2024                                                                                                                                                                                                                     00000000000000000145
020250000068100000000000000762743300120250000000045393+                                                                                                                                                      000000021311010101000201000000021311010101000201REFERENTE A REMUNERAO DO MES DE JANEIRO DE 2025GABINETE-CONTROLE-INTERNO-ESTATANUENIOS                                                                                                                                                                                                                                                                                                                          00000000000000000171
020250000070200000000000000762764300120250000000047217+                                                                                                                                                      000000021311010101000201000000021311010101000201REFERENTE A REMUNERAO DO MES DE JANEIRO DE 2025FAZENDA-ESTATUTARIOSGRAT COMISS LICITAES                                                                                                                                                                                                                                                                                                                         00000000000000000192
020250000092100000000000000762938300120250000000047323+                                                                                                                                                      000000021311010101000201000000021311010101000201REFERENTE A REMUNERAO DO MES DE JANEIRO DE 2025SAUDE-PSF02-ESTATUTARIOSHORAS EXTRAS SAUDE                                                                                                                                                                                                                                                                                                                       00000000000000000366
020250000078300000000000000762897300120250000000047926+                                                                                                                                                      000000021311010101000201000000021311010101000201REFERENTE A REMUNERAO DO MES DE JANEIRO DE 2025ASSISTENCIA -MOTORISTA-ESTATUTARIOHORAS EXTRAS SAUDE                                                                                                                                                                                                                                                                                                             00000000000000000325
020250000085600000000000000762851300120250000000050608+                                                                                                                                                      000000021311010101000201000000021311010101000201REFERENTE A REMUNERAO DO MES DE JANEIRO DE 2025EDUCSECRETARIA-ESTATUTARIOSINSALUBRIDADE                                                                                                                                                                                                                                                                                                                         00000000000000000279
020250000000200000000000000760950080120250000000052233+                                                                                                                                                      000000021311010101000201000000021311010101000201150 DIARIAS A PORTO ALEGRE NOS DIAS 02 E 03012025 PARA LEVAR PACIENTE PARA CONSULTA                                                                                                                                                                                                                                                                                                                             00000000000000000010
020250000000900000000000000760952080120250000000052233+                                                                                                                                                      000000021311010101000201000000021311010101000201150 DIARIAS A PORTO ALEGRE NOS DIAS 03 E 04012025 PARA LEVAR O PACIENTE  DA LISTA PARA CONSULTA                                                                                                                                                                                                                                                                                                                 00000000000000000012
020250000014900000000000000761227100120250000000052233+                                                                                                                                                      000000021311010101000201000000021311010101000201150 DIARIA A PORTO ALEGRE NOS DIAS 09 E 10012025 PARA LEVAR PACIENTE PARA CONSULTA                                                                                                                                                                                                                                                                                                                              00000000000000000051
020250000084600000000000000762890300120250000000052738+                                                                                                                                                      000000021311010101000201000000021311010101000201REFERENTE A REMUNERAO DO MES DE JANEIRO DE 2025EDUC AUXALIMHIGIENE-INFANTIL-CLTVENCIMENTO                                                                                                                                                                                                                                                                                                                       00000000000000000318
020250000089800000000000000762725300120250000000053119+                                                                                                                                                      000000021311010101000201000000021311010101000201REFERENTE A REMUNERAO DO MES DE JANEIRO DE 2025SAUDE-PSF02 BUCAL-ESTATUTARIOSANUENIOS                                                                                                                                                                                                                                                                                                                           00000000000000000153
020250000084900000000000000762893300120250000000054040+                                                                                                                                                      000000021311010101000201000000021311010101000201REFERENTE A REMUNERAO DO MES DE JANEIRO DE 2025EDUC AUXALIMHIGIENE-INFANTIL-CLT1/3 FERIAS INDENIZADAS                                                                                                                                                                                                                                                                                                           00000000000000000321
020250000060200000000000000762069280120250000000054844+                                                                                                                                                      00000002131101010100020100000002131101010100020115 DIARIAS A PORTO ALEGRE NOS DIAS 27 E 28012025 PARA LEVAR PACIENTE DA LISTA PARA CONSULTA                                                                                                                                                                                                                                                                                                                     00000000000000000101
020250000060100000000000000762084280120250000000054844+                                                                                                                                                      000000021311010101000201000000021311010101000201150 DIARIA A PORTO ALEGRE NOS DIAS 26 E 27012025 PARA LEVAR PACIENTE PARA CONSULTA E EXAMES                                                                                                                                                                                                                                                                                                                     00000000000000000116
