87612826000190010120253101202501022025PREFEITURA MUNICIPAL INDEPENDENCIA                                              
1131101010000000000050010000002036065D070000
1131101010000000000050010000002036065R070000
1131101040000000000050010000008136036D070000
1131101040000000000050010000008136036R070000
1131101990000000000050010000000579484D070000
1131101990000000000050010000000579484R070000
1132306030000000000050010000000004983D070000
2188101020400000000050010000002232588R070000
2188101100000000000050010000000728971D070000
2188101100000000000050010000000728971R070000
2188101130000000000050010000000515479D070000
2188101130000000000050010000000515479R070000
2188101150000000000050010000016894479D070000
2188101150000000000050010000016894479R070000
2188201010100000000050010000014188369R070000
FINALIZADOR0000000015