87612826000190010120253101202501022025PREFEITURA MUNICIPAL INDEPENDENCIA                                              
10000000000000000000020100003571470090000000000000000000000000000000000000000000000000000000000000000000000000000000000000000000000000000000000000000000000000000000000000000000000000129804548000118750888000122678348000119407058000118115378000148584852000000000000000000000000
11000000000000000000020100000286947150000000000000000000000000000000000000000000000000000000000000000000000000000000000000000000000000000000000000000000000000000000000000000000000000006735498200007574778200010944528200007106348200007213498200008265349000000000000000000000000
11100000000000000000020100000276040800000000000000000000000000000000000000000000000000000000000000000000000000000000000000000000000000000000000000000000000000000000000000000000000000006075499200006914779200010284529200006446349200006553499200007605344000000000000000000000000
11120000000000000000020100000050824300000000000000000000000000000000000000000000000000000000000000000000000000000000000000000000000000000000000000000000000000000000000000000000000000002409133000003281683000006676563000002600103000002462393000002510125000000000000000000000000
11125000000000000000020100000008881300000000000000000000000000000000000000000000000000000000000000000000000000000000000000000000000000000000000000000000000000000000000000000000000000000325799800001198349800004593229800000516769800000379059800000426791000000000000000000000000
11125001000000000000020100000004732410000000000000000000000000000000000000000000000000000000000000000000000000000000000000000000000000000000000000000000000000000000000000000000000000000040800000000913350000004308230000000231770000000094060000000141790000000000000150000000000
11125002000000000000020100000000000000000000000000000000000000000000000000000000000000000000000000000000000000000000000000000000000000000000000000000000000000000000000000000000000000000005000000000005000000000005000000000005000000000005000000000005000000000000000150000000000
11125003000000000000020100000003095440000000000000000000000000000000000000000000000000000000000000000000000000000000000000000000000000000000000000000000000000000000000000000000000000000208333200000208333200000208333200000208333200000208333200000208334000000000000150000000000
11125004000000000000020100000001053450000000000000000000000000000000000000000000000000000000000000000000000000000000000000000000000000000000000000000000000000000000000000000000000000000071666600000071666600000071666600000071666600000071666600000071667000000000000150000000000
11125300000000000000020100000041943000000000000000000000000000000000000000000000000000000000000000000000000000000000000000000000000000000000000000000000000000000000000000000000000000002083333200002083333200002083333200002083333200002083333200002083334000000000000000000000000
11125301000000000000020100000041943000000000000000000000000000000000000000000000000000000000000000000000000000000000000000000000000000000000000000000000000000000000000000000000000000002083333200002083333200002083333200002083333200002083333200002083334000000000000150000000000
11130000000000000000020100000131298020000000000000000000000000000000000000000000000000000000000000000000000000000000000000000000000000000000000000000000000000000000000000000000000000002334036400002233686400002205236400002288876400002236556400003371608000000000000000000000000
11130300000000000000020100000131298020000000000000000000000000000000000000000000000000000000000000000000000000000000000000000000000000000000000000000000000000000000000000000000000000002334036400002233686400002205236400002288876400002236556400003371608000000000000000000000000
11130310000000000000020100000129400800000000000000000000000000000000000000000000000000000000000000000000000000000000000000000000000000000000000000000000000000000000000000000000000000002179036600002078686600002050236600002133876600002081556600003216607000000000000000000000000
11130311000000000000020100000129400800000000000000000000000000000000000000000000000000000000000000000000000000000000000000000000000000000000000000000000000000000000000000000000000000002179036600002078686600002050236600002133876600002081556600003216607000000000000000000000000
11130311010000000000020100000100644420000000000000000000000000000000000000000000000000000000000000000000000000000000000000000000000000000000000000000000000000000000000000000000000000001533970000001433620000001405170000001488810000001436490000002251940000000000000150000000000
11130311020000000000020100000003608910000000000000000000000000000000000000000000000000000000000000000000000000000000000000000000000000000000000000000000000000000000000000000000000000000093800000000093800000000093800000000093800000000093800000000141000000000000000150000000000
11130311030000000000020100000025147470000000000000000000000000000000000000000000000000000000000000000000000000000000000000000000000000000000000000000000000000000000000000000000000000000544600000000544600000000544600000000544600000000544600000000817000000000000000150000000000
11130311040000000000020100000000000000000000000000000000000000000000000000000000000000000000000000000000000000000000000000000000000000000000000000000000000000000000000000000000000000000006666600000006666600000006666600000006666600000006666600000006667000000000000150000000000
11130340000000000000020100000001897220000000000000000000000000000000000000000000000000000000000000000000000000000000000000000000000000000000000000000000000000000000000000000000000000000154999800000154999800000154999800000154999800000154999800000155001000000000000000000000000
11130341000000000000020100000001897220000000000000000000000000000000000000000000000000000000000000000000000000000000000000000000000000000000000000000000000000000000000000000000000000000154999800000154999800000154999800000154999800000154999800000155001000000000000000000000000
11130341010000000000020100000001848330000000000000000000000000000000000000000000000000000000000000000000000000000000000000000000000000000000000000000000000000000000000000000000000000000151666600000151666600000151666600000151666600000151666600000151667000000000000150000000000
11130341020000000000020100000000000000000000000000000000000000000000000000000000000000000000000000000000000000000000000000000000000000000000000000000000000000000000000000000000000000000001666600000001666600000001666600000001666600000001666600000001667000000000000150000000000
11130341030000000000020100000000000000000000000000000000000000000000000000000000000000000000000000000000000000000000000000000000000000000000000000000000000000000000000000000000000000000001666600000001666600000001666600000001666600000001666600000001667000000000000150000000000
11130341040000000000020100000000048890000000000000000000000000000000000000000000000000000000000000000000000000000000000000000000000000000000000000000000000000000000000000000000000000000000000000000000000000000000000000000000000000000000000000000000000000000000000150000000000
11140000000000000000020100000093918480000000000000000000000000000000000000000000000000000000000000000000000000000000000000000000000000000000000000000000000000000000000000000000000000001332329800001399409800001402729800001557369800001854549800001723611000000000000000000000000
11145100000000000000020100000093918480000000000000000000000000000000000000000000000000000000000000000000000000000000000000000000000000000000000000000000000000000000000000000000000000001332329800001399409800001402729800001557369800001854549800001723611000000000000000000000000
11145110000000000000020100000093918480000000000000000000000000000000000000000000000000000000000000000000000000000000000000000000000000000000000000000000000000000000000000000000000000001332329800001399409800001402729800001557369800001854549800001723611000000000000000000000000
11145111000000000000020100000093396530000000000000000000000000000000000000000000000000000000000000000000000000000000000000000000000000000000000000000000000000000000000000000000000000001317330000001384410000001387730000001542370000001839550000001708610000000000000150000000000
11145112000000000000020100000000521950000000000000000000000000000000000000000000000000000000000000000000000000000000000000000000000000000000000000000000000000000000000000000000000000000008333200000008333200000008333200000008333200000008333200000008334000000000000150000000000
11145113000000000000020100000000000000000000000000000000000000000000000000000000000000000000000000000000000000000000000000000000000000000000000000000000000000000000000000000000000000000005000000000005000000000005000000000005000000000005000000000005000000000000000150000000000
11145114000000000000020100000000000000000000000000000000000000000000000000000000000000000000000000000000000000000000000000000000000000000000000000000000000000000000000000000000000000000001666600000001666600000001666600000001666600000001666600000001667000000000000150000000000
11200000000000000000020100000008691830000000000000000000000000000000000000000000000000000000000000000000000000000000000000000000000000000000000000000000000000000000000000000000000000000659999000000659999000000659999000000659999000000659999000000660005000000000000000000000000
11210000000000000000020100000006033580000000000000000000000000000000000000000000000000000000000000000000000000000000000000000000000000000000000000000000000000000000000000000000000000000183332600000183332600000183332600000183332600000183332600000183337000000000000000000000000
11210100000000000000020100000005429050000000000000000000000000000000000000000000000000000000000000000000000000000000000000000000000000000000000000000000000000000000000000000000000000000168332600000168332600000168332600000168332600000168332600000168337000000000000000000000000
11210101000000000000020100000004225750000000000000000000000000000000000000000000000000000000000000000000000000000000000000000000000000000000000000000000000000000000000000000000000000000156666200000156666200000156666200000156666200000156666200000156669000000000000000000000000
11210101010000000000020100000000065000000000000000000000000000000000000000000000000000000000000000000000000000000000000000000000000000000000000000000000000000000000000000000000000000000081666600000081666600000081666600000081666600000081666600000081667000000000000150100000000
11210101020000000000020100000000000000000000000000000000000000000000000000000000000000000000000000000000000000000000000000000000000000000000000000000000000000000000000000000000000000000001666600000001666600000001666600000001666600000001666600000001667000000000000150100000000
11210101030000000000020100000001513000000000000000000000000000000000000000000000000000000000000000000000000000000000000000000000000000000000000000000000000000000000000000000000000000000015000000000015000000000015000000000015000000000015000000000015000000000000000150100000000
11210101040000000000020100000001130000000000000000000000000000000000000000000000000000000000000000000000000000000000000000000000000000000000000000000000000000000000000000000000000000000013333200000013333200000013333200000013333200000013333200000013334000000000000175900000000
11210101050000000000020100000001115750000000000000000000000000000000000000000000000000000000000000000000000000000000000000000000000000000000000000000000000000000000000000000000000000000026666600000026666600000026666600000026666600000026666600000026667000000000000150100000000
11210101060000000000020100000000402000000000000000000000000000000000000000000000000000000000000000000000000000000000000000000000000000000000000000000000000000000000000000000000000000000018333200000018333200000018333200000018333200000018333200000018334000000000000150100000000
11210102000000000000020100000000015300000000000000000000000000000000000000000000000000000000000000000000000000000000000000000000000000000000000000000000000000000000000000000000000000000000000000000000000000000000000000000000000000000000000000000000000000000000000000000000000
11210102040000000000020100000000015300000000000000000000000000000000000000000000000000000000000000000000000000000000000000000000000000000000000000000000000000000000000000000000000000000000000000000000000000000000000000000000000000000000000000000000000000000000000175900000000
11210103000000000000020100000001080000000000000000000000000000000000000000000000000000000000000000000000000000000000000000000000000000000000000000000000000000000000000000000000000000000008333200000008333200000008333200000008333200000008333200000008334000000000000000000000000
11210103010000000000020100000001080000000000000000000000000000000000000000000000000000000000000000000000000000000000000000000000000000000000000000000000000000000000000000000000000000000008333200000008333200000008333200000008333200000008333200000008334000000000000150100000000
11210104000000000000020100000000108000000000000000000000000000000000000000000000000000000000000000000000000000000000000000000000000000000000000000000000000000000000000000000000000000000003333200000003333200000003333200000003333200000003333200000003334000000000000000000000000
11210104010000000000020100000000108000000000000000000000000000000000000000000000000000000000000000000000000000000000000000000000000000000000000000000000000000000000000000000000000000000003333200000003333200000003333200000003333200000003333200000003334000000000000150100000000
11215000000000000000020100000000604530000000000000000000000000000000000000000000000000000000000000000000000000000000000000000000000000000000000000000000000000000000000000000000000000000015000000000015000000000015000000000015000000000015000000000015000000000000000000000000000
11215001000000000000020100000000355880000000000000000000000000000000000000000000000000000000000000000000000000000000000000000000000000000000000000000000000000000000000000000000000000000015000000000015000000000015000000000015000000000015000000000015000000000000000150100000000
11215003000000000000020100000000218380000000000000000000000000000000000000000000000000000000000000000000000000000000000000000000000000000000000000000000000000000000000000000000000000000000000000000000000000000000000000000000000000000000000000000000000000000000000150100000000
11215004000000000000020100000000030270000000000000000000000000000000000000000000000000000000000000000000000000000000000000000000000000000000000000000000000000000000000000000000000000000000000000000000000000000000000000000000000000000000000000000000000000000000000150100000000
11220000000000000000020100000002658250000000000000000000000000000000000000000000000000000000000000000000000000000000000000000000000000000000000000000000000000000000000000000000000000000476666400000476666400000476666400000476666400000476666400000476668000000000000000000000000
11225300000000000000020100000002658250000000000000000000000000000000000000000000000000000000000000000000000000000000000000000000000000000000000000000000000000000000000000000000000000000476666400000476666400000476666400000476666400000476666400000476668000000000000000000000000
11225301000000000000020100000001752870000000000000000000000000000000000000000000000000000000000000000000000000000000000000000000000000000000000000000000000000000000000000000000000000000446666600000446666600000446666600000446666600000446666600000446667000000000000150100000000
11225303000000000000020100000000763780000000000000000000000000000000000000000000000000000000000000000000000000000000000000000000000000000000000000000000000000000000000000000000000000000028333200000028333200000028333200000028333200000028333200000028334000000000000150100000000
11225304000000000000020100000000141600000000000000000000000000000000000000000000000000000000000000000000000000000000000000000000000000000000000000000000000000000000000000000000000000000001666600000001666600000001666600000001666600000001666600000001667000000000000150100000000
11300000000000000000020100000002214520000000000000000000000000000000000000000000000000000000000000000000000000000000000000000000000000000000000000000000000000000000000000000000000000000000000000000000000000000000000000000000000000000000000000000000000000000000000000000000000
11310000000000000000020100000002214520000000000000000000000000000000000000000000000000000000000000000000000000000000000000000000000000000000000000000000000000000000000000000000000000000000000000000000000000000000000000000000000000000000000000000000000000000000000000000000000
11315300000000000000020100000002214520000000000000000000000000000000000000000000000000000000000000000000000000000000000000000000000000000000000000000000000000000000000000000000000000000000000000000000000000000000000000000000000000000000000000000000000000000000000000000000000
11315301000000000000020100000001903630000000000000000000000000000000000000000000000000000000000000000000000000000000000000000000000000000000000000000000000000000000000000000000000000000000000000000000000000000000000000000000000000000000000000000000000000000000000150100000000
11315303000000000000020100000000310890000000000000000000000000000000000000000000000000000000000000000000000000000000000000000000000000000000000000000000000000000000000000000000000000000000000000000000000000000000000000000000000000000000000000000000000000000000000150100000000
12000000000000000000020100000023786780000000000000000000000000000000000000000000000000000000000000000000000000000000000000000000000000000000000000000000000000000000000000000000000000000500000000000500000000000500000000000500000000000500000000000500000000000000000000000000000
12400000000000000000020100000023786780000000000000000000000000000000000000000000000000000000000000000000000000000000000000000000000000000000000000000000000000000000000000000000000000000500000000000500000000000500000000000500000000000500000000000500000000000000000000000000000
12410000000000000000020100000023786780000000000000000000000000000000000000000000000000000000000000000000000000000000000000000000000000000000000000000000000000000000000000000000000000000500000000000500000000000500000000000500000000000500000000000500000000000000000000000000000
12415000000000000000020100000023786780000000000000000000000000000000000000000000000000000000000000000000000000000000000000000000000000000000000000000000000000000000000000000000000000000500000000000500000000000500000000000500000000000500000000000500000000000000000000000000000
12415001000000000000020100000023786780000000000000000000000000000000000000000000000000000000000000000000000000000000000000000000000000000000000000000000000000000000000000000000000000000500000000000500000000000500000000000500000000000500000000000500000000000000000175100000000
13000000000000000000020100000090992690000000000000000000000000000000000000000000000000000000000000000000000000000000000000000000000000000000000000000000000000000000000000000000000000001691665200001691665200001691665200001691665200001691665200001691674000000000000000000000000
13100000000000000000020100000023251470000000000000000000000000000000000000000000000000000000000000000000000000000000000000000000000000000000000000000000000000000000000000000000000000000451666600000451666600000451666600000451666600000451666600000451667000000000000000000000000
13110000000000000000020100000023251470000000000000000000000000000000000000000000000000000000000000000000000000000000000000000000000000000000000000000000000000000000000000000000000000000451666600000451666600000451666600000451666600000451666600000451667000000000000000000000000
13110100000000000000020100000023251470000000000000000000000000000000000000000000000000000000000000000000000000000000000000000000000000000000000000000000000000000000000000000000000000000451666600000451666600000451666600000451666600000451666600000451667000000000000000000000000
13110110000000000000020100000023251470000000000000000000000000000000000000000000000000000000000000000000000000000000000000000000000000000000000000000000000000000000000000000000000000000451666600000451666600000451666600000451666600000451666600000451667000000000000000000000000
13110111000000000000020100000023251470000000000000000000000000000000000000000000000000000000000000000000000000000000000000000000000000000000000000000000000000000000000000000000000000000451666600000451666600000451666600000451666600000451666600000451667000000000000150100000000
13200000000000000000020100000067741220000000000000000000000000000000000000000000000000000000000000000000000000000000000000000000000000000000000000000000000000000000000000000000000000001239998600001239998600001239998600001239998600001239998600001240007000000000000000000000000
13210000000000000000020100000067741220000000000000000000000000000000000000000000000000000000000000000000000000000000000000000000000000000000000000000000000000000000000000000000000000001239998600001239998600001239998600001239998600001239998600001240007000000000000000000000000
13210100000000000000020100000067741220000000000000000000000000000000000000000000000000000000000000000000000000000000000000000000000000000000000000000000000000000000000000000000000000001239998600001239998600001239998600001239998600001239998600001240007000000000000000000000000
13210101000000000000020100000067741220000000000000000000000000000000000000000000000000000000000000000000000000000000000000000000000000000000000000000000000000000000000000000000000000001239998600001239998600001239998600001239998600001239998600001240007000000000000000000000000
13210101010000000000020100000027013530000000000000000000000000000000000000000000000000000000000000000000000000000000000000000000000000000000000000000000000000000000000000000000000000000154999200000154999200000154999200000154999200000154999200000155004000000000000000000000000
13210101010200000000020100000002270870000000000000000000000000000000000000000000000000000000000000000000000000000000000000000000000000000000000000000000000000000000000000000000000000000053333200000053333200000053333200000053333200000053333200000053334000000000000000000000000
13210101010201000000020100000002270870000000000000000000000000000000000000000000000000000000000000000000000000000000000000000000000000000000000000000000000000000000000000000000000000000053333200000053333200000053333200000053333200000053333200000053334000000000000154000000000
13210101010300000000020100000006477200000000000000000000000000000000000000000000000000000000000000000000000000000000000000000000000000000000000000000000000000000000000000000000000000000011666400000011666400000011666400000011666400000011666400000011668000000000000000000000000
13210101010302000000020100000000174650000000000000000000000000000000000000000000000000000000000000000000000000000000000000000000000000000000000000000000000000000000000000000000000000000000000000000000000000000000000000000000000000000000000000000000000000000000000162100000000
13210101010303000000020100000000235710000000000000000000000000000000000000000000000000000000000000000000000000000000000000000000000000000000000000000000000000000000000000000000000000000000000000000000000000000000000000000000000000000000000000000000000000000000000162100000000
13210101010304000000020100000000000000000000000000000000000000000000000000000000000000000000000000000000000000000000000000000000000000000000000000000000000000000000000000000000000000000005000000000005000000000005000000000005000000000005000000000005000000000000000160000000000
13210101010305000000020100000000122960000000000000000000000000000000000000000000000000000000000000000000000000000000000000000000000000000000000000000000000000000000000000000000000000000001666600000001666600000001666600000001666600000001666600000001667000000000000160000000000
13210101010306000000020100000000001580000000000000000000000000000000000000000000000000000000000000000000000000000000000000000000000000000000000000000000000000000000000000000000000000000001666600000001666600000001666600000001666600000001666600000001667000000000000160000000000
13210101010309000000020100000000000620000000000000000000000000000000000000000000000000000000000000000000000000000000000000000000000000000000000000000000000000000000000000000000000000000000000000000000000000000000000000000000000000000000000000000000000000000000000162100000000
13210101010310000000020100000001781470000000000000000000000000000000000000000000000000000000000000000000000000000000000000000000000000000000000000000000000000000000000000000000000000000000000000000000000000000000000000000000000000000000000000000000000000000000000162100000000
13210101010311000000020100000000052400000000000000000000000000000000000000000000000000000000000000000000000000000000000000000000000000000000000000000000000000000000000000000000000000000000000000000000000000000000000000000000000000000000000000000000000000000000000162100000000
13210101010316000000020100000000240000000000000000000000000000000000000000000000000000000000000000000000000000000000000000000000000000000000000000000000000000000000000000000000000000000000000000000000000000000000000000000000000000000000000000000000000000000000000162100000000
13210101010317000000020100000002374810000000000000000000000000000000000000000000000000000000000000000000000000000000000000000000000000000000000000000000000000000000000000000000000000000000000000000000000000000000000000000000000000000000000000000000000000000000000160131100000
13210101010330000000020100000000041940000000000000000000000000000000000000000000000000000000000000000000000000000000000000000000000000000000000000000000000000000000000000000000000000000000000000000000000000000000000000000000000000000000000000000000000000000000000160500000000
13210101010334000000020100000000144090000000000000000000000000000000000000000000000000000000000000000000000000000000000000000000000000000000000000000000000000000000000000000000000000000000000000000000000000000000000000000000000000000000000000000000000000000000000160000000000
13210101010355000000020100000000027000000000000000000000000000000000000000000000000000000000000000000000000000000000000000000000000000000000000000000000000000000000000000000000000000000000000000000000000000000000000000000000000000000000000000000000000000000000000160100000000
13210101010358000000020100000000104920000000000000000000000000000000000000000000000000000000000000000000000000000000000000000000000000000000000000000000000000000000000000000000000000000000000000000000000000000000000000000000000000000000000000000000000000000000000162100000000
13210101010360000000020100000000036120000000000000000000000000000000000000000000000000000000000000000000000000000000000000000000000000000000000000000000000000000000000000000000000000000000000000000000000000000000000000000000000000000000000000000000000000000000000160100000000
13210101010361000000020100000000349970000000000000000000000000000000000000000000000000000000000000000000000000000000000000000000000000000000000000000000000000000000000000000000000000000000000000000000000000000000000000000000000000000000000000000000000000000000000160100000000
13210101010377000000020100000000075600000000000000000000000000000000000000000000000000000000000000000000000000000000000000000000000000000000000000000000000000000000000000000000000000000000000000000000000000000000000000000000000000000000000000000000000000000000000160100000000
13210101010378000000020100000000019780000000000000000000000000000000000000000000000000000000000000000000000000000000000000000000000000000000000000000000000000000000000000000000000000000000000000000000000000000000000000000000000000000000000000000000000000000000000163200000000
13210101010380000000020100000000025140000000000000000000000000000000000000000000000000000000000000000000000000000000000000000000000000000000000000000000000000000000000000000000000000000000000000000000000000000000000000000000000000000000000000000000000000000000000160100000000
13210101010383000000020100000000048060000000000000000000000000000000000000000000000000000000000000000000000000000000000000000000000000000000000000000000000000000000000000000000000000000000000000000000000000000000000000000000000000000000000000000000000000000000000162100000000
13210101010384000000020100000000018090000000000000000000000000000000000000000000000000000000000000000000000000000000000000000000000000000000000000000000000000000000000000000000000000000000000000000000000000000000000000000000000000000000000000000000000000000000000163200000000
132101010103840000000201-00000000180900000000000000000000000000000000000000000000000000000000000000000000000000000000000000000000000000000000000000000000000000000000000000000000000-00000000000-00000000000-00000000000-00000000000-00000000000-0000000000010900000000163200000000
13210101010385000000020100000000009310000000000000000000000000000000000000000000000000000000000000000000000000000000000000000000000000000000000000000000000000000000000000000000000000000001666600000001666600000001666600000001666600000001666600000001667000000000000150000000000
132101010103850000000201-00000000093100000000000000000000000000000000000000000000000000000000000000000000000000000000000000000000000000000000000000000000000000000000000000000000000-00000016666-00000016666-00000016666-00000016666-00000016666-0000001667010900000000150000000000
13210101010386000000020100000000534850000000000000000000000000000000000000000000000000000000000000000000000000000000000000000000000000000000000000000000000000000000000000000000000000000000000000000000000000000000000000000000000000000000000000000000000000000000000150010020000
13210101010387000000020100000000085530000000000000000000000000000000000000000000000000000000000000000000000000000000000000000000000000000000000000000000000000000000000000000000000000000000000000000000000000000000000000000000000000000000000000000000000000000000000160031010000
13210101010600000000020100000000013000000000000000000000000000000000000000000000000000000000000000000000000000000000000000000000000000000000000000000000000000000000000000000000000000000000000000000000000000000000000000000000000000000000000000000000000000000000000175000000000
13210101010700000000020100000001318030000000000000000000000000000000000000000000000000000000000000000000000000000000000000000000000000000000000000000000000000000000000000000000000000000001666600000001666600000001666600000001666600000001666600000001667000000000000000000000000
13210101010703000000020100000000113930000000000000000000000000000000000000000000000000000000000000000000000000000000000000000000000000000000000000000000000000000000000000000000000000000001666600000001666600000001666600000001666600000001666600000001667000000000000166000000000
13210101010705000000020100000000000600000000000000000000000000000000000000000000000000000000000000000000000000000000000000000000000000000000000000000000000000000000000000000000000000000000000000000000000000000000000000000000000000000000000000000000000000000000000166500000000
13210101010706000000020100000000570570000000000000000000000000000000000000000000000000000000000000000000000000000000000000000000000000000000000000000000000000000000000000000000000000000000000000000000000000000000000000000000000000000000000000000000000000000000000166500000000
13210101010708000000020100000000003910000000000000000000000000000000000000000000000000000000000000000000000000000000000000000000000000000000000000000000000000000000000000000000000000000000000000000000000000000000000000000000000000000000000000000000000000000000000166000000000
13210101010712000000020100000000231890000000000000000000000000000000000000000000000000000000000000000000000000000000000000000000000000000000000000000000000000000000000000000000000000000000000000000000000000000000000000000000000000000000000000000000000000000000000166500000000
13210101010713000000020100000000008540000000000000000000000000000000000000000000000000000000000000000000000000000000000000000000000000000000000000000000000000000000000000000000000000000000000000000000000000000000000000000000000000000000000000000000000000000000000166031100000
13210101010714000000020100000000151090000000000000000000000000000000000000000000000000000000000000000000000000000000000000000000000000000000000000000000000000000000000000000000000000000000000000000000000000000000000000000000000000000000000000000000000000000000000166031010000
13210101010715000000020100000000237500000000000000000000000000000000000000000000000000000000000000000000000000000000000000000000000000000000000000000000000000000000000000000000000000000000000000000000000000000000000000000000000000000000000000000000000000000000000166100000000
13210101010800000000020100000001585030000000000000000000000000000000000000000000000000000000000000000000000000000000000000000000000000000000000000000000000000000000000000000000000000000049999800000049999800000049999800000049999800000049999800000050001000000000000000000000000
13210101010801000000020100000000000000000000000000000000000000000000000000000000000000000000000000000000000000000000000000000000000000000000000000000000000000000000000000000000000000000001666600000001666600000001666600000001666600000001666600000001667000000000000155200000000
13210101010802000000020100000000140750000000000000000000000000000000000000000000000000000000000000000000000000000000000000000000000000000000000000000000000000000000000000000000000000000010000000000010000000000010000000000010000000000010000000000010000000000000000155000000000
13210101010803000000020100000000000000000000000000000000000000000000000000000000000000000000000000000000000000000000000000000000000000000000000000000000000000000000000000000000000000000001666600000001666600000001666600000001666600000001666600000001667000000000000155300000000
13210101010804000000020100000000765880000000000000000000000000000000000000000000000000000000000000000000000000000000000000000000000000000000000000000000000000000000000000000000000000000025000000000025000000000025000000000025000000000025000000000025000000000000000156900000000
13210101010805000000020100000000016660000000000000000000000000000000000000000000000000000000000000000000000000000000000000000000000000000000000000000000000000000000000000000000000000000000000000000000000000000000000000000000000000000000000000000000000000000000000156900000000
13210101010806000000020100000000661740000000000000000000000000000000000000000000000000000000000000000000000000000000000000000000000000000000000000000000000000000000000000000000000000000011666600000011666600000011666600000011666600000011666600000011667000000000000156900000000
13210101019900000000020100000015349400000000000000000000000000000000000000000000000000000000000000000000000000000000000000000000000000000000000000000000000000000000000000000000000000000038333200000038333200000038333200000038333200000038333200000038334000000000000000000000000
13210101019901000000020100000000649870000000000000000000000000000000000000000000000000000000000000000000000000000000000000000000000000000000000000000000000000000000000000000000000000000010000000000010000000000010000000000010000000000010000000000010000000000000000175900000000
13210101019902000000020100000000080500000000000000000000000000000000000000000000000000000000000000000000000000000000000000000000000000000000000000000000000000000000000000000000000000000000000000000000000000000000000000000000000000000000000000000000000000000000000170100000000
13210101019903000000020100000000402300000000000000000000000000000000000000000000000000000000000000000000000000000000000000000000000000000000000000000000000000000000000000000000000000000006666600000006666600000006666600000006666600000006666600000006667000000000000150000000000
13210101019904000000020100000000779530000000000000000000000000000000000000000000000000000000000000000000000000000000000000000000000000000000000000000000000000000000000000000000000000000000000000000000000000000000000000000000000000000000000000000000000000000000000175900000000
13210101019905000000020100000000803960000000000000000000000000000000000000000000000000000000000000000000000000000000000000000000000000000000000000000000000000000000000000000000000000000000000000000000000000000000000000000000000000000000000000000000000000000000000170631100000
13210101019906000000020100000000517940000000000000000000000000000000000000000000000000000000000000000000000000000000000000000000000000000000000000000000000000000000000000000000000000000000000000000000000000000000000000000000000000000000000000000000000000000000000170631100000
13210101019910000000020100000001419670000000000000000000000000000000000000000000000000000000000000000000000000000000000000000000000000000000000000000000000000000000000000000000000000000000000000000000000000000000000000000000000000000000000000000000000000000000000170000000000
13210101019911000000020100000000024600000000000000000000000000000000000000000000000000000000000000000000000000000000000000000000000000000000000000000000000000000000000000000000000000000000000000000000000000000000000000000000000000000000000000000000000000000000000170100000000
13210101019913000000020100000000132960000000000000000000000000000000000000000000000000000000000000000000000000000000000000000000000000000000000000000000000000000000000000000000000000000000000000000000000000000000000000000000000000000000000000000000000000000000000150000000000
13210101019917000000020100000000296520000000000000000000000000000000000000000000000000000000000000000000000000000000000000000000000000000000000000000000000000000000000000000000000000000000000000000000000000000000000000000000000000000000000000000000000000000000000170631100000
13210101019918000000020100000000741300000000000000000000000000000000000000000000000000000000000000000000000000000000000000000000000000000000000000000000000000000000000000000000000000000000000000000000000000000000000000000000000000000000000000000000000000000000000170631100000
13210101019919000000020100000001482580000000000000000000000000000000000000000000000000000000000000000000000000000000000000000000000000000000000000000000000000000000000000000000000000000000000000000000000000000000000000000000000000000000000000000000000000000000000170631100000
13210101019920000000020100000001333970000000000000000000000000000000000000000000000000000000000000000000000000000000000000000000000000000000000000000000000000000000000000000000000000000000000000000000000000000000000000000000000000000000000000000000000000000000000170100000000
13210101019921000000020100000000402300000000000000000000000000000000000000000000000000000000000000000000000000000000000000000000000000000000000000000000000000000000000000000000000000000000000000000000000000000000000000000000000000000000000000000000000000000000000170100000000
13210101019922000000020100000000030680000000000000000000000000000000000000000000000000000000000000000000000000000000000000000000000000000000000000000000000000000000000000000000000000000000000000000000000000000000000000000000000000000000000000000000000000000000000150000000000
13210101019925000000020100000000110400000000000000000000000000000000000000000000000000000000000000000000000000000000000000000000000000000000000000000000000000000000000000000000000000000000000000000000000000000000000000000000000000000000000000000000000000000000000170031100000
13210101019930000000020100000000000000000000000000000000000000000000000000000000000000000000000000000000000000000000000000000000000000000000000000000000000000000000000000000000000000000006666600000006666600000006666600000006666600000006666600000006667000000000000157100000000
13210101019931000000020100000000496290000000000000000000000000000000000000000000000000000000000000000000000000000000000000000000000000000000000000000000000000000000000000000000000000000000000000000000000000000000000000000000000000000000000000000000000000000000000170100000000
13210101019932000000020100000000118590000000000000000000000000000000000000000000000000000000000000000000000000000000000000000000000000000000000000000000000000000000000000000000000000000005000000000005000000000005000000000005000000000005000000000005000000000000000175100000000
13210101019933000000020100000000044550000000000000000000000000000000000000000000000000000000000000000000000000000000000000000000000000000000000000000000000000000000000000000000000000000010000000000010000000000010000000000010000000000010000000000010000000000000000170400000000
13210101019937000000020100000000633550000000000000000000000000000000000000000000000000000000000000000000000000000000000000000000000000000000000000000000000000000000000000000000000000000000000000000000000000000000000000000000000000000000000000000000000000000000000170631100000
13210101019939000000020100000000303750000000000000000000000000000000000000000000000000000000000000000000000000000000000000000000000000000000000000000000000000000000000000000000000000000000000000000000000000000000000000000000000000000000000000000000000000000000000170100000000
13210101019940000000020100000000004860000000000000000000000000000000000000000000000000000000000000000000000000000000000000000000000000000000000000000000000000000000000000000000000000000000000000000000000000000000000000000000000000000000000000000000000000000000000171500000000
13210101019941000000020100000000001790000000000000000000000000000000000000000000000000000000000000000000000000000000000000000000000000000000000000000000000000000000000000000000000000000000000000000000000000000000000000000000000000000000000000000000000000000000000171600000000
13210101019944000000020100000000000070000000000000000000000000000000000000000000000000000000000000000000000000000000000000000000000000000000000000000000000000000000000000000000000000000000000000000000000000000000000000000000000000000000000000000000000000000000000170800000000
13210101019945000000020100000002053700000000000000000000000000000000000000000000000000000000000000000000000000000000000000000000000000000000000000000000000000000000000000000000000000000000000000000000000000000000000000000000000000000000000000000000000000000000000170631100000
13210101019946000000020100000000223480000000000000000000000000000000000000000000000000000000000000000000000000000000000000000000000000000000000000000000000000000000000000000000000000000000000000000000000000000000000000000000000000000000000000000000000000000000000170100000000
13210101019950000000020100000002168100000000000000000000000000000000000000000000000000000000000000000000000000000000000000000000000000000000000000000000000000000000000000000000000000000000000000000000000000000000000000000000000000000000000000000000000000000000000170631100000
13210101019960000000020100000000091590000000000000000000000000000000000000000000000000000000000000000000000000000000000000000000000000000000000000000000000000000000000000000000000000000000000000000000000000000000000000000000000000000000000000000000000000000000000150000000000
13210101020000000000020100000040727690000000000000000000000000000000000000000000000000000000000000000000000000000000000000000000000000000000000000000000000000000000000000000000000000001084999400001084999400001084999400001084999400001084999400001085003000000000000000000000000
13210101029900000000020100000040727690000000000000000000000000000000000000000000000000000000000000000000000000000000000000000000000000000000000000000000000000000000000000000000000000001084999400001084999400001084999400001084999400001084999400001085003000000000000000000000000
13210101029901000000020100000006041370000000000000000000000000000000000000000000000000000000000000000000000000000000000000000000000000000000000000000000000000000000000000000000000000000313333200000313333200000313333200000313333200000313333200000313334000000000000150000000000
13210101029902000000020100000015180650000000000000000000000000000000000000000000000000000000000000000000000000000000000000000000000000000000000000000000000000000000000000000000000000000185000000000185000000000185000000000185000000000185000000000185000000000000000150000000000
13210101029905000000020100000000836850000000000000000000000000000000000000000000000000000000000000000000000000000000000000000000000000000000000000000000000000000000000000000000000000000071666600000071666600000071666600000071666600000071666600000071667000000000000150000000000
13210101029907000000020100000014480250000000000000000000000000000000000000000000000000000000000000000000000000000000000000000000000000000000000000000000000000000000000000000000000000000461666600000461666600000461666600000461666600000461666600000461667000000000000150000000000
13210101029908000000020100000000129010000000000000000000000000000000000000000000000000000000000000000000000000000000000000000000000000000000000000000000000000000000000000000000000000000001666600000001666600000001666600000001666600000001666600000001667000000000000150000000000
13210101029910000000020100000002840500000000000000000000000000000000000000000000000000000000000000000000000000000000000000000000000000000000000000000000000000000000000000000000000000000035000000000035000000000035000000000035000000000035000000000035000000000000000150100000000
13210101029912000000020100000000038610000000000000000000000000000000000000000000000000000000000000000000000000000000000000000000000000000000000000000000000000000000000000000000000000000000000000000000000000000000000000000000000000000000000000000000000000000000000150200000000
13210101029914000000020100000000011630000000000000000000000000000000000000000000000000000000000000000000000000000000000000000000000000000000000000000000000000000000000000000000000000000001666600000001666600000001666600000001666600000001666600000001667000000000000150000000000
13210101029916000000020100000000089820000000000000000000000000000000000000000000000000000000000000000000000000000000000000000000000000000000000000000000000000000000000000000000000000000001666600000001666600000001666600000001666600000001666600000001667000000000000150000000000
13210101029917000000020100000000146180000000000000000000000000000000000000000000000000000000000000000000000000000000000000000000000000000000000000000000000000000000000000000000000000000001666600000001666600000001666600000001666600000001666600000001667000000000000150000000000
13210101029932000000020100000000932820000000000000000000000000000000000000000000000000000000000000000000000000000000000000000000000000000000000000000000000000000000000000000000000000000011666600000011666600000011666600000011666600000011666600000011667000000000000150000000000
16000000000000000000020100000000375000000000000000000000000000000000000000000000000000000000000000000000000000000000000000000000000000000000000000000000000000000000000000000000000000000093333200000093333200000093333200000093333200000093333200000093334000000000000000000000000
16100000000000000000020100000000375000000000000000000000000000000000000000000000000000000000000000000000000000000000000000000000000000000000000000000000000000000000000000000000000000000093333200000093333200000093333200000093333200000093333200000093334000000000000000000000000
16110000000000000000020100000000375000000000000000000000000000000000000000000000000000000000000000000000000000000000000000000000000000000000000000000000000000000000000000000000000000000093333200000093333200000093333200000093333200000093333200000093334000000000000000000000000
16110100000000000000020100000000375000000000000000000000000000000000000000000000000000000000000000000000000000000000000000000000000000000000000000000000000000000000000000000000000000000093333200000093333200000093333200000093333200000093333200000093334000000000000000000000000
16110101000000000000020100000000375000000000000000000000000000000000000000000000000000000000000000000000000000000000000000000000000000000000000000000000000000000000000000000000000000000090000000000090000000000090000000000090000000000090000000000090000000000000000000000000000
16110101010000000000020100000000375000000000000000000000000000000000000000000000000000000000000000000000000000000000000000000000000000000000000000000000000000000000000000000000000000000090000000000090000000000090000000000090000000000090000000000090000000000000000150100000000
16110103000000000000020100000000000000000000000000000000000000000000000000000000000000000000000000000000000000000000000000000000000000000000000000000000000000000000000000000000000000000003333200000003333200000003333200000003333200000003333200000003334000000000000000000000000
16110103010000000000020100000000000000000000000000000000000000000000000000000000000000000000000000000000000000000000000000000000000000000000000000000000000000000000000000000000000000000003333200000003333200000003333200000003333200000003333200000003334000000000000150100000000
17000000000000000000020100003152056070000000000000000000000000000000000000000000000000000000000000000000000000000000000000000000000000000000000000000000000000000000000000000000000000120437384800108544444800109102154800109669044800108270214800137687828000000000000000000000000
17100000000000000000020100001372640430000000000000000000000000000000000000000000000000000000000000000000000000000000000000000000000000000000000000000000000000000000000000000000000000066046592000050805772000055576352000055332382000055370892000071068090000000000000000000000000
17110000000000000000020100001126273100000000000000000000000000000000000000000000000000000000000000000000000000000000000000000000000000000000000000000000000000000000000000000000000000060963260000045722440000050493020000050249050000050287560000065984750000000000000000000000000
17115100000000000000020100001113929950000000000000000000000000000000000000000000000000000000000000000000000000000000000000000000000000000000000000000000000000000000000000000000000000060871880000045628220000050457880000050143130000046770620000065537470000000000000000000000000
17115110000000000000020100001113929950000000000000000000000000000000000000000000000000000000000000000000000000000000000000000000000000000000000000000000000000000000000000000000000000060871880000045628220000050457880000043374680000040906640000058322300000000000000000000000000
17115111000000000000020100001392412380000000000000000000000000000000000000000000000000000000000000000000000000000000000000000000000000000000000000000000000000000000000000000000000000030435940000022814110000025228940000021687340000020453320000029161150000000000000150000000000
171151110000000000000201-00002784824300000000000000000000000000000000000000000000000000000000000000000000000000000000000000000000000000000000000000000000000000000000000000000000000-00304359400-00228141100-00252289400-00216873400-00204533200-0029161150010500000000150000000000
17115120000000000000020100000000000000000000000000000000000000000000000000000000000000000000000000000000000000000000000000000000000000000000000000000000000000000000000000000000000000000000000000000000000000000000000000006768450000005863980000007215170000000000000000000000000
17115121000000000000020100000000000000000000000000000000000000000000000000000000000000000000000000000000000000000000000000000000000000000000000000000000000000000000000000000000000000000000000000000000000000000000000000006768450000005863980000007215170000000000000000000000000
17115121010000000000020100000000000000000000000000000000000000000000000000000000000000000000000000000000000000000000000000000000000000000000000000000000000000000000000000000000000000000000000000000000000000000000000000006768450000000000000000000000000000000000000150000000000
17115121020000000000020100000000000000000000000000000000000000000000000000000000000000000000000000000000000000000000000000000000000000000000000000000000000000000000000000000000000000000000000000000000000000000000000000000000000000005863980000000000000000000000000150000000000
17115121030000000000020100000000000000000000000000000000000000000000000000000000000000000000000000000000000000000000000000000000000000000000000000000000000000000000000000000000000000000000000000000000000000000000000000000000000000000000000000007215170000000000000150000000000
17115200000000000000020100000012343150000000000000000000000000000000000000000000000000000000000000000000000000000000000000000000000000000000000000000000000000000000000000000000000000000091380000000094220000000035140000000105920000003516940000000447280000000000000000000000000
17115201000000000000020100000015428930000000000000000000000000000000000000000000000000000000000000000000000000000000000000000000000000000000000000000000000000000000000000000000000000000045690000000047110000000017570000000052960000001758470000000223640000000000000150000000000
171152010000000000000201-00000030857800000000000000000000000000000000000000000000000000000000000000000000000000000000000000000000000000000000000000000000000000000000000000000000000-00000456900-00000471100-00000175700-00000529600-00017584700-0000223640010500000000150000000000
17120000000000000000020100000025855160000000000000000000000000000000000000000000000000000000000000000000000000000000000000000000000000000000000000000000000000000000000000000000000000000376666600000376666600000376666600000376666600000376666600000376667000000000000000000000000
17125100000000000000020100000000028630000000000000000000000000000000000000000000000000000000000000000000000000000000000000000000000000000000000000000000000000000000000000000000000000000000000000000000000000000000000000000000000000000000000000000000000000000000000000000000000
17125101000000000000020100000000028630000000000000000000000000000000000000000000000000000000000000000000000000000000000000000000000000000000000000000000000000000000000000000000000000000000000000000000000000000000000000000000000000000000000000000000000000000000000170800000000
17125200000000000000020100000025826530000000000000000000000000000000000000000000000000000000000000000000000000000000000000000000000000000000000000000000000000000000000000000000000000000376666600000376666600000376666600000376666600000376666600000376667000000000000000000000000
17125240000000000000020100000025826530000000000000000000000000000000000000000000000000000000000000000000000000000000000000000000000000000000000000000000000000000000000000000000000000000376666600000376666600000376666600000376666600000376666600000376667000000000000000000000000
17125241000000000000020100000025826530000000000000000000000000000000000000000000000000000000000000000000000000000000000000000000000000000000000000000000000000000000000000000000000000000376666600000376666600000376666600000376666600000376666600000376667000000000000170400000000
17130000000000000000020100000150977430000000000000000000000000000000000000000000000000000000000000000000000000000000000000000000000000000000000000000000000000000000000000000000000000002796666000002796666000002796666000002796666000002796666000002796670000000000000000000000000
17135000000000000000020100000150977430000000000000000000000000000000000000000000000000000000000000000000000000000000000000000000000000000000000000000000000000000000000000000000000000002796666000002796666000002796666000002796666000002796666000002796670000000000000000000000000
17135010000000000000020100000119780730000000000000000000000000000000000000000000000000000000000000000000000000000000000000000000000000000000000000000000000000000000000000000000000000002293333200002293333200002293333200002293333200002293333200002293334000000000000000000000000
17135011000000000000020100000119780730000000000000000000000000000000000000000000000000000000000000000000000000000000000000000000000000000000000000000000000000000000000000000000000000002293333200002293333200002293333200002293333200002293333200002293334000000000000000000000000
17135011010000000000020100000048576000000000000000000000000000000000000000000000000000000000000000000000000000000000000000000000000000000000000000000000000000000000000000000000000000000686666600000686666600000686666600000686666600000686666600000686667000000000000160400000000
17135011020000000000020100000070860380000000000000000000000000000000000000000000000000000000000000000000000000000000000000000000000000000000000000000000000000000000000000000000000000001606666600001606666600001606666600001606666600001606666600001606667000000000000160000000000
17135011060000000000020100000000144350000000000000000000000000000000000000000000000000000000000000000000000000000000000000000000000000000000000000000000000000000000000000000000000000000000000000000000000000000000000000000000000000000000000000000000000000000000000160000000000
17135011070000000000020100000000200000000000000000000000000000000000000000000000000000000000000000000000000000000000000000000000000000000000000000000000000000000000000000000000000000000000000000000000000000000000000000000000000000000000000000000000000000000000000160000000000
17135020000000000000020100000000735830000000000000000000000000000000000000000000000000000000000000000000000000000000000000000000000000000000000000000000000000000000000000000000000000000015000000000015000000000015000000000015000000000015000000000015000000000000000000000000000
17135021000000000000020100000000735830000000000000000000000000000000000000000000000000000000000000000000000000000000000000000000000000000000000000000000000000000000000000000000000000000015000000000015000000000015000000000015000000000015000000000015000000000000000000000000000
17135021010000000000020100000000735830000000000000000000000000000000000000000000000000000000000000000000000000000000000000000000000000000000000000000000000000000000000000000000000000000015000000000015000000000015000000000015000000000015000000000015000000000000000160000000000
17135030000000000000020100000010794010000000000000000000000000000000000000000000000000000000000000000000000000000000000000000000000000000000000000000000000000000000000000000000000000000246666400000246666400000246666400000246666400000246666400000246668000000000000000000000000
17135031000000000000020100000010794010000000000000000000000000000000000000000000000000000000000000000000000000000000000000000000000000000000000000000000000000000000000000000000000000000246666400000246666400000246666400000246666400000246666400000246668000000000000000000000000
17135031010000000000020100000009108000000000000000000000000000000000000000000000000000000000000000000000000000000000000000000000000000000000000000000000000000000000000000000000000000000138333200000138333200000138333200000138333200000138333200000138334000000000000160400000000
17135031020000000000020100000000000000000000000000000000000000000000000000000000000000000000000000000000000000000000000000000000000000000000000000000000000000000000000000000000000000000015000000000015000000000015000000000015000000000015000000000015000000000000000160000000000
17135031030000000000020100000001686010000000000000000000000000000000000000000000000000000000000000000000000000000000000000000000000000000000000000000000000000000000000000000000000000000093333200000093333200000093333200000093333200000093333200000093334000000000000160000000000
17135040000000000000020100000016174640000000000000000000000000000000000000000000000000000000000000000000000000000000000000000000000000000000000000000000000000000000000000000000000000000088333200000088333200000088333200000088333200000088333200000088334000000000000000000000000
17135041000000000000020100000016174640000000000000000000000000000000000000000000000000000000000000000000000000000000000000000000000000000000000000000000000000000000000000000000000000000088333200000088333200000088333200000088333200000088333200000088334000000000000000000000000
17135041010000000000020100000004043660000000000000000000000000000000000000000000000000000000000000000000000000000000000000000000000000000000000000000000000000000000000000000000000000000088333200000088333200000088333200000088333200000088333200000088334000000000000160000000000
17135041020000000000020100000012130980000000000000000000000000000000000000000000000000000000000000000000000000000000000000000000000000000000000000000000000000000000000000000000000000000000000000000000000000000000000000000000000000000000000000000000000000000000000160031010000
17135050000000000000020100000003492220000000000000000000000000000000000000000000000000000000000000000000000000000000000000000000000000000000000000000000000000000000000000000000000000000153333200000153333200000153333200000153333200000153333200000153334000000000000000000000000
17135051000000000000020100000003492220000000000000000000000000000000000000000000000000000000000000000000000000000000000000000000000000000000000000000000000000000000000000000000000000000153333200000153333200000153333200000153333200000153333200000153334000000000000000000000000
17135051010000000000020100000003492220000000000000000000000000000000000000000000000000000000000000000000000000000000000000000000000000000000000000000000000000000000000000000000000000000153333200000153333200000153333200000153333200000153333200000153334000000000000160500000000
17140000000000000000020100000059545470000000000000000000000000000000000000000000000000000000000000000000000000000000000000000000000000000000000000000000000000000000000000000000000000001383333000001383333000001383333000001383333000001383333000001383335000000000000000000000000
17145000000000000000020100000059545470000000000000000000000000000000000000000000000000000000000000000000000000000000000000000000000000000000000000000000000000000000000000000000000000000733333200000733333200000733333200000733333200000733333200000733334000000000000000000000000
17145001000000000000020100000059545470000000000000000000000000000000000000000000000000000000000000000000000000000000000000000000000000000000000000000000000000000000000000000000000000000733333200000733333200000733333200000733333200000733333200000733334000000000000155000000000
17145200000000000000020100000000000000000000000000000000000000000000000000000000000000000000000000000000000000000000000000000000000000000000000000000000000000000000000000000000000000000208333200000208333200000208333200000208333200000208333200000208334000000000000000000000000
17145201000000000000020100000000000000000000000000000000000000000000000000000000000000000000000000000000000000000000000000000000000000000000000000000000000000000000000000000000000000000208333200000208333200000208333200000208333200000208333200000208334000000000000155200000000
17145300000000000000020100000000000000000000000000000000000000000000000000000000000000000000000000000000000000000000000000000000000000000000000000000000000000000000000000000000000000000096666600000096666600000096666600000096666600000096666600000096667000000000000000000000000
17145301000000000000020100000000000000000000000000000000000000000000000000000000000000000000000000000000000000000000000000000000000000000000000000000000000000000000000000000000000000000096666600000096666600000096666600000096666600000096666600000096667000000000000155300000000
17149900000000000000020100000000000000000000000000000000000000000000000000000000000000000000000000000000000000000000000000000000000000000000000000000000000000000000000000000000000000000345000000000345000000000345000000000345000000000345000000000345000000000000000000000000000
17149901000000000000020100000000000000000000000000000000000000000000000000000000000000000000000000000000000000000000000000000000000000000000000000000000000000000000000000000000000000000345000000000345000000000345000000000345000000000345000000000345000000000000000000000000000
17149901010000000000020100000000000000000000000000000000000000000000000000000000000000000000000000000000000000000000000000000000000000000000000000000000000000000000000000000000000000000225000000000225000000000225000000000225000000000225000000000225000000000000000156900000000
17149901020000000000020100000000000000000000000000000000000000000000000000000000000000000000000000000000000000000000000000000000000000000000000000000000000000000000000000000000000000000120000000000120000000000120000000000120000000000120000000000120000000000000000156900000000
17160000000000000000020100000003456000000000000000000000000000000000000000000000000000000000000000000000000000000000000000000000000000000000000000000000000000000000000000000000000000000351666400000351666400000351666400000351666400000351666400000351668000000000000000000000000
17165000000000000000020100000003456000000000000000000000000000000000000000000000000000000000000000000000000000000000000000000000000000000000000000000000000000000000000000000000000000000351666400000351666400000351666400000351666400000351666400000351668000000000000000000000000
17165001000000000000020100000003456000000000000000000000000000000000000000000000000000000000000000000000000000000000000000000000000000000000000000000000000000000000000000000000000000000351666400000351666400000351666400000351666400000351666400000351668000000000000000000000000
17165001020000000000020100000000000000000000000000000000000000000000000000000000000000000000000000000000000000000000000000000000000000000000000000000000000000000000000000000000000000000200000000000200000000000200000000000200000000000200000000000200000000000000000166000000000
17165001030000000000020100000000000000000000000000000000000000000000000000000000000000000000000000000000000000000000000000000000000000000000000000000000000000000000000000000000000000000078333200000078333200000078333200000078333200000078333200000078334000000000000166000000000
17165001040000000000020100000003456000000000000000000000000000000000000000000000000000000000000000000000000000000000000000000000000000000000000000000000000000000000000000000000000000000050000000000050000000000050000000000050000000000050000000000050000000000000000166000000000
17165001060000000000020100000000000000000000000000000000000000000000000000000000000000000000000000000000000000000000000000000000000000000000000000000000000000000000000000000000000000000023333200000023333200000023333200000023333200000023333200000023334000000000000166000000000
17190000000000000000020100000006533270000000000000000000000000000000000000000000000000000000000000000000000000000000000000000000000000000000000000000000000000000000000000000000000000000175000000000175000000000175000000000175000000000175000000000175000000000000000000000000000
17195800000000000000020100000006533270000000000000000000000000000000000000000000000000000000000000000000000000000000000000000000000000000000000000000000000000000000000000000000000000000175000000000175000000000175000000000175000000000175000000000175000000000000000000000000000
17195801000000000000020100000006533270000000000000000000000000000000000000000000000000000000000000000000000000000000000000000000000000000000000000000000000000000000000000000000000000000175000000000175000000000175000000000175000000000175000000000175000000000000000150100000000
17200000000000000000020100001124607580000000000000000000000000000000000000000000000000000000000000000000000000000000000000000000000000000000000000000000000000000000000000000000000000042164392800046211172800042289512800043095432800041959912800053722568000000000000000000000000
17210000000000000000020100001088922840000000000000000000000000000000000000000000000000000000000000000000000000000000000000000000000000000000000000000000000000000000000000000000000000040657726600044704506600040782846600041588766600040453246600052215899000000000000000000000000
17215000000000000000020100000837074240000000000000000000000000000000000000000000000000000000000000000000000000000000000000000000000000000000000000000000000000000000000000000000000000033636000000037580020000037231960000040099540000039553100000046711828000000000000000000000000
17215001000000000000020100001046342810000000000000000000000000000000000000000000000000000000000000000000000000000000000000000000000000000000000000000000000000000000000000000000000000016818000000018790010000018615980000020049770000019776550000023355914000000000000150000000000
172150010000000000000201-00002092685700000000000000000000000000000000000000000000000000000000000000000000000000000000000000000000000000000000000000000000000000000000000000000000000-00168180000-00187900100-00186159800-00200497700-00197765500-0023355914010500000000150000000000
17215100000000000000020100000237937970000000000000000000000000000000000000000000000000000000000000000000000000000000000000000000000000000000000000000000000000000000000000000000000000006571760000006687340000003162240000001089680000000407900000005033240000000000000000000000000
17215101000000000000020100000297422500000000000000000000000000000000000000000000000000000000000000000000000000000000000000000000000000000000000000000000000000000000000000000000000000003285880000003343670000001581120000000544840000000203950000002516620000000000000150000000000
172151010000000000000201-00000594845300000000000000000000000000000000000000000000000000000000000000000000000000000000000000000000000000000000000000000000000000000000000000000000000-00032858800-00033436700-00015811200-00005448400-00002039500-0002516620010500000000150000000000
17215200000000000000020100000011309380000000000000000000000000000000000000000000000000000000000000000000000000000000000000000000000000000000000000000000000000000000000000000000000000000438300000000425480000000376980000000387880000000480580000000459164000000000000000000000000
17215201000000000000020100000014136730000000000000000000000000000000000000000000000000000000000000000000000000000000000000000000000000000000000000000000000000000000000000000000000000000219150000000212740000000188490000000193940000000240290000000229582000000000000150000000000
172152010000000000000201-00000028273500000000000000000000000000000000000000000000000000000000000000000000000000000000000000000000000000000000000000000000000000000000000000000000000-00002191500-00002127400-00001884900-00001939400-00002402900-0000229582010500000000150000000000
17215300000000000000020100000002601250000000000000000000000000000000000000000000000000000000000000000000000000000000000000000000000000000000000000000000000000000000000000000000000000000011666600000011666600000011666600000011666600000011666600000011667000000000000000000000000
17215301000000000000020100000002601250000000000000000000000000000000000000000000000000000000000000000000000000000000000000000000000000000000000000000000000000000000000000000000000000000011666600000011666600000011666600000011666600000011666600000011667000000000000175000000000
17230000000000000000020100000029684740000000000000000000000000000000000000000000000000000000000000000000000000000000000000000000000000000000000000000000000000000000000000000000000000000924999600000924999600000924999600000924999600000924999600000925002000000000000000000000000
17235000000000000000020100000029684740000000000000000000000000000000000000000000000000000000000000000000000000000000000000000000000000000000000000000000000000000000000000000000000000000924999600000924999600000924999600000924999600000924999600000925002000000000000000000000000
17235001000000000000020100000029684740000000000000000000000000000000000000000000000000000000000000000000000000000000000000000000000000000000000000000000000000000000000000000000000000000924999600000924999600000924999600000924999600000924999600000925002000000000000000000000000
17235001010000000000020100000015622260000000000000000000000000000000000000000000000000000000000000000000000000000000000000000000000000000000000000000000000000000000000000000000000000000425000000000425000000000425000000000425000000000425000000000425000000000000000162100000000
17235001020000000000020100000009777860000000000000000000000000000000000000000000000000000000000000000000000000000000000000000000000000000000000000000000000000000000000000000000000000000333333200000333333200000333333200000333333200000333333200000333334000000000000162100000000
17235001030000000000020100000002964000000000000000000000000000000000000000000000000000000000000000000000000000000000000000000000000000000000000000000000000000000000000000000000000000000083333200000083333200000083333200000083333200000083333200000083334000000000000162100000000
17235001040000000000020100000001320620000000000000000000000000000000000000000000000000000000000000000000000000000000000000000000000000000000000000000000000000000000000000000000000000000083333200000083333200000083333200000083333200000083333200000083334000000000000162100000000
17240000000000000000020100000006000000000000000000000000000000000000000000000000000000000000000000000000000000000000000000000000000000000000000000000000000000000000000000000000000000000581666600000581666600000581666600000581666600000581666600000581667000000000000000000000000
17245100000000000000020100000000000000000000000000000000000000000000000000000000000000000000000000000000000000000000000000000000000000000000000000000000000000000000000000000000000000000525000000000525000000000525000000000525000000000525000000000525000000000000000000000000000
17245101010000000000020100000000000000000000000000000000000000000000000000000000000000000000000000000000000000000000000000000000000000000000000000000000000000000000000000000000000000000525000000000525000000000525000000000525000000000525000000000525000000000000000000000000000
17245101010100000000020100000000000000000000000000000000000000000000000000000000000000000000000000000000000000000000000000000000000000000000000000000000000000000000000000000000000000000525000000000525000000000525000000000525000000000525000000000525000000000000000157100000000
17249900000000000000020100000006000000000000000000000000000000000000000000000000000000000000000000000000000000000000000000000000000000000000000000000000000000000000000000000000000000000056666600000056666600000056666600000056666600000056666600000056667000000000000000000000000
17249901000000000000020100000006000000000000000000000000000000000000000000000000000000000000000000000000000000000000000000000000000000000000000000000000000000000000000000000000000000000056666600000056666600000056666600000056666600000056666600000056667000000000000000000000000
17249901990000000000020100000006000000000000000000000000000000000000000000000000000000000000000000000000000000000000000000000000000000000000000000000000000000000000000000000000000000000056666600000056666600000056666600000056666600000056666600000056667000000000000000000000000
17249901990100000000020100000006000000000000000000000000000000000000000000000000000000000000000000000000000000000000000000000000000000000000000000000000000000000000000000000000000000000055000000000055000000000055000000000055000000000055000000000055000000000000000170100000000
17249901990200000000020100000000000000000000000000000000000000000000000000000000000000000000000000000000000000000000000000000000000000000000000000000000000000000000000000000000000000000001666600000001666600000001666600000001666600000001666600000001667000000000000175200000000
17500000000000000000020100000654808060000000000000000000000000000000000000000000000000000000000000000000000000000000000000000000000000000000000000000000000000000000000000000000000000012226400000011527500000011236290000011241230000010939410000012897170000000000000000000000000
17510000000000000000020100000654808060000000000000000000000000000000000000000000000000000000000000000000000000000000000000000000000000000000000000000000000000000000000000000000000000012226400000011527500000011236290000011241230000010939410000012897170000000000000000000000000
17515000000000000000020100000654808060000000000000000000000000000000000000000000000000000000000000000000000000000000000000000000000000000000000000000000000000000000000000000000000000012226400000011527500000011236290000011241230000010939410000012897170000000000000000000000000
17515001000000000000020100000654808060000000000000000000000000000000000000000000000000000000000000000000000000000000000000000000000000000000000000000000000000000000000000000000000000012226400000011527500000011236290000011241230000010939410000012897170000000000000000000000000
17515001010000000000020100000654808060000000000000000000000000000000000000000000000000000000000000000000000000000000000000000000000000000000000000000000000000000000000000000000000000012226400000011527500000011236290000011241230000010939410000012897170000000000000154000000000
19000000000000000000020100000017312400000000000000000000000000000000000000000000000000000000000000000000000000000000000000000000000000000000000000000000000000000000000000000000000000000346666600000346666600000346666600000346666600000346666600000346667000000000000000000000000
19200000000000000000020100000016630000000000000000000000000000000000000000000000000000000000000000000000000000000000000000000000000000000000000000000000000000000000000000000000000000000346666600000346666600000346666600000346666600000346666600000346667000000000000000000000000
19210000000000000000020100000003531050000000000000000000000000000000000000000000000000000000000000000000000000000000000000000000000000000000000000000000000000000000000000000000000000000000000000000000000000000000000000000000000000000000000000000000000000000000000000000000000
19210100000000000000020100000003531050000000000000000000000000000000000000000000000000000000000000000000000000000000000000000000000000000000000000000000000000000000000000000000000000000000000000000000000000000000000000000000000000000000000000000000000000000000000000000000000
19210101000000000000020100000003531050000000000000000000000000000000000000000000000000000000000000000000000000000000000000000000000000000000000000000000000000000000000000000000000000000000000000000000000000000000000000000000000000000000000000000000000000000000000150100000000
19220000000000000000020100000013098950000000000000000000000000000000000000000000000000000000000000000000000000000000000000000000000000000000000000000000000000000000000000000000000000000346666600000346666600000346666600000346666600000346666600000346667000000000000000000000000
19220200000000000000020100000009811680000000000000000000000000000000000000000000000000000000000000000000000000000000000000000000000000000000000000000000000000000000000000000000000000000220000000000220000000000220000000000220000000000220000000000220000000000000000000000000000
19220201000000000000020100000009811680000000000000000000000000000000000000000000000000000000000000000000000000000000000000000000000000000000000000000000000000000000000000000000000000000220000000000220000000000220000000000220000000000220000000000220000000000000000000000000000
19220201010000000000020100000009811680000000000000000000000000000000000000000000000000000000000000000000000000000000000000000000000000000000000000000000000000000000000000000000000000000220000000000220000000000220000000000220000000000220000000000220000000000000000150100000000
19220600000000000000020100000000459970000000000000000000000000000000000000000000000000000000000000000000000000000000000000000000000000000000000000000000000000000000000000000000000000000000000000000000000000000000000000000000000000000000000000000000000000000000000000000000000
19220630000000000000020100000000459970000000000000000000000000000000000000000000000000000000000000000000000000000000000000000000000000000000000000000000000000000000000000000000000000000000000000000000000000000000000000000000000000000000000000000000000000000000000000000000000
19220631000000000000020100000000459970000000000000000000000000000000000000000000000000000000000000000000000000000000000000000000000000000000000000000000000000000000000000000000000000000000000000000000000000000000000000000000000000000000000000000000000000000000000150100000000
19229900000000000000020100000002827300000000000000000000000000000000000000000000000000000000000000000000000000000000000000000000000000000000000000000000000000000000000000000000000000000126666600000126666600000126666600000126666600000126666600000126667000000000000000000000000
19229901000000000000020100000000000000000000000000000000000000000000000000000000000000000000000000000000000000000000000000000000000000000000000000000000000000000000000000000000000000000126666600000126666600000126666600000126666600000126666600000126667000000000000000000000000
19229901020000000000020100000000000000000000000000000000000000000000000000000000000000000000000000000000000000000000000000000000000000000000000000000000000000000000000000000000000000000126666600000126666600000126666600000126666600000126666600000126667000000000000150100000000
19229903000000000000020100000002827300000000000000000000000000000000000000000000000000000000000000000000000000000000000000000000000000000000000000000000000000000000000000000000000000000000000000000000000000000000000000000000000000000000000000000000000000000000000000000000000
19229903010000000000020100000002827300000000000000000000000000000000000000000000000000000000000000000000000000000000000000000000000000000000000000000000000000000000000000000000000000000000000000000000000000000000000000000000000000000000000000000000000000000000000150100000000
19900000000000000000020100000000682400000000000000000000000000000000000000000000000000000000000000000000000000000000000000000000000000000000000000000000000000000000000000000000000000000000000000000000000000000000000000000000000000000000000000000000000000000000000000000000000
19990000000000000000020100000000682400000000000000000000000000000000000000000000000000000000000000000000000000000000000000000000000000000000000000000000000000000000000000000000000000000000000000000000000000000000000000000000000000000000000000000000000000000000000000000000000
19999900000000000000020100000000682400000000000000000000000000000000000000000000000000000000000000000000000000000000000000000000000000000000000000000000000000000000000000000000000000000000000000000000000000000000000000000000000000000000000000000000000000000000000000000000000
19999930000000000000020100000000682400000000000000000000000000000000000000000000000000000000000000000000000000000000000000000000000000000000000000000000000000000000000000000000000000000000000000000000000000000000000000000000000000000000000000000000000000000000000000000000000
19999931000000000000020100000000682400000000000000000000000000000000000000000000000000000000000000000000000000000000000000000000000000000000000000000000000000000000000000000000000000000000000000000000000000000000000000000000000000000000000000000000000000000000000000000000000
19999931010000000000020100000000682400000000000000000000000000000000000000000000000000000000000000000000000000000000000000000000000000000000000000000000000000000000000000000000000000000000000000000000000000000000000000000000000000000000000000000000000000000000000150100000000
FINALIZADOR0000000297