87612826000190010120253101202501022025PREFEITURA MUNICIPAL INDEPENDENCIA                                              
2002300000000000000DESPESAS CORRENTES                                                                                            S01
2002310000000000000PESSOAL E ENCARGOS SOCIAIS                                                                                    S02
2002311000000000000TRANSFERENCIAS INTRAGOVERNAMENTAIS                                                                            S03
2002319000000000000APLICAOES DIRETAS                                                                                             S03
2002319001000000000APOSENTADORIAS                                                                                                A05
2002319003000000000PENSOES                                                                                                       A05
2002319004000000000CONTRATAAO POR TEMPO DETERMINADO                                                                              S05
2002319004010000000CONTRATAAO POR TEMPO DETERMINADO - SADE                                                                       A06
2002319004020000000CONTRATAAO POR TEMPO DETERMINADO - ASSSOCIAL                                                                  A06
2002319004030000000CONTRATAAO POR TEMPO DETERMINADO - EDUCAAO                                                                    A06
2002319004040000000CONTRATAAO POR TEMPO DETERMINADO - DIVERSOS                                                                   A06
2002319005000000000OUTROS BENEFCIOS PREVIDENCIRIOS                                                                               S05
2002319005010000000AUXLIO DOENA                                                                                                  A06
2002319005020000000AUXLIO RECLUSAO                                                                                               A06
2002319005030000000SALRIO MATERNIDADE                                                                                            A06
2002319005990000000OUTROS BENEFCIOS PREVIDENCIRIOS                                                                               A06
2002319009000000000SALRIO-FAMLIA                                                                                                 S05
2002319009010000000SALRIO FAMLIA  PESSOAL ATIVO                                                                                  S06
2002319009010100000SALRIO FAMLIA DOS SERVIDORES                                                                                  A07
2002319009010200000SALRIO FAMLIA DOS PROFEM EFETIVO EXERCCIO DO MAGISTRIO 60 DO FUN                                              A07
2002319009020000000SALRIO FAMLIA  PESSOAL INATIVO                                                                                S06
2002319009030000000SALRIO FAMLIA  PENSIONISTA                                                                                    A06
2002319011000000000VENCIMENTOS E VANTAGENS FIXAS                                                                                 S05
2002319011010000000VENCIMENTOS E VANTAGENS FIXAS DOS SERVIDORES                                                                  A06
2002319011020000000VENCIMENTOS E VANTAGENS FIXAS DOS PROFEM EFEXERCDO MAGISTRIO 60 D                                             A06
2002319011030000000SUBSDIOS                                                                                                      A06
2002319011040000000REPRESENTAAO MENSAL                                                                                           A06
2002319013000000000OBRIGAOES PATRONAIS                                                                                           S05
2002319013010000000CONTRIBUIAO AO FGTS                                                                                           S06
2002319013010100000FGTS - SERVIDORES                                                                                             A07
2002319013010200000FGTS - PROFESSORES EM EFETIVO EXERCCIO DO MAGISTRIO 60 DO FUNDEF                                              A07
2002319013020000000CONTRIBUIOES PREVIDENCIRIAS - INSS                                                                            S06
2002319013020100000INSS - SERVIDORES                                                                                             A07
2002319013020200000INSS - PROFESSORES EM EFETIVO EXERCCIO DO MAGISTRIO 60 DO FUNDEF                                              A07
2002319013020300000INSS - AGENTES POLTICOS                                                                                       A07
2002319013030000000CONTRIBUIAO PATRONAL PARA O REGDE PREVDO SERVART201 E ART 202 DA                                              S06
2002319013030100000RPPS - SERVIDORES                                                                                             A07
2002319013030200000RPPS - PROFESSORES EM EFETIVO EXERCCIO DO MAGISTRIO 60 DO FUNDEF                                              A07
2002319013030300000RPPS - AGENTES POLTICOS                                                                                       A07
2002319016000000000OUTRAS DESPESAS VARIVEIS                                                                                      S05
2002319016010000000SUBSTITUIOES                                                                                                  A06
2002319016020000000SERVIOS EXTRAORDINRIOS - HORAS EXTRAS                                                                         A06
2002319016990000000OUTRAS DESPESAS VARIVEIS                                                                                      A06
2002319046000000000AUXLIO-ALIMENTAAO                                                                                             A05
2002319047000000000OBRIGAOES TRIBUTRIAS E CONTRIBUTIVAS                                                                          S05
2002319047010000000CONTRIBUIAO PARA O PASEP                                                                                      S06
2002319047010100000PASEP - SERVIDORES                                                                                            A07
2002319047010200000PASEP - PROFESSORES EM EFETIVO EXERCCIO DO MAGISTRIO 60 DO FUNDEF                                             A07
2002319067000000000DEPSITOS COMPULSRIOS                                                                                          A05
2002319091000000000SENTENAS JUDICIAIS                                                                                            S05
2002319091010000000SENTENAS JUDICIAIS - PRINCIPAL                                                                                A06
2002319091020000000SENTENAS JUDICIAIS - ATUALIZAAO MONETRIA                                                                      A06
2002319092000000000DESPESAS DE EXERCCIOS ANTERIORES                                                                              A05
2002319096000000000RESSARCIMENTO DE DESPESAS DE PESSOAL REQUISITADO                                                              A05
2002320000000000000JUROS E ENCARGOS DA DVIDA                                                                                     S02
2002321000000000000TRANSFERENCIAS INTRAGOVERNAMENTAIS                                                                            A03
2002329000000000000APLICAOES DIRETAS                                                                                             S03
2002329021000000000JUROS SOBRE A DVIDA POR CONTRATO                                                                              A05
2002329022000000000OUTROS ENCARGOS SOBRE A DVIDA POR CONTRATO                                                                    A05
2002329023000000000JUROS DESGIOS E DESCONTOS DA DVIDA MOBILIRIA                                                                  A05
2002329024000000000OUTROS ENCARGOS SOBRE A DVIDA MOBILIRIA                                                                       A05
2002329025000000000ENC SOBRE OPER DE CRED POR ANTEC DA RECEITA                                                                   A05
2002329091000000000SENTENAS JUDICIAIS                                                                                            S05
2002329091010000000SENTENAS JUDICIAIS - PRINCIPAL                                                                                A06
2002329091020000000SENTENAS JUDICIAIS - ATUALIZAAO MONETRIA                                                                      A06
2002329092000000000DESPESAS DE EXERCCIOS ANTERIORES                                                                              A05
2002330000000000000OUTRAS DESPESAS CORRENTES                                                                                     S02
2002331000000000000TRANSFERENCIAS INTRAGOVERNAMENTAIS                                                                            S03
2002331041000000000CONTRIBUIOES                                                                                                  A05
2002332000000000000TRANSFERENCIAS A UNIAO                                                                                        S03
2002332041000000000CONTRIBUIOES                                                                                                  S05
2002332041010000000COMPENSAAO FINANCEIRA  9 ART 201 DA CF                                                                        A06
2002333000000000000TRANSFERENCIAS AO ESTADO E AO DISTRITO FEDERAL                                                                S03
2002333041000000000CONTRIBUIOES                                                                                                  S05
2002333041010000000COMPENSAAO FINANCEIRA  9 ART 201 DA CF                                                                        A06
2002333041020000000PROGRMA TROCA-TROCA                                                                                           A06
2002334000000000000TRANSFERENCIAS A MUNICPIOS                                                                                    S03
2002334041000000000CONTRIBUIOES                                                                                                  S05
2002334041010000000COMPENSAAO FINANCEIRA  9 ART 201 DA CF                                                                        A06
2002335000000000000TRANSFERENCIAS A INSTITUICOES PRIVADAS SEM FINS LUCRATIVOS                                                    S03
2002335041000000000CONTRIBUIOES                                                                                                  S05
2002335041010000000CONTRIBUICOES A FUNDAOES E AUTARQUIAS                                                                         A06
2002335043000000000SUBVENCOES SOCIAIS                                                                                            S05
2002335043010000000CONTRIBUICOES A ENTIDADES COMUNITRIAS                                                                         A06
2002336000000000000TRANSFERENCIAS A INSTITUIOES PRIVADAS COM FINS LUCRATIVOS                                                     S03
2002336041000000000CONTRIBUIOES                                                                                                  A05
2002337000000000000TRANSFERENCIAS A INSTITUIOES MULTIGOVERNAMENTAIS                                                              S03
2002337041000000000CONTRIBUIOES                                                                                                  S05
2002337041010000000TRANSFERENCIA PARA O FUNDEF CONTRIBUIAO DO MUNICPIO                                                           A06
2002337041020000000CONTRIBUIOES PARA CONSRCIOS                                                                                   A06
2002337041030000000TRANSFERENCIA A AMGSR                                                                                         A06
2002339000000000000APLICAOES DIRETAS                                                                                             S03
2002339001000000000APOSENTADORIAS                                                                                                A05
2002339003000000000PENSOES                                                                                                       A05
2002339005000000000OUTROS BENEFCIOS PREVIDENCIRIOS                                                                               S05
2002339005010000000AUXLIO DOENA                                                                                                  A06
2002339005020000000AUXLIO RECLUSAO                                                                                               A06
2002339005030000000SALRIO MATERNIDADE                                                                                            A06
2002339005990000000OUTROS BENEFCIOS PREVIDENCIRIOS                                                                               A06
2002339007000000000CONTRIBUIAO A ENTIDADES FECHADAS DE PREVIDENCIA                                                               A05
2002339008000000000OUTROS BENEFCIOS ASSISTENCIAIS                                                                                S05
2002339008010000000AUXLIO FUNERAL                                                                                                A06
2002339008020000000AUXLIO RECLUSAO                                                                                               A06
2002339008030000000AUXLIO NATALIDADE                                                                                             A06
2002339008040000000AUXLIO CRECHE                                                                                                 A06
2002339008050000000ASSISTENCIA PR-ESCOLAR                                                                                        A06
2002339008060000000AUXLIO-INVALIDEZ                                                                                              A06
2002339008070000000CONTRIBUIAO PATRONAL PARA O ATENDA SADE DO SERVART 194 A ART 200                                              A06
2002339008080000000CONTRIBUIAO PATRONAL PARA ASSISTSOCIAL DO SERVART 203 E ART 204 D                                             A06
2002339008990000000OUTROS BENEFCIOS ASSISTENCIAIS                                                                                A06
2002339009000000000SALRIO-FAMLIA                                                                                                 A05
2002339013000000000OBRIGAOES PATRONAIS                                                                                           S05
2002339013010000000INSS SOBRE OS CONTRATOS DE SERVIOS                                                                            A06
2002339014000000000DIRIAS                                                                                                        A05
2002339016000000000OUTRAS DESPESAS VARIVEIS                                                                                      S05
2002339016010000000AJUDA DE CUSTO                                                                                                A06
2002339016020000000CONVOCAAO EXTRAORDINRIA                                                                                       A06
2002339016030000000REMOOES                                                                                                       A06
2002339016040000000SESSOES EXTRAORDINRIAS                                                                                        A06
2002339016990000000OUTRAS DESPESAS VARIVEIS                                                                                      A06
2002339018000000000AUXLIO FINANCEIRO A ESTUDANTES                                                                                S05
2002339018010000000BOLSAS DE ESTUDO                                                                                              A06
2002339020000000000AUXLIO FINANCEIRO A PESQUISADORES                                                                             A05
2002339030000000000MATERIAL DE CONSUMO                                                                                           A05
2002339031000000000PREMIAOES  CULTURAIS  ARTSTICAS  CIENTFICAS DESPORTIVAS E OUTRAS                                              A05
2002339032000000000MATERIAL DE DISTRIBUIAO GRATUITA                                                                              A05
2002339033000000000PASSAGENS E DESPESAS COM LOCOMOAO                                                                             A05
2002339034000000000OUTRAS DESPESAS DE PESSOAL DECORRENTES DE CONTRATOS DE TERCEIRIZAAO                                           A05
2002339035000000000SERVIOS DE CONSULTORIA                                                                                        A05
2002339036000000000OUTROS SERVIOS DE TERCEIROS - PESSOA FSICA                                                                    A05
2002339037000000000LOCAAO DE MAO-DE-OBRA                                                                                         A05
2002339038000000000ARRENDAMENTO MERCANTIL                                                                                        A05
2002339039000000000OUTROS SERVIOS DE TERCEIROS - PESSOA JURDICA                                                                  S05
2002339039010000000SERVIOS DE CONSERVAAO                                                                                         A06
2002339039020000000SERVIOS DE LIMPEZA                                                                                            A06
2002339039030000000SERVIOS DE SEGURANA                                                                                           A06
2002339039040000000SERVIOS DE VIGILNCIA                                                                                          A06
2002339039050000000SERVIOS DE TRANSPORTES                                                                                        A06
2002339039060000000SERVIOS DE INFORMTICA                                                                                         A06
2002339039070000000SERVIOS DE COPEIRAGEM                                                                                         A06
2002339039080000000SERVIOS DE RECEPAO                                                                                            A06
2002339039090000000SERVIOS DE REPROGRAFIA                                                                                        A06
2002339039100000000SERVIOS DE TELECOMUNICAOES                                                                                    A06
2002339039110000000SERVIOS DE MANUTENAO DE PRDIOS EQUIPAMENTOS E INSTALAOES                                                      A06
2002339039120000000SERVIOS DE SADE                                                                                               A06
2002339039130000000SERVIOS DE PUBLICIDADE PROPAGANDA E PROMOAO INSTITUCIONAL                                                     A06
2002339039990000000DEMAIS SERVIOS DE TERCEIROS - PESSOA JURDICA                                                                  A06
2002339041000000000CONTRIBUIOES                                                                                                  A05
2002339043000000000SUBVENOES SOCIAIS                                                                                             A05
2002339046000000000AUXLIO-ALIMENTAAO                                                                                             A05
2002339047000000000OBRIGAOES TRIBUTRIAS E CONTRIBUTIVAS                                                                          S05
2002339047010000000CONTRIBUICAO PARA O PASEP                                                                                     S06
2002339047010100000PASEP - SERVIDORES                                                                                            A07
2002339047010200000PASEP - PROFESSORES EM EFETIVO EXERCICIO DO MAGISTERIO  60 DO FUNDEF                                          A07
2002339048000000000OUTROS AUXLIOS FINANCEIROS A PESSOAS FSICAS                                                                   A05
2002339049000000000AUXLIO-TRANSPORTE                                                                                             A05
2002339067000000000DEPSITOS COMPULSRIOS                                                                                          A05
2002339091000000000SENTENAS JUDICIAIS                                                                                            S05
2002339091010000000SENTENAS JUDICIAIS - PRINCIPAL                                                                                A06
2002339091020000000SENTENAS JUDICIAIS - ATUALIZAAO MONETRIA                                                                      A06
2002339092000000000DESPESAS DE EXERCCIOS ANTERIORES                                                                              S05
2002339092010000000DESPESAS DO EXERCCIO DE 2000                                                                                  A06
2002339093000000000INDENIZAOES E RESTITUIOES                                                                                     S05
2002339093060000000RESTITUIAO DE CONVENIOS DA UNIAO  ESTADOS E MUNICPIOS                                                         A06
2002339094000000000INDENIZAOES E RESTITUIOES TRABALHISTAS                                                                        S05
2002339094010000000INDENIZAAO POR DEMISSAO DE SERVIDORES OU EMPREGADOS                                                           A06
2002339094020000000DESPESAS RELATIVAS A PROGRAMA DE DESLIGAMENTO VOLUNTRIO                                                       A06
2002339095000000000INDENIZAAO PELA EXECUAO DE TRABALHOS DE CAMPO                                                                 A05
2002400000000000000DESPESAS DE CAPITAL                                                                                           S02
2002440000000000000INVESTIMENTOS                                                                                                 S03
2002441000000000000TRANSFERENCIAS INTRAGOVERNAMENTAIS                                                                            S04
2002441042000000000AUXLIOS                                                                                                       A06
2002442000000000000TRANSFERENCIAS A UNIAO                                                                                        S04
2002442042000000000AUXLIOS                                                                                                       A06
2002443000000000000TRANSFERENCIAS A ESTADOS E AO DISTRITO FEDERAL                                                                S04
2002443042000000000AUXLIOS                                                                                                       A06
2002444000000000000TRANSFERENCIAS A MUNICPIOS                                                                                    S04
2002444042000000000AUXLIOS                                                                                                       A06
2002445000000000000TRANSFERENCIAS A INSTITUIOES PRIVADAS SEM FINS LUCRATIVOS                                                     S04
2002445042000000000AUXLIOS                                                                                                       A06
2002449000000000000APLICAOES DIRETAS                                                                                             S04
2002449042000000000AUXLIOS                                                                                                       A06
2002449051000000000OBRAS E INSTALAOES                                                                                            A06
2002449052000000000EQUIPAMENTOS E MATERIAL PERMANENTE                                                                            A06
2002449061000000000AQUISIAO DE IMVEIS                                                                                            A06
2002449091000000000SENTENAS JUDICIAIS                                                                                            S06
2002449091010000000SENTENAS JUDICIAIS - PRINCIPAL                                                                                A07
2002449091020000000SENTENAS JUDICIAIS - ATUALIZAAO MONETRIA                                                                      A07
2002449092000000000DESPESAS DE EXERCCIOS ANTERIORES                                                                              A06
2002450000000000000INVERSOES FINANCEIRAS                                                                                         S03
2002451000000000000TRANSFERENCIAS INTRAGOVERNAMENTAIS                                                                            S04
2002451042000000000AUXLIOS                                                                                                       A06
2002452000000000000TRANSFERENCIAS A UNIAO                                                                                        S04
2002452042000000000AUXLIOS                                                                                                       A06
2002453000000000000TRANSFERENCIAS A ESTADOS E AO DISTRITO FEDERAL                                                                S04
2002453042000000000AUXLIOS                                                                                                       A06
2002454000000000000TRANSFERENCIAS A MUNICPIOS                                                                                    S04
2002454042000000000AUXLIOS                                                                                                       A06
2002459000000000000APLICAOES DIRETAS                                                                                             S04
2002459042000000000AUXLIOS                                                                                                       A06
2002459061000000000AQUISIAO DE IMVEIS                                                                                            A06
2002459062000000000AQUISIAO DE PRODUTOS PARA REVENDA                                                                             A06
2002459063000000000AQUISIAO DE TTULOS DE CRDITO                                                                                  A06
2002459064000000000AQUISIAO DE TTULOS REPRESENTATIVOS DE CAPITAL J INTEGRALIZADO                                                 A06
2002459065000000000CONSTITUIAO OU AUMENTO DE CAPITAL DE EMPRESAS                                                                 A06
2002459066000000000CONCESSAO DE EMPRSTIMOS E FINANCIAMENTOS                                                                      S06
2002459066010000000CONCESSAO DE EMPRSTIMOS A CONTRIBUINTES ART32  3 I DA LRF                                                     A07
2002459066020000000CONCESSAO DE FINANCIAMENTOS A CONTRIBUINTES ART32  3 I DA LRF                                                 A07
2002459067000000000DEPSITOS COMPULSRIOS                                                                                          A06
2002459091000000000SENTENAS JUDICIAIS                                                                                            S05
2002459091010000000SENTENAS JUDICIAIS - PRINCIPAL                                                                                A06
2002459091020000000SENTENAS JUDICIAIS - ATUALIZAAO MONETRIA                                                                      A06
2002459092000000000DESPESAS DE EXERCCIOS ANTERIORES                                                                              A05
2002460000000000000AMORTIZAAO DA DVIDA                                                                                           S02
2002461000000000000TRANSFERENCIAS INTRAGOVERNAMENTAIS                                                                            S03
2002461042000000000AUXLIOS                                                                                                       A05
2002462000000000000TRANSFERENCIAS A UNIAO                                                                                        S03
2002462042000000000AUXLIOS                                                                                                       A05
2002463000000000000TRANSFERENCIAS A ESTADOS E AO DISTRITO FEDERAL                                                                S03
2002463042000000000AUXLIOS                                                                                                       A05
2002464000000000000TRANSFERENCIAS A MUNICPIOS                                                                                    S03
2002464042000000000AUXLIOS                                                                                                       A05
2002469000000000000APLICAOES DIRETAS                                                                                             S03
2002469042000000000AUXLIOS                                                                                                       A05
2002469071000000000PRINCIPAL DA DVIDA CONTRATUAL RESGATADO                                                                       S05
2002469071010000000PARCELAMENTO DE OUTRAS CONTAS                                                                                 S06
2002469071010100000CEEE-ESTADO  ENERGIA                                                                                          A07
2002469071010200000FORNECEDORES                                                                                                  A07
2002469071010300000RPPS - FUNDO                                                                                                  A07
2002469071010400000INSS-FISCAL                                                                                                   A07
2002469071010500000RGE ILUMINAAO PBLICA                                                                                          A07
2002469072000000000PRINCIPAL DA DVIDA MOBILIARIA RESGATADO                                                                       A05
2002469073000000000CORREAO MONETRIA OU CAMBIAL DA DVIDA CONTRATUAL RESGATADA                                                     A05
2002469074000000000CORREAO MONETRIA OU CAMBIAL DA DVIDA MOBILIRIA RESGATADA                                                      A05
2002469075000000000CORREAO MONETRIA DA DVDE OPERAOES DE CRDITOS  POR ANTECDE RECEIT                                              A05
2002469076000000000PRINCIPAL CORRIGIDO DA DVIDA  MOBILIRIA REFINANCIADA                                                          A05
2002469077000000000PRINCIPAL CORRIGIDO DA  DVIDA CONTRATUAL REFINANCIADA                                                         A05
2002469091000000000SENTENAS JUDICIAIS                                                                                            S05
2002469091010000000SENTENAS JUDICIAIS - PRINCIPAL                                                                                A06
2002469091020000000SENTENAS JUDICIAIS - ATUALIZAAO MONETRIA                                                                      A06
2002469092000000000DESPESAS DE EXERCCIOS ANTERIORES                                                                              A05
2002999999000000000RESERVA DE CONTINGENCIA ART 5 III DA LRF                                                                      A05
2003300000000000000DESPESAS CORRENTES                                                                                            S01
2003310000000000000PESSOAL E ENCARGOS SOCIAIS                                                                                    S02
2003319000000000000APLICAOES DIRETAS                                                                                             S03
2003319001000000000APOSENTADORIAS                                                                                                A05
2003319003000000000PENSOES                                                                                                       A05
2003319004000000000CONTRATAAO POR TEMPO DETERMINADO                                                                              S05
2003319004010000000CONTRAT POR TEMPO DETERMINADO PROFES EFETIVO EXERCCIO MAGIST 60 FUNDEF                                        A06
2003319004030000000CONTRATAAO POR TEMPO DETERMINADO  DE PROFISSIONAIS DA SADE                                                    A06
2003319004040000000CONTRATAAO POR TEMPO DETERMINADO DE  PROFISSIONAIS DAS DEMAIS AREAS                                           A06
2003319004990000000OUTRAS CONTRATAOES POR TEMPO DETERMINADO                                                                      S06
2003319004990100000ESPECIFICAR AS CONTAS OU EXCLUIR ESTE REGISTRO                                                                A07
2003319005000000000OUTROS BENEFCIOS PREVIDENCIRIOS                                                                               S05
2003319005010000000OUTROS BENEFCIOS PREVIDENCIRIOS -  PESSOAL ATIVO                                                              S06
2003319005010100000AUXLIO DOENA - PESSOAL ATIVO                                                                                  A07
2003319005010200000AUXLIO RECLUSAO - PESSOAL ATIVO                                                                               A07
2003319005010300000SALRIO MATERNIDADE - PESSOAL ATIVO                                                                            A07
2003319005010400000ESPECIFICAR AS DEMAIS  PESSOAL ATIVO CONTAS OU EXCLUIR ESTE REGISTRO                                          A07
2003319005020000000OUTROS BENEFCIOS PREVIDENCIRIOS -  PESSOAL INATIVO                                                            S06
2003319005020100000AUXLIO DOENA - PESSOAL INATIVO                                                                                A07
2003319005020200000AUXLIO RECLUSAO - PESSOAL INATIVO                                                                             A07
2003319005020300000SALRIO MATERNIDADE - PESSOAL INATIVO                                                                          A07
2003319005020400000ESPECIFICAR AS DEMAIS CONTAS - PESSOAL INATIVO CONTAS OU EXCLUIR ESTE REGISTRO                                A07
2003319005030000000OUTROS BENEFCIOS PREVIDENCIRIOS - PENSIONISTAS                                                                S06
2003319005030100000AUXLIO DOENA -PENSIONISTAS                                                                                    A07
2003319005030200000AUXLIO RECLUSAO -PENSIONISTAS                                                                                 A07
2003319005030300000SALRIO MATERNIDADE -PENSIONISTAS                                                                              A07
2003319005030400000ESPECIFICAR AS DEMAIS CONTAS - PENSIONISTAS OU EXCLUIR ESTE REGISTRO                                          A07
2003319007000000000CONTRIBUIAO A ENTIDADES FECHADAS DE PREVIDENCIA                                                               A05
2003319008000000000OUTROS BENEFCIOS ASSISTENCIAIS                                                                                S05
2003319008010000000AUXLIO FUNERAL                                                                                                A06
2003319008020000000AUXLIO RECLUSAO                                                                                               A06
2003319008030000000AUXLIO NATALIDADE                                                                                             A06
2003319008040000000AUXLIO CRECHE                                                                                                 A06
2003319008050000000ASSISTENCIA PR-ESCOLAR                                                                                        A06
2003319008060000000AUXLIO-INVALIDEZ                                                                                              A06
2003319008070000000CONTRIBUIAO DA ENTIDADE PARA O ATENDIMENTO A SADE DO SERVIDOR                                                 A06
2003319008080000000CONTRIBUIAO DA ENTIDADE PARA ASSISTENCIA SOCIAL DO SERVIDOR                                                   A06
2003319008090000000ESPECIFICAR AS CONTAS OU EXCLUIR ESTE REGISTRO                                                                A06
2003319009000000000SALRIO-FAMLIA                                                                                                 S05
2003319009010000000SALRIO FAMLIA PESSOAL ATIVO                                                                                   S06
2003319009010100000SALRIO FAMLIA DOS SERVIDORES                                                                                  A07
2003319009010200000SALRIO FAMLIA PROFESSORES EFETIVO EXERCCIO  MAGISTRIO 60 DO FUNDEF                                            A07
2003319009020000000SALRIO FAMLIA PESSOAL INATIVO                                                                                 A06
2003319009030000000SALRIO FAMLIA PENSIONISTA                                                                                     S06
2003319009040000000ESPECIFICAR AS CONTAS OU EXCLUIR ESTE REGISTRO                                                                A06
2003319011000000000VENCIMENTOS E VANTAGENS FIXAS                                                                                 S05
2003319011010000000VENCIMENTOS E VANTAGENS FIXAS DOS SERVIDORES                                                                  A06
2003319011020000000VENCIMENTOS/VANTAG FIXAS PROFESSORES EFETIVO EXERC MAGIST 60 FUNDEF                                           A06
2003319011030000000SUBSDIOS                                                                                                      A06
2003319011040000000REPRESENTAAO MENSAL                                                                                           A06
2003319011050000000REMUNERAAO DOS CONSELHEIROS TUTELARES                                                                         A06
2003319011060000000REMUNERAAO DOS INTEGRANTES DAS JARIS                                                                          A06
2003319011070000000ESPECIFICAR AS DEMAIS CONTAS OU EXCLUIR ESTE REGISTRO                                                         A06
2003319013000000000OBRIGAOES PATRONAIS                                                                                           S05
2003319013010000000CONTRIBUIAO AO FGTS                                                                                           S06
2003319013010100000FGTS - SERVIDORES                                                                                             A07
2003319013010200000FGTS - PROFESSORES EM EFETIVO EXERCCIO DO MAGISTRIO 60 DO FUNDEF                                              A07
2003319013020000000CONTRIBUIOES PREVIDENCIRIAS - INSS                                                                            S06
2003319013020100000INSS - SERVIDORES                                                                                             A07
2003319013020200000INSS - PROFESSORES EM EFETIVO EXERCCIO DO MAGISTRIO 60 DO FUNDEF                                              A07
2003319013020300000INSS - AGENTES POLTICOS                                                                                       A07
2003319013020400000INSS SOBRE SESSAO EXTRAORDINRIA - AGENTES POLTICOS                                                            A07
2003319013020500000INSS SOBRE CONVOCAAO EXTRAORDINRIA- AGENTES POLTICOS                                                          A07
2003319013030000000CONTRIBUIAO PATRONAL PARA O REGIME DE PREVIDENCIA DO SERVIDOR                                                 S06
2003319013030100000RPPS - SERVIDORES                                                                                             A07
2003319013030200000RPPS - PROFESSORES EM EFETIVO EXERCCIO DO MAGISTRIO 60 DO FUNDEF                                              A07
2003319013030300000RPPS - AGENTES POLTICOS                                                                                       A07
2003319013030400000RPPS - APOSENTADOS                                                                                            A07
2003319013030500000RPPS - PENSIONISTAS                                                                                           A07
2003319013040000000RECUPERAAO DE PASSIVOS DO RPPS DE EXERCCIOS ANTERIORES                                                        A06
2003319013050000000ESPECIFICAR AS DEMAIS CONTAS OU EXCLUIR ESTE REGISTRO                                                         A06
2003319016000000000OUTRAS DESPESAS VARIVEIS                                                                                      S05
2003319016010000000SUBSTITUIOES                                                                                                  A06
2003319016020000000SERVIOS EXTRAORDINRIOS - HORAS EXTRAS                                                                         A06
2003319016030000000AJUDA DE CUSTO                                                                                                A06
2003319016040000000CONVOCAAO EXTRAORDINRIA  RECESSO LEGISLATIVO                                                                  A06
2003319016050000000REMOOES                                                                                                       A06
2003319016060000000SESSOES EXTRAORDINRIAS                                                                                        A06
2003319016070000000AUXILIO A INCAPACITADO POR ACIDENTE                                                                           A06
2003319016080000000INCENTIVO A AGENTES COMUNITRIOS DE SADE                                                                       A06
2003319034000000000OUTRAS DESPESAS PESSOAL DECORRENTES CONTRAT  TERCEIRIZ                                                        S05
2003319034010000000ESPECIFICAR AS CONTAS OU EXCLUIR ESTE REGISTRO                                                                A06
2003319036000000000OUTROS SERVIOS DE TERCEIROS - PESSOA FSICA                                                                    S05
2003319036010000000OUTROS SERVIOS DE TERCEIROS PESSOA JURDICA - ADVOGADO                                                         A06
2003319046000000000AUXLIO-ALIMENTAAO                                                                                             A05
2003319047000000000OBRIGAOES TRIBUTRIAS E CONTRIBUTIVAS                                                                          S05
2003319047010000000CONTRIBUIAO PARA O PASEP                                                                                      S06
2003319047010100000PASEP - SERVIDORES                                                                                            A07
2003319047010200000PASEP - PROFESSORES EM EFETIVO EXERCCIO DO MAGISTRIO 60 DO FUNDEF                                             A07
2003319047020000000CONTRIBUIAO SUPLEMENTAR AO FGTS                                                                               A06
2003319047030000000PAGAMENTO DE PARCELAMENTO DE DVIDAS COM ENCARGOS SOCIAIS                                                      A06
2003319047040000000CONTRIBUIAO  PARA O ICMS                                                                                      S06
2003319047040100000CONTRIBUIAO AO ICMS - OLARIA                                                                                  A07
2003319067000000000DEPSITOS COMPULSRIOS                                                                                          A05
2003319091000000000SENTENAS JUDICIAIS                                                                                            S05
2003319091010000000SENTENAS JUDICIAIS - PRINCIPAL                                                                                A06
2003319091020000000SENTENAS JUDICIAIS - ATUALIZAAO MONETRIA                                                                      A06
2003319091030000000ESPECIFICAR AS DEMAIS CONTAS OU EXCLUIR ESTE REGISTRO                                                         A06
2003319092000000000DESPESAS DE EXERCCIOS ANTERIORES                                                                              A05
2003319094000000000INDENIZAOES E RESTITUIOES TRABALHISTAS                                                                        S05
2003319094010000000INDENIZAAO POR DEMISSAO DE SERVIDORES OU EMPREGADOS                                                           A06
2003319094020000000DESPESAS RELATIVAS A PROGRAMA DE DESLIGAMENTO VOLUNTRIO                                                       A06
2003319094030000000FRIAS E/OU AVISO PRVIO INDENIZADO                                                                             A06
2003319094040000000ESPECIFICAR AS DEMAIS CONTAS OU EXCLUIR ESTE REGISTRO                                                         A06
2003319096000000000RESSARCIMENTO DE DESPESAS DE PESSOAL REQUISITADO                                                              A05
2003320000000000000JUROS E ENCARGOS DA DVIDA                                                                                     S02
2003329000000000000APLICAOES DIRETAS                                                                                             S03
2003329021000000000JUROS SOBRE A DVIDA POR CONTRATO                                                                              A05
2003329021010000000ESPECIFICAR AS CONTAS OU EXCLUIR ESTE REGISTRO                                                                A06
2003329022000000000OUTROS ENCARGOS SOBRE A DVIDA POR CONTRATO                                                                    A05
2003329023000000000JUROS DESGIOS E DESCONTOS DA DVIDA MOBILIRIA                                                                  A05
2003329024000000000OUTROS ENCARGOS SOBRE A DVIDA MOBILIRIA                                                                       S05
2003329024010000000ESPECIFICAR AS CONTAS OU EXCLUIR ESTE REGISTRO                                                                A06
2003329025000000000ENC SOBRE OPER DE CRED POR ANTEC DA RECEITA                                                                   A05
2003329091000000000SENTENAS JUDICIAIS                                                                                            S05
2003329091010000000SENTENAS JUDICIAIS - PRINCIPAL                                                                                A06
2003329091020000000SENTENAS JUDICIAIS - ATUALIZAAO MONETRIA                                                                      A06
2003329091030000000ESPECIFICAR AS DEMAIS CONTAS OU EXCLUIR ESTE REGISTRO                                                         A06
2003329092000000000DESPESAS DE EXERCCIOS ANTERIORES                                                                              A05
2003330000000000000OUTRAS DESPESAS CORRENTES                                                                                     S02
2003332000000000000TRANSFERENCIAS A UNIAO                                                                                        S03
2003332041000000000CONTRIBUIOES                                                                                                  S05
2003332041010000000COMPENSAAO FINANCEIRA  9 ART 201 DA CF                                                                        A06
2003332041020000000TRANSF P/FUNSET - FUNDO NACIONAL DE SEGUR EDUCAAO  TRNS LF 9503/97                                            A06
2003332041030000000ESPECIFICAR AS DEMAIS CONTAS OU EXCLUIR ESTE REGISTRO                                                         A06
2003333000000000000TRANSFERENCIAS AO ESTADO E AO DISTRITO FEDERAL                                                                S03
2003333041000000000CONTRIBUIOES                                                                                                  S05
2003333041010000000COMPENSAAO FINANCEIRA  9 ART 201 DA CF                                                                        A06
2003333041020000000PROGRAMA TROCA-TROCA                                                                                          A06
2003333041030000000ESPECIFICAR AS DEMAIS CONTAS OU EXCLUIR ESTE REGISTRO                                                         A06
2003334000000000000TRANSFERENCIAS A MUNICPIOS                                                                                    S03
2003334041000000000CONTRIBUIOES                                                                                                  S05
2003334041010000000COMPENSAAO FINANCEIRA  9 ART 201 DA CF                                                                        A06
2003334041020000000CONTRIBUIOES A ESCOLAS MUNICIPAIS                                                                             A06
2003334041030000000CONTRIBUIOES AO MUNICPIO POLO DA CONTRAPARTIDA DE CONVENIOS COM A UNIAO                                       A06
2003334041040000000ESPECIFICAR AS DEMAIS CONTAS OU EXCLUIR ESTE REGISTRO                                                         A06
2003335000000000000TRANSFERENCIAS A INSTITUIOES PRIVADAS SEM FINS LUCRATIVOS                                                     S03
2003335041000000000CONTRIBUIOES                                                                                                  A05
2003335043000000000SUBVENOES SOCIAIS                                                                                             A05
2003336000000000000TRANSFERENCIAS INSTITUIOES PRIVADAS COM FINS LUCRATIVOS                                                       S03
2003336041000000000CONTRIBUIOES                                                                                                  A05
2003337000000000000TRANSFERENCIAS A INSTITUIOES MULTIGOVERNAMENTAIS                                                              S03
2003337041000000000CONTRIBUIOES                                                                                                  A05
2003337041010000000TRANSFERENCIA PARA O FUNDEF CONTRIBUIAO DO MUNICPIO                                                           A06
2003337041020000000CONTRIBUIOES  PARA MANUTENAO DOS CONSRCIOS                                                                    A06
2003337041030000000TRANSFERENCIA A AMGSR                                                                                         A06
2003339000000000000APLICAOES DIRETAS                                                                                             S03
2003339001000000000APOSENTADORIAS                                                                                                A05
2003339003000000000PENSOES                                                                                                       A05
2003339004000000000CONTRATAAO POR TEMPO DETERMINADO                                                                              A05
2003339005000000000OUTROS BENEFCIOS PREVIDENCIRIOS                                                                               S05
2003339005010000000OUTROS BENEFCIOS PREVIDENCIRIOS -  PESSOAL ATIVO                                                              S06
2003339005010100000AUXLIO DOENA - PESSOAL ATIVO                                                                                  A07
2003339005010200000AUXLIO RECLUSAO - PESSOAL ATIVO                                                                               A07
2003339005010300000SALRIO MATERNIDADE - PESSOAL ATIVO                                                                            A07
2003339005010400000TRANSFERENCIAS A AMGSR                                                                                        A07
2003339005020000000OUTROS BENEFCIOS PREVIDENCIRIOS -  PESSOAL INATIVO E PENSIONISTAS                                             S06
2003339005020100000AUXLIO DOENA - PESSOAL INATIVO E PENSIONISTAS                                                                 A07
2003339005020200000AUXLIO RECLUSAO - PESSOAL INATIVO E PENSIONISTAS                                                              A07
2003339005020300000SALRIO MATERNIDADE - PESSOAL INATIVO E PENSIONISTAS                                                           A07
2003339005020400000ESPECIFICAR AS DEMAIS CONTAS OU EXCLUIR ESTE REGISTRO -INAT E PENS                                            A07
2003339008000000000OUTROS BENEFCIOS ASSISTENCIAIS                                                                                S05
2003339008010000000AUXLIO FUNERAL                                                                                                A06
2003339008020000000AUXLIO RECLUSAO                                                                                               A06
2003339008030000000AUXLIO NATALIDADE                                                                                             A06
2003339008040000000AUXLIO CRECHE                                                                                                 A06
2003339008050000000ASSISTENCIA PR-ESCOLAR                                                                                        A06
2003339008060000000AUXLIO-INVALIDEZ                                                                                              A06
2003339008070000000ESPECIFICAR AS DEMAIS CONTAS OU EXCLUIR ESTE REGISTRO                                                         A06
2003339009000000000SALRIO-FAMLIA                                                                                                 S05
2003339009010000000SALRIO-FAMLIA - ATIVOS                                                                                        A06
2003339009020000000SALRIO-FAMLIA - INATIVOS                                                                                      A06
2003339009030000000SALRIO-FAMLIA - PENSIONISTAS                                                                                  A06
2003339009040000000ESPECIFICAR AS DEMAIS CONTAS OU EXCLUIR ESTE REGISTRO                                                         A06
2003339013000000000OBRIGAOES PATRONAIS                                                                                           S05
2003339013010000000INSS SOBRE OS CONTRATOS DE SERVIOS                                                                            A06
2003339013020000000ESPECIFICAR AS DEMAIS CONTAS OU EXCLUIR ESTE REGISTRO                                                         A06
2003339014000000000DIRIAS                                                                                                        S05
2003339014010000000DIRIAS - AGENTES POLTICOS                                                                                     A06
2003339014020000000DIRIAS - SERVIDORES                                                                                           A06
2003339018000000000AUXLIO FINANCEIRO A ESTUDANTES                                                                                S05
2003339018010000000BOLSAS DE ESTUDO                                                                                              A06
2003339018020000000ESPECIFICAR AS DEMAIS CONTAS OU EXCLUIR ESTE REGISTRO                                                         A06
2003339020000000000AUXLIO FINANCEIRO A PESQUISADORES                                                                             A05
2003339030000000000MATERIAL DE CONSUMO                                                                                           A05
2003339031000000000PREMIAOES  CULTUR  ARTST  CIENTF DESPORTIVAS E OUTRAS                                                         A05
2003339032000000000MATERIAL DE DISTRIBUIAO GRATUITA                                                                              A05
2003339033000000000PASSAGENS E DESPESAS COM LOCOMOAO                                                                             A05
2003339035000000000SERVIOS DE CONSULTORIA                                                                                        A05
2003339036000000000OUTROS SERVIOS DE TERCEIROS - PESSOA FSICA                                                                    S05
2003339036010000000SERVIOS DE ASSESSORARIA ADMINISTRATIVA                                                                        A06
2003339036020000000ALUGUIS DE IMVEIS DIRETO COM PESSOAS FSICAS                                                                   A06
2003339036030000000AUTONOMOS DA SADE                                                                                             A06
2003339037000000000LOCAAO DE MAO-DE-OBRA                                                                                         A05
2003339038000000000ARRENDAMENTO MERCANTIL                                                                                        A05
2003339039000000000OUTROS SERVIOS DE TERCEIROS - PESSOA JURDICA                                                                  S05
2003339039010000000SERVIOS DE CONSERVAAO                                                                                         A06
2003339039020000000SERVIOS DE LIMPEZA                                                                                            A06
2003339039030000000SERVIOS DE SEGURANA                                                                                           A06
2003339039040000000SERVIOS DE VIGILNCIA                                                                                          A06
2003339039050000000SERVIOS DE TRANSPORTES                                                                                        A06
2003339039060000000SERVIOS DE INFORMTICA                                                                                         A06
2003339039070000000SERVIOS DE COPEIRAGEM                                                                                         A06
2003339039080000000SERVIOS DE RECEPAO                                                                                            A06
2003339039090000000SERVIOS DE REPROGRAFIA                                                                                        A06
2003339039100000000SERVIOS DE TELECOMUNICAOES                                                                                    A06
2003339039110000000SERVIOS DE MANUTENAO DE PRDIOS EQUIPAMENTOS E INSTALAOES                                                      A06
2003339039120000000SERVIOS DE SADE                                                                                               A06
2003339039130000000SERVIOS DE PUBLICIDADE PROPAGANDA E PROMOAO INSTITUCIONAL                                                     A06
2003339039140000000SERVIOS DE ESTAGIRIOS                                                                                         A06
2003339039150000000CONVENIO COM A EMATER                                                                                         A06
2003339039160000000SERVIOS DE ENERGIA AGUA E ESGOTO                                                                              A06
2003339039170000000SERVIOS DE ARBITRAGEM                                                                                         A06
2003339039180000000SERVIO DE SINALIZAAO DE TRANSITO                                                                              A06
2003339039190000000SERVIOS DE SEGUROS EM GERAL                                                                                   A06
2003339039200000000SERVIOS DE INSEMINAOES ARTIFICIAIS                                                                            A06
2003339039210000000SERVIOS BANCRIOS                                                                                              A06
2003339039220000000ASSINATURAS DE JORNAIS REVISTAS E PERIDICOS                                                                   A06
2003339039230000000CONGRESSOS SIMPSIOS CONFERENCIASCURSOS E TREINAMENTOS EM GERAL                                                A06
2003339039240000000ASSOCIAOES FEDERAOES E CONFEDERAOS                                                                            A06
2003339039270000000SERVIOS POSTAIS E SEDEX                                                                                       A06
2003339039280000000SERVIOS DE ENCADERNAAOAMPLIAAOPLASTIFICAAOIMPRESSAO E MICROFILMAGEM                                           A06
2003339039990000000DEMAIS SERVIOS DE TERCEIROS - PESSOA JURDICA                                                                  S06
2003339039990100000SERVIOS DE ENGENHARIA E TOPOGRAFIA                                                                            A07
2003339039990200000SERVICOS DE REGITROS EM CARTRIOS                                                                              A07
2003339039990300000SERVIOS DE COLETA GESTAO TRATAMENTO E DISPOSIAO FINAL DE LIXO                                                 A07
2003339039990400000SERVIOS DE ASSESSORIA ADMINISTRATIVA                                                                          A07
2003339039990500000SERVIOS DE RECREAAO                                                                                           A07
2003339039990600000SERVIO DE CONFECAO DE VESTURIO                                                                                A07
2003339041000000000CONTRIBUIOES                                                                                                  S05
2003339041010000000CONTRIBUIOES AS FORAS AUXILIARES                                                                              A06
2003339041020000000ESPECIFICAR AS DEMAIS CONTAS OU EXCLUIR ESTE REGISTRO                                                         A06
2003339046000000000AUXLIO-ALIMENTAAO                                                                                             A05
2003339047000000000OBRIGAOES TRIBUTRIAS E CONTRIBUTIVAS                                                                          A05
2003339048000000000OUTROS AUXLIOS FINANCEIROS A PESSOAS FSICAS                                                                   S05
2003339048010000000ESPECIFICAR AS  CONTAS OU EXCLUIR ESTE REGISTRO                                                               A06
2003339049000000000AUXLIO-TRANSPORTE                                                                                             A05
2003339067000000000DEPSITOS COMPULSRIOS                                                                                          A05
2003339091000000000SENTENAS JUDICIAIS                                                                                            S05
2003339091010000000SENTENAS JUDICIAIS - PRINCIPAL                                                                                A06
2003339091030000000ESPECIFICAR AS DEMAIS CONTAS OU EXCLUIR ESTE REGISTRO                                                         A06
2003339092000000000DESPESAS DE EXERCCIOS ANTERIORES                                                                              A05
2003339093000000000INDENIZAOES E RESTITUIOES                                                                                     S05
2003339093010000000RESTITUIOES DE CONVENIOS DA UNIAO ESTADO E MUNICPIOS                                                          A06
2003339093020000000INDENIZAAO POR DANOS MATERIAIS A TERCEIROS                                                                    A06
2003339093040000000RESTITUIOES DE IMPOSTOS TAXAS E CONTRIBUIAO DE MELHORIA                                                       A06
2003339095000000000INDENIZAAO PELA EXECUAO DE TRABALHOS DE CAMPO                                                                 A05
2003400000000000000DESPESAS DE CAPITAL                                                                                           S01
2003440000000000000INVESTIMENTOS                                                                                                 S02
2003442000000000000TRANSFERENCIAS A UNIAO                                                                                        S03
2003442042000000000AUXLIOS                                                                                                       A05
2003443000000000000TRANSFERENCIAS A ESTADOS E AO DISTRITO FEDERAL                                                                S03
2003443042000000000AUXLIOS                                                                                                       A05
2003444000000000000TRANSFERENCIAS A MUNICPIOS                                                                                    S03
2003444042000000000AUXLIOS                                                                                                       A05
2003445000000000000TRANSFERENCIAS A INSTITUIOES PRIVADAS SEM FINS LUCRATIVOS                                                     S03
2003445042000000000AUXLIOS                                                                                                       A05
2003447000000000000TRANSFERENCIAS A INSTITUIOES MULTIGOVERNAMENTAIS                                                              S03
2003447041000000000CONTRIBUIOES                                                                                                  S05
2003447041010000000CONTRIBUIOES PARA CONSRCIOS                                                                                   A06
2003447041020000000ESPECIFICAR AS DEMAIS CONTAS OU EXCLUIR ESTE REGISTRO                                                         A06
2003447042000000000AUXLIOS                                                                                                       A05
2003449000000000000APLICAOES DIRETAS                                                                                             S03
2003449042000000000AUXLIOS                                                                                                       A05
2003449051000000000OBRAS E INSTALAOES                                                                                            A05
2003449052000000000EQUIPAMENTOS E MATERIAL PERMANENTE                                                                            A05
2003449061000000000AQUISIAO DE IMVEIS                                                                                            A05
2003449091000000000SENTENAS JUDICIAIS                                                                                            S05
2003449091010000000SENTENAS JUDICIAIS - PRINCIPAL                                                                                A06
2003449091020000000SENTENAS JUDICIAIS - ATUALIZAAO MONETRIA                                                                      A06
2003449091030000000ESPECIFICAR AS DEMAIS CONTAS OU EXCLUIR ESTE REGISTRO                                                         A06
2003449092000000000DESPESAS DE EXERCCIOS ANTERIORES                                                                              A05
2003450000000000000INVERSOES FINANCEIRAS                                                                                         S02
2003452000000000000TRANSFERENCIAS A UNIAO                                                                                        S03
2003452042000000000AUXLIOS                                                                                                       A05
2003453000000000000TRANSFERENCIAS A ESTADOS E AO DISTRITO FEDERAL                                                                S03
2003453042000000000AUXLIOS                                                                                                       A05
2003454000000000000TRANSFERENCIAS A MUNICPIOS                                                                                    S03
2003454042000000000AUXLIOS                                                                                                       A05
2003459000000000000APLICAOES DIRETAS                                                                                             S03
2003459042000000000AUXLIOS                                                                                                       A05
2003459061000000000AQUISIAO DE IMVEIS                                                                                            A05
2003459062000000000AQUISIAO DE PRODUTOS PARA REVENDA                                                                             A05
2003459063000000000AQUISIAO DE TTULOS DE CRDITO                                                                                  A05
2003459064000000000AQUISIAO TTULOS REPRESENTATIVOS  CAPITAL  INTEGRALIZADO                                                       A05
2003459065000000000CONSTITUIAO OU AUMENTO DE CAPITAL DE EMPRESAS                                                                 A05
2003459066000000000CONCESSAO DE EMPRSTIMOS E FINANCIAMENTOS                                                                      S05
2003459066010000000CONCESSAO DE EMPRSTIMOS A CONTRIBUINTES ART32  3 I DA LRF                                                     A06
2003459066020000000CONCESSAO DE FINANCIAMENTOS A CONTRIBUINTES ART32  3 I DA LRF                                                 A06
2003459066030000000ESPECIFICAR AS DEMAIS CONTAS OU EXCLUIR ESTE REGISTRO                                                         A06
2003459067000000000DEPSITOS COMPULSRIOS                                                                                          A05
2003459091000000000SENTENAS JUDICIAIS                                                                                            S05
2003459091010000000SENTENAS JUDICIAIS - PRINCIPAL                                                                                A06
2003459091020000000SENTENAS JUDICIAIS - ATUALIZAAO MONETRIA                                                                      A06
2003459091030000000ESPECIFICAR AS DEMAIS CONTAS OU EXCLUIR ESTE REGISTRO                                                         A06
2003459092000000000DESPESAS DE EXERCCIOS ANTERIORES                                                                              A05
2003460000000000000AMORTIZAAO DA DVIDA                                                                                           S02
2003462000000000000TRANSFERENCIAS A UNIAO                                                                                        S03
2003462042000000000AUXLIOS                                                                                                       A05
2003463000000000000TRANSFERENCIAS A ESTADOS E AO DISTRITO FEDERAL                                                                S03
2003463042000000000AUXLIOS                                                                                                       A05
2003464000000000000TRANSFERENCIAS A MUNICPIOS                                                                                    S03
2003464042000000000AUXLIOS                                                                                                       A05
2003469000000000000APLICAOES DIRETAS                                                                                             S03
2003469042000000000AUXLIOS                                                                                                       A05
2003469071000000000PRINCIPAL DA DVIDA CONTRATUAL RESGATADO                                                                       A05
2003469072000000000PRINCIPAL DA DVIDA MOBILIARIA RESGATADO                                                                       A05
2003469073000000000CORREAO MONETRIA/CAMBIAL DVIDA CONTRATUAL RESGATADA                                                           A05
2003469074000000000CORREAO MONETRIA/CAMBIAL DVIDA MOBILIRIA RESGATADA                                                            A05
2003469075000000000CORRE MONET DVIDA OPERAOES CRDITO  P/ ANTECIP RECEITA                                                         A05
2003469076000000000PRINCIPAL CORRIGIDO DA DVIDA  MOBILIRIA REFINANCIADA                                                          A05
2003469077000000000PRINCIPAL CORRIGIDO DA  DVIDA CONTRATUAL REFINANCIADA                                                         A05
2003469091000000000SENTENAS JUDICIAIS                                                                                            S05
2003469091010000000SENTENAS JUDICIAIS - PRINCIPAL                                                                                A06
2003469091020000000SENTENAS JUDICIAIS - ATUALIZAAO MONETRIA                                                                      A06
2003469091030000000ESPECIFICAR AS DEMAIS CONTAS OU EXCLUIR ESTE REGISTRO                                                         A06
2003469092000000000DESPESAS DE EXERCCIOS ANTERIORES                                                                              A05
2003900000000000000RESERVA DE CONTINGENCIA                                                                                       S01
2003990000000000000RESERVA DE CONTINGENCIA                                                                                       S02
2003999000000000000RESERVA DE CONTINGENCIA                                                                                       S03
2003999999000000000RESERVA DE CONTINGENCIA ART 5 III DA LRF                                                                      A05
2004300000000000000DESPESAS CORRENTES                                                                                            S01
2004310000000000000PESSOAL E ENCARGOS SOCIAIS                                                                                    S02
2004319000000000000APLICACOES DIRETAS                                                                                            S03
2004319001000000000APOSENTADORIAS                                                                                                A05
2004319003000000000PENSOES                                                                                                       A05
2004319004000000000CONTRATACAO POR TEMPO DETERMINADO                                                                             S05
2004319004010000000CONT TPO DET PROF EF EXER MAGIST 60FUNDEF                                                                     A06
2004319004020000000CONTRATACAO TEMPO DETERMINADO DE PROFESSORES                                                                  A06
2004319004030000000CONTRATACAO TEMPO DETERM PROFISSIONAIS SAUDE                                                                  A06
2004319004030100000CONT TEMP DETERM PROFIS SADE - PSF                                                                            A07
2004319004030200000CONT TEMP DETERM PROFIS SADE - PSF BUCAL                                                                      A07
2004319004040000000CONTRAT TEMPO DETERMIN PROFISS DEMAIS AREAS                                                                   S06
2004319004040100000CONTRATAAO POR TEMPO DETERMINADO ASSIST SOCIAL                                                                A07
2004319004990000000OUTRAS CONTRATACOES POR TEMPO DETERMINADO                                                                     S06
2004319004990100000ESPECIFICACAO DAS CONTAS                                                                                      A07
2004319005000000000OUTROS BENEFICIOS PREVIDENCIARIOS                                                                             S05
2004319005010000000OUTROS BENEF PREVIDENCIARIOS- PESSOAL ATIVO                                                                   S06
2004319005010100000AUXILIO DOENCA - PESSOAL ATIVO                                                                                A07
2004319005010200000AUXILIO RECLUSAO - PESSOAL ATIVO                                                                              A07
2004319005010300000SALARIO MATERNIDADE - PESSOAL ATIVO                                                                           A07
2004319005010400000ESPECIFICACAO DEMAIS CONTAS - PESSOAL ATIVO                                                                   A07
2004319005020000000OUTROS BENEF PREVIDENCIARIOS-PESSOAL INATIVO                                                                  S06
2004319005020100000AUXILIO DOENCA - PESSOAL INATIVO                                                                              A07
2004319005020200000AUXILIO RECLUSAO - PESSOAL INATIVO                                                                            A07
2004319005020300000SALARIO MATERNIDADE - PESSOAL INATIVO                                                                         A07
2004319005020400000ESPECIFICACAO DEMAIS CONTAS- PESSOAL INATIVO                                                                  A07
2004319005030000000OUTROS BENEF PREVIDENCIARIOS - PENSIONISTAS                                                                   S06
2004319005030100000AUXILIO DOENCA -PENSIONISTAS                                                                                  A07
2004319005030200000AUXILIO RECLUSAO -PENSIONISTAS                                                                                A07
2004319005030300000SALARIO MATERNIDADE -PENSIONISTAS                                                                             A07
2004319005030400000ESPECIFICACAO DAS DEMAIS CONTAS-PENSIONISTAS                                                                  A07
2004319007000000000CONTRIBUICAO A ENTIDADES FECHADAS DE PREVID                                                                   A05
2004319008000000000OUTROS BENEFICIOS ASSISTENCIAIS                                                                               S05
2004319008010000000AUXILIO FUNERAL                                                                                               A06
2004319008020000000AUXILIO RECLUSAO                                                                                              A06
2004319008030000000AUXILIO NATALIDADE                                                                                            A06
2004319008040000000AUXILIO CRECHE                                                                                                A06
2004319008050000000ASSISTENCIA PRE-ESCOLAR                                                                                       A06
2004319008060000000AUXILIO-INVALIDEZ                                                                                             A06
2004319008070000000CONTRIB DA ENTIDADE P/ ATEND A SAUDE DO SERV                                                                  S06
2004319008070100000CONT ENT P/ ATEND SAUDE SERV-PROF EFE EX MAG                                                                  A07
2004319008070200000CONT DA ENT P/ ATEND SAUDE SERV-DEMAIS SERV                                                                   A07
2004319008080000000CONT DA ENT P/ ASSISTENC SOCIAL DO SERVIDOR                                                                   A06
2004319008090000000ESPECIFICACAO DAS DEMAIS CONTAS                                                                               S06
2004319009000000000SALARIO-FAMILIA                                                                                               S05
2004319009010000000SALARIO FAMILIA PESSOAL ATIVO                                                                                 S06
2004319009010100000SALARIO FAMILIA DOS SERVIDORES                                                                                A07
2004319009010200000SAL FAM DOS PROF EM EFET EXERC DO MAGIST                                                                      A07
2004319009010300000SALRIO FAMLIA DOS SERVIDORES PSF                                                                              A07
2004319009010400000SALRIO FAMLIA DOS SERVIDORES - PSF BUCAL                                                                      A07
2004319009020000000SALARIO FAMILIA PESSOAL INATIVO                                                                               A06
2004319009030000000SALARIO FAMILIA PENSIONISTA                                                                                   A06
2004319009040000000ESPECIFICACAO DAS DEMAIS CONTAS                                                                               A06
2004319011000000000VENCIMENTOS E VANTAGENS FIXAS                                                                                 S05
2004319011010000000VENCIMENTOS E VANTAGENS FIXAS DOS SERVIDORES                                                                  A06
2004319011010100000VENCIMENTOS E VANTAG FIXAS SERVIDORES PSF                                                                     A07
2004319011010200000VENCIMENTOS E VANTAG FIXAS SERVIDORES PSF BUCAL                                                               A07
2004319011020000000VEN VANT FIXAS PROF EF EXER MAGI 60FUNDEF                                                                     A06
2004319011030000000SUBSIDIOS                                                                                                     A06
2004319011040000000REPRESENTACAO MENSAL                                                                                          A06
2004319011050000000REMUNERACAO DOS CONSELHEIROS TUTELARES                                                                        A06
2004319011060000000REMUNERACAO DOS INTEGRANTES DAS JARIS                                                                         A06
2004319011070000000SUBSIDIOS VEREADORES SESSAO EXTRAORDINRIAS - PERIODO LEGISLATIVO                                              A06
2004319011080000000DEMAIS CONTAS A ESPECIFICAR                                                                                   A06
2004319013000000000OBRIGACOES PATRONAIS                                                                                          S05
2004319013010000000CONTRIBUICAO AO FGTS                                                                                          S06
2004319013010100000FGTS - SERVIDORES                                                                                             A07
2004319013010200000FGTS-PROF EFET EXERC MAGIST 60 DO FUNDEF                                                                      A07
2004319013020000000CONTRIBUICOES PREVIDENCIARIAS - INSS                                                                          S06
2004319013020100000INSS - SERVIDORES                                                                                             A07
2004319013020200000INSS-PROF EFET EXERC MAGIST 60 DO FUNDEF                                                                      A07
2004319013020300000INSS - AGENTES POLITICOS                                                                                      A07
2004319013020400000INSS S/ SESSAO EXTRAORDIN- AGENTES POLITICOS                                                                  A07
2004319013020500000INSS S/ CONVOCACAO EXTRAORDI-AGENT POLITICOS                                                                  A07
2004319013020600000INSS - SERVIDORES -  PSF E BUCAL                                                                              A07
2004319013030000000CONTRIB PATRON P/ REGIME DE PREV SERV                                                                         S06
2004319013030100000RPPS - SERVIDORES                                                                                             A07
2004319013030200000RPPS - PROF EFET EXERC MAGIST 60 FUNDEF                                                                       A07
2004319013030300000RPPS - AGENTES POLITICOS                                                                                      A07
2004319013030400000RPPS - APOSENTADOS                                                                                            A07
2004319013030500000RPPS - PENSIONISTAS                                                                                           A07
2004319013040000000RECUPERACAO DE PASSIVOS DO RPPS EXERC ANTER                                                                   A06
2004319013050000000ESPECIFICACAO DAS DEMAIS CONTAS                                                                               A06
2004319016000000000OUTRAS DESPESAS VARIAVEIS                                                                                     S05
2004319016010000000SUBSTITUICOES                                                                                                 A06
2004319016020000000SERVICOS EXTRAORDINARIOS - HORAS EXTRAS                                                                       A06
2004319016030000000AJUDA DE CUSTO                                                                                                A06
2004319016040000000CONVOCACAO EXTRAORDINA RECESSO LEGISLATIVO                                                                    A06
2004319016050000000REMOCOES                                                                                                      A06
2004319016060000000SESSOES EXTRAORDINARIAS                                                                                       A06
2004319016070000000AUXILIO A INCAPACITADO POR ACIDENTE                                                                           A06
2004319016080000000GRATIFICAAO MENSAL - PSF                                                                                      A06
2004319016090000000GRATIAFICAAO MENSAL - PSF BUCAL                                                                               A06
2004319016100000000GRATIFICAAO MENSAL                                                                                            A06
2004319034000000000OUTRAS DESP PESSOAL CONTRATOS DE TERCEIRIZA                                                                   S05
2004319034010000000ESPECIFICACAO DAS CONTAS                                                                                      A06
2004319036000000000OUTROS SERVICOS DE TERCEIROS - PESSOA FISICA                                                                  S05
2004319036010000000ESPECIFICACAO DAS CONTAS                                                                                      A06
2004319046000000000AUXILIO-ALIMENTACAO                                                                                           S05
2004319046010000000AUX-ALIME-PROF EFET EXER MAGIS 60 FUNDEF                                                                      A06
2004319046020000000AUXILIO-ALIMENTACAO - SEVIDORES                                                                               A06
2004319047000000000OBRIGACOES TRIBUTARIAS E CONTRIBUTIVAS                                                                        S05
2004319047010000000CONTRIBUICAO PARA O PASEP                                                                                     S06
2004319047010100000PASEP - SERVIDORES                                                                                            A07
2004319047010200000PASEP - PROF EFETIV EXERC MAGIST 60FUNDEF                                                                     A07
2004319047020000000CONTRIBUICAO SUPLEMENTAR AO FGTS                                                                              A06
2004319047030000000PAGAM PARCELAMENTO DIVIDAS C/ ENCARGOS SOCI                                                                   A06
2004319047040000000PAGAMENTO DE ICMS                                                                                             A06
2004319047050000000ESPECIFICAR AS DEMAIS CONTAS                                                                                  A06
2004319067000000000DEPOSITOS COMPULSORIOS                                                                                        A05
2004319091000000000SENTENCAS JUDICIAIS                                                                                           S05
2004319091010000000SENTENCAS JUDICIAIS - PRINCIPAL                                                                               A06
2004319091020000000SENTENCAS JUDICIAIS - ATUALIZACAO MONETARIA                                                                   A06
2004319091030000000REQUISIOES DE PEQUENO VALOR  RPV                                                                              A06
2004319091040000000ESPECIFICAAO DAS DEMAIS CONTAS                                                                                A06
2004319092000000000DESPESAS DE EXERCICIOS ANTERIORES                                                                             A05
2004319094000000000INDENIZACOES E RESTITUICOES TRABALHISTAS                                                                      S05
2004319094010000000INDENIZACAO POR DEMISSAO DE SERV OU EMPREGAD                                                                  A06
2004319094020000000DESPESAS RELAT PROGR DE DESLIGAM VOLUNTARIO                                                                   A06
2004319094030000000FERIAS E/OU AVISO PREVIO INDENIZADO                                                                           A06
2004319094040000000ESPECIFICACAO DAS DEMAIS CONTAS                                                                               A06
2004319096000000000RESSARCIMENTO DESP DE PESSOAL REQUISITADO                                                                     A05
2004320000000000000JUROS E ENCARGOS DA DIVIDA                                                                                    S02
2004329000000000000APLICACOES DIRETAS                                                                                            S03
2004329021000000000JUROS SOBRE A DIVIDA POR CONTRATO                                                                             A05
2004329022000000000OUTROS ENCARGOS SOBRE A DIVIDA POR CONTRATO                                                                   S05
2004329022010000000ESPECIFICACAO DAS CONTAS                                                                                      A06
2004329023000000000JUROS DESAGIOS E DESCONTOS DA DIVIDA MOBIL                                                                    A05
2004329024000000000OUTROS ENCARGOS SOBRE A DIVIDA MOBILIARIA                                                                     S05
2004329024010000000ESPECIFICACAO DAS CONTAS                                                                                      A06
2004329025000000000ENC S/ OPER DE CRED POR ANTEC DA RECEITA                                                                      A05
2004329091000000000SENTENCAS JUDICIAIS                                                                                           S05
2004329091010000000SENTENCAS JUDICIAIS - PRINCIPAL                                                                               A06
2004329091020000000SENTENCAS JUDICIAIS - ATUALIZACAO MONETARIA                                                                   A06
2004329091030000000ESPECIFICACAO DAS DEMAIS CONTAS                                                                               A06
2004329092000000000DESPESAS DE EXERCICIOS ANTERIORES                                                                             A05
2004330000000000000OUTRAS DESPESAS CORRENTES                                                                                     S02
2004332000000000000TRANSFERENCIAS A UNIAO                                                                                        S03
2004332041000000000COMPENS FINANCEIRA  9 ART 201 DA CF                                                                           S05
2004332041020000000TRANSF P/ FUNSET-FUNDO NAC SEG EDUC TRANSITO                                                                  A06
2004332041030000000TRANSF DE VALORES A JUSTICA ELEITORAL                                                                         A06
2004332041040000000ESPECIFICAAO DAS DEMAIS CONTAS                                                                                A06
2004332041050000000DEMAIS CONTAS A ESPECIFICAR                                                                                   A06
2004332093000000000INDENIZACOES E RESTITUICOES                                                                                   S05
2004332093010000000RESTITUI DE CONV E TRANSFER RECEB DA UNIAO                                                                    A06
2004332093020000000ESPECIFICACAO DAS DEMAIS CONTAS                                                                               A06
2004333000000000000TRANSFERENCIAS AO ESTADO E AO DISTR FEDERAL                                                                   S03
2004333041000000000CONTRIBUICOES                                                                                                 S05
2004333041010000000COMPENS FINANCEIRA  9 ART 201 DA CF                                                                           A06
2004333041020000000PROGRAMA TROCA-TROCA                                                                                          A06
2004333041030000000TRANSFERENCIAS P/ OS GRUPAMENTOS DE INCENDIO                                                                  A06
2004333041040000000ESPECIFICACAO DAS DEMAIS CONTAS                                                                               A06
2004333093000000000INDENIZACOES E RESTITUICOES                                                                                   S05
2004333093010000000RESTITUICAO DE CONV E TRANSF RECEB DO ESTADO                                                                  A06
2004333093020000000ESPECIFICACAO DAS DEMAIS CONTAS                                                                               A06
2004334000000000000TRANSFERENCIAS A MUNICIPIOS                                                                                   S03
2004334041000000000CONTRIBUICOES                                                                                                 S05
2004334041010000000COMPENS FINANCEIRA  9 ART 201 DA CF                                                                           A06
2004334041020000000CONTRIBUICOES A ESCOLAS MUNICIPAIS                                                                            A06
2004334041030000000CONTRIB AO MUNI POLO DA CONTRAP CONV C/UNIAO                                                                  A06
2004334041040000000TRANSF A MUNICIPIO EMANC P/ ACERTO DE CONTAS                                                                  A06
2004334041050000000ESPECIFICACAO DAS DEMAIS CONTAS                                                                               A06
2004334093000000000INDENIZACOES E RESTITUICOES                                                                                   S05
2004334093010000000RESTITUICAO DE CONV E TRANSF RECEB DOS MUNIC                                                                  A06
2004334093020000000ESPECIFICACAO DAS DEMAIS CONTAS                                                                               A06
2004335000000000000TRANSF A INSTITUI PRIV SEM FINS LUCRATIVOS                                                                    S03
2004335041000000000CONTRIBUICOES                                                                                                 A05
2004335043000000000SUBVENCOES SOCIAIS                                                                                            A05
2004336000000000000TRANSF A INSTIT PRIVADAS COM FINS LUCRATIVOS                                                                  S03
2004336041000000000CONTRIBUICOES                                                                                                 A05
2004337000000000000TRANSFERENCIAS A INSTITUICOES MULTIGOVERNAM                                                                   S03
2004337041000000000CONTRIBUICOES                                                                                                 S05
2004337041010000000TRANSFER P/ FUNDEF CONTRIBUIAO DO MUNICIPIO                                                                   A06
2004337041020000000CONTRIBUICOES PARA MANUTENCAO DOS CONSORCIOS                                                                  A06
2004337041030000000ESPECIFICACAO DAS DEMAIS CONTAS                                                                               A06
2004339000000000000APLICACOES DIRETAS                                                                                            S03
2004339001000000000APOSENTADORIAS                                                                                                A05
2004339003000000000PENSOES                                                                                                       A05
2004339004000000000CONTRATACAO POR TEMPO DETERMINADO                                                                             A05
2004339005000000000OUTROS BENEFICIOS PREVIDENCIARIOS                                                                             S05
2004339005010000000OUTROS BENEFICIOS PREVIDENCI -PESSOAL ATIVO                                                                   S06
2004339005010100000AUXILIO DOENCA - PESSOAL ATIVO                                                                                A07
2004339005010200000AUXILIO RECLUSAO - PESSOAL ATIVO                                                                              A07
2004339005010300000SALRIO MATERNIDADE - PESSOAL ATIVO                                                                            A07
2004339005010400000ESPECIFIC DAS DEMAIS CONTAS - PESSOAL ATIVO                                                                   A07
2004339005020000000OUTROS BENEF PREVID - PESSOAL INATIVO E PENS                                                                  S06
2004339005020100000AUXILIO DOENCA - PESSOAL INATIVO E PENSION                                                                    A07
