87612826000190010120253108202510092025PREFEITURA MUNICIPAL INDEPENDENCIA                                              
050523695000400002048339039000000000000500000000000000000000000000000000000000000000000000000000000000000000000000000000000000000000000000000000000000000000000000000000000000000000000000000000000000000000000000000000000000000000000000000000000000000000000015000000
080110304000700002103339014000000000000500000000000000000000000000000000000000000000000000000000000000003870000000000000000000000000000000000001120400000000112040000000011204000000000000000000000000000000000000000000000000000000000000000000000000000000000015000000
090408243001100002107339008000000000000500000000000000000000000000000000000000000000000000000000000000000000000000000000000000000000000000000000000000000000000000000000000000000000000000000000000000000000000000000000000000000000000000000000000000000000000015000000
100104122000100002050339093000000000003700000000000000000000000004000000000000000000000000000000000000000000000000000000000000000000000000000040524000000004052400000000405240000000000000000000000000000000000000000000000000000000000000000000000000000000000015000000
020104122000100002078339008000000000001000000000000000000000000000000000000000000000000000000000000000000000000000000000000000000000000000000000000000000000000000000000000000000000000000000000000000000000000000000000000000000000000000000000000000000000000015000000
020304124000100002082339036000000000000500000000000000000000000000000000000000000000000000000000000000000000000000000000000000000000000000000000000000000000000000000000000000000000000000000000000000000000000000000000000000000000000000000000000000000000000015000000
080110305000700002104339039000000000000500000000000000000000000000000000000000000000000000000000000000000000000000000000000000000000000000000000900000000000090000000000009000000000000000000000000000000000000000000000000000000000000000000000000000000000000015000000
100506182001400001157339032000000000000000000000000000000000000000000000000093500000000000000000000000000000000000000000000000000000000000000925405200000092540520000009254052000000000000000000000000000000000000000000000000000000000000000000000000000000000017470000
060326782001700001128449051000000000000000000000000000000000000000000000000020000000000000000000000000000000000000000000000000000000000000000195332700000019533270000001953327000000000000000000000000000000000000000000000000000000000000000000000000000000000017010000
100220607000400001120339032000000000000000000000000000000000000000000000000018073930000000000000000000000000000000000000000000000000000000000000000000000000000000000000000000000000000000000000000000000000000000000000000000000000000000000000000000000000000015000000
050104122000100002022339014000000000005400000000000000000000000061000000000000000000000000000000000000006000000000000000000000000000000000000082766600000008276660000000822064000000000000000000000000000000000000000000000000000000000000000000000000000000000015000000
090208244001100002016339030000000000009200000000000000000000000050000000000000000000000000000000000000000000000000000000000000000000000000000123965200000006387820000000638782000000000000000000000000000000000000000000000000000000000000000000000000000000000016600000
130104121000100002132319016000000000000500000000000000000000000000000000000000000000000000000000000000000000000000000000000000000000000000000000603300000000060330000000006033000000000000000000000000000000000000000000000000000000000000000000000000000000000015000000
080110304000700002103339046000000000000000000000000000000000000030000000000000000000000000000000000000000000000000000000000000000000000000000029765600000002976560000000080000000000000000000000000000000000000000000000000000000000000000000000000000000000000015010000
060126782001700001503449051000000000000000000000000000000000000000000000000000000000000000000000000000000000000000000000000000000000000000000000000000000000000000000000000000000000000000000000000000000000000000000000000000000000000000000000000000000000000017540000
080110301000600002089319008000000000001000000000000000000000000000000000000000000000000000000000000000000000000000000000000000000000000000000000000000000000000000000000000000000000000000000000000000000000000000000000000000000000000000000000000000000000000015000000
080110301000900002109339030000000000027000000000000000000000000000000000000000000000000000000000000000090000000000000000000000000000000000000000000000000000000000000000000000000000000000000000000000000000000000000000000000000000000000000000000000000000000016000000
080110303000800002100339032000000000208500000000000000000000000250000000000000000000000000000000000000000000000000000000000000000000000000001948172100000170416090000017041609000000000000000000000000000000000000000000000000000000000000000000000000000000000015000000
080110304000700002103339046000000000009000000000000000000000000000000000000000000000000000000000000000000000000000000000000000000000000000000034568800000003456880000000345688000000000000000000000000000000000000000000000000000000000000000000000000000000000015000000
100220608000400002054339039000000000000500000000000000000000000040000000000000000000000000000000000000000000000000000000000000000000000000000045000000000002250000000000225000000000000000000000000000000000000000000000000000000000000000000000000000000000000015000000
080110301000900002109339046000000000000000000000000000000000000020000000000000000000000000000000000000000000000000000000000000000000000000000019506000000001950600000000174352000000000000000000000000000000000000000000000000000000000000000000000000000000000025010000
080110301000600002091339040000000000003025700000000000000000000000000000000000000000000000000000000000030000000000000000000000000000000000000000000000000000000000000000000000000000000000000000000000000000000000000000000000000000000000000000000000000000000015000000
080110302000800002096339014000000000000500000000000000000000000000000000000000000000000000000000000000004990000000000000000000000000000000000000000000000000000000000000000000000000000000000000000000000000000000000000000000000000000000000000000000000000000015000000
090104122000100002010339036000000000000500000000000000000000000000000000000000000000000000000000000000005000000000000000000000000000000000000000000000000000000000000000000000000000000000000000000000000000000000000000000000000000000000000000000000000000000015000000
090208243001100002014339030000000000042800000000000000000000000000000000000000000000000000000000000000010000000000000000000000000000000000000044878800000003689320000000368932000000000000000000000000000000000000000000000000000000000000000000000000000000000016600000
100220608000400002055339039000000000001500000000000000000000000000000000000000000000000000000000000000000000000000000000000000000000000000000000000000000000000000000000000000000000000000000000000000000000000000000000000000000000000000000000000000000000000015000000
050104122000100002022339046000000000000000000000000000000000000100000000000000000000000000000000000000000000000000000000000000000000000000000095598400000009559840000000000000000000000000000000000000000000000000000000000000000000000000000000000000000000000015010000
130222661000400001501449061000000000000000000000000000000000000000000000000000000000000000000000000000000000000000000000000000000000000000000000000000000000000000000000000000000000000000000000000000000000000000000000000000000000000000000000000000000000000017540000
040104123000100002075339014000000000006600000000000000000000000000000000000000000000000000000000000000000000000000000000000000000000000000000004186600000000418660000000041866000000000000000000000000000000000000000000000000000000000000000000000000000000000015000000
050104122000100002022339046000000000081000000000000000000000000000000000000000000000000000000000000000000000000000000000000000000000000000000402453200000040245320000004024532000000000000000000000000000000000000000000000000000000000000000000000000000000000015000000
080110301000600002092339040000000000006265980000000000000000000000000000000000000000000000000000000000062650000000000000000000000000000000000000000000000000000000000000000000000000000000000000000000000000000000000000000000000000000000000000000000000000000015000000
080110301000600002105319008000000000001000000000000000000000000000000000000000000000000000000000000000000000000000000000000000000000000000000000000000000000000000000000000000000000000000000000000000000000000000000000000000000000000000000000000000000000000015000000
080110301000900002109449040000000000000500000000000000000000000000000000000000000000000000000000000000000000000000000000000000000000000000000000000000000000000000000000000000000000000000000000000000000000000000000000000000000000000000000000000000000000000015000000
080110303000800002101339036000000000001000000000000000000000000000000000000000000000000000000000000000009990000000000000000000000000000000000000000000000000000000000000000000000000000000000000000000000000000000000000000000000000000000000000000000000000000015000000
070215452001000002005339030000000000001500000000000000000000000000000000000000000000000000000000000000000000000000000000000000000000000000000000000000000000000000000000000000000000000000000000000000000000000000000000000000000000000000000000000000000000000015000000
080110303000800002102339036000000000000500000000000000000000000000000000000000000000000000000000000000005000000000000000000000000000000000000000000000000000000000000000000000000000000000000000000000000000000000000000000000000000000000000000000000000000000015000000
090316482001600002020339039000000000000500000000000000000000000000000000000000000000000000000000000000000000000000000000000000000000000000000004239000000000423900000000042390000000000000000000000000000000000000000000000000000000000000000000000000000000000015000000
100104122000100002050319016000000000020000000000000000000000000000000000000000000000000000000000000000000000000000000000000000000000000000000190338800000019033880000001903388000000000000000000000000000000000000000000000000000000000000000000000000000000000015000000
100220608000400001020449052000000000000500000000000000000000000000000000000000000000000000000000000000000000000000000000000000000000000000000000000000000000000000000000000000000000000000000000000000000000000000000000000000000000000000000000000000000000000015010000
100618541001300002061339032000000000000500000000000000000000000000000000000000000000000000000000000000000000000000000000000000000000000000000000000000000000000000000000000000000000000000000000000000000000000000000000000000000000000000000000000000000000000015000000
080110302000800002096339046000000000000000000000000000000000000045000000000000000000000000000000000000000000000000000000000000000000000000000045000000000004500000000000000000000000000000000000000000000000000000000000000000000000000000000000000000000000000015010000
070215452001000002006339030000000000038550000000000000000000000000000000000000000000000000000000000000000000000000000000000000000000000000000240835000000016755000000001675500000000000000000000000000000000000000000000000000000000000000000000000000000000000015000000
080110302000800002096339046000000000080000000000000000000000000000000000000000000000000000000000000000000000000000000000000000000000000000000283025100000028302510000002830251000000000000000000000000000000000000000000000000000000000000000000000000000000000015000000
080110305000700002087319004000000000012600000000000000000000000000000000000000000000000000000000000000000000000000000000000000000000000000000050164000000005016400000000501640000000000000000000000000000000000000000000000000000000000000000000000000000000000016210000
100506182001400002060339030000000000015100000000000000000000000000000000000000000000000000000000000000000000000000000000000000000000000000000000000000000000000000000000000000000000000000000000000000000000000000000000000000000000000000000000000000000000000015000000
100220608000400001020449052000000000197070000000000000000000000000000000000000000000000000000000000000270000000000000000000000000000000000000000000000000000000000000000000000000000000000000000000000000000000000000000000000000000000000000000000000000000000015000000
040104123000100002075339046000000000000000000000000000000000000048000000000000000000000000000000000000000000000000000000000000000000000000000048000000000004800000000000000000000000000000000000000000000000000000000000000000000000000000000000000000000000000015010000
080110301000500001155339039000000000000000000000000000000000000300000000000000000000000000000000000000000000000000000000000000000000000000000000000000000000000000000000000000000000000000000000000000000000000000000000000000000000000000000000000000000000000016210000
030104122000100002067319016000000000000500000000000000000000000000000000000000000000000000000000000000000000000000000000000000000000000000000000000000000000000000000000000000000000000000000000000000000000000000000000000000000000000000000000000000000000000015000000
040104123000100002075339046000000000060000000000000000000000000000000000000000000000000000000000000000000000000000000000000000000000000000000253078800000025307880000002530788000000000000000000000000000000000000000000000000000000000000000000000000000000000015000000
050212306000200002029339030000000000126000000000000000000000000000000000000000000000000000000000000000000000000000000000000000000000000000001259981900000086624240000008662424000000000000000000000000000000000000000000000000000000000000000000000000000000000015520000
500209272002000000002319003000000000760000000000000000000000000000000000000000000000000000000000000000000000000000000000000000000000000000004978657800000497865780000049786578000000000000000000000000000000000000000000000000000000000000000000000000000000000018000000
050212365000200002033339034000000000000500000000000000000000000000000000000000000000000000000000000000000000000000000000000000000000000000000000000000000000000000000000000000000000000000000000000000000000000000000000000000000000000000000000000000000000000015000000
050212368000200002131319016000000000001000000000000000000000000000000000000000000000000000000000000000000000000000000000000000000000000000000002814400000000281440000000028144000000000000000000000000000000000000000000000000000000000000000000000000000000000015000000
050523695000400002112339036000000000000500000000000000000000000000000000000000000000000000000000000000000000000000000000000000000000000000000000000000000000000000000000000000000000000000000000000000000000000000000000000000000000000000000000000000000000000015000000
090208244001100002016449052000000000001395000000000000000000000000000000000000000000000000000000000000000000000000000000000000000000000000000012490000000001249000000000124900000000000000000000000000000000000000000000000000000000000000000000000000000000000016600000
500209272002000000003319003000000000052000000000000000000000000000000000000000000000000000000000000000000000000000000000000000000000000000000000000000000000000000000000000000000000000000000000000000000000000000000000000000000000000000000000000000000000000018000000
050427812000300002043339031000000000000500000000000000000000000000000000000000000000000000000000000000000000000000000000000000000000000000000000000000000000000000000000000000000000000000000000000000000000000000000000000000000000000000000000000000000000000015000000
080110301000600002092319113000000000270000000000000000000000000000000000000000000000000000000000000000000000000000000000000000000000000000001706944600000170694460000014689919000000000000000000000000000000000000000000000000000000000000000000000000000000000015000000
080110301000900002109449052000000000000500000000000000000000000000000000000000000000000000000000000000000000000000000000000000000000000000000000000000000000000000000000000000000000000000000000000000000000000000000000000000000000000000000000000000000000000016000000
090208244001100002015339033000000000000500000000000000000000000000000000000000000000000000000000000000000000000000000000000000000000000000000000000000000000000000000000000000000000000000000000000000000000000000000000000000000000000000000000000000000000000015000000
090208244001100002018319013000000000012000000000000000000000000000000000000000000000000000000000000000000000000000000000000000000000000000000000000000000000000000000000000000000000000000000000000000000000000000000000000000000000000000000000000000000000000015000000
090408243001100002107319094000000000005000000000000000000000000000000000000000000000000000000000000000000000000000000000000000000000000000000000000000000000000000000000000000000000000000000000000000000000000000000000000000000000000000000000000000000000000015000000
090208334001100001145339039000000000005000000000000000000000000000000000000016485000000000000000000000000000000000000000000000000000000000000164850000000016485000000001648500000000000000000000000000000000000000000000000000000000000000000000000000000000000015000000
090208244001100002018339339000000000009120000000000000000000000000000000000000000000000000000000000000000000000000000000000000000000000000000076800000000007680000000000768000000000000000000000000000000000000000000000000000000000000000000000000000000000000015000000
050313392000300002037319013000000000002600000000000000000000000000000000000000000000000000000000000000000000000000000000000000000000000000000000000000000000000000000000000000000000000000000000000000000000000000000000000000000000000000000000000000000000000015000000
070215451001700002111339039000000000047000000000000000000000000000000000000000000000000000000000000000000000000000000000000000000000000000000435000000000031060510000003106051000000000000000000000000000000000000000000000000000000000000000000000000000000000015000000
080110301000600002090319008000000000003500000000000000000000000000000000000000000000000000000000000000000000000000000000000000000000000000000000000000000000000000000000000000000000000000000000000000000000000000000000000000000000000000000000000000000000000015000000
050212365000200002033339046000000000000000000000000000000000001163000000000000000000000000000000000000000000000000000000000000000000000000001161585200000116158520000011612816000000000000000000000000000000000000000000000000000000000000000000000000000000000025010000
080110304000700002103319011000000000002000000000000000000000000000000000000000000000000000000000000000000000000000000000000000000000000000000000000000000000000000000000000000000000000000000000000000000000000000000000000000000000000000000000000000000000000015000000
100618541001300002061339039000000000003000000000000000000000000000000000000000000000000000000000000000000000000000000000000000000000000000000000000000000000000000000000000000000000000000000000000000000000000000000000000000000000000000000000000000000000000017590000
050212365000200002033319004000000000206000000000000000000000000440000000000000000000000000000000000000000000000000000000000000000000000000002492844500000249284450000024928445000000000000000000000000000000000000000000000000000000000000000000000000000000000015400000
050212365000200002033449040000000000000500000000000000000000000000000000000000000000000000000000000000000000000000000000000000000000000000000000000000000000000000000000000000000000000000000000000000000000000000000000000000000000000000000000000000000000000015000000
080110302000800002096319004000000000040000000000000000000000000000000000000000000000000000000000000000000000000000000000000000000000000000000000000000000000000000000000000000000000000000000000000000000000000000000000000000000000000000000000000000000000000015000000
100220608000400002051339030000000000000500000000000000000000000000000000000000000000000000000000000000000000000000000000000000000000000000000000000000000000000000000000000000000000000000000000000000000000000000000000000000000000000000000000000000000000000015000000
100506182001400002060449052000000000017000000000000000000000000000000000000000000000000000000000000000000000000000000000000000000000000000000000000000000000000000000000000000000000000000000000000000000000000000000000000000000000000000000000000000000000000015010000
110109271000000000032319003000000000011000000000000000000000000000000000000000000000000000000000000000000000000000000000000000000000000000000064768000000006476800000000647680000000000000000000000000000000000000000000000000000000000000000000000000000000000015000000
050104122000100002022319011000000000510000000000000000000000000000000000000000000000000000000000000000000000000000000000000000000000000000003152313900000315231390000031523139000000000000000000000000000000000000000000000000000000000000000000000000000000000015000000
070215452001700002002339039000000000096000000000000000000000000000000000000000000000000000000000000000400000000000000000000000000000000000000313739900000023044180000002304418000000000000000000000000000000000000000000000000000000000000000000000000000000000015000000
080110303000800002099339339000000000458000000000000000000000000600000000000000000000000000000000000000150000000000000000000000000000000000005030000000000442816660000044281666000000000000000000000000000000000000000000000000000000000000000000000000000000000015000000
100618543001300002062339039000000000000500000000000000000000000000000000000000000000000000000000000000000000000000000000000000000000000000000000000000000000000000000000000000000000000000000000000000000000000000000000000000000000000000000000000000000000000015000000
500109122000100002066339035000000000046300000000000000000000000000000000000000000000000000000000000000000000000000000000000000000000000000000105062400000005561800000000556180000000000000000000000000000000000000000000000000000000000000000000000000000000000018020000
040104129000100002076339032000000000000500000000000000000000000000000000000000000000000000000000000000000000000000000000000000000000000000000000000000000000000000000000000000000000000000000000000000000000000000000000000000000000000000000000000000000000000015000000
040104129000100002077339040000000000002900000000000000000000000000000000000000000000000000000000000000000000000000000000000000000000000000000002350000000000235000000000023500000000000000000000000000000000000000000000000000000000000000000000000000000000000015010000
050212365000200002033319113000000000365000000000000000000000000000000000000000000000000000000000000000000000000000000000000000000000000000000100837500000010083750000001008375000000000000000000000000000000000000000000000000000000000000000000000000000000000015000000
070104122000100002001339040000000000001400000000000000000000000000000000000000000000000000000000000000000000000000000000000000000000000000000000000000000000000000000000000000000000000000000000000000000000000000000000000000000000000000000000000000000000000015000000
080110301000600002091339014000000000000500000000000000000000000000000000000000000000000000000000000000000000000000000000000000000000000000000001120400000000112040000000011204000000000000000000000000000000000000000000000000000000000000000000000000000000000015000000
050212365000200002033319011000000002860000000000000000000000000000000000000000000000000000000000000001410000000000000000000000000000000000017486835800001748683580000174868358000000000000000000000000000000000000000000000000000000000000000000000000000000000015400000
050212367000200002034335043000000000192000000000000000000000000000000000000000000000000000000000000000000000000000000000000000000000000000001920000000000112000000000011200000000000000000000000000000000000000000000000000000000000000000000000000000000000000015000000
060104122000100002072339040000000000003500000000000000000000000000000000000000000000000000000000000000000000000000000000000000000000000000000000000000000000000000000000000000000000000000000000000000000000000000000000000000000000000000000000000000000000000015000000
070326782001800002009449040000000000000500000000000000000000000000000000000000000000000000000000000000000000000000000000000000000000000000000000000000000000000000000000000000000000000000000000000000000000000000000000000000000000000000000000000000000000000015000000
080110301000600002092339014000000000000500000000000000000000000000000000000000000000000000000000000000000000000000000000000000000000000000000002240800000000224080000000022408000000000000000000000000000000000000000000000000000000000000000000000000000000000015000000
080110302000800002096319011000000000210000000000000000000000000000000000000000000000000000000000000000000000000000000000000000000000000000000836115900000083611590000008361159000000000000000000000000000000000000000000000000000000000000000000000000000000000015000000
090208244001100002016339036000000000000500000000000000000000000000000000000000000000000000000000000000000000000000000000000000000000000000000000000000000000000000000000000000000000000000000000000000000000000000000000000000000000000000000000000000000000000016600000
040104122000100002130319013000000000008000000000000000000000000000000000000000000000000000000000000000080000000000000000000000000000000000000000000000000000000000000000000000000000000000000000000000000000000000000000000000000000000000000000000000000000000015000000
040104123000100002075319011000000000695000000000000000000000000000000000000000000000000000000000000000000000000000000000000000000000000000004154497200000415449720000041544972000000000000000000000000000000000000000000000000000000000000000000000000000000000015000000
070215451001700001001449030000000000100500000000000000000000000000000000000000000000000000000000000000081330000000000000000000000000000000000004015000000000392500000000039250000000000000000000000000000000000000000000000000000000000000000000000000000000000015000000
080110301000600002091339046000000000000000000000000000000000000248000000000000000000000000000000000000000000000000000000000000000000000000000246677600000024667760000001190708000000000000000000000000000000000000000000000000000000000000000000000000000000000015010000
020104243000100002108339039000000000000500000000000000000000000000000000000000000000000000000000000000000000000000000000000000000000000000000000000000000000000000000000000000000000000000000000000000000000000000000000000000000000000000000000000000000000000015000000
020105122000200002079339039000000000000500000000000000000000000000000000000000000000000000000000000000000000000000000000000000000000000000000000000000000000000000000000000000000000000000000000000000000000000000000000000000000000000000000000000000000000000015000000
050212782000200002035339039000000000175981850000000000000000000000000000000000000000000000000000000000600000000000000000000000000000000000000550921000000055092100000005509210000000000000000000000000000000000000000000000000000000000000000000000000000000000015710000
080110301000600002091339046000000000125000000000000000000000000000000000000000000000000000000000000000000000000000000000000000000000000000000577855200000057785520000005778552000000000000000000000000000000000000000000000000000000000000000000000000000000000015000000
080110301000600002092339046000000000000000000000000000000000000240000000000000000000000000000000000000000000000000000000000000000000000000000237849600000023784960000001000000000000000000000000000000000000000000000000000000000000000000000000000000000000000015010000
030104131000100002071339030000000000000500000000000000000000000000000000000000000000000000000000000000000000000000000000000000000000000000000000000000000000000000000000000000000000000000000000000000000000000000000000000000000000000000000000000000000000000015000000
080110301000600002088339030000000000001000000000000000000000000000000000000000000000000000000000000000010000000000000000000000000000000000000000000000000000000000000000000000000000000000000000000000000000000000000000000000000000000000000000000000000000000015000000
080110301000600002092339046000000000130000000000000000000000000000000000000000000000000000000000000000000000000000000000000000000000000000000561213200000056121320000005612132000000000000000000000000000000000000000000000000000000000000000000000000000000000015000000
500209272002000000003319113000000000015000000000000000000000000000000000000000000000000000000000000000000000000000000000000000000000000000000000000000000000000000000000000000000000000000000000000000000000000000000000000000000000000000000000000000000000000018000000
090408243001100002107339046000000000000000000000000000000000000052000000000000000000000000000000000000000000000000000000000000000000000000000051769600000005176960000000517696000000000000000000000000000000000000000000000000000000000000000000000000000000000025010000
070104122000100002001319113000000000280000000000000000000000000000000000000000000000000000000000000000000000000000000000000000000000000000001148397500000114839750000010116044000000000000000000000000000000000000000000000000000000000000000000000000000000000015000000
070215452001000002005339036000000000000500000000000000000000000000000000000000000000000000000000000000000000000000000000000000000000000000000000000000000000000000000000000000000000000000000000000000000000000000000000000000000000000000000000000000000000000015000000
500209272002000000004319113000000000001000000000000000000000000000000000000000000000000000000000000000000000000000000000000000000000000000000000000000000000000000000000000000000000000000000000000000000000000000000000000000000000000000000000000000000000000018000000
100220608000400002053339093000000000000000000000000000000000000043000000000041820000000000000000000000000000000000000000000000000000000000000446251200000044625120000004462512000000000000000000000000000000000000000000000000000000000000000000000000000000000015000000
020104122000100002078339046000000000000000000000000000000000000010000000000000000000000000000000000000000000000000000000000000000000000000000000000000000000000000000000000000000000000000000000000000000000000000000000000000000000000000000000000000000000000025010000
030104122000100002068339040000000000053640000000000000000000000033160000000000000000000000000000000000415950000000000000000000000000000000000044650000000001048120000000104812000000000000000000000000000000000000000000000000000000000000000000000000000000000015000000
040104129000100002077319113000000000110000000000000000000000000000000000000000000000000000000000000000000000000000000000000000000000000000000372140900000037214090000003246035000000000000000000000000000000000000000000000000000000000000000000000000000000000015000000
060104122000100002072319113000000000185000000000000000000000000000000000000000000000000000000000000000000000000000000000000000000000000000000872369800000087236980000007613882000000000000000000000000000000000000000000000000000000000000000000000000000000000015000000
090408243001100002107449040000000000000500000000000000000000000000000000000000000000000000000000000000000000000000000000000000000000000000000000000000000000000000000000000000000000000000000000000000000000000000000000000000000000000000000000000000000000000015000000
020104122000100002078449040000000000001100000000000000000000000000000000000000000000000000000000000000010700000000000000000000000000000000000000000000000000000000000000000000000000000000000000000000000000000000000000000000000000000000000000000000000000000015000000
090208244001100002017339030000000000005400000000000000000000000000000000000000000000000000000000000000000000000000000000000000000000000000000048163300000004696920000000469692000000000000000000000000000000000000000000000000000000000000000000000000000000000015000000
030104131000100002069339040000000000215400000000000000000000002094846300000000000000000000000000000000038300000000000000000000000000000000003925909900000157974660000015797466000000000000000000000000000000000000000000000000000000000000000000000000000000000015000000
050212782000200002035339039000000000803900000000000000000000000000000000000000000000000000000000000000500000000000000000000000000000000000005665847600000323576000000032279125000000000000000000000000000000000000000000000000000000000000000000000000000000000015000000
050313392000300002037339030000000000013500000000000000000000000000000000000000000000000000000000000000000000000000000000000000000000000000000085324600000008532460000000795246000000000000000000000000000000000000000000000000000000000000000000000000000000000015010000
090208244001100002018339030000000000019600000000000000000000000000000000000000000000000000000000000000089000000000000000000000000000000000000095614700000008748670000000874867000000000000000000000000000000000000000000000000000000000000000000000000000000000015000000
130222661000400002057339030000000000000500000000000000000000000000000000000000000000000000000000000000005000000000000000000000000000000000000000000000000000000000000000000000000000000000000000000000000000000000000000000000000000000000000000000000000000000015000000
020104122000100002078319113000000000000500000000000000000000000000000000000000000000000000000000000000000000000000000000000000000000000000000000000000000000000000000000000000000000000000000000000000000000000000000000000000000000000000000000000000000000000015000000
050104122000100002022339008000000000002000000000000000000000000000000000000000000000000000000000000000000000000000000000000000000000000000000000000000000000000000000000000000000000000000000000000000000000000000000000000000000000000000000000000000000000000015000000
050313392000300002037339030000000000000500000000000000000000000000000000000000000000000000000000000000000000000000000000000000000000000000000000000000000000000000000000000000000000000000000000000000000000000000000000000000000000000000000000000000000000000015000000
080110301000900002109319013000000000001000000000000000000000000000000000000000000000000000000000000000000000000000000000000000000000000000000000000000000000000000000000000000000000000000000000000000000000000000000000000000000000000000000000000000000000000015000000
080110301000600002091319004000000000003400000000000000000000000000000000000000000000000000000000000000000000000000000000000000000000000000000000000000000000000000000000000000000000000000000000000000000000000000000000000000000000000000000000000000000000000015000000
050313392000300002038339030000000000002700000000000000000000000000000000000000000000000000000000000000019000000000000000000000000000000000000007822900000000000000000000000000000000000000000000000000000000000000000000000000000000000000000000000000000000000015000000
080110301000600002089339093000000000000500000000000000000000000000000000000000000000000000000000000000004990000000000000000000000000000000000000000000000000000000000000000000000000000000000000000000000000000000000000000000000000000000000000000000000000000015000000
080110301000600002092319004000000000000500000000000000000000000123000000000000000000000000000000000000000000000000000000000000000000000000000127297800000012729780000001272978000000000000000000000000000000000000000000000000000000000000000000000000000000000015000000
500109122000100002066339030000000000000700000000000000000000000000000000000000000000000000000000000000000000000000000000000000000000000000000000000000000000000000000000000000000000000000000000000000000000000000000000000000000000000000000000000000000000000018020000
060426782001700002074339039000000000004300000000000000000000000000000000000000000000000000000000000000000000000000000000000000000000000000000005000000000000070000000000007000000000000000000000000000000000000000000000000000000000000000000000000000000000000015000000
070104122000100002001339014000000000004300000000000000000000000000000000000000000000000000000000000000000400000000000000000000000000000000000010320000000001032000000000103200000000000000000000000000000000000000000000000000000000000000000000000000000000000015000000
090208242001100002013339030000000000000500000000000000000000000000000000000000000000000000000000000000000000000000000000000000000000000000000000000000000000000000000000000000000000000000000000000000000000000000000000000000000000000000000000000000000000000015000000
080110305000700002104319011000000000056000000000000000000000000080000000000000000000000000000000000000080000000000000000000000000000000000000198374500000019837450000001983745000000000000000000000000000000000000000000000000000000000000000000000000000000000016000000
040104123000100002075339008000000000001000000000000000000000000000000000000000000000000000000000000000000000000000000000000000000000000000000000000000000000000000000000000000000000000000000000000000000000000000000000000000000000000000000000000000000000000015000000
040104129000100002077339014000000000003865000000000000000000000000000000000000000000000000000000000000000000000000000000000000000000000000000008403000000000840300000000084030000000000000000000000000000000000000000000000000000000000000000000000000000000000015000000
060104122000100002072339014000000000000500000000000000000000000000000000000000000000000000000000000000000000000000000000000000000000000000000000000000000000000000000000000000000000000000000000000000000000000000000000000000000000000000000000000000000000000015000000
080110301000600002091319011000000000105000000000000000000000000050000000000000000000000000000000000000000000000000000000000000000000000000001096417000000109641700000010964170000000000000000000000000000000000000000000000000000000000000000000000000000000000015000000
080110301000600002105339093000000000000500000000000000000000000011974800000000000000000000000000000000000000000000000000000000000000000000000016974800000001697480000000169748000000000000000000000000000000000000000000000000000000000000000000000000000000000015000000
030104131000100002069319113000000000050000000000000000000000000000000000000000000000000000000000000000000000000000000000000000000000000000000192190900000019219090000001674507000000000000000000000000000000000000000000000000000000000000000000000000000000000015000000
080110301000600002092319011000000000662930000000000000000000000000000000000000000000000000000000000000000000000000000000000000000000000000002942558200000294255820000029425582000000000000000000000000000000000000000000000000000000000000000000000000000000000015000000
090208241001100002011339030000000000003950000000000000000000000025000000000000000000000000000000000000000000000000000000000000000000000000000054724800000004201380000000420138000000000000000000000000000000000000000000000000000000000000000000000000000000000015000000
070104122000100002001339046000000000000000000000000000000000000325000000000000000000000000000000000000000000000000000000000000000000000000000325000000000032500000000001550000000000000000000000000000000000000000000000000000000000000000000000000000000000000015010000
050212128000200002024339014000000000000500000000000000000000000000000000000000000000000000000000000000000000000000000000000000000000000000000000560200000000056020000000005602000000000000000000000000000000000000000000000000000000000000000000000000000000000015000000
070104122000100002001339046000000000220000000000000000000000000000000000000000000000000000000000000000000000000000000000000000000000000000000891965600000089196560000008919656000000000000000000000000000000000000000000000000000000000000000000000000000000000015000000
090208244001100002017449052000000000000500000000000000000000000000000000000000000000000000000000000000005000000000000000000000000000000000000000000000000000000000000000000000000000000000000000000000000000000000000000000000000000000000000000000000000000000015000000
130104121000100002132339039000000000003000000000000000000000000918240000000000000000000000000000000000005880000000000000000000000000000000000893760300000039302700000003930270000000000000000000000000000000000000000000000000000000000000000000000000000000000015000000
040104129000100002077339046000000000000000000000000000000000000020000000000000000000000000000000000000000000000000000000000000000000000000000019631600000001963160000000000000000000000000000000000000000000000000000000000000000000000000000000000000000000000015010000
060104122000100002072339046000000000000000000000000000000000000230000000000000000000000000000000000000000000000000000000000000000000000000000230000000000023000000000001100000000000000000000000000000000000000000000000000000000000000000000000000000000000000015010000
040104122000100002130339030000000000004900000000000000000000000000000000000000000000000000000000000000045150000000000000000000000000000000000003850000000000385000000000038500000000000000000000000000000000000000000000000000000000000000000000000000000000000015000000
040104129000100002077339046000000000041000000000000000000000000000000000000000000000000000000000000000000000000000000000000000000000000000000118217600000011821760000001182176000000000000000000000000000000000000000000000000000000000000000000000000000000000015000000
050212782000200002035319016000000000000800000000000000000000000000000000000000000000000000000000000000000000000000000000000000000000000000000000000000000000000000000000000000000000000000000000000000000000000000000000000000000000000000000000000000000000000015400000
060104122000100002072339046000000000135000000000000000000000000000000000000000000000000000000000000000000000000000000000000000000000000000000502317600000050231760000005023176000000000000000000000000000000000000000000000000000000000000000000000000000000000015000000
080110305000700002104319011000000000083000000000000000000000000000000000000000000000000000000000000000000000000000000000000000000000000000000728640000000072864000000007286400000000000000000000000000000000000000000000000000000000000000000000000000000000000016040000
090208244001100002018449052000000000008000000000000000000000000000000000000000000000000000000000000000070000000000000000000000000000000000000001640000000000164000000000016400000000000000000000000000000000000000000000000000000000000000000000000000000000000015000000
030104131000100002070339040000000000010300000000000000000000000000000000000000000000000000000000000000069340000000000000000000000000000000000008500000000000850000000000085000000000000000000000000000000000000000000000000000000000000000000000000000000000000015000000
050212361000200002031339040000000000018200000000000000000000000000000000000000000000000000000000000000000000000000000000000000000000000000000000000000000000000000000000000000000000000000000000000000000000000000000000000000000000000000000000000000000000000015000000
050313392000300002037449052000000000000500000000000000000000000000000000000000000000000000000000000000000000000000000000000000000000000000000000000000000000000000000000000000000000000000000000000000000000000000000000000000000000000000000000000000000000000015000000
080110301000600002089319016000000000001000000000000000000000000000000000000000000000000000000000000000000000000000000000000000000000000000000009881600000000988160000000098816000000000000000000000000000000000000000000000000000000000000000000000000000000000015000000
020304122000100002081339039000000000000500000000000000000000000007970000000000000000000000000000000000000000000000000000000000000000000000000012970000000001297000000000129700000000000000000000000000000000000000000000000000000000000000000000000000000000000015000000
030104122000100002068339014000000000004300000000000000000000000031172200000000000000000000000000000000000000000000000000000000000000000000000055050200000005505020000000264486000000000000000000000000000000000000000000000000000000000000000000000000000000000015000000
050212128000200002023339039000000000152600000000000000000000000000000000000000000000000000000000000000000000000000000000000000000000000000000534000000000020400000000000960000000000000000000000000000000000000000000000000000000000000000000000000000000000000015000000
050313392000300000001335041000000000052000000000000000000000000000000000000000000000000000000000000000000000000000000000000000000000000000000520000000000052000000000005200000000000000000000000000000000000000000000000000000000000000000000000000000000000000015010000
080110122000500002084339040000000000012039840000000000000000000000000000000000000000000000000000000000116780000000000000000000000000000000000003610000000000361000000000036100000000000000000000000000000000000000000000000000000000000000000000000000000000000015000000
090208244001100002018319007000000000001000000000000000000000000000000000000000000000000000000000000000000000000000000000000000000000000000000000000000000000000000000000000000000000000000000000000000000000000000000000000000000000000000000000000000000000000015000000
050313392000300002037319007000000000001000000000000000000000000000000000000000000000000000000000000000000000000000000000000000000000000000000000000000000000000000000000000000000000000000000000000000000000000000000000000000000000000000000000000000000000000015000000
080110301000600002105319016000000000130000000000000000000000000000000000000000000000000000000000000000000000000000000000000000000000000000000767653700000076765370000007676537000000000000000000000000000000000000000000000000000000000000000000000000000000000015000000
090208242001100002013449052000000000000500000000000000000000000000000000000000000000000000000000000000000000000000000000000000000000000000000000000000000000000000000000000000000000000000000000000000000000000000000000000000000000000000000000000000000000000015000000
100104122000100002050339039000000000024204000000000000000000000010000000000000000000000000000000000000000000000000000000000000000000000000000225101100000017612170000001753122000000000000000000000000000000000000000000000000000000000000000000000000000000000015000000
030104131000100002069339014000000000000500000000000000000000000000000000000000000000000000000000000000000000000000000000000000000000000000000000000000000000000000000000000000000000000000000000000000000000000000000000000000000000000000000000000000000000000015000000
080110305000700002087339032000000000000500000000000000000000000000000000000000000000000000000000000000004990000000000000000000000000000000000000000000000000000000000000000000000000000000000000000000000000000000000000000000000000000000000000000000000000000015000000
030104122000100002067339039000000000006500000000000000000000000000000000000000000000000000000000000000000000000000000000000000000000000000000000000000000000000000000000000000000000000000000000000000000000000000000000000000000000000000000000000000000000000015010000
050212306000200002029339030000000000124000000000000000000000000000000000000000000000000000000000000000000000000000000000000000000000000000000608467900000012924730000001120140000000000000000000000000000000000000000000000000000000000000000000000000000000000015500000
030104122000100002068339046000000000000000000000000000000000000064000000000000000000000000000000000000000000000000000000000000000000000000000064000000000006400000000000000000000000000000000000000000000000000000000000000000000000000000000000000000000000000015010000
030104122000100002067339039000000000043200000000000000000000000732200000000000000000000000000000000000003500000000000000000000000000000000001159849400000062327380000006232738000000000000000000000000000000000000000000000000000000000000000000000000000000000015000000
030104122000100002068339046000000000062000000000000000000000000260000000000000000000000000000000000000010000000000000000000000000000000000000315388000000031538800000003153880000000000000000000000000000000000000000000000000000000000000000000000000000000000015000000
050212361000200002031339039000000000042000000000000000000000000000000000000000000000000000000000000000000000000000000000000000000000000000000118259400000011825940000001182594000000000000000000000000000000000000000000000000000000000000000000000000000000000015500000
050427812000300002043339032000000000000500000000000000000000000000000000000000000000000000000000000000000000000000000000000000000000000000000000000000000000000000000000000000000000000000000000000000000000000000000000000000000000000000000000000000000000000015000000
090208241001100002011449052000000000000500000000000000000000000000000000000000000000000000000000000000005000000000000000000000000000000000000000000000000000000000000000000000000000000000000000000000000000000000000000000000000000000000000000000000000000000015000000
070104122000100002001319004000000000000000000000000000000000000000000000000083000000000000000000000000000000000000000000000000000000000000000122286300000012228630000001222863000000000000000000000000000000000000000000000000000000000000000000000000000000000015000000
050212782000200002035339039000000000059000000000000000000000000000000000000000000000000000000000000000400000000000000000000000000000000000000127400000000012740000000001274000000000000000000000000000000000000000000000000000000000000000000000000000000000000015530000
090208244001100002017339036000000000000500000000000000000000000000000000000000000000000000000000000000005000000000000000000000000000000000000000000000000000000000000000000000000000000000000000000000000000000000000000000000000000000000000000000000000000000015000000
060104122000100002072319004000000000000000000000000000000000000000000000000083000000000000000000000000000000000000000000000000000000000000000106334200000010633420000001063342000000000000000000000000000000000000000000000000000000000000000000000000000000000015000000
030104131000100002069339046000000000000000000000000000000000000010000000000000000000000000000000000000000000000000000000000000000000000000000010000000000001000000000000000000000000000000000000000000000000000000000000000000000000000000000000000000000000000015010000
030104131000100002069339046000000000017000000000000000000000000000000000000000000000000000000000000000000000000000000000000000000000000000000069991200000006999120000000699912000000000000000000000000000000000000000000000000000000000000000000000000000000000015000000
040104122000100002130449052000000000000500000000000000000000000000000000000000000000000000000000000000005000000000000000000000000000000000000000000000000000000000000000000000000000000000000000000000000000000000000000000000000000000000000000000000000000000015000000
080110122000500002084319113000000000075000000000000000000000000000000000000000000000000000000000000000000000000000000000000000000000000000000519422200000051942220000004596715000000000000000000000000000000000000000000000000000000000000000000000000000000000015000000
080110301000900002109339030000000000007900000000000000000000000000000000000000000000000000000000000000033724000000000000000000000000000000000022661000000002266100000000226610000000000000000000000000000000000000000000000000000000000000000000000000000000000015000000
080110303000600002097339030000000000000500000000000000000000000000000000000000000000000000000000000000004990000000000000000000000000000000000000000000000000000000000000000000000000000000000000000000000000000000000000000000000000000000000000000000000000000015000000
080110305000700002104339040000000000001098000000000000000000000000000000000000000000000000000000000000010000000000000000000000000000000000000000000000000000000000000000000000000000000000000000000000000000000000000000000000000000000000000000000000000000000015000000
090208244001100002018339036000000000003000000000000000000000000000000000000000000000000000000000000000026700000000000000000000000000000000000000000000000000000000000000000000000000000000000000000000000000000000000000000000000000000000000000000000000000000015000000
050313392000300002037339036000000000000500000000000000000000000000000000000000000000000000000000000000000000000000000000000000000000000000000000000000000000000000000000000000000000000000000000000000000000000000000000000000000000000000000000000000000000000015000000
070104122000100002001319011000000000941000000000000000000000000000000000000000000000000000000000000000440000000000000000000000000000000000004578251800000457825180000045782518000000000000000000000000000000000000000000000000000000000000000000000000000000000015000000
090208334001100002021339039000000000000500000000000000000000000000000000000000000000000000000000000000004000000000000000000000000000000000000000000000000000000000000000000000000000000000000000000000000000000000000000000000000000000000000000000000000000000015000000
040104122000100002130319007000000000000500000000000000000000000000000000000000000000000000000000000000005000000000000000000000000000000000000000000000000000000000000000000000000000000000000000000000000000000000000000000000000000000000000000000000000000000015000000
040104129000100002077319011000000000360000000000000000000000000000000000000000000000000000000000000000000000000000000000000000000000000000001617038900000161703890000016170389000000000000000000000000000000000000000000000000000000000000000000000000000000000015000000
050313392000300002038339036000000000000500000000000000000000000000000000000000000000000000000000000000005000000000000000000000000000000000000000000000000000000000000000000000000000000000000000000000000000000000000000000000000000000000000000000000000000000015000000
060104122000100002072319011000000000671000000000000000000000000000000000000000000000000000000000000000000000000000000000000000000000000000003199324100000319932410000031993241000000000000000000000000000000000000000000000000000000000000000000000000000000000015000000
080110301000600002090319016000000000001000000000000000000000000000000000000000000000000000000000000000000000000000000000000000000000000000000000000000000000000000000000000000000000000000000000000000000000000000000000000000000000000000000000000000000000000015000000
500109122000100002066339036000000000030000000000000000000000000000000000000000000000000000000000000000030000000000000000000000000000000000000000000000000000000000000000000000000000000000000000000000000000000000000000000000000000000000000000000000000000000018020000
090208242001100002013339036000000000000500000000000000000000000000000000000000000000000000000000000000000000000000000000000000000000000000000000000000000000000000000000000000000000000000000000000000000000000000000000000000000000000000000000000000000000000015000000
090408243001100002107319013000000000042000000000000000000000000000000000000000000000000000000000000000000000000000000000000000000000000000000237619400000023761940000002125187000000000000000000000000000000000000000000000000000000000000000000000000000000000015000000
100220608000400002055339032000000000066712620000000000000000000000000000000000000000000000000000000000588800000000000000000000000000000000000000000000000000000000000000000000000000000000000000000000000000000000000000000000000000000000000000000000000000000015000000
020104122000100002078319013000000000042000000000000000000000000005000000000000000000000000000000000000000000000000000000000000000000000000000422356200000042235620000003694961000000000000000000000000000000000000000000000000000000000000000000000000000000000015000000
080110301000600002093339030000000000000500000000000000000000000000000000000000000000000000000000000000005000000000000000000000000000000000000000000000000000000000000000000000000000000000000000000000000000000000000000000000000000000000000000000000000000000015000000
080110303000800002099339036000000000000500000000000000000000000000000000000000000000000000000000000000004990000000000000000000000000000000000000000000000000000000000000000000000000000000000000000000000000000000000000000000000000000000000000000000000000000015000000
090208244001100002017339039000000000015000000000000000000000000000000000000000000000000000000000000000000000000000000000000000000000000000000000000000000000000000000000000000000000000000000000000000000000000000000000000000000000000000000000000000000000000016600000
080110304000700002103339046000000000000000000000000000000000000010000000000000000000000000000000000000000000000000000000000000000000000000000009071200000000907120000000090712000000000000000000000000000000000000000000000000000000000000000000000000000000000025010000
050212361000200002031339014000000000001400000000000000000000000150000000000000000000000000000000000000000000000000000000000000000000000000000099957200000009995720000000999572000000000000000000000000000000000000000000000000000000000000000000000000000000000015000000
080110305000700002104319113000000000062000000000000000000000000000000000000000000000000000000000000000000000000000000000000000000000000000000294892800000029489280000002580312000000000000000000000000000000000000000000000000000000000000000000000000000000000015000000
090208241001100002011339036000000000000800000000000000000000000000000000000000000000000000000000000000006000000000000000000000000000000000000000000000000000000000000000000000000000000000000000000000000000000000000000000000000000000000000000000000000000000015000000
090208244001100002018339039000000000000500000000000000000000000012500000000000000000000000000000000000000000000000000000000000000000000000000016938000000000711900000000071190000000000000000000000000000000000000000000000000000000000000000000000000000000000016600000
090316482001600002020339032000000000000500000000000000000000000000000000000000000000000000000000000000000000000000000000000000000000000000000000000000000000000000000000000000000000000000000000000000000000000000000000000000000000000000000000000000000000000015000000
100417511001200001021449051000000000081179000000000000000000000000000000000000000000000000000000000000327953800000000000000000000000000000000081670000000008167000000000816700000000000000000000000000000000000000000000000000000000000000000000000000000000000015000000
050212365000200002033339030000000000079000000000000000000000000750000000000000000000000000000000000000000000000000000000000000000000000000000854333100000061105360000006110536000000000000000000000000000000000000000000000000000000000000000000000000000000000015690000
020304124000100002082339093000000000002500000000000000000000000000000000000000000000000000000000000000000000000000000000000000000000000000000021900800000002190080000000219008000000000000000000000000000000000000000000000000000000000000000000000000000000000015000000
080110122000500002084339014000000000006000000000000000000000000000000000000000000000000000000000000000000000000000000000000000000000000000000038508700000003850870000000378601000000000000000000000000000000000000000000000000000000000000000000000000000000000015000000
080110302000800002096339034000000000001000000000000000000000000000000000000000000000000000000000000000000000000000000000000000000000000000000000000000000000000000000000000000000000000000000000000000000000000000000000000000000000000000000000000000000000000015000000
080110304000700002103449040000000000000500000000000000000000000000000000000000000000000000000000000000004990000000000000000000000000000000000000000000000000000000000000000000000000000000000000000000000000000000000000000000000000000000000000000000000000000015000000
110999999000000009998999999000000000000000000000000000000000000000000000000000000000000000000000000000000000000000000000000000000000000000000000000000000000000000000000000000000000000000000000000000000000000000000000000000000000000000000000000000000000000015000000
090208243001100002014339030000000000000000000000000000000000000080000000000000000000000000000000000000000000000000000000000000000000000000000075526100000006573150000000657315000000000000000000000000000000000000000000000000000000000000000000000000000000000026600000
050104122000100002022339046000000000000000000000000000000000000155000000000000000000000000000000000000000000000000000000000000000000000000000154280200000015428020000001542802000000000000000000000000000000000000000000000000000000000000000000000000000000000025010000
060226782001700002073339039000000000000000000000000000000000002999406000000000000000000000000000000000000000000000000000000000000000000000000000000000000000000000000000000000000000000000000000000000000000000000000000000000000000000000000000000000000000000017010000
030104122000100002068319011000000000496000000000000000000000001977643000000000000000000000000000000001150000000000000000000000000000000000003546801900000354680190000035468019000000000000000000000000000000000000000000000000000000000000000000000000000000000015000000
040104122000100002130339036000000000000500000000000000000000000000000000000000000000000000000000000000005000000000000000000000000000000000000000000000000000000000000000000000000000000000000000000000000000000000000000000000000000000000000000000000000000000015000000
080110301000600002092339030000000000032000000000000000000000000000000000000000000000000000000000000000142000000000000000000000000000000000000000000000000000000000000000000000000000000000000000000000000000000000000000000000000000000000000000000000000000000016210000
080110301000900002109449052000000000000500000000000000000000000000000000000000000000000000000000000000000000000000000000000000000000000000000000000000000000000000000000000000000000000000000000000000000000000000000000000000000000000000000000000000000000000015000000
050212361000200002031339046000000000000000000000000000000000000230000000000000000000000000000000000000000000000000000000000000000000000000000229186400000022918640000000000000000000000000000000000000000000000000000000000000000000000000000000000000000000000015010000
050104122000100002022449040000000000001100000000000000000000000000000000000000000000000000000000000000011000000000000000000000000000000000000000000000000000000000000000000000000000000000000000000000000000000000000000000000000000000000000000000000000000000015000000
050212361000200002031339046000000000261000000000000000000000000000000000000000000000000000000000000000000000000000000000000000000000000000001121390600000112139060000011213906000000000000000000000000000000000000000000000000000000000000000000000000000000000015000000
050212365000200002033339030000000000213288950000000000000000000000000000000000000000000000000000000000150000000000000000000000000000000000001556703300000150604130000015060413000000000000000000000000000000000000000000000000000000000000000000000000000000000015000000
100506182001400001159339030000000000000000000000000000000000000220000000000040000000000000000000000000000000000000000000000000000000000000000438400000000043840000000004384000000000000000000000000000000000000000000000000000000000000000000000000000000000000017480000
080110122000500002084339046000000000000000000000000000000000000184000000000000000000000000000000000000000000000000000000000000000000000000000183514800000018351480000000938912000000000000000000000000000000000000000000000000000000000000000000000000000000000015010000
080110302000800002096339046000000000000000000000000000000000000114000000000000000000000000000000000000000000000000000000000000000000000000000112867600000011286760000001124070000000000000000000000000000000000000000000000000000000000000000000000000000000000025010000
030104131000100002069319011000000000128000000000000000000000000000000000000000000000000000000000000000000000000000000000000000000000000000000653262500000065326250000006532625000000000000000000000000000000000000000000000000000000000000000000000000000000000015000000
060326782001700002110339039000000000000500000000000000000000000105000000000000000000000000000000000000000000000000000000000000000000000000000110000000000007500000000000750000000000000000000000000000000000000000000000000000000000000000000000000000000000000015000000
080110122000500002084339046000000000085000000000000000000000000000000000000000000000000000000000000000000000000000000000000000000000000000000356360400000035636040000003563604000000000000000000000000000000000000000000000000000000000000000000000000000000000015000000
080110301000900002109319007000000000001000000000000000000000000000000000000000000000000000000000000000000000000000000000000000000000000000000000000000000000000000000000000000000000000000000000000000000000000000000000000000000000000000000000000000000000000015000000
080110303000800002101339039000000000009000000000000000000000000000000000000000000000000000000000000000000000000000000000000000000000000000000090000000000005886640000000588664000000000000000000000000000000000000000000000000000000000000000000000000000000000016000000
090104122000100002010339093000000000002500000000000000000000000027000000000000000000000000000000000000000000000000000000000000000000000000000050558200000005055820000000505582000000000000000000000000000000000000000000000000000000000000000000000000000000000015000000
040104123000100002075339046000000000000000000000000000000000000114000000000000000000000000000000000000000000000000000000000000000000000000000113322000000011332200000001130964000000000000000000000000000000000000000000000000000000000000000000000000000000000025010000
050523695000400002048339014000000000000500000000000000000000000000000000000000000000000000000000000000000000000000000000000000000000000000000000000000000000000000000000000000000000000000000000000000000000000000000000000000000000000000000000000000000000000015000000
070326782001800002008339030000000000000500000000000000000000000000000000000000000000000000000000000000000000000000000000000000000000000000000000000000000000000000000000000000000000000000000000000000000000000000000000000000000000000000000000000000000000000015000000
080110302000800002096449040000000000000500000000000000000000000000000000000000000000000000000000000000004990000000000000000000000000000000000000000000000000000000000000000000000000000000000000000000000000000000000000000000000000000000000000000000000000000015000000
080110303000800002101339093000000000023500000000000000000000000000000000000000000000000000000000000000000000000000000000000000000000000000000219600000000017310000000001731000000000000000000000000000000000000000000000000000000000000000000000000000000000000015000000
090208241001100002011339039000000000012000000000000000000000000000000000000000000000000000000000000000000000000000000000000000000000000000000000000000000000000000000000000000000000000000000000000000000000000000000000000000000000000000000000000000000000000016600000
040104123000100002075449040000000000000500000000000000000000000000000000000000000000000000000000000000000000000000000000000000000000000000000000000000000000000000000000000000000000000000000000000000000000000000000000000000000000000000000000000000000000000015000000
070104122000100002001339008000000000033900000000000000000000000000000000000000000000000000000000000000000000000000000000000000000000000000000147360200000014736020000001473602000000000000000000000000000000000000000000000000000000000000000000000000000000000015000000
070326782001800002009339030000000000010000000000000000000000000000000000000000000000000000000000000000000000000000000000000000000000000000000025801000000002580100000000258010000000000000000000000000000000000000000000000000000000000000000000000000000000000015000000
080110303000800002102339093000000000014500000000000000000000000000000000000000000000000000000000000000003600000000000000000000000000000000000109310000000010931000000001093100000000000000000000000000000000000000000000000000000000000000000000000000000000000015000000
080110305000700002087339046000000000005000000000000000000000000000000000000000000000000000000000000000000000000000000000000000000000000000000000000000000000000000000000000000000000000000000000000000000000000000000000000000000000000000000000000000000000000015000000
080110305000700002104339014000000000000500000000000000000000000000000000000000000000000000000000000000004990000000000000000000000000000000000000000000000000000000000000000000000000000000000000000000000000000000000000000000000000000000000000000000000000000015000000
090208244001100002012339039000000000010200000000000000000000000117890000000000000000000000000000000000000000000000000000000000000000000000000219390000000011347510000001134751000000000000000000000000000000000000000000000000000000000000000000000000000000000015000000
100618541001300002061339032000000000002000000000000000000000000000000000000000000000000000000000000000000000000000000000000000000000000000000000000000000000000000000000000000000000000000000000000000000000000000000000000000000000000000000000000000000000000017590000
090316482001600001504449051000000000000000000000000000000000000000000000000000000000000000000000000000000000000000000000000000000000000000000000000000000000000000000000000000000000000000000000000000000000000000000000000000000000000000000000000000000000000017540000
020304124000100002082319016000000000001000000000000000000000000000000000000000000000000000000000000000000000000000000000000000000000000000000000000000000000000000000000000000000000000000000000000000000000000000000000000000000000000000000000000000000000000015000000
040104129000100002077339008000000000001000000000000000000000000000000000000000000000000000000000000000000000000000000000000000000000000000000000000000000000000000000000000000000000000000000000000000000000000000000000000000000000000000000000000000000000000015000000
050212365000200002033319113000000000133300000000000000000000004330000000000000000000000000000000000000000000000000000000000000000000000000005658696800000565869680000049085433000000000000000000000000000000000000000000000000000000000000000000000000000000000015400000
060104122000100002072339008000000000001000000000000000000000000000000000000000000000000000000000000000000000000000000000000000000000000000000001950000000000195000000000019500000000000000000000000000000000000000000000000000000000000000000000000000000000000015000000
070226782001700001029449051000000000142000000000000000000000000530400000000000000000000000000000000000000000000000000000000000000000000000001550000000000000000000000000000000000000000000000000000000000000000000000000000000000000000000000000000000000000000015000000
050212365000200002033449052000000000150000000000000000000000000000000000000000000000000000000000000001500000000000000000000000000000000000000000000000000000000000000000000000000000000000000000000000000000000000000000000000000000000000000000000000000000000015690000
080110301000600002091449052000000000008000000000000000000000000000000000000000000000000000000000000000000000000000000000000000000000000000000000000000000000000000000000000000000000000000000000000000000000000000000000000000000000000000000000000000000000000016210000
080110305000700002104339046000000000000000000000000000000000000020000000000000000000000000000000000000000000000000000000000000000000000000000020000000000002000000000000120000000000000000000000000000000000000000000000000000000000000000000000000000000000000015010000
050212361000200002031319004000000000130000000000000000000000000000000000000000000000000000000000000001005000000000000000000000000000000000000000000000000000000000000000000000000000000000000000000000000000000000000000000000000000000000000000000000000000000015000000
080110301000600002092449052000000000000500000000000000000000000000000000000000000000000000000000000000000000000000000000000000000000000000000000000000000000000000000000000000000000000000000000000000000000000000000000000000000000000000000000000000000000000016210000
080110301000900002109339036000000000000500000000000000000000000000000000000000000000000000000000000000005000000000000000000000000000000000000000000000000000000000000000000000000000000000000000000000000000000000000000000000000000000000000000000000000000000015000000
080110303000600002097339036000000000000500000000000000000000000000000000000000000000000000000000000000005000000000000000000000000000000000000000000000000000000000000000000000000000000000000000000000000000000000000000000000000000000000000000000000000000000015000000
080110305000700002104339046000000000027000000000000000000000000000000000000000000000000000000000000000000000000000000000000000000000000000000110962800000011096280000001109628000000000000000000000000000000000000000000000000000000000000000000000000000000000015000000
050212365000200002033449052000000000004300000000000000000000000100000000000000000000000000000000000000000000000000000000000000000000000000000122700000000007751000000000775100000000000000000000000000000000000000000000000000000000000000000000000000000000000015000000
090104122000100002010319016000000000006000000000000000000000000000000000000000000000000000000000000000000000000000000000000000000000000000000053809300000005380930000000538093000000000000000000000000000000000000000000000000000000000000000000000000000000000015000000
100220608000400002052339039000000000143100000000000000000000000827953800000000000000000000000000000000000000000000000000000000000000000000001648758600000082513450000008251345000000000000000000000000000000000000000000000000000000000000000000000000000000000015000000
050212782000200000025335041000000000100000000000000000000000000000000000000000000000000000000000000000000000000000000000000000000000000000000650000000000039000000000003900000000000000000000000000000000000000000000000000000000000000000000000000000000000000015010000
090408243001100002107339030000000000009800000000000000000000000103000000000000000000000000000000000000015000000000000000000000000000000000000185160600000012380150000001238015000000000000000000000000000000000000000000000000000000000000000000000000000000000015000000
020104122000100002078339030000000000000850000000000000000000000000000000000000000000000000000000000000000400000000000000000000000000000000000007050200000000705020000000070502000000000000000000000000000000000000000000000000000000000000000000000000000000000015000000
020105122000200002079339040000000000000500000000000000000000000000000000000000000000000000000000000000002200000000000000000000000000000000000000000000000000000000000000000000000000000000000000000000000000000000000000000000000000000000000000000000000000000015000000
030104122000100002068339008000000000001000000000000000000000000005000000000000000000000000000000000000000000000000000000000000000000000000000005200000000000520000000000052000000000000000000000000000000000000000000000000000000000000000000000000000000000000015000000
050212361000200002031319011000000000352000000000000000000000000000000000000000000000000000000000000000000000000000000000000000000000000000002294164700000229416470000022941647000000000000000000000000000000000000000000000000000000000000000000000000000000000015000000
050212365000200002033319007000000000001000000000000000000000000000000000000000000000000000000000000000000000000000000000000000000000000000000000000000000000000000000000000000000000000000000000000000000000000000000000000000000000000000000000000000000000000015000000
080110305000700002087319004000000000010500000000000000000000000000000000000000000000000000000000000000000000000000000000000000000000000000000000000000000000000000000000000000000000000000000000000000000000000000000000000000000000000000000000000000000000000015000000
080110301000500001155339039000000000000000000000000000000000000450000000000020445980000000000000000000000000000000000000000000000000000000000005575900000000000000000000000000000000000000000000000000000000000000000000000000000000000000000000000000000000000015000000
070215452001000002003339030000000000004000000000000000000000000000000000000000000000000000000000000000000000000000000000000000000000000000000000000000000000000000000000000000000000000000000000000000000000000000000000000000000000000000000000000000000000000015000000
070326782001800002009449052000000000000500000000000000000000000280000000000000000000000000000000000000000000000000000000000000000000000000000279990000000000000000000000000000000000000000000000000000000000000000000000000000000000000000000000000000000000000015000000
080110122000500002084319011000000000452000000000000000000000000000000000000000000000000000000000000000000000000000000000000000000000000000002720367000000272036700000027203670000000000000000000000000000000000000000000000000000000000000000000000000000000000015000000
080110301000600002092339034000000000000500000000000000000000000000000000000000000000000000000000000000000000000000000000000000000000000000000000000000000000000000000000000000000000000000000000000000000000000000000000000000000000000000000000000000000000000015000000
030104131000100002069339008000000000001000000000000000000000000000000000000000000000000000000000000000000000000000000000000000000000000000000000000000000000000000000000000000000000000000000000000000000000000000000000000000000000000000000000000000000000000015000000
070215452001000002004339030000000000014500000000000000000000000000000000000000000000000000000000000000000000000000000000000000000000000000000113124700000006192470000000619247000000000000000000000000000000000000000000000000000000000000000000000000000000000015000000
080110301000600002091339046000000000000000000000000000000000000128000000000000000000000000000000000000000000000000000000000000000000000000000127180000000012718000000001271800000000000000000000000000000000000000000000000000000000000000000000000000000000000025010000
050212782000200002035339039000000000079994300000000000000000000000000000000000000000000000000000000000750000000000000000000000000000000000000000000000000000000000000000000000000000000000000000000000000000000000000000000000000000000000000000000000000000000015400000
050313392000300000015335041000000000015900000000000000000000000010000000000000000000000000000000000000000000000000000000000000000000000000000168000000000009800000000000980000000000000000000000000000000000000000000000000000000000000000000000000000000000000015000000
080110305000700002104319004000000000000500000000000000000000000000000000000000000000000000000000000000000000000000000000000000000000000000000000000000000000000000000000000000000000000000000000000000000000000000000000000000000000000000000000000000000000000015000000
110128845000000000030339093000000000000000000000000000000000000000856600000000000000000000000000000000000000000000000000000000000000000000000000000000000000000000000000000000000000000000000000000000000000000000000000000000000000000000000000000000000000000016320000
080110301000600002092339046000000000000000000000000000000000000120000000000000000000000000000000000000000000000000000000000000000000000000000113815200000011381520000001138152000000000000000000000000000000000000000000000000000000000000000000000000000000000025010000
080110301000600002089339039000000000000500000000000000000000000000000000000000000000000000000000000000004990000000000000000000000000000000000000000000000000000000000000000000000000000000000000000000000000000000000000000000000000000000000000000000000000000015000000
080110301000600002091449040000000000000500000000000000000000000000000000000000000000000000000000000000004001300000000000000000000000000000000000000000000000000000000000000000000000000000000000000000000000000000000000000000000000000000000000000000000000000015000000
090208244001100002016339093000000000004335000000000000000000000000000000000000000000000000000000000000027000000000000000000000000000000000000005366200000000536620000000053662000000000000000000000000000000000000000000000000000000000000000000000000000000000016600000
130223691000400001502449061000000000000000000000000000000000000000000000000000000000000000000000000000000000000000000000000000000000000000000000000000000000000000000000000000000000000000000000000000000000000000000000000000000000000000000000000000000000000017540000
050212365000200002033339036000000000000500000000000000000000000000000000000000000000000000000000000000000000000000000000000000000000000000000000000000000000000000000000000000000000000000000000000000000000000000000000000000000000000000000000000000000000000015000000
080110301000600002092449040000000000000500000000000000000000000000000000000000000000000000000000000000004990000000000000000000000000000000000000000000000000000000000000000000000000000000000000000000000000000000000000000000000000000000000000000000000000000015000000
080110122000500002084339035000000000001000000000000000000000000000000000000000000000000000000000000000000000000000000000000000000000000000000000000000000000000000000000000000000000000000000000000000000000000000000000000000000000000000000000000000000000000016210000
080110301000600002105339039000000000113000000000000000000000000170000000000000000000000000000000000000000000000000000000000000000000000000001128912000000082824930000008146719000000000000000000000000000000000000000000000000000000000000000000000000000000000015000000
080110305000700002104319011000000000180000000000000000000000000000000000000000000000000000000000000000000000000000000000000000000000000000001033443100000103344310000010334431000000000000000000000000000000000000000000000000000000000000000000000000000000000015000000
090408243001100002107449052000000000000900000000000000000000000010000000000000000000000000000000000000000000000000000000000000000000000000000018490000000001849000000000184900000000000000000000000000000000000000000000000000000000000000000000000000000000000015000000
500209122002000000022339086000000001000000000000000000000000000000000000000000000000000000000000000000000000000000000000000000000000000000004480889700000334524680000033452468000000000000000000000000000000000000000000000000000000000000000000000000000000000018000000
110128846000000000007339047000000000161000000000000000000000000000000000000000000000000000000000000000000000000000000000000000000000000000000010000000000000522640000000052264000000000000000000000000000000000000000000000000000000000000000000000000000000000015010000
020104122000100002078449052000000000000500000000000000000000000511840000000000000000000000000000000000454790000000000000000000000000000000000062050000000006205000000000620500000000000000000000000000000000000000000000000000000000000000000000000000000000000015000000
110128846000000000007339047000000000582000000000000000000000000000000000000000000000000000000000000000000000000000000000000000000000000000005014257900000368124860000033929607000000000000000000000000000000000000000000000000000000000000000000000000000000000015000000
070326782001800002009339036000000000000500000000000000000000000000000000000000000000000000000000000000000000000000000000000000000000000000000000000000000000000000000000000000000000000000000000000000000000000000000000000000000000000000000000000000000000000015000000
090408243001100002107319007000000000001000000000000000000000000000000000000000000000000000000000000000000000000000000000000000000000000000000000000000000000000000000000000000000000000000000000000000000000000000000000000000000000000000000000000000000000000015000000
020104122000100002078319007000000000000500000000000000000000000000000000000000000000000000000000000000000000000000000000000000000000000000000000000000000000000000000000000000000000000000000000000000000000000000000000000000000000000000000000000000000000000015000000
050212782000200002035339039000000000224044000000000000000000000000000000000000000000000000000000000000250000000000000000000000000000000000001870770600000097677940000009767794000000000000000000000000000000000000000000000000000000000000000000000000000000000015500000
070215452001000002004449052000000000000900000000000000000000000000000000000000000000000000000000000000000000000000000000000000000000000000000000000000000000000000000000000000000000000000000000000000000000000000000000000000000000000000000000000000000000000015000000
040104129000100002077339039000000000001000000000000000000000000000000000000000000000000000000000000000000000000000000000000000000000000000000000000000000000000000000000000000000000000000000000000000000000000000000000000000000000000000000000000000000000000017010000
050104122000100002022319013000000000018000000000000000000000000000000000000000000000000000000000000000000000000000000000000000000000000000000055437900000005543790000000499554000000000000000000000000000000000000000000000000000000000000000000000000000000000015000000
050212782000200002035319113000000000066000000000000000000000000000000000000000000000000000000000000000000000000000000000000000000000000000000000000000000000000000000000000000000000000000000000000000000000000000000000000000000000000000000000000000000000000015000000
050313392000300002039339039000000000000500000000000000000000000085000000000000000000000000000000000000000000000000000000000000000000000000000077600000000000000000000000000000000000000000000000000000000000000000000000000000000000000000000000000000000000000015000000
080110303000800002098339339000000000000940000000000000000000000000000000000000000000000000000000000000000000000000000000000000000000000000000000000000000000000000000000000000000000000000000000000000000000000000000000000000000000000000000000000000000000000015000000
100417511001200002059339039000000000066725000000000000000000000000000000000000000000000000000000000000200000000000000000000000000000000000000306200000000022517510000002251751000000000000000000000000000000000000000000000000000000000000000000000000000000000015000000
020104243000100002108339014000000000000500000000000000000000000000000000000000000000000000000000000000004500000000000000000000000000000000000000000000000000000000000000000000000000000000000000000000000000000000000000000000000000000000000000000000000000000015000000
020105122000200002079339014000000000000500000000000000000000000000000000000000000000000000000000000000004500000000000000000000000000000000000000000000000000000000000000000000000000000000000000000000000000000000000000000000000000000000000000000000000000000015000000
130104121000100002132339040000000000000500000000000000000000000141500000000000000000000000000000000000000000000000000000000000000000000000000146361400000014636140000001463614000000000000000000000000000000000000000000000000000000000000000000000000000000000015000000
050104122000100002022339035000000000002200000000000000000000000250000000000000000000000000000000000000010000000000000000000000000000000000000259113300000015156650000001515665000000000000000000000000000000000000000000000000000000000000000000000000000000000015000000
050212365000200002033319013000000000160000000000000000000000000000000000000000000000000000000000000000580000000000000000000000000000000000000317695600000031769560000002668788000000000000000000000000000000000000000000000000000000000000000000000000000000000015400000
080110301000600002090339039000000000002000000000000000000000000000000000000000000000000000000000000000000000000000000000000000000000000000000013500000000001350000000000135000000000000000000000000000000000000000000000000000000000000000000000000000000000000015000000
080110302000800002096319013000000000010000000000000000000000000000000000000000000000000000000000000000000000000000000000000000000000000000000006521300000000652130000000043231000000000000000000000000000000000000000000000000000000000000000000000000000000000015000000
080110302000800002096339339000000000146000000000000000000000000000000000000000000000000000000000000000000000000000000000000000000000000000001460000000000139500000000013950000000000000000000000000000000000000000000000000000000000000000000000000000000000000015000000
040104123000100002075319013000000000008000000000000000000000000000000000000000000000000000000000000000000000000000000000000000000000000000000053763800000005376380000000470152000000000000000000000000000000000000000000000000000000000000000000000000000000000015000000
080110301000600002085339030000000000005000000000000000000000000005260000000000000000000000000000000000050000000000000000000000000000000000000000000000000000000000000000000000000000000000000000000000000000000000000000000000000000000000000000000000000000000015000000
090408243001100002107339036000000000000500000000000000000000000000000000000000000000000000000000000000000000000000000000000000000000000000000000000000000000000000000000000000000000000000000000000000000000000000000000000000000000000000000000000000000000000015000000
110128845000000000030339093000000000000000000000000000000000002378917600000000000000000000000000000000000000000000000000000000000000000000002378917600000237891760000023789176000000000000000000000000000000000000000000000000000000000000000000000000000000000027010000
070104122000100002001339046000000000000000000000000000000000000180000000000000000000000000000000000000000000000000000000000000000000000000000178597200000017859720000001774592000000000000000000000000000000000000000000000000000000000000000000000000000000000025010000
020104122000100002078339036000000000000500000000000000000000000000000000000000000000000000000000000000005000000000000000000000000000000000000000000000000000000000000000000000000000000000000000000000000000000000000000000000000000000000000000000000000000000015000000
020304122000100002081339040000000000003850000000000000000000000000000000000000000000000000000000000000030000000000000000000000000000000000000000000000000000000000000000000000000000000000000000000000000000000000000000000000000000000000000000000000000000000015000000
040104129000100002077339046000000000000000000000000000000000000053000000000000000000000000000000000000000000000000000000000000000000000000000050360000000005036000000000503600000000000000000000000000000000000000000000000000000000000000000000000000000000000025010000
060104122000100002072339046000000000000000000000000000000000000110000000000000000000000000000000000000000000000000000000000000000000000000000109716000000010971600000001072304000000000000000000000000000000000000000000000000000000000000000000000000000000000025010000
040104123000100002075339035000000000000500000000000000000000000000000000000000000000000000000000000000000000000000000000000000000000000000000000000000000000000000000000000000000000000000000000000000000000000000000000000000000000000000000000000000000000000015000000
070104122000100002001449040000000000000500000000000000000000000000000000000000000000000000000000000000002100000000000000000000000000000000000000000000000000000000000000000000000000000000000000000000000000000000000000000000000000000000000000000000000000000015000000
080110122000500002086339030000000000000500000000000000000000000000000000000000000000000000000000000000004000000000000000000000000000000000000000000000000000000000000000000000000000000000000000000000000000000000000000000000000000000000000000000000000000000015000000
100104122000100002050339040000000000009650000000000000000000000000000000000000000000000000000000000000000000000000000000000000000000000000000000000000000000000000000000000000000000000000000000000000000000000000000000000000000000000000000000000000000000000015000000
130122661000400000038335043000000000016944000000000000000000000012720000000000000000000000000000000000000000000000000000000000000000000000000182160000000012144000000001214400000000000000000000000000000000000000000000000000000000000000000000000000000000000015000000
500209272002000000002319113000000000040000000000000000000000000000000000000000000000000000000000000000000000000000000000000000000000000000000000000000000000000000000000000000000000000000000000000000000000000000000000000000000000000000000000000000000000000018000000
040104129000100002077449040000000000000500000000000000000000000000000000000000000000000000000000000000000000000000000000000000000000000000000000000000000000000000000000000000000000000000000000000000000000000000000000000000000000000000000000000000000000000015000000
060104122000100002072449040000000000000500000000000000000000000000000000000000000000000000000000000000000000000000000000000000000000000000000000000000000000000000000000000000000000000000000000000000000000000000000000000000000000000000000000000000000000000015000000
060326782001700002073339030000000001094320000000000000000000000000000000000000000000000000000000000000000000000000000000000000000000000000009277022700000855823700000085582370000000000000000000000000000000000000000000000000000000000000000000000000000000000015000000
080110301000600002089319011000000000050000000000000000000000000000000000000000000000000000000000000000000000000000000000000000000000000000000233220000000023322000000002332200000000000000000000000000000000000000000000000000000000000000000000000000000000000016210000
130104121000100002132319113000000000055000000000000000000000000000000000000000000000000000000000000000000000000000000000000000000000000000000432828300000043282830000003776535000000000000000000000000000000000000000000000000000000000000000000000000000000000015000000
050427812000300002044339030000000000000500000000000000000000000000000000000000000000000000000000000000000000000000000000000000000000000000000000000000000000000000000000000000000000000000000000000000000000000000000000000000000000000000000000000000000000000015000000
080110301000900002109319008000000000001000000000000000000000000000000000000000000000000000000000000000000000000000000000000000000000000000000000000000000000000000000000000000000000000000000000000000000000000000000000000000000000000000000000000000000000000015000000
050427812000300002045339030000000000018018000000000000000000000000000000000000000000000000000000000000150000000000000000000000000000000000000000000000000000000000000000000000000000000000000000000000000000000000000000000000000000000000000000000000000000000015000000
050212782000200002035339046000000000000000000000000000000000000075000000000000000000000000000000000000000000000000000000000000000000000000000074259200000007425920000000000000000000000000000000000000000000000000000000000000000000000000000000000000000000000015010000
050212782000200002035339046000000000085000000000000000000000000000000000000000000000000000000000000000000000000000000000000000000000000000000332460000000033246000000003324600000000000000000000000000000000000000000000000000000000000000000000000000000000000015000000
130223691000400000023335041000000000037000000000000000000000000000000000000000000000000000000000000000000000000000000000000000000000000000000370000000000037000000000003700000000000000000000000000000000000000000000000000000000000000000000000000000000000000015000000
030104122000100002068339046000000000000000000000000000000000000146000000000000000000000000000000000000000000000000000000000000000000000000000142987600000014298760000001425444000000000000000000000000000000000000000000000000000000000000000000000000000000000025010000
090208243001100002014339030000000000002200000000000000000000000012000000000000000000000000000000000000000000000000000000000000000000000000000029058900000002862990000000286299000000000000000000000000000000000000000000000000000000000000000000000000000000000015000000
090208334001100002021339032000000000000500000000000000000000000000000000000000000000000000000000000000000000000000000000000000000000000000000000000000000000000000000000000000000000000000000000000000000000000000000000000000000000000000000000000000000000000015000000
100104122000100002050319113000000000220000000000000000000000000000000000000000000000000000000000000000000000000000000000000000000000000000001142856900000114285690000010120341000000000000000000000000000000000000000000000000000000000000000000000000000000000015000000
030104122000100002068449040000000000001000000000000000000000000005000000000000000000000000000000000000000000000000000000000000000000000000000014200000000000000000000000000000000000000000000000000000000000000000000000000000000000000000000000000000000000000015000000
050313392000300002039339031000000000000500000000000000000000000000000000000000000000000000000000000000000000000000000000000000000000000000000000000000000000000000000000000000000000000000000000000000000000000000000000000000000000000000000000000000000000000015000000
080110304000700002103339030000000000000994000000000000000000000000000000000000000000000000000000000000000000000000000000000000000000000000000000000000000000000000000000000000000000000000000000000000000000000000000000000000000000000000000000000000000000000015000000
030104131000100002069339046000000000000000000000000000000000000035000000000000000000000000000000000000000000000000000000000000000000000000000034811600000003481160000000315816000000000000000000000000000000000000000000000000000000000000000000000000000000000025010000
020304124000100002082339039000000000000500000000000000000000000053800000000000000000000000000000000000000000000000000000000000000000000000000058600000000005860000000000586000000000000000000000000000000000000000000000000000000000000000000000000000000000000015000000
030104122000100002067319113000000000032000000000000000000000000000000000000000000000000000000000000000000000000000000000000000000000000000000153446600000015344660000001341994000000000000000000000000000000000000000000000000000000000000000000000000000000000015000000
100220608000400002056339030000000000253540000000000000000000000000000000000000000000000000000000000000038000000000000000000000000000000000002231646100000189095870000018819087000000000000000000000000000000000000000000000000000000000000000000000000000000000015000000
130104121000100002132339014000000000001450000000000000000000000214000000000000000000000000000000000000000915200000000000000000000000000000000209153200000020915320000002091532000000000000000000000000000000000000000000000000000000000000000000000000000000000015000000
020105122000200002079319011000000000020000000000000000000000000000000000000000000000000000000000000000000000000000000000000000000000000000000090141800000009014180000000901418000000000000000000000000000000000000000000000000000000000000000000000000000000000015000000
030104122000100002068319113000000000075000000000000000000000001563000000000000000000000000000000000000000000000000000000000000000000000000002233472100000223347210000019473113000000000000000000000000000000000000000000000000000000000000000000000000000000000015000000
030104131000100002069449040000000000000500000000000000000000000000000000000000000000000000000000000000002750000000000000000000000000000000000000000000000000000000000000000000000000000000000000000000000000000000000000000000000000000000000000000000000000000015000000
050104122000100002022339030000000000000500000000000000000000000185000000000000000000000000000000000000000000000000000000000000000000000000000117564600000006004630000000600463000000000000000000000000000000000000000000000000000000000000000000000000000000000015000000
080110301000600002091319013000000000126000000000000000000000000000000000000000000000000000000000000000000000000000000000000000000000000000000958049800000095804980000008427230000000000000000000000000000000000000000000000000000000000000000000000000000000000015000000
130223691000400002058339030000000000000500000000000000000000000000000000000000000000000000000000000000005000000000000000000000000000000000000000000000000000000000000000000000000000000000000000000000000000000000000000000000000000000000000000000000000000000015000000
080110301000600002090319011000000000166000000000000000000000000000000000000000000000000000000000000000000000000000000000000000000000000000001157584400000115758440000011575844000000000000000000000000000000000000000000000000000000000000000000000000000000000016210000
080110301000600002092319013000000000021000000000000000000000000000000000000000000000000000000000000000000000000000000000000000000000000000000010447300000001044730000000057532000000000000000000000000000000000000000000000000000000000000000000000000000000000015000000
080110301000500001155339039000000000000000000000000000000000000157246700000037461220000000000000000000000000000000000000000000000000000000000445500000000012769360000001276936000000000000000000000000000000000000000000000000000000000000000000000000000000000026210000
130104121000100002132339046000000000000000000000000000000000000070000000000000000000000000000000000000000000000000000000000000000000000000000070000000000007000000000000300000000000000000000000000000000000000000000000000000000000000000000000000000000000000015010000
