87612826000190010120253108202510092025PREFEITURA MUNICIPAL INDEPENDENCIA                                              
100000000000000000000201000527758336000036460678800000RECEITAS CORRENTES                                                                                                                                                        S0100000053698879390000000000000000
110000000000000000000201000047840000000003430703960000IMPOSTOS TAXAS E CONTRIBUICOES DE MELHORIA                                                                                                                                S0200000004784000000000000000000000
111000000000000000000201000043880000000003113889980000IMPOSTOS                                                                                                                                                                  S0300000004388000000000000000000000
111200000000000000000201000019940000000001335624470000IMPOSTOS SOBRE O PATRIMONIO                                                                                                                                               S0400000001994000000000000000000000
111250000000000000000201000007440000000000639912680000IMPOSTO SOBRE A PROPRIEDADE PREDIAL E TERRITORIAL URBANA                                                                                                                  S0500000000744000000000000000000000
111250010000000000000201000006790000000000696405730000IMPOSTO SOBRE A PROPRIEDADE PREDIAL E TERRITORIAL URBANA  - PRINCIPAL                                                                                                     A0600000000679000000000150000000000
1112500100000000000002010000000000000-0000000886520000IMPOSTO SOBRE A PROPRIEDADE PREDIAL E TERRITORIAL URBANA  - PRINCIPAL                                                                                                     A0610200000000000000000150000000000
111250010000000000000201-000010600000-0000139874970000IMPOSTO SOBRE A PROPRIEDADE PREDIAL E TERRITORIAL URBANA  - PRINCIPAL                                                                                                     A06103-0000106000000000150000000000
111250020000000000000201000000030000000000001852500000IMPOSTO SOBRE A PROPRIEDADE PREDIAL E TERRITORIAL URBANA - MULTAS E JUROS DE MORA                                                                                         A0600000000003000000000150000000000
111250030000000000000201000001250000000000069902910000IMPOSTO SOBRE A PROPRIEDADE PREDIAL E TERRITORIAL URBANA - DIVIDA ATIVA                                                                                                   A0600000000125000000000150000000000
1112500300000000000002010000000000000-0000000241890000IMPOSTO SOBRE A PROPRIEDADE PREDIAL E TERRITORIAL URBANA - DIVIDA ATIVA                                                                                                   A0610300000000000000000150000000000
111250040000000000000201000000430000000000024645610000IMPOSTO SOBRE A PROPRIEDADE PREDIAL E TERRITORIAL URBANA - MULTAS E JUROS DE MORA DIVIDA ATIVA                                                                            A0600000000043000000000150000000000
1112500400000000000002010000000000000-0000011890690000IMPOSTO SOBRE A PROPRIEDADE PREDIAL E TERRITORIAL URBANA - MULTAS E JUROS DE MORA DIVIDA ATIVA                                                                            A0610300000000000000000150000000000
111253000000000000000201000012500000000000695711790000IMPOSTOS SOBRE TRANSMISSAO INTER VIVOS DE BENS IMOVEIS E DE DIREITOS REAIS SOBRE IMOVEIS                                                                                  S0500000001250000000000000000000000
111253010000000000000201000012500000000000695711790000IMPOSTOS SOBRE TRANSMISSAO INTER VIVOS DE BENS IMOVEIS E DE DIREITOS REAIS SOBRE IMOVEIS - PRINCIPAL                                                                      A0600000001250000000000150000000000
111300000000000000000201000014670000000001054689900000IMPOSTOS SOBRE A RENDA E PROVENTOS DE QUALQUER NATUREZA                                                                                                                   S0400000001467000000000000000000000
111303000000000000000201000014670000000001054689900000IMPOSTO SOBRE A RENDA - RETIDO NA FONTE                                                                                                                                   S0500000001467000000000000000000000
111303100000000000000201000013740000000000989014350000IMPOSTO SOBRE A RENDA - RETIDO NA FONTE - TRABALHO                                                                                                                        S0600000001374000000000000000000000
111303110000000000000201000013740000000000989014350000IMPOSTO SOBRE A RENDA - RETIDO NA FONTE - TRABALHO - PRINCIPAL                                                                                                            S0600000001374000000000000000000000
111303110100000000000201000009550000000000763756970000IRRF SOBRE RENDIMENTOS DO TRABALHO - PREFEITURA                                                                                                                           A0700000000955000000000150000000000
111303110200000000000201000000610000000000033691960000IRRF SOBRE RENDIMENTOS DO TRABALHO - CAMARA                                                                                                                               A0700000000061000000000150000000000
111303110300000000000201000003540000000000189879510000IRRF SOBRE RENDIMENTOS DO TRABALHO - RPPS                                                                                                                                 A0700000000354000000000150000000000
111303110400000000000201000000040000000000001685910000IRRF COFRON                                                                                                                                                               A0700000000004000000000150000000000
111303400000000000000201000000930000000000065675550000IMPOSTO SOBRE A RENDA - RETIDO NA FONTE - OUTROS RENDIMENTOS                                                                                                              S0600000000093000000000000000000000
111303410000000000000201000000930000000000065675550000IMPOSTO SOBRE A RENDA - RETIDO NA FONTE - OUTROS RENDIMENTOS - PRINCIPAL                                                                                                  S0600000000093000000000000000000000
111303410100000000000201000000910000000000061905990000IRRF SOBRE OUTROS RENDIMENTOS - PREFEITURA                                                                                                                                A0700000000091000000000150000000000
111303410200000000000201000000010000000000000434980000IRRF SOBRE OUTROS RENDIMENTOS - CAMARA                                                                                                                                    A0700000000001000000000150000000000
111303410300000000000201000000010000000000000846050000IRRF SOBRE OUTROS RENDIMENTOS - RPPS                                                                                                                                      A0700000000001000000000150000000000
111303410400000000000201000000000000000000002488530000IRRF SOBRE CARTAO-COMBUSTIVEL                                                                                                                                             A0700000000000000000000150000000000
111400000000000000000201000009270000000000723575610000IMPOSTOS SOBRE A PRODUCAO E CIRCULACAO DE MERCADORIAS E SERVICOS                                                                                                          S0400000000927000000000000000000000
111451000000000000000201000009270000000000723575610000IMPOSTOS SOBRE SERVICOS                                                                                                                                                   S0500000000927000000000000000000000
111451100000000000000201000009270000000000723575610000IMPOSTO SOBRE SERVICOS DE QUALQUER NATUREZA - ISSQN                                                                                                                       S0600000000927000000000000000000000
111451110000000000000201000009180000000000720422640000IMPOSTO SOBRE SERVICOS DE QUALQUER NATUREZA - ISSQN - PRINCIPAL                                                                                                           A0600000000918000000000150000000000
1114511100000000000002010000000000000-0000002933340000IMPOSTO SOBRE SERVICOS DE QUALQUER NATUREZA - ISSQN - PRINCIPAL                                                                                                           A0610300000000000000000150000000000
111451120000000000000201000000050000000000005198750000IMPOSTO SOBRE SERVICOS DE QUALQUER NATUREZA - ISSQN - MULTAS E JUROS DE MORA                                                                                              A0600000000005000000000150000000000
111451130000000000000201000000030000000000000696890000IMPOSTO SOBRE SERVICOS DE QUALQUER NATUREZA - ISSQN  - DIVIDA ATIVA                                                                                                       A0600000000003000000000150000000000
1114511300000000000002010000000000000-0000000037670000IMPOSTO SOBRE SERVICOS DE QUALQUER NATUREZA - ISSQN  - DIVIDA ATIVA                                                                                                       A0610300000000000000000150000000000
111451140000000000000201000000010000000000000228340000IMPOSTO SOBRE SERVICOS DE QUALQUER NATUREZA - ISSQN - MULTAS E JUROS DE MORA DIVIDA ATIVA                                                                                 A0600000000001000000000150000000000
112000000000000000000201000003960000000000289544540000TAXAS                                                                                                                                                                     S0300000000396000000000000000000000
112100000000000000000201000001100000000000053979490000TAXAS PELO EXERCICIO DO PODER DE POLICIA                                                                                                                                  S0400000000110000000000000000000000
112101000000000000000201000001010000000000046513180000TAXAS DE INSPECAO CONTROLE E FISCALIZACAO                                                                                                                                 S0500000000101000000000000000000000
112101010000000000000201000000940000000000040954950000TAXAS DE INSPECAO CONTROLE E FISCALIZACAO - PRINCIPAL                                                                                                                     S0600000000094000000000000000000000
112101010100000000000201000000490000000000008565000000TAXA DE VISTORIA - PRINCIPAL                                                                                                                                              A0700000000049000000000150100000000
1121010101000000000002010000000000000-0000000238500000TAXA DE VISTORIA - PRINCIPAL                                                                                                                                              A0710200000000000000000150100000000
1121010101000000000002010000000000000-0000000080000000TAXA DE VISTORIA - PRINCIPAL                                                                                                                                              A0710300000000000000000150100000000
112101010200000000000201000000010000000000000917000000TAXA DE APROVACAO DE LOTEAMENTO/FRACIONAMENTO - PRINCIPAL                                                                                                                 A0700000000001000000000150100000000
112101010300000000000201000000090000000000006844700000TAXA DE APROVACAO DE PROJETOS DE CONSTRUCAO CIVIL - PRINCIPAL                                                                                                             A0700000000009000000000150100000000
1121010103000000000002010000000000000-0000000209000000TAXA DE APROVACAO DE PROJETOS DE CONSTRUCAO CIVIL - PRINCIPAL                                                                                                             A0710300000000000000000150100000000
112101010400000000000201000000080000000000009155000000TAXA DE LICENCA AMBIENTAL - PRINCIPAL                                                                                                                                     A0700000000008000000000175900000000
112101010500000000000201000000160000000000009975750000TAXA DE EXPEDIENTE - PRINCIPAL                                                                                                                                            A0700000000016000000000150100000000
1121010105000000000002010000000000000-0000000462000000TAXA DE EXPEDIENTE - PRINCIPAL                                                                                                                                            A0710300000000000000000150100000000
112101010600000000000201000000110000000000006561000000ALVARA DE LICENCA E LOCALIZACAO - PRINCIPAL                                                                                                                               A0700000000011000000000150100000000
1121010106000000000002010000000000000-0000000074000000ALVARA DE LICENCA E LOCALIZACAO - PRINCIPAL                                                                                                                               A0710300000000000000000150100000000
112101020000000000000201000000000000000000000060210000TAXAS DE INSPECAO CONTROLE E FISCALIZACAO  - MULTAS E JUROS DE MORA                                                                                                       S0600000000000000000000000000000000
112101020100000000000201000000000000000000000001460000TAXA DE VISTORIA - MULTA E JUROS DE MORA                                                                                                                                  A0700000000000000000000150100000000
112101020300000000000201000000000000000000000006080000TAXA DE APROVACAO DE PROJETOS DE CONSTRUCAO CIVIL - MULTA E JUROS DE MORA                                                                                                 A0700000000000000000000150100000000
112101020400000000000201000000000000000000000036300000TAXA DE LICENCA AMBIENTAL - MULTA E JUROS DE MORA                                                                                                                         A0700000000000000000000175900000000
112101020500000000000201000000000000000000000007210000TAXA DE EXPEDIENTE - MULTA E JUROS DE MORA                                                                                                                                A0700000000000000000000150100000000
112101020600000000000201000000000000000000000009160000ALVARA DE LICENCA E LOCALIZACAO - MULTA DE JUROS DE MORA                                                                                                                  A0700000000000000000000150100000000
112101030000000000000201000000050000000000004311790000TAXAS DE INSPECAO CONTROLE E FISCALIZACAO - DIVIDA ATIVA                                                                                                                  S0600000000005000000000000000000000
112101030100000000000201000000050000000000004282930000TAXA DE VISTORIA - DIVIDA ATIVA                                                                                                                                           A0700000000005000000000150100000000
1121010301000000000002010000000000000-0000000222500000TAXA DE VISTORIA - DIVIDA ATIVA                                                                                                                                           A0710300000000000000000150100000000
112101030500000000000201000000000000000000000018800000TAXA DE EXPEDIENTE - DIVIDA ATIVA                                                                                                                                         A0700000000000000000000150100000000
1121010305000000000002010000000000000-0000000007930000TAXA DE EXPEDIENTE - DIVIDA ATIVA                                                                                                                                         A0710300000000000000000150100000000
112101030600000000000201000000000000000000000416050000ALVARA DE LICENCA E LOCALIZACAO - DIVIDA ATIVA                                                                                                                            A0700000000000000000000150100000000
1121010306000000000002010000000000000-0000000175560000ALVARA DE LICENCA E LOCALIZACAO - DIVIDA ATIVA                                                                                                                            A0710300000000000000000150100000000
112101040000000000000201000000020000000000001186230000TAXAS DE INSPECAO CONTROLE E FISCALIZACAO - MULTAS E JUROS DE MORA DIVIDA ATIVA                                                                                           S0600000000002000000000000000000000
112101040100000000000201000000020000000000001957540000TAXA DE VISTORIA - MULTA E JUROS DE MORA DA DIVIDA ATIVA                                                                                                                  A0700000000002000000000150100000000
1121010401000000000002010000000000000-0000000771310000TAXA DE VISTORIA - MULTA E JUROS DE MORA DA DIVIDA ATIVA                                                                                                                  A0710300000000000000000150100000000
112150000000000000000201000000090000000000007466310000TAXA DE FISCALIZACAO DE VIGILANCIA SANITARIA                                                                                                                              S0500000000009000000000000000000000
112150010000000000000201000000090000000000007132550000TAXA DE FISCALIZACAO DE VIGILANCIA SANITARIA - PRINCIPAL                                                                                                                  A0600000000009000000000150100000000
112150020000000000000201000000000000000000000085110000TAXA DE FISCALIZACAO DE VIGILANCIA SANITARIA  - MULTAS E JUROS DE MORA                                                                                                    A0600000000000000000000150100000000
112150030000000000000201000000000000000000000218380000TAXA DE FISCALIZACAO DE VIGILANCIA SANITARIA - DIVIDA ATIVA                                                                                                               A0600000000000000000000150100000000
112150040000000000000201000000000000000000000030270000TAXA DE FISCALIZACAO DE VIGILANCIA SANITARIA - MULTAS E JUROS DE MORA DIVIDA ATIVA                                                                                        A0600000000000000000000150100000000
112200000000000000000201000002860000000000235565050000TAXAS PELA PRESTACAO DE SERVICOS                                                                                                                                          S0400000000286000000000000000000000
112201000000000000000201000000000000000000000000000000TAXAS PELA PRESTACAO DE SERVICOS EM GERAL                                                                                                                                 S0500000000000000000000000000000000
112201030000000000000201000000000000000000000000000000TAXAS PELA PRESTACAO DE SERVICOS EM GERAL - DIVIDA ATIVA                                                                                                                  S0600000000000000000000000000000000
112201030100000000000201000000000000000000000070390000TAXA DE COLETA DE LIXO - DIVIDA ATIVA                                                                                                                                     A0700000000000000000000150100000000
1122010301000000000002010000000000000-0000000070390000TAXA DE COLETA DE LIXO - DIVIDA ATIVA                                                                                                                                     A0710800000000000000000150100000000
112253000000000000000201000002860000000000235565050000TAXA PELA PRESTACAO DE SERVICOS DE LIMPEZA PUBLICA E MANEJO DE RESIDUOS SOLIDOS                                                                                           S0500000000286000000000000000000000
112253010000000000000201000003130000000000257886360000TAXA PELA PRESTACAO DE SERVICOS DE LIMPEZA PUBLICA E MANEJO DE RESIDUOS SOLIDOS - PRINCIPAL                                                                               A0600000000313000000000150100000000
1122530100000000000002010000000000000-0000000291480000TAXA PELA PRESTACAO DE SERVICOS DE LIMPEZA PUBLICA E MANEJO DE RESIDUOS SOLIDOS - PRINCIPAL                                                                               A0610200000000000000000150100000000
112253010000000000000201-000004500000-0000048763380000TAXA PELA PRESTACAO DE SERVICOS DE LIMPEZA PUBLICA E MANEJO DE RESIDUOS SOLIDOS - PRINCIPAL                                                                               A06103-0000045000000000150100000000
112253030000000000000201000000170000000000029715910000TAXA PELA PRESTACAO DE SERVICOS DE LIMPEZA PUBLICA E MANEJO DE RESIDUOS SOLIDOS - DIVIDA ATIVA                                                                            A0600000000017000000000150100000000
1122530300000000000002010000000000000-0000004401130000TAXA PELA PRESTACAO DE SERVICOS DE LIMPEZA PUBLICA E MANEJO DE RESIDUOS SOLIDOS - DIVIDA ATIVA                                                                            A0610300000000000000000150100000000
112253040000000000000201000000010000000000001418770000TAXA PELA PRESTACAO DE SERVICOS DE LIMPEZA PUBLICA E MANEJO DE RESIDUOS SOLIDOS - MJM DA DIVIDA ATIVA                                                                     A0600000000001000000000150100000000
113000000000000000000201000000000000000000027269440000CONTRIBUICAO DE MELHORIA                                                                                                                                                  S0300000000000000000000000000000000
113100000000000000000201000000000000000000027269440000CONTRIBUICAO DE MELHORIA                                                                                                                                                  S0400000000000000000000000000000000
113153000000000000000201000000000000000000027269440000CONTRIBUICAO DE MELHORIA PARA PAVIMENTACAO E OBRAS COMPLEMENTARES                                                                                                         S0500000000000000000000000000000000
113153010000000000000201000000000000000000024409130000CONTRIBUICAO DE MELHORIA PARA PAVIMENTACAO E OBRAS COMPLEMENTARES - PRINCIPAL                                                                                             A0600000000000000000000150100000000
1131530100000000000002010000000000000-0000000413590000CONTRIBUICAO DE MELHORIA PARA PAVIMENTACAO E OBRAS COMPLEMENTARES - PRINCIPAL                                                                                             A0610300000000000000000150100000000
113153020000000000000201000000000000000000000028730000CONTRIBUICAO DE MELHORIA PARA PAVIMENTACAO E OBRAS COMPLEMENTARES - MULTAS E JUROS DE MORA                                                                                A0600000000000000000000150100000000
113153030000000000000201000000000000000000002934680000CONTRIBUICAO DE MELHORIA PARA PAVIMENTACAO E OBRAS COMPLEMENTARES - DIVIDA ATIVA                                                                                          A0600000000000000000000150100000000
113153040000000000000201000000000000000000000310490000CONTRIBUICAO DE MELHORIA PARA PAVIMENTACAO E OBRAS COMPLEMENTARES - MULTAS E JUROS DE MORA DIVIDA ATIVA                                                                   A0600000000000000000000150100000000
120000000000000000000201000019710000000001218859340000CONTRIBUICOES                                                                                                                                                             S0200000001971000000000000000000000
121000000000000000000201000016710000000001001531530000CONTRIBUICOES SOCIAIS                                                                                                                                                     S0300000001671000000000000000000000
121500000000000000000201000016710000000001001531530000CONTRIBUICOES PARA  REGIMES PROPRIOS DE PREVIDENCIA E SISTEMA DE PROTECAO SOCIAL                                                                                          S0400000001671000000000000000000000
121501000000000000000201000016710000000001001531530000CONTRIBUICAO DO SERVIDOR CIVIL                                                                                                                                            S0500000001671000000000000000000000
121501100000000000000201000016450000000000938466360000CONTRIBUICAO DO SERVIDOR CIVIL ATIVO                                                                                                                                      S0600000001645000000000000000000000
121501110000000000005001000016450000000000938466360000CONTRIBUICAO DO SERVIDOR CIVIL ATIVO - PRINCIPAL                                                                                                                          A0600000001645000000000180000000000
121501200000000000000201000000190000000000050913240000CONTRIBUICAO DO SERVIDOR CIVIL INATIVO                                                                                                                                    S0600000000019000000000000000000000
121501210000000000005001000000190000000000050913240000CONTRIBUICAO DO SERVIDOR CIVIL INATIVO - PRINCIPAL                                                                                                                        A0600000000019000000000180000000000
121501300000000000000201000000070000000000012151930000CONTRIBUICAO DO SERVIDOR CIVIL - PENSIONISTAS                                                                                                                             S0600000000007000000000000000000000
121501310000000000005001000000070000000000012151930000CONTRIBUICAO DO SERVIDOR CIVIL - PENSIONISTAS - PRINCIPAL                                                                                                                 A0600000000007000000000180000000000
124000000000000000000201000003000000000000217327810000CONTRIBUICAO PARA O CUSTEIO DO SERVICO DE ILUMINACAO PUBLICA                                                                                                              S0300000000300000000000000000000000
124100000000000000000201000003000000000000217327810000CONTRIBUICAO PARA O CUSTEIO DO SERVICO DE ILUMINACAO PUBLICA                                                                                                              S0400000000300000000000000000000000
124150000000000000000201000003000000000000217327810000CONTRIBUICAO PARA O CUSTEIO DO SERVICO DE ILUMINACAO PUBLICA                                                                                                              S0500000000300000000000000000000000
124150010000000000000201000003000000000000217327810000CONTRIBUICAO PARA O CUSTEIO DO SERVICO DE ILUMINACAO PUBLICA - PRINCIPAL                                                                                                  A0600000000300000000000175100000000
130000000000000000000201000045950000000004536946830000RECEITA PATRIMONIAL                                                                                                                                                       S0200000004608991190000000000000000
131000000000000000000201000002710000000000186652680000EXPLORACAO DO PATRIMONIO IMOBILIARIO DO ESTADO                                                                                                                            S0300000000271000000000000000000000
131100000000000000000201000002710000000000186652680000EXPLORACAO DO PATRIMONIO IMOBILIARIO DO ESTADO                                                                                                                            S0400000000271000000000000000000000
131101000000000000000201000002710000000000186652680000ALUGUEIS ARRENDAMENTOS FOROS LAUDEMIOS TARIFAS DE OCUPACAO                                                                                                                S0500000000271000000000000000000000
131101100000000000000201000002710000000000186652680000ALUGUEIS E ARRENDAMENTOS                                                                                                                                                  S0600000000271000000000000000000000
131101110000000000000201000002710000000000186652680000ALUGUEIS E ARRENDAMENTOS - PRINCIPAL                                                                                                                                      A0600000000271000000000150100000000
132000000000000000000201000043240000000004350294150000VALORES MOBILIARIOS                                                                                                                                                       S0300000004337991190000000000000000
132100000000000000000201000043240000000004350294150000JUROS E CORRECOES MONETARIAS                                                                                                                                              S0400000004337991190000000000000000
132101000000000000000201000007430000000001151725940000REMUNERACAO DE DEPOSITOS BANCARIOS                                                                                                                                        S0500000000756991190000000000000000
132101010000000000000201000007430000000001151725940000REMUNERACAO DE DEPOSITOS BANCARIOS - PRINCIPAL                                                                                                                            S0600000000756991190000000000000000
132101010100000000000201000000920000000000276646320000REMUNERACAO DE DEPOSITOS DE RECURSOS VINCULADOS                                                                                                                           S0700000000105991190000000000000000
132101010102000000000201000000320000000000032589660000REMUNERACAO DE DEPOSITOS  BANCARIOS DE RECURSOS VINCULADOS - FUNDEB                                                                                                       S0800000000032000000000000000000000
132101010102010000000201000000320000000000032589660000RENDIMENTOS DO FUNDEB - IMPOSTOS E TRANSFERENCIAS DE IMPOSTOS                                                                                                             A1000000000032000000000154000000000
132101010103000000000201000000060000000000060138700000REMUNERACAO DE DEPOSITOS  BANCARIOS DE RECURSOS VINCULADOS - FUNDO DE SAUDE                                                                                               S0800000000006125550000000000000000
132101010103020000000201000000000000000000001484510000REND UBS AMIGA IDOSO PSES1097/2023                                                                                                                                        A1000000000000000000000162100000000
132101010103030000000201000000000000000000002002640000REND MATPERM PSES1098/2023                                                                                                                                                A1000000000000000000000162100000000
132101010103040000000201000000030000000000001913030000RENDIMENTOS ATENCAO BASICA FEDERAL RV4500                                                                                                                                 A1000000000003000000000160000000000
132101010103050000000201000000010000000000001194010000RENDIMENTOS VISA FF RV4502                                                                                                                                                A1000000000001000000000160000000000
132101010103060000000201000000010000000000001209120000RENDIMENTOS ASSISTENCIA FARMACEUTICA FF RV4503                                                                                                                            A1000000000001000000000160000000000
132101010103090000000201000000000000000000000504570000RENDIMENTOS FARMACIA BASICA FE RV4050                                                                                                                                     A1000000000000000000000162100000000
132101010103100000000201000000000000000000013834960000REND REFORMA UBS PORT SES 369 E 653/24                                                                                                                                    A1000000000000000000000162100000000
132101010103110000000201000000000000000000000453370000REND DST PSES1099/2023                                                                                                                                                    A1000000000000000000000162100000000
132101010103160000000201000000000000000000000061510000REND PROTESE DENTARIA PORTSES 82/2024 E 110/2024                                                                                                                          A1000000000000039890000162100000000
132101010103170000000201000000000000000000020894980000REND ESTRUT ATENCAO PRIMARIA SAUDE INVEST                                                                                                                                 A1000000000000000000000160131100000
132101010103300000000201000000000000000000000340840000REND TRANSFERENCIA FEDERAL PARA PISO DA ENFERMAGEM                                                                                                                        A1000000000000000000000160500000000
132101010103340000000201000000000000000000001333310000REND TRANSFORMACAO DIGITAL NO SUS                                                                                                                                         A1000000000000000000000160000000000
132101010103350000000201000000000000000000005516320000REND REFORMA UBS EMENDA RS EP 156 PORTSES-RS200/25                                                                                                                        A1000000000000000000000162132100000
132101010103550000000201000000000000000000000241320000REND SEG ALIMENT NUTRIC SAUDE IMPLEMENTACAO RV4505                                                                                                                        A1000000000000000000000160100000000
132101010103580000000201000000000000000000000891410000REND COVID-19 SAUDE MENTAL PORTSES506/2020 RV4011                                                                                                                         A1000000000000000000000162100000000
132101010103600000000201000000000000000000000267170000REND ESTRUT/ADEQ ASSIST ODONT APS RV4505 PORT GM/MS 3473/2020                                                                                                             A1000000000000000000000160100000000
132101010103610000000201000000000000000000003194740000REND ESTRUT ATENCAO BASICA EMENDA 28620016 PORT MS/GM 961/2020 RV4505                                                                                                     A1000000000000000000000160100000000
132101010103770000000201000000000000000000000685330000REND EMENDA RELATOR 81000293 VEICULO RV 4505 PORT1687                                                                                                                     A1000000000000000000000160100000000
132101010103780000000201000000000000000000000168090000REND EQUIP ODONTO PSF/UBS REDE BEM CUIDAR PORT SES/RS 395/2022 RV4293                                                                                                     A1000000000000000000000163200000000
132101010103800000000201000000000000000000000229980000REND ESTRUT REDE APS PORT2090 EMENDA RELATOR                                                                                                                              A1000000000000000000000160100000000
132101010103830000000201000000000000000000000365340000RENDIMENTOS NOTA FISCAL GAUCHA PROGRAMA SOLIDARIEDADE RV4300                                                                                                              A1000000000000000000000162100000000
132101010103840000000201000000000000000000000018090000REND CASTRACAO DE ANIMAIS - PROJETO MELHORES AMIGOS CONVFPE4758/2022-SICDHAS                                                                                              A1000000000000085660000163200000000
1321010101038400000002010000000000000-0000000018090000REND CASTRACAO DE ANIMAIS - PROJETO MELHORES AMIGOS CONVFPE4758/2022-SICDHAS                                                                                              A1010900000000000000000163200000000
132101010103850000000201000000010000000000000009310000REND CONTRAP CASTRACAO DE ANIMAIS - PROJETO MELHORES AMIGOS CONVFPE4758/2022-SICDHAS                                                                                      A1000000000001000000000150000000000
1321010101038500000002010000000000000-0000000009310000REND CONTRAP CASTRACAO DE ANIMAIS - PROJETO MELHORES AMIGOS CONVFPE4758/2022-SICDHAS                                                                                      A1010900000000000000000150000000000
132101010103860000000201000000000000000000000534850000REND BB GERAL FMS MOV 0040 3732-X/10062-5                                                                                                                                 A1000000000000000000000150010020000
132101010103870000000201000000000000000000000824810000REND FARMACIA FEDERAL CALAMIDADE MP 1218/2024                                                                                                                             A1000000000000000000000160031010000
132101010103900000000201000000000000000000000787270000REND QUALIFICA VIGILANCIA RS/PORTSES-RS847/2024                                                                                                                           A1000000000000000000000162100000000
132101010103910000000201000000000000000000000261210000REND QUALIFAR-SUS ORGANIZACAO PRT6841/25                                                                                                                                  A1000000000000000000000160000000000
132101010103920000000201000000000000000000000944010000REND INVERNO GAUCHO PORTSES322/2025                                                                                                                                       A1000000000000000000000162100000000
132101010106000000000201000000000000000000000308990000REMUNERACAO DE DEPOSITOS  BANCARIOS DE RECURSOS VINCULADOS - CONTRIBUICAO DE INTERVENCAO NO DOMINIO ECONOMICO - CIDE                                                      A0800000000000000000000175000000000
132101010107000000000201000000010000000000011617520000REMUNERACAO DE DEPOSITOS  BANCARIOS DE RECURSOS VINCULADOS - FUNDO NACIONAL DE ASSISTENCIA SOCIAL - FNAS                                                                  S0800000000001553010000000000000000
132101010107010000000201000000000000000000000596260000RENDIMENTOS PAIF - PSB PBFI FMAS RV1064                                                                                                                                   A1000000000000000000000166000000000
132101010107020000000201000000000000000000000545910000RENDIMENTOS SCFV - PSB SCFV FMAS RV1021                                                                                                                                   A1000000000000000000000166000000000
132101010107030000000201000000010000000000001365880000RENDIMENTOS GBF IGD-BF RV1038                                                                                                                                             A1000000000001000000000166000000000
132101010107050000000201000000000000000000000101000000RENDIMENTOS OASF/FEAS RV1103                                                                                                                                              A1000000000000000000000166500000000
132101010107060000000201000000000000000000003481090000REND CONVENIO STDP-RS 2478/2023                                                                                                                                           A1000000000000000000000166500000000
132101010107080000000201000000000000000000000008830000REND COVID-19/SUAS PORT MC 751/2022 RV1019                                                                                                                                A1000000000000008830000166000000000
132101010107110000000201000000000000000000000088260000REND PROCAD-SUAS                                                                                                                                                          A1000000000000000000000166000000000
132101010107120000000201000000000000000000001970140000REND CONVENIO STDP-RS 949/2023                                                                                                                                            A1000000000000000000000166500000000
132101010107130000000201000000000000000000000079010000REND-SIGTV- ESTRUT REDE SV SUAS-CUSTEIO                                                                                                                                   A1000000000000000000000166031100000
132101010107140000000201000000000000000000001111650000REND INCREMENTO TEMP PSB MP1218/24                                                                                                                                        A1000000000000544180000166031010000
132101010107150000000201000000000000000000002017810000REND FEAS PISO GAUCHO REGULAR                                                                                                                                             A1000000000000000000000166100000000
132101010107160000000201000000000000000000000251680000REND INCREMENTO TEMP PSB MP1218/24 2025                                                                                                                                   A1000000000000000000000166031010000
132101010108000000000201000000300000000000018860430000REMUNERACAO DE DEPOSITOS  BANCARIOS DE RECURSOS VINCULADOS - FUNDO NACIONAL DE DESENVOLVIMENTO DA EDUCACAO - FNDE                                                         S0800000000030000000000000000000000
132101010108010000000201000000010000000000001222500000RENDIMENTOS PNAE                                                                                                                                                          A1000000000001000000000155200000000
132101010108020000000201000000060000000000008787490000RENDIMENTOS QSE RV1014                                                                                                                                                    A1000000000006000000000155000000000
132101010108030000000201000000010000000000000611370000RENDIMENTOS PNATE RV1016                                                                                                                                                  A1000000000001000000000155300000000
132101010108040000000201000000150000000000003172770000REND EDUC INF NOVAS TURMAS RV1003                                                                                                                                         A1000000000015000000000156900000000
132101010108050000000201000000000000000000000154160000REND FNDE/PAR/MOBILIARIO 2023                                                                                                                                             A1000000000000000000000156900000000
132101010108060000000201000000070000000000004912140000REND ESCOLA TEMPO INTEGRAL                                                                                                                                                A1000000000007000000000156900000000
132101010199000000000201000000230000000000153131020000REMUNERACAO DE OUTROS DEPOSITOS  BANCARIOS DE RECURSOS VINCULADOS                                                                                                         S0800000000036312630000000000000000
132101010199010000000201000000060000000000005697690000RENDIMENTOS FMDMA RV1005                                                                                                                                                  A1000000000006000000000175900000000
132101010199020000000201000000000000000000000000000000REND PAVIMENTA RS/ETAPA 2 70109 CONVENIO FPE 2023/5253                                                                                                                    A1000000000000000000000170100000000
132101010199030000000201000000040000000000001011460000REND CONTRAP PAVIMENTA RS/ETAPA 2 70109 CONVENIO FPE 2023/5253                                                                                                            A1000000000004000000000150000000000
132101010199040000000201000000000000000000007147910000RENDIMENTOS IR DOACAO FUNDICA RV1050                                                                                                                                      A1000000000000000000000175900000000
132101010199050000000201000000000000000000004626420000REND INVESTIMENTO EMENIND 28610007                                                                                                                                        A1000000000000000000000170631100000
132101010199060000000201000000000000000000004089530000REND INVESTIMENTO EMENIND 30770001                                                                                                                                        A1000000000000000000000170631100000
132101010199100000000201000000000000000000012330870000POUP PAVIMENTACAO URBANA SICONV917782/2021                                                                                                                                A1000000000000000000000170000000000
132101010199110000000201000000000000000000000245170000REND PIT FE - PROGRAMA DE INTEGRACAO TRIBUTARIA RV1112                                                                                                                    A1000000000000000000000170100000000
132101010199130000000201000000000000000000001182330000POUP CONTRAP PAVIMENTACAO URBANA SICONV917782/2021                                                                                                                        A1000000000000000000000150000000000
132101010199170000000201000000000000000000002743880000REND CUSTEIO EMENDIND32980001                                                                                                                                             A1000000000000000000000170631100000
132101010199180000000201000000000000000000006859700000REND INVESTIMENTO EMENDIND3666011                                                                                                                                         A1000000000000000000000170631100000
132101010199190000000201000000000000000000013719330000REND INVESTIMENTO EMENDIND24070001                                                                                                                                        A1000000000009271740000170631100000
132101010199200000000201000000000000000000000000000000REND PAVIMENTACAO ECOVILLA CONV FPE 456/2022 FE                                                                                                                           A1000000000000000000000170100000000
132101010199210000000201000000000000000000000000000000REND PAVIMENTA RS FE RV1212                                                                                                                                               A1000000000000000000000170100000000
132101010199220000000201000000000000000000000124030000REND CONTRAPARTIDA PAVIMENTA RS FE RV1212                                                                                                                                 A1000000000000000000000150000000000
132101010199250000000201000000000000000000001007800000REND TRANSF ESP PAVIMENT CIDADE-BUDEL-ALEGRIA EMEND IND 36660001 RV1028                                                                                                   A1000000000000000000000170031100000
132101010199300000000201000000040000000000002941180000RENDIMENTOS PEATE RS RV1017                                                                                                                                               A1000000000004000000000157100000000
132101010199310000000201000000000000000000002781200000REND CONSTR POCO TUBULAR PROFUNDO PROG AVANCAR RS CONVFPE2268/22                                                                                                          A1000000000000000000000170100000000
1321010101993100000002010000000000000-0000002781200000REND CONSTR POCO TUBULAR PROFUNDO PROG AVANCAR RS CONVFPE2268/22                                                                                                          A1010200000000000000000170100000000
132101010199320000000201000000030000000000003322190000REND CIP                                                                                                                                                                  A1000000000003000000000175100000000
132101010199330000000201000000060000000000007098820000REND FEP                                                                                                                                                                  A1000000000006000000000170400000000
132101010199370000000201000000000000000000005743810000REND PAV AREA INDUSTRIAL TRANSFESPEMENDAIND41210001 1030BR 70601                                                                                                          A1000000000000000000000170631100000
132101010199390000000201000000000000000000002580670000REND CONSTRUCAO DE CISTERNAS CONVFPE2411/2022                                                                                                                             A1000000000001504890000170100000000
132101010199400000000201000000000000000000000044980000REND LC195/22 LEI PAULO GUSTAVO ART5                                                                                                                                      A1000000000000000000000171500000000
132101010199410000000201000000000000000000000016550000REND LC195/22 LEI PAULO GUSTAVO ART8                                                                                                                                      A1000000000000000000000171600000000
132101010199440000000201000000000000000000000028200000REND CFEM-PRODUCAO MINERAL                                                                                                                                                A1000000000000000000000170800000000
132101010199450000000201000000000000000000017734050000REND PAVIMENTACAO ESTRADAS RURAIS EMENDA IMPOSITIVA 28610005/2023                                                                                                         A1000000000000000000000170631100000
132101010199460000000201000000000000000000000000000000REND COLHEDORA DE FORRAGENS CONV FPE 1447/2023-SDR/RS                                                                                                                     A1000000000000000000000170100000000
132101010199500000000201000000000000000000019655900000REND INVESTIMENTO EMENDIND90480002                                                                                                                                        A1000000000000000000000170631100000
132101010199510000000201000000000000000000002605760000REND OFICINA ARTES/DANCAS CONV3910/2024-SJCDH/RS                                                                                                                          A1000000000000000000000170132100000
132101010199520000000201000000000000000000012742700000REND ESTIAGEM 2025 PORT007/SPDC/2025                                                                                                                                      A1000000000002000000000174832010000
132101010199530000000201000000000000000000000225710000REND CONTRAP OFICINA ARTES/DANCAS CONV3910/2024-SJCDH/RS                                                                                                                  A1000000000000000000000150000000000
132101010199540000000201000000000000000000002708360000REND ESTIAGEM PORT1163/2025 SNPDC                                                                                                                                         A1000000000000536000000174731010000
132101010199600000000201000000000000000000007892730000REND SNA                                                                                                                                                                  A1000000000000000000000150000000000
132101010199700000000201000000000000000000007003290000REND RECUPERACAO ESTRADAS VICINAIS CONVFPE334/2025                                                                                                                        A1000000000000000000000170132010000
132101010200000000000201000006510000000000497546630000REMUNERACAO DE DEPOSITOS DE RECURSOS NAO VINCULADOS                                                                                                                       S0700000000651000000000000000000000
132101010299000000000201000006510000000000497546630000REMUNERACAO DE OUTROS DEPOSITOS  BANCARIOS DE RECURSOS NAO VINCULADOS                                                                                                     S0800000000651000000000000000000000
132101010299010000000201000001880000000000139830940000RENDIMENTOS PODER EXECUTIVO - BB                                                                                                                                          A1000000000188000000000150000000000
132101010299020000000201000001110000000000136469920000RENDIMENTOS PODER EXECUTIVO - BANRISUL                                                                                                                                    A1000000000111000000000150000000000
132101010299050000000201000000430000000000015641240000RENDIMENTOS PODER LEGISLATIVO - BANRISUL                                                                                                                                  A1000000000043000000000150000000000
132101010299070000000201000002770000000000154189910000RENDIMENTOS PODER EXECUTIVO - SICREDI                                                                                                                                     A1000000000277000000000150000000000
132101010299080000000201000000010000000000000734820000REND CONTRAP CONSTR POCO TUBULAR PROFUNDO PROG AVANCAR RS CONVFPE2268/22                                                                                                  A1000000000001000000000150000000000
132101010299100000000201000000210000000000047537830000REND FR501 BB                                                                                                                                                             A1000000000021000000000150100000000
132101010299120000000201000000000000000000000328120000RENDIMENTOS FR502 BANRISUL                                                                                                                                                A1000000000000000000000150200000000
132101010299140000000201000000010000000000000100610000REND CONTRAP CONVENIO STDP-RS 949/2023                                                                                                                                    A1000000000001000000000150000000000
132101010299160000000201000000010000000000000166040000REND CONTRAP COLHEDORA DE FORRAGENS CONV FPE 1447/2023-SDR/RS                                                                                                             A1000000000001000000000150000000000
132101010299170000000201000000010000000000000913050000REND CONTRAP CONVENIO STDP-RS 2478/2023                                                                                                                                   A1000000000001000000000150000000000
132101010299320000000201000000070000000000001634150000REND CONTRAP PAVIMENTACAO ECOVILLA CONV FPE 456/2022 FE                                                                                                                   A1000000000007000000000150000000000
132101011500000000005001000000000000000000377532990000FPSM SICREDI TAXA SELIC FIC FIRF LP                                                                                                                                       A0700000000000000000000180000000000
132104000000000000000201000035810000000003198568210000REMUNERACAO DOS RECURSOS DO REGIME PROPRIO DE PREVIDENCIA SOCIAL - RPPS                                                                                                   S0500000003581000000000000000000000
132104010000000000000201000035810000000003198568210000REMUNERACAO DOS RECURSOS DO REGIME PROPRIO DE PREVIDENCIA SOCIAL - RPPS                                                                                                   S0600000003581000000000000000000000
132104010100000000005001000002570000000000000000000000FPSM CEF CAIXA BRASIL 2024 III TP RF                                                                                                                                      A0700000000257000000000180000000000
132104010200000000005001000004600000000000532730100000FPSM BB PREV RF IRF-M 1 TP                                                                                                                                                A0700000000460000000000180000000000
132104010300000000005001000000020000000000000000000000FPSM CAIXA FI BRASIL IDKA IPCA 2A TP RF LP                                                                                                                                A0700000000002000000000180000000000
132104010400000000005001000001990000000000000000000000FPSM SICREDI  FI INSTITUCIONAL RF IRF-M LP                                                                                                                                A0700000000199000000000180000000000
132104010500000000005001000000620000000000000000000000FPSM SICREDI FIC INSTITUCIONAL RF IMA-B                                                                                                                                   A0700000000062000000000180000000000
132104010600000000005001000004100000000000000000000000FPSM BB PREVID RF IMA-B 5 LP                                                                                                                                              A0700000000410000000000180000000000
132104010700000000005001000003900000000000000000000000FPSM BB PREV RF IDKA2 TP                                                                                                                                                  A0700000000390000000000180000000000
132104010800000000005001000003650000000000636616390000FPSM BB PREVID RF REFERENCIADO DI LP PERFIL                                                                                                                               A0700000000365000000000180000000000
132104010900000000005001000000550000000000037132350000REND TX ADM RPPS FPSM MOV 0050 3732-X/12116-9                                                                                                                             A0700000000055000000000180200000000
132104011000000000005001000006150000000000644274890000REND CEF FI BRASIL REFERENCIADO DI LP FPSM 0050 0521/006/00000295-1                                                                                                       A0700000000615000000000180000000000
132104011100000000005001000005440000000000611227770000FPSM SICREDI LIQUIDEZ EMPRESARIAL REF DI FI RF                                                                                                                            A0700000000544000000000180000000000
132104011200000000005001000000670000000000257238440000CEF FPSM FI BRASIL 2028 X TP RF                                                                                                                                           A0700000000067000000000180000000000
132104011300000000005001000000590000000000199588050000BANRISUL RPPS II FI RF - NTN-B 27                                                                                                                                         A0700000000059000000000180000000000
132104011400000000005001000000960000000000279760220000REND BB RF TP 2026 FPSM                                                                                                                                                   A0700000000096000000000180000000000
160000000000000000000201000000560000000000030466170000RECEITA DE SERVICOS                                                                                                                                                       S0200000000056000000000000000000000
161000000000000000000201000000560000000000030466170000SERVICOS ADMINISTRATIVOS E COMERCIAIS GERAIS                                                                                                                              S0300000000056000000000000000000000
161100000000000000000201000000560000000000030466170000SERVICOS ADMINISTRATIVOS E COMERCIAIS GERAIS                                                                                                                              S0400000000056000000000000000000000
161101000000000000000201000000560000000000030466170000SERVICOS ADMINISTRATIVOS E COMERCIAIS GERAIS PRESTADOS POR ENTIDADES E ORGAOS PUBLICOS EM GERAL                                                                           S0500000000056000000000000000000000
161101010000000000000201000000540000000000030001200000SERVICOS ADMINISTRATIVOS E COMERCIAIS GERAIS PRESTADOS POR ENTIDADES E ORGAOS PUBLICOS EM GERAL - PRINCIPAL                                                               S0600000000054000000000000000000000
161101010100000000000201000000540000000000030001200000SERVICOS DE MAQUINAS - PRINCIPAL                                                                                                                                          A0700000000054000000000150100000000
161101020000000000000201000000000000000000000091400000SERVICOS ADMINISTRATIVOS E COMERCIAIS GERAIS PRESTADOS POR ENTIDADES E ORGAOS PUBLICOS EM GERAL - MULTA E JUROS DE MORA                                                   S0600000000000000000000000000000000
161101020100000000000201000000000000000000000091400000SERVICOS DE MAQUINAS - MULTA E JUROS DE MORA                                                                                                                              A0700000000000000000000150100000000
161101030000000000000201000000020000000000000345910000SERVICOS ADMINISTRATIVOS E COMERCIAIS GERAIS PRESTADOS POR ENTIDADES E ORGAOS PUBLICOS EM GERAL - DIVIDA ATIVA                                                            S0600000000002000000000000000000000
161101030100000000000201000000020000000000000345910000SERVICOS DE MAQUINAS - DIVIDA ATIVA                                                                                                                                       A0700000000002000000000150100000000
161101040000000000000201000000000000000000000027660000SERVICOS ADMINISTRATIVOS E COMERCIAIS GERAIS PRESTADOS POR ENTIDADES E ORGAOS PUBLICOS EM GERAL - MULTA E JUROS DE MORA DA DIVIDA ATIVA                                   S0600000000000000000000000000000000
161101040100000000000201000000000000000000000027660000SERVICOS DE MAQUINA - MULTA E JUROS DA DIVIDA ATIVA                                                                                                                       A0700000000000000000000150100000000
170000000000000000000201000411618336000026756318500000TRANSFERENCIAS CORRENTES                                                                                                                                                  S0200000041977188200000000000000000
171000000000000000000201000202273840000011965803200000TRANSFERENCIAS DA UNIAO E DE SUAS ENTIDADES                                                                                                                               S0300000020320398000000000000000000
171100000000000000000201000171773840000009827649680000TRANSFERENCIAS DECORRENTES DE PARTICIPACAO NA RECEITA DA UNIAO                                                                                                            S0400000017177384000000000000000000
171151000000000000000201000169628400000009762311480000COTA-PARTE DO FUNDO DE PARTICIPACAO DOS MUNICIPIOS - FPM                                                                                                                  S0500000016962840000000000000000000
171151100000000000000201000149780800000009046050760000COTA-PARTE DO FUNDO DE PARTICIPACAO DOS MUNICIPIOS - COTA MENSAL                                                                                                          S0600000014978080000000000000000000
171151110000000000000201000187226000000011307563080000COTA-PARTE DO FUNDO DE PARTICIPACAO DOS MUNICIPIOS - COTA MENSAL                                                                                                          A0600000018722600000000150000000000
171151110000000000000201-000374452000-0002261512320000COTA-PARTE DO FUNDO DE PARTICIPACAO DOS MUNICIPIOS - COTA MENSAL                                                                                                          A06105-0003744520000000150000000000
171151200000000000000201000019847600000000716260720000COTA-PARTE DO FUNDO DE PARTICIPACAO DOS MUNICIPIOS - COTAS EXTRAORDINARIAS                                                                                                S0600000001984760000000000000000000
171151210000000000000201000019847600000000716260720000COTA-PARTE DO FUNDO DE PARTICIPACAO DOS MUNICIPIOS - COTAS EXTRAORDINARIAS                                                                                                S0600000001984760000000000000000000
171151210100000000000201000006768450000000716260720000COTA-EXTRA DO FPM EM JULHO                                                                                                                                                A0700000000676845000000150000000000
171151210200000000000201000005863980000000000000000000COTA-EXTRA DO FPM EM SETEMBRO                                                                                                                                             A0700000000586398000000150000000000
171151210300000000000201000007215170000000000000000000COTA-EXTRA DO FPM EM DEZEMBRO                                                                                                                                             A0700000000721517000000150000000000
171152000000000000000201000002145440000000065338200000COTA-PARTE DO IMPOSTO SOBRE A PROPRIEDADE TERRITORIAL RURAL                                                                                                               S0500000000214544000000000000000000
171152010000000000000201000002681800000000081672640000COTA-PARTE DO IMPOSTO SOBRE A PROPRIEDADE TERRITORIAL RURAL                                                                                                               A0600000000268180000000150000000000
171152010000000000000201-000005363600-0000016334440000COTA-PARTE DO IMPOSTO SOBRE A PROPRIEDADE TERRITORIAL RURAL                                                                                                               A06105-0000053636000000150000000000
171200000000000000000201000002260000000000217114690000TRANSFERENCIAS DAS COMPENSACOES FINANCEIRAS PELA EXPLORACAO DE RECURSOS NATURAIS                                                                                          S0400000000226050000000000000000000
171251000000000000000201000000000000000000000663930000COTA-PARTE DA COMPENSACAO FINANCEIRA PELA EXPLORACAO DE RECURSOS MINERAIS - CFEM                                                                                          S0500000000000050000000000000000000
171251010000000000000201000000000000000000000663930000COTA-PARTE DA COMPENSACAO FINANCEIRA PELA EXPLORACAO DE RECURSOS MINERAIS - CFEM                                                                                          A0600000000000050000000170800000000
171252000000000000000201000002260000000000216450760000COTA-PARTE DA COMPENSACAO FINANCEIRA PELA PRODUCAO DE PETROLEO                                                                                                            S0500000000226000000000000000000000
171252400000000000000201000002260000000000216450760000COTA-PARTE DO FUNDO ESPECIAL DO PETROLEO  FEP                                                                                                                             S0600000000226000000000000000000000
171252410000000000000201000002260000000000216450760000COTA-PARTE DO FUNDO ESPECIAL DO PETROLEO  FEP                                                                                                                             A0600000000226000000000170400000000
171300000000000000000201000016780000000001203429920000TRANSFERENCIAS DE RECURSOS DO SISTEMA UNICO DE SAUDE  SUS                                                                                                                 S0400000001678000000000000000000000
171350000000000000000201000016780000000001203429920000TRANSFERENCIAS DE RECURSOS DO SISTEMA UNICO DE SAUDE  SUS  REPASSES FUNDO A FUNDO - BLOCO DE MANUTENCAO DAS ACOES E SERVICOS PUBLICOS DE SAUDE                            S0500000001678000000000000000000000
171350100000000000000201000013760000000001019004700000TRANSFERENCIAS DE RECURSOS DO BLOCO DE MANUTENCAO DAS ACOES E SERVICOS PUBLICOS DE SAUDE  ATENCAO PRIMARIA                                                                S0600000001376000000000000000000000
171350110000000000000201000013760000000001019004700000TRANSFERENCIAS DE RECURSOS DO BLOCO DE MANUTENCAO DAS ACOES E SERVICOS PUBLICOS DE SAUDE  ATENCAO PRIMARIA                                                                S0600000001376000000000000000000000
171350110100000000000201000004120000000000388608000000TRANSFERENCIA FEDERAL PARA O PISO DOS ACS                                                                                                                                 A0700000000412000000000160400000000
171350110200000000000201000009640000000000630052350000PISO DA ATENCAO PRIMARIA EM SAUDE                                                                                                                                         A0700000000964000000000160000000000
171350110600000000000201000000000000000000000144350000EXAME PRE-NATAL REDE ALYNE PORT5530/24                                                                                                                                    A0700000000000000000000160000000000
171350110700000000000201000000000000000000000200000000TESTE RAPIDO GRAVIDEZ REDE ALYNE PORT5534/24                                                                                                                              A0700000000000000000000160000000000
171350200000000000000201000000090000000000005886640000TRANSFERENCIAS DE RECURSOS DO BLOCO DE MANUTENCAO DAS ACOES E SERVICOS PUBLICOS DE SAUDE  ATENCAO ESPECIALIZADA                                                           S0600000000009000000000000000000000
171350210000000000000201000000090000000000005886640000TRANSFERENCIAS DE RECURSOS DO BLOCO DE MANUTENCAO DAS ACOES E SERVICOS PUBLICOS DE SAUDE  ATENCAO ESPECIALIZADA                                                           S0600000000009000000000000000000000
171350210100000000000201000000090000000000005886640000MAC ATENCAO ESPECIALIZADA                                                                                                                                                 A0700000000009000000000160000000000
171350300000000000000201000001480000000000100701450000TRANSFERENCIAS DE RECURSOS DO BLOCO DE MANUTENCAO DAS ACOES E SERVICOS PUBLICOS DE SAUDE  VIGILANCIA EM SAUDE                                                             S0600000000148000000000000000000000
171350310000000000000201000001480000000000100701450000TRANSFERENCIAS DE RECURSOS DO BLOCO DE MANUTENCAO DAS ACOES E SERVICOS PUBLICOS DE SAUDE  VIGILANCIA EM SAUDE                                                             S0600000000148000000000000000000000
171350310100000000000201000000830000000000072864000000TRANSFERENCIA FEDERAL PARA O PISO DOS ACE                                                                                                                                 A0700000000083000000000160400000000
171350310200000000000201000000090000000000008000000000VIGLANCIA SANITARIA                                                                                                                                                       A0700000000009000000000160000000000
171350310300000000000201000000560000000000019837450000INCENTIVO VIGILANCIA EM SAUDE - CUSTEIO                                                                                                                                   A0700000000056000000000160000000000
171350400000000000000201000000530000000000054765380000TRANSFERENCIAS DE RECURSOS DO BLOCO DE MANUTENCAO DAS ACOES E SERVICOS PUBLICOS DE SAUDE  ASSISTENCIA FARMACEUTICA                                                        S0600000000053000000000000000000000
171350410000000000000201000000530000000000054765380000TRANSFERENCIAS DE RECURSOS DO BLOCO DE MANUTENCAO DAS ACOES E SERVICOS PUBLICOS DE SAUDE  ASSISTENCIA FARMACEUTICA                                                        S0600000000053000000000000000000000
171350410100000000000201000000530000000000036634400000FARMACIA BASICA                                                                                                                                                           A0700000000053000000000160000000000
171350410200000000000201000000000000000000012130980000FARMACIA FEDERAL CALAMIDADE MP 1218/2024                                                                                                                                  A0700000000000000000000160031010000
171350410300000000000201000000000000000000006000000000QUALIFAR-SUS ORGANIZACAO PRT6841/25                                                                                                                                       A0700000000000000000000160000000000
171350500000000000000201000000920000000000023071750000TRANSFERENCIAS DE RECURSOS DO BLOCO DE MANUTENCAO DAS ACOES E SERVICOS PUBLICOS DE SAUDE  GESTAO DO SUS                                                                   S0600000000092000000000000000000000
171350510000000000000201000000920000000000023071750000TRANSFERENCIAS DE RECURSOS DO BLOCO DE MANUTENCAO DAS ACOES E SERVICOS PUBLICOS DE SAUDE  GESTAO DO SUS                                                                   S0600000000092000000000000000000000
171350510100000000000201000000920000000000023071750000TRANSFERENCIA FEDERAL PARA PISO DA ENFERMAGEM                                                                                                                             A0700000000092000000000160500000000
171400000000000000000201000008300000000000451447760000TRANSFERENCIAS DE RECURSOS DO FUNDO NACIONAL DO DESENVOLVIMENTO DA EDUCACAO  FNDE                                                                                         S0400000000830000000000000000000000
171450000000000000000201000004400000000000314630420000TRANSFERENCIAS DOSALARIO-EDUCACAO                                                                                                                                        S0500000000440000000000000000000000
171450010000000000000201000004400000000000314630420000TRANSFERENCIAS DOSALARIO-EDUCACAO                                                                                                                                        A0600000000440000000000155000000000
171452000000000000000201000001250000000000111366500000TRANSFERENCIAS REFERENTES AO PROGRAMA NACIONAL DE ALIMENTACAO ESCOLAR  PNAE                                                                                               S0500000000125000000000000000000000
171452010000000000000201000001250000000000111366500000TRANSFERENCIAS REFERENTES AO PROGRAMA NACIONAL DE ALIMENTACAO ESCOLAR  PNAE - PRINCIPAL                                                                                   A0600000000125000000000155200000000
171453000000000000000201000000580000000000025450840000TRANSFERENCIAS REFERENTES AO PROGRAMA NACIONAL DE APOIO AO TRANSPORTE DO ESCOLAR  PNATE                                                                                   S0500000000058000000000000000000000
171453010000000000000201000000580000000000025450840000TRANSFERENCIAS REFERENTES AO PROGRAMA NACIONAL DE APOIO AO TRANSPORTE DO ESCOLAR  PNATE                                                                                   A0600000000058000000000155300000000
171499000000000000000201000002070000000000000000000000OUTRAS TRANSFERENCIAS DIRETAS DO FUNDO NACIONAL DO DESENVOLVIMENTO DA EDUCACAO - FNDE                                                                                     S0500000000207000000000000000000000
171499010000000000000201000002070000000000000000000000OUTRAS TRANSFERENCIAS DIRETAS DO FUNDO NACIONAL DO DESENVOLVIMENTO DA EDUCACAO - FNDE                                                                                     S0600000000207000000000000000000000
171499010100000000000201000001350000000000000000000000NOVAS TURMAS FNDE                                                                                                                                                         A0700000000135000000000156900000000
171499010200000000000201000000720000000000000000000000ESCOLA TEMPO INTEGRAL                                                                                                                                                     A0700000000072000000000156900000000
171600000000000000000201000002110000000000120930990000TRANSFERENCIAS DE RECURSOS DO FUNDO NACIONAL DE ASSISTENCIA SOCIAL  FNAS                                                                                                  S0400000000211000000000000000000000
171650000000000000000201000002110000000000120930990000TRANSFERENCIAS DE RECURSOS DO FUNDO NACIONAL DE ASSISTENCIA SOCIAL  FNAS                                                                                                  S0500000000211000000000000000000000
171650010000000000000201000002110000000000120930990000TRANSFERENCIAS DE RECURSOS DO FUNDO NACIONAL DE ASSISTENCIA SOCIAL  FNAS                                                                                                  S0600000000211000000000000000000000
171650010200000000000201000001200000000000032496200000SCFV                                                                                                                                                                      A0700000000120000000000166000000000
171650010300000000000201000000470000000000028542770000PAIF                                                                                                                                                                      A0700000000047000000000166000000000
171650010400000000000201000000300000000000027376000000IGD/BF                                                                                                                                                                    A0700000000030000000000166000000000
171650010600000000000201000000140000000000006000000000PROCAD-SUAS                                                                                                                                                               A0700000000014000000000166000000000
171650010900000000000201000000000000000000026516020000INCREMENTO EXT TEMP PSB MP1218/24 2025                                                                                                                                    A0700000000000000000000166031010000
171700000000000000000201000000000000000000092964000000TRANSFERENCIAS DE CONVENIOS DA UNIAO E DE SUAS ENTIDADES                                                                                                                  S0400000000092964000000000000000000
171799000000000000000201000000000000000000092964000000OUTRAS TRANSFERENCIAS DE CONVENIOS DA UNIAO E DE SUAS ENTIDADES                                                                                                           S0500000000092964000000000000000000
171799010000000000000201000000000000000000092964000000OUTRAS TRANSFERENCIAS DE CONVENIOS DA UNIAO E DE SUAS ENTIDADES                                                                                                           S0600000000092964000000000000000000
171799010200000000000201000000000000000000092964000000ESTIAGEM PORT1163/2025 SNPDC                                                                                                                                              A0700000000092964000000174731010000
171900000000000000000201000001050000000000052266160000OUTRAS TRANSFERENCIAS DE RECURSOS DA UNIAO E DE SUAS ENTIDADES                                                                                                            S0400000000105000000000000000000000
171958000000000000000201000001050000000000052266160000TRANSFERENCIA OBRIGATORIA DECORRENTE DA LEI COMPLEMENTAR N 176/2020                                                                                                       S0500000000105000000000000000000000
171958010000000000000201000001050000000000052266160000TRANSFERENCIA OBRIGATORIA DECORRENTE DA LEI COMPLEMENTAR N 176/2020                                                                                                       A0600000000105000000000150100000000
172000000000000000000201000139276496000009713922910000TRANSFERENCIAS DOS ESTADOS E DO DISTRITO FEDERAL E DE SUAS ENTIDADES                                                                                                      S0300000014649990200000000000000000
172100000000000000000201000130236496000008486947420000PARTICIPACAO NA RECEITA DOS ESTADOS E DISTRITO FEDERAL                                                                                                                    S0400000013023649600000000000000000
172150000000000000000201000117406224000007517674300000COTA-PARTE DO ICMS                                                                                                                                                        S0500000011740622400000000000000000
172150010000000000000201000146757780000009397092930000COTA-PARTE DO ICMS                                                                                                                                                        A0600000014675778000000150000000000
172150010000000000000201-000293515560-0001879418630000COTA-PARTE DO ICMS                                                                                                                                                        A06105-0002935155600000150000000000
172151000000000000000201000011476080000000874572070000COTA-PARTE DO IPVA                                                                                                                                                        S0500000001147608000000000000000000
172151010000000000000201000014345100000001093215300000COTA-PARTE DO IPVA                                                                                                                                                        A0600000001434510000000150000000000
172151010000000000000201-000028690200-0000218643230000COTA-PARTE DO IPVA                                                                                                                                                        A06105-0000286902000000150000000000
172152000000000000000201000001284192000000087083190000COTA-PARTE DO IPI - MUNICIPIOS                                                                                                                                            S0500000000128419200000000000000000
172152010000000000000201000001605240000000108854030000COTA-PARTE DO IPI - MUNICIPIOS                                                                                                                                            A0600000000160524000000150000000000
172152010000000000000201-000003210480-0000021770840000COTA-PARTE DO IPI - MUNICIPIOS                                                                                                                                            A06105-0000032104800000150000000000
172153000000000000000201000000070000000000007617860000COTA-PARTE DA CONTRIBUICAO DE INTERVENCAO NO DOMINIO ECONOMICO                                                                                                            S0500000000007000000000000000000000
172153010000000000000201000000070000000000007617860000COTA-PARTE DA CONTRIBUICAO DE INTERVENCAO NO DOMINIO ECONOMICO                                                                                                            A0600000000007000000000175000000000
172300000000000000000201000005550000000000391364290000TRANSFERENCIAS DE RECURSOS DO SISTEMA UNICO DE SAUDE  SUS                                                                                                                 S0400000000677400000000000000000000
172350000000000000000201000005550000000000391364290000TRANSFERENCIAS DE RECURSOS DO SISTEMA UNICO DE SAUDE  SUS                                                                                                                 S0500000000677400000000000000000000
172350010000000000000201000005550000000000391364290000TRANSFERENCIAS DE RECURSOS DO SISTEMA UNICO DE SAUDE  SUS                                                                                                                 S0600000000677400000000000000000000
172350010100000000000201000002550000000000120774840000PIAPS - SOCIODEMOGRAFICO                                                                                                                                                  A0700000000255000000000162100000000
172350010200000000000201000002000000000000079180480000PIAPS - INCENTIVO APS                                                                                                                                                     A0700000000200000000000162100000000
172350010300000000000201000000500000000000023322000000PIAPS - PIM                                                                                                                                                               A0700000000050000000000162100000000
172350010400000000000201000000500000000000013111070000PIAPS - FARMACIA BASICA                                                                                                                                                   A0700000000050000000000162100000000
172350011000000000000201000000000000000000012575900000QUALIFICA VIGILANCIA RS/PORTSES-RS847/2024                                                                                                                                A0700000000000000000000162100000000
172350011100000000000201000000000000000000100000000000REFORMA UBS EMENDA RS EP 156 PORTSES-RS200/25                                                                                                                             A0700000000100000000000162132100000
172350011200000000000201000000000000000000002400000000PROTESE DENTARIA PORTSES 82/2024 E 110/2024                                                                                                                               A0700000000002400000000162100000000
172350011300000000000201000000000000000000040000000000INVERNO GAUCHO PORTSES322/2025                                                                                                                                            A0700000000020000000000162100000000
172400000000000000000201000003490000000000585611200000TRANSFERENCIAS DE CONVENIOS DOS ESTADOS E DF E DE SUAS ENTIDADES                                                                                                          S0400000000698940600000000000000000
172451000000000000000201000003150000000000208625970000TRANSFERENCIAS DE CONVENIOS DOS ESTADOS DESTINADAS A PROGRAMAS DE EDUCACAO                                                                                                S0500000000315000000000000000000000
172451010100000000000201000003150000000000208625970000TRANSFERENCIAS DE CONVENIOS PARA O TRANSPORTE ESCOLAR                                                                                                                     S0700000000315000000000000000000000
172451010101000000000201000003150000000000208625970000TE PEATE RS                                                                                                                                                               A0800000000315000000000157100000000
172499000000000000000201000000340000000000376985230000OUTRAS TRANSFERENCIAS DE CONVENIOS DOS ESTADOS E DF E DE SUAS ENTIDADES                                                                                                   S0500000000383940600000000000000000
172499010000000000000201000000340000000000376985230000OUTRAS TRANSFERENCIAS DE CONVENIOS DOS ESTADOS E DF E DE SUAS ENTIDADES - PRINCIPAL                                                                                       S0600000000383940600000000000000000
172499010300000000000201000000000000000000050000000000PROGRAMA DE ATENDIMENTO A CRIANCA                                                                                                                                         S0700000000050000000000000000000000
172499010301000000000201000000000000000000050000000000OFICINA ARTES/DANCAS CONV3910/2024-SJCDH/RS                                                                                                                               A0800000000050000000000170132100000
172499019900000000000201000000340000000000326985230000OUTRAS TRANSFERENCIAS DE CONVENIOS DOS ESTADOS E DF E DE SUAS ENTIDADES                                                                                                   S0700000000333940600000000000000000
172499019901000000000201000000330000000000027000000000PIT FE - PROGRAMA DE INTEGRACAO TRIBUTARIA                                                                                                                                A0800000000033000000000170100000000
172499019902000000000201000000010000000000000044630000COTA-PARTE DAS MULTAS DE TRANSITO - PRINCIPAL                                                                                                                             A0800000000001000000000175200000000
172499019908000000000201000000000000000000299940600000RECUPERACAO ESTRADAS VICINAIS CONVFPE334/2025                                                                                                                             A0800000000299940600000170132010000
172900000000000000000201000000000000000000250000000000OUTRAS TRANSFERENCIAS DOS ESTADOS E DISTRITO FEDERAL                                                                                                                      S0400000000250000000000000000000000
172999000000000000000201000000000000000000250000000000OUTRAS TRANSFERENCIAS DOS ESTADOS E DF                                                                                                                                    S0500000000250000000000000000000000
172999010000000000000201000000000000000000250000000000OUTRAS TRANSFERENCIAS DOS ESTADOS E DF - PRINCIPAL                                                                                                                        S0600000000250000000000000000000000
172999010100000000000201000000000000000000250000000000ESTIAGEM 2025 PORT007/SPDC/2025                                                                                                                                           A0700000000250000000000174832010000
175000000000000000000201000070068000000005063426940000TRANSFERENCIAS DE OUTRAS INSTITUICOES PUBLICAS                                                                                                                            S0300000007006800000000000000000000
175100000000000000000201000070068000000005063426940000TRANSFERENCIAS DE RECURSOS DO FUNDO DE MANUTENCAO E DESENVOLVIMENTO DA EDUCACAO BASICA E DE VALORIZACAO DOS PROFISSIONAIS DA EDUCACAO - FUNDEB                            S0400000007006800000000000000000000
175150000000000000000201000070068000000005063426940000TRANSFERENCIAS DE RECURSOS DO FUNDO DE MANUTENCAO E DESENVOLVIMENTO DA EDUCACAO BASICA E DE VALORIZACAO DOS PROFISSIONAIS DA EDUCACAO  FUNDEB                             S0500000007006800000000000000000000
175150010000000000000201000070068000000005063426940000TRANSFERENCIAS DE RECURSOS DO FUNDO DE MANUTENCAO E DESENVOLVIMENTO DA EDUCACAO BASICA E DE VALORIZACAO DOS PROFISSIONAIS DA EDUCACAO  FUNDEB                             S0600000007006800000000000000000000
175150010100000000000201000070068000000005063426940000TRANSFERENCIAS DO FUNDEB - IMPOSTOS E TRANSFERENCIAS DE IMPOSTOS                                                                                                          A0700000007006800000000154000000000
179000000000000000000201000000000000000000013165450000DEMAIS TRANSFERENCIAS CORRENTES                                                                                                                                           S0300000000000000000000000000000000
179100000000000000000201000000000000000000013165450000TRANSFERENCIAS DE PESSOAS FISICAS                                                                                                                                         S0400000000000000000000000000000000
179199000000000000000201000000000000000000013165450000OUTRAS TRANSFERENCIAS DE PESSOAS FISICAS                                                                                                                                  S0500000000000000000000000000000000
179199010100000000000201000000000000000000013165450000DOACOES EM BENEFICIO DE CRIANCAS E ADOLESCENTES - PF                                                                                                                      A0700000000000000000000175900000000
190000000000000000000201000002080000000000487384000000OUTRAS RECEITAS CORRENTES                                                                                                                                                 S0200000000301700000000000000000000
191000000000000000000201000000000000000000000300270000MULTAS ADMINISTRATIVAS CONTRATUAIS E JUDICIAIS                                                                                                                            S0300000000000000000000000000000000
191100000000000000000201000000000000000000000300270000MULTAS ADMINISTRATIVAS CONTRATUAIS E JUDICIAIS                                                                                                                            S0400000000000000000000000000000000
191101000000000000000201000000000000000000000300270000MULTAS PREVISTAS EM LEGISLACAO ESPECIFICA                                                                                                                                 S0500000000000000000000000000000000
191101100000000000000201000000000000000000000300270000MULTAS PREVISTAS NA LEGISLACAO SANITARIA                                                                                                                                  S0600000000000000000000000000000000
191101130000000000000201000000000000000000000507450000MULTA PREVISTA NA LEGISLACAO SANITARIA - DIVIDA ATIVA                                                                                                                     A0600000000000000000000150100000000
1911011300000000000002010000000000000-0000000207180000MULTA PREVISTA NA LEGISLACAO SANITARIA - DIVIDA ATIVA                                                                                                                     A0610300000000000000000150100000000
192000000000000000000201000002080000000000189945390000INDENIZACOES RESTITUICOES E RESSARCIMENTOS                                                                                                                                S0300000000208000000000000000000000
192100000000000000000201000000000000000000035812060000INDENIZACOES                                                                                                                                                              S0400000000000000000000000000000000
192101000000000000000201000000000000000000035279550000INDENIZACOES POR DANOS CAUSADOS AO PATRIMONIO PUBLICO                                                                                                                     S0500000000000000000000000000000000
192101010000000000000201000000000000000000035279550000INDENIZACOES POR DANOS CAUSADOS AO PATRIMONIO PUBLICO - PRINCIPAL                                                                                                         A0600000000000000000000150100000000
192199000000000000000201000000000000000000000532510000OUTRAS INDENIZACOES                                                                                                                                                       S0500000000000000000000000000000000
192199010000000000000201000000000000000000000532510000OUTRAS INDENIZACOES - PRINCIPAL                                                                                                                                           A0600000000000000000000150100000000
