87612826000190010120253108202510092025PREFEITURA MUNICIPAL INDEPENDENCIA                                              
100000000000000000000201000520642778300056535182510000Receitas Correntes                                                                                                                                                        S01000000000000000
110000000000000000000201000046740000000005240742690000Impostos Taxas e Contribuicoes de Melhoria                                                                                                                                S02000000000000000
111000000000000000000201000042760000000004791654190000Impostos                                                                                                                                                                  S03000000000000000
111200000000000000000201000020650000000002210999560000Impostos sobre o Patrimonio                                                                                                                                               S04000000000000000
111250000000000000000201000008150000000000792201340000Imposto sobre a Propriedade Predial e Territorial Urbana                                                                                                                  S05000000000000000
111250010000000000000201000006510000000000671022880000Imposto sobre a Propriedade Predial e Territorial Urbana  - PRINCIPAL                                                                                                     A06000000005000000
111250020000000000000201000000030000000000006034130000Imposto sobre a Propriedade Predial e Territorial Urbana - MULTAS E JUROS DE MORA                                                                                         A06000000005000000
111250030000000000000201000001200000000000086713310000Imposto sobre a Propriedade Predial e Territorial Urbana - DIVIDA ATIVA                                                                                                   A06000000005000000
111250040000000000000201000000410000000000028431020000Imposto sobre a Propriedade Predial e Territorial Urbana - MULTAS E JUROS DE MORA DIVIDA ATIVA                                                                            A06000000005000000
111253000000000000000201000012500000000001418798220000Impostos sobre Transmissao Inter Vivos de Bens Imoveis e de Direitos Reais sobre Imoveis                                                                                  S05000000000000000
111253010000000000000201000012500000000001418798220000Impostos sobre Transmissao Inter Vivos de Bens Imoveis e de Direitos Reais sobre Imoveis - PRINCIPAL                                                                      A06000000005000000
111300000000000000000201000013230000000001553158830000Impostos sobre a Renda e Proventos de Qualquer Natureza                                                                                                                   S04000000000000000
111303000000000000000201000013230000000001553158830000Imposto sobre a Renda - Retido na Fonte                                                                                                                                   S05000000000000000
111303100000000000000201000012450000000001405902760000Imposto sobre a Renda - Retido na Fonte - Trabalho                                                                                                                        S06000000000000000
111303110000000000000201000012450000000001405902760000Imposto sobre a Renda - Retido na Fonte - Trabalho - PRINCIPAL                                                                                                            S06000000000000000
111303110100000000000201000008680000000001074354230000IRRF SOBRE RENDIMENTOS DO TRABALHO - PREFEITURA                                                                                                                           A07000000005000000
111303110200000000000201000000550000000000041177930000IRRF SOBRE RENDIMENTOS DO TRABALHO - CAMARA                                                                                                                               A07000000005000000
111303110300000000000201000003220000000000286561450000IRRF SOBRE RENDIMENTOS DO TRABALHO - RPPS                                                                                                                                 A07000000005000000
111303110400000000000201000000000000000000003809150000IRRF COFRON                                                                                                                                                               A07000000005000000
111303400000000000000201000000780000000000147256070000Imposto sobre a Renda - Retido na Fonte - Outros Rendimentos                                                                                                              S06000000000000000
111303410000000000000201000000780000000000147256070000Imposto sobre a Renda - Retido na Fonte - Outros Rendimentos - PRINCIPAL                                                                                                  S06000000000000000
111303410100000000000201000000760000000000143797830000IRRF SOBRE OUTROS RENDIMENTOS - PREFEITURA                                                                                                                                A07000000005000000
111303410200000000000201000000010000000000000713180000IRRF SOBRE OUTROS RENDIMENTOS - CAMARA                                                                                                                                    A07000000005000000
111303410300000000000201000000010000000000001544270000IRRF SOBRE OUTROS RENDIMENTOS - RPPS                                                                                                                                      A07000000005000000
111303410400000000000201000000000000000000001200790000IRRF SOBRE CARTAO-COMBUSTIVEL                                                                                                                                             A07000000005000000
111400000000000000000201000008880000000001027495800000Impostos sobre a Producao e Circulacao de Mercadorias e Servicos                                                                                                          S04000000000000000
111451000000000000000201000008880000000001027495800000Impostos sobre Servicos                                                                                                                                                   S05000000000000000
111451100000000000000201000008880000000001027495800000Imposto sobre Servicos de Qualquer Natureza - ISSQN                                                                                                                       S06000000000000000
111451110000000000000201000008800000000001018869700000Imposto sobre Servicos de Qualquer Natureza - ISSQN - PRINCIPAL                                                                                                           A06000000005000000
111451120000000000000201000000050000000000005220490000Imposto sobre Servicos de Qualquer Natureza - ISSQN - MULTAS E JUROS DE MORA                                                                                              A06000000005000000
111451130000000000000201000000020000000000003101550000Imposto sobre Servicos de Qualquer Natureza - ISSQN  - DIVIDA ATIVA                                                                                                       A06000000005000000
111451140000000000000201000000010000000000000304060000Imposto sobre Servicos de Qualquer Natureza - ISSQN - MULTAS E JUROS DE MORA DIVIDA ATIVA                                                                                 A06000000005000000
112000000000000000000201000003980000000000414231890000Taxas                                                                                                                                                                     S03000000000000000
112100000000000000000201000000980000000000137903560000Taxas pelo Exercicio do Poder de Policia                                                                                                                                  S04000000000000000
112101000000000000000201000000950000000000126507640000Taxas de Inspecao Controle e Fiscalizacao                                                                                                                                 S05000000000000000
112101010000000000000201000000880000000000116518370000Taxas de Inspecao Controle e Fiscalizacao - PRINCIPAL                                                                                                                     S06000000000000000
112101010100000000000201000000470000000000062160630000Taxa De Vistoria - Principal                                                                                                                                              A07000000005010000
112101010200000000000201000000010000000000001008000000Taxa De Aprovacao De Loteamento/Fracionamento - Principal                                                                                                                 A07000000005010000
112101010300000000000201000000080000000000011135630000Taxa De Aprovacao De Projetos De Construcao Civil - Principal                                                                                                             A07000000005010000
112101010400000000000201000000070000000000009760000000Taxa De Licenca Ambiental - Principal                                                                                                                                     A07000000007590000
112101010500000000000201000000140000000000018798290000Taxa De Expediente - Principal                                                                                                                                            A07000000005010000
112101010600000000000201000000110000000000012801580000Alvara De Licenca E Localizacao - Principal                                                                                                                               A07000000005010000
112101010700000000000201000000000000000000000854240000Taxa De Servicos Cadastrais - Principal                                                                                                                                   A07000000005010000
112101020000000000000201000000000000000000000789970000Taxas de Inspecao Controle e Fiscalizacao  - MULTAS E JUROS DE MORA                                                                                                       S06000000000000000
112101020100000000000201000000000000000000000649800000Taxa De Vistoria - Multa E Juros De Mora                                                                                                                                  A07000000005010000
112101020400000000000201000000000000000000000094720000Taxa De Licenca Ambiental - Multa E Juros De Mora                                                                                                                         A07000000007590000
112101020600000000000201000000000000000000000004780000Alvara De Licenca E Localizacao - Multa De Juros De Mora                                                                                                                  A07000000005010000
112101020700000000000201000000000000000000000040670000Taxa De Servicos Cadastrais - Multa E Juros De Mora                                                                                                                       A07000000005010000
112101030000000000000201000000050000000000006196620000Taxas de Inspecao Controle e Fiscalizacao - DIVIDA ATIVA                                                                                                                  S06000000000000000
112101030100000000000201000000050000000000005948500000Taxa De Vistoria - Divida Ativa                                                                                                                                           A07000000005010000
112101030500000000000201000000000000000000000009000000Taxa De Expediente - Divida Ativa                                                                                                                                         A07000000005010000
112101030600000000000201000000000000000000000239120000Alvara De Licenca E Localizacao - Divida Ativa                                                                                                                            A07000000005010000
112101040000000000000201000000020000000000003002680000Taxas de Inspecao Controle e Fiscalizacao - MULTAS E JUROS DE MORA DIVIDA ATIVA                                                                                           S06000000000000000
112101040100000000000201000000020000000000002870390000Taxa De Vistoria - Multa E Juros De Mora Da Divida Ativa                                                                                                                  A07000000005010000
112101040500000000000201000000000000000000000007950000Taxa De Expediente - Multa E Juros De Mora Da Divida Ativa                                                                                                                A07000000005010000
112101040600000000000201000000000000000000000124340000Alvara De Licenca E Localizacao - Multa E Juros De Mora Da Divida Ativa                                                                                                   A07000000005010000
112150000000000000000201000000030000000000011395920000Taxa de Fiscalizacao de Vigilancia Sanitaria                                                                                                                              S05000000000000000
112150010000000000000201000000030000000000011317260000Taxa de Fiscalizacao de Vigilancia Sanitaria - PRINCIPAL                                                                                                                  A06000000005010000
112150020000000000000201000000000000000000000078660000Taxa de Fiscalizacao de Vigilancia Sanitaria  - MULTAS E JUROS DE MORA                                                                                                    A06000000005010000
112200000000000000000201000003000000000000276328330000Taxas pela Prestacao de Servicos                                                                                                                                          S04000000000000000
112201000000000000000201000000000000000000204278400000Taxas pela Prestacao de Servicos em Geral                                                                                                                                 S05000000000000000
112201010000000000000201000000000000000000204181810000Taxas pela Prestacao de Servicos em Geral - PRINCIPAL                                                                                                                     S06000000000000000
112201010100000000000201000000000000000000204181810000Taxa De Coleta De Lixo - Principal                                                                                                                                        A07000000005010000
112201030000000000000201000000000000000000000089090000Taxas pela Prestacao de Servicos em Geral - DIVIDA ATIVA                                                                                                                  S06000000000000000
112201030100000000000201000000000000000000000089090000Taxa De Coleta De Lixo - Divida Ativa                                                                                                                                     A07000000005010000
112201040000000000000201000000000000000000000007500000Taxas pela Prestacao de Servicos em Geral - MULTAS E JUROS DE MORA DIVIDA ATIVA                                                                                           S06000000000000000
112201040100000000000201000000000000000000000007500000Taxa De Coleta De Lixo - Multa E Juros De Mora Da Divida Ativa                                                                                                            A07000000005010000
112253000000000000000201000003000000000000072049930000Taxa pela Prestacao de Servicos de Limpeza Publica e Manejo de Residuos Solidos                                                                                           S05000000000000000
112253010000000000000201000003000000000000046746290000Taxa pela Prestacao de Servicos de Limpeza Publica e Manejo de Residuos Solidos - Principal                                                                               A06000000005010000
112253030000000000000201000000000000000000023665010000Taxa pela Prestacao de Servicos de Limpeza Publica e Manejo de Residuos Solidos - Divida Ativa                                                                            A06000000005010000
112253040000000000000201000000000000000000001638630000Taxa pela Prestacao de Servicos de Limpeza Publica e Manejo de Residuos Solidos - MJM da Divida Ativa                                                                     A06000000005010000
113000000000000000000201000000000000000000034856610000Contribuicao de Melhoria                                                                                                                                                  S03000000000000000
113100000000000000000201000000000000000000034856610000Contribuicao de Melhoria                                                                                                                                                  S04000000000000000
113153000000000000000201000000000000000000034856610000Contribuicao de Melhoria para Pavimentacao e Obras Complementares                                                                                                         S05000000000000000
113153010000000000000201000000000000000000034856610000Contribuicao de Melhoria para Pavimentacao e Obras Complementares - PRINCIPAL                                                                                             A06000000005010000
120000000000000000000201000018190500000001931648250000Contribuicoes                                                                                                                                                             S02000000000000000
121000000000000000000201000015190500000001631923650000Contribuicoes Sociais                                                                                                                                                     S03000000000000000
121500000000000000000201000015190500000001631923650000Contribuicoes para  Regimes Proprios de Previdencia e Sistema de Protecao Social                                                                                          S04000000000000000
121501000000000000000201000015190500000001631923650000Contribuicao do Servidor Civil                                                                                                                                            S05000000000000000
121501100000000000000201000014950000000001582861720000Contribuicao do Servidor Civil Ativo                                                                                                                                      S06000000000000000
121501110000000000005001000014950000000001582861720000Contribuicao do Servidor Civil Ativo - PRINCIPAL                                                                                                                          A06000000008000000
121501200000000000000201000000175500000000039572370000Contribuicao do Servidor Civil Inativo                                                                                                                                    S06000000000000000
121501210000000000005001000000175500000000039572370000Contribuicao do Servidor Civil Inativo - PRINCIPAL                                                                                                                        A06000000008000000
121501300000000000000201000000065000000000009489560000Contribuicao do Servidor Civil - Pensionistas                                                                                                                             S06000000000000000
121501310000000000005001000000065000000000009489560000Contribuicao do Servidor Civil - Pensionistas - PRINCIPAL                                                                                                                 A06000000008000000
124000000000000000000201000003000000000000299724600000Contribuicao para o Custeio do Servico de Iluminacao Publica                                                                                                              S03000000000000000
124100000000000000000201000003000000000000299724600000Contribuicao para o Custeio do Servico de Iluminacao Publica                                                                                                              S04000000000000000
124150000000000000000201000003000000000000299724600000Contribuicao para o Custeio do Servico de Iluminacao Publica                                                                                                              S05000000000000000
124150010000000000000201000003000000000000299724600000Contribuicao para o Custeio do Servico de Iluminacao Publica - PRINCIPAL                                                                                                  A06000000007510000
130000000000000000000201000037535000000004266184290000Receita Patrimonial                                                                                                                                                       S02000000000000000
131000000000000000000201000002600000000000291483190000Exploracao do Patrimonio Imobiliario do Estado                                                                                                                            S03000000000000000
131100000000000000000201000002600000000000291483190000Exploracao do Patrimonio Imobiliario do Estado                                                                                                                            S04000000000000000
131101000000000000000201000002600000000000291483190000Alugueis Arrendamentos Foros Laudemios Tarifas de Ocupacao                                                                                                                S05000000000000000
131101100000000000000201000002600000000000291483190000Alugueis e Arrendamentos                                                                                                                                                  S06000000000000000
131101110000000000000201000002600000000000291060930000Alugueis e Arrendamentos - PRINCIPAL                                                                                                                                      A06000000005010000
131101130000000000000201000000000000000000000228070000Alugueis e Arrendamentos - DIVIDA ATIVA                                                                                                                                   A06000000005010000
131101140000000000000201000000000000000000000194190000Alugueis e Arrendamentos - MULTA E JUROS DE MORA DA DIVIDA ATIVA                                                                                                          A06000000005010000
132000000000000000000201000034935000000003974701100000Valores Mobiliarios                                                                                                                                                       S03000000000000000
132100000000000000000201000034935000000003974701100000Juros e Correcoes Monetarias                                                                                                                                              S04000000000000000
132101000000000000000201000005750000000000911379450000Remuneracao de Depositos Bancarios                                                                                                                                        S05000000000000000
132101010000000000000201000005750000000000911379450000Remuneracao de Depositos Bancarios - PRINCIPAL                                                                                                                            S06000000000000000
132101010100000000000201000000250000000000322334590000Remuneracao de Depositos de Recursos Vinculados                                                                                                                           S07000000000000000
132101010102000000000201000000250000000000033570210000Remuneracao de Depositos  Bancarios de Recursos Vinculados - FUNDEB                                                                                                       S08000000000000000
132101010102010000000201000000250000000000033570210000RENDIMENTOS DO FUNDEB - IMPOSTOS E TRANSFERENCIAS DE IMPOSTOS                                                                                                             A10000000005400000
132101010103000000000201000000000000000000054896140000Remuneracao de Depositos  Bancarios de Recursos Vinculados - Fundo de Saude                                                                                               S08000000000000000
132101010103020000000201000000000000000000001606620000REND UBS AMIGA IDOSO PSES1097/2023                                                                                                                                        A10000000006210000
132101010103030000000201000000000000000000004926560000REND MATPERM PSES1098/2023                                                                                                                                                A10000000006210000
132101010103040000000201000000000000000000003470970000Rendimentos Atencao Basica Federal Rv4500                                                                                                                                 A10000000006000000
132101010103050000000201000000000000000000001094030000Rendimentos Visa Ff Rv4502                                                                                                                                                A10000000006000000
132101010103060000000201000000000000000000001310530000Rendimentos Assistencia Farmaceutica Ff Rv4503                                                                                                                            A10000000006000000
132101010103070000000201000000000000000000000247620000REND INCENTIVO VIGILANCIA EM SAUDE - CUSTEIO                                                                                                                              A10000000006000000
132101010103080000000201000000000000000000000400210000REND AUXILIO ENCHENTES APS PORT SES322/2024                                                                                                                               A10000000006213201
132101010103090000000201000000000000000000000180170000Rendimentos Farmacia Basica Fe Rv4050                                                                                                                                     A10000000006210000
132101010103100000000201000000000000000000002126040000REND REFORMA UBS PORT SES 369 E 653/24                                                                                                                                    A10000000006210000
132101010103110000000201000000000000000000000485140000REND DST PSES1099/2023                                                                                                                                                    A10000000006210000
132101010103120000000201000000000000000000000322620000REND ARBOVIROSES/ONDAS DE CALOR PORTSES150/2024                                                                                                                           A10000000006210000
132101010103130000000201000000000000000000004104460000REND VEICULO TRANSPORTE SANITARIO - EMENDA 151 - PORTSES160/24                                                                                                            A10000000006213210
132101010103170000000201000000000000000000000972350000REND ESTRUT ATENCAO PRIMARIA SAUDE INVEST                                                                                                                                 A10000000006013110
132101010103280000000201000000000000000000000000000000REND REDES SAUD/LINHAS CUIDADO DENGUE ZIKA CHIKINGUNYA                                                                                                                    A10000000006210000
132101010103290000000201000000000000000000004703470000REND INCREMENTO TEMP CUSTEIO AP PORT MS/GM 4358/2022                                                                                                                      A10000000006003110
132101010103300000000201000000000000000000000385650000REND TRANSFERENCIA FEDERAL PARA PISO DA ENFERMAGEM                                                                                                                        A10000000006050000
132101010103310000000201000000000000000000000888870000REND ALIENACAO DE BESN DA SAUDE                                                                                                                                           A10000000006590000
132101010103320000000201000000000000000000013372920000REND INCREMENTO TEMPORARIO CUSTEIO EMENDAINDIV28730001/2023                                                                                                               A10000000006003110
132101010103340000000201000000000000000000000982820000REND TRANSFORMACAO DIGITAL NO SUS                                                                                                                                         A10000000006000000
132101010103550000000201000000000000000000000725780000Rend Seg Aliment Nutric Saude Implementacao Rv4505                                                                                                                        A10000000006010000
132101010103580000000201000000000000000000000964560000Rend Covid-19 Saude Mental PortSes506/2020 Rv4011                                                                                                                         A10000000006210000
132101010103600000000201000000000000000000000825310000Rend Estrut/Adeq Assist Odont Aps Rv4505 Port Gm/Ms 3473/2020                                                                                                             A10000000006010000
132101010103610000000201000000000000000000003393120000Rend Estrut Atencao Basica Emenda 28620016 Port Ms/Gm 961/2020 Rv4505                                                                                                     A10000000006010000
132101010103770000000201000000000000000000000734520000Rend Emenda Relator 81000293 Veiculo Rv 4505 Port1687                                                                                                                     A10000000006010000
132101010103780000000201000000000000000000000181890000Rend Equip Odonto Psf/Ubs Rede Bem Cuidar Port Ses/Rs 395/2022 Rv4293                                                                                                     A10000000006320000
132101010103790000000201000000000000000000003334280000Rend Emenda 81000312 Incremento Temporario Custeio Atencao Primaria                                                                                                       A10000000006003110
132101010103800000000201000000000000000000000242930000Rend Estrut Rede Aps Port2090 Emenda Relator                                                                                                                              A10000000006010000
132101010103820000000201000000000000000000000039800000REND INCENTIVO P/ CONTROLE DA TUBERCULOSE PMCT                                                                                                                            A10000000006210000
132101010103830000000201000000000000000000000162280000Rendimentos Nota Fiscal Gaucha Programa Solidariedade Rv4300                                                                                                              A10000000006210000
132101010103840000000201000000000000000000002014340000Rend CASTRACAO DE ANIMAIS - PROJETO MELHORES AMIGOS CONVFPE4758/2022-SICDHAS                                                                                              A10000000006320000
132101010103850000000201000000000000000000000696280000Rend CONTRAP CASTRACAO DE ANIMAIS - PROJETO MELHORES AMIGOS CONVFPE4758/2022-SICDHAS                                                                                      A10000000005000000
132101010106000000000201000000000000000000000390290000Remuneracao de Depositos  Bancarios de Recursos Vinculados - Contribuicao de Intervencao no Dominio Economico - CIDE                                                      A08000000007500000
132101010107000000000201000000000000000000014215770000Remuneracao de Depositos  Bancarios de Recursos Vinculados - Fundo Nacional de Assistencia Social - FNAS                                                                  S08000000000000000
132101010107010000000201000000000000000000000587600000Rendimentos PAIF - Psb Pbfi Fmas Rv1064                                                                                                                                   A10000000006600000
132101010107020000000201000000000000000000000517940000Rendimentos SCFV - Psb Scfv Fmas Rv1021                                                                                                                                   A10000000006600000
132101010107030000000201000000000000000000001154190000Rendimentos Gbf Igd-Bf Rv1038                                                                                                                                             A10000000006600000
132101010107050000000201000000000000000000000765720000Rendimentos Oasf/Feas Rv1103                                                                                                                                              A10000000006650000
132101010107060000000201000000000000000000005245400000REND CONVENIO STDP-RS 2478/2023                                                                                                                                           A10000000006650000
132101010107080000000201000000000000000000000223020000Rend Covid-19/Suas Port Mc 751/2022 Rv1019                                                                                                                                A10000000006600000
132101010107110000000201000000000000000000000122530000REND PROCAD-SUAS                                                                                                                                                          A10000000006600000
132101010107120000000201000000000000000000004159990000REND CONVENIO STDP-RS 949/2023                                                                                                                                            A10000000006650000
132101010107130000000201000000000000000000001156070000REND-SIGTV- ESTRUT REDE SV SUAS-CUSTEIO                                                                                                                                   A10000000006603110
132101010107140000000201000000000000000000000253140000REND INCREMENTO TEMP PSB MP1218/24                                                                                                                                        A10000000006603101
132101010107150000000201000000000000000000000030170000REND FEAS PISO GAUCHO REGULAR                                                                                                                                             A10000000006610000
132101010108000000000201000000000000000000034101560000Remuneracao de Depositos  Bancarios de Recursos Vinculados - Fundo Nacional de Desenvolvimento da Educacao - FNDE                                                         S08000000000000000
132101010108010000000201000000000000000000001045570000Rendimentos Pnae                                                                                                                                                          A10000000005520000
132101010108020000000201000000000000000000006520260000Rendimentos Qse Rv1014                                                                                                                                                    A10000000005500000
132101010108030000000201000000000000000000000675510000Rendimentos Pnate Rv1016                                                                                                                                                  A10000000005530000
132101010108040000000201000000000000000000016934680000Rend Educ Inf Novas Turmas Rv1003                                                                                                                                         A10000000005690000
132101010108050000000201000000000000000000000291540000REND FNDE/PAR/MOBILIARIO 2023                                                                                                                                             A10000000005690000
132101010108060000000201000000000000000000008634000000REND ESCOLA TEMPO INTEGRAL                                                                                                                                                A10000000005690000
132101010199000000000201000000000000000000185160620000Remuneracao de Outros Depositos  Bancarios de Recursos Vinculados                                                                                                         S08000000000000000
132101010199010000000201000000000000000000006935530000Rendimentos Fmdma Rv1005                                                                                                                                                  A10000000007590000
132101010199020000000201000000000000000000007797200000Rend PAVIMENTA RS/ETAPA 2 70109 CONVENIO FPE 2023/5253                                                                                                                    A10000000007010000
132101010199030000000201000000000000000000006394470000Rend Contrap PAVIMENTA RS/ETAPA 2 70109 CONVENIO FPE 2023/5253                                                                                                            A10000000005000000
132101010199040000000201000000000000000000005174650000Rendimentos Ir Doacao Fundica Rv1050                                                                                                                                      A10000000007590000
132101010199050000000201000000000000000000008811370000REND INVESTIMENTO EMENIND 28610007                                                                                                                                        A10000000007063110
132101010199060000000201000000000000000000005124120000REND INVESTIMENTO EMENIND 30770001                                                                                                                                        A10000000007063110
132101010199070000000201000000000000000000007101490000REND INVESTIMENTO EMENIND 28620008                                                                                                                                        A10000000007063110
132101010199080000000201000000000000000000003124660000REND INVESTIMENTO EMENIND32980001                                                                                                                                         A10000000007063110
132101010199090000000201000000000000000000000407080000REND Pavimentacao Urbana SICONV917782/2021                                                                                                                                A10000000007000000
132101010199100000000201000000000000000000006983510000POUP Pavimentacao Urbana SICONV917782/2021                                                                                                                                A10000000007000000
132101010199110000000201000000000000000000000192350000Rend Pit Fe - Programa De Integracao Tributaria Rv1112                                                                                                                    A10000000007010000
132101010199130000000201000000000000000000000633920000POUP CONTRAP Pavimentacao Urbana SICONV917782/2021                                                                                                                        A10000000005000000
132101010199150000000201000000000000000000000741990000REND ESCAVACAO DE MICROACUDES - AVANCAR RS                                                                                                                                A10000000007010000
132101010199170000000201000000000000000000000145850000REND CUSTEIO EMENDIND32980001                                                                                                                                             A10000000007063110
132101010199180000000201000000000000000000000364630000REND INVESTIMENTO EMENDIND3666011                                                                                                                                         A10000000007063110
132101010199190000000201000000000000000000000729260000REND INVESTIMENTO EMENDIND24070001                                                                                                                                        A10000000007063110
132101010199200000000201000000000000000000018027110000Rend Pavimentacao Ecovilla Conv Fpe 456/2022 Fe                                                                                                                           A10000000007010000
132101010199210000000201000000000000000000009184400000Rend Pavimenta Rs Fe Rv1212                                                                                                                                               A10000000007010000
132101010199220000000201000000000000000000000472160000Rend Contrapartida Pavimenta Rs Fe Rv1212                                                                                                                                 A10000000005000000
132101010199250000000201000000000000000000001158640000Rend Transf Esp Paviment Cidade-Budel-Alegria Emend Ind 36660001 Rv1028                                                                                                   A10000000007003110
132101010199300000000201000000000000000000004913310000Rendimentos Peate Rs Rv1017                                                                                                                                               A10000000005710000
132101010199310000000201000000000000000000004562460000REND CONSTR POCO TUBULAR PROFUNDO PROG AVANCAR RS CONVFPE2268/22                                                                                                          A10000000007010000
132101010199320000000201000000000000000000004010260000Rend CIP                                                                                                                                                                  A10000000007510000
132101010199330000000201000000000000000000007216240000Rend FEP                                                                                                                                                                  A10000000007040000
132101010199370000000201000000000000000000009221710000REND PAV AREA INDUSTRIAL TRANSFESPEMENDAIND41210001 1030BR 70601                                                                                                          A10000000007063110
132101010199390000000201000000000000000000003992290000REND CONSTRUCAO DE CISTERNAS CONVFPE2411/2022                                                                                                                             A10000000007010000
132101010199400000000201000000000000000000003668590000REND LC195/22 LEI PAULO GUSTAVO ART5                                                                                                                                      A10000000007150000
132101010199410000000201000000000000000000001357780000REND LC195/22 LEI PAULO GUSTAVO ART8                                                                                                                                      A10000000007160000
132101010199440000000201000000000000000000000070020000REND CFEM-PRODUCAO MINERAL                                                                                                                                                A10000000007080000
132101010199450000000201000000000000000000020615940000REND PAVIMENTACAO ESTRADAS RURAIS EMENDA IMPOSITIVA 28610005/2023                                                                                                         A10000000007063110
132101010199460000000201000000000000000000003679840000REND COLHEDORA DE FORRAGENS CONV FPE 1447/2023-SDR/RS                                                                                                                     A10000000007010000
132101010199470000000201000000000000000000026708530000REND DEFESA CIVIL PORTCM19/2023                                                                                                                                           A10000000007490000
132101010199480000000201000000000000000000004630360000REND CONSTRUCAO DE PONTE COLONIA MEDEIROS-GIRUA                                                                                                                           A10000000007020000
132101010199490000000201000000000000000000000034800000REND MULTA DE TRANSITO                                                                                                                                                    A10000000007520000
132101010199500000000201000000000000000000000974100000REND INVESTIMENTO EMENDIND90480002                                                                                                                                        A10000000007063110
132101010200000000000201000005500000000000567085040000Remuneracao de Depositos de Recursos Nao Vinculados                                                                                                                       S07000000000000000
132101010299000000000201000005500000000000567085040000Remuneracao de Outros Depositos  Bancarios de Recursos Nao Vinculados                                                                                                     S08000000000000000
132101010299010000000201000001700000000000145697040000Rendimentos Poder Executivo - BB                                                                                                                                          A10000000005000000
132101010299020000000201000001000000000000096857270000Rendimentos Poder Executivo - Banrisul                                                                                                                                    A10000000005000000
132101010299050000000201000000300000000000059486680000Rendimentos Poder Legislativo - Banrisul                                                                                                                                  A10000000005000000
132101010299070000000201000002500000000000220008400000Rendimentos Poder Executivo - Sicredi                                                                                                                                     A10000000005000000
132101010299080000000201000000000000000000001194630000REND CONTRAP CONSTR POCO TUBULAR PROFUNDO PROG AVANCAR RS CONVFPE2268/22                                                                                                  A10000000005000000
132101010299100000000201000000000000000000028240600000REND FR501 BB                                                                                                                                                             A10000000005010000
132101010299120000000201000000000000000000002989120000Rendimentos FR502 Banrisul                                                                                                                                                A10000000005020000
132101010299140000000201000000000000000000000882280000REND CONTRAP CONVENIO STDP-RS 949/2023                                                                                                                                    A10000000005000000
132101010299160000000201000000000000000000001494770000REND CONTRAP COLHEDORA DE FORRAGENS CONV FPE 1447/2023-SDR/RS                                                                                                             A10000000005000000
132101010299170000000201000000000000000000001410960000REND CONTRAP CONVENIO STDP-RS 2478/2023                                                                                                                                   A10000000005000000
132101010299320000000201000000000000000000008823290000Rend Contrap Pavimentacao Ecovilla Conv Fpe 456/2022 Fe                                                                                                                   A10000000005000000
132101011500000000005001000000000000000000021959820000FPSM SICREDI TAXA SELIC FIC FIRF LP                                                                                                                                       A07000000008000000
132104000000000000000201000029185000000003063321650000Remuneracao dos Recursos do Regime Proprio de Previdencia Social - RPPS                                                                                                   S05000000000000000
132104010000000000000201000029185000000003063321650000Remuneracao dos Recursos do Regime Proprio de Previdencia Social - RPPS                                                                                                   S06000000000000000
132104010100000000005001000002320000000000198397090000FPSM CEF CAIXA BRASIL 2024 III TP RF                                                                                                                                      A07000000008000000
132104010200000000005001000004150000000000240483870000FPSM BB PREV RF IRF-M 1 TP                                                                                                                                                A07000000008000000
132104010300000000005001000000020000000000000000000000FPSM CAIXA FI BRASIL IDKA IPCA 2A TP RF LP                                                                                                                                A07000000008000000
132104010400000000005001000001400000000000186995920000FPSM SICREDI  FI INSTITUCIONAL RF IRF-M LP                                                                                                                                A07000000008000000
132104010500000000005001000000560000000000000000000000FPSM SICREDI FIC INSTITUCIONAL RF IMA-B                                                                                                                                   A07000000008000000
132104010600000000005001000003700000000000325911230000FPSM BB PREVID RF IMA-B 5 LP                                                                                                                                              A07000000008000000
132104010700000000005001000003520000000000304130460000FPSM BB PREV RF IDKA2 TP                                                                                                                                                  A07000000008000000
132104010800000000005001000003300000000000220603890000FPSM BB PREVID RF REFERENCIADO DI LP PERFIL                                                                                                                               A07000000008000000
132104010900000000005001000000500000000000027106400000REND TX ADM RPPS FPSM MOV 0050 3732-X/12116-9                                                                                                                             A07000000008020000
132104011000000000005001000005550000000000608249740000REND CEF FI BRASIL REFERENCIADO DI LP FPSM 0050 0521/006/00000295-1                                                                                                       A07000000008000000
132104011100000000005001000004165000000000665007830000FPSM SICREDI LIQUIDEZ EMPRESARIAL REF DI FI RF                                                                                                                            A07000000008000000
132104011200000000005001000000000000000000070395990000CEF FPSM FI BRASIL 2028 X TP RF                                                                                                                                           A07000000008000000
132104011300000000005001000000000000000000073617310000BANRISUL RPPS II FI RF - NTN-B 27                                                                                                                                         A07000000008000000
132104011400000000005001000000000000000000142421920000REND BB RF TP 2026 FPSM                                                                                                                                                   A07000000008000000
160000000000000000000201000000370000000000060007870000Receita de Servicos                                                                                                                                                       S02000000000000000
161000000000000000000201000000370000000000060007870000Servicos Administrativos e Comerciais Gerais                                                                                                                              S03000000000000000
161100000000000000000201000000370000000000060007870000Servicos Administrativos e Comerciais Gerais                                                                                                                              S04000000000000000
161101000000000000000201000000370000000000060007870000Servicos Administrativos e Comerciais Gerais Prestados por Entidades e Orgaos Publicos em Geral                                                                           S05000000000000000
161101010000000000000201000000370000000000058173250000Servicos Administrativos e Comerciais Gerais Prestados por Entidades e Orgaos Publicos em Geral - PRINCIPAL                                                               S06000000000000000
161101010100000000000201000000370000000000058173250000Servicos De Maquinas - Principal                                                                                                                                          A07000000005010000
161101020000000000000201000000000000000000000118700000SERVICOS ADMINISTRATIVOS E COMERCIAIS GERAIS PRESTADOS POR ENTIDADES E ORGAOS PUBLICOS EM GERAL - MULTA E JUROS DE MORA                                                   S06000000000000000
161101020100000000000201000000000000000000000118700000Servicos De Maquinas - Multa E Juros De Mora                                                                                                                              A07000000005010000
161101030000000000000201000000000000000000001603710000SERVICOS ADMINISTRATIVOS E COMERCIAIS GERAIS PRESTADOS POR ENTIDADES E ORGAOS PUBLICOS EM GERAL - DIVIDA ATIVA                                                            S06000000000000000
161101030100000000000201000000000000000000001603710000Servicos De Maquinas - Divida Ativa                                                                                                                                       A07000000005010000
161101040000000000000201000000000000000000000112210000SERVICOS ADMINISTRATIVOS E COMERCIAIS GERAIS PRESTADOS POR ENTIDADES E ORGAOS PUBLICOS EM GERAL - MULTA E JUROS DE MORA DA DIVIDA ATIVA                                   S06000000000000000
161101040100000000000201000000000000000000000112210000Servicos De Maquina - Multa E Juros Da Divida Ativa                                                                                                                       A07000000005010000
170000000000000000000201000414447278300044287745670000Transferencias Correntes                                                                                                                                                  S02000000000000000
171000000000000000000201000198585000000020670689750000Transferencias da Uniao e de suas Entidades                                                                                                                               S03000000000000000
171100000000000000000201000173300000000017398987900000Transferencias Decorrentes de Participacao na Receita da Uniao                                                                                                            S04000000000000000
171151000000000000000201000171000000000016917535540000Cota-Parte do Fundo de Participacao dos Municipios - FPM                                                                                                                  S05000000000000000
171151100000000000000201000155000000000015334476550000Cota-Parte do Fundo de Participacao dos Municipios - Cota Mensal                                                                                                          S06000000000000000
171151110000000000000201000155000000000015334476550000Cota-Parte do Fundo de Participacao dos Municipios - Cota Mensal                                                                                                          A06000000005000000
171151200000000000000201000016000000000001583058990000Cota-Parte do Fundo de Participacao dos Municipios - Cotas Extraordinarias                                                                                                S06000000000000000
171151210000000000000201000016000000000001583058990000Cota-Parte do Fundo de Participacao dos Municipios - Cotas Extraordinarias                                                                                                S06000000000000000
171151210100000000000201000006800000000000632894030000COTA-EXTRA DO FPM EM JULHO                                                                                                                                                A07000000005000000
171151210200000000000201000002000000000000276229630000COTA-EXTRA DO FPM EM SETEMBRO                                                                                                                                             A07000000005000000
171151210300000000000201000007200000000000673935330000COTA-EXTRA DO FPM EM DEZEMBRO                                                                                                                                             A07000000005000000
171152000000000000000201000002300000000000481452360000Cota-Parte do Imposto Sobre a Propriedade Territorial Rural                                                                                                               S05000000000000000
171152010000000000000201000002300000000000481452360000Cota-Parte do Imposto Sobre a Propriedade Territorial Rural                                                                                                               A06000000005000000
171200000000000000000201000001620000000000305857100000Transferencias das Compensacoes Financeiras pela Exploracao de Recursos Naturais                                                                                          S04000000000000000
171251000000000000000201000000000000000000001368190000Cota-parte da Compensacao Financeira pela Exploracao de Recursos Minerais - CFEM                                                                                          S05000000000000000
171251010000000000000201000000000000000000001368190000Cota-parte da Compensacao Financeira pela Exploracao de Recursos Minerais - CFEM                                                                                          A06000000007080000
171252000000000000000201000001620000000000304488910000Cota-parte da Compensacao Financeira pela Producao de Petroleo                                                                                                            S05000000000000000
171252400000000000000201000001620000000000304488910000Cota-Parte do Fundo Especial do Petroleo  FEP                                                                                                                             S06000000000000000
171252410000000000000201000001620000000000304488910000Cota-Parte do Fundo Especial do Petroleo  FEP                                                                                                                             A06000000007040000
171300000000000000000201000014470000000001789177010000Transferencias de Recursos do Sistema Unico de Saude  SUS                                                                                                                 S04000000000000000
171350000000000000000201000014470000000001789177010000Transferencias de Recursos do Sistema Unico de Saude  SUS  Repasses Fundo a Fundo - Bloco de Manutencao das Acoes e Servicos Publicos de Saude                            S05000000000000000
171350100000000000000201000013020000000001509442480000Transferencias de Recursos do Bloco de Manutencao das Acoes e Servicos Publicos de Saude  Atencao Primaria                                                                S06000000000000000
171350110000000000000201000013020000000001509442480000Transferencias de Recursos do Bloco de Manutencao das Acoes e Servicos Publicos de Saude  Atencao Primaria                                                                S06000000000000000
171350110100000000000201000003380000000000587392000000TRANSFERENCIA FEDERAL PARA O PISO DOS ACS                                                                                                                                 A07000000006040000
171350110200000000000201000009640000000000922050480000Piso da Atencao Primaria em Saude                                                                                                                                         A07000000006000000
171350200000000000000201000000090000000000008829960000Transferencias de Recursos do Bloco de Manutencao das Acoes e Servicos Publicos de Saude  Atencao Especializada                                                           S06000000000000000
171350210000000000000201000000090000000000008829960000Transferencias de Recursos do Bloco de Manutencao das Acoes e Servicos Publicos de Saude  Atencao Especializada                                                           S06000000000000000
171350210100000000000201000000090000000000008829960000MAC Atencao Especializada                                                                                                                                                 A07000000006000000
171350300000000000000201000000830000000000143887210000Transferencias de Recursos do Bloco de Manutencao das Acoes e Servicos Publicos de Saude  Vigilancia em Saude                                                             S06000000000000000
171350310000000000000201000000830000000000143887210000Transferencias de Recursos do Bloco de Manutencao das Acoes e Servicos Publicos de Saude  Vigilancia em Saude                                                             S06000000000000000
171350310100000000000201000000830000000000067460000000TRANSFERENCIA FEDERAL PARA O PISO DOS ACE                                                                                                                                 A07000000006040000
171350310200000000000201000000000000000000012000000000Viglancia Sanitaria                                                                                                                                                       A07000000006000000
171350310300000000000201000000000000000000064427210000INCENTIVO VIGILANCIA EM SAUDE - CUSTEIO                                                                                                                                   A07000000006000000
171350400000000000000201000000530000000000059267930000Transferencias de Recursos do Bloco de Manutencao das Acoes e Servicos Publicos de Saude  Assistencia Farmaceutica                                                        S06000000000000000
171350410000000000000201000000530000000000059267930000Transferencias de Recursos do Bloco de Manutencao das Acoes e Servicos Publicos de Saude  Assistencia Farmaceutica                                                        S06000000000000000
171350410100000000000201000000530000000000059267930000Farmacia Basica                                                                                                                                                           A07000000006000000
171350500000000000000201000000000000000000067749430000Transferencias de Recursos do Bloco de Manutencao das Acoes e Servicos Publicos de Saude  Gestao do SUS                                                                   S06000000000000000
171350510000000000000201000000000000000000067749430000Transferencias de Recursos do Bloco de Manutencao das Acoes e Servicos Publicos de Saude  Gestao do SUS                                                                   S06000000000000000
171350510100000000000201000000000000000000049224630000TRANSFERENCIA FEDERAL PARA PISO DA ENFERMAGEM                                                                                                                             A07000000006050000
171350510200000000000201000000000000000000018524800000TRANSFORMACAO DIGITAL NO SUS                                                                                                                                              A07000000006000000
171400000000000000000201000006040000000000797358970000Transferencias de Recursos do Fundo Nacional do Desenvolvimento da Educacao  FNDE                                                                                         S04000000000000000
171450000000000000000201000004400000000000414146150000Transferencias do?Salario-Educacao                                                                                                                                        S05000000000000000
171450010000000000000201000004400000000000414146150000TRANSFERENCIAS DO?SALARIO-EDUCACAO                                                                                                                                        A06000000005500000
171452000000000000000201000001060000000000125397800000Transferencias referentes ao Programa Nacional de Alimentacao Escolar  PNAE                                                                                               S05000000000000000
171452010000000000000201000001060000000000125397800000Transferencias referentes ao Programa Nacional de Alimentacao Escolar  PNAE - PRINCIPAL                                                                                   A06000000005520000
171453000000000000000201000000580000000000050510460000Transferencias referentes ao Programa Nacional de Apoio ao Transporte do Escolar  PNATE                                                                                   S05000000000000000
171453010000000000000201000000580000000000050510460000Transferencias referentes ao Programa Nacional de Apoio ao Transporte do Escolar  PNATE                                                                                   A06000000005530000
171499000000000000000201000000000000000000207304560000Outras Transferencias Diretas do Fundo Nacional do Desenvolvimento da Educacao - FNDE                                                                                     S05000000000000000
171499010000000000000201000000000000000000207304560000Outras Transferencias Diretas do Fundo Nacional do Desenvolvimento da Educacao - FNDE                                                                                     S06000000000000000
171499010100000000000201000000000000000000135458000000NOVAS TURMAS FNDE                                                                                                                                                         A07000000005690000
171499010200000000000201000000000000000000071846560000ESCOLA TEMPO INTEGRAL                                                                                                                                                     A07000000005690000
171600000000000000000201000002105000000000259200850000Transferencias de Recursos do Fundo Nacional de Assistencia Social  FNAS                                                                                                  S04000000000000000
171650000000000000000201000002105000000000259200850000Transferencias de Recursos do Fundo Nacional de Assistencia Social  FNAS                                                                                                  S05000000000000000
171650010000000000000201000002105000000000259200850000Transferencias de Recursos do Fundo Nacional de Assistencia Social  FNAS                                                                                                  S06000000000000000
171650010200000000000201000001200000000000054160140000SCFV                                                                                                                                                                      A07000000006600000
171650010300000000000201000000470000000000049038030000PAIF                                                                                                                                                                      A07000000006600000
171650010400000000000201000000300000000000035800000000IGD/BF                                                                                                                                                                    A07000000006600000
171650010600000000000201000000135000000000000000000000PROCAD-SUAS                                                                                                                                                               A07000000006600000
171650010700000000000201000000000000000000100000000000SIGTV- ESTRUT REDE SV SUAS-CUSTEIO                                                                                                                                        A07000000006603110
171650010800000000000201000000000000000000020202680000INCREMENTO TEMP PSB MP1218/24                                                                                                                                             A07000000006603101
171900000000000000000201000001050000000000120107920000Outras Transferencias de Recursos da Uniao e de suas Entidades                                                                                                            S04000000000000000
171957000000000000000201000000000000000000040000000000Transferencia Especial da Uniao                                                                                                                                           S05000000000000000
171957010000000000000201000000000000000000040000000000Transferencia Especial da Uniao                                                                                                                                           S06000000000000000
171957010100000000000201000000000000000000040000000000CUSTEIO EMENDIND32980001                                                                                                                                                  A07000000007063110
171958000000000000000201000001050000000000080107920000Transferencia Obrigatoria Decorrente da Lei Complementar n 176/2020                                                                                                       S05000000000000000
171958010000000000000201000001050000000000080107920000Transferencia Obrigatoria Decorrente da Lei Complementar n 176/2020                                                                                                       A06000000005010000
172000000000000000000201000160662278300016803035300000Transferencias dos Estados e do Distrito Federal e de suas Entidades                                                                                                      S03000000000000000
172100000000000000000201000151490000000015681090440000Participacao na Receita dos Estados e Distrito Federal                                                                                                                    S04000000000000000
172150000000000000000201000136000000000014099839090000Cota-Parte do ICMS                                                                                                                                                        S05000000000000000
172150010000000000000201000136000000000014099839090000Cota-Parte do ICMS                                                                                                                                                        A06000000005000000
172151000000000000000201000013860000000001391896940000Cota-Parte do IPVA                                                                                                                                                        S05000000000000000
172151010000000000000201000013860000000001391896940000Cota-Parte do IPVA                                                                                                                                                        A06000000005000000
172152000000000000000201000001560000000000178221590000Cota-Parte do IPI - Municipios                                                                                                                                            S05000000000000000
172152010000000000000201000001560000000000178221590000Cota-Parte do IPI - Municipios                                                                                                                                            A06000000005000000
172153000000000000000201000000070000000000011132820000Cota-Parte da Contribuicao de Intervencao no Dominio Economico                                                                                                            S05000000000000000
172153010000000000000201000000070000000000011132820000Cota-Parte da Contribuicao de Intervencao no Dominio Economico                                                                                                            A06000000007500000
172300000000000000000201000005550000000000543293650000Transferencias de Recursos do Sistema Unico de Saude  SUS                                                                                                                 S04000000000000000
172350000000000000000201000005550000000000543293650000Transferencias de Recursos do Sistema Unico de Saude  SUS                                                                                                                 S05000000000000000
172350010000000000000201000005550000000000543293650000Transferencias de Recursos do Sistema Unico de Saude  SUS                                                                                                                 S06000000000000000
172350010100000000000201000002550000000000174925020000PIAPS - Sociodemografico                                                                                                                                                  A07000000006210000
172350010200000000000201000002000000000000107755850000PIAPS - Incentivo APS                                                                                                                                                     A07000000006210000
172350010300000000000201000000500000000000029003000000PIAPS - PIM                                                                                                                                                               A07000000006210000
172350010400000000000201000000500000000000014526820000PIAPS - Farmacia Basica                                                                                                                                                   A07000000006210000
172350010500000000000201000000000000000000004615980000PROGRAMA SOLIDARIEDADE NFG RV 062110                                                                                                                                      A07000000006210000
172350010700000000000201000000000000000000000600000000INCENTIVO P/ CONTROLE DA TUBERCULOSE PMCT                                                                                                                                 A07000000006210000
172350010800000000000201000000000000000000025000000000ARBOVIROSES/ONDAS DE CALOR PORTSES150/2024                                                                                                                                A07000000006210000
172350010900000000000201000000000000000000015879000000AUXILIO ENCHENTES APS PORT SES322/2024                                                                                                                                    A07000000006213201
172350011000000000000201000000000000000000170427980000REFORMA UBS PORT SES 369 E 653/24                                                                                                                                         A07000000006210000
172350011100000000000201000000000000000000000560000000PROTESE DENTARIA PORTSES 82/2024 E 110/2024                                                                                                                               A07000000006210000
172400000000000000000201000003622278300000372323970000Transferencias de Convenios dos Estados e DF e de Suas Entidades                                                                                                          S04000000000000000
172451000000000000000201000003150000000000279025300000Transferencias de Convenios dos Estados Destinadas a Programas de Educacao                                                                                                S05000000000000000
172451010100000000000201000003150000000000279025300000Transferencias de Convenios para o Transporte Escolar                                                                                                                     S07000000000000000
172451010101000000000201000003150000000000279025300000TE Peate RS                                                                                                                                                               A08000000005710000
172499000000000000000201000000472278300000093298670000Outras Transferencias de Convenios dos Estados e DF e de Suas Entidades                                                                                                   S05000000000000000
172499010000000000000201000000472278300000093298670000Outras Transferencias de Convenios dos Estados e DF e de Suas Entidades - PRINCIPAL                                                                                       S06000000000000000
172499010200000000000201000000041252900000000000000000Revisao de Beneficios de Prestacao Continuada - BPC                                                                                                                       A07000000006650000
172499010700000000000201000000096025400000009602540000Programa OASF - Orientacao e Apoio Socio-Familiar                                                                                                                         A07000000006650000
172499019900000000000201000000335000000000083696130000Outras Transferencias de Convenios dos Estados e DF e de Suas Entidades                                                                                                   S07000000000000000
172499019901000000000201000000330000000000033000000000PIT FE - PROGRAMA DE INTEGRACAO TRIBUTARIA                                                                                                                                A08000000007010000
172499019902000000000201000000005000000000000696130000Cota-Parte Das Multas De Transito - Principal                                                                                                                             A08000000007520000
172499019907000000000201000000000000000000050000000000CONVENIO STDP-RS 949/2023                                                                                                                                                 A08000000006650000
172900000000000000000201000000000000000000206327240000Outras Transferencias dos Estados e Distrito Federal                                                                                                                      S04000000000000000
172951000000000000000201000000000000000000022973950000Transferencias de Estados destinadas a Assistencia Social                                                                                                                 S05000000000000000
172951010000000000000201000000000000000000022973950000Transferencias de Estados destinadas a Assistencia Social                                                                                                                 S06000000000000000
172951010200000000000201000000000000000000022973950000FEAS PISO GAUCHO REGULAR                                                                                                                                                  A07000000006610000
172953000000000000000201000000000000000000183353290000Cota-parte de compensacoes de impostos                                                                                                                                    S05000000000000000
172953010000000000000201000000000000000000183353290000Cota-parte de compensacoes de impostos - Principal                                                                                                                        S06000000000000000
172953010100000000000201000000000000000000183353290000Cota-parte Perdas 0502 ICMS LC 194/2022                                                                                                                                   A07000000005020000
174000000000000000000201000000000000000000037000000000Transferencias de Instituicoes Privadas                                                                                                                                   S03000000000000000
174100000000000000000201000000000000000000037000000000Transferencias de Instituicoes Privadas                                                                                                                                   S04000000000000000
174199000000000000000201000000000000000000037000000000Outras Transferencias de Instituicoes Privadas                                                                                                                            S05000000000000000
174199010100000000000201000000000000000000037000000000Doacoes em Beneficio de Criancas e Adolescentes - PJ                                                                                                                      A07000000007590000
175000000000000000000201000055200000000006729745720000Transferencias de Outras Instituicoes Publicas                                                                                                                            S03000000000000000
175100000000000000000201000055200000000006729745720000Transferencias de Recursos do Fundo de Manutencao e Desenvolvimento da Educacao Basica e de Valorizacao dos Profissionais da Educacao - FUNDEB                            S04000000000000000
175150000000000000000201000055200000000006729745720000Transferencias de Recursos do Fundo de Manutencao e Desenvolvimento da Educacao Basica e de Valorizacao dos Profissionais da Educacao  FUNDEB                             S05000000000000000
175150010000000000000201000055200000000006729745720000Transferencias de Recursos do Fundo de Manutencao e Desenvolvimento da Educacao Basica e de Valorizacao dos Profissionais da Educacao  FUNDEB                             S06000000000000000
175150010100000000000201000055200000000006729745720000TRANSFERENCIAS DO FUNDEB - IMPOSTOS E TRANSFERENCIAS DE IMPOSTOS                                                                                                          A07000000005400000
179000000000000000000201000000000000000000047274900000Demais Transferencias Correntes                                                                                                                                           S03000000000000000
179100000000000000000201000000000000000000047274900000Transferencias de Pessoas Fisicas                                                                                                                                         S04000000000000000
179199000000000000000201000000000000000000047274900000Outras Transferencias de Pessoas Fisicas                                                                                                                                  S05000000000000000
179199010100000000000201000000000000000000047274900000Doacoes em Beneficio de Criancas e Adolescentes - PF                                                                                                                      A07000000007590000
190000000000000000000201000003360000000000748853740000Outras Receitas Correntes                                                                                                                                                 S02000000000000000
192000000000000000000201000001960000000000237265360000Indenizacoes Restituicoes e Ressarcimentos                                                                                                                                S03000000000000000
192100000000000000000201000000000000000000039445280000Indenizacoes                                                                                                                                                              S04000000000000000
192101000000000000000201000000000000000000009445280000Indenizacoes por Danos Causados ao Patrimonio Publico                                                                                                                     S05000000000000000
192101010000000000000201000000000000000000009445280000Indenizacoes por Danos Causados ao Patrimonio Publico - PRINCIPAL                                                                                                         A06000000005010000
192199000000000000000201000000000000000000030000000000Outras Indenizacoes                                                                                                                                                       S05000000000000000
192199010000000000000201000000000000000000030000000000Outras Indenizacoes - PRINCIPAL                                                                                                                                           A06000000005010000
192200000000000000000201000001960000000000197820080000Restituicoes                                                                                                                                                              S04000000000000000
192201000000000000000201000000000000000000002592370000Restituicao de Convenios                                                                                                                                                  S05000000000000000
192201100000000000000201000000000000000000002592370000Restituicao de Convenios - Primarias                                                                                                                                      S06000000000000000
192201110000000000000201000000000000000000002592370000Restituicao de Convenios - Primarias - PRINCIPAL                                                                                                                          A06000000005010000
192202000000000000000201000001200000000000118943620000Restituicao de Beneficios Nao Desembolsados                                                                                                                               S05000000000000000
192202010000000000000201000001200000000000118943620000Restituicao de Beneficios Nao Desembolsados - PRINCIPAL                                                                                                                   S06000000000000000
192202010100000000000201000001200000000000118943620000Participacao Dos Servidores No Auxilio-Alimentacao - Principal                                                                                                            A07000000005010000
192206000000000000000201000000000000000000002430570000Restituicao de Despesas de Exercicios Anteriores                                                                                                                          S05000000000000000
192206300000000000000201000000000000000000002430570000Restituicao de Despesas Primarias de Exercicios Anteriores                                                                                                                S06000000000000000
192206310000000000000201000000000000000000002430570000Restituicao de Despesas Primarias de Exercicios Anteriores - PRINCIPAL                                                                                                    A06000000005010000
192299000000000000000201000000760000000000073853520000Outras Restituicoes                                                                                                                                                       S05000000000000000
192299010000000000000201000000760000000000073606120000OUTRAS RESTITUICOES - PRINCIPAL                                                                                                                                           S06000000000000000
192299010200000000000201000000760000000000073606120000PROGRAMA TROCA-TROCA - PRINCIPAL                                                                                                                                          A07000000005010000
192299020000000000000201000000000000000000000247400000OUTRAS RESTITUICOES - MULTA E JUROS DE MORA                                                                                                                               S06000000000000000
192299020100000000000201000000000000000000000247400000Programa Troca-Troca - Multas E Juros De Mora                                                                                                                             A07000000005010000
193000000000000000000201000000000000000000040824000000Bens Direitos e Valores Incorporados ao Patrimonio Publico                                                                                                                S03000000000000000
193100000000000000000201000000000000000000040824000000Bens Direitos e Valores Incorporados ao Patrimonio Publico                                                                                                                S04000000000000000
193105000000000000000201000000000000000000040824000000Receitas Reconhecidas por Forca de Decisoes Judiciais e de Tribunais Administrativos                                                                                      S05000000000000000
193105010000000000000201000000000000000000040824000000Receitas Reconhecidas por Forca de Decisoes Judiciais e de Tribunais Administrativos - PRINCIPAL                                                                          A06000000005010000
199000000000000000000201000001400000000000470764380000Demais Receitas Correntes                                                                                                                                                 S03000000000000000
199900000000000000000201000001400000000000470764380000Outras Receitas Correntes                                                                                                                                                 S04000000000000000
199903000000000000000201000000000000000000146753360000Compensacoes Financeiras entre os Regimes de Previdencia                                                                                                                  S05000000000000000
199903010000000000000201000000000000000000146753360000Compensacoes Financeiras entre os Regimes de Previdencia - PRINCIPAL                                                                                                      S06000000000000000
199903010100000000005001000000000000000000001060860000COMPENSACAO PREVIDENCIARIA RECEBIDO DO RPPS DE TRES DE MAIO RS                                                                                                            A07000000008000000
199903010200000000005001000000000000000000145692500000COMPENSACAO PREVIDENCIARIA RECEBIDA DO RGPS INSS                                                                                                                          A07000000008000000
199999000000000000000201000001400000000000324011020000Outras Receitas                                                                                                                                                           S05000000000000000
199999200000000000000201000000000000000000000000700000Outras Receitas Nao Arrecadadas e Nao Projetadas pela RFB - Primarias                                                                                                     S06000000000000000
199999210000000000000201000000000000000000000000700000Outras Receitas Nao Arrecadadas e Nao Projetadas pela RFB - Primarias - PRINCIPAL                                                                                         S06000000000000000
199999219900000000000201000000000000000000000000700000Outras Receitas Nao Arrecadadas e Nao Projetadas pela RFB - Primarias                                                                                                     S07000000000000000
199999219901000000000201000000000000000000000000700000AJUSTE POR DIFERENCA ENTRE RETENCOES PREVIDENCIARIA E A DARF DA DCTFWEB                                                                                                   A08000000005010000
199999300000000000000201000001400000000000324010320000Outras Receitas Nao Arrecadadas e Nao Projetadas pela RFB - Financeiras                                                                                                   S06000000000000000
199999310000000000000201000001400000000000324010320000OUTRAS RECEITAS NAO ARRECADADAS E NAO PROJETADAS PELA RFB - FINANCEIRAS - PRINCIPAL                                                                                       S06000000000000000
199999310100000000000201000001400000000000324010320000DESCONTOS FINANCEIROS RECEBIDOS - PRINCIPAL                                                                                                                               A07000000005010000
200000000000000000000201000007164620000002213441290000Receitas de Capital                                                                                                                                                       S01000000000000000
240000000000000000000201000007164620000002213441290000Transferencias de Capital                                                                                                                                                 S02000000000000000
241000000000000000000201000007164620000001788855000000Transferencias da Uniao e de suas Entidades                                                                                                                               S03000000000000000
241100000000000000000201000000000000000000250000000000Transferencias de Recursos do Sistema Unico de Saude - SUS                                                                                                                S04000000000000000
241151000000000000000201000000000000000000250000000000Transferencias de Recursos do Sistema Unico de Saude  SUS - Fundo a Fundo - Bloco de Estruturacao da Rede de Servicos Publicos de Saude                                   S05000000000000000
241151110000000000000201000000000000000000250000000000Transferencias de Recursos do Bloco de Estruturacao da Rede de Servicos Publicos de Saude - Atencao Primaria                                                              S06000000000000000
241151110100000000000201000000000000000000250000000000ESTRUT ATENCAO PRIMARIA SAUDE INVEST                                                                                                                                      A07000000006013110
241400000000000000000201000007164620000000998856000000Transferencias de Convenios da Uniao e de suas Entidades                                                                                                                  S04000000000000000
241499000000000000000201000007164620000000998856000000Outras Transferencias de Convenios da Uniao e de Suas Entidades                                                                                                           S05000000000000000
241499010000000000000201000007164620000000998856000000Outras Transferencias de Convenios da Uniao e de Suas Entidades                                                                                                           S06000000000000000
241499010100000000000201000002388560000000238856000000Pavimentacao Urbana SICONV917782/2021                                                                                                                                     A07000000007000000
241499010200000000000201000002388560000000000000000000PAVIMENTACAO URBANA SICONV917495/2021                                                                                                                                     A07000000007000000
241499010300000000000201000002387500000000000000000000PAV ESTR VICINAIS SICONVPROP018872/2023                                                                                                                                   A07000000007000000
241499010400000000000201000000000000000000250000000000INVESTIMENTO EMENIND 28610007                                                                                                                                             A07000000007063110
241499010500000000000201000000000000000000150000000000INVESTIMENTO EMENIND 30770001                                                                                                                                             A07000000007063110
241499010600000000000201000000000000000000250000000000INVESTIMENTO EMENIND 28620008                                                                                                                                             A07000000007063110
