87612826000190010120253108202510092025PREFEITURA MUNICIPAL INDEPENDENCIA                                              
0201041210001000021323190110100000000000000031849540000386833400004076620000040831590000440857100003396119000031849540000386833400004076620000040831590000440857100003396119000031849540000386833400004076620000040831590000440857100003396119000005000000
0201041210001000021323190113700000000000000000104240000001563700000020850000000208500000002085000000020850000000104240000001563700000020850000000208500000002085000000020850000000104240000001563700000020850000000208500000002085000000020850000005000000
0201041210001000021323190114200000000000000000000000000000000000000000000000000000000000065920000001851873000000000000000000000000000000000000000000000000065920000001851873000000000000000000000000000000000000000000000000065920000001851873000005000000
0201041210001000021323190114300000000000000000000000000012448200000000000000000000000000037080000001949443000000000000000012448200000000000000000000000000037080000001949443000000000000000012448200000000000000000000000000037080000001949443000005000000
0201041210001000021323190114500000000000000002630540000016597600000000000000000276630000002766300000663118000002630540000016597600000000000000000276630000002766300000663118000002630540000016597600000000000000000276630000002766300000663118000005000000
0201041210001000021323190117400000000000000009888000000098880000000988800000007580800000060976000000712167000009888000000098880000000988800000007580800000060976000000712167000009888000000098880000000988800000007580800000060976000000712167000005000000
0201041210001000021323190130201000000000000002810400000028103300000268248000002505590000029986900000265089000002810400000028103300000268248000002505590000029986900000265089000001469170000026824600000281033000002588720000026242400000428346000005000000
0201041210001000021323190164499001000000000000000000000001563700000000000000000051990000000000000000000000000000000000000001563700000000000000000051990000000000000000000000000000000000000001563700000000000000000051990000000000000000000000000005000000
0201041210001000021323191130800000000000000001962600000029995000000336924000003369250000033692400000491492000001962600000029995000000336924000003369250000033692400000491492000000842310000024351700000336924000003369240000033692600000659953000005000000
0201041210001000021323191132000000000000000002943930000044993000000505388000005053880000050538600000510226000002943930000044993000000505388000005053880000050538600000510226000001263460000036528300000505388000005053880000050538700000762919000005000000
0201041210001000021323390141400000000000000000000000000047290400000024712-00000061780000005223300000000000000000000000000047290400000024712-00000061780000005223300000000000000000000000000047290400000024712-00000061780000005223300000000000000005000000
02010412100010000213233903016000000000000000007563000000002600000000000000000000000000000124878-0000019250000000447900000001159000000002600000000000000000012487800000000000000000447900000001159000000002600000000000000000012487800000000000000005000000
0201041210001000021323390302400000000000000000000000000008000000000000000000000000000000000000000000000000000000000000000008000000000000000000000000000000000000000000000000000000000000000008000000000000000000000000000000000000000000000000000005000000
0201041210001000021323390302500000000000000000000000000000000000000000000000000000000000000000000000029000000000000000000000000000000000000000000000000000000000000000000000000000000000000000000000000000000000000000000000000000000000000000000005000000
0201041210001000021323390304200000000000000000000000000000000000000000000000000000000000003980000000000000000000000000000000000000000000000000000000000000003980000000000000000000000000000000000000000000000000000000000000003980000000000000000005000000
0201041210001000021323390304400000000000000000000000000000000000000000000000000000000000002500000000000000000000000000000000000000000000000000000000000000000000000000025000000000000000000000000000000000000000000000000000000000000000025000000005000000
0201041210001000021323390394800000000000000000000000000018870000000000000000000000000000000000000000000000000000000000000000000000000188700000000000000000000000000000000000000000000000000000000000000188700000000000000000000000000000000000000005000000
0201041210001000021323390460100000000000000004787740000075340600000731100000006235100000078306300000868439000004787740000075340600000731100000006235100000078306300000868439000002486620000053444700000809056000007422300000060496000001298937000005000000
0201041210001000021323390930103000000000000000000000000003164000000000000000000000000000000000000000000000000000000000000003164000000000000000000000000000000000000000000000000000000000000003164000000000000000000000000000000000000000000000000005000000
0201041210001000021323390931400000000000000000000000000010524200000000000000000000000000000000000000000000000000000000000010524200000000000000000000000000000000000000000000000000000000000010524200000000000000000000000000000000000000000000000005000000
0201041210001000021324490400500000000000000001100000000011000000000000000000000000000000000000000000000000000001100000000000000000000110000000000000000000000000000000000000000001100000000000000000000110000000000000000000000000000000000000000005000000
0201041210001000021324490520600000000000000000000000000005580000000000000000000000000000000000000000000000000000000000000000000000000055800000000000000000000000000000000000000000000000000000000000000055800000000000000000000000000000000000000005000000
0201041210001000021324490524100000000000000005180000000051800000000000000000000000000000000000000000000000000005180000000000000000000518000000000000000000000000000000000000000005180000000000000000000518000000000000000000000000000000000000000005000000
0201041210001000021324490524200000000000000001956980000006460000000000000000000000000000000000000000000000000001956980000000000000000064600000000000000000000000000000000000000001956980000000000000000064600000000000000000000000000000000000000005000000
0201041220001000000113371700100000000000000022981050000000000000000000000000000000000000000000000000000000000002285490000051738900000344926000003449260000034492600000517389000000000000000051738900000344926000005734750000034492600000517389000005000000
0201041220001000010223390302400000000000000000000000000000000000000000000000042097930000013141700000087470000000000000000000000000000000000000000000000000201203200002416648000000000000000000000000000000000000000000000000000000000004428680000005000000
0201041220001000010223390391600000000000000000000000000000000000000000000000026242070000008192300000069366000000000000000000000000000000000000000000000000125425300001521243000000000000000000000000000000000000000000000000000000000002775496000005000000
0201041220001000011313190921100000000000000000000000000000000000018790650000000000000000000000000000000000000000000000000000000000018790650000000000000000000000000000000000000000000000000000000000018790650000000000000000000000000000000000000005000000
0201041220001000020013190110100000000000000090316670000922047300009644693000097444600000965782100010014003000090316670000922047300009644693000097444600000965782100010014003000090316670000922047300009644693000097444600000965782100010014003000005000000
0201041220001000020013190110400000000000000002549600000025496000000263054000002630540000025376400000251596000002549600000025496000000263054000002630540000025376400000251596000002549600000025496000000263054000002630540000025376400000251596000005000000
0201041220001000020013190111000000000000000011370200000098554500001189880000011589740000114197500001113130000011370200000098554500001189880000011589740000114197500001113130000011370200000098554500001189880000011589740000114197500001113130000005000000
0201041220001000020013190113700000000000000008438950000081520400000834698000007291580000070521900000744859000008438950000081520400000834698000007291580000070521900000744859000008438950000081520400000834698000007291580000070521900000744859000005000000
0201041220001000020013190114200000000000000000000000000000000000000050816000000000000000031869600001734054000000000000000000000000000050816000000000000000031869600001734054000000000000000000000000000050816000000000000000031869600001734054000005000000
0201041220001000020013190114300000000000000000000000000000000000000152447000000000000000015934800006751497000000000000000000000000000152447000000000000000015934800006751497000000000000000000000000000152447000000000000000015934800006751497000005000000
0201041220001000020013190114500000000000000009836260000017699300000217428000004259450000033813100000642811000009836260000017699300000217428000004259450000033813100000642811000009836260000017699300000217428000004259450000033813100000642811000005000000
0201041220001000020013190114700000000000000000000000000020358600000000000000000000000000000000000000000000000000000000000020358600000000000000000000000000000000000000000000000000000000000020358600000000000000000000000000000000000000000000000005000000
0201041220001000020013190115200000000000000000000000000000000000000000000000000000000000000000000000279423000000000000000000000000000000000000000000000000000000000000279423000000000000000000000000000000000000000000000000000000000000279423000005000000
0201041220001000020013190117400000000000000009888000000098880000000988800000010712000000098880000000988800000009888000000098880000000988800000010712000000098880000000988800000009888000000098880000000988800000010712000000098880000000988800000005000000
0201041220001000020013190130201000000000000002389240000022532200000221605000002388490000023051400000334051000002389240000022532200000221605000002388490000023051400000334051000001208980000023171700000222078000002234160000023857600000452580000005000000
0201041220001000020013190164499001000000000001533530000012669600000087697000000748690000002465600000005286000001533530000012669600000087697000000748690000002465600000005286000001533530000012669600000087697000000748690000002465600000005286000005000000
0201041220001000020013190164499002000000000002991280000032270200000278334000001773640000017347200000305244000002991280000032270200000278334000001773640000017347200000305244000002991280000032270200000278334000001773640000017347200000305244000005000000
0201041220001000020013191130800000000000000014562820000147695500001644213000015651560000159725700002318952000014562820000147695500001644213000015651560000159725700002318952000007215010000146007600001589019000015652580000160586900003117092000005000000
0201041220001000020013191132000000000000000021844230000221543400002466320000023477330000239588500002407362000021844230000221543400002466320000023477330000239588500002407362000010822520000219011400002383530000023478870000240880200003604572000005000000
0201041220001000020013390081101000000000000006917740000069177400000691774000006917740000090323600000168437000006917740000069177400000691774000006917740000090323600000168437000006917740000069177400000691774000006917740000090323600000168437000005000000
0201041220001000020013390085601000000000000000124080000001240800000016130000000124080000001240800000030813000000124080000001240800000016130000000124080000001240800000030813000000124080000001240800000016130000000124080000001240800000030813000005000000
0201041220001000020013390141400000000000000001112050000000000000000000000000001112050000000000000000000000000001112050000000000000000000000000001112050000000000000000000000000001112050000000000000000000000000001112050000000000000000000000000005000000
0201041220001000020013390300400000000000000000000000000000000000000000000000000000000000000000000000012500000000000000000000000000000000000000000000000000000000000000012500000000000000000000000000000000000000000000000000000000000000012500000005000000
0201041220001000020013390300799000000000000000000000000000588500000002135000000000000000000000000000000000000000000000000000588500000002135000000000000000000000000000000000000000000000000000588500000002135000000000000000000000000000000000000005000000
0201041220001000020013390301600000000000000000057950000010610600000000000000000160000000000000000000000000000000000000000010864500000001376000000018800000001600000000000000000000000000000010864500000001376000000018800000001600000000000000000005000000
020104122000100002001339030220000000000000000083588000000000000000000000000000170975-000011419300000000000000000350980000002999000000018500000000000000000004762700000009155000000000000000006508800000018500000000000000000004762700000009155000005000000
0201041220001000020013390302400000000000000000141800000040530600000519900000000080000000000000000000042600000000141800000000000000000405306000005051000000001442000000050980000000141800000000000000000405306000005051000000001442000000050980000005000000
0201041220001000020013390302500000000000000000000000000000000000000000000000001145000000000000000000000000000000000000000000000000000000000000000769000000003760000000000000000000000000000000000000000000000000000769000000003760000000000000000005000000
02010412200010000200133903905000000000000000076026000002280960000000000000000000000000000000000-0000000040000002534400000050682000000506840000005068800000050688000000760320000002534400000050682000000506840000005068800000050688000000760320000005000000
02010412200010000200133903916000000000000000000000000000279655000001060480000000000000000000000-0000016048000000000000000000000000000369655000000000000000000000000000000000000000000000000000000000000369655000000000000000000000000000000000000005000000
0201041220001000020013390392000000000000000000430000000000000000000000000000000220000000000000000000000000000000430000000000000000000000000000000000000000002200000000000000000000430000000000000000000000000000000000000000002200000000000000000005000000
0201041220001000020013390394800000000000000000284000000000000000000000000000000000000000000000000000000000000000284000000000000000000000000000000000000000000000000000000000000000000000000002840000000000000000000000000000000000000000000000000005000000
020104122000100002001339039770000000000000000217000000000000000000000000000000000000-000000700000000000000000000350000000007000000000070000000000350000000000000000000000000000000000000000010500000000070000000000350000000000000000000000000000005000000
0201041220001000020013390400100000000000000000359280000010179600000000000000000000000000000000000000000000000000359280000007185600000029940000000000000000000000000000000000000000359280000007185600000029940000000000000000000000000000000000000005000000
0201041220001000020013390460100000000000000028874610000331882200003614736000038286690000371870800004082403000028874610000331882200003614736000038286690000371870800004082403000018147880000272417500003344815000038620590000372981500005975147000005000000
0201041220001000020013390930500000000000000000200000000000000000000000000000000250000000000000000000000000000000200000000000000000000000000000000250000000000000000000000000000000200000000000000000000000000000000250000000000000000000000000000005000000
0201041220001000020014490521200000000000000000420500000000000000000000000000000000000000000000000000000000000000000000000000000000000042050000000000000000000000000000000000000000000000000000000000000042050000000000000000000000000000000000000005000000
0201041220001000020014490523400000000000000006780000000000000000000000000000001396500000000000000000000000000006780000000000000000000000000000000576500000008200000000000000000006780000000000000000000000000000000576500000008200000000000000000005000000
0201041220001000020014490523900000000000000000000000000020090000000000000000000000000000000000000000000000000000000000000000000000000200900000000000000000000000000000000000000000000000000000000000000200900000000000000000000000000000000000000005000000
0201041220001000020014490524200000000000000000389000000000000000000062000000000000000000000000000000000000000000000000000003890000000062000000000000000000000000000000000000000000000000000003890000000062000000000000000000000000000000000000000005000000
0201041220001000020103190049999000000000000003162980000000000000000000000000000000000000000000000000000000000003162980000000000000000000000000000000000000000000000000000000000003162980000000000000000000000000000000000000000000000000000000000005000000
0201041220001000020103190110100000000000000035087260000403244100003998864000036118450000352718200003229162000035087260000403244100003998864000036118450000352718200003229162000035087260000403244100003998864000036118450000352718200003229162000005000000
0201041220001000020103190111000000000000000000465920000009639600000203940000001927920000019279200000192792000000465920000009639600000203940000001927920000019279200000192792000000465920000009639600000203940000001927920000019279200000192792000005000000
0201041220001000020103190113300000000000000000000000000000000000000019231000000000000000000000000000000000000000000000000000000000000019231000000000000000000000000000000000000000000000000000000000000019231000000000000000000000000000000000000005000000
0201041220001000020103190113700000000000000000825000000009881200000113601000001117020000011337600000122630000000825000000009881200000113601000001117020000011337600000122630000000825000000009881200000113601000001117020000011337600000122630000005000000
0201041220001000020103190114200000000000000000000000000000000000000000000000000000000000000000000000659200000000000000000000000000000000000000000000000000000000000000659200000000000000000000000000000000000000000000000000000000000000659200000005000000
0201041220001000020103190114300000000000000000000000000000000000000000000000000000000000000000000002224005000000000000000000000000000000000000000000000000000000000002224005000000000000000000000000000000000000000000000000000000000002224005000005000000
0201041220001000020103190114500000000000000002478140000000000000000000000000000970010000011109000000193442000002478140000000000000000000000000000970010000011109000000193442000002478140000000000000000000000000000970010000011109000000193442000005000000
0201041220001000020103190114700000000000000000000000000000000000000000000000000000000000000000000000211557000000000000000000000000000000000000000000000000000000000000211557000000000000000000000000000000000000000000000000000000000000211557000005000000
0201041220001000020103190115200000000000000000000000000000000000000226661000000000000000000000000000226661000000000000000000000000000226661000000000000000000000000000226661000000000000000000000000000226661000000000000000000000000000226661000005000000
0201041220001000020103190117400000000000000009888000000098880000000988800000008899200000098880000000988800000009888000000098880000000988800000008899200000098880000000988800000009888000000098880000000988800000008899200000098880000000988800000005000000
0201041220001000020103190130201000000000000000989620000006736500000069010000001104050000016228500000185813000000989620000006736500000069010000001104050000016228500000185813000000589710000007354600000068149000000669620000016234800000263864000005000000
0201041220001000020103190164499001000000000000847070000007485300000331378000000730490000008913000000075281000000847070000007485300000331378000000730490000008913000000075281000000847070000007485300000331378000000730490000008913000000075281000005000000
0201041220001000020103191130800000000000000007127240000077280100000785445000006145500000053571400000800837000007127240000077280100000785445000006145500000053571400000800837000003549420000074269600000826505000006936540000053544600001068828000005000000
0201041220001000020103191132000000000000000010690860000115920100001178168000009218260000080357100000831371000010690860000115920100001178168000009218260000080357100000831371000005324130000111404400001239757000010404820000080317000001233357000005000000
0201041220001000020103390081101000000000000006314980000045332200000226661000002266610000045332200000226661000006314980000045332200000226661000002266610000045332200000226661000006314980000045332200000226661000002266610000045332200000226661000005000000
0201041220001000020103390085601000000000000000062040000000000000000000000000000000000000000000000000000000000000062040000000000000000000000000000000000000000000000000000000000000062040000000000000000000000000000000000000000000000000000000000005000000
0201041220001000020103390141400000000000000002215680000013788400000058972000000373510000001600700000114295000002215680000013788400000058972000000373510000001600700000114295000002215680000013788400000058972000000373510000001600700000114295000005000000
0201041220001000020103390300100000000000000000000000000000000000000000000000000597000000000000000000121400000000000000000000000000000000000000000000000000005970000000057465000000000000000000000000000000000000000000000000005970000000057465000005000000
0201041220001000020103390300400000000000000000000000000000990000000000000000000000000000000000000000000000000000000000000000000000000009900000000000000000000000000000000000000000000000000000000000000009900000000000000000000000000000000000000005000000
0201041220001000020103390300799000000000000000190770000002429900000000000000000000000000000949000000034082000000135000000002987600000000000000000000000000000949000000034082000000135000000002987600000000000000000000000000000949000000034082000005000000
02010412200010000201033903024000000000000000000000000000000000000000000000000000000000000001470-0000001470000000000000000000000000000000000000000000000000000000000000000000000000000000000000000000000000000000000000000000000000000000000000000005000000
02010412200010000201033903039000000000000000000000000000000000000000109000000000000000000000000-0000010900000000000000000000000000000000000000000000000000000000000000000000000000000000000000000000000000000000000000000000000000000000000000000005000000
0201041220001000020103390391900000000000000000000000000000000000000000000000000000000000001600000000000000000000000000000000000000000000000000000000000000001600000000000000000000000000000000000000000000000000000000000000001600000000000000000005000000
0201041220001000020103390392000000000000000000180000000000000000000000000000000000000000000000000000000000000000000000000001800000000000000000000000000000000000000000000000000000000000000001800000000000000000000000000000000000000000000000000005000000
02010412200010000201033903943000000000000000060000000000000000000000000000000000000000000000000-0000090833000000405220000009296200000124370000000416900000009370600000115917000000405220000009296200000086365000000796950000009370600000115917000005000000
0201041220001000020103390394400000000000000005000000000000000000000000000000000000000000000000000000169989000000389010000002759300000131936000000786460000017385600000219057000000149480000005154600000071865000001387170000017385600000219057000005000000
020104122000100002010339039770000000000000000043400000000000000000000000000000000000-000000140000000000000000000070000000001400000000014000000000070000000000000000000000000000000070000000001400000000014000000000070000000000000000000000000000005000000
02010412200010000201033903999040000000000000000000000000027200000000585710000000000000000000000-0000013016000000000000000002720000000000000000000000000000001952300000026032000000000000000002720000000000000000000000000000001952300000026032000005000000
0201041220001000020103390400100000000000000000359280000010179600000000000000000000000000000000000000000000000000359280000007185600000029940000000000000000000000000000000000000000359280000007185600000029940000000000000000000000000000000000000005000000
020104122000100002010339040060000000000000000205253000000000000000000000000000181998-0000205253-0000146998000000000000000000000000000000000000000000000000000000000000035000000000000000000000000000000000000000000000000000000000000000035000000005000000
0201041220001000020103390460100000000000000012618370000138804600001469643000013545870000128783000001458490000012618370000138804600001469643000013545870000128783000001458490000006271970000122476000001547599000013731370000134716700002100573000005000000
0201041220001000020103390930500000000000000000250000000002200000000000000000000000000000000000000000000000000000250000000002200000000000000000000000000000000000000000000000000000250000000002200000000000000000000000000000000000000000000000000005000000
0201041220001000020103390931400000000000000001039360000000000000000000000000000000000000000000000000000000000001039360000000000000000000000000000000000000000000000000000000000001039360000000000000000000000000000000000000000000000000000000000005000000
0201041220001000020223190110100000000000000034441980000512083700006121634000067049390000666477400006233318000034441980000512083700006121634000067049390000666477400006233318000034441980000512083700006121634000067049390000666477400006233318000005000000
0201041220001000020223190111000000000000000000642640000006426400000159054000001606600000016066000000160660000000642640000006426400000159054000001606600000016066000000160660000000642640000006426400000159054000001606600000016066000000160660000005000000
0201041220001000020223190113300000000000000000797180000007971800000079718000002023600000007971800000079718000000797180000007971800000079718000002023600000007971800000079718000000797180000007971800000079718000002023600000007971800000079718000005000000
0201041220001000020223190113700000000000000002705720000027281600000278273000002814860000028148600000281486000002705720000027281600000278273000002814860000028148600000281486000002705720000027281600000278273000002814860000028148600000281486000005000000
0201041220001000020223190114200000000000000000000000000000000000000000000000000000000000000000000001654814000000000000000000000000000000000000000000000000000000000001654814000000000000000000000000000000000000000000000000000000000001654814000005000000
0201041220001000020223190114300000000000000000000000000002974100000000000000000000000000014737500003789546000000000000000002974100000000000000000000000000014737500003789546000000000000000002974100000000000000000000000000014737500003789546000005000000
0201041220001000020223190114500000000000000001500590000000000000000095557000000970750000002746700000289572000001500590000000000000000095557000000970750000002746700000289572000001500590000000000000000095557000000970750000002746700000289572000005000000
0201041220001000020223190114700000000000000001674060000000000000000000000000000000000000000000000000000000000001674060000000000000000000000000000000000000000000000000000000000001674060000000000000000000000000000000000000000000000000000000000005000000
0201041220001000020223190117400000000000000010052800000098880000000988800000009888000000098880000000988800000010052800000098880000000988800000009888000000098880000000988800000010052800000098880000000988800000009888000000098880000000988800000005000000
0201041220001000020223190130201000000000000002292940000020060700000197932000002509540000035030300000391514000002292940000020060700000197932000002509540000035030300000391514000001191780000022095700000177412000002176740000031201800000573365000005000000
0201041220001000020223190164499001000000000000000000000019520100000141028000000708710000004869300000125632000000000000000019520100000141028000000708710000004869300000125632000000000000000019520100000141028000000708710000004869300000125632000005000000
0201041220001000020223191130800000000000000003042650000061806800000776697000008417040000084576600001215357000003042650000061806800000776697000008417040000084576600001215357000001453300000046191400000702752000008078550000084576600001638240000005000000
0201041220001000020223191132000000000000000004563990000092710300001165048000012625590000126865200001261695000004563990000092710300001165048000012625590000126865200001261695000002179960000069287200001054130000012117850000126865200001896021000005000000
0201041220001000020223390081101000000000000000000000000000000000000000000000000282080000000000000000000000000000000000000000000000000000000000000282080000000000000000000000000000000000000000000000000000000000000282080000000000000000000000000005000000
0201041220001000020223390085601000000000000000000000000000723800000000000000000000000000000000000000000000000000000000000000723800000000000000000000000000000000000000000000000000000000000000723800000000000000000000000000000000000000000000000005000000
0201041220001000020223390141400000000000000002777340000039792800000087055000000794730000000000000000027522000002777340000039792800000087055000000794730000000000000000027522000002777340000037658400000108399000000794730000000000000000027522000005000000
0201041220001000020223390300100000000000000000000000000000000000000059826000000000000000000000000000000000000000000000000000000000000059826000000000000000000000000000000000000000000000000000000000000059826000000000000000000000000000000000000005000000
02010412200010000202233903004000000000000000002100000000000000-000002100000000049500-000001200000000000000000000000000000000000000000000000000000125000000000000000000025000000000000000000000000000000000000000000125000000000000000000025000000005000000
0201041220001000020223390301500000000000000000000000000000000000000000000000000000000000002970000000000000000000000000000000000000000000000000000000000000000000000000029700000000000000000000000000000000000000000000000000000000000000029700000005000000
0201041220001000020223390301700000000000000000000000000000000000000000000000000000000000007950000000000000000000000000000000000000000000000000000000000000007950000000000000000000000000000000000000000000000000000000000000007950000000000000000005000000
020104122000100002022339030220000000000000000029990000000000000000000000000000224500-000022450000000000000000000000000000002999000000000000000000000000000000000000000000000000000000000000002999000000000000000000000000000000000000000000000000005000000
0201041220001000020223390302400000000000000000000000000000000000000000000000000402700000000000000000000000000000000000000000000000000000000000000402700000000000000000000000000000000000000000000000000000000000000110000000002927000000000000000005000000
0201041220001000020223390302500000000000000000000000000006500000000000000000000000000000000000000000000000000000000000000000000000000065000000000000000000000000000000000000000000000000000000000000000065000000000000000000000000000000000000000005000000
0201041220001000020223390302800000000000000000000000000000000000000061200000000237000000000000000000000000000000000000000000000000000000000000000849000000000000000000000000000000000000000000000000000000000000000849000000000000000000000000000005000000
02010412200010000202233903501000000000000000222000000000000000000000000000000000000000000350000-0000001835000001831650000037000000000370000000003700000000037000000000905000000001831650000037000000000370000000003700000000037000000000905000000005000000
0201041220001000020223390362100000000000000000000000000003500000000000000000000000000000000000000000000000000000000000000000000000000035000000000000000000000000000000000000000000000000000000000000000035000000000000000000000000000000000000000005000000
0201041220001000020223390390100000000000000000000000000007400000000000000000000000000000000000000000000000000000000000000007400000000000000000000000000000000000000000000000000000000000000007400000000000000000000000000000000000000000000000000005000000
0201041220001000020223390391000000000000000000000000000000000000000000000000000250000000000000000000000000000000000000000000000000000000000000000250000000000000000000000000000000000000000000000000000000000000000250000000000000000000000000000005000000
02010412200010000202233903916000000000000000000000000000000000000000000000000000700000000167600-0000167600000000000000000000000000000000000000000070000000000000000000000000000000000000000000000000000000000000000070000000000000000000000000000005000000
020104122000100002022339039190000000000000000000000000000000000000000000000000109877-0000086745-0000005783000000000000000000000000000000000000000173490000000000000000000000000000000000000000000000000000000000000173490000000000000000000000000005000000
0201041220001000020223390394800000000000000000000000000000000000000114000000000000000000000000000000000000000000000000000000000000000025000000000890000000000000000000000000000000000000000000000000000025000000000890000000000000000000000000000005000000
0201041220001000020223390397700000000000000000000000000000000000000000000000000408250000000000000000000000000000000000000000000000000000000000000000000000000000000000040825000000000000000000000000000000000000000000000000000000000000040825000005000000
0201041220001000020223390397800000000000000000000000000004000000000000000000000000000000000000000000000000000000000000000000000000000040000000000000000000000000000000000000000000000000000000000000000040000000000000000000000000000000000000000005000000
0201041220001000020223390399902000000000000000845000000000000000000000000000000000000000000000000000000000000000845000000000000000000000000000000000000000000000000000000000000000845000000000000000000000000000000000000000000000000000000000000005000000
0201041220001000020223390400400000000000000004277060000000000000000000000000000000000000000000000000000000000000329140000015152800000042056000000807200000004864000000071848000000329140000015152800000042056000000807200000004864000000071848000005000000
020104122000100002022339040060000000000000001429851000000000000000000000000001267848-0000346580-0000494083000001547530000030950600000309506000003095060000030950600000464259000001547530000030950600000309506000003095060000030950600000464259000005000000
0201041220001000020223390460100000000000000007682690000103173800001298937000017071520000194837100001996624000007682690000103173800001298937000017071520000194837100001996624000004379410000082391900001161634000015364460000178879500003002356000005000000
0201041220001000020223390930500000000000000000200000000002000000000000000000000000000000000000000000000000000000200000000002000000000000000000000000000000000000000000000000000000200000000002000000000000000000000000000000000000000000000000000005000000
0201041220001000020223390930800000000000000000000000000000000000000000000000000000000000000000000000005000000000000000000000000000000000000000000000000000000000000000005000000000000000000000000000000000000000000000000000000000000000005000000005000000
0201041220001000020223390931400000000000000000000000000000000000000000000000000726300000000000000000000000000000000000000000000000000000000000000726300000000000000000000000000000000000000000000000000000000000000726300000000000000000000000000005000000
0201041220001000020224490400500000000000000000000000000000000000000110000000000000000000000000000000000000000000000000000000000000000000000000000000000000011000000000000000000000000000000000000000000000000000000000000000011000000000000000000005000000
0201041220001000020224490521200000000000000002041790000000000000000032910000000000000000000000000000000000000002041790000000000000000032910000000000000000000000000000000000000001965000000000767900000032910000000000000000000000000000000000000005000000
0201041220001000020224490523400000000000000000000000000365000000000244300-00000418000000000000000000000000000000000000000365000000000000000000002025000000000000000000000000000000000000000365000000000000000000002025000000000000000000000000000005000000
0201041220001000020224490524100000000000000000000000000000000000000518000000000000000000000000000000000000000000000000000000000000000000000000005180000000000000000000000000000000000000000000000000000000000000005180000000000000000000000000000005000000
0201041220001000020224490524200000000000000000000000000000000000000079998-00000799980000000000000000000000000000000000000000000000000000000000000000000000000000000000000000000000000000000000000000000000000000000000000000000000000000000000000005000000
0201041220001000020503190049999000000000000006319910000060107800000703276000000000000000000000000000000000000006319910000060107800000703276000000000000000000000000000000000000006319910000060107800000703276000000000000000000000000000000000000005000000
0201041220001000020503190110100000000000000058794600000633797700006638614000069231440000670238800006429554000058794600000633797700006638614000069231440000670238800006429554000058794600000633797700006638614000069231440000670238800006429554000005000000
0201041220001000020503190111000000000000000005695800000064448400000716826000008810200000064448400000721205000005695800000064448400000716826000008810200000064448400000721205000005695800000064448400000716826000008810200000064448400000721205000005000000
0201041220001000020503190113300000000000000004841000000048410000000484100000006188940000061889400000696347000004841000000048410000000484100000006188940000061889400000696347000004841000000048410000000484100000006188940000061889400000696347000005000000
0201041220001000020503190113700000000000000006186100000064073200000670225000006861090000070463000000656236000006186100000064073200000670225000006861090000070463000000656236000006186100000064073200000670225000006861090000070463000000656236000005000000
0201041220001000020503190114200000000000000000000000000000000000000000000000000000000000000000000000659200000000000000000000000000000000000000000000000000000000000000659200000000000000000000000000000000000000000000000000000000000000659200000005000000
0201041220001000020503190114300000000000000000000000000000000000000000000000000000000000000000000005317572000000000000000000000000000000000000000000000000000000000005317572000000000000000000000000000000000000000000000000000000000005317572000005000000
0201041220001000020503190114500000000000000006462820000034688800000229824000004308550000016759900000351373000006462820000034688800000229824000004308550000016759900000351373000006462820000034688800000229824000004308550000016759900000351373000005000000
0201041220001000020503190114700000000000000002146240000000000000000000000000000000000000000000000000000000000002146240000000000000000000000000000000000000000000000000000000000002146240000000000000000000000000000000000000000000000000000000000005000000
0201041220001000020503190115200000000000000002219090000000000000000000000000000000000000000000000000786546000002219090000000000000000000000000000000000000000000000000786546000002219090000000000000000000000000000000000000000000000000786546000005000000
0201041220001000020503190117400000000000000009888000000093936000000988800000009888000000098880000000988800000009888000000093936000000988800000009888000000098880000000988800000009888000000093936000000988800000009888000000098880000000988800000005000000
0201041220001000020503190130201000000000000001181670000012496500000138962000001142560000009541900000133486000001181670000012496500000138962000001142560000009541900000133486000000571820000011893300000137045000001386940000008899200000184409000005000000
0201041220001000020503190164499001000000000001877180000004355000000138601000000946540000017171200000111151000001877180000004355000000138601000000946540000017171200000111151000001877180000004355000000138601000000946540000017171200000111151000005000000
0201041220001000020503190164499002000000000001682570000016290800000196863000002144370000026764200000096316000001682570000016290800000196863000002144370000026764200000096316000001682570000016290800000196863000002144370000026764200000096316000005000000
0201041220001000020503191130800000000000000011878610000120727700001235791000012434340000125150200001876241000011878610000120727700001235791000012434340000125150200001876241000006071360000119106600001214406000012366420000125086400002501992000005000000
0201041220001000020503191132000000000000000017817910000181091600001853686000018651510000187725000001947770000017817910000181091600001853686000018651510000187725000001947770000009107040000178659900001821608000018549640000187629400002886395000005000000
0201041220001000020503390081101000000000000004031340000044381800000443818000004438180000044381800000039859000004031340000044381800000443818000004438180000044381800000039859000004031340000044381800000443818000004438180000044381800000039859000005000000
0201041220001000020503390085601000000000000000000000000000310200000000000000000000000000000000000000000000000000000000000000310200000000000000000000000000000000000000000000000000000000000000310200000000000000000000000000000000000000000000000005000000
0201041220001000020503390141400000000000000003588920000027352100000024712000002443150000009772700000236454000003588920000027352100000018534000002504930000009772700000236454000002892480000034316500000012356000002566710000008705500000247126000005000000
0201041220001000020503390300100000000000000000000000000000000000000000000000005707000000000000000000000000000000000000000000000000000000000000000000000000057070000000000000000000000000000000000000000000000000000000000000057070000000000000000005000000
0201041220001000020503390300400000000000000000000000000000000000000000000000000120000000000000000000000000000000000000000000000000000000000000000120000000000000000000000000000000000000000000000000000000000000000120000000000000000000000000000005000000
0201041220001000020503390300799000000000000000000000000000000000000000000000000000000000000000000000047032000000000000000000000000000000000000000000000000000000000000047032000000000000000000000000000000000000000000000000000000000000047032000005000000
02010412200010000205033903016000000000000000000000000000005400000000000000000001788000000002690-0000008090000000000000000000000000000000000000000063200000001156000000000000000000000000000000000000000000000000000063200000001156000000000000000005000000
0201041220001000020503390301700000000000000000000000000020500000000000000000000000000000000000000000000000000000000000000000000000000205000000000000000000000000000000000000000000000000000000000000000205000000000000000000000000000000000000000005000000
0201041220001000020503390301900000000000000000000000000000000000000018000000000000000000000000000000000000000000000000000000000000000018000000000000000000000000000000000000000000000000000000000000000000000000000180000000000000000000000000000005000000
02010412200010000205033903022000000000000000000000000000000000000000209000000000000000000000000-0000020900000000000000000000000000000000000000000000000000000000000000000000000000000000000000000000000000000000000000000000000000000000000000000005000000
0201041220001000020503390302300000000000000000000000000000000000000000000000001125000000000000000000000000000000000000000000000000000000000000000000000000011250000000000000000000000000000000000000000000000000000000000000011250000000000000000005000000
0201041220001000020503390302400000000000000000000000000016000000000008400000000000000000076415600000000000000000000000000016000000000008400000000000000000000000000000764156000000000000000016000000000008400000000000000000000000000000764156000005000000
0201041220001000020503390302600000000000000000000000000008700000000000000000000000000000000000000000000000000000000000000000000000000087000000000000000000000000000000000000000000000000000000000000000087000000000000000000000000000000000000000005000000
02010412200010000205033903028000000000000000019729500000000000000000000000000000586500000040000-0000009760000000000000000019340000000000000000000000000000004000000000000000000000000000000019340000000000000000000000000000004000000000000000000005000000
0201041220001000020503390303900000000000000000000000000001139400000073300000000000000000000000000000000000000000000000000001139400000073300000000000000000000000000000000000000000000000000001139400000073300000000000000000000000000000000000000005000000
0201041220001000020503390391600000000000000000000000000004680000000068400000000000000000040331400000000000000000000000000000000000000046800000000684000000000000000000403314000000000000000000000000000046800000000684000000000000000000403314000005000000
0201041220001000020503390391700000000000000000000000000000000000000000000000000400000000002997000000000000000000000000000000000000000000000000000000000000004000000000029970000000000000000000000000000000000000000000000000004000000000029970000005000000
0201041220001000020503390391900000000000000000000000000015574500000000000-00001121110000000000000000000000000000000000000001380000000021817000000080170000000000000000000000000000000000000001380000000021817000000080170000000000000000000000000005000000
02010412200010000205033903944000000000000000025000000000000000000000000000000030000000000000000-0000134710000000767290000004207800000131193000000776100000003065700000057023000000448520000007395500000113504000000952990000003065700000057023000005000000
0201041220001000020503390394800000000000000000898000000012580000000000000000001461260000000377400000117200000000898000000012580000000000000000000284000000012150000000117200000000898000000012580000000000000000000000000000014990000000117200000005000000
0201041220001000020503390396900000000000000000000000000025056800000118437000000000000000000000000000000000000000000000000025056800000000000000001184370000000000000000000000000000000000000025056800000000000000001184370000000000000000000000000005000000
0201041220001000020503390397700000000000000003472000000009350000000000000000000000000000000000000000000000000000560000000011200000000126000000000630000000008370000000000000000000560000000011200000000126000000000630000000008370000000000000000005000000
0201041220001000020503390400400000000000000001591460000000000000000000000000000000000000000000000000000000000000095280000001965600000025760000000202400000001866400000010368000000095280000001965600000025760000000202400000001866400000010368000005000000
020104122000100002050339040060000000000000000582434000000000000000000000000000217332-0000582434-0000217332000000000000000000000000000000000000000000000000000000000000000000000000000000000000000000000000000000000000000000000000000000000000000005000000
0201041220001000020503390460100000000000000013713080000159031300001939122000016830860000163112300001657093000013713080000159031300001939122000016830860000163112300001657093000008220310000141214100001642276000019391220000156617500002490300000005000000
0201041220001000020503390930103000000000000000681350000000000000000067076-00000167690000000000000000000000000000681350000000000000000067076-00000167690000000000000000000000000000481350000002000000000033538000000167690000000000000000000000000005000000
0201041220001000020503390930500000000000000000454500000002500000000000000000000000000000000000000000000000000000454500000002500000000000000000000000000000000000000000000000000000454500000002500000000000000000000000000000000000000000000000000005000000
0201041220001000020503390931400000000000000000000000000000000000000000000000000235590000000000000000000000000000000000000000000000000000000000000235590000000000000000000000000000000000000000000000000000000000000235590000000000000000000000000005000000
0201041220001000020504490400500000000000000001100000000011000000000000000000000000000000000000000000000000000001100000000000000000000110000000000000000000000000000000000000000001100000000000000000000110000000000000000000000000000000000000000005000000
0201041220001000020504490521200000000000000000000000000000000000000184900000000000000000000000000000000000000000000000000000000000000000000000001849000000000000000000000000000000000000000000000000000000000000001849000000000000000000000000000005000000
0201041220001000020504490523400000000000000000000000000000000000000000000000003580000000000000000000000000000000000000000000000000000000000000000000000000035800000000000000000000000000000000000000000000000000000000000000035800000000000000000005000000
0201041220001000020504490523700000000000000000000000000000000000000000000000000000000000001700000000000000000000000000000000000000000000000000000000000000001700000000000000000000000000000000000000000000000000000000000000000000000000017000000005000000
0201041220001000020504490524100000000000000005180000000051800000000000000000000000000000008450000000000000000000000000000051800000000518000000000000000000000000000000084500000000000000000051800000000518000000000000000000000000000000084500000005000000
0201041220001000020504490524200000000000000001240000000003500000000064600000000000000000003850000000000000000000000000000012400000000000000000000996000000003850000000000000000000000000000012400000000000000000000996000000000000000000038500000005000000
0201041220001000020504490525200000000000000000000000001293266700000000000000000000000000000000000000000000000000000000001293266700000000000000000000000000000000000000000000000000000000001293266700000000000000000000000000000000000000000000000005000000
0201041220001000020673190110100000000000000009909460000099094600000990946000009909460000099094600000990946000009909460000099094600000990946000009909460000099094600000990946000009909460000099094600000990946000009909460000099094600000990946000005000000
0201041220001000020673190111000000000000000002891880000028918800000289188000002891880000028918800000289188000002891880000028918800000289188000002891880000028918800000289188000002891880000028918800000289188000002891880000028918800000289188000005000000
0201041220001000020673190113700000000000000000282560000002986200000031536000000332100000003321000000036558000000282560000002986200000031536000000332100000003321000000036558000000282560000002986200000031536000000332100000003321000000036558000005000000
0201041220001000020673190114300000000000000000000000000000000000000000000000000000000000000000000000658346000000000000000000000000000000000000000000000000000000000000658346000000000000000000000000000000000000000000000000000000000000658346000005000000
0201041220001000020673190114500000000000000000987750000000000000000037050000000123500000000000000000108346000000987750000000000000000037050000000123500000000000000000108346000000987750000000000000000037050000000123500000000000000000108346000005000000
0201041220001000020673191130800000000000000001630730000016333000000198938000001638640000016386400000246600000001630730000016333000000198938000001638640000016386400000246600000000814080000016333000000198671000001638640000016386400000328532000005000000
0201041220001000020673191132000000000000000002446090000024499400000298409000002457980000024579800000256002000002446090000024499400000298409000002457980000024579800000256002000001221120000024499400000298007000002457980000024579800000378901000005000000
02010412200010000206733903004000000000000000010500000000029700-000007410000000099000-0000024000-0000025000000000105000000001050000000019800000000198000000002500000000025000000000105000000001050000000019800000000198000000002500000000025000000005000000
0201041220001000020673390300799000000000000000000000000006250000000000000000000427000000001500000000000000000000000000000000000000000062500000000427000000000000000000015000000000000000000000000000000062500000000000000000004270000000015000000005000000
0201041220001000020673390301600000000000000000000000000002400000000000000000000000000000000000000000000000000000000000000002400000000000000000000000000000000000000000000000000000000000000002400000000000000000000000000000000000000000000000000005000000
0201041220001000020673390302100000000000000000000000000000000000000000000000000219000000000000000000000000000000000000000000000000000000000000000000000000002190000000000000000000000000000000000000000000000000000000000000002190000000000000000005000000
020104122000100002067339030220000000000000000107674000000000000000014792600000380100-000008980000000000000000000303840000007729000000006400000002503900000018143600000000000000000000000000010767400000000000000000267900000041143600000000000000005000000
0201041220001000020673390302400000000000000000000000000000000000000071000000000000000000001200000000000000000000000000000000000000000000000000000710000000001200000000000000000000000000000000000000000000000000000710000000001200000000000000000005000000
0201041220001000020673390302500000000000000000222440000000000000000000000000000376000000001500000000000000000000000000000000000000000022244000000000000000003760000000015000000000000000000000000000000022244000000000000000003760000000015000000005000000
0201041220001000020673390302800000000000000000864000000005000000000000000000000578000000000000000000000000000000000000000005000000000086400000000578000000000000000000000000000000000000000005000000000086400000000578000000000000000000000000000005000000
0201041220001000020673390391600000000000000000000000000000000000000157000000000000000000000000000000000000000000000000000000000000000000000000001570000000000000000000000000000000000000000000000000000000000000001570000000000000000000000000000005000000
0201041220001000020673390392000000000000000000000000000000000000000000000000000220000000000000000000000000000000000000000000000000000000000000000000000000002200000000000000000000000000000000000000000000000000000000000000002200000000000000000005000000
02010412200010000206733903943000000000000000300000000000000000000000000000000000000000000000000-0002512607000002464940000012023900000120660000000000000000000000000000000000000001124340000025429900000120660000000000000000000000000000000000000005000000
0201041220001000020673390394400000000000000010000000000000000000000000000000000000000000000000000000230955000001328900000004834300000319969000001395010000019198000000398272000000887330000009250000000145748000003137220000019198000000398272000005000000
0201041220001000020673390397800000000000000000000000000001800000000000000000000000000000000000000000000000000000000000000000000000000000000000000180000000000000000000000000000000000000000000000000000000000000000180000000000000000000000000000005000000
0201041220001000020673390460100000000000000003377250000040823800000337748000004267880000039339800000411948000003377250000040823800000337748000004267880000039339800000411948000002004090000033030500000371138000004045280000040452800000604937000005000000
0201041220001000020674490521200000000000000005265000000000000000000000000000000000000000000000000000000000000000000000000052650000000000000000000000000000000000000000000000000000000000000052650000000000000000000000000000000000000000000000000005000000
0201041220001000020674490523400000000000000006780000000000000000000000000000000000000000000000000000000000000006780000000000000000000000000000000000000000000000000000000000000006780000000000000000000000000000000000000000000000000000000000000005000000
02010412200010000206733903916000000000000000000000000000600000000000000000000000000000000000000-0000150000000000000000000000000000000000000000002250000000015000000000075000000000000000000000000000000000000000002250000000015000000000075000000005010000
0201041220001000020683190110100000000000000029388740000288550400002838551000031003920000310039200003140864000029388740000288550400002838551000031003920000310039200003140864000029388740000288550400002838551000031003920000310039200003140864000005000000
0201041220001000020683190113300000000000000022525240000104402600002411960000025754820000241604700002330198000022525240000104402600002411960000025754820000241604700002330198000022525240000104402600002411960000025754820000241604700002330198000005000000
0201041220001000020683190113700000000000000002249880000056163400000152933000001865990000019307600000197528000002249880000056163400000152933000001865990000019307600000197528000002249880000056163400000152933000001865990000019307600000197528000005000000
0201041220001000020683190114200000000000000000000000000000000000000000000000000000000000000000000002007443000000000000000000000000000000000000000000000000000000000002007443000000000000000000000000000000000000000000000000000000000002007443000005000000
0201041220001000020683190114300000000000000000000000000000000000000000000000000000000000000000000003032309000000000000000000000000000000000000000000000000000000000003032309000000000000000000000000000000000000000000000000000000000003032309000005000000
0201041220001000020683190114500000000000000002327310000000000000000158650000004335840000004721100000442787000002327310000000000000000158650000004335840000004721100000442787000002327310000000000000000158650000004335840000004721100000442787000005000000
0201041220001000020683190115000000000000000002010940000096891000000555035000000000000000000000000000000000000002010940000096891000000555035000000000000000000000000000000000000002010940000096891000000555035000000000000000000000000000000000000005000000
0201041220001000020683190117400000000000000009888000000098880000000988800000009888000000098880000000988800000009888000000098880000000988800000009888000000098880000000988800000009888000000098880000000988800000009888000000098880000000988800000005000000
0201041220001000020683190130201000000000000001586090000016129300000163762000001694510000016129000000242680000001586090000016129300000163762000001694510000016129000000242680000000806460000015861100000161290000001645070000016870600000323325000005000000
0201041220001000020683190164499001000000000004378900000000365900000000000000000000000000000502900000000000000004378900000000365900000000000000000000000000000502900000000000000004378900000000365900000000000000000000000000000502900000000000000005000000
0201041220001000020683191130800000000000000004146320000043162000000404389000003973890000039842600000608421000004146320000043162000000404389000003973890000039842600000608421000002073160000044470000000400110000003970300000039808700000807634000005000000
0201041220001000020683191132000000000000000006219480000064743000000606583000005960850000059763800000631617000006219480000064743000000606583000005960850000059763800000631617000003109740000066705000000600164000005955460000059713100000930436000005000000
0201041220001000020683390085602000000000000000062040000000620400000012408000000124080000001240800000012408000000062040000000620400000012408000000124080000001240800000012408000000062040000000620400000012408000000124080000001240800000012408000005000000
0201041220001000020683390141400000000000000000000000000001600800000224094000000000000000015052100000000000000000000000000001600800000224094000000000000000015052100000000000000000000000000001600800000224094000000000000000015052100000000000000005000000
0201041220001000020683390301500000000000000000000000000000000000000000000000000000000000240500000000000000000000000000000000000000000000000000000000000000000000000002405000000000000000000000000000000000000000000000000000000000000002405000000005000000
0201041220001000020683390301600000000000000000000000000022367000000017020000002000000000000000000000000000000000000000000020667000000011800000000222200000020000000000000000000000000000000020667000000011800000000222200000020000000000000000000005000000
0201041220001000020683390302400000000000000000000000000004000000000000000000000200000000000000000000020000000000000000000004000000000000000000000200000000000000000000020000000000000000000004000000000000000000000200000000000000000000020000000005000000
02010412200010000206833903699010000000000000030000000000502622000006000000000000000000000000000-0000449183000000577060000033563700000530625000000057210000001963100000004119000000577060000033138200000534880000000057210000001688500000006865000005000000
0201041220001000020683390390500000000000000048190000000132500000000300000000001500000000262300000000450000000003510000000226450000002600500000006385000000065700000003110500000003510000000226450000002309500000009295000000065700000003110500000005000000
0201041220001000020683390391600000000000000000000000000000000000000000000000000150000000000000000000015000000000000000000000000000000000000000000150000000000000000000015000000000000000000000000000000000000000000150000000000000000000015000000005000000
02010412200010000206833903943000000000000000007000000000000000000000000000000600000000000000000-0001012597000000055680000000275200000005460000050292820000000559900000008742000000027500000000557000000005460000050292820000000559900000008742000005000000
0201041220001000020683390394700000000000000000000000000000000000000000000000000000000000000000000000003110000000000000000000000000000000000000000000000000000000000000003110000000000000000000000000000000000000000000000000000000000000003110000005000000
0201041220001000020683390394800000000000000000445000000000000000000000000000000890000000004750000000000000000000445000000000000000000000000000000000000000004450000000092000000000445000000000000000000000000000000000000000004450000000092000000005000000
0201041220001000020683390395099000000000000000000000000000000000000000000000000000000000000000000000350000000000000000000000000000000000000000000000000000000000000000000000000000000000000000000000000000000000000000000000000000000000000000000005000000
0201041220001000020683390395100000000000000000000000000071517200000000000000000000000000000000000000000000000000000000000071517200000000000000000000000000000000000000000000000000000000000071517200000000000000000000000000000000000000000000000005000000
0201041220001000020683390395600000000000000000000000000070000000000000000000000000000000000000000000000000000000000000000000000000000700000000000000000000000000000000000000000000000000000000000000000700000000000000000000000000000000000000000005000000
0201041220001000020683390396300000000000000000000000000013750000000000000000000000000000000000000000000000000000000000000000000000000137500000000000000000000000000000000000000000000000000000000000000137500000000000000000000000000000000000000005000000
020104122000100002068339039900000000000000003600000000000000000000000000000000000000-000225000000000000000000004500000000090000000000000000000000000000000000000000000000000000004500000000090000000000000000000000000000000000000000000000000000005000000
0201041220001000020683390400100000000000000000359280000010179600000000000000000000000000000000000000000000000000359280000007185600000029940000000000000000000000000000000000000000359280000007185600000029940000000000000000000000000000000000000005000000
0201041220001000020683390400400000000000000006465320000000000000000000000000000000000000000000000000000000000000720040000011092000000077752000000820960000006912000000100304000000720040000011092000000077752000000820960000006912000000100304000005000000
02010412200010000206833904006000000000000000195438000000000000000000000000000137915400000000000-0000190226000002648590000052971800000529718000005297180000052971800000759577000002648590000052971800000529718000005297180000052971800000759577000005000000
02010412200010000206833904010000000000000000018000000000000000000000000000000000000000000000000-0000000676000000150000000003000000000030000000000300000000003000000000044324000000150000000003000000000030000000000300000000003000000000044324000005000000
0201041220001000020683390460100000000000000010428780000092782200000994602000009092720000104287800001287807000010428780000092782200000994602000009092720000104287800001287807000005344240000093526500001013152000009649220000092784500001829651000005000000
0201041220001000020683390930500000000000000000000000000000000000000025000000000000000000005186800000000000000000000000000000000000000025000000000000000000005186800000000000000000000000000000000000000025000000000000000000005186800000000000000005000000
0201041220001000020684490524200000000000000000000000000003750000000000000000000000000000000000000000000000000000000000000000000000000000000000000375000000000000000000000000000000000000000000000000000000000000000375000000000000000000000000000005000000
0201041220001000020683390390500000000000000000000000000000000000001750000000000000000000000000000000000000000000000000000000000000000000000000007000000000087500000000175000000000000000000000000000000000000000007000000000087500000000175000000005010000
0201041220001000020683390394700000000000000000500000000000000000000000000000000000000000000000000000000000000000068150000002330100000000000000000026480000001317700000004059000000024410000001349400000014181000000026480000000684100000010395000005010000
0201041220001000020683390399200000000000000002400000000000000000000000000000000000000000000000000000000000000000200000000004000000000040000000000400000000004000000000060000000000200000000004000000000040000000000400000000004000000000060000000005010000
0201041220001000020723190110100000000000000058495150000643155300006778711000069145580000691455800006909888000058495150000643155300006778711000069145580000691455800006909888000058495150000643155300006778711000069145580000691455800006909888000005000000
0201041220001000020723190111000000000000000009176140000099383200001110281000011180940000107288000001142639000009176140000099383200001110281000011180940000107288000001142639000009176140000099383200001110281000011180940000107288000001142639000005000000
0201041220001000020723190113300000000000000000000000000000000000000000000000000000000000000000000000341940000000000000000000000000000000000000000000000000000000000000341940000000000000000000000000000000000000000000000000000000000000341940000005000000
0201041220001000020723190113700000000000000002890420000036057700000329516000003295160000033480200000353086000002890420000036057700000329516000003295160000033480200000353086000002890420000036057700000329516000003295160000033480200000353086000005000000
0201041220001000020723190114000000000000000000000000000000000000000000000000000000000000000000000000094018000000000000000000000000000000000000000000000000000000000000094018000000000000000000000000000000000000000000000000000000000000094018000005000000
0201041220001000020723190114200000000000000000000000000000000000000000000000000000000000000000000000944343000000000000000000000000000000000000000000000000000000000000944343000000000000000000000000000000000000000000000000000000000000944343000005000000
0201041220001000020723190114300000000000000000000000000009161400000000000000000000000000000000000004997388000000000000000009161400000000000000000000000000000000000004997388000000000000000009161400000000000000000000000000000000000004997388000005000000
0201041220001000020723190114500000000000000008976090000033656500000076639000000928760000001839600000741036000008976090000033656500000076639000000928760000001839600000741036000008976090000033656500000076639000000928760000001839600000741036000005000000
0201041220001000020723190114700000000000000000000000000021462400000000000000000000000000000000000000000000000000000000000021462400000000000000000000000000000000000000000000000000000000000021462400000000000000000000000000000000000000000000000005000000
0201041220001000020723190117400000000000000013678400000098880000000988800000009888000000098880000000988800000013678400000098880000000988800000009888000000098880000000988800000013678400000098880000000988800000009888000000098880000000988800000005000000
0201041220001000020723190130201000000000000001645470000014933000000148752000001519070000015025200000222474000001645470000014933000000148752000001519070000015025200000222474000000742980000016528100000148596000001520630000015025200000296772000005000000
0201041220001000020723190164499001000000000001226610000011299800000078139000000848930000010996700000025211000001226610000011299800000078139000000848930000010996700000025211000001226610000011299800000078139000000848930000010996700000025211000005000000
0201041220001000020723190164499002000000000007806240000086902800000858742000010794740000109131600000381416000007806240000086902800000858742000010794740000109131600000381416000007806240000086902800000858742000010794740000109131600000381416000005000000
0201041220001000020723191130800000000000000009368530000099543600001111336000010530900000105393500001557704000009368530000099543600001111336000010530900000105393500001557704000004524450000097525500001089380000010530900000105335700002084827000005000000
0201041220001000020723191132000000000000000014052790000149315500001667004000015796340000158090300001617093000014052790000149315500001667004000015796340000158090300001617093000006786670000146288300001634071000015796340000158003600002407777000005000000
0201041220001000020723390085601000000000000000124080000001240800000012408000000124080000000620400000012408000000124080000001240800000012408000000124080000000620400000012408000000124080000001240800000012408000000124080000000620400000012408000005000000
02010412200010000207233903004000000000000000002100000000009900000000000000000002500000000000000-0000012500000000210000000000990000000000000000000125000000000000000000000000000000210000000000000000000009900000000125000000000000000000000000000005000000
02010412200010000207233903016000000000000000000000000000000000000000055710000003600000000000000-0000005571000000000000000000000000000000000000000000000000003600000000000000000000000000000000000000000000000000000000000000003600000000000000000005000000
0201041220001000020723390302400000000000000000000000000000000000000110500000000000000000000000000000000000000000000000000000000000000110500000000000000000000000000000000000000000000000000000000000000110500000000000000000000000000000000000000005000000
0201041220001000020723390302800000000000000000000000000000000000000000000000000595000000000000000000000000000000000000000000000000000000000000000595000000000000000000000000000000000000000000000000000000000000000595000000000000000000000000000005000000
0201041220001000020723390309901000000000000000000000000053500000000000000000000000000000000000000000000000000000000000000000000000000535000000000000000000000000000000000000000000000000000000000000000535000000000000000000000000000000000000000005000000
02010412200010000207233903943000000000000000190000000000000000000000000000000000000000000000000-0001280066000001770800000010492200000126836000000000000000000000000000211096000000851070000019689500000126836000000000000000000000000000211096000005000000
02010412200010000207233903944000000000000000095000000000000000000000000000000000000000000000000-0000272748000000811410000004170300000120100000000509660000015147200000231870000000375790000008526500000071783000000992830000015147200000231870000005000000
020104122000100002072339039770000000000000000651000000000000000000000000000000000000-000002100000000000000000001050000000021000000000210000000001050000000000000000000000000000000000000000031500000000210000000001050000000000000000000000000000005000000
0201041220001000020723390400100000000000000000359280000010179600000000000000000000000000000000000000000000000000359280000009933700000002459000000000000000000000000000000000000000359280000009933700000002459000000000000000000000000000000000000005000000
0201041220001000020723390400400000000000000001989330000000000000000000000000000000000000000000000000000000000000187330000002949600000021224000000246800000001949600000015360000000187330000002949600000021224000000246800000001949600000015360000005000000
0201041220001000020723390460100000000000000015403170000223786600002312066000023714490000227127900002586698000015403170000223786600002312066000023714490000227127900002586698000009575250000172584000002152513000024382290000232321900003722349000005000000
0201041220001000020724490520600000000000000000000000000000000000000553000000000000000000000000000000000000000000000000000000000000000553000000000000000000000000000000000000000000000000000000000000000553000000000000000000000000000000000000000005000000
0201041220001000020783190110100000000000000004476440000043432900000447644000004476440000044764400000400855000004476440000043432900000447644000004476440000044764400000400855000004476440000043432900000447644000004476440000044764400000400855000005000000
0201041220001000020783190113300000000000000000000000000049056800000000000000000000000000000000000000000000000000000000000049056800000000000000000000000000000000000000000000000000000000000049056800000000000000000000000000000000000000000000000005000000
0201041220001000020783190114200000000000000000000000000000000000000000000000000000000000000000000003924695000000000000000000000000000000000000000000000000000000000003924695000000000000000000000000000000000000000000000000000000000003924695000005000000
0201041220001000020783190114300000000000000000000000000000000000000000000000000000000000000000000003021019000000000000000000000000000000000000000000000000000000000003021019000000000000000000000000000000000000000000000000000000000003021019000005000000
0201041220001000020783190114500000000000000002380890000027471700000000000000004532840000017856700000299586000002380890000027471700000000000000004532840000017856700000299586000002380890000027471700000000000000004532840000017856700000299586000005000000
0201041220001000020783190117400000000000000054394000000572785000005439400000057278500000543940000006153663000054394000000572785000005439400000057278500000543940000006153663000054394000000572785000005439400000057278500000543940000006153663000005000000
0201041220001000020783190130201000000000000000402880000003909000000040288000000402880000004028800000044652000000402880000003909000000040288000000402880000004028800000044652000000201440000003909000000040288000000402880000004028800000064796000005000000
0201041220001000020783190130203000000000000005109740000054023100000489546000005563020000050561700000841870000005109740000054023100000489546000005563020000050561700000841870000002447730000051097400000540231000005056170000054023100001102714000005000000
0201041220001000020783390141400000000000000000000000000000533600000313958000000000000000008104500000000000000000000000000000533600000313958000000000000000008104500000000000000000000000000000533600000313958000000000000000008104500000000000000005000000
0201041220001000020783390302400000000000000000000000000008000000000000000000000000000000000000000000000000000000000000000008000000000000000000000000000000000000000000000000000000000000000008000000000000000000000000000000000000000000000000000005000000
0201041220001000020783390392200000000000000000450000000000000000000000000000000000000000000000000000000000000000450000000000000000000000000000000000000000000000000000000000000000450000000000000000000000000000000000000000000000000000000000000005000000
0201041220001000020783390397300000000000000000000000000042033000000000000000000000000000000000000000000000000000000000000042033000000000000000000000000000000000000000000000000000000000000042033000000000000000000000000000000000000000000000000005000000
0201041220001000020783390460100000000000000001484460000011134600000122476000001373160000014102600000207829000001484460000011134600000122476000001373160000014102600000207829000000742230000014844600000096506000001373160000013731600000274632000005000000
0201041220001000020783390930103000000000000000183840000000000000000000000000000000000000010536400000000000000000183840000000000000000000000000000000000000010536400000000000000000086400000000974400000000000000000000000000010536400000000000000005000000
0201041220001000020783390930500000000000000000000000000000000000000025000000000000000000000000000000000000000000000000000000000000000025000000000000000000000000000000000000000000000000000000000000000025000000000000000000000000000000000000000005000000
0201041220001000020784490400500000000000000001100000000000000000000000000000000000000000000000000000000000000001100000000000000000000000000000000000000000000000000000000000000001100000000000000000000000000000000000000000000000000000000000000005000000
0201041220001000020803350410800000000000000054299580000000000000000000000000000000000000000000000000000000000006270710000090633200000906332000009063320000090633200001177559000006270710000090633200000906332000009063320000090633200001093959000005000000
0201041220001000020813190110100000000000000023056680000230566800002305668000023056680000213274300001152834000023056680000230566800002305668000023056680000213274300001152834000023056680000230566800002305668000023056680000213274300001152834000005000000
0201041220001000020813190114200000000000000000000000000000000000000000000000000000000000064046400000486752000000000000000000000000000000000000000000000000064046400000486752000000000000000000000000000000000000000000000000064046400000486752000005000000
0201041220001000020813190114300000000000000000000000000000000000000000000000000000000000048034800000576417000000000000000000000000000000000000000000000000048034800000576417000000000000000000000000000000000000000000000000048034800000576417000005000000
0201041220001000020813190114500000000000000000000000000008966500000000000000000768550000032663600000576417000000000000000008966500000000000000000768550000032663600000576417000000000000000008966500000000000000000768550000032663600000576417000005000000
0201041220001000020813190130201000000000000002075100000021558000000207510000002144270000024151900000155634000002075100000021558000000207510000002144270000024151900000155634000001037550000020751000000215580000002144270000021385100000287057000005000000
0201041220001000020813390350100000000000000054746200000000000000000000000000000000000000000000000000354945000008162400000096884000000968840000009688400000063702000001453260000004844200000096884000000968840000009688400000096884000001121440000005000000
020104122000100002081339040060000000000000000201870000000000000000000000000000178998-0000201870-0000178998000000000000000000000000000000000000000000000000000000000000000000000000000000000000000000000000000000000000000000000000000000000000000005000000
0201041220001000020813390460100000000000000002189820000029689200000263502000002486620000033772500000222669000002189820000029689200000263502000002486620000033772500000222669000001187660000024866200000289472000002597920000025979200000411948000005000000
0201041220001000021303190110100000000000000019757620000193099700002064310000022930980000208779800001620099000019757620000193099700002064310000022930980000208779800001620099000019757620000193099700002064310000022930980000208779800001620099000005000000
0201041220001000021303190113300000000000000008584940000085849400000846230000008584940000079717300000858494000008584940000085849400000846230000008584940000079717300000858494000008584940000085849400000846230000008584940000079717300000858494000005000000
0201041220001000021303190113700000000000000000263680000003059800000032812000000261720000002617200000026172000000263680000003059800000032812000000261720000002617200000026172000000263680000003059800000032812000000261720000002617200000026172000005000000
0201041220001000021303190114200000000000000000000000000000000000000433985000000000000000000000000000809436000000000000000000000000000433985000000000000000000000000000809436000000000000000000000000000433985000000000000000000000000000809436000005000000
0201041220001000021303190114300000000000000000000000000000000000000147950000000000000000001763000000968434000000000000000000000000000147950000000000000000001763000000968434000000000000000000000000000147950000000000000000001763000000968434000005000000
0201041220001000021303190114500000000000000001134420000000000000000027617000000600760000006564700000294340000001134420000000000000000027617000000600760000006564700000294340000001134420000000000000000027617000000600760000006564700000294340000005000000
0201041220001000021303190130201000000000000000998920000009710300000099892000001036580000010580100000057120000000998920000009710300000099892000001036580000010580100000057120000000499460000009710300000099892000001000160000010519000000111319000005000000
0201041220001000021303190164499001000000000000000000000001377400000000000000000000000000000000000000000000000000000000000001377400000000000000000000000000000000000000000000000000000000000001377400000000000000000000000000000000000000000000000005000000
0201041220001000021303191130800000000000000001427560000014343200000181626000001934980000015365900000287426000001427560000014343200000181626000001934980000015365900000287426000000713780000014309400000143432000001981970000017735300000368943000005000000
0201041220001000021303191132000000000000000002141320000021514800000272439000002902470000023048900000298383000002141320000021514800000272439000002902470000023048900000298383000001070660000021464000000215148000002972950000026603100000420658000005000000
0201041220001000021303390141400000000000000000168500000000000000000000000000002263430000000000000000000000000000168500000000000000000000000000002263430000000000000000000000000000168500000000000000000000000000002263430000000000000000000000000005000000
0201041220001000021303390301600000000000000001711850000000488800000000000000000590740000000000000000010675000000000000000017218000000003893000000000000000000000000000069749000000000000000017218000000003893000000000000000000000000000069749000005000000
0201041220001000021303390301700000000000000002050000000000000000000000000000000000000000000000000000000000000000000000000020500000000000000000000000000000000000000000000000000000000000000020500000000000000000000000000000000000000000000000000005000000
0201041220001000021303390302400000000000000000000000000004000000000000000000000000000000000000000000000000000000000000000004000000000000000000000000000000000000000000000000000000000000000004000000000000000000000000000000000000000000000000000005000000
0201041220001000021303390392000000000000000000000000000002000000000000000000000000000000000000000000000000000000000000000000000000000020000000000000000000000000000000000000000000000000000000000000000020000000000000000000000000000000000000000005000000
0201041220001000021303390394800000000000000000284000000002840000000000000000002062000000000000000000000000000000284000000000000000000028400000002062000000000000000000000000000000000000000002840000000028400000000804000000012580000000000000000005000000
0201041220001000021303390399000000000000000008200000000000000000000000000000004800000000000000000000000000000000000000000020992900000137600000001122120000023065000000128714000000000000000020992900000137600000001122120000023065000000128714000005000000
0201041220001000021303390400400000000000000003978660000000000000000000000000000000000000000000000000000000000000457220000006820000000061728000000789760000006270400000019096000000457220000006820000000061728000000789760000006270400000019096000005000000
02010412200010000213033904006000000000000000034972200000000000000000000000000031009800000000000-0000039624000000516830000010336600000103366000001033660000010336600000155049000000516830000010336600000103366000001033660000010336600000155049000005000000
0201041220001000021303390460100000000000000004490940000043794100000719970000006346170000057525700000586364000004490940000043794100000719970000006346170000057525700000586364000002189820000040826100000556684000007051300000068287000000831316000005000000
0201041220001000021303390930103000000000000000091840000000000000000000000000000000000000000000000000000000000000091840000000000000000000000000000000000000000000000000000000000000091840000000000000000000000000000000000000000000000000000000000005000000
0201041220001000021303390930500000000000000000000000000000000000000000000000000487890000000000000000000000000000000000000000000000000000000000000487890000000000000000000000000000000000000000000000000000000000000487890000000000000000000000000005000000
0201041230001000020753190110100000000000000057036190000588393600005682555000051325680000513256800005173040000057036190000588393600005682555000051325680000513256800005173040000057036190000588393600005682555000051325680000513256800005173040000005000000
0201041230001000020753190113100000000000000000000000000000000000000000000000000000000000007622200000076222000000000000000000000000000000000000000000000000007622200000076222000000000000000000000000000000000000000000000000007622200000076222000005000000
0201041230001000020753190113300000000000000016318720000211471600002114716000021147160000203849400001057358000016318720000211471600002114716000021147160000203849400001057358000016318720000211471600002114716000021147160000203849400001057358000005000000
0201041230001000020753190113700000000000000008428440000096389800000988754000009822540000099085000000995302000008428440000096389800000988754000009822540000099085000000995302000008428440000096389800000988754000009822540000099085000000995302000005000000
0201041230001000020753190114200000000000000000000000000000000000000000000000000000000000000000000001428267000000000000000000000000000000000000000000000000000000000001428267000000000000000000000000000000000000000000000000000000000001428267000005000000
0201041230001000020753190114300000000000000000824000000000000000000000000000000000000000000000000004697250000000824000000000000000000000000000000000000000000000000004697250000000824000000000000000000000000000000000000000000000000004697250000005000000
0201041230001000020753190114500000000000000003631930000011775000000072911000002600610000012470300000156367000003631930000011775000000072911000002600610000012470300000156367000003631930000011775000000072911000002600610000012470300000156367000005000000
0201041230001000020753190114700000000000000000000000000000000000000429860000000000000000000000000000000000000000000000000000000000000429860000000000000000000000000000000000000000000000000000000000000429860000000000000000000000000000000000000005000000
0201041230001000020753190117400000000000000004944000000098880000000988800000009888000000098880000000988800000004944000000098880000000988800000009888000000098880000000988800000004944000000098880000000988800000009888000000098880000000988800000005000000
0201041230001000020753190130201000000000000000964080000008899200000088992000000889920000008899200000133488000000964080000008899200000088992000000889920000008899200000133488000000444960000009640800000088992000000889920000008899200000177984000005000000
0201041230001000020753190164499001000000000002328650000011737300000189725000001556670000017220500000220809000002328650000011737300000189725000001556670000017220500000220809000002328650000011737300000189725000001556670000017220500000220809000005000000
0201041230001000020753191130800000000000000009683310000109427300001268330000009783720000097974600001829716000009683310000109427300001268330000009783720000097974600001829716000004785240000102458600001304789000010122210000097905900002319589000005000000
0201041230001000020753191132000000000000000014524950000164141000001902494000014675580000146962000001187528000014524950000164141000001902494000014675580000146962000001187528000007177850000153687900001957183000015183310000146858900001922338000005000000
0201041230001000020753390081101000000000000000000000000000000000000077571000000000000000000000000000000000000000000000000000000000000077571000000000000000000000000000000000000000000000000000000000000077571000000000000000000000000000000000000005000000
0201041230001000020753390141400000000000000000000000000023757600000272398000003656310000026116500000185343000000000000000023757600000272398000003656310000026116500000185343000000000000000023757600000272398000003656310000026116500000185343000005000000
020104123000100002075339030010000000000000000167100000000000000000040512600000000000-000050068100000000000000000000000000002822600000000000000000433190000000000000000000000000000000000000002822600000000000000000433190000000000000000000000000005000000
0201041230001000020753390301600000000000000001583950000011932400000028235000000027150000000000000000226085000000000000000018993800000085031000000225900000000839500000228800000000000000000018993800000085031000000225900000000839500000228800000005000000
02010412300010000207533903017000000000000000000000000000003505000000000000000000000000000009000-0000003505000000000000000000000000000000000000000000000000000000000000009000000000000000000000000000000000000000000000000000000000000000009000000005000000
02010412300010000207533903022000000000000000000000000000000000000000000000000000000000000022560-0000016164000000000000000000000000000000000000000000000000000000000000006396000000000000000000000000000000000000000000000000000000000000006396000005000000
0201041230001000020753390302400000000000000000000000000016000000000000000000000094000000009587000000000000000000000000000016000000000000000000000000000000000940000000095870000000000000000016000000000000000000000000000000000940000000095870000005000000
0201041230001000020753390302500000000000000000000000000000000000000000000000000064900000000000000000000000000000000000000000000000000000000000000064900000000000000000000000000000000000000000000000000000000000000064900000000000000000000000000005000000
0201041230001000020753390390500000000000000000000000000000000000000038500000000000000000000000000000000000000000000000000000000000000038500000000000000000000000000000000000000000000000000000000000000038500000000000000000000000000000000000000005000000
0201041230001000020753390391600000000000000004800000000014805000000000000000000000000000000000000000000000000000000000000062805000000000000000000000000000000000000000000000000000000000000062805000000000000000000000000000000000000000000000000005000000
0201041230001000020753390392000000000000000000000000000006840000000000000000000000000000005700000000000000000000000000000000000000000000000000000684000000000000000000057000000000000000000000000000000000000000000684000000000000000000057000000005000000
0201041230001000020753390394800000000000000000000000000031450000000167900000003177400000006290000000062900000000000000000000000000000322200000002452100000016983000000188700000000000000000000000000000277700000002897100000016983000000125800000005000000
02010412300010000207533903977000000000000000020179900000000000000000000000000004082500000000000-0000000224000000334000000002720000000053600000000272000000004040000000047400000000202000000004040000000040400000000404000000004040000000047400000005000000
02010412300010000207533903981000000000000000150000000000000000-0000004945-00000002900000012000000000000000000001231500000028845000000384905000002268010000012187000000084720000001231500000028845000000384905000002268010000012187000000084720000005000000
0201041230001000020753390400400000000000000008114480000000000000000000000000000000000000000000000000000000000001658420000010345600000083272000000843200000008439200000127512000001658420000010345600000083272000000843200000008439200000127512000005000000
020104123000100002075339040060000000000000001791618000000348000000000000000001588626-0000009113-0000517551000002142150000046323000000552430000004284300000058743000000642645000002142150000046323000000552430000004284300000058743000000642645000005000000
0201041230001000020753390401400000000000000007896000000000000000000000000000000000000000000000000000000000000000658000000013160000000197400000000658000000019740000000131600000000658000000013160000000131600000001316000000013160000000197400000005000000
0201041230001000020753390402300000000000000000000000000010830000000000000000000235000000000000000000000000000000000000000003610000000072200000000000000000002350000000000000000000000000000003610000000072200000000000000000002350000000000000000005000000
0201041230001000020753390460100000000000000009501050000104287800001005755000008276060000084244600000931509000009501050000104287800001005755000008276060000084244600000931509000004750410000100206800001057718000009055390000082018600001339747000005000000
0201041230001000020753390930500000000000000000000000000002000000000030000-00000050000000001200000000003000000000000000000002000000000030000-00000050000000001200000000003000000000000000000002000000000000000000000250000000000600000000009000000005000000
0201041230001000020754490521200000000000000000000000000018490000000000000000000000000000030500000000000000000000000000000000000000000000000000001849000000030500000000000000000000000000000000000000000000000000001849000000030500000000000000000005000000
0201041230001000020754490524100000000000000005180000000000000000000000000000000000000000025350000000000000000000000000000051800000000000000000000000000000025350000000000000000000000000000051800000000000000000000000000000025350000000000000000005000000
0201041230001000020754490524200000000000000000937990000004475000000064600000000000000000102560000000000000000000937990000000000000000000000000000708500000102560000000038500000000399990000005380000000000000000000708500000102560000000038500000005000000
0201041230001000020754490524700000000000000000000000000000000000000069800000000000000000000000000000000000000000000000000000000000000000000000000698000000000000000000000000000000000000000000000000000000000000000698000000000000000000000000000005000000
0201041240001000020823190110100000000000000007665130000153302600001831289000017292520000172925200001729252000007665130000153302600001831289000017292520000172925200001729252000007665130000153302600001831289000017292520000172925200001729252000005000000
0201041240001000020823190113300000000000000022382170000147170400001226420000014717040000147170400001242772000022382170000147170400001226420000014717040000147170400001242772000022382170000147170400001226420000014717040000147170400001242772000005000000
0201041240001000020823190113700000000000000000613220000006132200000069170000000691700000007781600000086462000000613220000006132200000069170000000691700000007781600000086462000000613220000006132200000069170000000691700000007781600000086462000005000000
0201041240001000020823190114300000000000000000000000000000000000000000000000000000000000000000000001132701000000000000000000000000000000000000000000000000000000000001132701000000000000000000000000000000000000000000000000000000000001132701000005000000
0201041240001000020823190114500000000000000001621600000000000000000127166000000635830000000000000000000000000001621600000000000000000127166000000635830000000000000000000000000001621600000000000000000127166000000635830000000000000000000000000005000000
0201041240001000020823190114700000000000000000000000000000000000000000000000000000000000086462600000000000000000000000000000000000000000000000000000000000086462600000000000000000000000000000000000000000000000000000000000086462600000000000000005000000
0201041240001000020823191130800000000000000002550960000025509600000304074000002877480000028913100000435771000002550960000025509600000304074000002877480000028913100000435771000001275480000025509600000287748000002877480000028774800000581028000005000000
0201041240001000020823191132000000000000000003826440000038264400000456111000004316220000043369700000452385000003826440000038264400000456111000004316220000043369700000452385000001913220000038264400000431622000004316220000043162200000670271000005000000
0201041240001000020823390141400000000000000000000000000036563100000261165000000000000000026116500000000000000000000000000036563100000261165000000000000000026116500000000000000000000000000036563100000261165000000000000000026116500000000000000005000000
0201041240001000020823390301600000000000000000110380000000000000000000000000000000000000000000000000000000000000106010000000000000000000437000000000000000000000000000000000000000106010000000000000000000437000000000000000000000000000000000000005000000
0201041240001000020823390301700000000000000000000000000002400000000000000000000000000000000000000000000000000000000000000002400000000000000000000000000000000000000000000000000000000000000002400000000000000000000000000000000000000000000000000005000000
0201041240001000020823390302400000000000000000000000000033950000000000000000000000000000000000000000000000000000000000000033950000000000000000000000000000000000000000000000000000000000000033950000000000000000000000000000000000000000000000000005000000
0201041240001000020823390394800000000000000000000000000044400000000329300000000000000000017580000000000000000000000000000044400000000089000000002403000000017580000000000000000000000000000044400000000089000000002403000000017580000000000000000005000000
02010412400010000208233904006000000000000000012992000000000000000000000000000011520000000000000-0000014720000000192000000003840000000038400000000384000000003840000000057600000000192000000003840000000038400000000384000000003840000000057600000005000000
0201041240001000020823390460100000000000000001298960000011505600000144736000001150560000012618600000148446000001298960000011505600000144736000001150560000012618600000148446000000742230000011134600000129896000001150560000012618600000222669000005000000
0201041240001000020823390930103000000000000000000000000010393600000103936000000000000000010393600000000000000000000000000010393600000103936000000000000000000000000000103936000000000000000010393600000103936000000000000000000000000000103936000005000000
0201041240001000020824490400500000000000000001100000000000000000000000000000000000000000000000000000000000000001100000000000000000000000000000000000000000000000000000000000000001100000000000000000000000000000000000000000000000000000000000000005000000
0201041240001000020824490520600000000000000000000000000005580000000000000000000000000000000000000000000000000000000000000000000000000055800000000000000000000000000000000000000000000000000000000000000055800000000000000000000000000000000000000005000000
0201041240001000020824490524100000000000000005180000000000000000000000000000000000000000000000000000000000000005180000000000000000000000000000000000000000000000000000000000000005180000000000000000000000000000000000000000000000000000000000000005000000
02010412400010000208244905242000000000000000000000000000038500000000000000000000000000000000000-0000038500000000000000000000000000000000000000000000000000000000000000000000000000000000000000000000000000000000000000000000000000000000000000000005000000
0201041290004000000313390319900000000000000001000000000020000000000200000000002000000000020000000000300000000001000000000020000000000200000000002000000000020000000000300000000001000000000020000000000100000000003000000000020000000000300000000005000000
0201041290001000020773190110100000000000000038561620000325450300003314401000033285040000332850400003328504000038561620000325450300003314401000033285040000332850400003328504000038561620000325450300003314401000033285040000332850400003328504000005000000
0201041290001000020773190113300000000000000010464320000128229600000940975000010022960000100229600002396074000010464320000128229600000940975000010022960000100229600002396074000010464320000128229600000940975000010022960000100229600002396074000005000000
0201041290001000020773190113700000000000000003493960000035164100000365161000003678400000038264200000385340000003493960000035164100000365161000003678400000038264200000385340000003493960000035164100000365161000003678400000038264200000385340000005000000
0201041290001000020773190114300000000000000000000000000000000000000000000000000000000000000000000002523011000000000000000000000000000000000000000000000000000000000002523011000000000000000000000000000000000000000000000000000000000002523011000005000000
0201041290001000020773190114500000000000000003480140000012526200000000000000002472090000000000000000284380000003480140000012526200000000000000002472090000000000000000284380000003480140000012526200000000000000002472090000000000000000284380000005000000
0201041290001000020773190114700000000000000000000000000000000000000000000000000000000000000000000000269812000000000000000000000000000000000000000000000000000000000000269812000000000000000000000000000000000000000000000000000000000000269812000005000000
0201041290001000020773191130800000000000000005839520000057698300000600972000005914160000059378400000891538000005839520000057698300000600972000005914160000059378400000891538000002919760000057662400000597599000005914160000059260000001188430000005000000
0201041290001000020773191132000000000000000008759260000086547400000901457000008871220000089067600000925529000008759260000086547400000901457000008871220000089067600000925529000004379630000086493500000896398000008871220000088889900001370867000005000000
