87612826000190010120253108202510092025PREFEITURA MUNICIPAL INDEPENDENCIA                                              
100000000000000000000201001876850340200000000000000016298259618001538750643400196792565860000000000000ATIVO                                                                                                                                               S01 NPF00000000050000000000
110000000000000000000201000489271132500000000000000015300265767001439603021300057969468790000000000000ATIVO CIRCULANTE                                                                                                                                    S02 NP 00000000050000000000
111000000000000000000201000068233805600000000000000013771921912001330930966200011449503060000000000000CAIXA E EQUIVALENTES DE CAIXA                                                                                                                       S03 NPF00000000050000000000
111100000000000000000201000068233805600000000000000013147294608001270209034600011275423180000000000000CAIXA E EQUIVALENTES DE CAIXA EM MOEDA NACIONAL                                                                                                     S04 NPF00000000050000000000
111110000000000000000201000068233805600000000000000013147294608001270209034600011275423180000000000000CAIXA E EQUIVALENTES DE CAIXA EM MOEDA NACIONAL - CONSOLIDACAO                                                                                      S05 NPF00000000050000000000
111110600000000000000201000000000000000000000000000000771868117000077186811700000000000000000000000000CONTA UNICA RPPS                                                                                                                                    S06 NPF00000000050000000000
111110601020000000005001000000000000000000000000000000018276446000001827644600000000000000000000000000CEF GERAL FPSM MOV 0050 0521/006295-1                                                                                                               A08 SPF00000000180000000000
111110601050000000005001000000000000000000000000000000720653910000072065391000000000000000000000000000BB GERAL FPSM MOV 0050 3732-X/11698-X                                                                                                               A08 SPF00000000180000000000
111110604000000000000201000000000000000000000000000000032937761000003293776100000000000000000000000000BANCOS CONTA MOVIMENTO  TAXA DE ADMINISTRACAO                                                                                                       S07 NPF00000000050000000000
111110604010000000005001000000000000000000000000000000032937761000003293776100000000000000000000000000BB TX ADM RPPS  12116-9 FPSM MOV 0050                                                                                                               A08 SPF00000000180200000000
111111900000000000000201000001771056000000000000000008950054082000896772574400000000388980000000000000BANCOS CONTA MOVIMENTO - DEMAIS CONTAS                                                                                                              S06 NPF00000000050000000000
111111902000000000000201000001757191200000000000000005672946089000569048356600000000344350000000000000BANCO DO BRASIL                                                                                                                                     S07 NPF00000000050000000000
111111902010000000000201000000000000000000000000000002471801096000247180109600000000000000000000000000BB GERAL PREF MOV 0001 3732-X/7132-3                                                                                                                A08 SPF00000000150000000000
111111902020000000000201000000000000000000000000000001202382380000120238238000000000000000000000000000BB FPM PREF MOV 0001 3732-X/7129-3                                                                                                                  A08 SPF00000000150000000000
111111902030000000000201000000000000000000000000000000005226616000000522661600000000000000000000000000BB ADO LC 176/2020 PREF MOV 0001 3732-X/283141-4                                                                                                    A08 SPF00000000150100000000
111111902040000000000201000000000000000000000000000000021645076000002164507600000000000000000000000000BB FEP PREF MOV 0704 3732-X/4015-0                                                                                                                  A08 SPF00000000170400000000
111111902050000000000201000000000000000000000000000000008167264000000816726400000000000000000000000000BB ITR PREF MOV 0001 3732-X/7385-7                                                                                                                  A08 SPF00000000150000000000
111111902060000000000201000000000000000000000000000000000066393000000006639300000000000000000000000000BB CFEM PREF MOV 70801 3732-X/11636-X                                                                                                               A08 SPF00000000170800000000
111111902070000000000801000001066482500000000000000000204950886000021561571100000000000000000000000000BB GERAL FMS MOV 0040 3732-X/10062-5                                                                                                                A08 SPF00000000150000000000
111111902080000000000601000000000000000000000000000000011466826000001146682600000000000000000000000000BB PAV RURAL EMENDA IMPOS 28610005/2023 MOV 70602 3732-X/12597-0                                                                                    A08 SPF00000000170600000000
111111902100000000000801000000000000000000000000000000001983745000000198374500000000000000000000000000BB INCENTIVO VIG SAUDE - CUSTEIO FMS MOV 60011 3732-X/11473-1                                                                                       A08 SPF00000000160000000000
111111902110000000000201000000230793900000000000000000171849782000017415772100000000000000000000000000BB MDE PREF MOV 0020 3732-X/5011-3                                                                                                                  A08 SPF00000000150000000000
111111902120000000000201000000000000000000000000000000005027058000000502705800000000000000000000000000BB PNATE-TE PREF MOV 1016 3732-X/7767-4                                                                                                             A08 SPF00000000155300000000
111111902130000000000201000000000000000000000000000000047961738000004796173800000000000000000000000000BB QSE PREF MOV 0550 3732-X/7684-8                                                                                                                  A08 SPF00000000155000000000
111111902140000000000201000000000000000000000000000000000761786000000076178600000000000000000000000000BB CIDE PREF MOV 0750 3732-X/7827-1                                                                                                                 A08 SPF00000000175000000000
111111902170000000000701000000000000000000000000000000007319600000000731960000000000000000000000000000BB INVESTIMENTO EMENIND 28610007 MOV 70603 3732-X/12834-1                                                                                           A08 SPF00000000170600000000
111111902180000000001001000000000000000000000000000000001829900000000182990000000000000000000000000000BB INVESTIMENTO EMEN IND 30770001 MOV 70604 3732-X/12831-7                                                                                          A08 SPF00000000170600000000
111111902210000000000201000000000000000000000000000000019918512000001991851200000000000000000000000000BB MERENDA ESCOLAR - PNAE MOV 0552 3732-X/9622-9                                                                                                    A08 SPF00000000155200000000
111111902220000000000902000000000000000000000000000000000600000000000060000000000000000000000000000000BB PROCAD-SUAS FMAS MOV 66007 3732-X/12485-0                                                                                                        A08 SPF00000000166000000000
111111902250000000000201000000000000000000000000000000101690062000010169006200000000000000000000000000BB ARRECADACAO PREF MOV 0001 3732-X/12340-4                                                                                                         A08 SPF00000000150000000000
111111902290000000000502000000443358300000000000000000958939854000096337343700000000000000000000000000BB FUNDEB SMECDT MOV 540 3732-X/13035-4                                                                                                             A08 SPF00000000154000000000
111111902340000000000301000000000000000000000000000000130786896000013078689600000000000000000000000000BB FR501 PREF 0001 3732-X/12350-1                                                                                                                   A08 SPF00000000150100000000
111111902370000000000502000000000000000000000000000000006847494000000684749400000000000000000000000000BB EDUC INF NOVAS TURMAS MOV 1003 3732-X/12018-9                                                                                                    A08 SPF00000000156900000000
111111902390000000000902000000016556500000000000000000000166448000000033201300000000000000000000000000BB COVID-19/SUAS PORT MC 751/2022 MOV 1019 3732-X/11143-0                                                                                           A08 SPF00000000166000000000
111111902420000000000201000000000000000000000000000000045300064000004530006400000000000000000000000000BB SNA PREF MOV 0001 3732-X/8928-1                                                                                                                  A08 SPF00000000150000000000
111111902460000000000801000000000000000000000000000000038860800000003886080000000000000000000000000000BB PISO ACS FMS MOV 604 3732-X/11473-1                                                                                                              A08 SPF00000000160400000000
111111902480000000000801000000000000000000000000000000004160010000000416001000000000000000000000000000BB PISO ENFERMAGEM MOV 60500 3732-X/12645-4                                                                                                         A08 SPF00000000160500000000
111111902500000000000502000000000000000000000000000000006837201000000683720100000000000000000000000000BB ESCOLA TEMPO INTEGRAL MOV 56904 3732-X/12707-8                                                                                                   A08 SPF00000000156900000000
111111902560000000000701000000000000000000000000000000033609767000003360976700000000000000000000000000BB CIP PREF MOV 0001 3732-X/7641-4                                                                                                                  A08 SPF00000000175100000000
111111902570000000000902000000000000000000000000000000003760617000000376061700000000000000000000000000BB PAIF - PSB PBFI FMAS MOV 066006 3732-X/11143-0                                                                                                   A08 SPF00000000166000000000
111111902580000000000902000000000000000000000000000000003575400000000357540000000000000000000000000000BB SCFV-  PSB FMAS MOV 066005 3732-X/11143-0                                                                                                        A08 SPF00000000166000000000
111111902590000000000902000000000000000000000000000000004624526000000462452600000000000000000000000000BB GBF IGDBF FMAS MOV 1038 3732-X/11141-4                                                                                                           A08 SPF00000000166000000000
111111902620000000000801000000000000000000000000000000010000000000001000000000000000000000000000000000BANRISUL REFORMA UBS RS EP 156 PORTSES-RS200/25 MOV 62122 1064/040287229-6                                                                          A08 SPF00000000162100000000
111111902640000000000202000000000000000000000000000000001316545000000131654500000000000000000000000000BB IR DOACAO FUNDICA MOV 1050 3732-X/11012-4                                                                                                        A08 SPF00000000175900000000
111111902720000000000201000000000000000000000000000000116384037000011634960200000000344350000000000000BB BLOCO DE CUSTEIO SUS MOV 4000 FMS 3732-X/11473-1                                                                                                 S08 NPF00000000050000000000
111111902720100000000801000000000000000000000000000000099158416000009915841600000000000000000000000000BB CUSTEIO ATENCAO BASICA FMS MOV 4500 3732-X/11473-1                                                                                               A09 SPF00000000160000000000
111111902720300000000801000000000000000000000000000000006663440000000666344000000000000000000000000000BB CUSTEIO ASSIST FARMACEUTICA FMS MOV 4503 3732-X/11473-1                                                                                          A09 SPF00000000160000000000
111111902720400000000801000000000000000000000000000000001439584000000143958400000000000000000000000000BB CUSTEIO VISA MOV FMS 4502 3732-X/11473-1                                                                                                         A09 SPF00000000160000000000
111111902720600000000801000000000000000000000000000000000588664000000058866400000000000000000000000000BB CUSTEIO MAC FMS MOV 4501 3732-X/11473-1                                                                                                          A09 SPF00000000160000000000
111111902721500000000801000000000000000000000000000000007286400000000728640000000000000000000000000000BB PISO ACE MOV FMS 60402 3732-X/11473-1                                                                                                            A09 SPF00000000160400000000
111111902721600000000801000000000000000000000000000000001213098000000121309800000000000000000000000000BB FARMACIA FEDERAL CALAMIDADE MP 1218/2024 MOV FMS 60012 3732-X/12847-3                                                                            A09 SPF00000000160000000000
111111902721700000000801000000000000000000000000000000000014435000000000000000000000144350000000000000BB EXAME PRE-NATAL REDE ALYNE PORT5530/24 MOV FMS 60013 3732-X/11473-1                                                                              A09 SPF00000000160000000000
111111902721800000000801000000000000000000000000000000000020000000000000000000000000200000000000000000BB TESTE RAPIDO GRAVIDEZ REDE ALYNE PORT5534/24 MOV FMS 60014 3732-X/11473-1                                                                        A09 SPF00000000160000000000
111111902770000000000902000000000000000000000000000000001325656000000132565600000000000000000000000000BB MOV INCREMENTO TEMP PSB MP1218/24 FMAS 66009 3732-X/12841-4                                                                                      A08 SPF00000000166000000000
111111902780000000001005000000000000000000000000000000018550452000001855045200000000000000000000000000BB ESTIAGEM PORT1163/2025 SNPDC FUNDEC MOV 74701 3732-X/13142-3                                                                                     A08 SPF00000000174700000000
111111902790000000000801000000000000000000000000000000000600000000000060000000000000000000000000000000BB QUALIFAR-SUS ORGANIZACAO PRT6841/25 FMS MOV 60015 3732-X/11473-1                                                                                 A08 SPF00000000160000000000
111111902800000000000902000000000000000000000000000000002651602000000265160200000000000000000000000000BB MOV INCREMENTO TEMP PSB MP1218/24 2025 FMAS 66010 3732-X/13078-8                                                                                 A08 SPF00000000166000000000
111111903000000000000201000000000000000000000000000000001012469000000101246900000000000000000000000000CAIXA ECONOMICA FEDERAL                                                                                                                             S07 NPF00000000050000000000
111111903080000000000702000000000000000000000000000000000929988000000092998800000000000000000000000000CEF Recurso PAV URB SICONV917782/2021 70004 0521/00647287-9                                                                                         A08 SPF00000000170000000000
111111903090000000000702000000000000000000000000000000000082481000000008248100000000000000000000000000CEF CONTRAPMov PAV URB SICONV917782/2021  70004 0521/00647287-9                                                                                     A08 SPF00000000150000000000
111111912000000000000201000000013864800000000000000003074535524000307466970900000000044630000000000000BANCO DO ESTADO DO RIO GRANDE DO SUL                                                                                                                S07 NPF00000000050000000000
111111912010000000000801000000000000000000000000000000293322309000029332230900000000000000000000000000BANRISUL GERAL FMS MOV 0040 1064/040288190-2                                                                                                        A08 SPF00000000150000000000
111111912020000000000201000000000000000000000000000002368914386000236891438600000000000000000000000000BANRISUL GERAL PREF MOV 0001 1064/040131530-6                                                                                                       A08 SPF00000000150000000000
111111912030000000000201000000000000000000000000000000000004463000000000000000000000044630000000000000BANRISUL MULTA DE TRANSITO PREF MOV 1114 944/040188130-5                                                                                            A08 SPF00000000175200000000
111111912060000000000801000000000000000000000000000000000501964000000050196400000000000000000000000000BANRISUL NFG FMS MOV 4300 1064/040830240-8                                                                                                          A08 SPF00000000162100000000
111111912070000000000201000000000000000000000000000000040384826000004038482600000000000000000000000000BANRISUL PEATERS MOV 057101 C/040197060-6                                                                                                           A08 SPF00000000157100000000
111111912080000000000201000000000000000000000000000000067765091000006776509100000000000000000000000000BANRISUL MDE PREF MOV 0020 1064/040240210-9                                                                                                         A08 SPF00000000150000000000
111111912090000000000401000000000000000000000000000000005090000000000509000000000000000000000000000000BANRISUL PIT PREF MOV 1112 0944/040131530-6                                                                                                         A08 SPF00000000170100000000
111111912120000000000801000000000000000000000000000000002572865000000257286500000000000000000000000000BANRISUL FARMACIA BASICA FMS MOV 4050 1064/040287221-0                                                                                              A08 SPF00000000162100000000
111111912130000000000801000000000000000000000000000000000203243000000020324300000000000000000000000000BANRISUL CASTRACAO MELHORES AMIGOS MOV 62303 1064/040836810-7                                                                                       A08 SPF00000000163200000000
111111912140000000000801000000000000000000000000000000000112981000000011298100000000000000000000000000BANRISUL CONTRAP CASTRACAO MELHORES AMIGOS MOV 62303 1064/040836810-7                                                                               A08 SPF00000000150000000000
111111912160000000000902000000000000000000000000000000005000000000000500000000000000000000000000000000BANRISUL CONVENIO STDP-RS 2478/2023 MOV 66504 1064/040838600-8                                                                                      A08 SPF00000000166500000000
111111912180000000000701000000000000000000000000000000119869712000011986971200000000000000000000000000BANRISUL PAVIMENTA RS ETAPA 2 MOV 70109 1064/040131530-6                                                                                            A08 SPF00000000170100000000
111111912210000000000701000000000000000000000000000000004314539000000431453900000000000000000000000000BANRISUL CONTRAP PAVIMENTA RS ETAPA 2 MOV 70109 1064/040131530-6                                                                                    A08 SPF00000000150000000000
111111912240000000000902000000000000000000000000000000001648500000000164850000000000000000000000000000BANRISUL CONTRAP CONVENIO STDP-RS 2478/2023 MOV 500 1064/040838600-8                                                                                A08 SPF00000000150000000000
111111912250000000000601000000000000000000000000000000013802085000001380208500000000000000000000000000BANRISUL PAVIMENTACAO ECOVILLA CONV FPE 456/2022 MOV 1213 1064/040836340-7                                                                          A08 SPF00000000170100000000
111111912260000000000601000000000000000000000000000000009933190000000993319000000000000000000000000000BANRISUL CONTRAP PAVIMENTACAO ECOVILLA CONV FPE 456/2022 MOV 0001 1064/040836340-7                                                                  A08 SPF00000000150000000000
111111912280000000001004000000000000000000000000000000001183639000000118363900000000000000000000000000BANRISUL GERAL FMDMA MOV 1005 1064/040285540-5                                                                                                      A08 SPF00000000175900000000
111111912290000000000603000000000000000000000000000000008120485000000812048500000000000000000000000000BANRISUL PAVIMENTA RS PREF MOV 1212 1064/040835690-7                                                                                                A08 SPF00000000170100000000
111111912300000000000603000000000000000000000000000000004119525000000411952500000000000000000000000000BANRISUL CONTRAPARTIDA PAVIMENTA RS PREF MOV 0001 1064/040835690-7                                                                                  A08 SPF00000000150000000000
111111912320000000000902000000013864800000000000000000000000000000000013864800000000000000000000000000BANRISUL OASF FEAS FMAS MOV 1103 1064/040806820-0                                                                                                   A08 SPF00000000166500000000
111111912330000000001001000000000000000000000000000000005085195000000508519500000000000000000000000000BANRISUL CONSTR POCO TUBULAR PROFUNDO CONVFPE2268/22 MOV 70105 1064/040836800-6                                                                     A08 SPF00000000170100000000
111111912340000000001001000000000000000000000000000000001424635000000142463500000000000000000000000000BANRISUL CONTRAP CONSTR POCO TUBULAR PROFUNDO CONVFPE2268/22 MOV 70105 1064/040836800-6                                                             A08 SPF00000000150000000000
111111912390000000001001000000000000000000000000000000002205605000000220560500000000000000000000000000BANRISUL COLHEDORA DE FORRAGENS CONV FPE 1447/2023-SDR/RS MOV 70108 1064/040838800-0                                                                A08 SPF00000000170100000000
111111912400000000001001000000000000000000000000000000000957341000000095734100000000000000000000000000BANRISUL CONTRAP COLHED FORR CONV FPE 1447/2023-SDR/RS MOV 500 1064/040838800-0                                                                     A08 SPF00000000150000000000
111111912410000000000801000000000000000000000000000000000368000000000036800000000000000000000000000000BANRISUL PROTESE DENTARIA PORTSES 82/2024 E 110/2024 FMS MOV 62120 1064/040287220-2                                                                 A08 SPF00000000162100000000
111111912440000000000801000000000000000000000000000000004495758000000449575800000000000000000000000000BANRISUL C/MOV REFORMA UBS PORT SES 369 E 653/24  62119 1064/040839230-6                                                                            A08 SPF00000000162100000000
111111912460000000000801000000000000000000000000000000012077484000001207748400000000000000000000000000BANRISUL PIAPS SOCIODEMOGRAFICO MOV 4011 1064/040287229-6                                                                                           A08 SPF00000000162100000000
111111912470000000000801000000000000000000000000000000007918048000000791804800000000000000000000000000BANRISUL PIAPS INCENTIVO APS MOV 4090 1064/040804700-9                                                                                              A08 SPF00000000162100000000
111111912490000000000801000000000000000000000000000000002332200000000233220000000000000000000000000000BANRISUL PIAPS PIM MOV 4160 1064/040287223-7                                                                                                        A08 SPF00000000162100000000
111111912520000000000201000000000000000000000000000000017748085000001774808500000000000000000000000000BANRISUL FR501 MOV 0001 1064/040131530-6                                                                                                            A08 SPF00000000150100000000
111111912550000000000801000000000000000000000000000000001257590000000125759000000000000000000000000000BANRISUL QUALIFICA VIGILANCIA RS/PORTSES-RS847/2024 MOV 62121 1064/040287220-2                                                                      A08 SPF00000000162100000000
111111912560000000000201000000000000000000000000000000005719400000000571940000000000000000000000000000BANRISUL OFICINA ARTES/DANCAS CONV3910/2024-SJCDH/RS MOV 70110 1064/040840510-6                                                                     A08 SPF00000000170100000000
111111912570000000001005000000000000000000000000000000031588320000003158832000000000000000000000000000BANRISUL ESTIAGEM 2025 PORT007/SPDC/2025 MOV 74801 1064/040838770-5                                                                                 A08 SPF00000000174800000000
111111912580000000000202000000000000000000000000000000000500000000000050000000000000000000000000000000BANRISUL CONTRAP OFICINA ARTES/DANCAS CONV3910/2024-SJCDH/RS MOV 70110 1064/040840510-6                                                             A08 SPF00000000150000000000
111111912590000000000801000000000000000000000000000000004000000000000400000000000000000000000000000000BANRISUL INVERNO GAUCHO PORTSES322/2025 MOV 62123 1064/040802760-1                                                                                  A08 SPF00000000162100000000
111111912600000000001001000000000000000000000000000000029994060000002999406000000000000000000000000000BANRISUL RECUPERACAO ESTRADAS VICINAIS CONVFPE334/2025 MOV 70111 1064/040842520-8                                                                   A08 SPF00000000170100000000
111111999000000000000201000000000000000000000000000000201560000000020156000000000000000000000000000000DEMAIS CONTAS BANCARIAS                                                                                                                             S07 NPF00000000050000000000
111111999010000000000201000000000000000000000000000000201560000000020156000000000000000000000000000000SICREDI                                                                                                                                             S08 NPF00000000050000000000
111111999010100000000201000000000000000000000000000000201560000000020156000000000000000000000000000000SICREDI PREF MOV 0001 0306/07878-4                                                                                                                  A09 SPF00000000150000000000
111113000000000000000201000000000000000000000000000000161932436000016193243600000000000000000000000000REDE BANCARIA - ARRECADACAO                                                                                                                         S06 NPF00000000050000000000
111113001000000000000401000000000000000000000000000000161932436000016193243600000000000000000000000000SICREDI ARRECADACAO 0001 0306/14941-0                                                                                                               A07 SPF00000000150000000000
111115000000000000000201000063119769700000000000000003235589147000279184848400010749383600000000000000APLICACOES FINANCEIRAS DE LIQUIDEZ IMEDIATA - USO GERAL                                                                                             S06 NPF00000000050000000000
111115002000000000000201000002606053600000000000000000001351320000000098873900000264231170000000000000POUPANCA                                                                                                                                            S07 NPF00000000050000000000
111115002030000000000702000002389517200000000000000000001233087000000090645700000242218020000000000000CEF Poupanca PAV URB SICONV917782/2021  70004 0521/00647287-9                                                                                       A08 SPF00000000170000000000
111115002040000000000702000000216536400000000000000000000118233000000008228200000022013150000000000000CEF CONTRAP Poupanca PAV URB SICONV917782/2021  70004 0521/00647287-9                                                                               A08 SPF00000000150000000000
111115003000000000000201000059541279700000000000000003020202699000263978103700009758344590000000000000FUNDOS DE INVESTIMENTO                                                                                                                              S07 NPF00000000050000000000
111115003010000000000201000005506746800000000000000001180203330000113492650800001003442900000000000000BB GERAL PREF APLIC 0001 3732-X/7132-3                                                                                                              A08 SPF00000000150000000000
111115003020000000000602000000129099600000000000000000000100780000000000000000000013917760000000000000BB  RF CP PLENO PAVIMENT CIDADE-BUDEL-ALEGRIA EMEND IND 36660001 APLIC 1028 3732-X/12204-1                                                          A08 SPF00000000170000000000
111115003030000000000201000000000000000000000000000000032341791000001617697700000161648140000000000000BB QSE PREF APLIC 0550 3732-X/7684-8                                                                                                                A08 SPF00000000155000000000
111115003060000000000201000010542337500000000000000000881536386000074189549700002450642640000000000000BANRISUL GERAL PREF APLIC 0001 944/040131530-6                                                                                                      A08 SPF00000000150000000000
111115003080000000000201000000000000000000000000000000021156715000001664402200000045126930000000000000BANRISUL PEATERS APLIC 057101 C/040197060-6                                                                                                         A08 SPF00000000157100000000
111115003090000000000201000000000000000000000000000000002606221000000247420000000001320210000000000000BB PNATE PREF APLIC 1016 3732-X/7767-4                                                                                                              A08 SPF00000000155300000000
111115003100000000000601000002780529400000000000000000001773405000001089520800000186834910000000000000BB PAV RURAL EMENDA IMPOS 28610005/2023 APLIC 70602 3732-X/12597-0                                                                                  A08 SPF00000000170600000000
111115003110000000000502000000000000000000000000000000011258900000000866242400000025964760000000000000BB APLIC - MERENDA ESCOLAR - PNAE  0552 3732-X/9622-9                                                                                               A08 SPF00000000155200000000
111115003140000000000902000000011560700000000000000000000007901000000000000000000001235080000000000000BB SIGTV- ESTRUT REDE SV SUAS-CUSTEIO APLIC 66008 3732-X/12824-4                                                                                    A08 SPF00000000166000000000
111115003170000000000201000014291604200000000000000000115418991000000000000000002583350330000000000000SICREDI PREF APLIC 0001 0306/07878-4                                                                                                                A08 SPF00000000150000000000
111115003192400000001001000000480707500000000000000000000278120000000508519500000000000000000000000000BANRISUL APLIC CONSTR POCO TUBULAR PROFUNDO CONVFPE2268/22 APLIC 70105 1064/040836800-6                                                             A09 SPF00000000170100000000
111115003200000000001001000000135115300000000000000000000073482000000142463500000000000000000000000000BANRISUL CONTRAP APLIC POCO CONVFPE2268/22  70105 1064/040836800-6                                                                                  A08 SPF00000000150000000000
111115003240000000000801000000020143400000000000000000000001809000000020324300000000000000000000000000BANRISUL AplicCASTRACAO MELHORES AMIGOS  62303 1064/040836810-7                                                                                     A08 SPF00000000163200000000
111115003260000000000401000000000000000000000000000000002724517000000239000000000003345170000000000000BANRISUL PIT PREF APLIC 1112 0944/040131530-6                                                                                                       A08 SPF00000000170100000000
111115003270000000000201000000000000000000000000000000000785069000000000000000000007850690000000000000BB CIDE PREF APLIC 1018 3732-X/7827-1                                                                                                               A08 SPF00000000175000000000
111115003320000000000801000000011205000000000000000000000000931000000011298100000000000000000000000000BANRISUL CONTRAP Aplic CASTRACAO MELHORES AMIGOS 62303 1064/040836810-7                                                                             A08 SPF00000000150000000000
111115003330000000000801000000166130100000000000000000000148451000000000000000000018097520000000000000BANRISUL APLIC UBS AMIGA IDOSO PSES1097/2023  62112 1064/040287220-2                                                                                A08 SPF00000000162100000000
111115003340000000000801000000000000000000000000000000001371564000000118119700000001903670000000000000BANRISUL FARMACIA BASICA FMS APLIC 4050 1064/040287221-0                                                                                            A08 SPF00000000162100000000
111115003350000000000801000000228313300000000000000000000200264000000000000000000024833970000000000000BANRISUL APLIC MATPERM PSES1098/2023 62113 1064/040287220-2                                                                                         A08 SPF00000000162100000000
111115003360000000000801000000054870900000000000000000000045337000000000000000000005940460000000000000BANRISUL APLIC DST PSES1099/2023  62114 1064/040287220-2                                                                                            A08 SPF00000000162100000000
111115003390000000000701000000077972100000000000000000075471235000007625095600000000000000000000000000BANRISUL Aplic PAVIMENTA RS ETAPA 2  70109 1064/040131530-6                                                                                         A08 SPF00000000170100000000
111115003400000000000801000000029785900000000000000000000024132000000000000000000003219910000000000000BB IMPLEM SEG ALIM NUTR SAU FMS APLIC 4505 3732-X/11482-0                                                                                           A08 SPF00000000160100000000
111115003410000000000902000000552661700000000000000000000348109000000500000000000008747260000000000000BANRISUL-APLIC- CONVENIO STDP-RS 2478/2023  66504 1064/040838600-8                                                                                  A08 SPF00000000166500000000
111115003420000000000902000000179013600000000000000000000091305000000164850000000002329410000000000000BANRISUL- APLIC- CONTRAP CONVENIO STDP-RS 2478/2023  500 1064/040838600-8                                                                           A08 SPF00000000150000000000
111115003430000000000602000000704170600000000000000000000574381000000000000000000076160870000000000000BB  RF CP ABSOLUTO PAVIM AREA INDUSTRIAL EMENDA IND 41210001 APLIC 70601 1030 3732-X/12204-1                                                        A08 SPF00000000170600000000
111115003450000000000801000000101626500000000000000000000089141000000000000000000011054060000000000000BANRISUL COVID-19 SAUDE MENTAL PORTSES506/2020 APLIC 4011 1064/040802490-4                                                                          A08 SPF00000000162100000000
111115003460000000000902000000000000000000000000000000000608826000000000000000000006088260000000000000BB PROCAD-SUAS FMAS APLIC 66007 3732-X/12485-0                                                                                                      A08 SPF00000000166000000000
111115003470000000000701000000421339300000000000000000000101146000000431453900000000000000000000000000BANRISUL Aplic CONTRAP PAVIMENTA RS ETAPA 2  70109 1064/040131530-6                                                                                 A08 SPF00000000150000000000
111115003500000000001004000000628930500000000000000000001498899000000026450900000075236950000000000000BANRISUL GERAL FMDMA APLIC 1005 1064/040285540-5                                                                                                    A08 SPF00000000175900000000
111115003510000000000801000000028754000000000000000000000026717000000000000000000003142570000000000000BB IRF-M 1 ESTRUT/ADEQ ASSIST ODONT APS RV4505 PORT GM/MS 3473/2020 APLIC 3732-X/11482-0                                                            A08 SPF00000000160100000000
111115003520000000000701000001088495300000000000000000000462642000000731960000000040279950000000000000BB INVESTIMENTO EMENIND 28610007 APLIC 70603 3732-X/12834-1                                                                                         A08 SPF00000000170600000000
111115003530000000000801000000409244400000000000000000000319474000000000000000000044119180000000000000BB RFCP PLENOESTRUT AB EMENDA 28620016 PORT MS/GM 961/2020 RV4505 FMS APLIC 4505 3732-X/11482-0                                                     A08 SPF00000000160100000000
111115003550000000001001000000701241200000000000000000000408953000000182990000000055914650000000000000BB INVESTIMENTO EMEN IND 30770001 APLIC 70604 3732-X/12831-7                                                                                        A08 SPF00000000170600000000
111115003570000000000902000000000000000000000000000000000148748000000000000000000001487480000000000000BANRISUL OASF FEAS FMAS APLIC 1103 1064/040806820-0                                                                                                 A08 SPF00000000166500000000
111115003580000000000502000000851245200000000000000000000317277000000672151400000021082150000000000000BB EDUC INF NOVAS TURMAS APLIC 1003 3732-X/12018-9                                                                                                  A08 SPF00000000156900000000
111115003690000000000502000000000000000000000000000000476324275000045194183400000243824410000000000000BB FUNDEB SMECDT APLIC 540 3732-X/13035-4                                                                                                           A08 SPF00000000154000000000
111115003700000000000902000000000000000000000000000000000166448000000016644800000000000000000000000000COVID-19/SUAS APLICCP AUTOMATICO PORT MC 751/2022 1019 3732-X/11143-0                                                                               A08 SPF00000000166000000000
111115003730000000000601000001292084000000000000000000000231996000001315283600000000000000000000000000BANRISUL PAVIMENTACAO ECOVILLA CONV FPE 456/2022 APLIC 1213 1064/040836340-7                                                                        A08 SPF00000000170100000000
111115003740000000000601000000976977500000000000000000000163415000000993319000000000000000000000000000BANRISUL CONTRAP PAVIMENTACAO ECOVILLA CONV FPE 456/2022 APLIC 1213 1064/040836340-7                                                                A08 SPF00000000150000000000
111115003750000000000801000001725540200000000000000000001383496000000440238000000142365180000000000000BANRISUL C/APLIC REFORMA UBS PORT SES 369 E 653/24  62119 1064/040839230-6                                                                          A08 SPF00000000162100000000
111115003760000000000902000000204558200000000000000000000111165000000132538600000008313610000000000000BB APLIC INCREMENTO TEMP PSB MP1218/24 FMAS  66009 3732-X/12841-4                                                                                   A08 SPF00000000166000000000
111115003780000000000902000000000000000000000000000000002472809000000090428200000015685270000000000000BBSIMPLES AGIL PAIF - PSB PBFI FMAS APLIC 066006 3732-X/11143-0                                                                                     A08 SPF00000000166000000000
111115003790000000000902000000000000000000000000000000003304211000000032578000000029784310000000000000BBCP AUTOMATICO SCFV- PSB FMAS APLIC 066005 3732-X/11143-0                                                                                          A08 SPF00000000166000000000
111115003810000000000801000000030128800000000000000000000022998000000000000000000003242860000000000000BB ESTRUT RF CP CLASSICO REDE SERV APS PORT2090 EMENDRELAT FMS APLIC 4505 3732-X/11482-0                                                            A08 SPF00000000160100000000
111115003830000000000902000000149456200000000000000000002839853000000187313500000024612800000000000000BB GBF IGDBF FMAS APLIC 1038 3732-X/11141-4                                                                                                         A08 SPF00000000166000000000
111115003840000000000202000000911566800000000000000000002031336000000000000000000111470040000000000000BB IR DOACAO APLIC FUNDICA 1050 3732-X/11012-4                                                                                                      A08 SPF00000000175900000000
111115003890000000000801000000046543000000000000000000000036534000000050196400000000000000000000000000BANRISUL NFG FMS APLIC 4300 1064/040830240-8                                                                                                        A08 SPF00000000162100000000
111115003910000000000701000000401458500000000000000000000274388000000000000000000042889730000000000000BB CUSTEIO EMENDIND32980001 APLIC 70607 3732-X/12839-2                                                                                              A08 SPF00000000170600000000
111115003920000000000603000000389663800000000000000000004223847000000812048500000000000000000000000000BANRISUL PAVIMENTA RS PREF APLIC 1212 1064/040835690-7                                                                                              A08 SPF00000000170100000000
111115003930000000000603000000032129400000000000000000000012403000000033369700000000000000000000000000BANRISUL CONTRAPARTIDA PAVIMENTA RS PREF APLIC 0001 1064/040835690-7                                                                                A08 SPF00000000150000000000
111115003960000000000801000000084019200000000000000000000068533000000000000000000009087250000000000000BB EMENDA RELATOR RF CP ABSOLUTO 81000293 VEICULO PORT1687 FMS APLIC 4505 3732-X/11482-0                                                            A08 SPF00000000160100000000
111115003970000000000801000000019163800000000000000000000016809000000000000000000002084470000000000000BANRISUL EQUIP ODONTO UBS PORT SES/RS 395/22 APLIC 4293 1064/040836820-4                                                                            A08 SPF00000000163200000000
111115003980000000000201000000026742700000000000000000053305462000004100601600000125668730000000000000BB BLOCO CUSTEIO SUS FMS APLIC 4000 3732-X/11473-1                                                                                                  S08 NPF00000000050000000000
111115003980100000000801000000000000000000000000000000036229268000003615318100000000760870000000000000BB APLIC CP PLENO CUSTEIO ATENCAO BASICA FMS 060001 3732-X/11473-1                                                                                  A09 SPF00000000160000000000
111115003980300000000801000000000000000000000000000000003784352000000300000000000007843520000000000000BB APLIC SIMPLES AGIL CUSTEIO  ASSIST FARMACEUTICA FMS  060004 3732-X/11473-1                                                                       A09 SPF00000000160000000000
111115003980900000000801000000026742700000000000000000002114089000000185283500000005286810000000000000BB PISO ENFERMAGEM APLIC 60500 3732-X/12645-4                                                                                                       A09 SPF00000000160500000000
111115003981000000000801000000000000000000000000000000010551632000000000000000000105516320000000000000BANRISUL REFORMA UBS RS EP 156 PORTSES-RS200/25 APLIC 62122 1064/040287229-6                                                                        A09 SPF00000000162100000000
111115003981100000000801000000000000000000000000000000000626121000000000000000000006261210000000000000BB QUALIFAR-SUS ORGANIZACAO PRT6841/25 FMS APLIC 60015 3732-X/11473-1                                                                               A09 SPF00000000160000000000
111115003990000000000201000013118403600000000000000000140687772000006037199900002114998090000000000000BB BLOCO INVESTIMENTO SUS FMS APLIC 4000 3732-X/11482-0                                                                                             S08 NPF00000000050000000000
111115003990200000000501000000022555900000000000000000000015416000000000000000000002409750000000000000BB FNDE/PAR/MOBILIARIO 2023 APLIC 56903 3732-X/12652-7                                                                                              A09 SPF00000000156900000000
111115003990500000000201000000000000000000000000000000018109650000001170580900000064038410000000000000BB CIP PREF APLIC 0001 3732-X/7641-4                                                                                                                A09 SPF00000000175100000000
111115003990600000000201000000000000000000000000000000022094014000000000000000000220940140000000000000BB FEP PREF APLIC 0704 3732-X/4015-0                                                                                                                A09 SPF00000000170400000000
111115003990700000000201000003891096800000000000000000088238950000004120638400000859435340000000000000BB FR501 APLIC PREF 0001 3732-X/12350-1                                                                                                             A09 SPF00000000150100000000
111115003991100000000201000000036718700000000000000000000032812000000000000000000003999990000000000000BANRISUL APLIC LC194/2022 PREF  502 1064/040131530-6                                                                                                A09 SPF00000000150200000000
111115003991200000001002000000294211800000000000000000000258067000000000000000000032001850000000000000BANRISUL CISTERNAS CONVFPE2411/2022 APLIC 70107 1064/040837210-4                                                                                    A09 SPF00000000170100000000
111115003991300000000503000000006580900000000000000000000004498000000000000000000000703070000000000000BB LC195/22 LEI PAULO GUSTAVO ART5 APLIC 715 3732-X/12627-6                                                                                         A09 SPF00000000171500000000
111115003991400000000503000000002422100000000000000000000001655000000000000000000000258760000000000000BB LC195/22 LEI PAULO GUSTAVO ART8 APLIC 716 3732-X/12628-4                                                                                         A09 SPF00000000171600000000
111115003991500000000201000000000000000000000000000000000068552000000000000000000000685520000000000000BB CFEM PREF APLIC 70801 3732-X/11636-X                                                                                                             A09 SPF00000000170800000000
111115003991600000000502000000773831600000000000000000000491214000000682780600000014017240000000000000BB ESCOLA TEMPO INTEGRAL APLIC 56904 3732-X/12707-8                                                                                                 A09 SPF00000000156900000000
111115003991700000001001000001003646300000000000000000000685970000000000000000000107224330000000000000BB INVESTIMENTO EMENDIND3666011 APLIC 70608 3732-X/12829-5                                                                                          A09 SPF00000000170600000000
111115003991800000000801000000160592400000000000000000000919401000000063200000000018933250000000000000BB APLIC SIMPLES SOLIDEZ CUSTEIO VISA FMS 60003 3732-X/11473-1                                                                                      A09 SPF00000000160000000000
111115003991900000000801000000000000000000000000000000000246151000000000000000000002461510000000000000BANRISUL APLIC PROTESE DENTARIA PORTSES 82/2024 E 110/2024 FMS 62120 1064/040287220-2                                                               A09 SPF00000000162100000000
111115003992000000000701000002007282600000000000000000001371933000000000000000000214447590000000000000BB INVESTIMENTO EMENDIND24070001 APLIC 70609 3732-X/12835-X                                                                                         A09 SPF00000000170600000000
111115003992100000001001000002409741000000000000000000001965590000000000000000000260630000000000000000BB INVESTIMENTO EMENDIND90480002 APLIC 70610 3732-X/12832-5                                                                                         A09 SPF00000000170600000000
111115003992200000000801000002509723500000000000000000002089498000000000000000000271867330000000000000BB EMENDA ESTRUT ATENCAO PRIMARIA SAUDE INVEST FMS APLIC 60106 3732-X/11482-0                                                                       A09 SPF00000000160100000000
111115003992300000000801000000000000000000000000000000004094401000000000000000000040944010000000000000BANRISUL INVERNO GAUCHO PORTSES322/2025 APLIC 62123 1064/040802760-1                                                                                A09 SPF00000000162100000000
111115005000000000000902000000224606800000000000000000000197014000000000000000000024430820000000000000BANRISUL CONVENIO STDP-RS 949/2023 APLIC 66503 1064/040837860-9                                                                                     A07 SPF00000000166500000000
111115006000000000000902000000012176200000000000000000000010061000000000000000000001318230000000000000BANRISUL CONTRAP CONVENIO STDP-RS 949/2023 APLIC 500 1064/040837860-9                                                                               A07 SPF00000000150000000000
111115007000000000001001000000216462300000000000000000000040982000000220560500000000000000000000000000BANRISUL APLIC COLHEDORA DE FORRAGENS CONV FPE 1447/2023-SDR/RS 70108 1064/040838800-0                                                              A07 SPF00000000170100000000
111115008000000000001001000000094073700000000000000000000016604000000095734100000000000000000000000000BANRISUL APLIC CONTRAP COLHEDORA DE FORRAGENS CONV FPE 1447/2023-SDR/RS 500 1064/040838800-0                                                        A07 SPF00000000150000000000
111115011000000000000801000000195076200000000000000000000133331000000000000000000020840930000000000000BB TRANSF DIGITAL SUS FMS APLIC 60010 3732-X/11473-1                                                                                                A07 SPF00000000160000000000
111115013000000000000902000000230041200000000000000000000201781000000000000000000025021930000000000000BANRISUL FEAS PISO GAUCHO REGULAR APLIC 66102 1064/040806820-0                                                                                      A07 SPF00000000166100000000
111115014000000000000801000000000000000000000000000000010718310000001071831000000000000000000000000000BB GERAL FMS APLIC 0040 3732-X/10062-5                                                                                                              A07 SPF00000000150000000000
111115015000000000000801000000000000000000000000000000001295579000000000000000000012955790000000000000BB FARMACIA FEDERAL CALAMIDADE MP 1218/2024 APLIC FMS 60012 3732-X/12847-3                                                                          A07 SPF00000000160000000000
111115018000000000000401000000000000000000000000000000025089337000002100000000000040893370000000000000BB SNA PREF APLIC 0001 3732-X/8928-1                                                                                                                A07 SPF00000000150000000000
111115019000000000000801000000000000000000000000000000001336317000000000000000000013363170000000000000BANRISUL APLIC QUALIFICA VIGILANCIA RS/PORTSES-RS847/2024 62121 1064/040287220-2                                                                    A07 SPF00000000162100000000
111115020000000000000201000000000000000000000000000000005260576000000071940000000045411760000000000000BANRISUL APLIC OFICINA ARTES/DANCAS CONV3910/2024-SJCDH/RS  70110 1064/040840510-6                                                                  A07 SPF00000000170100000000
111115021000000000001005000000000000000000000000000000026274270000000622400000000200502700000000000000BANRISUL APLIC ESTIAGEM 2025 PORT007/SPDC/2025  74801 1064/040838770-5                                                                              A07 SPF00000000174800000000
111115022000000000000202000000000000000000000000000000000522571000000000000000000005225710000000000000BANRISUL CONTRAP APLIC OFICINA ARTES/DANCAS CONV3910/2024-SJCDH/RS  70110 1064/040840510-6                                                          A07 SPF00000000150000000000
111115023000000000001005000000000000000000000000000000009567236000000925405200000003131840000000000000BB ESTIAGEM PORT1163/2025 SNPDC FUNDEC APLIC 74701 3732-X/13142-3                                                                                   A07 SPF00000000174700000000
111115024000000000000201000000000000000000000000000000100000000000010000000000000000000000000000000000SICREDI SICREDINVEST APLIC 0001 0306/07878-4                                                                                                        A07 SPF00000000150000000000
111115025000000000001001000000000000000000000000000000030694389000000000000000000306943890000000000000BANRISUL RECUPERACAO ESTRADAS VICINAIS CONVFPE334/2025 APLIC 70111 1064/040842520-8                                                                 A07 SPF00000000170100000000
111115026000000000000902000000000000000000000000000000002676770000000000000000000026767700000000000000BB APLIC INCREMENTO TEMP PSB MP1218/24 2025 FMAS 66010 3732-X/13078-8                                                                               A07 SPF00000000166000000000
111115200000000000000201000003342979900000000000000000027850826000000871556500000525650600000000000000APLICACOES FINANCEIRAS DE LIQUIDEZ IMEDIATA - RPPS - TAXA DE ADMINISTRACAO                                                                          S06 NPF00000000050000000000
111115201000000000005001000003342979900000000000000000027850826000000871556500000525650600000000000000BB TX ADM RPPS  12116-9 FPSM APLIC 802                                                                                                              A07 SPF00000000180200000000
111300000000000000000201000000000000000000000000000000624627304000060721931600000174079880000000000000CAIXA E EQUIVALENTES DE CAIXA - VALORES RESTITUIVEIS E VINCULADOS                                                                                   S04 NPP00000000050000000000
111310000000000000000201000000000000000000000000000000624627304000060721931600000174079880000000000000DEPOSITOS RESTITUIVEIS E VALORES VINCULADOS - CONSOLIDACAO                                                                                          S05 NPF00000000050000000000
111310100000000000000201000000000000000000000000000000624627304000060721931600000174079880000000000000DEPOSITOS CONSIGNADOS                                                                                                                               S06 NPF00000000050000000000
111310101000000000005001000000000000000000000000000000000084605000000008460500000000000000000000000000BB FPSM RETENCOES MOV 8001 3732-X/12116-9                                                                                                           A07 SPF00000000186900000000
111310102000000000000201000000000000000000000000000000263355384000024594739600000174079880000000000000BB RETENCOES PREF MOV 8001 3732-X/7132-3                                                                                                            A07 SPF00000000186900000000
111310103000000000000201000000000000000000000000000000326630387000032663038700000000000000000000000000BANRISUL RETENCOES MOV 8001 1064/040131530-6                                                                                                        A07 SPF00000000186900000000
111310105000000000000201000000000000000000000000000000034556928000003455692800000000000000000000000000SICREDI PREF RETENCAO 8001 0306/07878-4                                                                                                             A07 SPF00000000186900000000
112000000000000000000201000009346366100000000000000000163944256000017852158400000788863330000000000000CREDITOS A CURTO PRAZO                                                                                                                              S03 NPP00000000050000000000
112100000000000000000201000003428443100000000000000000152119454000012190941700000644944680000000000000CREDITOS TRIBUTARIOS A RECEBER                                                                                                                      S04 NPP00000000050000000000
112110000000000000000201000001583662700000000000000000151197074000010253923300000644944680000000000000CREDITOS TRIBUTARIOS A RECEBER - CONSOLIDACAO                                                                                                       S05 NPP00000000050000000000
112110100000000000000201000000965180400000000000000000128463631000009383187600000442835590000000000000IMPOSTOS                                                                                                                                            S06 NPP00000000050000000000
112110105000000000000201000000913031400000000000000000094967318000009107898000000130186520000000000000IPTU                                                                                                                                                A07 SPP00000000150000000000
112110106000000000000201000000000000000000000000000000031909022000000158116500000303278570000000000000ITBI                                                                                                                                                A07 SPP00000000150000000000
112110107000000000000201000000052149000000000000000000001587291000000117173100000009370500000000000000ISS                                                                                                                                                 A07 SPP00000000150000000000
112110200000000000000201000000524601400000000000000000013101732000000697461200000113731340000000000000TAXAS                                                                                                                                               S06 NPP00000000050000000000
112110201000000000000201000000132499300000000000000000006411015000000155373500000061822730000000000000TAXAS PELO EXERCICIO DO PODER DE POLICIA                                                                                                            A07 SPP00000000150000000000
112110202000000000000201000000392102100000000000000000006690717000000542087700000051908610000000000000TAXAS PELA PRESTACAO DE SERVICOS                                                                                                                    A07 SPP00000000150000000000
112110300000000000000201000000093880900000000000000000009631711000000173274500000088377750000000000000CONTRIBUICOES DE MELHORIA                                                                                                                           S06 NPP00000000050000000000
112110301000000000000201000000093880900000000000000000009631711000000173274500000088377750000000000000CONTRIBUICOES DE MELHORIA                                                                                                                           A07 SPP00000000150000000000
112120000000000000000201000001844780400000000000000000000922380000001937018400000000000000000000000000CREDITOS TRIBUTARIOS A RECEBER - INTRA OFSS                                                                                                         S05 NPP00000000050000000000
112127100000000000000201000001844780400000000000000000000922380000001937018400000000000000000000000000CREDITOS PREVIDENCIARIOS PARCELADOS                                                                                                                 S06 NPP00000000050000000000
112127101000000000005001000001844780400000000000000000000922380000001937018400000000000000000000000000PARCELAMENTO LEI1623/2005 360 PARCELAS CURTO PRAZO                                                                                                  A07 SPP00000000150000000000
112300000000000000000201000004288105600000000000000000001364396000004288105600000013643960000000000000CREDITOS DE TRANSFERENCIAS A RECEBER                                                                                                                S04 NPP00000000050000000000
112340000000000000000201000004288105600000000000000000001364396000004288105600000013643960000000000000CREDITOS DE TRANSFERENCIAS A RECEBER - INTER OFSS - ESTADO                                                                                          S05 NPP00000000050000000000
112340800000000000000201000004288105600000000000000000001364396000004288105600000013643960000000000000CREDITOS DECORRENTES DE TRANSFERENCIAS DE CONVENIOS                                                                                                 S06 NPP00000000050000000000
112340802000000000000201000004288105600000000000000000001364396000004288105600000013643960000000000000PAVIMENTA RS/ETAPA 2 70109                                                                                                                          A07 SPP00000000150000000000
112500000000000000000201000001970000000000000000000000008238613000001336027900000145783340000000000000DIVIDA ATIVA TRIBUTARIA                                                                                                                             S04 NPP00000000050000000000
112510000000000000000201000001970000000000000000000000008238613000001336027900000145783340000000000000DIVIDA ATIVA TRIBUTARIA - CONSOLIDACAO                                                                                                              S05 NPP00000000050000000000
112510100000000000000201000001720000000000000000000000005509578000000954737500000131622030000000000000DIVIDA ATIVA TRIBUTARIA DOS IMPOSTOS                                                                                                                S06 NPP00000000050000000000
112510105000000000000201000001680000000000000000000000005150472000000945485200000124956200000000000000DIVIDA ATIVA DO IPTU                                                                                                                                S07 NPP00000000050000000000
112510105030000000000201000001680000000000000000000000005150472000000945485200000124956200000000000000IPTU CP                                                                                                                                             A08 SPP00000000150000000000
112510107000000000000201000000040000000000000000000000000359106000000009252300000006665830000000000000DIVIDA ATIVA DO ISS                                                                                                                                 S07 NPP00000000050000000000
112510107030000000000201000000040000000000000000000000000301065000000009252300000006085420000000000000ISSQN CP                                                                                                                                            A08 SPP00000000150000000000
112510107040000000000201000000000000000000000000000000000058041000000000000000000000580410000000000000ISSQN - FIXO CP                                                                                                                                     A08 SPP00000000150000000000
112510200000000000000201000000250000000000000000000000002634660000000381290400000013217560000000000000DIVIDA ATIVA TRIBUTARIA DAS TAXAS                                                                                                                   S06 NPP00000000050000000000
112510201000000000000201000000070000000000000000000000001248023000000069051700000012575060000000000000DIVIDA ATIVA DAS TAXAS PELO EXERCICIO DO PODER DE POLICIA                                                                                           S07 NPP00000000050000000000
112510201030000000000201000000070000000000000000000000000884320000000062404700000009602730000000000000TAXA DE VISTORIA CP                                                                                                                                 A08 SPP00000000150000000000
112510201040000000000201000000000000000000000000000000000027150000000002486500000000022850000000000000VISTORIA SANITARIA CP                                                                                                                               A08 SPP00000000150000000000
112510201050000000000201000000000000000000000000000000000024110000000000000000000000241100000000000000ALVARA LICENCA E LOCALIZACAO CP                                                                                                                     A08 SPP00000000150000000000
112510201060000000000201000000000000000000000000000000000002810000000000000000000000028100000000000000TAXA LICENCA AMBIENTAL CP                                                                                                                           A08 SPP00000000150000000000
112510201070000000000201000000000000000000000000000000000042677000000004160500000000010720000000000000TAXA DE LICENCA DE LOCALIZACAO CP                                                                                                                   A08 SPP00000000150000000000
112510201080000000000201000000000000000000000000000000000266956000000000000000000002669560000000000000TAXA DE FISCALIZACAO CP                                                                                                                             A08 SPP00000000150000000000
112510202000000000000201000000180000000000000000000000001386637000000312238700000000642500000000000000DIVIDA ATIVA DAS TAXAS PELA PRESTACAO DE SERVICOS                                                                                                   S07 NPP00000000050000000000
112510202030000000000201000000000000000000000000000000000000418000000000000000000000004180000000000000CERTIDAO CP                                                                                                                                         A08 SPP00000000150000000000
112510202040000000000201000000000000000000000000000000000002027000000000188000000000001470000000000000TAXA DE EXPEDIENTE CP                                                                                                                               A08 SPP00000000150000000000
112510202050000000000201000000180000000000000000000000001384192000000312050700000000636850000000000000TAXA DE COLETA DE LIXO CP                                                                                                                           A08 SPP00000000150000000000
112510300000000000000201000000000000000000000000000000000094375000000000000000000000943750000000000000DIVIDA ATIVA DAS CONTRIBUICOES DE MELHORIA                                                                                                          S06 NPP00000000050000000000
112510301000000000000201000000000000000000000000000000000094375000000000000000000000943750000000000000DIVIDA ATIVA DAS CONTRIBUICOES DE MELHORIA                                                                                                          S07 NPP00000000050000000000
112510301010000000000201000000000000000000000000000000000094375000000000000000000000943750000000000000COBRANCA ADMINISTRATIVA                                                                                                                             A08 SPP00000000150000000000
112600000000000000000201000000020000000000000000000000002221793000000037083200000020509610000000000000DIVIDA ATIVA NAO TRIBUTARIA                                                                                                                         S04 NPP00000000050000000000
112610000000000000000201000000020000000000000000000000002221793000000037083200000020509610000000000000DIVIDA ATIVA NAO TRIBUTARIA  - CONSOLIDACAO                                                                                                         S05 NPP00000000050000000000
112610100000000000000201000000000000000000000000000000000013925000000000000000000000139250000000000000DIVIDA ATIVA NAO TRIBUTARIA                                                                                                                         S06 NPP00000000050000000000
112610102000000000000201000000000000000000000000000000000013925000000000000000000000139250000000000000DIVIDA ATIVA NAO TRIBUTARIA - EXCETO TITULO DO TCE/RS                                                                                               A07 SPP00000000150000000000
112619900000000000000201000000020000000000000000000000002207868000000037083200000020370360000000000000DEMAIS VALORES INSCRITOS EM DIVIDA ATIVA NAO TRIBUTARIA                                                                                             S06 NPP00000000050000000000
112619902000000000000201000000020000000000000000000000000097573000000003735700000002602160000000000000SERV MAQUINA CP                                                                                                                                     A07 SPP00000000150000000000
112619903000000000000201000000000000000000000000000000000860587000000028273000000005778570000000000000STT - MILHO CP                                                                                                                                      A07 SPP00000000150000000000
112619904000000000000201000000000000000000000000000000000140871000000000000000000001408710000000000000CALCARIO CP                                                                                                                                         A07 SPP00000000150000000000
112619905000000000000201000000000000000000000000000000000107154000000000000000000001071540000000000000HABITACAO CP                                                                                                                                        A07 SPP00000000150000000000
112619906000000000000201000000000000000000000000000000000003498000000000000000000000034980000000000000PROGRAMA PSICULTURA CP                                                                                                                              A07 SPP00000000150000000000
112619907000000000000201000000000000000000000000000000000144898000000000000000000001448980000000000000CLARO TELEFONE CP                                                                                                                                   A07 SPP00000000150000000000
112619908000000000000201000000000000000000000000000000000009671000000000000000000000096710000000000000INDENIZACOES E RESTITUICOES CP                                                                                                                      A07 SPP00000000150000000000
112619909000000000000201000000000000000000000000000000000019990000000000000000000000199900000000000000VIVO TELEFONE CP                                                                                                                                    A07 SPP00000000150000000000
112619910000000000000201000000000000000000000000000000000603970000000000000000000006039700000000000000MULTAS E JUROS PREVISTOS EM CONTRATO CP                                                                                                             A07 SPP00000000150000000000
112619911000000000000201000000000000000000000000000000000069417000000000000000000000694170000000000000VIVO TELEFONE 2008 CP                                                                                                                               A07 SPP00000000150000000000
112619912000000000000201000000000000000000000000000000000059520000000000000000000000595200000000000000CLARO TELEFONE 2008 CP                                                                                                                              A07 SPP00000000150000000000
112619913000000000000201000000000000000000000000000000000001364000000000000000000000013640000000000000TELEFONE CELULAR CP                                                                                                                                 A07 SPP00000000150000000000
112619914000000000000201000000000000000000000000000000000071463000000005074500000000207180000000000000MULTA AUTO DE INFRACAO CP                                                                                                                           A07 SPP00000000150000000000
112619916000000000000201000000000000000000000000000000000017892000000000000000000000178920000000000000GLOSA EM PRESTACAO DE CONTAS CP                                                                                                                     A07 SPP00000000150000000000
112900000000000000000201000000000000000000036018260000000000000000000000000000000000000000000003601826- AJUSTE DE PERDAS DE CREDITOS A CURTO PRAZO                                                                                                        S04 NPP00000000050000000000
112910000000000000000201000000000000000000036018260000000000000000000000000000000000000000000003601826- AJUSTE DE PERDAS DE CREDITOS A CURTO PRAZO - CONSOLIDACAO                                                                                         S05 NPP00000000050000000000
112910400000000000000201000000000000000000036018260000000000000000000000000000000000000000000003601826- PERDAS ESTIMADAS EM CREDITOS DE DIVIDA ATIVA TRIBUTARIA                                                                                           S06 NPP00000000050000000000
112910401000000000000201000000000000000000029960380000000000000000000000000000000000000000000002996038- PERDAS ESTIMADAS EM CREDITOS DE DIVIDA ATIVA TRIBUTARIA - IMPOSTOS                                                                                S07 NPP00000000050000000000
112910401050000000000201000000000000000000028933650000000000000000000000000000000000000000000002893365- PERDAS ESTIMADAS EM CREDITOS DE DIVIDA ATIVA TRIBUTARIA - IPTU                                                                                    A08 SPP00000000150000000000
112910401070000000000201000000000000000000001026730000000000000000000000000000000000000000000000102673- PERDAS ESTIMADAS EM CREDITOS DE DIVIDA ATIVA TRIBUTARIA - ISS                                                                                     A08 SPP00000000150000000000
112910402000000000000201000000000000000000006057880000000000000000000000000000000000000000000000605788- PERDAS ESTIMADAS EM CREDITOS DE DIVIDA ATIVA TRIBUTARIA - TAXAS                                                                                   A07 SPP00000000150000000000
113000000000000000000201000000480591100000000000000000463825615000041007724200000585542840000000000000DEMAIS CREDITOS E VALORES A CURTO PRAZO                                                                                                             S03 NPP00000000050000000000
113100000000000000000201000000020000000000000000000000037356928000003565692800000019000000000000000000ADIANTAMENTOS CONCEDIDOS                                                                                                                            S04 NPP00000000050000000000
113110000000000000000201000000020000000000000000000000037356928000003565692800000019000000000000000000ADIANTAMENTOS CONCEDIDOS - CONSOLIDACAO                                                                                                             S05 NPP00000000050000000000
113110100000000000000201000000000000000000000000000000034556928000003455692800000000000000000000000000ADIANTAMENTOS CONCEDIDOS A PESSOAL                                                                                                                  S06 NPP00000000050000000000
113110101000000000000201000000000000000000000000000000010958678000001095867800000000000000000000000000SALARIOS E ORDENADOS - ADIANTAMENTOS                                                                                                                A07 SPF00000000186900000000
1131101040000000000002010000000000000000000000000000000189623780000018962378000000000000000000000000001/3 DE FERIAS - ADIANTAMENTO                                                                                                                        A07 SPF00000000186900000000
113110199000000000000201000000000000000000000000000000004635872000000463587200000000000000000000000000OUTROS ADIANTAMENTOS A PESSOAL                                                                                                                      A07 SPF00000000186900000000
113110200000000000000201000000020000000000000000000000002800000000000110000000000019000000000000000000SUPRIMENTO DE FUNDOS                                                                                                                                S06 NPP00000000050000000000
113110201000000000000201000000000000000000000000000000000100000000000000000000000001000000000000000000JAIRO JOSE MELLER                                                                                                                                   A07 SPP00000000150000000000
113110202000000000000201000000000000000000000000000000000200000000000010000000000001000000000000000000ADALBERTO MARTINI                                                                                                                                   A07 SPP00000000150000000000
113110204000000000000201000000000000000000000000000000000100000000000000000000000001000000000000000000VERIDIANA NOGARA                                                                                                                                    A07 SPP00000000150000000000
113110210000000000000201000000000000000000000000000000000100000000000000000000000001000000000000000000JAIR CESAR SOUZA                                                                                                                                    A07 SPP00000000150000000000
113110211000000000000201000000000000000000000000000000000100000000000000000000000001000000000000000000ANDERSON DIEGO SALAZAR                                                                                                                              A07 SPP00000000150000000000
113110218000000000000201000000020000000000000000000000000000000000000000000000000002000000000000000000CELSON SIDINEI SCHULTZ FONSECA                                                                                                                      A07 SPP00000000150000000000
113110227000000000000201000000000000000000000000000000000100000000000000000000000001000000000000000000FABIO MARCELO DE PAULA PAVLAK                                                                                                                       A07 SPP00000000150000000000
113110228000000000000201000000000000000000000000000000000100000000000000000000000001000000000000000000JORGE LUIS DOS SANTOS                                                                                                                               A07 SPP00000000150000000000
113110229000000000000201000000000000000000000000000000001000000000000050000000000005000000000000000000VIVIANE KEIST                                                                                                                                       A07 SPP00000000150000000000
113110230000000000000201000000000000000000000000000000001000000000000050000000000005000000000000000000RAFAELE ISABEL PELLENZ                                                                                                                              A07 SPP00000000150000000000
113200000000000000000201000000000000000000000000000000001962492000000160244500000003600470000000000000TRIBUTOS A RECUPERAR/COMPENSAR                                                                                                                      S04 NPP00000000050000000000
113230000000000000000201000000000000000000000000000000001962492000000160244500000003600470000000000000TRIBUTOS A RECUPERAR/COMPENSAR - INTER OFSS - UNIAO                                                                                                 S05 NPP00000000050000000000
113230600000000000000201000000000000000000000000000000001962492000000160244500000003600470000000000000CONTRIBUICAO AO RGPS A COMPENSAR                                                                                                                    S06 NPF00000000050000000000
113230601000000000000201000000000000000000000000000000001919376000000157232900000003470470000000000000SALARIO-MATERNIDADE A COMPENSAR                                                                                                                     A07 SPF00000000186900000000
113230603000000000000201000000000000000000000000000000000043116000000003011600000000130000000000000000SALARIO-FAMILIA A COMPENSAR                                                                                                                         A07 SPF00000000186900000000
113400000000000000000201000000372745300000000000000000000750074000000323234900000012451780000000000000CREDITOS POR DANOS AO PATRIMONIO                                                                                                                    S04 NPP00000000050000000000
113410000000000000000201000000372745300000000000000000000750074000000323234900000012451780000000000000CREDITOS POR DANOS AO PATRIMONIO - CONSOLIDACAO                                                                                                     S05 NPP00000000050000000000
113410100000000000000201000000372745300000000000000000000750074000000323234900000012451780000000000000CREDITOS POR DANOS AO PATRIMONIO DECORRENTES DE PROCESSOS ADMINISTRATIVOS                                                                           S06 NPP00000000050000000000
113410103000000000000201000000038442600000000000000000000750074000000007950000000010550000000000000000CREDITOS A RECEBER DECORRENTES DE DOLO MA-FE OU FRAUDE                                                                                              A07 SPP00000000150000000000
113410105000000000000201000000196279400000000000000000000000000000000196279400000000000000000000000000CREDITOS A RECEBER POR IRREGULARIDADES DE TERCEIROS EM PRESTACAO DE SERVICOS                                                                        S07 NPP00000000050000000000
113410105060000000000201000000196279400000000000000000000000000000000196279400000000000000000000000000GESSELMAR AVELINO BOLICO EPP                                                                                                                        A08 SPP00000000150000000000
113410199000000000000201000000138023300000000000000000000000000000000119005500000001901780000000000000OUTROS CREDITOS POR DANO AO PATRIMONIO - CREDITOS ADMINISTRATIVOS                                                                                   S07 NPP00000000050000000000
113410199060000000000201000000109590500000000000000000000000000000000109590500000000000000000000000000ADRIANA NASCIMENTO DO AMARAL INSCRICAO 4935                                                                                                         A08 SPP00000000150000000000
113410199200000000000201000000028432800000000000000000000000000000000009415000000001901780000000000000PEDRO MACHADO PORTSIND64/2022-PA DANOS EM VEICULO                                                                                                   A08 SPP00000000150000000000
113600000000000000000201000000000000000000000000000000413724345000036559518500000481291600000000000000CREDITOS PREVIDENCIARIOS A RECEBER A CURTO PRAZO                                                                                                    S04 NPP00000000050000000000
113620000000000000000201000000000000000000000000000000413724345000036559518500000481291600000000000000CREDITOS PREVIDENCIARIOS A RECEBER A CURTO PRAZO - INTRA OFSS                                                                                       S05 NPP00000000050000000000
113620100000000000000201000000000000000000000000000000413724345000036559518500000481291600000000000000CONTRIBUICOES PREVIDENCIARIAS A RECEBER - RPPS                                                                                                      S06 NPP00000000050000000000
113620101010000000005001000000000000000000000000000000133482207000011696071900000165214880000000000000CONTRIBUICAO PATRONAL PARA O RPPS - ALIQUOTA NORMAL                                                                                                 A08 SPP00000000150000000000
113620101020000000005001000000000000000000000000000000151303795000013415242600000171513690000000000000CONTRIBUICAO PATRONAL - ALIQUOTA SUPLEMENTAR                                                                                                        A08 SPP00000000150000000000
113620102000000000005001000000000000000000000000000000128938343000011448204000000144563030000000000000CONTRIBUICOES DO RPPS A RECEBER - SERVIDOR APOSENTADO E PENSIONISTA - FUNDO EM CAPITALIZACAO                                                        A07 SPP00000000150000000000
113800000000000000000201000000087845800000000000000000010031776000000399033500000069198990000000000000OUTROS CREDITOS A RECEBER E VALORES A CURTO PRAZO                                                                                                   S04 NPP00000000050000000000
113810000000000000000201000000087845800000000000000000010031776000000399033500000069198990000000000000OUTROS CREDITOS A RECEBER E VALORES A CURTO PRAZO - CONSOLIDACAO                                                                                    S05 NPP00000000050000000000
113810100000000000000201000000000000000000000000000000002802076000000047771600000023243600000000000000ALUGUEIS A RECEBER                                                                                                                                  A06 SPP00000000150000000000
113810700000000000000201000000000000000000000000000000006392088000000196279400000044292940000000000000CREDITOS A RECEBER DECORRENTES DE INFRACOES LEGAIS E CONTRATUAIS                                                                                    A06 SPP00000000150000000000
113819900000000000000201000000087845800000000000000000000837612000000154982500000001662450000000000000OUTROS CREDITOS A RECEBER E VALORES DE CURTO PRAZO                                                                                                  S06 NPP00000000050000000000
113819901000000000000201000000077885300000000000000000000559649000000133850200000000000000000000000000STT-MILHO A RECEBER                                                                                                                                 A07 SPP00000000150000000000
113819902000000000000201000000009960500000000000000000000217586000000015094600000001662450000000000000SERVICOS DE MAQUINA A RECEBER                                                                                                                       A07 SPP00000000150000000000
113819903000000000000201000000000000000000000000000000000060377000000006037700000000000000000000000000STT-SORGO                                                                                                                                           A07 SPP00000000150000000000
114000000000000000000201000400585763400000000000000000725572869000038578693200043456435710000000000000INVESTIMENTOS E APLICACOES TEMPORARIAS A CURTO PRAZO                                                                                                S03 NPP00000000050000000000
114400000000000000000201000400585763400000000000000000725572869000038578693200043456435710000000000000INVESTIMENTOS E APLICACOES TEMPORARIAS DE CURTO PRAZO - RPPS                                                                                        S04 NPP00000000050000000000
114410000000000000000201000400585763400000000000000000725572869000038578693200043456435710000000000000INVESTIMENTOS E APLICACOES TEMPORARIAS DE CURTO PRAZO DO RPPS - CONSOLIDACAO                                                                        S05 NPP00000000050000000000
114410100000000000000201000331914077000000000000000000308706531000004264856800035851987330000000000000APLICACOES EM SEGMENTO DE RENDA FIXA - RPPS - FUNDO EM CAPITALIZACAO                                                                                S06 NPP00000000050000000000
114410102000000000000201000154356451900000000000000000136903797000001847128500016619970310000000000000FUNDOS DE INVESTIMENTO QUE APLICAM EXCLUSIVAMENTE EM TITULOS DE EMISSAO DO TESOURO NACIONAL OU COMPROMISSADAS LASTREADAS NESSES TITULOS             S07 NPP00000000050000000000
114410102020000000005001000057334178900000000000000000053273010000000000000000006266147990000000000000BB PREV RF IRF-M1 TP FPSM APLIC 0050 3732-X/11698-X                                                                                                 A08 SPF00000000180000000000
114410102030000000005001000029302884700000000000000000025918683000001847128500003004762450000000000000CEF FPSM FI BRASIL 2028 X TP RF APLIC 800 0521/006295-1                                                                                             A08 SPF00000000180000000000
114410102060000000005001000025618781000000000000000000019958805000000000000000002761466150000000000000BANRISUL RPPS II FI RF - NTN-B 27 FPSM APLIC 800 1064/040839800-6                                                                                   A08 SPF00000000180000000000
114410102070000000005001000042100607300000000000000000037753299000000000000000004587593720000000000000SICREDI TAXA SELIC FIC FIRF LP FPSM APLIC 800 0306/11359-8                                                                                          A08 SPF00000000180000000000
114410103000000000000201000040247408600000000000000000027976022000002417728300004062728250000000000000FUNDOS DE INVESTIMENTO EM INDICE DE MERCADO DE RENDA FIXA                                                                                           S07 NPF00000000050000000000
114410103020000000005001000040247408600000000000000000027976022000002417728300004062728250000000000000BB RF TP 2026 FPSM APLIC 800 3732-X/11698-X                                                                                                         A08 SPF00000000180000000000
114410105000000000000201000137310216500000000000000000143826712000000000000000015169288770000000000000FUNDOS DE INVESTIMENTO EM RENDA FIXA                                                                                                                S07 NPF00000000050000000000
114410105030000000005001000069542667400000000000000000082703935000000000000000007781306090000000000000CEF FI BRASIL REFERENCIADO DI LP FPSM 0050 0521/006/00000295-1                                                                                      A08 SPF00000000180000000000
114410105040000000005001000067767549100000000000000000061122777000000000000000007387982680000000000000SICREDI LIQUIDEZ EMPRESARIAL REF DI FI RF FPSM 0050 0306/11359-8                                                                                    A08 SPF00000000180000000000
114419901000000000005001000068671686400000000000000000416866338000034313836400007604448380000000000000BB PREVID RF REFERENCIADO DI LP PERFIL FPSM APLIC 0050 3732-X/11698-X                                                                               A07 SPF00000000180000000000
115000000000000000000201000005880316600000000000000000094847284000007872686900000749235810000000000000ESTOQUES                                                                                                                                            S03 NPP00000000050000000000
115600000000000000000201000005880316600000000000000000094847284000007872686900000749235810000000000000ALMOXARIFADO                                                                                                                                        S04 NPP00000000050000000000
115610000000000000000201000005880316600000000000000000094847284000007872686900000749235810000000000000ALMOXARIFADO - CONSOLIDACAO                                                                                                                         S05 NPP00000000050000000000
115610100000000000000201000000000000000000000000000000000049600000000004960000000000000000000000000000MATERIAL DE CONSUMO                                                                                                                                 A06 SPP00000000150000000000
115619900000000000000201000005880316600000000000000000094797684000007867726900000749235810000000000000OUTROS - ALMOXARIFADO                                                                                                                               A06 SPP00000000150000000000
119000000000000000000201000004744289700000000000000000080153831000003360792400000939888040000000000000VARIACOES PATRIMONIAIS DIMINUTIVAS PAGAS ANTECIPADAMENTE                                                                                            S03 NPF00000000050000000000
119100000000000000000201000000096760800000000000000000001567631000000141402300000011212160000000000000PREMIOS DE SEGUROS A APROPRIAR                                                                                                                      S04 NPF00000000050000000000
119119900000000000000201000000096760800000000000000000001567631000000141402300000011212160000000000000VPD Paga Antecipadamente -Outros Premios de Seguros a Apropriar                                                                                     A06 SPP00000000150000000000
119200000000000000000201000000000000000000000000000000001564124000000156412400000000000000000000000000VPD FINANCEIRAS A APROPRIAR                                                                                                                         S04 NPF00000000050000000000
119210000000000000000201000000000000000000000000000000001564124000000156412400000000000000000000000000VPD FINANCEIRAS A APROPRIAR - CONSOLIDACAO                                                                                                          S05 NPF00000000050000000000
119210100000000000000201000000000000000000000000000000001564124000000156412400000000000000000000000000RENDIMENTOS FINANCEIROS DO LEGISLATIVO ANTECIPADOS COMO DUODECIMO                                                                                   A06 SPF00000000150000000000
119300000000000000000201000000009439800000000000000000000165230000000014908300000001105450000000000000ASSINATURAS E ANUIDADES A APROPRIAR                                                                                                                 S04 NPF00000000050000000000
119310000000000000000201000000009439800000000000000000000165230000000014908300000001105450000000000000ASSINATURAS E ANUIDADES A APROPRIAR - CONSOLIDACAO                                                                                                  A05 SPP00000000150000000000
119400000000000000000201000000093337500000000000000000000000000000000021332000000007200550000000000000ALUGUEIS PAGOS A APROPRIAR                                                                                                                          S04 NPF00000000050000000000
119410000000000000000201000000093337500000000000000000000000000000000021332000000007200550000000000000ALUGUEIS PAGOS A APROPRIAR - CONSOLIDACAO                                                                                                           S05 NPP00000000050000000000
119410100000000000000201000000093337500000000000000000000000000000000021332000000007200550000000000000LOCACAO DE AREA PARA RETIRADA DE CASCALHO                                                                                                           A06 SPP00000000150000000000
119800000000000000000201000004544751600000000000000000076856846000003026737400000920369880000000000000DEMAIS VPD A APROPRIAR                                                                                                                              S04 NPF00000000050000000000
119810000000000000000201000004544751600000000000000000076856846000003026737400000920369880000000000000DEMAIS VPD A APROPRIAR - CONSOLIDACAO                                                                                                               S05 NPP00000000050000000000
119810100000000000000201000003766480300000000000000000076856846000003026737400000842542750000000000000PARCELAS DE PARCERIAS PAGAS A APROPRIAR                                                                                                             S06 NPP00000000050000000000
119810101000000000000201000002452260000000000000000000011200000000001112260000000246000000000000000000APAE DE INDEPENDENCIA                                                                                                                               S07 NPP00000000050000000000
119810101060000000000201000000152260000000000000000000000000000000000152260000000000000000000000000000TERMO DE FOMENTO 002/2024 APAE INDEPENDENCIA                                                                                                        A08 SPP00000000150000000000
