87612826000190010120253108202510092025PREFEITURA MUNICIPAL INDEPENDENCIA                                              
0000000006FPSM - CONTRIBUICAO AO FAPS                                 12091144000180000000000000000000000000000000RUA SENADOR PINHEIRO                              INDEPENDENCIA                 RS989150000000000000000000000000000000000102
0000000018FLAVIO JORGE HUBER                                          02707094000169147003515100000000000000000000AVENIDA URUGUAI439                                TRES DE MAIO                  RS989100003535103800000000000000000000000102
0000000032WILKOMM   WILKOMM LTDA                                      93212595000120147002452400000000000000000000RUA SANTA DOLORES N  28                           TRES DE MAIO                  RS989100003535108500000000000000000000000102
0000000038CREA - CONSREGDE ENGARQE AGRDO RGS                          92695790000195000000000000000000000000000000PORTO ALEGRE                                      PORTO ALEGRE                  RS904080000000000000000000000000000000000102
0000000039MJB - MOACIR JOSE BACKES - ME                               91500405000144147002056100000000000000000000AVENIDA PLANALTO1194                              TRES DE MAIO                  RS989100003535158400000000000000000000000102
0000000047HSVP -ASSOCIACAO DE LITERATURA E BENEFICIENCIA              92962869000720000000000000000111030340000000RUA OSVALDO CRUZ381                               TRES DE MAIO                  RS989100003535100000000000000000000000000102
0000000052ANTONIO AVELINO FERREIRA                                    00046252240044000000000000000000000000000000MOTORISTA/VEREADOR                                INDEPENDENCIA                 RS989150000000000000000000000000000000000101
0000000058VANDERLEIA APARECIDA DARONCO CAUDURO                        00090064224015000000000000000000000000000000PROFESSORA                                        INDENPENDENCIA                RS989150000000000000000000000000000000000101
0000000064AMUFRON - ASSOC MUNIC FRONT NOROESTE ex AMGSR               87689006000104000000000000000000000000000000RUA BUENOS AIRES 25                               SANTA ROSA                    RS989000005535125774000000000000000000000102
0000000070JOSE MARSCHNER                                              00049907239020000000000000000000000000000000OPERARIO                                          INDEPENDENCIA                 RS989150000000000000000000000000000000000101
0000000077VIACAO OURO E PRATA S/A                                     92954106000142962042935000000000000000000000PIX EMAIL faturamentoouroepratacom                PORTO ALEGRE                  RS900109085133758563000000000000000000000102
0000000079ESA - ESTRUTURAS METALICAS LTDA                             91635144000170147002086300000000000000000000RUA HORIZONTINA1882                               TRES DE MAIO                  RS989100005535351952000000000000000000000102
0000000087PRESIDENCIA DO TRIBUNAL DE JUSTICA                          89522064000166000000000000000000000000000000PORTO ALEGRE                                      PORTO ALEGRE                  RS904080000000000000000000000000000000000102
0000000104JOSE SADI DA SILVA                                          00037305417068000000000000000000000000000000MOTORISTA                                         INDEPENDENCIA                 RS989150000000000000000000000000000000000101
0000000110LUCIANA DO CARMO FONSECA DE BARROS                          00071187456004000000000000000000000000000000PROFESSORA                                        INDEPENDENCIA                 RS989150000000000000000000000000000000000101
0000000111MILTON FROHLICH DOS SANTOS                                  00029033780020000000000000000000000000000000RUA SENADOR PINHEIRO 1348                         INDEPENDENCIA                 RS989150000000000000000000000000000000000101
0000000134GRAFICA VILANI LTDA                                         00117983000140147003047800000000000000000000RSANTO ANGELO 455                                 TRES DE MAIO                  RS989100005352080000000000000000000000000102
0000000135P E GERARRDI   CIA LTDA                                     98036213000178147001301800000000000000000000AVENIDA SANTA ROSA 763                            TRES DE MAIO                  RS989100005351052000000000000000000000000102
0000000137MARLI NABINGER WEDDIGEN-RECUPERADORA DE PARABRISAS          05900970000167000000000000000000000000000000AV SANTA ROSA N 1170 - FUNDOS SALA 01             TRES DE MAIO                  RS989100005535351271000000000000000000000102
0000000143RICARDO KUBITZ LTDA - HIDRAULICA KUBITZ                     05343028000145110009042500000000000000000000RUA HENRIQUE GASSEN 623                           SANTA ROSA                    RS989000003512561820000000000000000000000102
0000000144AIRTON SCHULTZ                                              00097161900000000000000000000000000000000000ESQUINA BOA VISTA- INTERIOR MUNIC INDEPENDENCIA   INDEPENDENCIA                 RS989150000000000000000000000000000000000101
0000000149OI - BRASIL TELECOM SA- 51-074-6918net                      76535764000224962845833000000000000000000000AVBORGES DE MEDEIROS512                           PORTO ALEGRE                  RS989150008000310800000000000000000000000102
0000000150JAIR CESAR SOUZA                                            00050056190034000000000000000000000000000000MOTORISTA                                         INDEPENDENCIA                 RS989150005599646188000000000000000000000101
0000000153VALMIR RICHTER                                              00051774771004000000000000000000000000000000SERVIDOR DA CAMARA DE VEREADORES                  INDEPENDENCIA                 RS989150000000000000000000000000000000000101
0000000155INSS - CONTRIBUICAO AO INSS                                 29979036000140000000000000000000000000000000SEM ENDERECO                                      INDEPENDENCIA                 RS989150000000000000000000000000000000000102
0000000167ABASE SISTEMAS E SOLUCOES LTDA                              93088649000197147002547400000000000000000000AVSENALBERTO PASQUALINI 347                       TRES DE MAIO                  RS989100003535490000000000000000000000000102
0000000173COMERCIO DE EXTINTORES HORIZONTINA LTDA                     01013974000172620022191000000000000000000000RUA OSVALDO CRUZ 40                               HORIZONTINA                   RS989200005535373877000000000000000000000102
0000000177FAMURS - FEDERACAO DAS ASSOC MUN DO RGS                     88733811000142000000000000000000000000000000RUA MARCILIO DIAS  574                            PORTO ALEGRE                  RS900029005132313833000000000000000000000102
0000000178THOME COMERCIO DE PNEUS LTDA LTDA                           87693255000165147000991600000000000000000000BR 472 - Km 31                                    TRES DE MAIO                  RS989100005535351580000000000000000000000102
0000000182NERY DE ARAUJO E SILVA                                      00016279573087198102417100000000000000000000INDEPENDENCIA                                     INDEPENDENCIA                 RS989150005599681393200000000000000000000101
0000000186MARCOS JOCEMAR MELLER DOMENIGHI                             00065928903049000000000000000000000000000000TESOUREIRO                                        INDEPENDENCIA                 RS989150000000000000000000000000000000000101
0000000187COTRIMAIO - COOP AGROPECUARIA AULTDA                        98042120004577198000336700000000000000000000AV TRES DE MAIO 1101                              INDEPENDENCIA                 RS989150005553912110000000000000000000000102
0000000200MABOTOLLI   CIA LTDA                                        03156129000181110007254000000000000000000000AV EXPEDICIONARIO WEBER 2627                      SANTA ROSA                    RS989000003511778800000000000000000000000102
0000000204VANDIR MIETH E CIA LTDA                                     89394332000101110002397300000000000000000000AVINHACORA 119                                    SANTA ROSA                    RS989000005122020000000000000000000000000102
0000000209LOJAS QUERO-QUERO S/A                                       96418264002425147002125900000000000000000000RUA PADRE CACIQUE 1100                            TRES DE MAIO                  RS989100003535975000000000000000000000000102
0000000213FOLHA DE PGTO - SERVIDORES DIVERSOS                         87612826000190000000000000000000000000000000RUA SENADOR PINHEIRO 1348                         INDEPENDENCIA                 RS989150000000000000000000000000000000000102
0000000217EMATER -ASSOC RIOGR DE EMPR DE ASSIST TEC                   89161475000173000000000000000000000000000000R BOTAFOGO 1051                                   PORTO ALEGRE                  RS900501609991177920000000000000000000000102
0000000221BANCO CAIXA ECONOMICA FEDERAL                               00360305052171000000000000000000000000000000TRES DE MAIO                                      TRES DE MAIO                  RS989100000000000000000000000000000000000102
0000000222ADILAR MELLER                                               00056028326020000000000000000000000000000000Motorista e Vereador                              INDEPENDENCIA                 RS989150000000000000000000000000000000000101
0000000223CORSAN - COMP RIOGRANDENSE DE SANEAMENTO                    92802784000190198000000000000000000000000000AV TRES DE MAIO 646/0                             INDEPENDENCIA                 RS989150001451321558100000000000000000000102
0000000224CERTHIL -Luz-  COOP DISTENERGIA ENTRE RIOS LTDA             98042963000152000000000000000000000000000000AVAVAI 960SICREDI AG 0306 C/30162-0               TRES DE MAIO                  RS989100005553515000000000000000000000000102
0000000226JORGE TABORDA WITCZAK                                       00051775727068000000000000000000000000000000RUA SANTO ANGELO 421                              INDEPENDENCIA                 RS989150005599312234000000000000000000000101
0000000231CONTRIBUICAO AO PASEP- CODIGO 3703                          87612826000190000000000000000000000000000000                                                  IND                           RS989150000000000000000000000000000000000102
0000000236ASSOCIACAO HOSPITALAR CARIDADE SANTA ROSA                   95815668000101110001430300000000000000000000RUA DR FRANCISCO TIMM656                          SANTA ROSA                    RS989000003512505000000000000000000000000102
0000000237LUCELIA FERRAZ BUENO RICHTER                                00000296894060000000000000000000000000000000Auxiliar de Escriturario                          INDEPENDENCIA                 RS989150000000000000000000000000000000000101
0000000249FGTS - CONTRIBUICAO AO FGTS                                 00000000000000000000000000000000000000000000NENHUM                                            NENHUM                        RS989150000000000000000000000000000000000101
0000000250GRAMEIRA PROAMBI LTDA                                       95201257000118147002937200000000000000000000ESTRADA VICINAL S/NO VILA CONSOLATA               TRES DE MAIO                  RS989100005581149949000000000000000000000102
0000000256JOSE VALMOR PIPPER                                          00033622450053000000000000000000000000000000MOTORISTA                                         INDEPENDENCIA                 RS989150000000000000000000000000000000000101
0000000264DPM BORBA PAUSE   PERIN - ADVOGADOS - OAB RS 7512           92885888000105000000000000000474223000000000AV PERNAMBUCO 1001                                PORTO ALEGRE                  RS902400051451302734000000000000000000000102
0000000266JORNAL SEMANAL LTDA                                         92152651000115147000000100000000000000000000RUA SANTO ANGELO N 413 SALA 4                     TRES DE MAIO                  RS989100005535351030000000000000000000000102
0000000274JOSE LUIS AREND DA SILVA-EPP                                91529974000112147002068500000000000000000000RSAO ROQUE 62                                     TRES DE MAIO                  RS989100000000000000000000000000000000000102
0000000276COLBACKES COMERCIO DE COLCHOES LTDA                         01587751000119147003358200000000000000000000RUA PE CACIQUE 845 SALA 02                        TRES DE MAIO                  RS989100003535148200000000000000000000000102
0000000304ADEMIR ZUSE- SZ AUTO PECAS                                  02946109000141000000000000000000000000000000AV SANTA ROSA  1170                               TRES DE MAIO                  RS989100000000000000000000000000000000000102
0000000313JOAO EDECIO GRAEF                                           00018995519053000000000000000000000000000000RUA SAO JOAO                                      INDEPENDENCIA                 RS989150000000000000000000000000000000000101
0000000321ADALBERTO MARTINI                                           00095803629049000000000000000000000000000000MOTORISTA - RUA SANTO ANGELO                      INDEPENDENCIA                 RS989150005535391300000000000000000000000101
0000000325LOJAS COLOMBO S/A                                           89848543007856147001511800000000000000000000AV URUGUAI 636                                    TRES DE MAIO                  RS989100005535351585000000000000000000000102
0000000331ELERI WOMMER LTDA                                           05519803000170000000000000000000000000000000RUA SARANDI 643                                   PALMEIRA DAS MISSOES          RS983000005537421396000000000000000000000102
0000000340JOAILSON ROBERTO REDEL                                      00040963551000000000000000000000000000000000ESQUINA BUDEL No 328                              INDEPENDENCIA                 RS989150009916665500000000000000000000000101
0000000345ANAMIR DE FATIMA GARCIA                                     00065928679068000000000000000000000000000000RUA JOSINO FARIAS                                 INDEPENDENCIA                 RS989150000000000000000000000000000000000101
0000000347FLAVIA BORGES BOMFIM DE LIMA                                00001180015070000000000000000000000000000000RUA JOSINO FARIAS                                 INDEPENDENCIA                 RS989150000000000000000000000000000000000101
0000000359SENAT- Ijui SERVICO NACIONAL APREND DO TRANSPOR             73471963012900000000000000000000000000000000ENTROC DA RS 342 C/RS 522 POSTO 44 S/N            IJUI                          RS987000000000000000000000000000000000000102
0000000368ADELIO JOSE DUPONT                                          05045644000110198000842300000000000000000000AV IGNACIO PINTO 118                              INDEPENDENCIA                 RS989150005599613281000000000000000000000102
0000000375MARINA ANDREIA TRAESEL                                      00097334723015000000000000000000000000000000INDEPENDENCIA                                     INDEPENDENCIA                 RS989150000000000000000000000000000000000101
0000000376GILBERTO FELDEN                                             00064548449000000000000000000000000000000000INDEPENDENCIA                                     INDEPENDENCIA                 RS989150000000000000000000000000000000000101
0000000379BIOTECNO INDUSTRIA E COMERCIO LTDA                          04470103000176000000000000000000000000000000RUA PALMEIRA 99                                   SANTA ROSA / CENTRO           RS987807565535130686000000000000000000000102
0000000380ROSANE MARISTELA FAURO SCHERER                              00037306790072000000000000000000000000000000RUA IPIRANGA NO 430                               INDEPENDENCIA                 RS989150000000000000000000000000000000000101
0000000381EXTINSOLDA MAQUINAS E FERRAMENTAS LTDA                      90150376000175110003085600000000000000000000RGUAPOR N 1371                                    SANTA ROSA                    RS989000005126577000000000000000000000000102
0000000383KARINA DE MATTOS KEMPF                                      00001196768005000000000000000000000000000000RUA SAO JOAO                                      INDEPENDENCIA                 RS989150000000000000000000000000000000000101
0000000389LARA MELISSA WEBER DE FREITAS                               00092494005000000000000000000000000000000000RUA SANTO ANGELO 293                              INDEPENDENCIA                 RS989150009999587440000000000000000000000101
0000000410NATALINO FACCIN                                             94968120000120198000433900000000000000000000RUA SAO MIGUEL  716                               INDEPENDENCIA                 RS989150003539111300000000000000000000000102
0000000413SONIA CRISTINA TAVARES SOUTO                                00043883362034000000000000000000000000000000ENFERMEIRA                                        INDEPENDENCIA                 RS989150000000000000000000000000000000000101
0000000422CS RAUBER   CIA LTDA - ZUK PARAFUSOS                        04807758000197000000000000000392634000000000RUA JOAO MACLUF 276                               SANTA ROSA                    RS989000003512797900000000000000000000000102
0000000434MUNICIPIO DE INDEPENDENCIA PREFEITURA MUNICIPAL             87612826000190000000000000000000000000000000RUA SENADOR PINHEIRO 1348                         INDEPENDENCIA                 RS989150003539420000000000000000000000000102
0000000439JOAO ANDREJESKI MOREIRA                                     00034686991072000000000000000000000000000000ESQUINA BUDEL S/N                                 INDEPENDENCIA                 RS989150000000000000000000000000000000000101
0000000446ASSOCIACAO DO CORPO DE BOMBEIROS VOLUNTARIOS TM             02074368000120000000000000000000000000000000RUA MINAS GERAIS                                  TRES DE MAIO                  RS989100000000000000000000000000000000000102
0000000450NERCI JOSE MUCHA                                            00041098080068000000000000000000000000000000SECRETARIO DA FAZENDA  - RUA SAO MIGUEL 141       INDEPENDENCIA                 RS989150005599952095500000000000000000000101
0000000451COFRON Mensalidade                                          94188208000120000000000000000000000000000000RUA BUENOS AIRES 25                               SANTA ROSA                    RS989000005535125774000000000000000000000102
0000000455HENRIQUE LUIZ GRESELE SZARESKI                              00035807369068000000000000000000000000000000SAO VALENTIM                                      INDEPENDENCIA                 RS989150000000000000000000000000000000000101
0000000500EVANDRO KRUMMENAUER-ME                                      00907633000188198000514900000000000000000000RODOVIA PRESIDENTE KENNEDY-KM                     INDEPENDENCIA                 RS989150005598407083600000000000000000000102
0000000552LAR BOM PASTOR DE IVAGACI E ESCOLA PROFISSIONAL             87685616000121000000000000000000000000000000VILA IVAGACI                                      BOA VISTA DO BURICA           RS989180000000000000000000000000000000000102
0000000650GLEI AMARO LINHARES                                         00025321374015000000000000000000000000000000                                                  INDEPENDENCIA                 RS989150000000000000000000000000000000000101
0000000678VILSON MEURER - ME                                          91814285000150000000000000000000000000000000AV TRES DE MAIO                                   INDEPENDENCIA                 RS989150005535391147000000000000000000000102
0000000703SOLANGE GEBERT MARTINI                                      00055985319091000000000000000000000000000000ASSERORA DE ORIENTACAO ENSMUNICIPAL               INDEPENDENCIA                 RS989150000000000000000000000000000000000101
0000000756PROCERGS                                                    87124582000104962565091000000349321000000000PRACA DOS ACORIANOS S/N SAMUEL                    PORTO ALEGRE                  RS900389005132103125000000000000000000000102
0000000775CLAUDETE DE FATIMA OLIVEIRA                                 00038805340049000000000000000000000000000000                                                  INDEPENDENCIA                 RS989150000000000000000000000000000000000101
0000000778MARIA IZABEL BONMANN                                        00040962709034000000000000000000000000000000                                                  INDEPENDENCIA                 RS989150000000000000000000000000000000000101
0000000884MARCOS A LASCH-ELETRONICA DUMEL LASCH AUTO SOM              90351180000149147001778100000000000000000000R SANTA CRUZ 188                                  TRES DE MAIO                  RS989100005535351876000000000000000000000102
0000000906EDY GUSTAVO HIRT                                            00011977485049000000000000000000000000000000AV TRES DE MAIO                                   INDEPENDENCIA                 RS989100000000000000000000000000000000000101
0000000911COMERCIAL AGRICOLA TRES AMIGOS LTDA                         88087200000174198000185200000000000000000000SENADOR SALGADO FILHO 744                         INDEPENDENCIA                 RS989150003539120310890000000000000000000102
0000000912COFRON Servicos                                             94188208000120000000000000000000000000000000AV BORGES DE MEDEIROS 504 - 2 ANDAR               SANTA ROSA                    RS989000003512643212810000000000000000000102
0000000920FEAPER-PROGRAMA TROCA TROCA                                 93021632008016000000000000000000000000000000Av GEtulio Vargas 1384                            PORTO ALEGRE                  RS904080000000000000000000000000000000000102
0000000930PODER JUDICIARIO DA COMARCA TRES MAIO                       89522064013810000000000000000000000000000000RUA BURICA 375                                    TRES DE MAIO                  RS989100005535351622353000000000000000000102
0000000998LUIZ CARLOS WRITZL                                          00048225088034000000000000000000000000000000TRAVESSA AMARO LEITE 09                           INDEPENDENCIA                 RS989150009962024410000000000000000000000101
0000001078SECRETARIA DA FAZENDA DO ESTADO                             87958674000181000000000000000000000000000000AV MAUA 1155                                      PORTO ALEGRE                  RS900300800000000000000000000000000000000102
0000001083DETRAN - RS                                                 01935819000103000000000000000000000000000000PORTO ALEGRE                                      PORTO ALEGRE                  RS904080005132882000000000000000000000000102
0000001119MARCIA ROZANE BORDIN PIPPER                                 00062171410000000000000000000000000000000000RUA MANOEL DA NOBREGA N 487                       INDEPENDENCIA                 RS989150000000000000000000000000000000000101
0000001122ASSOCDE PAIS E AMIGOS DOS EXCEPCIONAIS - APAE               00994189000185000000000000000000000000000000ESQUINA BUDEL                                     INDEPENDENCIA                 RS989150000000000000000000000000000000000102
0000001159GOHNER   CIA LTDA                                           87692844000129147000417500000000000000000000RUA RIO DE JANEIRO 215                            TRES DE MAIO                  RS989100005351738000000000000000000000000102
0000001169RIO GRANDE ENERGIA - RGE                                    02016439000138962636193000000000000000000000RUA SAO LUIS77                                    PORTO ALEGRE                  RS906201705432181083000000000000000000000102
0000001184RADIO CIDADE CANCAO LTDA                                    89979140000167000000000000000134833918000000AVENIDA URUGUAI                                   TRES DE MAIO                  RS989100003535190217990000000000000000000102
0000001195HEDIO KOCHHANN                                              00036099740015000000000000000000000000000000                                                  INDEPENDENCIA                 RS981500000000000000000000000000000000000101
0000001232REFRIGERACAO PINGUIM LTDA                                   88736780000183000000000000000000000000000000Av INHACORA 641                                   SANTA ROSA                    RS987806750000000000000000000000000000000102
0000001243MAQCOES COMERCIO E REPRESENTACOES LTDA                      91643122000151110003641200000000000000000000RUA JOAO PEDRO TIMM N 165                         SANTA ROSA                    RS989000005535123220000000000000000000000102
0000001291CONFEDERACAO NACIONAL DOS MUNICIPIOS                        00703157000183000000000000000000000000000000FAX 0XX-61-2101-6019                              BRASILIA                      DF717370001461210160200000000000000000000102
0000001299KOCHHANN   CIA LTDA - ME                                    92522184000178147002251300000000000000000000RUA HORIZONTINA - 1357                            TRES DE MAIO                  RS989100005355128800000000000000000000000102
0000001308CAP DISTRIBUIDORA DE PECAS LTDA                             90196999000189110005687100000000000000000000AV INHACORA N 799                                 SANTA ROSA                    RS989000005535126244000000000000000000000102
0000001342JAIRO JOSE MELLER - MOTORISTA                               00093096909091000000000000000000000000000000INDEPENDENCIA                                     INDEPENDENCIA                 RS989150009629650300000000000000000000000101
0000001369ALTAMIR MARCELO ZIMMERMANN                                  02764528000162147003639500000000000000000000RS 342KM 198                                      TRES DE MAIO                  RS989100005599964598100000000000000000000102
0000001371FARMACIA INHACOR MVC COMERCIAL DE MEDICAMENTOS LTDA         93153054000178110004294400000000000000000000RUA DR FRANCISCO TIMM 710                         SANTA ROSA / CENTRO           RS987808035535122298000000000000000000000102
0000001374FARMAMED PRODUTOS HOSPITALARES LTDA EPP                     92037480000183110003846600000000000000000000AVENIDA RIO GRANDE DO SUL N 480                   SANTA ROSA                    RS989000005599962104700000000000000000000102
0000001389GILMAR ROLIM DA SILVA                                       00067216765087000000000000000000000000000000RUA RIO BRANCO 116                                TRES DE MAIO                  RS989100000000000000000000000000000000000101
0000001390DOUGLAS MARTINI DE ARAUJO                                   01782694000129198000535100000000000000000000RUA SANTO ANGELO1177                              INDEPENDENCIA                 RS989150000000000000000000000000000000000102
0000001449DERLI BATISTA DOS SANTOS                                    00091975018087000000000000000000000000000000HORIZONTINA                                       INDEPENDENCIA                 RS989150000000000000000000000000000000000101
0000001455RICARDO VINICIOS SEGATTO LTDA                               03243112000161147003593300000000000000000000RUA FERNANDO FERRARI 407                          TRES DE MAIO                  RS989100003535166300000000000000000000000102
0000001489AUTOMASSUL INFORMATICA LTDA                                 03683195000100147003667000000000000000000000AV SENADOR ALBERTO PASQUALINI N 347 LOJA 02       TRES DE MAIO                  RS989100001455353527400000000000000000000102
0000001493SISEMI - SINDICATO DOS SERVIDORES MUNICIPAIS INDE           94187820000188000000000000000000000000000000JOSINO FARIAS                                     INDEPENDENCIA                 RS989150000000000000000000000000000000000102
0000001495SOCIEDADE EDUCACIONAL-SETREM 3 DE MAIO                      98039852000197000000000000000000000000000000AVENIDA SANTA ROSA2405                            TRES DE MAIO                  RS989100005535351011000000000000000000000102
0000001513LABORATORIO SAO VICENTE LTDA                                89431100000267000000000000000110831437000000AVENIDA TRES DE MAIO                              INDEPENDENCIA                 RS989150009814410340000000000000000000000102
0000001600PANASEL - ARTEFATOS DE CIMENTO EIRELI                       00152379000155000000000000000000000000000000BR 472 KM 67- N 1833                              SAO MARTINHO                  RS986900003533131200000000000000000000000102
0000001623REIFLEX INDUSTRIA E COMERCIO DE MOVEIS LTDA                 93920361000137147002653500000000000000000000RUA OSVALDO CRUZ 858                              TRES DE MAIO                  RS989100003535255500000000000000000000000102
0000001645MADEIREIRA FLOR DE MAIO LTDA                                04056007000186198000595500000000000000000000LINHA FLOR DE MAIO S/N                            INDEPENDENCIA                 RS989150005599757754000000000000000000000102
0000001649VALDIR PEREIRA DE FREITAS                                   04109137000130110007710000000000000000000000RUA CAXIAS1269/04                                 SANTA ROSA                    RS989000009107369900000000000000000000000102
0000001669ELAINE PAZ DA SILVA TRANSPORTES                             04287784000131198000604800000000000000000000RUA SOROCABA  324                                 INDEPENDENCIA                 RS989150009990226180000000000000000000000102
0000001689MAIRA CRISTINA HEINSCH                                      00072811510044000000000000000000000000000000AUXILIAR DE ESCRITURARIO                          INDEPENDENCIA                 RS989150000000000000000000000000000000000101
0000001696MAURI BOLIS ZIMMERMANN                                      94172152000115147002669100000000000000000000RUA ALFREDO HENN1034 - SALA 2                     TRES DE MAIO                  RS989100000000000000000000000000000000000102
0000001709VILMAR DE MORAES -PF                                        00026234122000000000000000000000000000000000INDEPENDENCIA                                     INDEPENDENCIA                 RS483200000000000000000000000000000000000101
0000001714TRR LAMBARI COMBLTDA                                        87317194000131000000000000000000000000000000RUA ROBERTO MULLERS/N BR 285 KM 338               IJUI                          RS987000003331745099720000000000000000000102
0000001731LEONIR RUPPENTHAL LTDA                                      88965660000158147001641600000000000000000000RUA PADRE CACIQUE865-FUNDOS    SALA 01            TRES DE MAIO                  RS989100003535166100000000000000000000000102
0000001737JAIR RODRIGUES MOREIRA                                      00000000000000000000000000000000000000000000INDEPENDENCIA                                     INDEPENDENCIA                 RS989150000000000000000000000000000000000101
0000001744JEFERSON LUIS SCHAKOFSKI                                    04286078000175000000000000000000000000000000R SANTA ROSA DE LIMA 789 SALA 1                   INDEPENDENCIA                 RS989150005535391260000000000000000000000102
0000001757ALMIR ZIMMERMANN - MADEREIRA ZIMMERMANN                     90369570000146147001797800000000000000000000RUA SANTA CLARA  N 67                             TRES DE MAIO                  RS989100000000000000000000000000000000000102
0000001782SESC - SERVICO SOCIAL DO COMERCIO                           03575238002691000000000000000000000000000000RUA CONCORDIA114                                  SANTA ROSA                    RS989000000000000000000000000000000000000102
0000001801COOPDE TECNICOS DO NOROESTE DO EST DO RGS-UNITEC            01404787000110000000000000000000000000000000AVSANTA ROSA 310 sala 04                          TRES DE MAIO                  RS989100005535352052000000000000000000000102
0000001810DENTARIA E CIRURGICA MERCOSUL LTDA                          01735549000197967600987600000000000000000000RUA SANTO ANTONIO247                              PORTO ALEGRE                  RS900400013311497716720000000000000000000102
0000001830ADELAR GARCIA MACHADO                                       00049907085049000000000000000000000000000000ASSESSOR PARLAMENTAR                              INDEPENDENCIA                 RS989150000000000000000000000000000000000101
0000001834CENTERMEDI COMERCIO DE PRODUTOS HOSPLTDA                    03652030000170170000444900000000000000000000RUA ADAO WELKER90                                 BARAO DE COTEGIPE             RS997400005435232700000000000000000000000102
0000001842COPADIESEL COMERCIO DE PECAS E ACESSORIOS LTDA              02965225000108110007180300000000000000000000RS 344 KM 43 TREVO A SANTA ROSA SAIDA P/GIRUA     SANTA ROSA                    RS989000005125758897100000000000000000000102
0000001856DIMASTER COMERCIO DE PRODUTOS HOSPITALARES                  02520829000140170000411200000000000000000000RUA VASCO GAMA N 33                               BARAO DE COTEGIPE             RS997400005435231108000000000000000000000102
0000001857COPADIESEL COMERCIO DE PECAS E ACESSORIOS LTDA              02965225000108110007180300000000000000000000RS 344 KM 43 SALA 4                               SANTA ROSA                    RS989000003512575800000000000000000000000102
0000001858LABORATORIO DE ANALISES CLINICAS KL LTDA                    89921548000188000000000000000000000000000000RUA OSVALDO CRUZ1011                              TRES DE MAIO                  RS989100005599962891100000000000000000000102
0000001887LOJAS BECKER LTDA                                           04415928005904147003848700000000000000000000RUA PADRE CACIQUE N 928                           TRES DE MAIO                  RS989100005535352795000000000000000000000102
0000001888RBS TV SANTA ROSA CANAL 06                                  93088367000190000000000000000000000000000000RUA ACESSO AO PARQUE DE EXPOSICOES                SANTA ROSA                    RS989000000000000000000000000000000000000102
0000001895SAN MARINO ONIBUS E IMPLEMENTOS LTDA                        93785822000106290209129000000000000000000000RUA IRMAO GILDO SCHIAVO110 - ANA RECH             CAXIAS DO SUL                 RS950200005430262200000000000000000000000102
0000001900COMERCIAL DE MANGUEIRAS SANTA ROSA LTDA                     01458655000170110006508000000000000000000000RUA JOAO MACLUF279                                SANTA ROSA                    RS989000003512479000000000000000000000000102
0000001910COMERCIO DE PNEUS E ACESSORIOS LM LTDA - PNEU CAR           00572574000134147003150400000000000000000000AVSENADOR ALBERTO PASQUALINI347                   TRES DE MAIO                  RS989100003535117800000000000000000000000102
0000001925ERNANE RICHTER BORGES                                       00000252353030000000000000000000000000000000OPERARIO - FUNASA                                 INDEPENDENCIA                 RS989150000000000000000000000000000000000101
0000001929ALBERI BONMANN                                              00062412264015000000000000000000000000000000ESCRITURARIO                                      INDEPENDENCIA                 RS989150000000000000000000000000000000000101
0000001932LEANDRO RICARDO DALBEM                                      02310822000102000000000000000000000000000000RUA MATO GROSSO117                                TRES DE MAIO                  RS989100000000000000000000000000000000000102
0000001940TRATORSUL EQUIPAMENTOS RODOVIARIOS EIRELI                   00195642000193650079396000000000000000000000RUA CRUZ ALTA126/A                                IJUI                          RS987000003331650000000000000000000000000102
0000001952ELISA BEATRIZ NAGEL MANTOVANI                               00089950500044000000000000000000000000000000AGENTE DE SAUDE                                   INDEPENDENCIA                 RS989150000000000000000000000000000000000101
0000001953PEDRO ALEX DE LIMA - PF                                     00072811463020000000000000000000000000000000ESQUINA SCHOLTZ INTERIOR                          INDEPENDENCIA                 RS989150005599153431500000000000000000000101
0000001969DULCE TEIXEIRA PEREIRA                                      00046251880082000000000000000000000000000000PROFESSORA MUNICIPAL                              INDEPENDENCIA                 RS989150000000000000000000000000000000000101
0000001970CHC TRES DE MAIO LTDA                                       01628788000148000000000000000113635433000000AVENIDA SENADOR ALBERTO PASQUALINI 600            TRES DE MAIO                  RS989100005535358448000000000000000000000102
0000001982LUCIANA SCHEER SIEPMANN DE LIMA                             00000670159050000000000000000000000000000000AUXILIAR DE ESCRITURARIO                          INDEPENDENCIA                 RS989150000000000000000000000000000000000101
0000001993COMERCIAL AGRICOLA MANJABOSCO LTDA                          87346185000179147002338200000000000000000000AVENIDA SANTA ROSA401                             TRES DE MAIO                  RS989100003535143400000000000000000000000102
0000002026SAVICKI E SCHNEIDER LTDA                                    04456171000180000000000000000000000000000000AV TUCUNDUVA N 345 SALA 04                        HORIZONTINA                   RS989200005535373190000000000000000000000102
0000002029ELISANGELA LUDWIG - ZUSE PECAS                              05255024000105000000000000000000000000000000RUA IVAGACI N 1266                                TRES DE MAIO                  RS989100005535352274000000000000000000000102
0000002037ASSOCIACAO MAE RAINHA - RADIO DE INDEPENDENCIA              01235876000180000000000000000000000000000000RUA SENADOR SALGADO FILHO 517                     INDEPENDENCIA                 RS989150000000000000000000000000000000000102
0000002055HPR INFORMATICA E ACESSORIOS LTDA                           94993250000113000000000000000000000000000000AV IPIRANGA 1200                                  CHIAPETTA                     RS987600005537841220000000000000000000000102
0000002066WNL -PRODUTOS E SOLUCOES EM INFORMATICA LTDA                05203653000191147004109700000000000000000000AV URUGUAI 236                                    TRES DE MAIO                  RS989100005535354456000000000000000000000102
0000003567CARLOS ROGERIO SPENGLER - PF                                00075601885087000000000000000000000000000000RUA SENADOR PINHEIRO 329                          INDEPENDENCIA                 RS989150005599142214700000000000000000000101
0000003576PORTO ROCHA   CIA LTDA - AVEOM EQUIPAMENTOS ODONTOMEDICOS   04463475000175000000000000000000000000000000AV GETULIO VARGAS 1133                            SANTO ANGELO                  RS988015705533125859000000000000000000000102
0000003578CLAIRTON DE LIMA                                            00095301992015000000000000000000000000000000SERVIDOR DA CAMARA                                INDEPENDENCIA                 RS989150000000000000000000000000000000000101
0000003592SENAC - RIO GRANDE DO SUL                                   03422707000184000000000000000000000000000000AV AMERICA 261                                    SANTA ROSA                    RS989000005535126029000000000000000000000102
0000003600COMERCIAL CIRURGICA RIOCLARENSE LTDA                        67729178000491000000000000000000000000000000PRACA EMILIO MARCONATO 1000                       JAGUARIUNA                    SP138200005134213243000000000000000000000102
0000003621ZENAIDE MARGARETE DO AMORIM  MASSUDA                        00091206880082000000000000000000000000000000CMDCA                                             INDEPENDENCIA                 RS989150000000000000000000000000000000000101
0000003650MARA ELISABETE RIECK                                        04055908000153198000596300000000000000000000AV TRES DE MAIO 1145                              INDEPENDENCIA                 RS989150003539109600000000000000000000000102
0000003656DARCI PESSINA   FILHO LTDA                                  07407385000155147004360000000000000000000000RUA HORIZONTINA 1029 SALA 1                       TRES DE MAIO                  RS989100005599936979000000000000000000000102
0000003658ADEMIR MATIELLI                                             00040965635015000000000000000000000000000000SEC DE OBRAS E VIACAO                             INDEPENDENCIA                 RS989150000000000000000000000000000000000101
0000003660TANIA JACI BORGES DE MOTTA DE SIQUEIRA                      00062975226004000000000000000000000000000000RUA IPIRANGA S/N                                  INDEPENDENCIA                 RS989150003539111800000000000000000000000101
0000003661ORAIDE DE FREITAS                                           00061027251072000000000000000000000000000000RUA IPIRANGA 540                                  INDEPENDENCIA                 RS989150003539111800000000000000000000000101
0000003663OSMILDA CRUZ KEMP                                           00048511994068000000000000000000000000000000RUA SANTA ROSA DE LIMA 233                        INDEPENDENCIA                 RS989150003539125500000000000000000000000101
0000003683COOP DE CRED DE LIVRE ADM SICREDI - NOROESTE                89049738000157000000000000000000000000000000AV URUGUAI 366                                    TRES DE MAIO                  RS989100005535391314000000000000000000000102
0000003710CASA DAS PLANTAS FLORICULTURA E PAISAGISMO LTDA             04777133000120000000000000000147003852500000EST BR 472 S/N KM 140                             TRES DE MAIO                  RS989100005535353660000000000000000000000102
0000003719FRANCISCO CALEGARI  DE OLIVEIRA - PF                        00038804166053000000000000000000000000000000RUA DUQUE DE CAXIAS 1411                          INDEPENDENCIA                 RS989150005599681639500000000000000000000101
0000003728IRES RICHTER BOYASKI                                        00088646521087000000000000000000000000000000AUXILIAR DE ALIMENTACAO E HIGIENE                 INDEPENDENCIA                 RS989150000000000000000000000000000000000101
0000003732ROMILDA LEMANSKI KREWER                                     00051774860015000000000000000000000000000000AUXILIAR DE ALIMENTACAO E HIGIENE                 INDEPENDENCIA                 RS989150000000000000000000000000000000000101
0000003740DH BASTOS COMERCIO DE MAT ELETICOS LTDA                     02135140000100000000000000000000000000000000A SANTA ROSA 540                                  TRES DE MAIO                  RS989100005535351325000000000000000000000102
0000003750MARCOS EVANDRO KLEIN NAGEL  PJ                              07598799000109147004382000000000000000000000AV PLANALTO 343                                   TRES DE MAIO                  RS989100005535351800000000000000000000000102
0000003779PLUMA SERIGRAFIA LTDA                                       06246610000156110009428500000000000000000000AV INHACORA 1490                                  SANTA ROSA                    RS989000003512425600000000000000000000000102
0000003786BURICA COMERCIO DE PNEUS EIRELIA FLACH   CIA LTDA           02332508000112173000722500000000000000000000R TRES DE MAIO 331                                BOA VISTA DO BURICA           RS989180003538117200000000000000000000000102
0000003792FRANCIELE A N SCHRAMEIER                                    00000791721051000000000000000000000000000000ESCRITURARIO                                      INDEPENDENCIA                 RS989150000000000000000000000000000000000101
0000003793MARLICE IVONI BARTH                                         00000135922038000000000000000000000000000000escriturario                                      INDEPENDENCIA                 RS989150000000000000000000000000000000000101
0000003801LEILA INES NAGEL- PF                                        00077983378068000000000000000000000000000000TEC EM ENFERMAGEM                                 INDEPENDENCIA                 RS989150000000000000000000000000000000000101
0000003802COMERCIO DE VIDROS CECCON LTDA                              04021650000174147003728600000000000000000000RUA HORIZONTINA 542                               TRES DE MAIO                  RS989100003535328100000000000000000000000102
0000003806GENECI BORDIGNON DA SILVA                                   00026242176068000000000000000000000000000000INDEPENDENCIA                                     INDEPENDENCIA                 RS989150000000000000000000000000000000000101
0000003812IPERGS                                                      92829100000143000000000000000000000000000000AV BORGES DE MEDEIROS 1945 /1o ANDAR              PORTO ALEGRE                  RS900300005132255823000000000000000000000102
0000003819EDITORA APRENDE BRASIL  LTDA                                79719613000133101147355100000000000000000000RUA CARLOS MULLER  1300                           CURITIBA                      PR812803804132856222773000000000000000000102
0000003831MANTOMAC COMERCIO DE PECAS E SERVICOS LTDA                  79879318000144251477398000000000000000000000RUA CRISTOVAO COLOMBO N 221-E                     CHAPECO                       SC898042504933615356530000000000000000000102
0000003834LETICIA DA SILVA BONFANTI                                   00000497773007000000000000000000000000000000AV TRES DE MAIO                                   INDEPENDENCIA                 RS989150000000000000000000000000000000000101
0000003839MARLICI LENHART CLAUS-Auto Eletrica Ristof                  07694947000199147004412600000000000000000000RUA SANTA MARIA 477                               TRES DE MAIO                  RS989100003535124900000000000000000000000102
0000003841LEONILDA SANTANA TIECHER                                    00067216285034000000000000000000000000000000TEC EM ENFERMAGEM                                 INDEPENDENCIA                 RS989150000000000000000000000000000000000101
0000003853ELIZABETE CATARINA PAVLAK TIECHER                           00037302094004000000000000000000000000000000PROFESSORA                                        INDEPENDENCIA                 RS989150005599179805600000000000000000000101
0000003885DIESKA DAL FORNO                                            00000971221065000000000000000000000000000000INDEPENDENCIA                                     INDEPENDENCIA                 RS989150000000000000000000000000000000000101
0000003913ASSOCIACAO DOS ACADEMICOS EM INDEPENDENCIA - ASCADI         01802831000140000000000000000000000000000000INDEPENDENCIA                                     INDEPENDENCIA                 RS989150000000000000000000000000000000000102
0000003914CARLA PIPPER                                                00000220380007000000000000000000000000000000Conta conjunta com Jaime Ferreira da Silva        INDEPENDENCIA                 RS989150000000000000000000000000000000000101
0000003915RODRIGO TABORDA LIMA - PADARIA PAO DE MEL                   07500643000143198000883000000000000000000000AV TRES DE MAIO 582                               INDEPENDENCIA                 RS989150000000000000000000000000000000000102
0000003921ELI OLIVEIRA BAIOTTO                                        00065928636091000000000000000000000000000000PROFESSORA                                        INDEPENDENCIA                 RS989150000000000000000000000000000000000101
0000003922TATIANE FIN KRISTIUM                                        00089849035072000000000000000000000000000000PROFESSORA                                        INDEPENDENCIA                 RS989150000000000000000000000000000000000101
0000003923CELSO JOACIR BEYER- CELSO AUTO PECAS                        08293942000117147004472000000000000000000000RS 3421180pix email celsoautopecasgmailcom        TRES DE MAIO                  RS989100005535353026000000000000000000000102
0000003924ESTADO DO RIO GRANDE DO SUL                                 87934675000196000000000000000000000000000000PRACA MARECHAL DEODORO S/N                        PORTO ALEGRE                  RS900350700000000000000000000000000000000102
0000003925CTG - SENTINELA DO RIO GRANDE                               90476854000131000000000000000000000000000000AV TRES DE MAIO 220                               INDEPENDENCIA                 RS989150000000000000000000000000000000000102
0000003947VALMIR SOARES DOS SANTOS AUTO PECAS                         08262617000197147004456800000000000000000000RUA EDSON AZAMBUJA 156                            TRES DE MAIO                  RS989100003535222900000000000000000000000102
0000003954CONSORCIO INTDE SAUDE REG MISSOES-CISMISSOES                02264781000157269000399000000000000000000000RUA MARIO BRUALIO RIBAS 793                       ENTRE IJUIS                   RS988550003313838800000000000000000000000102
0000003957REFRIGERACAO PETERMANN                                      04010896000140000000000000000000000000000000RUA URUGUAI 653                                   HORIZONTINA                   RS989200000000000000000000000000000000000102
0000003960CONTRIBUICAO AO FAPS - DIVIDA                               87612826000190000000000000000000000000000000RUA SENADOR PINHEIRO 1348                         INDEPENDENCIA                 RS989150003539112100000000000000000000000102
0000003967COPAL COMERCIO DE PNEUS E ACESSORIOS LTDA                   88197330000160000000000000000000000000000000AV SETE DE SETEMBRO 236                           TAPEJARA                      RS999500005433441174000000000000000000000102
0000003976RENI M G OLIVEIRA ME                                        91085175000102000000000000000000000000000000AV TRES DE MAIO 435                               INDEPENDENCIA                 RS989150000000000000000000000000000000000102
0000003977ROSELI DE FATIMA LESSES KEIST                               00065928946015000000000000000000000000000000AUX DE ASSSUTOS ADMINISTRATIVOS                   INDEPENDENCIA                 RS989150000000000000000000000000000000000101
0000003985ELETROMAIO COM MATE ELETRIC E HIDR LTDA                     07194591000124000000000000000000000000000000RUA PADRE CACIQUE 1101                            TRES DE MAIO                  RS989100005535352395000000000000000000000102
0000003990LUCIA BERTOLDO CENEDESE                                     00051775018091000000000000000000000000000000RUA SAO JOAO 708                                  INDEPENDENCIA                 RS989150005599686485500000000000000000000101
0000004004COMPUNEW COMPUT E ASSIST TECNICA LTDA                       68846500000182000000000000000000000000000000AV AMERICA 196                                    SANTA ROSA                    RS989000005535125214000000000000000000000102
0000004008DELCIO INACIO GRIEBLER ME                                   00933791000102000000000000000000000000000000RUA SAO VICENTE50 CPF 541055790-53                TRES DE MAIO                  RS989100003535232900000000000000000000000102
0000004019ELIETE BEATRIZ HAUPENTHAL                                   07319261000118000000000000000000000000000000RUA DONA ANTONINHA 793                            SAO JOSE DO INHACORA          RS989580005598446025500000000000000000000102
0000004021MILTON WOLLMANN DE BARROS                                   00056289316087000000000000000000000000000000MEDICO VETERINARIO                                INDEPENDENCIA                 RS989150000000000000000000000000000000000101
0000004023CANAL TURISMO LTDA                                          93383156000180000000000000000000000000000000RUA CASTELO BRANCO 694                            DOUTOR MAURICIO CARDOSO       RS989250005599760891000000000000000000000102
0000004029FRANALI COMERCIO DE LIVROS LTDA                             08708255000115110010208300000000000000000000RUA AGCO PRENDA 72                                SANTA ROSA                    RS989000003511288600000000000000000000000102
0000004041ROSALVO KRISTIUM - ME                                       08681700000109198000910100000315600000000000AV TRS DE MAIO 1104                               INDEPENDENCIA                 RS989150005535391274000000000000000000000102
0000004043ORLANDO KNUPPE   CIA LTDA                                   74767401000108000000000000000000000000000000RUA DO COMERCIO 264                               TRES DE MAIO                  RS989100003535194199163600000000000000000102
0000004048NICOLA VEICULOS LTDA - SANTA ROSA                           89342497000482110007805000000000000000000000AV RUA EXPEDICIONARIO WEBER N 2900                SANTA ROSA                    RS989000005535117777000000000000000000000102
0000004066CIRCLIN Servicos MedicosLauro Lindolfo Wachter              08798583000150000000000000000110137094000000RUA OSVALDO CRUZ 381                              TRES DE MAIO                  RS989100000000000000000000000000000000000102
0000004068TOMASI   CIA LTDA  AUDITORES                                03799928000176000000000000000111561580000000RUA AVAI 17                                       TRES DE MAIO                  RS989100003535107800000000000000000000000102
0000004073TANIA ELIANE NAGEL                                          00069585482053000000000000000000000000000000RUA SAO JOAO                                      INDEPENDENCIA                 RS989150000000000000000000000000000000000101
0000004075MK PRODUTOS MEDICO HOSPITALARES LTDA                        00411441000186000000000000000000000000000000R PORTUGUESA 455                                  PORTO ALEGRE                  RS900029005133366781000000000000000000000102
0000004078IGAM - INST GAMA DE ASSESORIA A ORGAO PUBLICOS              07675477000116000000000000000000000000000000PORTO ALEGRE-RS                                   PORTO ALEGRE                  RS901109000000000000000000000000000000000102
0000004079LEIDIANE MORI                                               00001492305081000000000000000000000000000000ASSESSORA PARLAMENTAR                             INDEPENDENCIA                 RS989150000000000000000000000000000000000101
0000004091LOJAS BECKER LTDA - LOJA 20                                 04415928002050000000000000000000000000000000RUA PE CACIQUE 981                                TRES DE MAIO                  RS989100003535109900000000000000000000000102
0000004092GESSEL LUIZ FOLETTO                                         04813311000120000000000000000000000000000000RUA PIRATINI 645                                  TRES DE MAIO                  RS989100005500000000000000000000000000000102
0000004095PIPPI MAQUINAS AGRICOLAS LTDA                               88590096000136000000000000000000000000000000Avenida Bento Goncalves 1500                      GIRUA                         RS988700005533613550000000000000000000000102
0000004109JAIR AZILDO MASSUDA GRENZEL                                 00049907344087000000000000000000000000000000AV IGNACIO PINTO 480                              INDEPENDENCIA                 RS989150000000000000000000000000000000000101
0000004124ROSANE DE MELLO BERTI                                       00061028932049000000000000000000000000000000AUX DE ENFERMAGEM                                 INDEPENDENCIA                 RS989150000000000000000000000000000000000101
0000004125SERVIMETRA - SERV EM MEDICINA E SEG DO TRABALHO             08791770000101000000000000000415590000000000AV America                                        SANTA ROSA                    RS989000005535127160000000000000000000000102
0000004127VALDIR F RODRIGUES LTDA ME                                  01097428000167000000000000000000000000000000RUA 15 DE NOVEMBRO N 1827                         ALEGRIA                       RS989050009962395050000000000000000000000102
0000004138GSM DISTRIBUIDORA DE TINTAS LTDA                            91238741000160000000000000000000000000000000AV EXPEDICIONARIO WEBER 550                       SANTA ROSA                    RS989000005535125004000000000000000000000102
0000004144DENTALLY MAT E EQUIP ODONTOLOGICOS LTDA                     07832100000123110009928700000000000000000000AV BORGES DE MEDEIROS 716 SALA 01                 SANTA ROSA                    RS989000005535123865000000000000000000000102
0000004147NEUSA  SALETE  ZARESKI                                      00044168934004000000000000000000000000000000AUX DE ENFERMAGEM                                 INDEPENDENCIA                 RS989150000000000000000000000000000000000101
0000004150COMERCIO DE VIDRO GIRARDI LTDA                              08227268000172147004451700000000000000000000AV SENADOR ALBERTO PASQUALINE 190                 TRES DE MAIO                  RS989100000000000000000000000000000000000102
0000004172ROSANGELA TEREZINHA DAL SOTTO ME                            05221937000100000000000000000000000000000000RUA ANISIO ARAUJO E SILVA 397                     INDEPENDENCIA                 RS989150000000000000000000000000000000000102
0000004196MECANICA TRATORSUL LTDA                                     09173263000177000000000000000716810000000000RUA CRUZ ALTA 126                                 IJUI                          RS987000005533329890000000000000000000000102
0000004197MARLA ELISA BERNARDI                                        00098370090044000000000000000000000000000000RUA IPIRANGA 880                                  INDEPENDENCIA                 RS989150003539144000000000000000000000000101
0000004198DELMAR MOURA MOUSQUER                                       00024907480091000000000000000000000000000000AVENIDA IGNACIO PINTO 451                         INDEPENDENCIA                 RS989150009983996400000000000000000000000101
0000004205HOSPITALARES COMERCIO DE MATERIAIS MEDICOS                  07571682000131110009820500000000000000000000RUA BURITI 188                                    SANTA ROSA                    RS989000005535117692000000000000000000000102
0000004206FRACMA COMERCIAL DE PRODUTOS P/HIGIENE LTDA                 09427563000135110011454000000000000000000000RUA CORONEL BORGES FORTES 942 SALA 01             SANTA ROSA                    RS989000003512558800000000000000000000000102
0000004210EDIO PINNO                                                  00044177852015000000000000000000000000000000ALTO DA UNIAO - INTERIOR                          INDEPENDENCIA                 RS989150000000000000000000000000000000000101
0000004225ANA PAULA GUIMARAES HENZEL                                  00000463482042000000000000000000000000000000RUA    SANTO ANGELO 290                           INDEPENDENCIA                 RS989150000000000000000000000000000000000101
0000004247CLAUDIO VALENTIM SPRINGER TIECHER                           00077293428049198103617000000000000000000000LAJEADO ENCANTADO S/N                             INDEPENDENCIA                 RS989150000000000000000000000000000000000101
0000004252ASSOCIACAO HOSPITALAR BOM PASTOR                            90167289000120115002462000000525000000000000RUA INDEPENDENCIA 73                              SANTO AUGUSTO                 RS985900003781101200000000000000000000000102
0000004266DAER - DEPARTAMENTO AUTONOMO DE ESTRADAS E RODAGEM          92883834000100000000000000000000000000000000av borges de medeiros 1555                        PORTO ALEGRE                  RS900200205132105574000000000000000000000102
0000004271ENPHASE PAVIMENTACOES LTDA                                  93336030000154000000000000000000000000000000RS 344 KM 41 N 4001                               SANTA ROSA                    RS989000005535126194000000000000000000000102
0000004283MARLENE DA SILVA MOREIRA                                    00068293860049000000000000000000000000000000agente de saude                                   INDEPENDENCIA                 RS989150000000000000000000000000000000000101
0000004284MARCIA CRISTINA MASSUDA                                     00076006484072000000000000000000000000000000AGENTE DE SAUDE                                   INDEPENDENCIA                 RS989150000000000000000000000000000000000101
0000004295PEDRO NELCI MACHADO                                         00049907018015000000000000000000000000000000MOTORISTA                                         INDEPENDENCIA                 RS989150009999466440000000000000000000000101
0000004296ANTONIO DIMKOSKI                                            00038800527000000000000000000000000000000000MOTORISTA                                         INDEPENDENCIA                 RS989150000000000000000000000000000000000101
0000004298FOLETTO   FOLETTO LTDA                                      08472445000186000000000000000000000000000000AV URUGUAI 160                                    TRES DE MAIO                  RS989100009845482113500000000000000000000102
0000004303BANCO DO BRASIL       S/A                                   00000000337668000000000000000000000000000000AV TRES DE MAIO 1113                              INDEPENDENCIA                 RS989150003539112200000000000000000000000102
0000004304SABINOSEG -CORRETORA DE SEGUROS LTDA                        03332485000109000000000000000000000000000000RUA EXPEDICIONARIO BERTOLDO BOECK 475 APTO 07     TRES DE MAIO                  RS989100003535192500000000000000000000000102
0000004306MIGUEL ROBERTO DE SA                                        02185603000130198000917900000000000000000000AV 3 DE MAIO 952                                  INDEPENDENCIA                 RS989150009963398900000000000000000000000102
0000004313TREMA COMERCIO DE MATERIAIS DE CONSTRUCAO LTDA              09606109000141147004635800000000000000000000RUA BURICA N 820                                  TRES DE MAIO                  RS989100005535354204000000000000000000000102
0000004331MARILEI NEUMANN DIAS                                        00098024582015000000000000000000000000000000AUX DE ALIMENTACAO E HIGIENE                      INDEPENDENCIA                 RS989150000000000000000000000000000000000101
0000004346CELOI LOVANI MUNIZ FABBRIM                                  00077983726015000000000000000000000000000000PROGFESSORA                                       INDEPENDENCIA                 RS989150000000000000000000000000000000000101
0000004351SEBRAE-SERV DE APOIO AS MICRO E PEQ EMPE                    87112736000130000000000000000000000000000000RUA SETE DE SETEMBRO 555                          PORTO ALEGRE                  RS900100013313202800000000000000000000000102
0000004352TORMOHLEN ESTAMPADORA DE PLACAS LTDA                        09501031000109000000000000000000000000000000rua getulio vargas 380                            INDEPENDENCIA                 RS989150003539110400000000000000000000000102
0000004368AGUIA COMERCIO DE PNEUS EIRELI IRMAOS FLACH                 08774832000177000000000000000000000000000000RUA ABC 300                                       BOA VISTA DO BURICA           RS989180005598456434400000000000000000000102
0000004394SILVIA REGINA TORMOHLEN ME                                  03300623000178000000000000000267400000000000AV TRES DE MAIO 1011                              INDEPENDENCIA                 RS989150003539110400000000000000000000000102
0000004403ROSANE MASSAFRA ANTUNES                                     00059171847049000000000000000000000000000000RUA JOSINO FARIAS                                 INDEPENDENCIA                 RS989150009998592230000000000000000000000101
0000004404LEONTINA GESSI LEMANSKI - PF                                00089627652091000000000000000000000000000000visitadora do pim                                 INDEPENDENCIA                 RS989150000000000000000000000000000000000101
0000004410CONSEPRO - CONS COM PRO SEG PUB  INDPENDENCIA               92465772000117000000000000000000000000000000RUA JOSINO FARIAS 773                             INDEPENDENCIA                 RS989150000000000000000000000000000000000102
0000004420JOSE CLEOMIR GRIMM EPP                                      01454889000301000000000000000000000000000000ROD RS 344 KM 44                                  SANTA ROSA                    RS989000003512139900000000000000000000000102
0000004429COOPERATIVA DE DESENVOLVIMENTO SOCIAL ENTRE RIOS LTDA       10415935000192000000000000000000000000000000AVENIDA AVAI PAVILHAO 1                           TRES DE MAIO                  RS989100005535354700000000000000000000000102
0000004434BARICHELLO  COM MAT DE CONST LTDA3 de maio                  10614770000188000000000000000000000000000000AV SANTA ROSA N 450                               TRES DE MAIO                  RS989100005535352527000000000000000000000102
0000004436AUGUSTA DARONCO CAUDURO                                     00001737516012000000000000000000000000000000ASSESSORA DE COMUNICACAO                          INDEPENDENCIA                 RS989150000000000000000000000000000000000101
0000004438ANDREIA LEMANSKI                                            00001030970076000000000000000000000000000000independencia - rs                                INDEPENDENCIA                 RS989150000000000000000000000000000000000101
0000004439TANIA GORETE RIETH                                          00052816702049000000000000000000000000000000PROFESSORA -                                      INDEPENDENCIA                 RS989150000000000000000000000000000000000101
0000004440VIVIANE KEIST                                               00092250220000000000000000000000000000000000RUA SOROCABA                                      INDEPENDENCIA                 RS989150000000000000000000000000000000000101
0000004441INSPECAR-CENTRAL BURICA DE INSPECAO VEICULAR LTDA           05910465000101000000000000000400610000000000ROD FEDERAL BR 472 KM 1625                        SANTA ROSA                    RS989000003513111000000000000000000000000102
0000004447ANTUNES COMERCIAL LTDA - EPP                                94978236000140930244974000000000000000000000RUA PRACINHA IZIDRO MATTOZO 394                   PELOTAS                       RS960776905332253288000000000000000000000102
0000004451CRISTIANA ALICE SCHONINGER                                  00001852843020000000000000000000000000000000AUXILIAR DE ESCRITURARIO                          INDEPENDENCIA                 RS989150005599916787200000000000000000000101
0000004456ACONTURS-ASSDOS CONSELHEIROS E EX-CONS                      10604267000141000000000000000000000000000000RUA NOVA ROMA N 32                                VIAMAO                        RS944355205599725539200000000000000000000102
0000004465CENTRO DE CONDUTORES CANOVA LTDA                            08388484000108000000000000000000000000000000rua uruguai 1080                                  HORIZONTINA                   RS989200003537104315340000000000000000000102
0000004480LOURDES DAL FORNO MENEGHETTI                                00095250760082198100303400000000000000000000ESQUINA SALATE                                    INDEPENDENCIA                 RS989150009917968000000000000000000000000101
0000004482LAJE AGUA COMERCIO DE MAT DE CONST LTDA                     05372455000151720105390000000000000000000000RUA MARTIN LUTHER 328                             LAJEADO                       RS959000005137142292000000000000000000000102
0000004506EVERTON DA ROSA                                             00096267020010000000000000000000000000000000CONTADOR                                          INDEPENDENCIA                 RS989150005598449365600000000000000000000101
0000004508CLAUDIA DE SA KEMPF                                         00001328321002000000000000000000000000000000independencia                                     INDEPENDENCIA                 RS989150000000000000000000000000000000000101
0000004510DEISI HOISLER DE SOUZA                                      00001716240093000000000000000000000000000000independencia                                     INDEPENDENCIA                 RS989150000000000000000000000000000000000101
0000004521TAMIRES VANESSA MOREIRA                                     00002063950008000000000000000000000000000000independenciA                                     INDEPENDENCIA                 RS989150000000000000000000000000000000000101
0000004522TATIANE SCHULTZ SCHONARDIE - PF                             00002097802079000000000000000000000000000000INDEPENDENCIA                                     INDEPENDENCIA                 RS989150000000000000000000000000000000000101
0000004525FUNDACAO DE APOIO E DES AO ENSPESQE EXT                     00703697000167000000000000000000000000000000LOC CAMPUS DA UFJF                                JUIS DE FORA - MARTELOS       MG360363300000000000000000000000000000000102
0000004531BLANCA MOTTA DE MEDEIROS                                    00049908022091000000000000000000000000000000AV TRES DE MAIO 691                               INDEPENDENCIA                 RS989150000000000000000000000000000000000101
0000004533JONADAN CANDIDO STAZIAKI                                    00000352191066000000000000000000000000000000pres condica                                      INDEPENDENCIA                 RS989150005199965101300000000000000000000101
0000004537UPF - FUNDAcaO DE UNIVERSIDADE DE PASSO FUNDO               92034321000125000000000000000000000000000000rod br 285 capus i quadra j-1                     PASSO FUNDO                   RS990019705433168190000000000000000000000102
0000004545ELISIANO AZOLIM BAIXADO                                     09653355000154198000933220000000000000000000AV TRES DE MAIO 1101 SALA 01                      INDEPENDENCIA                 RS989150005533361445000000000000000000000102
0000004556PRISCILA RAUBER HENGEMUHLE - LIVRARIA NS APARECIDA          08863707000133963184903000000000000000000000RUA LUIZ DA CAMOES N 372 LOJA D                   PORTO ALEGRE                  RS900389005199651344000000000000000000000102
0000004562NOELI MOREIRA DA CRUZ                                       00044171390087000000000000000000000000000000rua santa rosa de lima                            INDEPENDENCIA                 RS989150000000000000000000000000000000000101
0000004586POLLO DISTRIBUIDORA DE PECAS AUTOMOTIVAS LTDA               93880722000169110004730900000000000000000000AV TUPARENDI N 494                                SANTA ROSA                    RS989000005535126899000000000000000000000102
0000004593GABRIELA TORRES RAUBER                                      08829940000108963254448000000000000000000000AV PROTASIO ALVES N 943 LOJA 01                   PORTO ALEGRE                  RS904100005132614171000000000000000000000102
0000004598JACOB FERNANDES DE LIMA                                     00027526666087000000000000000000000000000000RINCAO FACCIN                                     INDEPENDENCIA                 RS989150009613952600000000000000000000000101
0000004603FUNDACAO EDUCACIONAL MACHADO DE ASSIS-FEMA                  95817615000111000000000000000000000000000000RUA SANTOS DUMONT N 820                           SANTA ROSA                    RS989000005535113800000000000000000000000102
0000004610COMERCIO DE LINHAS E LAS TM LTDA/CASAS DAS LINHAS           93187300000102147002434600000000000000000000RUA PADRE CACIQUE N 900                           TRES DE MAIO                  RS989100005535352130000000000000000000000102
0000004616ANDERSON DIEGO SALAZAR                                      00001372934022000000000000000000000000000000motorista                                         INDEPENDENCIA                 RS989150000000000000000000000000000000000101
0000004623CLAUDINO JOSE TIECHER PERCOSKI                              00061593427034000000000000000000000000000000CIDADE                                            INDEPENDENCIA                 RS989150000000000000000000000000000000000101
0000004626COMERCIO DE ROUPAS E CALCADOS KIKA LTDA - ME                93467967000169000000000000000000000000000000AV TRES DE MAIO 1094                              INDEPENDENCIA                 RS989150003539134600000000000000000000000102
0000004628JUNG E RIBEIRO LTDA ME                                      11355974000104000000000000000000000000000000AV TRES DE MAIO 860                               INDEPENDENCIA                 RS989150009918352500000000000000000000000102
0000004634JUREMA GELATI CHRISCHON                                     00089391799000000000000000000000000000000000CONSELHEIRA                                       INDEPENDENCIA                 RS989150000000000000000000000000000000000101
0000004636BARONESA LTDA EPP                                           73993362000102000000000000000000000000000000RUA BARONESA DO GRAVATAI N 72 - CEP 90160-0070    PORTO ALEGRE                  RS901600705132266839000000000000000000000102
0000004644GEOLAC GEOLOGIA E MEIO AMBIENTE LTDA-GEOLAC                 91053736000183000000000000000000000000000000RUA SANTA CRUZ N 188 1 ANDAR                      TRES DE MAIO                  RS989100005535358557000000000000000000000102
0000004648COMERCIAL GUIGO LTDA                                        03068955000179000000000000000000000000000000RUA SAO JOAO N 1823                               MONTENEGRO                    RS957800005136324964000000000000000000000102
0000004653REJANE MENEGUETTI                                           00095925813049000000000000000000000000000000AUXILIAR DE ESCRITURARIO                          INDEPENDENCIA                 RS989150000000000000000000000000000000000101
0000004656FUNDACAO DE CAPACITACAO E DESENV-FUNCAP                     95290276000168000000000000000000000000000000AV AVAI 370                                       TRES DE MAIO                  RS989100000000000000000000000000000000000102
0000004666CENTRALPAR COMERCIO DE FERRAGENS LTDA                       08089067000156000000000000000000000000000000rua horizontina 1048                              TRES DE MAIO                  RS989100003535142600000000000000000000000102
0000004672GISLAINE TAVARES                                            00001281729086000000000000000000000000000000AUXILIAR DE ESCRITURARIO                          INDEPENDENCIA                 RS989150000000000000000000000000000000000101
0000004684UNDIME/RS- UNIaO DOS DIRIG MUN DE EDUCACAO                  05387322000159000000000000000000000000000000RUA MARCILIO DIAS 574                             PORTO ALEGRE -MENINO DEUS     RS901300000000000000000000000000000000000102
0000004690BENEDETTI E BENEDETTI LTDA                                  87715835000297147004642000000000000000000000rua expedicionario bertholdo boeck 420            TRES DE MAIO                  RS989100003535250000000000000000000000000102
0000004693NEUSA CHAGAS PITTON                                         00065893840020000000000000000000000000000000PREFEITURA                                        INDEPENDENCIA                 RS989150000000000000000000000000000000000101
0000004698PAULO RICARDO SARTORI                                       00058762922068000000000000000000000000000000CONSELHEIRO DA AGRICULTURA                        INDEPENDENCIA                 RS989150000000000000000000000000000000000101
0000004700JOANTRE CULTURA E ARTE LTDA                                 08578292000156000000000000000614100000000000Rua Ampelio Carlotto     150/105                  CARLOS BARBOSA                RS951850005430370528000000000000000000000102
0000004708MICHELE HERING GRENZEL - PF                                 00001472469038000000000000000000000000000000CONSELHEIRA TUTELAR                               INDEPENDENCIA                 RS989150005599929404800000000000000000000101
0000004710JORGEA DE ARAUJO REIMANN                                    00081051638020000000000000000000000000000000RUA SANTO ANGELO SN                               INDEPENDENCIA                 RS989150000000000000000000000000000000000101
0000004714ANA ANDRIELI MORAES DE MEDEIROS BAUM                        00002494387043000000000000000000000000000000ESTAGIARIA                                        INDEPENDENCIA                 RS989150000000000000000000000000000000000101
0000004720MANJATO TRATORES LTDA - EPP                                 00492308000100000000000000000000000000000000Av do Comercio 1496                               SANTO AUGUSTO                 RS985900003781113100000000000000000000000102
0000004733MARCIO LOSEKANN   CIA LTDA                                  12047089000120000000000000000000000000000000RUA OSVALDO CRUZ N880                             TRES DE MAIO                  RS989100009915134800000000000000000000000102
0000004735MERCLIDES ILAERTO LUTZ ME                                   05334052000118000000000000000000000000000000RUA CONSLOATA 622                                 TRES DE MAIO                  RS989100000000000000000000000000000000000102
0000004738CRISTIAN BORGES MULLER                                      00001579052096000000000000000000000000000000RUA SENADOR PINHEIRO 1348                         INDEPENDENCIA                 RS989150000000000000000000000000000000000101
0000004739SHOP PLANETA PURIFICADOR DE AGUA LTDA                       08276449000199000000000000000000000000000000RUA HORIZONTINA 1030                              TRES DE MAIO                  RS989100005535352311000000000000000000000102
0000004740LIDIANE TIECHER VEIGA MARTINI                               00001527402010000000000000000000000000000000AGENTE DE SAUDE                                   INDEPENDENCIA                 RS989150000000000000000000000000000000000101
0000004741SILVIA ZDRUIKOSKI                                           00000785340033000000000000000000000000000000AGENTE DE SAUDE                                   INDEPENDENCIA                 RS989150000000000000000000000000000000000101
0000004746FELICE AUTOMOVEIS LTDA                                      91525790000184000000000000000000000000000000RUA BENTO GONCALVES 1713                          SANTIAGO                      RS977000003251222200000000000000000000000102
0000004749IVAN FONSECA                                                00072455985091000000000000000000000000000000RUA SENADOR PINHEIRO                              INDEPENDENCIA                 RS989150000000000000000000000000000000000101
0000004751NARJARA NAEL PIRES                                          00000309187079000000000000000000000000000000AUXILIAR DE ESCRITURARIA                          INDEPENDENCIA                 RS989150000000000000000000000000000000000101
0000004752UNIMED ALTO URUGUAI- COOPERATIVA DE ASSISTENCIA             72500697000170000000000000000000000000000000R OSWALDO CRUZ                                    TRES DE MAIO                  RS989100000000000000000000000000000000000102
0000004758JARDEL DA SILVA BOIARSKI                                    00099001365000000000000000000000000000000000RUA SANTOANGELO                                   INDEPENDENCIA                 RS989150000000000000000000000000000000000101
0000004763PRICILA PEREIRA MEURER LTDA                                 11420912000139198000957800000000000000000000AV TRES DE MAIO 980                               INDEPENDENCIA                 RS989150005535391078000000000000000000000102
0000004766KLEBER AUGUSTO JUNG                                         00000716281007000000000000000000000000000000ESQUINA BOAVISTAPATRICIA ROBERTI                  INDEPENDENCIA                 RS989150000000000000000000000000000000000101
0000004770COPETRAT COM DE PECAS PARA TRATORES LTDA                    04559510000154000000000000000000000000000000RUA CONDE DE PORTO ALEGRE 383                     PORTO ALEGRE                  RS900029005133461177000000000000000000000102
0000004789ELISANDRO TIECHER WEISE                                     94356177000179000000000000000000000000000000RUA EXPED BERTOLDO BOEK N 571 SALA2               TRES DE MAIO                  RS989100009840608370000000000000000000000102
0000004790MARCIA GIANETE DA SILVA ZUHL                                00090887905072000000000000000000000000000000MONITORA VISITADORA DOPIM                         INDEPENDENCIA                 RS989150000000000000000000000000000000000101
0000004813LAR DA VELHICE ERNANI LUIZ SCHNEIDER                        89968929000112000000000000000000000000000000R PEDRO CORDENUNZI 1300                           GIRUA                         RS988700005533612794000000000000000000000102
0000004814JOAO ROQUE GOETTEMS-MEI - INSS 12042837514                  12775871000166000000000000000331300000000000AV TRES DE MAIO N 743                             INDEPENDENCIA                 RS989150009997764270000000000000000000000102
0000004816MECAUTOR MECANICA E COMERCIO DE AUTOMOTORES LTDA            87704151000532000000000000000000000000000000RUA AV CEL DICO N 1552                            IJUI                          RS987000005533120500000000000000000000000102
0000004819AIRTON JOSE FRAINER                                         01873489000179000000000000000000000000000000RUA DALTRO FILHO N 140                            SANTO ANGELO                  RS988010000000000000000000000000000000000102
0000004824OI SA- EM RECUPERAcaO JUDICIAL                              76535764000143000000000000000000000000000000rua do lavradio                                   RIO DE JANEIRO                RJ202300707131313179000000000000000000000102
0000004827MARCOS NOGARA                                               00077365232072000000000000000000000000000000MECANICO                                          INDEPENDENCIA                 RS989150000000000000000000000000000000000101
0000004833JUSSARA INES VIONE TOLEDO                                   00071299696015000000000000000000000000000000RUA SENADOR PINHEIRO 1348                         INDEPENDENCIA                 RS989150000000000000000000000000000000000101
0000004836FLAVIO  AUGUSTO POHL                                        00000111513073000000000000000000000000000000FISCAL                                            INDEPENDENCIA                 RS989150000000000000000000000000000000000101
0000004837MF - MACHADO SOARES                                         03230856000141962754471000000000000000000000RUA PADRE NAVARRO 67                              PORTO ALEGRE                  RS906601805133395558000000000000000000000102
0000004844LOVANI MARINES SCHAKOFSKI BUBLITZ                           00078764629015000000000000000000000000000000ESQUINA BUDELEDUARDO KREVER                       INDEPENDENCIA                 RS989150009634891600000000000000000000000101
0000004846RODRIGO GEHM- TREMADIESEL                                   09624629000187000000000000000181373450000000RUA HORIZONTINA 2035                              TRES DE MAIO                  RS989100005535359432000000000000000000000102
0000004855DANIELI MARIANE GIOVELLI                                    00000192726005000000000000000000000000000000PSICOLOGA                                         INDEPENDENCIA                 RS989150000000000000000000000000000000000101
0000004858RENILDA MATIELLI                                            00058598316091000000000000000000000000000000MONITORA                                          INDEPENDENCIA                 RS989150000000000000000000000000000000000101
0000004859ELIETE SCHAKOFSKI TURRA                                     00069585466015000000000000000000000000000000MONITORA                                          INDEPENDENCIA                 RS989150000000000000000000000000000000000101
0000004861ANTONIO H LEITE BATISTA                                     00046252231053000000000000000000000000000000RUA SENADOR PINHEIRO 1348                         INDEPENDENCIA                 RS989150000000000000000000000000000000000101
0000004876VERIDIANA NOGARA                                            00000912518006000000000000000000000000000000RUA SAO MIGUEL                                    INDEPENDENCIA                 RS989150009646844100000000000000000000000101
0000004883ROSELI DE OLIVEIRA SANTOS                                   00056028466034000000000000000000000000000000PROFESSORA                                        INDEPENDENCIA                 RS989150000000000000000000000000000000000101
0000004887DEBORA ZIMMERMANN                                           00095571159049000000000000000000000000000000PROFESSORA                                        INDEPENDENCIA                 RS989150000000000000000000000000000000000101
0000004888ANA PAULA HAHN                                              00098041096034000000000000000000000000000000PROFESSORA                                        INDEPENDENCIA                 RS989150000000000000000000000000000000000101
0000004893SERVICO NACIONAL DE APRENDIZAGEM INDUSTRIAL-SENAI           03775069001076000000000000000000000000000000RUA DAS HORTENCIAS 315                            SANTA ROSA                    RS989000000000000000000000000000000000000102
0000004901ANTONIO JAIR VARGAS GREFF - PF                              00027528197068000000000000000000000000000000RUA SAO MIGUEL                                    INDEPENDENCIA                 RS989150003539122000000000000000000000000101
0000004904CLAUDIA LISIANE PRAISSLER FRANK                             00089993349020000000000000000000000000000000PROFESSORA                                        INDEPENDENCIA                 RS989150000000000000000000000000000000000101
0000004906LEDIANE DA SILVA MASSAFRA                                   00090923960015000000000000000000000000000000PROFESSORA                                        INDEPENDENCIA                 RS989150005599986158400000000000000000000101
0000004907FRANCISCO ZIMMERMANN                                        00068050704068000000000000000000000000000000PROFESSOR                                         INDEPENDENCIA                 RS989150000000000000000000000000000000000101
0000004908FERNANDO DE LIMA MACHADO                                    00000682148040000000000000000000000000000000PROFESSOR                                         INDEPENDENCIA                 RS989150000000000000000000000000000000000101
0000004911RAQUEL GNOATO                                               00000014348020000000000000000000000000000000PROFESSORA                                        INDEPENDENCIA                 RS989150000000000000000000000000000000000101
0000004913FABIO RENATO BONAMIGO                                       00054104254053000000000000000000000000000000RUA SAO MIGUEL                                    INDEPENDENCIA                 RS989150005535351068000000000000000000000101
0000004916LASCH TRANSPORTES LTDA ME                                   07518101000106000000000000000000000000000000RUA SANTA CRUZ                                    TRES DE MAIO                  RS989100000000000000000000000000000000000102
0000004939DEIVIS HOLLWEG - MEI - INSS 12950739670                     12336263000155000000000000000000000000000000RUA ANIZIO ARAUJO E SILVA                         INDEPENDENCIA                 RS989150000000000000000000000000000000000102
0000004959CELONI TABORDA ZIMMERMANN MEI INSS 17017607072              97551920000130000000000000000000000000000000RUA SANTA ROSA DE LIMA                            INDEPENDENCIA                 RS989150005599162456600000000000000000000102
0000004967NERI OLIVEIRA QUITAISKI                                     00074649493072000000000000000000000000000000AUXILIAR DE ESCRITURARIO                          INDEPENDENCIA                 RS989150000000000000000000000000000000000101
0000004975GIANI SILFARNEI SERVES                                      14291290000184000000000000000000000000000000rua alfredo henn                                  TRES DE MAIO                  RS989100000000000000000000000000000000000102
0000004977GENTE SEGURADORA SA                                         90180605000102000000000000000000000000000000AVENIDA CARLOS GOMES 350                          PORTO ALEGRE                  RS904800005130238888000000000000000000000102
0000004979MAPFRE SEGUROS GERAIS SA                                    61074175000138000000000000000000000000000000AVENIDA DAS NACOES UNIDAS 11711                   SAO PAULO                     SP426802005432233245000000000000000000000102
0000004980PORTO SEGURO COMPANHIA DE SEGUROS GERAIS                    61198164000160000000000000000000000000000000RUA GUAIANAZES 1238                               SAO PAULO                     SP120400101133663258000000000000000000000102
0000004982MEDILAR IMPORT E DISTRIB DE PROD MED HOSPITAL               07752236000123000000000000000000000000000000RUA NORBERTO OTTO WILD 420                        VERA CRUZ                     SP175600005137187600000000000000000000000102
0000004986REGINA KROTH SIEPMANN MEI                                   12544528000100000000000000000330400000000000RUA SAO MIGUEL 716 SALA 2                         INDEPENDENCIA                 RS989150009132663900000000000000000000000102
0000004987IMPRENSA NACIONAL                                           04196645000100000000000000000000000000000000SETOR DE INDUSTRIAS GRAFICAS QUADRA 6 LOTE 800    BRASILIA                      DF706104600000000000000000000000000000000102
0000004993ELITE COMERCIO DE VEICULOS LTDA                             13347671000175000000000000000000000000000000ROD BR 285 KM 457 S/N                             IJUI                          RS987000000000000000000000000000000000000102
0000005004ROSIANI ELIZOLENE DE BARROS DA MOTTA                        00001505051088000000000000000000000000000000RUA JULIO DE CASTILHOS N 636                      INDEPENDENCIA                 RS989150000000000000000000000000000000000101
0000005005TERESINHA BOIARSKI MASSUDA                                  00077400780000000000000000000000000000000000RUA SANTO ANGELO N164                             INDEPENDENCIA                 RS989150000000000000000000000000000000000101
0000005024MARLENE DE SOUZA RODRIGUES                                  00000380170086000000000000000000000000000000RUA JOSINO FARIAS 530CARINE RODRIGUES THORMES     INDEPENDENCIA                 RS989150005599908626400000000000000000000101
0000005037TATIANE APARECIDA CORREA MOTTA                              00001576820050000000000000000000000000000000RUA 16/01 L14 Q129                                INDEPENDENCIA                 RS989150000000000000000000000000000000000101
0000005042VOLMIR ALVES BAIRROS- MOTORISTA                             00077401107015000000000000000000000000000000RUA SENADOR PINHEIRO 1348                         INDEPENDENCIA                 RS989150005599685242700000000000000000000101
0000005044DPM EDUCACAO LTDA                                           13021017000177000000000000000000000000000000AV PERNAMBUCO 1001 TERREO                         PORTO ALEGRE                  RS902400045130273400000000000000000000000102
0000005045SAFEWEB- SEGURANcA DA INFORMAcAO                            01579286000174000000000000000000000000000000RUA PRINCESA ISABEL N729 SANTANA                  PORTO ALEGRE                  RS906200010000000000000000000000000000000102
0000005051TAUANA LESSES KEIST                                         00002544735040000000000000000000000000000000RUA JOSINO FARIAS                                 INDEPENDENCIA                 RS989150000000000000000000000000000000000101
0000005067VERIDIANE KREMER - PF                                       00098148729034000000000000000000000000000000RUA MANOEL DA NOBREGA N 629                       INDEPENDENCIA                 RS989150005599726443600000000000000000000101
0000005073DAHMED SERVICOS MEDICOS                                     13332779000194000000000000000000000000000000RUA OSVALDO CRUZ 381 SALA 11                      TRES DE MAIO                  RS989100005596707060000000000000000000000102
0000005086VINICIUS CASALI                                             00000720767040000000000000000000000000000000RUA FARRAPOS    1515  AP120                       TRES DE MAIO                  RS989100009661340200000000000000000000000101
0000005089RUDIERO SAMPAIO- RUDI PNEUS MEI                             14472239000179000000000000000000000000000000AV TRES DE MAIO 734 CASA 2                        INDEPENDENCIA                 RS989150009994356040000000000000000000000102
0000005096VANESSA PANDOLFO BONAPAZ SOUTO                              00001853657018000000000000000000000000000000rua senador pinheiro 835                          INDEPENDENCIA                 RS989150000000000000000000000000000000000101
0000005101RODRIGO CAPPI ROSANELLI                                     00000401737047000000000000000000000000000000RUA SAO MIGUEL   775                              INDEPENDENCIA                 RS989150003539125000000000000000000000000101
0000005102INSTITUTO NACIONAL DE METROLOGIA QUALIDADE E TECNOLOGIA     00662270000320000000000000000000000000000000AV NOSSA SENHORA DAS GRACAS 50                    DUQUE DE CAXIAS               RJ252500202126799289000000000000000000000102
0000005108RSM DE SOUZA LEaO                                           10925721000166000000000000000000000000000000RUA ITALO BRUTOS 300                              PORTO ALEGRE                  RS917704105133395558000000000000000000000102
0000005109EVERALDO DO AMARANTE                                        00076006603004000000000000000000000000000000INDEPENDENCIA                                     INDEPENDENCIA                 RS989150000000000000000000000000000000000101
0000005110L A DALLA PORTA JUNIOR                                      11145401000156000000000000000000000000000000RUA PASCOAL GOMES LIBRELOTTO N 20                 SANTA MARIA                   RS970652905530259900000000000000000000000102
0000005113ELIANE NEUMANN PAIM                                         00000295901080000000000000000000000000000000RUA DUQUE DE CAXIAS 1224                          INDEPENDENCIA                 RS989150000000000000000000000000000000000101
0000005115MEDPLUS COM ARTIGOS MEDICOS LTDA                            01706665000188000000000000000000000000000000BARAO DO TRIUNFO N 1861                           SANTA MARIA                   RS970954655532192087000000000000000000000102
0000005120KLAUS E STASIAK LTDA                                        14066032000102000000000000000000000000000000TRES DE MAIO                                      TRES DE MAIO                  RS989100003535179100000000000000000000000102
0000005121ANDREI LOTTERMANN - INSS 11463625485 NAO USAR               00064122417015000000000000000000000000000000NENHUM                                            INDEPENDENCIA                 RS989150003322258800000000000000000000000101
0000005122MILRAU COMERCIO DE ARTIGOS PEDAGOGICOS LTDA                 02459406000162000000000000000000000000000000RUA BARONESA DO GRAVATAI M 70                     PORTO ALEGRE                  RS901600705132864745000000000000000000000102
0000005125TARGA PECAS E ACESSORIOS LTDA                               92118488000174000000000000000000000000000000RUA OTTO NIEMEYER 2286                            PORTO ALEGRE                  RS919100015132413917000000000000000000000102
0000005128HEVERTON MENEGHETTI                                         00001300235071000000000000000000000000000000ESQUINA SALETE                                    INDEPENDENCIA                 RS989150000000000000000000000000000000000101
0000005131DIRCEU TARTARI-OPERADOR PATRULIA AGRICOLA                   00089512537087000000000000000000000000000000ESQUINA KREVER                                    INDEPENDENCIA                 RS989150000000000000000000000000000000000101
0000005134FELICE AUTOMOVEIS LTDA SR                                   91525790001075000000000000000000000000000000R EXPEDICIONARIO WEBER                            SANTA ROSA                    RS989000003513100000000000000000000000000102
0000005149TEREZINHA FONSECA FELTEN                                    00046179291004000000000000000000000000000000AV TRES DE MAIO 61                                INDEPENDENCIA                 RS989150000000000000000000000000000000000101
0000005151FELIPE KROTH COSSETIN - ME                                  10624384000177000000000000000000000000000000AVENIDA 21 DE ABRIL 1122                          IJUI                          RS987000005533323025000000000000000000000102
0000005157KALINOVISKI   KALINOVISKI LTDA ME                           02150800000114000000000000000000000000000000RUA JOAO BERTANI 39                               ERECHIM                       RS997000005437124007000000000000000000000102
0000005164ELETRO STAR                                                 88250766000175000000000000000000000000000000AVENIDA CEARA 1363                                PORTO ALEGRE                  RS902405115133429310000000000000000000000102
0000005166CARMEM KADDATZ ALBUQUERQUE                                  00000361555008000000000000000000000000000000RUASENADOR PINHEIRO 1348                          INDEPENDENCIA                 RS989150003539111800000000000000000000000101
0000005182TUBOLAJE-TUBOS E VIDROS LTDA ME                             02655417000118000000000000000000000000000000RUA PEDRO HAMMARSTRON 202                         IJUI                          RS987000000000000000000000000000000000000102
0000005184BENOIT ELETRODOMESTICOS LTDA TRES DE MAIO                   87296026013438000000000000000000000000000000RUA HORIZONTINA N1048                             TRES DE MAIO                  RS989100003535209400000000000000000000000102
0000005188ATUATI LUSSANI E CIA LTDA/ATUATI MAQUINAS E IMPLEM          01435215000106000000000000000000000000000000RUA JOSE SCHMITT 1585                             SAO MARTINHO                  RS986900005535331368000000000000000000000102
0000005191MANOELA BONMANN BOMFIM                                      00002136726005000000000000000000000000000000INDEPENDENCIA                                     INDEPENDENCIA                 RS989150000000000000000000000000000000000101
0000005193COMUNIDADE EVANGELICA CONFISSAO LUTERANA SAO TOME           89675441000105000000000000000000000000000000RUA SENADOR SALGADO FILHO                         INDEPENDENCIA                 RS989150003539110400000000000000000000000102
0000005194VILMAR FERRARI TRANSPORTES                                  02163655000106000000000000000000000000000000AVENIDA AVAI 848                                  TRES DE MAIO                  RS989100005535358320000000000000000000000102
0000005208LUIZ VANDERLEI GOMES DA SILVA - ME                          14361803000186000000000000000000000000000000AVENIDA SANTA ROSA 672                            TRES DE MAIO                  RS989100000000000000000000000000000000000102
0000005210SSC SOLUCOES EM FORNECIMENTO DE MERCADORIAS LTDA            93577427000138000000000000000000000000000000RUA MARECHAL DEODORO 570                          SAO SEBASTIAO DO CAI          RS957600005199541636100000000000000000000102
0000005212MARCIA INES MARCHESKI POZZEBON                              00000141209097000000000000000000000000000000independencia                                     INDEPENDENCIA                 RS989150000000000000000000000000000000000101
0000005213TAMARA P KREVER BAUMGARTNER-AGENTE DE SAUDE                 00001481951050000000000000000000000000000000INDEPENDENCIA                                     INDEPENDENCIA                 RS989150000000000000000000000000000000000101
0000005214EVANIR PEDO                                                 00000987733052000000000000000000000000000000INDEPENDENCIA                                     INDEPENDENCIA                 RS989150000000000000000000000000000000000101
