87612826000190010120253108202510092025PREFEITURA MUNICIPAL INDEPENDENCIA                                              
3279/2025           1311202410/2025             28012025000000533369500000053336951500000000000000000000000000000000000000000001500150013112024
3279/2025           1311202410/2025             28012025000000000856600000000000001200000000000000000000000000000000000000000001632000013112024
3279/2025           1311202410/2025             28012025000000000500000000000000001200000000000000000000000000000000000000000001708000013112024
3279/2025           1311202410/2025             28012025000000020143400000000000001100000000000000000000000000000000000000000002632000013112024
3279/2025           1311202411/2025             03022025000000268920000000026892001500000000000000000000000000000000000000000001500150013112024
3279/2025           1311202414/2025             12022025000000231790000000023179001500000000000000000000000000000000000000000001500150013112024
3279/2025           1311202414/2025             12022025000000000088300000000000001200000000000000000000000000000000000000000001660000013112024
3279/2025           1311202414/2025             12022025000000016556500000000000001100000000000000000000000000000000000000000002660000013112024
3279/2025           1311202415/2025             18022025000000154075200000015407521500000000000000000000000000000000000000000001500150013112024
3279/2025           1311202418/2025             24022025000000210448600000021044861500000000000000000000000000000000000000000001500150013112024
3279/2025           1311202418/2025             24022025000000580000000000058000001500000000000000000000000000000000000000000001540154013112024
3279/2025           1311202418/2025             24022025000000051000000000005100001500000000000000000000000000000000000000000001621162113112024
3279/2025           1311202418/2025             24022025000000002500000000000250001500000000000000000000000000000000000000000001660166013112024
3279/2025           1311202419/2025             10032025000001389919600000138991961500000000000000000000000000000000000000000001500150013112024
3279/2025           1311202419/2025             10032025000001292084000000000000001100000000000000000000000000000000000000000002701000013112024
3279/2025           131120242/2025              03012025000000823250000000082325001500000000000000000000000000000000000000000001500150013112024
3279/2025           1311202422/2025             17032025000000549310000000054931001500000000000000000000000000000000000000000001500150013112024
3279/2025           1311202422/2025             17032025000000216462300000000000001100000000000000000000000000000000000000000002701000013112024
3279/2025           1311202425/2025             26032025000000766281000000076628101500000000000000000000000000000000000000000001500150013112024
3279/2025           1311202425/2025             26032025000001450000000000145000001500000000000000000000000000000000000000000001540154013112024
3279/2025           1311202425/2025             26032025000000091000000000009100001500000000000000000000000000000000000000000001621162113112024
3279/2025           1311202426/2025             03042025000000124450000000012445001500000000000000000000000000000000000000000001500150013112024
3279/2025           1311202427/2025             08042025000000604890000000060489001500000000000000000000000000000000000000000001500150013112024
3279/2025           1311202428/2025             17042025000000229000000000022900001500000000000000000000000000000000000000000001500150013112024
3279/2025           1311202428/2025             17042025000000005441800000000000001200000000000000000000000000000000000000000001660000013112024
3279/2025           1311202428/2025             17042025000000204558200000000000001100000000000000000000000000000000000000000002660000013112024
3279/2025           131120243/2025              09012025000002123479600000212347961500000000000000000000000000000000000000000001500150013112024
3279/2025           1311202430/2025             23042025000001629800000000162980001500000000000000000000000000000000000000000001500150013112024
3279/2025           1311202430/2025             23042025000001500000000000150000001500000000000000000000000000000000000000000001569156913112024
3279/2025           1311202431/2025             28042025000000345000000000034500001500000000000000000000000000000000000000000001500150013112024
3279/2025           1311202431/2025             28042025000001250000000000125000001500000000000000000000000000000000000000000001540154013112024
3279/2025           1311202431/2025             28042025000000080000000000008000001500000000000000000000000000000000000000000001600160013112024
3279/2025           1311202431/2025             28042025000000085000000000008500001500000000000000000000000000000000000000000001621162113112024
3279/2025           1311202432/2025             29042025000001818793800000181879381500000000000000000000000000000000000000000001500150013112024
3279/2025           1311202433/2025             05052025000000550500000000055050001500000000000000000000000000000000000000000001500150013112024
3279/2025           1311202435/2025             13052025000001137100000000113710001500000000000000000000000000000000000000000001500150013112024
3279/2025           1311202437/2025             20052025000000272600000000027260001500000000000000000000000000000000000000000001500150013112024
3279/2025           1311202437/2025             20052025000003400000000000000000001100000000000000000000000000000000000000000002706000013112024
3279/2025           1311202444/2025             26052025000001387774000000138777401500000000000000000000000000000000000000000001500150013112024
3279/2025           1311202444/2025             26052025000001390000000000139000001500000000000000000000000000000000000000000001540154013112024
3279/2025           1311202444/2025             26052025000000085000000000008500001500000000000000000000000000000000000000000001621162113112024
3279/2025           1311202444/2025             26052025000000027000000000002700001500000000000000000000000000000000000000000001660166013112024
3279/2025           1311202444/2025             26052025000000389663800000000000001100000000000000000000000000000000000000000002701000013112024
3279/2025           1311202445/2025             04062025000000075800000000007580001500000000000000000000000000000000000000000001500150013112024
3279/2025           1311202446/2025             10062025000001840400000000184040001500000000000000000000000000000000000000000001500150013112024
3279/2025           1311202446/2025             10062025000000400000000000040000001500000000000000000000000000000000000000000001553155313112024
3279/2025           1311202446/2025             10062025000000038400000000003840001500000000000000000000000000000000000000000001748174813112024
3279/2025           1311202446/2025             10062025000002340000000000000000001100000000000000000000000000000000000000000002501000013112024
3279/2025           1311202446/2025             10062025000000100000000000000000001100000000000000000000000000000000000000000002569000013112024
3279/2025           1311202448/2025             16062025000000469601300000046960131500000000000000000000000000000000000000000001500150013112024
3279/2025           1311202448/2025             16062025000000050000000000005000001500000000000000000000000000000000000000000001660166013112024
3279/2025           1311202448/2025             16062025000000480707500000000000001100000000000000000000000000000000000000000002701000013112024
3279/2025           1311202449/2025             23062025000001328850000000132885001500000000000000000000000000000000000000000001500150013112024
3279/2025           1311202449/2025             23062025000001410000000000141000001500000000000000000000000000000000000000000001540154013112024
3279/2025           1311202449/2025             23062025000000063200000000006320001500000000000000000000000000000000000000000001600160013112024
3279/2025           1311202449/2025             23062025000000085000000000008500001500000000000000000000000000000000000000000001621162113112024
3279/2025           1311202449/2025             23062025000000175000000000000000001100000000000000000000000000000000000000000002501000013112024
3279/2025           1311202449/2025             23062025000000070000000000000000001100000000000000000000000000000000000000000002600000013112024
3279/2025           1311202452/2025             03072025000004638705200000463870521500000000000000000000000000000000000000000001500150013112024
3279/2025           1311202452/2025             03072025000001200000000000000000001200000000000000000000000000000000000000000001621000013112024
3279/2025           1311202452/2025             03072025000000010000000000001000001500000000000000000000000000000000000000000001660166013112024
3279/2025           1311202452/2025             03072025000002999406000000000000001200000000000000000000000000000000000000000001701000013112024
3279/2025           1311202454/2025             10072025000000997482000000099748201500000000000000000000000000000000000000000001500150013112024
3279/2025           1311202454/2025             10072025000000250000000000025000001500000000000000000000000000000000000000000001550155013112024
3279/2025           1311202454/2025             10072025000000010000000000001000001500000000000000000000000000000000000000000002501250113112024
3279/2025           1311202454/2025             10072025000000157246700000015724671500000000000000000000000000000000000000000002621262113112024
3279/2025           1311202455/2025             15072025000000646290000000064629001500000000000000000000000000000000000000000001500150013112024
3279/2025           1311202455/2025             15072025000000004000000000000400001500000000000000000000000000000000000000000001660166013112024
3279/2025           1311202456/2025             21072025000000340078400000034007841500000000000000000000000000000000000000000001500150013112024
3279/2025           1311202458/2025             24072025000000525382000000052538201500000000000000000000000000000000000000000001500150013112024
3279/2025           1311202459/2025             25072025000000459020000000045902001500000000000000000000000000000000000000000001500150013112024
3279/2025           1311202459/2025             25072025000000937000000000000000001200000000000000000000000000000000000000000001501000013112024
3279/2025           1311202459/2025             25072025000001550000000000155000001500000000000000000000000000000000000000000001540154013112024
3279/2025           1311202459/2025             25072025000000085000000000008500001500000000000000000000000000000000000000000001621162113112024
3279/2025           1311202459/2025             25072025000000100000000000010000001500000000000000000000000000000000000000000001748174813112024
3279/2025           1311202459/2025             25072025000001248000000000000000001100000000000000000000000000000000000000000002501000013112024
3279/2025           131120246/2025              15012025000000959600800000095960081500000000000000000000000000000000000000000001500150013112024
3279/2025           1311202461/2025             04082025000000743780000000074378001500000000000000000000000000000000000000000001500150013112024
3279/2025           1311202464/2025             06082025000000759723500000075972351500000000000000000000000000000000000000000001500150013112024
3279/2025           1311202464/2025             06082025000000090000000000009000001500000000000000000000000000000000000000000001600160013112024
3279/2025           1311202464/2025             06082025000000003653400000000000001200000000000000000000000000000000000000000001621000013112024
3279/2025           1311202464/2025             06082025000000046543000000000000001100000000000000000000000000000000000000000002621000013112024
3279/2025           1311202468/2025             11082025000004425340000000442534001500000000000000000000000000000000000000000001500150013112024
3279/2025           1311202468/2025             11082025000000024398900000000000001200000000000000000000000000000000000000000001621000013112024
3279/2025           1311202468/2025             11082025000000010000000000001000001500000000000000000000000000000000000000000001802180213112024
3279/2025           1311202469/2025             19082025000000384000000000038400001500000000000000000000000000000000000000000001500150013112024
3279/2025           1311202470/2025             25082025000001687010000000168701001500000000000000000000000000000000000000000001500150013112024
3279/2025           1311202470/2025             25082025000002249000000000224900001500000000000000000000000000000000000000000001501150113112024
3279/2025           1311202470/2025             25082025000001990000000000199000001500000000000000000000000000000000000000000001540154013112024
3279/2025           1311202470/2025             25082025000000600000000000060000001500000000000000000000000000000000000000000001571157113112024
3279/2025           1311202470/2025             25082025000000170000000000017000001500000000000000000000000000000000000000000001621162113112024
3279/2025           1311202470/2025             25082025000000081600000000008160001500000000000000000000000000000000000000000001748174813112024
3279/2025           1311202470/2025             25082025000000020000000000002000001500000000000000000000000000000000000000000001802180213112024
3279/2025           131120248/2025              20012025000000404195200000040419521500000000000000000000000000000000000000000001500150013112024
3279/2025           131120248/2025              20012025000002347802000000000000001100000000000000000000000000000000000000000002706000013112024
3289/2025           0502202512/2025             10022025000000204459800000020445982500000000000000000000000000000000000000000001500150005022025
3289/2025           0502202512/2025             10022025000001725540200000000000002100000000000000000000000000000000000000000002621000005022025
3290/2025           0502202513/2025             10022025000000418200000000041820002500000000000000000000000000000000000000000001500150005022025
3299/2025           1902202516/2025             20022025000000164850000000016485002500000000000000000000000000000000000000000001500150019022025
3299/2025           1902202516/2025             20022025000000500000000000000000002100000000000000000000000000000000000000000002665000019022025
3303/2025           0703202520/2025             10032025000000820000000000082000002500000000000000000000000000000000000000000001500150007032025
3304/2025           0703202521/2025             10032025000000840000000000084000002500000000000000000000000000000000000000000001500150007032025
3316/2025           0705202534/2025             09052025000000050000000000005000001500000000000000000000000000000000000000000001500150007052025
3316/2025           0705202534/2025             09052025000000500000000000000000001200000000000000000000000000000000000000000001701000007052025
3320/2025           2105202539/2025             23052025000000150000000000015000002500000000000000000000000000000000000000000001500150021052025
3321/2025           2105202540/2025             23052025000000120000000000012000002500000000000000000000000000000000000000000001500150021052025
3323/2025           2105202541/2025             23052025000000318800000000031880002500000000000000000000000000000000000000000001500150021052025
3324/2025           2105202542/2025             23052025000000935000000000000000002200000000000000000000000000000000000000000001747000021052025
3324/2025           2105202542/2025             23052025000002520000000000000000002200000000000000000000000000000000000000000001748000021052025
3327/2025           2105202543/2025             23052025000000200000000000000000002200000000000000000000000000000000000000000001701000021052025
3331/2025           1806202550/2025             23062025000000180739300000018073932500000000000000000000000000000000000000000001500150018062025
3331/2025           1806202550/2025             23062025000000015048900000000000002200000000000000000000000000000000000000000001701000018062025
3331/2025           1806202550/2025             23062025000000294211800000000000002100000000000000000000000000000000000000000002701000018062025
3336/2025           0807202553/2025             10072025000000330000000000033000002500000000000000000000000000000000000000000001500150008072025
3344/2025           2207202557/2025             24072025000001150000000000115000002500000000000000000000000000000000000000000001500150022072025
3342/2025           2207202562/2025             05082025000000350000000000035000002500000000000000000000000000000000000000000001500150022072025
3342/2025           2207202562/2025             05082025000000839830000000000000002100000000000000000000000000000000000000000002601000022072025
3345/2025           2207202563/2025             05082025000000092717400000000000001200000000000000000000000000000000000000000001706000022072025
3345/2025           2207202563/2025             05082025000002007282600000000000001100000000000000000000000000000000000000000002706000022072025
3351/2025           0608202565/2025             08082025000002000000000000200000002500000000000000000000000000000000000000000001500150006082025
3352/2025           0608202566/2025             08082025000000150000000000015000002500000000000000000000000000000000000000000001500150006082025
FINALIZADOR0000000121