87612826000190010120253108202510092025PREFEITURA MUNICIPAL INDEPENDENCIA                                              
1131101010000000000050010000010958678D070000
1131101010000000000050010000010958678R070000
1131101040000000000050010000018962378D070000
1131101040000000000050010000018962378R070000
1131101990000000000050010000004635872D070000
1131101990000000000050010000004635872R070000
1132306010000000000050010000001919376D070000
1132306010000000000050010000001572329R070000
1132306030000000000050010000000043116D070000
1132306030000000000050010000000030116R070000
2188101020100000000050010000001084886D070000
2188101020100000000050010000001373196R070000
2188101020200000000050010000000174429D070000
2188101020200000000050010000000198524R070000
2188101020400000000050010000018052781D070000
2188101020400000000050010000021052108R070000
2188101100000000000050010000005990315D070000
2188101100000000000050010000005990315R070000
2188101130000000000050010000004221105D070000
2188101130000000000050010000004221105R070000
2188101150000000000050010000146033108D070000
2188101150000000000050010000146033108R070000
2188201010100000000050010000100153153D070000
2188201010100000000050010000114609456R070000
2188299010200000000050010000000084605D070000
2188299010200000000050010000000084605R070000
2188401990100000000050010000000218522D070000
2188401990100000000050010000000218522R070000
FINALIZADOR0000000028