87612826000190010120253108202510092025PREFEITURA MUNICIPAL INDEPENDENCIA                                              
1000000000000000000002010000467405242000045002588100004077064200000467529283000045244716800004555212180000470200876000043226935900004581013170000485646841000044157343900006650912070000000000000000000
1100000000000000000002010000030550972000002989204600000400201010000047336308000006791423400000752675450000029694299000003467022600000421475060000037961180000002994575200000586741000000000000000000000
1110000000000000000002010000029508410000002762750800000359667230000042458739000005320157500000721639500000028072137000003313871500000391836540000033562354000002780140700000564802470000000000000000000
1112000000000000000002010000007760396000000915200400000173588840000020454203000003504192600000521320180000008429244000001334377100000198122800000012742796000000453518600000203372480000000000000000000
1112500000000000000002010000001122197000000336082400000057122840000007663703000001986642600000305569180000002193075000000118642100000013541100000001450496000000236278600000023908940000000000000000000
1112500100000000000002010000000028969000000232655400000041298330000006851192000001884743500000295208610000000751119000000064776400000007177240000000508843000000136095200000014110420000000000005000000
1112500200000000000002010000000003766000000000000000000000000000000000000000000000000000000000000506780000000054984000000004190200000000707890000000054764000000015333400000001731960000000000005000000
1112500300000000000002010000000852953000000081791600000011976970000000608097000000075562300000007826300000000998541000000034992300000004128860000000660870000000063721000000005969850000000000005000000
1112500400000000000002010000000236509000000021635400000003847540000000204414000000026336800000002027490000000388431000000014683200000001527110000000226019000000021129000000002096710000000000005000000
1112530000000000000002010000006638199000000579118000000116466000000012790500000001517550000000215751000000006236169000001215735000000184581700000011292300000000217240000000179463540000000000000000000
1112530100000000000002010000006638199000000579118000000116466000000012790500000001517550000000215751000000006236169000001215735000000184581700000011292300000000217240000000179463540000000000005000000
1113000000000000000002010000011570153000000941222200000107254040000012021753000001092510800000130162130000012934313000001195620100000115790060000011741679000001285601500000265778160000000000000000000
1113030000000000000002010000011570153000000941222200000107254040000012021753000001092510800000130162130000012934313000001195620100000115790060000011741679000001285601500000265778160000000000000000000
1113031000000000000002010000011097160000000883408500000098511470000010581413000001015645900000108019740000011800792000001086316600000108857620000011030482000001103790000000236499360000000000000000000
1113031100000000000002010000011097160000000883408500000098511470000010581413000001015645900000108019740000011800792000001086316600000108857620000011030482000001103790000000236499360000000000000000000
1113031101000000000002010000008404653000000642573500000073214030000008128733000000769515000000083961490000008962590000000826733500000082844900000008433499000000849494500000186207410000000000005000000
1113031102000000000002010000000627953000000035112900000002853240000000299137000000028663100000002801470000000282609000000028547900000002909200000000286631000000027854700000005632860000000000005000000
1113031103000000000002010000002064554000000205722100000022444200000002153543000000217467800000021256780000002174678000000231035200000023103520000002310352000000226440800000044659090000000000005000000
1113031104000000000002010000000000000000000000000000000000000000000000000000000000000000000000000000000000000380915000000000000000000000000000000000000000000000000000000000000000000000000000005000000
1113034000000000000002010000000472993000000057813700000008742570000001440340000000076864900000022142390000001133521000000109303500000006932440000000711197000000181811500000029278800000000000000000000
1113034100000000000002010000000472993000000057813700000008742570000001440340000000076864900000022142390000001133521000000109303500000006932440000000711197000000181811500000029278800000000000000000000
1113034101000000000002010000000468764000000057377400000008656650000001373790000000075948100000022043510000001123993000000108250400000006627100000000636597000000176218900000028659650000000000005000000
1113034102000000000002010000000004229000000000000000000000042290000000011787000000000480500000000055250000000005165000000000480500000000048050000000005585000000000969300000000106900000000000005000000
1113034103000000000002010000000000000000000000436300000000043630000000054763000000000436300000000043630000000004363000000000572600000000043630000000040363000000001867100000000087260000000000005000000
1113034104000000000002010000000000000000000000000000000000000000000000000000000000000000000000000000000000000000000000000000000000000000213660000000028652000000002756200000000424990000000000005000000
1114000000000000000002010000010177861000000906328200000078824350000009982783000000723454100000070157190000006708580000000783874300000077923680000009077879000001041020600000095651830000000000000000000
1114510000000000000002010000010177861000000906328200000078824350000009982783000000723454100000070157190000006708580000000783874300000077923680000009077879000001041020600000095651830000000000000000000
1114511000000000000002010000010177861000000906328200000078824350000009982783000000723454100000070157190000006708580000000783874300000077923680000009077879000001041020600000095651830000000000000000000
1114511100000000000002010000010111831000000897242600000078474000000009686912000000720095600000069667650000006680858000000778643500000077836820000009000621000001034841600000095006680000000000005000000
1114511200000000000002010000000056093000000008091900000000250980000000026086000000002364800000000390170000000027722000000004226300000000086860000000077258000000005074400000000645150000000000005000000
1114511300000000000002010000000006031000000000603100000000060310000000258909000000000603100000000060310000000000000000000001004500000000000000000000000000000000001104600000000000000000000000005000000
1114511400000000000002010000000003906000000000390600000000039060000000010876000000000390600000000039060000000000000000000000000000000000000000000000000000000000000000000000000000000000000000005000000
1120000000000000000002010000000794035000000166317400000038272990000004642332000001441323600000028485010000001372517000000127732800000026595570000004196914000000184029000000018880060000000000000000000
1121000000000000000002010000000500243000000043557300000008482610000000591743000000087502400000010250240000000911434000000077166400000022393850000003496986000000129085200000008041670000000000000000000
1121010000000000000002010000000396057000000033555100000007814810000000497309000000076420900000009068950000000829972000000066369700000021295920000003391712000000122996900000007243200000000000000000000
1121010100000000000002010000000342189000000029315200000006246180000000467454000000072945000000008810520000000736124000000061264500000021199410000003270238000000107742400000004975500000000000000000000
1121010101000000000002010000000052958000000006155800000001030450000000097536000000017851900000001988790000000233275000000024073700000014602850000002732099000000061041400000002467580000000000005010000
1121010102000000000002010000000007200000000000720000000000072000000000021600000000000000000000000000000000000000000000000000720000000000288000000000014400000000000720000000000000000000000000005010000
1121010103000000000002010000000010200000000003124600000000487000000000057000000000021775400000000703000000000112600000000005254900000002254000000000130300000000007760000000000799140000000000005010000
1121010104000000000002010000000008600000000000000000000001045000000000081200000000003730000000002844000000000091600000000003490000000001159000000000120200000000008880000000000086000000000000007590000
1121010105000000000002010000000213201000000012891800000002129510000000174618000000017708100000001215740000000140153000000019166000000001796840000000136975000000014015000000000628640000000000005010000
1121010106000000000002010000000050030000000006423000000001482220000000035500000000008679600000002058990000000158496000000008559900000001098720000000121000000000011510000000000994140000000000005010000
1121010107000000000002010000000000000000000000000000000000000000000000000000000000003200000000000000000000000000000000000000000000000000000000000000015264000000003816000000000000000000000000005010000
1121010200000000000002010000000000000000000000000000000000000000000000000000000000000490400000000064880000000000000000000000000000000000000000000000009817000000003962000000000181680000000000000000000
1121010201000000000002010000000000000000000000000000000000000000000000000000000000000000000000000000000000000000000000000000000000000000000000000000009817000000003747300000000176900000000000005010000
1121010204000000000002010000000000000000000000000000000000000000000000000000000000000298400000000064880000000000000000000000000000000000000000000000000000000000000000000000000000000000000000007590000
1121010206000000000002010000000000000000000000000000000000000000000000000000000000000000000000000000000000000000000000000000000000000000000000000000000000000000000000000000000004780000000000005010000
1121010207000000000002010000000000000000000000000000000000000000000000000000000000000192000000000000000000000000000000000000000000000000000000000000000000000000000214700000000000000000000000005010000
1121010300000000000002010000000036923000000002997300000001139560000000019520000000001955800000000119880000000062522000000003599200000000063910000000079012000000008077300000001230540000000000000000000
1121010301000000000002010000000036923000000002997300000001139560000000019520000000001955800000000119880000000062522000000003599200000000063910000000054200000000008077300000001230540000000000005010000
1121010305000000000002010000000000000000000000000000000000000000000000000000000000000000000000000000000000000000000000000000000000000000000000000000000900000000000000000000000000000000000000005010000
1121010306000000000002010000000000000000000000000000000000000000000000000000000000000000000000000000000000000000000000000000000000000000000000000000023912000000000000000000000000000000000000005010000
1121010400000000000002010000000016945000000001242600000000429070000000010335000000001029700000000073670000000031326000000001506000000000032600000000032645000000003215200000000855480000000000000000000
1121010401000000000002010000000016945000000001242600000000429070000000010335000000001029700000000073670000000031326000000001506000000000032600000000019416000000003215200000000855480000000000005010000
1121010405000000000002010000000000000000000000000000000000000000000000000000000000000000000000000000000000000000000000000000000000000000000000000000000795000000000000000000000000000000000000005010000
1121010406000000000002010000000000000000000000000000000000000000000000000000000000000000000000000000000000000000000000000000000000000000000000000000012434000000000000000000000000000000000000005010000
1121500000000000000002010000000104186000000010002200000000667800000000094434000000011081500000001181290000000081462000000010796700000001097930000000105274000000006088300000000798470000000000000000000
1121500100000000000002010000000102771000000010002200000000667800000000090220000000011044200000001165330000000081462000000010769900000001097930000000105274000000006088300000000798470000000000005010000
1121500200000000000002010000000001415000000000000000000000000000000000004214000000000037300000000015960000000000000000000000026800000000000000000000000000000000000000000000000000000000000000005010000
1122000000000000000002010000000293792000000122760100000029790380000004050589000001353821200000018234770000000461083000000050566400000004201720000000699928000000054943800000010838390000000000000000000
1122010000000000000002010000000000889000000111488300000027333810000003991372000001258231400000000008890000000004112000000000000000000000000000000000000000000000000000000000000000000000000000000000000
1122010100000000000002010000000000000000000111488300000027333810000003991372000001257854500000000000000000000000000000000000000000000000000000000000000000000000000000000000000000000000000000000000000
1122010101000000000002010000000000000000000111488300000027333810000003991372000001257854500000000000000000000000000000000000000000000000000000000000000000000000000000000000000000000000000000005010000
1122010300000000000002010000000000889000000000000000000000000000000000000000000000000355600000000008890000000003575000000000000000000000000000000000000000000000000000000000000000000000000000000000000
1122010301000000000002010000000000889000000000000000000000000000000000000000000000000355600000000008890000000003575000000000000000000000000000000000000000000000000000000000000000000000000000005010000
1122010400000000000002010000000000000000000000000000000000000000000000000000000000000021300000000000000000000000537000000000000000000000000000000000000000000000000000000000000000000000000000000000000
1122010401000000000002010000000000000000000000000000000000000000000000000000000000000021300000000000000000000000537000000000000000000000000000000000000000000000000000000000000000000000000000005010000
1122530000000000000002010000000292903000000011271800000002456570000000059217000000095589800000018225880000000456971000000050566400000004201720000000699928000000054943800000010838390000000000000000000
1122530100000000000002010000000000000000000000000000000000000000000000000000000000070760200000014917180000000297245000000036879200000002616400000000385080000000037537200000007871800000000000005010000
1122530300000000000002010000000277794000000010651500000002387340000000053678000000023493900000003234280000000152895000000012144600000001439580000000291720000000014534300000002760510000000000005010000
1122530400000000000002010000000015109000000000620300000000069230000000005539000000001335700000000074420000000006831000000001542600000000145740000000023128000000002872300000000206080000000000005010000
1130000000000000000002010000000248527000000060136400000002260790000000235237000000029942300000002550940000000249645000000025418300000003042950000000201912000000030405500000003058470000000000000000000
1131000000000000000002010000000248527000000060136400000002260790000000235237000000029942300000002550940000000249645000000025418300000003042950000000201912000000030405500000003058470000000000000000000
1131530000000000000002010000000248527000000060136400000002260790000000235237000000029942300000002550940000000249645000000025418300000003042950000000201912000000030405500000003058470000000000000000000
1131530100000000000002010000000248527000000060136400000002260790000000235237000000029942300000002550940000000249645000000025418300000003042950000000201912000000030405500000003058470000000000005010000
1200000000000000000002010000002266169000001315498400000135265510000014572588000001517987700000180777170000014973122000001497790300000148110450000014941411000001493708500000417463730000000000000000000
1210000000000000000002010000000000000000001043040100000107676850000011890010000001221029600000151653210000012564339000001271567400000126578460000012666104000001271794200000394067470000000000000000000
1215000000000000000002010000000000000000001043040100000107676850000011890010000001221029600000151653210000012564339000001271567400000126578460000012666104000001271794200000394067470000000000000000000
1215010000000000000002010000000000000000001043040100000107676850000011890010000001221029600000151653210000012564339000001271567400000126578460000012666104000001271794200000394067470000000000000000000
1215011000000000000002010000000000000000001019498100000105322650000011654590000001197487600000149135170000012328919000001248025400000124224260000012430684000001248252200000368711380000000000000000000
1215011100000000000050010000000000000000001019498100000105322650000011654590000001197487600000149135170000012328919000001248025400000124224260000012430684000001248252200000368711380000000000008000000
1215012000000000000002010000000000000000000019146800000001914680000000191468000000019146800000002078520000000191468000000019146800000001914680000000191468000000019146800000020261730000000000000000000
1215012100000000000050010000000000000000000019146800000001914680000000191468000000019146800000002078520000000191468000000019146800000001914680000000191468000000019146800000020261730000000000008000000
1215013000000000000002010000000000000000000004395200000000439520000000043952000000004395200000000439520000000043952000000004395200000000439520000000043952000000004395200000005094360000000000000000000
1215013100000000000050010000000000000000000004395200000000439520000000043952000000004395200000000439520000000043952000000004395200000000439520000000043952000000004395200000005094360000000000008000000
1240000000000000000002010000002266169000000272458300000027588660000002682578000000296958100000029123960000002408783000000226222900000021531990000002275307000000221914300000023396260000000000000000000
1241000000000000000002010000002266169000000272458300000027588660000002682578000000296958100000029123960000002408783000000226222900000021531990000002275307000000221914300000023396260000000000000000000
1241500000000000000002010000002266169000000272458300000027588660000002682578000000296958100000029123960000002408783000000226222900000021531990000002275307000000221914300000023396260000000000000000000
1241500100000000000002010000002266169000000272458300000027588660000002682578000000296958100000029123960000002408783000000226222900000021531990000002275307000000221914300000023396260000000000007510000
1300000000000000000002010000041463914000003432397600000397894580000027572957000004139209900000457035050000027464789000003812418700000314779410000039856237000002959040800000298589580000000000000000000
1310000000000000000002010000002227985000000223448500000022344850000002234485000000223448500000022344850000002280631000000223840500000022384050000002325147000000434017400000023251470000000000000000000
1311000000000000000002010000002227985000000223448500000022344850000002234485000000223448500000022344850000002280631000000223840500000022384050000002325147000000434017400000023251470000000000000000000
1311010000000000000002010000002227985000000223448500000022344850000002234485000000223448500000022344850000002280631000000223840500000022384050000002325147000000434017400000023251470000000000000000000
1311011000000000000002010000002227985000000223448500000022344850000002234485000000223448500000022344850000002280631000000223840500000022384050000002325147000000434017400000023251470000000000000000000
1311011100000000000002010000002227985000000223448500000022344850000002234485000000223448500000022344850000002238405000000223840500000022384050000002325147000000434017400000023251470000000000005010000
1311011300000000000002010000000000000000000000000000000000000000000000000000000000000000000000000000000000000022807000000000000000000000000000000000000000000000000000000000000000000000000000005010000
1311011400000000000002010000000000000000000000000000000000000000000000000000000000000000000000000000000000000019419000000000000000000000000000000000000000000000000000000000000000000000000000005010000
1320000000000000000002010000039235929000003208949100000375549730000025338472000003915761400000434690200000025184158000003588578200000292395360000037531090000002525023400000275338110000000000000000000
1321000000000000000002010000039235929000003208949100000375549730000025338472000003915761400000434690200000025184158000003588578200000292395360000037531090000002525023400000275338110000000000000000000
132101000000000000000201000000763236300000072948530000007953914000000738701500000075659520000024758884-000010379625000000748215300000073746800000008318711000000705018800000086988570000000000000000000
132101010000000000000201000000763236300000072948530000007953914000000738701500000075659520000024758884-000010379625000000748215300000073746800000008318711000000705018800000086988570000000000000000000
132101010100000000000201000000256288300000024162530000002714488000000285498100000026280360000020890584-000015072093000000304335500000028561640000003088159000000219993700000020507120000000000000000000
1321010101020000000002010000000264104000000041997500000004699010000000483749000000037363000000002801270000000290734000000017130700000001798910000000214008000000011752400000000920710000000000000000000
1321010101020100000002010000000264104000000041997500000004699010000000483749000000037363000000002801270000000290734000000017130700000001798910000000214008000000011752400000000920710000000000005400000
1321010101030000000002010000000440991000000036858000000004603600000000523298000000052951900000005138770000000580779000000045240200000003825980000000420641000000036600500000004505640000000000000000000
1321010101030200000002010000000014147000000001191600000000125320000000013077000000001250300000000124300000000014991000000001407300000000136410000000015058000000001284700000000134470000000000006210000
1321010101030300000002010000000046515000000003915600000000414050000000043774000000004077300000000395880000000046637000000004486800000000440820000000049685000000003215500000000240180000000000006210000
1321010101030400000002010000000024454000000002438500000000361420000000032425000000003582200000000371020000000044553000000002877300000000216120000000029276000000002004900000000125040000000000006000000
1321010101030500000002010000000009021000000000745900000000075120000000008119000000000979000000000090010000000010121000000000792200000000089430000000010843000000000988300000000107890000000000006000000
1321010101030600000002010000000001197000000000333900000000068130000000015674000000002551600000000292510000000023175000000001456200000000042480000000004561000000000271700000000000000000000000006000000
1321010101030700000002010000000000000000000000000000000000000000000000000000000000001315700000000105880000000001017000000000000000000000000000000000000000000000000000000000000000000000000000006000000
1321010101030800000002010000000000000000000000000000000000000000000000000000000000000641000000000121060000000014261000000000724400000000000000000000000000000000000000000000000000000000000000006213201
1321010101030900000002010000000000000000000000032400000000014940000000002731000000000364300000000045320000000005293000000000000000000000000000000000000000000000000000000000000000000000000000006210000
1321010101031000000002010000000000000000000000000000000000000000000000000000000000000000000000000000000000000000000000000000000000000000000000000000000000000000007049900000001421050000000000006210000
1321010101031100000002010000000004354000000000363600000000038650000000004043000000000374900000000036400000000004304000000000412800000000040750000000004579000000000391800000000042230000000000006210000
1321010101031200000002010000000000000000000000000000000000142480000000015740000000000227400000000000000000000000000000000000000000000000000000000000000000000000000000000000000000000000000000006210000
1321010101031300000002010000000000000000000000000000000000482150000000085755000000007987600000000775550000000091364000000002768100000000000000000000000000000000000000000000000000000000000000006213210
1321010101031700000002010000000000000000000000000000000000000000000000000000000000000000000000000000000000000000000000000000000000000000000000000000000000000000000000000000000972350000000000006013110
132101010103280000000201000000000000000000000000250000000000489-000000000514000000000000000000000000000000000000000000000000000000000000000000000000000000000000000000000000000000000000000000006210000
1321010101032900000002010000000053572000000003903100000000406960000000043314000000004066700000000390140000000044372000000004364200000000421590000000044564000000002740100000000119150000000000006003110
1321010101033000000002010000000004830000000000284300000000023490000000003089000000000349500000000002480000000002693000000000319900000000036800000000004282000000000333300000000045240000000000006050000
1321010101033100000002010000000012333000000001021200000000105840000000011249000000001056400000000100690000000011601000000000776800000000045070000000000000000000000000000000000000000000000000006590000
1321010101033200000002010000000133166000000011165300000001148530000000121516000000011553900000001098260000000126949000000012266900000001187430000000133405000000008934200000000396310000000000006003110
1321010101033400000002010000000000000000000000000000000000000000000000001655000000001142900000000108920000000012552000000001212500000000117040000000013209000000001147100000000132450000000000006000000
1321010101035500000002010000000006578000000000550300000000056990000000006105000000000574300000000055200000000006365000000000620700000000059140000000006675000000000580300000000064660000000000006010000
1321010101035800000002010000000008554000000000720000000000076140000000008049000000000749800000000072790000000008576000000000825100000000081060000000009136000000000782300000000083700000000000006210000
1321010101036000000002010000000007780000000000672500000000073460000000005193000000000690100000000056540000000008512000000000704300000000076320000000007863000000000528700000000065950000000000006010000
1321010101036100000002010000000030615000000002559700000000266660000000028423000000002683100000000255700000000029539000000002852900000000276700000000031086000000002690500000000318810000000000006010000
1321010101037700000002010000000006586000000000552200000000057730000000006141000000000583800000000055510000000006415000000000619900000000060010000000006742000000000580400000000068800000000000006010000
1321010101037800000002010000000001613000000000135800000000014350000000001518000000000141400000000013730000000001617000000000155600000000015280000000001723000000000147500000000015790000000000006320000
1321010101037900000002010000000033437000000002790900000000291380000000031075000000002924900000000280730000000032558000000003151100000000304120000000034440000000002126400000000043620000000000006003110
1321010101038000000002010000000002196000000000184000000000019130000000002034000000000192100000000018290000000002113000000000204000000000019770000000002227000000000191800000000022850000000000006010000
1321010101038200000002010000000000000000000000000000000000000000000000001030000000000048100000000004670000000000551000000000052900000000005200000000000402000000000000000000000000000000000000006210000
1321010101038300000002010000000005009000000000421600000000031710000000000000000000000000000000000000000000000000000000000000000000000000000000000000000000000000000000000000000038320000000000006210000
1321010101038400000002010000000028294000000002310100000000244250000000025824000000002263100000000210840000000023988000000001549200000000091350000000004239000000000156300000000016580000000000006320000
1321010101038500000002010000000006740000000000563000000000059830000000006259000000000580500000000056350000000006662000000000639100000000063090000000006646000000000454800000000030200000000000005000000
1321010101060000000002010000000001113000000000144400000000014970000000002605000000000299000000000028490000000004304000000000468400000000045200000000006854000000000466300000000015060000000000007500000
1321010101070000000002010000000128444000000010239300000001164640000000118329000000019393500000001667390000000109893000000009677500000000942410000000098994000000009661800000000987520000000000000000000
1321010101070100000002010000000000000000000000000000000000037070000000003481000000000862900000000082130000000006492000000000473600000000063910000000005651000000000687300000000045870000000000006600000
1321010101070200000002010000000000000000000000000000000000046180000000006209000000001184800000000048170000000002229000000000305400000000057980000000005759000000000613700000000013250000000000006600000
1321010101070300000002010000000013787000000000627800000000085030000000010662000000001059000000000063890000000009554000000000908700000000086150000000010771000000001004500000000111380000000000006600000
1321010101070500000002010000000006030000000000749400000000078650000000007927000000000738400000000071690000000008446000000000824900000000082300000000006153000000000162500000000000000000000000006650000
1321010101070600000002010000000046515000000003915600000000414050000000043774000000004077300000000395880000000046637000000004486800000000440820000000049685000000004254300000000455140000000000006650000
1321010101070800000002010000000010194000000000590500000000050570000000001146000000000000000000000000000000000000000000000000000000000000000000000000000000000000000000000000000000000000000000006600000
1321010101071100000002010000000004638000000000375800000000032230000000000634000000000000000000000000000000000000000000000000000000000000000000000000000000000000000000000000000000000000000000006600000
1321010101071200000002010000000047280000000003980200000000420860000000044496000000007085000000000419210000000027091000000002606200000000204320000000020192000000001729000000000184970000000000006650000
1321010101071300000002010000000000000000000000000000000000000000000000000000000000004386100000000586420000000009444000000000071900000000006930000000000783000000000068000000000007850000000000006603110
1321010101071400000002010000000000000000000000000000000000000000000000000000000000000000000000000000000000000000000000000000000000000000000000000000000000000000001142500000000138890000000000006603101
1321010101071500000002010000000000000000000000000000000000000000000000000000000000000000000000000000000000000000000000000000000000000000000000000000000000000000000000000000000030170000000000006610000
1321010101080000000002010000000184207000000024973900000003202270000000342970000000032251900000003345030000000341404000000031806300000003058870000000306473000000021378200000001703820000000000000000000
1321010101080100000002010000000000000000000000289700000000121860000000009589000000000443500000000116540000000008422000000000463300000000176210000000017345000000001180300000000039720000000000005520000
1321010101080200000002010000000020091000000004867000000000657380000000075869000000007202300000000606320000000072997000000006955700000000610280000000052790000000004034600000000122850000000000005500000
1321010101080300000002010000000000000000000000000000000000000000000000008211000000001362400000000080050000000003003000000000775500000000110000000000007980000000000556600000000024070000000000005530000
1321010101080400000002010000000102201000000014642700000001898150000000194299000000018225800000001602670000000152261000000013724400000001238420000000133545000000008485000000000864590000000000005690000
1321010101080500000002010000000002816000000000233300000000024170000000002570000000000241200000000023000000000002650000000000256000000000024710000000002788000000000230500000000015320000000000005690000
1321010101080600000002010000000059099000000004941200000000500710000000052432000000004776700000000916450000000102071000000009631400000000899250000000092025000000006891200000000637270000000000005690000
132101010199000000000201000000154402400000012741220000001346039000000138403000000012054430000019592489-000016399207000000200012400000018890270000002041189000000140134500000012374370000000000000000000
1321010101990100000002010000000061419000000005175900000000547440000000058766000000005536800000000537120000000062536000000005897700000000580050000000066455000000005705700000000547550000000000007590000
132101010199020000000201000000000000000000000000000000000000000000000000000000000000000000000018413473-000018214126000000015726500000001545150000000174152000000008802000000000064210000000000007010000
1321010101990300000002010000000000000000000000000000000000000000000000000000000000000000000000000276890000000126120000000012100000000001194370000000134192000000007858000000000324290000000000005000000
1321010101990400000002010000000109342000000010134000000000968120000000016139000000001523600000000145190000000016773000000001620000000000157120000000038605000000003514300000000416440000000000007590000
1321010101990500000002010000000000000000000000000000000000000000000000000000000000000000000000000000000000000138060000000016136300000001557420000000175791000000015264300000000975380000000000007063110
1321010101990600000002010000000000000000000000000000000000000000000000000000000000000000000000000000000000000082836000000009681800000000934450000000105474000000008622600000000476130000000000007063110
1321010101990700000002010000000000000000000000000000000000000000000000000000000000000000000000000000000000000138060000000016136300000001557420000000175791000000007919300000000000000000000000007063110
1321010101990800000002010000000000000000000000000000000000000000000000000000000000000000000000000000000000000060746000000007100000000000685270000000077348000000003484500000000000000000000000007063110
1321010101990900000002010000000000000000000000000000000000000000000000000000000000000000000000000000000000000039469000000000026800000000002580000000000288000000000024800000000001770000000000007000000
1321010101991000000002010000000000000000000000000000000000000000000000000000000000000000000000000000000000000000000000000013728800000001372070000000137651000000014776300000001384420000000000007000000
1321010101991100000002010000000000000000000000284200000000014750000000000225000000000217100000000003030000000002047000000000231300000000023860000000002442000000000205400000000009770000000000007010000
1321010101991300000002010000000000000000000000000000000000000000000000000000000000000000000000000000000000000000000000000001246200000000124550000000012495000000001341300000000125670000000000005000000
1321010101991500000002010000000013507000000001137100000000120240000000012712000000001184000000000112120000000001533000000000000000000000000000000000000000000000000000000000000000000000000000007010000
1321010101991700000002010000000000000000000000000000000000000000000000000000000000000000000000000000000000000000000000000000000000000000000000000000000000000000000000000000000145850000000000007063110
1321010101991800000002010000000000000000000000000000000000000000000000000000000000000000000000000000000000000000000000000000000000000000000000000000000000000000000000000000000364630000000000007063110
1321010101991900000002010000000000000000000000000000000000000000000000000000000000000000000000000000000000000000000000000000000000000000000000000000000000000000000000000000000729260000000000007063110
1321010101992000000002010000000226523000000017644000000001865670000000197246000000018372200000001711480000000131077000000010489600000001030610000000116160000000009946300000001064080000000000007010000
1321010101992100000002010000000156583000000013181700000001364690000000130986000000009692300000000670490000000038781000000003163400000000310810000000035031000000002999600000000320900000000000007010000
1321010101992200000002010000000009904000000000827400000000075720000000002368000000000219500000000021310000000002520000000000241800000000023860000000002681000000000229400000000024730000000000005000000
1321010101992500000002010000000018483000000000807400000000084130000000008966000000000846400000000080660000000009318000000000900000000000087290000000009806000000000848800000000100570000000000007003110
1321010101993000000002010000000000000000000000000000000000237790000000032922000000003069000000000414070000000064917000000006040200000000660020000000085238000000006513000000000208440000000000005710000
1321010101993100000002010000000040458000000003405900000000360130000000038075000000003546500000000344340000000040565000000003902600000000383430000000043216000000003700400000000395880000000000007010000
1321010101993200000002010000000015350000000001563300000000256120000000031342000000003075600000000366870000000038523000000004119400000000388900000000044603000000003999700000000424390000000000007510000
1321010101993300000002010000000005833000000001628000000000312270000000048699000000006161400000000718990000000097750000000010553600000000985760000000084683000000006397600000000355510000000000007040000
1321010101993700000002010000000137788000000009023300000000819960000000085069000000007917400000000752610000000086994000000007008500000000527590000000056503000000004864700000000576620000000000007063110
1321010101993900000002010000000059048000000004970700000000525610000000049625000000002170500000000210750000000024828000000002388500000000234670000000026450000000002264800000000242300000000000007010000
1321010101994000000002010000000041606000000003488600000000362380000000038558000000003640300000000346640000000040041000000003865400000000374730000000027502000000000038700000000004470000000000007150000
1321010101994100000002010000000015666000000001297200000000134450000000014289000000001342000000000127890000000014738000000001423800000000137410000000010173000000000014200000000001650000000000007160000
1321010101994400000002010000000000000000000000026400000000006330000000000689000000000066900000000006620000000000762000000000073700000000007110000000000802000000000069700000000003760000000000007080000
1321010101994500000002010000000190165000000015747800000001632040000000173467000000016290200000001552540000000178901000000017283400000001668140000000188286000000016349500000001887940000000000007063110
1321010101994600000002010000000069765000000005872900000000621000000000038859000000001597000000000155050000000018267000000001757300000000172660000000019460000000001666300000000178270000000000007010000
1321010101994700000002010000000372584000000031196400000003151550000000319700000000024212000000002294210000000249885000000024040000000002018020000000173799000000001402300000000000000000000000007490000
1321010101994800000002010000000000000000000000000000000000000000000000085328000000009835700000000937360000000108286000000003069500000000139050000000015621000000001272900000000043790000000000007020000
1321010101994900000002010000000000000000000000000000000000000000000000000000000000000027900000000003930000000000586000000000060000000000005900000000000491000000000038100000000001600000000000007520000
1321010101995000000002010000000000000000000000000000000000000000000000000000000000000000000000000000000000000000000000000000000000000000000000000000000000000000000000000000000974100000000000007063110
1321010102000000000002010000005069480000000487860000000052394260000004532034000000493791600000038683000000004692468000000443879800000045185160000005230552000000485025100000044521630000000000000000000
1321010102990000000002010000005069480000000487860000000052394260000004532034000000493791600000038683000000004692468000000443879800000045185160000005230552000000485025100000044521630000000000000000000
1321010102990100000002010000001318059000000149215800000017559700000001689350000000171346200000012023510000001094565000000082504700000008221740000000959284000000096101200000007362720000000000005000000
1321010102990200000002010000000873683000000092419300000007778410000000545470000000056746000000004050650000000298251000000027521500000005223750000001632785000000159101100000012723780000000000005000000
1321010102990500000002010000000151603000000017835300000002532900000000363916000000040067800000004693470000000633163000000067403000000007514580000000889049000000067746500000005063160000000000005000000
1321010102990700000002010000002341209000000195704900000020818710000001599082000000195988500000015239750000002364045000000232274200000021264520000001291636000000111401500000013188790000000000005000000
1321010102990800000002010000000010721000000000895500000000095170000000009955000000000923300000000089630000000010596000000001016600000000100350000000011275000000000964800000000103990000000000005000000
1321010102991000000002010000000231099000000020172100000002377080000000206014000000018673000000001707150000000193290000000023824800000001940880000000274941000000029290300000003966030000000000005010000
1321010102991200000002010000000000000000000000000000000000000000000000000000000000000000000000000000000000000000000000000000000000000000000000000000068374000000011579100000001147470000000000005020000
1321010102991400000002010000000017684000000001477200000000156990000000016421000000001394500000000041090000000000955000000000091600000000009050000000001016000000000086900000000009370000000000005000000
1321010102991600000002010000000028597000000002388800000000253870000000015686000000000642800000000062400000000007378000000000707800000000069870000000007850000000000671700000000072410000000000005000000
1321010102991700000002010000000012872000000001068200000000111220000000011855000000001119900000000106510000000012315000000001184800000000114830000000012818000000001105600000000131950000000000005000000
1321010102993200000002010000000083953000000006682900000000710210000000074285000000006889600000000668840000000077910000000007350800000000725590000000081524000000006976400000000751960000000000005000000
1321010115000000000050010000000000000000000000000000000000000000000000000000000000000000000000000000000000000000000000000000000000000000000000000000000000000000000000000000021959820000000000008000000
1321040000000000000002010000031603566000002479463800000296010590000017951457000003159166200000187101360000035563783000002840362900000218648560000029212379000001820004600000188349540000000000000000000
1321040100000000000002010000031603566000002479463800000296010590000017951457000003159166200000187101360000035563783000002840362900000218648560000029212379000001820004600000188349540000000000000000000
1321040101000000000050010000003069733000000203743200000025174080000002186619000000247136300000032664120000002776962000000151378000000000000000000000000000000000000000000000000000000000000000008000000
1321040102000000000050010000002155386000000186294300000020349940000001438524000000191177300000015662750000002357781000000195120100000021142940000002178202000000146463400000030123800000000000008000000
1321040103000000000050010000000000000000000000000000000000000000000000000000000000000000000000000000000000000000000000000000000000000000000000000000000000000000000000000000000000000000000000008000000
1321040104000000000050010000002972460000000190863500000019403210000000000000000000244634000000000000000000004868756000000270810300000011487910000000706186000000000000000000000000000000000000008000000
1321040105000000000050010000000000000000000000000000000000000000000000000000000000000000000000000000000000000000000000000000000000000000000000000000000000000000000000000000000000000000000000008000000
1321040106000000000050010000004693848000000411967300000054090650000000000000000000742814500000011294950000002967533000000173885400000012786000000002424361000000114982900000002517200000000000008000000
1321040107000000000050010000003323572000000209178600000041400140000000000000000000498792600000012286890000003676347000000308250600000023312040000003966901000000155436500000000297360000000000008000000
1321040108000000000050010000002939939000000236273200000024924070000002695049000000255943600000012837120000000912387000000080129100000007182940000000994403000000092947000000033712690000000000008000000
1321040109000000000050010000000235447000000019921600000002156150000000211031000000019313000000001902740000000245648000000023215900000002288410000000266867000000024259700000002498150000000000008020000
1321040110000000000050010000006301307000000526072800000056248640000005824184000000375304700000029705480000003556925000000434975600000057492770000006180241000000553855900000057155380000000000008000000
1321040111000000000050010000005911874000000495149300000052263710000005596050000000520563000000050607590000005882900000000572089300000055486940000006232283000000537747300000057863630000000000008000000
1321040112000000000050010000000000000000000000000000000000000000000000000000000000063487200000000000000000003245145000000212753000000000000000000001032052000000000000000000000000000000000000008000000
1321040113000000000050010000000000000000000000000000000000000000000000000000000000000000000000005826600000002263990000000170713100000007847640000001698530000000032465600000000000000000000000008000000
1321040114000000000050010000000000000000000000000000000000000000000000000000000000000000000000014313120000002809409000000247042500000019620970000003532353000000161846300000004181330000000000008000000
1600000000000000000002010000000370892000000037495000000005717000000000920500000000027750000000007858750000000830650000000059090000000006008000000000279550000000019397000000002035000000000000000000000
1610000000000000000002010000000370892000000037495000000005717000000000920500000000027750000000007858750000000830650000000059090000000006008000000000279550000000019397000000002035000000000000000000000
1611000000000000000002010000000370892000000037495000000005717000000000920500000000027750000000007858750000000830650000000059090000000006008000000000279550000000019397000000002035000000000000000000000
1611010000000000000002010000000370892000000037495000000005717000000000920500000000027750000000007858750000000830650000000059090000000006008000000000279550000000019397000000002035000000000000000000000
1611010100000000000002010000000211500000000037495000000005595000000000920500000000027750000000007858750000000829750000000058925000000006000000000000277750000000018725000000002035000000000000000000000
1611010101000000000002010000000211500000000037495000000005595000000000920500000000027750000000007858750000000829750000000058925000000006000000000000277750000000018725000000002035000000000000005010000
1611010200000000000002010000000000000000000000000000000000000000000000000000000000000000000000000000000000000000900000000000165000000000008000000000001800000000000672000000000000000000000000000000000
1611010201000000000002010000000000000000000000000000000000000000000000000000000000000000000000000000000000000000900000000000165000000000008000000000001800000000000672000000000000000000000000005010000
1611010300000000000002010000000150371000000000000000000000100000000000000000000000000000000000000000000000000000000000000000000000000000000000000000000000000000000000000000000000000000000000000000000
1611010301000000000002010000000150371000000000000000000000100000000000000000000000000000000000000000000000000000000000000000000000000000000000000000000000000000000000000000000000000000000000005010000
1611010400000000000002010000000009021000000000000000000000022000000000000000000000000000000000000000000000000000000000000000000000000000000000000000000000000000000000000000000000000000000000000000000
1611010401000000000002010000000009021000000000000000000000022000000000000000000000000000000000000000000000000000000000000000000000000000000000000000000000000000000000000000000000000000000000005010000
1700000000000000000002010000391398791000036872209500003108882200000371411815000032225682400003097204750000391673260000033961114700003645956940000373309003000036187626300005233109800000000000000000000
1710000000000000000002010000154028858000021464840600001382896730000142929125000018619505000001641193870000178595606000015025588200001649363780000155319526000016122001300002565310710000000000000000000
1711000000000000000002010000131318077000017940503400001127585870000116656317000013627935300001453699860000157608254000012343600300001397468210000134761073000013927278200002232865030000000000000000000
1711510000000000000002010000130828033000017789354600001109068680000116325087000013532941100001453212220000157467914000012318287500001282777260000107302317000013735186500002215666900000000000000000000
1711511000000000000002010000130828033000017789354600001109068680000116325087000013532941100001453212220000094178511000012318287500001006547630000107302317000013735186500001541731570000000000000000000
1711511100000000000002010000130828033000017789354600001109068680000116325087000013532941100001453212220000094178511000012318287500001006547630000107302317000013735186500001541731570000000000005000000
1711512000000000000002010000000000000000000000000000000000000000000000000000000000000000000000000000000000063289403000000000000000000276229630000000000000000000000000000000673935330000000000000000000
1711512100000000000002010000000000000000000000000000000000000000000000000000000000000000000000000000000000063289403000000000000000000276229630000000000000000000000000000000673935330000000000000000000
1711512101000000000002010000000000000000000000000000000000000000000000000000000000000000000000000000000000063289403000000000000000000000000000000000000000000000000000000000000000000000000000005000000
1711512102000000000002010000000000000000000000000000000000000000000000000000000000000000000000000000000000000000000000000000000000000276229630000000000000000000000000000000000000000000000000005000000
1711512103000000000002010000000000000000000000000000000000000000000000000000000000000000000000000000000000000000000000000000000000000000000000000000000000000000000000000000673935330000000000005000000
1711520000000000000002010000000490044000000151148800000018517190000000331230000000094994200000000487640000000140340000000025312800000114690950000027458756000000192091700000017198130000000000000000000
1711520100000000000002010000000490044000000151148800000018517190000000331230000000094994200000000487640000000140340000000025312800000114690950000027458756000000192091700000017198130000000000005000000
1712000000000000000002010000002541857000000250138300000024514020000002414492000000247550800000000000000000002465097000000408757500000037817220000002704592000000254142100000026206610000000000000000000
1712510000000000000002010000000000000000000009603800000000073160000000000000000000000770800000000000000000000000000000000000000000000000000000000000000000000000000000000000000257570000000000000000000
1712510100000000000002010000000000000000000009603800000000073160000000000000000000000770800000000000000000000000000000000000000000000000000000000000000000000000000000000000000257570000000000007080000
1712520000000000000002010000002541857000000240534500000024440860000002414492000000246780000000000000000000002465097000000408757500000037817220000002704592000000254142100000025949040000000000000000000
1712524000000000000002010000002541857000000240534500000024440860000002414492000000246780000000000000000000002465097000000408757500000037817220000002704592000000254142100000025949040000000000000000000
1712524100000000000002010000002541857000000240534500000024440860000002414492000000246780000000000000000000002465097000000408757500000037817220000002704592000000254142100000025949040000000000007040000
1713000000000000000002010000013325057000001283364200000165606590000015459762000002176915300000135652220000013184924000001282279400000134709240000012763540000001316009100000200019330000000000000000000
1713500000000000000002010000013325057000001283364200000165606590000015459762000002176915300000135652220000013184924000001282279400000134709240000012763540000001316009100000200019330000000000000000000
1713501000000000000002010000011836038000001198271000000134838600000011969060000001420409800000128194100000012226860000001158076000000115807600000011580760000001158077200000160991600000000000000000000
1713501100000000000002010000011836038000001198271000000134838600000011969060000001420409800000128194100000012226860000001158076000000115807600000011580760000001158077200000160991600000000000000000000
1713501101000000000002010000004518400000000451840000000045184000000004518400000000451840000000045184000000004518400000000451840000000045184000000004518400000000451840000000090368000000000000006040000
1713501102000000000002010000007317638000000746431000000089654600000007450660000000968569800000083010100000007708460000000706236000000070623600000007062360000000706237200000070623600000000000006000000
1713502000000000000002010000000073583000000007358300000000735830000000073583000000007358300000000735830000000073583000000007358300000000735830000000073583000000007358300000000735830000000000000000000
1713502100000000000002010000000073583000000007358300000000735830000000073583000000007358300000000735830000000073583000000007358300000000735830000000073583000000007358300000000735830000000000000000000
1713502101000000000002010000000073583000000007358300000000735830000000073583000000007358300000000735830000000073583000000007358300000000735830000000073583000000007358300000000735830000000000006000000
1713503000000000000002010000000695197000000044439700000012085770000000844397000000389017900000005443970000000444397000000064439700000011091970000001109197000000110919700000023451920000000000000000000
1713503100000000000002010000000695197000000044439700000012085770000000844397000000389017900000005443970000000444397000000064439700000011091970000001109197000000110919700000023451920000000000000000000
1713503101000000000002010000000695197000000044439700000012085770000000444397-00000112976800000002824000000000282400000000028240000000008472000000000847200000000084720000000016944000000000000006040000
1713503102000000000002010000000000000000000000000000000000000000000000400000000000010000000000001000000000000000000000000020000000000001000000000000100000000000010000000000001000000000000000006000000
1713503103000000000002010000000000000000000000000000000000000000000000000000000000491994700000001619970000000161997000000016199700000001619970000000161997000000016199700000005507920000000000006000000
1713504000000000000002010000000332952000000033295200000014073520000000332952000000266361700000000000000000000000000000000000000000000000000000000000000000000000007141400000007855540000000000000000000
1713504100000000000002010000000332952000000033295200000014073520000000332952000000266361700000000000000000000000000000000000000000000000000000000000000000000000007141400000007855540000000000000000000
1713504101000000000002010000000332952000000033295200000014073520000000332952000000266361700000000000000000000000000000000000000000000000000000000000000000000000007141400000007855540000000000006000000
1713505000000000000002010000000387287000000000000000000003872870000002239770000000093767600000001278320000000440084000000052405400000007073840000000000000000000032512500000006984440000000000000000000
1713505100000000000002010000000387287000000000000000000003872870000002239770000000093767600000001278320000000440084000000052405400000007073840000000000000000000032512500000006984440000000000000000000
1713505101000000000002010000000387287000000000000000000003872870000000387290000000093767600000001278320000000440084000000052405400000007073840000000000000000000032512500000006984440000000000006050000
1713505102000000000002010000000000000000000000000000000000000000000001852480000000000000000000000000000000000000000000000000000000000000000000000000000000000000000000000000000000000000000000006000000
1714000000000000000002010000006176301000001791064800000042013250000006720856000001266320200000041366130000004349765000000690167600000069493450000003092621000000323788500000033956600000000000000000000
1714500000000000000002010000006176301000000323030800000030667850000003074393000000316866600000029966330000003209785000000323617300000035294050000003092621000000323788500000033956600000000000000000000
1714500100000000000002010000006176301000000323030800000030667850000003074393000000316866600000029966330000003209785000000323617300000035294050000003092621000000323788500000033956600000000000005500000
1714520000000000000002010000000000000000000113454000000011345400000001120940000000230988000000011399800000001139980000000113998000000034199400000000000000000000000000000000000000000000000000000000000
1714520100000000000002010000000000000000000113454000000011345400000001120940000000230988000000011399800000001139980000000113998000000034199400000000000000000000000000000000000000000000000000005520000
1714530000000000000002010000000000000000000000000000000000000000000002525523000000000000000000000000000000000000000000000252552300000000000000000000000000000000000000000000000000000000000000000000000
1714530100000000000002010000000000000000000000000000000000000000000002525523000000000000000000000000000000000000000000000252552300000000000000000000000000000000000000000000000000000000000000005530000
1714990000000000000002010000000000000000001354580000000000000000000000000000000000718465600000000000000000000000000000000000000000000000000000000000000000000000000000000000000000000000000000000000000
1714990100000000000002010000000000000000001354580000000000000000000000000000000000718465600000000000000000000000000000000000000000000000000000000000000000000000000000000000000000000000000000000000000
1714990101000000000002010000000000000000001354580000000000000000000000000000000000000000000000000000000000000000000000000000000000000000000000000000000000000000000000000000000000000000000000005690000
1714990102000000000002010000000000000000000000000000000000000000000000000000000000718465600000000000000000000000000000000000000000000000000000000000000000000000000000000000000000000000000000005690000
1716000000000000000002010000000000000000000133013300000016501340000001010132000001234026800000003800000000000320000000000234026800000003200000000001330134000000234026800000025587480000000000000000000
1716500000000000000002010000000000000000000133013300000016501340000001010132000001234026800000003800000000000320000000000234026800000003200000000001330134000000234026800000025587480000000000000000000
1716500100000000000002010000000000000000000133013300000016501340000001010132000001234026800000003800000000000320000000000234026800000003200000000001330134000000234026800000025587480000000000000000000
1716500102000000000002010000000000000000000053013300000005301340000000530132000000106026800000000000000000000000000000000106026800000000000000000000530134000000000000000000011749450000000000006600000
1716500103000000000002010000000000000000000048000000000004800000000000480000000000096000000000000000000000000000000000000096000000000000000000000000480000000000000000000000010638030000000000006600000
1716500104000000000002010000000000000000000032000000000006400000000000000000000000032000000000003800000000000320000000000032000000000003200000000000320000000000032000000000003200000000000000006600000
1716500106000000000002010000000000000000000000000000000000000000000000000000000000000000000000000000000000000000000000000000000000000000000000000000000000000000000000000000000000000000000000006600000
1716500107000000000002010000000000000000000000000000000000000000000000000000000001000000000000000000000000000000000000000000000000000000000000000000000000000000000000000000000000000000000000006603110
1716500108000000000002010000000000000000000000000000000000000000000000000000000000000000000000000000000000000000000000000000000000000000000000000000000000000000202026800000000000000000000000006603101
1719000000000000000002010000000667566000000066756600000006675660000000667566000000066756600000006675660000000667566000000066756600000006675660000000667566000000066756600000046675660000000000000000000
1719570000000000000002010000000000000000000000000000000000000000000000000000000000000000000000000000000000000000000000000000000000000000000000000000000000000000000000000000040000000000000000000000000
1719570100000000000002010000000000000000000000000000000000000000000000000000000000000000000000000000000000000000000000000000000000000000000000000000000000000000000000000000040000000000000000000000000
1719570101000000000002010000000000000000000000000000000000000000000000000000000000000000000000000000000000000000000000000000000000000000000000000000000000000000000000000000040000000000000000007063110
1719580000000000000002010000000667566000000066756600000006675660000000667566000000066756600000006675660000000667566000000066756600000006675660000000667566000000066756600000006675660000000000000000000
1719580100000000000002010000000667566000000066756600000006675660000000667566000000066756600000006675660000000667566000000066756600000006675660000000667566000000066756600000006675660000000000005010000
1720000000000000000002010000162019385000010442180700001243470340000166485196000009654439500001007025540000155160347000013581382500001423533150000157287967000014733956400001878281410000000000000000000
1721000000000000000002010000161053395000009800980100001157934110000160423680000008422281200000946365560000148774887000012977233000001366053200000132911143000012347217300001824335360000000000000000000
1721500000000000000002010000121861677000008947003300001058544130000137542104000007196797200000850122880000140175868000012451660000001336753880000128679243000012125180900001499765140000000000000000000
1721500100000000000002010000121861677000008947003300001058544130000137542104000007196797200000850122880000140175868000012451660000001336753880000128679243000012125180900001499765140000000000005000000
1721510000000000000002010000037608619000000748712900000088072260000021089192000001133472900000079279850000006721065000000348460500000014486180000001765730000000073298600000307818100000000000000000000
1721510100000000000002010000037608619000000748712900000088072260000021089192000001133472900000079279850000006721065000000348460500000014486180000001765730000000073298600000307818100000000000005000000
1721520000000000000002010000001343973000000105263900000011317720000001548316000000092011100000016962830000001641153000000177112500000014813140000002072883000000148737800000016752120000000000000000000
1721520100000000000002010000001343973000000105263900000011317720000001548316000000092011100000016962830000001641153000000177112500000014813140000002072883000000148737800000016752120000000000005000000
1721530000000000000002010000000239126000000000000000000000000000000000244068000000000000000000000000000000000236801000000000000000000000000000000000393287000000000000000000000000000000000000000000000
1721530100000000000002010000000239126000000000000000000000000000000000244068000000000000000000000000000000000236801000000000000000000000000000000000393287000000000000000000000000000000000000007500000
1723000000000000000002010000000000000000000302175300000054633700000002953817000000451604900000029603170000002979485000000295124200000029577420000002951242000002047713800000030972100000000000000000000
1723500000000000000002010000000000000000000302175300000054633700000002953817000000451604900000029603170000002979485000000295124200000029577420000002951242000002047713800000030972100000000000000000000
1723500100000000000002010000000000000000000302175300000054633700000002953817000000451604900000029603170000002979485000000295124200000029577420000002951242000002047713800000030972100000000000000000000
1723500101000000000002010000000000000000000158789400000015878940000001587894000000156222600000015878940000001613562000000158789400000015878940000001587894000000158789400000016135620000000000006210000
1723500102000000000002010000000000000000000098179700000009834140000000980361000000098036100000009803610000000980361000000097778600000009777860000000977786000000097778600000009777860000000000006210000
1723500103000000000002010000000000000000000026000000000002600000000000253500000000025350000000002600000000000253500000000025350000000002600000000000253500000000024700000000003458000000000000006210000
1723500104000000000002010000000000000000000013206200000001320620000000132062000000013206200000001320620000000132062000000013206200000001320620000000132062000000013206200000001320620000000000006210000
1723500105000000000002010000000000000000000000000000000000000000000000000000000000000000000000000000000000000000000000000000000000000000000000000000000000000000046159800000000000000000000000006210000
1723500107000000000002010000000000000000000006000000000000000000000000000000000000000000000000000000000000000000000000000000000000000000000000000000000000000000000000000000000000000000000000006210000
1723500108000000000002010000000000000000000000000000000025000000000000000000000000000000000000000000000000000000000000000000000000000000000000000000000000000000000000000000000000000000000000006210000
1723500109000000000002010000000000000000000000000000000000000000000000000000000000158790000000000000000000000000000000000000000000000000000000000000000000000000000000000000000000000000000000006213201
1723500110000000000002010000000000000000000000000000000000000000000000000000000000000000000000000000000000000000000000000000000000000000000000000000000000000001704279800000000000000000000000006210000
1723500111000000000002010000000000000000000000000000000000000000000000000000000000000000000000000000000000000000000000000000000000000000000000000000000000000000002800000000000280000000000000006210000
1724000000000000000002010000000965990000000339025300000030902530000003107699000000780553400000031056810000003405975000000309025300000027902530000003090253000000339025300000000000000000000000000000000
1724510000000000000002010000000000000000000279025300000027902530000002790253000000278449500000027960110000002790253000000279025300000027902530000002790253000000279025300000000000000000000000000000000
1724510101000000000002010000000000000000000279025300000027902530000002790253000000278449500000027960110000002790253000000279025300000027902530000002790253000000279025300000000000000000000000000000000
1724510101010000000002010000000000000000000279025300000027902530000002790253000000278449500000027960110000002790253000000279025300000027902530000002790253000000279025300000000000000000000000005710000
1724990000000000000002010000000965990000000060000000000003000000000000317446000000502103900000003096700000000615722000000030000000000000000000000000300000000000060000000000000000000000000000000000000
1724990100000000000002010000000965990000000060000000000003000000000000317446000000502103900000003096700000000615722000000030000000000000000000000000300000000000060000000000000000000000000000000000000
1724990102000000000002010000000000000000000000000000000000000000000000000000000000000000000000000000000000000000000000000000000000000000000000000000000000000000000000000000000000000000000000006650000
1724990107000000000002010000000960254000000000000000000000000000000000000000000000000000000000000000000000000000000000000000000000000000000000000000000000000000000000000000000000000000000000006650000
1724990199000000000002010000000005736000000060000000000003000000000000317446000000502103900000003096700000000615722000000030000000000000000000000000300000000000060000000000000000000000000000000000000
1724990199010000000002010000000000000000000060000000000003000000000000300000000000000000000000003000000000000600000000000030000000000000000000000000300000000000060000000000000000000000000000007010000
1724990199020000000002010000000005736000000000000000000000000000000000017446000000002103900000000096700000000015722000000000000000000000000000000000000000000000000000000000000000000000000000007520000
1724990199070000000002010000000000000000000000000000000000000000000000000000000000500000000000000000000000000000000000000000000000000000000000000000000000000000000000000000000000000000000000006650000
1729000000000000000002010000000000000000000000000000000000000000000000000000000000000000000000000000000000000000000000000000000000000000000000000018335329000000000000000000022973950000000000000000000
1729510000000000000002010000000000000000000000000000000000000000000000000000000000000000000000000000000000000000000000000000000000000000000000000000000000000000000000000000022973950000000000000000000
1729510100000000000002010000000000000000000000000000000000000000000000000000000000000000000000000000000000000000000000000000000000000000000000000000000000000000000000000000022973950000000000000000000
1729510102000000000002010000000000000000000000000000000000000000000000000000000000000000000000000000000000000000000000000000000000000000000000000000000000000000000000000000022973950000000000006610000
1729530000000000000002010000000000000000000000000000000000000000000000000000000000000000000000000000000000000000000000000000000000000000000000000018335329000000000000000000000000000000000000000000000
1729530100000000000002010000000000000000000000000000000000000000000000000000000000000000000000000000000000000000000000000000000000000000000000000018335329000000000000000000000000000000000000000000000
1729530101000000000002010000000000000000000000000000000000000000000000000000000000000000000000000000000000000000000000000000000000000000000000000018335329000000000000000000000000000000000000005020000
1740000000000000000002010000001700000000000000000000000000000000000000000000000000000000000000000000000000000000000000000000000000000000000000000000000000000000000000000000020000000000000000000000000
1741000000000000000002010000001700000000000000000000000000000000000000000000000000000000000000000000000000000000000000000000000000000000000000000000000000000000000000000000020000000000000000000000000
1741990000000000000002010000001700000000000000000000000000000000000000000000000000000000000000000000000000000000000000000000000000000000000000000000000000000000000000000000020000000000000000000000000
1741990101000000000002010000001700000000000000000000000000000000000000000000000000000000000000000000000000000000000000000000000000000000000000000000000000000000000000000000020000000000000000007590000
1750000000000000000002010000073650548000004965188200000482515130000061997494000003951737900000448985340000057917307000005354144000000543485110000060701510000005331668600000751817680000000000000000000
1751000000000000000002010000073650548000004965188200000482515130000061997494000003951737900000448985340000057917307000005354144000000543485110000060701510000005331668600000751817680000000000000000000
1751500000000000000002010000073650548000004965188200000482515130000061997494000003951737900000448985340000057917307000005354144000000543485110000060701510000005331668600000751817680000000000000000000
1751500100000000000002010000073650548000004965188200000482515130000061997494000003951737900000448985340000057917307000005354144000000543485110000060701510000005331668600000751817680000000000000000000
1751500101000000000002010000073650548000004965188200000482515130000061997494000003951737900000448985340000057917307000005354144000000543485110000060701510000005331668600000751817680000000000005400000
1790000000000000000002010000000000000000000000000000000000000000000000000000000000000000000000000000000000000000000000000000000000000029574900000000000000000000000000000000017700000000000000000000000
1791000000000000000002010000000000000000000000000000000000000000000000000000000000000000000000000000000000000000000000000000000000000029574900000000000000000000000000000000017700000000000000000000000
1791990000000000000002010000000000000000000000000000000000000000000000000000000000000000000000000000000000000000000000000000000000000029574900000000000000000000000000000000017700000000000000000000000
1791990101000000000002010000000000000000000000000000000000000000000000000000000000000000000000000000000000000000000000000000000000000029574900000000000000000000000000000000017700000000000000007590000
1900000000000000000002010000001354504000000355783000000029103900000005715115000000542663400000059661010000005564756000000429499600000044683310000019299460000000502996100000112972960000000000000000000
1920000000000000000002010000001014304000000098772300000012242840000002965079000000254248900000030390350000002374980000000113925200000012710780000001132209000000142109800000046150050000000000000000000
1921000000000000000002010000000061913000000010355700000001044940000000090780000000007537400000000545490000000054549000000010871800000000545490000000055173000000005454900000031263230000000000000000000
1921010000000000000002010000000061913000000010355700000001044940000000090780000000007537400000000545490000000054549000000010871800000000545490000000055173000000005454900000001263230000000000000000000
1921010100000000000002010000000061913000000010355700000001044940000000090780000000007537400000000545490000000054549000000010871800000000545490000000055173000000005454900000001263230000000000005010000
1921990000000000000002010000000000000000000000000000000000000000000000000000000000000000000000000000000000000000000000000000000000000000000000000000000000000000000000000000030000000000000000000000000
1921990100000000000002010000000000000000000000000000000000000000000000000000000000000000000000000000000000000000000000000000000000000000000000000000000000000000000000000000030000000000000000005010000
1922000000000000000002010000000952391000000088416600000011197900000002874299000000246711500000029844860000002320431000000103053400000012165290000001077036000000136654900000014886820000000000000000000
1922010000000000000002010000000000000000000025923700000000000000000000000000000000000000000000000000000000000000000000000000000000000000000000000000000000000000000000000000000000000000000000000000000
1922011000000000000002010000000000000000000025923700000000000000000000000000000000000000000000000000000000000000000000000000000000000000000000000000000000000000000000000000000000000000000000000000000
1922011100000000000002010000000000000000000025923700000000000000000000000000000000000000000000000000000000000000000000000000000000000000000000000000000000000000000000000000000000000000000000005010000
1922020000000000000002010000000864307000000051923200000009340300000000986027000000100266200000011044860000001091291000000103053400000010565290000001077036000000105631600000011719120000000000000000000
1922020100000000000002010000000864307000000051923200000009340300000000986027000000100266200000011044860000001091291000000103053400000010565290000001077036000000105631600000011719120000000000000000000
1922020101000000000002010000000864307000000051923200000009340300000000986027000000100266200000011044860000001091291000000103053400000010565290000001077036000000105631600000011719120000000000005010000
1922060000000000000002010000000088084000000010569700000000000000000000000000000000000000000000000000000000000000000000000000000000000000000000000000000000000000000000000000000492760000000000000000000
1922063000000000000002010000000088084000000010569700000000000000000000000000000000000000000000000000000000000000000000000000000000000000000000000000000000000000000000000000000492760000000000000000000
1922063100000000000002010000000088084000000010569700000000000000000000000000000000000000000000000000000000000000000000000000000000000000000000000000000000000000000000000000000492760000000000005010000
1922990000000000000002010000000000000000000000000000000001857600000001888272000000146445300000018800000000001229140000000000000000000001600000000000000000000000031023300000002674940000000000000000000
1922990100000000000002010000000000000000000000000000000001857600000001888272000000146445300000018800000000001222000000000000000000000001600000000000000000000000029263300000002674940000000000000000000
1922990102000000000002010000000000000000000000000000000001857600000001888272000000146445300000018800000000001222000000000000000000000001600000000000000000000000029263300000002674940000000000005010000
1922990200000000000002010000000000000000000000000000000000000000000000000000000000000000000000000000000000000007140000000000000000000000000000000000000000000000001760000000000000000000000000000000000
1922990201000000000002010000000000000000000000000000000000000000000000000000000000000000000000000000000000000007140000000000000000000000000000000000000000000000001760000000000000000000000000005010000
1930000000000000000002010000000340200000000034020000000003402000000000340200000000034020000000003402000000000340200000000034020000000003402000000000340200000000034020000000003402000000000000000000000
1931000000000000000002010000000340200000000034020000000003402000000000340200000000034020000000003402000000000340200000000034020000000003402000000000340200000000034020000000003402000000000000000000000
1931050000000000000002010000000340200000000034020000000003402000000000340200000000034020000000003402000000000340200000000034020000000003402000000000340200000000034020000000003402000000000000000000000
1931050100000000000002010000000340200000000034020000000003402000000000340200000000034020000000003402000000000340200000000034020000000003402000000000340200000000034020000000003402000000000000005010000
1990000000000000000002010000000000000000000222990700000013459060000002409836000000254394500000025868660000002849576000000281554400000028570530000017827051000000326866300000063420910000000000000000000
1999000000000000000002010000000000000000000222990700000013459060000002409836000000254394500000025868660000002849576000000281554400000028570530000017827051000000326866300000063420910000000000000000000
1999030000000000000002010000000000000000000000000000000000010940000000000000000000000000000000000000000000000000000000000000000000000000000000000014674242000000000000000000000000000000000000000000000
1999030100000000000002010000000000000000000000000000000000010940000000000000000000000000000000000000000000000000000000000000000000000000000000000014674242000000000000000000000000000000000000000000000
1999030101000000000050010000000000000000000000000000000000010940000000000000000000000000000000000000000000000000000000000000000000000000000000000000104992000000000000000000000000000000000000008000000
1999030102000000000050010000000000000000000000000000000000000000000000000000000000000000000000000000000000000000000000000000000000000000000000000014569250000000000000000000000000000000000000008000000
1999990000000000000002010000000000000000000222990700000013448120000002409836000000254394500000025868660000002849576000000281554400000028570530000003152809000000326866300000063420910000000000000000000
1999992000000000000002010000000000000000000000000000000000000000000000000004000000000000600000000000040000000000004000000000001100000000000040000000000010000000000000300000000000240000000000000000000
1999992100000000000002010000000000000000000000000000000000000000000000000004000000000000600000000000040000000000004000000000001100000000000040000000000010000000000000300000000000240000000000000000000
1999992199000000000002010000000000000000000000000000000000000000000000000004000000000000600000000000040000000000004000000000001100000000000040000000000010000000000000300000000000240000000000000000000
1999992199010000000002010000000000000000000000000000000000000000000000000004000000000000600000000000040000000000004000000000001100000000000040000000000010000000000000300000000000240000000000005010000
1999993000000000000002010000000000000000000222990700000013448120000002409832000000254393900000025868620000002849572000000281553300000028570490000003152799000000326866000000063420670000000000000000000
1999993100000000000002010000000000000000000222990700000013448120000002409832000000254393900000025868620000002849572000000281553300000028570490000003152799000000326866000000063420670000000000000000000
1999993101000000000002010000000000000000000222990700000013448120000002409832000000254393900000025868620000002849572000000281553300000028570490000003152799000000326866000000063420670000000000005010000
2000000000000000000002010000000000000000000000000000000100000000000014081033000000000000000000000000000000118263196000000000000000000000000000000000000000000000000000000000789999000000000000000000000
2400000000000000000002010000000000000000000000000000000100000000000014081033000000000000000000000000000000118263196000000000000000000000000000000000000000000000000000000000789999000000000000000000000
2410000000000000000002010000000000000000000000000000000000000000000000000000000000000000000000000000000000099885600000000000000000000000000000000000000000000000000000000000789999000000000000000000000
2411000000000000000002010000000000000000000000000000000000000000000000000000000000000000000000000000000000000000000000000000000000000000000000000000000000000000000000000000250000000000000000000000000
2411510000000000000002010000000000000000000000000000000000000000000000000000000000000000000000000000000000000000000000000000000000000000000000000000000000000000000000000000250000000000000000000000000
2411511100000000000002010000000000000000000000000000000000000000000000000000000000000000000000000000000000000000000000000000000000000000000000000000000000000000000000000000250000000000000000000000000
2411511101000000000002010000000000000000000000000000000000000000000000000000000000000000000000000000000000000000000000000000000000000000000000000000000000000000000000000000250000000000000000006013110
2414000000000000000002010000000000000000000000000000000000000000000000000000000000000000000000000000000000099885600000000000000000000000000000000000000000000000000000000000000000000000000000000000000
2414990000000000000002010000000000000000000000000000000000000000000000000000000000000000000000000000000000099885600000000000000000000000000000000000000000000000000000000000000000000000000000000000000
2414990100000000000002010000000000000000000000000000000000000000000000000000000000000000000000000000000000099885600000000000000000000000000000000000000000000000000000000000000000000000000000000000000
2414990101000000000002010000000000000000000000000000000000000000000000000000000000000000000000000000000000023885600000000000000000000000000000000000000000000000000000000000000000000000000000007000000
2414990102000000000002010000000000000000000000000000000000000000000000000000000000000000000000000000000000000000000000000000000000000000000000000000000000000000000000000000000000000000000000007000000
2414990103000000000002010000000000000000000000000000000000000000000000000000000000000000000000000000000000000000000000000000000000000000000000000000000000000000000000000000000000000000000000007000000
2414990104000000000002010000000000000000000000000000000000000000000000000000000000000000000000000000000000025000000000000000000000000000000000000000000000000000000000000000000000000000000000007063110
2414990105000000000002010000000000000000000000000000000000000000000000000000000000000000000000000000000000015000000000000000000000000000000000000000000000000000000000000000000000000000000000007063110
2414990106000000000002010000000000000000000000000000000000000000000000000000000000000000000000000000000000025000000000000000000000000000000000000000000000000000000000000000000000000000000000007063110
2414990107000000000002010000000000000000000000000000000000000000000000000000000000000000000000000000000000011000000000000000000000000000000000000000000000000000000000000000000000000000000000007063110
2419000000000000000002010000000000000000000000000000000000000000000000000000000000000000000000000000000000000000000000000000000000000000000000000000000000000000000000000000539999000000000000000000000
2419510000000000000002010000000000000000000000000000000000000000000000000000000000000000000000000000000000000000000000000000000000000000000000000000000000000000000000000000539999000000000000000000000
2419510100000000000002010000000000000000000000000000000000000000000000000000000000000000000000000000000000000000000000000000000000000000000000000000000000000000000000000000539999000000000000000000000
2419510102000000000002010000000000000000000000000000000000000000000000000000000000000000000000000000000000000000000000000000000000000000000000000000000000000000000000000000100000000000000000007063110
2419510103000000000002010000000000000000000000000000000000000000000000000000000000000000000000000000000000000000000000000000000000000000000000000000000000000000000000000000199999000000000000007063110
2419510104000000000002010000000000000000000000000000000000000000000000000000000000000000000000000000000000000000000000000000000000000000000000000000000000000000000000000000240000000000000000007063110
2420000000000000000002010000000000000000000000000000000100000000000000000000000000000000000000000000000000018377596000000000000000000000000000000000000000000000000000000000000000000000000000000000000
2421000000000000000002010000000000000000000000000000000100000000000000000000000000000000000000000000000000000000000000000000000000000000000000000000000000000000000000000000000000000000000000000000000
2421500000000000000002010000000000000000000000000000000100000000000000000000000000000000000000000000000000000000000000000000000000000000000000000000000000000000000000000000000000000000000000000000000
2421500100000000000002010000000000000000000000000000000100000000000000000000000000000000000000000000000000000000000000000000000000000000000000000000000000000000000000000000000000000000000000000000000
2421500102000000000002010000000000000000000000000000000100000000000000000000000000000000000000000000000000000000000000000000000000000000000000000000000000000000000000000000000000000000000000006213210
2422000000000000000002010000000000000000000000000000000000000000000000000000000000000000000000000000000000018377596000000000000000000000000000000000000000000000000000000000000000000000000000000000000
2422540000000000000002010000000000000000000000000000000000000000000000000000000000000000000000000000000000018377596000000000000000000000000000000000000000000000000000000000000000000000000000000000000
2422540100000000000002010000000000000000000000000000000000000000000000000000000000000000000000000000000000018377596000000000000000000000000000000000000000000000000000000000000000000000000000000000000
2422540102000000000002010000000000000000000000000000000000000000000000000000000000000000000000000000000000018377596000000000000000000000000000000000000000000000000000000000000000000000000000007010000
2430000000000000000002010000000000000000000000000000000000000000000014081033000000000000000000000000000000000000000000000000000000000000000000000000000000000000000000000000000000000000000000000000000
2432000000000000000002010000000000000000000000000000000000000000000014081033000000000000000000000000000000000000000000000000000000000000000000000000000000000000000000000000000000000000000000000000000
2432990000000000000002010000000000000000000000000000000000000000000014081033000000000000000000000000000000000000000000000000000000000000000000000000000000000000000000000000000000000000000000000000000
2432990100000000000002010000000000000000000000000000000000000000000014081033000000000000000000000000000000000000000000000000000000000000000000000000000000000000000000000000000000000000000000000000000
2432990101000000000002010000000000000000000000000000000000000000000014081033000000000000000000000000000000000000000000000000000000000000000000000000000000000000000000000000000000000000000000007020000
7000000000000000000002010000018447804000002980113800000307750500000033971465000003488657300000433294920000035898128000003633051500000361652890000036188870000003633698700000917932360000000000000000000
7200000000000000000002010000018447804000002980113800000307750500000033971465000003488657300000433294920000035898128000003633051500000361652890000036188870000003633698700000917932360000000000000000000
7210000000000000000002010000018447804000002980113800000307750500000033971465000003488657300000433294920000035898128000003633051500000361652890000036188870000003633698700000917932360000000000000000000
7215000000000000000002010000018447804000002980113800000307750500000033971465000003488657300000433294920000035898128000003633051500000361652890000036188870000003633698700000917932360000000000000000000
7215020000000000000002010000000000000000002912851200000301024210000033298843000003421394900000426100570000035225506000003565789300000354926680000035516249000003566436300000858870970000000000000000000
7215021000000000000002010000000000000000002912851200000301024210000033298843000003421394900000426100570000035225506000003565789300000354926680000035516249000003566436300000858870970000000000000000000
7215021100000000000002010000000000000000002912851200000301024210000033298843000003421394900000426100570000035225506000003565789300000354926680000035516249000003566436300000858870970000000000000000000
7215021101000000000050010000000000000000001019497800000105358430000011592690000001197487800000149111760000012328923000001248025900000110027250000011010035000001105595200000326586930000000000008000000
7215021102000000000050010000000000000000001747710800000180614570000020041211000002052837400000255660380000021135308000002139474000000212956030000021309752000002139861900000437468500000000000008000000
7215021103000000000050010000000000000000000145642600000015051210000001664942000000171069700000021328430000001761275000000178289400000031943400000003196462000000320979200000094815540000000000008020000
7215500000000000000002010000000000000000000067262600000006726290000000672622000000067262400000007194350000000672622000000067262200000006726210000000672621000000067262400000059061390000000000000000000
7215501000000000000002010000000000000000000054704900000005470520000000547045000000054704700000005938580000000547045000000054704500000005470440000000547044000000054704700000047195250000000000000000000
7215501100000000000050010000000000000000000021882000000002188230000000218823000000021882300000002375470000000218822000000021882200000002188200000000218820000000021882000000023156190000000000008000000
7215501200000000000050010000000000000000000032822900000003282290000000328222000000032822400000003563110000000328223000000032822300000003282240000000328224000000032822700000024039060000000000008000000
7215502000000000000002010000000000000000000012557700000001255770000000125577000000012557700000001255770000000125577000000012557700000001255770000000125577000000012557700000011866140000000000000000000
7215502100000000000050010000000000000000000005023100000000502310000000050231000000005023100000000502310000000050231000000005023100000000502310000000050231000000005023100000005822130000000000008000000
7215502200000000000050010000000000000000000007534600000000753460000000075346000000007534600000000753460000000075346000000007534600000000753460000000075346000000007534600000006044010000000000008000000
7215510000000000000002010000018447804000000000000000000000000000000000000000000000000000000000000000000000000000000000000000000000000000000000000000000000000000000000000000000000000000000000000000000
7215511000000000000002010000018447804000000000000000000000000000000000000000000000000000000000000000000000000000000000000000000000000000000000000000000000000000000000000000000000000000000000000000000
7215511100000000000050010000018447804000000000000000000000000000000000000000000000000000000000000000000000000000000000000000000000000000000000000000000000000000000000000000000000000000000000008000000
7600000000000000000002010000000000000000000000000000000000000000000000000000000000000000000000000000000000000000000000000000000000000000000000000000000000000000000000000000000000000000000000000000000
7610000000000000000002010000000000000000000000000000000000000000000000000000000000000000000000000000000000000000000000000000000000000000000000000000000000000000000000000000000000000000000000000000000
7611000000000000000002010000000000000000000000000000000000000000000000000000000000000000000000000000000000000000000000000000000000000000000000000000000000000000000000000000000000000000000000000000000
7611500000000000000002010000000000000000000000000000000000000000000000000000000000000000000000000000000000000000000000000000000000000000000000000000000000000000000000000000000000000000000000000000000
7611509000000000000002010000000000000000000000000000000000000000000000000000000000000000000000000000000000000000000000000000000000000000000000000000000000000000000000000000000000000000000000000000000
7611509100000000000050010000000000000000000000000000000000000000000000000000000000000000000000000000000000000000000000000000000000000000000000000000000000000000000000000000000000000000000000008020000
900000000000000000000201-000058426466-000056196417-000047083041-000062790332-000052146238-000055753379-000048645583-000050650464-000050092329-000057331776-000058148882-0000760562120000000000000000000
910000000000000000000201-000058426466-000056196417-000047083041-000062790332-000052146238-000055753379-000048645583-000050650464-000050092329-000057331776-000058148882-0000751290570000000000000000000
9110000000000000000002010000000000000-000000713452-000001372646-000002168516-000008045809-0000057074250000000000000-0000000088000000000000000-0000002089260000000000000-0000003024000000000000000000000
9111000000000000000002010000000000000-000000490476-000000825968-000001370237-000005532943-00000570742500000000000000000000000000000000000000000000000000000000000000000-0000003024000000000000000000000
9111200000000000000002010000000000000-000000465310-000000825968-000001370237-000005532943-00000570742500000000000000000000000000000000000000000000000000000000000000000-0000003024000000000000000000000
9111250000000000000002010000000000000-000000465310-000000825968-000001370237-000003780943-0000057074250000000000000000000000000000000000000000000000000000000000000000000000000000000000000000000000000
9111250010000000000002010000000000000-000000465310-000000825968-000001370237-000003780943-0000057074250000000000000000000000000000000000000000000000000000000000000000000000000000001090000000005000000
9111250040000000000002010000000000000000000000000000000000000000000000000000000000000000000000000000000000000000000000000000000000000000000000000000000000000000000000000000000000001030000000005000000
9111253000000000000002010000000000000000000000000000000000000000000000000000-000001752000000000000000000000000000000000000000000000000000000000000000000000000000000000-0000003024000000000000000000000
9111253010000000000002010000000000000000000000000000000000000000000000000000-000001752000000000000000000000000000000000000000000000000000000000000000000000000000000000-0000003024001090000000005000000
9111400000000000000002010000000000000-00000002516600000000000000000000000000000000000000000000000000000000000000000000000000000000000000000000000000000000000000000000000000000000000000000000000000000
9111451000000000000002010000000000000-00000002516600000000000000000000000000000000000000000000000000000000000000000000000000000000000000000000000000000000000000000000000000000000000000000000000000000
9111451100000000000002010000000000000-00000002516600000000000000000000000000000000000000000000000000000000000000000000000000000000000000000000000000000000000000000000000000000000000000000000000000000
9111451110000000000002010000000000000-00000002516600000000000000000000000000000000000000000000000000000000000000000000000000000000000000000000000000000000000000000000000000000000001090000000005000000
9112000000000000000002010000000000000-000000222976-000000546678-000000798279-00000251286600000000000000000000000000-0000000088000000000000000-000000208926000000000000000000000000000000000000000000000
911210101010000000000201000000000000000000000000000000000000000000000000000000000000000000000000000000000000000000000000000000000000000000000-000000208926000000000000000000000000001020000000005010000
9112200000000000000002010000000000000-000000222976-000000546678-000000798279-00000251286600000000000000000000000000-00000000880000000000000000000000000000000000000000000000000000000000000000000000000
9112201000000000000002010000000000000-000000222976-000000546678-000000798279-00000251286600000000000000000000000000000000000000000000000000000000000000000000000000000000000000000000000000000000000000
9112201010000000000002010000000000000-000000222976-000000546678-000000798279-00000251286600000000000000000000000000000000000000000000000000000000000000000000000000000000000000000000000000000000000000
9112201010100000000002010000000000000-000000222976-000000546678-000000798279-00000251286600000000000000000000000000000000000000000000000000000000000000000000000000000000000000000001030000000005010000
9112253000000000000002010000000000000000000000000000000000000000000000000000000000000000000000000000000000000000000-00000000880000000000000000000000000000000000000000000000000000000000000000000000000
9112253010000000000002010000000000000000000000000000000000000000000000000000000000000000000000000000000000000000000-00000000880000000000000000000000000000000000000000000000000000001020000000005010000
913000000000000000000201000000000000000000000000000000000000000-0000052546350000000000000-000002044649-0000000741990000000000000-0000003464960000000000000-000005599894-0000071613590000000000000000000
913200000000000000000201000000000000000000000000000000000000000-0000052546350000000000000-000002044649-0000000741990000000000000-0000003464960000000000000-000005599894-0000071613590000000000000000000
913210000000000000000201000000000000000000000000000000000000000-0000052546350000000000000-000002044649-0000000741990000000000000-0000003464960000000000000-000005599894-0000071613590000000000000000000
913210100000000000000201000000000000000000000000000000000000000000000000000000000000000000000000000000-000000074199000000000000000000000000000000000000000-000002670853-0000000510000000000000000000000
913210101000000000000201000000000000000000000000000000000000000000000000000000000000000000000000000000-000000074199000000000000000000000000000000000000000-000002670853-0000000510000000000000000000000
913210101010000000000201000000000000000000000000000000000000000000000000000000000000000000000000000000-000000074199000000000000000000000000000000000000000-000002670853-0000000510000000000000000000000
913210101019900000000201000000000000000000000000000000000000000000000000000000000000000000000000000000-000000074199000000000000000000000000000000000000000-000002670853-0000000510000000000000000000000
913210101019915000000201000000000000000000000000000000000000000000000000000000000000000000000000000000-000000074199000000000000000000000000000000000000000000000000000000000000000001090000000007010000
91321010101993000000020100000000000000000000000000000000000000000000000000000000000000000000000000000000000000000000000000000000000000000000000000000000000000000000000-0000000510001090000000005710000
9132101010199470000002010000000000000000000000000000000000000000000000000000000000000000000000000000000000000000000000000000000000000000000000000000000000-00000267085300000000000001090000000007490000
913210400000000000000201000000000000000000000000000000000000000-0000052546350000000000000-00000204464900000000000000000000000000-0000003464960000000000000-000002929041-0000071103590000000000000000000
913210401000000000000201000000000000000000000000000000000000000-0000052546350000000000000-00000204464900000000000000000000000000-0000003464960000000000000-000002929041-0000071103590000000000000000000
913210401040000000005001000000000000000000000000000000000000000-0000023951540000000000000-0000014097770000000000000000000000000000000000000000000000000000-000002738591-0000019415181090000000008000000
913210401060000000005001000000000000000000000000000000000000000-000001624168000000000000000000000000000000000000000000000000000000000000000000000000000000000000000000000000000000001090000000008000000
913210401070000000005001000000000000000000000000000000000000000-000001235313000000000000000000000000000000000000000000000000000000000000000000000000000000000000000000000000000000001090000000008000000
91321040112000000000500100000000000000000000000000000000000000000000000000000000000000000-00000063487200000000000000000000000000-0000003464960000000000000-000000190450-0000039949201090000000008000000
91321040113000000000500100000000000000000000000000000000000000000000000000000000000000000000000000000000000000000000000000000000000000000000000000000000000000000000000-0000011739211090000000008000000
917000000000000000000201-000058426466-000055482965-000045710395-000055367181-000044100429-000048001305-000048571384-000050641664-000049745833-000057122850-000052548988-0000676652980000000000000000000
917100000000000000000201-000026263611-000035881004-000022551712-000023331259-000027255866-000029073993-000018863764-000024687195-000022424766-000026952210-000027854551-0000311785890000000000000000000
