87612826000190010120253108202510092025PREFEITURA MUNICIPAL INDEPENDENCIA                                              
10000000000000000000020100004106223680000444972629000038165086500005017504570000528086916000045619652600005059089670000416879152000000000000000000000000000000000000000000000000000000088305423000081629433000085913333000084107083000082887023000104916041000000000000000000000000
11000000000000000000020100000286947150000030460450000003231222100000382656190000079940037000006345241300000352429390000034702002000000000000000000000000000000000000000000000000000000006567111600007586301600011630831600006930241600007036831600008088682000000000000000000000000
11100000000000000000020100000276040800000027928681000002927109600000335660300000066279604000005991967100000341683160000032651520000000000000000000000000000000000000000000000000000000005907112600006926302600010970832600006270242600006376832600007428677000000000000000000000000
11120000000000000000020100000050824300000006360514000000767035900000118999290000043444194000003854230300000108876070000009675111000000000000000000000000000000000000000000000000000000002240746400003293206400007362866400002423996400002285726400002333458000000000000000000000000
11125000000000000000020100000008881300000004344514000000480049900000071387620000015906144000002777097500000015716330000001570611000000000000000000000000000000000000000000000000000000000157413200001209873200005279533200000340663200000202393200000250124000000000000000000000000
11125001000000000000020100000005915510000005213511000000459911200000076533060000018676257000003139391600000006631350000000849785000000000000000000000000000000000000000000000000000000000049080000001101540000005171200000000232330000000094060000000141790000000000000150000000000
111250010000000000000201000000000000000000000000000000000000000000000000000000000000000000000000000000-00000008865200000000000000000000000000000000000000000000000000000000000000000-00000000000-00000000000-00000000000-00000000000-00000000000-0000000000010200000000150000000000
111250010000000000000201-000000118310-000001630658-000000931537-000001543775-000003765031-000005998186000000000000000000000000000000000000000000000000000000000000000000000000000000-00001766666-00001766666-00001766666-00001766666-00001766666-0000176667010300000000150000000000
11125002000000000000020100000000000000000000000000000000000000000000000000000000000000000000000008109900000000456620000000058489000000000000000000000000000000000000000000000000000000000005000000000005000000000005000000000005000000000005000000000005000000000000000150000000000
11125003000000000000020100000003095440000000633273000000105800500000009302280000000818469000000195498600000007665550000000519231000000000000000000000000000000000000000000000000000000000208333200000208333200000208333200000208333200000208333200000208334000000000000150000000000
1112500300000000000002010000000000000-0000000241890000000000000000000000000000000000000000000000000000000000000000000000000000000000000000000000000000000000000000000000000000000000-00000000000-00000000000-00000000000-00000000000-00000000000-0000000000010300000000150000000000
11125004000000000000020100000001053450000000231813000000033365000000003117410000000316106000000074401600000002504250000000171465000000000000000000000000000000000000000000000000000000000071666600000071666600000071666600000071666600000071666600000071667000000000000150000000000
1112500400000000000002010000000000000-000000079236-000000258731-000000212738-000000139657-000000404856-000000065492-0000000283590000000000000000000000000000000000000000000000000000-00000000000-00000000000-00000000000-00000000000-00000000000-0000000000010300000000150000000000
11125300000000000000020100000041943000000002016000000000286986000000047611670000027538050000001077132800000093159740000008104500000000000000000000000000000000000000000000000000000000002083333200002083333200002083333200002083333200002083333200002083334000000000000000000000000
11125301000000000000020100000041943000000002016000000000286986000000047611670000027538050000001077132800000093159740000008104500000000000000000000000000000000000000000000000000000000002083333200002083333200002083333200002083333200002083333200002083334000000000000150000000000
11130000000000000000020100000131298020000012320371000001337394800000136348110000013049781000001303157700000135746530000013354047000000000000000000000000000000000000000000000000000000002334036400002233686400002205236400002288876400002236556400003371608000000000000000000000000
11130300000000000000020100000131298020000012320371000001337394800000136348110000013049781000001303157700000135746530000013354047000000000000000000000000000000000000000000000000000000002334036400002233686400002205236400002288876400002236556400003371608000000000000000000000000
11130310000000000000020100000129400800000011414803000001235357500000125066160000012355439000001216998400000128933880000012267550000000000000000000000000000000000000000000000000000000002179036600002078686600002050236600002133876600002081556600003216607000000000000000000000000
11130311000000000000020100000129400800000011414803000001235357500000125066160000012355439000001216998400000128933880000012267550000000000000000000000000000000000000000000000000000000002179036600002078686600002050236600002133876600002081556600003216607000000000000000000000000
11130311010000000000020100000100644420000008453944000000931791100000097155130000009577213000000948158000000101952860000009569808000000000000000000000000000000000000000000000000000000001533970000001433620000001405170000001488810000001436490000002251940000000000000150000000000
11130311020000000000020100000003608910000000445198000000039290900000004272490000000427155000000045283600000004304670000000432491000000000000000000000000000000000000000000000000000000000093800000000093800000000093800000000093800000000093800000000141000000000000000150000000000
11130311030000000000020100000025147470000002515661000000247416400000023638540000002351071000000223556800000022676350000002265251000000000000000000000000000000000000000000000000000000000544600000000544600000000544600000000544600000000544600000000817000000000000000150000000000
11130311040000000000020100000000000000000000000000000000016859100000000000000000000000000000000000000000000000000000000000000000000000000000000000000000000000000000000000000000000000000006666600000006666600000006666600000006666600000006666600000006667000000000000150000000000
11130340000000000000020100000001897220000000905568000000102037300000011281950000000694342000000086159300000006812650000001086497000000000000000000000000000000000000000000000000000000000154999800000154999800000154999800000154999800000154999800000155001000000000000000000000000
11130341000000000000020100000001897220000000905568000000102037300000011281950000000694342000000086159300000006812650000001086497000000000000000000000000000000000000000000000000000000000154999800000154999800000154999800000154999800000154999800000155001000000000000000000000000
11130341010000000000020100000001848330000000863993000000098143200000010296740000000644989000000082276600000006428570000001020055000000000000000000000000000000000000000000000000000000000151666600000151666600000151666600000151666600000151666600000151667000000000000150000000000
11130341020000000000020100000000000000000000011704000000000480500000000048050000000010042000000000069300000000054900000000005959000000000000000000000000000000000000000000000000000000000001666600000001666600000001666600000001666600000001666600000001667000000000000150000000000
11130341030000000000020100000000000000000000004363000000000436300000000583630000000004363000000000436300000000043630000000004427000000000000000000000000000000000000000000000000000000000001666600000001666600000001666600000001666600000001666600000001667000000000000150000000000
11130341040000000000020100000000048890000000025508000000002977300000000353530000000034948000000003377100000000285550000000056056000000000000000000000000000000000000000000000000000000000000000000000000000000000000000000000000000000000000000000000000000000000000000150000000000
11140000000000000000020100000093918480000009247796000000822678900000080312900000009785629000000834579100000097060560000009622362000000000000000000000000000000000000000000000000000000001332329800001399409800001402729800001557369800001854549800001723611000000000000000000000000
11145100000000000000020100000093918480000009247796000000822678900000080312900000009785629000000834579100000097060560000009622362000000000000000000000000000000000000000000000000000000001332329800001399409800001402729800001557369800001854549800001723611000000000000000000000000
11145110000000000000020100000093918480000009247796000000822678900000080312900000009785629000000834579100000097060560000009622362000000000000000000000000000000000000000000000000000000001332329800001399409800001402729800001557369800001854549800001723611000000000000000000000000
11145111000000000000020100000093396530000009521700000000818699400000079536420000009680839000000830277200000096476290000009409035000000000000000000000000000000000000000000000000000000001317330000001384410000001387730000001542370000001839550000001708610000000000000150000000000
1114511100000000000002010000000000000-0000002933340000000000000000000000000000000000000000000000000000000000000000000000000000000000000000000000000000000000000000000000000000000000-00000000000-00000000000-00000000000-00000000000-00000000000-0000000000010300000000150000000000
11145112000000000000020100000000521950000000019430000000003979500000000549990000000092325000000003017900000000584270000000172525000000000000000000000000000000000000000000000000000000000008333200000008333200000008333200000008333200000008333200000008334000000000000150000000000
11145113000000000000020100000000000000000000000000000000000000000000000264160000000005003000000000515400000000000000000000033116000000000000000000000000000000000000000000000000000000000005000000000005000000000005000000000005000000000005000000000005000000000000000150000000000
111451130000000000000201000000000000000000000000000000000000000-00000000376700000000000000000000000000000000000000000000000000000000000000000000000000000000000000000000000000000000-00000000000-00000000000-00000000000-00000000000-00000000000-0000000000010300000000150000000000
11145114000000000000020100000000000000000000000000000000000000000000000000000000000007462000000000768600000000000000000000007686000000000000000000000000000000000000000000000000000000000001666600000001666600000001666600000001666600000001666600000001667000000000000150000000000
11200000000000000000020100000008691830000002334582000000282294200000043173970000013464470000000316506300000007353680000001245449000000000000000000000000000000000000000000000000000000000659999000000659999000000659999000000659999000000659999000000660005000000000000000000000000
11210000000000000000020100000006033580000000500543000000082873600000006778520000000796167000000101235500000002432670000000735671000000000000000000000000000000000000000000000000000000000183332600000183332600000183332600000183332600000183332600000183337000000000000000000000000
11210100000000000000020100000005429050000000367450000000073277500000006169220000000651463000000089875800000001907300000000650315000000000000000000000000000000000000000000000000000000000168332600000168332600000168332600000168332600000168332600000168337000000000000000000000000
11210101000000000000020100000004225750000000367450000000073277500000004719500000000634700000000065551000000001677500000000642785000000000000000000000000000000000000000000000000000000000156666200000156666200000156666200000156666200000156666200000156669000000000000000000000000
11210101010000000000020100000000065000000000045000000000024800000000000225000000000173500000000019800000000000415000000000121500000000000000000000000000000000000000000000000000000000000081666600000081666600000081666600000081666600000081666600000081667000000000000150100000000
112101010100000000000201000000000000000000000000000000000000000000000000000000000000000000000000000000-00000002385000000000000000000000000000000000000000000000000000000000000000000-00000000000-00000000000-00000000000-00000000000-00000000000-0000000000010200000000150100000000
1121010101000000000002010000000000000-0000000080000000000000000000000000000000000000000000000000000000000000000000000000000000000000000000000000000000000000000000000000000000000000-00000000000-00000000000-00000000000-00000000000-00000000000-0000000000010300000000150100000000
11210101020000000000020100000000000000000000000000000000000000000000000767000000000000000000000000750000000000075000000000000000000000000000000000000000000000000000000000000000000000000001666600000001666600000001666600000001666600000001666600000001667000000000000150100000000
11210101030000000000020100000001513000000000086500000000004580000000001438500000000081750000000004406000000000422250000000088985000000000000000000000000000000000000000000000000000000000015000000000015000000000015000000000015000000000015000000000015000000000000000150100000000
1121010103000000000002010000000000000-0000000209000000000000000000000000000000000000000000000000000000000000000000000000000000000000000000000000000000000000000000000000000000000000-00000000000-00000000000-00000000000-00000000000-00000000000-0000000000010300000000150100000000
11210101040000000000020100000001130000000000000000000000004800000000000890000000000112000000000023150000000000000000000000322000000000000000000000000000000000000000000000000000000000000013333200000013333200000013333200000013333200000013333200000013334000000000000175900000000
11210101050000000000020100000001115750000000282850000000019467500000000927000000000089750000000007465000000000781750000000073200000000000000000000000000000000000000000000000000000000000026666600000026666600000026666600000026666600000026666600000026667000000000000150100000000
1121010105000000000002010000000000000-0000000462000000000000000000000000000000000000000000000000000000000000000000000000000000000000000000000000000000000000000000000000000000000000-00000000000-00000000000-00000000000-00000000000-00000000000-0000000000010300000000150100000000
11210101060000000000020100000000402000000000035600000000019630000000000472000000000177700000000009980000000000222000000000037100000000000000000000000000000000000000000000000000000000000018333200000018333200000018333200000018333200000018333200000018334000000000000150100000000
1121010106000000000002010000000000000-0000000074000000000000000000000000000000000000000000000000000000000000000000000000000000000000000000000000000000000000000000000000000000000000-00000000000-00000000000-00000000000-00000000000-00000000000-0000000000010300000000150100000000
11210102000000000000020100000000015300000000000000000000000000000000000036210000000000000000000000036000000000000000000000000510000000000000000000000000000000000000000000000000000000000000000000000000000000000000000000000000000000000000000000000000000000000000000000000000000
11210102010000000000020100000000000000000000000000000000000000000000000001460000000000000000000000000000000000000000000000000000000000000000000000000000000000000000000000000000000000000000000000000000000000000000000000000000000000000000000000000000000000000000000150100000000
11210102030000000000020100000000000000000000000000000000000000000000000004870000000000000000000000000000000000000000000000000121000000000000000000000000000000000000000000000000000000000000000000000000000000000000000000000000000000000000000000000000000000000000000150100000000
11210102040000000000020100000000015300000000000000000000000000000000000021000000000000000000000000000000000000000000000000000000000000000000000000000000000000000000000000000000000000000000000000000000000000000000000000000000000000000000000000000000000000000000000175900000000
11210102050000000000020100000000000000000000000000000000000000000000000007210000000000000000000000000000000000000000000000000000000000000000000000000000000000000000000000000000000000000000000000000000000000000000000000000000000000000000000000000000000000000000000150100000000
11210102060000000000020100000000000000000000000000000000000000000000000001670000000000000000000000036000000000000000000000000389000000000000000000000000000000000000000000000000000000000000000000000000000000000000000000000000000000000000000000000000000000000000000150100000000
11210103000000000000020100000001080000000000000000000000000000000000001191010000000007070000000017841100000000125970000000006000000000000000000000000000000000000000000000000000000000000008333200000008333200000008333200000008333200000008333200000008334000000000000000000000000
11210103010000000000020100000001080000000000000000000000000000000000001413510000000007070000000015327500000000125970000000006000000000000000000000000000000000000000000000000000000000000008333200000008333200000008333200000008333200000008333200000008334000000000000150100000000
112101030100000000000201000000000000000000000000000000000000000-00000002225000000000000000000000000000000000000000000000000000000000000000000000000000000000000000000000000000000000-00000000000-00000000000-00000000000-00000000000-00000000000-0000000000010300000000150100000000
11210103050000000000020100000000000000000000000000000000000000000000000000000000000000000000000000188000000000000000000000000000000000000000000000000000000000000000000000000000000000000000000000000000000000000000000000000000000000000000000000000000000000000000000150100000000
11210103050000000000020100000000000000000000000000000000000000000000000000000000000000000-000000000793000000000000000000000000000000000000000000000000000000000000000000000000000000-00000000000-00000000000-00000000000-00000000000-00000000000-0000000000010300000000150100000000
11210103060000000000020100000000000000000000000000000000000000000000000000000000000000000000000004160500000000000000000000000000000000000000000000000000000000000000000000000000000000000000000000000000000000000000000000000000000000000000000000000000000000000000000150100000000
11210103060000000000020100000000000000000000000000000000000000000000000000000000000000000-000000017556000000000000000000000000000000000000000000000000000000000000000000000000000000-00000000000-00000000000-00000000000-00000000000-00000000000-0000000000010300000000150100000000
11210104000000000000020100000000108000000000000000000000000000000000000222500000000009693000000006447700000000103830000000001020000000000000000000000000000000000000000000000000000000000003333200000003333200000003333200000003333200000003333200000003334000000000000000000000000
11210104010000000000020100000000108000000000000000000000000000000000000449870000000009693000000011887100000000103830000000001020000000000000000000000000000000000000000000000000000000000003333200000003333200000003333200000003333200000003333200000003334000000000000150100000000
112101040100000000000201000000000000000000000000000000000000000-0000000227370000000000000-000000054394000000000000000000000000000000000000000000000000000000000000000000000000000000-00000000000-00000000000-00000000000-00000000000-00000000000-0000000000010300000000150100000000
11215000000000000000020100000000604530000000133093000000009596100000000609300000000144704000000011359700000000525370000000085356000000000000000000000000000000000000000000000000000000000015000000000015000000000015000000000015000000000015000000000015000000000000000000000000000
11215001000000000000020100000000355880000000132843000000009303100000000609300000000143807000000011344500000000515770000000082034000000000000000000000000000000000000000000000000000000000015000000000015000000000015000000000015000000000015000000000015000000000000000150100000000
11215002000000000000020100000000000000000000000250000000000293000000000000000000000000897000000000015200000000009600000000003322000000000000000000000000000000000000000000000000000000000000000000000000000000000000000000000000000000000000000000000000000000000000000150100000000
11215003000000000000020100000000218380000000000000000000000000000000000000000000000000000000000000000000000000000000000000000000000000000000000000000000000000000000000000000000000000000000000000000000000000000000000000000000000000000000000000000000000000000000000150100000000
11215004000000000000020100000000030270000000000000000000000000000000000000000000000000000000000000000000000000000000000000000000000000000000000000000000000000000000000000000000000000000000000000000000000000000000000000000000000000000000000000000000000000000000000150100000000
11220000000000000000020100000002658250000001834039000000199420600000036395450000012668303000000215270800000004921010000000509778000000000000000000000000000000000000000000000000000000000476666400000476666400000476666400000476666400000476666400000476668000000000000000000000000
11220100000000000000020100000000000000000000000000000000000000000000000000000000000003405-00000000340500000000000000000000000000000000000000000000000000000000000000000000000000000000000000000000000000000000000000000000000000000000000000000000000000000000000000000000000000000
11220103000000000000020100000000000000000000000000000000000000000000000000000000000003405-00000000340500000000000000000000000000000000000000000000000000000000000000000000000000000000000000000000000000000000000000000000000000000000000000000000000000000000000000000000000000000
11220103010000000000020100000000000000000000000000000000000000000000000000000000000003405000000000363400000000000000000000000000000000000000000000000000000000000000000000000000000000000000000000000000000000000000000000000000000000000000000000000000000000000000000150100000000
11220103010000000000020100000000000000000000000000000000000000000000000000000000000000000-000000007039000000000000000000000000000000000000000000000000000000000000000000000000000000-00000000000-00000000000-00000000000-00000000000-00000000000-0000000000010800000000150100000000
11225300000000000000020100000002658250000001834039000000199420600000036395450000012664898000000215611300000004921010000000509778000000000000000000000000000000000000000000000000000000000476666400000476666400000476666400000476666400000476666400000476668000000000000000000000000
11225301000000000000020100000002191090000002406911000000201130700000040998660000015162820000000137469900000002272020000000286722000000000000000000000000000000000000000000000000000000000521666600000521666600000521666600000521666600000521666600000521667000000000000150100000000
112253010000000000000201000000000000000000000000000000000000000000000000000000000000000000000000000000-00000002914800000000000000000000000000000000000000000000000000000000000000000-00000000000-00000000000-00000000000-00000000000-00000000000-0000000000010200000000150100000000
112253010000000000000201-000000043822-000000722475-000000388343-000000806854-0000029148440000000000000000000000000000000000000000000000000000000000000000000000000000000000000000000-00000750000-00000750000-00000750000-00000750000-00000750000-0000075000010300000000150100000000
11225303000000000000020100000000763780000000154171000000042951900000004166460000000471187000000087391100000003216110000000228168000000000000000000000000000000000000000000000000000000000028333200000028333200000028333200000028333200000028333200000028334000000000000150100000000
1122530300000000000002010000000000000-000000015904-000000061905-000000076630-000000076502-000000137881-000000046317-0000000249740000000000000000000000000000000000000000000000000000-00000000000-00000000000-00000000000-00000000000-00000000000-0000000000010300000000150100000000
11225304000000000000020100000000141600000000011336000000000362800000000065170000000022237000000004538400000000187530000000019862000000000000000000000000000000000000000000000000000000000001666600000001666600000001666600000001666600000001666600000001667000000000000150100000000
11300000000000000000020100000002214520000000197187000000021818300000003821920000000195963000000036767900000003392550000000805033000000000000000000000000000000000000000000000000000000000000000000000000000000000000000000000000000000000000000000000000000000000000000000000000000
11310000000000000000020100000002214520000000197187000000021818300000003821920000000195963000000036767900000003392550000000805033000000000000000000000000000000000000000000000000000000000000000000000000000000000000000000000000000000000000000000000000000000000000000000000000000
11315300000000000000020100000002214520000000197187000000021818300000003821920000000195963000000036767900000003392550000000805033000000000000000000000000000000000000000000000000000000000000000000000000000000000000000000000000000000000000000000000000000000000000000000000000000
11315301000000000000020100000001903630000000197187000000021818300000003445330000000155819000000032944700000001949890000000810392000000000000000000000000000000000000000000000000000000000000000000000000000000000000000000000000000000000000000000000000000000000000000150100000000
1131530100000000000002010000000000000000000000000000000000000000000000000000000000000000000000000000000000000000000-0000000413590000000000000000000000000000000000000000000000000000-00000000000-00000000000-00000000000-00000000000-00000000000-0000000000010300000000150100000000
11315302000000000000020100000000000000000000000000000000000000000000000000000000000000000000000000223200000000006410000000000000000000000000000000000000000000000000000000000000000000000000000000000000000000000000000000000000000000000000000000000000000000000000000150100000000
11315303000000000000020100000000310890000000000000000000000000000000000351490000000037086000000003360400000001229360000000033604000000000000000000000000000000000000000000000000000000000000000000000000000000000000000000000000000000000000000000000000000000000000000150100000000
11315304000000000000020100000000000000000000000000000000000000000000000025100000000003058000000000239600000000206890000000002396000000000000000000000000000000000000000000000000000000000000000000000000000000000000000000000000000000000000000000000000000000000000000150100000000
12000000000000000000020100000023786780000016872558000001700991900000176983390000017692205000001693020800000166124320000016691595000000000000000000000000000000000000000000000000000000003059960000003059960000003059960000003059960000003059960000004410200000000000000000000000000
12100000000000000000020100000000000000000014188369000001422303900000141820330000014267395000001437574300000144563730000014460201000000000000000000000000000000000000000000000000000000002559960000002559960000002559960000002559960000002559960000003910200000000000000000000000000
12150000000000000000020100000000000000000014188369000001422303900000141820330000014267395000001437574300000144563730000014460201000000000000000000000000000000000000000000000000000000002559960000002559960000002559960000002559960000002559960000003910200000000000000000000000000
12150100000000000000020100000000000000000014188369000001422303900000141820330000014267395000001437574300000144563730000014460201000000000000000000000000000000000000000000000000000000002559960000002559960000002559960000002559960000002559960000003910200000000000000000000000000
12150110000000000000020100000000000000000013303165000001332627700000132968290000013382191000001346164300000135408770000013535654000000000000000000000000000000000000000000000000000000002520000000002520000000002520000000002520000000002520000000003850000000000000000000000000000
12150111000000000000500100000000000000000013303165000001332627700000132968290000013382191000001346164300000135408770000013535654000000000000000000000000000000000000000000000000000000002520000000002520000000002520000000002520000000002520000000003850000000000000000180000000000
12150120000000000000020100000000000000000000711605000000072316300000007116050000000711605000000074050100000007418970000000750948000000000000000000000000000000000000000000000000000000000029200000000029200000000029200000000029200000000029200000000044000000000000000000000000000
12150121000000000000500100000000000000000000711605000000072316300000007116050000000711605000000074050100000007418970000000750948000000000000000000000000000000000000000000000000000000000029200000000029200000000029200000000029200000000029200000000044000000000000000180000000000
12150130000000000000020100000000000000000000173599000000017359900000001735990000000173599000000017359900000001735990000000173599000000000000000000000000000000000000000000000000000000000010760000000010760000000010760000000010760000000010760000000016200000000000000000000000000
12150131000000000000500100000000000000000000173599000000017359900000001735990000000173599000000017359900000001735990000000173599000000000000000000000000000000000000000000000000000000000010760000000010760000000010760000000010760000000010760000000016200000000000000180000000000
12400000000000000000020100000023786780000002684189000000278688000000035163060000003424810000000255446500000021560590000002231394000000000000000000000000000000000000000000000000000000000500000000000500000000000500000000000500000000000500000000000500000000000000000000000000000
12410000000000000000020100000023786780000002684189000000278688000000035163060000003424810000000255446500000021560590000002231394000000000000000000000000000000000000000000000000000000000500000000000500000000000500000000000500000000000500000000000500000000000000000000000000000
12415000000000000000020100000023786780000002684189000000278688000000035163060000003424810000000255446500000021560590000002231394000000000000000000000000000000000000000000000000000000000500000000000500000000000500000000000500000000000500000000000500000000000000000000000000000
12415001000000000000020100000023786780000002684189000000278688000000035163060000003424810000000255446500000021560590000002231394000000000000000000000000000000000000000000000000000000000500000000000500000000000500000000000500000000000500000000000500000000000000000175100000000
13000000000000000000020100000625746280000047008988000004460322400000629560390000055143321000005158483100000627485540000067075098000000000000000000000000000000000000000000000000000000007658330800007658330800007658330800007658330800007658330800007658346000000000000000000000000
13100000000000000000020100000023251470000002332247000000233224700000023322470000002332247000000233224700000023394430000002339443000000000000000000000000000000000000000000000000000000000451666600000451666600000451666600000451666600000451666600000451667000000000000000000000000
13110000000000000000020100000023251470000002332247000000233224700000023322470000002332247000000233224700000023394430000002339443000000000000000000000000000000000000000000000000000000000451666600000451666600000451666600000451666600000451666600000451667000000000000000000000000
13110100000000000000020100000023251470000002332247000000233224700000023322470000002332247000000233224700000023394430000002339443000000000000000000000000000000000000000000000000000000000451666600000451666600000451666600000451666600000451666600000451667000000000000000000000000
13110110000000000000020100000023251470000002332247000000233224700000023322470000002332247000000233224700000023394430000002339443000000000000000000000000000000000000000000000000000000000451666600000451666600000451666600000451666600000451666600000451667000000000000000000000000
13110111000000000000020100000023251470000002332247000000233224700000023322470000002332247000000233224700000023394430000002339443000000000000000000000000000000000000000000000000000000000451666600000451666600000451666600000451666600000451666600000451667000000000000150100000000
13200000000000000000020100000602494810000044676741000004227097700000606237920000052811074000004925258400000604091110000064735655000000000000000000000000000000000000000000000000000000007206664200007206664200007206664200007206664200007206664200007206679000000000000000000000000
13210000000000000000020100000602494810000044676741000004227097700000606237920000052811074000004925258400000604091110000064735655000000000000000000000000000000000000000000000000000000007206664200007206664200007206664200007206664200007206664200007206679000000000000000000000000
13210100000000000000020100000112094500000011948647000001133231600000131988510000015608290000001498890800000179271970000018958935000000000000000000000000000000000000000000000000000000001238332000001238332000001238332000001238332000001238332000001238340000000000000000000000000
13210101000000000000020100000112094500000011948647000001133231600000131988510000015608290000001498890800000179271970000018958935000000000000000000000000000000000000000000000000000000001238332000001238332000001238332000001238332000001238332000001238340000000000000000000000000
13210101010000000000020100000027013530000002793452000000246102800000035261250000003925580000000326612100000047745680000004216405000000000000000000000000000000000000000000000000000000000153332600000153332600000153332600000153332600000153332600000153337000000000000000000000000
13210101010200000000020100000002270870000000374971000000037526400000003781330000000506034000000049035300000005069570000000400167000000000000000000000000000000000000000000000000000000000053333200000053333200000053333200000053333200000053333200000053334000000000000000000000000
13210101010201000000020100000002270870000000374971000000037526400000003781330000000506034000000049035300000005069570000000400167000000000000000000000000000000000000000000000000000000000053333200000053333200000053333200000053333200000053333200000053334000000000000154000000000
13210101010300000000020100000006477200000000559977000000057617000000007129350000000796643000000082295600000009824230000000915046000000000000000000000000000000000000000000000000000000000009999800000009999800000009999800000009999800000009999800000010001000000000000000000000000
13210101010302000000020100000000174650000000016274000000001611300000000178760000000019714000000001893800000000223540000000019717000000000000000000000000000000000000000000000000000000000000000000000000000000000000000000000000000000000000000000000000000000000000000162100000000
13210101010303000000020100000000235710000000021867000000002139100000000235460000000026407000000002548500000000303560000000027641000000000000000000000000000000000000000000000000000000000000000000000000000000000000000000000000000000000000000000000000000000000000000162100000000
13210101010304000000020100000000000000000000000000000000000000000000000000000000000053876000000004159800000000446380000000051191000000000000000000000000000000000000000000000000000000000005000000000005000000000005000000000005000000000005000000000005000000000000000160000000000
13210101010305000000020100000000122960000000012056000000001188700000000132570000000014684000000001463100000000214610000000019129000000000000000000000000000000000000000000000000000000000001666600000001666600000001666600000001666600000001666600000001667000000000000160000000000
13210101010306000000020100000000001580000000004359000000000850700000000130470000000017546000000001982400000000274420000000030029000000000000000000000000000000000000000000000000000000000001666600000001666600000001666600000001666600000001666600000001667000000000000160000000000
13210101010309000000020100000000000620000000001732000000000360700000000054110000000008188000000000907700000000115020000000010878000000000000000000000000000000000000000000000000000000000000000000000000000000000000000000000000000000000000000000000000000000000000000162100000000
13210101010310000000020100000001781470000000165268000000016166400000001776770000000190776000000017068400000001808230000000158457000000000000000000000000000000000000000000000000000000000000000000000000000000000000000000000000000000000000000000000000000000000000000162100000000
13210101010311000000020100000000052400000000004942000000000485800000000053450000000005995000000000578100000000069090000000006267000000000000000000000000000000000000000000000000000000000000000000000000000000000000000000000000000000000000000000000000000000000000000162100000000
1321010101031600000002010000000024000000000000800000000000200000000000008000-000000059366000000000131400000000020410000000002162000000000000000000000000000000000000000000000000000000000000000000000000000000000000000000000000000000000000000000000000000000000000000162100000000
13210101010317000000020100000002374810000000229233000000022508700000002489270000000274930000000026756900000003162640000000290007000000000000000000000000000000000000000000000000000000000000000000000000000000000000000000000000000000000000000000000000000000000000000160131100000
13210101010330000000020100000000041940000000003733000000000367400000000039980000000004487000000000435000000000049970000000004651000000000000000000000000000000000000000000000000000000000000000000000000000000000000000000000000000000000000000000000000000000000000000160500000000
13210101010334000000020100000000144090000000014535000000001435700000000161140000000017650000000001724000000000203110000000018715000000000000000000000000000000000000000000000000000000000000000000000000000000000000000000000000000000000000000000000000000000000000000160000000000
13210101010335000000020100000000000000000000000000000000000000000000000847250000000112201000000010828400000001289790000000117443000000000000000000000000000000000000000000000000000000000000000000000000000000000000000000000000000000000000000000000000000000000000000162132100000
13210101010355000000020100000000027000000000002653000000000260600000000028960000000003174000000000309700000000036450000000003361000000000000000000000000000000000000000000000000000000000000000000000000000000000000000000000000000000000000000000000000000000000000000160100000000
13210101010358000000020100000000104920000000009733000000000952200000000104800000000011755000000001134400000000135120000000012303000000000000000000000000000000000000000000000000000000000000000000000000000000000000000000000000000000000000000000000000000000000000000162100000000
13210101010360000000020100000000036120000000002881000000000285700000000036320000000003165000000000313600000000036650000000003769000000000000000000000000000000000000000000000000000000000000000000000000000000000000000000000000000000000000000000000000000000000000000160100000000
13210101010361000000020100000000349970000000034989000000003452200000000386870000000042193000000004117600000000483600000000044550000000000000000000000000000000000000000000000000000000000000000000000000000000000000000000000000000000000000000000000000000000000000000160100000000
13210101010377000000020100000000075600000000007522000000000741200000000082930000000009031000000000881700000000103560000000009542000000000000000000000000000000000000000000000000000000000000000000000000000000000000000000000000000000000000000000000000000000000000000160100000000
13210101010378000000020100000000019780000000001836000000000179500000000019760000000002217000000000213900000000025480000000002320000000000000000000000000000000000000000000000000000000000000000000000000000000000000000000000000000000000000000000000000000000000000000163200000000
13210101010380000000020100000000025140000000002515000000000248300000000027890000000003036000000000296700000000034860000000003208000000000000000000000000000000000000000000000000000000000000000000000000000000000000000000000000000000000000000000000000000000000000000160100000000
13210101010383000000020100000000048060000000004457000000000436100000000048000000000005383000000000519600000000061880000000001343000000000000000000000000000000000000000000000000000000000000000000000000000000000000000000000000000000000000000000000000000000000000000162100000000
13210101010384000000020100000000018090000000000000000000000000000000000000000000000000000000000000000000000000000000000000000000000000000000000000000000000000000000000000000000000000000000000000000000000000000000000000000000000000000000000000000000000000000000000163200000000
132101010103840000000201-00000000180900000000000000000000000000000000000000000000000000000000000000000000000000000000000000000000000000000000000000000000000000000000000000000000000-00000000000-00000000000-00000000000-00000000000-00000000000-0000000000010900000000163200000000
13210101010385000000020100000000009310000000000000000000000000000000000000000000000000000000000000000000000000000000000000000000000000000000000000000000000000000000000000000000000000000001666600000001666600000001666600000001666600000001666600000001667000000000000150000000000
132101010103850000000201-00000000093100000000000000000000000000000000000000000000000000000000000000000000000000000000000000000000000000000000000000000000000000000000000000000000000-00000000000-00000000000-00000000000-00000000000-00000000000-0000000000010900000000150000000000
13210101010386000000020100000000534850000000000000000000000000000000000000000000000000000000000000000000000000000000000000000000000000000000000000000000000000000000000000000000000000000000000000000000000000000000000000000000000000000000000000000000000000000000000150010020000
13210101010387000000020100000000085530000000009036000000000892500000000100170000000010972000000001071700000000126270000000011634000000000000000000000000000000000000000000000000000000000000000000000000000000000000000000000000000000000000000000000000000000000000000160031010000
13210101010390000000020100000000000000000000002356000000001054200000000114420000000013053000000001271900000000149680000000013647000000000000000000000000000000000000000000000000000000000000000000000000000000000000000000000000000000000000000000000000000000000000000162100000000
13210101010391000000020100000000000000000000000000000000000000000000000000000000000005062000000000624800000000073010000000007510000000000000000000000000000000000000000000000000000000000000000000000000000000000000000000000000000000000000000000000000000000000000000160000000000
13210101010392000000020100000000000000000000000000000000000000000000000000000000000000514000000001062500000000376900000000045572000000000000000000000000000000000000000000000000000000000000000000000000000000000000000000000000000000000000000000000000000000000000000162100000000
13210101010600000000020100000000013000000000001914000000000189100000000032670000000004411000000000430800000000067590000000007049000000000000000000000000000000000000000000000000000000000000000000000000000000000000000000000000000000000000000000000000000000000000000175000000000
13210101010700000000020100000001318030000000127498000000013005400000001486780000000162483000000013749500000001578230000000165918000000000000000000000000000000000000000000000000000000000001666600000001666600000001666600000001666600000001666600000001667000000000000000000000000
13210101010701000000020100000000000000000000001115000000000432300000000065530000000007313000000000978000000000159100000000014632000000000000000000000000000000000000000000000000000000000000000000000000000000000000000000000000000000000000000000000000000000000000000166000000000
13210101010702000000020100000000000000000000000000000000000000000000000000000000000001121000000000379400000000237190000000025957000000000000000000000000000000000000000000000000000000000000000000000000000000000000000000000000000000000000000000000000000000000000000166000000000
13210101010703000000020100000000113930000000012073000000001423500000000190510000000017778000000001752100000000241070000000020430000000000000000000000000000000000000000000000000000000000001666600000001666600000001666600000001666600000001666600000001667000000000000166000000000
13210101010705000000020100000000000600000000001237000000000121600000000013390000000001501000000000144800000000017300000000001569000000000000000000000000000000000000000000000000000000000000000000000000000000000000000000000000000000000000000000000000000000000000000166500000000
13210101010706000000020100000000570570000000052933000000005177800000000569960000000063923000000004058700000000150990000000009736000000000000000000000000000000000000000000000000000000000000000000000000000000000000000000000000000000000000000000000000000000000000000166500000000
13210101010708000000020100000000003910000000000492000000000000000000000000000000000000000000000000000000000000000000000000000000000000000000000000000000000000000000000000000000000000000000000000000000000000000000000000000000000000000000000000000000000000000000000166000000000
13210101010711000000020100000000000000000000000000000000000000000000000000000000000000000000000000000000000000033590000000005467000000000000000000000000000000000000000000000000000000000000000000000000000000000000000000000000000000000000000000000000000000000000000166000000000
13210101010712000000020100000000231890000000021512000000002104400000000231630000000025979000000002507200000000298630000000027192000000000000000000000000000000000000000000000000000000000000000000000000000000000000000000000000000000000000000000000000000000000000000166500000000
13210101010713000000020100000000008540000000000861000000000085100000000009550000000001046000000000102200000000012030000000001109000000000000000000000000000000000000000000000000000000000000000000000000000000000000000000000000000000000000000000000000000000000000000166031100000
13210101010714000000020100000000151090000000015242000000001505500000000168970000000017215000000001259200000000111160000000007939000000000000000000000000000000000000000000000000000000000000000000000000000000000000000000000000000000000000000000000000000000000000000166031010000
13210101010715000000020100000000237500000000022033000000002155200000000237240000000026607000000002567900000000305850000000027851000000000000000000000000000000000000000000000000000000000000000000000000000000000000000000000000000000000000000000000000000000000000000166100000000
13210101010716000000020100000000000000000000000000000000000000000000000000000000000000000000000000000000000000011320000000024036000000000000000000000000000000000000000000000000000000000000000000000000000000000000000000000000000000000000000000000000000000000000000166031010000
13210101010800000000020100000001585030000000178455000000019605400000002538800000000277338000000027247400000003056460000000243693000000000000000000000000000000000000000000000000000000000049999800000049999800000049999800000049999800000049999800000050001000000000000000000000000
13210101010801000000020100000000000000000000008232000000001773100000000173540000000016047000000001699400000000197130000000026179000000000000000000000000000000000000000000000000000000000001666600000001666600000001666600000001666600000001666600000001667000000000000155200000000
13210101010802000000020100000000140750000000053532000000008034400000001133410000000139900000000014795100000001760190000000153587000000000000000000000000000000000000000000000000000000000010000000000010000000000010000000000010000000000010000000000010000000000000000155000000000
13210101010803000000020100000000000000000000000000000000000068100000000171380000000019921000000001515600000000069570000000001284000000000000000000000000000000000000000000000000000000000001666600000001666600000001666600000001666600000001666600000001667000000000000155300000000
13210101010804000000020100000000765880000000048848000000003036300000000339750000000036988000000003113000000000335140000000025871000000000000000000000000000000000000000000000000000000000025000000000025000000000025000000000025000000000025000000000025000000000000000156900000000
13210101010805000000020100000000016660000000001681000000000166000000000018630000000002041000000000199300000000023480000000002164000000000000000000000000000000000000000000000000000000000000000000000000000000000000000000000000000000000000000000000000000000000000000156900000000
13210101010806000000020100000000661740000000066162000000006527500000000702090000000062441000000005925000000000670950000000034608000000000000000000000000000000000000000000000000000000000011666600000011666600000011666600000011666600000011666600000011667000000000000156900000000
13210101019900000000020100000015349400000001550637000000118159500000020292320000002178671000000153853500000028149600000002484532000000000000000000000000000000000000000000000000000000000038333200000038333200000038333200000038333200000038333200000038334000000000000000000000000
13210101019901000000020100000000649870000000061248000000005990100000000664120000000075502000000007352800000000880330000000080158000000000000000000000000000000000000000000000000000000000010000000000010000000000010000000000010000000000010000000000010000000000000000175900000000
13210101019902000000020100000000080500000000007468000000000730500000001492990000000000000-00000017212200000000000000000000000000000000000000000000000000000000000000000000000000000000000000000000000000000000000000000000000000000000000000000000000000000000000000000170100000000
13210101019903000000020100000000402300000000023349000000001987400000000176930000000000000000000000000000000000000000000000000000000000000000000000000000000000000000000000000000000000000006666600000006666600000006666600000006666600000006666600000006667000000000000150000000000
13210101019904000000020100000000779530000000077938000000007689300000000861740000000093983000000009171700000001077180000000102415000000000000000000000000000000000000000000000000000000000000000000000000000000000000000000000000000000000000000000000000000000000000000175900000000
13210101019905000000020100000000803960000000081107000000008010800000000781720000000034113000000003332000000000392560000000036170000000000000000000000000000000000000000000000000000000000000000000000000000000000000000000000000000000000000000000000000000000000000000170631100000
13210101019906000000020100000000517940000000052252000000005160700000000549900000000047354000000004625300000000544940000000050209000000000000000000000000000000000000000000000000000000000000000000000000000000000000000000000000000000000000000000000000000000000000000170631100000
13210101019910000000020100000001419670000000161050000000013863100000001575230000000152261000000016043800000001593410000000161876000000000000000000000000000000000000000000000000000000000000000000000000000000000000000000000000000000000000000000000000000000000000000170000000000
13210101019911000000020100000000024600000000002745000000000268200000000029700000000003339000000000319800000000037430000000003380000000000000000000000000000000000000000000000000000000000000000000000000000000000000000000000000000000000000000000000000000000000000000170100000000
13210101019913000000020100000000132960000000015083000000001298300000000152480000000014738000000001553100000000155530000000015801000000000000000000000000000000000000000000000000000000000000000000000000000000000000000000000000000000000000000000000000000000000000000150000000000
13210101019917000000020100000000296520000000029914000000002954500000000331620000000036323000000003547900000000418000000000038513000000000000000000000000000000000000000000000000000000000000000000000000000000000000000000000000000000000000000000000000000000000000000170631100000
13210101019918000000020100000000741300000000074784000000007386300000000829060000000090807000000008869700000001045000000000096283000000000000000000000000000000000000000000000000000000000000000000000000000000000000000000000000000000000000000000000000000000000000000170631100000
13210101019919000000020100000001482580000000149569000000014772500000001658100000000181613000000017739300000002089990000000192566000000000000000000000000000000000000000000000000000000000000000000000000000000000000000000000000000000000000000000000000000000000000000170631100000
13210101019920000000020100000001333970000000098599-00000023199600000000000000000000000000000000000000000000000000000000000000000000000000000000000000000000000000000000000000000000000000000000000000000000000000000000000000000000000000000000000000000000000000000000170100000000
13210101019921000000020100000000402300000000037321000000003650700000000401860000000012720-00000016696400000000000000000000000000000000000000000000000000000000000000000000000000000000000000000000000000000000000000000000000000000000000000000000000000000000000000000170100000000
13210101019922000000020100000000030680000000002894000000000284400000000031300000000000467000000000000000000000000000000000000000000000000000000000000000000000000000000000000000000000000000000000000000000000000000000000000000000000000000000000000000000000000000000150000000000
13210101019925000000020100000000110400000000011038000000001089000000000122040000000013310000000001298900000000152560000000014053000000000000000000000000000000000000000000000000000000000000000000000000000000000000000000000000000000000000000000000000000000000000000170031100000
13210101019930000000020100000000000000000000004254000000002892500000000557780000000055472000000005892000000000494310000000041338000000000000000000000000000000000000000000000000000000000006666600000006666600000006666600000006666600000006666600000006667000000000000157100000000
13210101019931000000020100000000496290000000046041000000004503700000000495750000000055600000000003223800000000000000000000000000000000000000000000000000000000000000000000000000000000000000000000000000000000000000000000000000000000000000000000000000000000000000000170100000000
13210101019931000000020100000000000000000000000000000000000000000000000000000000000000000-000000278120000000000000000000000000000000000000000000000000000000000000000000000000000000-00000000000-00000000000-00000000000-00000000000-00000000000-0000000000010200000000170100000000
13210101019932000000020100000000118590000000021758000000003188800000000370670000000049742000000005741300000000648900000000057602000000000000000000000000000000000000000000000000000000000005000000000005000000000005000000000005000000000005000000000005000000000000000175100000000
13210101019933000000020100000000044550000000024326000000003994900000000695240000000102799000000012172300000001703930000000176713000000000000000000000000000000000000000000000000000000000010000000000010000000000010000000000010000000000010000000000010000000000000000170400000000
13210101019937000000020100000000633550000000063050000000006211500000000695060000000075689000000007389300000000868000000000079973000000000000000000000000000000000000000000000000000000000000000000000000000000000000000000000000000000000000000000000000000000000000000170631100000
13210101019939000000020100000000303750000000028178000000002756500000000303420000000034029000000003284100000000391180000000035619000000000000000000000000000000000000000000000000000000000000000000000000000000000000000000000000000000000000000000000000000000000000000170100000000
13210101019940000000020100000000004860000000000490000000000048500000000005430000000000596000000000058100000000006850000000000632000000000000000000000000000000000000000000000000000000000000000000000000000000000000000000000000000000000000000000000000000000000000000171500000000
13210101019941000000020100000000001790000000000180000000000017900000000002000000000000219000000000021400000000002520000000000232000000000000000000000000000000000000000000000000000000000000000000000000000000000000000000000000000000000000000000000000000000000000000171600000000
13210101019944000000020100000000000070000000000039000000000005900000000002840000000000581000000000056700000000006680000000000615000000000000000000000000000000000000000000000000000000000000000000000000000000000000000000000000000000000000000000000000000000000000000170800000000
13210101019945000000020100000002053700000000207186000000020463200000002296830000000251574000000024572900000002614600000000167771000000000000000000000000000000000000000000000000000000000000000000000000000000000000000000000000000000000000000000000000000000000000000170631100000
13210101019946000000020100000000223480000000018634-00000004098200000000000000000000000000000000000000000000000000000000000000000000000000000000000000000000000000000000000000000000000000000000000000000000000000000000000000000000000000000000000000000000000000000000170100000000
13210101019950000000020100000002168100000000215762000000021256400000002378550000000259018000000025286700000002970380000000273676000000000000000000000000000000000000000000000000000000000000000000000000000000000000000000000000000000000000000000000000000000000000000170631100000
13210101019951000000020100000000000000000000000000000000000000000000000321520000000055987000000005403200000000643590000000054046000000000000000000000000000000000000000000000000000000000000000000000000000000000000000000000000000000000000000000000000000000000000000170132100000
13210101019952000000020100000000000000000000000000000000000000000000001607620000000279935000000027016200000003217940000000241617000000000000000000000000000000000000000000000000000000000000000000000000000000000000000000000000000000000000000000000000000000000000000174832010000
13210101019953000000020100000000000000000000000000000000000000000000000026350000000004762000000000464900000000054810000000005044000000000000000000000000000000000000000000000000000000000000000000000000000000000000000000000000000000000000000000000000000000000000000150000000000
13210101019954000000020100000000000000000000000000000000000000000000000074360000000081690000000007979200000000700650000000031853000000000000000000000000000000000000000000000000000000000000000000000000000000000000000000000000000000000000000000000000000000000000000174731010000
13210101019960000000020100000000091590000000034380000000004981700000000800110000000114448000000013157700000001851420000000184739000000000000000000000000000000000000000000000000000000000000000000000000000000000000000000000000000000000000000000000000000000000000000150000000000
13210101019970000000020100000000000000000000000000000000000000000000000000000000000000000000000000000000000003586910000000341638000000000000000000000000000000000000000000000000000000000000000000000000000000000000000000000000000000000000000000000000000000000000000170132010000
13210101020000000000020100000040727690000005009810000000480549400000052227740000006707152000000688995000000074587700000009587944000000000000000000000000000000000000000000000000000000001084999400001084999400001084999400001084999400001084999400001085003000000000000000000000000
13210101029900000000020100000040727690000005009810000000480549400000052227740000006707152000000688995000000074587700000009587944000000000000000000000000000000000000000000000000000000001084999400001084999400001084999400001084999400001084999400001085003000000000000000000000000
13210101029901000000020100000006041370000001130488000000111618900000011092500000002017523000000243193800000027216230000002851946000000000000000000000000000000000000000000000000000000000313333200000313333200000313333200000313333200000313333200000313334000000000000150000000000
13210101029902000000020100000015180650000001928672000000177227400000018687460000002040596000000166910400000014870520000001362483000000000000000000000000000000000000000000000000000000000185000000000185000000000185000000000185000000000185000000000185000000000000000150000000000
13210101029905000000020100000000836850000000085502000000011729000000001736050000000248916000000025313600000003196170000000282373000000000000000000000000000000000000000000000000000000000071666600000071666600000071666600000071666600000071666600000071667000000000000150000000000
13210101029907000000020100000014480250000001422449000000140542300000015541670000001693882000000165040100000019402650000004304379000000000000000000000000000000000000000000000000000000000461666600000461666600000461666600000461666600000461666600000461667000000000000150000000000
13210101029908000000020100000000129010000000012172000000001196000000000131640000000014760000000000852500000000000000000000000000000000000000000000000000000000000000000000000000000000000001666600000001666600000001666600000001666600000001666600000001667000000000000150000000000
13210101029910000000020100000002840500000000333572000000036340600000004827330000000668375000000086170800000009811510000000778788000000000000000000000000000000000000000000000000000000000035000000000035000000000035000000000035000000000035000000000035000000000000000150100000000
13210101029912000000020100000000038610000000003596000000000356200000000039510000000004357000000000418600000000049410000000004358000000000000000000000000000000000000000000000000000000000000000000000000000000000000000000000000000000000000000000000000000000000000000150200000000
13210101029914000000020100000000011630000000001097000000000107800000000011860000000001330000000000128300000000015330000000001391000000000000000000000000000000000000000000000000000000000001666600000001666600000001666600000001666600000001666600000001667000000000000150000000000
13210101029916000000020100000000089820000000007622000000000000000000000000000000000000000000000000000000000000000000000000000000000000000000000000000000000000000000000000000000000000000001666600000001666600000001666600000001666600000001666600000001667000000000000150000000000
13210101029917000000020100000000146180000000014507000000001431200000000159720000000017413000000000966900000000025880000000002226000000000000000000000000000000000000000000000000000000000001666600000001666600000001666600000001666600000001666600000001667000000000000150000000000
13210101029932000000020100000000932820000000070133000000000000000000000000000000000000000000000000000000000000000000000000000000000000000000000000000000000000000000000000000000000000000011666600000011666600000011666600000011666600000011666600000011667000000000000150000000000
13210101150000000000500100000044353280000004145385000000406579400000044499520000004975558000000483283700000056938590000005154586000000000000000000000000000000000000000000000000000000000000000000000000000000000000000000000000000000000000000000000000000000000000000180000000000
13210400000000000000020100000490400310000032728094000003093866100000474249410000037202784000003426367600000424819140000045776720000000000000000000000000000000000000000000000000000000005968332200005968332200005968332200005968332200005968332200005968339000000000000000000000000
13210401000000000000020100000490400310000032728094000003093866100000474249410000037202784000003426367600000424819140000045776720000000000000000000000000000000000000000000000000000000005968332200005968332200005968332200005968332200005968332200005968339000000000000000000000000
13210401010000000000500100000000000000000000000000000000000000000000000000000000000000000000000000000000000000000000000000000000000000000000000000000000000000000000000000000000000000000428333200000428333200000428333200000428333200000428333200000428334000000000000180000000000
13210401020000000000500100000072027370000005744158000000569722600000072411850000006311553000000625354600000073065910000007516014000000000000000000000000000000000000000000000000000000000766666600000766666600000766666600000766666600000766666600000766667000000000000180000000000
13210401030000000000500100000000000000000000000000000000000000000000000000000000000000000000000000000000000000000000000000000000000000000000000000000000000000000000000000000000000000000003333200000003333200000003333200000003333200000003333200000003334000000000000180000000000
13210401040000000000500100000000000000000000000000000000000000000000000000000000000000000000000000000000000000000000000000000000000000000000000000000000000000000000000000000000000000000331666600000331666600000331666600000331666600000331666600000331667000000000000180000000000
13210401050000000000500100000000000000000000000000000000000000000000000000000000000000000000000000000000000000000000000000000000000000000000000000000000000000000000000000000000000000000103333200000103333200000103333200000103333200000103333200000103334000000000000180000000000
13210401060000000000500100000000000000000000000000000000000000000000000000000000000000000000000000000000000000000000000000000000000000000000000000000000000000000000000000000000000000000683333200000683333200000683333200000683333200000683333200000683334000000000000180000000000
13210401070000000000500100000000000000000000000000000000000000000000000000000000000000000000000000000000000000000000000000000000000000000000000000000000000000000000000000000000000000000650000000000650000000000650000000000650000000000650000000000650000000000000000180000000000
13210401080000000000500100000075095150000006874807000000703668200000074569070000008287173000000805002500000096840720000008762458000000000000000000000000000000000000000000000000000000000608333200000608333200000608333200000608333200000608333200000608334000000000000180000000000
13210401090000000000500100000003663430000000341489000000036958600000004142380000000489379000000050181900000006350360000000595345000000000000000000000000000000000000000000000000000000000091666600000091666600000091666600000091666600000091666600000091667000000000000180200000000
13210401100000000000500100000074949560000007096036000000707334800000076466210000008432788000000818229100000096366180000008864831000000000000000000000000000000000000000000000000000000001025000000001025000000001025000000001025000000001025000000001025000000000000000180000000000
13210401110000000000500100000071730360000006713898000000658496000000072181220000008047428000000781643500000092272310000008341667000000000000000000000000000000000000000000000000000000000906666600000906666600000906666600000906666600000906666600000906667000000000000180000000000
132104011200000000005001000000749492200000017736980000002141375000000751213500000012497680000001394018-0000001948390000004352767000000000000000000000000000000000000000000000000000000000111666600000111666600000111666600000111666600000111666600000111667000000000000180000000000
13210401130000000000500100000057019010000001601779000000118897100000045344310000001171770000000038270700000024424440000002934802000000000000000000000000000000000000000000000000000000000098333200000098333200000098333200000098333200000098333200000098334000000000000180000000000
13210401140000000000500100000060966210000002582229000000084651300000054013020000003212925000000168283500000037447610000004408836000000000000000000000000000000000000000000000000000000000160000000000160000000000160000000000160000000000160000000000160000000000000000180000000000
16000000000000000000020100000000375000000000352500000000053406700000004507500000000561230000000026640000000004164200000000427750000000000000000000000000000000000000000000000000000000000093333200000093333200000093333200000093333200000093333200000093334000000000000000000000000
16100000000000000000020100000000375000000000352500000000053406700000004507500000000561230000000026640000000004164200000000427750000000000000000000000000000000000000000000000000000000000093333200000093333200000093333200000093333200000093333200000093334000000000000000000000000
16110000000000000000020100000000375000000000352500000000053406700000004507500000000561230000000026640000000004164200000000427750000000000000000000000000000000000000000000000000000000000093333200000093333200000093333200000093333200000093333200000093334000000000000000000000000
16110100000000000000020100000000375000000000352500000000053406700000004507500000000561230000000026640000000004164200000000427750000000000000000000000000000000000000000000000000000000000093333200000093333200000093333200000093333200000093333200000093334000000000000000000000000
16110101000000000000020100000000375000000000352500000000049275000000004507500000000559250000000026400000000004156200000000427750000000000000000000000000000000000000000000000000000000000090000000000090000000000090000000000090000000000090000000000090000000000000000000000000000
16110101010000000000020100000000375000000000352500000000049275000000004507500000000559250000000026400000000004156200000000427750000000000000000000000000000000000000000000000000000000000090000000000090000000000090000000000090000000000090000000000090000000000000000150100000000
16110102000000000000020100000000000000000000000000000000000396000000000000000000000001980000000000240000000000008000000000000000000000000000000000000000000000000000000000000000000000000000000000000000000000000000000000000000000000000000000000000000000000000000000000000000000
16110102010000000000020100000000000000000000000000000000000396000000000000000000000001980000000000240000000000008000000000000000000000000000000000000000000000000000000000000000000000000000000000000000000000000000000000000000000000000000000000000000000000000000000150100000000
16110103000000000000020100000000000000000000000000000000003459100000000000000000000000000000000000000000000000000000000000000000000000000000000000000000000000000000000000000000000000000003333200000003333200000003333200000003333200000003333200000003334000000000000000000000000
16110103010000000000020100000000000000000000000000000000003459100000000000000000000000000000000000000000000000000000000000000000000000000000000000000000000000000000000000000000000000000003333200000003333200000003333200000003333200000003333200000003334000000000000150100000000
16110104000000000000020100000000000000000000000000000000000276600000000000000000000000000000000000000000000000000000000000000000000000000000000000000000000000000000000000000000000000000000000000000000000000000000000000000000000000000000000000000000000000000000000000000000000
16110104010000000000020100000000000000000000000000000000000276600000000000000000000000000000000000000000000000000000000000000000000000000000000000000000000000000000000000000000000000000000000000000000000000000000000000000000000000000000000000000000000000000000000150100000000
17000000000000000000020100003152056070000345652734000028231937000003738089020000365595239000031696848400003844179060000291663608000000000000000000000000000000000000000000000000000000070580020800062884840800063124210800066018550800064691900800084318812000000000000000000000000
17100000000000000000020100001372640430000175153771000012258703300001356215010000153732472000015573338800001838996630000132588449000000000000000000000000000000000000000000000000000000036855112000027329582000030311212000032696902000032381782000042699250000000000000000000000000
17110000000000000000020100001126273100000151175912000009868651100001008138390000127785668000013190757200001522056710000107562485000000000000000000000000000000000000000000000000000000031771780000022246250000025227880000027613570000027298450000037615910000000000000000000000000
17115100000000000000020100001113929950000149476535000009843717700001000289670000127601128000013106389200001520815610000106148893000000000000000000000000000000000000000000000000000000031804063400022276763400025295303400027636763400025189763400037425743000000000000000000000000
17115110000000000000020100001113929950000149476535000009843717700001000289670000127601128000013106389200000804554890000106148893000000000000000000000000000000000000000000000000000000031804063400022276763400025295303400020868313400019325783400030210573000000000000000000000000
17115111000000000000020100001392412380000186845664000012304646600001250362040000159501407000016382986000001005693570000132686112000000000000000000000000000000000000000000000000000000038044930000028517630000031536170000027109180000025566650000036451440000000000000150000000000
171151110000000000000201-000027848243-000037369129-000024609289-000025007237-000031900279-000032765968-000020113868-0000265372190000000000000000000000000000000000000000000000000000-00062408666-00062408666-00062408666-00062408666-00062408666-0006240867010500000000150000000000
17115120000000000000020100000000000000000000000000000000000000000000000000000000000000000000000000000000000716260720000000000000000000000000000000000000000000000000000000000000000000000000000000000000000000000000000000006768450000005863980000007215170000000000000000000000000
17115121000000000000020100000000000000000000000000000000000000000000000000000000000000000000000000000000000716260720000000000000000000000000000000000000000000000000000000000000000000000000000000000000000000000000000000006768450000005863980000007215170000000000000000000000000
17115121010000000000020100000000000000000000000000000000000000000000000000000000000000000000000000000000000716260720000000000000000000000000000000000000000000000000000000000000000000000000000000000000000000000000000000006768450000000000000000000000000000000000000150000000000
17115121020000000000020100000000000000000000000000000000000000000000000000000000000000000000000000000000000000000000000000000000000000000000000000000000000000000000000000000000000000000000000000000000000000000000000000000000000000005863980000000000000000000000000150000000000
17115121030000000000020100000000000000000000000000000000000000000000000000000000000000000000000000000000000000000000000000000000000000000000000000000000000000000000000000000000000000000000000000000000000000000000000000000000000000000000000000007215170000000000000150000000000
171152000000000000000201000000123431500000016993770000000249334000000078487200000001845400000000843680000000012411000000014135920000000000000000000000000000000000000000000000000000-00000322834-00000305134-00000674234-0000023193400002108686600000190167000000000000000000000000
17115201000000000000020100000015428930000002124220000000031166500000009810880000000230674000000105459800000001551360000001766990000000000000000000000000000000000000000000000000000000000057110000000058880000000021970000000066200000002198080000000279560000000000000150000000000
171152010000000000000201-000000308578-000000424843-000000062331-000000196216-000000046134-000000210918-000000031026-0000003533980000000000000000000000000000000000000000000000000000-00000893934-00000893934-00000893934-00000893934-00000893934-0000089393010500000000150000000000
17120000000000000000020100000025855160000002860336000000305830500000026119790000002838323000000256361400000025149060000002678490000000000000000000000000000000000000000000000000000000000376666600000376666600000376666600000376666600000376666600000376667000000000000000000000000
17125100000000000000020100000000028630000000004174000000000327000000000560860000000000000000000000000000000000000000000000000000000000000000000000000000000000000000000000000000000000000000000000000000000000000000000000000000000000000000000000000000000000000000000000000000000
17125101000000000000020100000000028630000000004174000000000327000000000560860000000000000000000000000000000000000000000000000000000000000000000000000000000000000000000000000000000000000000000000000000000000000000000000000000000000000000000000000000000000000000000170800000000
17125200000000000000020100000025826530000002856162000000305503500000025558930000002838323000000256361400000025149060000002678490000000000000000000000000000000000000000000000000000000000376666600000376666600000376666600000376666600000376666600000376667000000000000000000000000
17125240000000000000020100000025826530000002856162000000305503500000025558930000002838323000000256361400000025149060000002678490000000000000000000000000000000000000000000000000000000000376666600000376666600000376666600000376666600000376666600000376667000000000000000000000000
17125241000000000000020100000025826530000002856162000000305503500000025558930000002838323000000256361400000025149060000002678490000000000000000000000000000000000000000000000000000000000376666600000376666600000376666600000376666600000376666600000376667000000000000170400000000
17130000000000000000020100000150977430000014439059000001331405900000146177380000016085762000001496809300000163992540000015421284000000000000000000000000000000000000000000000000000000002796666000002796666000002796666000002796666000002796666000002796670000000000000000000000000
17135000000000000000020100000150977430000014439059000001331405900000146177380000016085762000001496809300000163992540000015421284000000000000000000000000000000000000000000000000000000002796666000002796666000002796666000002796666000002796666000002796670000000000000000000000000
17135010000000000000020100000119780730000012626288000001150128800000121516240000013680243000001306511800000138327180000013065118000000000000000000000000000000000000000000000000000000002293333200002293333200002293333200002293333200002293333200002293334000000000000000000000000
17135011000000000000020100000119780730000012626288000001150128800000121516240000013680243000001306511800000138327180000013065118000000000000000000000000000000000000000000000000000000002293333200002293333200002293333200002293333200002293333200002293334000000000000000000000000
17135011010000000000020100000048576000000004857600000000485760000000048576000000004857600000000485760000000048576000000004857600000000000000000000000000000000000000000000000000000000000686666600000686666600000686666600000686666600000686666600000686667000000000000160400000000
17135011020000000000020100000070860380000007768688000000664368800000072940240000008822643000000820751800000089751180000008207518000000000000000000000000000000000000000000000000000000001606666600001606666600001606666600001606666600001606666600001606667000000000000160000000000
17135011060000000000020100000000144350000000000000000000000000000000000000000000000000000000000000000000000000000000000000000000000000000000000000000000000000000000000000000000000000000000000000000000000000000000000000000000000000000000000000000000000000000000000160000000000
17135011070000000000020100000000200000000000000000000000000000000000000000000000000000000000000000000000000000000000000000000000000000000000000000000000000000000000000000000000000000000000000000000000000000000000000000000000000000000000000000000000000000000000000160000000000
17135020000000000000020100000000735830000000073583000000007358300000000735830000000073583000000007358300000000735830000000073583000000000000000000000000000000000000000000000000000000000015000000000015000000000015000000000015000000000015000000000015000000000000000000000000000
17135021000000000000020100000000735830000000073583000000007358300000000735830000000073583000000007358300000000735830000000073583000000000000000000000000000000000000000000000000000000000015000000000015000000000015000000000015000000000015000000000015000000000000000000000000000
17135021010000000000020100000000735830000000073583000000007358300000000735830000000073583000000007358300000000735830000000073583000000000000000000000000000000000000000000000000000000000015000000000015000000000015000000000015000000000015000000000015000000000000000160000000000
17135030000000000000020100000010794010000001076099000000107609900000017341500000001076099000000117609900000015760990000001276099000000000000000000000000000000000000000000000000000000000246666400000246666400000246666400000246666400000246666400000246668000000000000000000000000
17135031000000000000020100000010794010000001076099000000107609900000017341500000001076099000000117609900000015760990000001276099000000000000000000000000000000000000000000000000000000000246666400000246666400000246666400000246666400000246666400000246668000000000000000000000000
17135031010000000000020100000009108000000000910800000000091080000000009108000000000910800000000091080000000009108000000000910800000000000000000000000000000000000000000000000000000000000138333200000138333200000138333200000138333200000138333200000138334000000000000160400000000
17135031020000000000020100000000000000000000000000000000000000000000000000000000000000000000000010000000000005000000000000200000000000000000000000000000000000000000000000000000000000000015000000000015000000000015000000000015000000000015000000000015000000000000000160000000000
17135031030000000000020100000001686010000000165299000000016529900000008233500000000165299000000016529900000001652990000000165299000000000000000000000000000000000000000000000000000000000093333200000093333200000093333200000093333200000093333200000093334000000000000160000000000
17135040000000000000020100000016174640000000404366000000040436600000004043660000001004366000000040436600000004579300000000779314000000000000000000000000000000000000000000000000000000000088333200000088333200000088333200000088333200000088333200000088334000000000000000000000000
17135041000000000000020100000016174640000000404366000000040436600000004043660000001004366000000040436600000004579300000000779314000000000000000000000000000000000000000000000000000000000088333200000088333200000088333200000088333200000088333200000088334000000000000000000000000
17135041010000000000020100000004043660000000404366000000040436600000004043660000000404366000000040436600000004579300000000779314000000000000000000000000000000000000000000000000000000000088333200000088333200000088333200000088333200000088333200000088334000000000000160000000000
17135041020000000000020100000012130980000000000000000000000000000000000000000000000000000000000000000000000000000000000000000000000000000000000000000000000000000000000000000000000000000000000000000000000000000000000000000000000000000000000000000000000000000000000160031010000
17135041030000000000020100000000000000000000000000000000000000000000000000000000000600000000000000000000000000000000000000000000000000000000000000000000000000000000000000000000000000000000000000000000000000000000000000000000000000000000000000000000000000000000000160000000000
17135050000000000000020100000003492220000000258723000000025872300000002540150000000251471000000024892700000004589240000000227170000000000000000000000000000000000000000000000000000000000153333200000153333200000153333200000153333200000153333200000153334000000000000000000000000
17135051000000000000020100000003492220000000258723000000025872300000002540150000000251471000000024892700000004589240000000227170000000000000000000000000000000000000000000000000000000000153333200000153333200000153333200000153333200000153333200000153334000000000000000000000000
17135051010000000000020100000003492220000000258723000000025872300000002540150000000251471000000024892700000004589240000000227170000000000000000000000000000000000000000000000000000000000153333200000153333200000153333200000153333200000153333200000153334000000000000160500000000
17140000000000000000020100000059545470000005234887000000607958000000068868840000005185015000000529478200000054193990000005089682000000000000000000000000000000000000000000000000000000001383333000001383333000001383333000001383333000001383333000001383335000000000000000000000000
17145000000000000000020100000059545470000003643937000000363696800000036025120000003594065000000370383200000038284490000003498732000000000000000000000000000000000000000000000000000000000733333200000733333200000733333200000733333200000733333200000733334000000000000000000000000
17145001000000000000020100000059545470000003643937000000363696800000036025120000003594065000000370383200000038284490000003498732000000000000000000000000000000000000000000000000000000000733333200000733333200000733333200000733333200000733333200000733334000000000000155000000000
17145200000000000000020100000000000000000001590950000000159095000000015909500000001590950000000159095000000015909500000001590950000000000000000000000000000000000000000000000000000000000208333200000208333200000208333200000208333200000208333200000208334000000000000000000000000
17145201000000000000020100000000000000000001590950000000159095000000015909500000001590950000000159095000000015909500000001590950000000000000000000000000000000000000000000000000000000000208333200000208333200000208333200000208333200000208333200000208334000000000000155200000000
17145300000000000000020100000000000000000000000000000000085166200000016934220000000000000000000000000000000000000000000000000000000000000000000000000000000000000000000000000000000000000096666600000096666600000096666600000096666600000096666600000096667000000000000000000000000
17145301000000000000020100000000000000000000000000000000085166200000016934220000000000000000000000000000000000000000000000000000000000000000000000000000000000000000000000000000000000000096666600000096666600000096666600000096666600000096666600000096667000000000000155300000000
17149900000000000000020100000000000000000000000000000000000000000000000000000000000000000000000000000000000000000000000000000000000000000000000000000000000000000000000000000000000000000345000000000345000000000345000000000345000000000345000000000345000000000000000000000000000
17149901000000000000020100000000000000000000000000000000000000000000000000000000000000000000000000000000000000000000000000000000000000000000000000000000000000000000000000000000000000000345000000000345000000000345000000000345000000000345000000000345000000000000000000000000000
17149901010000000000020100000000000000000000000000000000000000000000000000000000000000000000000000000000000000000000000000000000000000000000000000000000000000000000000000000000000000000225000000000225000000000225000000000225000000000225000000000225000000000000000156900000000
17149901020000000000020100000000000000000000000000000000000000000000000000000000000000000000000000000000000000000000000000000000000000000000000000000000000000000000000000000000000000000120000000000120000000000120000000000120000000000120000000000120000000000000000156900000000
17160000000000000000020100000003456000000000790250000000079525100000007413340000001184377000000034600000000067071060000001183181000000000000000000000000000000000000000000000000000000000351666400000351666400000351666400000351666400000351666400000351668000000000000000000000000
17165000000000000000020100000003456000000000790250000000079525100000007413340000001184377000000034600000000067071060000001183181000000000000000000000000000000000000000000000000000000000351666400000351666400000351666400000351666400000351666400000351668000000000000000000000000
17165001000000000000020100000003456000000000790250000000079525100000007413340000001184377000000034600000000067071060000001183181000000000000000000000000000000000000000000000000000000000351666400000351666400000351666400000351666400000351666400000351668000000000000000000000000
17165001020000000000020100000000000000000000000000000000000000000000000000000000000445241000000000000000000023789980000000425381000000000000000000000000000000000000000000000000000000000200000000000200000000000200000000000200000000000200000000000200000000000000000166000000000
17165001030000000000020100000000000000000000449250000000044925100000003953340000000403136000000000000000000007355060000000421800000000000000000000000000000000000000000000000000000000000078333200000078333200000078333200000078333200000078333200000078334000000000000166000000000
17165001040000000000020100000003456000000000341000000000034600000000003460000000000336000000000034600000000003410000000000336000000000000000000000000000000000000000000000000000000000000050000000000050000000000050000000000050000000000050000000000050000000000000000166000000000
17165001060000000000020100000000000000000000000000000000000000000000000000000000000000000000000000000000000006000000000000000000000000000000000000000000000000000000000000000000000000000023333200000023333200000023333200000023333200000023333200000023334000000000000166000000000
17165001090000000000020100000000000000000000000000000000000000000000000000000000000000000000000000000000000026516020000000000000000000000000000000000000000000000000000000000000000000000000000000000000000000000000000000000000000000000000000000000000000000000000000166031010000
17170000000000000000020100000000000000000000000000000000000000000000092964000000000000000000000000000000000000000000000000000000000000000000000000000000000000000000000000000000000000000000000000000000000000000000000000000000000000000000000000000000000000000000000000000000000
17179900000000000000020100000000000000000000000000000000000000000000092964000000000000000000000000000000000000000000000000000000000000000000000000000000000000000000000000000000000000000000000000000000000000000000000000000000000000000000000000000000000000000000000000000000000
17179901000000000000020100000000000000000000000000000000000000000000092964000000000000000000000000000000000000000000000000000000000000000000000000000000000000000000000000000000000000000000000000000000000000000000000000000000000000000000000000000000000000000000000000000000000
17179901020000000000020100000000000000000000000000000000000000000000092964000000000000000000000000000000000000000000000000000000000000000000000000000000000000000000000000000000000000000000000000000000000000000000000000000000000000000000000000000000000000000000000174731010000
17190000000000000000020100000006533270000000653327000000065332700000006533270000000653327000000065332700000006533270000000653327000000000000000000000000000000000000000000000000000000000175000000000175000000000175000000000175000000000175000000000175000000000000000000000000000
17195800000000000000020100000006533270000000653327000000065332700000006533270000000653327000000065332700000006533270000000653327000000000000000000000000000000000000000000000000000000000175000000000175000000000175000000000175000000000175000000000175000000000000000000000000000
17195801000000000000020100000006533270000000653327000000065332700000006533270000000653327000000065332700000006533270000000653327000000000000000000000000000000000000000000000000000000000175000000000175000000000175000000000175000000000175000000000175000000000000000150100000000
17200000000000000000020100001124607580000106905616000010314123500001697657850000135955311000010060938200001420259400000100528264000000000000000000000000000000000000000000000000000000021498508800024027758800021576708800022080418800021370708800028722392000000000000000000000000
17210000000000000000020100001088922840000099371932000009686180400001235326850000128586411000009432848200001027625800000094358564000000000000000000000000000000000000000000000000000000019991842600022521092600020070042600020573752600019864042600027215723000000000000000000000000
17215000000000000000020100000837074240000086279816000008740555200001072972850000109443611000008883256800000979852790000090815895000000000000000000000000000000000000000000000000000000016130574000018595594000018378054000020170284000019828764000024302954000000000000000000000000
17215001000000000000020100001046342810000107849770000010925694100001341216080000136804514000011104071000001224815990000113519870000000000000000000000000000000000000000000000000000000021022500000023487520000023269980000025062210000024720690000029194880000000000000150000000000
172150010000000000000201-000020926857-000021569954-000021851389-000026824323-000027360903-000022208142-000024496320-0000227039750000000000000000000000000000000000000000000000000000-00048919260-00048919260-00048919260-00048919260-00048919260-0004891926010500000000150000000000
172151000000000000000201000002379379700000121202070000008335107000001480226600000181951990000004276011000000338752600000025470940000000000000000000000000000000000000000000000000000000036291800000037014200000014982200000002028800-0000223240000002667620000000000000000000000000
17215101000000000000020100000297422500000015150259000001041888700000185028350000022744003000000534501700000042344110000003183868000000000000000000000000000000000000000000000000000000004107350000004179590000001976390000000681050000000254930000003145790000000000000150000000000
172151010000000000000201-000005948453-000003030052-000002083780-000003700569-000004548804-000001069006-000000846885-0000006367740000000000000000000000000000000000000000000000000000-00004781700-00004781700-00004781700-00004781700-00004781700-0000478170010500000000150000000000
17215200000000000000020100000011309380000000971909000000112114500000011942460000000947601000000121990300000011270020000000995575000000000000000000000000000000000000000000000000000000000220422000000212412000000182102000000188922000000246852000000233482000000000000000000000000
17215201000000000000020100000014136730000001214887000000140143200000014928080000001184501000000152488000000014087530000001244469000000000000000000000000000000000000000000000000000000000273930000000265920000000235610000000242430000000300360000000286990000000000000150000000000
172152010000000000000201-000000282735-000000242978-000000280287-000000298562-000000236900-000000304977-000000281751-0000002488940000000000000000000000000000000000000000000000000000-00000535080-00000535080-00000535080-00000535080-00000535080-0000053508010500000000150000000000
17215300000000000000020100000002601250000000000000000000000000000000002388880000000000000000000000000000000002627730000000000000000000000000000000000000000000000000000000000000000000000011666600000011666600000011666600000011666600000011666600000011667000000000000000000000000
17215301000000000000020100000002601250000000000000000000000000000000002388880000000000000000000000000000000002627730000000000000000000000000000000000000000000000000000000000000000000000011666600000011666600000011666600000011666600000011666600000011667000000000000175000000000
17230000000000000000020100000029684740000004248850000000299906000000129527290000004088529000000300052900000059889290000002889329000000000000000000000000000000000000000000000000000000000924999600000924999600000924999600000924999600000924999600000925002000000000000000000000000
17235000000000000000020100000029684740000004248850000000299906000000129527290000004088529000000300052900000059889290000002889329000000000000000000000000000000000000000000000000000000000924999600000924999600000924999600000924999600000924999600000925002000000000000000000000000
17235001000000000000020100000029684740000004248850000000299906000000129527290000004088529000000300052900000059889290000002889329000000000000000000000000000000000000000000000000000000000924999600000924999600000924999600000924999600000924999600000925002000000000000000000000000
17235001010000000000020100000015622260000001587894000000158789400000016378940000001637894000000163789400000016378940000000787894000000000000000000000000000000000000000000000000000000000425000000000425000000000425000000000425000000000425000000000425000000000000000162100000000
17235001020000000000020100000009777860000000954131000000095413100000008500000000000850000000000085000000000008500000000001632000000000000000000000000000000000000000000000000000000000000333333200000333333200000333333200000333333200000333333200000333334000000000000162100000000
17235001030000000000020100000002964000000000280800000000028860000000002964000000000304200000000030420000000002886000000000273000000000000000000000000000000000000000000000000000000000000083333200000083333200000083333200000083333200000083333200000083334000000000000162100000000
17235001040000000000020100000001320620000000168435000000016843500000001684350000000168435000000016843500000001684350000000168435000000000000000000000000000000000000000000000000000000000083333200000083333200000083333200000083333200000083333200000083334000000000000162100000000
17235001100000000000020100000000000000000001257590000000000000000000000000000000000000000000000000000000000000000000000000000000000000000000000000000000000000000000000000000000000000000000000000000000000000000000000000000000000000000000000000000000000000000000000162100000000
17235001110000000000020100000000000000000000000000000000000000000000100000000000000000000000000000000000000000000000000000000000000000000000000000000000000000000000000000000000000000000000000000000000000000000000000000000000000000000000000000000000000000000000000162132100000
17235001120000000000020100000000000000000000000000000000000000000000000000000000000128000000000004000000000000440000000000028000000000000000000000000000000000000000000000000000000000000000000000000000000000000000000000000000000000000000000000000000000000000000000162100000000
17235001130000000000020100000000000000000000000000000000000000000000000000000000001000000000000000000000000030000000000000000000000000000000000000000000000000000000000000000000000000000000000000000000000000000000000000000000000000000000000000000000000000000000000162100000000
17240000000000000000020100000006000000000003284834000000328037100000082803710000003280371000000328037100000332744310000003280371000000000000000000000000000000000000000000000000000000000581666600000581666600000581666600000581666600000581666600000581667000000000000000000000000
17245100000000000000020100000000000000000002980371000000298037100000029803710000002980371000000298037100000029803710000002980371000000000000000000000000000000000000000000000000000000000525000000000525000000000525000000000525000000000525000000000525000000000000000000000000000
17245101010000000000020100000000000000000002980371000000298037100000029803710000002980371000000298037100000029803710000002980371000000000000000000000000000000000000000000000000000000000525000000000525000000000525000000000525000000000525000000000525000000000000000000000000000
17245101010100000000020100000000000000000002980371000000298037100000029803710000002980371000000298037100000029803710000002980371000000000000000000000000000000000000000000000000000000000525000000000525000000000525000000000525000000000525000000000525000000000000000157100000000
17249900000000000000020100000006000000000000304463000000030000000000053000000000000300000000000030000000000302940600000000300000000000000000000000000000000000000000000000000000000000000056666600000056666600000056666600000056666600000056666600000056667000000000000000000000000
17249901000000000000020100000006000000000000304463000000030000000000053000000000000300000000000030000000000302940600000000300000000000000000000000000000000000000000000000000000000000000056666600000056666600000056666600000056666600000056666600000056667000000000000000000000000
17249901030000000000020100000000000000000000000000000000000000000000050000000000000000000000000000000000000000000000000000000000000000000000000000000000000000000000000000000000000000000000000000000000000000000000000000000000000000000000000000000000000000000000000000000000000
17249901030100000000020100000000000000000000000000000000000000000000050000000000000000000000000000000000000000000000000000000000000000000000000000000000000000000000000000000000000000000000000000000000000000000000000000000000000000000000000000000000000000000000000170132100000
17249901990000000000020100000006000000000000304463000000030000000000003000000000000300000000000030000000000302940600000000300000000000000000000000000000000000000000000000000000000000000056666600000056666600000056666600000056666600000056666600000056667000000000000000000000000
17249901990100000000020100000006000000000000300000000000030000000000003000000000000300000000000030000000000003000000000000300000000000000000000000000000000000000000000000000000000000000055000000000055000000000055000000000055000000000055000000000055000000000000000170100000000
17249901990200000000020100000000000000000000004463000000000000000000000000000000000000000000000000000000000000000000000000000000000000000000000000000000000000000000000000000000000000000001666600000001666600000001666600000001666600000001666600000001667000000000000175200000000
17249901990800000000020100000000000000000000000000000000000000000000000000000000000000000000000000000000000299940600000000000000000000000000000000000000000000000000000000000000000000000000000000000000000000000000000000000000000000000000000000000000000000000000000170132010000
17290000000000000000020100000000000000000000000000000000000000000000250000000000000000000000000000000000000000000000000000000000000000000000000000000000000000000000000000000000000000000000000000000000000000000000000000000000000000000000000000000000000000000000000000000000000
17299900000000000000020100000000000000000000000000000000000000000000250000000000000000000000000000000000000000000000000000000000000000000000000000000000000000000000000000000000000000000000000000000000000000000000000000000000000000000000000000000000000000000000000000000000000
17299901000000000000020100000000000000000000000000000000000000000000250000000000000000000000000000000000000000000000000000000000000000000000000000000000000000000000000000000000000000000000000000000000000000000000000000000000000000000000000000000000000000000000000000000000000
