12292535000162010120253108202509092025CAMARA DE VEREADORES DE INDEPENDENCIA-RS                                        
100000000000000000000000000001241785700000000000000000817632640000081863811600000114123810000000000000ATIVO                                                                                                                                               S01 NPF
110000000000000000000000000000022383800000000000000000813896640000081314661900000009738590000000000000ATIVO CIRCULANTE                                                                                                                                    S02 NP 
111000000000000000000000000000000000000000000000000000563274509000056283504500000004394640000000000000CAIXA E EQUIVALENTES DE CAIXA                                                                                                                       S03 NPF
111100000000000000000000000000000000000000000000000000563203191000056276372700000004394640000000000000CAIXA E EQUIVALENTES DE CAIXA EM MOEDA NACIONAL                                                                                                     S04 NPF
111110000000000000000000000000000000000000000000000000563203191000056276372700000004394640000000000000CAIXA E EQUIVALENTES DE CAIXA EM MOEDA NACIONAL - CONSOLIDACAO                                                                                      S05 NPF
111111900000000000000000000000000000000000000000000000374334415000037389495100000004394640000000000000BANCOS CONTA MOVIMENTO - DEMAIS CONTAS                                                                                                              S06 NPF
111111912000000000000000000000000000000000000000000000374334415000037389495100000004394640000000000000BANCO DO ESTADO DO RIO GRANDE DO SUL                                                                                                                S07 NPF
111111912050000000000101000000000000000000000000000000374334415000037389495100000004394640000000000000BANRISUL GERAL CAMARA MOV 0001 1064/040801870-6                                                                                                     A08 SPF
111115000000000000000000000000000000000000000000000000188868776000018886877600000000000000000000000000APLICACOES FINANCEIRAS DE LIQUIDEZ IMEDIATA - USO GERAL                                                                                             S06 NPF
111115003000000000000000000000000000000000000000000000188868776000018886877600000000000000000000000000FUNDOS DE INVESTIMENTO                                                                                                                              S07 NPF
111115003220000000000101000000000000000000000000000000188868776000018886877600000000000000000000000000BANRISUL GERAL CAMARA APLIC 0001 1064/040801870-6                                                                                                   A08 SPF
111300000000000000000000000000000000000000000000000000000071318000000007131800000000000000000000000000CAIXA E EQUIVALENTES DE CAIXA - VALORES RESTITUIVEIS E VINCULADOS                                                                                   S04 NPP
111310000000000000000000000000000000000000000000000000000071318000000007131800000000000000000000000000DEPOSITOS RESTITUIVEIS E VALORES VINCULADOS - CONSOLIDACAO                                                                                          S05 NPF
111310100000000000000000000000000000000000000000000000000071318000000007131800000000000000000000000000DEPOSITOS CONSIGNADOS                                                                                                                               S06 NPF
111310104000000000000101000000000000000000000000000000000071318000000007131800000000000000000000000000BANRISUL CM RETENCOES MOV 8001 1064/040801870-6                                                                                                     A07 SPF
113000000000000000000000000000000000000000000000000000249942352000024994235200000000000000000000000000DEMAIS CREDITOS E VALORES A CURTO PRAZO                                                                                                             S03 NPP
113800000000000000000000000000000000000000000000000000249942352000024994235200000000000000000000000000OUTROS CREDITOS A RECEBER E VALORES A CURTO PRAZO                                                                                                   S04 NPP
113820000000000000000000000000000000000000000000000000249942352000024994235200000000000000000000000000OUTROS CREDITOS A RECEBER E VALORES A CURTO PRAZO - INTRA-OFSS                                                                                      S05 NPP
113829900000000000000000000000000000000000000000000000249942352000024994235200000000000000000000000000OUTROS CREDITOS A RECEBER E VALORES DE  CURTO PRAZO - INTRA-OFSS                                                                                    S06 NPP
113829901000000000000101000000000000000000000000000000249942352000024994235200000000000000000000000000DUODECIMO A RECEBER DO EXECUTIVO - INTRA-OFSS                                                                                                       A07 SPP
115000000000000000000000000000022383800000000000000000000664779000000036172200000005268950000000000000ESTOQUES                                                                                                                                            S03 NPP
115600000000000000000000000000022383800000000000000000000664779000000036172200000005268950000000000000ALMOXARIFADO                                                                                                                                        S04 NPP
115610000000000000000000000000022383800000000000000000000664779000000036172200000005268950000000000000ALMOXARIFADO - CONSOLIDACAO                                                                                                                         S05 NPP
115619900000000000000101000000022383800000000000000000000664779000000036172200000005268950000000000000OUTROS - ALMOXARIFADO                                                                                                                               A06 SPP
119000000000000000000000000000000000000000000000000000000015000000000000750000000000075000000000000000VARIACOES PATRIMONIAIS DIMINUTIVAS PAGAS ANTECIPADAMENTE                                                                                            S03 NPF
119300000000000000000000000000000000000000000000000000000015000000000000750000000000075000000000000000ASSINATURAS E ANUIDADES A APROPRIAR                                                                                                                 S04 NPF
119310000000000000000101000000000000000000000000000000000015000000000000750000000000075000000000000000ASSINATURAS E ANUIDADES A APROPRIAR - CONSOLIDACAO                                                                                                  A05 SPP
120000000000000000000000000001219401900000000000000000003736000000000549149700000104385220000000000000ATIVO NAO CIRCULANTE                                                                                                                                S02 NPF
123000000000000000000000000001219401900000000000000000003736000000000549149700000104385220000000000000IMOBILIZADO                                                                                                                                         S03 NPP
123100000000000000000000000001302703300000000000000000003736000000000294189500000138211380000000000000BENS MOVEIS                                                                                                                                         S04 NPP
123110000000000000000000000001302703300000000000000000003736000000000294189500000138211380000000000000BENS MOVEIS- CONSOLIDACAO                                                                                                                           S05 NPP
123110100000000000000000000000257872500000000000000000000000000000000000000000000025787250000000000000MAQUINAS APARELHOS EQUIPAMENTOS E FERRAMENTAS                                                                                                       S06 NPP
123110199000000000000101000000257872500000000000000000000000000000000000000000000025787250000000000000OUTRAS MAQUINAS APARELHOS EQUIPAMENTOS E FERRAMENTAS                                                                                                A07 SPP
123110200000000000000000000000493543800000000000000000001410800000000000000000000063462380000000000000BENS DE INFORMATICA                                                                                                                                 S06 NPP
123110201000000000000101000000334808300000000000000000001410800000000000000000000047588830000000000000EQUIPAMENTOS DE PROCESSAMENTO DE DADOS                                                                                                              A07 SPP
123110202000000000000101000000158735500000000000000000000000000000000000000000000015873550000000000000EQUIPAMENTOS DE TECNOLOGIA DA INFORMACAO                                                                                                            A07 SPP
123110300000000000000000000000211911200000000000000000000447400000000003491700000025315950000000000000MOVEIS E UTENSILIOS                                                                                                                                 S06 NPP
123110301000000000000101000000015973200000000000000000000302600000000000000000000004623320000000000000APARELHOS E UTENSILIOS DOMESTICOS                                                                                                                   A07 SPP
123110302000000000000101000000000000000000000000000000000005000000000000500000000000000000000000000000MAQUINAS E UTENSILIOS DE ESCRITORIO                                                                                                                 A07 SPP
123110303000000000000101000000195938000000000000000000000139800000000002991700000020692630000000000000MOBILIARIO EM GERAL                                                                                                                                 A07 SPP
123110400000000000000000000000337275800000000000000000000000000000000104147800000023312800000000000000MATERIAIS CULTURAIS EDUCACIONAIS E DE COMUNICACAO                                                                                                   S06 NPP
123110405000000000000101000000150303800000000000000000000000000000000010340000000013996380000000000000EQUIPAMENTOS PARA AUDIO VIDEO E FOTO                                                                                                                A07 SPP
123110499000000000000101000000186972000000000000000000000000000000000093807800000009316420000000000000OUTROS MATERIAIS CULTURAIS EDUCACIONAIS E DE COMUNICACAO                                                                                            A07 SPP
123119900000000000000000000000002100000000000000000000001877800000000186550000000000333000000000000000DEMAIS BENS MOVEIS                                                                                                                                  S06 NPP
123119908000000000000101000000000000000000000000000000001865500000000186550000000000000000000000000000BENS MOVEIS A CLASSIFICAR                                                                                                                           A07 SPP
123119999000000000000000000000002100000000000000000000000012300000000000000000000000333000000000000000OUTROS BENS MOVEIS                                                                                                                                  S07 NPP
123119999020000000000101000000002100000000000000000000000012300000000000000000000000333000000000000000MATERIAL PERMANENTE CONTROLADO POR RELACAO CARGA                                                                                                    A08 SPP
123200000000000000000000000000487223400000000000000000000000000000000127223400000036000000000000000000BENS IMOVEIS                                                                                                                                        S04 NPP
123210000000000000000000000000487223400000000000000000000000000000000127223400000036000000000000000000BENS IMOVEIS- CONSOLIDACAO                                                                                                                          S05 NPP
123210100000000000000000000000360000000000000000000000000000000000000000000000000036000000000000000000BENS DE USO ESPECIAL                                                                                                                                S06 NPP
123210104000000000000101000000360000000000000000000000000000000000000000000000000036000000000000000000TERRENOS/GLEBAS                                                                                                                                     A07 SPP
123210600000000000000000000000127223400000000000000000000000000000000127223400000000000000000000000000BENS IMOVEIS EM ANDAMENTO                                                                                                                           S06 NPP
123210601000000000000000000000127223400000000000000000000000000000000127223400000000000000000000000000OBRAS EM ANDAMENTO                                                                                                                                  S07 NPP
123210601020000000000101000000127223400000000000000000000000000000000127223400000000000000000000000000CONSTRUCAO DA SEDE DA CAMARA DE VEREADORES                                                                                                          A08 SPP
123800000000000000000000000000000000000000057052480000000000000000000127736800000000000000000006982616- DEPRECIACAO EXAUSTAO E AMORTIZACAO ACUMULADAS                                                                                                     S04 NPP
123810000000000000000000000000000000000000057052480000000000000000000127736800000000000000000006982616- DEPRECIACAO EXAUSTAO E AMORTIZACAO ACUMULADAS - CONSOLIDACAO                                                                                      S05 NPP
123810100000000000000000000000000000000000057052480000000000000000000127736800000000000000000006982616- DEPRECIACAO ACUMULADA  BENS MOVEIS                                                                                                                S06 NPP
123810101000000000000101000000000000000000011824670000000000000000000018732900000000000000000001369796- DEPRECIACAO ACUMULADA DE MAQUINAS APARELHOS EQUIPAMENTOS E FERRAMENTAS                                                                            A07 SPP
123810102000000000000101000000000000000000024655070000000000000000000079930800000000000000000003264815- DEPRECIACAO ACUMULADA DE BENS DE INFORMATICA                                                                                                      A07 SPP
123810103000000000000101000000000000000000009634580000000000000000000007034900000000000000000001033807- DEPRECIACAO ACUMULADA DE MOVEIS E UTENSILIOS                                                                                                      A07 SPP
123810104000000000000101000000000000000000010938160000000000000000000022038200000000000000000001314198- DEPRECIACAO ACUMULADA DE MATERIAIS CULTURAIS EDUCACIONAIS E DE COMUNICACAO                                                                        A07 SPP
200000000000000000000000000000000000000000124178570000803444872000080243939600000000000000000011412381PASSIVO E PATRIMONIO LIQUIDO                                                                                                                        S01 NPF
210000000000000000000000000000000000000000014514230000162837364000016156336300000000000000000000177422PASSIVO CIRCULANTE                                                                                                                                  S02 NPF
211000000000000000000000000000000000000000014514230000111929436000011065543500000000000000000000177422OBRIGACOES TRABALHISTAS PREVIDENCIARIAS E ASSISTENCIAIS A PAGAR A CURTO PRAZO                                                                       S03 NPF
211100000000000000000000000000000000000000014514230000103554622000010228062100000000000000000000177422PESSOAL A PAGAR                                                                                                                                     S04 NPF
211110000000000000000000000000000000000000014514230000103554622000010228062100000000000000000000177422PESSOAL A PAGAR - CONSOLIDACAO                                                                                                                      S05 NPF
211110100000000000000000000000000000000000014514230000103554622000010228062100000000000000000000177422PESSOAL A PAGAR                                                                                                                                     S06 NPF
211110101000000000000000000000000000000000000000000000071902607000007190260700000000000000000000000000SALARIOS REMUNERACOES E BENEFICIOS                                                                                                                  S07 NPF
211110101020000000000101000000000000000000000000000000071902607000007190260700000000000000000000000000SALARIOS REMUNERACOES E BENEFICIOS F                                                                                                                A08 SPF
211110102000000000000000000000000000000000000000000000013358316000001335831600000000000000000000000000DECIMO TERCEIRO SALARIO                                                                                                                             S07 NPP
211110102010000000000101000000000000000000000000000000006679158000000667915800000000000000000000000000DECIMO TERCEIRO SALARIO P                                                                                                                           A08 SPP
211110102020000000000101000000000000000000000000000000006679158000000667915800000000000000000000000000DECIMO TERCEIRO SALARIO F                                                                                                                           A08 SPF
211110103000000000000000000000000000000000014514230000018293699000001701969800000000000000000000177422FERIAS                                                                                                                                              S07 NPP
211110103010000000000101000000000000000000014514230000010178273000000890427200000000000000000000177422FERIAS P                                                                                                                                            A08 SPP
211110103020000000000101000000000000000000000000000000008115426000000811542600000000000000000000000000FERIAS F                                                                                                                                            A08 SPF
211400000000000000000000000000000000000000000000000000008374814000000837481400000000000000000000000000ENCARGOS SOCIAIS A PAGAR                                                                                                                            S04 NPF
211420000000000000000000000000000000000000000000000000002533072000000253307200000000000000000000000000ENCARGOS SOCIAIS A PAGAR-INTRA OFSS                                                                                                                 S05 NPF
211420100000000000000000000000000000000000000000000000002533072000000253307200000000000000000000000000CONTRIBUICAO A REGIME PROPRIO DE PREVIDENCIA RPPS                                                                                                   S06 NPF
211420102000000000000101000000000000000000000000000000002533072000000253307200000000000000000000000000CONTRIBUICAO A REGIME PROPRIO DE PREVIDENCIA RPPS F                                                                                                 A07 SPF
211430000000000000000000000000000000000000000000000000005841742000000584174200000000000000000000000000ENCARGOS SOCIAIS A PAGAR-INTER OFSS - UNIAO                                                                                                         S05 NPF
211430100000000000000000000000000000000000000000000000005841742000000584174200000000000000000000000000CONTRIBUICOES AO RGPS A PAGAR                                                                                                                       S06 NPF
211430101000000000000000000000000000000000000000000000005841742000000584174200000000000000000000000000CONTRIBUICOES AO RGPS SOBRE SALARIOS E REMUNERACOES                                                                                                 S07 NPF
211430101020000000000101000000000000000000000000000000005841742000000584174200000000000000000000000000CONTRIBUICOES AO RGPS SOBRE SALARIOS E REMUNERACOES F                                                                                               A08 SPF
213000000000000000000000000000000000000000000000000000032703285000003270328500000000000000000000000000FORNECEDORES E CONTAS A PAGAR A CURTO PRAZO                                                                                                         S03 NPF
213100000000000000000000000000000000000000000000000000032703285000003270328500000000000000000000000000FORNECEDORES E CONTAS A PAGAR NACIONAIS A CURTO PRAZO                                                                                               S04 NPF
213110000000000000000000000000000000000000000000000000032703285000003270328500000000000000000000000000FORNECEDORES E CONTAS A PAGAR NACIONAIS A CURTO PRAZO - CONSOLIDACAO                                                                                S05 NPF
213110100000000000000000000000000000000000000000000000032703285000003270328500000000000000000000000000FORNECEDORES NACIONAIS                                                                                                                              S06 NPF
213110101000000000000000000000000000000000000000000000032703285000003270328500000000000000000000000000FORNECEDORES NAO PARCELADOS A PAGAR                                                                                                                 S07 NPF
213110101010000000000101000000000000000000000000000000032703285000003270328500000000000000000000000000FORNECEDORES DO EXERCICIO                                                                                                                           A08 SPF
218000000000000000000000000000000000000000000000000000018204643000001820464300000000000000000000000000ADIANTAMENTO DE CLIENTES E DEMAIS OBRIGACOES A CURTO PRAZO                                                                                          S03 NPF
218800000000000000000000000000000000000000000000000000006019986000000601998600000000000000000000000000VALORES RESTITUIVEIS                                                                                                                                S04 NPF
218810000000000000000000000000000000000000000000000000005948668000000594866800000000000000000000000000VALORES RESTITUIVEIS - CONSOLIDACAO                                                                                                                 S05 NPF
218810400000000000000000000000000000000000000000000000005948668000000594866800000000000000000000000000DEPOSITOS NAO JUDICIAIS                                                                                                                             S06 NPF
218810499000000000000101000000000000000000000000000000005948668000000594866800000000000000000000000000OUTROS DEPOSITOS                                                                                                                                    A07 SPF
218830000000000000000000000000000000000000000000000000000071318000000007131800000000000000000000000000VALORES RESTITUIVEIS - INTER UNIAO                                                                                                                  S05 NPF
218830100000000000000000000000000000000000000000000000000071318000000007131800000000000000000000000000CONSIGNACOES                                                                                                                                        S06 NPF
218830104000000000000000000000000000000000000000000000000071318000000007131800000000000000000000000000IMPOSTO SOBRE A RENDA RETIDO NA FONTE - IRRF                                                                                                        S07 NPF
218830104020000000000101000000000000000000000000000000000071318000000007131800000000000000000000000000IRRF SERVICOS PJ 1708-06 LEGISLATIVO                                                                                                                A08 SPF
218900000000000000000000000000000000000000000000000000012184657000001218465700000000000000000000000000OUTRAS OBRIGACOES A CURTO PRAZO                                                                                                                     S04 NPF
218910000000000000000000000000000000000000000000000000012184657000001218465700000000000000000000000000OUTRAS OBRIGACOES A CURTO PRAZO - CONSOLIDACAO                                                                                                      S05 NPF
218910200000000000000101000000000000000000000000000000012184657000001218465700000000000000000000000000DIARIAS A PAGAR                                                                                                                                     A06 SPF
230000000000000000000000000000000000000000109664340000640607508000064087603300000000000000000011234959PATRIMONIO LIQUIDO                                                                                                                                  S02 NPF
237000000000000000000000000000000000000000109664340000640607508000064087603300000000000000000011234959RESULTADOS ACUMULADOS                                                                                                                               S03 NP 
237100000000000000000000000000000000000000109664340000640607508000064087603300000000000000000011234959SUPERAVITS OU DEFICITS ACUMULADOS                                                                                                                   S04 NP 
237110000000000000000000000026577026600000000000000000240019542000011352896700003922608410000000000000SUPERAVITS OU DEFICITS ACUMULADOS - CONSOLIDACAO                                                                                                    S05 NP 
237110100000000000000101000011338920500000000000000000126601742000011350037200001264905750000000000000SUPERAVITS OU DEFICITS DO EXERCICIO                                                                                                                 A06 SP 
237110200000000000000101000015235246600000000000000000113417800000000000000000002657702660000000000000SUPERAVITS OU DEFICITS DE EXERCICIOS ANTERIORES                                                                                                     A06 SP 
237110300000000000000000000000002859500000000000000000000000000000000002859500000000000000000000000000AJUSTES DE EXERCICIOS ANTERIORES                                                                                                                    S06 NP 
237110301000000000000101000000002859500000000000000000000000000000000002859500000000000000000000000000AJUSTES DE EXERCICIOS ANTERIORES - PERMANENTE                                                                                                       A07 SP 
237120000000000000000000000000000000000003567592820000379990390000051308640300000000000000000489855295SUPERAVITS OU DEFICITS ACUMULADOS - INTRA OFSS                                                                                                      S05 NP 
237120100000000000000101000000000000000001326953830000379990390000038039102000000000000000000133096013SUPERAVITS OU DEFICITS DO EXERCICIO                                                                                                                 A06 SP 
237120200000000000000101000000000000000002240638990000000000000000013269538300000000000000000356759282SUPERAVITS OU DEFICITS DE EXERCICIOS ANTERIORES                                                                                                     A06 SP 
237130000000000000000000000008002258200000000000000000020597576000001426066300000863594950000000000000SUPERAVITS OU DEFICITS ACUMULADOS - INTER OFSS - UNIAO                                                                                              S05 NP 
237130100000000000000101000001426066300000000000000000006336913000001426066300000063369130000000000000SUPERAVITS OU DEFICITS DO EXERCICIO                                                                                                                 A06 SP 
237130200000000000000101000006576191900000000000000000014260663000000000000000000800225820000000000000SUPERAVITS OU DEFICITS DE EXERCICIOS ANTERIORES                                                                                                     A06 SP 
300000000000000000000000000000000000000000000000000000438734284000043873428400000000000000000000000000VARIACAO PATRIMONIAL DIMINUTIVA                                                                                                                     S01 NP 
310000000000000000000000000000000000000000000000000000102345841000010234584100000000000000000000000000PESSOAL E ENCARGOS                                                                                                                                  S02 NP 
311000000000000000000000000000000000000000000000000000093254300000009325430000000000000000000000000000REMUNERACAO A PESSOAL                                                                                                                               S03 NP 
311100000000000000000000000000000000000000000000000000004185764000000418576400000000000000000000000000REMUNERACAO A PESSOAL ATIVO CIVIL  ABRANGIDOS PELO RPPS                                                                                             S04 NP 
311110000000000000000000000000000000000000000000000000004185764000000418576400000000000000000000000000REMUNERACAO A PESSOAL ATIVO CIVIL  ABRANGIDOS PELO RPPS - CONSOLIDACAO                                                                              S05 NP 
311110100000000000000000000000000000000000000000000000004185764000000418576400000000000000000000000000VENCIMENTOS E VANTAGENS FIXAS - PESSOAL CIVIL - RPPS                                                                                                S06 NP 
311110101000000000000101000000000000000000000000000000002389843000000238984300000000000000000000000000VENCIMENTOS E SALARIOS                                                                                                                              A07 SP 
311110106000000000000101000000000000000000000000000000000125094000000012509400000000000000000000000000ADICIONAL DE INSALUBRIDADE                                                                                                                          A07 SP 
311110118000000000000101000000000000000000000000000000000051264000000005126400000000000000000000000000GRATIFICACAO DE TEMPO DE SERVICO                                                                                                                    A07 SP 
31111012200000000000010100000000000000000000000000000000096389100000009638910000000000000000000000000013 SALARIO                                                                                                                                          A07 SP 
311110124000000000000101000000000000000000000000000000000240000000000024000000000000000000000000000000FERIAS  ABONO CONSTITUCIONAL                                                                                                                        A07 SP 
311110125000000000000101000000000000000000000000000000000269812000000026981200000000000000000000000000LICENCA-PREMIO                                                                                                                                      A07 SP 
311110128000000000000101000000000000000000000000000000000145860000000014586000000000000000000000000000REPRESENTACAO MENSAL                                                                                                                                A07 SP 
311200000000000000000000000000000000000000000000000000089068536000008906853600000000000000000000000000REMUNERACAO A PESSOAL ATIVO CIVIL  ABRANGIDOS PELO RGPS                                                                                             S04 NP 
311210000000000000000000000000000000000000000000000000089068536000008906853600000000000000000000000000REMUNERACAO A PESSOAL ATIVO CIVIL  ABRANGIDOS PELO RGPS - CONSOLIDACAO                                                                              S05 NP 
311210100000000000000000000000000000000000000000000000089068536000008906853600000000000000000000000000VENCIMENTOS E VANTAGENS FIXAS - PESSOAL CIVIL - RGPS                                                                                                S06 NP 
311210101000000000000101000000000000000000000000000000020394044000002039404400000000000000000000000000VENCIMENTOS E SALARIOS                                                                                                                              A07 SP 
311210106000000000000101000000000000000000000000000000000625470000000062547000000000000000000000000000ADICIONAL DE INSALUBRIDADE                                                                                                                          A07 SP 
311210114000000000000101000000000000000000000000000000000026981000000002698100000000000000000000000000GRATIFICACAO POR EXERCICIO DE CARGOS                                                                                                                A07 SP 
311210118000000000000101000000000000000000000000000000000242829000000024282900000000000000000000000000GRATIFICACAO DE TEMPO DE  SERVICO                                                                                                                   A07 SP 
31121012200000000000010100000000000000000000000000000000559760000000055976000000000000000000000000000013 SALARIO                                                                                                                                          A07 SP 
311210124000000000000101000000000000000000000000000000008424098000000842409800000000000000000000000000FERIAS - ABONO CONSTITUCIONAL                                                                                                                       A07 SP 
311210128000000000000101000000000000000000000000000000001750320000000175032000000000000000000000000000REPRESENTACAO MENSAL                                                                                                                                A07 SP 
311210131000000000000101000000000000000000000000000000052007194000005200719400000000000000000000000000SUBSIDIOS                                                                                                                                           A07 SP 
312000000000000000000000000000000000000000000000000000009091541000000909154100000000000000000000000000ENCARGOS PATRONAIS                                                                                                                                  S03 NP 
312100000000000000000000000000000000000000000000000000002650707000000265070700000000000000000000000000ENCARGOS PATRONAIS - RPPS                                                                                                                           S04 NP 
312120000000000000000000000000000000000000000000000000002650707000000265070700000000000000000000000000ENCARGOS PATRONAIS - RPPS - INTRA OFSS                                                                                                              S05 NP 
312120100000000000000101000000000000000000000000000000002650707000000265070700000000000000000000000000CONTRIBUICAO PATRONAL PARA O RPPS                                                                                                                   A06 SP 
312200000000000000000000000000000000000000000000000000006440834000000644083400000000000000000000000000ENCARGOS PATRONAIS - RGPS                                                                                                                           S04 NP 
312230000000000000000000000000000000000000000000000000006440834000000644083400000000000000000000000000ENCARGOS PATRONAIS - RGPS - INTER OFSS - UNIAO                                                                                                      S05 NP 
312230100000000000000101000000000000000000000000000000006440834000000644083400000000000000000000000000CONTRIBUICOES PREVIDENCIARIAS - RGPS                                                                                                                A06 SP 
330000000000000000000000000000000000000000000000000000034022072000003402207200000000000000000000000000USO DE BENS SERVICOS E CONSUMO DE CAPITAL FIXO                                                                                                      S02 NP 
331000000000000000000000000000000000000000000000000000006306708000000630670800000000000000000000000000USO DE MATERIAL DE CONSUMO                                                                                                                          S03 NP 
331100000000000000000000000000000000000000000000000000006306708000000630670800000000000000000000000000CONSUMO DE MATERIAL                                                                                                                                 S04 NP 
331110000000000000000000000000000000000000000000000000006306708000000630670800000000000000000000000000CONSUMO DE MATERIAL - CONSOLIDACAO                                                                                                                  S05 NP 
331110600000000000000101000000000000000000000000000000005041925000000504192500000000000000000000000000GENEROS ALIMENTACAO                                                                                                                                 A06 SP 
331111400000000000000101000000000000000000000000000000000000400000000000040000000000000000000000000000MATERIAL EDUCATIVO E ESPORTIVO                                                                                                                      A06 SP 
331111500000000000000101000000000000000000000000000000000016000000000001600000000000000000000000000000MATERIAL PARA FESTIVIDADES E HOMENAGENS                                                                                                             A06 SP 
331111600000000000000101000000000000000000000000000000000168230000000016823000000000000000000000000000MATERIAL DE EXPEDIENTE                                                                                                                              A06 SP 
331111700000000000000101000000000000000000000000000000000068700000000006870000000000000000000000000000MATERIAL DE PROCESSAMENTO DE DADOS                                                                                                                  A06 SP 
331112100000000000000101000000000000000000000000000000000019445000000001944500000000000000000000000000MATERIAL DE COPA E COZINHA                                                                                                                          A06 SP 
331112200000000000000101000000000000000000000000000000000551488000000055148800000000000000000000000000MATERIAL DE LIMPEZA E PRODUTOS DE HIGIENIZACAO                                                                                                      A06 SP 
331112400000000000000101000000000000000000000000000000000101207000000010120700000000000000000000000000MATERIAL PARA MANUTENCAO DE BENS IMOVEIS E INSTALACOES                                                                                              A06 SP 
331112500000000000000101000000000000000000000000000000000057000000000005700000000000000000000000000000MATERIAL PARA MANUTENCAO DE BENS                                                                                                                    A06 SP 
331112600000000000000101000000000000000000000000000000000009100000000000910000000000000000000000000000MATERIAL ELETRICO E ELETRONICO                                                                                                                      A06 SP 
331112800000000000000101000000000000000000000000000000000026000000000002600000000000000000000000000000MATERIAL DE PROTECAO E SEGURANCA                                                                                                                    A06 SP 
331113600000000000000101000000000000000000000000000000000005641000000000564100000000000000000000000000MATERIAL HOSPITALAR                                                                                                                                 A06 SP 
331114200000000000000101000000000000000000000000000000000024000000000002400000000000000000000000000000FERRAMENTAS                                                                                                                                         A06 SP 
331119900000000000000101000000000000000000000000000000000217572000000021757200000000000000000000000000OUTROS MATERIAIS DE CONSUMO                                                                                                                         A06 SP 
332000000000000000000000000000000000000000000000000000026437996000002643799600000000000000000000000000SERVICOS                                                                                                                                            S03 NP 
332100000000000000000000000000000000000000000000000000012107461000001210746100000000000000000000000000DIARIAS                                                                                                                                             S04 NP 
332110000000000000000000000000000000000000000000000000012107461000001210746100000000000000000000000000DIARIAS - CONSOLIDACAO                                                                                                                              S05 NP 
332110100000000000000101000000000000000000000000000000012107461000001210746100000000000000000000000000DIARIAS PESSOAL CIVIL                                                                                                                               A06 SP 
332200000000000000000000000000000000000000000000000000000720000000000072000000000000000000000000000000SERVICOS TERCEIROS - PF                                                                                                                             S04 NP 
332210000000000000000000000000000000000000000000000000000720000000000072000000000000000000000000000000SERVICOS TERCEIROS - PF - CONSOLIDACAO                                                                                                              S05 NP 
332210100000000000000101000000000000000000000000000000000720000000000072000000000000000000000000000000CONSULTORIA E ASSESSORIA                                                                                                                            A06 SP 
332300000000000000000000000000000000000000000000000000013610535000001361053500000000000000000000000000SERVICOS TERCEIROS - PJ                                                                                                                             S04 NP 
332310000000000000000000000000000000000000000000000000013610535000001361053500000000000000000000000000SERVICOS TERCEIROS - PJ - CONSOLIDACAO                                                                                                              S05 NP 
332310100000000000000101000000000000000000000000000000000737640000000073764000000000000000000000000000CONSULTORIA E ASSESSORIA                                                                                                                            A06 SP 
332310400000000000000101000000000000000000000000000000000356827000000035682700000000000000000000000000COMUNICACAO                                                                                                                                         A06 SP 
332310500000000000000101000000000000000000000000000000000297200000000029720000000000000000000000000000PUBLICIDADE                                                                                                                                         A06 SP 
332310600000000000000101000000000000000000000000000000000277503000000027750300000000000000000000000000MANUTENCAO E CONSERVACAO                                                                                                                            A06 SP 
332311100000000000000101000000000000000000000000000000001307320000000130732000000000000000000000000000SERVICOS RELACIONADOS A TECNOLOGIA DA INFORMACAO                                                                                                    A06 SP 
332311200000000000000101000000000000000000000000000000001344283000000134428300000000000000000000000000SERVICOS DE TRANSPORTE                                                                                                                              A06 SP 
332311400000000000000101000000000000000000000000000000000007500000000000750000000000000000000000000000ASSINATURAS DE PERIODICOS E ANUIDADES                                                                                                               A06 SP 
332313000000000000000101000000000000000000000000000000006142400000000614240000000000000000000000000000SELECAO E TREINAMENTO                                                                                                                               A06 SP 
332313600000000000000101000000000000000000000000000000000010000000000001000000000000000000000000000000SERVICOS DE AUDIO VIDEO E FOTO                                                                                                                      A06 SP 
332314000000000000000101000000000000000000000000000000000027600000000002760000000000000000000000000000SERVICOS DE COPIAS E REPRODUCAO DE DOCUMENTOS                                                                                                       A06 SP 
332315100000000000000101000000000000000000000000000000000097300000000009730000000000000000000000000000SERVICOS TECNICOS PROFISSIONAIS                                                                                                                     A06 SP 
332319900000000000000101000000000000000000000000000000003004962000000300496200000000000000000000000000OUTROS SERVICOS TERCEIROS - PJ                                                                                                                      A06 SP 
333000000000000000000000000000000000000000000000000000001277368000000127736800000000000000000000000000DEPRECIACAO AMORTIZACAO E EXAUSTAO                                                                                                                  S03 NP 
333100000000000000000000000000000000000000000000000000001277368000000127736800000000000000000000000000DEPRECIACAO                                                                                                                                         S04 NP 
333110000000000000000000000000000000000000000000000000001277368000000127736800000000000000000000000000DEPRECIACAO - CONSOLIDACAO                                                                                                                          S05 NP 
333110100000000000000000000000000000000000000000000000001277368000000127736800000000000000000000000000DEPRECIACAO DE IMOBILIZADO                                                                                                                          S06 NP 
333110101000000000000101000000000000000000000000000000001277368000000127736800000000000000000000000000DEPRECIACAO DE BENS MOVEIS                                                                                                                          A07 SP 
350000000000000000000000000000000000000000000000000000109270579000010927057900000000000000000000000000TRANSFERENCIAS E DELEGACOES CONCEDIDAS                                                                                                              S02 NP 
351000000000000000000000000000000000000000000000000000109270579000010927057900000000000000000000000000TRANSFERENCIAS INTRAGOVERNAMENTAIS                                                                                                                  S03 NP 
351100000000000000000000000000000000000000000000000000109137262000010913726200000000000000000000000000TRANSFERENCIAS CONCEDIDAS PARA A EXECUCAO ORCAMENTARIA                                                                                              S04 NP 
351120000000000000000000000000000000000000000000000000109137262000010913726200000000000000000000000000TRANSFERENCIAS CONCEDIDAS PARA A EXECUCAO ORCAMENTARIA -  INTRA OFSS                                                                                S05 NP 
351120200000000000000101000000000000000000000000000000054568631000005456863100000000000000000000000000REPASSE CONCEDIDO                                                                                                                                   A06 SP 
351120900000000000000101000000000000000000000000000000054568631000005456863100000000000000000000000000DEVOLUCAO DE TRANSFERENCIAS RECEBIDAS                                                                                                               A06 SP 
351200000000000000000000000000000000000000000000000000000133317000000013331700000000000000000000000000TRANSFERENCIAS CONCEDIDAS - INDEPENDENTES DE EXECUCAO ORCAMENTARIA                                                                                  S04 NP 
351220000000000000000000000000000000000000000000000000000133317000000013331700000000000000000000000000TRANSFERENCIAS CONCEDIDAS - INDEPENDENTES DE EXECUCAO ORCAMENTARIA - INTRA OFSS                                                                     S05 NP 
351220200000000000000000000000000000000000000000000000000133317000000013331700000000000000000000000000TRANSFERENCIAS  NAO FINANCEIRAS CONCEDIDAS - INDEPENDENTES DE EXECUCAO ORCAMENTARIA                                                                 S06 NP 
351220203000000000000101000000000000000000000000000000000133317000000013331700000000000000000000000000TRANSFERENCIAS CONCEDIDAS DE BENS MOVEIS                                                                                                            A07 SP 
360000000000000000000000000000000000000000000000000000190880430000019088043000000000000000000000000000DESVALORIZACAO E PERDA DE ATIVOS E INCORPORACAO DE PASSIVOS                                                                                         S02 NP 
361000000000000000000000000000000000000000000000000000000938078000000093807800000000000000000000000000REAVALIACAO REDUCAO A VALOR RECUPERAVEL E AJUSTE PARA PERDAS                                                                                        S03 NP 
361300000000000000000000000000000000000000000000000000000938078000000093807800000000000000000000000000REAVALIACAO DE OUTROS ATIVOS                                                                                                                        S04 NP 
361310000000000000000000000000000000000000000000000000000938078000000093807800000000000000000000000000REAVALIACAO DE OUTROS ATIVOS - CONSOLIDACAO                                                                                                         S05 NP 
361310100000000000000101000000000000000000000000000000000938078000000093807800000000000000000000000000REAVALIACAO DE ATIVOS DECORRENTES DE CONCILIACAO DE SALDOS                                                                                          A06 SP 
365000000000000000000000000000000000000000000000000000189942352000018994235200000000000000000000000000DESINCORPORACAO DE ATIVOS                                                                                                                           S03 NP 
365100000000000000000000000000000000000000000000000000189942352000018994235200000000000000000000000000DESINCORPORACAO DE ATIVOS                                                                                                                           S04 NP 
365120000000000000000000000000000000000000000000000000189942352000018994235200000000000000000000000000DESINCORPORACAO DE ATIVOS - INTRA OFSS                                                                                                              S05 NP 
365120300000000000000101000000000000000000000000000000189942352000018994235200000000000000000000000000DESINCORPORACAO DE CREDITOS A RECEBER - INTRA-OFSS                                                                                                  A06 SP 
390000000000000000000000000000000000000000000000000000002215362000000221536200000000000000000000000000OUTRAS VARIACOES PATRIMONIAIS DIMINUTIVAS                                                                                                           S02 NP 
399000000000000000000000000000000000000000000000000000002215362000000221536200000000000000000000000000DIVERSAS VARIACOES PATRIMONIAIS DIMINUTIVAS                                                                                                         S03 NP 
399600000000000000000000000000000000000000000000000000002215362000000221536200000000000000000000000000INDENIZACOES RESTITUICOES E RESSARCIMENTOS                                                                                                          S04 NP 
399610000000000000000101000000000000000000000000000000002215362000000221536200000000000000000000000000INDENIZACOES RESTITUICOES E RESSARCIMENTOS - CONSOLIDACAO                                                                                           A05 SP 
400000000000000000000000000000000000000000000000000000440502187000044050218700000000000000000000000000VARIACAO PATRIMONIAL AUMENTATIVA                                                                                                                    S01 NP 
450000000000000000000000000000000000000000000000000000190448668000019044866800000000000000000000000000TRANSFERENCIAS E DELEGACOES RECEBIDAS                                                                                                               S02 NP 
451000000000000000000000000000000000000000000000000000190448668000019044866800000000000000000000000000TRANSFERENCIAS INTRAGOVERNAMENTAIS                                                                                                                  S03 NP 
451100000000000000000000000000000000000000000000000000190448668000019044866800000000000000000000000000TRANSFERENCIAS RECEBIDAS PARA A EXECUCAO ORCAMENTARIA                                                                                               S04 NP 
451120000000000000000000000000000000000000000000000000190448668000019044866800000000000000000000000000TRANSFERENCIAS RECEBIDAS PARA A EXECUCAO ORCAMENTARIA - INTRA OFSS                                                                                  S05 NP 
451120200000000000000101000000000000000000000000000000190448668000019044866800000000000000000000000000REPASSE RECEBIDO                                                                                                                                    A06 SP 
460000000000000000000000000000000000000000000000000000000111167000000011116700000000000000000000000000VALORIZACAO E GANHOS COM ATIVOS E DESINCORPORACAO DE PASSIVOS                                                                                       S02 NP 
461000000000000000000000000000000000000000000000000000000111167000000011116700000000000000000000000000REAVALIACAO DE ATIVOS                                                                                                                               S03 NP 
461900000000000000000000000000000000000000000000000000000111167000000011116700000000000000000000000000REAVALIACAO DE OUTROS ATIVOS                                                                                                                        S04 NP 
461910000000000000000000000000000000000000000000000000000111167000000011116700000000000000000000000000REAVALIACAO DE OUTROS ATIVOS - CONSOLIDACAO                                                                                                         S05 NP 
461910100000000000000101000000000000000000000000000000000111167000000011116700000000000000000000000000REAVALIACAO DE ATIVOS DECORRENTES DE CONCILIACAO DE SALDOS                                                                                          A06 SP 
490000000000000000000000000000000000000000000000000000249942352000024994235200000000000000000000000000OUTRAS VARIACOES PATRIMONIAIS AUMENTATIVAS                                                                                                          S02 NP 
499000000000000000000000000000000000000000000000000000249942352000024994235200000000000000000000000000DIVERSAS VARIACOES PATRIMONIAIS AUMENTATIVAS                                                                                                        S03 NP 
499900000000000000000000000000000000000000000000000000249942352000024994235200000000000000000000000000VARIACOES PATRIMONIAIS AUMENTATIVAS DECORRENTES DE FATOS GERADORES DIVERSOS                                                                         S04 NP 
499920000000000000000000000000000000000000000000000000249942352000024994235200000000000000000000000000VARIACOES PATRIMONIAIS AUMENTATIVAS DECORRENTES DE FATOS GERADORES DIVERSOS - INTRA-OFSS                                                            S05 NP 
499920100000000000000101000000000000000000000000000000249942352000024994235200000000000000000000000000DUODECIMO LEGISLATIVO - INTRA-OFSS                                                                                                                  A06 SP 
500000000000000000000000000000000000000000000000000000463565772000046312630800000004394640000000000000CONTROLES DA APROVACAO DO PLANEJAMENTO E ORCAMENTO                                                                                                  S01 NO 
520000000000000000000000000000000000000000000000000000463126308000046312630800000000000000000000000000ORCAMENTO APROVADO                                                                                                                                  S02 NO 
522000000000000000000000000000000000000000000000000000463126308000046312630800000000000000000000000000FIXACAO DA DESPESA                                                                                                                                  S03 NO 
522100000000000000000000000000000000000000000000000000320168800000032016880000000000000000000000000000DOTACAO ORCAMENTARIA                                                                                                                                S04 NO 
522110000000000000000000000000000000000000000000000000249900000000024990000000000000000000000000000000DOTACAO INICIAL                                                                                                                                     S05 NO 
522110100000000000000101000000000000000000000000000000249900000000024990000000000000000000000000000000CREDITO INICIAL                                                                                                                                     A06 SO 
522120000000000000000000000000000000000000000000000000002567200000000256720000000000000000000000000000DOTACAO ADICIONAL POR TIPO DE CREDITO                                                                                                               S05 NO 
522120100000000000000101000000000000000000000000000000002567200000000256720000000000000000000000000000CREDITO ADICIONAL  SUPLEMENTAR                                                                                                                      A06 SO 
522130000000000000000000000000000000000000000000000000005134400000000513440000000000000000000000000000DOTACAO ADICIONAL POR FONTE                                                                                                                         S05 NO 
522130300000000000000101000000000000000000000000000000002567200000000256720000000000000000000000000000ANULACAO DE DOTACAO                                                                                                                                 A06 SO 
522139900000000000000101000000000000000000000000000000002567200000000256720000000000000000000000000000VALOR GLOBAL DA DOTACAO ADICIONAL POR FONTE                                                                                                         A06 SO 
522190000000000000000000000000000000000000000000000000062567200000006256720000000000000000000000000000CANCELAMENTO/REMANEJAMENTO DE DOTACAO                                                                                                               S05 NO 
522190400000000000000101000000000000000000000000000000062567200000006256720000000000000000000000000000- CANCELAMENTO DE DOTACOES                                                                                                                          A06 SO 
522900000000000000000000000000000000000000000000000000142957508000014295750800000000000000000000000000OUTROS CONTROLES DA DESPESA ORCAMENTARIA                                                                                                            S04 NO 
522920000000000000000000000000000000000000000000000000142957508000014295750800000000000000000000000000EMPENHOS POR EMISSAO                                                                                                                                S05 NO 
522920100000000000000000000000000000000000000000000000142957508000014295750800000000000000000000000000EXECUCAO DA DESPESA POR NOTA DE EMPENHO                                                                                                             S06 NO 
522920101000000000000101000000000000000000000000000000141567758000014156775800000000000000000000000000EMISSAO DE EMPENHOS                                                                                                                                 A07 SO 
522920103000000000000101000000000000000000000000000000001389750000000138975000000000000000000000000000- ANULACAO DE EMPENHOS                                                                                                                              A07 SO 
530000000000000000000000000000000000000000000000000000000439464000000000000000000004394640000000000000INSCRICAO DE RESTOS A PAGAR                                                                                                                         S02 NO 
531000000000000000000000000000000000000000000000000000000439464000000000000000000004394640000000000000INSCRICAO DE RP NAO PROCESSADOS                                                                                                                     S03 NO 
531700000000000000000101000000000000000000000000000000000439464000000000000000000004394640000000000000RP NAO PROCESSADOS - INSCRICAO NO EXERCICIO                                                                                                         A04 SO 
600000000000000000000000000000000000000000000000000001101569689000110200915300000000000000000000439464CONTROLES DA EXECUCAO DO PLANEJAMENTO E ORCAMENTO                                                                                                   S01 NO 
620000000000000000000000000000000000000000000000000001101130225000110113022500000000000000000000000000EXECUCAO DO ORCAMENTO                                                                                                                               S02 NO 
622000000000000000000000000000000000000000000000000001101130225000110113022500000000000000000000000000EXECUCAO DA DESPESA                                                                                                                                 S03 NO 
622100000000000000000000000000000000000000000000000000679642573000067964257300000000000000000000000000DISPONIBILIDADES DE CREDITO                                                                                                                         S04 NO 
622110000000000000000101000000000000000000000000000000258154921000025815492100000000000000000000000000CREDITO DISPONIVEL                                                                                                                                  A05 SO 
622130000000000000000000000000000000000000000000000000421487652000042148765200000000000000000000000000CREDITO UTILIZADO                                                                                                                                   S05 NO 
622130100000000000000101000000000000000000000000000000145192811000014519281100000000000000000000000000CREDITO EMPENHADO A LIQUIDAR                                                                                                                        A06 SO 
622130300000000000000101000000000000000000000000000000139959947000013995994700000000000000000000000000CREDITO EMPENHADO LIQUIDADO A PAGAR                                                                                                                 A06 SO 
622130400000000000000101000000000000000000000000000000136334894000013633489400000000000000000000000000CREDITO EMPENHADO LIQUIDADO PAGO                                                                                                                    A06 SO 
622900000000000000000000000000000000000000000000000000421487652000042148765200000000000000000000000000OUTROS CONTROLES DA DESPESA ORCAMENTARIA                                                                                                            S04 NO 
622920000000000000000000000000000000000000000000000000421487652000042148765200000000000000000000000000EMISSAO DE EMPENHO                                                                                                                                  S05 NO 
622920100000000000000000000000000000000000000000000000421487652000042148765200000000000000000000000000EMPENHOS POR NOTA DE EMPENHO                                                                                                                        S06 NO 
622920101000000000000101000000000000000000000000000000145192811000014519281100000000000000000000000000EMPENHOS A LIQUIDAR                                                                                                                                 A07 SO 
622920103000000000000101000000000000000000000000000000139959947000013995994700000000000000000000000000EMPENHOS LIQUIDADOS A PAGAR                                                                                                                         A07 SO 
622920104000000000000101000000000000000000000000000000136334894000013633489400000000000000000000000000EMPENHOS LIQUIDADOS PAGOS                                                                                                                           A07 SO 
630000000000000000000000000000000000000000000000000000000439464000000087892800000000000000000000439464EXECUCAO DE RESTOS A PAGAR                                                                                                                          S02 NO 
631000000000000000000000000000000000000000000000000000000439464000000087892800000000000000000000439464EXECUCAO DE RP NAO PROCESSADOS                                                                                                                      S03 NO 
631700000000000000000000000000000000000000000000000000000439464000000087892800000000000000000000439464RP NAO PROCESSADOS - INSCRICAO NO EXERCICIO                                                                                                         S04 NO 
631710000000000000000101000000000000000000000000000000000439464000000087892800000000000000000000439464RP NAO PROCESSADOS A LIQUIDAR - INSCRICAO NO EXERCICIO                                                                                              A05 SO 
700000000000000000000000000000276008300000000000000000194687602000019008052200000073671630000000000000CONTROLES DEVEDORES                                                                                                                                 S01 NC 
710000000000000000000000000000276008300000000000000000004167616000000000000000000069276990000000000000ATOS POTENCIAIS                                                                                                                                     S02 NC 
712000000000000000000000000000276008300000000000000000004167616000000000000000000069276990000000000000ATOS POTENCIAIS PASSIVOS                                                                                                                            S03 NC 
712300000000000000000000000000276008300000000000000000004167616000000000000000000069276990000000000000OBRIGACOES CONTRATUAIS                                                                                                                              S04 NC 
712310000000000000000000000000276008300000000000000000004167616000000000000000000069276990000000000000OBRIGACOES CONTRATUAIS - CONSOLIDACAO                                                                                                               S05 NC 
712310200000000000000101000000276008300000000000000000004167616000000000000000000069276990000000000000CONTRATOS DE SERVICOS                                                                                                                               A06 SC 
720000000000000000000000000000000000000000000000000000190519986000019008052200000004394640000000000000ADMINISTRACAO FINANCEIRA                                                                                                                            S02 NC 
721000000000000000000000000000000000000000000000000000190519986000019008052200000004394640000000000000DISPONIBILIDADES POR DESTINACAO                                                                                                                     S03 NC 
721100000000000000000000000000000000000000000000000000190519986000019008052200000004394640000000000000CONTROLE DA DISPONIBILIDADE DE RECURSOS                                                                                                             S04 NC 
721110000000000000000000000000000000000000000000000000190448668000019000920400000004394640000000000000RECURSOS ORDINARIOS                                                                                                                                 S05 NC 
721110500000000000000101000000000000000000000000000000190448668000019000920400000004394640000000000000DDR RECURSO ORDINARIOS - Livre - Impostos                                                                                                           A06 SC 
721130000000000000000000000000000000000000000000000000000071318000000007131800000000000000000000000000RECURSOS EXTRA-ORCAMENTARIOS                                                                                                                        S05 NC 
721130869000000000000101000000000000000000000000000000000071318000000007131800000000000000000000000000DDR RECURSO VINCULADOS - Outros Recursos Extraorcamentarios                                                                                         A07 SC 
800000000000000000000000000000000000000000027600830000679781051000068438813100000000000000000007367163CONTROLES CREDORES                                                                                                                                  S01 NC 
810000000000000000000000000000000000000000027600830000007885207000001205282300000000000000000006927699EXECUCAO DOS ATOS POTENCIAIS                                                                                                                        S02 NC 
812000000000000000000000000000000000000000027600830000007885207000001205282300000000000000000006927699EXECUCAO DOS ATOS POTENCIAIS PASSIVOS                                                                                                               S03 NC 
812300000000000000000000000000000000000000027600830000007885207000001205282300000000000000000006927699EXECUCAO DE OBRIGACOES CONTRATUAIS                                                                                                                  S04 NC 
812310000000000000000000000000000000000000027600830000007885207000001205282300000000000000000006927699EXECUCAO DE OBRIGACOES -CONSOLIDACAO                                                                                                                S05 NC 
812310200000000000000000000000000000000000027600830000007885207000001205282300000000000000000006927699CONTRATOS DE SERVICOS                                                                                                                               S06 NC 
812310201000000000000101000000000000000000027600830000007406453000000464637000000000000000000000000000A EXECUTAR                                                                                                                                          A07 SC 
812310202000000000000101000000000000000000000000000000000478754000000740645300000000000000000006927699EXECUTADOS                                                                                                                                          A07 SC 
820000000000000000000000000000000000000000000000000000671895844000067233530800000000000000000000439464EXECUCAO DA ADMINISTRACAO FINANCEIRA                                                                                                                S02 NC 
821000000000000000000000000000000000000000000000000000671895844000067233530800000000000000000000439464EXECUCAO DAS DISPONIBILIDADES POR DESTINACAO                                                                                                        S03 NC 
821100000000000000000000000000000000000000000000000000671895844000067233530800000000000000000000439464EXECUCAO DA DISPONIBILIDADE DE RECURSOS                                                                                                             S04 NC 
821110000000000000000000000000000000000000000000000000196136389000019613638900000000000000000000000000DISPONIBILIDADE POR DESTINACAO DE RECURSOS                                                                                                          S05 NC 
821110105000000000000101000000000000000000000000000000196136389000019613638900000000000000000000000000DDR  DISPONIVEIS PARA O EXERCICIO - Livre - Impostos                                                                                                A07 SC 
821120000000000000000000000000000000000000000000000000144753347000014519281100000000000000000000439464DISPONIBILIDADE POR DESTINACAO DE RECURSOS COMPROMETIDA POR EMPENHO                                                                                 S05 NC 
821120105000000000000101000000000000000000000000000000144753347000014519281100000000000000000000439464DDR COMPROMETIDA POR EMPENHO - Livre - Impostos                                                                                                     A07 SC 
821130000000000000000000000000000000000000000000000000140031265000014003126500000000000000000000000000DISPONIBILIDADE POR DESTINACAO DE RECURSOS COMPROMETIDA POR LIQUIDACAO E ENTRADAS COMPENSATORIAS                                                    S05 NC 
821130100000000000000000000000000000000000000000000000139959947000013995994700000000000000000000000000COMPROMETIDA POR LIQUIDACAO                                                                                                                         S06 NC 
821130105000000000000101000000000000000000000000000000139959947000013995994700000000000000000000000000DDR COMPROMETIDA POR LIQUIDACAO - Livre - Impostos                                                                                                  A07 SC 
821130208690000000000101000000000000000000000000000000000071318000000007131800000000000000000000000000DDR COMPROMETIDA POR RETENCOES E CONSIGNACOES - Outros Recursos Extraorcamentarios                                                                  A08 SC 
821140000000000000000000000000000000000000000000000000190974843000019097484300000000000000000000000000DISPONIBILIDADE POR DESTINACAO DE RECURSOS UTILIZADA                                                                                                S05 NC 
821140100000000000000000000000000000000000000000000000190903525000019090352500000000000000000000000000UTILIZADA COM EXECUCAO ORCAMENTARIA                                                                                                                 S06 NC 
821140105000000000000101000000000000000000000000000000190903525000019090352500000000000000000000000000DDR UTILIZADA COM EXECUCAO ORCAMENTARIA - Livre - Impostos                                                                                          A07 SC 
821140208690000000000101000000000000000000000000000000000071318000000007131800000000000000000000000000DDR UTILIZADA COM EXECUCAO EXTRA ORCAMENTARIA - Outros Recursos Extraorcamentarios                                                                  A08 SC 
FINALIZADOR0000000305