12292535000162010120253108202509092025CAMARA DE VEREADORES DE INDEPENDENCIA-RS                                        
100000000000000000000000000001141238100000000000000000476349816000039460270500000931594920000000000000ATIVO                                                                                                                                               S01 NPF00000000050000000000
110000000000000000000000000000097385900000000000000000473254549000039150710800000827213000000000000000ATIVO CIRCULANTE                                                                                                                                    S02 NP 00000000050000000000
111000000000000000000000000000043946400000000000000000300254549000027793548400000227585290000000000000CAIXA E EQUIVALENTES DE CAIXA                                                                                                                       S03 NPF00000000050000000000
111100000000000000000000000000043946400000000000000000300203073000027788400800000227585290000000000000CAIXA E EQUIVALENTES DE CAIXA EM MOEDA NACIONAL                                                                                                     S04 NPF00000000050000000000
111110000000000000000000000000043946400000000000000000300203073000027788400800000227585290000000000000CAIXA E EQUIVALENTES DE CAIXA EM MOEDA NACIONAL - CONSOLIDACAO                                                                                      S05 NPF00000000050000000000
111111900000000000000000000000043946400000000000000000194748010000019518747400000000000000000000000000BANCOS CONTA MOVIMENTO - DEMAIS CONTAS                                                                                                              S06 NPF00000000050000000000
111111912000000000000000000000043946400000000000000000194748010000019518747400000000000000000000000000BANCO DO ESTADO DO RIO GRANDE DO SUL                                                                                                                S07 NPF00000000050000000000
111111912050000000000101000000043946400000000000000000194748010000019518747400000000000000000000000000BANRISUL GERAL CAMARA MOV 0001 1064/040801870-6                                                                                                     A08 SPF00000000150000000000
111115000000000000000000000000000000000000000000000000105455063000008269653400000227585290000000000000APLICACOES FINANCEIRAS DE LIQUIDEZ IMEDIATA - USO GERAL                                                                                             S06 NPF00000000050000000000
111115003000000000000000000000000000000000000000000000105455063000008269653400000227585290000000000000FUNDOS DE INVESTIMENTO                                                                                                                              S07 NPF00000000050000000000
111115003220000000000101000000000000000000000000000000105455063000008269653400000227585290000000000000BANRISUL GERAL CAMARA APLIC 0001 1064/040801870-6                                                                                                   A08 SPF00000000150000000000
111300000000000000000000000000000000000000000000000000000051476000000005147600000000000000000000000000CAIXA E EQUIVALENTES DE CAIXA - VALORES RESTITUIVEIS E VINCULADOS                                                                                   S04 NPP00000000050000000000
111310000000000000000000000000000000000000000000000000000051476000000005147600000000000000000000000000DEPOSITOS RESTITUIVEIS E VALORES VINCULADOS - CONSOLIDACAO                                                                                          S05 NPF00000000050000000000
111310100000000000000000000000000000000000000000000000000051476000000005147600000000000000000000000000DEPOSITOS CONSIGNADOS                                                                                                                               S06 NPF00000000050000000000
111310104000000000000101000000000000000000000000000000000051476000000005147600000000000000000000000000BANRISUL CM RETENCOES MOV 8001 1064/040801870-6                                                                                                     A07 SPF00000000186900000000
113000000000000000000000000000000000000000000000000000173000000000011356412400000594358760000000000000DEMAIS CREDITOS E VALORES A CURTO PRAZO                                                                                                             S03 NPP00000000050000000000
113800000000000000000000000000000000000000000000000000173000000000011356412400000594358760000000000000OUTROS CREDITOS A RECEBER E VALORES A CURTO PRAZO                                                                                                   S04 NPP00000000050000000000
113820000000000000000000000000000000000000000000000000173000000000011356412400000594358760000000000000OUTROS CREDITOS A RECEBER E VALORES A CURTO PRAZO - INTRA-OFSS                                                                                      S05 NPP00000000050000000000
113829900000000000000000000000000000000000000000000000173000000000011356412400000594358760000000000000OUTROS CREDITOS A RECEBER E VALORES DE  CURTO PRAZO - INTRA-OFSS                                                                                    S06 NPP00000000050000000000
113829901000000000000101000000000000000000000000000000173000000000011356412400000594358760000000000000DUODECIMO A RECEBER DO EXECUTIVO - INTRA-OFSS                                                                                                       A07 SPP00000000150000000000
115000000000000000000000000000052689500000000000000000000000000000000000000000000005268950000000000000ESTOQUES                                                                                                                                            S03 NPP00000000050000000000
115600000000000000000000000000052689500000000000000000000000000000000000000000000005268950000000000000ALMOXARIFADO                                                                                                                                        S04 NPP00000000050000000000
115610000000000000000000000000052689500000000000000000000000000000000000000000000005268950000000000000ALMOXARIFADO - CONSOLIDACAO                                                                                                                         S05 NPP00000000050000000000
115619900000000000000101000000052689500000000000000000000000000000000000000000000005268950000000000000OUTROS - ALMOXARIFADO                                                                                                                               A06 SPP00000000150000000000
119000000000000000000000000000000750000000000000000000000000000000000000750000000000000000000000000000VARIACOES PATRIMONIAIS DIMINUTIVAS PAGAS ANTECIPADAMENTE                                                                                            S03 NPF00000000050000000000
119300000000000000000000000000000750000000000000000000000000000000000000750000000000000000000000000000ASSINATURAS E ANUIDADES A APROPRIAR                                                                                                                 S04 NPF00000000050000000000
119310000000000000000101000000000750000000000000000000000000000000000000750000000000000000000000000000ASSINATURAS E ANUIDADES A APROPRIAR - CONSOLIDACAO                                                                                                  A05 SPP00000000150000000000
120000000000000000000000000001043852200000000000000000003095267000000309559700000104381920000000000000ATIVO NAO CIRCULANTE                                                                                                                                S02 NPF00000000050000000000
123000000000000000000000000001043852200000000000000000003095267000000309559700000104381920000000000000IMOBILIZADO                                                                                                                                         S03 NPP00000000050000000000
123100000000000000000000000001382113800000000000000000002652727000000187705700000145968080000000000000BENS MOVEIS                                                                                                                                         S04 NPP00000000050000000000
123110000000000000000000000001382113800000000000000000002652727000000187705700000145968080000000000000BENS MOVEIS- CONSOLIDACAO                                                                                                                           S05 NPP00000000050000000000
123110100000000000000000000000257872500000000000000000000037500000000021446000000024017650000000000000MAQUINAS APARELHOS EQUIPAMENTOS E FERRAMENTAS                                                                                                       S06 NPP00000000050000000000
123110199000000000000101000000257872500000000000000000000037500000000021446000000024017650000000000000OUTRAS MAQUINAS APARELHOS EQUIPAMENTOS E FERRAMENTAS                                                                                                A07 SPP00000000150000000000
123110200000000000000000000000634623800000000000000000000361200000000008260000000066248380000000000000BENS DE INFORMATICA                                                                                                                                 S06 NPP00000000050000000000
123110201000000000000101000000475888300000000000000000000361200000000008260000000050374830000000000000EQUIPAMENTOS DE PROCESSAMENTO DE DADOS                                                                                                              A07 SPP00000000150000000000
123110202000000000000101000000158735500000000000000000000000000000000000000000000015873550000000000000EQUIPAMENTOS DE TECNOLOGIA DA INFORMACAO                                                                                                            A07 SPP00000000150000000000
123110300000000000000000000000253159500000000000000000000761910000000036178700000029317180000000000000MOVEIS E UTENSILIOS                                                                                                                                 S06 NPP00000000050000000000
123110301000000000000101000000046233200000000000000000000222000000000000000000000006843320000000000000APARELHOS E UTENSILIOS DOMESTICOS                                                                                                                   A07 SPP00000000150000000000
123110303000000000000101000000206926300000000000000000000539910000000036178700000022473860000000000000MOBILIARIO EM GERAL                                                                                                                                 A07 SPP00000000150000000000
123110400000000000000000000000233128000000000000000000000216307000000000000000000025475870000000000000MATERIAIS CULTURAIS EDUCACIONAIS E DE COMUNICACAO                                                                                                   S06 NPP00000000050000000000
123110405000000000000101000000139963800000000000000000000000000000000000000000000013996380000000000000EQUIPAMENTOS PARA AUDIO VIDEO E FOTO                                                                                                                A07 SPP00000000150000000000
123110499000000000000101000000093164200000000000000000000216307000000000000000000011479490000000000000OUTROS MATERIAIS CULTURAIS EDUCACIONAIS E DE COMUNICACAO                                                                                            A07 SPP00000000150000000000
123119900000000000000000000000003330000000000000000000001275810000000121821000000000909000000000000000DEMAIS BENS MOVEIS                                                                                                                                  S06 NPP00000000050000000000
123119908000000000000101000000000000000000000000000000001218210000000121821000000000000000000000000000BENS MOVEIS A CLASSIFICAR                                                                                                                           A07 SPP00000000150000000000
123119999000000000000000000000003330000000000000000000000057600000000000000000000000909000000000000000OUTROS BENS MOVEIS                                                                                                                                  S07 NPP00000000050000000000
123119999020000000000101000000003330000000000000000000000057600000000000000000000000909000000000000000MATERIAL PERMANENTE CONTROLADO POR RELACAO CARGA                                                                                                    A08 SPP00000000150000000000
123200000000000000000000000000360000000000000000000000000000000000000000000000000036000000000000000000BENS IMOVEIS                                                                                                                                        S04 NPP00000000050000000000
123210000000000000000000000000360000000000000000000000000000000000000000000000000036000000000000000000BENS IMOVEIS- CONSOLIDACAO                                                                                                                          S05 NPP00000000050000000000
123210100000000000000000000000360000000000000000000000000000000000000000000000000036000000000000000000BENS DE USO ESPECIAL                                                                                                                                S06 NPP00000000050000000000
123210104000000000000101000000360000000000000000000000000000000000000000000000000036000000000000000000TERRENOS/GLEBAS                                                                                                                                     A07 SPP00000000150000000000
123800000000000000000000000000000000000000069826160000000082600000000085860000000000000000000007758616- DEPRECIACAO EXAUSTAO E AMORTIZACAO ACUMULADAS                                                                                                     S04 NPP00000000050000000000
123810000000000000000000000000000000000000069826160000000082600000000085860000000000000000000007758616- DEPRECIACAO EXAUSTAO E AMORTIZACAO ACUMULADAS - CONSOLIDACAO                                                                                      S05 NPP00000000050000000000
123810100000000000000000000000000000000000069826160000000082600000000085860000000000000000000007758616- DEPRECIACAO ACUMULADA  BENS MOVEIS                                                                                                                S06 NPP00000000050000000000
123810101000000000000101000000000000000000013697960000000000000000000012437600000000000000000001494172- DEPRECIACAO ACUMULADA DE MAQUINAS APARELHOS EQUIPAMENTOS E FERRAMENTAS                                                                            A07 SPP00000000150000000000
123810102000000000000101000000000000000000032648150000000082600000000056420400000000000000000003746419- DEPRECIACAO ACUMULADA DE BENS DE INFORMATICA                                                                                                      A07 SPP00000000150000000000
123810103000000000000101000000000000000000010338070000000000000000000002382000000000000000000001057627- DEPRECIACAO ACUMULADA DE MOVEIS E UTENSILIOS                                                                                                      A07 SPP00000000150000000000
123810104000000000000101000000000000000000013141980000000000000000000014620000000000000000000001460398- DEPRECIACAO ACUMULADA DE MATERIAIS CULTURAIS EDUCACIONAIS E DE COMUNICACAO                                                                        A07 SPP00000000150000000000
123900000000000000000000000000000000000000000000000000000359940000000035994000000000000000000000000000- REDUCAO AO VALOR RECUPERAVEL DE IMOBILIZADO                                                                                                       S04 NPP00000000050000000000
123910000000000000000000000000000000000000000000000000000359940000000035994000000000000000000000000000- REDUCAO AO VALOR RECUPERAVEL DE IMOBILIZADO - CONSOLIDACAO                                                                                        S05 NPP00000000050000000000
123910100000000000000000000000000000000000000000000000000359940000000035994000000000000000000000000000- REDUCAO AO VALOR RECUPERAVEL DE IMOBILIZADO - BENS MOVEIS                                                                                         S06 NPP00000000050000000000
123910103000000000000101000000000000000000000000000000000359940000000035994000000000000000000000000000- REDUCAO A VALOR RECUPERAVEL DE MOVEIS E UTENSILIOS                                                                                                A07 SPP00000000150000000000
200000000000000000000000000000000000000000114123810000356585090000036431656000000000000000000019143851PASSIVO E PATRIMONIO LIQUIDO                                                                                                                        S01 NPF00000000050000000000
210000000000000000000000000000000000000000001774220000090661589000009839305900000000000000000007908892PASSIVO CIRCULANTE                                                                                                                                  S02 NPF00000000050000000000
211000000000000000000000000000000000000000001774220000007765435000001507439300000000000000000007486380OBRIGACOES TRABALHISTAS PREVIDENCIARIAS E ASSISTENCIAIS A PAGAR A CURTO PRAZO                                                                       S03 NPF00000000050000000000
211100000000000000000000000000000000000000001774220000001274290000000745419300000000000000000006357325PESSOAL A PAGAR                                                                                                                                     S04 NPF00000000050000000000
211110000000000000000000000000000000000000001774220000001274290000000745419300000000000000000006357325PESSOAL A PAGAR - CONSOLIDACAO                                                                                                                      S05 NPF00000000050000000000
211110100000000000000000000000000000000000001774220000001274290000000745419300000000000000000006357325PESSOAL A PAGAR                                                                                                                                     S06 NPF00000000050000000000
211110102000000000000000000000000000000000000000000000000183503000000526820200000000000000000005084699DECIMO TERCEIRO SALARIO                                                                                                                             S07 NPP00000000050000000000
211110102010000000000101000000000000000000000000000000000183503000000526820200000000000000000005084699DECIMO TERCEIRO SALARIO P                                                                                                                           A08 SPP00000000150000000000
211110103000000000000000000000000000000000001774220000001090787000000218599100000000000000000001272626FERIAS                                                                                                                                              S07 NPP00000000050000000000
211110103010000000000101000000000000000000001774220000001090787000000218599100000000000000000001272626FERIAS P                                                                                                                                            A08 SPP00000000150000000000
211400000000000000000000000000000000000000000000000000006491145000000762020000000000000000000001129055ENCARGOS SOCIAIS A PAGAR                                                                                                                            S04 NPF00000000050000000000
211420000000000000000000000000000000000000000000000000001757309000000206230700000000000000000000304998ENCARGOS SOCIAIS A PAGAR-INTRA OFSS                                                                                                                 S05 NPF00000000050000000000
211420100000000000000000000000000000000000000000000000001757309000000206230700000000000000000000304998CONTRIBUICAO A REGIME PROPRIO DE PREVIDENCIA RPPS                                                                                                   S06 NPF00000000050000000000
211420102000000000000101000000000000000000000000000000001757309000000000000000000017573090000000000000CONTRIBUICAO A REGIME PROPRIO DE PREVIDENCIA RPPS F                                                                                                 A07 SPF00000000250000000000
211420102000000000000101000000000000000000000000000000000000000000000206230700000000000000000002062307CONTRIBUICAO A REGIME PROPRIO DE PREVIDENCIA RPPS F                                                                                                 A07 SPF00000000150000000000
211430000000000000000000000000000000000000000000000000004733836000000555789300000000000000000000824057ENCARGOS SOCIAIS A PAGAR-INTER OFSS - UNIAO                                                                                                         S05 NPF00000000050000000000
211430100000000000000000000000000000000000000000000000004733836000000555789300000000000000000000824057CONTRIBUICOES AO RGPS A PAGAR                                                                                                                       S06 NPF00000000050000000000
211430101000000000000000000000000000000000000000000000004733836000000555789300000000000000000000824057CONTRIBUICOES AO RGPS SOBRE SALARIOS E REMUNERACOES                                                                                                 S07 NPF00000000050000000000
211430101020000000000101000000000000000000000000000000004542267000000000000000000045422670000000000000CONTRIBUICOES AO RGPS SOBRE SALARIOS E REMUNERACOES F                                                                                               A08 SPF00000000250000000000
211430101020000000000101000000000000000000000000000000000191569000000555789300000000000000000005366324CONTRIBUICOES AO RGPS SOBRE SALARIOS E REMUNERACOES F                                                                                               A08 SPF00000000150000000000
213000000000000000000000000000000000000000000000000000080388960000008081147200000000000000000000422512FORNECEDORES E CONTAS A PAGAR A CURTO PRAZO                                                                                                         S03 NPF00000000050000000000
213100000000000000000000000000000000000000000000000000080388960000008081147200000000000000000000422512FORNECEDORES E CONTAS A PAGAR NACIONAIS A CURTO PRAZO                                                                                               S04 NPF00000000050000000000
213110000000000000000000000000000000000000000000000000080388960000008081147200000000000000000000422512FORNECEDORES E CONTAS A PAGAR NACIONAIS A CURTO PRAZO - CONSOLIDACAO                                                                                S05 NPF00000000050000000000
213110100000000000000000000000000000000000000000000000080388960000008081147200000000000000000000422512FORNECEDORES NACIONAIS                                                                                                                              S06 NPF00000000050000000000
213110101000000000000000000000000000000000000000000000080388960000008081147200000000000000000000422512FORNECEDORES NAO PARCELADOS A PAGAR                                                                                                                 S07 NPF00000000050000000000
213110101010000000000101000000000000000000000000000000054925680000000818504500000467406350000000000000FORNECEDORES DO EXERCICIO                                                                                                                           A08 SPF00000000250000000000
213110101010000000000101000000000000000000000000000000025023816000007218696300000000000000000047163147FORNECEDORES DO EXERCICIO                                                                                                                           A08 SPF00000000150000000000
213110101020000000000000000000000000000000000000000000000439464000000043946400000000000000000000000000FORNECEDORES DE EXERCICIOS ANTERIORES                                                                                                               S08 NPF00000000050000000000
213110101021800000000101000000000000000000000000000000000439464000000043946400000000000000000000000000RESTOS A PAGAR 2024                                                                                                                                 A09 SPF00000000150000000000
218000000000000000000000000000000000000000000000000000002507194000000250719400000000000000000000000000ADIANTAMENTO DE CLIENTES E DEMAIS OBRIGACOES A CURTO PRAZO                                                                                          S03 NPF00000000050000000000
218800000000000000000000000000000000000000000000000000001615600000000161560000000000000000000000000000VALORES RESTITUIVEIS                                                                                                                                S04 NPF00000000050000000000
218810000000000000000000000000000000000000000000000000001564124000000156412400000000000000000000000000VALORES RESTITUIVEIS - CONSOLIDACAO                                                                                                                 S05 NPF00000000050000000000
218810400000000000000000000000000000000000000000000000001564124000000156412400000000000000000000000000DEPOSITOS NAO JUDICIAIS                                                                                                                             S06 NPF00000000050000000000
218810499000000000000101000000000000000000000000000000001564124000000156412400000000000000000000000000OUTROS DEPOSITOS                                                                                                                                    A07 SPF00000000186900000000
218820000000000000000000000000000000000000000000000000000007978000000000797800000000000000000000000000VALORES RESTITUIVEIS  INTRA OFSS                                                                                                                    S05 NPF00000000050000000000
218829901000000000000000000000000000000000000000000000000007978000000000797800000000000000000000000000OUTROS VALORES RESTITUIVEIS                                                                                                                         S07 NPP00000000050000000000
218829901010000000000101000000000000000000000000000000000007978000000000797800000000000000000000000000DESCONTOS A RECOLHER AO TESOURO MUNICIPAL                                                                                                           A08 SPF00000000186900000000
218830000000000000000000000000000000000000000000000000000043498000000004349800000000000000000000000000VALORES RESTITUIVEIS - INTER UNIAO                                                                                                                  S05 NPF00000000050000000000
218830100000000000000000000000000000000000000000000000000043498000000004349800000000000000000000000000CONSIGNACOES                                                                                                                                        S06 NPF00000000050000000000
218830104000000000000000000000000000000000000000000000000043498000000004349800000000000000000000000000IMPOSTO SOBRE A RENDA RETIDO NA FONTE - IRRF                                                                                                        S07 NPF00000000050000000000
218830104020000000000101000000000000000000000000000000000043498000000004349800000000000000000000000000IRRF SERVICOS PJ 1708-06 LEGISLATIVO                                                                                                                A08 SPF00000000186900000000
218900000000000000000000000000000000000000000000000000000891594000000089159400000000000000000000000000OUTRAS OBRIGACOES A CURTO PRAZO                                                                                                                     S04 NPF00000000050000000000
218910000000000000000000000000000000000000000000000000000891594000000089159400000000000000000000000000OUTRAS OBRIGACOES A CURTO PRAZO - CONSOLIDACAO                                                                                                      S05 NPF00000000050000000000
218910200000000000000101000000000000000000000000000000000891594000000089159400000000000000000000000000DIARIAS A PAGAR                                                                                                                                     A06 SPF00000000150000000000
230000000000000000000000000000000000000000112349590000265923501000026592350100000000000000000011234959PATRIMONIO LIQUIDO                                                                                                                                  S02 NPF00000000050000000000
237000000000000000000000000000000000000000112349590000265923501000026592350100000000000000000011234959RESULTADOS ACUMULADOS                                                                                                                               S03 NP 00000000050000000000
237100000000000000000000000000000000000000112349590000265923501000026592350100000000000000000011234959SUPERAVITS OU DEFICITS ACUMULADOS                                                                                                                   S04 NP 00000000050000000000
237110000000000000000000000039226084100000000000000000126490575000012649057500003922608410000000000000SUPERAVITS OU DEFICITS ACUMULADOS - CONSOLIDACAO                                                                                                    S05 NP 00000000050000000000
237110100000000000000101000012649057500000000000000000000000000000012649057500000000000000000000000000SUPERAVITS OU DEFICITS DO EXERCICIO                                                                                                                 A06 SP 00000000150000000000
237110200000000000000101000026577026600000000000000000126490575000000000000000003922608410000000000000SUPERAVITS OU DEFICITS DE EXERCICIOS ANTERIORES                                                                                                     A06 SP 00000000150000000000
237120000000000000000000000000000000000004898552950000133096013000013309601300000000000000000489855295SUPERAVITS OU DEFICITS ACUMULADOS - INTRA OFSS                                                                                                      S05 NP 00000000050000000000
237120100000000000000101000000000000000001330960130000133096013000000000000000000000000000000000000000SUPERAVITS OU DEFICITS DO EXERCICIO                                                                                                                 A06 SP 00000000150000000000
237120200000000000000101000000000000000003567592820000000000000000013309601300000000000000000489855295SUPERAVITS OU DEFICITS DE EXERCICIOS ANTERIORES                                                                                                     A06 SP 00000000150000000000
237130000000000000000000000008635949500000000000000000006336913000000633691300000863594950000000000000SUPERAVITS OU DEFICITS ACUMULADOS - INTER OFSS - UNIAO                                                                                              S05 NP 00000000050000000000
237130100000000000000101000000633691300000000000000000000000000000000633691300000000000000000000000000SUPERAVITS OU DEFICITS DO EXERCICIO                                                                                                                 A06 SP 00000000150000000000
237130200000000000000101000008002258200000000000000000006336913000000000000000000863594950000000000000SUPERAVITS OU DEFICITS DE EXERCICIOS ANTERIORES                                                                                                     A06 SP 00000000150000000000
300000000000000000000000000000000000000000000000000000214597731000000147300100002131247300000000000000VARIACAO PATRIMONIAL DIMINUTIVA                                                                                                                     S01 NP 00000000050000000000
310000000000000000000000000000000000000000000000000000072269478000000084288100000714265970000000000000PESSOAL E ENCARGOS                                                                                                                                  S02 NP 00000000050000000000
311000000000000000000000000000000000000000000000000000063708550000000064880700000630597430000000000000REMUNERACAO A PESSOAL                                                                                                                               S03 NP 00000000050000000000
311100000000000000000000000000000000000000000000000000018465469000000064880700000178166620000000000000REMUNERACAO A PESSOAL ATIVO CIVIL  ABRANGIDOS PELO RPPS                                                                                             S04 NP 00000000050000000000
311110000000000000000000000000000000000000000000000000018465469000000064880700000178166620000000000000REMUNERACAO A PESSOAL ATIVO CIVIL  ABRANGIDOS PELO RPPS - CONSOLIDACAO                                                                              S05 NP 00000000050000000000
311110100000000000000000000000000000000000000000000000018465469000000064880700000178166620000000000000VENCIMENTOS E VANTAGENS FIXAS - PESSOAL CIVIL - RPPS                                                                                                S06 NP 00000000050000000000
311110101000000000000101000000000000000000000000000000015407997000000064880700000147591900000000000000VENCIMENTOS E SALARIOS                                                                                                                              A07 SP 00000000150000000000
311110106000000000000101000000000000000000000000000000000407185000000000000000000004071850000000000000ADICIONAL DE INSALUBRIDADE                                                                                                                          A07 SP 00000000150000000000
311110118000000000000101000000000000000000000000000000000188159000000000000000000001881590000000000000GRATIFICACAO DE TEMPO DE SERVICO                                                                                                                    A07 SP 00000000150000000000
31111012200000000000010100000000000000000000000000000000073566900000000000000000000735669000000000000013 SALARIO                                                                                                                                          A07 SP 00000000150000000000
311110124000000000000101000000000000000000000000000000001726459000000000000000000017264590000000000000FERIAS  ABONO CONSTITUCIONAL                                                                                                                        A07 SP 00000000150000000000
311200000000000000000000000000000000000000000000000000045243081000000000000000000452430810000000000000REMUNERACAO A PESSOAL ATIVO CIVIL  ABRANGIDOS PELO RGPS                                                                                             S04 NP 00000000050000000000
311210000000000000000000000000000000000000000000000000045243081000000000000000000452430810000000000000REMUNERACAO A PESSOAL ATIVO CIVIL  ABRANGIDOS PELO RGPS - CONSOLIDACAO                                                                              S05 NP 00000000050000000000
311210100000000000000000000000000000000000000000000000045243081000000000000000000452430810000000000000VENCIMENTOS E VANTAGENS FIXAS - PESSOAL CIVIL - RGPS                                                                                                S06 NP 00000000050000000000
311210101000000000000101000000000000000000000000000000002046220000000000000000000020462200000000000000VENCIMENTOS E SALARIOS                                                                                                                              A07 SP 00000000150000000000
311210106000000000000101000000000000000000000000000000000065675000000000000000000000656750000000000000ADICIONAL DE INSALUBRIDADE                                                                                                                          A07 SP 00000000150000000000
311210118000000000000101000000000000000000000000000000000033996000000000000000000000339960000000000000GRATIFICACAO DE TEMPO DE  SERVICO                                                                                                                   A07 SP 00000000150000000000
31121012200000000000010100000000000000000000000000000000453253300000000000000000004532533000000000000013 SALARIO                                                                                                                                          A07 SP 00000000150000000000
311210124000000000000101000000000000000000000000000000000045953000000000000000000000459530000000000000FERIAS - ABONO CONSTITUCIONAL                                                                                                                       A07 SP 00000000150000000000
311210128000000000000101000000000000000000000000000000001038240000000000000000000010382400000000000000REPRESENTACAO MENSAL                                                                                                                                A07 SP 00000000150000000000
311210131000000000000101000000000000000000000000000000037480464000000000000000000374804640000000000000SUBSIDIOS                                                                                                                                           A07 SP 00000000150000000000
312000000000000000000000000000000000000000000000000000008560928000000019407400000083668540000000000000ENCARGOS PATRONAIS                                                                                                                                  S03 NP 00000000050000000000
312100000000000000000000000000000000000000000000000000002356310000000000250500000023538050000000000000ENCARGOS PATRONAIS - RPPS                                                                                                                           S04 NP 00000000050000000000
312120000000000000000000000000000000000000000000000000002356310000000000250500000023538050000000000000ENCARGOS PATRONAIS - RPPS - INTRA OFSS                                                                                                              S05 NP 00000000050000000000
312120100000000000000101000000000000000000000000000000002356310000000000250500000023538050000000000000CONTRIBUICAO PATRONAL PARA O RPPS                                                                                                                   A06 SP 00000000150000000000
312200000000000000000000000000000000000000000000000000006204618000000019156900000060130490000000000000ENCARGOS PATRONAIS - RGPS                                                                                                                           S04 NP 00000000050000000000
312230000000000000000000000000000000000000000000000000006204618000000019156900000060130490000000000000ENCARGOS PATRONAIS - RGPS - INTER OFSS - UNIAO                                                                                                      S05 NP 00000000050000000000
312230100000000000000101000000000000000000000000000000006204618000000019156900000060130490000000000000CONTRIBUICOES PREVIDENCIARIAS - RGPS                                                                                                                A06 SP 00000000150000000000
320000000000000000000000000000000000000000000000000000000146751000000000000000000001467510000000000000BENEFICIOS PREVIDENCIARIOS E ASSISTENCIAIS                                                                                                          S02 NP 00000000050000000000
329000000000000000000000000000000000000000000000000000000146751000000000000000000001467510000000000000OUTROS BENEFICIOS PREVIDENCIARIOS E ASSISTENCIAIS                                                                                                   S03 NP 00000000050000000000
329100000000000000000000000000000000000000000000000000000146751000000000000000000001467510000000000000OUTROS BENEFICIOS PREVIDENCIARIOS E ASSISTENCIAIS - SERVIDOR CIVIL                                                                                  S04 NP 00000000050000000000
329110000000000000000000000000000000000000000000000000000146751000000000000000000001467510000000000000OUTROS BENEFICIOS PREVIDENCIARIOS E ASSISTENCIAIS - SERVIDOR CIVIL - CONSOLIDACAO                                                                   S05 NP 00000000050000000000
329111000000000000000101000000000000000000000000000000000146751000000000000000000001467510000000000000AUXILIO-DOENCA                                                                                                                                      A06 SP 00000000150000000000
330000000000000000000000000000000000000000000000000000021161838000000027018000000208916580000000000000USO DE BENS SERVICOS E CONSUMO DE CAPITAL FIXO                                                                                                      S02 NP 00000000050000000000
331000000000000000000000000000000000000000000000000000004747887000000000000000000047478870000000000000USO DE MATERIAL DE CONSUMO                                                                                                                          S03 NP 00000000050000000000
331100000000000000000000000000000000000000000000000000004731887000000000000000000047318870000000000000CONSUMO DE MATERIAL                                                                                                                                 S04 NP 00000000050000000000
331110000000000000000000000000000000000000000000000000004731887000000000000000000047318870000000000000CONSUMO DE MATERIAL - CONSOLIDACAO                                                                                                                  S05 NP 00000000050000000000
331110600000000000000101000000000000000000000000000000003531294000000000000000000035312940000000000000GENEROS ALIMENTACAO                                                                                                                                 A06 SP 00000000150000000000
331111500000000000000101000000000000000000000000000000000134400000000000000000000001344000000000000000MATERIAL PARA FESTIVIDADES E HOMENAGENS                                                                                                             A06 SP 00000000150000000000
331111600000000000000101000000000000000000000000000000000232740000000000000000000002327400000000000000MATERIAL DE EXPEDIENTE                                                                                                                              A06 SP 00000000150000000000
331111700000000000000101000000000000000000000000000000000058380000000000000000000000583800000000000000MATERIAL DE PROCESSAMENTO DE DADOS                                                                                                                  A06 SP 00000000150000000000
331112100000000000000101000000000000000000000000000000000004623000000000000000000000046230000000000000MATERIAL DE COPA E COZINHA                                                                                                                          A06 SP 00000000150000000000
331112200000000000000101000000000000000000000000000000000090350000000000000000000000903500000000000000MATERIAL DE LIMPEZA E PRODUTOS DE HIGIENIZACAO                                                                                                      A06 SP 00000000150000000000
331112400000000000000101000000000000000000000000000000000575100000000000000000000005751000000000000000MATERIAL PARA MANUTENCAO DE BENS IMOVEIS E INSTALACOES                                                                                              A06 SP 00000000150000000000
331112500000000000000101000000000000000000000000000000000008680000000000000000000000086800000000000000MATERIAL PARA MANUTENCAO DE BENS                                                                                                                    A06 SP 00000000150000000000
331112600000000000000101000000000000000000000000000000000070320000000000000000000000703200000000000000MATERIAL ELETRICO E ELETRONICO                                                                                                                      A06 SP 00000000150000000000
331112800000000000000101000000000000000000000000000000000026000000000000000000000000260000000000000000MATERIAL DE PROTECAO E SEGURANCA                                                                                                                    A06 SP 00000000150000000000
331200000000000000000000000000000000000000000000000000000016000000000000000000000000160000000000000000DISTRIBUICAO DE MATERIAL GRATUITO                                                                                                                   S04 NP 00000000050000000000
331210000000000000000000000000000000000000000000000000000016000000000000000000000000160000000000000000DISTRIBUICAO DE MATERIAL GRATUITO - CONSOLIDACAO                                                                                                    S05 NP 00000000050000000000
331210200000000000000101000000000000000000000000000000000016000000000000000000000000160000000000000000MATERIAL DESTINADO A ASSISTENCIA SOCIAL                                                                                                             A06 SP 00000000150000000000
332000000000000000000000000000000000000000000000000000015555351000000027018000000152851710000000000000SERVICOS                                                                                                                                            S03 NP 00000000050000000000
332100000000000000000000000000000000000000000000000000007221552000000027018000000069513720000000000000DIARIAS                                                                                                                                             S04 NP 00000000050000000000
332110000000000000000000000000000000000000000000000000007221552000000027018000000069513720000000000000DIARIAS - CONSOLIDACAO                                                                                                                              S05 NP 00000000050000000000
332110100000000000000101000000000000000000000000000000007221552000000027018000000069513720000000000000DIARIAS PESSOAL CIVIL                                                                                                                               A06 SP 00000000150000000000
332200000000000000000000000000000000000000000000000000000869210000000000000000000008692100000000000000SERVICOS TERCEIROS - PF                                                                                                                             S04 NP 00000000050000000000
332210000000000000000000000000000000000000000000000000000869210000000000000000000008692100000000000000SERVICOS TERCEIROS - PF - CONSOLIDACAO                                                                                                              S05 NP 00000000050000000000
332210100000000000000101000000000000000000000000000000000869210000000000000000000008692100000000000000CONSULTORIA E ASSESSORIA                                                                                                                            A06 SP 00000000150000000000
332300000000000000000000000000000000000000000000000000007464589000000000000000000074645890000000000000SERVICOS TERCEIROS - PJ                                                                                                                             S04 NP 00000000050000000000
332310000000000000000000000000000000000000000000000000007464589000000000000000000074645890000000000000SERVICOS TERCEIROS - PJ - CONSOLIDACAO                                                                                                              S05 NP 00000000050000000000
332310400000000000000101000000000000000000000000000000000134180000000000000000000001341800000000000000COMUNICACAO                                                                                                                                         A06 SP 00000000150000000000
332310500000000000000101000000000000000000000000000000001000324000000000000000000010003240000000000000PUBLICIDADE                                                                                                                                         A06 SP 00000000150000000000
332310600000000000000101000000000000000000000000000000000319500000000000000000000003195000000000000000MANUTENCAO E CONSERVACAO                                                                                                                            A06 SP 00000000150000000000
332311000000000000000101000000000000000000000000000000000063000000000000000000000000630000000000000000LOCACOES                                                                                                                                            A06 SP 00000000150000000000
332311100000000000000101000000000000000000000000000000000647073000000000000000000006470730000000000000SERVICOS RELACIONADOS A TECNOLOGIA DA INFORMACAO                                                                                                    A06 SP 00000000150000000000
332311200000000000000101000000000000000000000000000000000958312000000000000000000009583120000000000000SERVICOS DE TRANSPORTE                                                                                                                              A06 SP 00000000150000000000
332311400000000000000101000000000000000000000000000000000007500000000000000000000000075000000000000000ASSINATURAS DE PERIODICOS E ANUIDADES                                                                                                               A06 SP 00000000150000000000
332313000000000000000101000000000000000000000000000000004016800000000000000000000040168000000000000000SELECAO E TREINAMENTO                                                                                                                               A06 SP 00000000150000000000
332313600000000000000101000000000000000000000000000000000240000000000000000000000002400000000000000000SERVICOS DE AUDIO VIDEO E FOTO                                                                                                                      A06 SP 00000000150000000000
332315100000000000000101000000000000000000000000000000000077900000000000000000000000779000000000000000SERVICOS TECNICOS PROFISSIONAIS                                                                                                                     A06 SP 00000000150000000000
333000000000000000000000000000000000000000000000000000000858600000000000000000000008586000000000000000DEPRECIACAO AMORTIZACAO E EXAUSTAO                                                                                                                  S03 NP 00000000050000000000
333100000000000000000000000000000000000000000000000000000858600000000000000000000008586000000000000000DEPRECIACAO                                                                                                                                         S04 NP 00000000050000000000
333110000000000000000000000000000000000000000000000000000858600000000000000000000008586000000000000000DEPRECIACAO - CONSOLIDACAO                                                                                                                          S05 NP 00000000050000000000
333110100000000000000000000000000000000000000000000000000858600000000000000000000008586000000000000000DEPRECIACAO DE IMOBILIZADO                                                                                                                          S06 NP 00000000050000000000
333110101000000000000101000000000000000000000000000000000858600000000000000000000008586000000000000000DEPRECIACAO DE BENS MOVEIS                                                                                                                          A07 SP 00000000150000000000
350000000000000000000000000000000000000000000000000000005000000000000000000000000050000000000000000000TRANSFERENCIAS E DELEGACOES CONCEDIDAS                                                                                                              S02 NP 00000000050000000000
351000000000000000000000000000000000000000000000000000005000000000000000000000000050000000000000000000TRANSFERENCIAS INTRAGOVERNAMENTAIS                                                                                                                  S03 NP 00000000050000000000
351100000000000000000000000000000000000000000000000000005000000000000000000000000050000000000000000000TRANSFERENCIAS CONCEDIDAS PARA A EXECUCAO ORCAMENTARIA                                                                                              S04 NP 00000000050000000000
351120000000000000000000000000000000000000000000000000005000000000000000000000000050000000000000000000TRANSFERENCIAS CONCEDIDAS PARA A EXECUCAO ORCAMENTARIA -  INTRA OFSS                                                                                S05 NP 00000000050000000000
351120200000000000000101000000000000000000000000000000005000000000000000000000000050000000000000000000REPASSE CONCEDIDO                                                                                                                                   A06 SP 00000000150000000000
360000000000000000000000000000000000000000000000000000114500311000000035994000001141403710000000000000DESVALORIZACAO E PERDA DE ATIVOS E INCORPORACAO DE PASSIVOS                                                                                         S02 NP 00000000050000000000
361000000000000000000000000000000000000000000000000000000936187000000035994000000005762470000000000000REAVALIACAO REDUCAO A VALOR RECUPERAVEL E AJUSTE PARA PERDAS                                                                                        S03 NP 00000000050000000000
361100000000000000000000000000000000000000000000000000000359940000000035994000000000000000000000000000REAVALIACAO DE IMOBILIZADO                                                                                                                          S04 NP 00000000050000000000
361110000000000000000000000000000000000000000000000000000359940000000035994000000000000000000000000000REAVALIACAO DE IMOBILIZADO - CONSOLIDACAO                                                                                                           S05 NP 00000000050000000000
361110100000000000000000000000000000000000000000000000000359940000000035994000000000000000000000000000REAVALIACAO DE BENS MOVEIS                                                                                                                          S06 NP 00000000050000000000
361110103000000000000101000000000000000000000000000000000359940000000035994000000000000000000000000000REAVALIACAO DE MOVEIS E UTENSILIOS                                                                                                                  A07 SP 00000000150000000000
361300000000000000000000000000000000000000000000000000000576247000000000000000000005762470000000000000REAVALIACAO DE OUTROS ATIVOS                                                                                                                        S04 NP 00000000050000000000
361310000000000000000000000000000000000000000000000000000576247000000000000000000005762470000000000000REAVALIACAO DE OUTROS ATIVOS - CONSOLIDACAO                                                                                                         S05 NP 00000000050000000000
361310100000000000000101000000000000000000000000000000000576247000000000000000000005762470000000000000REAVALIACAO DE ATIVOS DECORRENTES DE CONCILIACAO DE SALDOS                                                                                          A06 SP 00000000150000000000
365000000000000000000000000000000000000000000000000000113564124000000000000000001135641240000000000000DESINCORPORACAO DE ATIVOS                                                                                                                           S03 NP 00000000050000000000
365100000000000000000000000000000000000000000000000000113564124000000000000000001135641240000000000000DESINCORPORACAO DE ATIVOS                                                                                                                           S04 NP 00000000050000000000
365120000000000000000000000000000000000000000000000000113564124000000000000000001135641240000000000000DESINCORPORACAO DE ATIVOS - INTRA OFSS                                                                                                              S05 NP 00000000050000000000
365120300000000000000101000000000000000000000000000000113564124000000000000000001135641240000000000000DESINCORPORACAO DE CREDITOS A RECEBER - INTRA-OFSS                                                                                                  A06 SP 00000000150000000000
390000000000000000000000000000000000000000000000000000001519353000000000000000000015193530000000000000OUTRAS VARIACOES PATRIMONIAIS DIMINUTIVAS                                                                                                           S02 NP 00000000050000000000
399000000000000000000000000000000000000000000000000000001519353000000000000000000015193530000000000000DIVERSAS VARIACOES PATRIMONIAIS DIMINUTIVAS                                                                                                         S03 NP 00000000050000000000
399600000000000000000000000000000000000000000000000000001519353000000000000000000015193530000000000000INDENIZACOES RESTITUICOES E RESSARCIMENTOS                                                                                                          S04 NP 00000000050000000000
399610000000000000000101000000000000000000000000000000001519353000000000000000000015193530000000000000INDENIZACOES RESTITUICOES E RESSARCIMENTOS - CONSOLIDACAO                                                                                           A05 SP 00000000150000000000
400000000000000000000000000000000000000000000000000000000000000000028714037100000000000000000287140371VARIACAO PATRIMONIAL AUMENTATIVA                                                                                                                    S01 NP 00000000050000000000
450000000000000000000000000000000000000000000000000000000000000000011356412400000000000000000113564124TRANSFERENCIAS E DELEGACOES RECEBIDAS                                                                                                               S02 NP 00000000050000000000
451000000000000000000000000000000000000000000000000000000000000000011356412400000000000000000113564124TRANSFERENCIAS INTRAGOVERNAMENTAIS                                                                                                                  S03 NP 00000000050000000000
451100000000000000000000000000000000000000000000000000000000000000011356412400000000000000000113564124TRANSFERENCIAS RECEBIDAS PARA A EXECUCAO ORCAMENTARIA                                                                                               S04 NP 00000000050000000000
451120000000000000000000000000000000000000000000000000000000000000011356412400000000000000000113564124TRANSFERENCIAS RECEBIDAS PARA A EXECUCAO ORCAMENTARIA - INTRA OFSS                                                                                  S05 NP 00000000050000000000
451120200000000000000101000000000000000000000000000000000000000000011356412400000000000000000113564124REPASSE RECEBIDO                                                                                                                                    A06 SP 00000000150000000000
460000000000000000000000000000000000000000000000000000000000000000000057624700000000000000000000576247VALORIZACAO E GANHOS COM ATIVOS E DESINCORPORACAO DE PASSIVOS                                                                                       S02 NP 00000000050000000000
461000000000000000000000000000000000000000000000000000000000000000000057624700000000000000000000576247REAVALIACAO DE ATIVOS                                                                                                                               S03 NP 00000000050000000000
461100000000000000000000000000000000000000000000000000000000000000000035994000000000000000000000359940REAVALIACAO DE IMOBILIZADO                                                                                                                          S04 NP 00000000050000000000
461110000000000000000000000000000000000000000000000000000000000000000035994000000000000000000000359940REAVALIACAO DE IMOBILIZADO - CONSOLIDACAO                                                                                                           S05 NP 00000000050000000000
461110100000000000000000000000000000000000000000000000000000000000000035994000000000000000000000359940REAVALIACAO DE BENS MOVEIS                                                                                                                          S06 NP 00000000050000000000
461110103000000000000101000000000000000000000000000000000000000000000035994000000000000000000000359940REAVALIACAO DE MOVEIS E UTENSILIOS                                                                                                                  A07 SP 00000000150000000000
461900000000000000000000000000000000000000000000000000000000000000000021630700000000000000000000216307REAVALIACAO DE OUTROS ATIVOS                                                                                                                        S04 NP 00000000050000000000
461910000000000000000000000000000000000000000000000000000000000000000021630700000000000000000000216307REAVALIACAO DE OUTROS ATIVOS - CONSOLIDACAO                                                                                                         S05 NP 00000000050000000000
461910100000000000000101000000000000000000000000000000000000000000000021630700000000000000000000216307REAVALIACAO DE ATIVOS DECORRENTES DE CONCILIACAO DE SALDOS                                                                                          A06 SP 00000000150000000000
490000000000000000000000000000000000000000000000000000000000000000017300000000000000000000000173000000OUTRAS VARIACOES PATRIMONIAIS AUMENTATIVAS                                                                                                          S02 NP 00000000050000000000
499000000000000000000000000000000000000000000000000000000000000000017300000000000000000000000173000000DIVERSAS VARIACOES PATRIMONIAIS AUMENTATIVAS                                                                                                        S03 NP 00000000050000000000
499900000000000000000000000000000000000000000000000000000000000000017300000000000000000000000173000000VARIACOES PATRIMONIAIS AUMENTATIVAS DECORRENTES DE FATOS GERADORES DIVERSOS                                                                         S04 NP 00000000050000000000
499920000000000000000000000000000000000000000000000000000000000000017300000000000000000000000173000000VARIACOES PATRIMONIAIS AUMENTATIVAS DECORRENTES DE FATOS GERADORES DIVERSOS - INTRA-OFSS                                                            S05 NP 00000000050000000000
499920100000000000000101000000000000000000000000000000000000000000017300000000000000000000000173000000DUODECIMO LEGISLATIVO - INTRA-OFSS                                                                                                                  A06 SP 00000000150000000000
500000000000000000000000000000043946400000000000000000268449513000000543777900002634511980000000000000CONTROLES DA APROVACAO DO PLANEJAMENTO E ORCAMENTO                                                                                                  S01 NO 00000000050000000000
520000000000000000000000000000000000000000000000000000268010049000000499831500002630117340000000000000ORCAMENTO APROVADO                                                                                                                                  S02 NO 00000000050000000000
522000000000000000000000000000000000000000000000000000268010049000000499831500002630117340000000000000FIXACAO DA DESPESA                                                                                                                                  S03 NO 00000000050000000000
522100000000000000000000000000000000000000000000000000175600000000000260000000001730000000000000000000DOTACAO ORCAMENTARIA                                                                                                                                S04 NO 00000000050000000000
522110000000000000000000000000000000000000000000000000173000000000000000000000001730000000000000000000DOTACAO INICIAL                                                                                                                                     S05 NO 00000000050000000000
522110100000000000000101000000000000000000000000000000173000000000000000000000001730000000000000000000CREDITO INICIAL                                                                                                                                     A06 SO 00000000150000000000
522120000000000000000000000000000000000000000000000000001300000000000000000000000013000000000000000000DOTACAO ADICIONAL POR TIPO DE CREDITO                                                                                                               S05 NO 00000000050000000000
522120100000000000000101000000000000000000000000000000001300000000000000000000000013000000000000000000CREDITO ADICIONAL  SUPLEMENTAR                                                                                                                      A06 SO 00000000150000000000
522130000000000000000000000000000000000000000000000000001300000000000130000000000000000000000000000000DOTACAO ADICIONAL POR FONTE                                                                                                                         S05 NO 00000000050000000000
522130300000000000000101000000000000000000000000000000001300000000000000000000000013000000000000000000ANULACAO DE DOTACAO                                                                                                                                 A06 SO 00000000150000000000
522139900000000000000101000000000000000000000000000000000000000000000130000000000000000000000001300000VALOR GLOBAL DA DOTACAO ADICIONAL POR FONTE                                                                                                         A06 SO 00000000150000000000
522190000000000000000000000000000000000000000000000000000000000000000130000000000000000000000001300000CANCELAMENTO/REMANEJAMENTO DE DOTACAO                                                                                                               S05 NO 00000000050000000000
522190400000000000000101000000000000000000000000000000000000000000000130000000000000000000000001300000- CANCELAMENTO DE DOTACOES                                                                                                                          A06 SO 00000000150000000000
522900000000000000000000000000000000000000000000000000092410049000000239831500000900117340000000000000OUTROS CONTROLES DA DESPESA ORCAMENTARIA                                                                                                            S04 NO 00000000050000000000
522920000000000000000000000000000000000000000000000000092410049000000239831500000900117340000000000000EMPENHOS POR EMISSAO                                                                                                                                S05 NO 00000000050000000000
522920100000000000000000000000000000000000000000000000092410049000000239831500000900117340000000000000EXECUCAO DA DESPESA POR NOTA DE EMPENHO                                                                                                             S06 NO 00000000050000000000
522920101000000000000101000000000000000000000000000000092410049000000000000000000924100490000000000000EMISSAO DE EMPENHOS                                                                                                                                 A07 SO 00000000150000000000
522920103000000000000101000000000000000000000000000000000000000000000239831500000000000000000002398315- ANULACAO DE EMPENHOS                                                                                                                              A07 SO 00000000150000000000
530000000000000000000000000000043946400000000000000000000439464000000043946400000004394640000000000000INSCRICAO DE RESTOS A PAGAR                                                                                                                         S02 NO 00000000050000000000
531000000000000000000000000000043946400000000000000000000439464000000043946400000004394640000000000000INSCRICAO DE RP NAO PROCESSADOS                                                                                                                     S03 NO 00000000050000000000
531100000000000000000101000000000000000000000000000000000439464000000000000000000004394640000000000000RP NAO PROCESSADOS INSCRITOS                                                                                                                        A04 SO 00000000150000000000
531700000000000000000101000000043946400000000000000000000000000000000043946400000000000000000000000000RP NAO PROCESSADOS - INSCRICAO NO EXERCICIO                                                                                                         A04 SO 00000000150000000000
600000000000000000000000000000000000000000004394640000452257145000071526887900000000000000000263451198CONTROLES DA EXECUCAO DO PLANEJAMENTO E ORCAMENTO                                                                                                   S01 NO 00000000050000000000
620000000000000000000000000000000000000000000000000000450938753000071395048700000000000000000263011734EXECUCAO DO ORCAMENTO                                                                                                                               S02 NO 00000000050000000000
622000000000000000000000000000000000000000000000000000450938753000071395048700000000000000000263011734EXECUCAO DA DESPESA                                                                                                                                 S03 NO 00000000050000000000
622100000000000000000000000000000000000000000000000000272324401000044532440100000000000000000173000000DISPONIBILIDADES DE CREDITO                                                                                                                         S04 NO 00000000050000000000
622110000000000000000101000000000000000000000000000000093710049000017669831500000000000000000082988266CREDITO DISPONIVEL                                                                                                                                  A05 SO 00000000150000000000
622130000000000000000000000000000000000000000000000000178614352000026862608600000000000000000090011734CREDITO UTILIZADO                                                                                                                                   S05 NO 00000000050000000000
622130100000000000000101000000000000000000000000000000009249936000000924483100000000051050000000000000CREDITO EMPENHADO A LIQUIDAR                                                                                                                        A06 SO 00000000250000000000
622130100000000000000101000000000000000000000000000000082032181000008469185800000000000000000002659677CREDITO EMPENHADO A LIQUIDAR                                                                                                                        A06 SO 00000000150000000000
622130300000000000000101000000000000000000000000000000087332235000008888380200000000000000000001551567CREDITO EMPENHADO LIQUIDADO A PAGAR                                                                                                                 A06 SO 00000000150000000000
622130400000000000000101000000000000000000000000000000000000000000008580559500000000000000000085805595CREDITO EMPENHADO LIQUIDADO PAGO                                                                                                                    A06 SO 00000000150000000000
622900000000000000000000000000000000000000000000000000178614352000026862608600000000000000000090011734OUTROS CONTROLES DA DESPESA ORCAMENTARIA                                                                                                            S04 NO 00000000050000000000
622920000000000000000000000000000000000000000000000000178614352000026862608600000000000000000090011734EMISSAO DE EMPENHO                                                                                                                                  S05 NO 00000000050000000000
622920100000000000000000000000000000000000000000000000178614352000026862608600000000000000000090011734EMPENHOS POR NOTA DE EMPENHO                                                                                                                        S06 NO 00000000050000000000
622920101000000000000101000000000000000000000000000000091282117000009393668900000000000000000002654572EMPENHOS A LIQUIDAR                                                                                                                                 A07 SO 00000000150000000000
622920103000000000000101000000000000000000000000000000087332235000008888380200000000000000000001551567EMPENHOS LIQUIDADOS A PAGAR                                                                                                                         A07 SO 00000000150000000000
622920104000000000000101000000000000000000000000000000000000000000008580559500000000000000000085805595EMPENHOS LIQUIDADOS PAGOS                                                                                                                           A07 SO 00000000150000000000
630000000000000000000000000000000000000000004394640000001318392000000131839200000000000000000000439464EXECUCAO DE RESTOS A PAGAR                                                                                                                          S02 NO 00000000050000000000
631000000000000000000000000000000000000000004394640000001318392000000131839200000000000000000000439464EXECUCAO DE RP NAO PROCESSADOS                                                                                                                      S03 NO 00000000050000000000
631100000000000000000101000000000000000000000000000000000439464000000043946400000000000000000000000000RP NAO PROCESSADOS A LIQUIDAR                                                                                                                       A04 SO 00000000150000000000
631300000000000000000101000000000000000000000000000000000439464000000043946400000000000000000000000000RP NAO PROCESSADOS LIQUIDADOS A PAGAR                                                                                                               A04 SO 00000000150000000000
631400000000000000000101000000000000000000000000000000000000000000000043946400000000000000000000439464RP NAO PROCESSADOS PAGOS                                                                                                                            A04 SO 00000000150000000000
631700000000000000000000000000000000000000004394640000000439464000000000000000000000000000000000000000RP NAO PROCESSADOS - INSCRICAO NO EXERCICIO                                                                                                         S04 NO 00000000050000000000
631710000000000000000101000000000000000000004394640000000439464000000000000000000000000000000000000000RP NAO PROCESSADOS A LIQUIDAR - INSCRICAO NO EXERCICIO                                                                                              A05 SO 00000000150000000000
700000000000000000000000000000736716300000000000000000120460832000000692769900001209002960000000000000CONTROLES DEVEDORES                                                                                                                                 S01 NC 00000000050000000000
710000000000000000000000000000692769900000000000000000006845232000000692769900000068452320000000000000ATOS POTENCIAIS                                                                                                                                     S02 NC 00000000050000000000
712000000000000000000000000000692769900000000000000000006845232000000692769900000068452320000000000000ATOS POTENCIAIS PASSIVOS                                                                                                                            S03 NC 00000000050000000000
712300000000000000000000000000692769900000000000000000006845232000000692769900000068452320000000000000OBRIGACOES CONTRATUAIS                                                                                                                              S04 NC 00000000050000000000
712310000000000000000000000000692769900000000000000000006845232000000692769900000068452320000000000000OBRIGACOES CONTRATUAIS - CONSOLIDACAO                                                                                                               S05 NC 00000000050000000000
712310200000000000000101000000692769900000000000000000006845232000000692769900000068452320000000000000CONTRATOS DE SERVICOS                                                                                                                               A06 SC 00000000150000000000
720000000000000000000000000000043946400000000000000000113615600000000000000000001140550640000000000000ADMINISTRACAO FINANCEIRA                                                                                                                            S02 NC 00000000050000000000
721000000000000000000000000000043946400000000000000000113615600000000000000000001140550640000000000000DISPONIBILIDADES POR DESTINACAO                                                                                                                     S03 NC 00000000050000000000
721100000000000000000000000000043946400000000000000000113615600000000000000000001140550640000000000000CONTROLE DA DISPONIBILIDADE DE RECURSOS                                                                                                             S04 NC 00000000050000000000
721110000000000000000000000000043946400000000000000000113564124000000000000000001140035880000000000000RECURSOS ORDINARIOS                                                                                                                                 S05 NC 00000000050000000000
721110500000000000000101000000043946400000000000000000113564124000000000000000001140035880000000000000DDR RECURSO ORDINARIOS - Recursos nao Vinculados de Impostos                                                                                        A06 SC 00000000150000000000
721130000000000000000000000000000000000000000000000000000051476000000000000000000000514760000000000000RECURSOS EXTRA-ORCAMENTARIOS                                                                                                                        S05 NC 00000000050000000000
721130869000000000000101000000000000000000000000000000000051476000000000000000000000514760000000000000DDR RECURSO VINCULADOS - Outros Recursos Extraorcamentarios                                                                                         A07 SC 00000000186900000000
800000000000000000000000000000000000000000073671630000288132409000040166554200000000000000000120900296CONTROLES CREDORES                                                                                                                                  S01 NC 00000000050000000000
810000000000000000000000000000000000000000069276990000011177604000001109513700000000000000000006845232EXECUCAO DOS ATOS POTENCIAIS                                                                                                                        S02 NC 00000000050000000000
812000000000000000000000000000000000000000069276990000011177604000001109513700000000000000000006845232EXECUCAO DOS ATOS POTENCIAIS PASSIVOS                                                                                                               S03 NC 00000000050000000000
812300000000000000000000000000000000000000069276990000011177604000001109513700000000000000000006845232EXECUCAO DE OBRIGACOES CONTRATUAIS                                                                                                                  S04 NC 00000000050000000000
812310000000000000000000000000000000000000069276990000011177604000001109513700000000000000000006845232EXECUCAO DE OBRIGACOES -CONSOLIDACAO                                                                                                                S05 NC 00000000050000000000
812310200000000000000000000000000000000000069276990000011177604000001109513700000000000000000006845232CONTRATOS DE SERVICOS                                                                                                                               S06 NC 00000000050000000000
812310201000000000000101000000000000000000000000000000004249905000000684523200000000000000000002595327A EXECUTAR                                                                                                                                          A07 SC 00000000150000000000
812310202000000000000101000000000000000000069276990000006927699000000424990500000000000000000004249905EXECUTADOS                                                                                                                                          A07 SC 00000000150000000000
820000000000000000000000000000000000000000004394640000276954805000039057040500000000000000000114055064EXECUCAO DA ADMINISTRACAO FINANCEIRA                                                                                                                S02 NC 00000000050000000000
821000000000000000000000000000000000000000004394640000276954805000039057040500000000000000000114055064EXECUCAO DAS DISPONIBILIDADES POR DESTINACAO                                                                                                        S03 NC 00000000050000000000
821100000000000000000000000000000000000000004394640000276954805000039057040500000000000000000114055064EXECUCAO DA DISPONIBILIDADE DE RECURSOS                                                                                                             S04 NC 00000000050000000000
821110000000000000000000000000000000000000000000000000097410049000011596243900000000000000000018552390DISPONIBILIDADE POR DESTINACAO DE RECURSOS                                                                                                          S05 NC 00000000050000000000
821110100000000000000000000000000000000000000000000000097410049000011596243900000000000000000018552390RECURSOS DISPONIVEIS PARA O EXERCICIO                                                                                                               S06 NC 00000000050000000000
821110105000000000000101000000000000000000000000000000097410049000011596243900000000000000000018552390DDR DISPONIVEIS PARA O EXERCICIO - Recursos nao Vinculados de Impostos                                                                              A07 SC 00000000150000000000
821120000000000000000000000000000000000000004394640000091721581000009393668900000000000000000002654572DISPONIBILIDADE POR DESTINACAO DE RECURSOS COMPROMETIDA POR EMPENHO                                                                                 S05 NC 00000000050000000000
821120105000000000000101000000000000000000004394640000091721581000009393668900000000000000000002654572DDR COMPROMETIDA POR EMPENHO - Recursos nao Vinculados de Impostos                                                                                  A07 SC 00000000150000000000
821130000000000000000000000000000000000000000000000000087823175000008937474200000000000000000001551567DISPONIBILIDADE POR DESTINACAO DE RECURSOS COMPROMETIDA POR LIQUIDACAO E ENTRADAS COMPENSATORIAS                                                    S05 NC 00000000050000000000
821130100000000000000000000000000000000000000000000000087771699000008932326600000000000000000001551567COMPROMETIDA POR LIQUIDACAO                                                                                                                         S06 NC 00000000050000000000
821130105000000000000101000000000000000000000000000000087771699000008932326600000000000000000001551567DDR COMPROMETIDA POR LIQUIDACAO - Recursos nao Vinculados de Impostos                                                                               A07 SC 00000000150000000000
821130200000000000000000000000000000000000000000000000000051476000000005147600000000000000000000000000COMPROMETIDA POR RETENCOES E CONSIGNACOES                                                                                                           S06 NC 00000000050000000000
821130208690000000000101000000000000000000000000000000000051476000000005147600000000000000000000000000DDR COMPROMETIDA POR RETENCOES E CONSIGNACOES - Outros Recursos Extraorcamentarios                                                                  A08 SC 00000000186900000000
821140000000000000000000000000000000000000000000000000000000000000009129653500000000000000000091296535DISPONIBILIDADE POR DESTINACAO DE RECURSOS UTILIZADA                                                                                                S05 NC 00000000050000000000
821140100000000000000000000000000000000000000000000000000000000000009124505900000000000000000091245059UTILIZADA COM EXECUCAO ORCAMENTARIA                                                                                                                 S06 NC 00000000050000000000
821140105000000000000101000000000000000000000000000000000000000000009124505900000000000000000091245059DDR UTILIZADA COM EXECUCAO ORCAMENTARIA - Recursos nao Vinculados de Impostos                                                                       A07 SC 00000000150000000000
821140208690000000000101000000000000000000000000000000000000000000000005147600000000000000000000051476DDR UTILIZADA COM EXECUCAO EXTRA ORCAMENTARIA - Outros Recursos Extraorcamentarios                                                                  A08 SC 00000000186900000000
FINALIZADOR0000000316