12292535000162010120253108202509092025CAMARA DE VEREADORES DE INDEPENDENCIA-RS                                        
0000000006FPSM - CONTRIBUICAO AO FAPS                                 12091144000180000000000000000000000000000000RUA SENADOR PINHEIRO                              INDEPENDENCIA                 RS989150000000000000000000000000000000000102
0000000155INSS - CONTRIBUICAO AO INSS                                 29979036000140000000000000000000000000000000SEM ENDERECO                                      INDEPENDENCIA                 RS989150000000000000000000000000000000000102
0000000167ABASE SISTEMAS E SOLUCOES LTDA                              93088649000197147002547400000000000000000000AVSENALBERTO PASQUALINI 347                       TRES DE MAIO                  RS989100003535490000000000000000000000000102
0000000209LOJAS QUERO-QUERO S/A                                       96418264002425147002125900000000000000000000RUA PADRE CACIQUE 1100                            TRES DE MAIO                  RS989100003535975000000000000000000000000102
0000000240JOSE DA SILVA RICHTER  - PF                                 00048575828053000000000000000000000000000000AV TRES DE MAIO 1190 AP 5                         INDEPENDENCIA                 RS989150005599607415100000000000000000000101
0000000247FOLHA DE PAGTO - VEREADORES                                 12292535000162000000000000000000000000000000RUA SENADOR PINHEIR 1348                          INDEPENDENCIA                 RS989150000000000000000000000000000000000102
0000000249FGTS - CONTRIBUICAO AO FGTS                                 00000000000000000000000000000000000000000000NENHUM                                            NENHUM                        RS989150000000000000000000000000000000000101
0000000266JORNAL SEMANAL LTDA                                         92152651000115147000000100000000000000000000RUA SANTO ANGELO N 413 SALA 4                     TRES DE MAIO                  RS989100005535351030000000000000000000000102
0000000340JOAILSON ROBERTO REDEL                                      00040963551000000000000000000000000000000000ESQUINA BUDEL No 328                              INDEPENDENCIA                 RS989150009916665500000000000000000000000101
0000000368ADELIO JOSE DUPONT                                          05045644000110198000842300000000000000000000AV IGNACIO PINTO 118                              INDEPENDENCIA                 RS989150005599613281000000000000000000000102
0000000413SONIA CRISTINA TAVARES SOUTO                                00043883362034000000000000000000000000000000ENFERMEIRA                                        INDEPENDENCIA                 RS989150000000000000000000000000000000000101
0000000455HENRIQUE LUIZ GRESELE SZARESKI                              00035807369068000000000000000000000000000000SAO VALENTIM                                      INDEPENDENCIA                 RS989150000000000000000000000000000000000101
0000000678VILSON MEURER - ME                                          91814285000150000000000000000000000000000000AV TRES DE MAIO                                   INDEPENDENCIA                 RS989150005535391147000000000000000000000102
0000000854UVERGSUNIAO VEREADORES DO RIO GDO SUL                       88993175000198000000000000000000000000000000PORTO ALEGRE                                      PORTO ALEGRE                  RS905500000000000000000000000000000000000102
0000000884MARCOS A LASCH-ELETRONICA DUMEL LASCH AUTO SOM              90351180000149147001778100000000000000000000R SANTA CRUZ 188                                  TRES DE MAIO                  RS989100005535351876000000000000000000000102
0000001390DOUGLAS MARTINI DE ARAUJO                                   01782694000129198000535100000000000000000000RUA SANTO ANGELO1177                              INDEPENDENCIA                 RS989150000000000000000000000000000000000102
0000001489AUTOMASSUL INFORMATICA LTDA                                 03683195000100147003667000000000000000000000AV SENADOR ALBERTO PASQUALINI N 347 LOJA 02       TRES DE MAIO                  RS989100001455353527400000000000000000000102
0000001744JEFERSON LUIS SCHAKOFSKI                                    04286078000175000000000000000000000000000000R SANTA ROSA DE LIMA 789 SALA 1                   INDEPENDENCIA                 RS989150005535391260000000000000000000000102
0000001953PEDRO ALEX DE LIMA - PF                                     00072811463020000000000000000000000000000000ESQUINA SCHOLTZ INTERIOR                          INDEPENDENCIA                 RS989150005599153431500000000000000000000101
0000002037ASSOCIACAO MAE RAINHA - RADIO DE INDEPENDENCIA              01235876000180000000000000000000000000000000RUA SENADOR SALGADO FILHO 517                     INDEPENDENCIA                 RS989150000000000000000000000000000000000102
0000003567CARLOS ROGERIO SPENGLER - PF                                00075601885087000000000000000000000000000000RUA SENADOR PINHEIRO 329                          INDEPENDENCIA                 RS989150005599142214700000000000000000000101
0000003705FOLHA  PAG SERVIDORES DA CAMARA DE VEREADORES               12292535000162000000000000000000000000000000RUA SENADOR PNHEIRO 1348                          INDEPENDENCIA                 RS989150003539129500000000000000000000000102
0000003719FRANCISCO CALEGARI  DE OLIVEIRA - PF                        00038804166053000000000000000000000000000000RUA DUQUE DE CAXIAS 1411                          INDEPENDENCIA                 RS989150005599681639500000000000000000000101
0000003802COMERCIO DE VIDROS CECCON LTDA                              04021650000174147003728600000000000000000000RUA HORIZONTINA 542                               TRES DE MAIO                  RS989100003535328100000000000000000000000102
0000003842FOCO ENGENHARIA ELETRICA E COMERCIO LTDA                    91358788000168110003554800000000000000000000RUA BUENOS AIRES 512                              SANTA ROSA                    RS989000003512514100000000000000000000000102
0000004091LOJAS BECKER LTDA - LOJA 20                                 04415928002050000000000000000000000000000000RUA PE CACIQUE 981                                TRES DE MAIO                  RS989100003535109900000000000000000000000102
0000004195CARMELINO REBELATTO E CIA LTDA                              95814539000190000000000000000000000000000000TRAVESSA BUTANTA 40 E 44                          SANTA ROSA                    RS989000005535122653000000000000000000000102
0000004438ANDREIA LEMANSKI                                            00001030970076000000000000000000000000000000independencia - rs                                INDEPENDENCIA                 RS989150000000000000000000000000000000000101
0000004628JUNG E RIBEIRO LTDA ME                                      11355974000104000000000000000000000000000000AV TRES DE MAIO 860                               INDEPENDENCIA                 RS989150009918352500000000000000000000000102
0000004739SHOP PLANETA PURIFICADOR DE AGUA LTDA                       08276449000199000000000000000000000000000000RUA HORIZONTINA 1030                              TRES DE MAIO                  RS989100005535352311000000000000000000000102
0000004742ROSANE MARIA CEZAR FIM                                      00061958581020000000000000000000000000000000AGENTE DE SAUDE                                   INDEPENDENCIA                 RS989150000000000000000000000000000000000101
0000004824OI SA- EM RECUPERAcaO JUDICIAL                              76535764000143000000000000000000000000000000rua do lavradio                                   RIO DE JANEIRO                RJ202300707131313179000000000000000000000102
0000005184BENOIT ELETRODOMESTICOS LTDA TRES DE MAIO                   87296026013438000000000000000000000000000000RUA HORIZONTINA N1048                             TRES DE MAIO                  RS989100003535209400000000000000000000000102
0000005208LUIZ VANDERLEI GOMES DA SILVA - ME                          14361803000186000000000000000000000000000000AVENIDA SANTA ROSA 672                            TRES DE MAIO                  RS989100000000000000000000000000000000000102
0000005294EMPREENDETUR AGENCIA E ASSES EM TURISMO LTDA-ME             10753900000163000000000000000000000000000000AV PRESIDENTE CASTELO BRANCO 610                  CRISSIUMAL                    RS986400000000000000000000000000000000000102
0000005301BUTZKE CONTRUCOES LTDA - ME LOJA INDEPENDENCIA              93587293000136000000000000000000000000000000AV TRES DE MAIO 750                               INDEPENDENCIA                 RS989150005535391320000000000000000000000102
0000005394BELLA PRESENTES E UTILIDADES LTDA - ME                      18012618000137000000000000000000000000000000AV TRES DE MAIO 997                               INDEPENDENCIA                 RS989150005535391168000000000000000000000102
0000005443MARCIO DECKMANN - PF                                        00001567227040000000000000000812800000000000ESQUINA BUDEL S/N                                 INDEPENDENCIA                 RS989150005599992308900000000000000000000101
0000005462UNIAO DOS VEREADORES DO BRASIL                              83594978000156000000000000000000000000000000Q SRTVS QD 01 - CENTRO EMPRES ASSIS SALA 502/504  BRASILIA VER CEP POR LOGRADOURDF700000000000000000000000000000000000000102
0000005557HELENCO   WICHINHESKI LTDA - ME                             08990377000147000000000000000000000000000000AV  URUGUAI 400                                   TRES DE MAIO                  RS989100005535351036000000000000000000000102
0000005644AIRTON LUIZ WILHELM   CIA LTDA                              08194464000198000000000000000000000000000000RUA SAO LUCAS 171                                 TRES DE MAIO                  RS989100000000000000000000000000000000000102
0000005649JOSE OTAVIO TAVARES SOUTO COMUNICACOES                      14405434000186000000000000000339600000000000AV TRES DE MAIO N 952    SALA 02                  INDEPENDENCIA                 RS989150008454978300000000000000000000000102
0000005783LEANDRO STRINGARI ME                                        21681063000120000000000000000000000000000000RUA JOSE DE ANCHIETA 206                          HORIZONTINA                   RS989200005599627206600000000000000000000102
0000005820MATERIAIS PARA ESCRITORIO E INFORMATICAO SANTA ROS          20191731000179000000000000000000000000000000AVENIDA RIO BRANCO 657 SALA 01                    SANTA ROSA                    RS989000005535126611000000000000000000000102
0000005963LEONIR DE FATIMA STECHMANN DA SILVA - MEI                   16601761000139000000000000000000000000000000RUA SANTO ANGELO 198                              INDEPENDENCIA                 RS989150009970942300000000000000000000000102
0000006202FABRICIO ARIEL DOCKORN                                      00093288514087000000000000000000000000000000AV TRES DE MAIO 257                               INDEPENDENCIA                 RS989150005599659328800000000000000000000101
0000006214JEISSON EZEQUIEL WISCHNESKI - ME                            24187564000143000000000000000000000000000000RUA HORIZONTINA 995 SALA 02                       TRES DE MAIO                  RS989100005535353429000000000000000000000102
0000006260BRASIL DE FREITAS NETO - PF                                 00059837926015000000000000000000000000000000ESQUINA ARAUJO S/N                                INDEPENDENCIA                 RS989150005599912966700000000000000000000101
0000006412SKYNETWEB COMUNICACOES LTDA                                 11149154000166184000791200000000000000000000AVENIDA IPIRANGA 1395                             CHIAPETTA                     RS987600005599606225500000000000000000000102
0000006424FACE CARD ADMINISTRADORA DE CARTOES LTDA-ME                 21935659000100000000000000000000000000000000RUA TREZE DE MAIO 670 SALA 7 CENTRO               LIMEIRA                       SP134800131197033417000000000000000000000102
0000006698NELSON ADAO BARROS PACHECO - MEI 12337898174                28825878000185000000000000000000000000000000INDEPENDNECIA                                     INDEPENDENCIA                 RS989150005599996001600000000000000000000102
0000006857IRINEU MAIER BOYARSKI JUNIOR-MEI                            30058029000195000000000000000000000000000000RUA SANTO ANGELO 521                              INDEPENDENCIA                 RS989150009648157200000000000000000000000102
0000006872INLEGIS CONSULTORIA E TREINAMENTO EIRELI                    30050141000180000000000000000000000000000000TV TUYUTY  N 53 APT 503                           PORTO ALEGRE                  RS900502705199915809000000000000000000000102
0000007100ADRIANO CESAR KAISEKAMP - FUNERARIA                         32049760000180000000000000000000000000000000AV TRES DE MAIO 729 SALA 01                       INDEPENDENCIA                 RS989150005599961726200000000000000000000102
0000007456CLAUDIO GILMAR DE MORAES                                    00000196523052000000000000000000000000000000rua dos imigrante 175                             INDEPENDENCIA                 RS989150005599954573400000000000000000000101
0000007750ANDRESSA GARCIA PUHL ME                                     39269843000123000000000000000000000000000000TRAVESSA EURICO OLIVEIRA 125                      INDEPENDENCIA                 RS989150005599992871100000000000000000000102
0000007782DOUGLAS RAFAEL LUNINK - ME                                  34435014000150000000000000000000000000000000RUA THEODOMIRO DE SOUZA 668                       CHIAPETTA                     RS987600005199647372700000000000000000000102
0000007960JOSE DOUGLAS RODRIGUES MOREIRA PF                           00001400607078000000000000000000000000000000INDEPENDENCIA                                     INDEPENDENCIA                 RS989150005599608498800000000000000000000101
0000008034NICOLAS CORNELIUS- PF                                       00001700965050000000000000000000000000000000AV TRES DE MAIO N 50                              INDEPENDENCIA                 RS989150005599950550300000000000000000000101
0000008095CLEU SIDINEI SCHRAMEIER - PF                                00098158376053000000000000000000000000000000ESQUINA KREVER                                    INDEPENDENCIA                 RS989150005598431136100000000000000000000101
0000008117NOGARRA MASTER UTILIDADES EIRELI- TOP 10                    42538295000102000000000000000000000000000000R SAO MIGUEL 713 - SALA 02                        INDEPENDENCIA                 RS989150009995185190000000000000000000000102
0000008191MARCOS DE JESUS PAZ - MEI                                   44179447000145000000000000000000000000000000R SAO ROQUE                                       INDEPENDENCIA                 RS989150005597304743000000000000000000000102
0000008367PLENARIA ASSESSORIA E GESTAO DE EVENTOS LTDA                18336780000100000000000000000000000000000000RUA JULIO DE CASTILHOS N1233                      ENCANTADO                     RS959600005596449022000000000000000000000102
0000008583ANDRIGO ROBERTI                                             24128172000103000000000000000000000000000000AV SANTA ROSA310 SALA 05                          TRES DE MAIO                  RS989100005535351517000000000000000000000102
0000008803MASTERPLAN LTDA                                             10366026000101000000000000000551950000000000RUA PRESIDENTE COSTA E SILVA 60 comercial         CANDIDO GODOI                 RS989700005598431561500000000000000000000102
0000008860MORESCO   ANTUNES LTDA                                      23468106000110000000000000000000000000000000R EMILIO TAUCEDA                                  URUGUAIANA / TABAJARA BRITES  RS975043705534119625000000000000000000000102
0000009080JAQUELINE WITCZAK DE OLIVEIRA - PF                          00002635528020000000000000000000000000000000RUA MARECHAL CANDIDO RONDON 1866                  INDEPENDENCIA                 RS989150005599454644000000000000000000000101
0000009084MAIARA KEIST DAL FORNO                                      00001473374022000000000000000000000000000000RUA COSTA E SILVA N1099                           INDEPENDENCIA                 RS989150005599146448600000000000000000000101
0000009093GRAFICA E PERSONALIZADOS SCHLOSSER   ARAUJO LTDA            47782080000148000000000000000000000000000000AV URUGUAI                                        TRES DE MAIO                  RS989100009916303360000000000000000000000102
0000009170ACILDO RICHTER                                              00046251715049000000000000000000000000000000ZONA RURAL                                        INDEPENDENCIA                 RS989150000000000000000000000000000000000101
0000009511CONTIGO SOLUCOES PARA GESTAO PUBLICA LTDA                   14065989000126000000000000000000000000000000R PRESIDENTE KENNEDY 281                          SAPIRANGA / CENTRO            RS938001405198876708000000000000000000000102
0000010079AR SMARTVIX SERVICOS DE CERTIFICACAO DIGITAL LTDA           31331140000176000000000000000000000000000000R CONSTANTE SODRE                                 VITORIA                       ES290563100000000000000000000000000000000102
0000010416FERNANDA JESKE - PF                                         00003861812096000000000000000000000000000000RUA PLANALTO 515                                  TRES DE MAIO                  RS989100005598458179300000000000000000000101
0000010417RAYANA AUGUSTA SCHRER - PF                                  00003142588094000000000000000000000000000000RUA IPIRANGA 430                                  INDEPENDENCIA                 RS989150005599601801400000000000000000000101
0000010775KIMBERLY VICTORIA PERTILLE - PF                             00003045186033000000000000000000000000000000RUA ARTHUR JOSE WERLANG N128                      SANTA ROSA                    RS987871445598451837200000000000000000000101
0000010784SOLANGE MARIA BOENO                                         57725870000145000000000000000000000000000000AV SANTA ROSA N310 SALA4 CENTRO                   TRES DE MAIO                  RS989100005599992192800000000000000000000102
0000010808DANTE COMERCIO DE BEBIDAS LTDA                              07421929000133000000000000000000000000000000AV INHACORA 1400 CENTRO                           SANTA ROSA / CENTRO           RS987808185535122447000000000000000000000102
0000010812DANIEL JUNIOR PLETSCH 03960797095                           48644749000106000000000000000000000000000000EST BEATO ROQUE 524                               BOA VISTA DO BURICA           RS989180005599596351000000000000000000000102
000001087558332417 MARCOS FELIPE DOLLIS                               58332417000131000000000000000000000000000000R PADRE CACIQUE 1049 CENTRO                       TRES DE MAIO                  RS989100005599727243600000000000000000000102
0000010909THAINA YASMIN DE SA                                         00003845771054000000000000000000000000000000RUA INACIO PINTO 996 CENTRO INDEPENDENCIA         INDEPENDENCIA                 RS989150005599921758100000000000000000000101
0000010910EDSOM MELLER - PF                                           00058598014087000000000000000000000000000000RUA SAO JOAO 705                                  INDEPENDENCIA                 RS989150005199543612100000000000000000000101
0000010911EVERALDO REDEL HEINSCH - PF                                 00058598049034000000000000000000000000000000RUA SENADOR PINHEIRO 1023                         INDEPENDENCIA                 RS989150005599725478000000000000000000000101
0000010912ROSSINI MACHADO DO ROSARIO - PF                             00077280776000000000000000000000000000000000RUA DUQUE DE CAXIAS 1224                          INDEPENDENCIA                 RS989150005599979901500000000000000000000101
0000010935FORIGO PARK TUR LTDA                                        02509011000208000000000000000000000000000000RUA DOS ANDRADAS 930 CENTRO                       SANTO ANGELO                  RS988026205533140064000000000000000000000102
0000011037MERCADO BOMFIM LTDA                                         54637633000134000000000000000000000000000000AV TRES DE MAIO 330 SALA 01                       INDEPENDENCIA                 RS989150005599911844600000000000000000000102
FINALIZADOR0000000085