12292535000162010120253108202509092025CAMARA DE VEREADORES DE INDEPENDENCIA-RS                                        
010101031001500002063339014140000000000000000202502003125100420250000000270180+0000000240                                                                                                                                                                     00000N                    000000000000000000000000150 DIARIAS A PORTO ALEGRE NOS DIAS 21 E 25042025 PARA PARTICIPAR DA XXIV MARCHA DOS GESTORES E LEGISLATIVOS MUNICIPAIS DE 22 A 25 DE ABRIL DE 2025 EVENTO ORGANIZADO PELA UVB  UNIAO DOS VEREADORES DO BRASIL QUE ACONTECERA EM BRASILIA-DF                                                                                                                                                                    NSA00IX000000000000000000150000000000
010101031001500002063339014140000000000000000202502003125110420250000000270180-0000000240                                                                                                                                                                     00000N                    000000000000000000000000150 DIARIAS A PORTO ALEGRE NOS DIAS 21 E 25042025 PARA PARTICIPAR DA XXIV MARCHA DOS GESTORES E LEGISLATIVOS MUNICIPAIS DE 22 A 25 DE ABRIL DE 2025 EVENTO ORGANIZADO PELA UVB  UNIAO DOS VEREADORES DO BRASIL QUE ACONTECERA EM BRASILIA-DF                                                                                                                                                                    NSA00IX000000000000000000150000000000
010104122000100002064339039170000000000000000202502004176190520250000000035000+0000005649                                                                                                                                                                     00000N                    000000000000000000000000MAO DE OBRA PARA MANUTENCAO DA IMPRESSORA EPSON PATRIMONIO N 005847 DAS ATIVIDADES DE APOIO A CAMARA DE VEREADORES                                                                                                                                                                                                                                                                                              DPV08XX000000000000000000150000000000
010104122000100002064339030150000000000000000202502006235240720250000000053700+0000007750                                                                                                                                                                     00000N                    00000000000000000000000003 UN DE PLACAS EM ACO ESCOVADO ADESIVADA C/ESTOJO EM CAMURCA AS QUAIS SERAO ENTREGUES EM HOMENAGENS REALIZADAS PELA CAMARA DE VEREADORES                                                                                                                                                                                                                                                                       DPV08XX000000000000000000150000000000
010104122000100002064319113100100000000000000202502001478140220250000000002505+0000000006                                                                                                                                                                     00000N                    000000000000000000000000CONTRIB AO FAPS PARTE PATRONAL 16 REF REMUNERACAO DE JANEIRO DE 2025 INATIVOS-GERAL-TEMPCONT-CAMARANE TRANSPOSTA DA NE 1117 AJUSTE CONTABIL                                                                                                                                                                                                                                                                     NSA00XX000000000000000000150000000000
010104122000100002064319013020100000000000000202502006615310720250000000191569+0000000249                                                                                                                                                                     00000N                    000000000000000000000000CONTRIB PATRONAL AO INSS REF REMUNERACAO DO MES DE JULHO DE 2025CAMARA - CCS                                                                                                                                                                                                                                                                                                                                    NSA00XX000000000000000000150000000000
010104122000100002064319013020100000000000000202502006615310720250000000191569-0000000249                                                                                                                                                                     00000N                    000000000000000000000000CONTRIB PATRONAL AO INSS REF REMUNERACAO DO MES DE JULHO DE 2025CAMARA - CCS                                                                                                                                                                                                                                                                                                                                    NSA00XX000000000000000000150000000000
010104122000100002064319113100100000000000000202502001478190220250000000002505-0000000006                                                                                                                                                                     00000N                    000000000000000000000000CONTRIB AO FAPS PARTE PATRONAL 16 REF REMUNERACAO DE JANEIRO DE 2025 INATIVOS-GERAL-TEMPCONT-CAMARANE TRANSPOSTA DA NE 1117 AJUSTE CONTABIL                                                                                                                                                                                                                                                                     NSA00XX000000000000000000150000000000
010104122000100002064319011010000000000000000202502000648280120250000000648807+0000000247                                                                                                                                                                     00000N                    000000000000000000000000REFERENTE A REMUNERACAO DO MES DE JANEIRO DE 2025CAMARA - CCSSALARIO C/C                                                                                                                                                                                                                                                                                                                                        NSA00FX000000000000000000150000000000
010104122000100002064319011420000000000000000202502000649280120250000000413579+0000000247                                                                                                                                                                     00000N                    000000000000000000000000REFERENTE A REMUNERACAO DO MES DE JANEIRO DE 2025CAMARA - CCSFERIAS INDENIZADAS                                                                                                                                                                                                                                                                                                                                 NSA00FX000000000000000000150000000000
010104122000100002064339039170000000000000000202502004176260520250000000035000-0000005649                                                                                                                                                                     00000N                    000000000000000000000000MAO DE OBRA PARA MANUTENCAO DA IMPRESSORA EPSON PATRIMONIO N 005847 DAS ATIVIDADES DE APOIO A CAMARA DE VEREADORES                                                                                                                                                                                                                                                                                              DPV08XX000000000000000000150000000000
010104122000100002064319011420000000000000000202502000649280120250000000413579-0000000247                                                                                                                                                                     00000N                    000000000000000000000000REFERENTE A REMUNERACAO DO MES DE JANEIRO DE 2025CAMARA - CCSFERIAS INDENIZADAS                                                                                                                                                                                                                                                                                                                                 NSA00FX000000000000000000150000000000
010104122000100002064319011010000000000000000202502000648280120250000000648807-0000000247                                                                                                                                                                     00000N                    000000000000000000000000REFERENTE A REMUNERACAO DO MES DE JANEIRO DE 2025CAMARA - CCSSALARIO C/C                                                                                                                                                                                                                                                                                                                                        NSA00FX000000000000000000150000000000
010104122000100002064339030210000000000000000202502007023150820250000000017000+0000005184                                                                                                                                                                     00000N                    000000000000000000152025CHALEIRA ELETRICA 18 LITROS PARA A COZINHA DA CAMARA DE VEREADORESPROCESSO N 15/2025 DISPENSA N 15/2025                                                                                                                                                                                                                                                                                                         PRD08XX000000000000000000150000000000
010104122000100002064339030210000000000000000202502007023150820250000000017000-0000005184                                                                                                                                                                     00000N                    000000000000000000152025CHALEIRA ELETRICA 18 LITROS PARA A COZINHA DA CAMARA DE VEREADORESPROCESSO N 15/2025 DISPENSA N 15/2025                                                                                                                                                                                                                                                                                                         PRD08XX000000000000000000150000000000
010104122000100002064339030210000000000000000202502007034150820250000000017000+0000005184                                                                                                                                                                     00000N                    000000000000000000152025CHALEIRA ELETRICA 18 LITROS PARA A COZINHA DA CAMARA DE VEREADORESPROCESSO N 15/2025 DISPENSA N 15/2025TRANSPOSTO DA NE 7023 PARA AJUSTE DA DOTACAO ORCAMENTARIA                                                                                                                                                                                                                                                PRD08XX000000000000000000150000000000
010104122000100002064339030150000000000000000202502006235310720250000000053700-0000007750                                                                                                                                                                     00000N                    00000000000000000000000003 UN DE PLACAS EM ACO ESCOVADO ADESIVADA C/ESTOJO EM CAMURCA AS QUAIS SERAO ENTREGUES EM HOMENAGENS REALIZADAS PELA CAMARA DE VEREADORES                                                                                                                                                                                                                                                                       DPV08XX000000000000000000150000000000
010104122000100002064339030210000000000000000202502007034180820250000000017000-0000005184                                                                                                                                                                     00000N                    000000000000000000152025CHALEIRA ELETRICA 18 LITROS PARA A COZINHA DA CAMARA DE VEREADORESPROCESSO N 15/2025 DISPENSA N 15/2025TRANSPOSTO DA NE 7023 PARA AJUSTE DA DOTACAO ORCAMENTARIA                                                                                                                                                                                                                                                PRD08XX000000000000000000150000000000
010104122000100002064339030250000000000000000202502003312240420250000000001530+0000005301                                                                                                                                                                     00000N                    000000000000000000000000CANTONEIRAS PARAFUSOS E GRAMPOS PARA FIXAR O CONJUNTO DAS GAVETAS DA MESA DA SECRETARIA                                                                                                                                                                                                                                                                                                                         DPV08XX000000000000000000150000000000
010104122000100002064339030160000000000000000202502004818030620250000000002290+0000005394                                                                                                                                                                     00000N                    000000000000000000000000PORTA LAPIS PARA O USO DO PRESIDENTE DA CAMARA                                                                                                                                                                                                                                                                                                                                                                  DPV08XX000000000000000000150000000000
010104122000100002064319113100100000000000000202502002031280220250000000002505+0000000006                                                                                                                                                                     00000N                    000000000000000000000000CONTRIB AO FAPS PARTE PATRONAL 16 REF REMUNERACAO DE FEVEREIRO DE 2025 INATIVOS-GERAL-TEMPCONT-CAMARA                                                                                                                                                                                                                                                                                                           NSA00XX000000000000000000150000000000
010104122000100002064319113080000000000000000202502006721310720250000000002505+0000000006                                                                                                                                                                     00000N                    000000000000000000000000CONTRIB AO FAPS PARTE PATRONAL 1600 REF REMUNERACAO DE JULHO DE 2025FAPS-INATIVOS-GERAL-TEMPCONT-CAMARA                                                                                                                                                                                                                                                                                                         NSA00XX000000000000000000150000000000
010104122000100002064319113100100000000000000202502001479180220250000000002505+0000000006                                                                                                                                                                     00000N                    000000000000000000000000CONTRIB AO FAPS PARTE PATRONAL 16 REF REMUNERACAO DE JANEIRO DE 2025 INATIVOS-GERAL-TEMPCONT-CAMARANE TRANSPOSTA DA NE 1117 AJUSTE CONTABIL                                                                                                                                                                                                                                                                     NSA00XX000000000000000000150000000000
010104122000100002064319113100100000000000000202502003752300420250000000002505+0000000006                                                                                                                                                                     00000N                    000000000000000000000000CONTRIB AO FAPS PARTE PATRONAL 1600 REF REMUNERACAO DE ABRIL DE 2025 FAPS-INATIVOS-GERAL-TEMPCONT-CAMARA                                                                                                                                                                                                                                                                                                        NSA00XX000000000000000000150000000000
010104122000100002064319113100100000000000000202502004730300520250000000002505+0000000006                                                                                                                                                                     00000N                    000000000000000000000000CONTRIB AO FAPS PARTE PATRONAL 1600 REF REMUNERACAO DE MAIO DE 2025 FAPS-INATIVOS-GERAL-TEMPO-CONT-CAMARA                                                                                                                                                                                                                                                                                                       NSA00XX000000000000000000150000000000
010104122000100002064319113100100000000000000202502002873310320250000000002505+0000000006                                                                                                                                                                     00000N                    000000000000000000000000CONTRIB AO FAPS PARTE PATRONAL 1600 REF REMUNERACAO DE MARCO DE 2025 FAPS INATIVOS-GERAL-TEMPO-CONTR-CAMARA                                                                                                                                                                                                                                                                                                     NSA00XX000000000000000000150000000000
010104122000100002064319113100100000000000000202502005681300620250000000002505+0000000006                                                                                                                                                                     00000N                    000000000000000000000000CONTRIB AO FAPS PARTE PATRONAL 1600 REF REMUNERACAO DE JUNHO DE 2025 FAPS-INATIVOS-GERAL-TEMPCONT-CAMARA                                                                                                                                                                                                                                                                                                        NSA00XX000000000000000000150000000000
010104122000100002064319113100100000000000000202502007672290820250000000002505+0000000006                                                                                                                                                                     00000N                    000000000000000000000000CONTRIB AO FAPS PARTE PATRONAL 1600 REF REMUNERACAO DE AGOSTO DE 2025FAPS-INATIVOS-GERAL-TEMPOCONT-CAMARA                                                                                                                                                                                                                                                                                                       NSA00XX000000000000000000150000000000
010104122000100002064319113210100000000000000202502002032280220250000000002600+0000000006                                                                                                                                                                     00000N                    000000000000000000000000CONTRIB AO FAPS PARTE PATRONAL 1661 REF REMUNERACAO DE FEVEREIRO DE 2025 PASSIVO ATUARIALINATIVOS-GERAL-TEMPCONT-CAMARA                                                                                                                                                                                                                                                                                         NSA00XX000000000000000000150000000000
010104122000100002064319113210100000000000000202502006722310720250000000002600+0000000006                                                                                                                                                                     00000N                    000000000000000000000000CONTRIB AO FAPS PARTE PATRONAL 1661 REF REMUNERACAO DE JULHO DE 2025PASSIVO ATUARIALFAPS-INATIVOS-GERAL-TEMPCONT-CAMARA                                                                                                                                                                                                                                                                                         NSA00XX000000000000000000150000000000
010104122000100002064319113210100000000000000202502001480180220250000000002600+0000000006                                                                                                                                                                     00000N                    000000000000000000000000CONTRIB AO FAPS PARTE PATRONAL 24 REF REMUNERACAO DE JANEIRO DE 2025 PASSIVO ATUARIALINATIVOS-GERAL-TEMPCONT-CAMARANE TRANSPOSTA DA NE 1126 AJUSTE CONTABIL                                                                                                                                                                                                                                                     NSA00XX000000000000000000150000000000
010104122000100002064319113210100000000000000202502003753300420250000000002600+0000000006                                                                                                                                                                     00000N                    000000000000000000000000CONTRIB AO FAPS PARTE PATRONAL 1661 REF REMUNERACAO DE ABRIL DE 2025 PASSIVO ATUARIALFAPS-INATIVOS-GERAL-TEMPCONT-CAMARA                                                                                                                                                                                                                                                                                        NSA00XX000000000000000000150000000000
010104122000100002064319113210100000000000000202502004731300520250000000002600+0000000006                                                                                                                                                                     00000N                    000000000000000000000000CONTRIB AO FAPS PARTE PATRONAL 1661 REF REMUNERACAO DE MAIO DE 2025 PASSIVO ATUARIALFAPS-INATIVOS-GERAL-TEMPO-CONT-CAMARA                                                                                                                                                                                                                                                                                       NSA00XX000000000000000000150000000000
010104122000100002064319113210200000000000000202502002874310320250000000002600+0000000006                                                                                                                                                                     00000N                    000000000000000000000000CONTRIB AO FAPS PARTE PATRONAL 1661 REF REMUNERACAO DE MARCO DE 2025 PASSIVO ATUARIALFAPS INATIVOS-GERAL-TEMPO-CONTR-CAMARA                                                                                                                                                                                                                                                                                     NSA00XX000000000000000000150000000000
010104122000100002064319113210100000000000000202502005682300620250000000002600+0000000006                                                                                                                                                                     00000N                    000000000000000000000000CONTRIB AO FAPS PARTE PATRONAL 1661 REF REMUNERACAO DE JUNHO DE 2025 PASSIVO ATUARIALFAPS-INATIVOS-GERAL-TEMPCONT-CAMARA                                                                                                                                                                                                                                                                                        NSA00XX000000000000000000150000000000
010104122000100002064319113210100000000000000202502007673290820250000000002600+0000000006                                                                                                                                                                     00000N                    000000000000000000000000CONTRIB AO FAPS PARTE PATRONAL 1661 REF REMUNERACAO DE AGOSTO DE 2025PASSIVO ATUARIALFAPS-INATIVOS-GERAL-TEMPOCONT-CAMARA                                                                                                                                                                                                                                                                                       NSA00XX000000000000000000150000000000
010104122000100002064339030240000000000000000202502005187230620250000000003000+0000001744                                                                                                                                                                     00000N                    0000000000000000000000002 COPIAS DE CHAVES SENDO UMA DA PORTA DA CAMARA DE VEREADORES E OUTRA DA PORTA DE ENTRADA DA PREFEITURA MUNICIPAL PARA O ASSESSOR JURIDICO SR GETULIO IMMICH DA SILVA                                                                                                                                                                                                                                           DPV08XX000000000000000000150000000000
010104122000100002064339030240000000000000000202502003628280420250000000003000+0000001744                                                                                                                                                                     00000N                    0000000000000000000000002 COPIAS DE CHAVES SENDO UMA DA PORTA DA CAMARA DE VEREADORES E OUTRA DA PORTA DE ENTRADA DA PREFEITURA MUNICIPAL                                                                                                                                                                                                                                                                                               DPV08XX000000000000000000150000000000
010104122000100002064339039200000000000000000202502003991090520250000000003000+0000005208                                                                                                                                                                     00000N                    000000000000000000000000CONSERTO DA JARRA ELETRICA DA CAMARA DE VEREADORES                                                                                                                                                                                                                                                                                                                                                              DPV08XX000000000000000000150000000000
010104122000100002064339030250000000000000000202502006070170720250000000003500+0000009093                                                                                                                                                                     00000N                    000000000000000000000000CONSERTO DA BORRACHA E ALMOFADA DO CARIMBO 4927 UTILIZADO PARA MARCAR PARA QUAIS COMISSOES OS PROJETOS DE LEI SAO ENCAMINHADOS                                                                                                                                                                                                                                                                                  DPV08XX000000000000000000150000000000
010104122000100002064339030250000000000000000202502003227160420250000000003650+0000005301                                                                                                                                                                     00000N                    000000000000000000000000AQUISICAO 2 CANTONEIRAS 3 PUXADORES E 20 UNIDADES DE PARAFUSOS PARA FIXAR O CONJUNTO DAS GAVETAS DA MESA DA SECRETARIA                                                                                                                                                                                                                                                                                          DPV08XX000000000000000000150000000000
010104131000100002065339039930000000000000000202502000319150120250000000004500+0000002037                                                                                                                                                                     00000N                    000000000000000000000000COMUNICADOS NA RADIO COMUNITARIA DE INDEPENDENCIA REFERENTE AO FALECIMENTO DO EX-VEREADOR E EX-PRESIDENTE DA CAMARA ANTONIO AVELINO FERREIRA CONF RD 219/2025DESPESA SEM EMPENHO PREVIO                                                                                                                                                                                                                         DPV08XX000000000000000000150000000000
010104122000100002064339030150000000000000000202502002192120320250000000004600+0000003802                                                                                                                                                                     00000N                    000000000000000000000000COMPRA DE UM QUADRO PARA CERTIFICADO 21X30CM NO QUAL IRA O DOCUMENTO QUE HOMENAGEIA A APAE PELOS 30 ANOS DE ATUACAO EM INDEPENDENCIA/RS ESSE QUADRO SERA ENTREGUE NA 6 SESSAO ORDINARIA DE 2025 QUE OCORRERA DIA 17/03/2025 AS 19H                                                                                                                                                                              DPV08XX000000000000000000150000000000
010104122000100002064339030210000000000000000202502006143210720250000000004623+0000011037                                                                                                                                                                     00000N                    000000000000000000000000FILTRO DE CAFE COMPATIVEL COM A CAFETEIRA OSTER FLAVOR 4401RD UTILIZADA NA CAMARA DE VEREADORES                                                                                                                                                                                                                                                                                                                 DPV08XX000000000000000000150000000000
010104122000100002064339030240000000000000000202502001227050220250000000005000+0000001744                                                                                                                                                                     00000N                    000000000000000000000000CILINDRO DE UMA GAVETA DO SETOR ADMINISTRATIVO DA CAMARA                                                                                                                                                                                                                                                                                                                                                        DPV01XX000000000000000000150000000000
010104122000100002064339030240000000000000000202502002289170320250000000006000+0000001744                                                                                                                                                                     00000N                    0000000000000000000000004 COPIAS DE CHAVES PARA AS SALAS DA CAMARA DE VEREADORES                                                                                                                                                                                                                                                                                                                                                        DPV08XX000000000000000000150000000000
010104122000100002064339039050000000000000000202502002717270320250000000007000+0000008803                                                                                                                                                                     00000S                    000000000000000000092025EXAME ADMISSIONAL PARA A ASSESSORA LEGISLATIVA DIENIFER EDUARDA SOARES DOS SANTOS           PROCESSO DE LICITACAO 134/2025 PREGAO ELETRONICO 09/2025 SRP 07/2025                                                                                                                                                                                                                                                PCE08XS876128260001900000150000000000
010104122000100002064339039050000000000000000202502000598270120250000000007500+0000008803                                                                                                                                                                     00000S                    000000000000000000532023EXAME ADMISSIONAL PARA A ASSESSORA JURIDICA DA CAMARA DE VEREADORESPROCESSO 53/2023 SRP                                                                                                                                                                                                                                                                                                                         PRE07XS876128260001900000150000000000
010104122000100002064339039050000000000000000202502006609300720250000000007500+0000005649                                                                                                                                                                     00000N                    000000000000000000000000SERVICO DE CABEAMENTO EM REDE DA IMPRESSORA BM5100FDW POSSIBILITANDO A CONEXAO VIA ETHERNET DE MODO QUE A IMPRESSORA POSSA SER COMPARTILHADA NA REDE E ACESSADA POR MULTIPLOS DISPOSITIVOS                                                                                                                                                                                                                      DPV08XX000000000000000000150000000000
010104122000100002064339039200000000000000000202502000629270120250000000009500+0000005208                                                                                                                                                                     00000N                    000000000000000000000000DESLOCAMENTO E MAO DE OBRA PARA AVALIACAO DE AR-CONDICIONADO DO PLENARIO DA CAMARA DE VEREADORES QUE TINHA APRESENTADO PROBLEMAS                                                                                                                                                                                                                                                                                DPV01XX000000000000000000150000000000
010104122000100002064339039780000000000000000202502000631270120250000000009900+0000010875                                                                                                                                                                     00000N                    000000000000000000000000LAVAGEM E SECAGEM DE 08 BANDEIRAS DA CAMARA DE VEREADORES POIS AS MESMAS ENCONTRAM-SE SUJAS MOFADAS E MANCHADAS EM RAZAO DO AMBIENTE UMIDO                                                                                                                                                                                                                                                                      DPV01XX000000000000000000150000000000
010104122000100002064339030170000000000000000202502007128220820250000000009959+0000005301                                                                                                                                                                     00000N                    00000000000000000000000030 ABRACADEIRAS PLASTICAS UMA CANALETA DUAS FITAS DUPLA FACE E UMA FITA ISOLANTE COM O OBJETIVO DE ORGANIZAR E ISOLAR OS FIOS DO SWITCH E DO ROTEADOR DE INTERNET A MEDIDA VISA PREVENIR ACIDENTES E CONTRIBUIR PARA A ORGANIZACAO E SEGURANCA DO AMBIENTE                                                                                                                                                      DPV08XX000000000000000000150000000000
010104122000100002064339030170000000000000000202502001399130220250000000009980+0000006214                                                                                                                                                                     00000N                    0000000000000000000000002 UNIDADES DE TONER PARA IMPRESSORA LASER JET M1132 MFP PARA MANUTENCAO DAS ATIVIDADES DE APOIO A CAMARA                                                                                                                                                                                                                                                                                                        DPV08XX000000000000000000150000000000
010104122000100002064339030160000000000000000202502003992090520250000000010500+0000005783                                                                                                                                                                     00000N                    00000000000000000008202502 CAIXAS DE ARQUIVO MORTO PARA MANUTENCAO DOS TRABALHOS DA CAMARA DE VEREADORESPROCESSO N 08/2025  DISPENSA N 08/2025                                                                                                                                                                                                                                                                                          PRD08XX000000000000000000150000000000
010104122000100002064339039580200000000000000202502001295100220250000000011990+0000006412                                                                                                                                                                     00000N                    000000000000000000000000SINAL DE INTERNET A CAMARA NO MES DE JANEIRO DE 2025  NF-e N 73366         DESPESA SEM EMPENHO PREVIO                                                                                                                                                                                                                                                                                                           DPV01XX000000000000000000150000000000
010104122000100002064339039580200000000000000202502002952010420250000000011990+0000006412                                                                                                                                                                     00000N                    000000000000000000000000SINAL DE INTERNET A CAMARA NO MES DE MARCO DE 2025           DESPESA SEM EMPENHO PREVIO NOTA FISCAL N 85409                                                                                                                                                                                                                                                                                                     DPV08XX000000000000000000150000000000
010104122000100002064339039580200000000000000202502001898260220250000000011990+0000006412                                                                                                                                                                     00000N                    000000000000000000000000SINAL DE INTERNET A CAMARA NO MES DE FEVEREIRO DE 2025           DESPESA SEM EMPENHO PREVIO                                                                                                                                                                                                                                                                                                                     DPV08XX000000000000000000150000000000
010104122000100002064339030160000000000000000202502002428260320250000000012400+0000009093                                                                                                                                                                     00000N                    00000000000000000000000002 CARIMBOS ENTINTADOS 4912 UM PARA O ARQUIVO DE DOCUMENTOS E OUTRO PARA O DIRETOR GERAL                                                                                                                                                                                                                                                                                                                        DPV08XX000000000000000000150000000000
010104122000100002064339030160000000000000000202502003313250420250000000012490+0000008117                                                                                                                                                                     00000N                    000000000000000000072025MATERIAIS DE ESCRITORIO E EXPEDIENTE PARA MANUTENCAO DAS ATIVIDADES DE APOIO A CAMARA DE VEREADORESPROCESSO N 07/2025   DISPENSA N 07/2025                                                                                                                                                                                                                                                                      PRD08XX000000000000000000150000000000
010104122000100002064339039050000000000000000202502006769310720250000000012900+0000005649                                                                                                                                                                     00000N                    000000000000000000000000CONFIGURACAO INICIAL E EM REDE DO NOTEBOOK DE PATRIMONIO N 6955 O APARELHO FOI FORMATADO PARA GARANTIR SEU PLENO FUNCIONAMENTO E ATENDER AS NECESSIDADES DA NOVA ASSESSORA LEGISLATIVA RAZAO PELA QUAL FOI NECESSARIO CONFIGURA-LO                                                                                                                                                                              DPV08XX000000000000000000150000000000
010104122000100002064339030160000000000000000202502001238060220250000000013000+0000008583                                                                                                                                                                     00000N                    00000000000000000000000002 UN CARIMBOS AUTO ENTINTADO 4912 SENDO OS SEGUINTES 1 UNIDADE - CARIMBO PRESIDENTE EM TINTA PRETA E 1 UNIDADE - CARIMBO  NEGADO EM TINTA VERMELHA PARA AS ATIVIDADES DE APOIO A CAMARA                                                                                                                                                                                                                        DPV01XX000000000000000000150000000000
010104122000100002064319011100000000000000000202502005229250620250000000013135+0000003705                                                                                                                                                                     00000N                    000000000000000000000000REFERENTE A REMUNERACAO DO MES DE JUNHO DE 2025CAMARA - ESTATUTARIOSINSALUBRIDADE                                                                                                                                                                                                                                                                                                                               NSA00FX000000000000000000150000000000
010104122000100002064339030150000000000000000202502004299270520250000000013800+0000003802                                                                                                                                                                     00000N                    000000000000000000000000QUADROS PARA CERTIFICADO 21X30CM PARA EMOLDURAR HOMENAGENS AS ESCOLAS AMELIO FAGUNDES E GETULIO VARGAS QUE SERA REALIZADA NA SESSAO DO DIA 02/06/2025                                                                                                                                                                                                                                                           DPV08XX000000000000000000150000000000
010104122000100002064339039050000000000000000202502003085080420250000000014000+0000008803                                                                                                                                                                     00000S                    00000000000000000009202502 ATESTADOS DE SAUDE OCUPACIONAL SENDO UM EXAME DEMISSIONAL PARA SANDRA MARIAMARTINI MARASCA E UM EXAME ADMISSIONAL PARA GETULIO JUVENIL IMMICH DA SILVAPROCESSO DE LICITACAO 134/2025 PREGAO ELETRONICO 09/2025 SRP 07/2025                                                                                                                                                                                   PCE08XS876128260001900000150000000000
010104122000100002064339039050000000000000000202502006144210720250000000014000+0000008803                                                                                                                                                                     00000S                    00000000000000000009202502 ATESTADOS DE SAUDE OCUPACIONAL SENDO UM EXAME DEMISSIONAL PARA DIENIFER EDUARDA SOARES DOS SANTOS E UM EXAME ADMISSIONAL PARA CAMILA LIMA DE QUADRA  PROCESSO DE LICITACAO 134/2025 PREGAO ELETRONICO 09/2025 SRP 07/2025                                                                                                                                                                                    PCE08XS876128260001900000150000000000
010104122000100002064339039170000000000000000202502004193200520250000000030000+0000005649                                                                                                                                                                     00000N                    000000000000000000000000LIMPEZA E CONSERTO DA IMPRESSORA LASER HP PATRIMONIO N 005638 PARA MANUTENCAO DAS ATIVIDADES DE APOIO A CAMARA                                                                                                                                                                                                                                                                                                  DPV08XX000000000000000000150000000000
010104122000100002064339039170000000000000000202502003859050520250000000015000+0000005649                                                                                                                                                                     00000N                    000000000000000000000000LIMPEZA E CONSERTO PARA MANUTENCAO DA IMPRESSORA EPSON PATRIMONIO N 007654 - REALIZADO LIMPEZA DE ALMOFADAS                                                                                                                                                                                                                                                                                                     DPV08XX000000000000000000150000000000
010104122000100002064339039170000000000000000202502004193260520250000000015000-0000005649                                                                                                                                                                     00000N                    000000000000000000000000LIMPEZA E CONSERTO DA IMPRESSORA LASER HP PATRIMONIO N 005638 PARA MANUTENCAO DAS ATIVIDADES DE APOIO A CAMARA                                                                                                                                                                                                                                                                                                  DPV08XX000000000000000000150000000000
010104122000100002064339039050000000000000000202502000133080120250000000015000+0000008803                                                                                                                                                                     00000S                    0000000000000000005320232 EXAMES ADMISSIONAIS PARA O DIRETOR GERAL E PARA A ASSESSORA DE BANCADA                                                                                                                                                                                                                                                                                                                                        PRE07XS876128260001900000150000000000
010104122000100002064339030160000000000000000202502005185230620250000000015750+0000005783                                                                                                                                                                     00000N                    00000000000000000010202503 CAIXAS DE ARQUIVO MORTO PARA MANUTENCAO DOS TRABALHOS DA CAMARA DE VEREADORESPROCESSO N 10/2025  DISPENSA N 10/2025                                                                                                                                                                                                                                                                                          PRD08XX000000000000000000150000000000
010104122000100002064339030990200000000000000202502000248140120250000000016000+0000007100                                                                                                                                                                     00000N                    000000000000000000000000DOACAO DE UMA COROA DE FLOR CONFORME FOTO EM ANEXO PARA O VELORIO DO EX-VEREADOR E EX-PRESIDENTE DA CAMARA ANTONIO AVELINO FERREIRA CONF RD 138/2025DESPESA SEM EMPENHO PREVIO                                                                                                                                                                                                                                  DPV08XX000000000000000000150000000000
010104122000100002064449052120000000000000000202502007035150820250000000017000+0000005184                                                                                                                                                                     00000N                    000000000000000000152025CHALEIRA ELETRICA 18 LITROS PARA A COZINHA DA CAMARA DE VEREADORESPROCESSO N 15/2025 DISPENSA N 15/2025TRANSPOSTO DA NE 7023 PARA AJUSTE DA DOTACAO ORCAMENTARIA                                                                                                                                                                                                                                                PRD08XX000000000000000000150000000000
010104122000100002064339030240000000000000000202502001333100220250000000018600+0000003802                                                                                                                                                                     00000N                    000000000000000000000000VIDROS PARA A PORTA DE ENTRADA DA CAMARA E PARA A JANELA DA SALA DA PRESIDENCIA                                                                                                                                                                                                                                                                                                                                 DPV01XX000000000000000000150000000000
010104122000100002064339039050000000000000000202502007129220820250000000020250+0000005649                                                                                                                                                                     00000N                    000000000000000000000000SERVICO DE INSTALACAO DO SWITCH INCLUINDO O CABEAMENTO NECESSARIO BEM COMO A ORGANIZACAO DOS FIOS COM O USO DE CANALETAS E ABRACADEIRAS                                                                                                                                                                                                                                                                         DPV08XX000000000000000000150000000000
010104122000100002064339030240000000000000000202502003640300420250000000022500+0000001744                                                                                                                                                                     00000N                    000000000000000000000000AQUISICAO DE FECHADURA TUBULAR PARA A PORTA DA SALA DA PRESIDENCIA                                                                                                                                                                                                                                                                                                                                              DPV08XX000000000000000000150000000000
010104122000100002064339093140000000000000000202502003006040420250000000023505+0000010910                                                                                                                                                                     00000N                    000000000000000000000000RESSARCIMENTO DE PASSAGEM DE ONIBUS DE SANTA ROSA A PORTO ALEGRE PARA PARTICIPAR DO CURSO 3025/0804  OFICINA PRATICA CONTRATACOES DIRETAS  DISPENSA E INEXIGIBILIDADE - ALTERACOES PROCEDIMENTOS E ASPECTOS PRATICOS COM SIMULACAO DE CONTRATACAO E ELABORACAO DE DOCUMENTOS DURANTE O CURSO ENTREGA DE MODELOS MODULO ESPECIFICO - OFICINA NOVA LEI DE LICITACOES FOCO DISPENSA E INEXIGIBILIDADE A SE REALIZARDPV08XX000000000000000000150000000000
010104122000100002064319011010000000000000000202502004301280520250000000024647+0000003705                                                                                                                                                                     00000N                    000000000000000000000000REFERENTE A REMUNERACAO DO MES DE MAIO DE 2025CAMARA - ESTATUTARIOSANUENIOS                                                                                                                                                                                                                                                                                                                                     NSA00FX000000000000000000150000000000
010104122000100002064339039200000000000000000202502004903090620250000000025000+0000005208                                                                                                                                                                     00000N                    000000000000000000000000CONSERTO DO AR-CONDICIONADO LOCALIZADO NA SALA DA SECRETARIA PARA A TROCA DO SEU CAPACITOR CFE RD 1843/2025                                                                                                                                                                                                                                                                                                     DPV08XX000000000000000000150000000000
010104122000100002064339030280000000000000000202502004825040620250000000026000+0000006857                                                                                                                                                                     00000N                    000000000000000000092025RECARGA DE EXTINTORES PARA MANUTENCAO DA CAMARA DE VEREADORESPROCESSO N 09/2025  DISPENSA N 09/2025                                                                                                                                                                                                                                                                                                             PRD08XX000000000000000000150000000000
010104122000100002064339030240000000000000000202502000131080120250000000027000+0000001744                                                                                                                                                                     00000N                    0000000000000000000000006 COPIAS DE CHAVE DA PORTA DE ENTRADA PRINCIPAL DO PALACIO DA PREFEITURA MUNICIPAL DE INDEPENDENCIA E ADQUIRIDO TAMBEM UM NOVO CILINDRO DA PORTA DE ENTRADA DA CAMARA DE VEREADORES ESTE CILINDRO VEM ACOMPANHADO DE DUAS CHAVES E FORAM FEITAS MAIS 4 COPIAS DESTA CHAVE LOGO FORAM ADQUIRIDAS 10 CHAVES NO TOTAL ADQUIRIDO TAMBEM UMA NOVA FECHADURA PARA A GAVETA DA BANCADA DOS VEREADORES                  DPV01XX000000000000000000150000000000
010104122000100002064319011370000000000000000202502000654280120250000000028330+0000003705                                                                                                                                                                     00000N                    000000000000000000000000REFERENTE A REMUNERACAO DO MES DE JANEIRO DE 2025CAMARA - ESTATUTARIOSANUENIOS                                                                                                                                                                                                                                                                                                                                  NSA00FX000000000000000000150000000000
010104122000100002064339030160000000000000000202502000401200120250000000028410+0000005394                                                                                                                                                                     00000N                    000000000000000000000000AQUISICAO DE MATERIAIS DE EXPEDIENTE PARA USO DIARIO DA CAMARA DE VEREADORES CONF RD 294/2025                                                                                                                                                                                                                                                                                                                   DPV08XX000000000000000000150000000000
010104122000100002064319011370000000000000000202502005226250620250000000028802+0000003705                                                                                                                                                                     00000N                    000000000000000000000000REFERENTE A REMUNERACAO DO MES DE JUNHO DE 2025CAMARA - ESTATUTARIOSANUENIOS                                                                                                                                                                                                                                                                                                                                    NSA00FX000000000000000000150000000000
010104122000100002064339039780000000000000000202502000630270120250000000029100+0000010875                                                                                                                                                                     00000N                    000000000000000000000000LAVAGEM DE 26 CORTINAS DA CAMARA DE VEREADORES POIS AS MESMAS ENCONTRAM-SE MOFADAS E MANCHADAS EM RAZAO DO GRANDE PERIODO DE TEMPO DESDE A ULTIMA LAVAGEM E DO AMBIENTE UMIDO                                                                                                                                                                                                                                   DPV01XX000000000000000000150000000000
010101031001500002063339040230000000000000000202502000132080120250000000029400+0000005649                                                                                                                                                                     00000N                    000000000000000000000000CERTIFICADO DIGITAL TIPO E-CPF A3 COM TOKEN COM VALIDADE PARA 1 ANO                                                                                                                                                                                                                                                                                                                                             DPV01XX000000000000000000150000000000
010104122000100002064319011370000000000000000202502002449270320250000000031163+0000003705                                                                                                                                                                     00000N                    000000000000000000000000REFERENTE A REMUNERACAO DO MES DE MARCO DE 2025CAMARA - ESTATUTARIOS ANUENIOS                                                                                                                                                                                                                                                                                                                                   NSA00FX000000000000000000150000000000
010104122000100002064319011370000000000000000202502001599260220250000000031163+0000003705                                                                                                                                                                     00000N                    000000000000000000000000REFERENTE A REMUNERACAO DO MES DE FEVEREIRO DE 2025CAMARA - ESTATUTARIOSANUENIOS                                                                                                                                                                                                                                                                                                                                NSA00FX000000000000000000150000000000
010104122000100002064319011370000000000000000202502003341280420250000000031163+0000003705                                                                                                                                                                     00000N                    000000000000000000000000REFERENTE A REMUNERACAO DO MES DE ABRIL DE 2025CAMARA - ESTATUTARIOSANUENIOS                                                                                                                                                                                                                                                                                                                                    NSA00FX000000000000000000150000000000
010104122000100002064319011370000000000000000202502006244250720250000000033996+0000003705                                                                                                                                                                     00000N                    000000000000000000000000REFERENTE A REMUNERACAO DO MES DE JULHO DE 2025CAMARA - ESTATUTARIOSANUENIOS                                                                                                                                                                                                                                                                                                                                    NSA00FX000000000000000000150000000000
010104122000100002064339030150000000000000000202502000596270120250000000037000+0000007750                                                                                                                                                                     00000N                    000000000000000000000000PLACA EM ACO ESCOVADO E ADESIVADO E ESTOJO CAMURCA QUE SERAO ENTREGUES EM HOMENAGEM A EMPRESA ROMAN F MANN   CIA LTDA EM SESSAO SOLENE QUE OCORRERA DIA 04/02/2025                                                                                                                                                                                                                                              DPV01XX000000000000000000150000000000
010104122000100002064449052300000000000000000202502005186230620250000000037500+0000003842                                                                                                                                                                     00000N                    000000000000000000112025AUTOTRANSFORMADOR PARA A IMPRESSORA DA CAMARA DE VEREADORESPROCESSO N 11/2025   DISPENSA N 11/2025    PATRIM N                                                                                                                                                                                                                                                                                                  PRD08XX000000000000000000150000000000
010104122000100002064319011370000000000000000202502007166260820250000000037538+0000003705                                                                                                                                                                     00000N                    000000000000000000000000REFERENTE A REMUNERACAO DO MES DE AGOSTO DE 2025CAMARA - ESTATUTARIOSANUENIOS                                                                                                                                                                                                                                                                                                                                   NSA00FX000000000000000000150000000000
010104122000100002064339030160000000000000000202502005900080720250000000037950+0000005783                                                                                                                                                                     00000N                    000000000000000000122025MATERIAIS DE EXPEDIENTE E DE ESCRITORIO PARA MANUTENCAO DAS ATIVIDADES DE APOIO A CAMARA DE VEREADORESPROCESSO N 12/2025   DISPENSA N 12/2025                                                                                                                                                                                                                                                                   PRD08XX000000000000000000150000000000
010104122000100002064339039580100000000000000202502000127080520250000000211975-0000004824                                                                                                                                                                     00000N                    000000000000000000000000LIGACOES TELEFONICAS REALIZADAS ATRAVES DA LINHA 553539-1295 DA CAMARA DE VEREADORESFATURA N REF MES                                                                                                                                                                                                                                                                                                            DPV08XX000000000000000000150000000000
010104122000100002064339039580100000000000000202502000127080120250000000250000+0000004824                                                                                                                                                                     00000N                    000000000000000000000000LIGACOES TELEFONICAS REALIZADAS ATRAVES DA LINHA 553539-1295 DA CAMARA DE VEREADORESFATURA N REF MES                                                                                                                                                                                                                                                                                                            DPV08XX000000000000000000150000000000
010104122000100002064339039580100000000000000202502003639300420250000000044010+0000006412                                                                                                                                                                     00000N                    000000000000000000032025SERVICOS DE TELEFONIA FIXA PARA MANUTENCAO DA CAMARA DE VEREADORESCONTRATO N01/2025 VIGENCIA 12 MESES A CONTAR DE 29042025PROCESSO N 03/2025  DISPENSA N 03/2025     VALOR MENSAL R 4890                                                                                                                                                                                                                        PRD08XX000000000000000000150000000000
010104122000100002064339039160000000000000000202502001397130220250000000047000+0000005208                                                                                                                                                                     00000N                    000000000000000000000000INSTALACAO DO AR-CONDICIONADO DE 9000 BTUS NA SALA DA PRESIDENCIA DA CAMARA DE VEREADORES                                                                                                                                                                                                                                                                                                                       DPV08XX000000000000000000150000000000
010104122000100002064339030170000000000000000202502001398130220250000000048400+0000001489                                                                                                                                                                     00000N                    000000000000000000000000TINTAS PARA A IMPRESSORA EPSON L3150 DA SALA DA SECRETARIA DA CAMARA DE VEREADORES                                                                                                                                                                                                                                                                                                                              DPV08XX000000000000000000150000000000
010104122000100002064339008110100000000000000202502005227250620250000000052411+0000003705                                                                                                                                                                     00000N                    000000000000000000000000REFERENTE A REMUNERACAO DO MES DE JUNHO DE 2025CAMARA - ESTATUTARIOSAUXILIO DOENCA                                                                                                                                                                                                                                                                                                                              NSA00FX000000000000000000150000000000
010104122000100002064339093140000000000000000202502003005040420250000000053873+0000010775                                                                                                                                                                     00000N                    000000000000000000000000RESSARCIMENTO DE PASSAGENS DE ONIBUS DE SANTA ROSA A PORTO ALEGRE IDA E VOLTA PARA PARTICIPAR DO CURSO 3025/0804  OFICINA PRATICA CONTRATACOES DIRETAS  DISPENSA E INEXIGIBILIDADE - ALTERACOES PROCEDIMENTOS E ASPECTOS PRATICOS COM SIMULACAO DE CONTRATACAO E ELABORACAO DE DOCUMENTOS DURANTE O CURSO ENTREGA DE MODELOS MODULO ESPECIFICO - OFICINA NOVA LEI DE LICITACOES FOCO DISPENSA E INEXIGIBILIDADE DPV08XX000000000000000000150000000000
010104122000100002064339039200000000000000000202502000134080120250000000055000+0000005963                                                                                                                                                                     00000N                    000000000000000000000000CONSERTO DE 5 CADEIRAS DE ESCRITORIO TROCAR ACENTO CONSERTO DO ENCOSTO E AJUSTE DE ALTURA CONSERTO DE RODINHAS                                                                                                                                                                                                                                                                                                  DPV01XX000000000000000000150000000000
010104122000100002064339093050000000000000000202502002125070320250000000058468+0000010909                                                                                                                                                                     00000N                    000000000000000000000000INDENIZACAO DAS DESPESAS COM PASSAGENS DE ONIBUS TRES DE MAIO - PORTO ALEGRE IDA E VOLTA PARA PARTICIPAR DO CURSO 5025/1103  CURSO AVANCADO DE REDACAO OFICIAL REDACAO DE LEIS PROCESSO E COMPETENCIA LEGISLATIVA A SE REALIZAR NOS DIAS 11 12 13 E 14 DE MARCO DE 2025 NA INSTITUICAO INLEGIS EM PORTO ALEGRE/RS                                                                                               DPV08XX000000000000000000150000000000
010104122000100002064339093050000000000000000202502004580280520250000000060640+0000010416                                                                                                                                                                     00000N                    000000000000000000000000RESSARCIMENTO DE PASSAGEM DE ONIBUS DE TRES DE MAIO A PORTO ALEGRE IDA E VOLTA PARA PARTICIPAR DO CURSO 1025/0306  GESTOR E FISCAL DE CONTRATO  DESIGNACAO ATRIBUICOES E RESPONSABILIDADE MODULO ESTENDIDO A REALIZAR-SE NOS DIAS 03 04 05 E 06 DE JUNHO DE 2025 NA INSTITUICAO INLEGIS EM PORTO ALEGRE/RS                                                                                                      DPV08XX000000000000000000150000000000
010104122000100002064339039160000000000000000202502002084280220250000000061000+0000006698                                                                                                                                                                     00000N                    000000000000000000000000MAO DE OBRA PARA INSTALACAO DE LAMPADAS TOMADAS FIXAR EXTENSAO E CANALETAS JUNTO AO PLENARIO                                                                                                                                                                                                                                                                                                                    DPV08XX000000000000000000150000000000
010104122000100002064449052370000000000000000202502006512250720250000000061500+0000005649                                                                                                                                                                     00000N                    000000000000000000142025SUPRIMENTO DE INFORMATICA SWITCH 16 PORTAS PARA MELHOR DISTRIBUICAO DO SINAL DE INTERNET JUNTO A CAMARA DE VEREADORESPROCESSO N 14/2025  DISPENSA N 14/2025           PATRIM N                                                                                                                                                                                                                                  PRD08XX000000000000000000150000000000
010104122000100002064339030150000000000000000202502006567280720250000000063000+0000007750                                                                                                                                                                     00000N                    00000000000000000000000002 UN DE PLACAS EM ACO ESCOVADO ADESIVADA C/ESTOJO EM CAMURCA AS QUAIS SERAO ENTREGUES EM HOMENAGENS REALIZADAS PELA CAMARA DE VEREADORES                                                                                                                                                                                                                                                                       DPV08XX000000000000000000150000000000
010104122000100002064319011100000000000000000202502003343280420250000000065675+0000003705                                                                                                                                                                     00000N                    000000000000000000000000REFERENTE A REMUNERACAO DO MES DE ABRIL DE 2025CAMARA - ESTATUTARIOSINSALUBRIDADE                                                                                                                                                                                                                                                                                                                               NSA00FX000000000000000000150000000000
010104122000100002064319011100000000000000000202502006246250720250000000065675+0000003705                                                                                                                                                                     00000N                    000000000000000000000000REFERENTE A REMUNERACAO DO MES DE JULHO DE 2025CAMARA - ESTATUTARIOSINSALUBRIDADE                                                                                                                                                                                                                                                                                                                               NSA00FX000000000000000000150000000000
010104122000100002064319011100000000000000000202502002451270320250000000065675+0000003705                                                                                                                                                                     00000N                    000000000000000000000000REFERENTE A REMUNERACAO DO MES DE MARCO DE 2025CAMARA - ESTATUTARIOS INSALUBRIDADE                                                                                                                                                                                                                                                                                                                              NSA00FX000000000000000000150000000000
010104122000100002064319011100000000000000000202502000656280120250000000065675+0000003705                                                                                                                                                                     00000N                    000000000000000000000000REFERENTE A REMUNERACAO DO MES DE JANEIRO DE 2025CAMARA - ESTATUTARIOSINSALUBRIDADE                                                                                                                                                                                                                                                                                                                             NSA00FX000000000000000000150000000000
010104122000100002064319011100000000000000000202502001601260220250000000065675+0000003705                                                                                                                                                                     00000N                    000000000000000000000000REFERENTE A REMUNERACAO DO MES DE FEVEREIRO DE 2025CAMARA - ESTATUTARIOSINSALUBRIDADE                                                                                                                                                                                                                                                                                                                           NSA00FX000000000000000000150000000000
010104122000100002064319011100000000000000000202502004304280520250000000065675+0000003705                                                                                                                                                                     00000N                    000000000000000000000000REFERENTE A REMUNERACAO DO MES DE MAIO DE 2025CAMARA - ESTATUTARIOSINSALUBRIDADE                                                                                                                                                                                                                                                                                                                                NSA00FX000000000000000000150000000000
010104122000100002064319011100000000000000000202502007168260820250000000065675+0000003705                                                                                                                                                                     00000N                    000000000000000000000000REFERENTE A REMUNERACAO DO MES DE AGOSTO DE 2025CAMARA - ESTATUTARIOSINSALUBRIDADE                                                                                                                                                                                                                                                                                                                              NSA00FX000000000000000000150000000000
010104122000100002064339030260000000000000000202502001565240220250000000070320+0000005301                                                                                                                                                                     00000N                    000000000000000000000000MATERIAIS ELETRICOS PARA MANUTENCAO DOS ESPACOS DA CAMARA PROPORCIONANDO MAIS LUZ NO PLENARIO E TOMADAS NOS LOCAIS NECESSARIOS                                                                                                                                                                                                                                                                                  DPV08XX000000000000000000150000000000
010101031001500002063339014140000000000000000202502003124100420250000000081054+0000008095                                                                                                                                                                     00000N                    000000000000000000000000150 DIARIAS A PORTO ALEGRE NOS DIAS 21 E 25042025 PARA PARTICIPAR DA XXIV MARCHA DOS GESTORES E LEGISLATIVOS MUNICIPAIS DE 22 A 25 DE ABRIL DE 2025 EVENTO ORGANIZADO PELA UVB  UNIAO DOS VEREADORES DO BRASIL QUE ACONTECERA EM BRASILIA-DF                                                                                                                                                                    NSA00IX000000000000000000150000000000
010101031001500002063339014140000000000000000202502003126100420250000000081054+0000006260                                                                                                                                                                     00000N                    000000000000000000000000150 DIARIAS A PORTO ALEGRE NOS DIAS 21 E 25042025 PARA PARTICIPAR DA XXIV MARCHA DOS GESTORES E LEGISLATIVOS MUNICIPAIS DE 22 A 25 DE ABRIL DE 2025 EVENTO ORGANIZADO PELA UVB  UNIAO DOS VEREADORES DO BRASIL QUE ACONTECERA EM BRASILIA-DF                                                                                                                                                                    NSA00IX000000000000000000150000000000
010101031001500002063339014140000000000000000202502003127100420250000000081054+0000010912                                                                                                                                                                     00000N                    000000000000000000000000150 DIARIAS A PORTO ALEGRE NOS DIAS 21 E 25042025 PARA PARTICIPAR DA XXIV MARCHA DOS GESTORES E LEGISLATIVOS MUNICIPAIS DE 22 A 25 DE ABRIL DE 2025 EVENTO ORGANIZADO PELA UVB  UNIAO DOS VEREADORES DO BRASIL QUE ACONTECERA EM BRASILIA-DF                                                                                                                                                                    NSA00IX000000000000000000150000000000
010101031001500002063339014140000000000000000202502003144110420250000000081054+0000000240                                                                                                                                                                     00000N                    000000000000000000000000150 DIARIAS A PORTO ALEGRE NOS DIAS 21 E 25042025 PARA PARTICIPAR DA XXIV MARCHA DOS GESTORES E LEGISLATIVOS MUNICIPAIS DE 22 A 25 DE ABRIL DE 2025 EVENTO ORGANIZADO PELA UVB  UNIAO DOS VEREADORES DO BRASIL QUE ACONTECERA EM BRASILIA-DF                                                                                                                                                                    NSA00IX000000000000000000150000000000
010104122000100002064319011430000000000000000202502003339280420250000000082630+0000003705                                                                                                                                                                     00000N                    000000000000000000000000REFERENTE A REMUNERACAO DO MES DE ABRIL DE 2025CAMARA - CCS13 SALARIO                                                                                                                                                                                                                                                                                                                                           NSA00FX000000000000000000150000000000
010104122000100002064319013020100000000000000202502001017310120250000000084345+0000000155                                                                                                                                                                     00000N                    000000000000000000000000CONTRIB PATRONAL AO INSS REF REMUNERACAO DO MES DE JANEIRO DE 2025CAMARA - CCS                                                                                                                                                                                                                                                                                                                                  NSA00XX000000000000000000150000000000
010104122000100002064319011520000000000000000202502004302280520250000000094340+0000003705                                                                                                                                                                     00000N                    000000000000000000000000REFERENTE A REMUNERACAO DO MES DE MAIO DE 2025CAMARA - ESTATUTARIOSAUXILIO DOENCA                                                                                                                                                                                                                                                                                                                               NSA00FX000000000000000000150000000000
010104122000100002064339030160000000000000000202502000187080120250000000099950+0000008860                                                                                                                                                                     00000S                    000000000000000000382023MATERIAL DE EXPEDIENTE PARA MANUTENCAO DOS TRABALHOS DA CAMARA DE VEREADORES - FOLHA DE OFICIO A4 PROCESSO DE LICITACAO N489/2023 PREGAO ELETRONICO N38/2023 SRP N49/2023                                                                                                                                                                                                                                       PRE07XS876128260001900000150000000000
010104131000100002065339039920000000000000000202502000318150120250000000100000+0000000266                                                                                                                                                                     00000N                    000000000000000000000000SERVICOS DE DIVULGACAO DE PUBLICACOES EVENTUAIS PARA A CAMARA DE VEREADORES TAIS COMO EDITAIS NOTAS DE ESCLARECIMENTO NOTAS DE PESAR E NOTAS DE APOIO E TAMBEM PUBLICACOES EVENTUAIS PARA DATAS COMEMORATIVAS COMO PASCOA NATAL ANIVERSARIO DO MUNICIPIO FEIRAS DENTRE OUTROS CONF RD 218/2025                                                                                                                  DPV08XX000000000000000000150000000000
010104122000100002064319011430000000000000000202502006242250720250000000100873+0000003705                                                                                                                                                                     00000N                    000000000000000000000000REFERENTE A REMUNERACAO DO MES DE JULHO DE 2025CAMARA - CCS13 SALARIO                                                                                                                                                                                                                                                                                                                                           NSA00FX000000000000000000150000000000
010104122000100002064339039580200000000000000202502003638290420250000000107910+0000006412                                                                                                                                                                     00000N                    000000000000000000032025SERVICOS DE INTERNET 800MB PARA MANUTENCAO DA CAMARA DE VEREADORESCONTRATO N01/2025 VIGENCIA 12 MESES A CONTAR DE 29042025PROCESSO N 03/2025  DISPENSA N 03/2025     VALOR MENSAL R 11990                                                                                                                                                                                                                       PRD08XX000000000000000000150000000000
010104131000100002065339039920000000000000000202502000317150120250000000638000+0000000266                                                                                                                                                                     00000N                    000000000000000000000000SERVICOS DE DIVULGACAO DE NOTICIAS REFERENTES A CAMARA DE VEREADORES EM FORMA DE COLUNA EM ESPACO QUINZENAL PARA O MAIOR CONHECIMENTO DO PUBLICO DAS ATIVIDADES LEGISLATIVAS CONF RD 215/2025                                                                                                                                                                                                                   DPV08XX000000000000000000150000000000
010104131000100002065339039920000000000000000202502000317030420250000000522000-0000000266                                                                                                                                                                     00000N                    000000000000000000000000SERVICOS DE DIVULGACAO DE NOTICIAS REFERENTES A CAMARA DE VEREADORES EM FORMA DE COLUNA EM ESPACO QUINZENAL PARA O MAIOR CONHECIMENTO DO PUBLICO DAS ATIVIDADES LEGISLATIVAS CONF RD 215/2025                                                                                                                                                                                                                   DPV08XX000000000000000000150000000000
010104122000100002064339039480000000000000000202502001448140220250000000119000+0000006872                                                                                                                                                                     00000N                    00000000000000000000000001 TAXA DE INSCRICAO PARA O DIRETOR GERAL EDSOM MELLER PARA PARTICIPAR DO CURSO ORIENTACOES TECNICAS PARA O ASSESSORAMENTO E EXERCICIO DA VEREANCA DE FORMA EFICAZ  TOPICO ESPECIAL COMISSOES LEGISLATIVAS A SE REALIZAR NOS DIAS 25 26 27 E 28 DE FEVEREIRO DE 2025 NA INSTITUICAO INLEGIS EM PORTO ALEGRE/RS                                                                                                  DPV08XX000000000000000000150000000000
010104122000100002064319011450000000000000000202502000653280120250000000125769+0000003705                                                                                                                                                                     00000N                    000000000000000000000000REFERENTE A REMUNERACAO DO MES DE JANEIRO DE 2025CAMARA - ESTATUTARIOSFERIAS                                                                                                                                                                                                                                                                                                                                    NSA00FX000000000000000000150000000000
010104122000100002064339039480000000000000000202502002124070320250000000129000+0000006872                                                                                                                                                                     00000N                    00000000000000000000000001 TAXA DE INSCRICAO PARA A SERVIDORA YASMIN THAINA DE SA PARTICIPAR DO CURSO 5025/1103  CURSO AVANCADO DE REDACAO OFICIAL REDACAO DE LEIS PROCESSO E COMPETENCIA LEGISLATIVA QUE SERA REALIZADO  NOS DIAS 11 12 13 E 14 DE MARCO DE 2025 NA INSTITUICAO INLEGIS EM PORTO ALEGRE/RS                                                                                                                             DPV08XX000000000000000000150000000000
010104122000100002064339039480000000000000000202502004170190520250000000129000+0000006872                                                                                                                                                                     00000N                    00000000000000000000000001 TAXA DE INSCRICAO DO DIRETOR GERAL EDSOM MELLER PARTICIPAR DO CURSO ORIENTACOES TECNICAS E CAUTELAS A SEREM ADOTADAS NOS PODERES LEGISLATIVOS E EXECUTIVOS  GESTAO E FISCALIZACAO PAGAMENTO DE 13 E TERCO DE FERIAS A AGENTES POLITICOS REVISAO GERAL ANUAL DIARIAS PRESTACAO DE CONTAS AO TRIBUNAL DE CONTAS LDO COMUNICACAO PUBLICA ESTRATEGICA E ETICA GESTAO DE PESSOAL  ADMISSOES COM DESTAQUE AOS CONCUDPV08XX000000000000000000150000000000
010101031001500002063339014140000000000000000202502006607300720250000000135090+0000010911                                                                                                                                                                     00000N                    000000000000000000000000250 DIARIAS A PORTO ALEGRE NOS DIAS 30 E 31/07 E 01/08/2025 PARA VIAGEM A PORTO ALEGRE/RS COM O OBJETIVO DE CONDIZIR AS SOBERANAS DA 7 EXPOINDE  NAIARA ZALTRON BORGES ERIKA MENDONCA PEREIRA E MARIA HELENA WIMGHENBACH  EM VISITAS A ASSEMBLEIA LEGISLATIVA E AO GABINETE DO VICE-GOVERNADOR GABRIEL SOUZA VISANDO A DIVULGACAO DA EXPOINDE NA CAPITAL DO ESTADO                                              NSA00IX000000000000000000150000000000
010104122000100002064319011420000000000000000202502000652280120250000000137860+0000003705                                                                                                                                                                     00000N                    000000000000000000000000REFERENTE A REMUNERACAO DO MES DE JANEIRO DE 2025CAMARA - CCS1/3 FERIAS INDENIZADAS                                                                                                                                                                                                                                                                                                                             NSA00FX000000000000000000150000000000
010104122000100002064339039480000000000000000202502004581280520250000000139000+0000006872                                                                                                                                                                     00000N                    00000000000000000000000001 TAXA DE INSCRICAO PARA A SERVIDORA FERNANDA JESKE PARTICIPAR DO CURSO 1025/0306  GESTOR E FISCAL DE CONTRATO  DESIGNACAO ATRIBUICOES E RESPONSABILIDADE MODULO ESTENDIDO A SE REALIZAR NOS DIAS 03 04 05 E 06062025 EM PORTO ALEGRE/RS                                                                                                                                                                       DPV08XX000000000000000000150000000000
