12292535000162010120253108202509092025CAMARA DE VEREADORES DE INDEPENDENCIA-RS                                        
020250200312500000000000000003234100420250000000270180+                                                                                                                                                                     000000000000000000000000000000150 DIARIAS A PORTO ALEGRE NOS DIAS 21 E 25042025 PARA PARTICIPAR DA XXIV MARCHA DOS GESTORES E LEGISLATIVOS MUNICIPAIS DE 22 A 25 DE ABRIL DE 2025 EVENTO ORGANIZADO PELA UVB  UNIAO DOS VEREADORES DO BRASIL QUE ACONTECERA EM BRASILIA-DF                                                                                                                                                                    N00000000000000000000                    0000X000000000   X
020250200312500000000000000003234110420250000000270180-                                                                                                                                                                     000000000000000000000000000000150 DIARIAS A PORTO ALEGRE NOS DIAS 21 E 25042025 PARA PARTICIPAR DA XXIV MARCHA DOS GESTORES E LEGISLATIVOS MUNICIPAIS DE 22 A 25 DE ABRIL DE 2025 EVENTO ORGANIZADO PELA UVB  UNIAO DOS VEREADORES DO BRASIL QUE ACONTECERA EM BRASILIA-DF                                                                                                                                                                    N00000000000000000000                    0000X000000000   X
020250200147800000000000000001218190220250000000002505+                                                                                                                                                                     000000000000000000000000000000CONTRIB AO FAPS PARTE PATRONAL 16 REF REMUNERACAO DE JANEIRO DE 2025 INATIVOS-GERAL-TEMPCONT-CAMARANE TRANSPOSTA DA NE 1117 AJUSTE CONTABIL                                                                                                                                                                                                                                                                     N00000000000000000000                    0000X000000000   X
020250200661500000000000000007626310720250000000191569+                                                                                                                                                                     000000000000000000000000000000CONTRIB PATRONAL AO INSS REF REMUNERACAO DO MES DE JULHO DE 2025CAMARA - CCS                                                                                                                                                                                                                                                                                                                                    N00000000000000000000                    0000X000000000   X
020250200661500000000000000007626310720250000000191569-                                                                                                                                                                     000000000000000000000000000000CONTRIB PATRONAL AO INSS REF REMUNERACAO DO MES DE JULHO DE 2025CAMARA - CCS                                                                                                                                                                                                                                                                                                                                    N00000000000000000000                    0000X000000000   X
020250200147800000000000000001218190220250000000002505-                                                                                                                                                                     000000000000000000000000000000CONTRIB AO FAPS PARTE PATRONAL 16 REF REMUNERACAO DE JANEIRO DE 2025 INATIVOS-GERAL-TEMPCONT-CAMARANE TRANSPOSTA DA NE 1117 AJUSTE CONTABIL                                                                                                                                                                                                                                                                     N00000000000000000000                    0000X000000000   X
020250200064800000000000000000217280120250000000648807+                                                                                                                                                                     000000000000000000000000000000REFERENTE A REMUNERACAO DO MES DE JANEIRO DE 2025CAMARA - CCSSALARIO C/C                                                                                                                                                                                                                                                                                                                                        N00000000000000000000                    0000X000000000   X
020250200064900000000000000000218280120250000000413579+                                                                                                                                                                     000000000000000000000000000000REFERENTE A REMUNERACAO DO MES DE JANEIRO DE 2025CAMARA - CCSFERIAS INDENIZADAS                                                                                                                                                                                                                                                                                                                                 N00000000000000000000                    0000X000000000   X
020250200064900000000000000000218280120250000000413579-                                                                                                                                                                     000000000000000000000000000000REFERENTE A REMUNERACAO DO MES DE JANEIRO DE 2025CAMARA - CCSFERIAS INDENIZADAS                                                                                                                                                                                                                                                                                                                                 N00000000000000000000                    0000X000000000   X
020250200064800000000000000000217280120250000000648807-                                                                                                                                                                     000000000000000000000000000000REFERENTE A REMUNERACAO DO MES DE JANEIRO DE 2025CAMARA - CCSSALARIO C/C                                                                                                                                                                                                                                                                                                                                        N00000000000000000000                    0000X000000000   X
020250200331200000000000000004106050520250000000001530+                                                                                                                                                                     000000000000000000000000000000CANTONEIRAS PARAFUSOS E GRAMPOS PARA FIXAR O CONJUNTO DAS GAVETAS DA MESA DA SECRETARIA                                                                                                                                                                                                                                                                                                                         N00000000000000000000                    0000S0000028531  X
020250200481800000000000000005482050620250000000002290+                                                                                                                                                                     000000000000000000000000000000PORTA LAPIS PARA O USO DO PRESIDENTE DA CAMARA                                                                                                                                                                                                                                                                                                                                                                  N00000000000000000000                    0000S0000003711  X
020250200203100000000000000001823050320250000000002505+                                                                                                                                                                     000000000000000000000000000000CONTRIB AO FAPS PARTE PATRONAL 16 REF REMUNERACAO DE FEVEREIRO DE 2025 INATIVOS-GERAL-TEMPCONT-CAMARA                                                                                                                                                                                                                                                                                                           N00000000000000000000                    0000X000000000   X
020250200672100000000000000007732310720250000000002505+                                                                                                                                                                     000000000000000000000000000000CONTRIB AO FAPS PARTE PATRONAL 1600 REF REMUNERACAO DE JULHO DE 2025FAPS-INATIVOS-GERAL-TEMPCONT-CAMARA                                                                                                                                                                                                                                                                                                         N00000000000000000000                    0000X000000000   X
020250200147900000000000000001219190220250000000002505+                                                                                                                                                                     000000000000000000000000000000CONTRIB AO FAPS PARTE PATRONAL 16 REF REMUNERACAO DE JANEIRO DE 2025 INATIVOS-GERAL-TEMPCONT-CAMARANE TRANSPOSTA DA NE 1117 AJUSTE CONTABIL                                                                                                                                                                                                                                                                     N00000000000000000000                    0000X000000000   X
020250200375200000000000000004048300420250000000002505+                                                                                                                                                                     000000000000000000000000000000CONTRIB AO FAPS PARTE PATRONAL 1600 REF REMUNERACAO DE ABRIL DE 2025 FAPS-INATIVOS-GERAL-TEMPCONT-CAMARA                                                                                                                                                                                                                                                                                                        N00000000000000000000                    0000X000000000   X
020250200473000000000000000005281300520250000000002505+                                                                                                                                                                     000000000000000000000000000000CONTRIB AO FAPS PARTE PATRONAL 1600 REF REMUNERACAO DE MAIO DE 2025 FAPS-INATIVOS-GERAL-TEMPO-CONT-CAMARA                                                                                                                                                                                                                                                                                                       N00000000000000000000                    0000X000000000   X
020250200287300000000000000002833310320250000000002505+                                                                                                                                                                     000000000000000000000000000000CONTRIB AO FAPS PARTE PATRONAL 1600 REF REMUNERACAO DE MARCO DE 2025 FAPS INATIVOS-GERAL-TEMPO-CONTR-CAMARA                                                                                                                                                                                                                                                                                                     N00000000000000000000                    0000X000000000   X
020250200568100000000000000006438300620250000000002505+                                                                                                                                                                     000000000000000000000000000000CONTRIB AO FAPS PARTE PATRONAL 1600 REF REMUNERACAO DE JUNHO DE 2025 FAPS-INATIVOS-GERAL-TEMPCONT-CAMARA                                                                                                                                                                                                                                                                                                        N00000000000000000000                    0000X000000000   X
020250200767200000000000000009034290820250000000002505+                                                                                                                                                                     000000000000000000000000000000CONTRIB AO FAPS PARTE PATRONAL 1600 REF REMUNERACAO DE AGOSTO DE 2025FAPS-INATIVOS-GERAL-TEMPOCONT-CAMARA                                                                                                                                                                                                                                                                                                       N00000000000000000000                    0000X000000000   X
020250200203200000000000000001824050320250000000002600+                                                                                                                                                                     000000000000000000000000000000CONTRIB AO FAPS PARTE PATRONAL 1661 REF REMUNERACAO DE FEVEREIRO DE 2025 PASSIVO ATUARIALINATIVOS-GERAL-TEMPCONT-CAMARA                                                                                                                                                                                                                                                                                         N00000000000000000000                    0000X000000000   X
020250200672200000000000000007733310720250000000002600+                                                                                                                                                                     000000000000000000000000000000CONTRIB AO FAPS PARTE PATRONAL 1661 REF REMUNERACAO DE JULHO DE 2025PASSIVO ATUARIALFAPS-INATIVOS-GERAL-TEMPCONT-CAMARA                                                                                                                                                                                                                                                                                         N00000000000000000000                    0000X000000000   X
020250200148000000000000000001220190220250000000002600+                                                                                                                                                                     000000000000000000000000000000CONTRIB AO FAPS PARTE PATRONAL 24 REF REMUNERACAO DE JANEIRO DE 2025 PASSIVO ATUARIALINATIVOS-GERAL-TEMPCONT-CAMARANE TRANSPOSTA DA NE 1126 AJUSTE CONTABIL                                                                                                                                                                                                                                                     N00000000000000000000                    0000X000000000   X
020250200375300000000000000004049300420250000000002600+                                                                                                                                                                     000000000000000000000000000000CONTRIB AO FAPS PARTE PATRONAL 1661 REF REMUNERACAO DE ABRIL DE 2025 PASSIVO ATUARIALFAPS-INATIVOS-GERAL-TEMPCONT-CAMARA                                                                                                                                                                                                                                                                                        N00000000000000000000                    0000X000000000   X
020250200473100000000000000005282300520250000000002600+                                                                                                                                                                     000000000000000000000000000000CONTRIB AO FAPS PARTE PATRONAL 1661 REF REMUNERACAO DE MAIO DE 2025 PASSIVO ATUARIALFAPS-INATIVOS-GERAL-TEMPO-CONT-CAMARA                                                                                                                                                                                                                                                                                       N00000000000000000000                    0000X000000000   X
020250200287400000000000000002834310320250000000002600+                                                                                                                                                                     000000000000000000000000000000CONTRIB AO FAPS PARTE PATRONAL 1661 REF REMUNERACAO DE MARCO DE 2025 PASSIVO ATUARIALFAPS INATIVOS-GERAL-TEMPO-CONTR-CAMARA                                                                                                                                                                                                                                                                                     N00000000000000000000                    0000X000000000   X
020250200568200000000000000006439300620250000000002600+                                                                                                                                                                     000000000000000000000000000000CONTRIB AO FAPS PARTE PATRONAL 1661 REF REMUNERACAO DE JUNHO DE 2025 PASSIVO ATUARIALFAPS-INATIVOS-GERAL-TEMPCONT-CAMARA                                                                                                                                                                                                                                                                                        N00000000000000000000                    0000X000000000   X
020250200767300000000000000009035290820250000000002600+                                                                                                                                                                     000000000000000000000000000000CONTRIB AO FAPS PARTE PATRONAL 1661 REF REMUNERACAO DE AGOSTO DE 2025PASSIVO ATUARIALFAPS-INATIVOS-GERAL-TEMPOCONT-CAMARA                                                                                                                                                                                                                                                                                       N00000000000000000000                    0000X000000000   X
020250200518700000000000000006614030720250000000003000+                                                                                                                                                                     0000000000000000000000000000002 COPIAS DE CHAVES SENDO UMA DA PORTA DA CAMARA DE VEREADORES E OUTRA DA PORTA DE ENTRADA DA PREFEITURA MUNICIPAL PARA O ASSESSOR JURIDICO SR GETULIO IMMICH DA SILVA                                                                                                                                                                                                                                           N00000000000000000000                    0000S0000019801  X
020250200362800000000000000004338090520250000000003000+                                                                                                                                                                     0000000000000000000000000000002 COPIAS DE CHAVES SENDO UMA DA PORTA DA CAMARA DE VEREADORES E OUTRA DA PORTA DE ENTRADA DA PREFEITURA MUNICIPAL                                                                                                                                                                                                                                                                                               N00000000000000000000                    0000S0000018401  X
020250200399100000000000000004628190520250000000003000+                                                                                                                                                                     000000000000000000000000000000CONSERTO DA JARRA ELETRICA DA CAMARA DE VEREADORES                                                                                                                                                                                                                                                                                                                                                              N00000000000000000000                    0000S0000034091  X
020250200607000000000000000007549310720250000000003500+                                                                                                                                                                     000000000000000000000000000000CONSERTO DA BORRACHA E ALMOFADA DO CARIMBO 4927 UTILIZADO PARA MARCAR PARA QUAIS COMISSOES OS PROJETOS DE LEI SAO ENCAMINHADOS                                                                                                                                                                                                                                                                                  N00000000000000000000                    0000S0000055281  X
020250200322700000000000000004105050520250000000003650+                                                                                                                                                                     000000000000000000000000000000AQUISICAO 2 CANTONEIRAS 3 PUXADORES E 20 UNIDADES DE PARAFUSOS PARA FIXAR O CONJUNTO DAS GAVETAS DA MESA DA SECRETARIA                                                                                                                                                                                                                                                                                          N00000000000000000000                    0000S0000028451  X
020250200031900000000000000000760040220250000000004500+                                                                                                                                                                     000000000000000000000000000000COMUNICADOS NA RADIO COMUNITARIA DE INDEPENDENCIA REFERENTE AO FALECIMENTO DO EX-VEREADOR E EX-PRESIDENTE DA CAMARA ANTONIO AVELINO FERREIRA CONF RD 219/2025DESPESA SEM EMPENHO PREVIO                                                                                                                                                                                                                         N00000000000000000000                    0000S0000010041  X
020250200219200000000000000002310240320250000000004600+                                                                                                                                                                     000000000000000000000000000000COMPRA DE UM QUADRO PARA CERTIFICADO 21X30CM NO QUAL IRA O DOCUMENTO QUE HOMENAGEIA A APAE PELOS 30 ANOS DE ATUACAO EM INDEPENDENCIA/RS ESSE QUADRO SERA ENTREGUE NA 6 SESSAO ORDINARIA DE 2025 QUE OCORRERA DIA 17/03/2025 AS 19H                                                                                                                                                                              N00000000000000000000                    0000S0000014631  X
020250200614300000000000000007888060820250000000004623+                                                                                                                                                                     000000000000000000000000000000FILTRO DE CAFE COMPATIVEL COM A CAFETEIRA OSTER FLAVOR 4401RD UTILIZADA NA CAMARA DE VEREADORES                                                                                                                                                                                                                                                                                                                 N00000000000000000000                    0000S0000000051  X
020250200122700000000000000000881060220250000000005000+                                                                                                                                                                     000000000000000000000000000000CILINDRO DE UMA GAVETA DO SETOR ADMINISTRATIVO DA CAMARA                                                                                                                                                                                                                                                                                                                                                        N00000000000000000000                    0000S0000015881  X
020250200228900000000000000002405260320250000000006000+                                                                                                                                                                     0000000000000000000000000000004 COPIAS DE CHAVES PARA AS SALAS DA CAMARA DE VEREADORES                                                                                                                                                                                                                                                                                                                                                        N00000000000000000000                    0000S0000017211  X
020250200271700000000000000003306140420250000000007000+                                                                                                                                                                     000000000000000000000000000000EXAME ADMISSIONAL PARA A ASSESSORA LEGISLATIVA DIENIFER EDUARDA SOARES DOS SANTOS           PROCESSO DE LICITACAO 134/2025 PREGAO ELETRONICO 09/2025 SRP 07/2025                                                                                                                                                                                                                                                N00000000000000000000                    0000S0001677530  X
020250200660900000000000000007937070820250000000007500+                                                                                                                                                                     000000000000000000000000000000SERVICO DE CABEAMENTO EM REDE DA IMPRESSORA BM5100FDW POSSIBILITANDO A CONEXAO VIA ETHERNET DE MODO QUE A IMPRESSORA POSSA SER COMPARTILHADA NA REDE E ACESSADA POR MULTIPLOS DISPOSITIVOS                                                                                                                                                                                                                      N00000000000000000000                    0000S0000003221  X
020250200059800000000000000001323240220250000000007500+                                                                                                                                                                     000000000000000000000000000000EXAME ADMISSIONAL PARA A ASSESSORA JURIDICA DA CAMARA DE VEREADORESPROCESSO 53/2023 SRP                                                                                                                                                                                                                                                                                                                         N00000000000000000000                    0000S0001573340  X
020250200062900000000000000001095130220250000000009500+                                                                                                                                                                     000000000000000000000000000000DESLOCAMENTO E MAO DE OBRA PARA AVALIACAO DE AR-CONDICIONADO DO PLENARIO DA CAMARA DE VEREADORES QUE TINHA APRESENTADO PROBLEMAS                                                                                                                                                                                                                                                                                N00000000000000000000                    0000S0000032621  X
020250200063100000000000000000863060220250000000009900+                                                                                                                                                                     000000000000000000000000000000LAVAGEM E SECAGEM DE 08 BANDEIRAS DA CAMARA DE VEREADORES POIS AS MESMAS ENCONTRAM-SE SUJAS MOFADAS E MANCHADAS EM RAZAO DO AMBIENTE UMIDO                                                                                                                                                                                                                                                                      N00000000000000000000                    0000S0000000040  X
020250200139900000000000000001319240220250000000009980+                                                                                                                                                                     0000000000000000000000000000002 UNIDADES DE TONER PARA IMPRESSORA LASER JET M1132 MFP PARA MANUTENCAO DAS ATIVIDADES DE APOIO A CAMARA                                                                                                                                                                                                                                                                                                        N00000000000000000000                    0000S0000069081  X
020250200399200000000000000004625190520250000000010500+                                                                                                                                                                     00000000000000000000000000000002 CAIXAS DE ARQUIVO MORTO PARA MANUTENCAO DOS TRABALHOS DA CAMARA DE VEREADORESPROCESSO N 08/2025  DISPENSA N 08/2025                                                                                                                                                                                                                                                                                          N00000000000000000000                    0000S0000147631  X
020250200129500000000000000000935100220250000000011990+                                                                                                                                                                     000000000000000000000000000000SINAL DE INTERNET A CAMARA NO MES DE JANEIRO DE 2025  NF-e N 73366         DESPESA SEM EMPENHO PREVIO                                                                                                                                                                                                                                                                                                           N00000000000000000000                    0000S0000733660  X
020250200295200000000000000002942020420250000000011990+                                                                                                                                                                     000000000000000000000000000000SINAL DE INTERNET A CAMARA NO MES DE MARCO DE 2025           DESPESA SEM EMPENHO PREVIO NOTA FISCAL N 85409                                                                                                                                                                                                                                                                                                     N00000000000000000000                    0000S0000854090  X
020250200189800000000000000001914050320250000000011990+                                                                                                                                                                     000000000000000000000000000000SINAL DE INTERNET A CAMARA NO MES DE FEVEREIRO DE 2025           DESPESA SEM EMPENHO PREVIO                                                                                                                                                                                                                                                                                                                     N00000000000000000000                    0000S0000793510  X
020250200242800000000000000003115070420250000000012400+                                                                                                                                                                     00000000000000000000000000000002 CARIMBOS ENTINTADOS 4912 UM PARA O ARQUIVO DE DOCUMENTOS E OUTRO PARA O DIRETOR GERAL                                                                                                                                                                                                                                                                                                                        N00000000000000000000                    0000S0000043751  X
020250200331300000000000000004813260520250000000012490+                                                                                                                                                                     000000000000000000000000000000MATERIAIS DE ESCRITORIO E EXPEDIENTE PARA MANUTENCAO DAS ATIVIDADES DE APOIO A CAMARA DE VEREADORESPROCESSO N 07/2025   DISPENSA N 07/2025                                                                                                                                                                                                                                                                      N00000000000000000000                    0000S0000001081  X
020250200676900000000000000007886060820250000000012900+                                                                                                                                                                     000000000000000000000000000000CONFIGURACAO INICIAL E EM REDE DO NOTEBOOK DE PATRIMONIO N 6955 O APARELHO FOI FORMATADO PARA GARANTIR SEU PLENO FUNCIONAMENTO E ATENDER AS NECESSIDADES DA NOVA ASSESSORA LEGISLATIVA RAZAO PELA QUAL FOI NECESSARIO CONFIGURA-LO                                                                                                                                                                              N00000000000000000000                    0000S0000003231  X
020250200123800000000000000001321240220250000000013000+                                                                                                                                                                     00000000000000000000000000000002 UN CARIMBOS AUTO ENTINTADO 4912 SENDO OS SEGUINTES 1 UNIDADE - CARIMBO PRESIDENTE EM TINTA PRETA E 1 UNIDADE - CARIMBO  NEGADO EM TINTA VERMELHA PARA AS ATIVIDADES DE APOIO A CAMARA                                                                                                                                                                                                                        N00000000000000000000                    0000S0000006160  X
020250200522900000000000000005947250620250000000013135+                                                                                                                                                                     000000000000000000000000000000REFERENTE A REMUNERACAO DO MES DE JUNHO DE 2025CAMARA - ESTATUTARIOSINSALUBRIDADE                                                                                                                                                                                                                                                                                                                               N00000000000000000000                    0000X000000000   X
020250200429900000000000000005148290520250000000013800+                                                                                                                                                                     000000000000000000000000000000QUADROS PARA CERTIFICADO 21X30CM PARA EMOLDURAR HOMENAGENS AS ESCOLAS AMELIO FAGUNDES E GETULIO VARGAS QUE SERA REALIZADA NA SESSAO DO DIA 02/06/2025                                                                                                                                                                                                                                                           N00000000000000000000                    0000S0000015121  X
020250200614400000000000000008354180820250000000014000+                                                                                                                                                                     00000000000000000000000000000002 ATESTADOS DE SAUDE OCUPACIONAL SENDO UM EXAME DEMISSIONAL PARA DIENIFER EDUARDA SOARES DOS SANTOS E UM EXAME ADMISSIONAL PARA CAMILA LIMA DE QUADRA  PROCESSO DE LICITACAO 134/2025 PREGAO ELETRONICO 09/2025 SRP 07/2025                                                                                                                                                                                    N00000000000000000000                    0000S0001896340  X
020250200308500000000000000004336090520250000000014000+                                                                                                                                                                     00000000000000000000000000000002 ATESTADOS DE SAUDE OCUPACIONAL SENDO UM EXAME DEMISSIONAL PARA SANDRA MARIAMARTINI MARASCA E UM EXAME ADMISSIONAL PARA GETULIO JUVENIL IMMICH DA SILVAPROCESSO DE LICITACAO 134/2025 PREGAO ELETRONICO 09/2025 SRP 07/2025                                                                                                                                                                                   N00000000000000000000                    0000S0001733500  X
020250200419300000000000000004820260520250000000015000+                                                                                                                                                                     000000000000000000000000000000LIMPEZA E CONSERTO DA IMPRESSORA LASER HP PATRIMONIO N 005638 PARA MANUTENCAO DAS ATIVIDADES DE APOIO A CAMARA                                                                                                                                                                                                                                                                                                  N00000000000000000000                    0000S0000003131  X
020250200385900000000000000004339090520250000000015000+                                                                                                                                                                     000000000000000000000000000000LIMPEZA E CONSERTO PARA MANUTENCAO DA IMPRESSORA EPSON PATRIMONIO N 007654 - REALIZADO LIMPEZA DE ALMOFADAS                                                                                                                                                                                                                                                                                                     N00000000000000000000                    0000S0000003081  X
020250200013300000000000000001322240220250000000015000+                                                                                                                                                                     0000000000000000000000000000002 EXAMES ADMISSIONAIS PARA O DIRETOR GERAL E PARA A ASSESSORA DE BANCADA                                                                                                                                                                                                                                                                                                                                        N00000000000000000000                    0000S0001573330  X
020250200518500000000000000007548310720250000000015750+                                                                                                                                                                     00000000000000000000000000000003 CAIXAS DE ARQUIVO MORTO PARA MANUTENCAO DOS TRABALHOS DA CAMARA DE VEREADORESPROCESSO N 10/2025  DISPENSA N 10/2025                                                                                                                                                                                                                                                                                          N00000000000000000000                    0000S0000151681  X
020250200024800000000000000000761040220250000000016000+                                                                                                                                                                     000000000000000000000000000000DOACAO DE UMA COROA DE FLOR CONFORME FOTO EM ANEXO PARA O VELORIO DO EX-VEREADOR E EX-PRESIDENTE DA CAMARA ANTONIO AVELINO FERREIRA CONF RD 138/2025DESPESA SEM EMPENHO PREVIO                                                                                                                                                                                                                                  N00000000000000000000                    0000S0000002911  X
020250200703500000000000000008409220820250000000017000+                                                                                                                                                                     000000000000000000000000000000CHALEIRA ELETRICA 18 LITROS PARA A COZINHA DA CAMARA DE VEREADORESPROCESSO N 15/2025 DISPENSA N 15/2025TRANSPOSTO DA NE 7023 PARA AJUSTE DA DOTACAO ORCAMENTARIA                                                                                                                                                                                                                                                N00000000000000000000                    0000S00000264615 X
020250200133300000000000000001093130220250000000018600+                                                                                                                                                                     000000000000000000000000000000VIDROS PARA A PORTA DE ENTRADA DA CAMARA E PARA A JANELA DA SALA DA PRESIDENCIA                                                                                                                                                                                                                                                                                                                                 N00000000000000000000                    0000S0000014451  X
020250200364000000000000000004337090520250000000022500+                                                                                                                                                                     000000000000000000000000000000AQUISICAO DE FECHADURA TUBULAR PARA A PORTA DA SALA DA PRESIDENCIA                                                                                                                                                                                                                                                                                                                                              N00000000000000000000                    0000S0000018391  X
020250200300600000000000000003100070420250000000023505+                                                                                                                                                                     000000000000000000000000000000RESSARCIMENTO DE PASSAGEM DE ONIBUS DE SANTA ROSA A PORTO ALEGRE PARA PARTICIPAR DO CURSO 3025/0804  OFICINA PRATICA CONTRATACOES DIRETAS  DISPENSA E INEXIGIBILIDADE - ALTERACOES PROCEDIMENTOS E ASPECTOS PRATICOS COM SIMULACAO DE CONTRATACAO E ELABORACAO DE DOCUMENTOS DURANTE O CURSO ENTREGA DE MODELOS MODULO ESPECIFICO - OFICINA NOVA LEI DE LICITACOES FOCO DISPENSA E INEXIGIBILIDADE A SE REALIZARN00000000000000000000                    0000X000000000   X
020250200430100000000000000004840280520250000000024647+                                                                                                                                                                     000000000000000000000000000000REFERENTE A REMUNERACAO DO MES DE MAIO DE 2025CAMARA - ESTATUTARIOSANUENIOS                                                                                                                                                                                                                                                                                                                                     N00000000000000000000                    0000X000000000   X
020250200490300000000000000005640110620250000000025000+                                                                                                                                                                     000000000000000000000000000000CONSERTO DO AR-CONDICIONADO LOCALIZADO NA SALA DA SECRETARIA PARA A TROCA DO SEU CAPACITOR CFE RD 1843/2025                                                                                                                                                                                                                                                                                                     N00000000000000000000                    0000S0000034501  X
020250200482500000000000000005567090620250000000026000+                                                                                                                                                                     000000000000000000000000000000RECARGA DE EXTINTORES PARA MANUTENCAO DA CAMARA DE VEREADORESPROCESSO N 09/2025  DISPENSA N 09/2025                                                                                                                                                                                                                                                                                                             N00000000000000000000                    0000S000000260000X
020250200013100000000000000000172270120250000000027000+                                                                                                                                                                     0000000000000000000000000000006 COPIAS DE CHAVE DA PORTA DE ENTRADA PRINCIPAL DO PALACIO DA PREFEITURA MUNICIPAL DE INDEPENDENCIA E ADQUIRIDO TAMBEM UM NOVO CILINDRO DA PORTA DE ENTRADA DA CAMARA DE VEREADORES ESTE CILINDRO VEM ACOMPANHADO DE DUAS CHAVES E FORAM FEITAS MAIS 4 COPIAS DESTA CHAVE LOGO FORAM ADQUIRIDAS 10 CHAVES NO TOTAL ADQUIRIDO TAMBEM UMA NOVA FECHADURA PARA A GAVETA DA BANCADA DOS VEREADORES                  N00000000000000000000                    0000S0000015241  X
020250200065400000000000000000223280120250000000028330+                                                                                                                                                                     000000000000000000000000000000REFERENTE A REMUNERACAO DO MES DE JANEIRO DE 2025CAMARA - ESTATUTARIOSANUENIOS                                                                                                                                                                                                                                                                                                                                  N00000000000000000000                    0000X000000000   X
020250200040100000000000000000759040220250000000028410+                                                                                                                                                                     000000000000000000000000000000AQUISICAO DE MATERIAIS DE EXPEDIENTE PARA USO DIARIO DA CAMARA DE VEREADORES CONF RD 294/2025                                                                                                                                                                                                                                                                                                                   N00000000000000000000                    0000S0000003141  X
020250200522600000000000000005944250620250000000028802+                                                                                                                                                                     000000000000000000000000000000REFERENTE A REMUNERACAO DO MES DE JUNHO DE 2025CAMARA - ESTATUTARIOSANUENIOS                                                                                                                                                                                                                                                                                                                                    N00000000000000000000                    0000X000000000   X
020250200063000000000000000000864060220250000000029100+                                                                                                                                                                     000000000000000000000000000000LAVAGEM DE 26 CORTINAS DA CAMARA DE VEREADORES POIS AS MESMAS ENCONTRAM-SE MOFADAS E MANCHADAS EM RAZAO DO GRANDE PERIODO DE TEMPO DESDE A ULTIMA LAVAGEM E DO AMBIENTE UMIDO                                                                                                                                                                                                                                   N00000000000000000000                    0000S000000002000X
020250200013200000000000000000054100120250000000029400+                                                                                                                                                                     000000000000000000000000000000CERTIFICADO DIGITAL TIPO E-CPF A3 COM TOKEN COM VALIDADE PARA 1 ANO                                                                                                                                                                                                                                                                                                                                             N00000000000000000000                    0000S0000119470  X
020250200244900000000000000002408270320250000000031163+                                                                                                                                                                     000000000000000000000000000000REFERENTE A REMUNERACAO DO MES DE MARCO DE 2025CAMARA - ESTATUTARIOS ANUENIOS                                                                                                                                                                                                                                                                                                                                   N00000000000000000000                    0000X000000000   X
020250200159900000000000000001369260220250000000031163+                                                                                                                                                                     000000000000000000000000000000REFERENTE A REMUNERACAO DO MES DE FEVEREIRO DE 2025CAMARA - ESTATUTARIOSANUENIOS                                                                                                                                                                                                                                                                                                                                N00000000000000000000                    0000X000000000   X
020250200334100000000000000003631280420250000000031163+                                                                                                                                                                     000000000000000000000000000000REFERENTE A REMUNERACAO DO MES DE ABRIL DE 2025CAMARA - ESTATUTARIOSANUENIOS                                                                                                                                                                                                                                                                                                                                    N00000000000000000000                    0000X000000000   X
020250200624400000000000000007241250720250000000033996+                                                                                                                                                                     000000000000000000000000000000REFERENTE A REMUNERACAO DO MES DE JULHO DE 2025CAMARA - ESTATUTARIOSANUENIOS                                                                                                                                                                                                                                                                                                                                    N00000000000000000000                    0000X000000000   X
020250200059600000000000000000762040220250000000037000+                                                                                                                                                                     000000000000000000000000000000PLACA EM ACO ESCOVADO E ADESIVADO E ESTOJO CAMURCA QUE SERAO ENTREGUES EM HOMENAGEM A EMPRESA ROMAN F MANN   CIA LTDA EM SESSAO SOLENE QUE OCORRERA DIA 04/02/2025                                                                                                                                                                                                                                              N00000000000000000000                    0000S058914306890X
020250200518600000000000000006613030720250000000037500+                                                                                                                                                                     000000000000000000000000000000AUTOTRANSFORMADOR PARA A IMPRESSORA DA CAMARA DE VEREADORESPROCESSO N 11/2025   DISPENSA N 11/2025    PATRIM N                                                                                                                                                                                                                                                                                                  N00000000000000000000                    0000S0001594621  X
020250200716600000000000000008523260820250000000037538+                                                                                                                                                                     000000000000000000000000000000REFERENTE A REMUNERACAO DO MES DE AGOSTO DE 2025CAMARA - ESTATUTARIOSANUENIOS                                                                                                                                                                                                                                                                                                                                   N00000000000000000000                    0000X000000000   X
020250200590000000000000000007547310720250000000037950+                                                                                                                                                                     000000000000000000000000000000MATERIAIS DE EXPEDIENTE E DE ESCRITORIO PARA MANUTENCAO DAS ATIVIDADES DE APOIO A CAMARA DE VEREADORESPROCESSO N 12/2025   DISPENSA N 12/2025                                                                                                                                                                                                                                                                   N00000000000000000000                    0000S0000151691  X
020250200012700000000000000002061120320250000000002093+                                                                                                                                                                     000000000000000000000000000000LIGACOES TELEFONICAS REALIZADAS ATRAVES DA LINHA 553539-1295 DA CAMARA DE VEREADORESFATURA N REF MES                                                                                                                                                                                                                                                                                                            N00000000000000000000                    0000S028552176U  X
020250200012700000000000000000887060220250000000018149+                                                                                                                                                                     000000000000000000000000000000LIGACOES TELEFONICAS REALIZADAS ATRAVES DA LINHA 553539-1295 DA CAMARA DE VEREADORESFATURA N REF MES                                                                                                                                                                                                                                                                                                            N00000000000000000000                    0000S028505392U  X
020250200012700000000000000000034090120250000000017783+                                                                                                                                                                     000000000000000000000000000000LIGACOES TELEFONICAS REALIZADAS ATRAVES DA LINHA 553539-1295 DA CAMARA DE VEREADORESFATURA N REF MES                                                                                                                                                                                                                                                                                                            N00000000000000000000                    0000S028456166U  X
020250200363900000000000000005600090620250000000002445+                                                                                                                                                                     000000000000000000000000000000SERVICOS DE TELEFONIA FIXA PARA MANUTENCAO DA CAMARA DE VEREADORESCONTRATO N01/2025 VIGENCIA 12 MESES A CONTAR DE 29042025PROCESSO N 03/2025  DISPENSA N 03/2025     VALOR MENSAL R 4890                                                                                                                                                                                                                        S0000000000000000000142                  2025S0002208781  C
020250200363900000000000000006760070720250000000004890+                                                                                                                                                                     000000000000000000000000000000SERVICOS DE TELEFONIA FIXA PARA MANUTENCAO DA CAMARA DE VEREADORESCONTRATO N01/2025 VIGENCIA 12 MESES A CONTAR DE 29042025PROCESSO N 03/2025  DISPENSA N 03/2025     VALOR MENSAL R 4890                                                                                                                                                                                                                        S0000000000000000000142                  2025S0002269551  C
020250200363900000000000000007891060820250000000004890+                                                                                                                                                                     000000000000000000000000000000SERVICOS DE TELEFONIA FIXA PARA MANUTENCAO DA CAMARA DE VEREADORESCONTRATO N01/2025 VIGENCIA 12 MESES A CONTAR DE 29042025PROCESSO N 03/2025  DISPENSA N 03/2025     VALOR MENSAL R 4890                                                                                                                                                                                                                        S0000000000000000000142                  2025S0002330331  C
020250200139700000000000000001143140220250000000047000+                                                                                                                                                                     000000000000000000000000000000INSTALACAO DO AR-CONDICIONADO DE 9000 BTUS NA SALA DA PRESIDENCIA DA CAMARA DE VEREADORES                                                                                                                                                                                                                                                                                                                       N00000000000000000000                    0000S0000032701  X
020250200139800000000000000001320240220250000000048400+                                                                                                                                                                     000000000000000000000000000000TINTAS PARA A IMPRESSORA EPSON L3150 DA SALA DA SECRETARIA DA CAMARA DE VEREADORES                                                                                                                                                                                                                                                                                                                              N00000000000000000000                    0000S0000319641  X
020250200522700000000000000005945250620250000000052411+                                                                                                                                                                     000000000000000000000000000000REFERENTE A REMUNERACAO DO MES DE JUNHO DE 2025CAMARA - ESTATUTARIOSAUXILIO DOENCA                                                                                                                                                                                                                                                                                                                              N00000000000000000000                    0000X000000000   X
020250200300500000000000000003098070420250000000053873+                                                                                                                                                                     000000000000000000000000000000RESSARCIMENTO DE PASSAGENS DE ONIBUS DE SANTA ROSA A PORTO ALEGRE IDA E VOLTA PARA PARTICIPAR DO CURSO 3025/0804  OFICINA PRATICA CONTRATACOES DIRETAS  DISPENSA E INEXIGIBILIDADE - ALTERACOES PROCEDIMENTOS E ASPECTOS PRATICOS COM SIMULACAO DE CONTRATACAO E ELABORACAO DE DOCUMENTOS DURANTE O CURSO ENTREGA DE MODELOS MODULO ESPECIFICO - OFICINA NOVA LEI DE LICITACOES FOCO DISPENSA E INEXIGIBILIDADE N00000000000000000000                    0000X000000000   X
020250200013400000000000000000173270120250000000055000+                                                                                                                                                                     000000000000000000000000000000CONSERTO DE 5 CADEIRAS DE ESCRITORIO TROCAR ACENTO CONSERTO DO ENCOSTO E AJUSTE DE ALTURA CONSERTO DE RODINHAS                                                                                                                                                                                                                                                                                                  N00000000000000000000                    0000S0000000270  X
020250200212500000000000000001988070320250000000058468+                                                                                                                                                                     000000000000000000000000000000INDENIZACAO DAS DESPESAS COM PASSAGENS DE ONIBUS TRES DE MAIO - PORTO ALEGRE IDA E VOLTA PARA PARTICIPAR DO CURSO 5025/1103  CURSO AVANCADO DE REDACAO OFICIAL REDACAO DE LEIS PROCESSO E COMPETENCIA LEGISLATIVA A SE REALIZAR NOS DIAS 11 12 13 E 14 DE MARCO DE 2025 NA INSTITUICAO INLEGIS EM PORTO ALEGRE/RS                                                                                               N00000000000000000000                    0000N000000000   X
020250200458000000000000000005120280520250000000060640+                                                                                                                                                                     000000000000000000000000000000RESSARCIMENTO DE PASSAGEM DE ONIBUS DE TRES DE MAIO A PORTO ALEGRE IDA E VOLTA PARA PARTICIPAR DO CURSO 1025/0306  GESTOR E FISCAL DE CONTRATO  DESIGNACAO ATRIBUICOES E RESPONSABILIDADE MODULO ESTENDIDO A REALIZAR-SE NOS DIAS 03 04 05 E 06 DE JUNHO DE 2025 NA INSTITUICAO INLEGIS EM PORTO ALEGRE/RS                                                                                                      N00000000000000000000                    0000N000000000   X
020250200208400000000000000002082120320250000000061000+                                                                                                                                                                     000000000000000000000000000000MAO DE OBRA PARA INSTALACAO DE LAMPADAS TOMADAS FIXAR EXTENSAO E CANALETAS JUNTO AO PLENARIO                                                                                                                                                                                                                                                                                                                    N00000000000000000000                    0000S000000007000X
020250200651200000000000000008436250820250000000061500+                                                                                                                                                                     000000000000000000000000000000SUPRIMENTO DE INFORMATICA SWITCH 16 PORTAS PARA MELHOR DISTRIBUICAO DO SINAL DE INTERNET JUNTO A CAMARA DE VEREADORESPROCESSO N 14/2025  DISPENSA N 14/2025           PATRIM N                                                                                                                                                                                                                                  N00000000000000000000                    0000S0000003133  X
020250200656700000000000000008186130820250000000063000+                                                                                                                                                                     00000000000000000000000000000002 UN DE PLACAS EM ACO ESCOVADO ADESIVADA C/ESTOJO EM CAMURCA AS QUAIS SERAO ENTREGUES EM HOMENAGENS REALIZADAS PELA CAMARA DE VEREADORES                                                                                                                                                                                                                                                                       N00000000000000000000                    0000S062101823890X
020250200334300000000000000003633280420250000000065675+                                                                                                                                                                     000000000000000000000000000000REFERENTE A REMUNERACAO DO MES DE ABRIL DE 2025CAMARA - ESTATUTARIOSINSALUBRIDADE                                                                                                                                                                                                                                                                                                                               N00000000000000000000                    0000X000000000   X
020250200624600000000000000007243250720250000000065675+                                                                                                                                                                     000000000000000000000000000000REFERENTE A REMUNERACAO DO MES DE JULHO DE 2025CAMARA - ESTATUTARIOSINSALUBRIDADE                                                                                                                                                                                                                                                                                                                               N00000000000000000000                    0000X000000000   X
020250200245100000000000000002410270320250000000065675+                                                                                                                                                                     000000000000000000000000000000REFERENTE A REMUNERACAO DO MES DE MARCO DE 2025CAMARA - ESTATUTARIOS INSALUBRIDADE                                                                                                                                                                                                                                                                                                                              N00000000000000000000                    0000X000000000   X
020250200065600000000000000000225280120250000000065675+                                                                                                                                                                     000000000000000000000000000000REFERENTE A REMUNERACAO DO MES DE JANEIRO DE 2025CAMARA - ESTATUTARIOSINSALUBRIDADE                                                                                                                                                                                                                                                                                                                             N00000000000000000000                    0000X000000000   X
020250200160100000000000000001371260220250000000065675+                                                                                                                                                                     000000000000000000000000000000REFERENTE A REMUNERACAO DO MES DE FEVEREIRO DE 2025CAMARA - ESTATUTARIOSINSALUBRIDADE                                                                                                                                                                                                                                                                                                                           N00000000000000000000                    0000X000000000   X
020250200430400000000000000004843280520250000000065675+                                                                                                                                                                     000000000000000000000000000000REFERENTE A REMUNERACAO DO MES DE MAIO DE 2025CAMARA - ESTATUTARIOSINSALUBRIDADE                                                                                                                                                                                                                                                                                                                                N00000000000000000000                    0000X000000000   X
020250200716800000000000000008525260820250000000065675+                                                                                                                                                                     000000000000000000000000000000REFERENTE A REMUNERACAO DO MES DE AGOSTO DE 2025CAMARA - ESTATUTARIOSINSALUBRIDADE                                                                                                                                                                                                                                                                                                                              N00000000000000000000                    0000X000000000   X
020250200156500000000000000001918050320250000000070320+                                                                                                                                                                     000000000000000000000000000000MATERIAIS ELETRICOS PARA MANUTENCAO DOS ESPACOS DA CAMARA PROPORCIONANDO MAIS LUZ NO PLENARIO E TOMADAS NOS LOCAIS NECESSARIOS                                                                                                                                                                                                                                                                                  N00000000000000000000                    0000S0000027821  X
020250200312400000000000000003233100420250000000081054+                                                                                                                                                                     000000000000000000000000000000150 DIARIAS A PORTO ALEGRE NOS DIAS 21 E 25042025 PARA PARTICIPAR DA XXIV MARCHA DOS GESTORES E LEGISLATIVOS MUNICIPAIS DE 22 A 25 DE ABRIL DE 2025 EVENTO ORGANIZADO PELA UVB  UNIAO DOS VEREADORES DO BRASIL QUE ACONTECERA EM BRASILIA-DF                                                                                                                                                                    N00000000000000000000                    0000X000000000   X
020250200312600000000000000003235100420250000000081054+                                                                                                                                                                     000000000000000000000000000000150 DIARIAS A PORTO ALEGRE NOS DIAS 21 E 25042025 PARA PARTICIPAR DA XXIV MARCHA DOS GESTORES E LEGISLATIVOS MUNICIPAIS DE 22 A 25 DE ABRIL DE 2025 EVENTO ORGANIZADO PELA UVB  UNIAO DOS VEREADORES DO BRASIL QUE ACONTECERA EM BRASILIA-DF                                                                                                                                                                    N00000000000000000000                    0000X000000000   X
020250200312700000000000000003236100420250000000081054+                                                                                                                                                                     000000000000000000000000000000150 DIARIAS A PORTO ALEGRE NOS DIAS 21 E 25042025 PARA PARTICIPAR DA XXIV MARCHA DOS GESTORES E LEGISLATIVOS MUNICIPAIS DE 22 A 25 DE ABRIL DE 2025 EVENTO ORGANIZADO PELA UVB  UNIAO DOS VEREADORES DO BRASIL QUE ACONTECERA EM BRASILIA-DF                                                                                                                                                                    N00000000000000000000                    0000X000000000   X
020250200314400000000000000003292110420250000000081054+                                                                                                                                                                     000000000000000000000000000000150 DIARIAS A PORTO ALEGRE NOS DIAS 21 E 25042025 PARA PARTICIPAR DA XXIV MARCHA DOS GESTORES E LEGISLATIVOS MUNICIPAIS DE 22 A 25 DE ABRIL DE 2025 EVENTO ORGANIZADO PELA UVB  UNIAO DOS VEREADORES DO BRASIL QUE ACONTECERA EM BRASILIA-DF                                                                                                                                                                    N00000000000000000000                    0000X000000000   X
020250200333900000000000000003629280420250000000082630+                                                                                                                                                                     000000000000000000000000000000REFERENTE A REMUNERACAO DO MES DE ABRIL DE 2025CAMARA - CCS13 SALARIO                                                                                                                                                                                                                                                                                                                                           N00000000000000000000                    0000X000000000   X
020250200101700000000000000000574310120250000000084345+                                                                                                                                                                     000000000000000000000000000000CONTRIB PATRONAL AO INSS REF REMUNERACAO DO MES DE JANEIRO DE 2025CAMARA - CCS                                                                                                                                                                                                                                                                                                                                  N00000000000000000000                    0000X000000000   X
020250200430200000000000000004841280520250000000094340+                                                                                                                                                                     000000000000000000000000000000REFERENTE A REMUNERACAO DO MES DE MAIO DE 2025CAMARA - ESTATUTARIOSAUXILIO DOENCA                                                                                                                                                                                                                                                                                                                               N00000000000000000000                    0000X000000000   X
020250200018700000000000000000171270120250000000099950+                                                                                                                                                                     000000000000000000000000000000MATERIAL DE EXPEDIENTE PARA MANUTENCAO DOS TRABALHOS DA CAMARA DE VEREADORES - FOLHA DE OFICIO A4 PROCESSO DE LICITACAO N489/2023 PREGAO ELETRONICO N38/2023 SRP N49/2023                                                                                                                                                                                                                                       N00000000000000000000                    0000S0000162320  X
020250200031800000000000000001094130220250000000025600+                                                                                                                                                                     000000000000000000000000000000SERVICOS DE DIVULGACAO DE PUBLICACOES EVENTUAIS PARA A CAMARA DE VEREADORES TAIS COMO EDITAIS NOTAS DE ESCLARECIMENTO NOTAS DE PESAR E NOTAS DE APOIO E TAMBEM PUBLICACOES EVENTUAIS PARA DATAS COMEMORATIVAS COMO PASCOA NATAL ANIVERSARIO DO MUNICIPIO FEIRAS DENTRE OUTROS CONF RD 218/2025                                                                                                                  N00000000000000000000                    0000S0000106911  X
020250200624200000000000000007239250720250000000100873+                                                                                                                                                                     000000000000000000000000000000REFERENTE A REMUNERACAO DO MES DE JULHO DE 2025CAMARA - CCS13 SALARIO                                                                                                                                                                                                                                                                                                                                           N00000000000000000000                    0000X000000000   X
020250200363800000000000000005599090620250000000011990+                                                                                                                                                                     000000000000000000000000000000SERVICOS DE INTERNET 800MB PARA MANUTENCAO DA CAMARA DE VEREADORESCONTRATO N01/2025 VIGENCIA 12 MESES A CONTAR DE 29042025PROCESSO N 03/2025  DISPENSA N 03/2025     VALOR MENSAL R 11990                                                                                                                                                                                                                       S0000000000000000000142                  2025S0000976930  C
020250200363800000000000000006761070720250000000011990+                                                                                                                                                                     000000000000000000000000000000SERVICOS DE INTERNET 800MB PARA MANUTENCAO DA CAMARA DE VEREADORESCONTRATO N01/2025 VIGENCIA 12 MESES A CONTAR DE 29042025PROCESSO N 03/2025  DISPENSA N 03/2025     VALOR MENSAL R 11990                                                                                                                                                                                                                       S0000000000000000000142                  2025S0001039090  C
020250200363800000000000000007890060820250000000011990+                                                                                                                                                                     000000000000000000000000000000SERVICOS DE INTERNET 800MB PARA MANUTENCAO DA CAMARA DE VEREADORESCONTRATO N01/2025 VIGENCIA 12 MESES A CONTAR DE 29042025PROCESSO N 03/2025  DISPENSA N 03/2025     VALOR MENSAL R 11990                                                                                                                                                                                                                       S0000000000000000000142                  2025S0001101100  C
020250200363800000000000000004334090520250000000011990+                                                                                                                                                                     000000000000000000000000000000SERVICOS DE INTERNET 800MB PARA MANUTENCAO DA CAMARA DE VEREADORESCONTRATO N01/2025 VIGENCIA 12 MESES A CONTAR DE 29042025PROCESSO N 03/2025  DISPENSA N 03/2025     VALOR MENSAL R 11990                                                                                                                                                                                                                       S0000000000000000000142                  2025S0000915240  C
020250200031700000000000000002083120320250000000058000+                                                                                                                                                                     000000000000000000000000000000SERVICOS DE DIVULGACAO DE NOTICIAS REFERENTES A CAMARA DE VEREADORES EM FORMA DE COLUNA EM ESPACO QUINZENAL PARA O MAIOR CONHECIMENTO DO PUBLICO DAS ATIVIDADES LEGISLATIVAS CONF RD 215/2025                                                                                                                                                                                                                   N00000000000000000000                    0000S0000107941  X
020250200031700000000000000002945030420250000000058000+                                                                                                                                                                     000000000000000000000000000000SERVICOS DE DIVULGACAO DE NOTICIAS REFERENTES A CAMARA DE VEREADORES EM FORMA DE COLUNA EM ESPACO QUINZENAL PARA O MAIOR CONHECIMENTO DO PUBLICO DAS ATIVIDADES LEGISLATIVAS CONF RD 215/2025                                                                                                                                                                                                                   N00000000000000000000                    0000S0000108221  X
020250200144800000000000000001155170220250000000119000+                                                                                                                                                                     00000000000000000000000000000001 TAXA DE INSCRICAO PARA O DIRETOR GERAL EDSOM MELLER PARA PARTICIPAR DO CURSO ORIENTACOES TECNICAS PARA O ASSESSORAMENTO E EXERCICIO DA VEREANCA DE FORMA EFICAZ  TOPICO ESPECIAL COMISSOES LEGISLATIVAS A SE REALIZAR NOS DIAS 25 26 27 E 28 DE FEVEREIRO DE 2025 NA INSTITUICAO INLEGIS EM PORTO ALEGRE/RS                                                                                                  N00000000000000000000                    0000N000000000   X
020250200065300000000000000000222280120250000000125769+                                                                                                                                                                     000000000000000000000000000000REFERENTE A REMUNERACAO DO MES DE JANEIRO DE 2025CAMARA - ESTATUTARIOSFERIAS                                                                                                                                                                                                                                                                                                                                    N00000000000000000000                    0000X000000000   X
020250200212400000000000000001987100320250000000129000+                                                                                                                                                                     00000000000000000000000000000001 TAXA DE INSCRICAO PARA A SERVIDORA YASMIN THAINA DE SA PARTICIPAR DO CURSO 5025/1103  CURSO AVANCADO DE REDACAO OFICIAL REDACAO DE LEIS PROCESSO E COMPETENCIA LEGISLATIVA QUE SERA REALIZADO  NOS DIAS 11 12 13 E 14 DE MARCO DE 2025 NA INSTITUICAO INLEGIS EM PORTO ALEGRE/RS                                                                                                                             N00000000000000000000                    0000N000000000   X
020250200417000000000000000004630190520250000000129000+                                                                                                                                                                     00000000000000000000000000000001 TAXA DE INSCRICAO DO DIRETOR GERAL EDSOM MELLER PARTICIPAR DO CURSO ORIENTACOES TECNICAS E CAUTELAS A SEREM ADOTADAS NOS PODERES LEGISLATIVOS E EXECUTIVOS  GESTAO E FISCALIZACAO PAGAMENTO DE 13 E TERCO DE FERIAS A AGENTES POLITICOS REVISAO GERAL ANUAL DIARIAS PRESTACAO DE CONTAS AO TRIBUNAL DE CONTAS LDO COMUNICACAO PUBLICA ESTRATEGICA E ETICA GESTAO DE PESSOAL  ADMISSOES COM DESTAQUE AOS CONCUN00000000000000000000                    0000X000000000   X
020250200660700000000000000007545310720250000000135090+                                                                                                                                                                     000000000000000000000000000000250 DIARIAS A PORTO ALEGRE NOS DIAS 30 E 31/07 E 01/08/2025 PARA VIAGEM A PORTO ALEGRE/RS COM O OBJETIVO DE CONDIZIR AS SOBERANAS DA 7 EXPOINDE  NAIARA ZALTRON BORGES ERIKA MENDONCA PEREIRA E MARIA HELENA WIMGHENBACH  EM VISITAS A ASSEMBLEIA LEGISLATIVA E AO GABINETE DO VICE-GOVERNADOR GABRIEL SOUZA VISANDO A DIVULGACAO DA EXPOINDE NA CAPITAL DO ESTADO                                              N00000000000000000000                    0000X000000000   X
020250200065200000000000000000221280120250000000137860+                                                                                                                                                                     000000000000000000000000000000REFERENTE A REMUNERACAO DO MES DE JANEIRO DE 2025CAMARA - CCS1/3 FERIAS INDENIZADAS                                                                                                                                                                                                                                                                                                                             N00000000000000000000                    0000X000000000   X
020250200458100000000000000005121280520250000000139000+                                                                                                                                                                     00000000000000000000000000000001 TAXA DE INSCRICAO PARA A SERVIDORA FERNANDA JESKE PARTICIPAR DO CURSO 1025/0306  GESTOR E FISCAL DE CONTRATO  DESIGNACAO ATRIBUICOES E RESPONSABILIDADE MODULO ESTENDIDO A SE REALIZAR NOS DIAS 03 04 05 E 06062025 EM PORTO ALEGRE/RS                                                                                                                                                                       N00000000000000000000                    0000N000000000   X
020250200113500000000000000000692310120250000000140518+                                                                                                                                                                     000000000000000000000000000000CONTRIB AO FAPS PARTE PATRONAL 16 REF REMUNERACAO DE JANEIRO DE 2025 CAMARA - ESTATUTARIOS                                                                                                                                                                                                                                                                                                                      N00000000000000000000                    0000X000000000   X
020250200287500000000000000002835310320250000000140971+                                                                                                                                                                     000000000000000000000000000000CONTRIB AO FAPS PARTE PATRONAL 1600 REF REMUNERACAO DE MARCO DE 2025 CAMARA - ESTATUTARIOS                                                                                                                                                                                                                                                                                                                      N00000000000000000000                    0000X000000000   X
020250200217100000000000000002050110320250000000140972+                                                                                                                                                                     000000000000000000000000000000CONTRIB AO FAPS PARTE PATRONAL 16 REF REMUNERACAO DE FEVEREIRO DE 2025 CAMARA - ESTATUTARIOS                                                                                                                                                                                                                                                                                                                    N00000000000000000000                    0000X000000000   X
020250200375400000000000000004050300420250000000140973+                                                                                                                                                                     000000000000000000000000000000CONTRIB AO FAPS PARTE PATRONAL 1600 REF REMUNERACAO DE ABRIL DE 2025 CAMARA - ESTATUTARIOS                                                                                                                                                                                                                                                                                                                      N00000000000000000000                    0000X000000000   X
020250200672300000000000000007734310720250000000141426+                                                                                                                                                                     000000000000000000000000000000CONTRIB AO FAPS PARTE PATRONAL 1600 REF REMUNERACAO DE JULHO DE 2025CAMARA - ESTATUTARIOS                                                                                                                                                                                                                                                                                                                       N00000000000000000000                    0000X000000000   X
020250200473200000000000000005283300520250000000141426+                                                                                                                                                                     000000000000000000000000000000CONTRIB AO FAPS PARTE PATRONAL 1600 REF REMUNERACAO DE MAIO DE 2025 CAMARA - ESTATUTARIOS                                                                                                                                                                                                                                                                                                                       N00000000000000000000                    0000X000000000   X
020250200568300000000000000006440300620250000000141426+                                                                                                                                                                     000000000000000000000000000000CONTRIB AO FAPS PARTE PATRONAL 1600 REF REMUNERACAO DE JUNHO DE 2025 CAMARA - ESTATUTARIOS                                                                                                                                                                                                                                                                                                                      N00000000000000000000                    0000X000000000   X
020250200113600000000000000000693310120250000000145875+                                                                                                                                                                     000000000000000000000000000000CONTRIB AO FAPS PARTE PATRONAL 24 REF REMUNERACAO DE JANEIRO DE 2025 PASSIVO ATUARIALCAMARA - ESTATUTARIOS                                                                                                                                                                                                                                                                                                      N00000000000000000000                    0000X000000000   X
020250200375500000000000000004051300420250000000146345+                                                                                                                                                                     000000000000000000000000000000CONTRIB AO FAPS PARTE PATRONAL 1661 REF REMUNERACAO DE ABRIL DE 2025 PASSIVO ATUARIALCAMARA - ESTATUTARIOS                                                                                                                                                                                                                                                                                                      N00000000000000000000                    0000X000000000   X
020250200217200000000000000002051110320250000000146346+                                                                                                                                                                     000000000000000000000000000000CONTRIB AO FAPS PARTE PATRONAL 1661 REF REMUNERACAO DE FEVEREIRO DE 2025 PASSIVO ATUARIALCAMARA - ESTATUTARIOS                                                                                                                                                                                                                                                                                                  N00000000000000000000                    0000X000000000   X
020250200287600000000000000002836310320250000000146347+                                                                                                                                                                     000000000000000000000000000000CONTRIB AO FAPS PARTE PATRONAL 1661 REF REMUNERACAO DE MARCO DE 2025 PASSIVO ATUARIALCAMARA - ESTATUTARIOS                                                                                                                                                                                                                                                                                                      N00000000000000000000                    0000X000000000   X
