12292535000162010120253108202509092025CAMARA DE VEREADORES DE INDEPENDENCIA-RS                                        
020250200331200000000000000774063120520250000000001530+                                                                                                                                                      000000021311010101000101000000021311010101000101CANTONEIRAS PARAFUSOS E GRAMPOS PARA FIXAR O CONJUNTO DAS GAVETAS DA MESA DA SECRETARIA                                                                                                                                                                                                                                                                                                                         00000000000000003975
020250200481800000000000000777718100620250000000002290+                                                                                                                                                      000000021311010101000101000000021311010101000101PORTA LAPIS PARA O USO DO PRESIDENTE DA CAMARA                                                                                                                                                                                                                                                                                                                                                                  00000000000000005277
020250200568100000000000000781318090720250000000002505+                                                                                                                                                      000000021311010101000101000000021311010101000101CONTRIB AO FAPS PARTE PATRONAL 1600 REF REMUNERACAO DE JUNHO DE 2025 FAPS-INATIVOS-GERAL-TEMPCONT-CAMARA                                                                                                                                                                                                                                                                                                        00000000000000006436
020250200147900000000000000764937200220250000000002505+                                                                                                                                                      000000021311010101000101000000021311010101000101CONTRIB AO FAPS PARTE PATRONAL 16 REF REMUNERACAO DE JANEIRO DE 2025 INATIVOS-GERAL-TEMPCONT-CAMARANE TRANSPOSTA DA NE 1117 AJUSTE CONTABIL                                                                                                                                                                                                                                                                     00000000000000000940
020250200375200000000000000774098130520250000000002505+                                                                                                                                                      000000021311010101000101000000021311010101000101CONTRIB AO FAPS PARTE PATRONAL 1600 REF REMUNERACAO DE ABRIL DE 2025 FAPS-INATIVOS-GERAL-TEMPCONT-CAMARA                                                                                                                                                                                                                                                                                                        00000000000000003991
020250200473000000000000000777942120620250000000002505+                                                                                                                                                      000000021311010101000101000000021311010101000101CONTRIB AO FAPS PARTE PATRONAL 1600 REF REMUNERACAO DE MAIO DE 2025 FAPS-INATIVOS-GERAL-TEMPO-CONT-CAMARA                                                                                                                                                                                                                                                                                                       00000000000000005372
020250200203100000000000000767456140320250000000002505+                                                                                                                                                      000000021311010101000101000000021311010101000101CONTRIB AO FAPS PARTE PATRONAL 16 REF REMUNERACAO DE FEVEREIRO DE 2025 INATIVOS-GERAL-TEMPCONT-CAMARA                                                                                                                                                                                                                                                                                                           00000000000000001727
020250200672100000000000000785122120820250000000002505+                                                                                                                                                      000000021311010101000101000000021311010101000101CONTRIB AO FAPS PARTE PATRONAL 1600 REF REMUNERACAO DE JULHO DE 2025FAPS-INATIVOS-GERAL-TEMPCONT-CAMARA                                                                                                                                                                                                                                                                                                         00000000000000007649
020250200287300000000000000770788140420250000000002505+                                                                                                                                                      000000021311010101000101000000021311010101000101CONTRIB AO FAPS PARTE PATRONAL 1600 REF REMUNERACAO DE MARCO DE 2025 FAPS INATIVOS-GERAL-TEMPO-CONTR-CAMARA                                                                                                                                                                                                                                                                                                     00000000000000002788
020250200568200000000000000781319090720250000000002600+                                                                                                                                                      000000021311010101000101000000021311010101000101CONTRIB AO FAPS PARTE PATRONAL 1661 REF REMUNERACAO DE JUNHO DE 2025 PASSIVO ATUARIALFAPS-INATIVOS-GERAL-TEMPCONT-CAMARA                                                                                                                                                                                                                                                                                        00000000000000006437
020250200148000000000000000764938200220250000000002600+                                                                                                                                                      000000021311010101000101000000021311010101000101CONTRIB AO FAPS PARTE PATRONAL 24 REF REMUNERACAO DE JANEIRO DE 2025 PASSIVO ATUARIALINATIVOS-GERAL-TEMPCONT-CAMARANE TRANSPOSTA DA NE 1126 AJUSTE CONTABIL                                                                                                                                                                                                                                                     00000000000000000941
020250200375300000000000000774099130520250000000002600+                                                                                                                                                      000000021311010101000101000000021311010101000101CONTRIB AO FAPS PARTE PATRONAL 1661 REF REMUNERACAO DE ABRIL DE 2025 PASSIVO ATUARIALFAPS-INATIVOS-GERAL-TEMPCONT-CAMARA                                                                                                                                                                                                                                                                                        00000000000000003992
020250200473100000000000000777943120620250000000002600+                                                                                                                                                      000000021311010101000101000000021311010101000101CONTRIB AO FAPS PARTE PATRONAL 1661 REF REMUNERACAO DE MAIO DE 2025 PASSIVO ATUARIALFAPS-INATIVOS-GERAL-TEMPO-CONT-CAMARA                                                                                                                                                                                                                                                                                       00000000000000005373
020250200203200000000000000767457140320250000000002600+                                                                                                                                                      000000021311010101000101000000021311010101000101CONTRIB AO FAPS PARTE PATRONAL 1661 REF REMUNERACAO DE FEVEREIRO DE 2025 PASSIVO ATUARIALINATIVOS-GERAL-TEMPCONT-CAMARA                                                                                                                                                                                                                                                                                         00000000000000001728
020250200672200000000000000785123120820250000000002600+                                                                                                                                                      000000021311010101000101000000021311010101000101CONTRIB AO FAPS PARTE PATRONAL 1661 REF REMUNERACAO DE JULHO DE 2025PASSIVO ATUARIALFAPS-INATIVOS-GERAL-TEMPCONT-CAMARA                                                                                                                                                                                                                                                                                         00000000000000007650
020250200287400000000000000770789140420250000000002600+                                                                                                                                                      000000021311010101000101000000021311010101000101CONTRIB AO FAPS PARTE PATRONAL 1661 REF REMUNERACAO DE MARCO DE 2025 PASSIVO ATUARIALFAPS INATIVOS-GERAL-TEMPO-CONTR-CAMARA                                                                                                                                                                                                                                                                                     00000000000000002789
020250200399100000000000000774943200520250000000003000+                                                                                                                                                      000000021311010101000101000000021311010101000101CONSERTO DA JARRA ELETRICA DA CAMARA DE VEREADORES                                                                                                                                                                                                                                                                                                                                                              00000000000000004378
020250200518700000000000000780860040720250000000003000+                                                                                                                                                      0000000213110101010001010000000213110101010001012 COPIAS DE CHAVES SENDO UMA DA PORTA DA CAMARA DE VEREADORES E OUTRA DA PORTA DE ENTRADA DA PREFEITURA MUNICIPAL PARA O ASSESSOR JURIDICO SR GETULIO IMMICH DA SILVA                                                                                                                                                                                                                                           00000000000000006255
020250200362800000000000000774058120520250000000003000+                                                                                                                                                      0000000213110101010001010000000213110101010001012 COPIAS DE CHAVES SENDO UMA DA PORTA DA CAMARA DE VEREADORES E OUTRA DA PORTA DE ENTRADA DA PREFEITURA MUNICIPAL                                                                                                                                                                                                                                                                                               00000000000000003970
020250200607000000000000000783933010820250000000003500+                                                                                                                                                      000000021311010101000101000000021311010101000101CONSERTO DA BORRACHA E ALMOFADA DO CARIMBO 4927 UTILIZADO PARA MARCAR PARA QUAIS COMISSOES OS PROJETOS DE LEI SAO ENCAMINHADOS                                                                                                                                                                                                                                                                                  00000000000000007410
020250200322700000000000000774062120520250000000003650+                                                                                                                                                      000000021311010101000101000000021311010101000101AQUISICAO 2 CANTONEIRAS 3 PUXADORES E 20 UNIDADES DE PARAFUSOS PARA FIXAR O CONJUNTO DAS GAVETAS DA MESA DA SECRETARIA                                                                                                                                                                                                                                                                                          00000000000000003974
020250200031900000000000000764198120220250000000004500+                                                                                                                                                      000000021311010101000101000000021311010101000101COMUNICADOS NA RADIO COMUNITARIA DE INDEPENDENCIA REFERENTE AO FALECIMENTO DO EX-VEREADOR E EX-PRESIDENTE DA CAMARA ANTONIO AVELINO FERREIRA CONF RD 219/2025DESPESA SEM EMPENHO PREVIO                                                                                                                                                                                                                         00000000000000000591
020250200219200000000000000770265070420250000000004600+                                                                                                                                                      000000021311010101000101000000021311010101000101COMPRA DE UM QUADRO PARA CERTIFICADO 21X30CM NO QUAL IRA O DOCUMENTO QUE HOMENAGEIA A APAE PELOS 30 ANOS DE ATUACAO EM INDEPENDENCIA/RS ESSE QUADRO SERA ENTREGUE NA 6 SESSAO ORDINARIA DE 2025 QUE OCORRERA DIA 17/03/2025 AS 19H                                                                                                                                                                              00000000000000002643
020250200614300000000000000784987110820250000000004623+                                                                                                                                                      000000021311010101000101000000021311010101000101FILTRO DE CAFE COMPATIVEL COM A CAFETEIRA OSTER FLAVOR 4401RD UTILIZADA NA CAMARA DE VEREADORES                                                                                                                                                                                                                                                                                                                 00000000000000007559
020250200122700000000000000764203120220250000000005000+                                                                                                                                                      000000021311010101000101000000021311010101000101CILINDRO DE UMA GAVETA DO SETOR ADMINISTRATIVO DA CAMARA                                                                                                                                                                                                                                                                                                                                                        00000000000000000596
020250200228900000000000000770264070420250000000006000+                                                                                                                                                      0000000213110101010001010000000213110101010001014 COPIAS DE CHAVES PARA AS SALAS DA CAMARA DE VEREADORES                                                                                                                                                                                                                                                                                                                                                        00000000000000002642
020250200271700000000000000774070120520250000000007000+                                                                                                                                                      000000021311010101000101000000021311010101000101EXAME ADMISSIONAL PARA A ASSESSORA LEGISLATIVA DIENIFER EDUARDA SOARES DOS SANTOS           PROCESSO DE LICITACAO 134/2025 PREGAO ELETRONICO 09/2025 SRP 07/2025                                                                                                                                                                                                                                                00000000000000003982
020250200059800000000000000765987260220250000000007500+                                                                                                                                                      000000021311010101000101000000021311010101000101EXAME ADMISSIONAL PARA A ASSESSORA JURIDICA DA CAMARA DE VEREADORESPROCESSO 53/2023 SRP                                                                                                                                                                                                                                                                                                                         00000000000000001260
020250200660900000000000000784990110820250000000007500+                                                                                                                                                      000000021311010101000101000000021311010101000101SERVICO DE CABEAMENTO EM REDE DA IMPRESSORA BM5100FDW POSSIBILITANDO A CONEXAO VIA ETHERNET DE MODO QUE A IMPRESSORA POSSA SER COMPARTILHADA NA REDE E ACESSADA POR MULTIPLOS DISPOSITIVOS                                                                                                                                                                                                                      00000000000000007562
020250200062900000000000000764945200220250000000009500+                                                                                                                                                      000000021311010101000101000000021311010101000101DESLOCAMENTO E MAO DE OBRA PARA AVALIACAO DE AR-CONDICIONADO DO PLENARIO DA CAMARA DE VEREADORES QUE TINHA APRESENTADO PROBLEMAS                                                                                                                                                                                                                                                                                00000000000000000948
020250200063100000000000000764200120220250000000009900+                                                                                                                                                      000000021311010101000101000000021311010101000101LAVAGEM E SECAGEM DE 08 BANDEIRAS DA CAMARA DE VEREADORES POIS AS MESMAS ENCONTRAM-SE SUJAS MOFADAS E MANCHADAS EM RAZAO DO AMBIENTE UMIDO                                                                                                                                                                                                                                                                      00000000000000000593
020250200139900000000000000765986260220250000000009980+                                                                                                                                                      0000000213110101010001010000000213110101010001012 UNIDADES DE TONER PARA IMPRESSORA LASER JET M1132 MFP PARA MANUTENCAO DAS ATIVIDADES DE APOIO A CAMARA                                                                                                                                                                                                                                                                                                        00000000000000001259
020250200399200000000000000774944200520250000000010500+                                                                                                                                                      00000002131101010100010100000002131101010100010102 CAIXAS DE ARQUIVO MORTO PARA MANUTENCAO DOS TRABALHOS DA CAMARA DE VEREADORESPROCESSO N 08/2025  DISPENSA N 08/2025                                                                                                                                                                                                                                                                                          00000000000000004379
020250200129500000000000000763985100220250000000011990+                                                                                                                                                      000000021311010101000101000000021311010101000101SINAL DE INTERNET A CAMARA NO MES DE JANEIRO DE 2025  NF-e N 73366         DESPESA SEM EMPENHO PREVIO                                                                                                                                                                                                                                                                                                           00000000000000000541
020250200189800000000000000767127100320250000000011990+                                                                                                                                                      000000021311010101000101000000021311010101000101SINAL DE INTERNET A CAMARA NO MES DE FEVEREIRO DE 2025           DESPESA SEM EMPENHO PREVIO                                                                                                                                                                                                                                                                                                                     00000000000000001638
020250200295200000000000000770271070420250000000011990+                                                                                                                                                      000000021311010101000101000000021311010101000101SINAL DE INTERNET A CAMARA NO MES DE MARCO DE 2025           DESPESA SEM EMPENHO PREVIO NOTA FISCAL N 85409                                                                                                                                                                                                                                                                                                     00000000000000002649
020250200242800000000000000770645100420250000000012400+                                                                                                                                                      00000002131101010100010100000002131101010100010102 CARIMBOS ENTINTADOS 4912 UM PARA O ARQUIVO DE DOCUMENTOS E OUTRO PARA O DIRETOR GERAL                                                                                                                                                                                                                                                                                                                        00000000000000002751
020250200331300000000000000776215290520250000000012490+                                                                                                                                                      000000021311010101000101000000021311010101000101MATERIAIS DE ESCRITORIO E EXPEDIENTE PARA MANUTENCAO DAS ATIVIDADES DE APOIO A CAMARA DE VEREADORESPROCESSO N 07/2025   DISPENSA N 07/2025                                                                                                                                                                                                                                                                      00000000000000004727
020250200676900000000000000784989110820250000000012900+                                                                                                                                                      000000021311010101000101000000021311010101000101CONFIGURACAO INICIAL E EM REDE DO NOTEBOOK DE PATRIMONIO N 6955 O APARELHO FOI FORMATADO PARA GARANTIR SEU PLENO FUNCIONAMENTO E ATENDER AS NECESSIDADES DA NOVA ASSESSORA LEGISLATIVA RAZAO PELA QUAL FOI NECESSARIO CONFIGURA-LO                                                                                                                                                                              00000000000000007561
020250200123800000000000000765982260220250000000013000+                                                                                                                                                      00000002131101010100010100000002131101010100010102 UN CARIMBOS AUTO ENTINTADO 4912 SENDO OS SEGUINTES 1 UNIDADE - CARIMBO PRESIDENTE EM TINTA PRETA E 1 UNIDADE - CARIMBO  NEGADO EM TINTA VERMELHA PARA AS ATIVIDADES DE APOIO A CAMARA                                                                                                                                                                                                                        00000000000000001257
020250200522900000000000000779679270620250000000013135+                                                                                                                                                      000000021311010101000101000000021311010101000101REFERENTE A REMUNERACAO DO MES DE JUNHO DE 2025CAMARA - ESTATUTARIOSINSALUBRIDADE                                                                                                                                                                                                                                                                                                                               00000000000000005842
020250200429900000000000000776949020620250000000013800+                                                                                                                                                      000000021311010101000101000000021311010101000101QUADROS PARA CERTIFICADO 21X30CM PARA EMOLDURAR HOMENAGENS AS ESCOLAS AMELIO FAGUNDES E GETULIO VARGAS QUE SERA REALIZADA NA SESSAO DO DIA 02/06/2025                                                                                                                                                                                                                                                           00000000000000005033
020250200614400000000000000786303250820250000000014000+                                                                                                                                                      00000002131101010100010100000002131101010100010102 ATESTADOS DE SAUDE OCUPACIONAL SENDO UM EXAME DEMISSIONAL PARA DIENIFER EDUARDA SOARES DOS SANTOS E UM EXAME ADMISSIONAL PARA CAMILA LIMA DE QUADRA  PROCESSO DE LICITACAO 134/2025 PREGAO ELETRONICO 09/2025 SRP 07/2025                                                                                                                                                                                    00000000000000008263
020250200308500000000000000774069120520250000000014000+                                                                                                                                                      00000002131101010100010100000002131101010100010102 ATESTADOS DE SAUDE OCUPACIONAL SENDO UM EXAME DEMISSIONAL PARA SANDRA MARIAMARTINI MARASCA E UM EXAME ADMISSIONAL PARA GETULIO JUVENIL IMMICH DA SILVAPROCESSO DE LICITACAO 134/2025 PREGAO ELETRONICO 09/2025 SRP 07/2025                                                                                                                                                                                   00000000000000003981
020250200419300000000000000776217290520250000000015000+                                                                                                                                                      000000021311010101000101000000021311010101000101LIMPEZA E CONSERTO DA IMPRESSORA LASER HP PATRIMONIO N 005638 PARA MANUTENCAO DAS ATIVIDADES DE APOIO A CAMARA                                                                                                                                                                                                                                                                                                  00000000000000004729
020250200013300000000000000765988260220250000000015000+                                                                                                                                                      0000000213110101010001010000000213110101010001012 EXAMES ADMISSIONAIS PARA O DIRETOR GERAL E PARA A ASSESSORA DE BANCADA                                                                                                                                                                                                                                                                                                                                        00000000000000001261
020250200385900000000000000774057120520250000000015000+                                                                                                                                                      000000021311010101000101000000021311010101000101LIMPEZA E CONSERTO PARA MANUTENCAO DA IMPRESSORA EPSON PATRIMONIO N 007654 - REALIZADO LIMPEZA DE ALMOFADAS                                                                                                                                                                                                                                                                                                     00000000000000003969
020250200518500000000000000783932010820250000000015750+                                                                                                                                                      00000002131101010100010100000002131101010100010103 CAIXAS DE ARQUIVO MORTO PARA MANUTENCAO DOS TRABALHOS DA CAMARA DE VEREADORESPROCESSO N 10/2025  DISPENSA N 10/2025                                                                                                                                                                                                                                                                                          00000000000000007409
020250200024800000000000000764206120220250000000016000+                                                                                                                                                      000000021311010101000101000000021311010101000101DOACAO DE UMA COROA DE FLOR CONFORME FOTO EM ANEXO PARA O VELORIO DO EX-VEREADOR E EX-PRESIDENTE DA CAMARA ANTONIO AVELINO FERREIRA CONF RD 138/2025DESPESA SEM EMPENHO PREVIO                                                                                                                                                                                                                                  00000000000000000599
020250200703500000000000000786302250820250000000017000+                                                                                                                                                      000000021311010101000101000000021311010101000101CHALEIRA ELETRICA 18 LITROS PARA A COZINHA DA CAMARA DE VEREADORESPROCESSO N 15/2025 DISPENSA N 15/2025TRANSPOSTO DA NE 7023 PARA AJUSTE DA DOTACAO ORCAMENTARIA                                                                                                                                                                                                                                                00000000000000008262
020250200133300000000000000764947200220250000000018600+                                                                                                                                                      000000021311010101000101000000021311010101000101VIDROS PARA A PORTA DE ENTRADA DA CAMARA E PARA A JANELA DA SALA DA PRESIDENCIA                                                                                                                                                                                                                                                                                                                                 00000000000000000950
020250200364000000000000000774059120520250000000022500+                                                                                                                                                      000000021311010101000101000000021311010101000101AQUISICAO DE FECHADURA TUBULAR PARA A PORTA DA SALA DA PRESIDENCIA                                                                                                                                                                                                                                                                                                                                              00000000000000003971
020250200300600000000000000770268070420250000000023505+                                                                                                                                                      000000021311010101000101000000021311010101000101RESSARCIMENTO DE PASSAGEM DE ONIBUS DE SANTA ROSA A PORTO ALEGRE PARA PARTICIPAR DO CURSO 3025/0804  OFICINA PRATICA CONTRATACOES DIRETAS  DISPENSA E INEXIGIBILIDADE - ALTERACOES PROCEDIMENTOS E ASPECTOS PRATICOS COM SIMULACAO DE CONTRATACAO E ELABORACAO DE DOCUMENTOS DURANTE O CURSO ENTREGA DE MODELOS MODULO ESPECIFICO - OFICINA NOVA LEI DE LICITACOES FOCO DISPENSA E INEXIGIBILIDADE A SE REALIZAR00000000000000002646
020250200430100000000000000776305290520250000000024647+                                                                                                                                                      000000021311010101000101000000021311010101000101REFERENTE A REMUNERACAO DO MES DE MAIO DE 2025CAMARA - ESTATUTARIOSANUENIOS                                                                                                                                                                                                                                                                                                                                     00000000000000004732
020250200490300000000000000778337160620250000000025000+                                                                                                                                                      000000021311010101000101000000021311010101000101CONSERTO DO AR-CONDICIONADO LOCALIZADO NA SALA DA SECRETARIA PARA A TROCA DO SEU CAPACITOR CFE RD 1843/2025                                                                                                                                                                                                                                                                                                     00000000000000005616
020250200482500000000000000777720100620250000000026000+                                                                                                                                                      000000021311010101000101000000021311010101000101RECARGA DE EXTINTORES PARA MANUTENCAO DA CAMARA DE VEREADORESPROCESSO N 09/2025  DISPENSA N 09/2025                                                                                                                                                                                                                                                                                                             00000000000000005279
020250200013100000000000000764204120220250000000027000+                                                                                                                                                      0000000213110101010001010000000213110101010001016 COPIAS DE CHAVE DA PORTA DE ENTRADA PRINCIPAL DO PALACIO DA PREFEITURA MUNICIPAL DE INDEPENDENCIA E ADQUIRIDO TAMBEM UM NOVO CILINDRO DA PORTA DE ENTRADA DA CAMARA DE VEREADORES ESTE CILINDRO VEM ACOMPANHADO DE DUAS CHAVES E FORAM FEITAS MAIS 4 COPIAS DESTA CHAVE LOGO FORAM ADQUIRIDAS 10 CHAVES NO TOTAL ADQUIRIDO TAMBEM UMA NOVA FECHADURA PARA A GAVETA DA BANCADA DOS VEREADORES                  00000000000000000597
020250200065400000000000000762980300120250000000028330+                                                                                                                                                      000000021311010101000101000000021311010101000101REFERENTE A REMUNERACAO DO MES DE JANEIRO DE 2025CAMARA - ESTATUTARIOSANUENIOS                                                                                                                                                                                                                                                                                                                                  00000000000000000408
020250200040100000000000000764207120220250000000028410+                                                                                                                                                      000000021311010101000101000000021311010101000101AQUISICAO DE MATERIAIS DE EXPEDIENTE PARA USO DIARIO DA CAMARA DE VEREADORES CONF RD 294/2025                                                                                                                                                                                                                                                                                                                   00000000000000000600
020250200522600000000000000779676270620250000000028802+                                                                                                                                                      000000021311010101000101000000021311010101000101REFERENTE A REMUNERACAO DO MES DE JUNHO DE 2025CAMARA - ESTATUTARIOSANUENIOS                                                                                                                                                                                                                                                                                                                                    00000000000000005839
020250200063000000000000000764199120220250000000029100+                                                                                                                                                      000000021311010101000101000000021311010101000101LAVAGEM DE 26 CORTINAS DA CAMARA DE VEREADORES POIS AS MESMAS ENCONTRAM-SE MOFADAS E MANCHADAS EM RAZAO DO GRANDE PERIODO DE TEMPO DESDE A ULTIMA LAVAGEM E DO AMBIENTE UMIDO                                                                                                                                                                                                                                   00000000000000000592
020250200013200000000000000761177100120250000000029400+                                                                                                                                                      000000021311010101000101000000021311010101000101CERTIFICADO DIGITAL TIPO E-CPF A3 COM TOKEN COM VALIDADE PARA 1 ANO                                                                                                                                                                                                                                                                                                                                             00000000000000000025
020250200244900000000000000769167280320250000000031163+                                                                                                                                                      000000021311010101000101000000021311010101000101REFERENTE A REMUNERACAO DO MES DE MARCO DE 2025CAMARA - ESTATUTARIOS ANUENIOS                                                                                                                                                                                                                                                                                                                                   00000000000000002346
020250200159900000000000000766166270220250000000031163+                                                                                                                                                      000000021311010101000101000000021311010101000101REFERENTE A REMUNERACAO DO MES DE FEVEREIRO DE 2025CAMARA - ESTATUTARIOSANUENIOS                                                                                                                                                                                                                                                                                                                                00000000000000001329
020250200334100000000000000772605290420250000000031163+                                                                                                                                                      000000021311010101000101000000021311010101000101REFERENTE A REMUNERACAO DO MES DE ABRIL DE 2025CAMARA - ESTATUTARIOSANUENIOS                                                                                                                                                                                                                                                                                                                                    00000000000000003499
020250200624400000000000000783485300720250000000033996+                                                                                                                                                      000000021311010101000101000000021311010101000101REFERENTE A REMUNERACAO DO MES DE JULHO DE 2025CAMARA - ESTATUTARIOSANUENIOS                                                                                                                                                                                                                                                                                                                                    00000000000000007120
020250200059600000000000000764202120220250000000037000+                                                                                                                                                      000000021311010101000101000000021311010101000101PLACA EM ACO ESCOVADO E ADESIVADO E ESTOJO CAMURCA QUE SERAO ENTREGUES EM HOMENAGEM A EMPRESA ROMAN F MANN   CIA LTDA EM SESSAO SOLENE QUE OCORRERA DIA 04/02/2025                                                                                                                                                                                                                                              00000000000000000595
020250200518600000000000000780859040720250000000037500+                                                                                                                                                      000000021311010101000101000000021311010101000101AUTOTRANSFORMADOR PARA A IMPRESSORA DA CAMARA DE VEREADORESPROCESSO N 11/2025   DISPENSA N 11/2025    PATRIM N                                                                                                                                                                                                                                                                                                  00000000000000006254
020250200716600000000000000787252280820250000000037538+                                                                                                                                                      000000021311010101000101000000021311010101000101REFERENTE A REMUNERACAO DO MES DE AGOSTO DE 2025CAMARA - ESTATUTARIOSANUENIOS                                                                                                                                                                                                                                                                                                                                   00000000000000008405
020250200590000000000000000783931010820250000000037950+                                                                                                                                                      000000021311010101000101000000021311010101000101MATERIAIS DE EXPEDIENTE E DE ESCRITORIO PARA MANUTENCAO DAS ATIVIDADES DE APOIO A CAMARA DE VEREADORESPROCESSO N 12/2025   DISPENSA N 12/2025                                                                                                                                                                                                                                                                   00000000000000007408
020250200012700000000000000767304120320250000000002093+                                                                                                                                                      000000021311010101000101000000021311010101000101LIGACOES TELEFONICAS REALIZADAS ATRAVES DA LINHA 553539-1295 DA CAMARA DE VEREADORESFATURA N REF MES                                                                                                                                                                                                                                                                                                            00000000000000001726
020250200012700000000000000763983100220250000000018149+                                                                                                                                                      000000021311010101000101000000021311010101000101LIGACOES TELEFONICAS REALIZADAS ATRAVES DA LINHA 553539-1295 DA CAMARA DE VEREADORESFATURA N REF MES                                                                                                                                                                                                                                                                                                            00000000000000000539
020250200012700000000000000761176100120250000000017783+                                                                                                                                                      000000021311010101000101000000021311010101000101LIGACOES TELEFONICAS REALIZADAS ATRAVES DA LINHA 553539-1295 DA CAMARA DE VEREADORESFATURA N REF MES                                                                                                                                                                                                                                                                                                            00000000000000000024
020250200363900000000000000781315090720250000000004890+                                                                                                                                                      000000021311010101000101000000021311010101000101SERVICOS DE TELEFONIA FIXA PARA MANUTENCAO DA CAMARA DE VEREADORESCONTRATO N01/2025 VIGENCIA 12 MESES A CONTAR DE 29042025PROCESSO N 03/2025  DISPENSA N 03/2025     VALOR MENSAL R 4890                                                                                                                                                                                                                        00000000000000006433
020250200363900000000000000784994110820250000000004890+                                                                                                                                                      000000021311010101000101000000021311010101000101SERVICOS DE TELEFONIA FIXA PARA MANUTENCAO DA CAMARA DE VEREADORESCONTRATO N01/2025 VIGENCIA 12 MESES A CONTAR DE 29042025PROCESSO N 03/2025  DISPENSA N 03/2025     VALOR MENSAL R 4890                                                                                                                                                                                                                        00000000000000007566
020250200363900000000000000777716100620250000000002445+                                                                                                                                                      000000021311010101000101000000021311010101000101SERVICOS DE TELEFONIA FIXA PARA MANUTENCAO DA CAMARA DE VEREADORESCONTRATO N01/2025 VIGENCIA 12 MESES A CONTAR DE 29042025PROCESSO N 03/2025  DISPENSA N 03/2025     VALOR MENSAL R 4890                                                                                                                                                                                                                        00000000000000005275
020250200139700000000000000764946200220250000000047000+                                                                                                                                                      000000021311010101000101000000021311010101000101INSTALACAO DO AR-CONDICIONADO DE 9000 BTUS NA SALA DA PRESIDENCIA DA CAMARA DE VEREADORES                                                                                                                                                                                                                                                                                                                       00000000000000000949
020250200139800000000000000765985260220250000000048400+                                                                                                                                                      000000021311010101000101000000021311010101000101TINTAS PARA A IMPRESSORA EPSON L3150 DA SALA DA SECRETARIA DA CAMARA DE VEREADORES                                                                                                                                                                                                                                                                                                                              00000000000000001258
020250200522700000000000000779677270620250000000052411+                                                                                                                                                      000000021311010101000101000000021311010101000101REFERENTE A REMUNERACAO DO MES DE JUNHO DE 2025CAMARA - ESTATUTARIOSAUXILIO DOENCA                                                                                                                                                                                                                                                                                                                              00000000000000005840
020250200300500000000000000770267070420250000000053873+                                                                                                                                                      000000021311010101000101000000021311010101000101RESSARCIMENTO DE PASSAGENS DE ONIBUS DE SANTA ROSA A PORTO ALEGRE IDA E VOLTA PARA PARTICIPAR DO CURSO 3025/0804  OFICINA PRATICA CONTRATACOES DIRETAS  DISPENSA E INEXIGIBILIDADE - ALTERACOES PROCEDIMENTOS E ASPECTOS PRATICOS COM SIMULACAO DE CONTRATACAO E ELABORACAO DE DOCUMENTOS DURANTE O CURSO ENTREGA DE MODELOS MODULO ESPECIFICO - OFICINA NOVA LEI DE LICITACOES FOCO DISPENSA E INEXIGIBILIDADE 00000000000000002645
020250200013400000000000000764205120220250000000055000+                                                                                                                                                      000000021311010101000101000000021311010101000101CONSERTO DE 5 CADEIRAS DE ESCRITORIO TROCAR ACENTO CONSERTO DO ENCOSTO E AJUSTE DE ALTURA CONSERTO DE RODINHAS                                                                                                                                                                                                                                                                                                  00000000000000000598
020250200212500000000000000767124100320250000000058468+                                                                                                                                                      000000021311010101000101000000021311010101000101INDENIZACAO DAS DESPESAS COM PASSAGENS DE ONIBUS TRES DE MAIO - PORTO ALEGRE IDA E VOLTA PARA PARTICIPAR DO CURSO 5025/1103  CURSO AVANCADO DE REDACAO OFICIAL REDACAO DE LEIS PROCESSO E COMPETENCIA LEGISLATIVA A SE REALIZAR NOS DIAS 11 12 13 E 14 DE MARCO DE 2025 NA INSTITUICAO INLEGIS EM PORTO ALEGRE/RS                                                                                               00000000000000001635
020250200458000000000000000776951020620250000000060640+                                                                                                                                                      000000021311010101000101000000021311010101000101RESSARCIMENTO DE PASSAGEM DE ONIBUS DE TRES DE MAIO A PORTO ALEGRE IDA E VOLTA PARA PARTICIPAR DO CURSO 1025/0306  GESTOR E FISCAL DE CONTRATO  DESIGNACAO ATRIBUICOES E RESPONSABILIDADE MODULO ESTENDIDO A REALIZAR-SE NOS DIAS 03 04 05 E 06 DE JUNHO DE 2025 NA INSTITUICAO INLEGIS EM PORTO ALEGRE/RS                                                                                                      00000000000000005035
020250200208400000000000000767904190320250000000061000+                                                                                                                                                      000000021311010101000101000000021311010101000101MAO DE OBRA PARA INSTALACAO DE LAMPADAS TOMADAS FIXAR EXTENSAO E CANALETAS JUNTO AO PLENARIO                                                                                                                                                                                                                                                                                                                    00000000000000001984
020250200651200000000000000787164280820250000000061500+                                                                                                                                                      000000021311010101000101000000021311010101000101SUPRIMENTO DE INFORMATICA SWITCH 16 PORTAS PARA MELHOR DISTRIBUICAO DO SINAL DE INTERNET JUNTO A CAMARA DE VEREADORESPROCESSO N 14/2025  DISPENSA N 14/2025           PATRIM N                                                                                                                                                                                                                                  00000000000000008384
020250200656700000000000000785849180820250000000063000+                                                                                                                                                      00000002131101010100010100000002131101010100010102 UN DE PLACAS EM ACO ESCOVADO ADESIVADA C/ESTOJO EM CAMURCA AS QUAIS SERAO ENTREGUES EM HOMENAGENS REALIZADAS PELA CAMARA DE VEREADORES                                                                                                                                                                                                                                                                       00000000000000008065
020250200716800000000000000787254280820250000000065675+                                                                                                                                                      000000021311010101000101000000021311010101000101REFERENTE A REMUNERACAO DO MES DE AGOSTO DE 2025CAMARA - ESTATUTARIOSINSALUBRIDADE                                                                                                                                                                                                                                                                                                                              00000000000000008407
020250200065600000000000000762982300120250000000065675+                                                                                                                                                      000000021311010101000101000000021311010101000101REFERENTE A REMUNERACAO DO MES DE JANEIRO DE 2025CAMARA - ESTATUTARIOSINSALUBRIDADE                                                                                                                                                                                                                                                                                                                             00000000000000000410
020250200430400000000000000776308290520250000000065675+                                                                                                                                                      000000021311010101000101000000021311010101000101REFERENTE A REMUNERACAO DO MES DE MAIO DE 2025CAMARA - ESTATUTARIOSINSALUBRIDADE                                                                                                                                                                                                                                                                                                                                00000000000000004735
020250200624600000000000000783487300720250000000065675+                                                                                                                                                      000000021311010101000101000000021311010101000101REFERENTE A REMUNERACAO DO MES DE JULHO DE 2025CAMARA - ESTATUTARIOSINSALUBRIDADE                                                                                                                                                                                                                                                                                                                               00000000000000007122
020250200245100000000000000769169280320250000000065675+                                                                                                                                                      000000021311010101000101000000021311010101000101REFERENTE A REMUNERACAO DO MES DE MARCO DE 2025CAMARA - ESTATUTARIOS INSALUBRIDADE                                                                                                                                                                                                                                                                                                                              00000000000000002348
020250200160100000000000000766168270220250000000065675+                                                                                                                                                      000000021311010101000101000000021311010101000101REFERENTE A REMUNERACAO DO MES DE FEVEREIRO DE 2025CAMARA - ESTATUTARIOSINSALUBRIDADE                                                                                                                                                                                                                                                                                                                           00000000000000001331
020250200334300000000000000772607290420250000000065675+                                                                                                                                                      000000021311010101000101000000021311010101000101REFERENTE A REMUNERACAO DO MES DE ABRIL DE 2025CAMARA - ESTATUTARIOSINSALUBRIDADE                                                                                                                                                                                                                                                                                                                               00000000000000003501
020250200156500000000000000767123100320250000000070320+                                                                                                                                                      000000021311010101000101000000021311010101000101MATERIAIS ELETRICOS PARA MANUTENCAO DOS ESPACOS DA CAMARA PROPORCIONANDO MAIS LUZ NO PLENARIO E TOMADAS NOS LOCAIS NECESSARIOS                                                                                                                                                                                                                                                                                  00000000000000001634
020250200314400000000000000771072150420250000000081054+                                                                                                                                                      000000021311010101000101000000021311010101000101150 DIARIAS A PORTO ALEGRE NOS DIAS 21 E 25042025 PARA PARTICIPAR DA XXIV MARCHA DOS GESTORES E LEGISLATIVOS MUNICIPAIS DE 22 A 25 DE ABRIL DE 2025 EVENTO ORGANIZADO PELA UVB  UNIAO DOS VEREADORES DO BRASIL QUE ACONTECERA EM BRASILIA-DF                                                                                                                                                                    00000000000000002959
020250200312600000000000000771073150420250000000081054+                                                                                                                                                      000000021311010101000101000000021311010101000101150 DIARIAS A PORTO ALEGRE NOS DIAS 21 E 25042025 PARA PARTICIPAR DA XXIV MARCHA DOS GESTORES E LEGISLATIVOS MUNICIPAIS DE 22 A 25 DE ABRIL DE 2025 EVENTO ORGANIZADO PELA UVB  UNIAO DOS VEREADORES DO BRASIL QUE ACONTECERA EM BRASILIA-DF                                                                                                                                                                    00000000000000002960
020250200312400000000000000771074150420250000000081054+                                                                                                                                                      000000021311010101000101000000021311010101000101150 DIARIAS A PORTO ALEGRE NOS DIAS 21 E 25042025 PARA PARTICIPAR DA XXIV MARCHA DOS GESTORES E LEGISLATIVOS MUNICIPAIS DE 22 A 25 DE ABRIL DE 2025 EVENTO ORGANIZADO PELA UVB  UNIAO DOS VEREADORES DO BRASIL QUE ACONTECERA EM BRASILIA-DF                                                                                                                                                                    00000000000000002961
020250200312700000000000000771075150420250000000081054+                                                                                                                                                      000000021311010101000101000000021311010101000101150 DIARIAS A PORTO ALEGRE NOS DIAS 21 E 25042025 PARA PARTICIPAR DA XXIV MARCHA DOS GESTORES E LEGISLATIVOS MUNICIPAIS DE 22 A 25 DE ABRIL DE 2025 EVENTO ORGANIZADO PELA UVB  UNIAO DOS VEREADORES DO BRASIL QUE ACONTECERA EM BRASILIA-DF                                                                                                                                                                    00000000000000002962
020250200333900000000000000772603290420250000000082630+                                                                                                                                                      000000021311010101000101000000021311010101000101REFERENTE A REMUNERACAO DO MES DE ABRIL DE 2025CAMARA - CCS13 SALARIO                                                                                                                                                                                                                                                                                                                                           00000000000000003497
020250200101700000000000000764479140220250000000084345+                                                                                                                                                      000000021311010101000101000000021311010101000101CONTRIB PATRONAL AO INSS REF REMUNERACAO DO MES DE JANEIRO DE 2025CAMARA - CCS                                                                                                                                                                                                                                                                                                                                  00000000000000000708
020250200430200000000000000776306290520250000000094340+                                                                                                                                                      000000021311010101000101000000021311010101000101REFERENTE A REMUNERACAO DO MES DE MAIO DE 2025CAMARA - ESTATUTARIOSAUXILIO DOENCA                                                                                                                                                                                                                                                                                                                               00000000000000004733
020250200018700000000000000764201120220250000000099950+                                                                                                                                                      000000021311010101000101000000021311010101000101MATERIAL DE EXPEDIENTE PARA MANUTENCAO DOS TRABALHOS DA CAMARA DE VEREADORES - FOLHA DE OFICIO A4 PROCESSO DE LICITACAO N489/2023 PREGAO ELETRONICO N38/2023 SRP N49/2023                                                                                                                                                                                                                                       00000000000000000594
020250200031800000000000000764948200220250000000025600+                                                                                                                                                      000000021311010101000101000000021311010101000101SERVICOS DE DIVULGACAO DE PUBLICACOES EVENTUAIS PARA A CAMARA DE VEREADORES TAIS COMO EDITAIS NOTAS DE ESCLARECIMENTO NOTAS DE PESAR E NOTAS DE APOIO E TAMBEM PUBLICACOES EVENTUAIS PARA DATAS COMEMORATIVAS COMO PASCOA NATAL ANIVERSARIO DO MUNICIPIO FEIRAS DENTRE OUTROS CONF RD 218/2025                                                                                                                  00000000000000000951
020250200624200000000000000783483300720250000000100873+                                                                                                                                                      000000021311010101000101000000021311010101000101REFERENTE A REMUNERACAO DO MES DE JULHO DE 2025CAMARA - CCS13 SALARIO                                                                                                                                                                                                                                                                                                                                           00000000000000007118
020250200363800000000000000781316090720250000000011990+                                                                                                                                                      000000021311010101000101000000021311010101000101SERVICOS DE INTERNET 800MB PARA MANUTENCAO DA CAMARA DE VEREADORESCONTRATO N01/2025 VIGENCIA 12 MESES A CONTAR DE 29042025PROCESSO N 03/2025  DISPENSA N 03/2025     VALOR MENSAL R 11990                                                                                                                                                                                                                       00000000000000006434
020250200363800000000000000784993110820250000000011990+                                                                                                                                                      000000021311010101000101000000021311010101000101SERVICOS DE INTERNET 800MB PARA MANUTENCAO DA CAMARA DE VEREADORESCONTRATO N01/2025 VIGENCIA 12 MESES A CONTAR DE 29042025PROCESSO N 03/2025  DISPENSA N 03/2025     VALOR MENSAL R 11990                                                                                                                                                                                                                       00000000000000007565
020250200363800000000000000774072120520250000000011990+                                                                                                                                                      000000021311010101000101000000021311010101000101SERVICOS DE INTERNET 800MB PARA MANUTENCAO DA CAMARA DE VEREADORESCONTRATO N01/2025 VIGENCIA 12 MESES A CONTAR DE 29042025PROCESSO N 03/2025  DISPENSA N 03/2025     VALOR MENSAL R 11990                                                                                                                                                                                                                       00000000000000003984
020250200363800000000000000777717100620250000000011990+                                                                                                                                                      000000021311010101000101000000021311010101000101SERVICOS DE INTERNET 800MB PARA MANUTENCAO DA CAMARA DE VEREADORESCONTRATO N01/2025 VIGENCIA 12 MESES A CONTAR DE 29042025PROCESSO N 03/2025  DISPENSA N 03/2025     VALOR MENSAL R 11990                                                                                                                                                                                                                       00000000000000005276
020250200031700000000000000767905190320250000000058000+                                                                                                                                                      000000021311010101000101000000021311010101000101SERVICOS DE DIVULGACAO DE NOTICIAS REFERENTES A CAMARA DE VEREADORES EM FORMA DE COLUNA EM ESPACO QUINZENAL PARA O MAIOR CONHECIMENTO DO PUBLICO DAS ATIVIDADES LEGISLATIVAS CONF RD 215/2025                                                                                                                                                                                                                   00000000000000001985
020250200031700000000000000770266070420250000000058000+                                                                                                                                                      000000021311010101000101000000021311010101000101SERVICOS DE DIVULGACAO DE NOTICIAS REFERENTES A CAMARA DE VEREADORES EM FORMA DE COLUNA EM ESPACO QUINZENAL PARA O MAIOR CONHECIMENTO DO PUBLICO DAS ATIVIDADES LEGISLATIVAS CONF RD 215/2025                                                                                                                                                                                                                   00000000000000002644
020250200144800000000000000764949200220250000000119000+                                                                                                                                                      00000002131101010100010100000002131101010100010101 TAXA DE INSCRICAO PARA O DIRETOR GERAL EDSOM MELLER PARA PARTICIPAR DO CURSO ORIENTACOES TECNICAS PARA O ASSESSORAMENTO E EXERCICIO DA VEREANCA DE FORMA EFICAZ  TOPICO ESPECIAL COMISSOES LEGISLATIVAS A SE REALIZAR NOS DIAS 25 26 27 E 28 DE FEVEREIRO DE 2025 NA INSTITUICAO INLEGIS EM PORTO ALEGRE/RS                                                                                                  00000000000000000952
020250200065300000000000000762979300120250000000125769+                                                                                                                                                      000000021311010101000101000000021311010101000101REFERENTE A REMUNERACAO DO MES DE JANEIRO DE 2025CAMARA - ESTATUTARIOSFERIAS                                                                                                                                                                                                                                                                                                                                    00000000000000000407
020250200417000000000000000774950200520250000000129000+                                                                                                                                                      00000002131101010100010100000002131101010100010101 TAXA DE INSCRICAO DO DIRETOR GERAL EDSOM MELLER PARTICIPAR DO CURSO ORIENTACOES TECNICAS E CAUTELAS A SEREM ADOTADAS NOS PODERES LEGISLATIVOS E EXECUTIVOS  GESTAO E FISCALIZACAO PAGAMENTO DE 13 E TERCO DE FERIAS A AGENTES POLITICOS REVISAO GERAL ANUAL DIARIAS PRESTACAO DE CONTAS AO TRIBUNAL DE CONTAS LDO COMUNICACAO PUBLICA ESTRATEGICA E ETICA GESTAO DE PESSOAL  ADMISSOES COM DESTAQUE AOS CONCU00000000000000004385
020250200212400000000000000767128100320250000000129000+                                                                                                                                                      00000002131101010100010100000002131101010100010101 TAXA DE INSCRICAO PARA A SERVIDORA YASMIN THAINA DE SA PARTICIPAR DO CURSO 5025/1103  CURSO AVANCADO DE REDACAO OFICIAL REDACAO DE LEIS PROCESSO E COMPETENCIA LEGISLATIVA QUE SERA REALIZADO  NOS DIAS 11 12 13 E 14 DE MARCO DE 2025 NA INSTITUICAO INLEGIS EM PORTO ALEGRE/RS                                                                                                                             00000000000000001639
020250200660700000000000000783939010820250000000135090+                                                                                                                                                      000000021311010101000101000000021311010101000101250 DIARIAS A PORTO ALEGRE NOS DIAS 30 E 31/07 E 01/08/2025 PARA VIAGEM A PORTO ALEGRE/RS COM O OBJETIVO DE CONDIZIR AS SOBERANAS DA 7 EXPOINDE  NAIARA ZALTRON BORGES ERIKA MENDONCA PEREIRA E MARIA HELENA WIMGHENBACH  EM VISITAS A ASSEMBLEIA LEGISLATIVA E AO GABINETE DO VICE-GOVERNADOR GABRIEL SOUZA VISANDO A DIVULGACAO DA EXPOINDE NA CAPITAL DO ESTADO                                              00000000000000007416
020250200065200000000000000762978300120250000000137860+                                                                                                                                                      000000021311010101000101000000021311010101000101REFERENTE A REMUNERACAO DO MES DE JANEIRO DE 2025CAMARA - CCS1/3 FERIAS INDENIZADAS                                                                                                                                                                                                                                                                                                                             00000000000000000406
020250200458100000000000000776952020620250000000139000+                                                                                                                                                      00000002131101010100010100000002131101010100010101 TAXA DE INSCRICAO PARA A SERVIDORA FERNANDA JESKE PARTICIPAR DO CURSO 1025/0306  GESTOR E FISCAL DE CONTRATO  DESIGNACAO ATRIBUICOES E RESPONSABILIDADE MODULO ESTENDIDO A SE REALIZAR NOS DIAS 03 04 05 E 06062025 EM PORTO ALEGRE/RS                                                                                                                                                                       00000000000000005036
020250200113500000000000000764480140220250000000140518+                                                                                                                                                      000000021311010101000101000000021311010101000101CONTRIB AO FAPS PARTE PATRONAL 16 REF REMUNERACAO DE JANEIRO DE 2025 CAMARA - ESTATUTARIOS                                                                                                                                                                                                                                                                                                                      00000000000000000709
020250200287500000000000000770790140420250000000140971+                                                                                                                                                      000000021311010101000101000000021311010101000101CONTRIB AO FAPS PARTE PATRONAL 1600 REF REMUNERACAO DE MARCO DE 2025 CAMARA - ESTATUTARIOS                                                                                                                                                                                                                                                                                                                      00000000000000002790
020250200217100000000000000767458140320250000000140972+                                                                                                                                                      000000021311010101000101000000021311010101000101CONTRIB AO FAPS PARTE PATRONAL 16 REF REMUNERACAO DE FEVEREIRO DE 2025 CAMARA - ESTATUTARIOS                                                                                                                                                                                                                                                                                                                    00000000000000001729
020250200375400000000000000774100130520250000000140973+                                                                                                                                                      000000021311010101000101000000021311010101000101CONTRIB AO FAPS PARTE PATRONAL 1600 REF REMUNERACAO DE ABRIL DE 2025 CAMARA - ESTATUTARIOS                                                                                                                                                                                                                                                                                                                      00000000000000003993
020250200568300000000000000781320090720250000000141426+                                                                                                                                                      000000021311010101000101000000021311010101000101CONTRIB AO FAPS PARTE PATRONAL 1600 REF REMUNERACAO DE JUNHO DE 2025 CAMARA - ESTATUTARIOS                                                                                                                                                                                                                                                                                                                      00000000000000006438
020250200473200000000000000777944120620250000000141426+                                                                                                                                                      000000021311010101000101000000021311010101000101CONTRIB AO FAPS PARTE PATRONAL 1600 REF REMUNERACAO DE MAIO DE 2025 CAMARA - ESTATUTARIOS                                                                                                                                                                                                                                                                                                                       00000000000000005374
020250200672300000000000000785124120820250000000141426+                                                                                                                                                      000000021311010101000101000000021311010101000101CONTRIB AO FAPS PARTE PATRONAL 1600 REF REMUNERACAO DE JULHO DE 2025CAMARA - ESTATUTARIOS                                                                                                                                                                                                                                                                                                                       00000000000000007651
020250200113600000000000000764481140220250000000145875+                                                                                                                                                      000000021311010101000101000000021311010101000101CONTRIB AO FAPS PARTE PATRONAL 24 REF REMUNERACAO DE JANEIRO DE 2025 PASSIVO ATUARIALCAMARA - ESTATUTARIOS                                                                                                                                                                                                                                                                                                      00000000000000000710
020250200375500000000000000774101130520250000000146345+                                                                                                                                                      000000021311010101000101000000021311010101000101CONTRIB AO FAPS PARTE PATRONAL 1661 REF REMUNERACAO DE ABRIL DE 2025 PASSIVO ATUARIALCAMARA - ESTATUTARIOS                                                                                                                                                                                                                                                                                                      00000000000000003994
020250200217200000000000000767459140320250000000146346+                                                                                                                                                      000000021311010101000101000000021311010101000101CONTRIB AO FAPS PARTE PATRONAL 1661 REF REMUNERACAO DE FEVEREIRO DE 2025 PASSIVO ATUARIALCAMARA - ESTATUTARIOS                                                                                                                                                                                                                                                                                                  00000000000000001730
020250200287600000000000000770791140420250000000146347+                                                                                                                                                      000000021311010101000101000000021311010101000101CONTRIB AO FAPS PARTE PATRONAL 1661 REF REMUNERACAO DE MARCO DE 2025 PASSIVO ATUARIALCAMARA - ESTATUTARIOS                                                                                                                                                                                                                                                                                                      00000000000000002791
020250200672400000000000000785125120820250000000146815+                                                                                                                                                      000000021311010101000101000000021311010101000101CONTRIB AO FAPS PARTE PATRONAL 1661 REF REMUNERACAO DE JULHO DE 2025PASSIVO ATUARIALCAMARA - ESTATUTARIOS                                                                                                                                                                                                                                                                                                       00000000000000007652
020250200568400000000000000781321090720250000000146816+                                                                                                                                                      000000021311010101000101000000021311010101000101CONTRIB AO FAPS PARTE PATRONAL 1661 REF REMUNERACAO DE JUNHO DE 2025 PASSIVO ATUARIALCAMARA - ESTATUTARIOS                                                                                                                                                                                                                                                                                                      00000000000000006439
020250200473300000000000000777945120620250000000146816+                                                                                                                                                      000000021311010101000101000000021311010101000101CONTRIB AO FAPS PARTE PATRONAL 1661 REF REMUNERACAO DE MAIO DE 2025 PASSIVO ATUARIALCAMARA - ESTATUTARIOS                                                                                                                                                                                                                                                                                                       00000000000000005375
020250200145000000000000000764939200220250000000150336+                                                                                                                                                      000000021311010101000101000000021311010101000101INDENIZACAO DE TRANSPORTE PARA VIAGEM A PORTO ALEGRE/RS A QUAL SE DESLOCARAO OS VEREADORES EVERALDO REDEL HEINSCH PEDRO ALEX DE LIMA E MARCIO DECKMANN E O DIRETOR GERAL EDSOM MELLER ONDE PARTICIPARAO DO CURSO ORIENTACOES TECNICAS PARA O ASSESSORAMENTO E EXERCICIO DA VEREANCA DE FORMA EFICAZ  TOPICO ESPECIAL COMISSOES LEGISLATIVAS NOS DIAS 25 26 27 E 28022025 NA INSTITUICAO INLEGIS EM PORTO ALEGRE/00000000000000000942
020250200416900000000000000774945200520250000000150568+                                                                                                                                                      000000021311010101000101000000021311010101000101INDENIZACAO DE TRANSPORTE PARA VIAGEM A PORTO ALEGRE/RS A QUAL SE DESLOCARAO OS VEREADORES EVERALDO REDEL HEISCH PEDRO ALEX DE LIMA ROSSINI MACHADO DO ROSARIO E O DIRETOR GERAL EDSOM MELLER ONDE PARTICIPARAO DO CURSO ORIENTACOES TECNICAS E CAUTELAS A SEREM ADOTADAS NOS PODERES LEGISLATIVOS E EXECUTIVOS  GESTAO E FISCALIZACAO NOS DIAS 20 21 22 E 23 DE MAIO DE 2025 NA INSTITUICAO INLEGIS EM PORTO AL00000000000000004380
020250200395800000000000000774064120520250000000150568+                                                                                                                                                      000000021311010101000101000000021311010101000101INDENIZACAO DE TRANSPORTE PARA VIAGEM A PORTO ALEGRE/RS NA QUAL SE DESLOCARA JUNTAMENTE COM OS VEREADORES JOSE DA SILVA RICHTER FRANCISCO CALEGARI DE OLIVEIRA E BRASIL DE FREITAS NETO PARA PARTICIPAR DO CURSO SEMINARIO DE BOAS PRATICAS LEGISLATIVAS E DE FISCALIZACAO  CAPACITACAO E EXCELENCIA PARA VEREADORES E ASSESSORES  QUE OCORRERA NOS DIAS 13 A 16 DE MAIO DE 2025 NO INLEGIS                     00000000000000003976
020250200312300000000000000771067150420250000000152568+                                                                                                                                                      000000021311010101000101000000021311010101000101INDENIZACAO DE TRANSPORTE PARA VIAGEM A PORTO ALEGRE/RS IDA E VOLTA A QUAL SE DESLOCARAO OS VEREADORES JOSE DA SILVA RICHTER BRASIL DE FREITAS NETO ROSSINI MACHADO DO ROSARIO E CLEU S IDINEI SCHRAMEIER DE PORTO ALEGRE/RS SE DESLOCARAO A BRASILIA/DF PARA PARTICIPAR DA XXIV MARCHA DOS GESTORES E LEGISLATIVOS MUNICIPAIS DE 22 A 25 DE ABRIL DE 2025 EVENTO ORGANIZADO PELA UVB  UNIAO DOS VEREADORES DO B00000000000000002954
020250200277000000000000000770787140420250000000154851+                                                                                                                                                      000000021311010101000101000000021311010101000101CONTRIB PATRONAL AO INSS REF REMUNERACAO DO MES DE MARCO DE 2025CAMARA -CCS                                                                                                                                                                                                                                                                                                                                     00000000000000002787
020250200192800000000000000767461140320250000000154851+                                                                                                                                                      000000021311010101000101000000021311010101000101CONTRIB PATRONAL AO INSS REF REMUNERACAO DO MES DE FEVEREIRO DE 2025CAMARA - CCS                                                                                                                                                                                                                                                                                                                                00000000000000001732
020250200332000000000000000774941200520250000000022169+                                                                                                                                                      000000021311010101000101000000021311010101000101GENEROS ALIMENTICIOS E DE COZINHA PARA MANUTENCAO DA CAMARA DE VEREADORESPROCESSO N 06/2025  DISPENSA N 06/2025                                                                                                                                                                                                                                                                                                 00000000000000004376
020250200332000000000000000780861040720250000000005209+                                                                                                                                                      000000021311010101000101000000021311010101000101GENEROS ALIMENTICIOS E DE COZINHA PARA MANUTENCAO DA CAMARA DE VEREADORESPROCESSO N 06/2025  DISPENSA N 06/2025                                                                                                                                                                                                                                                                                                 00000000000000006256
020250200334500000000000000772609290420250000000173040+                                                                                                                                                      000000021311010101000101000000021311010101000101REFERENTE A REMUNERACAO DO MES DE ABRIL DE 2025CAMARA - VEREADORESREPRESENTACAO                                                                                                                                                                                                                                                                                                                                 00000000000000003503
020250200065800000000000000762984300120250000000173040+                                                                                                                                                      000000021311010101000101000000021311010101000101REFERENTE A REMUNERACAO DO MES DE JANEIRO DE 2025CAMARA - VEREADORESREPRESENTACAO                                                                                                                                                                                                                                                                                                                               00000000000000000412
020250200430600000000000000776310290520250000000173040+                                                                                                                                                      000000021311010101000101000000021311010101000101REFERENTE A REMUNERACAO DO MES DE MAIO DE 2025CAMARA - VEREADORESREPRESENTACAO                                                                                                                                                                                                                                                                                                                                  00000000000000004737
020250200245300000000000000769171280320250000000173040+                                                                                                                                                      000000021311010101000101000000021311010101000101REFERENTE A REMUNERACAO DO MES DE MARCO DE 2025CAMARA - VEREADORESREPRESENTACAO                                                                                                                                                                                                                                                                                                                                 00000000000000002350
020250200523100000000000000779681270620250000000173040+                                                                                                                                                      000000021311010101000101000000021311010101000101REFERENTE A REMUNERACAO DO MES DE JUNHO DE 2025CAMARA - VEREADORESREPRESENTACAO                                                                                                                                                                                                                                                                                                                                 00000000000000005844
020250200159700000000000000766164270220250000000173040+                                                                                                                                                      000000021311010101000101000000021311010101000101REFERENTE A REMUNERACAO DO MES DE FEVEREIRO DE 2025CAMARA - VEREADORESREPRESENTACAO                                                                                                                                                                                                                                                                                                                             00000000000000001327
020250200364600000000000000774103130520250000000174856+                                                                                                                                                      000000021311010101000101000000021311010101000101CONTRIB PATRONAL AO INSS REF REMUNERACAO DO MES DE ABRIL DE 2025CAMARA -CCS                                                                                                                                                                                                                                                                                                                                     00000000000000003996
020250200660200000000000000783934010820250000000178732+                                                                                                                                                      000000021311010101000101000000021311010101000101RESSARCIMENTO DAS DESPESAS COM DESLOCAMENTO A PORTO ALEGRE PARA OS VEREADORES JOSE DA SILVA RICHTER EVERALDO REDEL HEINSCH ROSSINI MACHADO DO ROSARIO E MARCIO DECKMANN PARA PARTICIPAREM DO CURSO  60 ENCONTRO DE LEGISLATIVOS  VEREADORES DIRETORES ASSESSORES E SERVIDORES  A SE REALIZAR NOS DIAS 05 06 07 E 08 DE AGOSTO DE 2025 NA INSTITUICAO INLEGIS EM PORTO ALEGRE/RS                                 00000000000000007411
020250200660800000000000000783940010820250000000178733+                                                                                                                                                      000000021311010101000101000000021311010101000101INDENIZACAO DE TRANSPORTE PARA VIAGEM A PORTO ALEGRE/RS NA QUAL SE DESLOCARA JUNTAMENTE COM AS SOBERANAS DA 7 EXPOINDE NAIARA ZALTRON BORGES ERIKA MENDONCA PEREIRA E MARIA HELENA WIMGHENBACH COM O OBJETIVO DE TRANSPORTA-LAS EM VISITAS A ASSEMBLEIA LEGISLATIVA E AO GABINETE DO VICE-GOVERNADOR GABRIEL SOUZA VISANDO A DIVULGACAO DA EXPOINDE NA CAPITAL DO ESTADO NOS DIAS 30 E 31 DE JULHO E 1 DE AGOSTO00000000000000007417
