12292535000162010120253108202509092025CAMARA DE VEREADORES DE INDEPENDENCIA-RS                                        
2024300000000000000DESPESAS CORRENTES                                                                                            S01
2024310000000000000PESSOAL E ENCARGOS SOCIAIS                                                                                    S02
2024313000000000000TRANSFERENCIAS A ESTADOS E AO DISTRITO FEDERAL                                                                S03
2024314000000000000TRANSFERENCIAS A MUNICIPIOS                                                                                   S03
2024315000000000000TRANSFERENCIAS A INSTITUICOES PRIVADAS SEM FINS LUCRATIVOS                                                    S03
2024315011000000000VENCIMENTOS E VANTAGENS FIXAS - PESSOAL CIVIL                                                                 S05
2024315011990000000OUTRAS DESPESAS FIXAS - PESSOAL CIVIL                                                                         S06
2024315011991000000TRANSFERENCIAS DE RECURSOS PARA COBERTURA DE DESPESAS COM PESSOAL CONTRATADO ATRAVES DE INSTITUICOES          A07
2024315013000000000OBRIGACOES PATRONAIS                                                                                          S05
2024315013010000000FGTS                                                                                                          A06
2024315013020000000INSS                                                                                                          A06
2024317000000000000TRANSFERENCIAS MULTIGOVERNAMENTAIS                                                                            S03
2024317100000000000TRANSFERENCIAS A CONSORCIOS PUBLICOS MEDIANTE CONTRATO DE RATEIO                                              S04
2024317170000000000RATEIO PELA PARTICIPACAO EM CONSORCIO PUBLICO                                                                 S05
2024317170010000000COFRON                                                                                                        A06
2024317170020000000CISA                                                                                                          A06
2024319000000000000APLICACOES DIRETAS                                                                                            S03
2024319001000000000APOSENTADORIAS DO RPPS RESERVA REMUNERADA E REFORMAS DOS MILITARES                                            S05
2024319001010000000PROVENTOS - PESSOAL CIVIL                                                                                     A06
202431900106000000013 SALARIO - APOSENTADOS - PESSOAL CIVIL                                                                      A06
202431900143000000013 SALARIO - PESSOAL CIVIL - INATIVOS                                                                         A06
2024319001510000000ADICIONAIS VANTAGENSGRATIFICACOES E OUTROS COMPLEMENTOS DE PROVENTOS - PESSOAL CIVIL                          A06
2024319001990000000OUTROS PROVENTOS - PESSOAL CIVIL                                                                              A06
2024319003000000000PENSOES                                                                                                       S05
2024319003010000000PENSOES - PESSOAL CIVIL                                                                                       A06
202431900303000000013 SALARIO - PESSOAL CIVIL - PENSIONISTAS                                                                     A06
2024319003050000000PENSOES ESPECIAIS - PESSOAL CIVIL                                                                             A06
2024319003510000000ADICIONAIS VANTAGENSGRATIFICACOES E OUTROS COMPLEMENTOS DE PENSOES - PESSOAL CIVIL                            A06
2024319003990000000OUTRAS PENSOES - CIVIS                                                                                        A06
2024319004000000000CONTRATACAO POR TEMPO DETERMINADO                                                                             S05
2024319004010000000SALARIO CONTRATO TEMPORARIO                                                                                   S06
2024319004010200000CONTRATACAO POR TEMPO DETERMINADO DE PROFESSORES                                                              A07
2024319004100000000SERVICO EXTRAORDINARIO - CONTRATO TEMPORARIO                                                                  A06
202431900413000000013 SALARIO - CONTRATO TEMPORARIO                                                                              A06
2024319004140000000FERIAS - ABONO CONSTITUCIONAL - CONTRATO TEMP                                                                 A06
2024319004150000000OBRIGACOES PATRONAIS - CONTRATO TEMPORARIO                                                                    S06
2024319004150100000INSS DE PESSOAL CONTRATADO TEMPORARIAMENTE                                                                    A07
2024319004150200000FGTS DE PESSOAL CONTRATADO TEMPORARIAMENTE                                                                    A07
2024319004510000000ADICIONAIS DE CONTRATO TEMPORARIO                                                                             A06
2024319004990000000OUTRAS CONTRATACOES POR TEMPO DETERMINADO                                                                     S06
2024319004990100000CONTRATACAO POR TEMPO DETERMINADO DE PROFISSIONAIS DA SAUDE                                                   S07
2024319004990100100CONTRATACAO TEMPORARIA PARA O PSF                                                                             A08
2024319004990100200CONTRATACAO TEMPORARIA PARA O PACS                                                                            A08
2024319004990109800PISO DA ENFERMAGEM - CONTRATOS                                                                                A08
2024319004990109900OUTRAS CONTRATACOES TEMPORARIAS PARA A SAUDE                                                                  A08
2024319004999900000OUTRAS CONTRATACOES POR TEMPO DETERMINADO                                                                     A07
2024319007000000000CONTRIBUICAO A ENTIDADES FECHADAS DE PREVIDENCIA                                                              S05
2024319007010000000CONTRIBUICAO PATRONAL PREVIDENCIA PRIVADA                                                                     A06
2024319007020000000SEGUROS                                                                                                       A06
2024319007040000000CONTRIBUICAO PATRONAL PREVIDENCIA PRIVADA-PDV                                                                 A06
2024319007990000000OUTRAS CONTRIBUICOES A ENTIDADES FECHADAS DE PREVIDENCIA                                                      A06
2024319008000000000OUTROS BENEFICIOS ASSISTENCIAIS DO SERVIDOR E DO MILITAR                                                      S05
2024319008010000000AUXILIO-FUNERAL                                                                                               S06
2024319008010100000AUXILIO-FUNERAL - PESSOAL ATIVO                                                                               A07
2024319008010200000AUXILIO-FUNERAL - PESSOAL INATIVO                                                                             A07
2024319008010300000AUXILIO-FUNERAL - PENSIONISTAS                                                                                A07
2024319008050000000AUXILIO NATALIDADE                                                                                            S06
2024319008050100000AUXILIO NATALIDADE - PESSOAL ATIVO                                                                            A07
2024319008050200000AUXILIO NATALIDADE - PESSOAL INATIVO                                                                          A07
2024319008090000000AUXILIO-CRECHE OU ASSISTENCIA PRE-ESCOLAR                                                                     A06
2024319008110000000AUXILIO-SAUDE                                                                                                 S06
2024319008110100000AUXILIO-SAUDE - PESSOAL ATIVO                                                                                 A07
2024319008110200000AUXILIO-SAUDE - PESSOAL INATIVO                                                                               A07
2024319008110300000AUXILIO-SAUDE - PENSIONISTAS                                                                                  A07
2024319008140000000AUXILIO DEFICIENTE                                                                                            A06
2024319008150000000AUXILIO ESCOLA                                                                                                A06
2024319008460000000AUXILIO ODONTOLOGICO                                                                                          A06
2024319008470000000AUXILIO OFTALMOLOGICO                                                                                         A06
2024319008480000000AUXILIO MEDICAMENTO                                                                                           A06
2024319008530000000AUXILIO-RECLUSAO                                                                                              S06
2024319008530100000AUXILIO-RECLUSAO - PESSOAL ATIVO                                                                              A07
2024319008530200000AUXILIO-RECLUSAO - PESSOAL INATIVO                                                                            A07
2024319008560000000SALARIO-FAMILIA                                                                                               S06
2024319008560100000SALARIO FAMILIA - PESSOAL ATIVO                                                                               A07
2024319008560200000SALARIO FAMILIA - PESSOAL INATIVO                                                                             A07
2024319008990000000OUTROS BENEFICIOS ASSISTENCIAIS                                                                               A06
2024319011000000000VENCIMENTOS E VANTAGENS FIXAS - PESSOAL CIVIL                                                                 S05
2024319011010000000VENCIMENTOS E SALARIOS                                                                                        A06
2024319011040000000ADICIONAL NOTURNO                                                                                             A06
2024319011050000000INCORPORACOES                                                                                                 A06
2024319011070000000ABONO DE PERMANENCIA                                                                                          A06
2024319011080000000ADIANTAMENTO PECUNIARIO                                                                                       A06
2024319011090000000ADICIONAL DE PERICULOSIDADE                                                                                   A06
2024319011100000000ADICIONAL DE INSALUBRIDADE                                                                                    A06
2024319011110000000ADICIONAL DE ATIVIDADES PENOSAS                                                                               A06
2024319011130000000INCENTIVO A QUALIFICACAO                                                                                      A06
2024319011300000000ABONO PROVISORIO - PESSOAL CIVIL                                                                              A06
2024319011310000000GRATIFICACAO POR EXERCICIO DE CARGOS                                                                          A06
2024319011330000000GRATIFICACAO POR EXERCICIO DE FUNCOES                                                                         A06
2024319011370000000GRATIFICACAO DE TEMPO DE SERVICO                                                                              A06
2024319011400000000GRATIFICACOES ESPECIAIS                                                                                       A06
2024319011420000000FERIAS INDENIZADAS                                                                                            A06
202431901143000000013 SALARIO                                                                                                    A06
2024319011440000000FERIAS - ABONO PECUNIARIO                                                                                     A06
2024319011450000000FERIAS - ABONO CONSTITUCIONAL                                                                                 A06
2024319011460000000FERIAS - PAGAMENTO ANTECIPADO                                                                                 A06
2024319011470000000LICENCA-PREMIO                                                                                                A06
2024319011480000000LICENCA PREMIO INDENIZADA                                                                                     A06
2024319011490000000LICENCA CAPACITACAO                                                                                           A06
2024319011500000000SALARIO MATERNIDADE                                                                                           A06
2024319011510000000OUTROS ADICIONAIS VANTAGENSGRATIFICACOES E OUTROS COMPLEMENTOS DE SALARIOS                                    A06
2024319011520000000LICENCA SAUDE                                                                                                 A06
2024319011730000000REMUNERACAO PELA  PARTICIPACAO EM  ORGAOS DE  DELIBERACAO COLETIVA                                            S06
2024319011730100000REMUNERACAO DOS CONSELHEIROS TUTELARES                                                                        A07
2024319011730200000REMUNERACAO DOS INTEGRANTES DAS JARIS                                                                         A07
2024319011739900000REMUNERACOES PELA PARTICIPACAO EM OUTROS ORGAOS DE DELIBERACAO COLETIVA                                       S07
2024319011739900100JETON CONSELHO RPPS                                                                                           A08
2024319011740000000SUBSIDIOS                                                                                                     A06
2024319011750000000REPRESENTACAO MENSAL                                                                                          A06
2024319011770000000REMUNERACAO DE PESSOAL EM DISPONIBILIDADE                                                                     A06
2024319011990000000OUTRAS DESPESAS FIXAS - PESSOAL CIVIL                                                                         S06
2024319011990100000PISO DA ENFERMAGEM                                                                                            A07
2024319011991100000MAIS MEDICOS                                                                                                  A07
2024319013000000000OBRIGACOES PATRONAIS                                                                                          S05
2024319013010000000FGTS                                                                                                          S06
2024319013010100000FGTS - SERVIDORES                                                                                             A07
2024319013020000000CONTRIBUICOES PREVIDENCIARIAS - INSS                                                                          S06
2024319013020100000INSS - SERVIDORES                                                                                             A07
2024319013020300000INSS - AGENTES POLITICOS                                                                                      A07
2024319013020400000INSS SOBRE SESSAO EXTRAORDINARIA - AGENTES POLITICOS                                                          A07
2024319013020500000INSS SOBRE CONVOCACAO EXTRAORDINARIA - AGENTES POLITICOS                                                      A07
2024319013070000000CONTRATO POR TEMPO DETERMINADO                                                                                A06
2024319013080000000CONTRIBUICOES PREVIDENCIARIAS - RPPS - PESSOAL ATIVO                                                          A06
2024319013100000000CONTRIBUICOES PREVIDENCIARIAS - RPPS - PESSOAL INATIVO                                                        A06
2024319013150000000MULTAS                                                                                                        A06
2024319013180000000CONTRIBUICAO PARA O PIS/PASEP S/FOLHA PAGTO                                                                   A06
2024319013400000000ENCARGOS DE PESSOAL REQUISITADO DE OUTROS ENTES                                                               A06
2024319013990000000OUTRAS OBRIGACOES PATRONAIS                                                                                   A06
2024319016000000000OUTRAS DESPESAS VARIAVEIS - PESSOAL CIVIL                                                                     S05
2024319016040000000CONVOCACAO EXTRAORDINARIA                                                                                     A06
2024319016320000000SUBSTITUICOES                                                                                                 A06
2024319016340000000AVISO PREVIO                                                                                                  A06
2024319016360000000ADICIONAL POR PLANTAO HOSPITALAR                                                                              A06
2024319016440000000SERVICOS EXTRAORDINARIOS                                                                                      S06
2024319016440100000OUTRAS DESPESAS VARIAVEIS PSF                                                                                 S07
2024319016440100100HORA-EXTRA                                                                                                    A08
2024319016440100200PLANTAO MEDICO/ENFERMAGEM                                                                                     A08
2024319016440200000OUTRAS DESPESAS VARIAVEIS PACS                                                                                S07
2024319016440200100HORA-EXTRA                                                                                                    A08
2024319016449900000OUTRAS DESPESAS VARIAVEIS - OUTROS PROFISSIONAIS                                                              S07
2024319016449900100HORA-EXTRA                                                                                                    A08
2024319016449900200HORA-MAQUINA                                                                                                  A08
2024319016449900300PLANTAO MOTORISTA                                                                                             A08
2024319016450000000PARTICIPACAO A EMPREGADOS E ADMINISTRADORES                                                                   A06
2024319016990000000OUTRAS DESPESAS VARIAVEIS - PESSOAL CIVIL                                                                     S06
2024319046000000000AUXILIO-ALIMENTACAO                                                                                           S05
2024319046000200000AUXILIO-ALIMENTACAO - SERVIDORES                                                                              A07
2024319049000000000AUXILIO-TRANSPORTE                                                                                            A05
2024319067000000000DEPOSITOS COMPULSORIOS                                                                                        S05
2024319067020000000DEPOSITOS JUDICIAIS                                                                                           A06
2024319067030000000DEPOSITOS PARA RECURSOS                                                                                       A06
2024319067990000000OUTROS DEPOSITOS COMPULSORIOS                                                                                 A06
2024319086000000000COMPENSACOES A REGIMES DE PREVIDENCIA                                                                         A05
2024319091000000000SENTENCAS JUDICIAIS                                                                                           S05
2024319091010000000PRECATORIOS - ATIVO CIVIL                                                                                     A06
2024319091080000000SENTENCA JUDICIAL - ATIVO CIVIL                                                                               A06
2024319091090000000SENTENCA JUDICIAL - INATIVO CIVIL                                                                             A06
2024319091100000000SENTENCA JUDICIAL - PENSIONISTA CIVIL                                                                         A06
2024319091140000000SENTJUDNAO TRANS JULG ATIVO CIVIL                                                                             A06
2024319091150000000SENTJUDNAO TRANS JULG INATIVO CIVIL                                                                           A06
2024319091160000000SENTJUDNAO TRANSJULG PENSIONISTA CIVIL                                                                        A06
2024319091200000000DEPOSITOS JUDICIAIS                                                                                           A06
2024319091230000000PRECATORIOS - INATIVO CIVIL                                                                                   A06
2024319091250000000HONORARIOS SUCUMBENCIAIS DE PRECATORIOS                                                                       A06
2024319091260000000SENTENCA JUDICIAL DE PEQ VALOR - ATIVO CIVIL                                                                  A06
2024319091280000000SENTENCA JUDICIAL DE PEQ VALOR - INATIVO CIVIL                                                                A06
2024319091300000000SENTENCA JUDICIAL DE PEQ VALOR - PENSIONISTA CIVIL                                                            A06
2024319091360000000PRECATORIOS - PENSIONISTA CIVIL                                                                               A06
2024319091970000000OUTROS PRECATORIOS JUDICIAIS                                                                                  A06
2024319091990000000OUTRAS SENTENCAS JUDICIAIS                                                                                    A06
2024319092000000000DESPESAS DE EXERCICIOS ANTERIORES                                                                             S05
2024319092010000000APOSENTADORIAS RESERVA REMUNERADA E REFORMAS                                                                  A06
2024319092030000000PENSOES DO RPPS E DO MILITAR                                                                                  A06
2024319092040000000CONTRATACAO POR TEMPO DETERMINADO                                                                             A06
2024319092070000000CONTRIBUICAO A ENTIDADES FECHADAS DE PREVIDENCIA                                                              A06
2024319092110000000VENCIMENTOS E VANTAGENS FIXAS - PESSOAL CIVIL                                                                 A06
2024319092130000000OBRIGACOES PATRONAIS                                                                                          A06
2024319092160000000OUTRAS DESPESAS VARIAVEIS - PESSOAL CIVIL                                                                     A06
2024319092910000000SENTENCAS JUDICIAIS                                                                                           A06
2024319092940000000INDENIZACOES E RESTITUICOES TRABALHISTAS                                                                      A06
2024319092940100000INDENIZACOES E RESTITUICOES TRAB ATIVO CIVIL                                                                  A07
2024319092940300000INDENIZACOES E RESTITUICOES TRAB INAT CIVIL                                                                   A07
2024319092941300000INDENIZACOES E RESTITUICOES TRABPENSCIVIL                                                                     A07
2024319092949800000INDENIZACOES POR DEMISSAO E COM PROGRAMAS DE INCENTIVOS A DEMISSAO VOLUNTARIA - TRAB ATIVO CIVIL              A07
2024319092949900000OUTRAS INDENIZACOES E RESTITUICOES TRABALHISTAS                                                               A07
2024319092960000000RESSARCIMENTO DE DESPESAS COM PESSOAL REQUISITADO                                                             A06
2024319092990000000OUTRAS DESPESAS DE EXERCICIOS ANTERIORES                                                                      A06
2024319094000000000INDENIZACOES E RESTITUICOES TRABALHISTAS                                                                      S05
2024319094010000000INDENIZACOES E RESTITUICOES TRAB ATIVO CIVIL                                                                  A06
2024319094030000000INDENIZACOES E RESTITUICOES TRAB INAT CIVIL                                                                   A06
2024319094130000000INDENIZACOES E RESTITUICOES TRABPENSCIVIL                                                                     A06
2024319094980000000INDENIZACOES POR DEMISSAO E COM PROGRAMAS DE INCENTIVOS A DEMISSAO VOLUNTARIA - TRAB ATIVO CIVIL              A06
2024319094990000000OUTRAS INDENIZACOES E RESTITUICOES TRABALHISTAS                                                               S06
2024319096000000000RESSARCIMENTO DE DESPESAS DE PESSOAL REQUISITADO                                                              S05
2024319096020000000PESSOAL REQUISITADO DE OUTROS ENTES                                                                           A06
2024319096990000000OUTROS RESSARCIMENTOS DE DESPESAS DE PESSOAL REQUISITADO                                                      A06
2024319100000000000APLICACAO DIRETA DECORRENTE DE OPERACAO ENTRE ORGAOS FUNDOS E ENTIDADES INTEGRANTES DOS ORCAMENTOS            S04
2024319104000000000CONTRATACAO POR TEMPO DETERMINADO                                                                             S05
2024319108000000000OUTROS BENEFICIOS ASSISTENCIAIS DO SERVIDOR E DO MILITAR                                                      A05
2024319113000000000CONTRIBUICOES PATRONAIS                                                                                       S05
2024319113080000000CONTRIBUICOES PREVIDENCIARIAS - RPPS - PESSOAL ATIVO - PLANO PREVIDENCIARIO                                   A06
2024319113100000000CONTRIBUICOES PREVIDENCIARIAS - RPPS - PESSOAL INATIVO E PENSIONISTA - PLANO PREVIDENCIARIO                   S06
2024319113100100000CONTRIBUICOES PREVIDENCIARIAS - RPPS - PESSOAL INATIVO - PLANO PREVIDENCIARIO                                 A07
2024319113100200000CONTRIBUICOES PREVIDENCIARIAS - RPPS - PENSIONISTA - PLANO PREVIDENCIARIO                                     A07
2024319113110000000CONTRIBUICOES PREVIDENCIARIAS - RPPS - PESSOAL ATIVO - PLANO FINANCEIRO                                       A06
2024319113120000000CONTRIBUICOES PREVIDENCIARIAS - RPPS - PESSOAL INATIVO E PENSIONISTA - PLANO FINANCEIRO                       S06
2024319113120100000CONTRIBUICOES PREVIDENCIARIAS - RPPS - PESSOAL INATIVO - PLANO FINANCEIRO                                     A07
2024319113120200000CONTRIBUICOES PREVIDENCIARIAS - RPPS -  PENSIONISTA - PLANO FINANCEIRO                                        A07
2024319113150000000MULTAS                                                                                                        A06
2024319113170000000JUROS                                                                                                         A06
2024319113200000000ALIQUOTA SUPLEMENTAR DE CONTRIBUICAO PREVIDENCIARIA -  PESSOAL ATIVO - PLANO PREVIDENCIARIO                   A06
2024319113210000000ALIQUOTA SUPLEMENTAR DE CONTRIBUICAO PREVIDENCIARIA -  PESSOAL INATIVO E PENSIONISTA - PLANO PREVIDENCIARIO   S06
2024319113210100000ALIQUOTA SUPLEMENTAR DE CONTRIBUICAO PREVIDENCIARIA -  PESSOAL INATIVO - PLANO PREVIDENCIARIO                 A07
2024319113210200000ALIQUOTA SUPLEMENTAR DE CONTRIBUICAO PREVIDENCIARIA -  PENSIONISTA - PLANO PREVIDENCIARIO                     A07
2024319113220000000ALIQUOTA SUPLEMENTAR DE CONTRIBUICAO PREVIDENCIARIA -  PESSOAL ATIVO - PLANO FINANCEIRO                       A06
2024319113230000000ALIQUOTA SUPLEMENTAR DE CONTRIBUICAO PREVIDENCIARIA -  PESSOAL INATIVO E PENSIONISTA - PLANO FINANCEIRO       S06
2024319113230100000ALIQUOTA SUPLEMENTAR DE CONTRIBUICAO PREVIDENCIARIA -  PESSOAL INATIVO - PLANO FINANCEIRO                     A07
2024319113230200000ALIQUOTA SUPLEMENTAR DE CONTRIBUICAO PREVIDENCIARIA -  PENSIONISTA - PLANO FINANCEIRO                         A07
2024319113990000000OUTRAS OBRIGACOES PATRONAIS                                                                                   S06
2024319113990100000AMORTIZACAO DO PASSIVO ATUARIAL COM O RPPS - ALIQUOTA SUPLEMENTAR                                             A07
2024319113990200000JUROS A CARGO DO MUNICIPIO SOBRE CONTRIBUICAO DO SERVIDOR AO RPPS                                             A07
2024319186000000000COMPENSACOES A REGIMES DE PREVIDENCIA                                                                         A05
2024319191000000000SENTENCAS JUDICIAIS                                                                                           S05
2024319191510000000OBRIGACOES PATRONAIS DE PRECATORIOS                                                                           A06
2024319191520000000OBRIGACOES PATRONAIS - SENTJUDPEQUENO VALOR                                                                   A06
2024319191530000000OBRIGACOES PATRONAIS SENTJUD-PESSOAL CIVIL                                                                    A06
2024319191990000000OUTRAS SENTENCAS JUDICIAIS                                                                                    A06
2024319192000000000DESPESAS DE EXERCICIOS ANTERIORES                                                                             S05
2024319192040000000CONTRATACAO POR TEMPO DETERMINADO                                                                             A06
2024319192050000000CONTRIBUICOES PREVIDENCIARIAS - RPPS - PESSOAL ATIVO DO PLANO PREVIDENCIARIO                                  A06
2024319192060000000CONTRIBUICOES PREVIDENCIARIAS - RPPS - PESSOAL INATIVO E PENSIONISTA DO PLANO PREVIDENCIARIO                  S06
2024319192060100000CONTRIBUICOES PREVIDENCIARIAS - RPPS - PESSOAL INATIVO DO PLANO PREVIDENCIARIO                                A07
2024319192060200000CONTRIBUICOES PREVIDENCIARIAS - RPPS - PENSIONISTA DO PLANO PREVIDENCIARIO                                    A07
2024319192070000000CONTRIBUICOES PREVIDENCIARIAS - RPPS - PESSOAL ATIVO DO PLANO FINANCEIRO                                      A06
2024319192080000000CONTRIBUICOES PREVIDENCIARIAS - RPPS - PESSOAL INATIVO E PENSIONISTA DO PLANO FINANCEIRO                      S06
2024319192080100000CONTRIBUICOES PREVIDENCIARIAS - RPPS - PESSOAL INATIVO DO PLANO FINANCEIRO                                    A07
2024319192080200000CONTRIBUICOES PREVIDENCIARIAS - RPPS - PENSIONISTA DO PLANO FINANCEIRO                                        A07
2024319192090000000ALIQUOTA SUPLEMENTAR DE CONTRIBUICAO PREVIDENCIARIA - PESSOAL ATIVO DO PLANO PREVIDENCIARIO                   A06
2024319192100000000ALIQUOTA SUPLEMENTAR DE CONTRIBUICAO PREVIDENCIARIA - PESSOAL INATIVO E PENSIONISTA DO PLANO PREVIDENCIARIO   S06
2024319192100100000ALIQUOTA SUPLEMENTAR DE CONTRIBUICAO PREVIDENCIARIA - PESSOAL INATIVO DO PLANO PREVIDENCIARIO                 A07
2024319192100200000ALIQUOTA SUPLEMENTAR DE CONTRIBUICAO PREVIDENCIARIA - PENSIONISTA DO PLANO PREVIDENCIARIO                     A07
2024319192110000000ALIQUOTA SUPLEMENTAR DE CONTRIBUICAO PREVIDENCIARIA - PESSOAL ATIVO DO PLANO FINANCEIRO                       A06
2024319192120000000ALIQUOTA SUPLEMENTAR DE CONTRIBUICAO PREVIDENCIARIA - PESSOAL INATIVO E PENSIONISTA DO PLANO FINANCEIRO       S06
2024319192120100000ALIQUOTA SUPLEMENTAR DE CONTRIBUICAO PREVIDENCIARIA - PESSOAL INATIVO DO PLANO FINANCEIRO                     A07
2024319192120200000ALIQUOTA SUPLEMENTAR DE CONTRIBUICAO PREVIDENCIARIA - PENSIONISTA DO PLANO FINANCEIRO                         A07
2024319192130000000DEMAIS OBRIGACOES PATRONAIS                                                                                   A06
2024319192910000000SENTENCAS JUDICIAIS                                                                                           A06
2024319192960000000RESSARCIMENTO DE DESPESAS COM PESSOAL REQUISITADO                                                             A06
2024319192990000000OUTRAS DESPESAS DE EXERCICIOS ANTERIORES                                                                      A06
2024319194000000000INDENIZACOES E RESTITUICOES TRABALHISTAS                                                                      S05
2024319194510000000INDENIZACOES TRABALHISTAS - OBRIG PATRONAIS                                                                   A06
2024319194980000000INDENIZACOES POR DEMISSAO E COM PROGRAMAS DE INCENTIVOS A DEMISSAO VOLUNTARIA - TRAB ATIVO CIVIL              A06
2024319194990000000OUTRAS INDENIZACOES E RESTITUICOES TRABALHISTAS                                                               S06
2024319196000000000RESSARCIMENTO DE DESPESAS DE PESSOAL REQUISITADO - OPERACOES INTRA-ORCAMENTARIAS                              S05
2024319196010000000PESSOAL REQUISITADO DE OUTROS ORGAOS DA MESMA ADMINISTRACAO                                                   A06
2024319196990000000OUTROS RESSARCIMENTOS DE DESPESAS DE PESSOAL REQUISITADO                                                      A06
2024319200000000000APLICACAO DIRETA DE RECURSOS  RECEBIDOS DE OUTROS ENTES                                                       S04
2024319500000000000APLICACAO DIRETA A CONTA DE RECURSOS DE QUE TRATAM OS  1 E 2 DO ART 24 DA LEI COMPLEMENTAR N 141 DE 2012      S04
2024319504000000000CONTRATACAO POR TEMPO DETERMINADO                                                                             A05
2024319507000000000CONTRIBUICAO A ENTIDADES FECHADAS DE PREVIDENCIA                                                              A05
2024319511000000000VENCIMENTOS E VANTAGENS FIXAS - PESSOAL CIVIL                                                                 A05
2024319513000000000OBRIGACOES PATRONAIS                                                                                          A05
2024319516000000000OUTRAS DESPESAS VARIAVEIS - PESSOAL CIVIL                                                                     A05
2024319567000000000DEPOSITOS COMPULSORIOS                                                                                        A05
2024319591000000000SENTENCAS JUDICIAIS                                                                                           A05
2024319592000000000DESPESAS DE EXERCICIOS ANTERIORES                                                                             S05
2024319594000000000INDENIZACOES E RESTITUICOES TRABALHISTAS                                                                      S05
2024319594980000000INDENIZACOES POR DEMISSAO E COM PROGRAMAS DE INCENTIVOS A DEMISSAO VOLUNTARIA - TRAB ATIVO CIVIL              A06
2024319594990000000OUTRAS INDENIZACOES E RESTITUICOES TRABALHISTAS                                                               A06
2024319596000000000RESSARCIMENTO DE DESPESAS DE PESSOAL REQUISITADO                                                              A05
2024319600000000000APLICACAO DIRETA A CONTA DE RECURSOS DE QUE TRATA O ART 25 DA LEI COMPLEMENTAR N 141 DE 2012                  S04
2024319604000000000CONTRATACAO POR TEMPO DETERMINADO                                                                             A05
2024319607000000000CONTRIBUICAO A ENTIDADES FECHADAS DE PREVIDENCIA                                                              A05
2024319611000000000VENCIMENTOS E VANTAGENS FIXAS - PESSOAL CIVIL                                                                 A05
2024319613000000000OBRIGACOES PATRONAIS                                                                                          A05
2024319616000000000OUTRAS DESPESAS VARIAVEIS - PESSOAL CIVIL                                                                     A05
2024319667000000000DEPOSITOS COMPULSORIOS                                                                                        A05
2024319691000000000SENTENCAS JUDICIAIS                                                                                           A05
2024319692000000000DESPESAS DE EXERCICIOS ANTERIORES                                                                             S05
2024319694000000000INDENIZACOES E RESTITUICOES TRABALHISTAS                                                                      S05
2024319694980000000INDENIZACOES POR DEMISSAO E COM PROGRAMAS DE INCENTIVOS A DEMISSAO VOLUNTARIA - TRAB ATIVO CIVIL              A06
2024319694990000000OUTRAS INDENIZACOES E RESTITUICOES TRABALHISTAS                                                               A06
2024319696000000000RESSARCIMENTO DE DESPESAS DE PESSOAL REQUISITADO                                                              A05
2024320000000000000JUROS E ENCARGOS DA DIVIDA                                                                                    S02
2024329000000000000APLICACOES DIRETAS                                                                                            S03
2024329021000000000JUROS SOBRE A DIVIDA POR CONTRATO                                                                             S05
2024329021010000000JUROS DA DIVIDA CONTRATADA COM INSTITUICOES FINANCEIRAS                                                       A06
2024329021010100000JUROS DO CAMINHO DA ESCOLA                                                                                    A07
2024329021020000000JUROS DA DIVIDA CONTRATADA COM GOVERNOS                                                                       A06
2024329021020100000JUROS DA DIVIDA CONTRATADA COM A UNIAO                                                                        A07
2024329021020200000JUROS DA DIVIDA CONTRATADA COM O ESTADO                                                                       A07
2024329021030000000JUROS DA DIVIDA CONTRATADA NO EXTERIOR                                                                        A06
2024329021990000000OUTROS JUROS DA DIVIDA CONTRATADA                                                                             A06
2024329022000000000OUTROS ENCARGOS SOBRE A DIVIDA POR CONTRATO                                                                   S05
2024329022010000000ENCARGOS DA DIVIDA CONTRATADA COM INSTITUICOES FINANCEIRAS                                                    A06
2024329022020000000ENCARGOS DA DIVIDA CONTRATADA COM GOVERNOS                                                                    A06
2024329022020100000ENCARGOS DA DIVIDA CONTRATADA COM A UNIAO                                                                     A07
2024329022020200000ENCARGOS DA DIVIDA CONTRATADA COM O ESTADO                                                                    A07
2024329022990000000DIVERSOS ENCARGOS DA DIVIDA CONTRATADA                                                                        A06
2024329023000000000JUROS DESAGIOS E DESCONTOS DA DIVIDA MOBILIARIA                                                               S05
2024329023010000000JUROS                                                                                                         A06
2024329023020000000DESAGIOS                                                                                                      A06
2024329023030000000DESCONTOS                                                                                                     A06
2024329024000000000OUTROS ENCARGOS SOBRE A DIVIDA MOBILIARIA                                                                     S05
2024329024010000000ENCARGOS                                                                                                      A06
2024329025000000000ENCARGOS SOBRE OPERACOES DE CREDITO POR ANTECIPACAO DA RECEITA                                                S05
2024329025010000000ENCARGOS SOBRE ADIANTAMENTOS BANCARIOS                                                                        A06
2024329025990000000DIVERSOS ENCARGOS                                                                                             A06
2024329091000000000SENTENCAS JUDICIAIS                                                                                           A05
2024329092000000000DESPESAS DE EXERCICIOS ANTERIORES                                                                             S05
2024329092010000000JUROS DA DIVIDA INTERNA                                                                                       A06
2024329092020000000ENCARGOS DA DIVIDA INTERNA                                                                                    A06
2024329092040000000ENCARGOS DA DIVIDA EXTERNA                                                                                    A06
2024329093000000000INDENIZACOES E RESTITUICOES                                                                                   S05
2024329093990000000OUTRAS INDENIZACOES E RESTITUICOES                                                                            A06
2024329200000000000APLICACAO DIRETA DE RECURSOS  RECEBIDOS DE OUTROS ENTES                                                       S04
2024330000000000000OUTRAS DESPESAS CORRENTES                                                                                     S02
2024332000000000000TRANSFERENCIAS A UNIAO                                                                                        S03
2024332039000000000OUTROS SERVICOS DE TERCEIROS - PESSOA JURIDICA                                                                S05
2024332039000100000PAGAMENTO DE LAUDEMIO                                                                                         A07
2024332041000000000CONTRIBUICOES                                                                                                 S05
2024332041990000000OUTRAS CONTRIBUICOES                                                                                          S06
2024332041990100000TRANSFERENCIAS FUNSET-FUNDO NACSEGURANCA EDUCTRANSITOLF 9503/97                                               A07
2024332041990200000TRANSFERENCIA VALORES A JUSTICA ELEITORAL                                                                     A07
2024332093000000000INDENIZACOES E RESTITUICOES                                                                                   S05
2024332093000100000RESTITUICAO DE TRANSFERENCIAS E CONVENIOS RECEBIDOS DA UNIAO                                                  A07
2024332200000000000EXECUCAO ORCAMENTARIA DELEGADA A UNIAO                                                                        S04
2024332230000000000MATERIAL DE CONSUMO                                                                                           A05
2024332239000000000OUTROS SERVICOS DE TERCEIROS - PESSOA JURIDICA                                                                A05
2024333000000000000TRANSFERENCIAS A ESTADOS E AO DISTRITO FEDERAL                                                                S03
2024333041000000000CONTRIBUICOES                                                                                                 S05
2024333041390000000RIO GRANDE DO SUL                                                                                             S06
2024333041390100000COMPENSACAO FINANCEIRA 9 ART201 DA CF                                                                         A07
2024333041390200000PROGRAMA TROCA-TROCA                                                                                          A07
2024333041390300000TRANSFERENCIAS PARA GRUPAMENTOS DE INCENDIO                                                                   A07
2024333043000000000SUBVENCOES SOCIAIS                                                                                            S05
2024333043390000000RIO GRANDE DO SUL                                                                                             A06
2024333047000000000OBRIGACOES TRIBUTARIAS E CONTRIBUTIVAS                                                                        S05
2024333047990000000OUTRAS OBRIGACOES TRIBUTARIAS E CONTRIBUTIVAS                                                                 A06
2024333093000000000INDENIZACOES E RESTITUICOES TRABALHISTAS                                                                      S05
2024333093390000000RIO GRANDE DO SUL                                                                                             S06
2024333093390100000RESTITUICAO DE TRANSFERENCIAS E CONVENIOS RECEBIDOS DO ESTADO                                                 A07
2024333093390200000RESTITUICAO DE IPVA                                                                                           A07
2024333100000000000TRANSFERENCIAS A ESTADOS E AO DISTRITO FEDERAL - FUNDO A FUNDO                                                S04
2024333141000000000CONTRIBUICOES                                                                                                 A05
2024333200000000000EXECUCAO ORCAMENTARIA DELEGADA A ESTADOS E AO DISTRITO FEDERAL                                                S04
2024333230000000000MATERIAL DE CONSUMO                                                                                           A05
2024333239000000000OUTROS SERVICOS DE TERCEIROS - PESSOA JURIDICA                                                                A05
2024333500000000000TRANSFERENCIAS FUNDO A FUNDO AOS ESTADOS E AO DISTRITO FEDERAL A CONTA DE RECURSOS DE QUE TRATAM OS  1 E 2 DO S04
2024333600000000000TRANSFERENCIAS FUNDO A FUNDO AOS ESTADOS E AO DISTRITO FEDERAL A CONTA DE RECURSOS DE QUE TRATA O ART 25 DA LES04
2024334000000000000TRANSFERENCIAS A MUNICIPIOS                                                                                   S03
2024334041000000000CONTRIBUICOES                                                                                                 S05
2024334041390000000A MUNICIPIOS DO ESTADO DO RIO GRANDE DO SUL                                                                   S06
2024334041390100000COMPENSACAO FINANCEIRA 9 ART201 DA CF                                                                         A07
2024334041390200000CONTRIBUICOES A ESCOLAS MUNICIPAIS                                                                            A07
2024334041390300000CONTRIBUICOES MUNICIPIO POLO DA CONTRAPARTIDA CONVENIO C/UNIAO                                                A07
2024334041390400000TRANSFERENCIA A MUNICIPIO EMANCIPADO PARA ACERTO DE  CONTAS                                                   A07
2024334047000000000OBRIGACOES TRIBUTARIAS E CONTRIBUTIVAS                                                                        S05
2024334047990000000OUTRAS OBRIGACOES TRIBUTARIAS E CONTRIBUTIVAS                                                                 S06
2024334047990100000CONTRIBUICAO PATRONAL PARA  RPPS DE OUTRO MUNICIPIO                                                           A07
2024334093000000000INDENIZACOES E RESTITUICOES                                                                                   S05
2024334093990000000OUTRAS INDENIZACOES E RESTITUICOES                                                                            S06
2024334093990100000RESTITUICAO DE TRANSFERENCIAS E CONVENIOS RECEBIDOS DOS MUNICIPIOS                                            A07
2024334200000000000EXECUCAO ORCAMENTARIA DELEGADA A MUNICIPIOS                                                                   S04
2024334239000000000OUTROS SERVICOS DE TERCEIROS - PESSOA JURIDICA                                                                A05
2024335000000000000TRANSFERENCIAS A INSTITUICOES PRIVADAS SEM FINS LUCRATIVOS                                                    S03
2024335018000000000AUXILIO FINANCEIRO A ESTUDANTES                                                                               A05
2024335020000000000AUXILIO FINANCEIRO A PESQUISADORES                                                                            A05
2024335030000000000MATERIAL DE CONSUMO                                                                                           A05
2024335031000000000PREMIACOES CULTURAIS ARTISTICAS CIENTIFICAS DESPORTIVAS E OUTRAS                                              A05
2024335033000000000PASSAGENS E DESPESAS COM LOCOMOCAO                                                                            A05
2024335035000000000SERVICOS DE CONSULTORIA                                                                                       A05
2024335036000000000OUTROS SERVICOS DE TERCEIROS - PESSOA FISICA                                                                  A05
2024335039000000000OUTROS SERVICOS DE TERCEIROS - PESSOA JURIDICA                                                                S05
2024335039510000000SERVICOS MEDICO-HOSPITALAR PRESTADOS EM UNIDADES HOSPITALARES                                                 A06
2024335039520000000SERVICOS MEDICO-HOSPITALAR PRESTADOS EM UNIDADES AMBULATORIAIS                                                A06
2024335039530000000SERVICOS MEDICO-HOSPITALAR PRESTADOS NA ATENCAO BASICA                                                        A06
2024335039540000000SERVICOS ODONTOLOGICOS                                                                                        A06
2024335039550000000SERVICOS LABORATORIAIS                                                                                        A06
2024335039560000000OUTROS SERVICOS DE ASSISTENCIA A SAUDE                                                                        A06
2024335039990000000DEMAIS SERVICOS DE TERCEIROS - PESSOA JURIDICA                                                                A06
2024335041000000000CONTRIBUICOES                                                                                                 S05
2024335041010000000INSTITUICOES DE CARATER ASSISTENCIAL  CULTURAL E EDUCACIONAL                                                  S06
2024335041010100000PROGRAMA DINHEIRO DIRETO NAS ESCOLAS - PDDE                                                                   A07
2024335041030000000INSTITUICOES DE PESQUISA  E DESENVOLVIMENTO TECNOLOGICO                                                       A06
2024335041080000000ENTIDADES REPRESENTATIVAS DE CLASSE                                                                           A06
2024335041990000000OUTRAS INSTITUICOES PRIVADAS                                                                                  A06
2024335043000000000SUBVENCOES SOCIAIS                                                                                            S05
2024335043050000000INSTITUICAO DE CARATER ASSISTENCIAL EM SAUDE                                                                  A06
2024335043060000000INSTITUICAO DE CARATER DE ASSISTENCIA SOCIAL                                                                  A06
2024335043070000000INSTITUICAO DE CARATER CULTURAL                                                                               A06
2024335043080000000INSTITUICAO DE CARATER EDUCACIONAL                                                                            A06
2024335043990000000OUTRAS INSTITUICOES PRIVADAS                                                                                  A06
2024335047000000000OBRIGACOES TRIBUTARIAS E CONTRIBUTIVAS                                                                        A05
2024335085000000000CONTRATO DE GESTAO                                                                                            A05
2024335092000000000DESPESAS DE EXERCICIOS ANTERIORES                                                                             S05
2024335092990000000OUTRAS DESPESAS DE EXERCICIOS ANTERIORES                                                                      A06
2024335093000000000INDENIZACOES E RESTITUICOES                                                                                   S05
2024335093020000000RESTITUICOES                                                                                                  S06
2024335093020100000RESTITUICOES A ENTIDADES PRIVADAS SEM FINS LUCRATIVOS                                                         A07
2024336000000000000TRANSFERENCIAS A INSTITUICOES PRIVADAS COM FINS LUCRATIVOS                                                    S03
2024336042000000000AUXILIOS                                                                                                      S05
2024336042010000000LEI PAULO GUSTAVO                                                                                             A06
2024336045000000000SUBVENCOES ECONOMICAS                                                                                         A05
2024337000000000000TRANSFERENCIAS A INSTITUICOES MULTIGOVERNAMENTAIS                                                             S03
2024337041000000000CONTRIBUICOES                                                                                                 S05
2024337041990000000OUTRAS CONTRIBUICOES                                                                                          S06
2024337100000000000TRANSFERENCIAS A CONSORCIOS PUBLICOS MEDIANTE CONTRATO DE RATEIO                                              S04
2024337170000000000RATEIO PELA PARTICIPACAO EM CONSORCIO PUBLICO                                                                 S05
2024337170010000000COFRON                                                                                                        A06
2024337170020000000CISMISSOES                                                                                                    A06
2024337170030000000CIGRES                                                                                                        A06
2024337170040000000CISA                                                                                                          A06
2024337200000000000EXECUCAO ORCAMENTARIA DELEGADA A CONSORCIOS PUBLICOS                                                          S04
2024337239000000000OUTROS SERVICOS DE TERCEIROS - PESSOA JURIDICA                                                                A05
2024337300000000000TRANSFERENCIAS A CONSORCIOS PUBLICOS MEDIANTE CONTRATO DE RATEIO A CONTA DE RECURSOS DE QUE TRATAM OS  1 E 2 DS04
2024337400000000000TRANSFERENCIAS A CONSORCIOS PUBLICOS MEDIANTE CONTRATO DE RATEIO A CONTA DE RECURSOS DE QUE TRATA O ART 25 DA S04
2024337500000000000TRANSFERENCIAS A INSTITUICOES MULTIGOVERNAMENTAIS A CONTA DE RECURSOS DE QUE TRATAM OS  1 E 2 DO ART 24 DA LEIS04
2024337541000000000CONTRIBUICOES                                                                                                 A05
2024337600000000000TRANSFERENCIAS A INSTITUICOES MULTIGOVERNAMENTAIS A CONTA DE RECURSOS DE QUE TRATA O ART 25 DA LEI COMPLEMENTAS04
2024337641000000000CONTRIBUICOES                                                                                                 A05
2024339000000000000APLICACOES DIRETAS                                                                                            S03
2024339004000000000CONTRATACAO POR TEMPO DETERMINADO                                                                             S05
2024339008000000000OUTROS BENEFICIOS ASSISTENCIAIS DO SERVIDOR E DO MILITAR                                                      S05
2024339008010000000AUXILIO-FUNERAL                                                                                               S06
2024339008010100000AUXILIO-FUNERAL - PESSOAL ATIVO                                                                               A07
2024339008010200000AUXILIO-FUNERAL - PESSOAL INATIVO                                                                             A07
2024339008010300000AUXILIO-FUNERAL - PENSIONISTAS                                                                                A07
2024339008050000000AUXILIO NATALIDADE                                                                                            S06
2024339008050100000AUXILIO NATALIDADE - PESSOAL ATIVO                                                                            A07
2024339008050200000AUXILIO NATALIDADE - PESSOAL INATIVO                                                                          A07
2024339008090000000AUXILIO-CRECHE OU ASSISTENCIA PRE-ESCOLAR                                                                     A06
2024339008110000000AUXILIO-SAUDE                                                                                                 S06
2024339008110100000AUXILIO-SAUDE - PESSOAL ATIVO                                                                                 A07
2024339008110200000AUXILIO-SAUDE - PESSOAL INATIVO                                                                               A07
2024339008110300000AUXILIO-SAUDE - PENSIONISTAS                                                                                  A07
2024339008140000000AUXILIO DEFICIENTE                                                                                            A06
2024339008150000000AUXILIO ESCOLA                                                                                                A06
2024339008460000000AUXILIO ODONTOLOGICO                                                                                          A06
2024339008470000000AUXILIO OFTALMOLOGICO                                                                                         A06
2024339008480000000AUXILIO MEDICAMENTO                                                                                           A06
2024339008530000000AUXILIO-RECLUSAO                                                                                              S06
2024339008530100000AUXILIO-RECLUSAO - PESSOAL ATIVO                                                                              A07
2024339008530200000AUXILIO-RECLUSAO - PESSOAL INATIVO                                                                            A07
2024339008560000000SALARIO-FAMILIA                                                                                               S06
2024339008560100000SALARIO FAMILIA - PESSOAL ATIVO                                                                               A07
2024339008560200000SALARIO FAMILIA - PESSOAL INATIVO                                                                             A07
2024339008990000000OUTROS BENEFICIOS ASSISTENCIAIS                                                                               A06
2024339014000000000DIARIAS -  CIVIL                                                                                              S05
2024339014140000000DIARIAS NO PAIS                                                                                               A06
2024339014160000000DIARIAS NO EXTERIOR                                                                                           A06
2024339014990000000OUTRAS DIARIAS                                                                                                A06
2024339018000000000AUXILIO FINANCEIRO A ESTUDANTES                                                                               S05
2024339018010000000BOLSAS DE ESTUDO NO PAIS                                                                                      A06
2024339018020000000BOLSAS DE ESTUDO NO EXTERIOR                                                                                  A06
2024339018030000000BOLSA ESCOLA - BENEFICIO                                                                                      A06
2024339018990000000OUTROS AUXILIOS FINANCEIROS A ESTUDANTES                                                                      A06
2024339019000000000AUXILIO-FARDAMENTO                                                                                            A05
2024339020000000000AUXILIO FINANCEIRO A PESQUISADORES                                                                            S05
2024339020010000000AUXILIO A PESQUISADORES                                                                                       A06
2024339027000000000ENCARGOS PELA HONRA DE AVAIS GARANTIAS SEGUROS E SIMILARES                                                    A05
2024339030000000000MATERIAL DE CONSUMO                                                                                           S05
2024339030010000000COMBUSTIVEIS E LUBRIFICANTES AUTOMOTIVOS                                                                      A06
2024339030020000000COMBUSTIVEIS E LUBRIFICANTES DE AVIACAO                                                                       A06
2024339030030000000COMBUSTIVEIS E LUBRIFICANTES  PARA  OUTRAS FINALIDADES                                                        A06
2024339030040000000GAS E OUTROS MATERIAIS ENGARRAFADOS                                                                           A06
2024339030050000000EXPLOSIVOS E MUNICOES                                                                                         A06
2024339030060000000ALIMENTOS PARA ANIMAIS                                                                                        A06
2024339030070000000GENEROS DE ALIMENTACAO                                                                                        S06
2024339030070100000MERENDA ESCOLAR                                                                                               S07
2024339030070100100MERENDA ESCOLAR ADQUIRIDA DA AGRICULTURA FAMILIAR                                                             A08
2024339030070100200MERENDA ESCOLAR ADQUIRIDAS DE OUTRAS FONTES                                                                   A08
2024339030079900000OUTROS GENEROS DE ALIMENTACAO                                                                                 A07
2024339030080000000ANIMAIS PARA PESQUISA E ABATE                                                                                 A06
2024339030090000000MATERIAL FARMACOLOGICO                                                                                        S06
2024339030090100000MEDICAMENTOS USADOS EM UNIDADES DE SAUDE                                                                      A07
2024339030090200000MEDICAMENTOS DISTRIBUIDOS PARA USO DOMICILIAR                                                                 A07
2024339030100000000MATERIAL ODONTOLOGICO                                                                                         A06
2024339030110000000MATERIAL QUIMICO                                                                                              A06
2024339030120000000MATERIAL DE COUDELARIA OU DE USO ZOOTECNICO                                                                   A06
2024339030130000000MATERIAL DE CACA E PESCA                                                                                      A06
2024339030140000000MATERIAL EDUCATIVO E ESPORTIVO                                                                                A06
2024339030150000000MATERIAL PARA  FESTIVIDADES E HOMENAGENS                                                                      A06
2024339030160000000MATERIAL DE EXPEDIENTE                                                                                        A06
2024339030170000000MATERIAL DE TIC CONSUMO                                                                                       A06
2024339030180000000MATERIAIS E MEDICAMENTOS PARA  USO VETERINARIO                                                                A06
2024339030190000000MATERIAL DE ACONDICIONAMENTO E EMBALAGEM                                                                      A06
2024339030200000000MATERIAL DE CAMA MESA E BANHO                                                                                 A06
2024339030210000000MATERIAL DE COPA E COZINHA                                                                                    A06
2024339030220000000MATERIAL DE LIMPEZA E PRODUTOS  DE HIGIENIZACAO                                                               A06
2024339030230000000UNIFORMES TECIDOS E AVIAMENTOS                                                                                A06
2024339030240000000MATERIAL PARA  MANUTENCAO DE BENS IMOVEIS / INSTALACOES                                                       A06
2024339030250000000MATERIAL PARA  MANUTENCAO DE BENS MOVEIS                                                                      A06
2024339030260000000MATERIAL ELETRICO E ELETRONICO                                                                                A06
2024339030270000000MATERIAL DE MANOBRA E PATRULHAMENTO                                                                           A06
2024339030280000000MATERIAL DE PROTECAO E SEGURANCA                                                                              A06
2024339030290000000MATERIAL PARA  AUDIO VIDEO E FOTO                                                                             A06
2024339030300000000MATERIAL PARA COMUNICACOES                                                                                    A06
2024339030310000000SEMENTES MUDAS DE PLANTAS E INSUMOS                                                                           A06
2024339030320000000SUPRIMENTO DE AVIACAO                                                                                         A06
2024339030330000000MATERIAL PARA  PRODUCAO INDUSTRIAL                                                                            A06
2024339030340000000SOBRESSAL MAQE MOTORES NAVIOS E EMBARCACOES                                                                   A06
2024339030350000000MATERIAL LABORATORIAL                                                                                         A06
2024339030360000000MATERIAL HOSPITALAR                                                                                           S06
2024339030360100000ORTESES PROTESES E MATERIAIS ESPECIAIS OPME                                                                   A07
2024339030369900000OUTROS MATERIAIS MEDICO HOSPITALAR                                                                            A07
2024339030370000000SOBRESSALENTES DE ARMAMENTO                                                                                   A06
2024339030380000000SUPRIMENTO DE PROTECAO AO VOO                                                                                 A06
2024339030390000000MATERIAL PARA  MANUTENCAO DE VEICULOS                                                                         A06
2024339030400000000MATERIAL BIOLOGICO                                                                                            A06
2024339030410000000MATERIAL PARA  UTILIZACAO EM GRAFICA                                                                          A06
2024339030420000000FERRAMENTAS                                                                                                   A06
2024339030430000000MATERIAL PARA  REABILITACAO PROFISSIONAL                                                                      A06
2024339030440000000MATERIAL DE SINALIZACAO VISUAL E OUTROS                                                                       A06
2024339030450000000MATERIAL TECNICO PARA  SELECAO E TREINAMENTO                                                                  A06
2024339030460000000MATERIAL BIBLIOGRAFICO                                                                                        A06
2024339030490000000BILHETES DE PASSAGEM                                                                                          A06
2024339030500000000BANDEIRAS FLAMULAS E INSIGNIAS                                                                                A06
2024339030510000000DISCOTECAS E FILMOTECAS NAO IMOBILIZAVEL                                                                      A06
2024339030540000000MATERIAL PARA MANUTENCAO E CONSERVACAO DE ESTRADAS E VIAS                                                     A06
2024339030960000000MATERIAL DE CONSUMO - PAGAMENTO  ANTECIPADO                                                                   A06
2024339030990000000OUTROS MATERIAIS DE CONSUMO                                                                                   S06
2024339030990100000MATERIAL PARA MANUTENCAO DE MAQUINAS E EQUIPAMENTOS                                                           A07
2024339030990200000MATERIAIS PARA DOACAO                                                                                         A07
2024339030990300000MATERIAL PARA SUBSTITUICAO EM BENS DE TERCEIROS DANIFICADOS PELO MUNICIPIO                                    A07
2024339030990400000MATERIAL PERMANENTE EMPENHADO COMO MATERIAL DE CONSUMO                                                        A07
2024339030990500000MATERIAL DE DIVULGACAO                                                                                        A07
2024339031000000000PREMIACOES CULTURAIS ARTISTICAS CIENTIFICAS DESPORTIVAS E OUTRAS                                              S05
2024339031010000000PREMIACOES CULTURAIS                                                                                          A06
2024339031020000000PREMIACOES ARTISTICAS                                                                                         A06
2024339031030000000PREMIACOES CIENTIFICAS                                                                                        A06
2024339031040000000PREMIACOES DESPORTIVAS                                                                                        A06
2024339031050000000ORDENS HONORIFICAS                                                                                            A06
2024339031990000000OUTRAS PREMIACOES                                                                                             A06
2024339032000000000MATERIAL BEM OU SERVICO PARA DISTRIBUICAO GRATUITA                                                            S05
2024339032020000000MEDICAMENTOS PARA USO DOMICILIAR                                                                              A06
2024339032030000000MATERIAL DESTINADO A ASSISTENCIA SOCIAL                                                                       S06
2024339032030100000AUXILIO-FUNERAL                                                                                               A07
2024339032030200000CESTA BASICA                                                                                                  A07
2024339032030300000MATERIAL E SERVICOS DE OBRAS REFORMAS E CONSTRUCOES                                                           A07
2024339032030400000PASSAGENS ESTADIAS E ALIMENTACAO EM VIAGENS                                                                   A07
2024339032039900000OUTROS SERVICOS E MATERIAIS DE ASSISTENCIA SOCIAL                                                             A07
2024339032040000000MATERIAL EDUCACIONAL E CULTURAL                                                                               A06
2024339032050000000MERCADORIAS PARA DOACAO                                                                                       A06
2024339032070000000MATERIAL PARA CERIMONIAL                                                                                      A06
2024339032080000000MATERIAL PARA REABILITACAO PROFISSIONAL                                                                       A06
2024339032090000000MATERIAL PARA DIVULGACAO                                                                                      A06
2024339032960000000MATERIAL DE DISTRIBUICAO GRATUITA - PAGAMENTO ANTECIPADO                                                      A06
2024339032990000000OUTROS MATERIAIS DE DISTRIBUICAO GRATUITA                                                                     S06
2024339032990100000SERVICOS DISTRIBUIDOS GRATUITAMENTE                                                                           A07
2024339032990200000CONSULTAS EXAMES E PROCEDIMENTOS DE SAUDE PAGOS POR RESSARCIMENTO                                             A07
2024339032990300000MEDICAMENTOS DISTRIBUIDOS GRATUITAMENTE                                                                       A07
2024339032990400000MATERIAL HOSPITALAR DISTRIBUIDOS GRATUITAMENTE                                                                A07
2024339033000000000PASSAGENS E DESPESAS COM LOCOMOCAO                                                                            S05
2024339033010000000PASSAGENS PARA O PAIS                                                                                         A06
2024339033020000000PASSAGENS PARA O EXTERIOR                                                                                     A06
2024339033030000000LOCACAO DE MEIOS DE TRANSPORTE                                                                                A06
2024339033050000000LOCOMOCAO URBANA                                                                                              A06
2024339033080000000PEDAGIOS                                                                                                      A06
2024339033960000000PASSAGENS E DESPESAS COM LOCOMOCAO-PAGAMENTO ANTECIPADO                                                       A06
2024339033990000000OUTRAS DESPESAS COM LOCOMOCAO                                                                                 A06
2024339034000000000OUTRAS DESPESAS DE PESSOAL DECORRENTES DE CONTRATOS DE TERCEIRIZACAO                                          S05
2024339034010000000SUBSTITUICAO DE MAO DE OBRA  ART 18 1 DA LRF                                                                  A06
2024339035000000000SERVICOS DE CONSULTORIA                                                                                       S05
2024339035010000000ASSESSORIA E CONSULTORIA TECNICA OU JURIDICA                                                                  A06
2024339035020000000AUDITORIA EXTERNA                                                                                             A06
2024339035040000000CONSULTORIA EM TECNOLOGIA DA INFORMACAO E COMUNICACAO TIC                                                     A06
2024339035960000000SERVICOS DE CONSULTORIA - PAGTO ANTECIPADO                                                                    A06
2024339035990000000OUTROS SERVICOS DE CONSULTORIA                                                                                A06
2024339036000000000OUTROS SERVICOS DE TERCEIROS - PESSOA FISICA                                                                  S05
2024339036010000000CONDOMINIOS                                                                                                   A06
2024339036020000000DIARIAS A COLABORADORES EVENTUAIS NO PAIS                                                                     A06
2024339036030000000DIARIAS A COLABORADORES EVENTUAIS NO EXTERIOR                                                                 A06
2024339036040000000COMISSOES E CORRETAGENS                                                                                       A06
2024339036050000000DIREITOS AUTORAIS                                                                                             A06
2024339036060000000SERVICOS TECNICOS PROFISSIONAIS                                                                               A06
2024339036070000000ESTAGIARIOS                                                                                                   A06
2024339036080000000RESIDENCIA MEDICA                                                                                             A06
2024339036110000000PRO-LABORE A CONSULTORES EVENTUAIS                                                                            A06
2024339036130000000CONFERENCIAS E EXPOSICOES E ESPETACULOS                                                                       A06
2024339036140000000ARMAZENAGEM                                                                                                   A06
2024339036150000000LOCACAO DE IMOVEIS                                                                                            A06
2024339036160000000LOCACAO DE BENS MOVEIS E INTANGIVEIS                                                                          A06
2024339036180000000MANUTENCAO E CONSERVACAO  DE EQUIPAMENTOS                                                                     A06
2024339036200000000MANUTENCAO E CONSERVACAO  DE VEICULOS                                                                         A06
2024339036210000000MANUTENCAO E CONSERVACAO DE BENS MOVEIS DE OUTRAS NATUREZAS                                                   A06
2024339036220000000MANUTENCAO E CONSERVACAO  DE BENS IMOVEIS                                                                     A06
2024339036230000000FORNECIMENTO DE ALIMENTACAO                                                                                   A06
2024339036250000000SERVICOS DE LIMPEZA E CONSERVACAO                                                                             A06
2024339036260000000SERVICOS DOMESTICOS                                                                                           A06
2024339036270000000SERVICOS DE COMUNICACAO EM GERAL                                                                              A06
2024339036280000000SERVICO DE SELECAO E TREINAMENTO                                                                              A06
2024339036290000000HONORARIOS ADVOCATICIOS - ONUS DA SUCUMBENCIA                                                                 A06
2024339036300000000SERVICOS MEDICOS E ODONTOLOGICOS                                                                              S06
2024339036300100000SERVICOS DE TERCEIROS - PF - PSF                                                                              A07
2024339036300200000SERVICOS MEDICO E ODONTOLOGICO - PF - PACS                                                                    A07
2024339036309900000SERVICOS MEDICO E ODONTOLOGICO - PF - OUTROS                                                                  A07
2024339036310000000SERVICOS DE REABILITACAO PROFISSIONAL                                                                         A06
2024339036320000000SERVICOS DE ASSISTENCIA SOCIAL                                                                                A06
2024339036340000000SERVICOS DE PERICIAS MEDICAS POR BENEFICIOS                                                                   A06
2024339036350000000SERVICOS  DE APOIO ADMINISTRATIVOS TECNICO E OPERACIONAL                                                      A06
2024339036360000000SERVICOS DE CONSERVACAO E REBENEFICIAMENTO  DE MERCADORIAS                                                    A06
2024339036370000000CONFECCAO DE MATERIAL DE ACONDICIONAMENTO  E EMBALAGEM                                                        A06
2024339036380000000CONFECCAO DE UNIFORMES BANDEIRAS E FLAMULAS                                                                   A06
2024339036390000000FRETES E TRANSPORTES DE ENCOMENDAS                                                                            A06
2024339036410000000MULTAS DEDUTIVEIS                                                                                             A06
2024339036420000000JUROS                                                                                                         A06
2024339036440000000MULTAS INDEDUTIVEIS                                                                                           A06
2024339036450000000JETONS A CONSELHEIROS                                                                                         A06
2024339036460000000DIARIAS A CONSELHEIROS                                                                                        A06
2024339036480000000TRANSPORTE ESCOLAR                                                                                            A06
2024339036540000000MANUTENCAO E CONSERVACAO DE EQUIPAMENTOS DE TIC                                                               A06
2024339036570000000SERVICOS TECNICOS PROFISSIONAIS DE TIC                                                                        A06
2024339036590000000SERVICOS DE AUDIO VIDEO E FOTO                                                                                A06
2024339036960000000OUTROS SERVICOS DE TERCEIROS PESSOA FISICA - PAGAMENTO ANTECIPADO                                             A06
2024339036990000000OUTROS SERVICOS                                                                                               S06
2024339036990100000SERVICOS NOTARIAIS                                                                                            A07
2024339037000000000LOCACAO DE MAO-DE-OBRA                                                                                        S05
2024339037010000000APOIO ADMINISTRATIVO TECNICO E OPERACIONAL                                                                    A06
2024339037020000000LIMPEZA E CONSERVACAO                                                                                         A06
2024339037030000000VIGILANCIA OSTENSIVA                                                                                          A06
2024339037040000000MANUTENCAO E CONSERVACAO DE BENS IMOVEIS                                                                      A06
2024339037050000000SERVICOS DE COPA E COZINHA                                                                                    A06
2024339037060000000MANUTENCAO E CONSERVACAO DE BENS MOVEIS                                                                       A06
2024339037960000000LOCACAO DE MAO-DE-OBRA - PAGAMENTO  ANTECIPADO                                                                A06
2024339037990000000OUTRAS LOCACOES DE MAO DE OBRA                                                                                A06
2024339038000000000ARRENDAMENTO MERCANTIL                                                                                        S05
2024339038010000000MAQUINAS E APARELHOS                                                                                          A06
2024339038030000000VEICULOS RODOVIARIOS                                                                                          A06
2024339038040000000OUTROS BENS MOVEIS                                                                                            A06
2024339038050000000BENS IMOVEIS                                                                                                  A06
2024339038990000000OUTROS ARRENDAMENTOS                                                                                          A06
2024339039000000000OUTROS SERVICOS DE TERCEIROS - PESSOA JURIDICA                                                                S05
2024339039010000000ASSINATURAS DE PERIODICOS E ANUIDADES                                                                         A06
2024339039020000000CONDOMINIOS                                                                                                   A06
2024339039030000000COMISSOES CORRETAGENS E CUSTODIAS                                                                             A06
2024339039040000000DIREITOS AUTORAIS                                                                                             A06
2024339039050000000SERVICOS TECNICOS PROFISSIONAIS                                                                               A06
2024339039090000000ARMAZENAGEM                                                                                                   A06
2024339039100000000LOCACAO DE IMOVEIS                                                                                            A06
2024339039120000000LOCACAO DE MAQUINAS E EQUIPAMENTOS                                                                            A06
2024339039140000000LOCACAO BENS MOVEIS  OUTRAS NATUREZAS E INTANGIVEIS                                                           A06
2024339039150000000TRIBUTOS A CONTA DO LOCATARIO                                                                                 A06
2024339039160000000MANUTENCAO E CONSERVACAO  DE BENS IMOVEIS                                                                     A06
2024339039170000000MANUTENCAO  E CONSERVACAO DE MAQUINAS E EQUIPAMENTOS                                                          A06
2024339039190000000MANUTENCAO E CONSERVACAO DE VEICULOS                                                                          A06
2024339039200000000MANUTENCAO E CONSERVACAO DE BENS MOVEIS DE OUTRAS NATUREZAS                                                   A06
2024339039210000000MANUTENCAO E CONSERVACAO  DE ESTRADAS E VIAS                                                                  A06
2024339039220000000EXPOSICOES CONGRESSOS E CONFERENCIAS                                                                          A06
2024339039230000000FESTIVIDADES E HOMENAGENS                                                                                     A06
2024339039250000000TAXA DE ADMINISTRACAO                                                                                         A06
2024339039290000000HONORARIOS ADVOCATICIOS - ONUS DA SUCUMBENCIA                                                                 A06
2024339039320000000TRANSPORTE ESCOLAR                                                                                            A06
2024339039350000000MULTAS DEDUTIVEIS                                                                                             A06
2024339039360000000MULTAS INDEDUTIVEIS                                                                                           A06
2024339039370000000JUROS                                                                                                         A06
2024339039410000000FORNECIMENTO DE ALIMENTACAO                                                                                   A06
2024339039430000000SERVICOS DE ENERGIA ELETRICA                                                                                  A06
2024339039440000000SERVICOS DE AGUA E ESGOTO                                                                                     A06
2024339039450000000SERVICOS DE GAS                                                                                               A06
2024339039460000000SERVICOS DOMESTICOS                                                                                           A06
2024339039470000000SERVICOS DE COMUNICACAO EM GERAL                                                                              A06
2024339039480000000SERVICO DE SELECAO E TREINAMENTO                                                                              A06
2024339039490000000PRODUCOES JORNALISTICAS                                                                                       A06
2024339039500000000SERVICOS MEDICO-HOSPITALAR ODONTOLOGICOS  E LABORATORIAIS                                                     S06
2024339039500100000SERVICOS PRESTADOS EM UNIDADES HOSPITALARES                                                                   A07
2024339039500200000SERVICOS PRESTADOS EM UNIDADES AMBULATORIAIS                                                                  A07
2024339039500300000SERVICOS PRESTADOS NA ATENCAO BASICA PSF                                                                      A07
2024339039509900000OUTROS SERVICOS MEDICO-HOSPITALAR ODONTOLOGICO E LABORATORIAL                                                 A07
2024339039510000000SERVICOS DE ANALISES E PESQUISAS CIENTIFICAS                                                                  A06
2024339039520000000SERVICOS DE REABILITACAO PROFISSIONAL                                                                         A06
2024339039530000000SERVICOS DE ASSISTENCIA SOCIAL                                                                                A06
2024339039540000000SERVICOS DE CRECHES E ASSISTENCIA  PRE-ESCOLAR                                                                A06
2024339039560000000SERVICOS DE PERICIAS MEDICAS P/ BENEFICIOS                                                                    A06
2024339039580000000SERVICOS DE TELECOMUNICACOES                                                                                  S06
2024339039580100000TELEFONE                                                                                                      A07
2024339039580200000INTERNET                                                                                                      A07
2024339039590000000SERVICOS DE AUDIO VIDEO E FOTO                                                                                A06
2024339039610000000SERVICOS DE SOCORRO E SALVAMENTO                                                                              A06
2024339039630000000SERVICOS GRAFICOS E EDITORIAIS                                                                                A06
2024339039650000000SERVICOS DE APOIO AO ENSINO                                                                                   A06
2024339039660000000SERVICOS JUDICIARIOS                                                                                          A06
2024339039670000000SERVICOS FUNERARIOS                                                                                           A06
2024339039690000000SEGUROS EM GERAL                                                                                              A06
2024339039700000000CONFECCAO DE UNIFORMES BANDEIRAS E FLAMULAS                                                                   A06
2024339039710000000CONFECCAO DE MATERIAL DE ACONDICIONAMENTO  E EMBALAGEM                                                        A06
2024339039720000000VALE-TRANSPORTE                                                                                               A06
2024339039730000000TRANSPORTE DE SERVIDORES                                                                                      A06
2024339039740000000FRETES E TRANSPORTES  DE ENCOMENDAS                                                                           A06
2024339039770000000VIGILANCIA OSTENSIVA E MONITORADA                                                                             A06
2024339039780000000LIMPEZA E CONSERVACAO                                                                                         A06
2024339039790000000SERVICO  DE APOIO ADMINISTRATIVO TECNICO E OPERACIONAL                                                        A06
2024339039800000000HOSPEDAGENS                                                                                                   A06
2024339039810000000SERVICOS BANCARIOS                                                                                            A06
2024339039820000000SERVICOS DE CONTROLE AMBIENTAL                                                                                A06
2024339039830000000SERVICOS DE COPIAS E REPRODUCAO DE DOCUMENTOS                                                                 A06
2024339039900000000SERVICOS DE PUBLICIDADE LEGAL                                                                                 A06
2024339039920000000SERVICOS DE PUBLICIDADE INSTITUCIONAL                                                                         A06
2024339039930000000SERVICOS DE PUBLICIDADE DE UTILIDADE PUBLICA                                                                  A06
2024339039960000000OUTROS SERVDE TERCEIROS PESSOA JURIDICA- PAGAMENTO ANTECIPADO                                                 A06
2024339039990000000OUTROS SERVICOS DE TERCEIROS-PESSOA JURIDICA                                                                  S06
2024339039990100000SERVICOS DE ESTAGIARIOS                                                                                       A07
2024339039990200000ASSOCIACOES FEDERACOES E CONFEDERACOES                                                                        A07
2024339039990400000MULTAS DE TRANSITO                                                                                            A07
2024339039990500000MANUTENCAO E CONSERVACAO  DA REDE DE ILUMINACAO PUBLICA                                                       A07
2024339039990700000TRANSPORTE DE CIDADAOS                                                                                        A07
2024339039990800000INSCRICOES EM EVENTOS ESPORTIVOS                                                                              A07
2024339039990900000CURSOS E TREINAMENTO PARA CIDADAOS                                                                            A07
2024339039991000000SERVICO DE HORA-MAQUINA                                                                                       A07
2024339040000000000SERVICOS DE TECNOLOGIA DA INFORMACAO E COMUNICACAO - PJ                                                       S05
2024339040010000000LOCACAO DE EQUIPAMENTOS DE TIC - ATIVOS DE REDE                                                               A06
2024339040020000000LOCACAO DE EQUIPAMENTOS DE TIC - COMPUTADORES                                                                 A06
2024339040030000000LOCACAO DE EQUIPAMENTOS DE TIC - SERVIDORES/STORAGE                                                           A06
2024339040040000000LOCACAO DE EQUIPAMENTOS DE TIC - IMPRESSORAS                                                                  A06
2024339040050000000LOCACAO DE EQUIPAMENTOS DE TIC - TELEFONIA                                                                    A06
2024339040060000000LOCACAO DE SOFTWARE                                                                                           A06
2024339040070000000MANUTENCAO CORRETIVA/ADAPTATIVA E SUSTENTACAO SOFTWARES                                                       A06
2024339040090000000HOSPEDAGEM DE SISTEMAS                                                                                        A06
2024339040100000000SUPORTE A USUARIOS DE TIC                                                                                     A06
2024339040110000000SUPORTE DE INFRAESTRUTURA DE TIC                                                                              A06
2024339040120000000MANUTENCAO E CONSERVACAO DE EQUIPAMENTOS DE TIC                                                               A06
2024339040130000000COMUNICACAO DE DADOS                                                                                          A06
2024339040140000000TELEFONIA FIXA E MOVEL - PACOTE DE COMUNICACAO DE DADOS                                                       A06
2024339040150000000DIGITALIZACAO/INDEXACAO DE DOCUMENTOS                                                                         A06
2024339040160000000OUTSOURCING DE IMPRESSAO                                                                                      A06
2024339040170000000COMPUTACAO EM NUVEM - INFRAESTRUTURA COMO SERVICO IaaS                                                        A06
2024339040180000000COMPUTACAO EM NUVEM - PLATAFORMA COMO SERVICO PaaS                                                            A06
2024339040190000000COMPUTACAO EM NUVEM - SOFTWARE COMO SERVICO SaaS                                                              A06
2024339040200000000TREINAMENTO/CAPACITACAO EM TIC                                                                                A06
2024339040210000000SERVICOS TECNICOS PROFISSIONAIS DE TIC                                                                        A06
2024339040220000000INSTALACAO DE EQUIPAMENTOS DE TIC                                                                             A06
2024339040230000000EMISSAO DE CERTIFICADOS DIGITAIS                                                                              A06
2024339040960000000SERVICOS DE TIC - PAGAMENTO ANTECIPADO                                                                        A06
2024339040990000000OUTROS SERVICOS DE TIC                                                                                        S06
2024339040990100000INSTALACAO/IMPLANTACAO DE SISTEMAS INFORMATIZADOS                                                             A07
2024339041000000000CONTRIBUICOES                                                                                                 S05
2024339041000100000CONTRIBUICOES AS FORCAS AUXILIARES                                                                            A07
2024339045000000000SUBVENCOES ECONOMICAS                                                                                         S05
2024339045990000000OUTRAS SUBVENCOES ECONOMICAS                                                                                  A06
2024339046000000000AUXILIO-ALIMENTACAO                                                                                           S05
2024339046010000000INDENIZACAO AUXILIO-ALIMENTACAO                                                                               A06
2024339047000000000OBRIGACOES TRIBUTARIAS E CONTRIBUTIVAS                                                                        S05
2024339047020000000IMPOSTO SOBRE PROPRIEDADE PREDIAL E TERRITORIAL URBANA - IPTU                                                 A06
2024339047030000000IMPOSTO DE RENDA                                                                                              A06
2024339047080000000IMPOSTO SOBRE SERVICOS DE QUALQUER NATUREZA - ISSQN                                                           A06
2024339047100000000TAXAS                                                                                                         A06
2024339047120000000CONTRIBUICAO PARA  O PIS/PASEP                                                                                S06
2024339047120100000PASEP RETIDO                                                                                                  A07
2024339047120200000PASEP APURACAO RESIDUAL MENSAL                                                                                A07
2024339047140000000CPMF                                                                                                          A06
